{
	"data": {
		"bytecode": {
			"linkReferences": {},
			"object": "60a060405234801561001057600080fd5b506040516117a53803806117a583398101604081905261002f9161027f565b836001600160a01b03811661005f57604051631e4fbdf760e01b8152600060048201526024015b60405180910390fd5b61006881610213565b50600180556002805460ff191690556001600160a01b0381166100dd5760405162461bcd60e51b815260206004820152602760248201527f5a65726f206164647265737320676976656e20666f722063555344546f6b656e6044820152664164647265737360c81b6064820152608401610056565b6001600160a01b03841661014a5760405162461bcd60e51b815260206004820152602e60248201527f5a65726f206164647265737320676976656e20666f722072657365617263686560448201526d7257616c6c65744164647265737360901b6064820152608401610056565b6000831161019a5760405162461bcd60e51b815260206004820152601560248201527f496e76616c69642072657761726420616d6f756e7400000000000000000000006044820152606401610056565b600082116101f85760405162461bcd60e51b815260206004820152602560248201527f496e76616c6964206e756d626572206f6620746172676574207061727469636960448201526470616e747360d81b6064820152608401610056565b6001600160a01b0316608052600691909155600755506102c6565b600080546001600160a01b038381166001600160a01b0319831681178455604051919092169283917f8be0079c531659141344cd1fd0a4f28419497f9722a3daafe3b4186f6b6457e09190a35050565b80516001600160a01b038116811461027a57600080fd5b919050565b6000806000806080858703121561029557600080fd5b61029e85610263565b60208601516040870151919550935091506102bb60608601610263565b905092959194509250565b6080516114a1610304600039600081816101b40152818161062f01528181610c4a01528181610d2201528181610d9b015261111d01526114a16000f3fe608060405234801561001057600080fd5b506004361061018e5760003560e01c8063741ae614116100de578063a6a0981111610097578063ea1dd10111610071578063ea1dd1011461035c578063f22069df1461036f578063f2fde38b14610377578063f67ae9411461038a57600080fd5b8063a6a098111461031f578063d4bfbd4114610328578063e082fe2a1461035457600080fd5b8063741ae6141461029d5780637a0abf08146102a55780638c0a0966146102ae5780638da5cb5b146102db578063a0858343146102ec578063a0ca86a3146102ff57600080fd5b80635c975abb1161014b5780636fa1c59d116101255780636fa1c59d146102595780636ff65c20146102615780637069243c1461028d578063715018a61461029557600080fd5b80635c975abb1461021c57806364751f221461023357806364bb632f1461024657600080fd5b8063047bc438146101935780631fccf672146101af57806328a2355b146101ee5780633960fc66146101f65780634074be4014610200578063528780cc14610209575b600080fd5b61019c60095481565b6040519081526020015b60405180910390f35b6101d67f000000000000000000000000000000000000000000000000000000000000000081565b6040516001600160a01b0390911681526020016101a6565b60095461019c565b6101fe61039d565b005b61019c600a5481565b6101fe6102173660046112a4565b6103af565b60025460ff165b60405190151581526020016101a6565b6101fe6102413660046112bd565b610466565b6101fe6102543660046112a4565b61055d565b60075461019c565b61022361026f3660046112bd565b6001600160a01b031660009081526004602052604090205460ff1690565b60065461019c565b6101fe6105f5565b60085461019c565b61019c60065481565b6102236102bc3660046112bd565b6001600160a01b031660009081526003602052604090205460ff161590565b6000546001600160a01b03166101d6565b6101fe6102fa3660046112bd565b610607565b61031261030d3660046112ed565b610901565b6040516101a69190611364565b61019c60075481565b6102236103363660046112bd565b6001600160a01b031660009081526003602052604090205460ff1690565b6101fe610ad4565b6101fe61036a3660046112bd565b610ae4565b6101fe610c22565b6101fe6103853660046112bd565b610ea8565b6101fe6103983660046112bd565b610ee3565b6103a5610fd1565b6103ad610ffe565b565b6103b7610fd1565b8060000361041d5760405162461bcd60e51b815260206004820152602860248201527f5a65726f206e756d626572206f6620746172676574207061727469636970616e6044820152673a399033b4bb32b760c11b60648201526084015b60405180910390fd5b6007805490829055604080518281526020810184905283917fb90f11d36a1f2ec1f3b89ac87ccd1ffab1a49f3e3ca83cfdac21fd99a537cbc191015b60405180910390a1505050565b61046e610fd1565b6001600160a01b038116600090815260036020526040902054819060ff16156104cf5760405162461bcd60e51b8152602060048201526013602482015272135d5cdd08189948189b1858dadb1a5cdd1959606a1b6044820152606401610414565b6001600160a01b0382166104f55760405162461bcd60e51b8152600401610414906113b0565b6001600160a01b038216600081815260036020908152604091829020805460ff1916600190811790915560098054909101905590519182527f84608224e0456ec7c9063f8dfd347a891979e08cb0c7d7dae9bad7bd5edb7f3691015b60405180910390a15050565b610565610fd1565b806000036105b55760405162461bcd60e51b815260206004820152601860248201527f5a65726f2072657761726420616d6f756e7420676976656e00000000000000006044820152606401610414565b6006805490829055604080518281526020810184905283917ff0d37c3ae852021ac329281f604b658691cbfa6b9e9c22909f06b64a8ce87c949101610459565b6105fd610fd1565b6103ad6000611050565b61060f6110a0565b6106176110c4565b6006546040516370a0823160e01b81523060048201527f00000000000000000000000000000000000000000000000000000000000000006001600160a01b0316906370a0823190602401602060405180830381865afa15801561067e573d6000803e3d6000fd5b505050506040513d601f19601f820116820180604052508101906106a291906113dd565b10156106fb5760405162461bcd60e51b815260206004820152602260248201527f436f6e747261637420646f6573206e6f74206861766520656e6f75676820635560448201526114d160f21b6064820152608401610414565b6007546008541061075a5760405162461bcd60e51b815260206004820152602360248201527f416c6c207061727469636970616e74732068617665206265656e20726577617260448201526219195960ea1b6064820152608401610414565b80336001600160a01b038216146107a75760405162461bcd60e51b815260206004820152601160248201527027b7363c903b30b634b21039b2b73232b960791b6044820152606401610414565b6001600160a01b038216600090815260036020526040902054829060ff1661080c5760405162461bcd60e51b81526020600482015260186024820152774f6e6c792077686974656c6973746564206164647265737360401b6044820152606401610414565b6001600160a01b038316600090815260046020526040902054839060ff16156108775760405162461bcd60e51b815260206004820152601c60248201527f5061727469636970616e7420616c7265616479207265776172646564000000006044820152606401610414565b6001600160a01b038416600090815260056020526040902054849060ff166108d45760405162461bcd60e51b815260206004820152601060248201526f135d5cdd081899481cd8dc99595b995960821b6044820152606401610414565b60006108df866110ee565b905080156108f0576108f0866111ea565b50505050506108fe60018055565b50565b606081600081900361094b5760405162461bcd60e51b8152602060048201526013602482015272139bc81859191c995cdcd95cc81c185cdcd959606a1b6044820152606401610414565b6000805b828110156109ba576003600087878481811061096d5761096d6113f6565b905060200201602081019061098291906112bd565b6001600160a01b0316815260208101919091526040016000205460ff16156109b257816109ae8161140c565b9250505b60010161094f565b5060008167ffffffffffffffff8111156109d6576109d6611433565b6040519080825280602002602001820160405280156109ff578160200160208202803683370190505b5090506000805b84811015610ac85760036000898984818110610a2457610a246113f6565b9050602002016020810190610a3991906112bd565b6001600160a01b0316815260208101919091526040016000205460ff1615610ac057878782818110610a6d57610a6d6113f6565b9050602002016020810190610a8291906112bd565b8383610a8d8161140c565b945081518110610a9f57610a9f6113f6565b60200260200101906001600160a01b031690816001600160a01b0316815250505b600101610a06565b50909695505050505050565b610adc610fd1565b6103ad611244565b80336001600160a01b03821614610b315760405162461bcd60e51b815260206004820152601160248201527027b7363c903b30b634b21039b2b73232b960791b6044820152606401610414565b6001600160a01b038216600090815260056020526040902054829060ff1615610b9c5760405162461bcd60e51b815260206004820152601760248201527f4f6e6c7920756e73637265656e656420616464726573730000000000000000006044820152606401610414565b6001600160a01b038316610bc25760405162461bcd60e51b8152600401610414906113b0565b6001600160a01b038316600081815260056020908152604091829020805460ff19166001908117909155600a8054909101905590519182527fc4ec7a2dc5e72d17666a15570e438638bfc023a7a091df162b669c37198bacb29101610459565b610c2a610fd1565b610c326110a0565b6040516370a0823160e01b81523060048201526000907f00000000000000000000000000000000000000000000000000000000000000006001600160a01b0316906370a0823190602401602060405180830381865afa158015610c99573d6000803e3d6000fd5b505050506040513d601f19601f82011682018060405250810190610cbd91906113dd565b11610d0a5760405162461bcd60e51b815260206004820152601f60248201527f436f6e747261637420646f6573206e6f74206861766520616e792063555344006044820152606401610414565b6040516370a0823160e01b81523060048201526000907f00000000000000000000000000000000000000000000000000000000000000006001600160a01b0316906370a0823190602401602060405180830381865afa158015610d71573d6000803e3d6000fd5b505050506040513d601f19601f82011682018060405250810190610d9591906113dd565b905060007f00000000000000000000000000000000000000000000000000000000000000006001600160a01b031663a9059cbb610dda6000546001600160a01b031690565b6040516001600160e01b031960e084901b1681526001600160a01b039091166004820152602481018590526044016020604051808303816000875af1158015610e27573d6000803e3d6000fd5b505050506040513d601f19601f82011682018060405250810190610e4b9190611449565b90508015610ea4577f2036b9b38b69a2fa490ee702733a29cd2550accc20bc96e786cb9beedc779097610e866000546001600160a01b031690565b604080516001600160a01b0390921682526020820185905201610551565b5050565b610eb0610fd1565b6001600160a01b038116610eda57604051631e4fbdf760e01b815260006004820152602401610414565b6108fe81611050565b610eeb610fd1565b6001600160a01b038116600090815260036020526040902054819060ff16610f505760405162461bcd60e51b81526020600482015260186024820152774f6e6c792077686974656c6973746564206164647265737360401b6044820152606401610414565b6001600160a01b038216610f765760405162461bcd60e51b8152600401610414906113b0565b6001600160a01b038216600081815260036020908152604091829020805460ff191690556009805460001901905590519182527f9a3420c1085262889090de7fb2f9c9d1d7c8d69f895b7cd37074650958bc99e69101610551565b6000546001600160a01b031633146103ad5760405163118cdaa760e01b8152336004820152602401610414565b611006611281565b6002805460ff191690557f5db9ee0a495bf2e6ff9c91a7834c1ba4fdd244a5e8aa4e537bd38aeae4b073aa335b6040516001600160a01b03909116815260200160405180910390a1565b600080546001600160a01b038381166001600160a01b0319831681178455604051919092169283917f8be0079c531659141344cd1fd0a4f28419497f9722a3daafe3b4186f6b6457e09190a35050565b60025460ff16156103ad5760405163d93c066560e01b815260040160405180910390fd5b6002600154036110e757604051633ee5aeb560e01b815260040160405180910390fd5b6002600155565b60065460405163a9059cbb60e01b81526001600160a01b038381166004830152602482019290925260009182917f00000000000000000000000000000000000000000000000000000000000000009091169063a9059cbb906044016020604051808303816000875af1158015611168573d6000803e3d6000fd5b505050506040513d601f19601f8201168201806040525081019061118c9190611449565b905080156111e457600880546001019055600654604080516001600160a01b038616815260208101929092527f8934d7a9692e763e356fd30d84ca5f61a737b35c5ccd5d31d4f140310267b73e910160405180910390a15b92915050565b6001600160a01b038116600081815260046020908152604091829020805460ff1916600117905590519182527f654c9a027765e6feb862f42d438e9f6948f9ee31113e379f0372b30efc722943910160405180910390a150565b61124c6110a0565b6002805460ff191660011790557f62e78cea01bee320cd4e420270b5ea74000d11b0c9f74754ebdbfc544b05a2586110333390565b60025460ff166103ad57604051638dfc202b60e01b815260040160405180910390fd5b6000602082840312156112b657600080fd5b5035919050565b6000602082840312156112cf57600080fd5b81356001600160a01b03811681146112e657600080fd5b9392505050565b6000806020838503121561130057600080fd5b823567ffffffffffffffff81111561131757600080fd5b8301601f8101851361132857600080fd5b803567ffffffffffffffff81111561133f57600080fd5b8560208260051b840101111561135457600080fd5b6020919091019590945092505050565b602080825282518282018190526000918401906040840190835b818110156113a55783516001600160a01b031683526020938401939092019160010161137e565b509095945050505050565b60208082526013908201527216995c9bc81859191c995cdcc81c185cdcd959606a1b604082015260600190565b6000602082840312156113ef57600080fd5b5051919050565b634e487b7160e01b600052603260045260246000fd5b60006001820161142c57634e487b7160e01b600052601160045260246000fd5b5060010190565b634e487b7160e01b600052604160045260246000fd5b60006020828403121561145b57600080fd5b815180151581146112e657600080fdfea2646970667358221220bc3e82c2a5433e833c7e427577ce2b37512ca25b458a3258e64c9c5ed78d759464736f6c634300081c0033",
			"opcodes": "PUSH1 0xA0 PUSH1 0x40 MSTORE CALLVALUE DUP1 ISZERO PUSH2 0x10 JUMPI PUSH1 0x0 DUP1 REVERT JUMPDEST POP PUSH1 0x40 MLOAD PUSH2 0x17A5 CODESIZE SUB DUP1 PUSH2 0x17A5 DUP4 CODECOPY DUP2 ADD PUSH1 0x40 DUP2 SWAP1 MSTORE PUSH2 0x2F SWAP2 PUSH2 0x27F JUMP JUMPDEST DUP4 PUSH1 0x1 PUSH1 0x1 PUSH1 0xA0 SHL SUB DUP2 AND PUSH2 0x5F JUMPI PUSH1 0x40 MLOAD PUSH4 0x1E4FBDF7 PUSH1 0xE0 SHL DUP2 MSTORE PUSH1 0x0 PUSH1 0x4 DUP3 ADD MSTORE PUSH1 0x24 ADD JUMPDEST PUSH1 0x40 MLOAD DUP1 SWAP2 SUB SWAP1 REVERT JUMPDEST PUSH2 0x68 DUP2 PUSH2 0x213 JUMP JUMPDEST POP PUSH1 0x1 DUP1 SSTORE PUSH1 0x2 DUP1 SLOAD PUSH1 0xFF NOT AND SWAP1 SSTORE PUSH1 0x1 PUSH1 0x1 PUSH1 0xA0 SHL SUB DUP2 AND PUSH2 0xDD JUMPI PUSH1 0x40 MLOAD PUSH3 0x461BCD PUSH1 0xE5 SHL DUP2 MSTORE PUSH1 0x20 PUSH1 0x4 DUP3 ADD MSTORE PUSH1 0x27 PUSH1 0x24 DUP3 ADD MSTORE PUSH32 0x5A65726F206164647265737320676976656E20666F722063555344546F6B656E PUSH1 0x44 DUP3 ADD MSTORE PUSH7 0x41646472657373 PUSH1 0xC8 SHL PUSH1 0x64 DUP3 ADD MSTORE PUSH1 0x84 ADD PUSH2 0x56 JUMP JUMPDEST PUSH1 0x1 PUSH1 0x1 PUSH1 0xA0 SHL SUB DUP5 AND PUSH2 0x14A JUMPI PUSH1 0x40 MLOAD PUSH3 0x461BCD PUSH1 0xE5 SHL DUP2 MSTORE PUSH1 0x20 PUSH1 0x4 DUP3 ADD MSTORE PUSH1 0x2E PUSH1 0x24 DUP3 ADD MSTORE PUSH32 0x5A65726F206164647265737320676976656E20666F7220726573656172636865 PUSH1 0x44 DUP3 ADD MSTORE PUSH14 0x7257616C6C657441646472657373 PUSH1 0x90 SHL PUSH1 0x64 DUP3 ADD MSTORE PUSH1 0x84 ADD PUSH2 0x56 JUMP JUMPDEST PUSH1 0x0 DUP4 GT PUSH2 0x19A JUMPI PUSH1 0x40 MLOAD PUSH3 0x461BCD PUSH1 0xE5 SHL DUP2 MSTORE PUSH1 0x20 PUSH1 0x4 DUP3 ADD MSTORE PUSH1 0x15 PUSH1 0x24 DUP3 ADD MSTORE PUSH32 0x496E76616C69642072657761726420616D6F756E740000000000000000000000 PUSH1 0x44 DUP3 ADD MSTORE PUSH1 0x64 ADD PUSH2 0x56 JUMP JUMPDEST PUSH1 0x0 DUP3 GT PUSH2 0x1F8 JUMPI PUSH1 0x40 MLOAD PUSH3 0x461BCD PUSH1 0xE5 SHL DUP2 MSTORE PUSH1 0x20 PUSH1 0x4 DUP3 ADD MSTORE PUSH1 0x25 PUSH1 0x24 DUP3 ADD MSTORE PUSH32 0x496E76616C6964206E756D626572206F66207461726765742070617274696369 PUSH1 0x44 DUP3 ADD MSTORE PUSH5 0x70616E7473 PUSH1 0xD8 SHL PUSH1 0x64 DUP3 ADD MSTORE PUSH1 0x84 ADD PUSH2 0x56 JUMP JUMPDEST PUSH1 0x1 PUSH1 0x1 PUSH1 0xA0 SHL SUB AND PUSH1 0x80 MSTORE PUSH1 0x6 SWAP2 SWAP1 SWAP2 SSTORE PUSH1 0x7 SSTORE POP PUSH2 0x2C6 JUMP JUMPDEST PUSH1 0x0 DUP1 SLOAD PUSH1 0x1 PUSH1 0x1 PUSH1 0xA0 SHL SUB DUP4 DUP2 AND PUSH1 0x1 PUSH1 0x1 PUSH1 0xA0 SHL SUB NOT DUP4 AND DUP2 OR DUP5 SSTORE PUSH1 0x40 MLOAD SWAP2 SWAP1 SWAP3 AND SWAP3 DUP4 SWAP2 PUSH32 0x8BE0079C531659141344CD1FD0A4F28419497F9722A3DAAFE3B4186F6B6457E0 SWAP2 SWAP1 LOG3 POP POP JUMP JUMPDEST DUP1 MLOAD PUSH1 0x1 PUSH1 0x1 PUSH1 0xA0 SHL SUB DUP2 AND DUP2 EQ PUSH2 0x27A JUMPI PUSH1 0x0 DUP1 REVERT JUMPDEST SWAP2 SWAP1 POP JUMP JUMPDEST PUSH1 0x0 DUP1 PUSH1 0x0 DUP1 PUSH1 0x80 DUP6 DUP8 SUB SLT ISZERO PUSH2 0x295 JUMPI PUSH1 0x0 DUP1 REVERT JUMPDEST PUSH2 0x29E DUP6 PUSH2 0x263 JUMP JUMPDEST PUSH1 0x20 DUP7 ADD MLOAD PUSH1 0x40 DUP8 ADD MLOAD SWAP2 SWAP6 POP SWAP4 POP SWAP2 POP PUSH2 0x2BB PUSH1 0x60 DUP7 ADD PUSH2 0x263 JUMP JUMPDEST SWAP1 POP SWAP3 SWAP6 SWAP2 SWAP5 POP SWAP3 POP JUMP JUMPDEST PUSH1 0x80 MLOAD PUSH2 0x14A1 PUSH2 0x304 PUSH1 0x0 CODECOPY PUSH1 0x0 DUP2 DUP2 PUSH2 0x1B4 ADD MSTORE DUP2 DUP2 PUSH2 0x62F ADD MSTORE DUP2 DUP2 PUSH2 0xC4A ADD MSTORE DUP2 DUP2 PUSH2 0xD22 ADD MSTORE DUP2 DUP2 PUSH2 0xD9B ADD MSTORE PUSH2 0x111D ADD MSTORE PUSH2 0x14A1 PUSH1 0x0 RETURN INVALID PUSH1 0x80 PUSH1 0x40 MSTORE CALLVALUE DUP1 ISZERO PUSH2 0x10 JUMPI PUSH1 0x0 DUP1 REVERT JUMPDEST POP PUSH1 0x4 CALLDATASIZE LT PUSH2 0x18E JUMPI PUSH1 0x0 CALLDATALOAD PUSH1 0xE0 SHR DUP1 PUSH4 0x741AE614 GT PUSH2 0xDE JUMPI DUP1 PUSH4 0xA6A09811 GT PUSH2 0x97 JUMPI DUP1 PUSH4 0xEA1DD101 GT PUSH2 0x71 JUMPI DUP1 PUSH4 0xEA1DD101 EQ PUSH2 0x35C JUMPI DUP1 PUSH4 0xF22069DF EQ PUSH2 0x36F JUMPI DUP1 PUSH4 0xF2FDE38B EQ PUSH2 0x377 JUMPI DUP1 PUSH4 0xF67AE941 EQ PUSH2 0x38A JUMPI PUSH1 0x0 DUP1 REVERT JUMPDEST DUP1 PUSH4 0xA6A09811 EQ PUSH2 0x31F JUMPI DUP1 PUSH4 0xD4BFBD41 EQ PUSH2 0x328 JUMPI DUP1 PUSH4 0xE082FE2A EQ PUSH2 0x354 JUMPI PUSH1 0x0 DUP1 REVERT JUMPDEST DUP1 PUSH4 0x741AE614 EQ PUSH2 0x29D JUMPI DUP1 PUSH4 0x7A0ABF08 EQ PUSH2 0x2A5 JUMPI DUP1 PUSH4 0x8C0A0966 EQ PUSH2 0x2AE JUMPI DUP1 PUSH4 0x8DA5CB5B EQ PUSH2 0x2DB JUMPI DUP1 PUSH4 0xA0858343 EQ PUSH2 0x2EC JUMPI DUP1 PUSH4 0xA0CA86A3 EQ PUSH2 0x2FF JUMPI PUSH1 0x0 DUP1 REVERT JUMPDEST DUP1 PUSH4 0x5C975ABB GT PUSH2 0x14B JUMPI DUP1 PUSH4 0x6FA1C59D GT PUSH2 0x125 JUMPI DUP1 PUSH4 0x6FA1C59D EQ PUSH2 0x259 JUMPI DUP1 PUSH4 0x6FF65C20 EQ PUSH2 0x261 JUMPI DUP1 PUSH4 0x7069243C EQ PUSH2 0x28D JUMPI DUP1 PUSH4 0x715018A6 EQ PUSH2 0x295 JUMPI PUSH1 0x0 DUP1 REVERT JUMPDEST DUP1 PUSH4 0x5C975ABB EQ PUSH2 0x21C JUMPI DUP1 PUSH4 0x64751F22 EQ PUSH2 0x233 JUMPI DUP1 PUSH4 0x64BB632F EQ PUSH2 0x246 JUMPI PUSH1 0x0 DUP1 REVERT JUMPDEST DUP1 PUSH4 0x47BC438 EQ PUSH2 0x193 JUMPI DUP1 PUSH4 0x1FCCF672 EQ PUSH2 0x1AF JUMPI DUP1 PUSH4 0x28A2355B EQ PUSH2 0x1EE JUMPI DUP1 PUSH4 0x3960FC66 EQ PUSH2 0x1F6 JUMPI DUP1 PUSH4 0x4074BE40 EQ PUSH2 0x200 JUMPI DUP1 PUSH4 0x528780CC EQ PUSH2 0x209 JUMPI JUMPDEST PUSH1 0x0 DUP1 REVERT JUMPDEST PUSH2 0x19C PUSH1 0x9 SLOAD DUP2 JUMP JUMPDEST PUSH1 0x40 MLOAD SWAP1 DUP2 MSTORE PUSH1 0x20 ADD JUMPDEST PUSH1 0x40 MLOAD DUP1 SWAP2 SUB SWAP1 RETURN JUMPDEST PUSH2 0x1D6 PUSH32 0x0 DUP2 JUMP JUMPDEST PUSH1 0x40 MLOAD PUSH1 0x1 PUSH1 0x1 PUSH1 0xA0 SHL SUB SWAP1 SWAP2 AND DUP2 MSTORE PUSH1 0x20 ADD PUSH2 0x1A6 JUMP JUMPDEST PUSH1 0x9 SLOAD PUSH2 0x19C JUMP JUMPDEST PUSH2 0x1FE PUSH2 0x39D JUMP JUMPDEST STOP JUMPDEST PUSH2 0x19C PUSH1 0xA SLOAD DUP2 JUMP JUMPDEST PUSH2 0x1FE PUSH2 0x217 CALLDATASIZE PUSH1 0x4 PUSH2 0x12A4 JUMP JUMPDEST PUSH2 0x3AF JUMP JUMPDEST PUSH1 0x2 SLOAD PUSH1 0xFF AND JUMPDEST PUSH1 0x40 MLOAD SWAP1 ISZERO ISZERO DUP2 MSTORE PUSH1 0x20 ADD PUSH2 0x1A6 JUMP JUMPDEST PUSH2 0x1FE PUSH2 0x241 CALLDATASIZE PUSH1 0x4 PUSH2 0x12BD JUMP JUMPDEST PUSH2 0x466 JUMP JUMPDEST PUSH2 0x1FE PUSH2 0x254 CALLDATASIZE PUSH1 0x4 PUSH2 0x12A4 JUMP JUMPDEST PUSH2 0x55D JUMP JUMPDEST PUSH1 0x7 SLOAD PUSH2 0x19C JUMP JUMPDEST PUSH2 0x223 PUSH2 0x26F CALLDATASIZE PUSH1 0x4 PUSH2 0x12BD JUMP JUMPDEST PUSH1 0x1 PUSH1 0x1 PUSH1 0xA0 SHL SUB AND PUSH1 0x0 SWAP1 DUP2 MSTORE PUSH1 0x4 PUSH1 0x20 MSTORE PUSH1 0x40 SWAP1 KECCAK256 SLOAD PUSH1 0xFF AND SWAP1 JUMP JUMPDEST PUSH1 0x6 SLOAD PUSH2 0x19C JUMP JUMPDEST PUSH2 0x1FE PUSH2 0x5F5 JUMP JUMPDEST PUSH1 0x8 SLOAD PUSH2 0x19C JUMP JUMPDEST PUSH2 0x19C PUSH1 0x6 SLOAD DUP2 JUMP JUMPDEST PUSH2 0x223 PUSH2 0x2BC CALLDATASIZE PUSH1 0x4 PUSH2 0x12BD JUMP JUMPDEST PUSH1 0x1 PUSH1 0x1 PUSH1 0xA0 SHL SUB AND PUSH1 0x0 SWAP1 DUP2 MSTORE PUSH1 0x3 PUSH1 0x20 MSTORE PUSH1 0x40 SWAP1 KECCAK256 SLOAD PUSH1 0xFF AND ISZERO SWAP1 JUMP JUMPDEST PUSH1 0x0 SLOAD PUSH1 0x1 PUSH1 0x1 PUSH1 0xA0 SHL SUB AND PUSH2 0x1D6 JUMP JUMPDEST PUSH2 0x1FE PUSH2 0x2FA CALLDATASIZE PUSH1 0x4 PUSH2 0x12BD JUMP JUMPDEST PUSH2 0x607 JUMP JUMPDEST PUSH2 0x312 PUSH2 0x30D CALLDATASIZE PUSH1 0x4 PUSH2 0x12ED JUMP JUMPDEST PUSH2 0x901 JUMP JUMPDEST PUSH1 0x40 MLOAD PUSH2 0x1A6 SWAP2 SWAP1 PUSH2 0x1364 JUMP JUMPDEST PUSH2 0x19C PUSH1 0x7 SLOAD DUP2 JUMP JUMPDEST PUSH2 0x223 PUSH2 0x336 CALLDATASIZE PUSH1 0x4 PUSH2 0x12BD JUMP JUMPDEST PUSH1 0x1 PUSH1 0x1 PUSH1 0xA0 SHL SUB AND PUSH1 0x0 SWAP1 DUP2 MSTORE PUSH1 0x3 PUSH1 0x20 MSTORE PUSH1 0x40 SWAP1 KECCAK256 SLOAD PUSH1 0xFF AND SWAP1 JUMP JUMPDEST PUSH2 0x1FE PUSH2 0xAD4 JUMP JUMPDEST PUSH2 0x1FE PUSH2 0x36A CALLDATASIZE PUSH1 0x4 PUSH2 0x12BD JUMP JUMPDEST PUSH2 0xAE4 JUMP JUMPDEST PUSH2 0x1FE PUSH2 0xC22 JUMP JUMPDEST PUSH2 0x1FE PUSH2 0x385 CALLDATASIZE PUSH1 0x4 PUSH2 0x12BD JUMP JUMPDEST PUSH2 0xEA8 JUMP JUMPDEST PUSH2 0x1FE PUSH2 0x398 CALLDATASIZE PUSH1 0x4 PUSH2 0x12BD JUMP JUMPDEST PUSH2 0xEE3 JUMP JUMPDEST PUSH2 0x3A5 PUSH2 0xFD1 JUMP JUMPDEST PUSH2 0x3AD PUSH2 0xFFE JUMP JUMPDEST JUMP JUMPDEST PUSH2 0x3B7 PUSH2 0xFD1 JUMP JUMPDEST DUP1 PUSH1 0x0 SUB PUSH2 0x41D JUMPI PUSH1 0x40 MLOAD PUSH3 0x461BCD PUSH1 0xE5 SHL DUP2 MSTORE PUSH1 0x20 PUSH1 0x4 DUP3 ADD MSTORE PUSH1 0x28 PUSH1 0x24 DUP3 ADD MSTORE PUSH32 0x5A65726F206E756D626572206F6620746172676574207061727469636970616E PUSH1 0x44 DUP3 ADD MSTORE PUSH8 0x3A399033B4BB32B7 PUSH1 0xC1 SHL PUSH1 0x64 DUP3 ADD MSTORE PUSH1 0x84 ADD JUMPDEST PUSH1 0x40 MLOAD DUP1 SWAP2 SUB SWAP1 REVERT JUMPDEST PUSH1 0x7 DUP1 SLOAD SWAP1 DUP3 SWAP1 SSTORE PUSH1 0x40 DUP1 MLOAD DUP3 DUP2 MSTORE PUSH1 0x20 DUP2 ADD DUP5 SWAP1 MSTORE DUP4 SWAP2 PUSH32 0xB90F11D36A1F2EC1F3B89AC87CCD1FFAB1A49F3E3CA83CFDAC21FD99A537CBC1 SWAP2 ADD JUMPDEST PUSH1 0x40 MLOAD DUP1 SWAP2 SUB SWAP1 LOG1 POP POP POP JUMP JUMPDEST PUSH2 0x46E PUSH2 0xFD1 JUMP JUMPDEST PUSH1 0x1 PUSH1 0x1 PUSH1 0xA0 SHL SUB DUP2 AND PUSH1 0x0 SWAP1 DUP2 MSTORE PUSH1 0x3 PUSH1 0x20 MSTORE PUSH1 0x40 SWAP1 KECCAK256 SLOAD DUP2 SWAP1 PUSH1 0xFF AND ISZERO PUSH2 0x4CF JUMPI PUSH1 0x40 MLOAD PUSH3 0x461BCD PUSH1 0xE5 SHL DUP2 MSTORE PUSH1 0x20 PUSH1 0x4 DUP3 ADD MSTORE PUSH1 0x13 PUSH1 0x24 DUP3 ADD MSTORE PUSH19 0x135D5CDD08189948189B1858DADB1A5CDD1959 PUSH1 0x6A SHL PUSH1 0x44 DUP3 ADD MSTORE PUSH1 0x64 ADD PUSH2 0x414 JUMP JUMPDEST PUSH1 0x1 PUSH1 0x1 PUSH1 0xA0 SHL SUB DUP3 AND PUSH2 0x4F5 JUMPI PUSH1 0x40 MLOAD PUSH3 0x461BCD PUSH1 0xE5 SHL DUP2 MSTORE PUSH1 0x4 ADD PUSH2 0x414 SWAP1 PUSH2 0x13B0 JUMP JUMPDEST PUSH1 0x1 PUSH1 0x1 PUSH1 0xA0 SHL SUB DUP3 AND PUSH1 0x0 DUP2 DUP2 MSTORE PUSH1 0x3 PUSH1 0x20 SWAP1 DUP2 MSTORE PUSH1 0x40 SWAP2 DUP3 SWAP1 KECCAK256 DUP1 SLOAD PUSH1 0xFF NOT AND PUSH1 0x1 SWAP1 DUP2 OR SWAP1 SWAP2 SSTORE PUSH1 0x9 DUP1 SLOAD SWAP1 SWAP2 ADD SWAP1 SSTORE SWAP1 MLOAD SWAP2 DUP3 MSTORE PUSH32 0x84608224E0456EC7C9063F8DFD347A891979E08CB0C7D7DAE9BAD7BD5EDB7F36 SWAP2 ADD JUMPDEST PUSH1 0x40 MLOAD DUP1 SWAP2 SUB SWAP1 LOG1 POP POP JUMP JUMPDEST PUSH2 0x565 PUSH2 0xFD1 JUMP JUMPDEST DUP1 PUSH1 0x0 SUB PUSH2 0x5B5 JUMPI PUSH1 0x40 MLOAD PUSH3 0x461BCD PUSH1 0xE5 SHL DUP2 MSTORE PUSH1 0x20 PUSH1 0x4 DUP3 ADD MSTORE PUSH1 0x18 PUSH1 0x24 DUP3 ADD MSTORE PUSH32 0x5A65726F2072657761726420616D6F756E7420676976656E0000000000000000 PUSH1 0x44 DUP3 ADD MSTORE PUSH1 0x64 ADD PUSH2 0x414 JUMP JUMPDEST PUSH1 0x6 DUP1 SLOAD SWAP1 DUP3 SWAP1 SSTORE PUSH1 0x40 DUP1 MLOAD DUP3 DUP2 MSTORE PUSH1 0x20 DUP2 ADD DUP5 SWAP1 MSTORE DUP4 SWAP2 PUSH32 0xF0D37C3AE852021AC329281F604B658691CBFA6B9E9C22909F06B64A8CE87C94 SWAP2 ADD PUSH2 0x459 JUMP JUMPDEST PUSH2 0x5FD PUSH2 0xFD1 JUMP JUMPDEST PUSH2 0x3AD PUSH1 0x0 PUSH2 0x1050 JUMP JUMPDEST PUSH2 0x60F PUSH2 0x10A0 JUMP JUMPDEST PUSH2 0x617 PUSH2 0x10C4 JUMP JUMPDEST PUSH1 0x6 SLOAD PUSH1 0x40 MLOAD PUSH4 0x70A08231 PUSH1 0xE0 SHL DUP2 MSTORE ADDRESS PUSH1 0x4 DUP3 ADD MSTORE PUSH32 0x0 PUSH1 0x1 PUSH1 0x1 PUSH1 0xA0 SHL SUB AND SWAP1 PUSH4 0x70A08231 SWAP1 PUSH1 0x24 ADD PUSH1 0x20 PUSH1 0x40 MLOAD DUP1 DUP4 SUB DUP2 DUP7 GAS STATICCALL ISZERO DUP1 ISZERO PUSH2 0x67E JUMPI RETURNDATASIZE PUSH1 0x0 DUP1 RETURNDATACOPY RETURNDATASIZE PUSH1 0x0 REVERT JUMPDEST POP POP POP POP PUSH1 0x40 MLOAD RETURNDATASIZE PUSH1 0x1F NOT PUSH1 0x1F DUP3 ADD AND DUP3 ADD DUP1 PUSH1 0x40 MSTORE POP DUP2 ADD SWAP1 PUSH2 0x6A2 SWAP2 SWAP1 PUSH2 0x13DD JUMP JUMPDEST LT ISZERO PUSH2 0x6FB JUMPI PUSH1 0x40 MLOAD PUSH3 0x461BCD PUSH1 0xE5 SHL DUP2 MSTORE PUSH1 0x20 PUSH1 0x4 DUP3 ADD MSTORE PUSH1 0x22 PUSH1 0x24 DUP3 ADD MSTORE PUSH32 0x436F6E747261637420646F6573206E6F74206861766520656E6F756768206355 PUSH1 0x44 DUP3 ADD MSTORE PUSH2 0x14D1 PUSH1 0xF2 SHL PUSH1 0x64 DUP3 ADD MSTORE PUSH1 0x84 ADD PUSH2 0x414 JUMP JUMPDEST PUSH1 0x7 SLOAD PUSH1 0x8 SLOAD LT PUSH2 0x75A JUMPI PUSH1 0x40 MLOAD PUSH3 0x461BCD PUSH1 0xE5 SHL DUP2 MSTORE PUSH1 0x20 PUSH1 0x4 DUP3 ADD MSTORE PUSH1 0x23 PUSH1 0x24 DUP3 ADD MSTORE PUSH32 0x416C6C207061727469636970616E74732068617665206265656E207265776172 PUSH1 0x44 DUP3 ADD MSTORE PUSH3 0x191959 PUSH1 0xEA SHL PUSH1 0x64 DUP3 ADD MSTORE PUSH1 0x84 ADD PUSH2 0x414 JUMP JUMPDEST DUP1 CALLER PUSH1 0x1 PUSH1 0x1 PUSH1 0xA0 SHL SUB DUP3 AND EQ PUSH2 0x7A7 JUMPI PUSH1 0x40 MLOAD PUSH3 0x461BCD PUSH1 0xE5 SHL DUP2 MSTORE PUSH1 0x20 PUSH1 0x4 DUP3 ADD MSTORE PUSH1 0x11 PUSH1 0x24 DUP3 ADD MSTORE PUSH17 0x27B7363C903B30B634B21039B2B73232B9 PUSH1 0x79 SHL PUSH1 0x44 DUP3 ADD MSTORE PUSH1 0x64 ADD PUSH2 0x414 JUMP JUMPDEST PUSH1 0x1 PUSH1 0x1 PUSH1 0xA0 SHL SUB DUP3 AND PUSH1 0x0 SWAP1 DUP2 MSTORE PUSH1 0x3 PUSH1 0x20 MSTORE PUSH1 0x40 SWAP1 KECCAK256 SLOAD DUP3 SWAP1 PUSH1 0xFF AND PUSH2 0x80C JUMPI PUSH1 0x40 MLOAD PUSH3 0x461BCD PUSH1 0xE5 SHL DUP2 MSTORE PUSH1 0x20 PUSH1 0x4 DUP3 ADD MSTORE PUSH1 0x18 PUSH1 0x24 DUP3 ADD MSTORE PUSH24 0x4F6E6C792077686974656C69737465642061646472657373 PUSH1 0x40 SHL PUSH1 0x44 DUP3 ADD MSTORE PUSH1 0x64 ADD PUSH2 0x414 JUMP JUMPDEST PUSH1 0x1 PUSH1 0x1 PUSH1 0xA0 SHL SUB DUP4 AND PUSH1 0x0 SWAP1 DUP2 MSTORE PUSH1 0x4 PUSH1 0x20 MSTORE PUSH1 0x40 SWAP1 KECCAK256 SLOAD DUP4 SWAP1 PUSH1 0xFF AND ISZERO PUSH2 0x877 JUMPI PUSH1 0x40 MLOAD PUSH3 0x461BCD PUSH1 0xE5 SHL DUP2 MSTORE PUSH1 0x20 PUSH1 0x4 DUP3 ADD MSTORE PUSH1 0x1C PUSH1 0x24 DUP3 ADD MSTORE PUSH32 0x5061727469636970616E7420616C726561647920726577617264656400000000 PUSH1 0x44 DUP3 ADD MSTORE PUSH1 0x64 ADD PUSH2 0x414 JUMP JUMPDEST PUSH1 0x1 PUSH1 0x1 PUSH1 0xA0 SHL SUB DUP5 AND PUSH1 0x0 SWAP1 DUP2 MSTORE PUSH1 0x5 PUSH1 0x20 MSTORE PUSH1 0x40 SWAP1 KECCAK256 SLOAD DUP5 SWAP1 PUSH1 0xFF AND PUSH2 0x8D4 JUMPI PUSH1 0x40 MLOAD PUSH3 0x461BCD PUSH1 0xE5 SHL DUP2 MSTORE PUSH1 0x20 PUSH1 0x4 DUP3 ADD MSTORE PUSH1 0x10 PUSH1 0x24 DUP3 ADD MSTORE PUSH16 0x135D5CDD081899481CD8DC99595B9959 PUSH1 0x82 SHL PUSH1 0x44 DUP3 ADD MSTORE PUSH1 0x64 ADD PUSH2 0x414 JUMP JUMPDEST PUSH1 0x0 PUSH2 0x8DF DUP7 PUSH2 0x10EE JUMP JUMPDEST SWAP1 POP DUP1 ISZERO PUSH2 0x8F0 JUMPI PUSH2 0x8F0 DUP7 PUSH2 0x11EA JUMP JUMPDEST POP POP POP POP POP PUSH2 0x8FE PUSH1 0x1 DUP1 SSTORE JUMP JUMPDEST POP JUMP JUMPDEST PUSH1 0x60 DUP2 PUSH1 0x0 DUP2 SWAP1 SUB PUSH2 0x94B JUMPI PUSH1 0x40 MLOAD PUSH3 0x461BCD PUSH1 0xE5 SHL DUP2 MSTORE PUSH1 0x20 PUSH1 0x4 DUP3 ADD MSTORE PUSH1 0x13 PUSH1 0x24 DUP3 ADD MSTORE PUSH19 0x139BC81859191C995CDCD95CC81C185CDCD959 PUSH1 0x6A SHL PUSH1 0x44 DUP3 ADD MSTORE PUSH1 0x64 ADD PUSH2 0x414 JUMP JUMPDEST PUSH1 0x0 DUP1 JUMPDEST DUP3 DUP2 LT ISZERO PUSH2 0x9BA JUMPI PUSH1 0x3 PUSH1 0x0 DUP8 DUP8 DUP5 DUP2 DUP2 LT PUSH2 0x96D JUMPI PUSH2 0x96D PUSH2 0x13F6 JUMP JUMPDEST SWAP1 POP PUSH1 0x20 MUL ADD PUSH1 0x20 DUP2 ADD SWAP1 PUSH2 0x982 SWAP2 SWAP1 PUSH2 0x12BD JUMP JUMPDEST PUSH1 0x1 PUSH1 0x1 PUSH1 0xA0 SHL SUB AND DUP2 MSTORE PUSH1 0x20 DUP2 ADD SWAP2 SWAP1 SWAP2 MSTORE PUSH1 0x40 ADD PUSH1 0x0 KECCAK256 SLOAD PUSH1 0xFF AND ISZERO PUSH2 0x9B2 JUMPI DUP2 PUSH2 0x9AE DUP2 PUSH2 0x140C JUMP JUMPDEST SWAP3 POP POP JUMPDEST PUSH1 0x1 ADD PUSH2 0x94F JUMP JUMPDEST POP PUSH1 0x0 DUP2 PUSH8 0xFFFFFFFFFFFFFFFF DUP2 GT ISZERO PUSH2 0x9D6 JUMPI PUSH2 0x9D6 PUSH2 0x1433 JUMP JUMPDEST PUSH1 0x40 MLOAD SWAP1 DUP1 DUP3 MSTORE DUP1 PUSH1 0x20 MUL PUSH1 0x20 ADD DUP3 ADD PUSH1 0x40 MSTORE DUP1 ISZERO PUSH2 0x9FF JUMPI DUP2 PUSH1 0x20 ADD PUSH1 0x20 DUP3 MUL DUP1 CALLDATASIZE DUP4 CALLDATACOPY ADD SWAP1 POP JUMPDEST POP SWAP1 POP PUSH1 0x0 DUP1 JUMPDEST DUP5 DUP2 LT ISZERO PUSH2 0xAC8 JUMPI PUSH1 0x3 PUSH1 0x0 DUP10 DUP10 DUP5 DUP2 DUP2 LT PUSH2 0xA24 JUMPI PUSH2 0xA24 PUSH2 0x13F6 JUMP JUMPDEST SWAP1 POP PUSH1 0x20 MUL ADD PUSH1 0x20 DUP2 ADD SWAP1 PUSH2 0xA39 SWAP2 SWAP1 PUSH2 0x12BD JUMP JUMPDEST PUSH1 0x1 PUSH1 0x1 PUSH1 0xA0 SHL SUB AND DUP2 MSTORE PUSH1 0x20 DUP2 ADD SWAP2 SWAP1 SWAP2 MSTORE PUSH1 0x40 ADD PUSH1 0x0 KECCAK256 SLOAD PUSH1 0xFF AND ISZERO PUSH2 0xAC0 JUMPI DUP8 DUP8 DUP3 DUP2 DUP2 LT PUSH2 0xA6D JUMPI PUSH2 0xA6D PUSH2 0x13F6 JUMP JUMPDEST SWAP1 POP PUSH1 0x20 MUL ADD PUSH1 0x20 DUP2 ADD SWAP1 PUSH2 0xA82 SWAP2 SWAP1 PUSH2 0x12BD JUMP JUMPDEST DUP4 DUP4 PUSH2 0xA8D DUP2 PUSH2 0x140C JUMP JUMPDEST SWAP5 POP DUP2 MLOAD DUP2 LT PUSH2 0xA9F JUMPI PUSH2 0xA9F PUSH2 0x13F6 JUMP JUMPDEST PUSH1 0x20 MUL PUSH1 0x20 ADD ADD SWAP1 PUSH1 0x1 PUSH1 0x1 PUSH1 0xA0 SHL SUB AND SWAP1 DUP2 PUSH1 0x1 PUSH1 0x1 PUSH1 0xA0 SHL SUB AND DUP2 MSTORE POP POP JUMPDEST PUSH1 0x1 ADD PUSH2 0xA06 JUMP JUMPDEST POP SWAP1 SWAP7 SWAP6 POP POP POP POP POP POP JUMP JUMPDEST PUSH2 0xADC PUSH2 0xFD1 JUMP JUMPDEST PUSH2 0x3AD PUSH2 0x1244 JUMP JUMPDEST DUP1 CALLER PUSH1 0x1 PUSH1 0x1 PUSH1 0xA0 SHL SUB DUP3 AND EQ PUSH2 0xB31 JUMPI PUSH1 0x40 MLOAD PUSH3 0x461BCD PUSH1 0xE5 SHL DUP2 MSTORE PUSH1 0x20 PUSH1 0x4 DUP3 ADD MSTORE PUSH1 0x11 PUSH1 0x24 DUP3 ADD MSTORE PUSH17 0x27B7363C903B30B634B21039B2B73232B9 PUSH1 0x79 SHL PUSH1 0x44 DUP3 ADD MSTORE PUSH1 0x64 ADD PUSH2 0x414 JUMP JUMPDEST PUSH1 0x1 PUSH1 0x1 PUSH1 0xA0 SHL SUB DUP3 AND PUSH1 0x0 SWAP1 DUP2 MSTORE PUSH1 0x5 PUSH1 0x20 MSTORE PUSH1 0x40 SWAP1 KECCAK256 SLOAD DUP3 SWAP1 PUSH1 0xFF AND ISZERO PUSH2 0xB9C JUMPI PUSH1 0x40 MLOAD PUSH3 0x461BCD PUSH1 0xE5 SHL DUP2 MSTORE PUSH1 0x20 PUSH1 0x4 DUP3 ADD MSTORE PUSH1 0x17 PUSH1 0x24 DUP3 ADD MSTORE PUSH32 0x4F6E6C7920756E73637265656E65642061646472657373000000000000000000 PUSH1 0x44 DUP3 ADD MSTORE PUSH1 0x64 ADD PUSH2 0x414 JUMP JUMPDEST PUSH1 0x1 PUSH1 0x1 PUSH1 0xA0 SHL SUB DUP4 AND PUSH2 0xBC2 JUMPI PUSH1 0x40 MLOAD PUSH3 0x461BCD PUSH1 0xE5 SHL DUP2 MSTORE PUSH1 0x4 ADD PUSH2 0x414 SWAP1 PUSH2 0x13B0 JUMP JUMPDEST PUSH1 0x1 PUSH1 0x1 PUSH1 0xA0 SHL SUB DUP4 AND PUSH1 0x0 DUP2 DUP2 MSTORE PUSH1 0x5 PUSH1 0x20 SWAP1 DUP2 MSTORE PUSH1 0x40 SWAP2 DUP3 SWAP1 KECCAK256 DUP1 SLOAD PUSH1 0xFF NOT AND PUSH1 0x1 SWAP1 DUP2 OR SWAP1 SWAP2 SSTORE PUSH1 0xA DUP1 SLOAD SWAP1 SWAP2 ADD SWAP1 SSTORE SWAP1 MLOAD SWAP2 DUP3 MSTORE PUSH32 0xC4EC7A2DC5E72D17666A15570E438638BFC023A7A091DF162B669C37198BACB2 SWAP2 ADD PUSH2 0x459 JUMP JUMPDEST PUSH2 0xC2A PUSH2 0xFD1 JUMP JUMPDEST PUSH2 0xC32 PUSH2 0x10A0 JUMP JUMPDEST PUSH1 0x40 MLOAD PUSH4 0x70A08231 PUSH1 0xE0 SHL DUP2 MSTORE ADDRESS PUSH1 0x4 DUP3 ADD MSTORE PUSH1 0x0 SWAP1 PUSH32 0x0 PUSH1 0x1 PUSH1 0x1 PUSH1 0xA0 SHL SUB AND SWAP1 PUSH4 0x70A08231 SWAP1 PUSH1 0x24 ADD PUSH1 0x20 PUSH1 0x40 MLOAD DUP1 DUP4 SUB DUP2 DUP7 GAS STATICCALL ISZERO DUP1 ISZERO PUSH2 0xC99 JUMPI RETURNDATASIZE PUSH1 0x0 DUP1 RETURNDATACOPY RETURNDATASIZE PUSH1 0x0 REVERT JUMPDEST POP POP POP POP PUSH1 0x40 MLOAD RETURNDATASIZE PUSH1 0x1F NOT PUSH1 0x1F DUP3 ADD AND DUP3 ADD DUP1 PUSH1 0x40 MSTORE POP DUP2 ADD SWAP1 PUSH2 0xCBD SWAP2 SWAP1 PUSH2 0x13DD JUMP JUMPDEST GT PUSH2 0xD0A JUMPI PUSH1 0x40 MLOAD PUSH3 0x461BCD PUSH1 0xE5 SHL DUP2 MSTORE PUSH1 0x20 PUSH1 0x4 DUP3 ADD MSTORE PUSH1 0x1F PUSH1 0x24 DUP3 ADD MSTORE PUSH32 0x436F6E747261637420646F6573206E6F74206861766520616E79206355534400 PUSH1 0x44 DUP3 ADD MSTORE PUSH1 0x64 ADD PUSH2 0x414 JUMP JUMPDEST PUSH1 0x40 MLOAD PUSH4 0x70A08231 PUSH1 0xE0 SHL DUP2 MSTORE ADDRESS PUSH1 0x4 DUP3 ADD MSTORE PUSH1 0x0 SWAP1 PUSH32 0x0 PUSH1 0x1 PUSH1 0x1 PUSH1 0xA0 SHL SUB AND SWAP1 PUSH4 0x70A08231 SWAP1 PUSH1 0x24 ADD PUSH1 0x20 PUSH1 0x40 MLOAD DUP1 DUP4 SUB DUP2 DUP7 GAS STATICCALL ISZERO DUP1 ISZERO PUSH2 0xD71 JUMPI RETURNDATASIZE PUSH1 0x0 DUP1 RETURNDATACOPY RETURNDATASIZE PUSH1 0x0 REVERT JUMPDEST POP POP POP POP PUSH1 0x40 MLOAD RETURNDATASIZE PUSH1 0x1F NOT PUSH1 0x1F DUP3 ADD AND DUP3 ADD DUP1 PUSH1 0x40 MSTORE POP DUP2 ADD SWAP1 PUSH2 0xD95 SWAP2 SWAP1 PUSH2 0x13DD JUMP JUMPDEST SWAP1 POP PUSH1 0x0 PUSH32 0x0 PUSH1 0x1 PUSH1 0x1 PUSH1 0xA0 SHL SUB AND PUSH4 0xA9059CBB PUSH2 0xDDA PUSH1 0x0 SLOAD PUSH1 0x1 PUSH1 0x1 PUSH1 0xA0 SHL SUB AND SWAP1 JUMP JUMPDEST PUSH1 0x40 MLOAD PUSH1 0x1 PUSH1 0x1 PUSH1 0xE0 SHL SUB NOT PUSH1 0xE0 DUP5 SWAP1 SHL AND DUP2 MSTORE PUSH1 0x1 PUSH1 0x1 PUSH1 0xA0 SHL SUB SWAP1 SWAP2 AND PUSH1 0x4 DUP3 ADD MSTORE PUSH1 0x24 DUP2 ADD DUP6 SWAP1 MSTORE PUSH1 0x44 ADD PUSH1 0x20 PUSH1 0x40 MLOAD DUP1 DUP4 SUB DUP2 PUSH1 0x0 DUP8 GAS CALL ISZERO DUP1 ISZERO PUSH2 0xE27 JUMPI RETURNDATASIZE PUSH1 0x0 DUP1 RETURNDATACOPY RETURNDATASIZE PUSH1 0x0 REVERT JUMPDEST POP POP POP POP PUSH1 0x40 MLOAD RETURNDATASIZE PUSH1 0x1F NOT PUSH1 0x1F DUP3 ADD AND DUP3 ADD DUP1 PUSH1 0x40 MSTORE POP DUP2 ADD SWAP1 PUSH2 0xE4B SWAP2 SWAP1 PUSH2 0x1449 JUMP JUMPDEST SWAP1 POP DUP1 ISZERO PUSH2 0xEA4 JUMPI PUSH32 0x2036B9B38B69A2FA490EE702733A29CD2550ACCC20BC96E786CB9BEEDC779097 PUSH2 0xE86 PUSH1 0x0 SLOAD PUSH1 0x1 PUSH1 0x1 PUSH1 0xA0 SHL SUB AND SWAP1 JUMP JUMPDEST PUSH1 0x40 DUP1 MLOAD PUSH1 0x1 PUSH1 0x1 PUSH1 0xA0 SHL SUB SWAP1 SWAP3 AND DUP3 MSTORE PUSH1 0x20 DUP3 ADD DUP6 SWAP1 MSTORE ADD PUSH2 0x551 JUMP JUMPDEST POP POP JUMP JUMPDEST PUSH2 0xEB0 PUSH2 0xFD1 JUMP JUMPDEST PUSH1 0x1 PUSH1 0x1 PUSH1 0xA0 SHL SUB DUP2 AND PUSH2 0xEDA JUMPI PUSH1 0x40 MLOAD PUSH4 0x1E4FBDF7 PUSH1 0xE0 SHL DUP2 MSTORE PUSH1 0x0 PUSH1 0x4 DUP3 ADD MSTORE PUSH1 0x24 ADD PUSH2 0x414 JUMP JUMPDEST PUSH2 0x8FE DUP2 PUSH2 0x1050 JUMP JUMPDEST PUSH2 0xEEB PUSH2 0xFD1 JUMP JUMPDEST PUSH1 0x1 PUSH1 0x1 PUSH1 0xA0 SHL SUB DUP2 AND PUSH1 0x0 SWAP1 DUP2 MSTORE PUSH1 0x3 PUSH1 0x20 MSTORE PUSH1 0x40 SWAP1 KECCAK256 SLOAD DUP2 SWAP1 PUSH1 0xFF AND PUSH2 0xF50 JUMPI PUSH1 0x40 MLOAD PUSH3 0x461BCD PUSH1 0xE5 SHL DUP2 MSTORE PUSH1 0x20 PUSH1 0x4 DUP3 ADD MSTORE PUSH1 0x18 PUSH1 0x24 DUP3 ADD MSTORE PUSH24 0x4F6E6C792077686974656C69737465642061646472657373 PUSH1 0x40 SHL PUSH1 0x44 DUP3 ADD MSTORE PUSH1 0x64 ADD PUSH2 0x414 JUMP JUMPDEST PUSH1 0x1 PUSH1 0x1 PUSH1 0xA0 SHL SUB DUP3 AND PUSH2 0xF76 JUMPI PUSH1 0x40 MLOAD PUSH3 0x461BCD PUSH1 0xE5 SHL DUP2 MSTORE PUSH1 0x4 ADD PUSH2 0x414 SWAP1 PUSH2 0x13B0 JUMP JUMPDEST PUSH1 0x1 PUSH1 0x1 PUSH1 0xA0 SHL SUB DUP3 AND PUSH1 0x0 DUP2 DUP2 MSTORE PUSH1 0x3 PUSH1 0x20 SWAP1 DUP2 MSTORE PUSH1 0x40 SWAP2 DUP3 SWAP1 KECCAK256 DUP1 SLOAD PUSH1 0xFF NOT AND SWAP1 SSTORE PUSH1 0x9 DUP1 SLOAD PUSH1 0x0 NOT ADD SWAP1 SSTORE SWAP1 MLOAD SWAP2 DUP3 MSTORE PUSH32 0x9A3420C1085262889090DE7FB2F9C9D1D7C8D69F895B7CD37074650958BC99E6 SWAP2 ADD PUSH2 0x551 JUMP JUMPDEST PUSH1 0x0 SLOAD PUSH1 0x1 PUSH1 0x1 PUSH1 0xA0 SHL SUB AND CALLER EQ PUSH2 0x3AD JUMPI PUSH1 0x40 MLOAD PUSH4 0x118CDAA7 PUSH1 0xE0 SHL DUP2 MSTORE CALLER PUSH1 0x4 DUP3 ADD MSTORE PUSH1 0x24 ADD PUSH2 0x414 JUMP JUMPDEST PUSH2 0x1006 PUSH2 0x1281 JUMP JUMPDEST PUSH1 0x2 DUP1 SLOAD PUSH1 0xFF NOT AND SWAP1 SSTORE PUSH32 0x5DB9EE0A495BF2E6FF9C91A7834C1BA4FDD244A5E8AA4E537BD38AEAE4B073AA CALLER JUMPDEST PUSH1 0x40 MLOAD PUSH1 0x1 PUSH1 0x1 PUSH1 0xA0 SHL SUB SWAP1 SWAP2 AND DUP2 MSTORE PUSH1 0x20 ADD PUSH1 0x40 MLOAD DUP1 SWAP2 SUB SWAP1 LOG1 JUMP JUMPDEST PUSH1 0x0 DUP1 SLOAD PUSH1 0x1 PUSH1 0x1 PUSH1 0xA0 SHL SUB DUP4 DUP2 AND PUSH1 0x1 PUSH1 0x1 PUSH1 0xA0 SHL SUB NOT DUP4 AND DUP2 OR DUP5 SSTORE PUSH1 0x40 MLOAD SWAP2 SWAP1 SWAP3 AND SWAP3 DUP4 SWAP2 PUSH32 0x8BE0079C531659141344CD1FD0A4F28419497F9722A3DAAFE3B4186F6B6457E0 SWAP2 SWAP1 LOG3 POP POP JUMP JUMPDEST PUSH1 0x2 SLOAD PUSH1 0xFF AND ISZERO PUSH2 0x3AD JUMPI PUSH1 0x40 MLOAD PUSH4 0xD93C0665 PUSH1 0xE0 SHL DUP2 MSTORE PUSH1 0x4 ADD PUSH1 0x40 MLOAD DUP1 SWAP2 SUB SWAP1 REVERT JUMPDEST PUSH1 0x2 PUSH1 0x1 SLOAD SUB PUSH2 0x10E7 JUMPI PUSH1 0x40 MLOAD PUSH4 0x3EE5AEB5 PUSH1 0xE0 SHL DUP2 MSTORE PUSH1 0x4 ADD PUSH1 0x40 MLOAD DUP1 SWAP2 SUB SWAP1 REVERT JUMPDEST PUSH1 0x2 PUSH1 0x1 SSTORE JUMP JUMPDEST PUSH1 0x6 SLOAD PUSH1 0x40 MLOAD PUSH4 0xA9059CBB PUSH1 0xE0 SHL DUP2 MSTORE PUSH1 0x1 PUSH1 0x1 PUSH1 0xA0 SHL SUB DUP4 DUP2 AND PUSH1 0x4 DUP4 ADD MSTORE PUSH1 0x24 DUP3 ADD SWAP3 SWAP1 SWAP3 MSTORE PUSH1 0x0 SWAP2 DUP3 SWAP2 PUSH32 0x0 SWAP1 SWAP2 AND SWAP1 PUSH4 0xA9059CBB SWAP1 PUSH1 0x44 ADD PUSH1 0x20 PUSH1 0x40 MLOAD DUP1 DUP4 SUB DUP2 PUSH1 0x0 DUP8 GAS CALL ISZERO DUP1 ISZERO PUSH2 0x1168 JUMPI RETURNDATASIZE PUSH1 0x0 DUP1 RETURNDATACOPY RETURNDATASIZE PUSH1 0x0 REVERT JUMPDEST POP POP POP POP PUSH1 0x40 MLOAD RETURNDATASIZE PUSH1 0x1F NOT PUSH1 0x1F DUP3 ADD AND DUP3 ADD DUP1 PUSH1 0x40 MSTORE POP DUP2 ADD SWAP1 PUSH2 0x118C SWAP2 SWAP1 PUSH2 0x1449 JUMP JUMPDEST SWAP1 POP DUP1 ISZERO PUSH2 0x11E4 JUMPI PUSH1 0x8 DUP1 SLOAD PUSH1 0x1 ADD SWAP1 SSTORE PUSH1 0x6 SLOAD PUSH1 0x40 DUP1 MLOAD PUSH1 0x1 PUSH1 0x1 PUSH1 0xA0 SHL SUB DUP7 AND DUP2 MSTORE PUSH1 0x20 DUP2 ADD SWAP3 SWAP1 SWAP3 MSTORE PUSH32 0x8934D7A9692E763E356FD30D84CA5F61A737B35C5CCD5D31D4F140310267B73E SWAP2 ADD PUSH1 0x40 MLOAD DUP1 SWAP2 SUB SWAP1 LOG1 JUMPDEST SWAP3 SWAP2 POP POP JUMP JUMPDEST PUSH1 0x1 PUSH1 0x1 PUSH1 0xA0 SHL SUB DUP2 AND PUSH1 0x0 DUP2 DUP2 MSTORE PUSH1 0x4 PUSH1 0x20 SWAP1 DUP2 MSTORE PUSH1 0x40 SWAP2 DUP3 SWAP1 KECCAK256 DUP1 SLOAD PUSH1 0xFF NOT AND PUSH1 0x1 OR SWAP1 SSTORE SWAP1 MLOAD SWAP2 DUP3 MSTORE PUSH32 0x654C9A027765E6FEB862F42D438E9F6948F9EE31113E379F0372B30EFC722943 SWAP2 ADD PUSH1 0x40 MLOAD DUP1 SWAP2 SUB SWAP1 LOG1 POP JUMP JUMPDEST PUSH2 0x124C PUSH2 0x10A0 JUMP JUMPDEST PUSH1 0x2 DUP1 SLOAD PUSH1 0xFF NOT AND PUSH1 0x1 OR SWAP1 SSTORE PUSH32 0x62E78CEA01BEE320CD4E420270B5EA74000D11B0C9F74754EBDBFC544B05A258 PUSH2 0x1033 CALLER SWAP1 JUMP JUMPDEST PUSH1 0x2 SLOAD PUSH1 0xFF AND PUSH2 0x3AD JUMPI PUSH1 0x40 MLOAD PUSH4 0x8DFC202B PUSH1 0xE0 SHL DUP2 MSTORE PUSH1 0x4 ADD PUSH1 0x40 MLOAD DUP1 SWAP2 SUB SWAP1 REVERT JUMPDEST PUSH1 0x0 PUSH1 0x20 DUP3 DUP5 SUB SLT ISZERO PUSH2 0x12B6 JUMPI PUSH1 0x0 DUP1 REVERT JUMPDEST POP CALLDATALOAD SWAP2 SWAP1 POP JUMP JUMPDEST PUSH1 0x0 PUSH1 0x20 DUP3 DUP5 SUB SLT ISZERO PUSH2 0x12CF JUMPI PUSH1 0x0 DUP1 REVERT JUMPDEST DUP2 CALLDATALOAD PUSH1 0x1 PUSH1 0x1 PUSH1 0xA0 SHL SUB DUP2 AND DUP2 EQ PUSH2 0x12E6 JUMPI PUSH1 0x0 DUP1 REVERT JUMPDEST SWAP4 SWAP3 POP POP POP JUMP JUMPDEST PUSH1 0x0 DUP1 PUSH1 0x20 DUP4 DUP6 SUB SLT ISZERO PUSH2 0x1300 JUMPI PUSH1 0x0 DUP1 REVERT JUMPDEST DUP3 CALLDATALOAD PUSH8 0xFFFFFFFFFFFFFFFF DUP2 GT ISZERO PUSH2 0x1317 JUMPI PUSH1 0x0 DUP1 REVERT JUMPDEST DUP4 ADD PUSH1 0x1F DUP2 ADD DUP6 SGT PUSH2 0x1328 JUMPI PUSH1 0x0 DUP1 REVERT JUMPDEST DUP1 CALLDATALOAD PUSH8 0xFFFFFFFFFFFFFFFF DUP2 GT ISZERO PUSH2 0x133F JUMPI PUSH1 0x0 DUP1 REVERT JUMPDEST DUP6 PUSH1 0x20 DUP3 PUSH1 0x5 SHL DUP5 ADD ADD GT ISZERO PUSH2 0x1354 JUMPI PUSH1 0x0 DUP1 REVERT JUMPDEST PUSH1 0x20 SWAP2 SWAP1 SWAP2 ADD SWAP6 SWAP1 SWAP5 POP SWAP3 POP POP POP JUMP JUMPDEST PUSH1 0x20 DUP1 DUP3 MSTORE DUP3 MLOAD DUP3 DUP3 ADD DUP2 SWAP1 MSTORE PUSH1 0x0 SWAP2 DUP5 ADD SWAP1 PUSH1 0x40 DUP5 ADD SWAP1 DUP4 JUMPDEST DUP2 DUP2 LT ISZERO PUSH2 0x13A5 JUMPI DUP4 MLOAD PUSH1 0x1 PUSH1 0x1 PUSH1 0xA0 SHL SUB AND DUP4 MSTORE PUSH1 0x20 SWAP4 DUP5 ADD SWAP4 SWAP1 SWAP3 ADD SWAP2 PUSH1 0x1 ADD PUSH2 0x137E JUMP JUMPDEST POP SWAP1 SWAP6 SWAP5 POP POP POP POP POP JUMP JUMPDEST PUSH1 0x20 DUP1 DUP3 MSTORE PUSH1 0x13 SWAP1 DUP3 ADD MSTORE PUSH19 0x16995C9BC81859191C995CDCC81C185CDCD959 PUSH1 0x6A SHL PUSH1 0x40 DUP3 ADD MSTORE PUSH1 0x60 ADD SWAP1 JUMP JUMPDEST PUSH1 0x0 PUSH1 0x20 DUP3 DUP5 SUB SLT ISZERO PUSH2 0x13EF JUMPI PUSH1 0x0 DUP1 REVERT JUMPDEST POP MLOAD SWAP2 SWAP1 POP JUMP JUMPDEST PUSH4 0x4E487B71 PUSH1 0xE0 SHL PUSH1 0x0 MSTORE PUSH1 0x32 PUSH1 0x4 MSTORE PUSH1 0x24 PUSH1 0x0 REVERT JUMPDEST PUSH1 0x0 PUSH1 0x1 DUP3 ADD PUSH2 0x142C JUMPI PUSH4 0x4E487B71 PUSH1 0xE0 SHL PUSH1 0x0 MSTORE PUSH1 0x11 PUSH1 0x4 MSTORE PUSH1 0x24 PUSH1 0x0 REVERT JUMPDEST POP PUSH1 0x1 ADD SWAP1 JUMP JUMPDEST PUSH4 0x4E487B71 PUSH1 0xE0 SHL PUSH1 0x0 MSTORE PUSH1 0x41 PUSH1 0x4 MSTORE PUSH1 0x24 PUSH1 0x0 REVERT JUMPDEST PUSH1 0x0 PUSH1 0x20 DUP3 DUP5 SUB SLT ISZERO PUSH2 0x145B JUMPI PUSH1 0x0 DUP1 REVERT JUMPDEST DUP2 MLOAD DUP1 ISZERO ISZERO DUP2 EQ PUSH2 0x12E6 JUMPI PUSH1 0x0 DUP1 REVERT INVALID LOG2 PUSH5 0x6970667358 0x22 SLT KECCAK256 0xBC RETURNDATACOPY DUP3 0xC2 0xA5 NUMBER RETURNDATACOPY DUP4 EXTCODECOPY PUSH31 0x427577CE2B37512CA25B458A3258E64C9C5ED78D759464736F6C634300081C STOP CALLER "
		},
		"gasEstimates": {
			"creation": {
				"codeDepositCost": "1056200",
				"executionCost": "infinite",
				"totalCost": "infinite"
			},
			"external": {
				"blacklistWhitelistedParticipant(address)": "54397",
				"cUSD()": "infinite",
				"checkIfParticipantHasAlreadyClaimedReward(address)": "2581",
				"checkIfParticipantIsBlacklisted(address)": "2584",
				"checkIfParticipantIsWhitelisted(address)": "2581",
				"getNumberOfRewardedParticipants()": "2304",
				"getNumberOfWhitelistedParticipants()": "2349",
				"getRewardAmountPerParticipantInWei()": "2370",
				"getTargetNumberOfParticipants()": "2326",
				"getWhitelistedParticipantsFromRegisteredParticipants(address[])": "infinite",
				"numberOfScreenedParticipants()": "2396",
				"numberOfWhitelistedParticipants()": "2308",
				"owner()": "2420",
				"pauseSurvey()": "infinite",
				"paused()": "2339",
				"processRewardClaimByParticipant(address)": "infinite",
				"renounceOwnership()": "infinite",
				"rewardAmountPerParticipantInWei()": "2329",
				"screenParticipant(address)": "52230",
				"targetNumberOfParticipants()": "2329",
				"transferOwnership(address)": "28386",
				"unpauseSurvey()": "infinite",
				"updateRewardAmountPerParticipant(uint256)": "28071",
				"updateTargetNumberOfParticipants(uint256)": "28104",
				"whitelistParticipant(address)": "54362",
				"withdrawAllRewardFundsToResearcher()": "infinite"
			},
			"internal": {
				"markParticipantAsHavingClaimedReward(address)": "infinite",
				"rewardParticipant(address)": "infinite"
			}
		},
		"methodIdentifiers": {
			"blacklistWhitelistedParticipant(address)": "f67ae941",
			"cUSD()": "1fccf672",
			"checkIfParticipantHasAlreadyClaimedReward(address)": "6ff65c20",
			"checkIfParticipantIsBlacklisted(address)": "8c0a0966",
			"checkIfParticipantIsWhitelisted(address)": "d4bfbd41",
			"getNumberOfRewardedParticipants()": "741ae614",
			"getNumberOfWhitelistedParticipants()": "28a2355b",
			"getRewardAmountPerParticipantInWei()": "7069243c",
			"getTargetNumberOfParticipants()": "6fa1c59d",
			"getWhitelistedParticipantsFromRegisteredParticipants(address[])": "a0ca86a3",
			"numberOfScreenedParticipants()": "4074be40",
			"numberOfWhitelistedParticipants()": "047bc438",
			"owner()": "8da5cb5b",
			"pauseSurvey()": "e082fe2a",
			"paused()": "5c975abb",
			"processRewardClaimByParticipant(address)": "a0858343",
			"renounceOwnership()": "715018a6",
			"rewardAmountPerParticipantInWei()": "7a0abf08",
			"screenParticipant(address)": "ea1dd101",
			"targetNumberOfParticipants()": "a6a09811",
			"transferOwnership(address)": "f2fde38b",
			"unpauseSurvey()": "3960fc66",
			"updateRewardAmountPerParticipant(uint256)": "64bb632f",
			"updateTargetNumberOfParticipants(uint256)": "528780cc",
			"whitelistParticipant(address)": "64751f22",
			"withdrawAllRewardFundsToResearcher()": "f22069df"
		}
	},
	"abi": [
		{
			"inputs": [
				{
					"internalType": "address",
					"name": "researcherWalletAddress",
					"type": "address"
				},
				{
					"internalType": "uint256",
					"name": "_rewardAmountPerParticipantInWei",
					"type": "uint256"
				},
				{
					"internalType": "uint256",
					"name": "_targetNumberOfParticipants",
					"type": "uint256"
				},
				{
					"internalType": "address",
					"name": "cUSDTokenAddress",
					"type": "address"
				}
			],
			"stateMutability": "nonpayable",
			"type": "constructor"
		},
		{
			"inputs": [],
			"name": "EnforcedPause",
			"type": "error"
		},
		{
			"inputs": [],
			"name": "ExpectedPause",
			"type": "error"
		},
		{
			"inputs": [
				{
					"internalType": "address",
					"name": "owner",
					"type": "address"
				}
			],
			"name": "OwnableInvalidOwner",
			"type": "error"
		},
		{
			"inputs": [
				{
					"internalType": "address",
					"name": "account",
					"type": "address"
				}
			],
			"name": "OwnableUnauthorizedAccount",
			"type": "error"
		},
		{
			"inputs": [],
			"name": "ReentrancyGuardReentrantCall",
			"type": "error"
		},
		{
			"anonymous": false,
			"inputs": [
				{
					"indexed": true,
					"internalType": "address",
					"name": "previousOwner",
					"type": "address"
				},
				{
					"indexed": true,
					"internalType": "address",
					"name": "newOwner",
					"type": "address"
				}
			],
			"name": "OwnershipTransferred",
			"type": "event"
		},
		{
			"anonymous": false,
			"inputs": [
				{
					"indexed": false,
					"internalType": "address",
					"name": "participantWalletAddress",
					"type": "address"
				}
			],
			"name": "ParticipantMarkedAsRewarded",
			"type": "event"
		},
		{
			"anonymous": false,
			"inputs": [
				{
					"indexed": false,
					"internalType": "address",
					"name": "participantWalletAddress",
					"type": "address"
				},
				{
					"indexed": false,
					"internalType": "uint256",
					"name": "rewardAmount",
					"type": "uint256"
				}
			],
			"name": "ParticipantRewarded",
			"type": "event"
		},
		{
			"anonymous": false,
			"inputs": [
				{
					"indexed": false,
					"internalType": "address",
					"name": "participantWalletAddress",
					"type": "address"
				}
			],
			"name": "ParticipantScreened",
			"type": "event"
		},
		{
			"anonymous": false,
			"inputs": [
				{
					"indexed": false,
					"internalType": "address",
					"name": "participantWalletAddress",
					"type": "address"
				}
			],
			"name": "ParticipantWhitelisted",
			"type": "event"
		},
		{
			"anonymous": false,
			"inputs": [
				{
					"indexed": false,
					"internalType": "address",
					"name": "account",
					"type": "address"
				}
			],
			"name": "Paused",
			"type": "event"
		},
		{
			"anonymous": false,
			"inputs": [
				{
					"indexed": false,
					"internalType": "uint256",
					"name": "oldcUSDRewardAmountPerParticipantInWei",
					"type": "uint256"
				},
				{
					"indexed": false,
					"internalType": "uint256",
					"name": "newcUSDRewardAmountPerParticipantInWei",
					"type": "uint256"
				}
			],
			"name": "RewardAmountUpdated",
			"type": "event"
		},
		{
			"anonymous": false,
			"inputs": [
				{
					"indexed": false,
					"internalType": "address",
					"name": "researcherWalletAddress",
					"type": "address"
				},
				{
					"indexed": false,
					"internalType": "uint256",
					"name": "rewardAmount",
					"type": "uint256"
				}
			],
			"name": "RewardFundsWithdrawn",
			"type": "event"
		},
		{
			"anonymous": false,
			"inputs": [
				{
					"indexed": false,
					"internalType": "uint256",
					"name": "oldTargetNumberOfParticipants",
					"type": "uint256"
				},
				{
					"indexed": false,
					"internalType": "uint256",
					"name": "newTargetNumberOfParticipants",
					"type": "uint256"
				}
			],
			"name": "TargetNumberOfParticipantsUpdated",
			"type": "event"
		},
		{
			"anonymous": false,
			"inputs": [
				{
					"indexed": false,
					"internalType": "address",
					"name": "account",
					"type": "address"
				}
			],
			"name": "Unpaused",
			"type": "event"
		},
		{
			"anonymous": false,
			"inputs": [
				{
					"indexed": false,
					"internalType": "address",
					"name": "participantWalletAddress",
					"type": "address"
				}
			],
			"name": "WhitelistedParticipantBlacklisted",
			"type": "event"
		},
		{
			"inputs": [
				{
					"internalType": "address",
					"name": "participantWalletAddress",
					"type": "address"
				}
			],
			"name": "blacklistWhitelistedParticipant",
			"outputs": [],
			"stateMutability": "nonpayable",
			"type": "function"
		},
		{
			"inputs": [],
			"name": "cUSD",
			"outputs": [
				{
					"internalType": "contract IERC20Metadata",
					"name": "",
					"type": "address"
				}
			],
			"stateMutability": "view",
			"type": "function"
		},
		{
			"inputs": [
				{
					"internalType": "address",
					"name": "participantWalletAddress",
					"type": "address"
				}
			],
			"name": "checkIfParticipantHasAlreadyClaimedReward",
			"outputs": [
				{
					"internalType": "bool",
					"name": "",
					"type": "bool"
				}
			],
			"stateMutability": "view",
			"type": "function"
		},
		{
			"inputs": [
				{
					"internalType": "address",
					"name": "participantWalletAddress",
					"type": "address"
				}
			],
			"name": "checkIfParticipantIsBlacklisted",
			"outputs": [
				{
					"internalType": "bool",
					"name": "",
					"type": "bool"
				}
			],
			"stateMutability": "view",
			"type": "function"
		},
		{
			"inputs": [
				{
					"internalType": "address",
					"name": "participantWalletAddress",
					"type": "address"
				}
			],
			"name": "checkIfParticipantIsWhitelisted",
			"outputs": [
				{
					"internalType": "bool",
					"name": "",
					"type": "bool"
				}
			],
			"stateMutability": "view",
			"type": "function"
		},
		{
			"inputs": [],
			"name": "getNumberOfRewardedParticipants",
			"outputs": [
				{
					"internalType": "uint256",
					"name": "",
					"type": "uint256"
				}
			],
			"stateMutability": "view",
			"type": "function"
		},
		{
			"inputs": [],
			"name": "getNumberOfWhitelistedParticipants",
			"outputs": [
				{
					"internalType": "uint256",
					"name": "",
					"type": "uint256"
				}
			],
			"stateMutability": "view",
			"type": "function"
		},
		{
			"inputs": [],
			"name": "getRewardAmountPerParticipantInWei",
			"outputs": [
				{
					"internalType": "uint256",
					"name": "",
					"type": "uint256"
				}
			],
			"stateMutability": "view",
			"type": "function"
		},
		{
			"inputs": [],
			"name": "getTargetNumberOfParticipants",
			"outputs": [
				{
					"internalType": "uint256",
					"name": "",
					"type": "uint256"
				}
			],
			"stateMutability": "view",
			"type": "function"
		},
		{
			"inputs": [
				{
					"internalType": "address[]",
					"name": "registeredAddresses",
					"type": "address[]"
				}
			],
			"name": "getWhitelistedParticipantsFromRegisteredParticipants",
			"outputs": [
				{
					"internalType": "address[]",
					"name": "",
					"type": "address[]"
				}
			],
			"stateMutability": "view",
			"type": "function"
		},
		{
			"inputs": [],
			"name": "numberOfScreenedParticipants",
			"outputs": [
				{
					"internalType": "uint256",
					"name": "",
					"type": "uint256"
				}
			],
			"stateMutability": "view",
			"type": "function"
		},
		{
			"inputs": [],
			"name": "numberOfWhitelistedParticipants",
			"outputs": [
				{
					"internalType": "uint256",
					"name": "",
					"type": "uint256"
				}
			],
			"stateMutability": "view",
			"type": "function"
		},
		{
			"inputs": [],
			"name": "owner",
			"outputs": [
				{
					"internalType": "address",
					"name": "",
					"type": "address"
				}
			],
			"stateMutability": "view",
			"type": "function"
		},
		{
			"inputs": [],
			"name": "pauseSurvey",
			"outputs": [],
			"stateMutability": "nonpayable",
			"type": "function"
		},
		{
			"inputs": [],
			"name": "paused",
			"outputs": [
				{
					"internalType": "bool",
					"name": "",
					"type": "bool"
				}
			],
			"stateMutability": "view",
			"type": "function"
		},
		{
			"inputs": [
				{
					"internalType": "address",
					"name": "walletAddress",
					"type": "address"
				}
			],
			"name": "processRewardClaimByParticipant",
			"outputs": [],
			"stateMutability": "nonpayable",
			"type": "function"
		},
		{
			"inputs": [],
			"name": "renounceOwnership",
			"outputs": [],
			"stateMutability": "nonpayable",
			"type": "function"
		},
		{
			"inputs": [],
			"name": "rewardAmountPerParticipantInWei",
			"outputs": [
				{
					"internalType": "uint256",
					"name": "",
					"type": "uint256"
				}
			],
			"stateMutability": "view",
			"type": "function"
		},
		{
			"inputs": [
				{
					"internalType": "address",
					"name": "participantWalletAddress",
					"type": "address"
				}
			],
			"name": "screenParticipant",
			"outputs": [],
			"stateMutability": "nonpayable",
			"type": "function"
		},
		{
			"inputs": [],
			"name": "targetNumberOfParticipants",
			"outputs": [
				{
					"internalType": "uint256",
					"name": "",
					"type": "uint256"
				}
			],
			"stateMutability": "view",
			"type": "function"
		},
		{
			"inputs": [
				{
					"internalType": "address",
					"name": "newOwner",
					"type": "address"
				}
			],
			"name": "transferOwnership",
			"outputs": [],
			"stateMutability": "nonpayable",
			"type": "function"
		},
		{
			"inputs": [],
			"name": "unpauseSurvey",
			"outputs": [],
			"stateMutability": "nonpayable",
			"type": "function"
		},
		{
			"inputs": [
				{
					"internalType": "uint256",
					"name": "_newRewardAmountPerParticipantInWei",
					"type": "uint256"
				}
			],
			"name": "updateRewardAmountPerParticipant",
			"outputs": [],
			"stateMutability": "nonpayable",
			"type": "function"
		},
		{
			"inputs": [
				{
					"internalType": "uint256",
					"name": "_newTargetNumberOfParticipants",
					"type": "uint256"
				}
			],
			"name": "updateTargetNumberOfParticipants",
			"outputs": [],
			"stateMutability": "nonpayable",
			"type": "function"
		},
		{
			"inputs": [
				{
					"internalType": "address",
					"name": "participantWalletAddress",
					"type": "address"
				}
			],
			"name": "whitelistParticipant",
			"outputs": [],
			"stateMutability": "nonpayable",
			"type": "function"
		},
		{
			"inputs": [],
			"name": "withdrawAllRewardFundsToResearcher",
			"outputs": [],
			"stateMutability": "nonpayable",
			"type": "function"
		}
	]
}