{
	"data": {
		"bytecode": {
			"linkReferences": {},
			"object": "60a060405234801561001057600080fd5b5060405161189f38038061189f83398101604081905261002f9161026c565b836001600160a01b03811661005f57604051631e4fbdf760e01b8152600060048201526024015b60405180910390fd5b61006881610200565b50600180556002805460ff191690556001600160a01b0381166100d75760405162461bcd60e51b815260206004820152602160248201527f5a65726f206164647265737320676976656e20666f72206355534420546f6b656044820152603760f91b6064820152608401610056565b6001600160a01b0384166101375760405162461bcd60e51b815260206004820152602160248201527f5a65726f206164647265737320676976656e20666f72207265736561726368656044820152603960f91b6064820152608401610056565b600083116101875760405162461bcd60e51b815260206004820152601560248201527f496e76616c69642072657761726420616d6f756e7400000000000000000000006044820152606401610056565b600082116101e55760405162461bcd60e51b815260206004820152602560248201527f496e76616c6964206e756d626572206f6620746172676574207061727469636960448201526470616e747360d81b6064820152608401610056565b6001600160a01b0316608052600691909155600755506102b3565b600080546001600160a01b038381166001600160a01b0319831681178455604051919092169283917f8be0079c531659141344cd1fd0a4f28419497f9722a3daafe3b4186f6b6457e09190a35050565b80516001600160a01b038116811461026757600080fd5b919050565b6000806000806080858703121561028257600080fd5b61028b85610250565b60208601516040870151919550935091506102a860608601610250565b905092959194509250565b6080516115ae6102f16000396000818161019801528181610583015281816109da01528181610ab201528181610b2b0152610de201526115ae6000f3fe608060405234801561001057600080fd5b506004361061018e5760003560e01c8063741ae614116100de578063c3aa972111610097578063ea1dd10111610071578063ea1dd101146102f7578063f22069df1461030a578063f2fde38b14610312578063f77a953e1461032557600080fd5b8063c3aa9721146102d4578063c5dac913146102dc578063e082fe2a146102ef57600080fd5b8063741ae6141461027d5780637a0abf0814610285578063825f98be1461028e578063893d20e8146102ba5780638da5cb5b146102ba578063a6a09811146102cb57600080fd5b80635c975abb1161014b5780636fa1c59d116101255780636fa1c59d146102525780636fa55ed91461025a5780637069243c1461026d578063715018a61461027557600080fd5b80635c975abb1461022c578063627d3eb91461023757806364bb632f1461023f57600080fd5b80631fccf6721461019357806321512b41146101d75780633960fc66146101ef5780634074be40146101f95780634fc91ba614610210578063528780cc14610219575b600080fd5b6101ba7f000000000000000000000000000000000000000000000000000000000000000081565b6040516001600160a01b0390911681526020015b60405180910390f35b6101df61032d565b60405190151581526020016101ce565b6101f7610340565b005b610202600a5481565b6040519081526020016101ce565b610202600b5481565b6101f7610227366004611269565b610352565b60025460ff166101df565b600954610202565b6101f761024d366004611269565b610409565b600754610202565b6101f7610268366004611355565b6104a1565b600654610202565b6101f7610801565b600854610202565b61020260065481565b6101df61029c3660046113ec565b6001600160a01b031660009081526004602052604090205460ff1690565b6000546001600160a01b03166101ba565b61020260075481565b600b54610202565b6101df6102ea366004611407565b610813565b6101f761083e565b6101f76103053660046113ec565b61084e565b6101f76109b2565b6101f76103203660046113ec565b610c3d565b600a54610202565b600061033b60025460ff1690565b905090565b610348610c7b565b610350610ca8565b565b61035a610c7b565b806000036103c05760405162461bcd60e51b815260206004820152602860248201527f5a65726f206e756d626572206f6620746172676574207061727469636970616e6044820152673a399033b4bb32b760c11b60648201526084015b60405180910390fd5b6007805490829055604080518281526020810184905283917fb90f11d36a1f2ec1f3b89ac87ccd1ffab1a49f3e3ca83cfdac21fd99a537cbc191015b60405180910390a1505050565b610411610c7b565b806000036104615760405162461bcd60e51b815260206004820152601860248201527f5a65726f2072657761726420616d6f756e7420676976656e000000000000000060448201526064016103b7565b6006805490829055604080518281526020810184905283917ff0d37c3ae852021ac329281f604b658691cbfa6b9e9c22909f06b64a8ce87c9491016103fc565b6104a9610cfa565b6104b1610d1e565b838383836104c184848484610d48565b6105015760405162461bcd60e51b8152602060048201526011602482015270496e76616c6964207369676e617475726560781b60448201526064016103b7565b846005816040516105129190611468565b9081526040519081900360200190205460ff161561056b5760405162461bcd60e51b815260206004820152601660248201527514da59db985d1d5c9948185b1c9958591e481d5cd95960521b60448201526064016103b7565b6006546040516370a0823160e01b81523060048201527f00000000000000000000000000000000000000000000000000000000000000006001600160a01b0316906370a0823190602401602060405180830381865afa1580156105d2573d6000803e3d6000fd5b505050506040513d601f19601f820116820180604052508101906105f69190611484565b101561064f5760405162461bcd60e51b815260206004820152602260248201527f436f6e747261637420646f6573206e6f74206861766520656e6f75676820635560448201526114d160f21b60648201526084016103b7565b600754600854106106ae5760405162461bcd60e51b815260206004820152602360248201527f416c6c207061727469636970616e74732068617665206265656e20726577617260448201526219195960ea1b60648201526084016103b7565b88336001600160a01b038216146106fb5760405162461bcd60e51b815260206004820152601160248201527027b7363c903b30b634b21039b2b73232b960791b60448201526064016103b7565b6001600160a01b038a166000908152600360205260409020548a9060ff16156107665760405162461bcd60e51b815260206004820152601c60248201527f5061727469636970616e7420616c72656164792072657761726465640000000060448201526064016103b7565b6001600160a01b038b166000908152600460205260409020548b9060ff166107c35760405162461bcd60e51b815260206004820152601060248201526f135d5cdd081899481cd8dc99595b995960821b60448201526064016103b7565b60006107ce8d610db3565b905080156107e9576107e08a8e610eaf565b6107e98d610f1a565b5050505050505050506107fb60018055565b50505050565b610809610c7b565b6103506000610f80565b60006005826040516108259190611468565b9081526040519081900360200190205460ff1692915050565b610846610c7b565b610350610fd0565b80336001600160a01b0382161461089b5760405162461bcd60e51b815260206004820152601160248201527027b7363c903b30b634b21039b2b73232b960791b60448201526064016103b7565b6001600160a01b038216600090815260046020526040902054829060ff16156109065760405162461bcd60e51b815260206004820152601760248201527f4f6e6c7920756e73637265656e6564206164647265737300000000000000000060448201526064016103b7565b6001600160a01b0383166109525760405162461bcd60e51b815260206004820152601360248201527216995c9bc81859191c995cdcc81c185cdcd959606a1b60448201526064016103b7565b6001600160a01b038316600081815260046020908152604091829020805460ff19166001908117909155600a8054909101905590519182527fc4ec7a2dc5e72d17666a15570e438638bfc023a7a091df162b669c37198bacb291016103fc565b6109ba610c7b565b6109c2610cfa565b6040516370a0823160e01b81523060048201526000907f00000000000000000000000000000000000000000000000000000000000000006001600160a01b0316906370a0823190602401602060405180830381865afa158015610a29573d6000803e3d6000fd5b505050506040513d601f19601f82011682018060405250810190610a4d9190611484565b11610a9a5760405162461bcd60e51b815260206004820152601f60248201527f436f6e747261637420646f6573206e6f74206861766520616e7920635553440060448201526064016103b7565b6040516370a0823160e01b81523060048201526000907f00000000000000000000000000000000000000000000000000000000000000006001600160a01b0316906370a0823190602401602060405180830381865afa158015610b01573d6000803e3d6000fd5b505050506040513d601f19601f82011682018060405250810190610b259190611484565b905060007f00000000000000000000000000000000000000000000000000000000000000006001600160a01b031663a9059cbb610b6a6000546001600160a01b031690565b6040516001600160e01b031960e084901b1681526001600160a01b039091166004820152602481018590526044016020604051808303816000875af1158015610bb7573d6000803e3d6000fd5b505050506040513d601f19601f82011682018060405250810190610bdb919061149d565b90508015610c39577f2036b9b38b69a2fa490ee702733a29cd2550accc20bc96e786cb9beedc779097610c166000546001600160a01b031690565b604080516001600160a01b03909216825260208201859052015b60405180910390a15b5050565b610c45610c7b565b6001600160a01b038116610c6f57604051631e4fbdf760e01b8152600060048201526024016103b7565b610c7881610f80565b50565b6000546001600160a01b031633146103505760405163118cdaa760e01b81523360048201526024016103b7565b610cb061100d565b6002805460ff191690557f5db9ee0a495bf2e6ff9c91a7834c1ba4fdd244a5e8aa4e537bd38aeae4b073aa335b6040516001600160a01b03909116815260200160405180910390a1565b60025460ff16156103505760405163d93c066560e01b815260040160405180910390fd5b600260015403610d4157604051633ee5aeb560e01b815260040160405180910390fd5b6002600155565b600080610d56868686611030565b7f19457468657265756d205369676e6564204d6573736167653a0a3332000000006000908152601c829052603c81209054919250906001600160a01b0316610d9e828661106a565b6001600160a01b031614979650505050505050565b60065460405163a9059cbb60e01b81526001600160a01b038381166004830152602482019290925260009182917f00000000000000000000000000000000000000000000000000000000000000009091169063a9059cbb906044016020604051808303816000875af1158015610e2d573d6000803e3d6000fd5b505050506040513d601f19601f82011682018060405250810190610e51919061149d565b90508015610ea957600880546001019055600654604080516001600160a01b038616815260208101929092527f8934d7a9692e763e356fd30d84ca5f61a737b35c5ccd5d31d4f140310267b73e910160405180910390a15b92915050565b6001600583604051610ec19190611468565b908152604051908190036020018120805492151560ff1990931692909217909155600b805460010190557f97fb84d3f0d20b64a0a8e52541408b0155ba98fea88e66283156f306d04b08b890610c3090849084906114bf565b6001600160a01b038116600081815260036020908152604091829020805460ff1916600190811790915560098054909101905590519182527f654c9a027765e6feb862f42d438e9f6948f9ee31113e379f0372b30efc722943910160405180910390a150565b600080546001600160a01b038381166001600160a01b0319831681178455604051919092169283917f8be0079c531659141344cd1fd0a4f28419497f9722a3daafe3b4186f6b6457e09190a35050565b610fd8610cfa565b6002805460ff191660011790557f62e78cea01bee320cd4e420270b5ea74000d11b0c9f74754ebdbfc544b05a258610cdd3390565b60025460ff1661035057604051638dfc202b60e01b815260040160405180910390fd5b6000304685858560405160200161104b959493929190611503565b6040516020818303038152906040528051906020012090509392505050565b60008060008061107a8686611094565b92509250925061108a82826110e1565b5090949350505050565b600080600083516041036110ce5760208401516040850151606086015160001a6110c08882858561119a565b9550955095505050506110da565b50508151600091506002905b9250925092565b60008260038111156110f5576110f5611562565b036110fe575050565b600182600381111561111257611112611562565b036111305760405163f645eedf60e01b815260040160405180910390fd5b600282600381111561114457611144611562565b036111655760405163fce698f760e01b8152600481018290526024016103b7565b600382600381111561117957611179611562565b03610c39576040516335e2f38360e21b8152600481018290526024016103b7565b600080807f7fffffffffffffffffffffffffffffff5d576e7357a4501ddfe92f46681b20a08411156111d5575060009150600390508261125f565b604080516000808252602082018084528a905260ff891692820192909252606081018790526080810186905260019060a0016020604051602081039080840390855afa158015611229573d6000803e3d6000fd5b5050604051601f1901519150506001600160a01b0381166112555750600092506001915082905061125f565b9250600091508190505b9450945094915050565b60006020828403121561127b57600080fd5b5035919050565b80356001600160a01b038116811461129957600080fd5b919050565b634e487b7160e01b600052604160045260246000fd5b60008067ffffffffffffffff8411156112cf576112cf61129e565b50604051601f19601f85018116603f0116810181811067ffffffffffffffff821117156112fe576112fe61129e565b60405283815290508082840185101561131657600080fd5b83836020830137600060208583010152509392505050565b600082601f83011261133f57600080fd5b61134e838335602085016112b4565b9392505050565b6000806000806080858703121561136b57600080fd5b61137485611282565b9350602085013567ffffffffffffffff81111561139057600080fd5b8501601f810187136113a157600080fd5b6113b0878235602084016112b4565b93505060408501359150606085013567ffffffffffffffff8111156113d457600080fd5b6113e08782880161132e565b91505092959194509250565b6000602082840312156113fe57600080fd5b61134e82611282565b60006020828403121561141957600080fd5b813567ffffffffffffffff81111561143057600080fd5b61143c8482850161132e565b949350505050565b60005b8381101561145f578181015183820152602001611447565b50506000910152565b6000825161147a818460208701611444565b9190910192915050565b60006020828403121561149657600080fd5b5051919050565b6000602082840312156114af57600080fd5b8151801515811461134e57600080fd5b60408152600083518060408401526114de816060850160208801611444565b6001600160a01b0393909316602083015250601f91909101601f191601606001919050565b6bffffffffffffffffffffffff198660601b1681528460148201526bffffffffffffffffffffffff198460601b1660348201526000835161154b816048850160208801611444565b604892019182019290925260680195945050505050565b634e487b7160e01b600052602160045260246000fdfea26469706673582212200c80b404cebcbbf5952bbbebabc36b9a2ce7c2469833966e0b69c7c66b35c6f864736f6c634300081c0033",
			"opcodes": "PUSH1 0xA0 PUSH1 0x40 MSTORE CALLVALUE DUP1 ISZERO PUSH2 0x10 JUMPI PUSH1 0x0 DUP1 REVERT JUMPDEST POP PUSH1 0x40 MLOAD PUSH2 0x189F CODESIZE SUB DUP1 PUSH2 0x189F DUP4 CODECOPY DUP2 ADD PUSH1 0x40 DUP2 SWAP1 MSTORE PUSH2 0x2F SWAP2 PUSH2 0x26C JUMP JUMPDEST DUP4 PUSH1 0x1 PUSH1 0x1 PUSH1 0xA0 SHL SUB DUP2 AND PUSH2 0x5F JUMPI PUSH1 0x40 MLOAD PUSH4 0x1E4FBDF7 PUSH1 0xE0 SHL DUP2 MSTORE PUSH1 0x0 PUSH1 0x4 DUP3 ADD MSTORE PUSH1 0x24 ADD JUMPDEST PUSH1 0x40 MLOAD DUP1 SWAP2 SUB SWAP1 REVERT JUMPDEST PUSH2 0x68 DUP2 PUSH2 0x200 JUMP JUMPDEST POP PUSH1 0x1 DUP1 SSTORE PUSH1 0x2 DUP1 SLOAD PUSH1 0xFF NOT AND SWAP1 SSTORE PUSH1 0x1 PUSH1 0x1 PUSH1 0xA0 SHL SUB DUP2 AND PUSH2 0xD7 JUMPI PUSH1 0x40 MLOAD PUSH3 0x461BCD PUSH1 0xE5 SHL DUP2 MSTORE PUSH1 0x20 PUSH1 0x4 DUP3 ADD MSTORE PUSH1 0x21 PUSH1 0x24 DUP3 ADD MSTORE PUSH32 0x5A65726F206164647265737320676976656E20666F72206355534420546F6B65 PUSH1 0x44 DUP3 ADD MSTORE PUSH1 0x37 PUSH1 0xF9 SHL PUSH1 0x64 DUP3 ADD MSTORE PUSH1 0x84 ADD PUSH2 0x56 JUMP JUMPDEST PUSH1 0x1 PUSH1 0x1 PUSH1 0xA0 SHL SUB DUP5 AND PUSH2 0x137 JUMPI PUSH1 0x40 MLOAD PUSH3 0x461BCD PUSH1 0xE5 SHL DUP2 MSTORE PUSH1 0x20 PUSH1 0x4 DUP3 ADD MSTORE PUSH1 0x21 PUSH1 0x24 DUP3 ADD MSTORE PUSH32 0x5A65726F206164647265737320676976656E20666F7220726573656172636865 PUSH1 0x44 DUP3 ADD MSTORE PUSH1 0x39 PUSH1 0xF9 SHL PUSH1 0x64 DUP3 ADD MSTORE PUSH1 0x84 ADD PUSH2 0x56 JUMP JUMPDEST PUSH1 0x0 DUP4 GT PUSH2 0x187 JUMPI PUSH1 0x40 MLOAD PUSH3 0x461BCD PUSH1 0xE5 SHL DUP2 MSTORE PUSH1 0x20 PUSH1 0x4 DUP3 ADD MSTORE PUSH1 0x15 PUSH1 0x24 DUP3 ADD MSTORE PUSH32 0x496E76616C69642072657761726420616D6F756E740000000000000000000000 PUSH1 0x44 DUP3 ADD MSTORE PUSH1 0x64 ADD PUSH2 0x56 JUMP JUMPDEST PUSH1 0x0 DUP3 GT PUSH2 0x1E5 JUMPI PUSH1 0x40 MLOAD PUSH3 0x461BCD PUSH1 0xE5 SHL DUP2 MSTORE PUSH1 0x20 PUSH1 0x4 DUP3 ADD MSTORE PUSH1 0x25 PUSH1 0x24 DUP3 ADD MSTORE PUSH32 0x496E76616C6964206E756D626572206F66207461726765742070617274696369 PUSH1 0x44 DUP3 ADD MSTORE PUSH5 0x70616E7473 PUSH1 0xD8 SHL PUSH1 0x64 DUP3 ADD MSTORE PUSH1 0x84 ADD PUSH2 0x56 JUMP JUMPDEST PUSH1 0x1 PUSH1 0x1 PUSH1 0xA0 SHL SUB AND PUSH1 0x80 MSTORE PUSH1 0x6 SWAP2 SWAP1 SWAP2 SSTORE PUSH1 0x7 SSTORE POP PUSH2 0x2B3 JUMP JUMPDEST PUSH1 0x0 DUP1 SLOAD PUSH1 0x1 PUSH1 0x1 PUSH1 0xA0 SHL SUB DUP4 DUP2 AND PUSH1 0x1 PUSH1 0x1 PUSH1 0xA0 SHL SUB NOT DUP4 AND DUP2 OR DUP5 SSTORE PUSH1 0x40 MLOAD SWAP2 SWAP1 SWAP3 AND SWAP3 DUP4 SWAP2 PUSH32 0x8BE0079C531659141344CD1FD0A4F28419497F9722A3DAAFE3B4186F6B6457E0 SWAP2 SWAP1 LOG3 POP POP JUMP JUMPDEST DUP1 MLOAD PUSH1 0x1 PUSH1 0x1 PUSH1 0xA0 SHL SUB DUP2 AND DUP2 EQ PUSH2 0x267 JUMPI PUSH1 0x0 DUP1 REVERT JUMPDEST SWAP2 SWAP1 POP JUMP JUMPDEST PUSH1 0x0 DUP1 PUSH1 0x0 DUP1 PUSH1 0x80 DUP6 DUP8 SUB SLT ISZERO PUSH2 0x282 JUMPI PUSH1 0x0 DUP1 REVERT JUMPDEST PUSH2 0x28B DUP6 PUSH2 0x250 JUMP JUMPDEST PUSH1 0x20 DUP7 ADD MLOAD PUSH1 0x40 DUP8 ADD MLOAD SWAP2 SWAP6 POP SWAP4 POP SWAP2 POP PUSH2 0x2A8 PUSH1 0x60 DUP7 ADD PUSH2 0x250 JUMP JUMPDEST SWAP1 POP SWAP3 SWAP6 SWAP2 SWAP5 POP SWAP3 POP JUMP JUMPDEST PUSH1 0x80 MLOAD PUSH2 0x15AE PUSH2 0x2F1 PUSH1 0x0 CODECOPY PUSH1 0x0 DUP2 DUP2 PUSH2 0x198 ADD MSTORE DUP2 DUP2 PUSH2 0x583 ADD MSTORE DUP2 DUP2 PUSH2 0x9DA ADD MSTORE DUP2 DUP2 PUSH2 0xAB2 ADD MSTORE DUP2 DUP2 PUSH2 0xB2B ADD MSTORE PUSH2 0xDE2 ADD MSTORE PUSH2 0x15AE PUSH1 0x0 RETURN INVALID PUSH1 0x80 PUSH1 0x40 MSTORE CALLVALUE DUP1 ISZERO PUSH2 0x10 JUMPI PUSH1 0x0 DUP1 REVERT JUMPDEST POP PUSH1 0x4 CALLDATASIZE LT PUSH2 0x18E JUMPI PUSH1 0x0 CALLDATALOAD PUSH1 0xE0 SHR DUP1 PUSH4 0x741AE614 GT PUSH2 0xDE JUMPI DUP1 PUSH4 0xC3AA9721 GT PUSH2 0x97 JUMPI DUP1 PUSH4 0xEA1DD101 GT PUSH2 0x71 JUMPI DUP1 PUSH4 0xEA1DD101 EQ PUSH2 0x2F7 JUMPI DUP1 PUSH4 0xF22069DF EQ PUSH2 0x30A JUMPI DUP1 PUSH4 0xF2FDE38B EQ PUSH2 0x312 JUMPI DUP1 PUSH4 0xF77A953E EQ PUSH2 0x325 JUMPI PUSH1 0x0 DUP1 REVERT JUMPDEST DUP1 PUSH4 0xC3AA9721 EQ PUSH2 0x2D4 JUMPI DUP1 PUSH4 0xC5DAC913 EQ PUSH2 0x2DC JUMPI DUP1 PUSH4 0xE082FE2A EQ PUSH2 0x2EF JUMPI PUSH1 0x0 DUP1 REVERT JUMPDEST DUP1 PUSH4 0x741AE614 EQ PUSH2 0x27D JUMPI DUP1 PUSH4 0x7A0ABF08 EQ PUSH2 0x285 JUMPI DUP1 PUSH4 0x825F98BE EQ PUSH2 0x28E JUMPI DUP1 PUSH4 0x893D20E8 EQ PUSH2 0x2BA JUMPI DUP1 PUSH4 0x8DA5CB5B EQ PUSH2 0x2BA JUMPI DUP1 PUSH4 0xA6A09811 EQ PUSH2 0x2CB JUMPI PUSH1 0x0 DUP1 REVERT JUMPDEST DUP1 PUSH4 0x5C975ABB GT PUSH2 0x14B JUMPI DUP1 PUSH4 0x6FA1C59D GT PUSH2 0x125 JUMPI DUP1 PUSH4 0x6FA1C59D EQ PUSH2 0x252 JUMPI DUP1 PUSH4 0x6FA55ED9 EQ PUSH2 0x25A JUMPI DUP1 PUSH4 0x7069243C EQ PUSH2 0x26D JUMPI DUP1 PUSH4 0x715018A6 EQ PUSH2 0x275 JUMPI PUSH1 0x0 DUP1 REVERT JUMPDEST DUP1 PUSH4 0x5C975ABB EQ PUSH2 0x22C JUMPI DUP1 PUSH4 0x627D3EB9 EQ PUSH2 0x237 JUMPI DUP1 PUSH4 0x64BB632F EQ PUSH2 0x23F JUMPI PUSH1 0x0 DUP1 REVERT JUMPDEST DUP1 PUSH4 0x1FCCF672 EQ PUSH2 0x193 JUMPI DUP1 PUSH4 0x21512B41 EQ PUSH2 0x1D7 JUMPI DUP1 PUSH4 0x3960FC66 EQ PUSH2 0x1EF JUMPI DUP1 PUSH4 0x4074BE40 EQ PUSH2 0x1F9 JUMPI DUP1 PUSH4 0x4FC91BA6 EQ PUSH2 0x210 JUMPI DUP1 PUSH4 0x528780CC EQ PUSH2 0x219 JUMPI JUMPDEST PUSH1 0x0 DUP1 REVERT JUMPDEST PUSH2 0x1BA PUSH32 0x0 DUP2 JUMP JUMPDEST PUSH1 0x40 MLOAD PUSH1 0x1 PUSH1 0x1 PUSH1 0xA0 SHL SUB SWAP1 SWAP2 AND DUP2 MSTORE PUSH1 0x20 ADD JUMPDEST PUSH1 0x40 MLOAD DUP1 SWAP2 SUB SWAP1 RETURN JUMPDEST PUSH2 0x1DF PUSH2 0x32D JUMP JUMPDEST PUSH1 0x40 MLOAD SWAP1 ISZERO ISZERO DUP2 MSTORE PUSH1 0x20 ADD PUSH2 0x1CE JUMP JUMPDEST PUSH2 0x1F7 PUSH2 0x340 JUMP JUMPDEST STOP JUMPDEST PUSH2 0x202 PUSH1 0xA SLOAD DUP2 JUMP JUMPDEST PUSH1 0x40 MLOAD SWAP1 DUP2 MSTORE PUSH1 0x20 ADD PUSH2 0x1CE JUMP JUMPDEST PUSH2 0x202 PUSH1 0xB SLOAD DUP2 JUMP JUMPDEST PUSH2 0x1F7 PUSH2 0x227 CALLDATASIZE PUSH1 0x4 PUSH2 0x1269 JUMP JUMPDEST PUSH2 0x352 JUMP JUMPDEST PUSH1 0x2 SLOAD PUSH1 0xFF AND PUSH2 0x1DF JUMP JUMPDEST PUSH1 0x9 SLOAD PUSH2 0x202 JUMP JUMPDEST PUSH2 0x1F7 PUSH2 0x24D CALLDATASIZE PUSH1 0x4 PUSH2 0x1269 JUMP JUMPDEST PUSH2 0x409 JUMP JUMPDEST PUSH1 0x7 SLOAD PUSH2 0x202 JUMP JUMPDEST PUSH2 0x1F7 PUSH2 0x268 CALLDATASIZE PUSH1 0x4 PUSH2 0x1355 JUMP JUMPDEST PUSH2 0x4A1 JUMP JUMPDEST PUSH1 0x6 SLOAD PUSH2 0x202 JUMP JUMPDEST PUSH2 0x1F7 PUSH2 0x801 JUMP JUMPDEST PUSH1 0x8 SLOAD PUSH2 0x202 JUMP JUMPDEST PUSH2 0x202 PUSH1 0x6 SLOAD DUP2 JUMP JUMPDEST PUSH2 0x1DF PUSH2 0x29C CALLDATASIZE PUSH1 0x4 PUSH2 0x13EC JUMP JUMPDEST PUSH1 0x1 PUSH1 0x1 PUSH1 0xA0 SHL SUB AND PUSH1 0x0 SWAP1 DUP2 MSTORE PUSH1 0x4 PUSH1 0x20 MSTORE PUSH1 0x40 SWAP1 KECCAK256 SLOAD PUSH1 0xFF AND SWAP1 JUMP JUMPDEST PUSH1 0x0 SLOAD PUSH1 0x1 PUSH1 0x1 PUSH1 0xA0 SHL SUB AND PUSH2 0x1BA JUMP JUMPDEST PUSH2 0x202 PUSH1 0x7 SLOAD DUP2 JUMP JUMPDEST PUSH1 0xB SLOAD PUSH2 0x202 JUMP JUMPDEST PUSH2 0x1DF PUSH2 0x2EA CALLDATASIZE PUSH1 0x4 PUSH2 0x1407 JUMP JUMPDEST PUSH2 0x813 JUMP JUMPDEST PUSH2 0x1F7 PUSH2 0x83E JUMP JUMPDEST PUSH2 0x1F7 PUSH2 0x305 CALLDATASIZE PUSH1 0x4 PUSH2 0x13EC JUMP JUMPDEST PUSH2 0x84E JUMP JUMPDEST PUSH2 0x1F7 PUSH2 0x9B2 JUMP JUMPDEST PUSH2 0x1F7 PUSH2 0x320 CALLDATASIZE PUSH1 0x4 PUSH2 0x13EC JUMP JUMPDEST PUSH2 0xC3D JUMP JUMPDEST PUSH1 0xA SLOAD PUSH2 0x202 JUMP JUMPDEST PUSH1 0x0 PUSH2 0x33B PUSH1 0x2 SLOAD PUSH1 0xFF AND SWAP1 JUMP JUMPDEST SWAP1 POP SWAP1 JUMP JUMPDEST PUSH2 0x348 PUSH2 0xC7B JUMP JUMPDEST PUSH2 0x350 PUSH2 0xCA8 JUMP JUMPDEST JUMP JUMPDEST PUSH2 0x35A PUSH2 0xC7B JUMP JUMPDEST DUP1 PUSH1 0x0 SUB PUSH2 0x3C0 JUMPI PUSH1 0x40 MLOAD PUSH3 0x461BCD PUSH1 0xE5 SHL DUP2 MSTORE PUSH1 0x20 PUSH1 0x4 DUP3 ADD MSTORE PUSH1 0x28 PUSH1 0x24 DUP3 ADD MSTORE PUSH32 0x5A65726F206E756D626572206F6620746172676574207061727469636970616E PUSH1 0x44 DUP3 ADD MSTORE PUSH8 0x3A399033B4BB32B7 PUSH1 0xC1 SHL PUSH1 0x64 DUP3 ADD MSTORE PUSH1 0x84 ADD JUMPDEST PUSH1 0x40 MLOAD DUP1 SWAP2 SUB SWAP1 REVERT JUMPDEST PUSH1 0x7 DUP1 SLOAD SWAP1 DUP3 SWAP1 SSTORE PUSH1 0x40 DUP1 MLOAD DUP3 DUP2 MSTORE PUSH1 0x20 DUP2 ADD DUP5 SWAP1 MSTORE DUP4 SWAP2 PUSH32 0xB90F11D36A1F2EC1F3B89AC87CCD1FFAB1A49F3E3CA83CFDAC21FD99A537CBC1 SWAP2 ADD JUMPDEST PUSH1 0x40 MLOAD DUP1 SWAP2 SUB SWAP1 LOG1 POP POP POP JUMP JUMPDEST PUSH2 0x411 PUSH2 0xC7B JUMP JUMPDEST DUP1 PUSH1 0x0 SUB PUSH2 0x461 JUMPI PUSH1 0x40 MLOAD PUSH3 0x461BCD PUSH1 0xE5 SHL DUP2 MSTORE PUSH1 0x20 PUSH1 0x4 DUP3 ADD MSTORE PUSH1 0x18 PUSH1 0x24 DUP3 ADD MSTORE PUSH32 0x5A65726F2072657761726420616D6F756E7420676976656E0000000000000000 PUSH1 0x44 DUP3 ADD MSTORE PUSH1 0x64 ADD PUSH2 0x3B7 JUMP JUMPDEST PUSH1 0x6 DUP1 SLOAD SWAP1 DUP3 SWAP1 SSTORE PUSH1 0x40 DUP1 MLOAD DUP3 DUP2 MSTORE PUSH1 0x20 DUP2 ADD DUP5 SWAP1 MSTORE DUP4 SWAP2 PUSH32 0xF0D37C3AE852021AC329281F604B658691CBFA6B9E9C22909F06B64A8CE87C94 SWAP2 ADD PUSH2 0x3FC JUMP JUMPDEST PUSH2 0x4A9 PUSH2 0xCFA JUMP JUMPDEST PUSH2 0x4B1 PUSH2 0xD1E JUMP JUMPDEST DUP4 DUP4 DUP4 DUP4 PUSH2 0x4C1 DUP5 DUP5 DUP5 DUP5 PUSH2 0xD48 JUMP JUMPDEST PUSH2 0x501 JUMPI PUSH1 0x40 MLOAD PUSH3 0x461BCD PUSH1 0xE5 SHL DUP2 MSTORE PUSH1 0x20 PUSH1 0x4 DUP3 ADD MSTORE PUSH1 0x11 PUSH1 0x24 DUP3 ADD MSTORE PUSH17 0x496E76616C6964207369676E6174757265 PUSH1 0x78 SHL PUSH1 0x44 DUP3 ADD MSTORE PUSH1 0x64 ADD PUSH2 0x3B7 JUMP JUMPDEST DUP5 PUSH1 0x5 DUP2 PUSH1 0x40 MLOAD PUSH2 0x512 SWAP2 SWAP1 PUSH2 0x1468 JUMP JUMPDEST SWAP1 DUP2 MSTORE PUSH1 0x40 MLOAD SWAP1 DUP2 SWAP1 SUB PUSH1 0x20 ADD SWAP1 KECCAK256 SLOAD PUSH1 0xFF AND ISZERO PUSH2 0x56B JUMPI PUSH1 0x40 MLOAD PUSH3 0x461BCD PUSH1 0xE5 SHL DUP2 MSTORE PUSH1 0x20 PUSH1 0x4 DUP3 ADD MSTORE PUSH1 0x16 PUSH1 0x24 DUP3 ADD MSTORE PUSH22 0x14DA59DB985D1D5C9948185B1C9958591E481D5CD959 PUSH1 0x52 SHL PUSH1 0x44 DUP3 ADD MSTORE PUSH1 0x64 ADD PUSH2 0x3B7 JUMP JUMPDEST PUSH1 0x6 SLOAD PUSH1 0x40 MLOAD PUSH4 0x70A08231 PUSH1 0xE0 SHL DUP2 MSTORE ADDRESS PUSH1 0x4 DUP3 ADD MSTORE PUSH32 0x0 PUSH1 0x1 PUSH1 0x1 PUSH1 0xA0 SHL SUB AND SWAP1 PUSH4 0x70A08231 SWAP1 PUSH1 0x24 ADD PUSH1 0x20 PUSH1 0x40 MLOAD DUP1 DUP4 SUB DUP2 DUP7 GAS STATICCALL ISZERO DUP1 ISZERO PUSH2 0x5D2 JUMPI RETURNDATASIZE PUSH1 0x0 DUP1 RETURNDATACOPY RETURNDATASIZE PUSH1 0x0 REVERT JUMPDEST POP POP POP POP PUSH1 0x40 MLOAD RETURNDATASIZE PUSH1 0x1F NOT PUSH1 0x1F DUP3 ADD AND DUP3 ADD DUP1 PUSH1 0x40 MSTORE POP DUP2 ADD SWAP1 PUSH2 0x5F6 SWAP2 SWAP1 PUSH2 0x1484 JUMP JUMPDEST LT ISZERO PUSH2 0x64F JUMPI PUSH1 0x40 MLOAD PUSH3 0x461BCD PUSH1 0xE5 SHL DUP2 MSTORE PUSH1 0x20 PUSH1 0x4 DUP3 ADD MSTORE PUSH1 0x22 PUSH1 0x24 DUP3 ADD MSTORE PUSH32 0x436F6E747261637420646F6573206E6F74206861766520656E6F756768206355 PUSH1 0x44 DUP3 ADD MSTORE PUSH2 0x14D1 PUSH1 0xF2 SHL PUSH1 0x64 DUP3 ADD MSTORE PUSH1 0x84 ADD PUSH2 0x3B7 JUMP JUMPDEST PUSH1 0x7 SLOAD PUSH1 0x8 SLOAD LT PUSH2 0x6AE JUMPI PUSH1 0x40 MLOAD PUSH3 0x461BCD PUSH1 0xE5 SHL DUP2 MSTORE PUSH1 0x20 PUSH1 0x4 DUP3 ADD MSTORE PUSH1 0x23 PUSH1 0x24 DUP3 ADD MSTORE PUSH32 0x416C6C207061727469636970616E74732068617665206265656E207265776172 PUSH1 0x44 DUP3 ADD MSTORE PUSH3 0x191959 PUSH1 0xEA SHL PUSH1 0x64 DUP3 ADD MSTORE PUSH1 0x84 ADD PUSH2 0x3B7 JUMP JUMPDEST DUP9 CALLER PUSH1 0x1 PUSH1 0x1 PUSH1 0xA0 SHL SUB DUP3 AND EQ PUSH2 0x6FB JUMPI PUSH1 0x40 MLOAD PUSH3 0x461BCD PUSH1 0xE5 SHL DUP2 MSTORE PUSH1 0x20 PUSH1 0x4 DUP3 ADD MSTORE PUSH1 0x11 PUSH1 0x24 DUP3 ADD MSTORE PUSH17 0x27B7363C903B30B634B21039B2B73232B9 PUSH1 0x79 SHL PUSH1 0x44 DUP3 ADD MSTORE PUSH1 0x64 ADD PUSH2 0x3B7 JUMP JUMPDEST PUSH1 0x1 PUSH1 0x1 PUSH1 0xA0 SHL SUB DUP11 AND PUSH1 0x0 SWAP1 DUP2 MSTORE PUSH1 0x3 PUSH1 0x20 MSTORE PUSH1 0x40 SWAP1 KECCAK256 SLOAD DUP11 SWAP1 PUSH1 0xFF AND ISZERO PUSH2 0x766 JUMPI PUSH1 0x40 MLOAD PUSH3 0x461BCD PUSH1 0xE5 SHL DUP2 MSTORE PUSH1 0x20 PUSH1 0x4 DUP3 ADD MSTORE PUSH1 0x1C PUSH1 0x24 DUP3 ADD MSTORE PUSH32 0x5061727469636970616E7420616C726561647920726577617264656400000000 PUSH1 0x44 DUP3 ADD MSTORE PUSH1 0x64 ADD PUSH2 0x3B7 JUMP JUMPDEST PUSH1 0x1 PUSH1 0x1 PUSH1 0xA0 SHL SUB DUP12 AND PUSH1 0x0 SWAP1 DUP2 MSTORE PUSH1 0x4 PUSH1 0x20 MSTORE PUSH1 0x40 SWAP1 KECCAK256 SLOAD DUP12 SWAP1 PUSH1 0xFF AND PUSH2 0x7C3 JUMPI PUSH1 0x40 MLOAD PUSH3 0x461BCD PUSH1 0xE5 SHL DUP2 MSTORE PUSH1 0x20 PUSH1 0x4 DUP3 ADD MSTORE PUSH1 0x10 PUSH1 0x24 DUP3 ADD MSTORE PUSH16 0x135D5CDD081899481CD8DC99595B9959 PUSH1 0x82 SHL PUSH1 0x44 DUP3 ADD MSTORE PUSH1 0x64 ADD PUSH2 0x3B7 JUMP JUMPDEST PUSH1 0x0 PUSH2 0x7CE DUP14 PUSH2 0xDB3 JUMP JUMPDEST SWAP1 POP DUP1 ISZERO PUSH2 0x7E9 JUMPI PUSH2 0x7E0 DUP11 DUP15 PUSH2 0xEAF JUMP JUMPDEST PUSH2 0x7E9 DUP14 PUSH2 0xF1A JUMP JUMPDEST POP POP POP POP POP POP POP POP POP PUSH2 0x7FB PUSH1 0x1 DUP1 SSTORE JUMP JUMPDEST POP POP POP POP JUMP JUMPDEST PUSH2 0x809 PUSH2 0xC7B JUMP JUMPDEST PUSH2 0x350 PUSH1 0x0 PUSH2 0xF80 JUMP JUMPDEST PUSH1 0x0 PUSH1 0x5 DUP3 PUSH1 0x40 MLOAD PUSH2 0x825 SWAP2 SWAP1 PUSH2 0x1468 JUMP JUMPDEST SWAP1 DUP2 MSTORE PUSH1 0x40 MLOAD SWAP1 DUP2 SWAP1 SUB PUSH1 0x20 ADD SWAP1 KECCAK256 SLOAD PUSH1 0xFF AND SWAP3 SWAP2 POP POP JUMP JUMPDEST PUSH2 0x846 PUSH2 0xC7B JUMP JUMPDEST PUSH2 0x350 PUSH2 0xFD0 JUMP JUMPDEST DUP1 CALLER PUSH1 0x1 PUSH1 0x1 PUSH1 0xA0 SHL SUB DUP3 AND EQ PUSH2 0x89B JUMPI PUSH1 0x40 MLOAD PUSH3 0x461BCD PUSH1 0xE5 SHL DUP2 MSTORE PUSH1 0x20 PUSH1 0x4 DUP3 ADD MSTORE PUSH1 0x11 PUSH1 0x24 DUP3 ADD MSTORE PUSH17 0x27B7363C903B30B634B21039B2B73232B9 PUSH1 0x79 SHL PUSH1 0x44 DUP3 ADD MSTORE PUSH1 0x64 ADD PUSH2 0x3B7 JUMP JUMPDEST PUSH1 0x1 PUSH1 0x1 PUSH1 0xA0 SHL SUB DUP3 AND PUSH1 0x0 SWAP1 DUP2 MSTORE PUSH1 0x4 PUSH1 0x20 MSTORE PUSH1 0x40 SWAP1 KECCAK256 SLOAD DUP3 SWAP1 PUSH1 0xFF AND ISZERO PUSH2 0x906 JUMPI PUSH1 0x40 MLOAD PUSH3 0x461BCD PUSH1 0xE5 SHL DUP2 MSTORE PUSH1 0x20 PUSH1 0x4 DUP3 ADD MSTORE PUSH1 0x17 PUSH1 0x24 DUP3 ADD MSTORE PUSH32 0x4F6E6C7920756E73637265656E65642061646472657373000000000000000000 PUSH1 0x44 DUP3 ADD MSTORE PUSH1 0x64 ADD PUSH2 0x3B7 JUMP JUMPDEST PUSH1 0x1 PUSH1 0x1 PUSH1 0xA0 SHL SUB DUP4 AND PUSH2 0x952 JUMPI PUSH1 0x40 MLOAD PUSH3 0x461BCD PUSH1 0xE5 SHL DUP2 MSTORE PUSH1 0x20 PUSH1 0x4 DUP3 ADD MSTORE PUSH1 0x13 PUSH1 0x24 DUP3 ADD MSTORE PUSH19 0x16995C9BC81859191C995CDCC81C185CDCD959 PUSH1 0x6A SHL PUSH1 0x44 DUP3 ADD MSTORE PUSH1 0x64 ADD PUSH2 0x3B7 JUMP JUMPDEST PUSH1 0x1 PUSH1 0x1 PUSH1 0xA0 SHL SUB DUP4 AND PUSH1 0x0 DUP2 DUP2 MSTORE PUSH1 0x4 PUSH1 0x20 SWAP1 DUP2 MSTORE PUSH1 0x40 SWAP2 DUP3 SWAP1 KECCAK256 DUP1 SLOAD PUSH1 0xFF NOT AND PUSH1 0x1 SWAP1 DUP2 OR SWAP1 SWAP2 SSTORE PUSH1 0xA DUP1 SLOAD SWAP1 SWAP2 ADD SWAP1 SSTORE SWAP1 MLOAD SWAP2 DUP3 MSTORE PUSH32 0xC4EC7A2DC5E72D17666A15570E438638BFC023A7A091DF162B669C37198BACB2 SWAP2 ADD PUSH2 0x3FC JUMP JUMPDEST PUSH2 0x9BA PUSH2 0xC7B JUMP JUMPDEST PUSH2 0x9C2 PUSH2 0xCFA JUMP JUMPDEST PUSH1 0x40 MLOAD PUSH4 0x70A08231 PUSH1 0xE0 SHL DUP2 MSTORE ADDRESS PUSH1 0x4 DUP3 ADD MSTORE PUSH1 0x0 SWAP1 PUSH32 0x0 PUSH1 0x1 PUSH1 0x1 PUSH1 0xA0 SHL SUB AND SWAP1 PUSH4 0x70A08231 SWAP1 PUSH1 0x24 ADD PUSH1 0x20 PUSH1 0x40 MLOAD DUP1 DUP4 SUB DUP2 DUP7 GAS STATICCALL ISZERO DUP1 ISZERO PUSH2 0xA29 JUMPI RETURNDATASIZE PUSH1 0x0 DUP1 RETURNDATACOPY RETURNDATASIZE PUSH1 0x0 REVERT JUMPDEST POP POP POP POP PUSH1 0x40 MLOAD RETURNDATASIZE PUSH1 0x1F NOT PUSH1 0x1F DUP3 ADD AND DUP3 ADD DUP1 PUSH1 0x40 MSTORE POP DUP2 ADD SWAP1 PUSH2 0xA4D SWAP2 SWAP1 PUSH2 0x1484 JUMP JUMPDEST GT PUSH2 0xA9A JUMPI PUSH1 0x40 MLOAD PUSH3 0x461BCD PUSH1 0xE5 SHL DUP2 MSTORE PUSH1 0x20 PUSH1 0x4 DUP3 ADD MSTORE PUSH1 0x1F PUSH1 0x24 DUP3 ADD MSTORE PUSH32 0x436F6E747261637420646F6573206E6F74206861766520616E79206355534400 PUSH1 0x44 DUP3 ADD MSTORE PUSH1 0x64 ADD PUSH2 0x3B7 JUMP JUMPDEST PUSH1 0x40 MLOAD PUSH4 0x70A08231 PUSH1 0xE0 SHL DUP2 MSTORE ADDRESS PUSH1 0x4 DUP3 ADD MSTORE PUSH1 0x0 SWAP1 PUSH32 0x0 PUSH1 0x1 PUSH1 0x1 PUSH1 0xA0 SHL SUB AND SWAP1 PUSH4 0x70A08231 SWAP1 PUSH1 0x24 ADD PUSH1 0x20 PUSH1 0x40 MLOAD DUP1 DUP4 SUB DUP2 DUP7 GAS STATICCALL ISZERO DUP1 ISZERO PUSH2 0xB01 JUMPI RETURNDATASIZE PUSH1 0x0 DUP1 RETURNDATACOPY RETURNDATASIZE PUSH1 0x0 REVERT JUMPDEST POP POP POP POP PUSH1 0x40 MLOAD RETURNDATASIZE PUSH1 0x1F NOT PUSH1 0x1F DUP3 ADD AND DUP3 ADD DUP1 PUSH1 0x40 MSTORE POP DUP2 ADD SWAP1 PUSH2 0xB25 SWAP2 SWAP1 PUSH2 0x1484 JUMP JUMPDEST SWAP1 POP PUSH1 0x0 PUSH32 0x0 PUSH1 0x1 PUSH1 0x1 PUSH1 0xA0 SHL SUB AND PUSH4 0xA9059CBB PUSH2 0xB6A PUSH1 0x0 SLOAD PUSH1 0x1 PUSH1 0x1 PUSH1 0xA0 SHL SUB AND SWAP1 JUMP JUMPDEST PUSH1 0x40 MLOAD PUSH1 0x1 PUSH1 0x1 PUSH1 0xE0 SHL SUB NOT PUSH1 0xE0 DUP5 SWAP1 SHL AND DUP2 MSTORE PUSH1 0x1 PUSH1 0x1 PUSH1 0xA0 SHL SUB SWAP1 SWAP2 AND PUSH1 0x4 DUP3 ADD MSTORE PUSH1 0x24 DUP2 ADD DUP6 SWAP1 MSTORE PUSH1 0x44 ADD PUSH1 0x20 PUSH1 0x40 MLOAD DUP1 DUP4 SUB DUP2 PUSH1 0x0 DUP8 GAS CALL ISZERO DUP1 ISZERO PUSH2 0xBB7 JUMPI RETURNDATASIZE PUSH1 0x0 DUP1 RETURNDATACOPY RETURNDATASIZE PUSH1 0x0 REVERT JUMPDEST POP POP POP POP PUSH1 0x40 MLOAD RETURNDATASIZE PUSH1 0x1F NOT PUSH1 0x1F DUP3 ADD AND DUP3 ADD DUP1 PUSH1 0x40 MSTORE POP DUP2 ADD SWAP1 PUSH2 0xBDB SWAP2 SWAP1 PUSH2 0x149D JUMP JUMPDEST SWAP1 POP DUP1 ISZERO PUSH2 0xC39 JUMPI PUSH32 0x2036B9B38B69A2FA490EE702733A29CD2550ACCC20BC96E786CB9BEEDC779097 PUSH2 0xC16 PUSH1 0x0 SLOAD PUSH1 0x1 PUSH1 0x1 PUSH1 0xA0 SHL SUB AND SWAP1 JUMP JUMPDEST PUSH1 0x40 DUP1 MLOAD PUSH1 0x1 PUSH1 0x1 PUSH1 0xA0 SHL SUB SWAP1 SWAP3 AND DUP3 MSTORE PUSH1 0x20 DUP3 ADD DUP6 SWAP1 MSTORE ADD JUMPDEST PUSH1 0x40 MLOAD DUP1 SWAP2 SUB SWAP1 LOG1 JUMPDEST POP POP JUMP JUMPDEST PUSH2 0xC45 PUSH2 0xC7B JUMP JUMPDEST PUSH1 0x1 PUSH1 0x1 PUSH1 0xA0 SHL SUB DUP2 AND PUSH2 0xC6F JUMPI PUSH1 0x40 MLOAD PUSH4 0x1E4FBDF7 PUSH1 0xE0 SHL DUP2 MSTORE PUSH1 0x0 PUSH1 0x4 DUP3 ADD MSTORE PUSH1 0x24 ADD PUSH2 0x3B7 JUMP JUMPDEST PUSH2 0xC78 DUP2 PUSH2 0xF80 JUMP JUMPDEST POP JUMP JUMPDEST PUSH1 0x0 SLOAD PUSH1 0x1 PUSH1 0x1 PUSH1 0xA0 SHL SUB AND CALLER EQ PUSH2 0x350 JUMPI PUSH1 0x40 MLOAD PUSH4 0x118CDAA7 PUSH1 0xE0 SHL DUP2 MSTORE CALLER PUSH1 0x4 DUP3 ADD MSTORE PUSH1 0x24 ADD PUSH2 0x3B7 JUMP JUMPDEST PUSH2 0xCB0 PUSH2 0x100D JUMP JUMPDEST PUSH1 0x2 DUP1 SLOAD PUSH1 0xFF NOT AND SWAP1 SSTORE PUSH32 0x5DB9EE0A495BF2E6FF9C91A7834C1BA4FDD244A5E8AA4E537BD38AEAE4B073AA CALLER JUMPDEST PUSH1 0x40 MLOAD PUSH1 0x1 PUSH1 0x1 PUSH1 0xA0 SHL SUB SWAP1 SWAP2 AND DUP2 MSTORE PUSH1 0x20 ADD PUSH1 0x40 MLOAD DUP1 SWAP2 SUB SWAP1 LOG1 JUMP JUMPDEST PUSH1 0x2 SLOAD PUSH1 0xFF AND ISZERO PUSH2 0x350 JUMPI PUSH1 0x40 MLOAD PUSH4 0xD93C0665 PUSH1 0xE0 SHL DUP2 MSTORE PUSH1 0x4 ADD PUSH1 0x40 MLOAD DUP1 SWAP2 SUB SWAP1 REVERT JUMPDEST PUSH1 0x2 PUSH1 0x1 SLOAD SUB PUSH2 0xD41 JUMPI PUSH1 0x40 MLOAD PUSH4 0x3EE5AEB5 PUSH1 0xE0 SHL DUP2 MSTORE PUSH1 0x4 ADD PUSH1 0x40 MLOAD DUP1 SWAP2 SUB SWAP1 REVERT JUMPDEST PUSH1 0x2 PUSH1 0x1 SSTORE JUMP JUMPDEST PUSH1 0x0 DUP1 PUSH2 0xD56 DUP7 DUP7 DUP7 PUSH2 0x1030 JUMP JUMPDEST PUSH32 0x19457468657265756D205369676E6564204D6573736167653A0A333200000000 PUSH1 0x0 SWAP1 DUP2 MSTORE PUSH1 0x1C DUP3 SWAP1 MSTORE PUSH1 0x3C DUP2 KECCAK256 SWAP1 SLOAD SWAP2 SWAP3 POP SWAP1 PUSH1 0x1 PUSH1 0x1 PUSH1 0xA0 SHL SUB AND PUSH2 0xD9E DUP3 DUP7 PUSH2 0x106A JUMP JUMPDEST PUSH1 0x1 PUSH1 0x1 PUSH1 0xA0 SHL SUB AND EQ SWAP8 SWAP7 POP POP POP POP POP POP POP JUMP JUMPDEST PUSH1 0x6 SLOAD PUSH1 0x40 MLOAD PUSH4 0xA9059CBB PUSH1 0xE0 SHL DUP2 MSTORE PUSH1 0x1 PUSH1 0x1 PUSH1 0xA0 SHL SUB DUP4 DUP2 AND PUSH1 0x4 DUP4 ADD MSTORE PUSH1 0x24 DUP3 ADD SWAP3 SWAP1 SWAP3 MSTORE PUSH1 0x0 SWAP2 DUP3 SWAP2 PUSH32 0x0 SWAP1 SWAP2 AND SWAP1 PUSH4 0xA9059CBB SWAP1 PUSH1 0x44 ADD PUSH1 0x20 PUSH1 0x40 MLOAD DUP1 DUP4 SUB DUP2 PUSH1 0x0 DUP8 GAS CALL ISZERO DUP1 ISZERO PUSH2 0xE2D JUMPI RETURNDATASIZE PUSH1 0x0 DUP1 RETURNDATACOPY RETURNDATASIZE PUSH1 0x0 REVERT JUMPDEST POP POP POP POP PUSH1 0x40 MLOAD RETURNDATASIZE PUSH1 0x1F NOT PUSH1 0x1F DUP3 ADD AND DUP3 ADD DUP1 PUSH1 0x40 MSTORE POP DUP2 ADD SWAP1 PUSH2 0xE51 SWAP2 SWAP1 PUSH2 0x149D JUMP JUMPDEST SWAP1 POP DUP1 ISZERO PUSH2 0xEA9 JUMPI PUSH1 0x8 DUP1 SLOAD PUSH1 0x1 ADD SWAP1 SSTORE PUSH1 0x6 SLOAD PUSH1 0x40 DUP1 MLOAD PUSH1 0x1 PUSH1 0x1 PUSH1 0xA0 SHL SUB DUP7 AND DUP2 MSTORE PUSH1 0x20 DUP2 ADD SWAP3 SWAP1 SWAP3 MSTORE PUSH32 0x8934D7A9692E763E356FD30D84CA5F61A737B35C5CCD5D31D4F140310267B73E SWAP2 ADD PUSH1 0x40 MLOAD DUP1 SWAP2 SUB SWAP1 LOG1 JUMPDEST SWAP3 SWAP2 POP POP JUMP JUMPDEST PUSH1 0x1 PUSH1 0x5 DUP4 PUSH1 0x40 MLOAD PUSH2 0xEC1 SWAP2 SWAP1 PUSH2 0x1468 JUMP JUMPDEST SWAP1 DUP2 MSTORE PUSH1 0x40 MLOAD SWAP1 DUP2 SWAP1 SUB PUSH1 0x20 ADD DUP2 KECCAK256 DUP1 SLOAD SWAP3 ISZERO ISZERO PUSH1 0xFF NOT SWAP1 SWAP4 AND SWAP3 SWAP1 SWAP3 OR SWAP1 SWAP2 SSTORE PUSH1 0xB DUP1 SLOAD PUSH1 0x1 ADD SWAP1 SSTORE PUSH32 0x97FB84D3F0D20B64A0A8E52541408B0155BA98FEA88E66283156F306D04B08B8 SWAP1 PUSH2 0xC30 SWAP1 DUP5 SWAP1 DUP5 SWAP1 PUSH2 0x14BF JUMP JUMPDEST PUSH1 0x1 PUSH1 0x1 PUSH1 0xA0 SHL SUB DUP2 AND PUSH1 0x0 DUP2 DUP2 MSTORE PUSH1 0x3 PUSH1 0x20 SWAP1 DUP2 MSTORE PUSH1 0x40 SWAP2 DUP3 SWAP1 KECCAK256 DUP1 SLOAD PUSH1 0xFF NOT AND PUSH1 0x1 SWAP1 DUP2 OR SWAP1 SWAP2 SSTORE PUSH1 0x9 DUP1 SLOAD SWAP1 SWAP2 ADD SWAP1 SSTORE SWAP1 MLOAD SWAP2 DUP3 MSTORE PUSH32 0x654C9A027765E6FEB862F42D438E9F6948F9EE31113E379F0372B30EFC722943 SWAP2 ADD PUSH1 0x40 MLOAD DUP1 SWAP2 SUB SWAP1 LOG1 POP JUMP JUMPDEST PUSH1 0x0 DUP1 SLOAD PUSH1 0x1 PUSH1 0x1 PUSH1 0xA0 SHL SUB DUP4 DUP2 AND PUSH1 0x1 PUSH1 0x1 PUSH1 0xA0 SHL SUB NOT DUP4 AND DUP2 OR DUP5 SSTORE PUSH1 0x40 MLOAD SWAP2 SWAP1 SWAP3 AND SWAP3 DUP4 SWAP2 PUSH32 0x8BE0079C531659141344CD1FD0A4F28419497F9722A3DAAFE3B4186F6B6457E0 SWAP2 SWAP1 LOG3 POP POP JUMP JUMPDEST PUSH2 0xFD8 PUSH2 0xCFA JUMP JUMPDEST PUSH1 0x2 DUP1 SLOAD PUSH1 0xFF NOT AND PUSH1 0x1 OR SWAP1 SSTORE PUSH32 0x62E78CEA01BEE320CD4E420270B5EA74000D11B0C9F74754EBDBFC544B05A258 PUSH2 0xCDD CALLER SWAP1 JUMP JUMPDEST PUSH1 0x2 SLOAD PUSH1 0xFF AND PUSH2 0x350 JUMPI PUSH1 0x40 MLOAD PUSH4 0x8DFC202B PUSH1 0xE0 SHL DUP2 MSTORE PUSH1 0x4 ADD PUSH1 0x40 MLOAD DUP1 SWAP2 SUB SWAP1 REVERT JUMPDEST PUSH1 0x0 ADDRESS CHAINID DUP6 DUP6 DUP6 PUSH1 0x40 MLOAD PUSH1 0x20 ADD PUSH2 0x104B SWAP6 SWAP5 SWAP4 SWAP3 SWAP2 SWAP1 PUSH2 0x1503 JUMP JUMPDEST PUSH1 0x40 MLOAD PUSH1 0x20 DUP2 DUP4 SUB SUB DUP2 MSTORE SWAP1 PUSH1 0x40 MSTORE DUP1 MLOAD SWAP1 PUSH1 0x20 ADD KECCAK256 SWAP1 POP SWAP4 SWAP3 POP POP POP JUMP JUMPDEST PUSH1 0x0 DUP1 PUSH1 0x0 DUP1 PUSH2 0x107A DUP7 DUP7 PUSH2 0x1094 JUMP JUMPDEST SWAP3 POP SWAP3 POP SWAP3 POP PUSH2 0x108A DUP3 DUP3 PUSH2 0x10E1 JUMP JUMPDEST POP SWAP1 SWAP5 SWAP4 POP POP POP POP JUMP JUMPDEST PUSH1 0x0 DUP1 PUSH1 0x0 DUP4 MLOAD PUSH1 0x41 SUB PUSH2 0x10CE JUMPI PUSH1 0x20 DUP5 ADD MLOAD PUSH1 0x40 DUP6 ADD MLOAD PUSH1 0x60 DUP7 ADD MLOAD PUSH1 0x0 BYTE PUSH2 0x10C0 DUP9 DUP3 DUP6 DUP6 PUSH2 0x119A JUMP JUMPDEST SWAP6 POP SWAP6 POP SWAP6 POP POP POP POP PUSH2 0x10DA JUMP JUMPDEST POP POP DUP2 MLOAD PUSH1 0x0 SWAP2 POP PUSH1 0x2 SWAP1 JUMPDEST SWAP3 POP SWAP3 POP SWAP3 JUMP JUMPDEST PUSH1 0x0 DUP3 PUSH1 0x3 DUP2 GT ISZERO PUSH2 0x10F5 JUMPI PUSH2 0x10F5 PUSH2 0x1562 JUMP JUMPDEST SUB PUSH2 0x10FE JUMPI POP POP JUMP JUMPDEST PUSH1 0x1 DUP3 PUSH1 0x3 DUP2 GT ISZERO PUSH2 0x1112 JUMPI PUSH2 0x1112 PUSH2 0x1562 JUMP JUMPDEST SUB PUSH2 0x1130 JUMPI PUSH1 0x40 MLOAD PUSH4 0xF645EEDF PUSH1 0xE0 SHL DUP2 MSTORE PUSH1 0x4 ADD PUSH1 0x40 MLOAD DUP1 SWAP2 SUB SWAP1 REVERT JUMPDEST PUSH1 0x2 DUP3 PUSH1 0x3 DUP2 GT ISZERO PUSH2 0x1144 JUMPI PUSH2 0x1144 PUSH2 0x1562 JUMP JUMPDEST SUB PUSH2 0x1165 JUMPI PUSH1 0x40 MLOAD PUSH4 0xFCE698F7 PUSH1 0xE0 SHL DUP2 MSTORE PUSH1 0x4 DUP2 ADD DUP3 SWAP1 MSTORE PUSH1 0x24 ADD PUSH2 0x3B7 JUMP JUMPDEST PUSH1 0x3 DUP3 PUSH1 0x3 DUP2 GT ISZERO PUSH2 0x1179 JUMPI PUSH2 0x1179 PUSH2 0x1562 JUMP JUMPDEST SUB PUSH2 0xC39 JUMPI PUSH1 0x40 MLOAD PUSH4 0x35E2F383 PUSH1 0xE2 SHL DUP2 MSTORE PUSH1 0x4 DUP2 ADD DUP3 SWAP1 MSTORE PUSH1 0x24 ADD PUSH2 0x3B7 JUMP JUMPDEST PUSH1 0x0 DUP1 DUP1 PUSH32 0x7FFFFFFFFFFFFFFFFFFFFFFFFFFFFFFF5D576E7357A4501DDFE92F46681B20A0 DUP5 GT ISZERO PUSH2 0x11D5 JUMPI POP PUSH1 0x0 SWAP2 POP PUSH1 0x3 SWAP1 POP DUP3 PUSH2 0x125F JUMP JUMPDEST PUSH1 0x40 DUP1 MLOAD PUSH1 0x0 DUP1 DUP3 MSTORE PUSH1 0x20 DUP3 ADD DUP1 DUP5 MSTORE DUP11 SWAP1 MSTORE PUSH1 0xFF DUP10 AND SWAP3 DUP3 ADD SWAP3 SWAP1 SWAP3 MSTORE PUSH1 0x60 DUP2 ADD DUP8 SWAP1 MSTORE PUSH1 0x80 DUP2 ADD DUP7 SWAP1 MSTORE PUSH1 0x1 SWAP1 PUSH1 0xA0 ADD PUSH1 0x20 PUSH1 0x40 MLOAD PUSH1 0x20 DUP2 SUB SWAP1 DUP1 DUP5 SUB SWAP1 DUP6 GAS STATICCALL ISZERO DUP1 ISZERO PUSH2 0x1229 JUMPI RETURNDATASIZE PUSH1 0x0 DUP1 RETURNDATACOPY RETURNDATASIZE PUSH1 0x0 REVERT JUMPDEST POP POP PUSH1 0x40 MLOAD PUSH1 0x1F NOT ADD MLOAD SWAP2 POP POP PUSH1 0x1 PUSH1 0x1 PUSH1 0xA0 SHL SUB DUP2 AND PUSH2 0x1255 JUMPI POP PUSH1 0x0 SWAP3 POP PUSH1 0x1 SWAP2 POP DUP3 SWAP1 POP PUSH2 0x125F JUMP JUMPDEST SWAP3 POP PUSH1 0x0 SWAP2 POP DUP2 SWAP1 POP JUMPDEST SWAP5 POP SWAP5 POP SWAP5 SWAP2 POP POP JUMP JUMPDEST PUSH1 0x0 PUSH1 0x20 DUP3 DUP5 SUB SLT ISZERO PUSH2 0x127B JUMPI PUSH1 0x0 DUP1 REVERT JUMPDEST POP CALLDATALOAD SWAP2 SWAP1 POP JUMP JUMPDEST DUP1 CALLDATALOAD PUSH1 0x1 PUSH1 0x1 PUSH1 0xA0 SHL SUB DUP2 AND DUP2 EQ PUSH2 0x1299 JUMPI PUSH1 0x0 DUP1 REVERT JUMPDEST SWAP2 SWAP1 POP JUMP JUMPDEST PUSH4 0x4E487B71 PUSH1 0xE0 SHL PUSH1 0x0 MSTORE PUSH1 0x41 PUSH1 0x4 MSTORE PUSH1 0x24 PUSH1 0x0 REVERT JUMPDEST PUSH1 0x0 DUP1 PUSH8 0xFFFFFFFFFFFFFFFF DUP5 GT ISZERO PUSH2 0x12CF JUMPI PUSH2 0x12CF PUSH2 0x129E JUMP JUMPDEST POP PUSH1 0x40 MLOAD PUSH1 0x1F NOT PUSH1 0x1F DUP6 ADD DUP2 AND PUSH1 0x3F ADD AND DUP2 ADD DUP2 DUP2 LT PUSH8 0xFFFFFFFFFFFFFFFF DUP3 GT OR ISZERO PUSH2 0x12FE JUMPI PUSH2 0x12FE PUSH2 0x129E JUMP JUMPDEST PUSH1 0x40 MSTORE DUP4 DUP2 MSTORE SWAP1 POP DUP1 DUP3 DUP5 ADD DUP6 LT ISZERO PUSH2 0x1316 JUMPI PUSH1 0x0 DUP1 REVERT JUMPDEST DUP4 DUP4 PUSH1 0x20 DUP4 ADD CALLDATACOPY PUSH1 0x0 PUSH1 0x20 DUP6 DUP4 ADD ADD MSTORE POP SWAP4 SWAP3 POP POP POP JUMP JUMPDEST PUSH1 0x0 DUP3 PUSH1 0x1F DUP4 ADD SLT PUSH2 0x133F JUMPI PUSH1 0x0 DUP1 REVERT JUMPDEST PUSH2 0x134E DUP4 DUP4 CALLDATALOAD PUSH1 0x20 DUP6 ADD PUSH2 0x12B4 JUMP JUMPDEST SWAP4 SWAP3 POP POP POP JUMP JUMPDEST PUSH1 0x0 DUP1 PUSH1 0x0 DUP1 PUSH1 0x80 DUP6 DUP8 SUB SLT ISZERO PUSH2 0x136B JUMPI PUSH1 0x0 DUP1 REVERT JUMPDEST PUSH2 0x1374 DUP6 PUSH2 0x1282 JUMP JUMPDEST SWAP4 POP PUSH1 0x20 DUP6 ADD CALLDATALOAD PUSH8 0xFFFFFFFFFFFFFFFF DUP2 GT ISZERO PUSH2 0x1390 JUMPI PUSH1 0x0 DUP1 REVERT JUMPDEST DUP6 ADD PUSH1 0x1F DUP2 ADD DUP8 SGT PUSH2 0x13A1 JUMPI PUSH1 0x0 DUP1 REVERT JUMPDEST PUSH2 0x13B0 DUP8 DUP3 CALLDATALOAD PUSH1 0x20 DUP5 ADD PUSH2 0x12B4 JUMP JUMPDEST SWAP4 POP POP PUSH1 0x40 DUP6 ADD CALLDATALOAD SWAP2 POP PUSH1 0x60 DUP6 ADD CALLDATALOAD PUSH8 0xFFFFFFFFFFFFFFFF DUP2 GT ISZERO PUSH2 0x13D4 JUMPI PUSH1 0x0 DUP1 REVERT JUMPDEST PUSH2 0x13E0 DUP8 DUP3 DUP9 ADD PUSH2 0x132E JUMP JUMPDEST SWAP2 POP POP SWAP3 SWAP6 SWAP2 SWAP5 POP SWAP3 POP JUMP JUMPDEST PUSH1 0x0 PUSH1 0x20 DUP3 DUP5 SUB SLT ISZERO PUSH2 0x13FE JUMPI PUSH1 0x0 DUP1 REVERT JUMPDEST PUSH2 0x134E DUP3 PUSH2 0x1282 JUMP JUMPDEST PUSH1 0x0 PUSH1 0x20 DUP3 DUP5 SUB SLT ISZERO PUSH2 0x1419 JUMPI PUSH1 0x0 DUP1 REVERT JUMPDEST DUP2 CALLDATALOAD PUSH8 0xFFFFFFFFFFFFFFFF DUP2 GT ISZERO PUSH2 0x1430 JUMPI PUSH1 0x0 DUP1 REVERT JUMPDEST PUSH2 0x143C DUP5 DUP3 DUP6 ADD PUSH2 0x132E JUMP JUMPDEST SWAP5 SWAP4 POP POP POP POP JUMP JUMPDEST PUSH1 0x0 JUMPDEST DUP4 DUP2 LT ISZERO PUSH2 0x145F JUMPI DUP2 DUP2 ADD MLOAD DUP4 DUP3 ADD MSTORE PUSH1 0x20 ADD PUSH2 0x1447 JUMP JUMPDEST POP POP PUSH1 0x0 SWAP2 ADD MSTORE JUMP JUMPDEST PUSH1 0x0 DUP3 MLOAD PUSH2 0x147A DUP2 DUP5 PUSH1 0x20 DUP8 ADD PUSH2 0x1444 JUMP JUMPDEST SWAP2 SWAP1 SWAP2 ADD SWAP3 SWAP2 POP POP JUMP JUMPDEST PUSH1 0x0 PUSH1 0x20 DUP3 DUP5 SUB SLT ISZERO PUSH2 0x1496 JUMPI PUSH1 0x0 DUP1 REVERT JUMPDEST POP MLOAD SWAP2 SWAP1 POP JUMP JUMPDEST PUSH1 0x0 PUSH1 0x20 DUP3 DUP5 SUB SLT ISZERO PUSH2 0x14AF JUMPI PUSH1 0x0 DUP1 REVERT JUMPDEST DUP2 MLOAD DUP1 ISZERO ISZERO DUP2 EQ PUSH2 0x134E JUMPI PUSH1 0x0 DUP1 REVERT JUMPDEST PUSH1 0x40 DUP2 MSTORE PUSH1 0x0 DUP4 MLOAD DUP1 PUSH1 0x40 DUP5 ADD MSTORE PUSH2 0x14DE DUP2 PUSH1 0x60 DUP6 ADD PUSH1 0x20 DUP9 ADD PUSH2 0x1444 JUMP JUMPDEST PUSH1 0x1 PUSH1 0x1 PUSH1 0xA0 SHL SUB SWAP4 SWAP1 SWAP4 AND PUSH1 0x20 DUP4 ADD MSTORE POP PUSH1 0x1F SWAP2 SWAP1 SWAP2 ADD PUSH1 0x1F NOT AND ADD PUSH1 0x60 ADD SWAP2 SWAP1 POP JUMP JUMPDEST PUSH12 0xFFFFFFFFFFFFFFFFFFFFFFFF NOT DUP7 PUSH1 0x60 SHL AND DUP2 MSTORE DUP5 PUSH1 0x14 DUP3 ADD MSTORE PUSH12 0xFFFFFFFFFFFFFFFFFFFFFFFF NOT DUP5 PUSH1 0x60 SHL AND PUSH1 0x34 DUP3 ADD MSTORE PUSH1 0x0 DUP4 MLOAD PUSH2 0x154B DUP2 PUSH1 0x48 DUP6 ADD PUSH1 0x20 DUP9 ADD PUSH2 0x1444 JUMP JUMPDEST PUSH1 0x48 SWAP3 ADD SWAP2 DUP3 ADD SWAP3 SWAP1 SWAP3 MSTORE PUSH1 0x68 ADD SWAP6 SWAP5 POP POP POP POP POP JUMP JUMPDEST PUSH4 0x4E487B71 PUSH1 0xE0 SHL PUSH1 0x0 MSTORE PUSH1 0x21 PUSH1 0x4 MSTORE PUSH1 0x24 PUSH1 0x0 REVERT INVALID LOG2 PUSH5 0x6970667358 0x22 SLT KECCAK256 0xC DUP1 0xB4 DIV 0xCE 0xBC 0xBB CREATE2 SWAP6 0x2B 0xBB 0xEB 0xAB 0xC3 PUSH12 0x9A2CE7C2469833966E0B69C7 0xC6 PUSH12 0x35C6F864736F6C634300081C STOP CALLER "
		},
		"gasEstimates": {
			"creation": {
				"codeDepositCost": "1110000",
				"executionCost": "infinite",
				"totalCost": "infinite"
			},
			"external": {
				"cUSD()": "infinite",
				"checkIfContractIsPaused()": "2388",
				"checkIfParticipantIsScreened(address)": "2616",
				"checkIfSignatureIsUsed(bytes)": "infinite",
				"getNumberOfClaimedRewards()": "2360",
				"getNumberOfRewardedParticipants()": "2315",
				"getNumberOfScreenedParticipants()": "2402",
				"getNumberOfUsedSignatures()": "2337",
				"getOwner()": "2409",
				"getRewardAmountPerParticipantInWei()": "2381",
				"getTargetNumberOfParticipants()": "2337",
				"numberOfScreenedParticipants()": "2385",
				"numberOfUsedSignatures()": "2407",
				"owner()": "2431",
				"pauseSurvey()": "infinite",
				"paused()": "2350",
				"processRewardClaimByParticipant(address,string,uint256,bytes)": "infinite",
				"renounceOwnership()": "infinite",
				"rewardAmountPerParticipantInWei()": "2340",
				"screenParticipant(address)": "52265",
				"targetNumberOfParticipants()": "2428",
				"transferOwnership(address)": "28421",
				"unpauseSurvey()": "infinite",
				"updateRewardAmountPerParticipant(uint256)": "28071",
				"updateTargetNumberOfParticipants(uint256)": "28104",
				"withdrawAllRewardFundsToResearcher()": "infinite"
			},
			"internal": {
				"getMessageHash(address,string memory,uint256)": "infinite",
				"markParticipantAsHavingClaimedReward(address)": "infinite",
				"markSignatureAsHavingBeenUsed(bytes memory,address)": "infinite",
				"rewardParticipant(address)": "infinite",
				"verifySignature(address,string memory,uint256,bytes memory)": "infinite"
			}
		},
		"methodIdentifiers": {
			"cUSD()": "1fccf672",
			"checkIfContractIsPaused()": "21512b41",
			"checkIfParticipantIsScreened(address)": "825f98be",
			"checkIfSignatureIsUsed(bytes)": "c5dac913",
			"getNumberOfClaimedRewards()": "627d3eb9",
			"getNumberOfRewardedParticipants()": "741ae614",
			"getNumberOfScreenedParticipants()": "f77a953e",
			"getNumberOfUsedSignatures()": "c3aa9721",
			"getOwner()": "893d20e8",
			"getRewardAmountPerParticipantInWei()": "7069243c",
			"getTargetNumberOfParticipants()": "6fa1c59d",
			"numberOfScreenedParticipants()": "4074be40",
			"numberOfUsedSignatures()": "4fc91ba6",
			"owner()": "8da5cb5b",
			"pauseSurvey()": "e082fe2a",
			"paused()": "5c975abb",
			"processRewardClaimByParticipant(address,string,uint256,bytes)": "6fa55ed9",
			"renounceOwnership()": "715018a6",
			"rewardAmountPerParticipantInWei()": "7a0abf08",
			"screenParticipant(address)": "ea1dd101",
			"targetNumberOfParticipants()": "a6a09811",
			"transferOwnership(address)": "f2fde38b",
			"unpauseSurvey()": "3960fc66",
			"updateRewardAmountPerParticipant(uint256)": "64bb632f",
			"updateTargetNumberOfParticipants(uint256)": "528780cc",
			"withdrawAllRewardFundsToResearcher()": "f22069df"
		}
	},
	"abi": [
		{
			"inputs": [
				{
					"internalType": "address",
					"name": "researcher",
					"type": "address"
				},
				{
					"internalType": "uint256",
					"name": "_rewardAmountPerParticipantInWei",
					"type": "uint256"
				},
				{
					"internalType": "uint256",
					"name": "_targetNumberOfParticipants",
					"type": "uint256"
				},
				{
					"internalType": "address",
					"name": "cUSDToken",
					"type": "address"
				}
			],
			"stateMutability": "nonpayable",
			"type": "constructor"
		},
		{
			"inputs": [],
			"name": "ECDSAInvalidSignature",
			"type": "error"
		},
		{
			"inputs": [
				{
					"internalType": "uint256",
					"name": "length",
					"type": "uint256"
				}
			],
			"name": "ECDSAInvalidSignatureLength",
			"type": "error"
		},
		{
			"inputs": [
				{
					"internalType": "bytes32",
					"name": "s",
					"type": "bytes32"
				}
			],
			"name": "ECDSAInvalidSignatureS",
			"type": "error"
		},
		{
			"inputs": [],
			"name": "EnforcedPause",
			"type": "error"
		},
		{
			"inputs": [],
			"name": "ExpectedPause",
			"type": "error"
		},
		{
			"inputs": [
				{
					"internalType": "address",
					"name": "owner",
					"type": "address"
				}
			],
			"name": "OwnableInvalidOwner",
			"type": "error"
		},
		{
			"inputs": [
				{
					"internalType": "address",
					"name": "account",
					"type": "address"
				}
			],
			"name": "OwnableUnauthorizedAccount",
			"type": "error"
		},
		{
			"inputs": [],
			"name": "ReentrancyGuardReentrantCall",
			"type": "error"
		},
		{
			"anonymous": false,
			"inputs": [
				{
					"indexed": true,
					"internalType": "address",
					"name": "previousOwner",
					"type": "address"
				},
				{
					"indexed": true,
					"internalType": "address",
					"name": "newOwner",
					"type": "address"
				}
			],
			"name": "OwnershipTransferred",
			"type": "event"
		},
		{
			"anonymous": false,
			"inputs": [
				{
					"indexed": false,
					"internalType": "address",
					"name": "participant",
					"type": "address"
				}
			],
			"name": "ParticipantMarkedAsRewarded",
			"type": "event"
		},
		{
			"anonymous": false,
			"inputs": [
				{
					"indexed": false,
					"internalType": "address",
					"name": "participant",
					"type": "address"
				},
				{
					"indexed": false,
					"internalType": "uint256",
					"name": "rewardAmount",
					"type": "uint256"
				}
			],
			"name": "ParticipantRewarded",
			"type": "event"
		},
		{
			"anonymous": false,
			"inputs": [
				{
					"indexed": false,
					"internalType": "address",
					"name": "participant",
					"type": "address"
				}
			],
			"name": "ParticipantScreened",
			"type": "event"
		},
		{
			"anonymous": false,
			"inputs": [
				{
					"indexed": false,
					"internalType": "address",
					"name": "account",
					"type": "address"
				}
			],
			"name": "Paused",
			"type": "event"
		},
		{
			"anonymous": false,
			"inputs": [
				{
					"indexed": false,
					"internalType": "uint256",
					"name": "oldcUSDRewardAmountPerParticipantInWei",
					"type": "uint256"
				},
				{
					"indexed": false,
					"internalType": "uint256",
					"name": "newcUSDRewardAmountPerParticipantInWei",
					"type": "uint256"
				}
			],
			"name": "RewardAmountUpdated",
			"type": "event"
		},
		{
			"anonymous": false,
			"inputs": [
				{
					"indexed": false,
					"internalType": "address",
					"name": "researcher",
					"type": "address"
				},
				{
					"indexed": false,
					"internalType": "uint256",
					"name": "rewardAmount",
					"type": "uint256"
				}
			],
			"name": "RewardFundsWithdrawn",
			"type": "event"
		},
		{
			"anonymous": false,
			"inputs": [
				{
					"indexed": false,
					"internalType": "bytes",
					"name": "signature",
					"type": "bytes"
				},
				{
					"indexed": false,
					"internalType": "address",
					"name": "participant",
					"type": "address"
				}
			],
			"name": "SignatureUsed",
			"type": "event"
		},
		{
			"anonymous": false,
			"inputs": [
				{
					"indexed": false,
					"internalType": "uint256",
					"name": "oldTargetNumberOfParticipants",
					"type": "uint256"
				},
				{
					"indexed": false,
					"internalType": "uint256",
					"name": "newTargetNumberOfParticipants",
					"type": "uint256"
				}
			],
			"name": "TargetNumberOfParticipantsUpdated",
			"type": "event"
		},
		{
			"anonymous": false,
			"inputs": [
				{
					"indexed": false,
					"internalType": "address",
					"name": "account",
					"type": "address"
				}
			],
			"name": "Unpaused",
			"type": "event"
		},
		{
			"inputs": [],
			"name": "cUSD",
			"outputs": [
				{
					"internalType": "contract IERC20Metadata",
					"name": "",
					"type": "address"
				}
			],
			"stateMutability": "view",
			"type": "function"
		},
		{
			"inputs": [],
			"name": "checkIfContractIsPaused",
			"outputs": [
				{
					"internalType": "bool",
					"name": "",
					"type": "bool"
				}
			],
			"stateMutability": "view",
			"type": "function"
		},
		{
			"inputs": [
				{
					"internalType": "address",
					"name": "participant",
					"type": "address"
				}
			],
			"name": "checkIfParticipantIsScreened",
			"outputs": [
				{
					"internalType": "bool",
					"name": "",
					"type": "bool"
				}
			],
			"stateMutability": "view",
			"type": "function"
		},
		{
			"inputs": [
				{
					"internalType": "bytes",
					"name": "signature",
					"type": "bytes"
				}
			],
			"name": "checkIfSignatureIsUsed",
			"outputs": [
				{
					"internalType": "bool",
					"name": "",
					"type": "bool"
				}
			],
			"stateMutability": "view",
			"type": "function"
		},
		{
			"inputs": [],
			"name": "getNumberOfClaimedRewards",
			"outputs": [
				{
					"internalType": "uint256",
					"name": "",
					"type": "uint256"
				}
			],
			"stateMutability": "view",
			"type": "function"
		},
		{
			"inputs": [],
			"name": "getNumberOfRewardedParticipants",
			"outputs": [
				{
					"internalType": "uint256",
					"name": "",
					"type": "uint256"
				}
			],
			"stateMutability": "view",
			"type": "function"
		},
		{
			"inputs": [],
			"name": "getNumberOfScreenedParticipants",
			"outputs": [
				{
					"internalType": "uint256",
					"name": "",
					"type": "uint256"
				}
			],
			"stateMutability": "view",
			"type": "function"
		},
		{
			"inputs": [],
			"name": "getNumberOfUsedSignatures",
			"outputs": [
				{
					"internalType": "uint256",
					"name": "",
					"type": "uint256"
				}
			],
			"stateMutability": "view",
			"type": "function"
		},
		{
			"inputs": [],
			"name": "getOwner",
			"outputs": [
				{
					"internalType": "address",
					"name": "",
					"type": "address"
				}
			],
			"stateMutability": "view",
			"type": "function"
		},
		{
			"inputs": [],
			"name": "getRewardAmountPerParticipantInWei",
			"outputs": [
				{
					"internalType": "uint256",
					"name": "",
					"type": "uint256"
				}
			],
			"stateMutability": "view",
			"type": "function"
		},
		{
			"inputs": [],
			"name": "getTargetNumberOfParticipants",
			"outputs": [
				{
					"internalType": "uint256",
					"name": "",
					"type": "uint256"
				}
			],
			"stateMutability": "view",
			"type": "function"
		},
		{
			"inputs": [],
			"name": "numberOfScreenedParticipants",
			"outputs": [
				{
					"internalType": "uint256",
					"name": "",
					"type": "uint256"
				}
			],
			"stateMutability": "view",
			"type": "function"
		},
		{
			"inputs": [],
			"name": "numberOfUsedSignatures",
			"outputs": [
				{
					"internalType": "uint256",
					"name": "",
					"type": "uint256"
				}
			],
			"stateMutability": "view",
			"type": "function"
		},
		{
			"inputs": [],
			"name": "owner",
			"outputs": [
				{
					"internalType": "address",
					"name": "",
					"type": "address"
				}
			],
			"stateMutability": "view",
			"type": "function"
		},
		{
			"inputs": [],
			"name": "pauseSurvey",
			"outputs": [],
			"stateMutability": "nonpayable",
			"type": "function"
		},
		{
			"inputs": [],
			"name": "paused",
			"outputs": [
				{
					"internalType": "bool",
					"name": "",
					"type": "bool"
				}
			],
			"stateMutability": "view",
			"type": "function"
		},
		{
			"inputs": [
				{
					"internalType": "address",
					"name": "participant",
					"type": "address"
				},
				{
					"internalType": "string",
					"name": "rewardId",
					"type": "string"
				},
				{
					"internalType": "uint256",
					"name": "nonce",
					"type": "uint256"
				},
				{
					"internalType": "bytes",
					"name": "signature",
					"type": "bytes"
				}
			],
			"name": "processRewardClaimByParticipant",
			"outputs": [],
			"stateMutability": "nonpayable",
			"type": "function"
		},
		{
			"inputs": [],
			"name": "renounceOwnership",
			"outputs": [],
			"stateMutability": "nonpayable",
			"type": "function"
		},
		{
			"inputs": [],
			"name": "rewardAmountPerParticipantInWei",
			"outputs": [
				{
					"internalType": "uint256",
					"name": "",
					"type": "uint256"
				}
			],
			"stateMutability": "view",
			"type": "function"
		},
		{
			"inputs": [
				{
					"internalType": "address",
					"name": "participant",
					"type": "address"
				}
			],
			"name": "screenParticipant",
			"outputs": [],
			"stateMutability": "nonpayable",
			"type": "function"
		},
		{
			"inputs": [],
			"name": "targetNumberOfParticipants",
			"outputs": [
				{
					"internalType": "uint256",
					"name": "",
					"type": "uint256"
				}
			],
			"stateMutability": "view",
			"type": "function"
		},
		{
			"inputs": [
				{
					"internalType": "address",
					"name": "newOwner",
					"type": "address"
				}
			],
			"name": "transferOwnership",
			"outputs": [],
			"stateMutability": "nonpayable",
			"type": "function"
		},
		{
			"inputs": [],
			"name": "unpauseSurvey",
			"outputs": [],
			"stateMutability": "nonpayable",
			"type": "function"
		},
		{
			"inputs": [
				{
					"internalType": "uint256",
					"name": "_newRewardAmountPerParticipantInWei",
					"type": "uint256"
				}
			],
			"name": "updateRewardAmountPerParticipant",
			"outputs": [],
			"stateMutability": "nonpayable",
			"type": "function"
		},
		{
			"inputs": [
				{
					"internalType": "uint256",
					"name": "_newTargetNumberOfParticipants",
					"type": "uint256"
				}
			],
			"name": "updateTargetNumberOfParticipants",
			"outputs": [],
			"stateMutability": "nonpayable",
			"type": "function"
		},
		{
			"inputs": [],
			"name": "withdrawAllRewardFundsToResearcher",
			"outputs": [],
			"stateMutability": "nonpayable",
			"type": "function"
		}
	]
}