{
	"data": {
		"bytecode": {
			"linkReferences": {},
			"object": "60a060405234801561001057600080fd5b50604051611bb5380380611bb583398101604081905261002f9161027f565b836001600160a01b03811661005f57604051631e4fbdf760e01b8152600060048201526024015b60405180910390fd5b61006881610213565b50600180556002805460ff191690556001600160a01b0381166100dd5760405162461bcd60e51b815260206004820152602760248201527f5a65726f206164647265737320676976656e20666f722063555344546f6b656e6044820152664164647265737360c81b6064820152608401610056565b6001600160a01b03841661014a5760405162461bcd60e51b815260206004820152602e60248201527f5a65726f206164647265737320676976656e20666f722072657365617263686560448201526d7257616c6c65744164647265737360901b6064820152608401610056565b6000831161019a5760405162461bcd60e51b815260206004820152601560248201527f496e76616c69642072657761726420616d6f756e7400000000000000000000006044820152606401610056565b600082116101f85760405162461bcd60e51b815260206004820152602560248201527f496e76616c6964206e756d626572206f6620746172676574207061727469636960448201526470616e747360d81b6064820152608401610056565b6001600160a01b0316608052600691909155600755506102c6565b600080546001600160a01b038381166001600160a01b0319831681178455604051919092169283917f8be0079c531659141344cd1fd0a4f28419497f9722a3daafe3b4186f6b6457e09190a35050565b80516001600160a01b038116811461027a57600080fd5b919050565b6000806000806080858703121561029557600080fd5b61029e85610263565b60208601516040870151919550935091506102bb60608601610263565b905092959194509250565b6080516118b1610304600039600081816101ea015281816109a1015281816110ce015281816111a60152818161121d01526114ad01526118b16000f3fe608060405234801561001057600080fd5b50600436106101c45760003560e01c80638c0a0966116100f9578063b070291311610097578063e082fe2a11610071578063e082fe2a146103c3578063ea1dd101146103cb578063f22069df146103de578063f2fde38b146103e657600080fd5b8063b070291314610371578063d335993a14610384578063d4bfbd411461039757600080fd5b80639a0474e8116100d35780639a0474e814610322578063a085834314610335578063a0ca86a314610348578063a6a098111461036857600080fd5b80638c0a0966146102d15780638da5cb5b146102fe57806398b484931461030f57600080fd5b806364bb632f116101665780637069243c116101405780637069243c146102b0578063715018a6146102b8578063741ae614146102c05780637a0abf08146102c857600080fd5b806364bb632f146102695780636fa1c59d1461027c5780636ff65c201461028457600080fd5b80633960fc66116101a25780633960fc661461022c5780634074be4014610236578063528780cc1461023f5780635c975abb1461025257600080fd5b8063047bc438146101c95780631fccf672146101e557806328a2355b14610224575b600080fd5b6101d260095481565b6040519081526020015b60405180910390f35b61020c7f000000000000000000000000000000000000000000000000000000000000000081565b6040516001600160a01b0390911681526020016101dc565b6009546101d2565b6102346103f9565b005b6101d2600a5481565b61023461024d36600461162e565b61040b565b60025460ff165b60405190151581526020016101dc565b61023461027736600461162e565b6104c2565b6007546101d2565b610259610292366004611663565b6001600160a01b031660009081526004602052604090205460ff1690565b6006546101d2565b61023461055a565b6008546101d2565b6101d260065481565b6102596102df366004611663565b6001600160a01b031660009081526003602052604090205460ff161590565b6000546001600160a01b031661020c565b61023461031d366004611685565b61056c565b610234610330366004611685565b610773565b610234610343366004611663565b610979565b61035b610356366004611685565b610c1a565b6040516101dc91906116fc565b6101d260075481565b61023461037f366004611663565b610dc7565b610234610392366004611663565b610ebe565b6102596103a5366004611663565b6001600160a01b031660009081526003602052604090205460ff1690565b610234610fa7565b6102346103d9366004611663565b610fb7565b6102346110a6565b6102346103f4366004611663565b611326565b610401611361565b61040961138e565b565b610413611361565b806000036104795760405162461bcd60e51b815260206004820152602860248201527f5a65726f206e756d626572206f6620746172676574207061727469636970616e6044820152673a399033b4bb32b760c11b60648201526084015b60405180910390fd5b6007805490829055604080518281526020810184905283917f2e31e8893a04ce5258044d342d7658948a6ac9710d97e32462ab75f131ae11ef91015b60405180910390a1505050565b6104ca611361565b8060000361051a5760405162461bcd60e51b815260206004820152601860248201527f5a65726f2072657761726420616d6f756e7420676976656e00000000000000006044820152606401610470565b6006805490829055604080518281526020810184905283917ff0d37c3ae852021ac329281f604b658691cbfa6b9e9c22909f06b64a8ce87c9491016104b5565b610562611361565b61040960006113e0565b610574611361565b80806105925760405162461bcd60e51b815260040161047090611748565b60005b818110156106ce5760008484838181106105b1576105b1611775565b90506020020160208101906105c69190611663565b6001600160a01b03160361061c5760405162461bcd60e51b815260206004820152601d60248201527f4f6e652f6d6f7265207a65726f2061646472657373657320676976656e0000006044820152606401610470565b6003600085858481811061063257610632611775565b90506020020160208101906106479190611663565b6001600160a01b0316815260208101919091526040016000205460ff16156106c65760405162461bcd60e51b815260206004820152602c60248201527f4f6e652f6d6f726520676976656e2061646472657373657320616c726561647960448201526b081dda1a5d195b1a5cdd195960a21b6064820152608401610470565b600101610595565b5060005b81811015610741576001600360008686858181106106f2576106f2611775565b90506020020160208101906107079190611663565b6001600160a01b031681526020810191909152604001600020805460ff1916911515919091179055600980546001908101909155016106d2565b507fcd54969ccf4839851c974f9e65e16eb0b2b47ddb55bc4f3b0951aafa2535f55283836040516104b592919061178b565b61077b611361565b80806107995760405162461bcd60e51b815260040161047090611748565b60005b818110156108d45760008484838181106107b8576107b8611775565b90506020020160208101906107cd9190611663565b6001600160a01b0316036108235760405162461bcd60e51b815260206004820152601d60248201527f4f6e652f6d6f7265207a65726f2061646472657373657320676976656e0000006044820152606401610470565b6003600085858481811061083957610839611775565b905060200201602081019061084e9190611663565b6001600160a01b0316815260208101919091526040016000205460ff166108cc5760405162461bcd60e51b815260206004820152602c60248201527f4f6e652f6d6f726520676976656e2061646472657373657320616c726561647960448201526b08189b1858dadb1a5cdd195960a21b6064820152608401610470565b60010161079c565b5060005b81811015610947576000600360008686858181106108f8576108f8611775565b905060200201602081019061090d9190611663565b6001600160a01b031681526020810191909152604001600020805460ff1916911515919091179055600980546000190190556001016108d8565b507fe29acb3292bed043faf01e16b1fcf8c38cf977e334155fa988ded4d254fc342483836040516104b592919061178b565b610981611430565b610989611454565b6006546040516370a0823160e01b81523060048201527f00000000000000000000000000000000000000000000000000000000000000006001600160a01b0316906370a0823190602401602060405180830381865afa1580156109f0573d6000803e3d6000fd5b505050506040513d601f19601f82011682018060405250810190610a1491906117d6565b1015610a6d5760405162461bcd60e51b815260206004820152602260248201527f436f6e747261637420646f6573206e6f74206861766520656e6f75676820635560448201526114d160f21b6064820152608401610470565b60075460085410610acc5760405162461bcd60e51b815260206004820152602360248201527f416c6c207061727469636970616e74732068617665206265656e20726577617260448201526219195960ea1b6064820152608401610470565b80336001600160a01b03821614610b195760405162461bcd60e51b815260206004820152601160248201527027b7363c903b30b634b21039b2b73232b960791b6044820152606401610470565b6001600160a01b038216600090815260036020526040902054829060ff16610b835760405162461bcd60e51b815260206004820152601860248201527f4f6e6c792077686974656c6973746564206164647265737300000000000000006044820152606401610470565b6001600160a01b038316600090815260046020526040902054839060ff1615610bee5760405162461bcd60e51b815260206004820152601c60248201527f5061727469636970616e7420616c7265616479207265776172646564000000006044820152606401610470565b6000610bf98561147e565b90508015610c0a57610c0a8561157a565b50505050610c1760018055565b50565b6060816000819003610c3e5760405162461bcd60e51b815260040161047090611748565b6000805b82811015610cad5760036000878784818110610c6057610c60611775565b9050602002016020810190610c759190611663565b6001600160a01b0316815260208101919091526040016000205460ff1615610ca55781610ca1816117ef565b9250505b600101610c42565b5060008167ffffffffffffffff811115610cc957610cc9611816565b604051908082528060200260200182016040528015610cf2578160200160208202803683370190505b5090506000805b84811015610dbb5760036000898984818110610d1757610d17611775565b9050602002016020810190610d2c9190611663565b6001600160a01b0316815260208101919091526040016000205460ff1615610db357878782818110610d6057610d60611775565b9050602002016020810190610d759190611663565b8383610d80816117ef565b945081518110610d9257610d92611775565b60200260200101906001600160a01b031690816001600160a01b0316815250505b600101610cf9565b50909695505050505050565b610dcf611361565b6001600160a01b038116600090815260036020526040902054819060ff1615610e305760405162461bcd60e51b8152602060048201526013602482015272135d5cdd08189948189b1858dadb1a5cdd1959606a1b6044820152606401610470565b6001600160a01b038216610e565760405162461bcd60e51b81526004016104709061182c565b6001600160a01b038216600081815260036020908152604091829020805460ff1916600190811790915560098054909101905590519182527fc1bf09e09093691bde88793790b0af49ae99cc6c301523675a439aa76a084f1891015b60405180910390a15050565b610ec6611361565b6001600160a01b038116600090815260036020526040902054819060ff16610f265760405162461bcd60e51b8152602060048201526013602482015272135d5cdd081899481dda1a5d195b1a5cdd1959606a1b6044820152606401610470565b6001600160a01b038216610f4c5760405162461bcd60e51b81526004016104709061182c565b6001600160a01b038216600081815260036020908152604091829020805460ff191690556009805460001901905590519182527f4c4c57d58b398c7beead9e49305d0926ea8fd1e7e895959b09968b3384c385de9101610eb2565b610faf611361565b6104096115ce565b610fbf611361565b6001600160a01b038116600090815260036020526040902054819060ff16156110205760405162461bcd60e51b8152602060048201526013602482015272135d5cdd08189948189b1858dadb1a5cdd1959606a1b6044820152606401610470565b6001600160a01b0382166110465760405162461bcd60e51b81526004016104709061182c565b6001600160a01b038216600081815260056020908152604091829020805460ff19166001908117909155600a8054909101905590519182527fc4ec7a2dc5e72d17666a15570e438638bfc023a7a091df162b669c37198bacb29101610eb2565b6110ae611361565b6110b6611430565b6040516370a0823160e01b81523060048201526000907f00000000000000000000000000000000000000000000000000000000000000006001600160a01b0316906370a0823190602401602060405180830381865afa15801561111d573d6000803e3d6000fd5b505050506040513d601f19601f8201168201806040525081019061114191906117d6565b1161118e5760405162461bcd60e51b815260206004820152601f60248201527f436f6e747261637420646f6573206e6f74206861766520616e792063555344006044820152606401610470565b6040516370a0823160e01b81523060048201526000907f00000000000000000000000000000000000000000000000000000000000000006001600160a01b0316906370a0823190602401602060405180830381865afa1580156111f5573d6000803e3d6000fd5b505050506040513d601f19601f8201168201806040525081019061121991906117d6565b90507f00000000000000000000000000000000000000000000000000000000000000006001600160a01b031663a9059cbb61125c6000546001600160a01b031690565b6040516001600160e01b031960e084901b1681526001600160a01b039091166004820152602481018490526044016020604051808303816000875af11580156112a9573d6000803e3d6000fd5b505050506040513d601f19601f820116820180604052508101906112cd9190611859565b507f2036b9b38b69a2fa490ee702733a29cd2550accc20bc96e786cb9beedc7790976113016000546001600160a01b031690565b604080516001600160a01b03909216825260208201849052015b60405180910390a150565b61132e611361565b6001600160a01b03811661135857604051631e4fbdf760e01b815260006004820152602401610470565b610c17816113e0565b6000546001600160a01b031633146104095760405163118cdaa760e01b8152336004820152602401610470565b61139661160b565b6002805460ff191690557f5db9ee0a495bf2e6ff9c91a7834c1ba4fdd244a5e8aa4e537bd38aeae4b073aa335b6040516001600160a01b03909116815260200160405180910390a1565b600080546001600160a01b038381166001600160a01b0319831681178455604051919092169283917f8be0079c531659141344cd1fd0a4f28419497f9722a3daafe3b4186f6b6457e09190a35050565b60025460ff16156104095760405163d93c066560e01b815260040160405180910390fd5b60026001540361147757604051633ee5aeb560e01b815260040160405180910390fd5b6002600155565b60065460405163a9059cbb60e01b81526001600160a01b038381166004830152602482019290925260009182917f00000000000000000000000000000000000000000000000000000000000000009091169063a9059cbb906044016020604051808303816000875af11580156114f8573d6000803e3d6000fd5b505050506040513d601f19601f8201168201806040525081019061151c9190611859565b9050801561157457600880546001019055600654604080516001600160a01b038616815260208101929092527f8934d7a9692e763e356fd30d84ca5f61a737b35c5ccd5d31d4f140310267b73e910160405180910390a15b92915050565b6001600160a01b038116600081815260046020908152604091829020805460ff1916600117905590519182527f654c9a027765e6feb862f42d438e9f6948f9ee31113e379f0372b30efc722943910161131b565b6115d6611430565b6002805460ff191660011790557f62e78cea01bee320cd4e420270b5ea74000d11b0c9f74754ebdbfc544b05a2586113c33390565b60025460ff1661040957604051638dfc202b60e01b815260040160405180910390fd5b60006020828403121561164057600080fd5b5035919050565b80356001600160a01b038116811461165e57600080fd5b919050565b60006020828403121561167557600080fd5b61167e82611647565b9392505050565b6000806020838503121561169857600080fd5b823567ffffffffffffffff8111156116af57600080fd5b8301601f810185136116c057600080fd5b803567ffffffffffffffff8111156116d757600080fd5b8560208260051b84010111156116ec57600080fd5b6020919091019590945092505050565b602080825282518282018190526000918401906040840190835b8181101561173d5783516001600160a01b0316835260209384019390920191600101611716565b509095945050505050565b602080825260139082015272139bc81859191c995cdcd95cc81c185cdcd959606a1b604082015260600190565b634e487b7160e01b600052603260045260246000fd5b6020808252810182905260008360408301825b858110156117cc576001600160a01b036117b784611647565b1682526020928301929091019060010161179e565b5095945050505050565b6000602082840312156117e857600080fd5b5051919050565b60006001820161180f57634e487b7160e01b600052601160045260246000fd5b5060010190565b634e487b7160e01b600052604160045260246000fd5b60208082526013908201527216995c9bc81859191c995cdcc81c185cdcd959606a1b604082015260600190565b60006020828403121561186b57600080fd5b8151801515811461167e57600080fdfea264697066735822122045ff0239a64a80bcc862824d609f9631aaa4baff7169f2b3ef73f60e0800c9ad64736f6c634300081c0033",
			"opcodes": "PUSH1 0xA0 PUSH1 0x40 MSTORE CALLVALUE DUP1 ISZERO PUSH2 0x10 JUMPI PUSH1 0x0 DUP1 REVERT JUMPDEST POP PUSH1 0x40 MLOAD PUSH2 0x1BB5 CODESIZE SUB DUP1 PUSH2 0x1BB5 DUP4 CODECOPY DUP2 ADD PUSH1 0x40 DUP2 SWAP1 MSTORE PUSH2 0x2F SWAP2 PUSH2 0x27F JUMP JUMPDEST DUP4 PUSH1 0x1 PUSH1 0x1 PUSH1 0xA0 SHL SUB DUP2 AND PUSH2 0x5F JUMPI PUSH1 0x40 MLOAD PUSH4 0x1E4FBDF7 PUSH1 0xE0 SHL DUP2 MSTORE PUSH1 0x0 PUSH1 0x4 DUP3 ADD MSTORE PUSH1 0x24 ADD JUMPDEST PUSH1 0x40 MLOAD DUP1 SWAP2 SUB SWAP1 REVERT JUMPDEST PUSH2 0x68 DUP2 PUSH2 0x213 JUMP JUMPDEST POP PUSH1 0x1 DUP1 SSTORE PUSH1 0x2 DUP1 SLOAD PUSH1 0xFF NOT AND SWAP1 SSTORE PUSH1 0x1 PUSH1 0x1 PUSH1 0xA0 SHL SUB DUP2 AND PUSH2 0xDD JUMPI PUSH1 0x40 MLOAD PUSH3 0x461BCD PUSH1 0xE5 SHL DUP2 MSTORE PUSH1 0x20 PUSH1 0x4 DUP3 ADD MSTORE PUSH1 0x27 PUSH1 0x24 DUP3 ADD MSTORE PUSH32 0x5A65726F206164647265737320676976656E20666F722063555344546F6B656E PUSH1 0x44 DUP3 ADD MSTORE PUSH7 0x41646472657373 PUSH1 0xC8 SHL PUSH1 0x64 DUP3 ADD MSTORE PUSH1 0x84 ADD PUSH2 0x56 JUMP JUMPDEST PUSH1 0x1 PUSH1 0x1 PUSH1 0xA0 SHL SUB DUP5 AND PUSH2 0x14A JUMPI PUSH1 0x40 MLOAD PUSH3 0x461BCD PUSH1 0xE5 SHL DUP2 MSTORE PUSH1 0x20 PUSH1 0x4 DUP3 ADD MSTORE PUSH1 0x2E PUSH1 0x24 DUP3 ADD MSTORE PUSH32 0x5A65726F206164647265737320676976656E20666F7220726573656172636865 PUSH1 0x44 DUP3 ADD MSTORE PUSH14 0x7257616C6C657441646472657373 PUSH1 0x90 SHL PUSH1 0x64 DUP3 ADD MSTORE PUSH1 0x84 ADD PUSH2 0x56 JUMP JUMPDEST PUSH1 0x0 DUP4 GT PUSH2 0x19A JUMPI PUSH1 0x40 MLOAD PUSH3 0x461BCD PUSH1 0xE5 SHL DUP2 MSTORE PUSH1 0x20 PUSH1 0x4 DUP3 ADD MSTORE PUSH1 0x15 PUSH1 0x24 DUP3 ADD MSTORE PUSH32 0x496E76616C69642072657761726420616D6F756E740000000000000000000000 PUSH1 0x44 DUP3 ADD MSTORE PUSH1 0x64 ADD PUSH2 0x56 JUMP JUMPDEST PUSH1 0x0 DUP3 GT PUSH2 0x1F8 JUMPI PUSH1 0x40 MLOAD PUSH3 0x461BCD PUSH1 0xE5 SHL DUP2 MSTORE PUSH1 0x20 PUSH1 0x4 DUP3 ADD MSTORE PUSH1 0x25 PUSH1 0x24 DUP3 ADD MSTORE PUSH32 0x496E76616C6964206E756D626572206F66207461726765742070617274696369 PUSH1 0x44 DUP3 ADD MSTORE PUSH5 0x70616E7473 PUSH1 0xD8 SHL PUSH1 0x64 DUP3 ADD MSTORE PUSH1 0x84 ADD PUSH2 0x56 JUMP JUMPDEST PUSH1 0x1 PUSH1 0x1 PUSH1 0xA0 SHL SUB AND PUSH1 0x80 MSTORE PUSH1 0x6 SWAP2 SWAP1 SWAP2 SSTORE PUSH1 0x7 SSTORE POP PUSH2 0x2C6 JUMP JUMPDEST PUSH1 0x0 DUP1 SLOAD PUSH1 0x1 PUSH1 0x1 PUSH1 0xA0 SHL SUB DUP4 DUP2 AND PUSH1 0x1 PUSH1 0x1 PUSH1 0xA0 SHL SUB NOT DUP4 AND DUP2 OR DUP5 SSTORE PUSH1 0x40 MLOAD SWAP2 SWAP1 SWAP3 AND SWAP3 DUP4 SWAP2 PUSH32 0x8BE0079C531659141344CD1FD0A4F28419497F9722A3DAAFE3B4186F6B6457E0 SWAP2 SWAP1 LOG3 POP POP JUMP JUMPDEST DUP1 MLOAD PUSH1 0x1 PUSH1 0x1 PUSH1 0xA0 SHL SUB DUP2 AND DUP2 EQ PUSH2 0x27A JUMPI PUSH1 0x0 DUP1 REVERT JUMPDEST SWAP2 SWAP1 POP JUMP JUMPDEST PUSH1 0x0 DUP1 PUSH1 0x0 DUP1 PUSH1 0x80 DUP6 DUP8 SUB SLT ISZERO PUSH2 0x295 JUMPI PUSH1 0x0 DUP1 REVERT JUMPDEST PUSH2 0x29E DUP6 PUSH2 0x263 JUMP JUMPDEST PUSH1 0x20 DUP7 ADD MLOAD PUSH1 0x40 DUP8 ADD MLOAD SWAP2 SWAP6 POP SWAP4 POP SWAP2 POP PUSH2 0x2BB PUSH1 0x60 DUP7 ADD PUSH2 0x263 JUMP JUMPDEST SWAP1 POP SWAP3 SWAP6 SWAP2 SWAP5 POP SWAP3 POP JUMP JUMPDEST PUSH1 0x80 MLOAD PUSH2 0x18B1 PUSH2 0x304 PUSH1 0x0 CODECOPY PUSH1 0x0 DUP2 DUP2 PUSH2 0x1EA ADD MSTORE DUP2 DUP2 PUSH2 0x9A1 ADD MSTORE DUP2 DUP2 PUSH2 0x10CE ADD MSTORE DUP2 DUP2 PUSH2 0x11A6 ADD MSTORE DUP2 DUP2 PUSH2 0x121D ADD MSTORE PUSH2 0x14AD ADD MSTORE PUSH2 0x18B1 PUSH1 0x0 RETURN INVALID PUSH1 0x80 PUSH1 0x40 MSTORE CALLVALUE DUP1 ISZERO PUSH2 0x10 JUMPI PUSH1 0x0 DUP1 REVERT JUMPDEST POP PUSH1 0x4 CALLDATASIZE LT PUSH2 0x1C4 JUMPI PUSH1 0x0 CALLDATALOAD PUSH1 0xE0 SHR DUP1 PUSH4 0x8C0A0966 GT PUSH2 0xF9 JUMPI DUP1 PUSH4 0xB0702913 GT PUSH2 0x97 JUMPI DUP1 PUSH4 0xE082FE2A GT PUSH2 0x71 JUMPI DUP1 PUSH4 0xE082FE2A EQ PUSH2 0x3C3 JUMPI DUP1 PUSH4 0xEA1DD101 EQ PUSH2 0x3CB JUMPI DUP1 PUSH4 0xF22069DF EQ PUSH2 0x3DE JUMPI DUP1 PUSH4 0xF2FDE38B EQ PUSH2 0x3E6 JUMPI PUSH1 0x0 DUP1 REVERT JUMPDEST DUP1 PUSH4 0xB0702913 EQ PUSH2 0x371 JUMPI DUP1 PUSH4 0xD335993A EQ PUSH2 0x384 JUMPI DUP1 PUSH4 0xD4BFBD41 EQ PUSH2 0x397 JUMPI PUSH1 0x0 DUP1 REVERT JUMPDEST DUP1 PUSH4 0x9A0474E8 GT PUSH2 0xD3 JUMPI DUP1 PUSH4 0x9A0474E8 EQ PUSH2 0x322 JUMPI DUP1 PUSH4 0xA0858343 EQ PUSH2 0x335 JUMPI DUP1 PUSH4 0xA0CA86A3 EQ PUSH2 0x348 JUMPI DUP1 PUSH4 0xA6A09811 EQ PUSH2 0x368 JUMPI PUSH1 0x0 DUP1 REVERT JUMPDEST DUP1 PUSH4 0x8C0A0966 EQ PUSH2 0x2D1 JUMPI DUP1 PUSH4 0x8DA5CB5B EQ PUSH2 0x2FE JUMPI DUP1 PUSH4 0x98B48493 EQ PUSH2 0x30F JUMPI PUSH1 0x0 DUP1 REVERT JUMPDEST DUP1 PUSH4 0x64BB632F GT PUSH2 0x166 JUMPI DUP1 PUSH4 0x7069243C GT PUSH2 0x140 JUMPI DUP1 PUSH4 0x7069243C EQ PUSH2 0x2B0 JUMPI DUP1 PUSH4 0x715018A6 EQ PUSH2 0x2B8 JUMPI DUP1 PUSH4 0x741AE614 EQ PUSH2 0x2C0 JUMPI DUP1 PUSH4 0x7A0ABF08 EQ PUSH2 0x2C8 JUMPI PUSH1 0x0 DUP1 REVERT JUMPDEST DUP1 PUSH4 0x64BB632F EQ PUSH2 0x269 JUMPI DUP1 PUSH4 0x6FA1C59D EQ PUSH2 0x27C JUMPI DUP1 PUSH4 0x6FF65C20 EQ PUSH2 0x284 JUMPI PUSH1 0x0 DUP1 REVERT JUMPDEST DUP1 PUSH4 0x3960FC66 GT PUSH2 0x1A2 JUMPI DUP1 PUSH4 0x3960FC66 EQ PUSH2 0x22C JUMPI DUP1 PUSH4 0x4074BE40 EQ PUSH2 0x236 JUMPI DUP1 PUSH4 0x528780CC EQ PUSH2 0x23F JUMPI DUP1 PUSH4 0x5C975ABB EQ PUSH2 0x252 JUMPI PUSH1 0x0 DUP1 REVERT JUMPDEST DUP1 PUSH4 0x47BC438 EQ PUSH2 0x1C9 JUMPI DUP1 PUSH4 0x1FCCF672 EQ PUSH2 0x1E5 JUMPI DUP1 PUSH4 0x28A2355B EQ PUSH2 0x224 JUMPI JUMPDEST PUSH1 0x0 DUP1 REVERT JUMPDEST PUSH2 0x1D2 PUSH1 0x9 SLOAD DUP2 JUMP JUMPDEST PUSH1 0x40 MLOAD SWAP1 DUP2 MSTORE PUSH1 0x20 ADD JUMPDEST PUSH1 0x40 MLOAD DUP1 SWAP2 SUB SWAP1 RETURN JUMPDEST PUSH2 0x20C PUSH32 0x0 DUP2 JUMP JUMPDEST PUSH1 0x40 MLOAD PUSH1 0x1 PUSH1 0x1 PUSH1 0xA0 SHL SUB SWAP1 SWAP2 AND DUP2 MSTORE PUSH1 0x20 ADD PUSH2 0x1DC JUMP JUMPDEST PUSH1 0x9 SLOAD PUSH2 0x1D2 JUMP JUMPDEST PUSH2 0x234 PUSH2 0x3F9 JUMP JUMPDEST STOP JUMPDEST PUSH2 0x1D2 PUSH1 0xA SLOAD DUP2 JUMP JUMPDEST PUSH2 0x234 PUSH2 0x24D CALLDATASIZE PUSH1 0x4 PUSH2 0x162E JUMP JUMPDEST PUSH2 0x40B JUMP JUMPDEST PUSH1 0x2 SLOAD PUSH1 0xFF AND JUMPDEST PUSH1 0x40 MLOAD SWAP1 ISZERO ISZERO DUP2 MSTORE PUSH1 0x20 ADD PUSH2 0x1DC JUMP JUMPDEST PUSH2 0x234 PUSH2 0x277 CALLDATASIZE PUSH1 0x4 PUSH2 0x162E JUMP JUMPDEST PUSH2 0x4C2 JUMP JUMPDEST PUSH1 0x7 SLOAD PUSH2 0x1D2 JUMP JUMPDEST PUSH2 0x259 PUSH2 0x292 CALLDATASIZE PUSH1 0x4 PUSH2 0x1663 JUMP JUMPDEST PUSH1 0x1 PUSH1 0x1 PUSH1 0xA0 SHL SUB AND PUSH1 0x0 SWAP1 DUP2 MSTORE PUSH1 0x4 PUSH1 0x20 MSTORE PUSH1 0x40 SWAP1 KECCAK256 SLOAD PUSH1 0xFF AND SWAP1 JUMP JUMPDEST PUSH1 0x6 SLOAD PUSH2 0x1D2 JUMP JUMPDEST PUSH2 0x234 PUSH2 0x55A JUMP JUMPDEST PUSH1 0x8 SLOAD PUSH2 0x1D2 JUMP JUMPDEST PUSH2 0x1D2 PUSH1 0x6 SLOAD DUP2 JUMP JUMPDEST PUSH2 0x259 PUSH2 0x2DF CALLDATASIZE PUSH1 0x4 PUSH2 0x1663 JUMP JUMPDEST PUSH1 0x1 PUSH1 0x1 PUSH1 0xA0 SHL SUB AND PUSH1 0x0 SWAP1 DUP2 MSTORE PUSH1 0x3 PUSH1 0x20 MSTORE PUSH1 0x40 SWAP1 KECCAK256 SLOAD PUSH1 0xFF AND ISZERO SWAP1 JUMP JUMPDEST PUSH1 0x0 SLOAD PUSH1 0x1 PUSH1 0x1 PUSH1 0xA0 SHL SUB AND PUSH2 0x20C JUMP JUMPDEST PUSH2 0x234 PUSH2 0x31D CALLDATASIZE PUSH1 0x4 PUSH2 0x1685 JUMP JUMPDEST PUSH2 0x56C JUMP JUMPDEST PUSH2 0x234 PUSH2 0x330 CALLDATASIZE PUSH1 0x4 PUSH2 0x1685 JUMP JUMPDEST PUSH2 0x773 JUMP JUMPDEST PUSH2 0x234 PUSH2 0x343 CALLDATASIZE PUSH1 0x4 PUSH2 0x1663 JUMP JUMPDEST PUSH2 0x979 JUMP JUMPDEST PUSH2 0x35B PUSH2 0x356 CALLDATASIZE PUSH1 0x4 PUSH2 0x1685 JUMP JUMPDEST PUSH2 0xC1A JUMP JUMPDEST PUSH1 0x40 MLOAD PUSH2 0x1DC SWAP2 SWAP1 PUSH2 0x16FC JUMP JUMPDEST PUSH2 0x1D2 PUSH1 0x7 SLOAD DUP2 JUMP JUMPDEST PUSH2 0x234 PUSH2 0x37F CALLDATASIZE PUSH1 0x4 PUSH2 0x1663 JUMP JUMPDEST PUSH2 0xDC7 JUMP JUMPDEST PUSH2 0x234 PUSH2 0x392 CALLDATASIZE PUSH1 0x4 PUSH2 0x1663 JUMP JUMPDEST PUSH2 0xEBE JUMP JUMPDEST PUSH2 0x259 PUSH2 0x3A5 CALLDATASIZE PUSH1 0x4 PUSH2 0x1663 JUMP JUMPDEST PUSH1 0x1 PUSH1 0x1 PUSH1 0xA0 SHL SUB AND PUSH1 0x0 SWAP1 DUP2 MSTORE PUSH1 0x3 PUSH1 0x20 MSTORE PUSH1 0x40 SWAP1 KECCAK256 SLOAD PUSH1 0xFF AND SWAP1 JUMP JUMPDEST PUSH2 0x234 PUSH2 0xFA7 JUMP JUMPDEST PUSH2 0x234 PUSH2 0x3D9 CALLDATASIZE PUSH1 0x4 PUSH2 0x1663 JUMP JUMPDEST PUSH2 0xFB7 JUMP JUMPDEST PUSH2 0x234 PUSH2 0x10A6 JUMP JUMPDEST PUSH2 0x234 PUSH2 0x3F4 CALLDATASIZE PUSH1 0x4 PUSH2 0x1663 JUMP JUMPDEST PUSH2 0x1326 JUMP JUMPDEST PUSH2 0x401 PUSH2 0x1361 JUMP JUMPDEST PUSH2 0x409 PUSH2 0x138E JUMP JUMPDEST JUMP JUMPDEST PUSH2 0x413 PUSH2 0x1361 JUMP JUMPDEST DUP1 PUSH1 0x0 SUB PUSH2 0x479 JUMPI PUSH1 0x40 MLOAD PUSH3 0x461BCD PUSH1 0xE5 SHL DUP2 MSTORE PUSH1 0x20 PUSH1 0x4 DUP3 ADD MSTORE PUSH1 0x28 PUSH1 0x24 DUP3 ADD MSTORE PUSH32 0x5A65726F206E756D626572206F6620746172676574207061727469636970616E PUSH1 0x44 DUP3 ADD MSTORE PUSH8 0x3A399033B4BB32B7 PUSH1 0xC1 SHL PUSH1 0x64 DUP3 ADD MSTORE PUSH1 0x84 ADD JUMPDEST PUSH1 0x40 MLOAD DUP1 SWAP2 SUB SWAP1 REVERT JUMPDEST PUSH1 0x7 DUP1 SLOAD SWAP1 DUP3 SWAP1 SSTORE PUSH1 0x40 DUP1 MLOAD DUP3 DUP2 MSTORE PUSH1 0x20 DUP2 ADD DUP5 SWAP1 MSTORE DUP4 SWAP2 PUSH32 0x2E31E8893A04CE5258044D342D7658948A6AC9710D97E32462AB75F131AE11EF SWAP2 ADD JUMPDEST PUSH1 0x40 MLOAD DUP1 SWAP2 SUB SWAP1 LOG1 POP POP POP JUMP JUMPDEST PUSH2 0x4CA PUSH2 0x1361 JUMP JUMPDEST DUP1 PUSH1 0x0 SUB PUSH2 0x51A JUMPI PUSH1 0x40 MLOAD PUSH3 0x461BCD PUSH1 0xE5 SHL DUP2 MSTORE PUSH1 0x20 PUSH1 0x4 DUP3 ADD MSTORE PUSH1 0x18 PUSH1 0x24 DUP3 ADD MSTORE PUSH32 0x5A65726F2072657761726420616D6F756E7420676976656E0000000000000000 PUSH1 0x44 DUP3 ADD MSTORE PUSH1 0x64 ADD PUSH2 0x470 JUMP JUMPDEST PUSH1 0x6 DUP1 SLOAD SWAP1 DUP3 SWAP1 SSTORE PUSH1 0x40 DUP1 MLOAD DUP3 DUP2 MSTORE PUSH1 0x20 DUP2 ADD DUP5 SWAP1 MSTORE DUP4 SWAP2 PUSH32 0xF0D37C3AE852021AC329281F604B658691CBFA6B9E9C22909F06B64A8CE87C94 SWAP2 ADD PUSH2 0x4B5 JUMP JUMPDEST PUSH2 0x562 PUSH2 0x1361 JUMP JUMPDEST PUSH2 0x409 PUSH1 0x0 PUSH2 0x13E0 JUMP JUMPDEST PUSH2 0x574 PUSH2 0x1361 JUMP JUMPDEST DUP1 DUP1 PUSH2 0x592 JUMPI PUSH1 0x40 MLOAD PUSH3 0x461BCD PUSH1 0xE5 SHL DUP2 MSTORE PUSH1 0x4 ADD PUSH2 0x470 SWAP1 PUSH2 0x1748 JUMP JUMPDEST PUSH1 0x0 JUMPDEST DUP2 DUP2 LT ISZERO PUSH2 0x6CE JUMPI PUSH1 0x0 DUP5 DUP5 DUP4 DUP2 DUP2 LT PUSH2 0x5B1 JUMPI PUSH2 0x5B1 PUSH2 0x1775 JUMP JUMPDEST SWAP1 POP PUSH1 0x20 MUL ADD PUSH1 0x20 DUP2 ADD SWAP1 PUSH2 0x5C6 SWAP2 SWAP1 PUSH2 0x1663 JUMP JUMPDEST PUSH1 0x1 PUSH1 0x1 PUSH1 0xA0 SHL SUB AND SUB PUSH2 0x61C JUMPI PUSH1 0x40 MLOAD PUSH3 0x461BCD PUSH1 0xE5 SHL DUP2 MSTORE PUSH1 0x20 PUSH1 0x4 DUP3 ADD MSTORE PUSH1 0x1D PUSH1 0x24 DUP3 ADD MSTORE PUSH32 0x4F6E652F6D6F7265207A65726F2061646472657373657320676976656E000000 PUSH1 0x44 DUP3 ADD MSTORE PUSH1 0x64 ADD PUSH2 0x470 JUMP JUMPDEST PUSH1 0x3 PUSH1 0x0 DUP6 DUP6 DUP5 DUP2 DUP2 LT PUSH2 0x632 JUMPI PUSH2 0x632 PUSH2 0x1775 JUMP JUMPDEST SWAP1 POP PUSH1 0x20 MUL ADD PUSH1 0x20 DUP2 ADD SWAP1 PUSH2 0x647 SWAP2 SWAP1 PUSH2 0x1663 JUMP JUMPDEST PUSH1 0x1 PUSH1 0x1 PUSH1 0xA0 SHL SUB AND DUP2 MSTORE PUSH1 0x20 DUP2 ADD SWAP2 SWAP1 SWAP2 MSTORE PUSH1 0x40 ADD PUSH1 0x0 KECCAK256 SLOAD PUSH1 0xFF AND ISZERO PUSH2 0x6C6 JUMPI PUSH1 0x40 MLOAD PUSH3 0x461BCD PUSH1 0xE5 SHL DUP2 MSTORE PUSH1 0x20 PUSH1 0x4 DUP3 ADD MSTORE PUSH1 0x2C PUSH1 0x24 DUP3 ADD MSTORE PUSH32 0x4F6E652F6D6F726520676976656E2061646472657373657320616C7265616479 PUSH1 0x44 DUP3 ADD MSTORE PUSH12 0x81DDA1A5D195B1A5CDD1959 PUSH1 0xA2 SHL PUSH1 0x64 DUP3 ADD MSTORE PUSH1 0x84 ADD PUSH2 0x470 JUMP JUMPDEST PUSH1 0x1 ADD PUSH2 0x595 JUMP JUMPDEST POP PUSH1 0x0 JUMPDEST DUP2 DUP2 LT ISZERO PUSH2 0x741 JUMPI PUSH1 0x1 PUSH1 0x3 PUSH1 0x0 DUP7 DUP7 DUP6 DUP2 DUP2 LT PUSH2 0x6F2 JUMPI PUSH2 0x6F2 PUSH2 0x1775 JUMP JUMPDEST SWAP1 POP PUSH1 0x20 MUL ADD PUSH1 0x20 DUP2 ADD SWAP1 PUSH2 0x707 SWAP2 SWAP1 PUSH2 0x1663 JUMP JUMPDEST PUSH1 0x1 PUSH1 0x1 PUSH1 0xA0 SHL SUB AND DUP2 MSTORE PUSH1 0x20 DUP2 ADD SWAP2 SWAP1 SWAP2 MSTORE PUSH1 0x40 ADD PUSH1 0x0 KECCAK256 DUP1 SLOAD PUSH1 0xFF NOT AND SWAP2 ISZERO ISZERO SWAP2 SWAP1 SWAP2 OR SWAP1 SSTORE PUSH1 0x9 DUP1 SLOAD PUSH1 0x1 SWAP1 DUP2 ADD SWAP1 SWAP2 SSTORE ADD PUSH2 0x6D2 JUMP JUMPDEST POP PUSH32 0xCD54969CCF4839851C974F9E65E16EB0B2B47DDB55BC4F3B0951AAFA2535F552 DUP4 DUP4 PUSH1 0x40 MLOAD PUSH2 0x4B5 SWAP3 SWAP2 SWAP1 PUSH2 0x178B JUMP JUMPDEST PUSH2 0x77B PUSH2 0x1361 JUMP JUMPDEST DUP1 DUP1 PUSH2 0x799 JUMPI PUSH1 0x40 MLOAD PUSH3 0x461BCD PUSH1 0xE5 SHL DUP2 MSTORE PUSH1 0x4 ADD PUSH2 0x470 SWAP1 PUSH2 0x1748 JUMP JUMPDEST PUSH1 0x0 JUMPDEST DUP2 DUP2 LT ISZERO PUSH2 0x8D4 JUMPI PUSH1 0x0 DUP5 DUP5 DUP4 DUP2 DUP2 LT PUSH2 0x7B8 JUMPI PUSH2 0x7B8 PUSH2 0x1775 JUMP JUMPDEST SWAP1 POP PUSH1 0x20 MUL ADD PUSH1 0x20 DUP2 ADD SWAP1 PUSH2 0x7CD SWAP2 SWAP1 PUSH2 0x1663 JUMP JUMPDEST PUSH1 0x1 PUSH1 0x1 PUSH1 0xA0 SHL SUB AND SUB PUSH2 0x823 JUMPI PUSH1 0x40 MLOAD PUSH3 0x461BCD PUSH1 0xE5 SHL DUP2 MSTORE PUSH1 0x20 PUSH1 0x4 DUP3 ADD MSTORE PUSH1 0x1D PUSH1 0x24 DUP3 ADD MSTORE PUSH32 0x4F6E652F6D6F7265207A65726F2061646472657373657320676976656E000000 PUSH1 0x44 DUP3 ADD MSTORE PUSH1 0x64 ADD PUSH2 0x470 JUMP JUMPDEST PUSH1 0x3 PUSH1 0x0 DUP6 DUP6 DUP5 DUP2 DUP2 LT PUSH2 0x839 JUMPI PUSH2 0x839 PUSH2 0x1775 JUMP JUMPDEST SWAP1 POP PUSH1 0x20 MUL ADD PUSH1 0x20 DUP2 ADD SWAP1 PUSH2 0x84E SWAP2 SWAP1 PUSH2 0x1663 JUMP JUMPDEST PUSH1 0x1 PUSH1 0x1 PUSH1 0xA0 SHL SUB AND DUP2 MSTORE PUSH1 0x20 DUP2 ADD SWAP2 SWAP1 SWAP2 MSTORE PUSH1 0x40 ADD PUSH1 0x0 KECCAK256 SLOAD PUSH1 0xFF AND PUSH2 0x8CC JUMPI PUSH1 0x40 MLOAD PUSH3 0x461BCD PUSH1 0xE5 SHL DUP2 MSTORE PUSH1 0x20 PUSH1 0x4 DUP3 ADD MSTORE PUSH1 0x2C PUSH1 0x24 DUP3 ADD MSTORE PUSH32 0x4F6E652F6D6F726520676976656E2061646472657373657320616C7265616479 PUSH1 0x44 DUP3 ADD MSTORE PUSH12 0x8189B1858DADB1A5CDD1959 PUSH1 0xA2 SHL PUSH1 0x64 DUP3 ADD MSTORE PUSH1 0x84 ADD PUSH2 0x470 JUMP JUMPDEST PUSH1 0x1 ADD PUSH2 0x79C JUMP JUMPDEST POP PUSH1 0x0 JUMPDEST DUP2 DUP2 LT ISZERO PUSH2 0x947 JUMPI PUSH1 0x0 PUSH1 0x3 PUSH1 0x0 DUP7 DUP7 DUP6 DUP2 DUP2 LT PUSH2 0x8F8 JUMPI PUSH2 0x8F8 PUSH2 0x1775 JUMP JUMPDEST SWAP1 POP PUSH1 0x20 MUL ADD PUSH1 0x20 DUP2 ADD SWAP1 PUSH2 0x90D SWAP2 SWAP1 PUSH2 0x1663 JUMP JUMPDEST PUSH1 0x1 PUSH1 0x1 PUSH1 0xA0 SHL SUB AND DUP2 MSTORE PUSH1 0x20 DUP2 ADD SWAP2 SWAP1 SWAP2 MSTORE PUSH1 0x40 ADD PUSH1 0x0 KECCAK256 DUP1 SLOAD PUSH1 0xFF NOT AND SWAP2 ISZERO ISZERO SWAP2 SWAP1 SWAP2 OR SWAP1 SSTORE PUSH1 0x9 DUP1 SLOAD PUSH1 0x0 NOT ADD SWAP1 SSTORE PUSH1 0x1 ADD PUSH2 0x8D8 JUMP JUMPDEST POP PUSH32 0xE29ACB3292BED043FAF01E16B1FCF8C38CF977E334155FA988DED4D254FC3424 DUP4 DUP4 PUSH1 0x40 MLOAD PUSH2 0x4B5 SWAP3 SWAP2 SWAP1 PUSH2 0x178B JUMP JUMPDEST PUSH2 0x981 PUSH2 0x1430 JUMP JUMPDEST PUSH2 0x989 PUSH2 0x1454 JUMP JUMPDEST PUSH1 0x6 SLOAD PUSH1 0x40 MLOAD PUSH4 0x70A08231 PUSH1 0xE0 SHL DUP2 MSTORE ADDRESS PUSH1 0x4 DUP3 ADD MSTORE PUSH32 0x0 PUSH1 0x1 PUSH1 0x1 PUSH1 0xA0 SHL SUB AND SWAP1 PUSH4 0x70A08231 SWAP1 PUSH1 0x24 ADD PUSH1 0x20 PUSH1 0x40 MLOAD DUP1 DUP4 SUB DUP2 DUP7 GAS STATICCALL ISZERO DUP1 ISZERO PUSH2 0x9F0 JUMPI RETURNDATASIZE PUSH1 0x0 DUP1 RETURNDATACOPY RETURNDATASIZE PUSH1 0x0 REVERT JUMPDEST POP POP POP POP PUSH1 0x40 MLOAD RETURNDATASIZE PUSH1 0x1F NOT PUSH1 0x1F DUP3 ADD AND DUP3 ADD DUP1 PUSH1 0x40 MSTORE POP DUP2 ADD SWAP1 PUSH2 0xA14 SWAP2 SWAP1 PUSH2 0x17D6 JUMP JUMPDEST LT ISZERO PUSH2 0xA6D JUMPI PUSH1 0x40 MLOAD PUSH3 0x461BCD PUSH1 0xE5 SHL DUP2 MSTORE PUSH1 0x20 PUSH1 0x4 DUP3 ADD MSTORE PUSH1 0x22 PUSH1 0x24 DUP3 ADD MSTORE PUSH32 0x436F6E747261637420646F6573206E6F74206861766520656E6F756768206355 PUSH1 0x44 DUP3 ADD MSTORE PUSH2 0x14D1 PUSH1 0xF2 SHL PUSH1 0x64 DUP3 ADD MSTORE PUSH1 0x84 ADD PUSH2 0x470 JUMP JUMPDEST PUSH1 0x7 SLOAD PUSH1 0x8 SLOAD LT PUSH2 0xACC JUMPI PUSH1 0x40 MLOAD PUSH3 0x461BCD PUSH1 0xE5 SHL DUP2 MSTORE PUSH1 0x20 PUSH1 0x4 DUP3 ADD MSTORE PUSH1 0x23 PUSH1 0x24 DUP3 ADD MSTORE PUSH32 0x416C6C207061727469636970616E74732068617665206265656E207265776172 PUSH1 0x44 DUP3 ADD MSTORE PUSH3 0x191959 PUSH1 0xEA SHL PUSH1 0x64 DUP3 ADD MSTORE PUSH1 0x84 ADD PUSH2 0x470 JUMP JUMPDEST DUP1 CALLER PUSH1 0x1 PUSH1 0x1 PUSH1 0xA0 SHL SUB DUP3 AND EQ PUSH2 0xB19 JUMPI PUSH1 0x40 MLOAD PUSH3 0x461BCD PUSH1 0xE5 SHL DUP2 MSTORE PUSH1 0x20 PUSH1 0x4 DUP3 ADD MSTORE PUSH1 0x11 PUSH1 0x24 DUP3 ADD MSTORE PUSH17 0x27B7363C903B30B634B21039B2B73232B9 PUSH1 0x79 SHL PUSH1 0x44 DUP3 ADD MSTORE PUSH1 0x64 ADD PUSH2 0x470 JUMP JUMPDEST PUSH1 0x1 PUSH1 0x1 PUSH1 0xA0 SHL SUB DUP3 AND PUSH1 0x0 SWAP1 DUP2 MSTORE PUSH1 0x3 PUSH1 0x20 MSTORE PUSH1 0x40 SWAP1 KECCAK256 SLOAD DUP3 SWAP1 PUSH1 0xFF AND PUSH2 0xB83 JUMPI PUSH1 0x40 MLOAD PUSH3 0x461BCD PUSH1 0xE5 SHL DUP2 MSTORE PUSH1 0x20 PUSH1 0x4 DUP3 ADD MSTORE PUSH1 0x18 PUSH1 0x24 DUP3 ADD MSTORE PUSH32 0x4F6E6C792077686974656C697374656420616464726573730000000000000000 PUSH1 0x44 DUP3 ADD MSTORE PUSH1 0x64 ADD PUSH2 0x470 JUMP JUMPDEST PUSH1 0x1 PUSH1 0x1 PUSH1 0xA0 SHL SUB DUP4 AND PUSH1 0x0 SWAP1 DUP2 MSTORE PUSH1 0x4 PUSH1 0x20 MSTORE PUSH1 0x40 SWAP1 KECCAK256 SLOAD DUP4 SWAP1 PUSH1 0xFF AND ISZERO PUSH2 0xBEE JUMPI PUSH1 0x40 MLOAD PUSH3 0x461BCD PUSH1 0xE5 SHL DUP2 MSTORE PUSH1 0x20 PUSH1 0x4 DUP3 ADD MSTORE PUSH1 0x1C PUSH1 0x24 DUP3 ADD MSTORE PUSH32 0x5061727469636970616E7420616C726561647920726577617264656400000000 PUSH1 0x44 DUP3 ADD MSTORE PUSH1 0x64 ADD PUSH2 0x470 JUMP JUMPDEST PUSH1 0x0 PUSH2 0xBF9 DUP6 PUSH2 0x147E JUMP JUMPDEST SWAP1 POP DUP1 ISZERO PUSH2 0xC0A JUMPI PUSH2 0xC0A DUP6 PUSH2 0x157A JUMP JUMPDEST POP POP POP POP PUSH2 0xC17 PUSH1 0x1 DUP1 SSTORE JUMP JUMPDEST POP JUMP JUMPDEST PUSH1 0x60 DUP2 PUSH1 0x0 DUP2 SWAP1 SUB PUSH2 0xC3E JUMPI PUSH1 0x40 MLOAD PUSH3 0x461BCD PUSH1 0xE5 SHL DUP2 MSTORE PUSH1 0x4 ADD PUSH2 0x470 SWAP1 PUSH2 0x1748 JUMP JUMPDEST PUSH1 0x0 DUP1 JUMPDEST DUP3 DUP2 LT ISZERO PUSH2 0xCAD JUMPI PUSH1 0x3 PUSH1 0x0 DUP8 DUP8 DUP5 DUP2 DUP2 LT PUSH2 0xC60 JUMPI PUSH2 0xC60 PUSH2 0x1775 JUMP JUMPDEST SWAP1 POP PUSH1 0x20 MUL ADD PUSH1 0x20 DUP2 ADD SWAP1 PUSH2 0xC75 SWAP2 SWAP1 PUSH2 0x1663 JUMP JUMPDEST PUSH1 0x1 PUSH1 0x1 PUSH1 0xA0 SHL SUB AND DUP2 MSTORE PUSH1 0x20 DUP2 ADD SWAP2 SWAP1 SWAP2 MSTORE PUSH1 0x40 ADD PUSH1 0x0 KECCAK256 SLOAD PUSH1 0xFF AND ISZERO PUSH2 0xCA5 JUMPI DUP2 PUSH2 0xCA1 DUP2 PUSH2 0x17EF JUMP JUMPDEST SWAP3 POP POP JUMPDEST PUSH1 0x1 ADD PUSH2 0xC42 JUMP JUMPDEST POP PUSH1 0x0 DUP2 PUSH8 0xFFFFFFFFFFFFFFFF DUP2 GT ISZERO PUSH2 0xCC9 JUMPI PUSH2 0xCC9 PUSH2 0x1816 JUMP JUMPDEST PUSH1 0x40 MLOAD SWAP1 DUP1 DUP3 MSTORE DUP1 PUSH1 0x20 MUL PUSH1 0x20 ADD DUP3 ADD PUSH1 0x40 MSTORE DUP1 ISZERO PUSH2 0xCF2 JUMPI DUP2 PUSH1 0x20 ADD PUSH1 0x20 DUP3 MUL DUP1 CALLDATASIZE DUP4 CALLDATACOPY ADD SWAP1 POP JUMPDEST POP SWAP1 POP PUSH1 0x0 DUP1 JUMPDEST DUP5 DUP2 LT ISZERO PUSH2 0xDBB JUMPI PUSH1 0x3 PUSH1 0x0 DUP10 DUP10 DUP5 DUP2 DUP2 LT PUSH2 0xD17 JUMPI PUSH2 0xD17 PUSH2 0x1775 JUMP JUMPDEST SWAP1 POP PUSH1 0x20 MUL ADD PUSH1 0x20 DUP2 ADD SWAP1 PUSH2 0xD2C SWAP2 SWAP1 PUSH2 0x1663 JUMP JUMPDEST PUSH1 0x1 PUSH1 0x1 PUSH1 0xA0 SHL SUB AND DUP2 MSTORE PUSH1 0x20 DUP2 ADD SWAP2 SWAP1 SWAP2 MSTORE PUSH1 0x40 ADD PUSH1 0x0 KECCAK256 SLOAD PUSH1 0xFF AND ISZERO PUSH2 0xDB3 JUMPI DUP8 DUP8 DUP3 DUP2 DUP2 LT PUSH2 0xD60 JUMPI PUSH2 0xD60 PUSH2 0x1775 JUMP JUMPDEST SWAP1 POP PUSH1 0x20 MUL ADD PUSH1 0x20 DUP2 ADD SWAP1 PUSH2 0xD75 SWAP2 SWAP1 PUSH2 0x1663 JUMP JUMPDEST DUP4 DUP4 PUSH2 0xD80 DUP2 PUSH2 0x17EF JUMP JUMPDEST SWAP5 POP DUP2 MLOAD DUP2 LT PUSH2 0xD92 JUMPI PUSH2 0xD92 PUSH2 0x1775 JUMP JUMPDEST PUSH1 0x20 MUL PUSH1 0x20 ADD ADD SWAP1 PUSH1 0x1 PUSH1 0x1 PUSH1 0xA0 SHL SUB AND SWAP1 DUP2 PUSH1 0x1 PUSH1 0x1 PUSH1 0xA0 SHL SUB AND DUP2 MSTORE POP POP JUMPDEST PUSH1 0x1 ADD PUSH2 0xCF9 JUMP JUMPDEST POP SWAP1 SWAP7 SWAP6 POP POP POP POP POP POP JUMP JUMPDEST PUSH2 0xDCF PUSH2 0x1361 JUMP JUMPDEST PUSH1 0x1 PUSH1 0x1 PUSH1 0xA0 SHL SUB DUP2 AND PUSH1 0x0 SWAP1 DUP2 MSTORE PUSH1 0x3 PUSH1 0x20 MSTORE PUSH1 0x40 SWAP1 KECCAK256 SLOAD DUP2 SWAP1 PUSH1 0xFF AND ISZERO PUSH2 0xE30 JUMPI PUSH1 0x40 MLOAD PUSH3 0x461BCD PUSH1 0xE5 SHL DUP2 MSTORE PUSH1 0x20 PUSH1 0x4 DUP3 ADD MSTORE PUSH1 0x13 PUSH1 0x24 DUP3 ADD MSTORE PUSH19 0x135D5CDD08189948189B1858DADB1A5CDD1959 PUSH1 0x6A SHL PUSH1 0x44 DUP3 ADD MSTORE PUSH1 0x64 ADD PUSH2 0x470 JUMP JUMPDEST PUSH1 0x1 PUSH1 0x1 PUSH1 0xA0 SHL SUB DUP3 AND PUSH2 0xE56 JUMPI PUSH1 0x40 MLOAD PUSH3 0x461BCD PUSH1 0xE5 SHL DUP2 MSTORE PUSH1 0x4 ADD PUSH2 0x470 SWAP1 PUSH2 0x182C JUMP JUMPDEST PUSH1 0x1 PUSH1 0x1 PUSH1 0xA0 SHL SUB DUP3 AND PUSH1 0x0 DUP2 DUP2 MSTORE PUSH1 0x3 PUSH1 0x20 SWAP1 DUP2 MSTORE PUSH1 0x40 SWAP2 DUP3 SWAP1 KECCAK256 DUP1 SLOAD PUSH1 0xFF NOT AND PUSH1 0x1 SWAP1 DUP2 OR SWAP1 SWAP2 SSTORE PUSH1 0x9 DUP1 SLOAD SWAP1 SWAP2 ADD SWAP1 SSTORE SWAP1 MLOAD SWAP2 DUP3 MSTORE PUSH32 0xC1BF09E09093691BDE88793790B0AF49AE99CC6C301523675A439AA76A084F18 SWAP2 ADD JUMPDEST PUSH1 0x40 MLOAD DUP1 SWAP2 SUB SWAP1 LOG1 POP POP JUMP JUMPDEST PUSH2 0xEC6 PUSH2 0x1361 JUMP JUMPDEST PUSH1 0x1 PUSH1 0x1 PUSH1 0xA0 SHL SUB DUP2 AND PUSH1 0x0 SWAP1 DUP2 MSTORE PUSH1 0x3 PUSH1 0x20 MSTORE PUSH1 0x40 SWAP1 KECCAK256 SLOAD DUP2 SWAP1 PUSH1 0xFF AND PUSH2 0xF26 JUMPI PUSH1 0x40 MLOAD PUSH3 0x461BCD PUSH1 0xE5 SHL DUP2 MSTORE PUSH1 0x20 PUSH1 0x4 DUP3 ADD MSTORE PUSH1 0x13 PUSH1 0x24 DUP3 ADD MSTORE PUSH19 0x135D5CDD081899481DDA1A5D195B1A5CDD1959 PUSH1 0x6A SHL PUSH1 0x44 DUP3 ADD MSTORE PUSH1 0x64 ADD PUSH2 0x470 JUMP JUMPDEST PUSH1 0x1 PUSH1 0x1 PUSH1 0xA0 SHL SUB DUP3 AND PUSH2 0xF4C JUMPI PUSH1 0x40 MLOAD PUSH3 0x461BCD PUSH1 0xE5 SHL DUP2 MSTORE PUSH1 0x4 ADD PUSH2 0x470 SWAP1 PUSH2 0x182C JUMP JUMPDEST PUSH1 0x1 PUSH1 0x1 PUSH1 0xA0 SHL SUB DUP3 AND PUSH1 0x0 DUP2 DUP2 MSTORE PUSH1 0x3 PUSH1 0x20 SWAP1 DUP2 MSTORE PUSH1 0x40 SWAP2 DUP3 SWAP1 KECCAK256 DUP1 SLOAD PUSH1 0xFF NOT AND SWAP1 SSTORE PUSH1 0x9 DUP1 SLOAD PUSH1 0x0 NOT ADD SWAP1 SSTORE SWAP1 MLOAD SWAP2 DUP3 MSTORE PUSH32 0x4C4C57D58B398C7BEEAD9E49305D0926EA8FD1E7E895959B09968B3384C385DE SWAP2 ADD PUSH2 0xEB2 JUMP JUMPDEST PUSH2 0xFAF PUSH2 0x1361 JUMP JUMPDEST PUSH2 0x409 PUSH2 0x15CE JUMP JUMPDEST PUSH2 0xFBF PUSH2 0x1361 JUMP JUMPDEST PUSH1 0x1 PUSH1 0x1 PUSH1 0xA0 SHL SUB DUP2 AND PUSH1 0x0 SWAP1 DUP2 MSTORE PUSH1 0x3 PUSH1 0x20 MSTORE PUSH1 0x40 SWAP1 KECCAK256 SLOAD DUP2 SWAP1 PUSH1 0xFF AND ISZERO PUSH2 0x1020 JUMPI PUSH1 0x40 MLOAD PUSH3 0x461BCD PUSH1 0xE5 SHL DUP2 MSTORE PUSH1 0x20 PUSH1 0x4 DUP3 ADD MSTORE PUSH1 0x13 PUSH1 0x24 DUP3 ADD MSTORE PUSH19 0x135D5CDD08189948189B1858DADB1A5CDD1959 PUSH1 0x6A SHL PUSH1 0x44 DUP3 ADD MSTORE PUSH1 0x64 ADD PUSH2 0x470 JUMP JUMPDEST PUSH1 0x1 PUSH1 0x1 PUSH1 0xA0 SHL SUB DUP3 AND PUSH2 0x1046 JUMPI PUSH1 0x40 MLOAD PUSH3 0x461BCD PUSH1 0xE5 SHL DUP2 MSTORE PUSH1 0x4 ADD PUSH2 0x470 SWAP1 PUSH2 0x182C JUMP JUMPDEST PUSH1 0x1 PUSH1 0x1 PUSH1 0xA0 SHL SUB DUP3 AND PUSH1 0x0 DUP2 DUP2 MSTORE PUSH1 0x5 PUSH1 0x20 SWAP1 DUP2 MSTORE PUSH1 0x40 SWAP2 DUP3 SWAP1 KECCAK256 DUP1 SLOAD PUSH1 0xFF NOT AND PUSH1 0x1 SWAP1 DUP2 OR SWAP1 SWAP2 SSTORE PUSH1 0xA DUP1 SLOAD SWAP1 SWAP2 ADD SWAP1 SSTORE SWAP1 MLOAD SWAP2 DUP3 MSTORE PUSH32 0xC4EC7A2DC5E72D17666A15570E438638BFC023A7A091DF162B669C37198BACB2 SWAP2 ADD PUSH2 0xEB2 JUMP JUMPDEST PUSH2 0x10AE PUSH2 0x1361 JUMP JUMPDEST PUSH2 0x10B6 PUSH2 0x1430 JUMP JUMPDEST PUSH1 0x40 MLOAD PUSH4 0x70A08231 PUSH1 0xE0 SHL DUP2 MSTORE ADDRESS PUSH1 0x4 DUP3 ADD MSTORE PUSH1 0x0 SWAP1 PUSH32 0x0 PUSH1 0x1 PUSH1 0x1 PUSH1 0xA0 SHL SUB AND SWAP1 PUSH4 0x70A08231 SWAP1 PUSH1 0x24 ADD PUSH1 0x20 PUSH1 0x40 MLOAD DUP1 DUP4 SUB DUP2 DUP7 GAS STATICCALL ISZERO DUP1 ISZERO PUSH2 0x111D JUMPI RETURNDATASIZE PUSH1 0x0 DUP1 RETURNDATACOPY RETURNDATASIZE PUSH1 0x0 REVERT JUMPDEST POP POP POP POP PUSH1 0x40 MLOAD RETURNDATASIZE PUSH1 0x1F NOT PUSH1 0x1F DUP3 ADD AND DUP3 ADD DUP1 PUSH1 0x40 MSTORE POP DUP2 ADD SWAP1 PUSH2 0x1141 SWAP2 SWAP1 PUSH2 0x17D6 JUMP JUMPDEST GT PUSH2 0x118E JUMPI PUSH1 0x40 MLOAD PUSH3 0x461BCD PUSH1 0xE5 SHL DUP2 MSTORE PUSH1 0x20 PUSH1 0x4 DUP3 ADD MSTORE PUSH1 0x1F PUSH1 0x24 DUP3 ADD MSTORE PUSH32 0x436F6E747261637420646F6573206E6F74206861766520616E79206355534400 PUSH1 0x44 DUP3 ADD MSTORE PUSH1 0x64 ADD PUSH2 0x470 JUMP JUMPDEST PUSH1 0x40 MLOAD PUSH4 0x70A08231 PUSH1 0xE0 SHL DUP2 MSTORE ADDRESS PUSH1 0x4 DUP3 ADD MSTORE PUSH1 0x0 SWAP1 PUSH32 0x0 PUSH1 0x1 PUSH1 0x1 PUSH1 0xA0 SHL SUB AND SWAP1 PUSH4 0x70A08231 SWAP1 PUSH1 0x24 ADD PUSH1 0x20 PUSH1 0x40 MLOAD DUP1 DUP4 SUB DUP2 DUP7 GAS STATICCALL ISZERO DUP1 ISZERO PUSH2 0x11F5 JUMPI RETURNDATASIZE PUSH1 0x0 DUP1 RETURNDATACOPY RETURNDATASIZE PUSH1 0x0 REVERT JUMPDEST POP POP POP POP PUSH1 0x40 MLOAD RETURNDATASIZE PUSH1 0x1F NOT PUSH1 0x1F DUP3 ADD AND DUP3 ADD DUP1 PUSH1 0x40 MSTORE POP DUP2 ADD SWAP1 PUSH2 0x1219 SWAP2 SWAP1 PUSH2 0x17D6 JUMP JUMPDEST SWAP1 POP PUSH32 0x0 PUSH1 0x1 PUSH1 0x1 PUSH1 0xA0 SHL SUB AND PUSH4 0xA9059CBB PUSH2 0x125C PUSH1 0x0 SLOAD PUSH1 0x1 PUSH1 0x1 PUSH1 0xA0 SHL SUB AND SWAP1 JUMP JUMPDEST PUSH1 0x40 MLOAD PUSH1 0x1 PUSH1 0x1 PUSH1 0xE0 SHL SUB NOT PUSH1 0xE0 DUP5 SWAP1 SHL AND DUP2 MSTORE PUSH1 0x1 PUSH1 0x1 PUSH1 0xA0 SHL SUB SWAP1 SWAP2 AND PUSH1 0x4 DUP3 ADD MSTORE PUSH1 0x24 DUP2 ADD DUP5 SWAP1 MSTORE PUSH1 0x44 ADD PUSH1 0x20 PUSH1 0x40 MLOAD DUP1 DUP4 SUB DUP2 PUSH1 0x0 DUP8 GAS CALL ISZERO DUP1 ISZERO PUSH2 0x12A9 JUMPI RETURNDATASIZE PUSH1 0x0 DUP1 RETURNDATACOPY RETURNDATASIZE PUSH1 0x0 REVERT JUMPDEST POP POP POP POP PUSH1 0x40 MLOAD RETURNDATASIZE PUSH1 0x1F NOT PUSH1 0x1F DUP3 ADD AND DUP3 ADD DUP1 PUSH1 0x40 MSTORE POP DUP2 ADD SWAP1 PUSH2 0x12CD SWAP2 SWAP1 PUSH2 0x1859 JUMP JUMPDEST POP PUSH32 0x2036B9B38B69A2FA490EE702733A29CD2550ACCC20BC96E786CB9BEEDC779097 PUSH2 0x1301 PUSH1 0x0 SLOAD PUSH1 0x1 PUSH1 0x1 PUSH1 0xA0 SHL SUB AND SWAP1 JUMP JUMPDEST PUSH1 0x40 DUP1 MLOAD PUSH1 0x1 PUSH1 0x1 PUSH1 0xA0 SHL SUB SWAP1 SWAP3 AND DUP3 MSTORE PUSH1 0x20 DUP3 ADD DUP5 SWAP1 MSTORE ADD JUMPDEST PUSH1 0x40 MLOAD DUP1 SWAP2 SUB SWAP1 LOG1 POP JUMP JUMPDEST PUSH2 0x132E PUSH2 0x1361 JUMP JUMPDEST PUSH1 0x1 PUSH1 0x1 PUSH1 0xA0 SHL SUB DUP2 AND PUSH2 0x1358 JUMPI PUSH1 0x40 MLOAD PUSH4 0x1E4FBDF7 PUSH1 0xE0 SHL DUP2 MSTORE PUSH1 0x0 PUSH1 0x4 DUP3 ADD MSTORE PUSH1 0x24 ADD PUSH2 0x470 JUMP JUMPDEST PUSH2 0xC17 DUP2 PUSH2 0x13E0 JUMP JUMPDEST PUSH1 0x0 SLOAD PUSH1 0x1 PUSH1 0x1 PUSH1 0xA0 SHL SUB AND CALLER EQ PUSH2 0x409 JUMPI PUSH1 0x40 MLOAD PUSH4 0x118CDAA7 PUSH1 0xE0 SHL DUP2 MSTORE CALLER PUSH1 0x4 DUP3 ADD MSTORE PUSH1 0x24 ADD PUSH2 0x470 JUMP JUMPDEST PUSH2 0x1396 PUSH2 0x160B JUMP JUMPDEST PUSH1 0x2 DUP1 SLOAD PUSH1 0xFF NOT AND SWAP1 SSTORE PUSH32 0x5DB9EE0A495BF2E6FF9C91A7834C1BA4FDD244A5E8AA4E537BD38AEAE4B073AA CALLER JUMPDEST PUSH1 0x40 MLOAD PUSH1 0x1 PUSH1 0x1 PUSH1 0xA0 SHL SUB SWAP1 SWAP2 AND DUP2 MSTORE PUSH1 0x20 ADD PUSH1 0x40 MLOAD DUP1 SWAP2 SUB SWAP1 LOG1 JUMP JUMPDEST PUSH1 0x0 DUP1 SLOAD PUSH1 0x1 PUSH1 0x1 PUSH1 0xA0 SHL SUB DUP4 DUP2 AND PUSH1 0x1 PUSH1 0x1 PUSH1 0xA0 SHL SUB NOT DUP4 AND DUP2 OR DUP5 SSTORE PUSH1 0x40 MLOAD SWAP2 SWAP1 SWAP3 AND SWAP3 DUP4 SWAP2 PUSH32 0x8BE0079C531659141344CD1FD0A4F28419497F9722A3DAAFE3B4186F6B6457E0 SWAP2 SWAP1 LOG3 POP POP JUMP JUMPDEST PUSH1 0x2 SLOAD PUSH1 0xFF AND ISZERO PUSH2 0x409 JUMPI PUSH1 0x40 MLOAD PUSH4 0xD93C0665 PUSH1 0xE0 SHL DUP2 MSTORE PUSH1 0x4 ADD PUSH1 0x40 MLOAD DUP1 SWAP2 SUB SWAP1 REVERT JUMPDEST PUSH1 0x2 PUSH1 0x1 SLOAD SUB PUSH2 0x1477 JUMPI PUSH1 0x40 MLOAD PUSH4 0x3EE5AEB5 PUSH1 0xE0 SHL DUP2 MSTORE PUSH1 0x4 ADD PUSH1 0x40 MLOAD DUP1 SWAP2 SUB SWAP1 REVERT JUMPDEST PUSH1 0x2 PUSH1 0x1 SSTORE JUMP JUMPDEST PUSH1 0x6 SLOAD PUSH1 0x40 MLOAD PUSH4 0xA9059CBB PUSH1 0xE0 SHL DUP2 MSTORE PUSH1 0x1 PUSH1 0x1 PUSH1 0xA0 SHL SUB DUP4 DUP2 AND PUSH1 0x4 DUP4 ADD MSTORE PUSH1 0x24 DUP3 ADD SWAP3 SWAP1 SWAP3 MSTORE PUSH1 0x0 SWAP2 DUP3 SWAP2 PUSH32 0x0 SWAP1 SWAP2 AND SWAP1 PUSH4 0xA9059CBB SWAP1 PUSH1 0x44 ADD PUSH1 0x20 PUSH1 0x40 MLOAD DUP1 DUP4 SUB DUP2 PUSH1 0x0 DUP8 GAS CALL ISZERO DUP1 ISZERO PUSH2 0x14F8 JUMPI RETURNDATASIZE PUSH1 0x0 DUP1 RETURNDATACOPY RETURNDATASIZE PUSH1 0x0 REVERT JUMPDEST POP POP POP POP PUSH1 0x40 MLOAD RETURNDATASIZE PUSH1 0x1F NOT PUSH1 0x1F DUP3 ADD AND DUP3 ADD DUP1 PUSH1 0x40 MSTORE POP DUP2 ADD SWAP1 PUSH2 0x151C SWAP2 SWAP1 PUSH2 0x1859 JUMP JUMPDEST SWAP1 POP DUP1 ISZERO PUSH2 0x1574 JUMPI PUSH1 0x8 DUP1 SLOAD PUSH1 0x1 ADD SWAP1 SSTORE PUSH1 0x6 SLOAD PUSH1 0x40 DUP1 MLOAD PUSH1 0x1 PUSH1 0x1 PUSH1 0xA0 SHL SUB DUP7 AND DUP2 MSTORE PUSH1 0x20 DUP2 ADD SWAP3 SWAP1 SWAP3 MSTORE PUSH32 0x8934D7A9692E763E356FD30D84CA5F61A737B35C5CCD5D31D4F140310267B73E SWAP2 ADD PUSH1 0x40 MLOAD DUP1 SWAP2 SUB SWAP1 LOG1 JUMPDEST SWAP3 SWAP2 POP POP JUMP JUMPDEST PUSH1 0x1 PUSH1 0x1 PUSH1 0xA0 SHL SUB DUP2 AND PUSH1 0x0 DUP2 DUP2 MSTORE PUSH1 0x4 PUSH1 0x20 SWAP1 DUP2 MSTORE PUSH1 0x40 SWAP2 DUP3 SWAP1 KECCAK256 DUP1 SLOAD PUSH1 0xFF NOT AND PUSH1 0x1 OR SWAP1 SSTORE SWAP1 MLOAD SWAP2 DUP3 MSTORE PUSH32 0x654C9A027765E6FEB862F42D438E9F6948F9EE31113E379F0372B30EFC722943 SWAP2 ADD PUSH2 0x131B JUMP JUMPDEST PUSH2 0x15D6 PUSH2 0x1430 JUMP JUMPDEST PUSH1 0x2 DUP1 SLOAD PUSH1 0xFF NOT AND PUSH1 0x1 OR SWAP1 SSTORE PUSH32 0x62E78CEA01BEE320CD4E420270B5EA74000D11B0C9F74754EBDBFC544B05A258 PUSH2 0x13C3 CALLER SWAP1 JUMP JUMPDEST PUSH1 0x2 SLOAD PUSH1 0xFF AND PUSH2 0x409 JUMPI PUSH1 0x40 MLOAD PUSH4 0x8DFC202B PUSH1 0xE0 SHL DUP2 MSTORE PUSH1 0x4 ADD PUSH1 0x40 MLOAD DUP1 SWAP2 SUB SWAP1 REVERT JUMPDEST PUSH1 0x0 PUSH1 0x20 DUP3 DUP5 SUB SLT ISZERO PUSH2 0x1640 JUMPI PUSH1 0x0 DUP1 REVERT JUMPDEST POP CALLDATALOAD SWAP2 SWAP1 POP JUMP JUMPDEST DUP1 CALLDATALOAD PUSH1 0x1 PUSH1 0x1 PUSH1 0xA0 SHL SUB DUP2 AND DUP2 EQ PUSH2 0x165E JUMPI PUSH1 0x0 DUP1 REVERT JUMPDEST SWAP2 SWAP1 POP JUMP JUMPDEST PUSH1 0x0 PUSH1 0x20 DUP3 DUP5 SUB SLT ISZERO PUSH2 0x1675 JUMPI PUSH1 0x0 DUP1 REVERT JUMPDEST PUSH2 0x167E DUP3 PUSH2 0x1647 JUMP JUMPDEST SWAP4 SWAP3 POP POP POP JUMP JUMPDEST PUSH1 0x0 DUP1 PUSH1 0x20 DUP4 DUP6 SUB SLT ISZERO PUSH2 0x1698 JUMPI PUSH1 0x0 DUP1 REVERT JUMPDEST DUP3 CALLDATALOAD PUSH8 0xFFFFFFFFFFFFFFFF DUP2 GT ISZERO PUSH2 0x16AF JUMPI PUSH1 0x0 DUP1 REVERT JUMPDEST DUP4 ADD PUSH1 0x1F DUP2 ADD DUP6 SGT PUSH2 0x16C0 JUMPI PUSH1 0x0 DUP1 REVERT JUMPDEST DUP1 CALLDATALOAD PUSH8 0xFFFFFFFFFFFFFFFF DUP2 GT ISZERO PUSH2 0x16D7 JUMPI PUSH1 0x0 DUP1 REVERT JUMPDEST DUP6 PUSH1 0x20 DUP3 PUSH1 0x5 SHL DUP5 ADD ADD GT ISZERO PUSH2 0x16EC JUMPI PUSH1 0x0 DUP1 REVERT JUMPDEST PUSH1 0x20 SWAP2 SWAP1 SWAP2 ADD SWAP6 SWAP1 SWAP5 POP SWAP3 POP POP POP JUMP JUMPDEST PUSH1 0x20 DUP1 DUP3 MSTORE DUP3 MLOAD DUP3 DUP3 ADD DUP2 SWAP1 MSTORE PUSH1 0x0 SWAP2 DUP5 ADD SWAP1 PUSH1 0x40 DUP5 ADD SWAP1 DUP4 JUMPDEST DUP2 DUP2 LT ISZERO PUSH2 0x173D JUMPI DUP4 MLOAD PUSH1 0x1 PUSH1 0x1 PUSH1 0xA0 SHL SUB AND DUP4 MSTORE PUSH1 0x20 SWAP4 DUP5 ADD SWAP4 SWAP1 SWAP3 ADD SWAP2 PUSH1 0x1 ADD PUSH2 0x1716 JUMP JUMPDEST POP SWAP1 SWAP6 SWAP5 POP POP POP POP POP JUMP JUMPDEST PUSH1 0x20 DUP1 DUP3 MSTORE PUSH1 0x13 SWAP1 DUP3 ADD MSTORE PUSH19 0x139BC81859191C995CDCD95CC81C185CDCD959 PUSH1 0x6A SHL PUSH1 0x40 DUP3 ADD MSTORE PUSH1 0x60 ADD SWAP1 JUMP JUMPDEST PUSH4 0x4E487B71 PUSH1 0xE0 SHL PUSH1 0x0 MSTORE PUSH1 0x32 PUSH1 0x4 MSTORE PUSH1 0x24 PUSH1 0x0 REVERT JUMPDEST PUSH1 0x20 DUP1 DUP3 MSTORE DUP2 ADD DUP3 SWAP1 MSTORE PUSH1 0x0 DUP4 PUSH1 0x40 DUP4 ADD DUP3 JUMPDEST DUP6 DUP2 LT ISZERO PUSH2 0x17CC JUMPI PUSH1 0x1 PUSH1 0x1 PUSH1 0xA0 SHL SUB PUSH2 0x17B7 DUP5 PUSH2 0x1647 JUMP JUMPDEST AND DUP3 MSTORE PUSH1 0x20 SWAP3 DUP4 ADD SWAP3 SWAP1 SWAP2 ADD SWAP1 PUSH1 0x1 ADD PUSH2 0x179E JUMP JUMPDEST POP SWAP6 SWAP5 POP POP POP POP POP JUMP JUMPDEST PUSH1 0x0 PUSH1 0x20 DUP3 DUP5 SUB SLT ISZERO PUSH2 0x17E8 JUMPI PUSH1 0x0 DUP1 REVERT JUMPDEST POP MLOAD SWAP2 SWAP1 POP JUMP JUMPDEST PUSH1 0x0 PUSH1 0x1 DUP3 ADD PUSH2 0x180F JUMPI PUSH4 0x4E487B71 PUSH1 0xE0 SHL PUSH1 0x0 MSTORE PUSH1 0x11 PUSH1 0x4 MSTORE PUSH1 0x24 PUSH1 0x0 REVERT JUMPDEST POP PUSH1 0x1 ADD SWAP1 JUMP JUMPDEST PUSH4 0x4E487B71 PUSH1 0xE0 SHL PUSH1 0x0 MSTORE PUSH1 0x41 PUSH1 0x4 MSTORE PUSH1 0x24 PUSH1 0x0 REVERT JUMPDEST PUSH1 0x20 DUP1 DUP3 MSTORE PUSH1 0x13 SWAP1 DUP3 ADD MSTORE PUSH19 0x16995C9BC81859191C995CDCC81C185CDCD959 PUSH1 0x6A SHL PUSH1 0x40 DUP3 ADD MSTORE PUSH1 0x60 ADD SWAP1 JUMP JUMPDEST PUSH1 0x0 PUSH1 0x20 DUP3 DUP5 SUB SLT ISZERO PUSH2 0x186B JUMPI PUSH1 0x0 DUP1 REVERT JUMPDEST DUP2 MLOAD DUP1 ISZERO ISZERO DUP2 EQ PUSH2 0x167E JUMPI PUSH1 0x0 DUP1 REVERT INVALID LOG2 PUSH5 0x6970667358 0x22 SLT KECCAK256 GASLIMIT SELFDESTRUCT MUL CODECOPY 0xA6 BLOBBASEFEE DUP1 0xBC 0xC8 PUSH3 0x824D60 SWAP16 SWAP7 BALANCE 0xAA LOG4 0xBA SELFDESTRUCT PUSH18 0x69F2B3EF73F60E0800C9AD64736F6C634300 ADDMOD SHR STOP CALLER "
		},
		"gasEstimates": {
			"creation": {
				"codeDepositCost": "1264200",
				"executionCost": "infinite",
				"totalCost": "infinite"
			},
			"external": {
				"blacklistMultipleWhitelistedUserAddresses(address[])": "infinite",
				"blacklistOneWhitelistedUserAddress(address)": "54389",
				"cUSD()": "infinite",
				"checkIfParticipantHasAlreadyClaimedReward(address)": "2639",
				"checkIfParticipantIsBlacklisted(address)": "2598",
				"checkIfParticipantIsWhitelisted(address)": "2638",
				"getNumberOfRewardedParticipants()": "2370",
				"getNumberOfWhitelistedParticipants()": "2372",
				"getRewardAmountPerParticipantInWei()": "2326",
				"getTargetNumberOfParticipants()": "2349",
				"getWhitelistedParticipantsFromRegisteredParticipants(address[])": "infinite",
				"numberOfScreenedParticipants()": "2352",
				"numberOfWhitelistedParticipants()": "2331",
				"owner()": "2399",
				"pauseSurvey()": "infinite",
				"paused()": "2405",
				"processRewardClaimByParticipant(address)": "infinite",
				"renounceOwnership()": "infinite",
				"rewardAmountPerParticipantInWei()": "2395",
				"screenParticipant(address)": "54406",
				"targetNumberOfParticipants()": "2395",
				"transferOwnership(address)": "28443",
				"unpauseSurvey()": "infinite",
				"updateRewardAmountPerParticipant(uint256)": "28027",
				"updateTargetNumberOfParticipants(uint256)": "28060",
				"whitelistMultipleUserAddresses(address[])": "infinite",
				"whitelistOneUserAddress(address)": "54374",
				"withdrawAllRewardFundsToResearcher()": "infinite"
			},
			"internal": {
				"markParticipantAsHavingClaimedReward(address)": "infinite",
				"rewardParticipant(address)": "infinite"
			}
		},
		"methodIdentifiers": {
			"blacklistMultipleWhitelistedUserAddresses(address[])": "9a0474e8",
			"blacklistOneWhitelistedUserAddress(address)": "d335993a",
			"cUSD()": "1fccf672",
			"checkIfParticipantHasAlreadyClaimedReward(address)": "6ff65c20",
			"checkIfParticipantIsBlacklisted(address)": "8c0a0966",
			"checkIfParticipantIsWhitelisted(address)": "d4bfbd41",
			"getNumberOfRewardedParticipants()": "741ae614",
			"getNumberOfWhitelistedParticipants()": "28a2355b",
			"getRewardAmountPerParticipantInWei()": "7069243c",
			"getTargetNumberOfParticipants()": "6fa1c59d",
			"getWhitelistedParticipantsFromRegisteredParticipants(address[])": "a0ca86a3",
			"numberOfScreenedParticipants()": "4074be40",
			"numberOfWhitelistedParticipants()": "047bc438",
			"owner()": "8da5cb5b",
			"pauseSurvey()": "e082fe2a",
			"paused()": "5c975abb",
			"processRewardClaimByParticipant(address)": "a0858343",
			"renounceOwnership()": "715018a6",
			"rewardAmountPerParticipantInWei()": "7a0abf08",
			"screenParticipant(address)": "ea1dd101",
			"targetNumberOfParticipants()": "a6a09811",
			"transferOwnership(address)": "f2fde38b",
			"unpauseSurvey()": "3960fc66",
			"updateRewardAmountPerParticipant(uint256)": "64bb632f",
			"updateTargetNumberOfParticipants(uint256)": "528780cc",
			"whitelistMultipleUserAddresses(address[])": "98b48493",
			"whitelistOneUserAddress(address)": "b0702913",
			"withdrawAllRewardFundsToResearcher()": "f22069df"
		}
	},
	"abi": [
		{
			"inputs": [
				{
					"internalType": "address",
					"name": "researcherWalletAddress",
					"type": "address"
				},
				{
					"internalType": "uint256",
					"name": "_rewardAmountPerParticipantInWei",
					"type": "uint256"
				},
				{
					"internalType": "uint256",
					"name": "_targetNumberOfParticipants",
					"type": "uint256"
				},
				{
					"internalType": "address",
					"name": "cUSDTokenAddress",
					"type": "address"
				}
			],
			"stateMutability": "nonpayable",
			"type": "constructor"
		},
		{
			"inputs": [],
			"name": "EnforcedPause",
			"type": "error"
		},
		{
			"inputs": [],
			"name": "ExpectedPause",
			"type": "error"
		},
		{
			"inputs": [
				{
					"internalType": "address",
					"name": "owner",
					"type": "address"
				}
			],
			"name": "OwnableInvalidOwner",
			"type": "error"
		},
		{
			"inputs": [
				{
					"internalType": "address",
					"name": "account",
					"type": "address"
				}
			],
			"name": "OwnableUnauthorizedAccount",
			"type": "error"
		},
		{
			"inputs": [],
			"name": "ReentrancyGuardReentrantCall",
			"type": "error"
		},
		{
			"anonymous": false,
			"inputs": [
				{
					"indexed": false,
					"internalType": "address[]",
					"name": "participantWalletAddresses",
					"type": "address[]"
				}
			],
			"name": "MultipleParticipantsWhitelisted",
			"type": "event"
		},
		{
			"anonymous": false,
			"inputs": [
				{
					"indexed": false,
					"internalType": "address[]",
					"name": "walletAddresses",
					"type": "address[]"
				}
			],
			"name": "MultipleWhitelistedParticipantsBlacklisted",
			"type": "event"
		},
		{
			"anonymous": false,
			"inputs": [
				{
					"indexed": false,
					"internalType": "address",
					"name": "participantWalletAddress",
					"type": "address"
				}
			],
			"name": "OneParticipantWhitelisted",
			"type": "event"
		},
		{
			"anonymous": false,
			"inputs": [
				{
					"indexed": false,
					"internalType": "address",
					"name": "participantWalletAddress",
					"type": "address"
				}
			],
			"name": "OneWhitelistedParticipantBlacklisted",
			"type": "event"
		},
		{
			"anonymous": false,
			"inputs": [
				{
					"indexed": true,
					"internalType": "address",
					"name": "previousOwner",
					"type": "address"
				},
				{
					"indexed": true,
					"internalType": "address",
					"name": "newOwner",
					"type": "address"
				}
			],
			"name": "OwnershipTransferred",
			"type": "event"
		},
		{
			"anonymous": false,
			"inputs": [
				{
					"indexed": false,
					"internalType": "address",
					"name": "participantWalletAddress",
					"type": "address"
				}
			],
			"name": "ParticipantMarkedAsRewarded",
			"type": "event"
		},
		{
			"anonymous": false,
			"inputs": [
				{
					"indexed": false,
					"internalType": "address",
					"name": "participantWalletAddress",
					"type": "address"
				},
				{
					"indexed": false,
					"internalType": "uint256",
					"name": "rewardAmount",
					"type": "uint256"
				}
			],
			"name": "ParticipantRewarded",
			"type": "event"
		},
		{
			"anonymous": false,
			"inputs": [
				{
					"indexed": false,
					"internalType": "address",
					"name": "participantWalletAddress",
					"type": "address"
				}
			],
			"name": "ParticipantScreened",
			"type": "event"
		},
		{
			"anonymous": false,
			"inputs": [
				{
					"indexed": false,
					"internalType": "address",
					"name": "account",
					"type": "address"
				}
			],
			"name": "Paused",
			"type": "event"
		},
		{
			"anonymous": false,
			"inputs": [
				{
					"indexed": false,
					"internalType": "uint256",
					"name": "oldcUSDRewardAmountPerParticipantInWei",
					"type": "uint256"
				},
				{
					"indexed": false,
					"internalType": "uint256",
					"name": "newcUSDRewardAmountPerParticipantInWei",
					"type": "uint256"
				}
			],
			"name": "RewardAmountUpdated",
			"type": "event"
		},
		{
			"anonymous": false,
			"inputs": [
				{
					"indexed": false,
					"internalType": "address",
					"name": "researcherWalletAddress",
					"type": "address"
				},
				{
					"indexed": false,
					"internalType": "uint256",
					"name": "rewardAmount",
					"type": "uint256"
				}
			],
			"name": "RewardFundsWithdrawn",
			"type": "event"
		},
		{
			"anonymous": false,
			"inputs": [
				{
					"indexed": false,
					"internalType": "uint256",
					"name": "oldTargetNumberOfParticipants",
					"type": "uint256"
				},
				{
					"indexed": false,
					"internalType": "uint256",
					"name": "newTargetNumberOfParticipants",
					"type": "uint256"
				}
			],
			"name": "TargetNumberOfParticipantsUpdates",
			"type": "event"
		},
		{
			"anonymous": false,
			"inputs": [
				{
					"indexed": false,
					"internalType": "address",
					"name": "account",
					"type": "address"
				}
			],
			"name": "Unpaused",
			"type": "event"
		},
		{
			"inputs": [
				{
					"internalType": "address[]",
					"name": "walletAddresses",
					"type": "address[]"
				}
			],
			"name": "blacklistMultipleWhitelistedUserAddresses",
			"outputs": [],
			"stateMutability": "nonpayable",
			"type": "function"
		},
		{
			"inputs": [
				{
					"internalType": "address",
					"name": "walletAddress",
					"type": "address"
				}
			],
			"name": "blacklistOneWhitelistedUserAddress",
			"outputs": [],
			"stateMutability": "nonpayable",
			"type": "function"
		},
		{
			"inputs": [],
			"name": "cUSD",
			"outputs": [
				{
					"internalType": "contract IERC20Metadata",
					"name": "",
					"type": "address"
				}
			],
			"stateMutability": "view",
			"type": "function"
		},
		{
			"inputs": [
				{
					"internalType": "address",
					"name": "participantWalletAddress",
					"type": "address"
				}
			],
			"name": "checkIfParticipantHasAlreadyClaimedReward",
			"outputs": [
				{
					"internalType": "bool",
					"name": "",
					"type": "bool"
				}
			],
			"stateMutability": "view",
			"type": "function"
		},
		{
			"inputs": [
				{
					"internalType": "address",
					"name": "participantWalletAddress",
					"type": "address"
				}
			],
			"name": "checkIfParticipantIsBlacklisted",
			"outputs": [
				{
					"internalType": "bool",
					"name": "",
					"type": "bool"
				}
			],
			"stateMutability": "view",
			"type": "function"
		},
		{
			"inputs": [
				{
					"internalType": "address",
					"name": "participantWalletAddress",
					"type": "address"
				}
			],
			"name": "checkIfParticipantIsWhitelisted",
			"outputs": [
				{
					"internalType": "bool",
					"name": "",
					"type": "bool"
				}
			],
			"stateMutability": "view",
			"type": "function"
		},
		{
			"inputs": [],
			"name": "getNumberOfRewardedParticipants",
			"outputs": [
				{
					"internalType": "uint256",
					"name": "",
					"type": "uint256"
				}
			],
			"stateMutability": "view",
			"type": "function"
		},
		{
			"inputs": [],
			"name": "getNumberOfWhitelistedParticipants",
			"outputs": [
				{
					"internalType": "uint256",
					"name": "",
					"type": "uint256"
				}
			],
			"stateMutability": "view",
			"type": "function"
		},
		{
			"inputs": [],
			"name": "getRewardAmountPerParticipantInWei",
			"outputs": [
				{
					"internalType": "uint256",
					"name": "",
					"type": "uint256"
				}
			],
			"stateMutability": "view",
			"type": "function"
		},
		{
			"inputs": [],
			"name": "getTargetNumberOfParticipants",
			"outputs": [
				{
					"internalType": "uint256",
					"name": "",
					"type": "uint256"
				}
			],
			"stateMutability": "view",
			"type": "function"
		},
		{
			"inputs": [
				{
					"internalType": "address[]",
					"name": "registeredAddresses",
					"type": "address[]"
				}
			],
			"name": "getWhitelistedParticipantsFromRegisteredParticipants",
			"outputs": [
				{
					"internalType": "address[]",
					"name": "",
					"type": "address[]"
				}
			],
			"stateMutability": "view",
			"type": "function"
		},
		{
			"inputs": [],
			"name": "numberOfScreenedParticipants",
			"outputs": [
				{
					"internalType": "uint256",
					"name": "",
					"type": "uint256"
				}
			],
			"stateMutability": "view",
			"type": "function"
		},
		{
			"inputs": [],
			"name": "numberOfWhitelistedParticipants",
			"outputs": [
				{
					"internalType": "uint256",
					"name": "",
					"type": "uint256"
				}
			],
			"stateMutability": "view",
			"type": "function"
		},
		{
			"inputs": [],
			"name": "owner",
			"outputs": [
				{
					"internalType": "address",
					"name": "",
					"type": "address"
				}
			],
			"stateMutability": "view",
			"type": "function"
		},
		{
			"inputs": [],
			"name": "pauseSurvey",
			"outputs": [],
			"stateMutability": "nonpayable",
			"type": "function"
		},
		{
			"inputs": [],
			"name": "paused",
			"outputs": [
				{
					"internalType": "bool",
					"name": "",
					"type": "bool"
				}
			],
			"stateMutability": "view",
			"type": "function"
		},
		{
			"inputs": [
				{
					"internalType": "address",
					"name": "walletAddress",
					"type": "address"
				}
			],
			"name": "processRewardClaimByParticipant",
			"outputs": [],
			"stateMutability": "nonpayable",
			"type": "function"
		},
		{
			"inputs": [],
			"name": "renounceOwnership",
			"outputs": [],
			"stateMutability": "nonpayable",
			"type": "function"
		},
		{
			"inputs": [],
			"name": "rewardAmountPerParticipantInWei",
			"outputs": [
				{
					"internalType": "uint256",
					"name": "",
					"type": "uint256"
				}
			],
			"stateMutability": "view",
			"type": "function"
		},
		{
			"inputs": [
				{
					"internalType": "address",
					"name": "participantWalletAddress",
					"type": "address"
				}
			],
			"name": "screenParticipant",
			"outputs": [],
			"stateMutability": "nonpayable",
			"type": "function"
		},
		{
			"inputs": [],
			"name": "targetNumberOfParticipants",
			"outputs": [
				{
					"internalType": "uint256",
					"name": "",
					"type": "uint256"
				}
			],
			"stateMutability": "view",
			"type": "function"
		},
		{
			"inputs": [
				{
					"internalType": "address",
					"name": "newOwner",
					"type": "address"
				}
			],
			"name": "transferOwnership",
			"outputs": [],
			"stateMutability": "nonpayable",
			"type": "function"
		},
		{
			"inputs": [],
			"name": "unpauseSurvey",
			"outputs": [],
			"stateMutability": "nonpayable",
			"type": "function"
		},
		{
			"inputs": [
				{
					"internalType": "uint256",
					"name": "_newRewardAmountPerParticipantInWei",
					"type": "uint256"
				}
			],
			"name": "updateRewardAmountPerParticipant",
			"outputs": [],
			"stateMutability": "nonpayable",
			"type": "function"
		},
		{
			"inputs": [
				{
					"internalType": "uint256",
					"name": "_newTargetNumberOfParticipants",
					"type": "uint256"
				}
			],
			"name": "updateTargetNumberOfParticipants",
			"outputs": [],
			"stateMutability": "nonpayable",
			"type": "function"
		},
		{
			"inputs": [
				{
					"internalType": "address[]",
					"name": "walletAddresses",
					"type": "address[]"
				}
			],
			"name": "whitelistMultipleUserAddresses",
			"outputs": [],
			"stateMutability": "nonpayable",
			"type": "function"
		},
		{
			"inputs": [
				{
					"internalType": "address",
					"name": "walletAddress",
					"type": "address"
				}
			],
			"name": "whitelistOneUserAddress",
			"outputs": [],
			"stateMutability": "nonpayable",
			"type": "function"
		},
		{
			"inputs": [],
			"name": "withdrawAllRewardFundsToResearcher",
			"outputs": [],
			"stateMutability": "nonpayable",
			"type": "function"
		}
	]
}