{
	"hardhat/contracts/CanvassingSurvey.sol": {
		"CanvassingSurvey": {
			"abi": [
				{
					"inputs": [
						{
							"internalType": "address",
							"name": "researcherWalletAddress",
							"type": "address"
						},
						{
							"internalType": "uint256",
							"name": "_rewardAmountPerParticipantInWei",
							"type": "uint256"
						},
						{
							"internalType": "uint256",
							"name": "_targetNumberOfParticipants",
							"type": "uint256"
						},
						{
							"internalType": "address",
							"name": "cUSDTokenAddress",
							"type": "address"
						}
					],
					"stateMutability": "nonpayable",
					"type": "constructor"
				},
				{
					"inputs": [],
					"name": "AllParticipantsRewarded",
					"type": "error"
				},
				{
					"inputs": [],
					"name": "EnforcedPause",
					"type": "error"
				},
				{
					"inputs": [],
					"name": "ExpectedPause",
					"type": "error"
				},
				{
					"inputs": [],
					"name": "InsufficientContractBalance",
					"type": "error"
				},
				{
					"inputs": [],
					"name": "InvalidArrayLength",
					"type": "error"
				},
				{
					"inputs": [],
					"name": "InvalidNumberOfTargetParticipants",
					"type": "error"
				},
				{
					"inputs": [],
					"name": "InvalidRewardAmountGiven",
					"type": "error"
				},
				{
					"inputs": [],
					"name": "NoRewardFunds",
					"type": "error"
				},
				{
					"inputs": [
						{
							"internalType": "address",
							"name": "owner",
							"type": "address"
						}
					],
					"name": "OwnableInvalidOwner",
					"type": "error"
				},
				{
					"inputs": [
						{
							"internalType": "address",
							"name": "account",
							"type": "address"
						}
					],
					"name": "OwnableUnauthorizedAccount",
					"type": "error"
				},
				{
					"inputs": [
						{
							"internalType": "address",
							"name": "walletAddress",
							"type": "address"
						}
					],
					"name": "ParticipantAlreadyRewarded",
					"type": "error"
				},
				{
					"inputs": [],
					"name": "ReentrancyGuardReentrantCall",
					"type": "error"
				},
				{
					"inputs": [],
					"name": "RewardTransferFailed",
					"type": "error"
				},
				{
					"inputs": [
						{
							"internalType": "address",
							"name": "walletAddress",
							"type": "address"
						}
					],
					"name": "UserAddressAlreadyWhitelisted",
					"type": "error"
				},
				{
					"inputs": [
						{
							"internalType": "address",
							"name": "walletAddress",
							"type": "address"
						}
					],
					"name": "UserAddressNotWhitelisted",
					"type": "error"
				},
				{
					"inputs": [],
					"name": "WithdrawalFailed",
					"type": "error"
				},
				{
					"inputs": [],
					"name": "ZeroAddress",
					"type": "error"
				},
				{
					"anonymous": false,
					"inputs": [
						{
							"indexed": false,
							"internalType": "address[]",
							"name": "walletAddresses",
							"type": "address[]"
						}
					],
					"name": "MultipleUserAddressesWhitelisted",
					"type": "event"
				},
				{
					"anonymous": false,
					"inputs": [
						{
							"indexed": false,
							"internalType": "address[]",
							"name": "walletAddresses",
							"type": "address[]"
						}
					],
					"name": "MultipleWhitelistedUserAddressesBlacklisted",
					"type": "event"
				},
				{
					"anonymous": false,
					"inputs": [
						{
							"indexed": false,
							"internalType": "address",
							"name": "participantWalletAddress",
							"type": "address"
						}
					],
					"name": "OneUserAddressWhitelisted",
					"type": "event"
				},
				{
					"anonymous": false,
					"inputs": [
						{
							"indexed": false,
							"internalType": "address",
							"name": "participantWalletAddress",
							"type": "address"
						}
					],
					"name": "OneWhitelistedUserAddressBlacklisted",
					"type": "event"
				},
				{
					"anonymous": false,
					"inputs": [
						{
							"indexed": true,
							"internalType": "address",
							"name": "previousOwner",
							"type": "address"
						},
						{
							"indexed": true,
							"internalType": "address",
							"name": "newOwner",
							"type": "address"
						}
					],
					"name": "OwnershipTransferred",
					"type": "event"
				},
				{
					"anonymous": false,
					"inputs": [
						{
							"indexed": false,
							"internalType": "address",
							"name": "participantWalletAddress",
							"type": "address"
						}
					],
					"name": "ParticipantMarkedAsRewarded",
					"type": "event"
				},
				{
					"anonymous": false,
					"inputs": [
						{
							"indexed": false,
							"internalType": "address",
							"name": "participantWalletAddress",
							"type": "address"
						},
						{
							"indexed": false,
							"internalType": "uint256",
							"name": "rewardAmount",
							"type": "uint256"
						}
					],
					"name": "ParticipantRewarded",
					"type": "event"
				},
				{
					"anonymous": false,
					"inputs": [
						{
							"indexed": false,
							"internalType": "address",
							"name": "account",
							"type": "address"
						}
					],
					"name": "Paused",
					"type": "event"
				},
				{
					"anonymous": false,
					"inputs": [
						{
							"indexed": false,
							"internalType": "uint256",
							"name": "oldcUSDRewardAmountPerParticipantInWei",
							"type": "uint256"
						},
						{
							"indexed": false,
							"internalType": "uint256",
							"name": "newcUSDRewardAmountPerParticipantInWei",
							"type": "uint256"
						}
					],
					"name": "RewardAmountUpdated",
					"type": "event"
				},
				{
					"anonymous": false,
					"inputs": [
						{
							"indexed": false,
							"internalType": "address",
							"name": "researcherWalletAddress",
							"type": "address"
						},
						{
							"indexed": false,
							"internalType": "uint256",
							"name": "rewardAmount",
							"type": "uint256"
						}
					],
					"name": "RewardFundsWithdrawn",
					"type": "event"
				},
				{
					"anonymous": false,
					"inputs": [
						{
							"indexed": false,
							"internalType": "uint256",
							"name": "oldTargetNumberOfParticipants",
							"type": "uint256"
						},
						{
							"indexed": false,
							"internalType": "uint256",
							"name": "newTargetNumberOfParticipants",
							"type": "uint256"
						}
					],
					"name": "TargetNumberOfParticipantsUpdates",
					"type": "event"
				},
				{
					"anonymous": false,
					"inputs": [
						{
							"indexed": false,
							"internalType": "address",
							"name": "account",
							"type": "address"
						}
					],
					"name": "Unpaused",
					"type": "event"
				},
				{
					"inputs": [
						{
							"internalType": "address[]",
							"name": "walletAddresses",
							"type": "address[]"
						}
					],
					"name": "blacklistMultipleWhitelistedAddresses",
					"outputs": [],
					"stateMutability": "nonpayable",
					"type": "function"
				},
				{
					"inputs": [
						{
							"internalType": "address",
							"name": "walletAddress",
							"type": "address"
						}
					],
					"name": "blacklistOneWhitelistedAddress",
					"outputs": [],
					"stateMutability": "nonpayable",
					"type": "function"
				},
				{
					"inputs": [],
					"name": "cUSD",
					"outputs": [
						{
							"internalType": "contract IERC20Metadata",
							"name": "",
							"type": "address"
						}
					],
					"stateMutability": "view",
					"type": "function"
				},
				{
					"inputs": [
						{
							"internalType": "address",
							"name": "walletAddress",
							"type": "address"
						}
					],
					"name": "checkIfParticipantHasAlreadyClaimedReward",
					"outputs": [
						{
							"internalType": "bool",
							"name": "",
							"type": "bool"
						}
					],
					"stateMutability": "view",
					"type": "function"
				},
				{
					"inputs": [
						{
							"internalType": "address",
							"name": "walletAddress",
							"type": "address"
						}
					],
					"name": "checkIfUserAddressIsBlacklisted",
					"outputs": [
						{
							"internalType": "bool",
							"name": "",
							"type": "bool"
						}
					],
					"stateMutability": "view",
					"type": "function"
				},
				{
					"inputs": [
						{
							"internalType": "address",
							"name": "walletAddress",
							"type": "address"
						}
					],
					"name": "checkIfUserAddressIsWhitelisted",
					"outputs": [
						{
							"internalType": "bool",
							"name": "",
							"type": "bool"
						}
					],
					"stateMutability": "view",
					"type": "function"
				},
				{
					"inputs": [],
					"name": "getNumberOfRewardedParticipants",
					"outputs": [
						{
							"internalType": "uint256",
							"name": "",
							"type": "uint256"
						}
					],
					"stateMutability": "view",
					"type": "function"
				},
				{
					"inputs": [],
					"name": "getRewardAmountPerParticipantInWei",
					"outputs": [
						{
							"internalType": "uint256",
							"name": "",
							"type": "uint256"
						}
					],
					"stateMutability": "view",
					"type": "function"
				},
				{
					"inputs": [
						{
							"internalType": "address[]",
							"name": "registeredAddresses",
							"type": "address[]"
						}
					],
					"name": "getWhitelistedAddressesFromRegisteredAddresses",
					"outputs": [
						{
							"internalType": "address[]",
							"name": "",
							"type": "address[]"
						}
					],
					"stateMutability": "view",
					"type": "function"
				},
				{
					"inputs": [],
					"name": "numberOfRewardedParticipants",
					"outputs": [
						{
							"internalType": "uint256",
							"name": "",
							"type": "uint256"
						}
					],
					"stateMutability": "view",
					"type": "function"
				},
				{
					"inputs": [],
					"name": "owner",
					"outputs": [
						{
							"internalType": "address",
							"name": "",
							"type": "address"
						}
					],
					"stateMutability": "view",
					"type": "function"
				},
				{
					"inputs": [],
					"name": "pauseSurvey",
					"outputs": [],
					"stateMutability": "nonpayable",
					"type": "function"
				},
				{
					"inputs": [],
					"name": "paused",
					"outputs": [
						{
							"internalType": "bool",
							"name": "",
							"type": "bool"
						}
					],
					"stateMutability": "view",
					"type": "function"
				},
				{
					"inputs": [
						{
							"internalType": "address",
							"name": "walletAddress",
							"type": "address"
						}
					],
					"name": "processRewardClaimByParticipant",
					"outputs": [],
					"stateMutability": "nonpayable",
					"type": "function"
				},
				{
					"inputs": [],
					"name": "renounceOwnership",
					"outputs": [],
					"stateMutability": "nonpayable",
					"type": "function"
				},
				{
					"inputs": [],
					"name": "rewardAmountPerParticipantInWei",
					"outputs": [
						{
							"internalType": "uint256",
							"name": "",
							"type": "uint256"
						}
					],
					"stateMutability": "view",
					"type": "function"
				},
				{
					"inputs": [],
					"name": "targetNumberOfParticipants",
					"outputs": [
						{
							"internalType": "uint256",
							"name": "",
							"type": "uint256"
						}
					],
					"stateMutability": "view",
					"type": "function"
				},
				{
					"inputs": [
						{
							"internalType": "address",
							"name": "newOwner",
							"type": "address"
						}
					],
					"name": "transferOwnership",
					"outputs": [],
					"stateMutability": "nonpayable",
					"type": "function"
				},
				{
					"inputs": [],
					"name": "unpauseSurvey",
					"outputs": [],
					"stateMutability": "nonpayable",
					"type": "function"
				},
				{
					"inputs": [
						{
							"internalType": "uint256",
							"name": "_newRewardAmountPerParticipantInWei",
							"type": "uint256"
						}
					],
					"name": "updateRewardAmountPerParticipant",
					"outputs": [],
					"stateMutability": "nonpayable",
					"type": "function"
				},
				{
					"inputs": [
						{
							"internalType": "uint256",
							"name": "_newTargetNumberOfParticipants",
							"type": "uint256"
						}
					],
					"name": "updateTargetNumberOfParticipants",
					"outputs": [],
					"stateMutability": "nonpayable",
					"type": "function"
				},
				{
					"inputs": [
						{
							"internalType": "address[]",
							"name": "walletAddresses",
							"type": "address[]"
						}
					],
					"name": "whitelistMultipleAddresses",
					"outputs": [],
					"stateMutability": "nonpayable",
					"type": "function"
				},
				{
					"inputs": [
						{
							"internalType": "address",
							"name": "walletAddress",
							"type": "address"
						}
					],
					"name": "whitelistOneAddress",
					"outputs": [],
					"stateMutability": "nonpayable",
					"type": "function"
				},
				{
					"inputs": [],
					"name": "withdrawAllRewardFundsToResearcher",
					"outputs": [],
					"stateMutability": "nonpayable",
					"type": "function"
				}
			],
			"devdoc": {
				"errors": {
					"EnforcedPause()": [
						{
							"details": "The operation failed because the contract is paused."
						}
					],
					"ExpectedPause()": [
						{
							"details": "The operation failed because the contract is not paused."
						}
					],
					"OwnableInvalidOwner(address)": [
						{
							"details": "The owner is not a valid owner account. (eg. `address(0)`)"
						}
					],
					"OwnableUnauthorizedAccount(address)": [
						{
							"details": "The caller account is not authorized to perform an operation."
						}
					],
					"ReentrancyGuardReentrantCall()": [
						{
							"details": "Unauthorized reentrant call."
						}
					]
				},
				"events": {
					"Paused(address)": {
						"details": "Emitted when the pause is triggered by `account`."
					},
					"Unpaused(address)": {
						"details": "Emitted when the pause is lifted by `account`."
					}
				},
				"kind": "dev",
				"methods": {
					"owner()": {
						"details": "Returns the address of the current owner."
					},
					"paused()": {
						"details": "Returns true if the contract is paused, and false otherwise."
					},
					"renounceOwnership()": {
						"details": "Leaves the contract without owner. It will not be possible to call `onlyOwner` functions. Can only be called by the current owner. NOTE: Renouncing ownership will leave the contract without an owner, thereby disabling any functionality that is only available to the owner."
					},
					"transferOwnership(address)": {
						"details": "Transfers ownership of the contract to a new account (`newOwner`). Can only be called by the current owner."
					}
				},
				"version": 1
			},
			"evm": {
				"assembly": "    /* \"hardhat/contracts/CanvassingSurvey.sol\":301:11347  contract CanvassingSurvey is Ownable, ReentrancyGuard, Pausable {... */\n  mstore(0x40, 0xa0)\n    /* \"hardhat/contracts/CanvassingSurvey.sol\":2982:3793  constructor(... */\n  callvalue\n  dup1\n  iszero\n  tag_1\n  jumpi\n  revert(0x00, 0x00)\ntag_1:\n  pop\n  mload(0x40)\n  sub(codesize, bytecodeSize)\n  dup1\n  bytecodeSize\n  dup4\n  codecopy\n  dup2\n  add\n  0x40\n  dup2\n  swap1\n  mstore\n  tag_2\n  swap2\n  tag_3\n  jump\t// in\ntag_2:\n    /* \"hardhat/contracts/CanvassingSurvey.sol\":3178:3201  researcherWalletAddress */\n  dup4\n  sub(shl(0xa0, 0x01), 0x01)\n    /* \"@openzeppelin/contracts/access/Ownable.sol\":1273:1299  initialOwner == address(0) */\n  dup2\n  and\n    /* \"@openzeppelin/contracts/access/Ownable.sol\":1269:1364  if (initialOwner == address(0)) {... */\n  tag_9\n  jumpi\n    /* \"@openzeppelin/contracts/access/Ownable.sol\":1322:1353  OwnableInvalidOwner(address(0)) */\n  mload(0x40)\n  shl(0xe0, 0x1e4fbdf7)\n  dup2\n  mstore\n    /* \"@openzeppelin/contracts/access/Ownable.sol\":1350:1351  0 */\n  0x00\n    /* \"@openzeppelin/contracts/access/Ownable.sol\":1322:1353  OwnableInvalidOwner(address(0)) */\n  0x04\n  dup3\n  add\n    /* \"#utility.yul\":861:912   */\n  mstore\n    /* \"#utility.yul\":834:852   */\n  0x24\n  add\n    /* \"@openzeppelin/contracts/access/Ownable.sol\":1322:1353  OwnableInvalidOwner(address(0)) */\n  mload(0x40)\n  dup1\n  swap2\n  sub\n  swap1\n  revert\n    /* \"@openzeppelin/contracts/access/Ownable.sol\":1269:1364  if (initialOwner == address(0)) {... */\ntag_9:\n    /* \"@openzeppelin/contracts/access/Ownable.sol\":1373:1405  _transferOwnership(initialOwner) */\n  tag_12\n    /* \"@openzeppelin/contracts/access/Ownable.sol\":1392:1404  initialOwner */\n  dup2\n    /* \"@openzeppelin/contracts/access/Ownable.sol\":1373:1391  _transferOwnership */\n  tag_13\n    /* \"@openzeppelin/contracts/access/Ownable.sol\":1373:1405  _transferOwnership(initialOwner) */\n  jump\t// in\ntag_12:\n  pop\n    /* \"@openzeppelin/contracts/utils/ReentrancyGuard.sol\":1857:1858  1 */\n  0x01\n    /* \"@openzeppelin/contracts/utils/ReentrancyGuard.sol\":2061:2082  _status = NOT_ENTERED */\n  dup1\n  sstore\n    /* \"@openzeppelin/contracts/utils/Pausable.sol\":1231:1238  _paused */\n  0x02\n    /* \"@openzeppelin/contracts/utils/Pausable.sol\":1231:1246  _paused = false */\n  dup1\n  sload\n  not(0xff)\n  and\n  swap1\n  sstore\n  sub(shl(0xa0, 0x01), 0x01)\n    /* \"hardhat/contracts/CanvassingSurvey.sol\":3230:3267  researcherWalletAddress == address(0) */\n  dup5\n  and\n  iszero\n  dup1\n    /* \"hardhat/contracts/CanvassingSurvey.sol\":3230:3313  researcherWalletAddress == address(0) ||... */\n  tag_17\n  jumpi\n  pop\n  sub(shl(0xa0, 0x01), 0x01)\n    /* \"hardhat/contracts/CanvassingSurvey.sol\":3283:3313  cUSDTokenAddress == address(0) */\n  dup2\n  and\n  iszero\n    /* \"hardhat/contracts/CanvassingSurvey.sol\":3230:3313  researcherWalletAddress == address(0) ||... */\ntag_17:\n    /* \"hardhat/contracts/CanvassingSurvey.sol\":3213:3369  if (... */\n  iszero\n  tag_18\n  jumpi\n    /* \"hardhat/contracts/CanvassingSurvey.sol\":3345:3358  ZeroAddress() */\n  mload(0x40)\n  shl(0xe0, 0xd92e233d)\n  dup2\n  mstore\n  0x04\n  add\n  mload(0x40)\n  dup1\n  swap2\n  sub\n  swap1\n  revert\n    /* \"hardhat/contracts/CanvassingSurvey.sol\":3213:3369  if (... */\ntag_18:\n    /* \"hardhat/contracts/CanvassingSurvey.sol\":3382:3414  _rewardAmountPerParticipantInWei */\n  dup3\n    /* \"hardhat/contracts/CanvassingSurvey.sol\":3418:3419  0 */\n  0x00\n    /* \"hardhat/contracts/CanvassingSurvey.sol\":3382:3419  _rewardAmountPerParticipantInWei == 0 */\n  sub\n    /* \"hardhat/contracts/CanvassingSurvey.sol\":3378:3479  if (_rewardAmountPerParticipantInWei == 0) {... */\n  tag_19\n  jumpi\n    /* \"hardhat/contracts/CanvassingSurvey.sol\":3442:3468  InvalidRewardAmountGiven() */\n  mload(0x40)\n  shl(0xe4, 0x0d428a01)\n  dup2\n  mstore\n  0x04\n  add\n  mload(0x40)\n  dup1\n  swap2\n  sub\n  swap1\n  revert\n    /* \"hardhat/contracts/CanvassingSurvey.sol\":3378:3479  if (_rewardAmountPerParticipantInWei == 0) {... */\ntag_19:\n    /* \"hardhat/contracts/CanvassingSurvey.sol\":3493:3520  _targetNumberOfParticipants */\n  dup2\n    /* \"hardhat/contracts/CanvassingSurvey.sol\":3524:3525  0 */\n  0x00\n    /* \"hardhat/contracts/CanvassingSurvey.sol\":3493:3525  _targetNumberOfParticipants == 0 */\n  sub\n    /* \"hardhat/contracts/CanvassingSurvey.sol\":3489:3594  if (_targetNumberOfParticipants == 0) {... */\n  tag_20\n  jumpi\n    /* \"hardhat/contracts/CanvassingSurvey.sol\":3548:3583  InvalidNumberOfTargetParticipants() */\n  mload(0x40)\n  shl(0xe2, 0x36c5eec7)\n  dup2\n  mstore\n  0x04\n  add\n  mload(0x40)\n  dup1\n  swap2\n  sub\n  swap1\n  revert\n    /* \"hardhat/contracts/CanvassingSurvey.sol\":3489:3594  if (_targetNumberOfParticipants == 0) {... */\ntag_20:\n  sub(shl(0xa0, 0x01), 0x01)\n    /* \"hardhat/contracts/CanvassingSurvey.sol\":3604:3643  cUSD = IERC20Metadata(cUSDTokenAddress) */\n  and\n  0x80\n  mstore\n    /* \"hardhat/contracts/CanvassingSurvey.sol\":3654:3685  rewardAmountPerParticipantInWei */\n  0x05\n    /* \"hardhat/contracts/CanvassingSurvey.sol\":3654:3720  rewardAmountPerParticipantInWei = _rewardAmountPerParticipantInWei */\n  swap2\n  swap1\n  swap2\n  sstore\n    /* \"hardhat/contracts/CanvassingSurvey.sol\":3730:3756  targetNumberOfParticipants */\n  0x06\n    /* \"hardhat/contracts/CanvassingSurvey.sol\":3730:3786  targetNumberOfParticipants = _targetNumberOfParticipants */\n  sstore\n  pop\n    /* \"hardhat/contracts/CanvassingSurvey.sol\":301:11347  contract CanvassingSurvey is Ownable, ReentrancyGuard, Pausable {... */\n  jump(tag_24)\n    /* \"@openzeppelin/contracts/access/Ownable.sol\":2912:3099  function _transferOwnership(address newOwner) internal virtual {... */\ntag_13:\n    /* \"@openzeppelin/contracts/access/Ownable.sol\":2985:3001  address oldOwner */\n  0x00\n    /* \"@openzeppelin/contracts/access/Ownable.sol\":3004:3010  _owner */\n  dup1\n  sload\n  sub(shl(0xa0, 0x01), 0x01)\n    /* \"@openzeppelin/contracts/access/Ownable.sol\":3020:3037  _owner = newOwner */\n  dup4\n  dup2\n  and\n  not(sub(shl(0xa0, 0x01), 0x01))\n  dup4\n  and\n  dup2\n  or\n  dup5\n  sstore\n    /* \"@openzeppelin/contracts/access/Ownable.sol\":3052:3092  OwnershipTransferred(oldOwner, newOwner) */\n  mload(0x40)\n    /* \"@openzeppelin/contracts/access/Ownable.sol\":3004:3010  _owner */\n  swap2\n  swap1\n  swap3\n  and\n  swap3\n  dup4\n  swap2\n    /* \"@openzeppelin/contracts/access/Ownable.sol\":3052:3092  OwnershipTransferred(oldOwner, newOwner) */\n  0x8be0079c531659141344cd1fd0a4f28419497f9722a3daafe3b4186f6b6457e0\n  swap2\n    /* \"@openzeppelin/contracts/access/Ownable.sol\":2985:3001  address oldOwner */\n  swap1\n    /* \"@openzeppelin/contracts/access/Ownable.sol\":3052:3092  OwnershipTransferred(oldOwner, newOwner) */\n  log3\n    /* \"@openzeppelin/contracts/access/Ownable.sol\":2975:3099  {... */\n  pop\n    /* \"@openzeppelin/contracts/access/Ownable.sol\":2912:3099  function _transferOwnership(address newOwner) internal virtual {... */\n  pop\n  jump\t// out\n    /* \"#utility.yul\":14:191   */\ntag_23:\n    /* \"#utility.yul\":93:106   */\n  dup1\n  mload\n  sub(shl(0xa0, 0x01), 0x01)\n    /* \"#utility.yul\":135:166   */\n  dup2\n  and\n    /* \"#utility.yul\":125:167   */\n  dup2\n  eq\n    /* \"#utility.yul\":115:185   */\n  tag_26\n  jumpi\n    /* \"#utility.yul\":181:182   */\n  0x00\n    /* \"#utility.yul\":178:179   */\n  0x00\n    /* \"#utility.yul\":171:183   */\n  revert\n    /* \"#utility.yul\":115:185   */\ntag_26:\n    /* \"#utility.yul\":14:191   */\n  swap2\n  swap1\n  pop\n  jump\t// out\n    /* \"#utility.yul\":196:710   */\ntag_3:\n    /* \"#utility.yul\":293:299   */\n  0x00\n    /* \"#utility.yul\":301:307   */\n  0x00\n    /* \"#utility.yul\":309:315   */\n  0x00\n    /* \"#utility.yul\":317:323   */\n  0x00\n    /* \"#utility.yul\":370:373   */\n  0x80\n    /* \"#utility.yul\":358:367   */\n  dup6\n    /* \"#utility.yul\":349:356   */\n  dup8\n    /* \"#utility.yul\":345:368   */\n  sub\n    /* \"#utility.yul\":341:374   */\n  slt\n    /* \"#utility.yul\":338:391   */\n  iszero\n  tag_28\n  jumpi\n    /* \"#utility.yul\":387:388   */\n  0x00\n    /* \"#utility.yul\":384:385   */\n  0x00\n    /* \"#utility.yul\":377:389   */\n  revert\n    /* \"#utility.yul\":338:391   */\ntag_28:\n    /* \"#utility.yul\":410:450   */\n  tag_29\n    /* \"#utility.yul\":440:449   */\n  dup6\n    /* \"#utility.yul\":410:450   */\n  tag_23\n  jump\t// in\ntag_29:\n    /* \"#utility.yul\":512:514   */\n  0x20\n    /* \"#utility.yul\":497:515   */\n  dup7\n  add\n    /* \"#utility.yul\":491:516   */\n  mload\n    /* \"#utility.yul\":606:608   */\n  0x40\n    /* \"#utility.yul\":591:609   */\n  dup8\n  add\n    /* \"#utility.yul\":585:610   */\n  mload\n    /* \"#utility.yul\":400:450   */\n  swap2\n  swap6\n  pop\n    /* \"#utility.yul\":491:516   */\n  swap4\n  pop\n    /* \"#utility.yul\":585:610   */\n  swap2\n  pop\n    /* \"#utility.yul\":655:704   */\n  tag_30\n    /* \"#utility.yul\":700:702   */\n  0x60\n    /* \"#utility.yul\":685:703   */\n  dup7\n  add\n    /* \"#utility.yul\":655:704   */\n  tag_23\n  jump\t// in\ntag_30:\n    /* \"#utility.yul\":645:704   */\n  swap1\n  pop\n    /* \"#utility.yul\":196:710   */\n  swap3\n  swap6\n  swap2\n  swap5\n  pop\n  swap3\n  pop\n  jump\t// out\n    /* \"#utility.yul\":715:918   */\ntag_24:\n    /* \"hardhat/contracts/CanvassingSurvey.sol\":301:11347  contract CanvassingSurvey is Ownable, ReentrancyGuard, Pausable {... */\n  mload(0x80)\n  codecopy(0x00, dataOffset(sub_0), dataSize(sub_0))\n  0x00\n  assignImmutable(\"0x4ce4dab4689da140a0c12de1a6af6b8f679594aeb723205f513e052d27f5b26f\")\n  return(0x00, dataSize(sub_0))\nstop\n\nsub_0: assembly {\n        /* \"hardhat/contracts/CanvassingSurvey.sol\":301:11347  contract CanvassingSurvey is Ownable, ReentrancyGuard, Pausable {... */\n      mstore(0x40, 0x80)\n      callvalue\n      dup1\n      iszero\n      tag_1\n      jumpi\n      revert(0x00, 0x00)\n    tag_1:\n      pop\n      jumpi(tag_2, lt(calldatasize, 0x04))\n      shr(0xe0, calldataload(0x00))\n      dup1\n      0x85737020\n      gt\n      tag_27\n      jumpi\n      dup1\n      0xe082fe2a\n      gt\n      tag_28\n      jumpi\n      dup1\n      0xe082fe2a\n      eq\n      tag_21\n      jumpi\n      dup1\n      0xe3bb2d40\n      eq\n      tag_22\n      jumpi\n      dup1\n      0xe8a748e7\n      eq\n      tag_23\n      jumpi\n      dup1\n      0xf22069df\n      eq\n      tag_24\n      jumpi\n      dup1\n      0xf2fde38b\n      eq\n      tag_25\n      jumpi\n      dup1\n      0xfc05542a\n      eq\n      tag_26\n      jumpi\n      revert(0x00, 0x00)\n    tag_28:\n      dup1\n      0x85737020\n      eq\n      tag_15\n      jumpi\n      dup1\n      0x8da5cb5b\n      eq\n      tag_16\n      jumpi\n      dup1\n      0xa0858343\n      eq\n      tag_17\n      jumpi\n      dup1\n      0xa34db0a0\n      eq\n      tag_18\n      jumpi\n      dup1\n      0xa6a09811\n      eq\n      tag_19\n      jumpi\n      dup1\n      0xc9539f71\n      eq\n      tag_20\n      jumpi\n      revert(0x00, 0x00)\n    tag_27:\n      dup1\n      0x6ff65c20\n      gt\n      tag_29\n      jumpi\n      dup1\n      0x6ff65c20\n      eq\n      tag_9\n      jumpi\n      dup1\n      0x7069243c\n      eq\n      tag_10\n      jumpi\n      dup1\n      0x715018a6\n      eq\n      tag_11\n      jumpi\n      dup1\n      0x741ae614\n      eq\n      tag_12\n      jumpi\n      dup1\n      0x7a0abf08\n      eq\n      tag_13\n      jumpi\n      dup1\n      0x81aeb13b\n      eq\n      tag_14\n      jumpi\n      revert(0x00, 0x00)\n    tag_29:\n      dup1\n      0x1318fbf1\n      eq\n      tag_3\n      jumpi\n      dup1\n      0x1fccf672\n      eq\n      tag_4\n      jumpi\n      dup1\n      0x3960fc66\n      eq\n      tag_5\n      jumpi\n      dup1\n      0x528780cc\n      eq\n      tag_6\n      jumpi\n      dup1\n      0x5c975abb\n      eq\n      tag_7\n      jumpi\n      dup1\n      0x64bb632f\n      eq\n      tag_8\n      jumpi\n    tag_2:\n      revert(0x00, 0x00)\n        /* \"hardhat/contracts/CanvassingSurvey.sol\":650:693  uint256 public numberOfRewardedParticipants */\n    tag_3:\n      tag_30\n      sload(0x07)\n      dup2\n      jump\n    tag_30:\n      mload(0x40)\n        /* \"#utility.yul\":160:185   */\n      swap1\n      dup2\n      mstore\n        /* \"#utility.yul\":148:150   */\n      0x20\n        /* \"#utility.yul\":133:151   */\n      add\n        /* \"hardhat/contracts/CanvassingSurvey.sol\":650:693  uint256 public numberOfRewardedParticipants */\n    tag_32:\n      mload(0x40)\n      dup1\n      swap2\n      sub\n      swap1\n      return\n        /* \"hardhat/contracts/CanvassingSurvey.sol\":371:407  IERC20Metadata public immutable cUSD */\n    tag_4:\n      tag_34\n      immutable(\"0x4ce4dab4689da140a0c12de1a6af6b8f679594aeb723205f513e052d27f5b26f\")\n      dup2\n      jump\n    tag_34:\n      mload(0x40)\n      sub(shl(0xa0, 0x01), 0x01)\n        /* \"#utility.yul\":382:414   */\n      swap1\n      swap2\n      and\n        /* \"#utility.yul\":364:415   */\n      dup2\n      mstore\n        /* \"#utility.yul\":352:354   */\n      0x20\n        /* \"#utility.yul\":337:355   */\n      add\n        /* \"hardhat/contracts/CanvassingSurvey.sol\":371:407  IERC20Metadata public immutable cUSD */\n      tag_32\n        /* \"#utility.yul\":196:421   */\n      jump\n        /* \"hardhat/contracts/CanvassingSurvey.sol\":9402:9473  function unpauseSurvey() external onlyOwner {... */\n    tag_5:\n      tag_38\n      tag_39\n      jump\t// in\n    tag_38:\n      stop\n        /* \"hardhat/contracts/CanvassingSurvey.sol\":8712:9323  function updateTargetNumberOfParticipants(... */\n    tag_6:\n      tag_38\n      tag_41\n      calldatasize\n      0x04\n      tag_42\n      jump\t// in\n    tag_41:\n      tag_43\n      jump\t// in\n        /* \"@openzeppelin/contracts/utils/Pausable.sol\":1850:1934  function paused() public view virtual returns (bool) {... */\n    tag_7:\n        /* \"@openzeppelin/contracts/utils/Pausable.sol\":1920:1927  _paused */\n      and(0xff, sload(0x02))\n        /* \"@openzeppelin/contracts/utils/Pausable.sol\":1850:1934  function paused() public view virtual returns (bool) {... */\n    tag_44:\n      mload(0x40)\n        /* \"#utility.yul\":776:790   */\n      swap1\n      iszero\n        /* \"#utility.yul\":769:791   */\n      iszero\n        /* \"#utility.yul\":751:792   */\n      dup2\n      mstore\n        /* \"#utility.yul\":739:741   */\n      0x20\n        /* \"#utility.yul\":724:742   */\n      add\n        /* \"@openzeppelin/contracts/utils/Pausable.sol\":1850:1934  function paused() public view virtual returns (bool) {... */\n      tag_32\n        /* \"#utility.yul\":611:798   */\n      jump\n        /* \"hardhat/contracts/CanvassingSurvey.sol\":8070:8706  function updateRewardAmountPerParticipant(... */\n    tag_8:\n      tag_38\n      tag_49\n      calldatasize\n      0x04\n      tag_42\n      jump\t// in\n    tag_49:\n      tag_50\n      jump\t// in\n        /* \"hardhat/contracts/CanvassingSurvey.sol\":10459:10662  function checkIfParticipantHasAlreadyClaimedReward(address walletAddress)... */\n    tag_9:\n      tag_44\n      tag_52\n      calldatasize\n      0x04\n      tag_53\n      jump\t// in\n    tag_52:\n      sub(shl(0xa0, 0x01), 0x01)\n        /* \"hardhat/contracts/CanvassingSurvey.sol\":10607:10655  participantsWhoHaveClaimedRewards[walletAddress] */\n      and\n        /* \"hardhat/contracts/CanvassingSurvey.sol\":10580:10584  bool */\n      0x00\n        /* \"hardhat/contracts/CanvassingSurvey.sol\":10607:10655  participantsWhoHaveClaimedRewards[walletAddress] */\n      swap1\n      dup2\n      mstore\n        /* \"hardhat/contracts/CanvassingSurvey.sol\":10607:10640  participantsWhoHaveClaimedRewards */\n      0x04\n        /* \"hardhat/contracts/CanvassingSurvey.sol\":10607:10655  participantsWhoHaveClaimedRewards[walletAddress] */\n      0x20\n      mstore\n      0x40\n      swap1\n      keccak256\n      sload\n      0xff\n      and\n      swap1\n        /* \"hardhat/contracts/CanvassingSurvey.sol\":10459:10662  function checkIfParticipantHasAlreadyClaimedReward(address walletAddress)... */\n      jump\n        /* \"hardhat/contracts/CanvassingSurvey.sol\":11051:11212  function getRewardAmountPerParticipantInWei()... */\n    tag_10:\n        /* \"hardhat/contracts/CanvassingSurvey.sol\":11174:11205  rewardAmountPerParticipantInWei */\n      sload(0x05)\n        /* \"hardhat/contracts/CanvassingSurvey.sol\":11051:11212  function getRewardAmountPerParticipantInWei()... */\n      jump(tag_30)\n        /* \"@openzeppelin/contracts/access/Ownable.sol\":2293:2394  function renounceOwnership() public virtual onlyOwner {... */\n    tag_11:\n      tag_38\n      tag_60\n      jump\t// in\n        /* \"hardhat/contracts/CanvassingSurvey.sol\":11218:11345  function getNumberOfRewardedParticipants() external view returns (uint256) {... */\n    tag_12:\n        /* \"hardhat/contracts/CanvassingSurvey.sol\":11310:11338  numberOfRewardedParticipants */\n      sload(0x07)\n        /* \"hardhat/contracts/CanvassingSurvey.sol\":11218:11345  function getNumberOfRewardedParticipants() external view returns (uint256) {... */\n      jump(tag_30)\n        /* \"hardhat/contracts/CanvassingSurvey.sol\":551:597  uint256 public rewardAmountPerParticipantInWei */\n    tag_13:\n      tag_30\n      sload(0x05)\n      dup2\n      jump\n        /* \"hardhat/contracts/CanvassingSurvey.sol\":4510:5371  function whitelistMultipleAddresses(address[] calldata walletAddresses)... */\n    tag_14:\n      tag_38\n      tag_68\n      calldatasize\n      0x04\n      tag_69\n      jump\t// in\n    tag_68:\n      tag_70\n      jump\t// in\n        /* \"hardhat/contracts/CanvassingSurvey.sol\":10859:11045  function checkIfUserAddressIsBlacklisted(address walletAddress)... */\n    tag_15:\n      tag_44\n      tag_72\n      calldatasize\n      0x04\n      tag_53\n      jump\t// in\n    tag_72:\n      sub(shl(0xa0, 0x01), 0x01)\n        /* \"hardhat/contracts/CanvassingSurvey.sol\":10998:11038  usersWhitelistedForSurvey[walletAddress] */\n      and\n        /* \"hardhat/contracts/CanvassingSurvey.sol\":10970:10974  bool */\n      0x00\n        /* \"hardhat/contracts/CanvassingSurvey.sol\":10998:11038  usersWhitelistedForSurvey[walletAddress] */\n      swap1\n      dup2\n      mstore\n        /* \"hardhat/contracts/CanvassingSurvey.sol\":10998:11023  usersWhitelistedForSurvey */\n      0x03\n        /* \"hardhat/contracts/CanvassingSurvey.sol\":10998:11038  usersWhitelistedForSurvey[walletAddress] */\n      0x20\n      mstore\n      0x40\n      swap1\n      keccak256\n      sload\n      0xff\n      and\n        /* \"hardhat/contracts/CanvassingSurvey.sol\":10997:11038  !usersWhitelistedForSurvey[walletAddress] */\n      iszero\n      swap1\n        /* \"hardhat/contracts/CanvassingSurvey.sol\":10859:11045  function checkIfUserAddressIsBlacklisted(address walletAddress)... */\n      jump\n        /* \"@openzeppelin/contracts/access/Ownable.sol\":1638:1723  function owner() public view virtual returns (address) {... */\n    tag_16:\n        /* \"@openzeppelin/contracts/access/Ownable.sol\":1684:1691  address */\n      0x00\n        /* \"@openzeppelin/contracts/access/Ownable.sol\":1710:1716  _owner */\n      sload\n      sub(shl(0xa0, 0x01), 0x01)\n      and\n        /* \"@openzeppelin/contracts/access/Ownable.sol\":1638:1723  function owner() public view virtual returns (address) {... */\n      jump(tag_34)\n        /* \"hardhat/contracts/CanvassingSurvey.sol\":6257:6730  function processRewardClaimByParticipant(address walletAddress)... */\n    tag_17:\n      tag_38\n      tag_80\n      calldatasize\n      0x04\n      tag_53\n      jump\t// in\n    tag_80:\n      tag_81\n      jump\t// in\n        /* \"hardhat/contracts/CanvassingSurvey.sol\":9479:10453  function getWhitelistedAddressesFromRegisteredAddresses(... */\n    tag_18:\n      tag_82\n      tag_83\n      calldatasize\n      0x04\n      tag_69\n      jump\t// in\n    tag_83:\n      tag_84\n      jump\t// in\n    tag_82:\n      mload(0x40)\n      tag_32\n      swap2\n      swap1\n      tag_86\n      jump\t// in\n        /* \"hardhat/contracts/CanvassingSurvey.sol\":603:644  uint256 public targetNumberOfParticipants */\n    tag_19:\n      tag_30\n      sload(0x06)\n      dup2\n      jump\n        /* \"hardhat/contracts/CanvassingSurvey.sol\":5377:6251  function blacklistMultipleWhitelistedAddresses(... */\n    tag_20:\n      tag_38\n      tag_91\n      calldatasize\n      0x04\n      tag_69\n      jump\t// in\n    tag_91:\n      tag_92\n      jump\t// in\n        /* \"hardhat/contracts/CanvassingSurvey.sol\":9329:9396  function pauseSurvey() external onlyOwner {... */\n    tag_21:\n      tag_38\n      tag_94\n      jump\t// in\n        /* \"hardhat/contracts/CanvassingSurvey.sol\":4143:4504  function blacklistOneWhitelistedAddress(address walletAddress)... */\n    tag_22:\n      tag_38\n      tag_96\n      calldatasize\n      0x04\n      tag_53\n      jump\t// in\n    tag_96:\n      tag_97\n      jump\t// in\n        /* \"hardhat/contracts/CanvassingSurvey.sol\":3799:4137  function whitelistOneAddress(address walletAddress)... */\n    tag_23:\n      tag_38\n      tag_99\n      calldatasize\n      0x04\n      tag_53\n      jump\t// in\n    tag_99:\n      tag_100\n      jump\t// in\n        /* \"hardhat/contracts/CanvassingSurvey.sol\":7616:8064  function withdrawAllRewardFundsToResearcher()... */\n    tag_24:\n      tag_38\n      tag_102\n      jump\t// in\n        /* \"@openzeppelin/contracts/access/Ownable.sol\":2543:2758  function transferOwnership(address newOwner) public virtual onlyOwner {... */\n    tag_25:\n      tag_38\n      tag_104\n      calldatasize\n      0x04\n      tag_53\n      jump\t// in\n    tag_104:\n      tag_105\n      jump\t// in\n        /* \"hardhat/contracts/CanvassingSurvey.sol\":10668:10853  function checkIfUserAddressIsWhitelisted(address walletAddress)... */\n    tag_26:\n      tag_44\n      tag_107\n      calldatasize\n      0x04\n      tag_53\n      jump\t// in\n    tag_107:\n      sub(shl(0xa0, 0x01), 0x01)\n        /* \"hardhat/contracts/CanvassingSurvey.sol\":10806:10846  usersWhitelistedForSurvey[walletAddress] */\n      and\n        /* \"hardhat/contracts/CanvassingSurvey.sol\":10779:10783  bool */\n      0x00\n        /* \"hardhat/contracts/CanvassingSurvey.sol\":10806:10846  usersWhitelistedForSurvey[walletAddress] */\n      swap1\n      dup2\n      mstore\n        /* \"hardhat/contracts/CanvassingSurvey.sol\":10806:10831  usersWhitelistedForSurvey */\n      0x03\n        /* \"hardhat/contracts/CanvassingSurvey.sol\":10806:10846  usersWhitelistedForSurvey[walletAddress] */\n      0x20\n      mstore\n      0x40\n      swap1\n      keccak256\n      sload\n      0xff\n      and\n      swap1\n        /* \"hardhat/contracts/CanvassingSurvey.sol\":10668:10853  function checkIfUserAddressIsWhitelisted(address walletAddress)... */\n      jump\n        /* \"hardhat/contracts/CanvassingSurvey.sol\":9402:9473  function unpauseSurvey() external onlyOwner {... */\n    tag_39:\n        /* \"@openzeppelin/contracts/access/Ownable.sol\":1531:1544  _checkOwner() */\n      tag_111\n        /* \"@openzeppelin/contracts/access/Ownable.sol\":1531:1542  _checkOwner */\n      tag_112\n        /* \"@openzeppelin/contracts/access/Ownable.sol\":1531:1544  _checkOwner() */\n      jump\t// in\n    tag_111:\n        /* \"hardhat/contracts/CanvassingSurvey.sol\":9456:9466  _unpause() */\n      tag_114\n        /* \"hardhat/contracts/CanvassingSurvey.sol\":9456:9464  _unpause */\n      tag_115\n        /* \"hardhat/contracts/CanvassingSurvey.sol\":9456:9466  _unpause() */\n      jump\t// in\n    tag_114:\n        /* \"hardhat/contracts/CanvassingSurvey.sol\":9402:9473  function unpauseSurvey() external onlyOwner {... */\n      jump\t// out\n        /* \"hardhat/contracts/CanvassingSurvey.sol\":8712:9323  function updateTargetNumberOfParticipants(... */\n    tag_43:\n        /* \"@openzeppelin/contracts/access/Ownable.sol\":1531:1544  _checkOwner() */\n      tag_117\n        /* \"@openzeppelin/contracts/access/Ownable.sol\":1531:1542  _checkOwner */\n      tag_112\n        /* \"@openzeppelin/contracts/access/Ownable.sol\":1531:1544  _checkOwner() */\n      jump\t// in\n    tag_117:\n        /* \"hardhat/contracts/CanvassingSurvey.sol\":8841:8871  _newTargetNumberOfParticipants */\n      dup1\n        /* \"hardhat/contracts/CanvassingSurvey.sol\":8875:8876  0 */\n      0x00\n        /* \"hardhat/contracts/CanvassingSurvey.sol\":8841:8876  _newTargetNumberOfParticipants == 0 */\n      sub\n        /* \"hardhat/contracts/CanvassingSurvey.sol\":8837:8945  if (_newTargetNumberOfParticipants == 0) {... */\n      tag_119\n      jumpi\n        /* \"hardhat/contracts/CanvassingSurvey.sol\":8899:8934  InvalidNumberOfTargetParticipants() */\n      mload(0x40)\n      shl(0xe2, 0x36c5eec7)\n      dup2\n      mstore\n      0x04\n      add\n      mload(0x40)\n      dup1\n      swap2\n      sub\n      swap1\n      revert\n        /* \"hardhat/contracts/CanvassingSurvey.sol\":8837:8945  if (_newTargetNumberOfParticipants == 0) {... */\n    tag_119:\n        /* \"hardhat/contracts/CanvassingSurvey.sol\":8995:9021  targetNumberOfParticipants */\n      0x06\n      dup1\n      sload\n        /* \"hardhat/contracts/CanvassingSurvey.sol\":9113:9171  targetNumberOfParticipants = newTargetNumberOfParticipants */\n      swap1\n      dup3\n      swap1\n      sstore\n        /* \"hardhat/contracts/CanvassingSurvey.sol\":9187:9316  TargetNumberOfParticipantsUpdates(... */\n      0x40\n      dup1\n      mload\n        /* \"#utility.yul\":2811:2836   */\n      dup3\n      dup2\n      mstore\n        /* \"#utility.yul\":2867:2869   */\n      0x20\n        /* \"#utility.yul\":2852:2870   */\n      dup2\n      add\n        /* \"#utility.yul\":2845:2879   */\n      dup5\n      swap1\n      mstore\n        /* \"hardhat/contracts/CanvassingSurvey.sol\":9113:9171  targetNumberOfParticipants = newTargetNumberOfParticipants */\n      dup4\n      swap2\n        /* \"hardhat/contracts/CanvassingSurvey.sol\":9187:9316  TargetNumberOfParticipantsUpdates(... */\n      0x2e31e8893a04ce5258044d342d7658948a6ac9710d97e32462ab75f131ae11ef\n      swap2\n        /* \"#utility.yul\":2784:2802   */\n      add\n        /* \"hardhat/contracts/CanvassingSurvey.sol\":9187:9316  TargetNumberOfParticipantsUpdates(... */\n    tag_120:\n      mload(0x40)\n      dup1\n      swap2\n      sub\n      swap1\n      log1\n        /* \"hardhat/contracts/CanvassingSurvey.sol\":8827:9323  {... */\n      pop\n      pop\n        /* \"hardhat/contracts/CanvassingSurvey.sol\":8712:9323  function updateTargetNumberOfParticipants(... */\n      pop\n      jump\t// out\n        /* \"hardhat/contracts/CanvassingSurvey.sol\":8070:8706  function updateRewardAmountPerParticipant(... */\n    tag_50:\n        /* \"@openzeppelin/contracts/access/Ownable.sol\":1531:1544  _checkOwner() */\n      tag_124\n        /* \"@openzeppelin/contracts/access/Ownable.sol\":1531:1542  _checkOwner */\n      tag_112\n        /* \"@openzeppelin/contracts/access/Ownable.sol\":1531:1544  _checkOwner() */\n      jump\t// in\n    tag_124:\n        /* \"hardhat/contracts/CanvassingSurvey.sol\":8204:8239  _newRewardAmountPerParticipantInWei */\n      dup1\n        /* \"hardhat/contracts/CanvassingSurvey.sol\":8243:8244  0 */\n      0x00\n        /* \"hardhat/contracts/CanvassingSurvey.sol\":8204:8244  _newRewardAmountPerParticipantInWei == 0 */\n      sub\n        /* \"hardhat/contracts/CanvassingSurvey.sol\":8200:8304  if (_newRewardAmountPerParticipantInWei == 0) {... */\n      tag_126\n      jumpi\n        /* \"hardhat/contracts/CanvassingSurvey.sol\":8267:8293  InvalidRewardAmountGiven() */\n      mload(0x40)\n      shl(0xe4, 0x0d428a01)\n      dup2\n      mstore\n      0x04\n      add\n      mload(0x40)\n      dup1\n      swap2\n      sub\n      swap1\n      revert\n        /* \"hardhat/contracts/CanvassingSurvey.sol\":8200:8304  if (_newRewardAmountPerParticipantInWei == 0) {... */\n    tag_126:\n        /* \"hardhat/contracts/CanvassingSurvey.sol\":8358:8389  rewardAmountPerParticipantInWei */\n      0x05\n      dup1\n      sload\n        /* \"hardhat/contracts/CanvassingSurvey.sol\":8490:8558  rewardAmountPerParticipantInWei = newRewardAmountPerParticipantInWei */\n      swap1\n      dup3\n      swap1\n      sstore\n        /* \"hardhat/contracts/CanvassingSurvey.sol\":8574:8699  RewardAmountUpdated(... */\n      0x40\n      dup1\n      mload\n        /* \"#utility.yul\":2811:2836   */\n      dup3\n      dup2\n      mstore\n        /* \"#utility.yul\":2867:2869   */\n      0x20\n        /* \"#utility.yul\":2852:2870   */\n      dup2\n      add\n        /* \"#utility.yul\":2845:2879   */\n      dup5\n      swap1\n      mstore\n        /* \"hardhat/contracts/CanvassingSurvey.sol\":8490:8558  rewardAmountPerParticipantInWei = newRewardAmountPerParticipantInWei */\n      dup4\n      swap2\n        /* \"hardhat/contracts/CanvassingSurvey.sol\":8574:8699  RewardAmountUpdated(... */\n      0xf0d37c3ae852021ac329281f604b658691cbfa6b9e9c22909f06b64a8ce87c94\n      swap2\n        /* \"#utility.yul\":2784:2802   */\n      add\n        /* \"hardhat/contracts/CanvassingSurvey.sol\":8574:8699  RewardAmountUpdated(... */\n      tag_120\n        /* \"#utility.yul\":2637:2885   */\n      jump\n        /* \"@openzeppelin/contracts/access/Ownable.sol\":2293:2394  function renounceOwnership() public virtual onlyOwner {... */\n    tag_60:\n        /* \"@openzeppelin/contracts/access/Ownable.sol\":1531:1544  _checkOwner() */\n      tag_131\n        /* \"@openzeppelin/contracts/access/Ownable.sol\":1531:1542  _checkOwner */\n      tag_112\n        /* \"@openzeppelin/contracts/access/Ownable.sol\":1531:1544  _checkOwner() */\n      jump\t// in\n    tag_131:\n        /* \"@openzeppelin/contracts/access/Ownable.sol\":2357:2387  _transferOwnership(address(0)) */\n      tag_114\n        /* \"@openzeppelin/contracts/access/Ownable.sol\":2384:2385  0 */\n      0x00\n        /* \"@openzeppelin/contracts/access/Ownable.sol\":2357:2375  _transferOwnership */\n      tag_134\n        /* \"@openzeppelin/contracts/access/Ownable.sol\":2357:2387  _transferOwnership(address(0)) */\n      jump\t// in\n        /* \"hardhat/contracts/CanvassingSurvey.sol\":4510:5371  function whitelistMultipleAddresses(address[] calldata walletAddresses)... */\n    tag_70:\n        /* \"@openzeppelin/contracts/access/Ownable.sol\":1531:1544  _checkOwner() */\n      tag_137\n        /* \"@openzeppelin/contracts/access/Ownable.sol\":1531:1542  _checkOwner */\n      tag_112\n        /* \"@openzeppelin/contracts/access/Ownable.sol\":1531:1544  _checkOwner() */\n      jump\t// in\n    tag_137:\n        /* \"hardhat/contracts/CanvassingSurvey.sol\":4648:4663  walletAddresses */\n      dup1\n        /* \"hardhat/contracts/CanvassingSurvey.sol\":4631:4645  uint256 length */\n      0x00\n        /* \"hardhat/contracts/CanvassingSurvey.sol\":4684:4695  length == 0 */\n      dup2\n      swap1\n      sub\n        /* \"hardhat/contracts/CanvassingSurvey.sol\":4680:4749  if (length == 0) {... */\n      tag_139\n      jumpi\n        /* \"hardhat/contracts/CanvassingSurvey.sol\":4718:4738  InvalidArrayLength() */\n      mload(0x40)\n      shl(0xe1, 0x4ec48105)\n      dup2\n      mstore\n      0x04\n      add\n      mload(0x40)\n      dup1\n      swap2\n      sub\n      swap1\n      revert\n        /* \"hardhat/contracts/CanvassingSurvey.sol\":4680:4749  if (length == 0) {... */\n    tag_139:\n        /* \"hardhat/contracts/CanvassingSurvey.sol\":4764:4773  uint256 i */\n      0x00\n        /* \"hardhat/contracts/CanvassingSurvey.sol\":4759:5120  for (uint256 i = 0; i < length; ) {... */\n    tag_140:\n        /* \"hardhat/contracts/CanvassingSurvey.sol\":4783:4789  length */\n      dup2\n        /* \"hardhat/contracts/CanvassingSurvey.sol\":4779:4780  i */\n      dup2\n        /* \"hardhat/contracts/CanvassingSurvey.sol\":4779:4789  i < length */\n      lt\n        /* \"hardhat/contracts/CanvassingSurvey.sol\":4759:5120  for (uint256 i = 0; i < length; ) {... */\n      iszero\n      tag_141\n      jumpi\n        /* \"hardhat/contracts/CanvassingSurvey.sol\":4841:4842  0 */\n      0x00\n        /* \"hardhat/contracts/CanvassingSurvey.sol\":4811:4826  walletAddresses */\n      dup5\n      dup5\n        /* \"hardhat/contracts/CanvassingSurvey.sol\":4827:4828  i */\n      dup4\n        /* \"hardhat/contracts/CanvassingSurvey.sol\":4811:4829  walletAddresses[i] */\n      dup2\n      dup2\n      lt\n      tag_144\n      jumpi\n      tag_144\n      tag_145\n      jump\t// in\n    tag_144:\n      swap1\n      pop\n      0x20\n      mul\n      add\n      0x20\n      dup2\n      add\n      swap1\n      tag_146\n      swap2\n      swap1\n      tag_53\n      jump\t// in\n    tag_146:\n      sub(shl(0xa0, 0x01), 0x01)\n        /* \"hardhat/contracts/CanvassingSurvey.sol\":4811:4843  walletAddresses[i] == address(0) */\n      and\n      sub\n        /* \"hardhat/contracts/CanvassingSurvey.sol\":4807:4898  if (walletAddresses[i] == address(0)) {... */\n      tag_147\n      jumpi\n        /* \"hardhat/contracts/CanvassingSurvey.sol\":4870:4883  ZeroAddress() */\n      mload(0x40)\n      shl(0xe0, 0xd92e233d)\n      dup2\n      mstore\n      0x04\n      add\n      mload(0x40)\n      dup1\n      swap2\n      sub\n      swap1\n      revert\n        /* \"hardhat/contracts/CanvassingSurvey.sol\":4807:4898  if (walletAddresses[i] == address(0)) {... */\n    tag_147:\n        /* \"hardhat/contracts/CanvassingSurvey.sol\":4915:4940  usersWhitelistedForSurvey */\n      0x03\n        /* \"hardhat/contracts/CanvassingSurvey.sol\":4915:4960  usersWhitelistedForSurvey[walletAddresses[i]] */\n      0x00\n        /* \"hardhat/contracts/CanvassingSurvey.sol\":4941:4956  walletAddresses */\n      dup6\n      dup6\n        /* \"hardhat/contracts/CanvassingSurvey.sol\":4957:4958  i */\n      dup5\n        /* \"hardhat/contracts/CanvassingSurvey.sol\":4941:4959  walletAddresses[i] */\n      dup2\n      dup2\n      lt\n      tag_149\n      jumpi\n      tag_149\n      tag_145\n      jump\t// in\n    tag_149:\n      swap1\n      pop\n      0x20\n      mul\n      add\n      0x20\n      dup2\n      add\n      swap1\n      tag_150\n      swap2\n      swap1\n      tag_53\n      jump\t// in\n    tag_150:\n      sub(shl(0xa0, 0x01), 0x01)\n        /* \"hardhat/contracts/CanvassingSurvey.sol\":4915:4960  usersWhitelistedForSurvey[walletAddresses[i]] */\n      and\n      dup2\n      mstore\n      0x20\n      dup2\n      add\n      swap2\n      swap1\n      swap2\n      mstore\n      0x40\n      add\n      0x00\n      keccak256\n      sload\n      0xff\n      and\n        /* \"hardhat/contracts/CanvassingSurvey.sol\":4911:5051  if (usersWhitelistedForSurvey[walletAddresses[i]]) {... */\n      iszero\n      tag_151\n      jumpi\n        /* \"hardhat/contracts/CanvassingSurvey.sol\":5017:5032  walletAddresses */\n      dup4\n      dup4\n        /* \"hardhat/contracts/CanvassingSurvey.sol\":5033:5034  i */\n      dup3\n        /* \"hardhat/contracts/CanvassingSurvey.sol\":5017:5035  walletAddresses[i] */\n      dup2\n      dup2\n      lt\n      tag_153\n      jumpi\n      tag_153\n      tag_145\n      jump\t// in\n    tag_153:\n      swap1\n      pop\n      0x20\n      mul\n      add\n      0x20\n      dup2\n      add\n      swap1\n      tag_154\n      swap2\n      swap1\n      tag_53\n      jump\t// in\n    tag_154:\n        /* \"hardhat/contracts/CanvassingSurvey.sol\":4987:5036  UserAddressAlreadyWhitelisted(walletAddresses[i]) */\n      mload(0x40)\n      shl(0xe1, 0x3746725b)\n      dup2\n      mstore\n      sub(shl(0xa0, 0x01), 0x01)\n        /* \"#utility.yul\":382:414   */\n      swap1\n      swap2\n      and\n        /* \"hardhat/contracts/CanvassingSurvey.sol\":4987:5036  UserAddressAlreadyWhitelisted(walletAddresses[i]) */\n      0x04\n      dup3\n      add\n        /* \"#utility.yul\":364:415   */\n      mstore\n        /* \"#utility.yul\":337:355   */\n      0x24\n      add\n        /* \"hardhat/contracts/CanvassingSurvey.sol\":4987:5036  UserAddressAlreadyWhitelisted(walletAddresses[i]) */\n    tag_155:\n      mload(0x40)\n      dup1\n      swap2\n      sub\n      swap1\n      revert\n        /* \"hardhat/contracts/CanvassingSurvey.sol\":4911:5051  if (usersWhitelistedForSurvey[walletAddresses[i]]) {... */\n    tag_151:\n        /* \"hardhat/contracts/CanvassingSurvey.sol\":5092:5095  ++i */\n      0x01\n      add\n        /* \"hardhat/contracts/CanvassingSurvey.sol\":4759:5120  for (uint256 i = 0; i < length; ) {... */\n      jump(tag_140)\n    tag_141:\n      pop\n        /* \"hardhat/contracts/CanvassingSurvey.sol\":5135:5144  uint256 i */\n      0x00\n        /* \"hardhat/contracts/CanvassingSurvey.sol\":5130:5300  for (uint256 i = 0; i < length; ) {... */\n    tag_156:\n        /* \"hardhat/contracts/CanvassingSurvey.sol\":5154:5160  length */\n      dup2\n        /* \"hardhat/contracts/CanvassingSurvey.sol\":5150:5151  i */\n      dup2\n        /* \"hardhat/contracts/CanvassingSurvey.sol\":5150:5160  i < length */\n      lt\n        /* \"hardhat/contracts/CanvassingSurvey.sol\":5130:5300  for (uint256 i = 0; i < length; ) {... */\n      iszero\n      tag_157\n      jumpi\n        /* \"hardhat/contracts/CanvassingSurvey.sol\":5226:5230  true */\n      0x01\n        /* \"hardhat/contracts/CanvassingSurvey.sol\":5178:5203  usersWhitelistedForSurvey */\n      0x03\n        /* \"hardhat/contracts/CanvassingSurvey.sol\":5178:5223  usersWhitelistedForSurvey[walletAddresses[i]] */\n      0x00\n        /* \"hardhat/contracts/CanvassingSurvey.sol\":5204:5219  walletAddresses */\n      dup7\n      dup7\n        /* \"hardhat/contracts/CanvassingSurvey.sol\":5220:5221  i */\n      dup6\n        /* \"hardhat/contracts/CanvassingSurvey.sol\":5204:5222  walletAddresses[i] */\n      dup2\n      dup2\n      lt\n      tag_160\n      jumpi\n      tag_160\n      tag_145\n      jump\t// in\n    tag_160:\n      swap1\n      pop\n      0x20\n      mul\n      add\n      0x20\n      dup2\n      add\n      swap1\n      tag_161\n      swap2\n      swap1\n      tag_53\n      jump\t// in\n    tag_161:\n      sub(shl(0xa0, 0x01), 0x01)\n        /* \"hardhat/contracts/CanvassingSurvey.sol\":5178:5223  usersWhitelistedForSurvey[walletAddresses[i]] */\n      and\n      dup2\n      mstore\n      0x20\n      dup2\n      add\n      swap2\n      swap1\n      swap2\n      mstore\n      0x40\n      add\n      0x00\n      keccak256\n        /* \"hardhat/contracts/CanvassingSurvey.sol\":5178:5230  usersWhitelistedForSurvey[walletAddresses[i]] = true */\n      dup1\n      sload\n      not(0xff)\n      and\n      swap2\n      iszero\n      iszero\n      swap2\n      swap1\n      swap2\n      or\n      swap1\n      sstore\n      0x01\n        /* \"hardhat/contracts/CanvassingSurvey.sol\":5272:5275  ++i */\n      add\n        /* \"hardhat/contracts/CanvassingSurvey.sol\":5130:5300  for (uint256 i = 0; i < length; ) {... */\n      jump(tag_156)\n    tag_157:\n      pop\n        /* \"hardhat/contracts/CanvassingSurvey.sol\":5315:5364  MultipleUserAddressesWhitelisted(walletAddresses) */\n      0x9a9f2a64a3b0b4774da60129aa707715e049cb95062f7acaaffc07ddc244c1cc\n        /* \"hardhat/contracts/CanvassingSurvey.sol\":5348:5363  walletAddresses */\n      dup4\n      dup4\n        /* \"hardhat/contracts/CanvassingSurvey.sol\":5315:5364  MultipleUserAddressesWhitelisted(walletAddresses) */\n      mload(0x40)\n      tag_120\n      swap3\n      swap2\n      swap1\n      tag_163\n      jump\t// in\n        /* \"hardhat/contracts/CanvassingSurvey.sol\":6257:6730  function processRewardClaimByParticipant(address walletAddress)... */\n    tag_81:\n        /* \"@openzeppelin/contracts/utils/Pausable.sol\":1474:1493  _requireNotPaused() */\n      tag_167\n        /* \"@openzeppelin/contracts/utils/Pausable.sol\":1474:1491  _requireNotPaused */\n      tag_168\n        /* \"@openzeppelin/contracts/utils/Pausable.sol\":1474:1493  _requireNotPaused() */\n      jump\t// in\n    tag_167:\n        /* \"@openzeppelin/contracts/utils/ReentrancyGuard.sol\":2500:2521  _nonReentrantBefore() */\n      tag_170\n        /* \"@openzeppelin/contracts/utils/ReentrancyGuard.sol\":2500:2519  _nonReentrantBefore */\n      tag_171\n        /* \"@openzeppelin/contracts/utils/ReentrancyGuard.sol\":2500:2521  _nonReentrantBefore() */\n      jump\t// in\n    tag_170:\n      sub(shl(0xa0, 0x01), 0x01)\n        /* \"hardhat/contracts/CanvassingSurvey.sol\":2189:2229  usersWhitelistedForSurvey[walletAddress] */\n      dup2\n      and\n      0x00\n      swap1\n      dup2\n      mstore\n        /* \"hardhat/contracts/CanvassingSurvey.sol\":2189:2214  usersWhitelistedForSurvey */\n      0x03\n        /* \"hardhat/contracts/CanvassingSurvey.sol\":2189:2229  usersWhitelistedForSurvey[walletAddress] */\n      0x20\n      mstore\n      0x40\n      swap1\n      keccak256\n      sload\n        /* \"hardhat/contracts/CanvassingSurvey.sol\":6412:6425  walletAddress */\n      dup2\n      swap1\n        /* \"hardhat/contracts/CanvassingSurvey.sol\":2189:2229  usersWhitelistedForSurvey[walletAddress] */\n      0xff\n      and\n        /* \"hardhat/contracts/CanvassingSurvey.sol\":2184:2303  if (!usersWhitelistedForSurvey[walletAddress]) {... */\n      tag_173\n      jumpi\n        /* \"hardhat/contracts/CanvassingSurvey.sol\":2252:2292  UserAddressNotWhitelisted(walletAddress) */\n      mload(0x40)\n      shl(0xe0, 0xde55cc33)\n      dup2\n      mstore\n      sub(shl(0xa0, 0x01), 0x01)\n        /* \"#utility.yul\":382:414   */\n      dup3\n      and\n        /* \"hardhat/contracts/CanvassingSurvey.sol\":2252:2292  UserAddressNotWhitelisted(walletAddress) */\n      0x04\n      dup3\n      add\n        /* \"#utility.yul\":364:415   */\n      mstore\n        /* \"#utility.yul\":337:355   */\n      0x24\n      add\n        /* \"hardhat/contracts/CanvassingSurvey.sol\":2252:2292  UserAddressNotWhitelisted(walletAddress) */\n      tag_155\n        /* \"#utility.yul\":196:421   */\n      jump\n        /* \"hardhat/contracts/CanvassingSurvey.sol\":2184:2303  if (!usersWhitelistedForSurvey[walletAddress]) {... */\n    tag_173:\n      sub(shl(0xa0, 0x01), 0x01)\n        /* \"hardhat/contracts/CanvassingSurvey.sol\":2814:2873  participantsWhoHaveClaimedRewards[participantWalletAddress] */\n      dup3\n      and\n      0x00\n      swap1\n      dup2\n      mstore\n        /* \"hardhat/contracts/CanvassingSurvey.sol\":2814:2847  participantsWhoHaveClaimedRewards */\n      0x04\n        /* \"hardhat/contracts/CanvassingSurvey.sol\":2814:2873  participantsWhoHaveClaimedRewards[participantWalletAddress] */\n      0x20\n      mstore\n      0x40\n      swap1\n      keccak256\n      sload\n        /* \"hardhat/contracts/CanvassingSurvey.sol\":6461:6474  walletAddress */\n      dup3\n      swap1\n        /* \"hardhat/contracts/CanvassingSurvey.sol\":2814:2873  participantsWhoHaveClaimedRewards[participantWalletAddress] */\n      0xff\n      and\n        /* \"hardhat/contracts/CanvassingSurvey.sol\":2810:2959  if (participantsWhoHaveClaimedRewards[participantWalletAddress]) {... */\n      iszero\n      tag_176\n      jumpi\n        /* \"hardhat/contracts/CanvassingSurvey.sol\":2896:2948  ParticipantAlreadyRewarded(participantWalletAddress) */\n      mload(0x40)\n      shl(0xe3, 0x01ee5f6f)\n      dup2\n      mstore\n      sub(shl(0xa0, 0x01), 0x01)\n        /* \"#utility.yul\":382:414   */\n      dup3\n      and\n        /* \"hardhat/contracts/CanvassingSurvey.sol\":2896:2948  ParticipantAlreadyRewarded(participantWalletAddress) */\n      0x04\n      dup3\n      add\n        /* \"#utility.yul\":364:415   */\n      mstore\n        /* \"#utility.yul\":337:355   */\n      0x24\n      add\n        /* \"hardhat/contracts/CanvassingSurvey.sol\":2896:2948  ParticipantAlreadyRewarded(participantWalletAddress) */\n      tag_155\n        /* \"#utility.yul\":196:421   */\n      jump\n        /* \"hardhat/contracts/CanvassingSurvey.sol\":2810:2959  if (participantsWhoHaveClaimedRewards[participantWalletAddress]) {... */\n    tag_176:\n        /* \"hardhat/contracts/CanvassingSurvey.sol\":6526:6557  rewardAmountPerParticipantInWei */\n      sload(0x05)\n        /* \"hardhat/contracts/CanvassingSurvey.sol\":6494:6523  cUSD.balanceOf(address(this)) */\n      mload(0x40)\n      shl(0xe0, 0x70a08231)\n      dup2\n      mstore\n        /* \"hardhat/contracts/CanvassingSurvey.sol\":6517:6521  this */\n      address\n        /* \"hardhat/contracts/CanvassingSurvey.sol\":6494:6523  cUSD.balanceOf(address(this)) */\n      0x04\n      dup3\n      add\n        /* \"#utility.yul\":364:415   */\n      mstore\n        /* \"hardhat/contracts/CanvassingSurvey.sol\":6494:6498  cUSD */\n      immutable(\"0x4ce4dab4689da140a0c12de1a6af6b8f679594aeb723205f513e052d27f5b26f\")\n      sub(shl(0xa0, 0x01), 0x01)\n        /* \"hardhat/contracts/CanvassingSurvey.sol\":6494:6508  cUSD.balanceOf */\n      and\n      swap1\n      0x70a08231\n      swap1\n        /* \"#utility.yul\":337:355   */\n      0x24\n      add\n        /* \"hardhat/contracts/CanvassingSurvey.sol\":6494:6523  cUSD.balanceOf(address(this)) */\n      0x20\n      mload(0x40)\n      dup1\n      dup4\n      sub\n      dup2\n      dup7\n      gas\n      staticcall\n      iszero\n      dup1\n      iszero\n      tag_181\n      jumpi\n      returndatacopy(0x00, 0x00, returndatasize)\n      revert(0x00, returndatasize)\n    tag_181:\n      pop\n      pop\n      pop\n      pop\n      mload(0x40)\n      returndatasize\n      not(0x1f)\n      0x1f\n      dup3\n      add\n      and\n      dup3\n      add\n      dup1\n      0x40\n      mstore\n      pop\n      dup2\n      add\n      swap1\n      tag_182\n      swap2\n      swap1\n      tag_183\n      jump\t// in\n    tag_182:\n        /* \"hardhat/contracts/CanvassingSurvey.sol\":6494:6557  cUSD.balanceOf(address(this)) < rewardAmountPerParticipantInWei */\n      lt\n        /* \"hardhat/contracts/CanvassingSurvey.sol\":6490:6620  if (cUSD.balanceOf(address(this)) < rewardAmountPerParticipantInWei) {... */\n      iszero\n      tag_184\n      jumpi\n        /* \"hardhat/contracts/CanvassingSurvey.sol\":6580:6609  InsufficientContractBalance() */\n      mload(0x40)\n      shl(0xe0, 0x786e0a99)\n      dup2\n      mstore\n      0x04\n      add\n      mload(0x40)\n      dup1\n      swap2\n      sub\n      swap1\n      revert\n        /* \"hardhat/contracts/CanvassingSurvey.sol\":6490:6620  if (cUSD.balanceOf(address(this)) < rewardAmountPerParticipantInWei) {... */\n    tag_184:\n        /* \"hardhat/contracts/CanvassingSurvey.sol\":6630:6681  markParticipantAsHavingClaimedReward(walletAddress) */\n      tag_185\n        /* \"hardhat/contracts/CanvassingSurvey.sol\":6667:6680  walletAddress */\n      dup4\n        /* \"hardhat/contracts/CanvassingSurvey.sol\":6630:6666  markParticipantAsHavingClaimedReward */\n      tag_186\n        /* \"hardhat/contracts/CanvassingSurvey.sol\":6630:6681  markParticipantAsHavingClaimedReward(walletAddress) */\n      jump\t// in\n    tag_185:\n        /* \"hardhat/contracts/CanvassingSurvey.sol\":6691:6723  rewardParticipant(walletAddress) */\n      tag_187\n        /* \"hardhat/contracts/CanvassingSurvey.sol\":6709:6722  walletAddress */\n      dup4\n        /* \"hardhat/contracts/CanvassingSurvey.sol\":6691:6708  rewardParticipant */\n      tag_188\n        /* \"hardhat/contracts/CanvassingSurvey.sol\":6691:6723  rewardParticipant(walletAddress) */\n      jump\t// in\n    tag_187:\n        /* \"hardhat/contracts/CanvassingSurvey.sol\":2312:2313  _ */\n      pop\n        /* \"@openzeppelin/contracts/utils/ReentrancyGuard.sol\":2531:2532  _ */\n      pop\n        /* \"@openzeppelin/contracts/utils/ReentrancyGuard.sol\":2542:2562  _nonReentrantAfter() */\n      tag_189\n        /* \"@openzeppelin/contracts/utils/ReentrancyGuard.sol\":1857:1858  1 */\n      0x01\n        /* \"@openzeppelin/contracts/utils/ReentrancyGuard.sol\":3068:3089  _status = NOT_ENTERED */\n      dup1\n      sstore\n        /* \"@openzeppelin/contracts/utils/ReentrancyGuard.sol\":2888:3096  function _nonReentrantAfter() private {... */\n      jump\n        /* \"@openzeppelin/contracts/utils/ReentrancyGuard.sol\":2542:2562  _nonReentrantAfter() */\n    tag_189:\n        /* \"hardhat/contracts/CanvassingSurvey.sol\":6257:6730  function processRewardClaimByParticipant(address walletAddress)... */\n      pop\n      jump\t// out\n        /* \"hardhat/contracts/CanvassingSurvey.sol\":9479:10453  function getWhitelistedAddressesFromRegisteredAddresses(... */\n    tag_84:\n        /* \"hardhat/contracts/CanvassingSurvey.sol\":9612:9628  address[] memory */\n      0x60\n        /* \"hardhat/contracts/CanvassingSurvey.sol\":9657:9676  registeredAddresses */\n      dup2\n        /* \"hardhat/contracts/CanvassingSurvey.sol\":9640:9654  uint256 length */\n      0x00\n        /* \"hardhat/contracts/CanvassingSurvey.sol\":9697:9708  length == 0 */\n      dup2\n      swap1\n      sub\n        /* \"hardhat/contracts/CanvassingSurvey.sol\":9693:9762  if (length == 0) {... */\n      tag_192\n      jumpi\n        /* \"hardhat/contracts/CanvassingSurvey.sol\":9731:9751  InvalidArrayLength() */\n      mload(0x40)\n      shl(0xe1, 0x4ec48105)\n      dup2\n      mstore\n      0x04\n      add\n      mload(0x40)\n      dup1\n      swap2\n      sub\n      swap1\n      revert\n        /* \"hardhat/contracts/CanvassingSurvey.sol\":9693:9762  if (length == 0) {... */\n    tag_192:\n        /* \"hardhat/contracts/CanvassingSurvey.sol\":9772:9796  uint256 whitelistedCount */\n      0x00\n      dup1\n        /* \"hardhat/contracts/CanvassingSurvey.sol\":9810:10033  for (uint256 i = 0; i < length; ) {... */\n    tag_193:\n        /* \"hardhat/contracts/CanvassingSurvey.sol\":9834:9840  length */\n      dup3\n        /* \"hardhat/contracts/CanvassingSurvey.sol\":9830:9831  i */\n      dup2\n        /* \"hardhat/contracts/CanvassingSurvey.sol\":9830:9840  i < length */\n      lt\n        /* \"hardhat/contracts/CanvassingSurvey.sol\":9810:10033  for (uint256 i = 0; i < length; ) {... */\n      iszero\n      tag_194\n      jumpi\n        /* \"hardhat/contracts/CanvassingSurvey.sol\":9862:9887  usersWhitelistedForSurvey */\n      0x03\n        /* \"hardhat/contracts/CanvassingSurvey.sol\":9862:9911  usersWhitelistedForSurvey[registeredAddresses[i]] */\n      0x00\n        /* \"hardhat/contracts/CanvassingSurvey.sol\":9888:9907  registeredAddresses */\n      dup8\n      dup8\n        /* \"hardhat/contracts/CanvassingSurvey.sol\":9908:9909  i */\n      dup5\n        /* \"hardhat/contracts/CanvassingSurvey.sol\":9888:9910  registeredAddresses[i] */\n      dup2\n      dup2\n      lt\n      tag_197\n      jumpi\n      tag_197\n      tag_145\n      jump\t// in\n    tag_197:\n      swap1\n      pop\n      0x20\n      mul\n      add\n      0x20\n      dup2\n      add\n      swap1\n      tag_198\n      swap2\n      swap1\n      tag_53\n      jump\t// in\n    tag_198:\n      sub(shl(0xa0, 0x01), 0x01)\n        /* \"hardhat/contracts/CanvassingSurvey.sol\":9862:9911  usersWhitelistedForSurvey[registeredAddresses[i]] */\n      and\n      dup2\n      mstore\n      0x20\n      dup2\n      add\n      swap2\n      swap1\n      swap2\n      mstore\n      0x40\n      add\n      0x00\n      keccak256\n      sload\n      0xff\n      and\n        /* \"hardhat/contracts/CanvassingSurvey.sol\":9858:9964  if (usersWhitelistedForSurvey[registeredAddresses[i]]) {... */\n      iszero\n      tag_199\n      jumpi\n        /* \"hardhat/contracts/CanvassingSurvey.sol\":9931:9949  whitelistedCount++ */\n      dup2\n      tag_200\n      dup2\n      tag_201\n      jump\t// in\n    tag_200:\n      swap3\n      pop\n      pop\n        /* \"hardhat/contracts/CanvassingSurvey.sol\":9858:9964  if (usersWhitelistedForSurvey[registeredAddresses[i]]) {... */\n    tag_199:\n        /* \"hardhat/contracts/CanvassingSurvey.sol\":10005:10008  ++i */\n      0x01\n      add\n        /* \"hardhat/contracts/CanvassingSurvey.sol\":9810:10033  for (uint256 i = 0; i < length; ) {... */\n      jump(tag_193)\n    tag_194:\n      pop\n        /* \"hardhat/contracts/CanvassingSurvey.sol\":10043:10080  address[] memory whitelistedAddresses */\n      0x00\n        /* \"hardhat/contracts/CanvassingSurvey.sol\":10097:10113  whitelistedCount */\n      dup2\n        /* \"hardhat/contracts/CanvassingSurvey.sol\":10083:10114  new address[](whitelistedCount) */\n      0xffffffffffffffff\n      dup2\n      gt\n      iszero\n      tag_203\n      jumpi\n      tag_203\n      tag_204\n      jump\t// in\n    tag_203:\n      mload(0x40)\n      swap1\n      dup1\n      dup3\n      mstore\n      dup1\n      0x20\n      mul\n      0x20\n      add\n      dup3\n      add\n      0x40\n      mstore\n      dup1\n      iszero\n      tag_205\n      jumpi\n      dup2\n      0x20\n      add\n      0x20\n      dup3\n      mul\n      dup1\n      calldatasize\n      dup4\n      calldatacopy\n      add\n      swap1\n      pop\n    tag_205:\n      pop\n        /* \"hardhat/contracts/CanvassingSurvey.sol\":10043:10114  address[] memory whitelistedAddresses = new address[](whitelistedCount) */\n      swap1\n      pop\n        /* \"hardhat/contracts/CanvassingSurvey.sol\":10124:10137  uint256 index */\n      0x00\n      dup1\n        /* \"hardhat/contracts/CanvassingSurvey.sol\":10151:10410  for (uint256 i = 0; i < length; ) {... */\n    tag_206:\n        /* \"hardhat/contracts/CanvassingSurvey.sol\":10175:10181  length */\n      dup5\n        /* \"hardhat/contracts/CanvassingSurvey.sol\":10171:10172  i */\n      dup2\n        /* \"hardhat/contracts/CanvassingSurvey.sol\":10171:10181  i < length */\n      lt\n        /* \"hardhat/contracts/CanvassingSurvey.sol\":10151:10410  for (uint256 i = 0; i < length; ) {... */\n      iszero\n      tag_207\n      jumpi\n        /* \"hardhat/contracts/CanvassingSurvey.sol\":10203:10228  usersWhitelistedForSurvey */\n      0x03\n        /* \"hardhat/contracts/CanvassingSurvey.sol\":10203:10252  usersWhitelistedForSurvey[registeredAddresses[i]] */\n      0x00\n        /* \"hardhat/contracts/CanvassingSurvey.sol\":10229:10248  registeredAddresses */\n      dup10\n      dup10\n        /* \"hardhat/contracts/CanvassingSurvey.sol\":10249:10250  i */\n      dup5\n        /* \"hardhat/contracts/CanvassingSurvey.sol\":10229:10251  registeredAddresses[i] */\n      dup2\n      dup2\n      lt\n      tag_210\n      jumpi\n      tag_210\n      tag_145\n      jump\t// in\n    tag_210:\n      swap1\n      pop\n      0x20\n      mul\n      add\n      0x20\n      dup2\n      add\n      swap1\n      tag_211\n      swap2\n      swap1\n      tag_53\n      jump\t// in\n    tag_211:\n      sub(shl(0xa0, 0x01), 0x01)\n        /* \"hardhat/contracts/CanvassingSurvey.sol\":10203:10252  usersWhitelistedForSurvey[registeredAddresses[i]] */\n      and\n      dup2\n      mstore\n      0x20\n      dup2\n      add\n      swap2\n      swap1\n      swap2\n      mstore\n      0x40\n      add\n      0x00\n      keccak256\n      sload\n      0xff\n      and\n        /* \"hardhat/contracts/CanvassingSurvey.sol\":10199:10341  if (usersWhitelistedForSurvey[registeredAddresses[i]]) {... */\n      iszero\n      tag_212\n      jumpi\n        /* \"hardhat/contracts/CanvassingSurvey.sol\":10304:10323  registeredAddresses */\n      dup8\n      dup8\n        /* \"hardhat/contracts/CanvassingSurvey.sol\":10324:10325  i */\n      dup3\n        /* \"hardhat/contracts/CanvassingSurvey.sol\":10304:10326  registeredAddresses[i] */\n      dup2\n      dup2\n      lt\n      tag_214\n      jumpi\n      tag_214\n      tag_145\n      jump\t// in\n    tag_214:\n      swap1\n      pop\n      0x20\n      mul\n      add\n      0x20\n      dup2\n      add\n      swap1\n      tag_215\n      swap2\n      swap1\n      tag_53\n      jump\t// in\n    tag_215:\n        /* \"hardhat/contracts/CanvassingSurvey.sol\":10272:10292  whitelistedAddresses */\n      dup4\n        /* \"hardhat/contracts/CanvassingSurvey.sol\":10293:10300  index++ */\n      dup4\n      tag_216\n      dup2\n      tag_201\n      jump\t// in\n    tag_216:\n      swap5\n      pop\n        /* \"hardhat/contracts/CanvassingSurvey.sol\":10272:10301  whitelistedAddresses[index++] */\n      dup2\n      mload\n      dup2\n      lt\n      tag_218\n      jumpi\n      tag_218\n      tag_145\n      jump\t// in\n    tag_218:\n      0x20\n      mul\n      0x20\n      add\n      add\n        /* \"hardhat/contracts/CanvassingSurvey.sol\":10272:10326  whitelistedAddresses[index++] = registeredAddresses[i] */\n      swap1\n      sub(shl(0xa0, 0x01), 0x01)\n      and\n      swap1\n      dup2\n      sub(shl(0xa0, 0x01), 0x01)\n      and\n      dup2\n      mstore\n      pop\n      pop\n        /* \"hardhat/contracts/CanvassingSurvey.sol\":10199:10341  if (usersWhitelistedForSurvey[registeredAddresses[i]]) {... */\n    tag_212:\n        /* \"hardhat/contracts/CanvassingSurvey.sol\":10382:10385  ++i */\n      0x01\n      add\n        /* \"hardhat/contracts/CanvassingSurvey.sol\":10151:10410  for (uint256 i = 0; i < length; ) {... */\n      jump(tag_206)\n    tag_207:\n      pop\n        /* \"hardhat/contracts/CanvassingSurvey.sol\":10426:10446  whitelistedAddresses */\n      swap1\n      swap7\n        /* \"hardhat/contracts/CanvassingSurvey.sol\":9479:10453  function getWhitelistedAddressesFromRegisteredAddresses(... */\n      swap6\n      pop\n      pop\n      pop\n      pop\n      pop\n      pop\n      jump\t// out\n        /* \"hardhat/contracts/CanvassingSurvey.sol\":5377:6251  function blacklistMultipleWhitelistedAddresses(... */\n    tag_92:\n        /* \"@openzeppelin/contracts/access/Ownable.sol\":1531:1544  _checkOwner() */\n      tag_220\n        /* \"@openzeppelin/contracts/access/Ownable.sol\":1531:1542  _checkOwner */\n      tag_112\n        /* \"@openzeppelin/contracts/access/Ownable.sol\":1531:1544  _checkOwner() */\n      jump\t// in\n    tag_220:\n        /* \"hardhat/contracts/CanvassingSurvey.sol\":5520:5535  walletAddresses */\n      dup1\n        /* \"hardhat/contracts/CanvassingSurvey.sol\":5503:5517  uint256 length */\n      0x00\n        /* \"hardhat/contracts/CanvassingSurvey.sol\":5556:5567  length == 0 */\n      dup2\n      swap1\n      sub\n        /* \"hardhat/contracts/CanvassingSurvey.sol\":5552:5621  if (length == 0) {... */\n      tag_222\n      jumpi\n        /* \"hardhat/contracts/CanvassingSurvey.sol\":5590:5610  InvalidArrayLength() */\n      mload(0x40)\n      shl(0xe1, 0x4ec48105)\n      dup2\n      mstore\n      0x04\n      add\n      mload(0x40)\n      dup1\n      swap2\n      sub\n      swap1\n      revert\n        /* \"hardhat/contracts/CanvassingSurvey.sol\":5552:5621  if (length == 0) {... */\n    tag_222:\n        /* \"hardhat/contracts/CanvassingSurvey.sol\":5636:5645  uint256 i */\n      0x00\n        /* \"hardhat/contracts/CanvassingSurvey.sol\":5631:5989  for (uint256 i = 0; i < length; ) {... */\n    tag_223:\n        /* \"hardhat/contracts/CanvassingSurvey.sol\":5655:5661  length */\n      dup2\n        /* \"hardhat/contracts/CanvassingSurvey.sol\":5651:5652  i */\n      dup2\n        /* \"hardhat/contracts/CanvassingSurvey.sol\":5651:5661  i < length */\n      lt\n        /* \"hardhat/contracts/CanvassingSurvey.sol\":5631:5989  for (uint256 i = 0; i < length; ) {... */\n      iszero\n      tag_224\n      jumpi\n        /* \"hardhat/contracts/CanvassingSurvey.sol\":5713:5714  0 */\n      0x00\n        /* \"hardhat/contracts/CanvassingSurvey.sol\":5683:5698  walletAddresses */\n      dup5\n      dup5\n        /* \"hardhat/contracts/CanvassingSurvey.sol\":5699:5700  i */\n      dup4\n        /* \"hardhat/contracts/CanvassingSurvey.sol\":5683:5701  walletAddresses[i] */\n      dup2\n      dup2\n      lt\n      tag_227\n      jumpi\n      tag_227\n      tag_145\n      jump\t// in\n    tag_227:\n      swap1\n      pop\n      0x20\n      mul\n      add\n      0x20\n      dup2\n      add\n      swap1\n      tag_228\n      swap2\n      swap1\n      tag_53\n      jump\t// in\n    tag_228:\n      sub(shl(0xa0, 0x01), 0x01)\n        /* \"hardhat/contracts/CanvassingSurvey.sol\":5683:5715  walletAddresses[i] == address(0) */\n      and\n      sub\n        /* \"hardhat/contracts/CanvassingSurvey.sol\":5679:5770  if (walletAddresses[i] == address(0)) {... */\n      tag_229\n      jumpi\n        /* \"hardhat/contracts/CanvassingSurvey.sol\":5742:5755  ZeroAddress() */\n      mload(0x40)\n      shl(0xe0, 0xd92e233d)\n      dup2\n      mstore\n      0x04\n      add\n      mload(0x40)\n      dup1\n      swap2\n      sub\n      swap1\n      revert\n        /* \"hardhat/contracts/CanvassingSurvey.sol\":5679:5770  if (walletAddresses[i] == address(0)) {... */\n    tag_229:\n        /* \"hardhat/contracts/CanvassingSurvey.sol\":5788:5813  usersWhitelistedForSurvey */\n      0x03\n        /* \"hardhat/contracts/CanvassingSurvey.sol\":5788:5833  usersWhitelistedForSurvey[walletAddresses[i]] */\n      0x00\n        /* \"hardhat/contracts/CanvassingSurvey.sol\":5814:5829  walletAddresses */\n      dup6\n      dup6\n        /* \"hardhat/contracts/CanvassingSurvey.sol\":5830:5831  i */\n      dup5\n        /* \"hardhat/contracts/CanvassingSurvey.sol\":5814:5832  walletAddresses[i] */\n      dup2\n      dup2\n      lt\n      tag_231\n      jumpi\n      tag_231\n      tag_145\n      jump\t// in\n    tag_231:\n      swap1\n      pop\n      0x20\n      mul\n      add\n      0x20\n      dup2\n      add\n      swap1\n      tag_232\n      swap2\n      swap1\n      tag_53\n      jump\t// in\n    tag_232:\n      sub(shl(0xa0, 0x01), 0x01)\n        /* \"hardhat/contracts/CanvassingSurvey.sol\":5788:5833  usersWhitelistedForSurvey[walletAddresses[i]] */\n      and\n      dup2\n      mstore\n      0x20\n      dup2\n      add\n      swap2\n      swap1\n      swap2\n      mstore\n      0x40\n      add\n      0x00\n      keccak256\n      sload\n      0xff\n      and\n        /* \"hardhat/contracts/CanvassingSurvey.sol\":5783:5920  if (!usersWhitelistedForSurvey[walletAddresses[i]]) {... */\n      tag_233\n      jumpi\n        /* \"hardhat/contracts/CanvassingSurvey.sol\":5886:5901  walletAddresses */\n      dup4\n      dup4\n        /* \"hardhat/contracts/CanvassingSurvey.sol\":5902:5903  i */\n      dup3\n        /* \"hardhat/contracts/CanvassingSurvey.sol\":5886:5904  walletAddresses[i] */\n      dup2\n      dup2\n      lt\n      tag_235\n      jumpi\n      tag_235\n      tag_145\n      jump\t// in\n    tag_235:\n      swap1\n      pop\n      0x20\n      mul\n      add\n      0x20\n      dup2\n      add\n      swap1\n      tag_236\n      swap2\n      swap1\n      tag_53\n      jump\t// in\n    tag_236:\n        /* \"hardhat/contracts/CanvassingSurvey.sol\":5860:5905  UserAddressNotWhitelisted(walletAddresses[i]) */\n      mload(0x40)\n      shl(0xe0, 0xde55cc33)\n      dup2\n      mstore\n      sub(shl(0xa0, 0x01), 0x01)\n        /* \"#utility.yul\":382:414   */\n      swap1\n      swap2\n      and\n        /* \"hardhat/contracts/CanvassingSurvey.sol\":5860:5905  UserAddressNotWhitelisted(walletAddresses[i]) */\n      0x04\n      dup3\n      add\n        /* \"#utility.yul\":364:415   */\n      mstore\n        /* \"#utility.yul\":337:355   */\n      0x24\n      add\n        /* \"hardhat/contracts/CanvassingSurvey.sol\":5860:5905  UserAddressNotWhitelisted(walletAddresses[i]) */\n      tag_155\n        /* \"#utility.yul\":196:421   */\n      jump\n        /* \"hardhat/contracts/CanvassingSurvey.sol\":5783:5920  if (!usersWhitelistedForSurvey[walletAddresses[i]]) {... */\n    tag_233:\n        /* \"hardhat/contracts/CanvassingSurvey.sol\":5961:5964  ++i */\n      0x01\n      add\n        /* \"hardhat/contracts/CanvassingSurvey.sol\":5631:5989  for (uint256 i = 0; i < length; ) {... */\n      jump(tag_223)\n    tag_224:\n      pop\n        /* \"hardhat/contracts/CanvassingSurvey.sol\":6004:6013  uint256 i */\n      0x00\n        /* \"hardhat/contracts/CanvassingSurvey.sol\":5999:6170  for (uint256 i = 0; i < length; ) {... */\n    tag_238:\n        /* \"hardhat/contracts/CanvassingSurvey.sol\":6023:6029  length */\n      dup2\n        /* \"hardhat/contracts/CanvassingSurvey.sol\":6019:6020  i */\n      dup2\n        /* \"hardhat/contracts/CanvassingSurvey.sol\":6019:6029  i < length */\n      lt\n        /* \"hardhat/contracts/CanvassingSurvey.sol\":5999:6170  for (uint256 i = 0; i < length; ) {... */\n      iszero\n      tag_239\n      jumpi\n        /* \"hardhat/contracts/CanvassingSurvey.sol\":6095:6100  false */\n      0x00\n        /* \"hardhat/contracts/CanvassingSurvey.sol\":6047:6072  usersWhitelistedForSurvey */\n      0x03\n        /* \"hardhat/contracts/CanvassingSurvey.sol\":6047:6092  usersWhitelistedForSurvey[walletAddresses[i]] */\n      0x00\n        /* \"hardhat/contracts/CanvassingSurvey.sol\":6073:6088  walletAddresses */\n      dup7\n      dup7\n        /* \"hardhat/contracts/CanvassingSurvey.sol\":6089:6090  i */\n      dup6\n        /* \"hardhat/contracts/CanvassingSurvey.sol\":6073:6091  walletAddresses[i] */\n      dup2\n      dup2\n      lt\n      tag_242\n      jumpi\n      tag_242\n      tag_145\n      jump\t// in\n    tag_242:\n      swap1\n      pop\n      0x20\n      mul\n      add\n      0x20\n      dup2\n      add\n      swap1\n      tag_243\n      swap2\n      swap1\n      tag_53\n      jump\t// in\n    tag_243:\n      sub(shl(0xa0, 0x01), 0x01)\n        /* \"hardhat/contracts/CanvassingSurvey.sol\":6047:6092  usersWhitelistedForSurvey[walletAddresses[i]] */\n      and\n      dup2\n      mstore\n      0x20\n      dup2\n      add\n      swap2\n      swap1\n      swap2\n      mstore\n      0x40\n      add\n      0x00\n      keccak256\n        /* \"hardhat/contracts/CanvassingSurvey.sol\":6047:6100  usersWhitelistedForSurvey[walletAddresses[i]] = false */\n      dup1\n      sload\n      not(0xff)\n      and\n      swap2\n      iszero\n      iszero\n      swap2\n      swap1\n      swap2\n      or\n      swap1\n      sstore\n      0x01\n        /* \"hardhat/contracts/CanvassingSurvey.sol\":6142:6145  ++i */\n      add\n        /* \"hardhat/contracts/CanvassingSurvey.sol\":5999:6170  for (uint256 i = 0; i < length; ) {... */\n      jump(tag_238)\n    tag_239:\n      pop\n        /* \"hardhat/contracts/CanvassingSurvey.sol\":6184:6244  MultipleWhitelistedUserAddressesBlacklisted(walletAddresses) */\n      0xd68b41369d54faca53e699320360840db6e0e2e175d3974eb304fd18713d916b\n        /* \"hardhat/contracts/CanvassingSurvey.sol\":6228:6243  walletAddresses */\n      dup4\n      dup4\n        /* \"hardhat/contracts/CanvassingSurvey.sol\":6184:6244  MultipleWhitelistedUserAddressesBlacklisted(walletAddresses) */\n      mload(0x40)\n      tag_120\n      swap3\n      swap2\n      swap1\n      tag_163\n      jump\t// in\n        /* \"hardhat/contracts/CanvassingSurvey.sol\":9329:9396  function pauseSurvey() external onlyOwner {... */\n    tag_94:\n        /* \"@openzeppelin/contracts/access/Ownable.sol\":1531:1544  _checkOwner() */\n      tag_246\n        /* \"@openzeppelin/contracts/access/Ownable.sol\":1531:1542  _checkOwner */\n      tag_112\n        /* \"@openzeppelin/contracts/access/Ownable.sol\":1531:1544  _checkOwner() */\n      jump\t// in\n    tag_246:\n        /* \"hardhat/contracts/CanvassingSurvey.sol\":9381:9389  _pause() */\n      tag_114\n        /* \"hardhat/contracts/CanvassingSurvey.sol\":9381:9387  _pause */\n      tag_249\n        /* \"hardhat/contracts/CanvassingSurvey.sol\":9381:9389  _pause() */\n      jump\t// in\n        /* \"hardhat/contracts/CanvassingSurvey.sol\":4143:4504  function blacklistOneWhitelistedAddress(address walletAddress)... */\n    tag_97:\n        /* \"@openzeppelin/contracts/access/Ownable.sol\":1531:1544  _checkOwner() */\n      tag_251\n        /* \"@openzeppelin/contracts/access/Ownable.sol\":1531:1542  _checkOwner */\n      tag_112\n        /* \"@openzeppelin/contracts/access/Ownable.sol\":1531:1544  _checkOwner() */\n      jump\t// in\n    tag_251:\n      sub(shl(0xa0, 0x01), 0x01)\n        /* \"hardhat/contracts/CanvassingSurvey.sol\":2390:2430  usersWhitelistedForSurvey[walletAddress] */\n      dup2\n      and\n      0x00\n      swap1\n      dup2\n      mstore\n        /* \"hardhat/contracts/CanvassingSurvey.sol\":2390:2415  usersWhitelistedForSurvey */\n      0x03\n        /* \"hardhat/contracts/CanvassingSurvey.sol\":2390:2430  usersWhitelistedForSurvey[walletAddress] */\n      0x20\n      mstore\n      0x40\n      swap1\n      keccak256\n      sload\n        /* \"hardhat/contracts/CanvassingSurvey.sol\":4267:4280  walletAddress */\n      dup2\n      swap1\n        /* \"hardhat/contracts/CanvassingSurvey.sol\":2390:2430  usersWhitelistedForSurvey[walletAddress] */\n      0xff\n      and\n        /* \"hardhat/contracts/CanvassingSurvey.sol\":2385:2504  if (!usersWhitelistedForSurvey[walletAddress]) {... */\n      tag_253\n      jumpi\n        /* \"hardhat/contracts/CanvassingSurvey.sol\":2453:2493  UserAddressNotWhitelisted(walletAddress) */\n      mload(0x40)\n      shl(0xe0, 0xde55cc33)\n      dup2\n      mstore\n      sub(shl(0xa0, 0x01), 0x01)\n        /* \"#utility.yul\":382:414   */\n      dup3\n      and\n        /* \"hardhat/contracts/CanvassingSurvey.sol\":2453:2493  UserAddressNotWhitelisted(walletAddress) */\n      0x04\n      dup3\n      add\n        /* \"#utility.yul\":364:415   */\n      mstore\n        /* \"#utility.yul\":337:355   */\n      0x24\n      add\n        /* \"hardhat/contracts/CanvassingSurvey.sol\":2453:2493  UserAddressNotWhitelisted(walletAddress) */\n      tag_155\n        /* \"#utility.yul\":196:421   */\n      jump\n        /* \"hardhat/contracts/CanvassingSurvey.sol\":2385:2504  if (!usersWhitelistedForSurvey[walletAddress]) {... */\n    tag_253:\n      sub(shl(0xa0, 0x01), 0x01)\n        /* \"hardhat/contracts/CanvassingSurvey.sol\":4300:4327  walletAddress == address(0) */\n      dup3\n      and\n        /* \"hardhat/contracts/CanvassingSurvey.sol\":4296:4374  if (walletAddress == address(0)) {... */\n      tag_256\n      jumpi\n        /* \"hardhat/contracts/CanvassingSurvey.sol\":4350:4363  ZeroAddress() */\n      mload(0x40)\n      shl(0xe0, 0xd92e233d)\n      dup2\n      mstore\n      0x04\n      add\n      mload(0x40)\n      dup1\n      swap2\n      sub\n      swap1\n      revert\n        /* \"hardhat/contracts/CanvassingSurvey.sol\":4296:4374  if (walletAddress == address(0)) {... */\n    tag_256:\n      sub(shl(0xa0, 0x01), 0x01)\n        /* \"hardhat/contracts/CanvassingSurvey.sol\":4383:4423  usersWhitelistedForSurvey[walletAddress] */\n      dup3\n      and\n        /* \"hardhat/contracts/CanvassingSurvey.sol\":4426:4431  false */\n      0x00\n        /* \"hardhat/contracts/CanvassingSurvey.sol\":4383:4423  usersWhitelistedForSurvey[walletAddress] */\n      dup2\n      dup2\n      mstore\n        /* \"hardhat/contracts/CanvassingSurvey.sol\":4383:4408  usersWhitelistedForSurvey */\n      0x03\n        /* \"hardhat/contracts/CanvassingSurvey.sol\":4383:4423  usersWhitelistedForSurvey[walletAddress] */\n      0x20\n      swap1\n      dup2\n      mstore\n      0x40\n      swap2\n      dup3\n      swap1\n      keccak256\n        /* \"hardhat/contracts/CanvassingSurvey.sol\":4383:4431  usersWhitelistedForSurvey[walletAddress] = false */\n      dup1\n      sload\n      not(0xff)\n      and\n      swap1\n      sstore\n        /* \"hardhat/contracts/CanvassingSurvey.sol\":4446:4497  OneWhitelistedUserAddressBlacklisted(walletAddress) */\n      swap1\n      mload\n        /* \"#utility.yul\":364:415   */\n      swap2\n      dup3\n      mstore\n        /* \"hardhat/contracts/CanvassingSurvey.sol\":4446:4497  OneWhitelistedUserAddressBlacklisted(walletAddress) */\n      0xa354190dd7342316e40e5358c9f72037f2c677cdc057d3debbc4f1b62495e2e2\n      swap2\n        /* \"#utility.yul\":337:355   */\n      add\n        /* \"hardhat/contracts/CanvassingSurvey.sol\":4446:4497  OneWhitelistedUserAddressBlacklisted(walletAddress) */\n    tag_257:\n      mload(0x40)\n      dup1\n      swap2\n      sub\n      swap1\n      log1\n        /* \"@openzeppelin/contracts/access/Ownable.sol\":1554:1555  _ */\n      pop\n        /* \"hardhat/contracts/CanvassingSurvey.sol\":4143:4504  function blacklistOneWhitelistedAddress(address walletAddress)... */\n      pop\n      jump\t// out\n        /* \"hardhat/contracts/CanvassingSurvey.sol\":3799:4137  function whitelistOneAddress(address walletAddress)... */\n    tag_100:\n        /* \"@openzeppelin/contracts/access/Ownable.sol\":1531:1544  _checkOwner() */\n      tag_259\n        /* \"@openzeppelin/contracts/access/Ownable.sol\":1531:1542  _checkOwner */\n      tag_112\n        /* \"@openzeppelin/contracts/access/Ownable.sol\":1531:1544  _checkOwner() */\n      jump\t// in\n    tag_259:\n      sub(shl(0xa0, 0x01), 0x01)\n        /* \"hardhat/contracts/CanvassingSurvey.sol\":2591:2631  usersWhitelistedForSurvey[walletAddress] */\n      dup2\n      and\n      0x00\n      swap1\n      dup2\n      mstore\n        /* \"hardhat/contracts/CanvassingSurvey.sol\":2591:2616  usersWhitelistedForSurvey */\n      0x03\n        /* \"hardhat/contracts/CanvassingSurvey.sol\":2591:2631  usersWhitelistedForSurvey[walletAddress] */\n      0x20\n      mstore\n      0x40\n      swap1\n      keccak256\n      sload\n        /* \"hardhat/contracts/CanvassingSurvey.sol\":3912:3925  walletAddress */\n      dup2\n      swap1\n        /* \"hardhat/contracts/CanvassingSurvey.sol\":2591:2631  usersWhitelistedForSurvey[walletAddress] */\n      0xff\n      and\n        /* \"hardhat/contracts/CanvassingSurvey.sol\":2587:2709  if (usersWhitelistedForSurvey[walletAddress]) {... */\n      iszero\n      tag_261\n      jumpi\n        /* \"hardhat/contracts/CanvassingSurvey.sol\":2654:2698  UserAddressAlreadyWhitelisted(walletAddress) */\n      mload(0x40)\n      shl(0xe1, 0x3746725b)\n      dup2\n      mstore\n      sub(shl(0xa0, 0x01), 0x01)\n        /* \"#utility.yul\":382:414   */\n      dup3\n      and\n        /* \"hardhat/contracts/CanvassingSurvey.sol\":2654:2698  UserAddressAlreadyWhitelisted(walletAddress) */\n      0x04\n      dup3\n      add\n        /* \"#utility.yul\":364:415   */\n      mstore\n        /* \"#utility.yul\":337:355   */\n      0x24\n      add\n        /* \"hardhat/contracts/CanvassingSurvey.sol\":2654:2698  UserAddressAlreadyWhitelisted(walletAddress) */\n      tag_155\n        /* \"#utility.yul\":196:421   */\n      jump\n        /* \"hardhat/contracts/CanvassingSurvey.sol\":2587:2709  if (usersWhitelistedForSurvey[walletAddress]) {... */\n    tag_261:\n      sub(shl(0xa0, 0x01), 0x01)\n        /* \"hardhat/contracts/CanvassingSurvey.sol\":3945:3972  walletAddress == address(0) */\n      dup3\n      and\n        /* \"hardhat/contracts/CanvassingSurvey.sol\":3941:4019  if (walletAddress == address(0)) {... */\n      tag_264\n      jumpi\n        /* \"hardhat/contracts/CanvassingSurvey.sol\":3995:4008  ZeroAddress() */\n      mload(0x40)\n      shl(0xe0, 0xd92e233d)\n      dup2\n      mstore\n      0x04\n      add\n      mload(0x40)\n      dup1\n      swap2\n      sub\n      swap1\n      revert\n        /* \"hardhat/contracts/CanvassingSurvey.sol\":3941:4019  if (walletAddress == address(0)) {... */\n    tag_264:\n      sub(shl(0xa0, 0x01), 0x01)\n        /* \"hardhat/contracts/CanvassingSurvey.sol\":4028:4068  usersWhitelistedForSurvey[walletAddress] */\n      dup3\n      and\n      0x00\n      dup2\n      dup2\n      mstore\n        /* \"hardhat/contracts/CanvassingSurvey.sol\":4028:4053  usersWhitelistedForSurvey */\n      0x03\n        /* \"hardhat/contracts/CanvassingSurvey.sol\":4028:4068  usersWhitelistedForSurvey[walletAddress] */\n      0x20\n      swap1\n      dup2\n      mstore\n      0x40\n      swap2\n      dup3\n      swap1\n      keccak256\n        /* \"hardhat/contracts/CanvassingSurvey.sol\":4028:4075  usersWhitelistedForSurvey[walletAddress] = true */\n      dup1\n      sload\n      not(0xff)\n      and\n        /* \"hardhat/contracts/CanvassingSurvey.sol\":4071:4075  true */\n      0x01\n        /* \"hardhat/contracts/CanvassingSurvey.sol\":4028:4075  usersWhitelistedForSurvey[walletAddress] = true */\n      or\n      swap1\n      sstore\n        /* \"hardhat/contracts/CanvassingSurvey.sol\":4090:4130  OneUserAddressWhitelisted(walletAddress) */\n      swap1\n      mload\n        /* \"#utility.yul\":364:415   */\n      swap2\n      dup3\n      mstore\n        /* \"hardhat/contracts/CanvassingSurvey.sol\":4090:4130  OneUserAddressWhitelisted(walletAddress) */\n      0x1afde38c60d2be0d28d001619816d86c39ce78b350c9d94f23c095099b9c1d27\n      swap2\n        /* \"#utility.yul\":337:355   */\n      add\n        /* \"hardhat/contracts/CanvassingSurvey.sol\":4090:4130  OneUserAddressWhitelisted(walletAddress) */\n      tag_257\n        /* \"#utility.yul\":196:421   */\n      jump\n        /* \"hardhat/contracts/CanvassingSurvey.sol\":7616:8064  function withdrawAllRewardFundsToResearcher()... */\n    tag_102:\n        /* \"@openzeppelin/contracts/access/Ownable.sol\":1531:1544  _checkOwner() */\n      tag_267\n        /* \"@openzeppelin/contracts/access/Ownable.sol\":1531:1542  _checkOwner */\n      tag_112\n        /* \"@openzeppelin/contracts/access/Ownable.sol\":1531:1544  _checkOwner() */\n      jump\t// in\n    tag_267:\n        /* \"@openzeppelin/contracts/utils/Pausable.sol\":1474:1493  _requireNotPaused() */\n      tag_269\n        /* \"@openzeppelin/contracts/utils/Pausable.sol\":1474:1491  _requireNotPaused */\n      tag_168\n        /* \"@openzeppelin/contracts/utils/Pausable.sol\":1474:1493  _requireNotPaused() */\n      jump\t// in\n    tag_269:\n        /* \"@openzeppelin/contracts/utils/ReentrancyGuard.sol\":2500:2521  _nonReentrantBefore() */\n      tag_271\n        /* \"@openzeppelin/contracts/utils/ReentrancyGuard.sol\":2500:2519  _nonReentrantBefore */\n      tag_171\n        /* \"@openzeppelin/contracts/utils/ReentrancyGuard.sol\":2500:2521  _nonReentrantBefore() */\n      jump\t// in\n    tag_271:\n        /* \"hardhat/contracts/CanvassingSurvey.sol\":7772:7801  cUSD.balanceOf(address(this)) */\n      mload(0x40)\n      shl(0xe0, 0x70a08231)\n      dup2\n      mstore\n        /* \"hardhat/contracts/CanvassingSurvey.sol\":7795:7799  this */\n      address\n        /* \"hardhat/contracts/CanvassingSurvey.sol\":7772:7801  cUSD.balanceOf(address(this)) */\n      0x04\n      dup3\n      add\n        /* \"#utility.yul\":364:415   */\n      mstore\n        /* \"hardhat/contracts/CanvassingSurvey.sol\":7754:7769  uint256 balance */\n      0x00\n      swap1\n        /* \"hardhat/contracts/CanvassingSurvey.sol\":7772:7776  cUSD */\n      immutable(\"0x4ce4dab4689da140a0c12de1a6af6b8f679594aeb723205f513e052d27f5b26f\")\n      sub(shl(0xa0, 0x01), 0x01)\n        /* \"hardhat/contracts/CanvassingSurvey.sol\":7772:7786  cUSD.balanceOf */\n      and\n      swap1\n      0x70a08231\n      swap1\n        /* \"#utility.yul\":337:355   */\n      0x24\n      add\n        /* \"hardhat/contracts/CanvassingSurvey.sol\":7772:7801  cUSD.balanceOf(address(this)) */\n      0x20\n      mload(0x40)\n      dup1\n      dup4\n      sub\n      dup2\n      dup7\n      gas\n      staticcall\n      iszero\n      dup1\n      iszero\n      tag_275\n      jumpi\n      returndatacopy(0x00, 0x00, returndatasize)\n      revert(0x00, returndatasize)\n    tag_275:\n      pop\n      pop\n      pop\n      pop\n      mload(0x40)\n      returndatasize\n      not(0x1f)\n      0x1f\n      dup3\n      add\n      and\n      dup3\n      add\n      dup1\n      0x40\n      mstore\n      pop\n      dup2\n      add\n      swap1\n      tag_276\n      swap2\n      swap1\n      tag_183\n      jump\t// in\n    tag_276:\n        /* \"hardhat/contracts/CanvassingSurvey.sol\":7754:7801  uint256 balance = cUSD.balanceOf(address(this)) */\n      swap1\n      pop\n        /* \"hardhat/contracts/CanvassingSurvey.sol\":7815:7822  balance */\n      dup1\n        /* \"hardhat/contracts/CanvassingSurvey.sol\":7826:7827  0 */\n      0x00\n        /* \"hardhat/contracts/CanvassingSurvey.sol\":7815:7827  balance == 0 */\n      sub\n        /* \"hardhat/contracts/CanvassingSurvey.sol\":7811:7876  if (balance == 0) {... */\n      tag_277\n      jumpi\n        /* \"hardhat/contracts/CanvassingSurvey.sol\":7850:7865  NoRewardFunds() */\n      mload(0x40)\n      shl(0xe2, 0x16e3ff05)\n      dup2\n      mstore\n      0x04\n      add\n      mload(0x40)\n      dup1\n      swap2\n      sub\n      swap1\n      revert\n        /* \"hardhat/contracts/CanvassingSurvey.sol\":7811:7876  if (balance == 0) {... */\n    tag_277:\n        /* \"hardhat/contracts/CanvassingSurvey.sol\":7885:7897  bool success */\n      0x00\n        /* \"hardhat/contracts/CanvassingSurvey.sol\":7900:7904  cUSD */\n      immutable(\"0x4ce4dab4689da140a0c12de1a6af6b8f679594aeb723205f513e052d27f5b26f\")\n      sub(shl(0xa0, 0x01), 0x01)\n        /* \"hardhat/contracts/CanvassingSurvey.sol\":7900:7913  cUSD.transfer */\n      and\n      0xa9059cbb\n        /* \"hardhat/contracts/CanvassingSurvey.sol\":7914:7921  owner() */\n      tag_278\n        /* \"@openzeppelin/contracts/access/Ownable.sol\":1684:1691  address */\n      0x00\n        /* \"@openzeppelin/contracts/access/Ownable.sol\":1710:1716  _owner */\n      sload\n      sub(shl(0xa0, 0x01), 0x01)\n      and\n      swap1\n        /* \"@openzeppelin/contracts/access/Ownable.sol\":1638:1723  function owner() public view virtual returns (address) {... */\n      jump\n        /* \"hardhat/contracts/CanvassingSurvey.sol\":7914:7921  owner() */\n    tag_278:\n        /* \"hardhat/contracts/CanvassingSurvey.sol\":7900:7931  cUSD.transfer(owner(), balance) */\n      mload(0x40)\n      not(sub(shl(0xe0, 0x01), 0x01))\n      0xe0\n      dup5\n      swap1\n      shl\n      and\n      dup2\n      mstore\n      sub(shl(0xa0, 0x01), 0x01)\n        /* \"#utility.yul\":4392:4424   */\n      swap1\n      swap2\n      and\n        /* \"hardhat/contracts/CanvassingSurvey.sol\":7900:7931  cUSD.transfer(owner(), balance) */\n      0x04\n      dup3\n      add\n        /* \"#utility.yul\":4374:4425   */\n      mstore\n        /* \"#utility.yul\":4441:4459   */\n      0x24\n      dup2\n      add\n        /* \"#utility.yul\":4434:4468   */\n      dup6\n      swap1\n      mstore\n        /* \"#utility.yul\":4347:4365   */\n      0x44\n      add\n        /* \"hardhat/contracts/CanvassingSurvey.sol\":7900:7931  cUSD.transfer(owner(), balance) */\n      0x20\n      mload(0x40)\n      dup1\n      dup4\n      sub\n      dup2\n      0x00\n      dup8\n      gas\n      call\n      iszero\n      dup1\n      iszero\n      tag_282\n      jumpi\n      returndatacopy(0x00, 0x00, returndatasize)\n      revert(0x00, returndatasize)\n    tag_282:\n      pop\n      pop\n      pop\n      pop\n      mload(0x40)\n      returndatasize\n      not(0x1f)\n      0x1f\n      dup3\n      add\n      and\n      dup3\n      add\n      dup1\n      0x40\n      mstore\n      pop\n      dup2\n      add\n      swap1\n      tag_283\n      swap2\n      swap1\n      tag_284\n      jump\t// in\n    tag_283:\n        /* \"hardhat/contracts/CanvassingSurvey.sol\":7885:7931  bool success = cUSD.transfer(owner(), balance) */\n      swap1\n      pop\n        /* \"hardhat/contracts/CanvassingSurvey.sol\":7946:7953  success */\n      dup1\n        /* \"hardhat/contracts/CanvassingSurvey.sol\":7941:8005  if (!success) {... */\n      tag_285\n      jumpi\n        /* \"hardhat/contracts/CanvassingSurvey.sol\":7976:7994  WithdrawalFailed() */\n      mload(0x40)\n      shl(0xe0, 0x27fcd9d1)\n      dup2\n      mstore\n      0x04\n      add\n      mload(0x40)\n      dup1\n      swap2\n      sub\n      swap1\n      revert\n        /* \"hardhat/contracts/CanvassingSurvey.sol\":7941:8005  if (!success) {... */\n    tag_285:\n        /* \"hardhat/contracts/CanvassingSurvey.sol\":8019:8057  RewardFundsWithdrawn(owner(), balance) */\n      0x2036b9b38b69a2fa490ee702733a29cd2550accc20bc96e786cb9beedc779097\n        /* \"hardhat/contracts/CanvassingSurvey.sol\":8040:8047  owner() */\n      tag_286\n        /* \"@openzeppelin/contracts/access/Ownable.sol\":1684:1691  address */\n      0x00\n        /* \"@openzeppelin/contracts/access/Ownable.sol\":1710:1716  _owner */\n      sload\n      sub(shl(0xa0, 0x01), 0x01)\n      and\n      swap1\n        /* \"@openzeppelin/contracts/access/Ownable.sol\":1638:1723  function owner() public view virtual returns (address) {... */\n      jump\n        /* \"hardhat/contracts/CanvassingSurvey.sol\":8040:8047  owner() */\n    tag_286:\n        /* \"hardhat/contracts/CanvassingSurvey.sol\":8019:8057  RewardFundsWithdrawn(owner(), balance) */\n      0x40\n      dup1\n      mload\n      sub(shl(0xa0, 0x01), 0x01)\n        /* \"#utility.yul\":4392:4424   */\n      swap1\n      swap3\n      and\n        /* \"#utility.yul\":4374:4425   */\n      dup3\n      mstore\n        /* \"#utility.yul\":4456:4458   */\n      0x20\n        /* \"#utility.yul\":4441:4459   */\n      dup3\n      add\n        /* \"#utility.yul\":4434:4468   */\n      dup6\n      swap1\n      mstore\n        /* \"#utility.yul\":4347:4365   */\n      add\n        /* \"hardhat/contracts/CanvassingSurvey.sol\":8019:8057  RewardFundsWithdrawn(owner(), balance) */\n      mload(0x40)\n      dup1\n      swap2\n      sub\n      swap1\n      log1\n        /* \"hardhat/contracts/CanvassingSurvey.sol\":7744:8064  {... */\n      pop\n      pop\n        /* \"@openzeppelin/contracts/utils/ReentrancyGuard.sol\":2542:2562  _nonReentrantAfter() */\n      tag_114\n        /* \"@openzeppelin/contracts/utils/ReentrancyGuard.sol\":1857:1858  1 */\n      0x01\n        /* \"@openzeppelin/contracts/utils/ReentrancyGuard.sol\":3068:3089  _status = NOT_ENTERED */\n      dup1\n      sstore\n        /* \"@openzeppelin/contracts/utils/ReentrancyGuard.sol\":2888:3096  function _nonReentrantAfter() private {... */\n      jump\n        /* \"@openzeppelin/contracts/access/Ownable.sol\":2543:2758  function transferOwnership(address newOwner) public virtual onlyOwner {... */\n    tag_105:\n        /* \"@openzeppelin/contracts/access/Ownable.sol\":1531:1544  _checkOwner() */\n      tag_290\n        /* \"@openzeppelin/contracts/access/Ownable.sol\":1531:1542  _checkOwner */\n      tag_112\n        /* \"@openzeppelin/contracts/access/Ownable.sol\":1531:1544  _checkOwner() */\n      jump\t// in\n    tag_290:\n      sub(shl(0xa0, 0x01), 0x01)\n        /* \"@openzeppelin/contracts/access/Ownable.sol\":2627:2649  newOwner == address(0) */\n      dup2\n      and\n        /* \"@openzeppelin/contracts/access/Ownable.sol\":2623:2714  if (newOwner == address(0)) {... */\n      tag_292\n      jumpi\n        /* \"@openzeppelin/contracts/access/Ownable.sol\":2672:2703  OwnableInvalidOwner(address(0)) */\n      mload(0x40)\n      shl(0xe0, 0x1e4fbdf7)\n      dup2\n      mstore\n        /* \"@openzeppelin/contracts/access/Ownable.sol\":2700:2701  0 */\n      0x00\n        /* \"@openzeppelin/contracts/access/Ownable.sol\":2672:2703  OwnableInvalidOwner(address(0)) */\n      0x04\n      dup3\n      add\n        /* \"#utility.yul\":364:415   */\n      mstore\n        /* \"#utility.yul\":337:355   */\n      0x24\n      add\n        /* \"@openzeppelin/contracts/access/Ownable.sol\":2672:2703  OwnableInvalidOwner(address(0)) */\n      tag_155\n        /* \"#utility.yul\":196:421   */\n      jump\n        /* \"@openzeppelin/contracts/access/Ownable.sol\":2623:2714  if (newOwner == address(0)) {... */\n    tag_292:\n        /* \"@openzeppelin/contracts/access/Ownable.sol\":2723:2751  _transferOwnership(newOwner) */\n      tag_189\n        /* \"@openzeppelin/contracts/access/Ownable.sol\":2742:2750  newOwner */\n      dup2\n        /* \"@openzeppelin/contracts/access/Ownable.sol\":2723:2741  _transferOwnership */\n      tag_134\n        /* \"@openzeppelin/contracts/access/Ownable.sol\":2723:2751  _transferOwnership(newOwner) */\n      jump\t// in\n        /* \"@openzeppelin/contracts/access/Ownable.sol\":1796:1958  function _checkOwner() internal view virtual {... */\n    tag_112:\n        /* \"@openzeppelin/contracts/access/Ownable.sol\":1684:1691  address */\n      0x00\n        /* \"@openzeppelin/contracts/access/Ownable.sol\":1710:1716  _owner */\n      sload\n      sub(shl(0xa0, 0x01), 0x01)\n      and\n        /* \"@openzeppelin/contracts/utils/Context.sol\":735:745  msg.sender */\n      caller\n        /* \"@openzeppelin/contracts/access/Ownable.sol\":1855:1878  owner() != _msgSender() */\n      eq\n        /* \"@openzeppelin/contracts/access/Ownable.sol\":1851:1952  if (owner() != _msgSender()) {... */\n      tag_114\n      jumpi\n        /* \"@openzeppelin/contracts/access/Ownable.sol\":1901:1941  OwnableUnauthorizedAccount(_msgSender()) */\n      mload(0x40)\n      shl(0xe0, 0x118cdaa7)\n      dup2\n      mstore\n        /* \"@openzeppelin/contracts/utils/Context.sol\":735:745  msg.sender */\n      caller\n        /* \"@openzeppelin/contracts/access/Ownable.sol\":1901:1941  OwnableUnauthorizedAccount(_msgSender()) */\n      0x04\n      dup3\n      add\n        /* \"#utility.yul\":364:415   */\n      mstore\n        /* \"#utility.yul\":337:355   */\n      0x24\n      add\n        /* \"@openzeppelin/contracts/access/Ownable.sol\":1901:1941  OwnableUnauthorizedAccount(_msgSender()) */\n      tag_155\n        /* \"#utility.yul\":196:421   */\n      jump\n        /* \"@openzeppelin/contracts/utils/Pausable.sol\":2710:2827  function _unpause() internal virtual whenPaused {... */\n    tag_115:\n        /* \"@openzeppelin/contracts/utils/Pausable.sol\":1721:1737  _requirePaused() */\n      tag_304\n        /* \"@openzeppelin/contracts/utils/Pausable.sol\":1721:1735  _requirePaused */\n      tag_305\n        /* \"@openzeppelin/contracts/utils/Pausable.sol\":1721:1737  _requirePaused() */\n      jump\t// in\n    tag_304:\n        /* \"@openzeppelin/contracts/utils/Pausable.sol\":2768:2775  _paused */\n      0x02\n        /* \"@openzeppelin/contracts/utils/Pausable.sol\":2768:2783  _paused = false */\n      dup1\n      sload\n      not(0xff)\n      and\n      swap1\n      sstore\n        /* \"@openzeppelin/contracts/utils/Pausable.sol\":2798:2820  Unpaused(_msgSender()) */\n      0x5db9ee0a495bf2e6ff9c91a7834c1ba4fdd244a5e8aa4e537bd38aeae4b073aa\n        /* \"@openzeppelin/contracts/utils/Context.sol\":735:745  msg.sender */\n      caller\n        /* \"@openzeppelin/contracts/utils/Pausable.sol\":2807:2819  _msgSender() */\n    tag_307:\n        /* \"@openzeppelin/contracts/utils/Pausable.sol\":2798:2820  Unpaused(_msgSender()) */\n      mload(0x40)\n      sub(shl(0xa0, 0x01), 0x01)\n        /* \"#utility.yul\":382:414   */\n      swap1\n      swap2\n      and\n        /* \"#utility.yul\":364:415   */\n      dup2\n      mstore\n        /* \"#utility.yul\":352:354   */\n      0x20\n        /* \"#utility.yul\":337:355   */\n      add\n        /* \"@openzeppelin/contracts/utils/Pausable.sol\":2798:2820  Unpaused(_msgSender()) */\n      mload(0x40)\n      dup1\n      swap2\n      sub\n      swap1\n      log1\n        /* \"@openzeppelin/contracts/utils/Pausable.sol\":2710:2827  function _unpause() internal virtual whenPaused {... */\n      jump\t// out\n        /* \"@openzeppelin/contracts/access/Ownable.sol\":2912:3099  function _transferOwnership(address newOwner) internal virtual {... */\n    tag_134:\n        /* \"@openzeppelin/contracts/access/Ownable.sol\":2985:3001  address oldOwner */\n      0x00\n        /* \"@openzeppelin/contracts/access/Ownable.sol\":3004:3010  _owner */\n      dup1\n      sload\n      sub(shl(0xa0, 0x01), 0x01)\n        /* \"@openzeppelin/contracts/access/Ownable.sol\":3020:3037  _owner = newOwner */\n      dup4\n      dup2\n      and\n      not(sub(shl(0xa0, 0x01), 0x01))\n      dup4\n      and\n      dup2\n      or\n      dup5\n      sstore\n        /* \"@openzeppelin/contracts/access/Ownable.sol\":3052:3092  OwnershipTransferred(oldOwner, newOwner) */\n      mload(0x40)\n        /* \"@openzeppelin/contracts/access/Ownable.sol\":3004:3010  _owner */\n      swap2\n      swap1\n      swap3\n      and\n      swap3\n      dup4\n      swap2\n        /* \"@openzeppelin/contracts/access/Ownable.sol\":3052:3092  OwnershipTransferred(oldOwner, newOwner) */\n      0x8be0079c531659141344cd1fd0a4f28419497f9722a3daafe3b4186f6b6457e0\n      swap2\n        /* \"@openzeppelin/contracts/access/Ownable.sol\":2985:3001  address oldOwner */\n      swap1\n        /* \"@openzeppelin/contracts/access/Ownable.sol\":3052:3092  OwnershipTransferred(oldOwner, newOwner) */\n      log3\n        /* \"@openzeppelin/contracts/access/Ownable.sol\":2975:3099  {... */\n      pop\n        /* \"@openzeppelin/contracts/access/Ownable.sol\":2912:3099  function _transferOwnership(address newOwner) internal virtual {... */\n      pop\n      jump\t// out\n        /* \"@openzeppelin/contracts/utils/Pausable.sol\":2002:2130  function _requireNotPaused() internal view virtual {... */\n    tag_168:\n        /* \"@openzeppelin/contracts/utils/Pausable.sol\":1920:1927  _paused */\n      and(0xff, sload(0x02))\n        /* \"@openzeppelin/contracts/utils/Pausable.sol\":2063:2124  if (paused()) {... */\n      iszero\n      tag_114\n      jumpi\n        /* \"@openzeppelin/contracts/utils/Pausable.sol\":2098:2113  EnforcedPause() */\n      mload(0x40)\n      shl(0xe0, 0xd93c0665)\n      dup2\n      mstore\n      0x04\n      add\n      mload(0x40)\n      dup1\n      swap2\n      sub\n      swap1\n      revert\n        /* \"@openzeppelin/contracts/utils/ReentrancyGuard.sol\":2575:2882  function _nonReentrantBefore() private {... */\n    tag_171:\n        /* \"@openzeppelin/contracts/utils/ReentrancyGuard.sol\":1899:1900  2 */\n      0x02\n        /* \"@openzeppelin/contracts/utils/ReentrancyGuard.sol\":2702:2709  _status */\n      sload(0x01)\n        /* \"@openzeppelin/contracts/utils/ReentrancyGuard.sol\":2702:2720  _status == ENTERED */\n      sub\n        /* \"@openzeppelin/contracts/utils/ReentrancyGuard.sol\":2698:2784  if (_status == ENTERED) {... */\n      tag_314\n      jumpi\n        /* \"@openzeppelin/contracts/utils/ReentrancyGuard.sol\":2743:2773  ReentrancyGuardReentrantCall() */\n      mload(0x40)\n      shl(0xe0, 0x3ee5aeb5)\n      dup2\n      mstore\n      0x04\n      add\n      mload(0x40)\n      dup1\n      swap2\n      sub\n      swap1\n      revert\n        /* \"@openzeppelin/contracts/utils/ReentrancyGuard.sol\":2698:2784  if (_status == ENTERED) {... */\n    tag_314:\n        /* \"@openzeppelin/contracts/utils/ReentrancyGuard.sol\":1899:1900  2 */\n      0x02\n        /* \"@openzeppelin/contracts/utils/ReentrancyGuard.sol\":2858:2865  _status */\n      0x01\n        /* \"@openzeppelin/contracts/utils/ReentrancyGuard.sol\":2858:2875  _status = ENTERED */\n      sstore\n        /* \"@openzeppelin/contracts/utils/ReentrancyGuard.sol\":2575:2882  function _nonReentrantBefore() private {... */\n      jump\t// out\n        /* \"hardhat/contracts/CanvassingSurvey.sol\":6736:6989  function markParticipantAsHavingClaimedReward(... */\n    tag_186:\n      sub(shl(0xa0, 0x01), 0x01)\n        /* \"hardhat/contracts/CanvassingSurvey.sol\":6848:6907  participantsWhoHaveClaimedRewards[participantWalletAddress] */\n      dup2\n      and\n      0x00\n      dup2\n      dup2\n      mstore\n        /* \"hardhat/contracts/CanvassingSurvey.sol\":6848:6881  participantsWhoHaveClaimedRewards */\n      0x04\n        /* \"hardhat/contracts/CanvassingSurvey.sol\":6848:6907  participantsWhoHaveClaimedRewards[participantWalletAddress] */\n      0x20\n      swap1\n      dup2\n      mstore\n      0x40\n      swap2\n      dup3\n      swap1\n      keccak256\n        /* \"hardhat/contracts/CanvassingSurvey.sol\":6848:6914  participantsWhoHaveClaimedRewards[participantWalletAddress] = true */\n      dup1\n      sload\n      not(0xff)\n      and\n        /* \"hardhat/contracts/CanvassingSurvey.sol\":6910:6914  true */\n      0x01\n        /* \"hardhat/contracts/CanvassingSurvey.sol\":6848:6914  participantsWhoHaveClaimedRewards[participantWalletAddress] = true */\n      or\n      swap1\n      sstore\n        /* \"hardhat/contracts/CanvassingSurvey.sol\":6929:6982  ParticipantMarkedAsRewarded(participantWalletAddress) */\n      swap1\n      mload\n        /* \"#utility.yul\":364:415   */\n      swap2\n      dup3\n      mstore\n        /* \"hardhat/contracts/CanvassingSurvey.sol\":6929:6982  ParticipantMarkedAsRewarded(participantWalletAddress) */\n      0x654c9a027765e6feb862f42d438e9f6948f9ee31113e379f0372b30efc722943\n      swap2\n        /* \"#utility.yul\":337:355   */\n      add\n        /* \"hardhat/contracts/CanvassingSurvey.sol\":6929:6982  ParticipantMarkedAsRewarded(participantWalletAddress) */\n      mload(0x40)\n      dup1\n      swap2\n      sub\n      swap1\n      log1\n        /* \"hardhat/contracts/CanvassingSurvey.sol\":6736:6989  function markParticipantAsHavingClaimedReward(... */\n      pop\n      jump\t// out\n        /* \"hardhat/contracts/CanvassingSurvey.sol\":6995:7610  function rewardParticipant(address participantWalletAddress) private {... */\n    tag_188:\n        /* \"hardhat/contracts/CanvassingSurvey.sol\":7110:7136  targetNumberOfParticipants */\n      sload(0x06)\n        /* \"hardhat/contracts/CanvassingSurvey.sol\":7078:7106  numberOfRewardedParticipants */\n      sload(0x07)\n        /* \"hardhat/contracts/CanvassingSurvey.sol\":7078:7136  numberOfRewardedParticipants == targetNumberOfParticipants */\n      sub\n        /* \"hardhat/contracts/CanvassingSurvey.sol\":7074:7195  if (numberOfRewardedParticipants == targetNumberOfParticipants) {... */\n      tag_318\n      jumpi\n        /* \"hardhat/contracts/CanvassingSurvey.sol\":7159:7184  AllParticipantsRewarded() */\n      mload(0x40)\n      shl(0xea, 0x27007f)\n      dup2\n      mstore\n      0x04\n      add\n      mload(0x40)\n      dup1\n      swap2\n      sub\n      swap1\n      revert\n        /* \"hardhat/contracts/CanvassingSurvey.sol\":7074:7195  if (numberOfRewardedParticipants == targetNumberOfParticipants) {... */\n    tag_318:\n        /* \"hardhat/contracts/CanvassingSurvey.sol\":7284:7315  rewardAmountPerParticipantInWei */\n      sload(0x05)\n        /* \"hardhat/contracts/CanvassingSurvey.sol\":7219:7325  cUSD.transfer(... */\n      mload(0x40)\n      shl(0xe0, 0xa9059cbb)\n      dup2\n      mstore\n      sub(shl(0xa0, 0x01), 0x01)\n        /* \"#utility.yul\":4392:4424   */\n      dup4\n      dup2\n      and\n        /* \"hardhat/contracts/CanvassingSurvey.sol\":7219:7325  cUSD.transfer(... */\n      0x04\n      dup4\n      add\n        /* \"#utility.yul\":4374:4425   */\n      mstore\n        /* \"#utility.yul\":4441:4459   */\n      0x24\n      dup3\n      add\n        /* \"#utility.yul\":4434:4468   */\n      swap3\n      swap1\n      swap3\n      mstore\n        /* \"hardhat/contracts/CanvassingSurvey.sol\":7204:7216  bool success */\n      0x00\n      swap2\n        /* \"hardhat/contracts/CanvassingSurvey.sol\":7219:7223  cUSD */\n      immutable(\"0x4ce4dab4689da140a0c12de1a6af6b8f679594aeb723205f513e052d27f5b26f\")\n        /* \"hardhat/contracts/CanvassingSurvey.sol\":7219:7232  cUSD.transfer */\n      and\n      swap1\n      0xa9059cbb\n      swap1\n        /* \"#utility.yul\":4347:4365   */\n      0x44\n      add\n        /* \"hardhat/contracts/CanvassingSurvey.sol\":7219:7325  cUSD.transfer(... */\n      0x20\n      mload(0x40)\n      dup1\n      dup4\n      sub\n      dup2\n      0x00\n      dup8\n      gas\n      call\n      iszero\n      dup1\n      iszero\n      tag_321\n      jumpi\n      returndatacopy(0x00, 0x00, returndatasize)\n      revert(0x00, returndatasize)\n    tag_321:\n      pop\n      pop\n      pop\n      pop\n      mload(0x40)\n      returndatasize\n      not(0x1f)\n      0x1f\n      dup3\n      add\n      and\n      dup3\n      add\n      dup1\n      0x40\n      mstore\n      pop\n      dup2\n      add\n      swap1\n      tag_322\n      swap2\n      swap1\n      tag_284\n      jump\t// in\n    tag_322:\n        /* \"hardhat/contracts/CanvassingSurvey.sol\":7204:7325  bool success = cUSD.transfer(... */\n      swap1\n      pop\n        /* \"hardhat/contracts/CanvassingSurvey.sol\":7340:7347  success */\n      dup1\n        /* \"hardhat/contracts/CanvassingSurvey.sol\":7335:7403  if (!success) {... */\n      tag_323\n      jumpi\n        /* \"hardhat/contracts/CanvassingSurvey.sol\":7370:7392  RewardTransferFailed() */\n      mload(0x40)\n      shl(0xe4, 0x078ecf41)\n      dup2\n      mstore\n      0x04\n      add\n      mload(0x40)\n      dup1\n      swap2\n      sub\n      swap1\n      revert\n        /* \"hardhat/contracts/CanvassingSurvey.sol\":7335:7403  if (!success) {... */\n    tag_323:\n        /* \"hardhat/contracts/CanvassingSurvey.sol\":7438:7466  numberOfRewardedParticipants */\n      0x07\n        /* \"hardhat/contracts/CanvassingSurvey.sol\":7436:7466  ++numberOfRewardedParticipants */\n      dup1\n      sload\n      0x01\n      add\n      swap1\n      sstore\n        /* \"hardhat/contracts/CanvassingSurvey.sol\":7562:7593  rewardAmountPerParticipantInWei */\n      sload(0x05)\n        /* \"hardhat/contracts/CanvassingSurvey.sol\":7491:7603  ParticipantRewarded(... */\n      0x40\n      dup1\n      mload\n      sub(shl(0xa0, 0x01), 0x01)\n        /* \"#utility.yul\":4392:4424   */\n      dup6\n      and\n        /* \"#utility.yul\":4374:4425   */\n      dup2\n      mstore\n        /* \"#utility.yul\":4456:4458   */\n      0x20\n        /* \"#utility.yul\":4441:4459   */\n      dup2\n      add\n        /* \"#utility.yul\":4434:4468   */\n      swap3\n      swap1\n      swap3\n      mstore\n        /* \"hardhat/contracts/CanvassingSurvey.sol\":7491:7603  ParticipantRewarded(... */\n      0x8934d7a9692e763e356fd30d84ca5f61a737b35c5ccd5d31d4f140310267b73e\n      swap2\n        /* \"#utility.yul\":4347:4365   */\n      add\n        /* \"hardhat/contracts/CanvassingSurvey.sol\":7491:7603  ParticipantRewarded(... */\n      tag_257\n        /* \"#utility.yul\":4200:4474   */\n      jump\n        /* \"@openzeppelin/contracts/utils/Pausable.sol\":2463:2578  function _pause() internal virtual whenNotPaused {... */\n    tag_249:\n        /* \"@openzeppelin/contracts/utils/Pausable.sol\":1474:1493  _requireNotPaused() */\n      tag_327\n        /* \"@openzeppelin/contracts/utils/Pausable.sol\":1474:1491  _requireNotPaused */\n      tag_168\n        /* \"@openzeppelin/contracts/utils/Pausable.sol\":1474:1493  _requireNotPaused() */\n      jump\t// in\n    tag_327:\n        /* \"@openzeppelin/contracts/utils/Pausable.sol\":2522:2529  _paused */\n      0x02\n        /* \"@openzeppelin/contracts/utils/Pausable.sol\":2522:2536  _paused = true */\n      dup1\n      sload\n      not(0xff)\n      and\n        /* \"@openzeppelin/contracts/utils/Pausable.sol\":2532:2536  true */\n      0x01\n        /* \"@openzeppelin/contracts/utils/Pausable.sol\":2522:2536  _paused = true */\n      or\n      swap1\n      sstore\n        /* \"@openzeppelin/contracts/utils/Pausable.sol\":2551:2571  Paused(_msgSender()) */\n      0x62e78cea01bee320cd4e420270b5ea74000d11b0c9f74754ebdbfc544b05a258\n        /* \"@openzeppelin/contracts/utils/Pausable.sol\":2558:2570  _msgSender() */\n      tag_307\n        /* \"@openzeppelin/contracts/utils/Context.sol\":735:745  msg.sender */\n      caller\n      swap1\n        /* \"@openzeppelin/contracts/utils/Context.sol\":656:752  function _msgSender() internal view virtual returns (address) {... */\n      jump\n        /* \"@openzeppelin/contracts/utils/Pausable.sol\":2202:2328  function _requirePaused() internal view virtual {... */\n    tag_305:\n        /* \"@openzeppelin/contracts/utils/Pausable.sol\":1920:1927  _paused */\n      and(0xff, sload(0x02))\n        /* \"@openzeppelin/contracts/utils/Pausable.sol\":2260:2322  if (!paused()) {... */\n      tag_114\n      jumpi\n        /* \"@openzeppelin/contracts/utils/Pausable.sol\":2296:2311  ExpectedPause() */\n      mload(0x40)\n      shl(0xe0, 0x8dfc202b)\n      dup2\n      mstore\n      0x04\n      add\n      mload(0x40)\n      dup1\n      swap2\n      sub\n      swap1\n      revert\n        /* \"#utility.yul\":426:606   */\n    tag_42:\n        /* \"#utility.yul\":485:491   */\n      0x00\n        /* \"#utility.yul\":538:540   */\n      0x20\n        /* \"#utility.yul\":526:535   */\n      dup3\n        /* \"#utility.yul\":517:524   */\n      dup5\n        /* \"#utility.yul\":513:536   */\n      sub\n        /* \"#utility.yul\":509:541   */\n      slt\n        /* \"#utility.yul\":506:558   */\n      iszero\n      tag_340\n      jumpi\n        /* \"#utility.yul\":554:555   */\n      0x00\n        /* \"#utility.yul\":551:552   */\n      0x00\n        /* \"#utility.yul\":544:556   */\n      revert\n        /* \"#utility.yul\":506:558   */\n    tag_340:\n      pop\n        /* \"#utility.yul\":577:600   */\n      calldataload\n      swap2\n        /* \"#utility.yul\":426:606   */\n      swap1\n      pop\n      jump\t// out\n        /* \"#utility.yul\":803:976   */\n    tag_335:\n        /* \"#utility.yul\":871:891   */\n      dup1\n      calldataload\n      sub(shl(0xa0, 0x01), 0x01)\n        /* \"#utility.yul\":920:951   */\n      dup2\n      and\n        /* \"#utility.yul\":910:952   */\n      dup2\n      eq\n        /* \"#utility.yul\":900:970   */\n      tag_343\n      jumpi\n        /* \"#utility.yul\":966:967   */\n      0x00\n        /* \"#utility.yul\":963:964   */\n      0x00\n        /* \"#utility.yul\":956:968   */\n      revert\n        /* \"#utility.yul\":900:970   */\n    tag_343:\n        /* \"#utility.yul\":803:976   */\n      swap2\n      swap1\n      pop\n      jump\t// out\n        /* \"#utility.yul\":981:1167   */\n    tag_53:\n        /* \"#utility.yul\":1040:1046   */\n      0x00\n        /* \"#utility.yul\":1093:1095   */\n      0x20\n        /* \"#utility.yul\":1081:1090   */\n      dup3\n        /* \"#utility.yul\":1072:1079   */\n      dup5\n        /* \"#utility.yul\":1068:1091   */\n      sub\n        /* \"#utility.yul\":1064:1096   */\n      slt\n        /* \"#utility.yul\":1061:1113   */\n      iszero\n      tag_345\n      jumpi\n        /* \"#utility.yul\":1109:1110   */\n      0x00\n        /* \"#utility.yul\":1106:1107   */\n      0x00\n        /* \"#utility.yul\":1099:1111   */\n      revert\n        /* \"#utility.yul\":1061:1113   */\n    tag_345:\n        /* \"#utility.yul\":1132:1161   */\n      tag_346\n        /* \"#utility.yul\":1151:1160   */\n      dup3\n        /* \"#utility.yul\":1132:1161   */\n      tag_335\n      jump\t// in\n    tag_346:\n        /* \"#utility.yul\":1122:1161   */\n      swap4\n        /* \"#utility.yul\":981:1167   */\n      swap3\n      pop\n      pop\n      pop\n      jump\t// out\n        /* \"#utility.yul\":1172:1782   */\n    tag_69:\n        /* \"#utility.yul\":1258:1264   */\n      0x00\n        /* \"#utility.yul\":1266:1272   */\n      0x00\n        /* \"#utility.yul\":1319:1321   */\n      0x20\n        /* \"#utility.yul\":1307:1316   */\n      dup4\n        /* \"#utility.yul\":1298:1305   */\n      dup6\n        /* \"#utility.yul\":1294:1317   */\n      sub\n        /* \"#utility.yul\":1290:1322   */\n      slt\n        /* \"#utility.yul\":1287:1339   */\n      iszero\n      tag_348\n      jumpi\n        /* \"#utility.yul\":1335:1336   */\n      0x00\n        /* \"#utility.yul\":1332:1333   */\n      0x00\n        /* \"#utility.yul\":1325:1337   */\n      revert\n        /* \"#utility.yul\":1287:1339   */\n    tag_348:\n        /* \"#utility.yul\":1375:1384   */\n      dup3\n        /* \"#utility.yul\":1362:1385   */\n      calldataload\n        /* \"#utility.yul\":1408:1426   */\n      0xffffffffffffffff\n        /* \"#utility.yul\":1400:1406   */\n      dup2\n        /* \"#utility.yul\":1397:1427   */\n      gt\n        /* \"#utility.yul\":1394:1444   */\n      iszero\n      tag_349\n      jumpi\n        /* \"#utility.yul\":1440:1441   */\n      0x00\n        /* \"#utility.yul\":1437:1438   */\n      0x00\n        /* \"#utility.yul\":1430:1442   */\n      revert\n        /* \"#utility.yul\":1394:1444   */\n    tag_349:\n        /* \"#utility.yul\":1463:1485   */\n      dup4\n      add\n        /* \"#utility.yul\":1516:1520   */\n      0x1f\n        /* \"#utility.yul\":1508:1521   */\n      dup2\n      add\n        /* \"#utility.yul\":1504:1531   */\n      dup6\n      sgt\n        /* \"#utility.yul\":1494:1549   */\n      tag_350\n      jumpi\n        /* \"#utility.yul\":1545:1546   */\n      0x00\n        /* \"#utility.yul\":1542:1543   */\n      0x00\n        /* \"#utility.yul\":1535:1547   */\n      revert\n        /* \"#utility.yul\":1494:1549   */\n    tag_350:\n        /* \"#utility.yul\":1585:1587   */\n      dup1\n        /* \"#utility.yul\":1572:1588   */\n      calldataload\n        /* \"#utility.yul\":1611:1629   */\n      0xffffffffffffffff\n        /* \"#utility.yul\":1603:1609   */\n      dup2\n        /* \"#utility.yul\":1600:1630   */\n      gt\n        /* \"#utility.yul\":1597:1647   */\n      iszero\n      tag_351\n      jumpi\n        /* \"#utility.yul\":1643:1644   */\n      0x00\n        /* \"#utility.yul\":1640:1641   */\n      0x00\n        /* \"#utility.yul\":1633:1645   */\n      revert\n        /* \"#utility.yul\":1597:1647   */\n    tag_351:\n        /* \"#utility.yul\":1696:1703   */\n      dup6\n        /* \"#utility.yul\":1691:1693   */\n      0x20\n        /* \"#utility.yul\":1681:1687   */\n      dup3\n        /* \"#utility.yul\":1678:1679   */\n      0x05\n        /* \"#utility.yul\":1674:1688   */\n      shl\n        /* \"#utility.yul\":1670:1672   */\n      dup5\n        /* \"#utility.yul\":1666:1689   */\n      add\n        /* \"#utility.yul\":1662:1694   */\n      add\n        /* \"#utility.yul\":1659:1704   */\n      gt\n        /* \"#utility.yul\":1656:1721   */\n      iszero\n      tag_352\n      jumpi\n        /* \"#utility.yul\":1717:1718   */\n      0x00\n        /* \"#utility.yul\":1714:1715   */\n      0x00\n        /* \"#utility.yul\":1707:1719   */\n      revert\n        /* \"#utility.yul\":1656:1721   */\n    tag_352:\n        /* \"#utility.yul\":1748:1750   */\n      0x20\n        /* \"#utility.yul\":1740:1751   */\n      swap2\n      swap1\n      swap2\n      add\n      swap6\n        /* \"#utility.yul\":1770:1776   */\n      swap1\n      swap5\n      pop\n        /* \"#utility.yul\":1172:1782   */\n      swap3\n      pop\n      pop\n      pop\n      jump\t// out\n        /* \"#utility.yul\":1995:2632   */\n    tag_86:\n        /* \"#utility.yul\":2185:2187   */\n      0x20\n        /* \"#utility.yul\":2197:2218   */\n      dup1\n      dup3\n      mstore\n        /* \"#utility.yul\":2267:2280   */\n      dup3\n      mload\n        /* \"#utility.yul\":2170:2188   */\n      dup3\n      dup3\n      add\n        /* \"#utility.yul\":2289:2311   */\n      dup2\n      swap1\n      mstore\n        /* \"#utility.yul\":2137:2141   */\n      0x00\n      swap2\n        /* \"#utility.yul\":2368:2383   */\n      dup5\n      add\n      swap1\n        /* \"#utility.yul\":2342:2344   */\n      0x40\n        /* \"#utility.yul\":2327:2345   */\n      dup5\n      add\n      swap1\n        /* \"#utility.yul\":2137:2141   */\n      dup4\n        /* \"#utility.yul\":2411:2606   */\n    tag_355:\n        /* \"#utility.yul\":2425:2431   */\n      dup2\n        /* \"#utility.yul\":2422:2423   */\n      dup2\n        /* \"#utility.yul\":2419:2432   */\n      lt\n        /* \"#utility.yul\":2411:2606   */\n      iszero\n      tag_357\n      jumpi\n        /* \"#utility.yul\":2490:2503   */\n      dup4\n      mload\n      sub(shl(0xa0, 0x01), 0x01)\n        /* \"#utility.yul\":2486:2525   */\n      and\n        /* \"#utility.yul\":2474:2526   */\n      dup4\n      mstore\n        /* \"#utility.yul\":2555:2557   */\n      0x20\n        /* \"#utility.yul\":2581:2596   */\n      swap4\n      dup5\n      add\n      swap4\n        /* \"#utility.yul\":2546:2558   */\n      swap1\n      swap3\n      add\n      swap2\n        /* \"#utility.yul\":2522:2523   */\n      0x01\n        /* \"#utility.yul\":2440:2449   */\n      add\n        /* \"#utility.yul\":2411:2606   */\n      jump(tag_355)\n    tag_357:\n      pop\n        /* \"#utility.yul\":2623:2626   */\n      swap1\n      swap6\n        /* \"#utility.yul\":1995:2632   */\n      swap5\n      pop\n      pop\n      pop\n      pop\n      pop\n      jump\t// out\n        /* \"#utility.yul\":2890:3017   */\n    tag_145:\n        /* \"#utility.yul\":2951:2961   */\n      0x4e487b71\n        /* \"#utility.yul\":2946:2949   */\n      0xe0\n        /* \"#utility.yul\":2942:2962   */\n      shl\n        /* \"#utility.yul\":2939:2940   */\n      0x00\n        /* \"#utility.yul\":2932:2963   */\n      mstore\n        /* \"#utility.yul\":2982:2986   */\n      0x32\n        /* \"#utility.yul\":2979:2980   */\n      0x04\n        /* \"#utility.yul\":2972:2987   */\n      mstore\n        /* \"#utility.yul\":3006:3010   */\n      0x24\n        /* \"#utility.yul\":3003:3004   */\n      0x00\n        /* \"#utility.yul\":2996:3011   */\n      revert\n        /* \"#utility.yul\":3022:3637   */\n    tag_163:\n        /* \"#utility.yul\":3222:3224   */\n      0x20\n        /* \"#utility.yul\":3234:3255   */\n      dup1\n      dup3\n      mstore\n        /* \"#utility.yul\":3207:3225   */\n      dup2\n      add\n        /* \"#utility.yul\":3290:3312   */\n      dup3\n      swap1\n      mstore\n        /* \"#utility.yul\":3174:3178   */\n      0x00\n        /* \"#utility.yul\":3369:3375   */\n      dup4\n        /* \"#utility.yul\":3343:3345   */\n      0x40\n        /* \"#utility.yul\":3328:3346   */\n      dup4\n      add\n        /* \"#utility.yul\":3174:3178   */\n      dup3\n        /* \"#utility.yul\":3403:3611   */\n    tag_361:\n        /* \"#utility.yul\":3417:3423   */\n      dup6\n        /* \"#utility.yul\":3414:3415   */\n      dup2\n        /* \"#utility.yul\":3411:3424   */\n      lt\n        /* \"#utility.yul\":3403:3611   */\n      iszero\n      tag_363\n      jumpi\n      sub(shl(0xa0, 0x01), 0x01)\n        /* \"#utility.yul\":3482:3508   */\n      tag_364\n        /* \"#utility.yul\":3501:3507   */\n      dup5\n        /* \"#utility.yul\":3482:3508   */\n      tag_335\n      jump\t// in\n    tag_364:\n        /* \"#utility.yul\":3478:3530   */\n      and\n        /* \"#utility.yul\":3466:3531   */\n      dup3\n      mstore\n        /* \"#utility.yul\":3560:3562   */\n      0x20\n        /* \"#utility.yul\":3586:3601   */\n      swap3\n      dup4\n      add\n      swap3\n        /* \"#utility.yul\":3551:3563   */\n      swap1\n      swap2\n      add\n      swap1\n        /* \"#utility.yul\":3439:3440   */\n      0x01\n        /* \"#utility.yul\":3432:3441   */\n      add\n        /* \"#utility.yul\":3403:3611   */\n      jump(tag_361)\n    tag_363:\n      pop\n        /* \"#utility.yul\":3628:3631   */\n      swap6\n        /* \"#utility.yul\":3022:3637   */\n      swap5\n      pop\n      pop\n      pop\n      pop\n      pop\n      jump\t// out\n        /* \"#utility.yul\":3642:3826   */\n    tag_183:\n        /* \"#utility.yul\":3712:3718   */\n      0x00\n        /* \"#utility.yul\":3765:3767   */\n      0x20\n        /* \"#utility.yul\":3753:3762   */\n      dup3\n        /* \"#utility.yul\":3744:3751   */\n      dup5\n        /* \"#utility.yul\":3740:3763   */\n      sub\n        /* \"#utility.yul\":3736:3768   */\n      slt\n        /* \"#utility.yul\":3733:3785   */\n      iszero\n      tag_366\n      jumpi\n        /* \"#utility.yul\":3781:3782   */\n      0x00\n        /* \"#utility.yul\":3778:3779   */\n      0x00\n        /* \"#utility.yul\":3771:3783   */\n      revert\n        /* \"#utility.yul\":3733:3785   */\n    tag_366:\n      pop\n        /* \"#utility.yul\":3804:3820   */\n      mload\n      swap2\n        /* \"#utility.yul\":3642:3826   */\n      swap1\n      pop\n      jump\t// out\n        /* \"#utility.yul\":3831:4063   */\n    tag_201:\n        /* \"#utility.yul\":3870:3873   */\n      0x00\n        /* \"#utility.yul\":3891:3908   */\n      0x01\n      dup3\n      add\n        /* \"#utility.yul\":3888:4028   */\n      tag_368\n      jumpi\n        /* \"#utility.yul\":3950:3960   */\n      0x4e487b71\n        /* \"#utility.yul\":3945:3948   */\n      0xe0\n        /* \"#utility.yul\":3941:3961   */\n      shl\n        /* \"#utility.yul\":3938:3939   */\n      0x00\n        /* \"#utility.yul\":3931:3962   */\n      mstore\n        /* \"#utility.yul\":3985:3989   */\n      0x11\n        /* \"#utility.yul\":3982:3983   */\n      0x04\n        /* \"#utility.yul\":3975:3990   */\n      mstore\n        /* \"#utility.yul\":4013:4017   */\n      0x24\n        /* \"#utility.yul\":4010:4011   */\n      0x00\n        /* \"#utility.yul\":4003:4018   */\n      revert\n        /* \"#utility.yul\":3888:4028   */\n    tag_368:\n      pop\n        /* \"#utility.yul\":4055:4056   */\n      0x01\n        /* \"#utility.yul\":4044:4057   */\n      add\n      swap1\n        /* \"#utility.yul\":3831:4063   */\n      jump\t// out\n        /* \"#utility.yul\":4068:4195   */\n    tag_204:\n        /* \"#utility.yul\":4129:4139   */\n      0x4e487b71\n        /* \"#utility.yul\":4124:4127   */\n      0xe0\n        /* \"#utility.yul\":4120:4140   */\n      shl\n        /* \"#utility.yul\":4117:4118   */\n      0x00\n        /* \"#utility.yul\":4110:4141   */\n      mstore\n        /* \"#utility.yul\":4160:4164   */\n      0x41\n        /* \"#utility.yul\":4157:4158   */\n      0x04\n        /* \"#utility.yul\":4150:4165   */\n      mstore\n        /* \"#utility.yul\":4184:4188   */\n      0x24\n        /* \"#utility.yul\":4181:4182   */\n      0x00\n        /* \"#utility.yul\":4174:4189   */\n      revert\n        /* \"#utility.yul\":4479:4756   */\n    tag_284:\n        /* \"#utility.yul\":4546:4552   */\n      0x00\n        /* \"#utility.yul\":4599:4601   */\n      0x20\n        /* \"#utility.yul\":4587:4596   */\n      dup3\n        /* \"#utility.yul\":4578:4585   */\n      dup5\n        /* \"#utility.yul\":4574:4597   */\n      sub\n        /* \"#utility.yul\":4570:4602   */\n      slt\n        /* \"#utility.yul\":4567:4619   */\n      iszero\n      tag_372\n      jumpi\n        /* \"#utility.yul\":4615:4616   */\n      0x00\n        /* \"#utility.yul\":4612:4613   */\n      0x00\n        /* \"#utility.yul\":4605:4617   */\n      revert\n        /* \"#utility.yul\":4567:4619   */\n    tag_372:\n        /* \"#utility.yul\":4647:4656   */\n      dup2\n        /* \"#utility.yul\":4641:4657   */\n      mload\n        /* \"#utility.yul\":4700:4705   */\n      dup1\n        /* \"#utility.yul\":4693:4706   */\n      iszero\n        /* \"#utility.yul\":4686:4707   */\n      iszero\n        /* \"#utility.yul\":4679:4684   */\n      dup2\n        /* \"#utility.yul\":4676:4708   */\n      eq\n        /* \"#utility.yul\":4666:4726   */\n      tag_346\n      jumpi\n        /* \"#utility.yul\":4722:4723   */\n      0x00\n        /* \"#utility.yul\":4719:4720   */\n      0x00\n        /* \"#utility.yul\":4712:4724   */\n      revert\n\n    auxdata: 0xa2646970667358221220f5de4faa53a122164520a35f3f5572dbf6df9a4d96a7ac7a75e147509a4a9bce64736f6c634300081c0033\n}\n",
				"bytecode": {
					"linkReferences": {},
					"object": "60a060405234801561000f575f5ffd5b5060405161159538038061159583398101604081905261002e91610174565b836001600160a01b03811661005c57604051631e4fbdf760e01b81525f600482015260240160405180910390fd5b6100658161010a565b50600180556002805460ff191690556001600160a01b038416158061009157506001600160a01b038116155b156100af5760405163d92e233d60e01b815260040160405180910390fd5b825f036100cf57604051630d428a0160e41b815260040160405180910390fd5b815f036100ef576040516336c5eec760e21b815260040160405180910390fd5b6001600160a01b0316608052600591909155600655506101b8565b5f80546001600160a01b038381166001600160a01b0319831681178455604051919092169283917f8be0079c531659141344cd1fd0a4f28419497f9722a3daafe3b4186f6b6457e09190a35050565b80516001600160a01b038116811461016f575f5ffd5b919050565b5f5f5f5f60808587031215610187575f5ffd5b61019085610159565b60208601516040870151919550935091506101ad60608601610159565b905092959194509250565b6080516113a96101ec5f395f8181610178015281816106c501528181610ca601528181610d3c015261106301526113a95ff3fe608060405234801561000f575f5ffd5b5060043610610153575f3560e01c806385737020116100bf578063e082fe2a11610079578063e082fe2a146102e3578063e3bb2d40146102eb578063e8a748e7146102fe578063f22069df14610311578063f2fde38b14610319578063fc05542a1461032c575f5ffd5b806385737020146102585780638da5cb5b14610284578063a085834314610294578063a34db0a0146102a7578063a6a09811146102c7578063c9539f71146102d0575f5ffd5b80636ff65c20116101105780636ff65c20146101f95780637069243c14610224578063715018a61461022c578063741ae614146102345780637a0abf081461023c57806381aeb13b14610245575f5ffd5b80631318fbf1146101575780631fccf672146101735780633960fc66146101b2578063528780cc146101bc5780635c975abb146101cf57806364bb632f146101e6575b5f5ffd5b61016060075481565b6040519081526020015b60405180910390f35b61019a7f000000000000000000000000000000000000000000000000000000000000000081565b6040516001600160a01b03909116815260200161016a565b6101ba610357565b005b6101ba6101ca366004611199565b610369565b60025460ff165b604051901515815260200161016a565b6101ba6101f4366004611199565b6103da565b6101d66102073660046111cb565b6001600160a01b03165f9081526004602052604090205460ff1690565b600554610160565b6101ba610442565b600754610160565b61016060055481565b6101ba6102533660046111eb565b610453565b6101d66102663660046111cb565b6001600160a01b03165f9081526003602052604090205460ff161590565b5f546001600160a01b031661019a565b6101ba6102a23660046111cb565b610612565b6102ba6102b53660046111eb565b610775565b60405161016a919061125c565b61016060065481565b6101ba6102de3660046111eb565b61091b565b6101ba610ad3565b6101ba6102f93660046111cb565b610ae3565b6101ba61030c3660046111cb565b610baf565b6101ba610c77565b6101ba6103273660046111cb565b610e66565b6101d661033a3660046111cb565b6001600160a01b03165f9081526003602052604090205460ff1690565b61035f610ea0565b610367610ecc565b565b610371610ea0565b805f03610391576040516336c5eec760e21b815260040160405180910390fd5b6006805490829055604080518281526020810184905283917f2e31e8893a04ce5258044d342d7658948a6ac9710d97e32462ab75f131ae11ef91015b60405180910390a1505050565b6103e2610ea0565b805f0361040257604051630d428a0160e41b815260040160405180910390fd5b6005805490829055604080518281526020810184905283917ff0d37c3ae852021ac329281f604b658691cbfa6b9e9c22909f06b64a8ce87c9491016103cd565b61044a610ea0565b6103675f610f1e565b61045b610ea0565b805f81900361047d57604051634ec4810560e11b815260040160405180910390fd5b5f5b8181101561057a575f84848381811061049a5761049a6112a7565b90506020020160208101906104af91906111cb565b6001600160a01b0316036104d65760405163d92e233d60e01b815260040160405180910390fd5b60035f8585848181106104eb576104eb6112a7565b905060200201602081019061050091906111cb565b6001600160a01b0316815260208101919091526040015f205460ff161561057257838382818110610533576105336112a7565b905060200201602081019061054891906111cb565b604051633746725b60e11b81526001600160a01b0390911660048201526024015b60405180910390fd5b60010161047f565b505f5b818110156105e057600160035f86868581811061059c5761059c6112a7565b90506020020160208101906105b191906111cb565b6001600160a01b0316815260208101919091526040015f20805460ff191691151591909117905560010161057d565b507f9a9f2a64a3b0b4774da60129aa707715e049cb95062f7acaaffc07ddc244c1cc83836040516103cd9291906112bb565b61061a610f6d565b610622610f91565b6001600160a01b0381165f90815260036020526040902054819060ff166106675760405163de55cc3360e01b81526001600160a01b0382166004820152602401610569565b6001600160a01b0382165f90815260046020526040902054829060ff16156106ad576040516301ee5f6f60e31b81526001600160a01b0382166004820152602401610569565b6005546040516370a0823160e01b81523060048201527f00000000000000000000000000000000000000000000000000000000000000006001600160a01b0316906370a0823190602401602060405180830381865afa158015610712573d5f5f3e3d5ffd5b505050506040513d601f19601f820116820180604052508101906107369190611305565b10156107555760405163786e0a9960e01b815260040160405180910390fd5b61075e83610fbb565b61076783611014565b505061077260018055565b50565b6060815f81900361079957604051634ec4810560e11b815260040160405180910390fd5b5f805b828110156108055760035f8787848181106107b9576107b96112a7565b90506020020160208101906107ce91906111cb565b6001600160a01b0316815260208101919091526040015f205460ff16156107fd57816107f98161131c565b9250505b60010161079c565b505f8167ffffffffffffffff81111561082057610820611340565b604051908082528060200260200182016040528015610849578160200160208202803683370190505b5090505f805b8481101561090f5760035f89898481811061086c5761086c6112a7565b905060200201602081019061088191906111cb565b6001600160a01b0316815260208101919091526040015f205460ff1615610907578787828181106108b4576108b46112a7565b90506020020160208101906108c991906111cb565b83836108d48161131c565b9450815181106108e6576108e66112a7565b60200260200101906001600160a01b031690816001600160a01b0316815250505b60010161084f565b50909695505050505050565b610923610ea0565b805f81900361094557604051634ec4810560e11b815260040160405180910390fd5b5f5b81811015610a3c575f848483818110610962576109626112a7565b905060200201602081019061097791906111cb565b6001600160a01b03160361099e5760405163d92e233d60e01b815260040160405180910390fd5b60035f8585848181106109b3576109b36112a7565b90506020020160208101906109c891906111cb565b6001600160a01b0316815260208101919091526040015f205460ff16610a34578383828181106109fa576109fa6112a7565b9050602002016020810190610a0f91906111cb565b60405163de55cc3360e01b81526001600160a01b039091166004820152602401610569565b600101610947565b505f5b81811015610aa1575f60035f868685818110610a5d57610a5d6112a7565b9050602002016020810190610a7291906111cb565b6001600160a01b0316815260208101919091526040015f20805460ff1916911515919091179055600101610a3f565b507fd68b41369d54faca53e699320360840db6e0e2e175d3974eb304fd18713d916b83836040516103cd9291906112bb565b610adb610ea0565b610367611139565b610aeb610ea0565b6001600160a01b0381165f90815260036020526040902054819060ff16610b305760405163de55cc3360e01b81526001600160a01b0382166004820152602401610569565b6001600160a01b038216610b575760405163d92e233d60e01b815260040160405180910390fd5b6001600160a01b0382165f81815260036020908152604091829020805460ff1916905590519182527fa354190dd7342316e40e5358c9f72037f2c677cdc057d3debbc4f1b62495e2e291015b60405180910390a15050565b610bb7610ea0565b6001600160a01b0381165f90815260036020526040902054819060ff1615610bfd57604051633746725b60e11b81526001600160a01b0382166004820152602401610569565b6001600160a01b038216610c245760405163d92e233d60e01b815260040160405180910390fd5b6001600160a01b0382165f81815260036020908152604091829020805460ff1916600117905590519182527f1afde38c60d2be0d28d001619816d86c39ce78b350c9d94f23c095099b9c1d279101610ba3565b610c7f610ea0565b610c87610f6d565b610c8f610f91565b6040516370a0823160e01b81523060048201525f907f00000000000000000000000000000000000000000000000000000000000000006001600160a01b0316906370a0823190602401602060405180830381865afa158015610cf3573d5f5f3e3d5ffd5b505050506040513d601f19601f82011682018060405250810190610d179190611305565b9050805f03610d39576040516316e3ff0560e21b815260040160405180910390fd5b5f7f00000000000000000000000000000000000000000000000000000000000000006001600160a01b031663a9059cbb610d7a5f546001600160a01b031690565b6040516001600160e01b031960e084901b1681526001600160a01b039091166004820152602481018590526044016020604051808303815f875af1158015610dc4573d5f5f3e3d5ffd5b505050506040513d601f19601f82011682018060405250810190610de89190611354565b905080610e08576040516327fcd9d160e01b815260040160405180910390fd5b7f2036b9b38b69a2fa490ee702733a29cd2550accc20bc96e786cb9beedc779097610e3a5f546001600160a01b031690565b604080516001600160a01b039092168252602082018590520160405180910390a1505061036760018055565b610e6e610ea0565b6001600160a01b038116610e9757604051631e4fbdf760e01b81525f6004820152602401610569565b61077281610f1e565b5f546001600160a01b031633146103675760405163118cdaa760e01b8152336004820152602401610569565b610ed4611176565b6002805460ff191690557f5db9ee0a495bf2e6ff9c91a7834c1ba4fdd244a5e8aa4e537bd38aeae4b073aa335b6040516001600160a01b03909116815260200160405180910390a1565b5f80546001600160a01b038381166001600160a01b0319831681178455604051919092169283917f8be0079c531659141344cd1fd0a4f28419497f9722a3daafe3b4186f6b6457e09190a35050565b60025460ff16156103675760405163d93c066560e01b815260040160405180910390fd5b600260015403610fb457604051633ee5aeb560e01b815260040160405180910390fd5b6002600155565b6001600160a01b0381165f81815260046020908152604091829020805460ff1916600117905590519182527f654c9a027765e6feb862f42d438e9f6948f9ee31113e379f0372b30efc722943910160405180910390a150565b60065460075403611037576040516227007f60ea1b815260040160405180910390fd5b60055460405163a9059cbb60e01b81526001600160a01b03838116600483015260248201929092525f917f0000000000000000000000000000000000000000000000000000000000000000169063a9059cbb906044016020604051808303815f875af11580156110a9573d5f5f3e3d5ffd5b505050506040513d601f19601f820116820180604052508101906110cd9190611354565b9050806110ed5760405163078ecf4160e41b815260040160405180910390fd5b600780546001019055600554604080516001600160a01b038516815260208101929092527f8934d7a9692e763e356fd30d84ca5f61a737b35c5ccd5d31d4f140310267b73e9101610ba3565b611141610f6d565b6002805460ff191660011790557f62e78cea01bee320cd4e420270b5ea74000d11b0c9f74754ebdbfc544b05a258610f013390565b60025460ff1661036757604051638dfc202b60e01b815260040160405180910390fd5b5f602082840312156111a9575f5ffd5b5035919050565b80356001600160a01b03811681146111c6575f5ffd5b919050565b5f602082840312156111db575f5ffd5b6111e4826111b0565b9392505050565b5f5f602083850312156111fc575f5ffd5b823567ffffffffffffffff811115611212575f5ffd5b8301601f81018513611222575f5ffd5b803567ffffffffffffffff811115611238575f5ffd5b8560208260051b840101111561124c575f5ffd5b6020919091019590945092505050565b602080825282518282018190525f918401906040840190835b8181101561129c5783516001600160a01b0316835260209384019390920191600101611275565b509095945050505050565b634e487b7160e01b5f52603260045260245ffd5b602080825281018290525f8360408301825b858110156112fb576001600160a01b036112e6846111b0565b168252602092830192909101906001016112cd565b5095945050505050565b5f60208284031215611315575f5ffd5b5051919050565b5f6001820161133957634e487b7160e01b5f52601160045260245ffd5b5060010190565b634e487b7160e01b5f52604160045260245ffd5b5f60208284031215611364575f5ffd5b815180151581146111e4575f5ffdfea2646970667358221220f5de4faa53a122164520a35f3f5572dbf6df9a4d96a7ac7a75e147509a4a9bce64736f6c634300081c0033",
					"opcodes": "PUSH1 0xA0 PUSH1 0x40 MSTORE CALLVALUE DUP1 ISZERO PUSH2 0xF JUMPI PUSH0 PUSH0 REVERT JUMPDEST POP PUSH1 0x40 MLOAD PUSH2 0x1595 CODESIZE SUB DUP1 PUSH2 0x1595 DUP4 CODECOPY DUP2 ADD PUSH1 0x40 DUP2 SWAP1 MSTORE PUSH2 0x2E SWAP2 PUSH2 0x174 JUMP JUMPDEST DUP4 PUSH1 0x1 PUSH1 0x1 PUSH1 0xA0 SHL SUB DUP2 AND PUSH2 0x5C JUMPI PUSH1 0x40 MLOAD PUSH4 0x1E4FBDF7 PUSH1 0xE0 SHL DUP2 MSTORE PUSH0 PUSH1 0x4 DUP3 ADD MSTORE PUSH1 0x24 ADD PUSH1 0x40 MLOAD DUP1 SWAP2 SUB SWAP1 REVERT JUMPDEST PUSH2 0x65 DUP2 PUSH2 0x10A JUMP JUMPDEST POP PUSH1 0x1 DUP1 SSTORE PUSH1 0x2 DUP1 SLOAD PUSH1 0xFF NOT AND SWAP1 SSTORE PUSH1 0x1 PUSH1 0x1 PUSH1 0xA0 SHL SUB DUP5 AND ISZERO DUP1 PUSH2 0x91 JUMPI POP PUSH1 0x1 PUSH1 0x1 PUSH1 0xA0 SHL SUB DUP2 AND ISZERO JUMPDEST ISZERO PUSH2 0xAF JUMPI PUSH1 0x40 MLOAD PUSH4 0xD92E233D PUSH1 0xE0 SHL DUP2 MSTORE PUSH1 0x4 ADD PUSH1 0x40 MLOAD DUP1 SWAP2 SUB SWAP1 REVERT JUMPDEST DUP3 PUSH0 SUB PUSH2 0xCF JUMPI PUSH1 0x40 MLOAD PUSH4 0xD428A01 PUSH1 0xE4 SHL DUP2 MSTORE PUSH1 0x4 ADD PUSH1 0x40 MLOAD DUP1 SWAP2 SUB SWAP1 REVERT JUMPDEST DUP2 PUSH0 SUB PUSH2 0xEF JUMPI PUSH1 0x40 MLOAD PUSH4 0x36C5EEC7 PUSH1 0xE2 SHL DUP2 MSTORE PUSH1 0x4 ADD PUSH1 0x40 MLOAD DUP1 SWAP2 SUB SWAP1 REVERT JUMPDEST PUSH1 0x1 PUSH1 0x1 PUSH1 0xA0 SHL SUB AND PUSH1 0x80 MSTORE PUSH1 0x5 SWAP2 SWAP1 SWAP2 SSTORE PUSH1 0x6 SSTORE POP PUSH2 0x1B8 JUMP JUMPDEST PUSH0 DUP1 SLOAD PUSH1 0x1 PUSH1 0x1 PUSH1 0xA0 SHL SUB DUP4 DUP2 AND PUSH1 0x1 PUSH1 0x1 PUSH1 0xA0 SHL SUB NOT DUP4 AND DUP2 OR DUP5 SSTORE PUSH1 0x40 MLOAD SWAP2 SWAP1 SWAP3 AND SWAP3 DUP4 SWAP2 PUSH32 0x8BE0079C531659141344CD1FD0A4F28419497F9722A3DAAFE3B4186F6B6457E0 SWAP2 SWAP1 LOG3 POP POP JUMP JUMPDEST DUP1 MLOAD PUSH1 0x1 PUSH1 0x1 PUSH1 0xA0 SHL SUB DUP2 AND DUP2 EQ PUSH2 0x16F JUMPI PUSH0 PUSH0 REVERT JUMPDEST SWAP2 SWAP1 POP JUMP JUMPDEST PUSH0 PUSH0 PUSH0 PUSH0 PUSH1 0x80 DUP6 DUP8 SUB SLT ISZERO PUSH2 0x187 JUMPI PUSH0 PUSH0 REVERT JUMPDEST PUSH2 0x190 DUP6 PUSH2 0x159 JUMP JUMPDEST PUSH1 0x20 DUP7 ADD MLOAD PUSH1 0x40 DUP8 ADD MLOAD SWAP2 SWAP6 POP SWAP4 POP SWAP2 POP PUSH2 0x1AD PUSH1 0x60 DUP7 ADD PUSH2 0x159 JUMP JUMPDEST SWAP1 POP SWAP3 SWAP6 SWAP2 SWAP5 POP SWAP3 POP JUMP JUMPDEST PUSH1 0x80 MLOAD PUSH2 0x13A9 PUSH2 0x1EC PUSH0 CODECOPY PUSH0 DUP2 DUP2 PUSH2 0x178 ADD MSTORE DUP2 DUP2 PUSH2 0x6C5 ADD MSTORE DUP2 DUP2 PUSH2 0xCA6 ADD MSTORE DUP2 DUP2 PUSH2 0xD3C ADD MSTORE PUSH2 0x1063 ADD MSTORE PUSH2 0x13A9 PUSH0 RETURN INVALID PUSH1 0x80 PUSH1 0x40 MSTORE CALLVALUE DUP1 ISZERO PUSH2 0xF JUMPI PUSH0 PUSH0 REVERT JUMPDEST POP PUSH1 0x4 CALLDATASIZE LT PUSH2 0x153 JUMPI PUSH0 CALLDATALOAD PUSH1 0xE0 SHR DUP1 PUSH4 0x85737020 GT PUSH2 0xBF JUMPI DUP1 PUSH4 0xE082FE2A GT PUSH2 0x79 JUMPI DUP1 PUSH4 0xE082FE2A EQ PUSH2 0x2E3 JUMPI DUP1 PUSH4 0xE3BB2D40 EQ PUSH2 0x2EB JUMPI DUP1 PUSH4 0xE8A748E7 EQ PUSH2 0x2FE JUMPI DUP1 PUSH4 0xF22069DF EQ PUSH2 0x311 JUMPI DUP1 PUSH4 0xF2FDE38B EQ PUSH2 0x319 JUMPI DUP1 PUSH4 0xFC05542A EQ PUSH2 0x32C JUMPI PUSH0 PUSH0 REVERT JUMPDEST DUP1 PUSH4 0x85737020 EQ PUSH2 0x258 JUMPI DUP1 PUSH4 0x8DA5CB5B EQ PUSH2 0x284 JUMPI DUP1 PUSH4 0xA0858343 EQ PUSH2 0x294 JUMPI DUP1 PUSH4 0xA34DB0A0 EQ PUSH2 0x2A7 JUMPI DUP1 PUSH4 0xA6A09811 EQ PUSH2 0x2C7 JUMPI DUP1 PUSH4 0xC9539F71 EQ PUSH2 0x2D0 JUMPI PUSH0 PUSH0 REVERT JUMPDEST DUP1 PUSH4 0x6FF65C20 GT PUSH2 0x110 JUMPI DUP1 PUSH4 0x6FF65C20 EQ PUSH2 0x1F9 JUMPI DUP1 PUSH4 0x7069243C EQ PUSH2 0x224 JUMPI DUP1 PUSH4 0x715018A6 EQ PUSH2 0x22C JUMPI DUP1 PUSH4 0x741AE614 EQ PUSH2 0x234 JUMPI DUP1 PUSH4 0x7A0ABF08 EQ PUSH2 0x23C JUMPI DUP1 PUSH4 0x81AEB13B EQ PUSH2 0x245 JUMPI PUSH0 PUSH0 REVERT JUMPDEST DUP1 PUSH4 0x1318FBF1 EQ PUSH2 0x157 JUMPI DUP1 PUSH4 0x1FCCF672 EQ PUSH2 0x173 JUMPI DUP1 PUSH4 0x3960FC66 EQ PUSH2 0x1B2 JUMPI DUP1 PUSH4 0x528780CC EQ PUSH2 0x1BC JUMPI DUP1 PUSH4 0x5C975ABB EQ PUSH2 0x1CF JUMPI DUP1 PUSH4 0x64BB632F EQ PUSH2 0x1E6 JUMPI JUMPDEST PUSH0 PUSH0 REVERT JUMPDEST PUSH2 0x160 PUSH1 0x7 SLOAD DUP2 JUMP JUMPDEST PUSH1 0x40 MLOAD SWAP1 DUP2 MSTORE PUSH1 0x20 ADD JUMPDEST PUSH1 0x40 MLOAD DUP1 SWAP2 SUB SWAP1 RETURN JUMPDEST PUSH2 0x19A PUSH32 0x0 DUP2 JUMP JUMPDEST PUSH1 0x40 MLOAD PUSH1 0x1 PUSH1 0x1 PUSH1 0xA0 SHL SUB SWAP1 SWAP2 AND DUP2 MSTORE PUSH1 0x20 ADD PUSH2 0x16A JUMP JUMPDEST PUSH2 0x1BA PUSH2 0x357 JUMP JUMPDEST STOP JUMPDEST PUSH2 0x1BA PUSH2 0x1CA CALLDATASIZE PUSH1 0x4 PUSH2 0x1199 JUMP JUMPDEST PUSH2 0x369 JUMP JUMPDEST PUSH1 0x2 SLOAD PUSH1 0xFF AND JUMPDEST PUSH1 0x40 MLOAD SWAP1 ISZERO ISZERO DUP2 MSTORE PUSH1 0x20 ADD PUSH2 0x16A JUMP JUMPDEST PUSH2 0x1BA PUSH2 0x1F4 CALLDATASIZE PUSH1 0x4 PUSH2 0x1199 JUMP JUMPDEST PUSH2 0x3DA JUMP JUMPDEST PUSH2 0x1D6 PUSH2 0x207 CALLDATASIZE PUSH1 0x4 PUSH2 0x11CB JUMP JUMPDEST PUSH1 0x1 PUSH1 0x1 PUSH1 0xA0 SHL SUB AND PUSH0 SWAP1 DUP2 MSTORE PUSH1 0x4 PUSH1 0x20 MSTORE PUSH1 0x40 SWAP1 KECCAK256 SLOAD PUSH1 0xFF AND SWAP1 JUMP JUMPDEST PUSH1 0x5 SLOAD PUSH2 0x160 JUMP JUMPDEST PUSH2 0x1BA PUSH2 0x442 JUMP JUMPDEST PUSH1 0x7 SLOAD PUSH2 0x160 JUMP JUMPDEST PUSH2 0x160 PUSH1 0x5 SLOAD DUP2 JUMP JUMPDEST PUSH2 0x1BA PUSH2 0x253 CALLDATASIZE PUSH1 0x4 PUSH2 0x11EB JUMP JUMPDEST PUSH2 0x453 JUMP JUMPDEST PUSH2 0x1D6 PUSH2 0x266 CALLDATASIZE PUSH1 0x4 PUSH2 0x11CB JUMP JUMPDEST PUSH1 0x1 PUSH1 0x1 PUSH1 0xA0 SHL SUB AND PUSH0 SWAP1 DUP2 MSTORE PUSH1 0x3 PUSH1 0x20 MSTORE PUSH1 0x40 SWAP1 KECCAK256 SLOAD PUSH1 0xFF AND ISZERO SWAP1 JUMP JUMPDEST PUSH0 SLOAD PUSH1 0x1 PUSH1 0x1 PUSH1 0xA0 SHL SUB AND PUSH2 0x19A JUMP JUMPDEST PUSH2 0x1BA PUSH2 0x2A2 CALLDATASIZE PUSH1 0x4 PUSH2 0x11CB JUMP JUMPDEST PUSH2 0x612 JUMP JUMPDEST PUSH2 0x2BA PUSH2 0x2B5 CALLDATASIZE PUSH1 0x4 PUSH2 0x11EB JUMP JUMPDEST PUSH2 0x775 JUMP JUMPDEST PUSH1 0x40 MLOAD PUSH2 0x16A SWAP2 SWAP1 PUSH2 0x125C JUMP JUMPDEST PUSH2 0x160 PUSH1 0x6 SLOAD DUP2 JUMP JUMPDEST PUSH2 0x1BA PUSH2 0x2DE CALLDATASIZE PUSH1 0x4 PUSH2 0x11EB JUMP JUMPDEST PUSH2 0x91B JUMP JUMPDEST PUSH2 0x1BA PUSH2 0xAD3 JUMP JUMPDEST PUSH2 0x1BA PUSH2 0x2F9 CALLDATASIZE PUSH1 0x4 PUSH2 0x11CB JUMP JUMPDEST PUSH2 0xAE3 JUMP JUMPDEST PUSH2 0x1BA PUSH2 0x30C CALLDATASIZE PUSH1 0x4 PUSH2 0x11CB JUMP JUMPDEST PUSH2 0xBAF JUMP JUMPDEST PUSH2 0x1BA PUSH2 0xC77 JUMP JUMPDEST PUSH2 0x1BA PUSH2 0x327 CALLDATASIZE PUSH1 0x4 PUSH2 0x11CB JUMP JUMPDEST PUSH2 0xE66 JUMP JUMPDEST PUSH2 0x1D6 PUSH2 0x33A CALLDATASIZE PUSH1 0x4 PUSH2 0x11CB JUMP JUMPDEST PUSH1 0x1 PUSH1 0x1 PUSH1 0xA0 SHL SUB AND PUSH0 SWAP1 DUP2 MSTORE PUSH1 0x3 PUSH1 0x20 MSTORE PUSH1 0x40 SWAP1 KECCAK256 SLOAD PUSH1 0xFF AND SWAP1 JUMP JUMPDEST PUSH2 0x35F PUSH2 0xEA0 JUMP JUMPDEST PUSH2 0x367 PUSH2 0xECC JUMP JUMPDEST JUMP JUMPDEST PUSH2 0x371 PUSH2 0xEA0 JUMP JUMPDEST DUP1 PUSH0 SUB PUSH2 0x391 JUMPI PUSH1 0x40 MLOAD PUSH4 0x36C5EEC7 PUSH1 0xE2 SHL DUP2 MSTORE PUSH1 0x4 ADD PUSH1 0x40 MLOAD DUP1 SWAP2 SUB SWAP1 REVERT JUMPDEST PUSH1 0x6 DUP1 SLOAD SWAP1 DUP3 SWAP1 SSTORE PUSH1 0x40 DUP1 MLOAD DUP3 DUP2 MSTORE PUSH1 0x20 DUP2 ADD DUP5 SWAP1 MSTORE DUP4 SWAP2 PUSH32 0x2E31E8893A04CE5258044D342D7658948A6AC9710D97E32462AB75F131AE11EF SWAP2 ADD JUMPDEST PUSH1 0x40 MLOAD DUP1 SWAP2 SUB SWAP1 LOG1 POP POP POP JUMP JUMPDEST PUSH2 0x3E2 PUSH2 0xEA0 JUMP JUMPDEST DUP1 PUSH0 SUB PUSH2 0x402 JUMPI PUSH1 0x40 MLOAD PUSH4 0xD428A01 PUSH1 0xE4 SHL DUP2 MSTORE PUSH1 0x4 ADD PUSH1 0x40 MLOAD DUP1 SWAP2 SUB SWAP1 REVERT JUMPDEST PUSH1 0x5 DUP1 SLOAD SWAP1 DUP3 SWAP1 SSTORE PUSH1 0x40 DUP1 MLOAD DUP3 DUP2 MSTORE PUSH1 0x20 DUP2 ADD DUP5 SWAP1 MSTORE DUP4 SWAP2 PUSH32 0xF0D37C3AE852021AC329281F604B658691CBFA6B9E9C22909F06B64A8CE87C94 SWAP2 ADD PUSH2 0x3CD JUMP JUMPDEST PUSH2 0x44A PUSH2 0xEA0 JUMP JUMPDEST PUSH2 0x367 PUSH0 PUSH2 0xF1E JUMP JUMPDEST PUSH2 0x45B PUSH2 0xEA0 JUMP JUMPDEST DUP1 PUSH0 DUP2 SWAP1 SUB PUSH2 0x47D JUMPI PUSH1 0x40 MLOAD PUSH4 0x4EC48105 PUSH1 0xE1 SHL DUP2 MSTORE PUSH1 0x4 ADD PUSH1 0x40 MLOAD DUP1 SWAP2 SUB SWAP1 REVERT JUMPDEST PUSH0 JUMPDEST DUP2 DUP2 LT ISZERO PUSH2 0x57A JUMPI PUSH0 DUP5 DUP5 DUP4 DUP2 DUP2 LT PUSH2 0x49A JUMPI PUSH2 0x49A PUSH2 0x12A7 JUMP JUMPDEST SWAP1 POP PUSH1 0x20 MUL ADD PUSH1 0x20 DUP2 ADD SWAP1 PUSH2 0x4AF SWAP2 SWAP1 PUSH2 0x11CB JUMP JUMPDEST PUSH1 0x1 PUSH1 0x1 PUSH1 0xA0 SHL SUB AND SUB PUSH2 0x4D6 JUMPI PUSH1 0x40 MLOAD PUSH4 0xD92E233D PUSH1 0xE0 SHL DUP2 MSTORE PUSH1 0x4 ADD PUSH1 0x40 MLOAD DUP1 SWAP2 SUB SWAP1 REVERT JUMPDEST PUSH1 0x3 PUSH0 DUP6 DUP6 DUP5 DUP2 DUP2 LT PUSH2 0x4EB JUMPI PUSH2 0x4EB PUSH2 0x12A7 JUMP JUMPDEST SWAP1 POP PUSH1 0x20 MUL ADD PUSH1 0x20 DUP2 ADD SWAP1 PUSH2 0x500 SWAP2 SWAP1 PUSH2 0x11CB JUMP JUMPDEST PUSH1 0x1 PUSH1 0x1 PUSH1 0xA0 SHL SUB AND DUP2 MSTORE PUSH1 0x20 DUP2 ADD SWAP2 SWAP1 SWAP2 MSTORE PUSH1 0x40 ADD PUSH0 KECCAK256 SLOAD PUSH1 0xFF AND ISZERO PUSH2 0x572 JUMPI DUP4 DUP4 DUP3 DUP2 DUP2 LT PUSH2 0x533 JUMPI PUSH2 0x533 PUSH2 0x12A7 JUMP JUMPDEST SWAP1 POP PUSH1 0x20 MUL ADD PUSH1 0x20 DUP2 ADD SWAP1 PUSH2 0x548 SWAP2 SWAP1 PUSH2 0x11CB JUMP JUMPDEST PUSH1 0x40 MLOAD PUSH4 0x3746725B PUSH1 0xE1 SHL DUP2 MSTORE PUSH1 0x1 PUSH1 0x1 PUSH1 0xA0 SHL SUB SWAP1 SWAP2 AND PUSH1 0x4 DUP3 ADD MSTORE PUSH1 0x24 ADD JUMPDEST PUSH1 0x40 MLOAD DUP1 SWAP2 SUB SWAP1 REVERT JUMPDEST PUSH1 0x1 ADD PUSH2 0x47F JUMP JUMPDEST POP PUSH0 JUMPDEST DUP2 DUP2 LT ISZERO PUSH2 0x5E0 JUMPI PUSH1 0x1 PUSH1 0x3 PUSH0 DUP7 DUP7 DUP6 DUP2 DUP2 LT PUSH2 0x59C JUMPI PUSH2 0x59C PUSH2 0x12A7 JUMP JUMPDEST SWAP1 POP PUSH1 0x20 MUL ADD PUSH1 0x20 DUP2 ADD SWAP1 PUSH2 0x5B1 SWAP2 SWAP1 PUSH2 0x11CB JUMP JUMPDEST PUSH1 0x1 PUSH1 0x1 PUSH1 0xA0 SHL SUB AND DUP2 MSTORE PUSH1 0x20 DUP2 ADD SWAP2 SWAP1 SWAP2 MSTORE PUSH1 0x40 ADD PUSH0 KECCAK256 DUP1 SLOAD PUSH1 0xFF NOT AND SWAP2 ISZERO ISZERO SWAP2 SWAP1 SWAP2 OR SWAP1 SSTORE PUSH1 0x1 ADD PUSH2 0x57D JUMP JUMPDEST POP PUSH32 0x9A9F2A64A3B0B4774DA60129AA707715E049CB95062F7ACAAFFC07DDC244C1CC DUP4 DUP4 PUSH1 0x40 MLOAD PUSH2 0x3CD SWAP3 SWAP2 SWAP1 PUSH2 0x12BB JUMP JUMPDEST PUSH2 0x61A PUSH2 0xF6D JUMP JUMPDEST PUSH2 0x622 PUSH2 0xF91 JUMP JUMPDEST PUSH1 0x1 PUSH1 0x1 PUSH1 0xA0 SHL SUB DUP2 AND PUSH0 SWAP1 DUP2 MSTORE PUSH1 0x3 PUSH1 0x20 MSTORE PUSH1 0x40 SWAP1 KECCAK256 SLOAD DUP2 SWAP1 PUSH1 0xFF AND PUSH2 0x667 JUMPI PUSH1 0x40 MLOAD PUSH4 0xDE55CC33 PUSH1 0xE0 SHL DUP2 MSTORE PUSH1 0x1 PUSH1 0x1 PUSH1 0xA0 SHL SUB DUP3 AND PUSH1 0x4 DUP3 ADD MSTORE PUSH1 0x24 ADD PUSH2 0x569 JUMP JUMPDEST PUSH1 0x1 PUSH1 0x1 PUSH1 0xA0 SHL SUB DUP3 AND PUSH0 SWAP1 DUP2 MSTORE PUSH1 0x4 PUSH1 0x20 MSTORE PUSH1 0x40 SWAP1 KECCAK256 SLOAD DUP3 SWAP1 PUSH1 0xFF AND ISZERO PUSH2 0x6AD JUMPI PUSH1 0x40 MLOAD PUSH4 0x1EE5F6F PUSH1 0xE3 SHL DUP2 MSTORE PUSH1 0x1 PUSH1 0x1 PUSH1 0xA0 SHL SUB DUP3 AND PUSH1 0x4 DUP3 ADD MSTORE PUSH1 0x24 ADD PUSH2 0x569 JUMP JUMPDEST PUSH1 0x5 SLOAD PUSH1 0x40 MLOAD PUSH4 0x70A08231 PUSH1 0xE0 SHL DUP2 MSTORE ADDRESS PUSH1 0x4 DUP3 ADD MSTORE PUSH32 0x0 PUSH1 0x1 PUSH1 0x1 PUSH1 0xA0 SHL SUB AND SWAP1 PUSH4 0x70A08231 SWAP1 PUSH1 0x24 ADD PUSH1 0x20 PUSH1 0x40 MLOAD DUP1 DUP4 SUB DUP2 DUP7 GAS STATICCALL ISZERO DUP1 ISZERO PUSH2 0x712 JUMPI RETURNDATASIZE PUSH0 PUSH0 RETURNDATACOPY RETURNDATASIZE PUSH0 REVERT JUMPDEST POP POP POP POP PUSH1 0x40 MLOAD RETURNDATASIZE PUSH1 0x1F NOT PUSH1 0x1F DUP3 ADD AND DUP3 ADD DUP1 PUSH1 0x40 MSTORE POP DUP2 ADD SWAP1 PUSH2 0x736 SWAP2 SWAP1 PUSH2 0x1305 JUMP JUMPDEST LT ISZERO PUSH2 0x755 JUMPI PUSH1 0x40 MLOAD PUSH4 0x786E0A99 PUSH1 0xE0 SHL DUP2 MSTORE PUSH1 0x4 ADD PUSH1 0x40 MLOAD DUP1 SWAP2 SUB SWAP1 REVERT JUMPDEST PUSH2 0x75E DUP4 PUSH2 0xFBB JUMP JUMPDEST PUSH2 0x767 DUP4 PUSH2 0x1014 JUMP JUMPDEST POP POP PUSH2 0x772 PUSH1 0x1 DUP1 SSTORE JUMP JUMPDEST POP JUMP JUMPDEST PUSH1 0x60 DUP2 PUSH0 DUP2 SWAP1 SUB PUSH2 0x799 JUMPI PUSH1 0x40 MLOAD PUSH4 0x4EC48105 PUSH1 0xE1 SHL DUP2 MSTORE PUSH1 0x4 ADD PUSH1 0x40 MLOAD DUP1 SWAP2 SUB SWAP1 REVERT JUMPDEST PUSH0 DUP1 JUMPDEST DUP3 DUP2 LT ISZERO PUSH2 0x805 JUMPI PUSH1 0x3 PUSH0 DUP8 DUP8 DUP5 DUP2 DUP2 LT PUSH2 0x7B9 JUMPI PUSH2 0x7B9 PUSH2 0x12A7 JUMP JUMPDEST SWAP1 POP PUSH1 0x20 MUL ADD PUSH1 0x20 DUP2 ADD SWAP1 PUSH2 0x7CE SWAP2 SWAP1 PUSH2 0x11CB JUMP JUMPDEST PUSH1 0x1 PUSH1 0x1 PUSH1 0xA0 SHL SUB AND DUP2 MSTORE PUSH1 0x20 DUP2 ADD SWAP2 SWAP1 SWAP2 MSTORE PUSH1 0x40 ADD PUSH0 KECCAK256 SLOAD PUSH1 0xFF AND ISZERO PUSH2 0x7FD JUMPI DUP2 PUSH2 0x7F9 DUP2 PUSH2 0x131C JUMP JUMPDEST SWAP3 POP POP JUMPDEST PUSH1 0x1 ADD PUSH2 0x79C JUMP JUMPDEST POP PUSH0 DUP2 PUSH8 0xFFFFFFFFFFFFFFFF DUP2 GT ISZERO PUSH2 0x820 JUMPI PUSH2 0x820 PUSH2 0x1340 JUMP JUMPDEST PUSH1 0x40 MLOAD SWAP1 DUP1 DUP3 MSTORE DUP1 PUSH1 0x20 MUL PUSH1 0x20 ADD DUP3 ADD PUSH1 0x40 MSTORE DUP1 ISZERO PUSH2 0x849 JUMPI DUP2 PUSH1 0x20 ADD PUSH1 0x20 DUP3 MUL DUP1 CALLDATASIZE DUP4 CALLDATACOPY ADD SWAP1 POP JUMPDEST POP SWAP1 POP PUSH0 DUP1 JUMPDEST DUP5 DUP2 LT ISZERO PUSH2 0x90F JUMPI PUSH1 0x3 PUSH0 DUP10 DUP10 DUP5 DUP2 DUP2 LT PUSH2 0x86C JUMPI PUSH2 0x86C PUSH2 0x12A7 JUMP JUMPDEST SWAP1 POP PUSH1 0x20 MUL ADD PUSH1 0x20 DUP2 ADD SWAP1 PUSH2 0x881 SWAP2 SWAP1 PUSH2 0x11CB JUMP JUMPDEST PUSH1 0x1 PUSH1 0x1 PUSH1 0xA0 SHL SUB AND DUP2 MSTORE PUSH1 0x20 DUP2 ADD SWAP2 SWAP1 SWAP2 MSTORE PUSH1 0x40 ADD PUSH0 KECCAK256 SLOAD PUSH1 0xFF AND ISZERO PUSH2 0x907 JUMPI DUP8 DUP8 DUP3 DUP2 DUP2 LT PUSH2 0x8B4 JUMPI PUSH2 0x8B4 PUSH2 0x12A7 JUMP JUMPDEST SWAP1 POP PUSH1 0x20 MUL ADD PUSH1 0x20 DUP2 ADD SWAP1 PUSH2 0x8C9 SWAP2 SWAP1 PUSH2 0x11CB JUMP JUMPDEST DUP4 DUP4 PUSH2 0x8D4 DUP2 PUSH2 0x131C JUMP JUMPDEST SWAP5 POP DUP2 MLOAD DUP2 LT PUSH2 0x8E6 JUMPI PUSH2 0x8E6 PUSH2 0x12A7 JUMP JUMPDEST PUSH1 0x20 MUL PUSH1 0x20 ADD ADD SWAP1 PUSH1 0x1 PUSH1 0x1 PUSH1 0xA0 SHL SUB AND SWAP1 DUP2 PUSH1 0x1 PUSH1 0x1 PUSH1 0xA0 SHL SUB AND DUP2 MSTORE POP POP JUMPDEST PUSH1 0x1 ADD PUSH2 0x84F JUMP JUMPDEST POP SWAP1 SWAP7 SWAP6 POP POP POP POP POP POP JUMP JUMPDEST PUSH2 0x923 PUSH2 0xEA0 JUMP JUMPDEST DUP1 PUSH0 DUP2 SWAP1 SUB PUSH2 0x945 JUMPI PUSH1 0x40 MLOAD PUSH4 0x4EC48105 PUSH1 0xE1 SHL DUP2 MSTORE PUSH1 0x4 ADD PUSH1 0x40 MLOAD DUP1 SWAP2 SUB SWAP1 REVERT JUMPDEST PUSH0 JUMPDEST DUP2 DUP2 LT ISZERO PUSH2 0xA3C JUMPI PUSH0 DUP5 DUP5 DUP4 DUP2 DUP2 LT PUSH2 0x962 JUMPI PUSH2 0x962 PUSH2 0x12A7 JUMP JUMPDEST SWAP1 POP PUSH1 0x20 MUL ADD PUSH1 0x20 DUP2 ADD SWAP1 PUSH2 0x977 SWAP2 SWAP1 PUSH2 0x11CB JUMP JUMPDEST PUSH1 0x1 PUSH1 0x1 PUSH1 0xA0 SHL SUB AND SUB PUSH2 0x99E JUMPI PUSH1 0x40 MLOAD PUSH4 0xD92E233D PUSH1 0xE0 SHL DUP2 MSTORE PUSH1 0x4 ADD PUSH1 0x40 MLOAD DUP1 SWAP2 SUB SWAP1 REVERT JUMPDEST PUSH1 0x3 PUSH0 DUP6 DUP6 DUP5 DUP2 DUP2 LT PUSH2 0x9B3 JUMPI PUSH2 0x9B3 PUSH2 0x12A7 JUMP JUMPDEST SWAP1 POP PUSH1 0x20 MUL ADD PUSH1 0x20 DUP2 ADD SWAP1 PUSH2 0x9C8 SWAP2 SWAP1 PUSH2 0x11CB JUMP JUMPDEST PUSH1 0x1 PUSH1 0x1 PUSH1 0xA0 SHL SUB AND DUP2 MSTORE PUSH1 0x20 DUP2 ADD SWAP2 SWAP1 SWAP2 MSTORE PUSH1 0x40 ADD PUSH0 KECCAK256 SLOAD PUSH1 0xFF AND PUSH2 0xA34 JUMPI DUP4 DUP4 DUP3 DUP2 DUP2 LT PUSH2 0x9FA JUMPI PUSH2 0x9FA PUSH2 0x12A7 JUMP JUMPDEST SWAP1 POP PUSH1 0x20 MUL ADD PUSH1 0x20 DUP2 ADD SWAP1 PUSH2 0xA0F SWAP2 SWAP1 PUSH2 0x11CB JUMP JUMPDEST PUSH1 0x40 MLOAD PUSH4 0xDE55CC33 PUSH1 0xE0 SHL DUP2 MSTORE PUSH1 0x1 PUSH1 0x1 PUSH1 0xA0 SHL SUB SWAP1 SWAP2 AND PUSH1 0x4 DUP3 ADD MSTORE PUSH1 0x24 ADD PUSH2 0x569 JUMP JUMPDEST PUSH1 0x1 ADD PUSH2 0x947 JUMP JUMPDEST POP PUSH0 JUMPDEST DUP2 DUP2 LT ISZERO PUSH2 0xAA1 JUMPI PUSH0 PUSH1 0x3 PUSH0 DUP7 DUP7 DUP6 DUP2 DUP2 LT PUSH2 0xA5D JUMPI PUSH2 0xA5D PUSH2 0x12A7 JUMP JUMPDEST SWAP1 POP PUSH1 0x20 MUL ADD PUSH1 0x20 DUP2 ADD SWAP1 PUSH2 0xA72 SWAP2 SWAP1 PUSH2 0x11CB JUMP JUMPDEST PUSH1 0x1 PUSH1 0x1 PUSH1 0xA0 SHL SUB AND DUP2 MSTORE PUSH1 0x20 DUP2 ADD SWAP2 SWAP1 SWAP2 MSTORE PUSH1 0x40 ADD PUSH0 KECCAK256 DUP1 SLOAD PUSH1 0xFF NOT AND SWAP2 ISZERO ISZERO SWAP2 SWAP1 SWAP2 OR SWAP1 SSTORE PUSH1 0x1 ADD PUSH2 0xA3F JUMP JUMPDEST POP PUSH32 0xD68B41369D54FACA53E699320360840DB6E0E2E175D3974EB304FD18713D916B DUP4 DUP4 PUSH1 0x40 MLOAD PUSH2 0x3CD SWAP3 SWAP2 SWAP1 PUSH2 0x12BB JUMP JUMPDEST PUSH2 0xADB PUSH2 0xEA0 JUMP JUMPDEST PUSH2 0x367 PUSH2 0x1139 JUMP JUMPDEST PUSH2 0xAEB PUSH2 0xEA0 JUMP JUMPDEST PUSH1 0x1 PUSH1 0x1 PUSH1 0xA0 SHL SUB DUP2 AND PUSH0 SWAP1 DUP2 MSTORE PUSH1 0x3 PUSH1 0x20 MSTORE PUSH1 0x40 SWAP1 KECCAK256 SLOAD DUP2 SWAP1 PUSH1 0xFF AND PUSH2 0xB30 JUMPI PUSH1 0x40 MLOAD PUSH4 0xDE55CC33 PUSH1 0xE0 SHL DUP2 MSTORE PUSH1 0x1 PUSH1 0x1 PUSH1 0xA0 SHL SUB DUP3 AND PUSH1 0x4 DUP3 ADD MSTORE PUSH1 0x24 ADD PUSH2 0x569 JUMP JUMPDEST PUSH1 0x1 PUSH1 0x1 PUSH1 0xA0 SHL SUB DUP3 AND PUSH2 0xB57 JUMPI PUSH1 0x40 MLOAD PUSH4 0xD92E233D PUSH1 0xE0 SHL DUP2 MSTORE PUSH1 0x4 ADD PUSH1 0x40 MLOAD DUP1 SWAP2 SUB SWAP1 REVERT JUMPDEST PUSH1 0x1 PUSH1 0x1 PUSH1 0xA0 SHL SUB DUP3 AND PUSH0 DUP2 DUP2 MSTORE PUSH1 0x3 PUSH1 0x20 SWAP1 DUP2 MSTORE PUSH1 0x40 SWAP2 DUP3 SWAP1 KECCAK256 DUP1 SLOAD PUSH1 0xFF NOT AND SWAP1 SSTORE SWAP1 MLOAD SWAP2 DUP3 MSTORE PUSH32 0xA354190DD7342316E40E5358C9F72037F2C677CDC057D3DEBBC4F1B62495E2E2 SWAP2 ADD JUMPDEST PUSH1 0x40 MLOAD DUP1 SWAP2 SUB SWAP1 LOG1 POP POP JUMP JUMPDEST PUSH2 0xBB7 PUSH2 0xEA0 JUMP JUMPDEST PUSH1 0x1 PUSH1 0x1 PUSH1 0xA0 SHL SUB DUP2 AND PUSH0 SWAP1 DUP2 MSTORE PUSH1 0x3 PUSH1 0x20 MSTORE PUSH1 0x40 SWAP1 KECCAK256 SLOAD DUP2 SWAP1 PUSH1 0xFF AND ISZERO PUSH2 0xBFD JUMPI PUSH1 0x40 MLOAD PUSH4 0x3746725B PUSH1 0xE1 SHL DUP2 MSTORE PUSH1 0x1 PUSH1 0x1 PUSH1 0xA0 SHL SUB DUP3 AND PUSH1 0x4 DUP3 ADD MSTORE PUSH1 0x24 ADD PUSH2 0x569 JUMP JUMPDEST PUSH1 0x1 PUSH1 0x1 PUSH1 0xA0 SHL SUB DUP3 AND PUSH2 0xC24 JUMPI PUSH1 0x40 MLOAD PUSH4 0xD92E233D PUSH1 0xE0 SHL DUP2 MSTORE PUSH1 0x4 ADD PUSH1 0x40 MLOAD DUP1 SWAP2 SUB SWAP1 REVERT JUMPDEST PUSH1 0x1 PUSH1 0x1 PUSH1 0xA0 SHL SUB DUP3 AND PUSH0 DUP2 DUP2 MSTORE PUSH1 0x3 PUSH1 0x20 SWAP1 DUP2 MSTORE PUSH1 0x40 SWAP2 DUP3 SWAP1 KECCAK256 DUP1 SLOAD PUSH1 0xFF NOT AND PUSH1 0x1 OR SWAP1 SSTORE SWAP1 MLOAD SWAP2 DUP3 MSTORE PUSH32 0x1AFDE38C60D2BE0D28D001619816D86C39CE78B350C9D94F23C095099B9C1D27 SWAP2 ADD PUSH2 0xBA3 JUMP JUMPDEST PUSH2 0xC7F PUSH2 0xEA0 JUMP JUMPDEST PUSH2 0xC87 PUSH2 0xF6D JUMP JUMPDEST PUSH2 0xC8F PUSH2 0xF91 JUMP JUMPDEST PUSH1 0x40 MLOAD PUSH4 0x70A08231 PUSH1 0xE0 SHL DUP2 MSTORE ADDRESS PUSH1 0x4 DUP3 ADD MSTORE PUSH0 SWAP1 PUSH32 0x0 PUSH1 0x1 PUSH1 0x1 PUSH1 0xA0 SHL SUB AND SWAP1 PUSH4 0x70A08231 SWAP1 PUSH1 0x24 ADD PUSH1 0x20 PUSH1 0x40 MLOAD DUP1 DUP4 SUB DUP2 DUP7 GAS STATICCALL ISZERO DUP1 ISZERO PUSH2 0xCF3 JUMPI RETURNDATASIZE PUSH0 PUSH0 RETURNDATACOPY RETURNDATASIZE PUSH0 REVERT JUMPDEST POP POP POP POP PUSH1 0x40 MLOAD RETURNDATASIZE PUSH1 0x1F NOT PUSH1 0x1F DUP3 ADD AND DUP3 ADD DUP1 PUSH1 0x40 MSTORE POP DUP2 ADD SWAP1 PUSH2 0xD17 SWAP2 SWAP1 PUSH2 0x1305 JUMP JUMPDEST SWAP1 POP DUP1 PUSH0 SUB PUSH2 0xD39 JUMPI PUSH1 0x40 MLOAD PUSH4 0x16E3FF05 PUSH1 0xE2 SHL DUP2 MSTORE PUSH1 0x4 ADD PUSH1 0x40 MLOAD DUP1 SWAP2 SUB SWAP1 REVERT JUMPDEST PUSH0 PUSH32 0x0 PUSH1 0x1 PUSH1 0x1 PUSH1 0xA0 SHL SUB AND PUSH4 0xA9059CBB PUSH2 0xD7A PUSH0 SLOAD PUSH1 0x1 PUSH1 0x1 PUSH1 0xA0 SHL SUB AND SWAP1 JUMP JUMPDEST PUSH1 0x40 MLOAD PUSH1 0x1 PUSH1 0x1 PUSH1 0xE0 SHL SUB NOT PUSH1 0xE0 DUP5 SWAP1 SHL AND DUP2 MSTORE PUSH1 0x1 PUSH1 0x1 PUSH1 0xA0 SHL SUB SWAP1 SWAP2 AND PUSH1 0x4 DUP3 ADD MSTORE PUSH1 0x24 DUP2 ADD DUP6 SWAP1 MSTORE PUSH1 0x44 ADD PUSH1 0x20 PUSH1 0x40 MLOAD DUP1 DUP4 SUB DUP2 PUSH0 DUP8 GAS CALL ISZERO DUP1 ISZERO PUSH2 0xDC4 JUMPI RETURNDATASIZE PUSH0 PUSH0 RETURNDATACOPY RETURNDATASIZE PUSH0 REVERT JUMPDEST POP POP POP POP PUSH1 0x40 MLOAD RETURNDATASIZE PUSH1 0x1F NOT PUSH1 0x1F DUP3 ADD AND DUP3 ADD DUP1 PUSH1 0x40 MSTORE POP DUP2 ADD SWAP1 PUSH2 0xDE8 SWAP2 SWAP1 PUSH2 0x1354 JUMP JUMPDEST SWAP1 POP DUP1 PUSH2 0xE08 JUMPI PUSH1 0x40 MLOAD PUSH4 0x27FCD9D1 PUSH1 0xE0 SHL DUP2 MSTORE PUSH1 0x4 ADD PUSH1 0x40 MLOAD DUP1 SWAP2 SUB SWAP1 REVERT JUMPDEST PUSH32 0x2036B9B38B69A2FA490EE702733A29CD2550ACCC20BC96E786CB9BEEDC779097 PUSH2 0xE3A PUSH0 SLOAD PUSH1 0x1 PUSH1 0x1 PUSH1 0xA0 SHL SUB AND SWAP1 JUMP JUMPDEST PUSH1 0x40 DUP1 MLOAD PUSH1 0x1 PUSH1 0x1 PUSH1 0xA0 SHL SUB SWAP1 SWAP3 AND DUP3 MSTORE PUSH1 0x20 DUP3 ADD DUP6 SWAP1 MSTORE ADD PUSH1 0x40 MLOAD DUP1 SWAP2 SUB SWAP1 LOG1 POP POP PUSH2 0x367 PUSH1 0x1 DUP1 SSTORE JUMP JUMPDEST PUSH2 0xE6E PUSH2 0xEA0 JUMP JUMPDEST PUSH1 0x1 PUSH1 0x1 PUSH1 0xA0 SHL SUB DUP2 AND PUSH2 0xE97 JUMPI PUSH1 0x40 MLOAD PUSH4 0x1E4FBDF7 PUSH1 0xE0 SHL DUP2 MSTORE PUSH0 PUSH1 0x4 DUP3 ADD MSTORE PUSH1 0x24 ADD PUSH2 0x569 JUMP JUMPDEST PUSH2 0x772 DUP2 PUSH2 0xF1E JUMP JUMPDEST PUSH0 SLOAD PUSH1 0x1 PUSH1 0x1 PUSH1 0xA0 SHL SUB AND CALLER EQ PUSH2 0x367 JUMPI PUSH1 0x40 MLOAD PUSH4 0x118CDAA7 PUSH1 0xE0 SHL DUP2 MSTORE CALLER PUSH1 0x4 DUP3 ADD MSTORE PUSH1 0x24 ADD PUSH2 0x569 JUMP JUMPDEST PUSH2 0xED4 PUSH2 0x1176 JUMP JUMPDEST PUSH1 0x2 DUP1 SLOAD PUSH1 0xFF NOT AND SWAP1 SSTORE PUSH32 0x5DB9EE0A495BF2E6FF9C91A7834C1BA4FDD244A5E8AA4E537BD38AEAE4B073AA CALLER JUMPDEST PUSH1 0x40 MLOAD PUSH1 0x1 PUSH1 0x1 PUSH1 0xA0 SHL SUB SWAP1 SWAP2 AND DUP2 MSTORE PUSH1 0x20 ADD PUSH1 0x40 MLOAD DUP1 SWAP2 SUB SWAP1 LOG1 JUMP JUMPDEST PUSH0 DUP1 SLOAD PUSH1 0x1 PUSH1 0x1 PUSH1 0xA0 SHL SUB DUP4 DUP2 AND PUSH1 0x1 PUSH1 0x1 PUSH1 0xA0 SHL SUB NOT DUP4 AND DUP2 OR DUP5 SSTORE PUSH1 0x40 MLOAD SWAP2 SWAP1 SWAP3 AND SWAP3 DUP4 SWAP2 PUSH32 0x8BE0079C531659141344CD1FD0A4F28419497F9722A3DAAFE3B4186F6B6457E0 SWAP2 SWAP1 LOG3 POP POP JUMP JUMPDEST PUSH1 0x2 SLOAD PUSH1 0xFF AND ISZERO PUSH2 0x367 JUMPI PUSH1 0x40 MLOAD PUSH4 0xD93C0665 PUSH1 0xE0 SHL DUP2 MSTORE PUSH1 0x4 ADD PUSH1 0x40 MLOAD DUP1 SWAP2 SUB SWAP1 REVERT JUMPDEST PUSH1 0x2 PUSH1 0x1 SLOAD SUB PUSH2 0xFB4 JUMPI PUSH1 0x40 MLOAD PUSH4 0x3EE5AEB5 PUSH1 0xE0 SHL DUP2 MSTORE PUSH1 0x4 ADD PUSH1 0x40 MLOAD DUP1 SWAP2 SUB SWAP1 REVERT JUMPDEST PUSH1 0x2 PUSH1 0x1 SSTORE JUMP JUMPDEST PUSH1 0x1 PUSH1 0x1 PUSH1 0xA0 SHL SUB DUP2 AND PUSH0 DUP2 DUP2 MSTORE PUSH1 0x4 PUSH1 0x20 SWAP1 DUP2 MSTORE PUSH1 0x40 SWAP2 DUP3 SWAP1 KECCAK256 DUP1 SLOAD PUSH1 0xFF NOT AND PUSH1 0x1 OR SWAP1 SSTORE SWAP1 MLOAD SWAP2 DUP3 MSTORE PUSH32 0x654C9A027765E6FEB862F42D438E9F6948F9EE31113E379F0372B30EFC722943 SWAP2 ADD PUSH1 0x40 MLOAD DUP1 SWAP2 SUB SWAP1 LOG1 POP JUMP JUMPDEST PUSH1 0x6 SLOAD PUSH1 0x7 SLOAD SUB PUSH2 0x1037 JUMPI PUSH1 0x40 MLOAD PUSH3 0x27007F PUSH1 0xEA SHL DUP2 MSTORE PUSH1 0x4 ADD PUSH1 0x40 MLOAD DUP1 SWAP2 SUB SWAP1 REVERT JUMPDEST PUSH1 0x5 SLOAD PUSH1 0x40 MLOAD PUSH4 0xA9059CBB PUSH1 0xE0 SHL DUP2 MSTORE PUSH1 0x1 PUSH1 0x1 PUSH1 0xA0 SHL SUB DUP4 DUP2 AND PUSH1 0x4 DUP4 ADD MSTORE PUSH1 0x24 DUP3 ADD SWAP3 SWAP1 SWAP3 MSTORE PUSH0 SWAP2 PUSH32 0x0 AND SWAP1 PUSH4 0xA9059CBB SWAP1 PUSH1 0x44 ADD PUSH1 0x20 PUSH1 0x40 MLOAD DUP1 DUP4 SUB DUP2 PUSH0 DUP8 GAS CALL ISZERO DUP1 ISZERO PUSH2 0x10A9 JUMPI RETURNDATASIZE PUSH0 PUSH0 RETURNDATACOPY RETURNDATASIZE PUSH0 REVERT JUMPDEST POP POP POP POP PUSH1 0x40 MLOAD RETURNDATASIZE PUSH1 0x1F NOT PUSH1 0x1F DUP3 ADD AND DUP3 ADD DUP1 PUSH1 0x40 MSTORE POP DUP2 ADD SWAP1 PUSH2 0x10CD SWAP2 SWAP1 PUSH2 0x1354 JUMP JUMPDEST SWAP1 POP DUP1 PUSH2 0x10ED JUMPI PUSH1 0x40 MLOAD PUSH4 0x78ECF41 PUSH1 0xE4 SHL DUP2 MSTORE PUSH1 0x4 ADD PUSH1 0x40 MLOAD DUP1 SWAP2 SUB SWAP1 REVERT JUMPDEST PUSH1 0x7 DUP1 SLOAD PUSH1 0x1 ADD SWAP1 SSTORE PUSH1 0x5 SLOAD PUSH1 0x40 DUP1 MLOAD PUSH1 0x1 PUSH1 0x1 PUSH1 0xA0 SHL SUB DUP6 AND DUP2 MSTORE PUSH1 0x20 DUP2 ADD SWAP3 SWAP1 SWAP3 MSTORE PUSH32 0x8934D7A9692E763E356FD30D84CA5F61A737B35C5CCD5D31D4F140310267B73E SWAP2 ADD PUSH2 0xBA3 JUMP JUMPDEST PUSH2 0x1141 PUSH2 0xF6D JUMP JUMPDEST PUSH1 0x2 DUP1 SLOAD PUSH1 0xFF NOT AND PUSH1 0x1 OR SWAP1 SSTORE PUSH32 0x62E78CEA01BEE320CD4E420270B5EA74000D11B0C9F74754EBDBFC544B05A258 PUSH2 0xF01 CALLER SWAP1 JUMP JUMPDEST PUSH1 0x2 SLOAD PUSH1 0xFF AND PUSH2 0x367 JUMPI PUSH1 0x40 MLOAD PUSH4 0x8DFC202B PUSH1 0xE0 SHL DUP2 MSTORE PUSH1 0x4 ADD PUSH1 0x40 MLOAD DUP1 SWAP2 SUB SWAP1 REVERT JUMPDEST PUSH0 PUSH1 0x20 DUP3 DUP5 SUB SLT ISZERO PUSH2 0x11A9 JUMPI PUSH0 PUSH0 REVERT JUMPDEST POP CALLDATALOAD SWAP2 SWAP1 POP JUMP JUMPDEST DUP1 CALLDATALOAD PUSH1 0x1 PUSH1 0x1 PUSH1 0xA0 SHL SUB DUP2 AND DUP2 EQ PUSH2 0x11C6 JUMPI PUSH0 PUSH0 REVERT JUMPDEST SWAP2 SWAP1 POP JUMP JUMPDEST PUSH0 PUSH1 0x20 DUP3 DUP5 SUB SLT ISZERO PUSH2 0x11DB JUMPI PUSH0 PUSH0 REVERT JUMPDEST PUSH2 0x11E4 DUP3 PUSH2 0x11B0 JUMP JUMPDEST SWAP4 SWAP3 POP POP POP JUMP JUMPDEST PUSH0 PUSH0 PUSH1 0x20 DUP4 DUP6 SUB SLT ISZERO PUSH2 0x11FC JUMPI PUSH0 PUSH0 REVERT JUMPDEST DUP3 CALLDATALOAD PUSH8 0xFFFFFFFFFFFFFFFF DUP2 GT ISZERO PUSH2 0x1212 JUMPI PUSH0 PUSH0 REVERT JUMPDEST DUP4 ADD PUSH1 0x1F DUP2 ADD DUP6 SGT PUSH2 0x1222 JUMPI PUSH0 PUSH0 REVERT JUMPDEST DUP1 CALLDATALOAD PUSH8 0xFFFFFFFFFFFFFFFF DUP2 GT ISZERO PUSH2 0x1238 JUMPI PUSH0 PUSH0 REVERT JUMPDEST DUP6 PUSH1 0x20 DUP3 PUSH1 0x5 SHL DUP5 ADD ADD GT ISZERO PUSH2 0x124C JUMPI PUSH0 PUSH0 REVERT JUMPDEST PUSH1 0x20 SWAP2 SWAP1 SWAP2 ADD SWAP6 SWAP1 SWAP5 POP SWAP3 POP POP POP JUMP JUMPDEST PUSH1 0x20 DUP1 DUP3 MSTORE DUP3 MLOAD DUP3 DUP3 ADD DUP2 SWAP1 MSTORE PUSH0 SWAP2 DUP5 ADD SWAP1 PUSH1 0x40 DUP5 ADD SWAP1 DUP4 JUMPDEST DUP2 DUP2 LT ISZERO PUSH2 0x129C JUMPI DUP4 MLOAD PUSH1 0x1 PUSH1 0x1 PUSH1 0xA0 SHL SUB AND DUP4 MSTORE PUSH1 0x20 SWAP4 DUP5 ADD SWAP4 SWAP1 SWAP3 ADD SWAP2 PUSH1 0x1 ADD PUSH2 0x1275 JUMP JUMPDEST POP SWAP1 SWAP6 SWAP5 POP POP POP POP POP JUMP JUMPDEST PUSH4 0x4E487B71 PUSH1 0xE0 SHL PUSH0 MSTORE PUSH1 0x32 PUSH1 0x4 MSTORE PUSH1 0x24 PUSH0 REVERT JUMPDEST PUSH1 0x20 DUP1 DUP3 MSTORE DUP2 ADD DUP3 SWAP1 MSTORE PUSH0 DUP4 PUSH1 0x40 DUP4 ADD DUP3 JUMPDEST DUP6 DUP2 LT ISZERO PUSH2 0x12FB JUMPI PUSH1 0x1 PUSH1 0x1 PUSH1 0xA0 SHL SUB PUSH2 0x12E6 DUP5 PUSH2 0x11B0 JUMP JUMPDEST AND DUP3 MSTORE PUSH1 0x20 SWAP3 DUP4 ADD SWAP3 SWAP1 SWAP2 ADD SWAP1 PUSH1 0x1 ADD PUSH2 0x12CD JUMP JUMPDEST POP SWAP6 SWAP5 POP POP POP POP POP JUMP JUMPDEST PUSH0 PUSH1 0x20 DUP3 DUP5 SUB SLT ISZERO PUSH2 0x1315 JUMPI PUSH0 PUSH0 REVERT JUMPDEST POP MLOAD SWAP2 SWAP1 POP JUMP JUMPDEST PUSH0 PUSH1 0x1 DUP3 ADD PUSH2 0x1339 JUMPI PUSH4 0x4E487B71 PUSH1 0xE0 SHL PUSH0 MSTORE PUSH1 0x11 PUSH1 0x4 MSTORE PUSH1 0x24 PUSH0 REVERT JUMPDEST POP PUSH1 0x1 ADD SWAP1 JUMP JUMPDEST PUSH4 0x4E487B71 PUSH1 0xE0 SHL PUSH0 MSTORE PUSH1 0x41 PUSH1 0x4 MSTORE PUSH1 0x24 PUSH0 REVERT JUMPDEST PUSH0 PUSH1 0x20 DUP3 DUP5 SUB SLT ISZERO PUSH2 0x1364 JUMPI PUSH0 PUSH0 REVERT JUMPDEST DUP2 MLOAD DUP1 ISZERO ISZERO DUP2 EQ PUSH2 0x11E4 JUMPI PUSH0 PUSH0 REVERT INVALID LOG2 PUSH5 0x6970667358 0x22 SLT KECCAK256 CREATE2 0xDE 0x4F 0xAA MSTORE8 LOG1 0x22 AND GASLIMIT KECCAK256 LOG3 PUSH0 EXTCODEHASH SSTORE PUSH19 0xDBF6DF9A4D96A7AC7A75E147509A4A9BCE6473 PUSH16 0x6C634300081C00330000000000000000 "
				},
				"gasEstimates": {
					"creation": {
						"codeDepositCost": "1006600",
						"executionCost": "infinite",
						"totalCost": "infinite"
					},
					"external": {
						"blacklistMultipleWhitelistedAddresses(address[])": "infinite",
						"blacklistOneWhitelistedAddress(address)": "30132",
						"cUSD()": "infinite",
						"checkIfParticipantHasAlreadyClaimedReward(address)": "2569",
						"checkIfUserAddressIsBlacklisted(address)": "2572",
						"checkIfUserAddressIsWhitelisted(address)": "2678",
						"getNumberOfRewardedParticipants()": "2369",
						"getRewardAmountPerParticipantInWei()": "2325",
						"getWhitelistedAddressesFromRegisteredAddresses(address[])": "infinite",
						"numberOfRewardedParticipants()": "2307",
						"owner()": "2374",
						"pauseSurvey()": "infinite",
						"paused()": "2404",
						"processRewardClaimByParticipant(address)": "infinite",
						"renounceOwnership()": "infinite",
						"rewardAmountPerParticipantInWei()": "2394",
						"targetNumberOfParticipants()": "2394",
						"transferOwnership(address)": "28439",
						"unpauseSurvey()": "infinite",
						"updateRewardAmountPerParticipant(uint256)": "28111",
						"updateTargetNumberOfParticipants(uint256)": "28056",
						"whitelistMultipleAddresses(address[])": "infinite",
						"whitelistOneAddress(address)": "30174",
						"withdrawAllRewardFundsToResearcher()": "infinite"
					},
					"internal": {
						"markParticipantAsHavingClaimedReward(address)": "infinite",
						"rewardParticipant(address)": "infinite"
					}
				},
				"methodIdentifiers": {
					"blacklistMultipleWhitelistedAddresses(address[])": "c9539f71",
					"blacklistOneWhitelistedAddress(address)": "e3bb2d40",
					"cUSD()": "1fccf672",
					"checkIfParticipantHasAlreadyClaimedReward(address)": "6ff65c20",
					"checkIfUserAddressIsBlacklisted(address)": "85737020",
					"checkIfUserAddressIsWhitelisted(address)": "fc05542a",
					"getNumberOfRewardedParticipants()": "741ae614",
					"getRewardAmountPerParticipantInWei()": "7069243c",
					"getWhitelistedAddressesFromRegisteredAddresses(address[])": "a34db0a0",
					"numberOfRewardedParticipants()": "1318fbf1",
					"owner()": "8da5cb5b",
					"pauseSurvey()": "e082fe2a",
					"paused()": "5c975abb",
					"processRewardClaimByParticipant(address)": "a0858343",
					"renounceOwnership()": "715018a6",
					"rewardAmountPerParticipantInWei()": "7a0abf08",
					"targetNumberOfParticipants()": "a6a09811",
					"transferOwnership(address)": "f2fde38b",
					"unpauseSurvey()": "3960fc66",
					"updateRewardAmountPerParticipant(uint256)": "64bb632f",
					"updateTargetNumberOfParticipants(uint256)": "528780cc",
					"whitelistMultipleAddresses(address[])": "81aeb13b",
					"whitelistOneAddress(address)": "e8a748e7",
					"withdrawAllRewardFundsToResearcher()": "f22069df"
				}
			},
			"storageLayout": {
				"storage": [
					{
						"astId": 8,
						"contract": "hardhat/contracts/CanvassingSurvey.sol:CanvassingSurvey",
						"label": "_owner",
						"offset": 0,
						"slot": "0",
						"type": "t_address"
					},
					{
						"astId": 409,
						"contract": "hardhat/contracts/CanvassingSurvey.sol:CanvassingSurvey",
						"label": "_status",
						"offset": 0,
						"slot": "1",
						"type": "t_uint256"
					},
					{
						"astId": 290,
						"contract": "hardhat/contracts/CanvassingSurvey.sol:CanvassingSurvey",
						"label": "_paused",
						"offset": 0,
						"slot": "2",
						"type": "t_bool"
					},
					{
						"astId": 486,
						"contract": "hardhat/contracts/CanvassingSurvey.sol:CanvassingSurvey",
						"label": "usersWhitelistedForSurvey",
						"offset": 0,
						"slot": "3",
						"type": "t_mapping(t_address,t_bool)"
					},
					{
						"astId": 490,
						"contract": "hardhat/contracts/CanvassingSurvey.sol:CanvassingSurvey",
						"label": "participantsWhoHaveClaimedRewards",
						"offset": 0,
						"slot": "4",
						"type": "t_mapping(t_address,t_bool)"
					},
					{
						"astId": 492,
						"contract": "hardhat/contracts/CanvassingSurvey.sol:CanvassingSurvey",
						"label": "rewardAmountPerParticipantInWei",
						"offset": 0,
						"slot": "5",
						"type": "t_uint256"
					},
					{
						"astId": 494,
						"contract": "hardhat/contracts/CanvassingSurvey.sol:CanvassingSurvey",
						"label": "targetNumberOfParticipants",
						"offset": 0,
						"slot": "6",
						"type": "t_uint256"
					},
					{
						"astId": 496,
						"contract": "hardhat/contracts/CanvassingSurvey.sol:CanvassingSurvey",
						"label": "numberOfRewardedParticipants",
						"offset": 0,
						"slot": "7",
						"type": "t_uint256"
					}
				],
				"types": {
					"t_address": {
						"encoding": "inplace",
						"label": "address",
						"numberOfBytes": "20"
					},
					"t_bool": {
						"encoding": "inplace",
						"label": "bool",
						"numberOfBytes": "1"
					},
					"t_mapping(t_address,t_bool)": {
						"encoding": "mapping",
						"key": "t_address",
						"label": "mapping(address => bool)",
						"numberOfBytes": "32",
						"value": "t_bool"
					},
					"t_uint256": {
						"encoding": "inplace",
						"label": "uint256",
						"numberOfBytes": "32"
					}
				}
			},
			"userdoc": {
				"kind": "user",
				"methods": {},
				"version": 1
			}
		}
	}
}