{
	"hardhat/contracts/ClosedSurveyV2.sol": {
		"ClosedSurveyV2": {
			"abi": [
				{
					"inputs": [
						{
							"internalType": "address",
							"name": "researcherWalletAddress",
							"type": "address"
						},
						{
							"internalType": "uint256",
							"name": "_rewardAmountPerParticipantInWei",
							"type": "uint256"
						},
						{
							"internalType": "uint256",
							"name": "_targetNumberOfParticipants",
							"type": "uint256"
						},
						{
							"internalType": "address",
							"name": "cUSDTokenAddress",
							"type": "address"
						}
					],
					"stateMutability": "nonpayable",
					"type": "constructor"
				},
				{
					"inputs": [],
					"name": "EnforcedPause",
					"type": "error"
				},
				{
					"inputs": [],
					"name": "ExpectedPause",
					"type": "error"
				},
				{
					"inputs": [
						{
							"internalType": "address",
							"name": "owner",
							"type": "address"
						}
					],
					"name": "OwnableInvalidOwner",
					"type": "error"
				},
				{
					"inputs": [
						{
							"internalType": "address",
							"name": "account",
							"type": "address"
						}
					],
					"name": "OwnableUnauthorizedAccount",
					"type": "error"
				},
				{
					"inputs": [],
					"name": "ReentrancyGuardReentrantCall",
					"type": "error"
				},
				{
					"anonymous": false,
					"inputs": [
						{
							"indexed": false,
							"internalType": "address[]",
							"name": "walletAddresses",
							"type": "address[]"
						}
					],
					"name": "MultipleUserAddressesWhitelisted",
					"type": "event"
				},
				{
					"anonymous": false,
					"inputs": [
						{
							"indexed": false,
							"internalType": "address[]",
							"name": "walletAddresses",
							"type": "address[]"
						}
					],
					"name": "MultipleWhitelistedUserAddressesBlacklisted",
					"type": "event"
				},
				{
					"anonymous": false,
					"inputs": [
						{
							"indexed": false,
							"internalType": "address",
							"name": "participantWalletAddress",
							"type": "address"
						}
					],
					"name": "OneUserAddressWhitelisted",
					"type": "event"
				},
				{
					"anonymous": false,
					"inputs": [
						{
							"indexed": false,
							"internalType": "address",
							"name": "participantWalletAddress",
							"type": "address"
						}
					],
					"name": "OneWhitelistedUserAddressBlacklisted",
					"type": "event"
				},
				{
					"anonymous": false,
					"inputs": [
						{
							"indexed": true,
							"internalType": "address",
							"name": "previousOwner",
							"type": "address"
						},
						{
							"indexed": true,
							"internalType": "address",
							"name": "newOwner",
							"type": "address"
						}
					],
					"name": "OwnershipTransferred",
					"type": "event"
				},
				{
					"anonymous": false,
					"inputs": [
						{
							"indexed": false,
							"internalType": "address",
							"name": "participantWalletAddress",
							"type": "address"
						}
					],
					"name": "ParticipantMarkedAsRewarded",
					"type": "event"
				},
				{
					"anonymous": false,
					"inputs": [
						{
							"indexed": false,
							"internalType": "address",
							"name": "participantWalletAddress",
							"type": "address"
						},
						{
							"indexed": false,
							"internalType": "uint256",
							"name": "rewardAmount",
							"type": "uint256"
						}
					],
					"name": "ParticipantRewarded",
					"type": "event"
				},
				{
					"anonymous": false,
					"inputs": [
						{
							"indexed": false,
							"internalType": "address",
							"name": "account",
							"type": "address"
						}
					],
					"name": "Paused",
					"type": "event"
				},
				{
					"anonymous": false,
					"inputs": [
						{
							"indexed": false,
							"internalType": "uint256",
							"name": "oldcUSDRewardAmountPerParticipantInWei",
							"type": "uint256"
						},
						{
							"indexed": false,
							"internalType": "uint256",
							"name": "newcUSDRewardAmountPerParticipantInWei",
							"type": "uint256"
						}
					],
					"name": "RewardAmountUpdated",
					"type": "event"
				},
				{
					"anonymous": false,
					"inputs": [
						{
							"indexed": false,
							"internalType": "address",
							"name": "researcherWalletAddress",
							"type": "address"
						},
						{
							"indexed": false,
							"internalType": "uint256",
							"name": "rewardAmount",
							"type": "uint256"
						}
					],
					"name": "RewardFundsWithdrawn",
					"type": "event"
				},
				{
					"anonymous": false,
					"inputs": [
						{
							"indexed": false,
							"internalType": "uint256",
							"name": "oldTargetNumberOfParticipants",
							"type": "uint256"
						},
						{
							"indexed": false,
							"internalType": "uint256",
							"name": "newTargetNumberOfParticipants",
							"type": "uint256"
						}
					],
					"name": "TargetNumberOfParticipantsUpdates",
					"type": "event"
				},
				{
					"anonymous": false,
					"inputs": [
						{
							"indexed": false,
							"internalType": "address",
							"name": "account",
							"type": "address"
						}
					],
					"name": "Unpaused",
					"type": "event"
				},
				{
					"inputs": [
						{
							"internalType": "address[]",
							"name": "walletAddresses",
							"type": "address[]"
						}
					],
					"name": "blacklistMultipleWhitelistedUserAddresses",
					"outputs": [],
					"stateMutability": "nonpayable",
					"type": "function"
				},
				{
					"inputs": [
						{
							"internalType": "address",
							"name": "walletAddress",
							"type": "address"
						}
					],
					"name": "blacklistOneWhitelistedUserAddress",
					"outputs": [],
					"stateMutability": "nonpayable",
					"type": "function"
				},
				{
					"inputs": [],
					"name": "cUSD",
					"outputs": [
						{
							"internalType": "contract IERC20Metadata",
							"name": "",
							"type": "address"
						}
					],
					"stateMutability": "view",
					"type": "function"
				},
				{
					"inputs": [
						{
							"internalType": "address",
							"name": "walletAddress",
							"type": "address"
						}
					],
					"name": "checkIfParticipantHasAlreadyClaimedReward",
					"outputs": [
						{
							"internalType": "bool",
							"name": "",
							"type": "bool"
						}
					],
					"stateMutability": "view",
					"type": "function"
				},
				{
					"inputs": [
						{
							"internalType": "address",
							"name": "walletAddress",
							"type": "address"
						}
					],
					"name": "checkIfUserAddressIsBlacklisted",
					"outputs": [
						{
							"internalType": "bool",
							"name": "",
							"type": "bool"
						}
					],
					"stateMutability": "view",
					"type": "function"
				},
				{
					"inputs": [
						{
							"internalType": "address",
							"name": "walletAddress",
							"type": "address"
						}
					],
					"name": "checkIfUserAddressIsWhitelisted",
					"outputs": [
						{
							"internalType": "bool",
							"name": "",
							"type": "bool"
						}
					],
					"stateMutability": "view",
					"type": "function"
				},
				{
					"inputs": [],
					"name": "getNumberOfRewardedParticipants",
					"outputs": [
						{
							"internalType": "uint256",
							"name": "",
							"type": "uint256"
						}
					],
					"stateMutability": "view",
					"type": "function"
				},
				{
					"inputs": [],
					"name": "getNumberOfWhitelistedUserAddresses",
					"outputs": [
						{
							"internalType": "uint256",
							"name": "",
							"type": "uint256"
						}
					],
					"stateMutability": "view",
					"type": "function"
				},
				{
					"inputs": [],
					"name": "getRewardAmountPerParticipantInWei",
					"outputs": [
						{
							"internalType": "uint256",
							"name": "",
							"type": "uint256"
						}
					],
					"stateMutability": "view",
					"type": "function"
				},
				{
					"inputs": [],
					"name": "getTargetNumberOfParticipants",
					"outputs": [
						{
							"internalType": "uint256",
							"name": "",
							"type": "uint256"
						}
					],
					"stateMutability": "view",
					"type": "function"
				},
				{
					"inputs": [
						{
							"internalType": "address[]",
							"name": "registeredAddresses",
							"type": "address[]"
						}
					],
					"name": "getWhitelistedAddressesFromRegisteredAddresses",
					"outputs": [
						{
							"internalType": "address[]",
							"name": "",
							"type": "address[]"
						}
					],
					"stateMutability": "view",
					"type": "function"
				},
				{
					"inputs": [],
					"name": "numberOfWhitelistedUserAddresses",
					"outputs": [
						{
							"internalType": "uint256",
							"name": "",
							"type": "uint256"
						}
					],
					"stateMutability": "view",
					"type": "function"
				},
				{
					"inputs": [],
					"name": "owner",
					"outputs": [
						{
							"internalType": "address",
							"name": "",
							"type": "address"
						}
					],
					"stateMutability": "view",
					"type": "function"
				},
				{
					"inputs": [],
					"name": "pauseSurvey",
					"outputs": [],
					"stateMutability": "nonpayable",
					"type": "function"
				},
				{
					"inputs": [],
					"name": "paused",
					"outputs": [
						{
							"internalType": "bool",
							"name": "",
							"type": "bool"
						}
					],
					"stateMutability": "view",
					"type": "function"
				},
				{
					"inputs": [
						{
							"internalType": "address",
							"name": "walletAddress",
							"type": "address"
						}
					],
					"name": "processRewardClaimByParticipant",
					"outputs": [],
					"stateMutability": "nonpayable",
					"type": "function"
				},
				{
					"inputs": [],
					"name": "renounceOwnership",
					"outputs": [],
					"stateMutability": "nonpayable",
					"type": "function"
				},
				{
					"inputs": [],
					"name": "rewardAmountPerParticipantInWei",
					"outputs": [
						{
							"internalType": "uint256",
							"name": "",
							"type": "uint256"
						}
					],
					"stateMutability": "view",
					"type": "function"
				},
				{
					"inputs": [],
					"name": "targetNumberOfParticipants",
					"outputs": [
						{
							"internalType": "uint256",
							"name": "",
							"type": "uint256"
						}
					],
					"stateMutability": "view",
					"type": "function"
				},
				{
					"inputs": [
						{
							"internalType": "address",
							"name": "newOwner",
							"type": "address"
						}
					],
					"name": "transferOwnership",
					"outputs": [],
					"stateMutability": "nonpayable",
					"type": "function"
				},
				{
					"inputs": [],
					"name": "unpauseSurvey",
					"outputs": [],
					"stateMutability": "nonpayable",
					"type": "function"
				},
				{
					"inputs": [
						{
							"internalType": "uint256",
							"name": "_newRewardAmountPerParticipantInWei",
							"type": "uint256"
						}
					],
					"name": "updateRewardAmountPerParticipant",
					"outputs": [],
					"stateMutability": "nonpayable",
					"type": "function"
				},
				{
					"inputs": [
						{
							"internalType": "uint256",
							"name": "_newTargetNumberOfParticipants",
							"type": "uint256"
						}
					],
					"name": "updateTargetNumberOfParticipants",
					"outputs": [],
					"stateMutability": "nonpayable",
					"type": "function"
				},
				{
					"inputs": [
						{
							"internalType": "address[]",
							"name": "walletAddresses",
							"type": "address[]"
						}
					],
					"name": "whitelistMultipleUserAddresses",
					"outputs": [],
					"stateMutability": "nonpayable",
					"type": "function"
				},
				{
					"inputs": [
						{
							"internalType": "address",
							"name": "walletAddress",
							"type": "address"
						}
					],
					"name": "whitelistOneUserAddress",
					"outputs": [],
					"stateMutability": "nonpayable",
					"type": "function"
				},
				{
					"inputs": [],
					"name": "withdrawAllRewardFundsToResearcher",
					"outputs": [],
					"stateMutability": "nonpayable",
					"type": "function"
				}
			],
			"devdoc": {
				"errors": {
					"EnforcedPause()": [
						{
							"details": "The operation failed because the contract is paused."
						}
					],
					"ExpectedPause()": [
						{
							"details": "The operation failed because the contract is not paused."
						}
					],
					"OwnableInvalidOwner(address)": [
						{
							"details": "The owner is not a valid owner account. (eg. `address(0)`)"
						}
					],
					"OwnableUnauthorizedAccount(address)": [
						{
							"details": "The caller account is not authorized to perform an operation."
						}
					],
					"ReentrancyGuardReentrantCall()": [
						{
							"details": "Unauthorized reentrant call."
						}
					]
				},
				"events": {
					"Paused(address)": {
						"details": "Emitted when the pause is triggered by `account`."
					},
					"Unpaused(address)": {
						"details": "Emitted when the pause is lifted by `account`."
					}
				},
				"kind": "dev",
				"methods": {
					"owner()": {
						"details": "Returns the address of the current owner."
					},
					"paused()": {
						"details": "Returns true if the contract is paused, and false otherwise."
					},
					"renounceOwnership()": {
						"details": "Leaves the contract without owner. It will not be possible to call `onlyOwner` functions. Can only be called by the current owner. NOTE: Renouncing ownership will leave the contract without an owner, thereby disabling any functionality that is only available to the owner."
					},
					"transferOwnership(address)": {
						"details": "Transfers ownership of the contract to a new account (`newOwner`). Can only be called by the current owner."
					}
				},
				"version": 1
			},
			"evm": {
				"assembly": "    /* \"hardhat/contracts/ClosedSurveyV2.sol\":330:12275  contract ClosedSurveyV2 is Ownable, ReentrancyGuard, Pausable {... */\n  mstore(0x40, 0xa0)\n    /* \"hardhat/contracts/ClosedSurveyV2.sol\":3282:4177  constructor(... */\n  callvalue\n  dup1\n  iszero\n  tag_1\n  jumpi\n  0x00\n  dup1\n  revert\ntag_1:\n  pop\n  mload(0x40)\n  sub(codesize, bytecodeSize)\n  dup1\n  bytecodeSize\n  dup4\n  codecopy\n  dup2\n  add\n  0x40\n  dup2\n  swap1\n  mstore\n  tag_2\n  swap2\n  tag_3\n  jump\t// in\ntag_2:\n    /* \"hardhat/contracts/ClosedSurveyV2.sol\":3478:3501  researcherWalletAddress */\n  dup4\n  sub(shl(0xa0, 0x01), 0x01)\n    /* \"@openzeppelin/contracts/access/Ownable.sol\":1273:1299  initialOwner == address(0) */\n  dup2\n  and\n    /* \"@openzeppelin/contracts/access/Ownable.sol\":1269:1364  if (initialOwner == address(0)) {... */\n  tag_9\n  jumpi\n    /* \"@openzeppelin/contracts/access/Ownable.sol\":1322:1353  OwnableInvalidOwner(address(0)) */\n  mload(0x40)\n  shl(0xe0, 0x1e4fbdf7)\n  dup2\n  mstore\n    /* \"@openzeppelin/contracts/access/Ownable.sol\":1350:1351  0 */\n  0x00\n    /* \"@openzeppelin/contracts/access/Ownable.sol\":1322:1353  OwnableInvalidOwner(address(0)) */\n  0x04\n  dup3\n  add\n    /* \"#utility.yul\":861:912   */\n  mstore\n    /* \"#utility.yul\":834:852   */\n  0x24\n  add\n    /* \"@openzeppelin/contracts/access/Ownable.sol\":1322:1353  OwnableInvalidOwner(address(0)) */\ntag_10:\n  mload(0x40)\n  dup1\n  swap2\n  sub\n  swap1\n  revert\n    /* \"@openzeppelin/contracts/access/Ownable.sol\":1269:1364  if (initialOwner == address(0)) {... */\ntag_9:\n    /* \"@openzeppelin/contracts/access/Ownable.sol\":1373:1405  _transferOwnership(initialOwner) */\n  tag_12\n    /* \"@openzeppelin/contracts/access/Ownable.sol\":1392:1404  initialOwner */\n  dup2\n    /* \"@openzeppelin/contracts/access/Ownable.sol\":1373:1391  _transferOwnership */\n  tag_13\n    /* \"@openzeppelin/contracts/access/Ownable.sol\":1373:1405  _transferOwnership(initialOwner) */\n  jump\t// in\ntag_12:\n  pop\n    /* \"@openzeppelin/contracts/utils/ReentrancyGuard.sol\":1857:1858  1 */\n  0x01\n    /* \"@openzeppelin/contracts/utils/ReentrancyGuard.sol\":2061:2082  _status = NOT_ENTERED */\n  dup1\n  sstore\n    /* \"@openzeppelin/contracts/utils/Pausable.sol\":1231:1238  _paused */\n  0x02\n    /* \"@openzeppelin/contracts/utils/Pausable.sol\":1231:1246  _paused = false */\n  dup1\n  sload\n  not(0xff)\n  and\n  swap1\n  sstore\n  sub(shl(0xa0, 0x01), 0x01)\n    /* \"hardhat/contracts/ClosedSurveyV2.sol\":3534:3564  cUSDTokenAddress != address(0) */\n  dup2\n  and\n    /* \"hardhat/contracts/ClosedSurveyV2.sol\":3513:3629  require(... */\n  tag_17\n  jumpi\n  mload(0x40)\n  shl(0xe5, 0x461bcd)\n  dup2\n  mstore\n    /* \"#utility.yul\":1125:1127   */\n  0x20\n    /* \"hardhat/contracts/ClosedSurveyV2.sol\":3513:3629  require(... */\n  0x04\n  dup3\n  add\n    /* \"#utility.yul\":1107:1128   */\n  mstore\n    /* \"#utility.yul\":1164:1166   */\n  0x27\n    /* \"#utility.yul\":1144:1162   */\n  0x24\n  dup3\n  add\n    /* \"#utility.yul\":1137:1167   */\n  mstore\n    /* \"#utility.yul\":1203:1237   */\n  0x5a65726f206164647265737320676976656e20666f722063555344546f6b656e\n    /* \"#utility.yul\":1183:1201   */\n  0x44\n  dup3\n  add\n    /* \"#utility.yul\":1176:1238   */\n  mstore\n  shl(0xc8, 0x41646472657373)\n    /* \"#utility.yul\":1254:1272   */\n  0x64\n  dup3\n  add\n    /* \"#utility.yul\":1247:1284   */\n  mstore\n    /* \"#utility.yul\":1301:1320   */\n  0x84\n  add\n    /* \"hardhat/contracts/ClosedSurveyV2.sol\":3513:3629  require(... */\n  tag_10\n    /* \"#utility.yul\":923:1326   */\n  jump\n    /* \"hardhat/contracts/ClosedSurveyV2.sol\":3513:3629  require(... */\ntag_17:\n  sub(shl(0xa0, 0x01), 0x01)\n    /* \"hardhat/contracts/ClosedSurveyV2.sol\":3661:3698  researcherWalletAddress != address(0) */\n  dup5\n  and\n    /* \"hardhat/contracts/ClosedSurveyV2.sol\":3640:3770  require(... */\n  tag_20\n  jumpi\n  mload(0x40)\n  shl(0xe5, 0x461bcd)\n  dup2\n  mstore\n    /* \"#utility.yul\":1533:1535   */\n  0x20\n    /* \"hardhat/contracts/ClosedSurveyV2.sol\":3640:3770  require(... */\n  0x04\n  dup3\n  add\n    /* \"#utility.yul\":1515:1536   */\n  mstore\n    /* \"#utility.yul\":1572:1574   */\n  0x2e\n    /* \"#utility.yul\":1552:1570   */\n  0x24\n  dup3\n  add\n    /* \"#utility.yul\":1545:1575   */\n  mstore\n    /* \"#utility.yul\":1611:1645   */\n  0x5a65726f206164647265737320676976656e20666f7220726573656172636865\n    /* \"#utility.yul\":1591:1609   */\n  0x44\n  dup3\n  add\n    /* \"#utility.yul\":1584:1646   */\n  mstore\n  shl(0x90, 0x7257616c6c657441646472657373)\n    /* \"#utility.yul\":1662:1680   */\n  0x64\n  dup3\n  add\n    /* \"#utility.yul\":1655:1699   */\n  mstore\n    /* \"#utility.yul\":1716:1735   */\n  0x84\n  add\n    /* \"hardhat/contracts/ClosedSurveyV2.sol\":3640:3770  require(... */\n  tag_10\n    /* \"#utility.yul\":1331:1741   */\n  jump\n    /* \"hardhat/contracts/ClosedSurveyV2.sol\":3640:3770  require(... */\ntag_20:\n    /* \"hardhat/contracts/ClosedSurveyV2.sol\":3824:3825  0 */\n  0x00\n    /* \"hardhat/contracts/ClosedSurveyV2.sol\":3789:3821  _rewardAmountPerParticipantInWei */\n  dup4\n    /* \"hardhat/contracts/ClosedSurveyV2.sol\":3789:3825  _rewardAmountPerParticipantInWei > 0 */\n  gt\n    /* \"hardhat/contracts/ClosedSurveyV2.sol\":3781:3851  require(_rewardAmountPerParticipantInWei > 0, \"Invalid reward amount\") */\n  tag_23\n  jumpi\n  mload(0x40)\n  shl(0xe5, 0x461bcd)\n  dup2\n  mstore\n    /* \"#utility.yul\":1948:1950   */\n  0x20\n    /* \"hardhat/contracts/ClosedSurveyV2.sol\":3781:3851  require(_rewardAmountPerParticipantInWei > 0, \"Invalid reward amount\") */\n  0x04\n  dup3\n  add\n    /* \"#utility.yul\":1930:1951   */\n  mstore\n    /* \"#utility.yul\":1987:1989   */\n  0x15\n    /* \"#utility.yul\":1967:1985   */\n  0x24\n  dup3\n  add\n    /* \"#utility.yul\":1960:1990   */\n  mstore\n    /* \"#utility.yul\":2026:2049   */\n  0x496e76616c69642072657761726420616d6f756e740000000000000000000000\n    /* \"#utility.yul\":2006:2024   */\n  0x44\n  dup3\n  add\n    /* \"#utility.yul\":1999:2050   */\n  mstore\n    /* \"#utility.yul\":2067:2085   */\n  0x64\n  add\n    /* \"hardhat/contracts/ClosedSurveyV2.sol\":3781:3851  require(_rewardAmountPerParticipantInWei > 0, \"Invalid reward amount\") */\n  tag_10\n    /* \"#utility.yul\":1746:2091   */\n  jump\n    /* \"hardhat/contracts/ClosedSurveyV2.sol\":3781:3851  require(_rewardAmountPerParticipantInWei > 0, \"Invalid reward amount\") */\ntag_23:\n    /* \"hardhat/contracts/ClosedSurveyV2.sol\":3913:3914  0 */\n  0x00\n    /* \"hardhat/contracts/ClosedSurveyV2.sol\":3883:3910  _targetNumberOfParticipants */\n  dup3\n    /* \"hardhat/contracts/ClosedSurveyV2.sol\":3883:3914  _targetNumberOfParticipants > 0 */\n  gt\n    /* \"hardhat/contracts/ClosedSurveyV2.sol\":3862:3977  require(... */\n  tag_26\n  jumpi\n  mload(0x40)\n  shl(0xe5, 0x461bcd)\n  dup2\n  mstore\n    /* \"#utility.yul\":2298:2300   */\n  0x20\n    /* \"hardhat/contracts/ClosedSurveyV2.sol\":3862:3977  require(... */\n  0x04\n  dup3\n  add\n    /* \"#utility.yul\":2280:2301   */\n  mstore\n    /* \"#utility.yul\":2337:2339   */\n  0x25\n    /* \"#utility.yul\":2317:2335   */\n  0x24\n  dup3\n  add\n    /* \"#utility.yul\":2310:2340   */\n  mstore\n    /* \"#utility.yul\":2376:2410   */\n  0x496e76616c6964206e756d626572206f66207461726765742070617274696369\n    /* \"#utility.yul\":2356:2374   */\n  0x44\n  dup3\n  add\n    /* \"#utility.yul\":2349:2411   */\n  mstore\n  shl(0xd8, 0x70616e7473)\n    /* \"#utility.yul\":2427:2445   */\n  0x64\n  dup3\n  add\n    /* \"#utility.yul\":2420:2455   */\n  mstore\n    /* \"#utility.yul\":2472:2491   */\n  0x84\n  add\n    /* \"hardhat/contracts/ClosedSurveyV2.sol\":3862:3977  require(... */\n  tag_10\n    /* \"#utility.yul\":2096:2497   */\n  jump\n    /* \"hardhat/contracts/ClosedSurveyV2.sol\":3862:3977  require(... */\ntag_26:\n  sub(shl(0xa0, 0x01), 0x01)\n    /* \"hardhat/contracts/ClosedSurveyV2.sol\":3988:4027  cUSD = IERC20Metadata(cUSDTokenAddress) */\n  and\n  0x80\n  mstore\n    /* \"hardhat/contracts/ClosedSurveyV2.sol\":4038:4069  rewardAmountPerParticipantInWei */\n  0x05\n    /* \"hardhat/contracts/ClosedSurveyV2.sol\":4038:4104  rewardAmountPerParticipantInWei = _rewardAmountPerParticipantInWei */\n  swap2\n  swap1\n  swap2\n  sstore\n    /* \"hardhat/contracts/ClosedSurveyV2.sol\":4114:4140  targetNumberOfParticipants */\n  0x06\n    /* \"hardhat/contracts/ClosedSurveyV2.sol\":4114:4170  targetNumberOfParticipants = _targetNumberOfParticipants */\n  sstore\n  pop\n    /* \"hardhat/contracts/ClosedSurveyV2.sol\":330:12275  contract ClosedSurveyV2 is Ownable, ReentrancyGuard, Pausable {... */\n  jump(tag_32)\n    /* \"@openzeppelin/contracts/access/Ownable.sol\":2912:3099  function _transferOwnership(address newOwner) internal virtual {... */\ntag_13:\n    /* \"@openzeppelin/contracts/access/Ownable.sol\":2985:3001  address oldOwner */\n  0x00\n    /* \"@openzeppelin/contracts/access/Ownable.sol\":3004:3010  _owner */\n  dup1\n  sload\n  sub(shl(0xa0, 0x01), 0x01)\n    /* \"@openzeppelin/contracts/access/Ownable.sol\":3020:3037  _owner = newOwner */\n  dup4\n  dup2\n  and\n  not(sub(shl(0xa0, 0x01), 0x01))\n  dup4\n  and\n  dup2\n  or\n  dup5\n  sstore\n    /* \"@openzeppelin/contracts/access/Ownable.sol\":3052:3092  OwnershipTransferred(oldOwner, newOwner) */\n  mload(0x40)\n    /* \"@openzeppelin/contracts/access/Ownable.sol\":3004:3010  _owner */\n  swap2\n  swap1\n  swap3\n  and\n  swap3\n  dup4\n  swap2\n    /* \"@openzeppelin/contracts/access/Ownable.sol\":3052:3092  OwnershipTransferred(oldOwner, newOwner) */\n  0x8be0079c531659141344cd1fd0a4f28419497f9722a3daafe3b4186f6b6457e0\n  swap2\n    /* \"@openzeppelin/contracts/access/Ownable.sol\":2985:3001  address oldOwner */\n  swap1\n    /* \"@openzeppelin/contracts/access/Ownable.sol\":3052:3092  OwnershipTransferred(oldOwner, newOwner) */\n  log3\n    /* \"@openzeppelin/contracts/access/Ownable.sol\":2975:3099  {... */\n  pop\n    /* \"@openzeppelin/contracts/access/Ownable.sol\":2912:3099  function _transferOwnership(address newOwner) internal virtual {... */\n  pop\n  jump\t// out\n    /* \"#utility.yul\":14:191   */\ntag_31:\n    /* \"#utility.yul\":93:106   */\n  dup1\n  mload\n  sub(shl(0xa0, 0x01), 0x01)\n    /* \"#utility.yul\":135:166   */\n  dup2\n  and\n    /* \"#utility.yul\":125:167   */\n  dup2\n  eq\n    /* \"#utility.yul\":115:185   */\n  tag_34\n  jumpi\n    /* \"#utility.yul\":181:182   */\n  0x00\n    /* \"#utility.yul\":178:179   */\n  dup1\n    /* \"#utility.yul\":171:183   */\n  revert\n    /* \"#utility.yul\":115:185   */\ntag_34:\n    /* \"#utility.yul\":14:191   */\n  swap2\n  swap1\n  pop\n  jump\t// out\n    /* \"#utility.yul\":196:710   */\ntag_3:\n    /* \"#utility.yul\":293:299   */\n  0x00\n    /* \"#utility.yul\":301:307   */\n  dup1\n    /* \"#utility.yul\":309:315   */\n  0x00\n    /* \"#utility.yul\":317:323   */\n  dup1\n    /* \"#utility.yul\":370:373   */\n  0x80\n    /* \"#utility.yul\":358:367   */\n  dup6\n    /* \"#utility.yul\":349:356   */\n  dup8\n    /* \"#utility.yul\":345:368   */\n  sub\n    /* \"#utility.yul\":341:374   */\n  slt\n    /* \"#utility.yul\":338:391   */\n  iszero\n  tag_36\n  jumpi\n    /* \"#utility.yul\":387:388   */\n  0x00\n    /* \"#utility.yul\":384:385   */\n  dup1\n    /* \"#utility.yul\":377:389   */\n  revert\n    /* \"#utility.yul\":338:391   */\ntag_36:\n    /* \"#utility.yul\":410:450   */\n  tag_37\n    /* \"#utility.yul\":440:449   */\n  dup6\n    /* \"#utility.yul\":410:450   */\n  tag_31\n  jump\t// in\ntag_37:\n    /* \"#utility.yul\":512:514   */\n  0x20\n    /* \"#utility.yul\":497:515   */\n  dup7\n  add\n    /* \"#utility.yul\":491:516   */\n  mload\n    /* \"#utility.yul\":606:608   */\n  0x40\n    /* \"#utility.yul\":591:609   */\n  dup8\n  add\n    /* \"#utility.yul\":585:610   */\n  mload\n    /* \"#utility.yul\":400:450   */\n  swap2\n  swap6\n  pop\n    /* \"#utility.yul\":491:516   */\n  swap4\n  pop\n    /* \"#utility.yul\":585:610   */\n  swap2\n  pop\n    /* \"#utility.yul\":655:704   */\n  tag_38\n    /* \"#utility.yul\":700:702   */\n  0x60\n    /* \"#utility.yul\":685:703   */\n  dup7\n  add\n    /* \"#utility.yul\":655:704   */\n  tag_31\n  jump\t// in\ntag_38:\n    /* \"#utility.yul\":645:704   */\n  swap1\n  pop\n    /* \"#utility.yul\":196:710   */\n  swap3\n  swap6\n  swap2\n  swap5\n  pop\n  swap3\n  pop\n  jump\t// out\n    /* \"#utility.yul\":2096:2497   */\ntag_32:\n    /* \"hardhat/contracts/ClosedSurveyV2.sol\":330:12275  contract ClosedSurveyV2 is Ownable, ReentrancyGuard, Pausable {... */\n  mload(0x80)\n  codecopy(0x00, dataOffset(sub_0), dataSize(sub_0))\n  0x00\n  assignImmutable(\"0x4ce4dab4689da140a0c12de1a6af6b8f679594aeb723205f513e052d27f5b26f\")\n  return(0x00, dataSize(sub_0))\nstop\n\nsub_0: assembly {\n        /* \"hardhat/contracts/ClosedSurveyV2.sol\":330:12275  contract ClosedSurveyV2 is Ownable, ReentrancyGuard, Pausable {... */\n      mstore(0x40, 0x80)\n      callvalue\n      dup1\n      iszero\n      tag_1\n      jumpi\n      0x00\n      dup1\n      revert\n    tag_1:\n      pop\n      jumpi(tag_2, lt(calldatasize, 0x04))\n      shr(0xe0, calldataload(0x00))\n      dup1\n      0x98b48493\n      gt\n      tag_29\n      jumpi\n      dup1\n      0xc25a02ec\n      gt\n      tag_30\n      jumpi\n      dup1\n      0xe082fe2a\n      gt\n      tag_31\n      jumpi\n      dup1\n      0xe082fe2a\n      eq\n      tag_25\n      jumpi\n      dup1\n      0xf22069df\n      eq\n      tag_26\n      jumpi\n      dup1\n      0xf2fde38b\n      eq\n      tag_27\n      jumpi\n      dup1\n      0xfc05542a\n      eq\n      tag_28\n      jumpi\n      0x00\n      dup1\n      revert\n    tag_31:\n      dup1\n      0xc25a02ec\n      eq\n      tag_22\n      jumpi\n      dup1\n      0xd335993a\n      eq\n      tag_23\n      jumpi\n      dup1\n      0xd9084326\n      eq\n      tag_24\n      jumpi\n      0x00\n      dup1\n      revert\n    tag_30:\n      dup1\n      0x98b48493\n      eq\n      tag_16\n      jumpi\n      dup1\n      0x9a0474e8\n      eq\n      tag_17\n      jumpi\n      dup1\n      0xa0858343\n      eq\n      tag_18\n      jumpi\n      dup1\n      0xa34db0a0\n      eq\n      tag_19\n      jumpi\n      dup1\n      0xa6a09811\n      eq\n      tag_20\n      jumpi\n      dup1\n      0xb0702913\n      eq\n      tag_21\n      jumpi\n      0x00\n      dup1\n      revert\n    tag_29:\n      dup1\n      0x6ff65c20\n      gt\n      tag_32\n      jumpi\n      dup1\n      0x741ae614\n      gt\n      tag_33\n      jumpi\n      dup1\n      0x741ae614\n      eq\n      tag_12\n      jumpi\n      dup1\n      0x7a0abf08\n      eq\n      tag_13\n      jumpi\n      dup1\n      0x85737020\n      eq\n      tag_14\n      jumpi\n      dup1\n      0x8da5cb5b\n      eq\n      tag_15\n      jumpi\n      0x00\n      dup1\n      revert\n    tag_33:\n      dup1\n      0x6ff65c20\n      eq\n      tag_9\n      jumpi\n      dup1\n      0x7069243c\n      eq\n      tag_10\n      jumpi\n      dup1\n      0x715018a6\n      eq\n      tag_11\n      jumpi\n      0x00\n      dup1\n      revert\n    tag_32:\n      dup1\n      0x1fccf672\n      eq\n      tag_3\n      jumpi\n      dup1\n      0x3960fc66\n      eq\n      tag_4\n      jumpi\n      dup1\n      0x528780cc\n      eq\n      tag_5\n      jumpi\n      dup1\n      0x5c975abb\n      eq\n      tag_6\n      jumpi\n      dup1\n      0x64bb632f\n      eq\n      tag_7\n      jumpi\n      dup1\n      0x6fa1c59d\n      eq\n      tag_8\n      jumpi\n    tag_2:\n      0x00\n      dup1\n      revert\n        /* \"hardhat/contracts/ClosedSurveyV2.sol\":398:434  IERC20Metadata public immutable cUSD */\n    tag_3:\n      tag_34\n      immutable(\"0x4ce4dab4689da140a0c12de1a6af6b8f679594aeb723205f513e052d27f5b26f\")\n      dup2\n      jump\n    tag_34:\n      mload(0x40)\n      sub(shl(0xa0, 0x01), 0x01)\n        /* \"#utility.yul\":200:232   */\n      swap1\n      swap2\n      and\n        /* \"#utility.yul\":182:233   */\n      dup2\n      mstore\n        /* \"#utility.yul\":170:172   */\n      0x20\n        /* \"#utility.yul\":155:173   */\n      add\n        /* \"hardhat/contracts/ClosedSurveyV2.sol\":398:434  IERC20Metadata public immutable cUSD */\n    tag_36:\n      mload(0x40)\n      dup1\n      swap2\n      sub\n      swap1\n      return\n        /* \"hardhat/contracts/ClosedSurveyV2.sol\":10057:10128  function unpauseSurvey() external onlyOwner {... */\n    tag_4:\n      tag_38\n      tag_39\n      jump\t// in\n    tag_38:\n      stop\n        /* \"hardhat/contracts/ClosedSurveyV2.sol\":9352:9978  function updateTargetNumberOfParticipants(... */\n    tag_5:\n      tag_38\n      tag_41\n      calldatasize\n      0x04\n      tag_42\n      jump\t// in\n    tag_41:\n      tag_43\n      jump\t// in\n        /* \"@openzeppelin/contracts/utils/Pausable.sol\":1850:1934  function paused() public view virtual returns (bool) {... */\n    tag_6:\n        /* \"@openzeppelin/contracts/utils/Pausable.sol\":1920:1927  _paused */\n      and(0xff, sload(0x02))\n        /* \"@openzeppelin/contracts/utils/Pausable.sol\":1850:1934  function paused() public view virtual returns (bool) {... */\n    tag_44:\n      mload(0x40)\n        /* \"#utility.yul\":594:608   */\n      swap1\n      iszero\n        /* \"#utility.yul\":587:609   */\n      iszero\n        /* \"#utility.yul\":569:610   */\n      dup2\n      mstore\n        /* \"#utility.yul\":557:559   */\n      0x20\n        /* \"#utility.yul\":542:560   */\n      add\n        /* \"@openzeppelin/contracts/utils/Pausable.sol\":1850:1934  function paused() public view virtual returns (bool) {... */\n      tag_36\n        /* \"#utility.yul\":429:616   */\n      jump\n        /* \"hardhat/contracts/ClosedSurveyV2.sol\":8701:9346  function updateRewardAmountPerParticipant(... */\n    tag_7:\n      tag_38\n      tag_49\n      calldatasize\n      0x04\n      tag_42\n      jump\t// in\n    tag_49:\n      tag_50\n      jump\t// in\n        /* \"hardhat/contracts/ClosedSurveyV2.sol\":11981:12104  function getTargetNumberOfParticipants() external view returns (uint256) {... */\n    tag_8:\n        /* \"hardhat/contracts/ClosedSurveyV2.sol\":12071:12097  targetNumberOfParticipants */\n      sload(0x06)\n        /* \"hardhat/contracts/ClosedSurveyV2.sol\":11981:12104  function getTargetNumberOfParticipants() external view returns (uint256) {... */\n    tag_51:\n      mload(0x40)\n        /* \"#utility.yul\":767:792   */\n      swap1\n      dup2\n      mstore\n        /* \"#utility.yul\":755:757   */\n      0x20\n        /* \"#utility.yul\":740:758   */\n      add\n        /* \"hardhat/contracts/ClosedSurveyV2.sol\":11981:12104  function getTargetNumberOfParticipants() external view returns (uint256) {... */\n      tag_36\n        /* \"#utility.yul\":621:798   */\n      jump\n        /* \"hardhat/contracts/ClosedSurveyV2.sol\":11089:11292  function checkIfParticipantHasAlreadyClaimedReward(address walletAddress)... */\n    tag_9:\n      tag_44\n      tag_56\n      calldatasize\n      0x04\n      tag_57\n      jump\t// in\n    tag_56:\n      sub(shl(0xa0, 0x01), 0x01)\n        /* \"hardhat/contracts/ClosedSurveyV2.sol\":11237:11285  participantsWhoHaveClaimedRewards[walletAddress] */\n      and\n        /* \"hardhat/contracts/ClosedSurveyV2.sol\":11210:11214  bool */\n      0x00\n        /* \"hardhat/contracts/ClosedSurveyV2.sol\":11237:11285  participantsWhoHaveClaimedRewards[walletAddress] */\n      swap1\n      dup2\n      mstore\n        /* \"hardhat/contracts/ClosedSurveyV2.sol\":11237:11270  participantsWhoHaveClaimedRewards */\n      0x04\n        /* \"hardhat/contracts/ClosedSurveyV2.sol\":11237:11285  participantsWhoHaveClaimedRewards[walletAddress] */\n      0x20\n      mstore\n      0x40\n      swap1\n      keccak256\n      sload\n      0xff\n      and\n      swap1\n        /* \"hardhat/contracts/ClosedSurveyV2.sol\":11089:11292  function checkIfParticipantHasAlreadyClaimedReward(address walletAddress)... */\n      jump\n        /* \"hardhat/contracts/ClosedSurveyV2.sol\":11681:11842  function getRewardAmountPerParticipantInWei()... */\n    tag_10:\n        /* \"hardhat/contracts/ClosedSurveyV2.sol\":11804:11835  rewardAmountPerParticipantInWei */\n      sload(0x05)\n        /* \"hardhat/contracts/ClosedSurveyV2.sol\":11681:11842  function getRewardAmountPerParticipantInWei()... */\n      jump(tag_51)\n        /* \"@openzeppelin/contracts/access/Ownable.sol\":2293:2394  function renounceOwnership() public virtual onlyOwner {... */\n    tag_11:\n      tag_38\n      tag_64\n      jump\t// in\n        /* \"hardhat/contracts/ClosedSurveyV2.sol\":11848:11975  function getNumberOfRewardedParticipants() external view returns (uint256) {... */\n    tag_12:\n        /* \"hardhat/contracts/ClosedSurveyV2.sol\":11940:11968  numberOfRewardedParticipants */\n      sload(0x07)\n        /* \"hardhat/contracts/ClosedSurveyV2.sol\":11848:11975  function getNumberOfRewardedParticipants() external view returns (uint256) {... */\n      jump(tag_51)\n        /* \"hardhat/contracts/ClosedSurveyV2.sol\":578:624  uint256 public rewardAmountPerParticipantInWei */\n    tag_13:\n      tag_51\n      sload(0x05)\n      dup2\n      jump\n        /* \"hardhat/contracts/ClosedSurveyV2.sol\":11489:11675  function checkIfUserAddressIsBlacklisted(address walletAddress)... */\n    tag_14:\n      tag_44\n      tag_72\n      calldatasize\n      0x04\n      tag_57\n      jump\t// in\n    tag_72:\n      sub(shl(0xa0, 0x01), 0x01)\n        /* \"hardhat/contracts/ClosedSurveyV2.sol\":11628:11668  usersWhitelistedForSurvey[walletAddress] */\n      and\n        /* \"hardhat/contracts/ClosedSurveyV2.sol\":11600:11604  bool */\n      0x00\n        /* \"hardhat/contracts/ClosedSurveyV2.sol\":11628:11668  usersWhitelistedForSurvey[walletAddress] */\n      swap1\n      dup2\n      mstore\n        /* \"hardhat/contracts/ClosedSurveyV2.sol\":11628:11653  usersWhitelistedForSurvey */\n      0x03\n        /* \"hardhat/contracts/ClosedSurveyV2.sol\":11628:11668  usersWhitelistedForSurvey[walletAddress] */\n      0x20\n      mstore\n      0x40\n      swap1\n      keccak256\n      sload\n      0xff\n      and\n        /* \"hardhat/contracts/ClosedSurveyV2.sol\":11627:11668  !usersWhitelistedForSurvey[walletAddress] */\n      iszero\n      swap1\n        /* \"hardhat/contracts/ClosedSurveyV2.sol\":11489:11675  function checkIfUserAddressIsBlacklisted(address walletAddress)... */\n      jump\n        /* \"@openzeppelin/contracts/access/Ownable.sol\":1638:1723  function owner() public view virtual returns (address) {... */\n    tag_15:\n        /* \"@openzeppelin/contracts/access/Ownable.sol\":1684:1691  address */\n      0x00\n        /* \"@openzeppelin/contracts/access/Ownable.sol\":1710:1716  _owner */\n      sload\n      sub(shl(0xa0, 0x01), 0x01)\n      and\n        /* \"@openzeppelin/contracts/access/Ownable.sol\":1638:1723  function owner() public view virtual returns (address) {... */\n      jump(tag_34)\n        /* \"hardhat/contracts/ClosedSurveyV2.sol\":5024:5996  function whitelistMultipleUserAddresses(address[] calldata walletAddresses)... */\n    tag_16:\n      tag_38\n      tag_80\n      calldatasize\n      0x04\n      tag_81\n      jump\t// in\n    tag_80:\n      tag_82\n      jump\t// in\n        /* \"hardhat/contracts/ClosedSurveyV2.sol\":6002:6989  function blacklistMultipleWhitelistedUserAddresses(... */\n    tag_17:\n      tag_38\n      tag_84\n      calldatasize\n      0x04\n      tag_81\n      jump\t// in\n    tag_84:\n      tag_85\n      jump\t// in\n        /* \"hardhat/contracts/ClosedSurveyV2.sol\":6995:7542  function processRewardClaimByParticipant(address walletAddress)... */\n    tag_18:\n      tag_38\n      tag_87\n      calldatasize\n      0x04\n      tag_57\n      jump\t// in\n    tag_87:\n      tag_88\n      jump\t// in\n        /* \"hardhat/contracts/ClosedSurveyV2.sol\":10134:11083  function getWhitelistedAddressesFromRegisteredAddresses(... */\n    tag_19:\n      tag_89\n      tag_90\n      calldatasize\n      0x04\n      tag_81\n      jump\t// in\n    tag_90:\n      tag_91\n      jump\t// in\n    tag_89:\n      mload(0x40)\n      tag_36\n      swap2\n      swap1\n      tag_93\n      jump\t// in\n        /* \"hardhat/contracts/ClosedSurveyV2.sol\":630:671  uint256 public targetNumberOfParticipants */\n    tag_20:\n      tag_51\n      sload(0x06)\n      dup2\n      jump\n        /* \"hardhat/contracts/ClosedSurveyV2.sol\":4183:4586  function whitelistOneUserAddress(address walletAddress)... */\n    tag_21:\n      tag_38\n      tag_98\n      calldatasize\n      0x04\n      tag_57\n      jump\t// in\n    tag_98:\n      tag_99\n      jump\t// in\n        /* \"hardhat/contracts/ClosedSurveyV2.sol\":727:774  uint256 public numberOfWhitelistedUserAddresses */\n    tag_22:\n      tag_51\n      sload(0x08)\n      dup2\n      jump\n        /* \"hardhat/contracts/ClosedSurveyV2.sol\":4592:5018  function blacklistOneWhitelistedUserAddress(address walletAddress)... */\n    tag_23:\n      tag_38\n      tag_104\n      calldatasize\n      0x04\n      tag_57\n      jump\t// in\n    tag_104:\n      tag_105\n      jump\t// in\n        /* \"hardhat/contracts/ClosedSurveyV2.sol\":12110:12273  function getNumberOfWhitelistedUserAddresses()... */\n    tag_24:\n        /* \"hardhat/contracts/ClosedSurveyV2.sol\":12234:12266  numberOfWhitelistedUserAddresses */\n      sload(0x08)\n        /* \"hardhat/contracts/ClosedSurveyV2.sol\":12110:12273  function getNumberOfWhitelistedUserAddresses()... */\n      jump(tag_51)\n        /* \"hardhat/contracts/ClosedSurveyV2.sol\":9984:10051  function pauseSurvey() external onlyOwner {... */\n    tag_25:\n      tag_38\n      tag_110\n      jump\t// in\n        /* \"hardhat/contracts/ClosedSurveyV2.sol\":8397:8695  function withdrawAllRewardFundsToResearcher()... */\n    tag_26:\n      tag_38\n      tag_112\n      jump\t// in\n        /* \"@openzeppelin/contracts/access/Ownable.sol\":2543:2758  function transferOwnership(address newOwner) public virtual onlyOwner {... */\n    tag_27:\n      tag_38\n      tag_114\n      calldatasize\n      0x04\n      tag_57\n      jump\t// in\n    tag_114:\n      tag_115\n      jump\t// in\n        /* \"hardhat/contracts/ClosedSurveyV2.sol\":11298:11483  function checkIfUserAddressIsWhitelisted(address walletAddress)... */\n    tag_28:\n      tag_44\n      tag_117\n      calldatasize\n      0x04\n      tag_57\n      jump\t// in\n    tag_117:\n      sub(shl(0xa0, 0x01), 0x01)\n        /* \"hardhat/contracts/ClosedSurveyV2.sol\":11436:11476  usersWhitelistedForSurvey[walletAddress] */\n      and\n        /* \"hardhat/contracts/ClosedSurveyV2.sol\":11409:11413  bool */\n      0x00\n        /* \"hardhat/contracts/ClosedSurveyV2.sol\":11436:11476  usersWhitelistedForSurvey[walletAddress] */\n      swap1\n      dup2\n      mstore\n        /* \"hardhat/contracts/ClosedSurveyV2.sol\":11436:11461  usersWhitelistedForSurvey */\n      0x03\n        /* \"hardhat/contracts/ClosedSurveyV2.sol\":11436:11476  usersWhitelistedForSurvey[walletAddress] */\n      0x20\n      mstore\n      0x40\n      swap1\n      keccak256\n      sload\n      0xff\n      and\n      swap1\n        /* \"hardhat/contracts/ClosedSurveyV2.sol\":11298:11483  function checkIfUserAddressIsWhitelisted(address walletAddress)... */\n      jump\n        /* \"hardhat/contracts/ClosedSurveyV2.sol\":10057:10128  function unpauseSurvey() external onlyOwner {... */\n    tag_39:\n        /* \"@openzeppelin/contracts/access/Ownable.sol\":1531:1544  _checkOwner() */\n      tag_121\n        /* \"@openzeppelin/contracts/access/Ownable.sol\":1531:1542  _checkOwner */\n      tag_122\n        /* \"@openzeppelin/contracts/access/Ownable.sol\":1531:1544  _checkOwner() */\n      jump\t// in\n    tag_121:\n        /* \"hardhat/contracts/ClosedSurveyV2.sol\":10111:10121  _unpause() */\n      tag_124\n        /* \"hardhat/contracts/ClosedSurveyV2.sol\":10111:10119  _unpause */\n      tag_125\n        /* \"hardhat/contracts/ClosedSurveyV2.sol\":10111:10121  _unpause() */\n      jump\t// in\n    tag_124:\n        /* \"hardhat/contracts/ClosedSurveyV2.sol\":10057:10128  function unpauseSurvey() external onlyOwner {... */\n      jump\t// out\n        /* \"hardhat/contracts/ClosedSurveyV2.sol\":9352:9978  function updateTargetNumberOfParticipants(... */\n    tag_43:\n        /* \"@openzeppelin/contracts/access/Ownable.sol\":1531:1544  _checkOwner() */\n      tag_127\n        /* \"@openzeppelin/contracts/access/Ownable.sol\":1531:1542  _checkOwner */\n      tag_122\n        /* \"@openzeppelin/contracts/access/Ownable.sol\":1531:1544  _checkOwner() */\n      jump\t// in\n    tag_127:\n        /* \"hardhat/contracts/ClosedSurveyV2.sol\":9498:9528  _newTargetNumberOfParticipants */\n      dup1\n        /* \"hardhat/contracts/ClosedSurveyV2.sol\":9532:9533  0 */\n      0x00\n        /* \"hardhat/contracts/ClosedSurveyV2.sol\":9498:9533  _newTargetNumberOfParticipants != 0 */\n      sub\n        /* \"hardhat/contracts/ClosedSurveyV2.sol\":9477:9599  require(... */\n      tag_129\n      jumpi\n      mload(0x40)\n      shl(0xe5, 0x461bcd)\n      dup2\n      mstore\n        /* \"#utility.yul\":2839:2841   */\n      0x20\n        /* \"hardhat/contracts/ClosedSurveyV2.sol\":9477:9599  require(... */\n      0x04\n      dup3\n      add\n        /* \"#utility.yul\":2821:2842   */\n      mstore\n        /* \"#utility.yul\":2878:2880   */\n      0x28\n        /* \"#utility.yul\":2858:2876   */\n      0x24\n      dup3\n      add\n        /* \"#utility.yul\":2851:2881   */\n      mstore\n        /* \"#utility.yul\":2917:2951   */\n      0x5a65726f206e756d626572206f6620746172676574207061727469636970616e\n        /* \"#utility.yul\":2897:2915   */\n      0x44\n      dup3\n      add\n        /* \"#utility.yul\":2890:2952   */\n      mstore\n      shl(0xc1, 0x3a399033b4bb32b7)\n        /* \"#utility.yul\":2968:2986   */\n      0x64\n      dup3\n      add\n        /* \"#utility.yul\":2961:2999   */\n      mstore\n        /* \"#utility.yul\":3016:3035   */\n      0x84\n      add\n        /* \"hardhat/contracts/ClosedSurveyV2.sol\":9477:9599  require(... */\n    tag_130:\n      mload(0x40)\n      dup1\n      swap2\n      sub\n      swap1\n      revert\n    tag_129:\n        /* \"hardhat/contracts/ClosedSurveyV2.sol\":9650:9676  targetNumberOfParticipants */\n      0x06\n      dup1\n      sload\n        /* \"hardhat/contracts/ClosedSurveyV2.sol\":9768:9826  targetNumberOfParticipants = newTargetNumberOfParticipants */\n      swap1\n      dup3\n      swap1\n      sstore\n        /* \"hardhat/contracts/ClosedSurveyV2.sol\":9842:9971  TargetNumberOfParticipantsUpdates(... */\n      0x40\n      dup1\n      mload\n        /* \"#utility.yul\":3220:3245   */\n      dup3\n      dup2\n      mstore\n        /* \"#utility.yul\":3276:3278   */\n      0x20\n        /* \"#utility.yul\":3261:3279   */\n      dup2\n      add\n        /* \"#utility.yul\":3254:3288   */\n      dup5\n      swap1\n      mstore\n        /* \"hardhat/contracts/ClosedSurveyV2.sol\":9768:9826  targetNumberOfParticipants = newTargetNumberOfParticipants */\n      dup4\n      swap2\n        /* \"hardhat/contracts/ClosedSurveyV2.sol\":9842:9971  TargetNumberOfParticipantsUpdates(... */\n      0x2e31e8893a04ce5258044d342d7658948a6ac9710d97e32462ab75f131ae11ef\n      swap2\n        /* \"#utility.yul\":3193:3211   */\n      add\n        /* \"hardhat/contracts/ClosedSurveyV2.sol\":9842:9971  TargetNumberOfParticipantsUpdates(... */\n    tag_132:\n      mload(0x40)\n      dup1\n      swap2\n      sub\n      swap1\n      log1\n        /* \"hardhat/contracts/ClosedSurveyV2.sol\":9467:9978  {... */\n      pop\n      pop\n        /* \"hardhat/contracts/ClosedSurveyV2.sol\":9352:9978  function updateTargetNumberOfParticipants(... */\n      pop\n      jump\t// out\n        /* \"hardhat/contracts/ClosedSurveyV2.sol\":8701:9346  function updateRewardAmountPerParticipant(... */\n    tag_50:\n        /* \"@openzeppelin/contracts/access/Ownable.sol\":1531:1544  _checkOwner() */\n      tag_136\n        /* \"@openzeppelin/contracts/access/Ownable.sol\":1531:1542  _checkOwner */\n      tag_122\n        /* \"@openzeppelin/contracts/access/Ownable.sol\":1531:1544  _checkOwner() */\n      jump\t// in\n    tag_136:\n        /* \"hardhat/contracts/ClosedSurveyV2.sol\":8852:8887  _newRewardAmountPerParticipantInWei */\n      dup1\n        /* \"hardhat/contracts/ClosedSurveyV2.sol\":8891:8892  0 */\n      0x00\n        /* \"hardhat/contracts/ClosedSurveyV2.sol\":8852:8892  _newRewardAmountPerParticipantInWei != 0 */\n      sub\n        /* \"hardhat/contracts/ClosedSurveyV2.sol\":8831:8942  require(... */\n      tag_138\n      jumpi\n      mload(0x40)\n      shl(0xe5, 0x461bcd)\n      dup2\n      mstore\n        /* \"#utility.yul\":3501:3503   */\n      0x20\n        /* \"hardhat/contracts/ClosedSurveyV2.sol\":8831:8942  require(... */\n      0x04\n      dup3\n      add\n        /* \"#utility.yul\":3483:3504   */\n      mstore\n        /* \"#utility.yul\":3540:3542   */\n      0x18\n        /* \"#utility.yul\":3520:3538   */\n      0x24\n      dup3\n      add\n        /* \"#utility.yul\":3513:3543   */\n      mstore\n        /* \"#utility.yul\":3579:3605   */\n      0x5a65726f2072657761726420616d6f756e7420676976656e0000000000000000\n        /* \"#utility.yul\":3559:3577   */\n      0x44\n      dup3\n      add\n        /* \"#utility.yul\":3552:3606   */\n      mstore\n        /* \"#utility.yul\":3623:3641   */\n      0x64\n      add\n        /* \"hardhat/contracts/ClosedSurveyV2.sol\":8831:8942  require(... */\n      tag_130\n        /* \"#utility.yul\":3299:3647   */\n      jump\n        /* \"hardhat/contracts/ClosedSurveyV2.sol\":8831:8942  require(... */\n    tag_138:\n        /* \"hardhat/contracts/ClosedSurveyV2.sol\":8998:9029  rewardAmountPerParticipantInWei */\n      0x05\n      dup1\n      sload\n        /* \"hardhat/contracts/ClosedSurveyV2.sol\":9130:9198  rewardAmountPerParticipantInWei = newRewardAmountPerParticipantInWei */\n      swap1\n      dup3\n      swap1\n      sstore\n        /* \"hardhat/contracts/ClosedSurveyV2.sol\":9214:9339  RewardAmountUpdated(... */\n      0x40\n      dup1\n      mload\n        /* \"#utility.yul\":3220:3245   */\n      dup3\n      dup2\n      mstore\n        /* \"#utility.yul\":3276:3278   */\n      0x20\n        /* \"#utility.yul\":3261:3279   */\n      dup2\n      add\n        /* \"#utility.yul\":3254:3288   */\n      dup5\n      swap1\n      mstore\n        /* \"hardhat/contracts/ClosedSurveyV2.sol\":9130:9198  rewardAmountPerParticipantInWei = newRewardAmountPerParticipantInWei */\n      dup4\n      swap2\n        /* \"hardhat/contracts/ClosedSurveyV2.sol\":9214:9339  RewardAmountUpdated(... */\n      0xf0d37c3ae852021ac329281f604b658691cbfa6b9e9c22909f06b64a8ce87c94\n      swap2\n        /* \"#utility.yul\":3193:3211   */\n      add\n        /* \"hardhat/contracts/ClosedSurveyV2.sol\":9214:9339  RewardAmountUpdated(... */\n      tag_132\n        /* \"#utility.yul\":3046:3294   */\n      jump\n        /* \"@openzeppelin/contracts/access/Ownable.sol\":2293:2394  function renounceOwnership() public virtual onlyOwner {... */\n    tag_64:\n        /* \"@openzeppelin/contracts/access/Ownable.sol\":1531:1544  _checkOwner() */\n      tag_146\n        /* \"@openzeppelin/contracts/access/Ownable.sol\":1531:1542  _checkOwner */\n      tag_122\n        /* \"@openzeppelin/contracts/access/Ownable.sol\":1531:1544  _checkOwner() */\n      jump\t// in\n    tag_146:\n        /* \"@openzeppelin/contracts/access/Ownable.sol\":2357:2387  _transferOwnership(address(0)) */\n      tag_124\n        /* \"@openzeppelin/contracts/access/Ownable.sol\":2384:2385  0 */\n      0x00\n        /* \"@openzeppelin/contracts/access/Ownable.sol\":2357:2375  _transferOwnership */\n      tag_149\n        /* \"@openzeppelin/contracts/access/Ownable.sol\":2357:2387  _transferOwnership(address(0)) */\n      jump\t// in\n        /* \"hardhat/contracts/ClosedSurveyV2.sol\":5024:5996  function whitelistMultipleUserAddresses(address[] calldata walletAddresses)... */\n    tag_82:\n        /* \"@openzeppelin/contracts/access/Ownable.sol\":1531:1544  _checkOwner() */\n      tag_154\n        /* \"@openzeppelin/contracts/access/Ownable.sol\":1531:1542  _checkOwner */\n      tag_122\n        /* \"@openzeppelin/contracts/access/Ownable.sol\":1531:1544  _checkOwner() */\n      jump\t// in\n    tag_154:\n        /* \"hardhat/contracts/ClosedSurveyV2.sol\":5166:5181  walletAddresses */\n      dup1\n        /* \"hardhat/contracts/ClosedSurveyV2.sol\":5207:5217  length > 0 */\n      dup1\n        /* \"hardhat/contracts/ClosedSurveyV2.sol\":5199:5241  require(length > 0, \"No addresses passed\") */\n      tag_156\n      jumpi\n      mload(0x40)\n      shl(0xe5, 0x461bcd)\n      dup2\n      mstore\n      0x04\n      add\n      tag_130\n      swap1\n      tag_158\n      jump\t// in\n    tag_156:\n        /* \"hardhat/contracts/ClosedSurveyV2.sol\":5257:5266  uint256 i */\n      0x00\n        /* \"hardhat/contracts/ClosedSurveyV2.sol\":5252:5655  for (uint256 i = 0; i < length; ) {... */\n    tag_159:\n        /* \"hardhat/contracts/ClosedSurveyV2.sol\":5276:5282  length */\n      dup2\n        /* \"hardhat/contracts/ClosedSurveyV2.sol\":5272:5273  i */\n      dup2\n        /* \"hardhat/contracts/ClosedSurveyV2.sol\":5272:5282  i < length */\n      lt\n        /* \"hardhat/contracts/ClosedSurveyV2.sol\":5252:5655  for (uint256 i = 0; i < length; ) {... */\n      iszero\n      tag_160\n      jumpi\n        /* \"hardhat/contracts/ClosedSurveyV2.sol\":5355:5356  0 */\n      0x00\n        /* \"hardhat/contracts/ClosedSurveyV2.sol\":5325:5340  walletAddresses */\n      dup5\n      dup5\n        /* \"hardhat/contracts/ClosedSurveyV2.sol\":5341:5342  i */\n      dup4\n        /* \"hardhat/contracts/ClosedSurveyV2.sol\":5325:5343  walletAddresses[i] */\n      dup2\n      dup2\n      lt\n      tag_163\n      jumpi\n      tag_163\n      tag_164\n      jump\t// in\n    tag_163:\n      swap1\n      pop\n      0x20\n      mul\n      add\n      0x20\n      dup2\n      add\n      swap1\n      tag_165\n      swap2\n      swap1\n      tag_57\n      jump\t// in\n    tag_165:\n      sub(shl(0xa0, 0x01), 0x01)\n        /* \"hardhat/contracts/ClosedSurveyV2.sol\":5325:5357  walletAddresses[i] != address(0) */\n      and\n      sub\n        /* \"hardhat/contracts/ClosedSurveyV2.sol\":5300:5420  require(... */\n      tag_166\n      jumpi\n      mload(0x40)\n      shl(0xe5, 0x461bcd)\n      dup2\n      mstore\n        /* \"#utility.yul\":4334:4336   */\n      0x20\n        /* \"hardhat/contracts/ClosedSurveyV2.sol\":5300:5420  require(... */\n      0x04\n      dup3\n      add\n        /* \"#utility.yul\":4316:4337   */\n      mstore\n        /* \"#utility.yul\":4373:4375   */\n      0x1d\n        /* \"#utility.yul\":4353:4371   */\n      0x24\n      dup3\n      add\n        /* \"#utility.yul\":4346:4376   */\n      mstore\n        /* \"#utility.yul\":4412:4443   */\n      0x4f6e652f6d6f7265207a65726f2061646472657373657320676976656e000000\n        /* \"#utility.yul\":4392:4410   */\n      0x44\n      dup3\n      add\n        /* \"#utility.yul\":4385:4444   */\n      mstore\n        /* \"#utility.yul\":4461:4479   */\n      0x64\n      add\n        /* \"hardhat/contracts/ClosedSurveyV2.sol\":5300:5420  require(... */\n      tag_130\n        /* \"#utility.yul\":4132:4485   */\n      jump\n        /* \"hardhat/contracts/ClosedSurveyV2.sol\":5300:5420  require(... */\n    tag_166:\n        /* \"hardhat/contracts/ClosedSurveyV2.sol\":5461:5486  usersWhitelistedForSurvey */\n      0x03\n        /* \"hardhat/contracts/ClosedSurveyV2.sol\":5461:5506  usersWhitelistedForSurvey[walletAddresses[i]] */\n      0x00\n        /* \"hardhat/contracts/ClosedSurveyV2.sol\":5487:5502  walletAddresses */\n      dup6\n      dup6\n        /* \"hardhat/contracts/ClosedSurveyV2.sol\":5503:5504  i */\n      dup5\n        /* \"hardhat/contracts/ClosedSurveyV2.sol\":5487:5505  walletAddresses[i] */\n      dup2\n      dup2\n      lt\n      tag_170\n      jumpi\n      tag_170\n      tag_164\n      jump\t// in\n    tag_170:\n      swap1\n      pop\n      0x20\n      mul\n      add\n      0x20\n      dup2\n      add\n      swap1\n      tag_171\n      swap2\n      swap1\n      tag_57\n      jump\t// in\n    tag_171:\n      sub(shl(0xa0, 0x01), 0x01)\n        /* \"hardhat/contracts/ClosedSurveyV2.sol\":5461:5506  usersWhitelistedForSurvey[walletAddresses[i]] */\n      and\n      dup2\n      mstore\n      0x20\n      dup2\n      add\n      swap2\n      swap1\n      swap2\n      mstore\n      0x40\n      add\n      0x00\n      keccak256\n      sload\n      0xff\n      and\n        /* \"hardhat/contracts/ClosedSurveyV2.sol\":5460:5506  !usersWhitelistedForSurvey[walletAddresses[i]] */\n      iszero\n        /* \"hardhat/contracts/ClosedSurveyV2.sol\":5435:5584  require(... */\n      tag_172\n      jumpi\n      mload(0x40)\n      shl(0xe5, 0x461bcd)\n      dup2\n      mstore\n        /* \"#utility.yul\":4692:4694   */\n      0x20\n        /* \"hardhat/contracts/ClosedSurveyV2.sol\":5435:5584  require(... */\n      0x04\n      dup3\n      add\n        /* \"#utility.yul\":4674:4695   */\n      mstore\n        /* \"#utility.yul\":4731:4733   */\n      0x2c\n        /* \"#utility.yul\":4711:4729   */\n      0x24\n      dup3\n      add\n        /* \"#utility.yul\":4704:4734   */\n      mstore\n        /* \"#utility.yul\":4770:4804   */\n      0x4f6e652f6d6f726520676976656e2061646472657373657320616c7265616479\n        /* \"#utility.yul\":4750:4768   */\n      0x44\n      dup3\n      add\n        /* \"#utility.yul\":4743:4805   */\n      mstore\n      shl(0xa2, 0x081dda1a5d195b1a5cdd1959)\n        /* \"#utility.yul\":4821:4839   */\n      0x64\n      dup3\n      add\n        /* \"#utility.yul\":4814:4856   */\n      mstore\n        /* \"#utility.yul\":4873:4892   */\n      0x84\n      add\n        /* \"hardhat/contracts/ClosedSurveyV2.sol\":5435:5584  require(... */\n      tag_130\n        /* \"#utility.yul\":4490:4898   */\n      jump\n        /* \"hardhat/contracts/ClosedSurveyV2.sol\":5435:5584  require(... */\n    tag_172:\n        /* \"hardhat/contracts/ClosedSurveyV2.sol\":5627:5630  ++i */\n      0x01\n      add\n        /* \"hardhat/contracts/ClosedSurveyV2.sol\":5252:5655  for (uint256 i = 0; i < length; ) {... */\n      jump(tag_159)\n    tag_160:\n      pop\n        /* \"hardhat/contracts/ClosedSurveyV2.sol\":5670:5679  uint256 i */\n      0x00\n        /* \"hardhat/contracts/ClosedSurveyV2.sol\":5665:5925  for (uint256 i = 0; i < length; ) {... */\n    tag_175:\n        /* \"hardhat/contracts/ClosedSurveyV2.sol\":5689:5695  length */\n      dup2\n        /* \"hardhat/contracts/ClosedSurveyV2.sol\":5685:5686  i */\n      dup2\n        /* \"hardhat/contracts/ClosedSurveyV2.sol\":5685:5695  i < length */\n      lt\n        /* \"hardhat/contracts/ClosedSurveyV2.sol\":5665:5925  for (uint256 i = 0; i < length; ) {... */\n      iszero\n      tag_176\n      jumpi\n        /* \"hardhat/contracts/ClosedSurveyV2.sol\":5761:5765  true */\n      0x01\n        /* \"hardhat/contracts/ClosedSurveyV2.sol\":5713:5738  usersWhitelistedForSurvey */\n      0x03\n        /* \"hardhat/contracts/ClosedSurveyV2.sol\":5713:5758  usersWhitelistedForSurvey[walletAddresses[i]] */\n      0x00\n        /* \"hardhat/contracts/ClosedSurveyV2.sol\":5739:5754  walletAddresses */\n      dup7\n      dup7\n        /* \"hardhat/contracts/ClosedSurveyV2.sol\":5755:5756  i */\n      dup6\n        /* \"hardhat/contracts/ClosedSurveyV2.sol\":5739:5757  walletAddresses[i] */\n      dup2\n      dup2\n      lt\n      tag_179\n      jumpi\n      tag_179\n      tag_164\n      jump\t// in\n    tag_179:\n      swap1\n      pop\n      0x20\n      mul\n      add\n      0x20\n      dup2\n      add\n      swap1\n      tag_180\n      swap2\n      swap1\n      tag_57\n      jump\t// in\n    tag_180:\n      sub(shl(0xa0, 0x01), 0x01)\n        /* \"hardhat/contracts/ClosedSurveyV2.sol\":5713:5758  usersWhitelistedForSurvey[walletAddresses[i]] */\n      and\n      dup2\n      mstore\n      0x20\n      dup2\n      add\n      swap2\n      swap1\n      swap2\n      mstore\n      0x40\n      add\n      0x00\n      keccak256\n        /* \"hardhat/contracts/ClosedSurveyV2.sol\":5713:5765  usersWhitelistedForSurvey[walletAddresses[i]] = true */\n      dup1\n      sload\n      not(0xff)\n      and\n      swap2\n      iszero\n      iszero\n      swap2\n      swap1\n      swap2\n      or\n      swap1\n      sstore\n        /* \"hardhat/contracts/ClosedSurveyV2.sol\":5809:5841  numberOfWhitelistedUserAddresses */\n      0x08\n        /* \"hardhat/contracts/ClosedSurveyV2.sol\":5807:5841  ++numberOfWhitelistedUserAddresses */\n      dup1\n      sload\n      0x01\n      swap1\n      dup2\n      add\n      swap1\n      swap2\n      sstore\n        /* \"hardhat/contracts/ClosedSurveyV2.sol\":5897:5900  ++i */\n      add\n        /* \"hardhat/contracts/ClosedSurveyV2.sol\":5665:5925  for (uint256 i = 0; i < length; ) {... */\n      jump(tag_175)\n    tag_176:\n      pop\n        /* \"hardhat/contracts/ClosedSurveyV2.sol\":5940:5989  MultipleUserAddressesWhitelisted(walletAddresses) */\n      0x9a9f2a64a3b0b4774da60129aa707715e049cb95062f7acaaffc07ddc244c1cc\n        /* \"hardhat/contracts/ClosedSurveyV2.sol\":5973:5988  walletAddresses */\n      dup4\n      dup4\n        /* \"hardhat/contracts/ClosedSurveyV2.sol\":5940:5989  MultipleUserAddressesWhitelisted(walletAddresses) */\n      mload(0x40)\n      tag_132\n      swap3\n      swap2\n      swap1\n      tag_182\n      jump\t// in\n        /* \"hardhat/contracts/ClosedSurveyV2.sol\":6002:6989  function blacklistMultipleWhitelistedUserAddresses(... */\n    tag_85:\n        /* \"@openzeppelin/contracts/access/Ownable.sol\":1531:1544  _checkOwner() */\n      tag_184\n        /* \"@openzeppelin/contracts/access/Ownable.sol\":1531:1542  _checkOwner */\n      tag_122\n        /* \"@openzeppelin/contracts/access/Ownable.sol\":1531:1544  _checkOwner() */\n      jump\t// in\n    tag_184:\n        /* \"hardhat/contracts/ClosedSurveyV2.sol\":6149:6164  walletAddresses */\n      dup1\n        /* \"hardhat/contracts/ClosedSurveyV2.sol\":6190:6200  length > 0 */\n      dup1\n        /* \"hardhat/contracts/ClosedSurveyV2.sol\":6182:6224  require(length > 0, \"No addresses passed\") */\n      tag_186\n      jumpi\n      mload(0x40)\n      shl(0xe5, 0x461bcd)\n      dup2\n      mstore\n      0x04\n      add\n      tag_130\n      swap1\n      tag_158\n      jump\t// in\n    tag_186:\n        /* \"hardhat/contracts/ClosedSurveyV2.sol\":6240:6249  uint256 i */\n      0x00\n        /* \"hardhat/contracts/ClosedSurveyV2.sol\":6235:6637  for (uint256 i = 0; i < length; ) {... */\n    tag_188:\n        /* \"hardhat/contracts/ClosedSurveyV2.sol\":6259:6265  length */\n      dup2\n        /* \"hardhat/contracts/ClosedSurveyV2.sol\":6255:6256  i */\n      dup2\n        /* \"hardhat/contracts/ClosedSurveyV2.sol\":6255:6265  i < length */\n      lt\n        /* \"hardhat/contracts/ClosedSurveyV2.sol\":6235:6637  for (uint256 i = 0; i < length; ) {... */\n      iszero\n      tag_189\n      jumpi\n        /* \"hardhat/contracts/ClosedSurveyV2.sol\":6338:6339  0 */\n      0x00\n        /* \"hardhat/contracts/ClosedSurveyV2.sol\":6308:6323  walletAddresses */\n      dup5\n      dup5\n        /* \"hardhat/contracts/ClosedSurveyV2.sol\":6324:6325  i */\n      dup4\n        /* \"hardhat/contracts/ClosedSurveyV2.sol\":6308:6326  walletAddresses[i] */\n      dup2\n      dup2\n      lt\n      tag_192\n      jumpi\n      tag_192\n      tag_164\n      jump\t// in\n    tag_192:\n      swap1\n      pop\n      0x20\n      mul\n      add\n      0x20\n      dup2\n      add\n      swap1\n      tag_193\n      swap2\n      swap1\n      tag_57\n      jump\t// in\n    tag_193:\n      sub(shl(0xa0, 0x01), 0x01)\n        /* \"hardhat/contracts/ClosedSurveyV2.sol\":6308:6340  walletAddresses[i] != address(0) */\n      and\n      sub\n        /* \"hardhat/contracts/ClosedSurveyV2.sol\":6283:6403  require(... */\n      tag_194\n      jumpi\n      mload(0x40)\n      shl(0xe5, 0x461bcd)\n      dup2\n      mstore\n        /* \"#utility.yul\":4334:4336   */\n      0x20\n        /* \"hardhat/contracts/ClosedSurveyV2.sol\":6283:6403  require(... */\n      0x04\n      dup3\n      add\n        /* \"#utility.yul\":4316:4337   */\n      mstore\n        /* \"#utility.yul\":4373:4375   */\n      0x1d\n        /* \"#utility.yul\":4353:4371   */\n      0x24\n      dup3\n      add\n        /* \"#utility.yul\":4346:4376   */\n      mstore\n        /* \"#utility.yul\":4412:4443   */\n      0x4f6e652f6d6f7265207a65726f2061646472657373657320676976656e000000\n        /* \"#utility.yul\":4392:4410   */\n      0x44\n      dup3\n      add\n        /* \"#utility.yul\":4385:4444   */\n      mstore\n        /* \"#utility.yul\":4461:4479   */\n      0x64\n      add\n        /* \"hardhat/contracts/ClosedSurveyV2.sol\":6283:6403  require(... */\n      tag_130\n        /* \"#utility.yul\":4132:4485   */\n      jump\n        /* \"hardhat/contracts/ClosedSurveyV2.sol\":6283:6403  require(... */\n    tag_194:\n        /* \"hardhat/contracts/ClosedSurveyV2.sol\":6443:6468  usersWhitelistedForSurvey */\n      0x03\n        /* \"hardhat/contracts/ClosedSurveyV2.sol\":6443:6488  usersWhitelistedForSurvey[walletAddresses[i]] */\n      0x00\n        /* \"hardhat/contracts/ClosedSurveyV2.sol\":6469:6484  walletAddresses */\n      dup6\n      dup6\n        /* \"hardhat/contracts/ClosedSurveyV2.sol\":6485:6486  i */\n      dup5\n        /* \"hardhat/contracts/ClosedSurveyV2.sol\":6469:6487  walletAddresses[i] */\n      dup2\n      dup2\n      lt\n      tag_197\n      jumpi\n      tag_197\n      tag_164\n      jump\t// in\n    tag_197:\n      swap1\n      pop\n      0x20\n      mul\n      add\n      0x20\n      dup2\n      add\n      swap1\n      tag_198\n      swap2\n      swap1\n      tag_57\n      jump\t// in\n    tag_198:\n      sub(shl(0xa0, 0x01), 0x01)\n        /* \"hardhat/contracts/ClosedSurveyV2.sol\":6443:6488  usersWhitelistedForSurvey[walletAddresses[i]] */\n      and\n      dup2\n      mstore\n      0x20\n      dup2\n      add\n      swap2\n      swap1\n      swap2\n      mstore\n      0x40\n      add\n      0x00\n      keccak256\n      sload\n      0xff\n      and\n        /* \"hardhat/contracts/ClosedSurveyV2.sol\":6418:6566  require(... */\n      tag_199\n      jumpi\n      mload(0x40)\n      shl(0xe5, 0x461bcd)\n      dup2\n      mstore\n        /* \"#utility.yul\":5725:5727   */\n      0x20\n        /* \"hardhat/contracts/ClosedSurveyV2.sol\":6418:6566  require(... */\n      0x04\n      dup3\n      add\n        /* \"#utility.yul\":5707:5728   */\n      mstore\n        /* \"#utility.yul\":5764:5766   */\n      0x2c\n        /* \"#utility.yul\":5744:5762   */\n      0x24\n      dup3\n      add\n        /* \"#utility.yul\":5737:5767   */\n      mstore\n        /* \"#utility.yul\":5803:5837   */\n      0x4f6e652f6d6f726520676976656e2061646472657373657320616c7265616479\n        /* \"#utility.yul\":5783:5801   */\n      0x44\n      dup3\n      add\n        /* \"#utility.yul\":5776:5838   */\n      mstore\n      shl(0xa2, 0x08189b1858dadb1a5cdd1959)\n        /* \"#utility.yul\":5854:5872   */\n      0x64\n      dup3\n      add\n        /* \"#utility.yul\":5847:5889   */\n      mstore\n        /* \"#utility.yul\":5906:5925   */\n      0x84\n      add\n        /* \"hardhat/contracts/ClosedSurveyV2.sol\":6418:6566  require(... */\n      tag_130\n        /* \"#utility.yul\":5523:5931   */\n      jump\n        /* \"hardhat/contracts/ClosedSurveyV2.sol\":6418:6566  require(... */\n    tag_199:\n        /* \"hardhat/contracts/ClosedSurveyV2.sol\":6609:6612  ++i */\n      0x01\n      add\n        /* \"hardhat/contracts/ClosedSurveyV2.sol\":6235:6637  for (uint256 i = 0; i < length; ) {... */\n      jump(tag_188)\n    tag_189:\n      pop\n        /* \"hardhat/contracts/ClosedSurveyV2.sol\":6652:6661  uint256 i */\n      0x00\n        /* \"hardhat/contracts/ClosedSurveyV2.sol\":6647:6908  for (uint256 i = 0; i < length; ) {... */\n    tag_202:\n        /* \"hardhat/contracts/ClosedSurveyV2.sol\":6671:6677  length */\n      dup2\n        /* \"hardhat/contracts/ClosedSurveyV2.sol\":6667:6668  i */\n      dup2\n        /* \"hardhat/contracts/ClosedSurveyV2.sol\":6667:6677  i < length */\n      lt\n        /* \"hardhat/contracts/ClosedSurveyV2.sol\":6647:6908  for (uint256 i = 0; i < length; ) {... */\n      iszero\n      tag_203\n      jumpi\n        /* \"hardhat/contracts/ClosedSurveyV2.sol\":6743:6748  false */\n      0x00\n        /* \"hardhat/contracts/ClosedSurveyV2.sol\":6695:6720  usersWhitelistedForSurvey */\n      0x03\n        /* \"hardhat/contracts/ClosedSurveyV2.sol\":6695:6740  usersWhitelistedForSurvey[walletAddresses[i]] */\n      0x00\n        /* \"hardhat/contracts/ClosedSurveyV2.sol\":6721:6736  walletAddresses */\n      dup7\n      dup7\n        /* \"hardhat/contracts/ClosedSurveyV2.sol\":6737:6738  i */\n      dup6\n        /* \"hardhat/contracts/ClosedSurveyV2.sol\":6721:6739  walletAddresses[i] */\n      dup2\n      dup2\n      lt\n      tag_206\n      jumpi\n      tag_206\n      tag_164\n      jump\t// in\n    tag_206:\n      swap1\n      pop\n      0x20\n      mul\n      add\n      0x20\n      dup2\n      add\n      swap1\n      tag_207\n      swap2\n      swap1\n      tag_57\n      jump\t// in\n    tag_207:\n      sub(shl(0xa0, 0x01), 0x01)\n        /* \"hardhat/contracts/ClosedSurveyV2.sol\":6695:6740  usersWhitelistedForSurvey[walletAddresses[i]] */\n      and\n      dup2\n      mstore\n      0x20\n      dup2\n      add\n      swap2\n      swap1\n      swap2\n      mstore\n      0x40\n      add\n      0x00\n      keccak256\n        /* \"hardhat/contracts/ClosedSurveyV2.sol\":6695:6748  usersWhitelistedForSurvey[walletAddresses[i]] = false */\n      dup1\n      sload\n      not(0xff)\n      and\n      swap2\n      iszero\n      iszero\n      swap2\n      swap1\n      swap2\n      or\n      swap1\n      sstore\n        /* \"hardhat/contracts/ClosedSurveyV2.sol\":6792:6824  numberOfWhitelistedUserAddresses */\n      0x08\n        /* \"hardhat/contracts/ClosedSurveyV2.sol\":6790:6824  --numberOfWhitelistedUserAddresses */\n      dup1\n      sload\n      not(0x00)\n      add\n      swap1\n      sstore\n      0x01\n        /* \"hardhat/contracts/ClosedSurveyV2.sol\":6880:6883  ++i */\n      add\n        /* \"hardhat/contracts/ClosedSurveyV2.sol\":6647:6908  for (uint256 i = 0; i < length; ) {... */\n      jump(tag_202)\n    tag_203:\n      pop\n        /* \"hardhat/contracts/ClosedSurveyV2.sol\":6922:6982  MultipleWhitelistedUserAddressesBlacklisted(walletAddresses) */\n      0xd68b41369d54faca53e699320360840db6e0e2e175d3974eb304fd18713d916b\n        /* \"hardhat/contracts/ClosedSurveyV2.sol\":6966:6981  walletAddresses */\n      dup4\n      dup4\n        /* \"hardhat/contracts/ClosedSurveyV2.sol\":6922:6982  MultipleWhitelistedUserAddressesBlacklisted(walletAddresses) */\n      mload(0x40)\n      tag_132\n      swap3\n      swap2\n      swap1\n      tag_182\n      jump\t// in\n        /* \"hardhat/contracts/ClosedSurveyV2.sol\":6995:7542  function processRewardClaimByParticipant(address walletAddress)... */\n    tag_88:\n        /* \"@openzeppelin/contracts/utils/Pausable.sol\":1474:1493  _requireNotPaused() */\n      tag_210\n        /* \"@openzeppelin/contracts/utils/Pausable.sol\":1474:1491  _requireNotPaused */\n      tag_211\n        /* \"@openzeppelin/contracts/utils/Pausable.sol\":1474:1493  _requireNotPaused() */\n      jump\t// in\n    tag_210:\n        /* \"@openzeppelin/contracts/utils/ReentrancyGuard.sol\":2500:2521  _nonReentrantBefore() */\n      tag_213\n        /* \"@openzeppelin/contracts/utils/ReentrancyGuard.sol\":2500:2519  _nonReentrantBefore */\n      tag_214\n        /* \"@openzeppelin/contracts/utils/ReentrancyGuard.sol\":2500:2521  _nonReentrantBefore() */\n      jump\t// in\n    tag_213:\n        /* \"hardhat/contracts/ClosedSurveyV2.sol\":2760:2791  rewardAmountPerParticipantInWei */\n      sload(0x05)\n        /* \"hardhat/contracts/ClosedSurveyV2.sol\":2727:2756  cUSD.balanceOf(address(this)) */\n      mload(0x40)\n      shl(0xe0, 0x70a08231)\n      dup2\n      mstore\n        /* \"hardhat/contracts/ClosedSurveyV2.sol\":2750:2754  this */\n      address\n        /* \"hardhat/contracts/ClosedSurveyV2.sol\":2727:2756  cUSD.balanceOf(address(this)) */\n      0x04\n      dup3\n      add\n        /* \"#utility.yul\":182:233   */\n      mstore\n        /* \"hardhat/contracts/ClosedSurveyV2.sol\":2727:2731  cUSD */\n      immutable(\"0x4ce4dab4689da140a0c12de1a6af6b8f679594aeb723205f513e052d27f5b26f\")\n      sub(shl(0xa0, 0x01), 0x01)\n        /* \"hardhat/contracts/ClosedSurveyV2.sol\":2727:2741  cUSD.balanceOf */\n      and\n      swap1\n      0x70a08231\n      swap1\n        /* \"#utility.yul\":155:173   */\n      0x24\n      add\n        /* \"hardhat/contracts/ClosedSurveyV2.sol\":2727:2756  cUSD.balanceOf(address(this)) */\n      0x20\n      mload(0x40)\n      dup1\n      dup4\n      sub\n      dup2\n      dup7\n      gas\n      staticcall\n      iszero\n      dup1\n      iszero\n      tag_218\n      jumpi\n      returndatasize\n      0x00\n      dup1\n      returndatacopy\n      revert(0x00, returndatasize)\n    tag_218:\n      pop\n      pop\n      pop\n      pop\n      mload(0x40)\n      returndatasize\n      not(0x1f)\n      0x1f\n      dup3\n      add\n      and\n      dup3\n      add\n      dup1\n      0x40\n      mstore\n      pop\n      dup2\n      add\n      swap1\n      tag_219\n      swap2\n      swap1\n      tag_220\n      jump\t// in\n    tag_219:\n        /* \"hardhat/contracts/ClosedSurveyV2.sol\":2727:2791  cUSD.balanceOf(address(this)) >= rewardAmountPerParticipantInWei */\n      lt\n      iszero\n        /* \"hardhat/contracts/ClosedSurveyV2.sol\":2706:2851  require(... */\n      tag_221\n      jumpi\n      mload(0x40)\n      shl(0xe5, 0x461bcd)\n      dup2\n      mstore\n        /* \"#utility.yul\":6327:6329   */\n      0x20\n        /* \"hardhat/contracts/ClosedSurveyV2.sol\":2706:2851  require(... */\n      0x04\n      dup3\n      add\n        /* \"#utility.yul\":6309:6330   */\n      mstore\n        /* \"#utility.yul\":6366:6368   */\n      0x22\n        /* \"#utility.yul\":6346:6364   */\n      0x24\n      dup3\n      add\n        /* \"#utility.yul\":6339:6369   */\n      mstore\n        /* \"#utility.yul\":6405:6439   */\n      0x436f6e747261637420646f6573206e6f74206861766520656e6f756768206355\n        /* \"#utility.yul\":6385:6403   */\n      0x44\n      dup3\n      add\n        /* \"#utility.yul\":6378:6440   */\n      mstore\n      shl(0xf2, 0x14d1)\n        /* \"#utility.yul\":6456:6474   */\n      0x64\n      dup3\n      add\n        /* \"#utility.yul\":6449:6481   */\n      mstore\n        /* \"#utility.yul\":6498:6517   */\n      0x84\n      add\n        /* \"hardhat/contracts/ClosedSurveyV2.sol\":2706:2851  require(... */\n      tag_130\n        /* \"#utility.yul\":6125:6523   */\n      jump\n        /* \"hardhat/contracts/ClosedSurveyV2.sol\":2706:2851  require(... */\n    tag_221:\n        /* \"hardhat/contracts/ClosedSurveyV2.sol\":3171:3197  targetNumberOfParticipants */\n      sload(0x06)\n        /* \"hardhat/contracts/ClosedSurveyV2.sol\":3140:3168  numberOfRewardedParticipants */\n      sload(0x07)\n        /* \"hardhat/contracts/ClosedSurveyV2.sol\":3140:3197  numberOfRewardedParticipants < targetNumberOfParticipants */\n      lt\n        /* \"hardhat/contracts/ClosedSurveyV2.sol\":3119:3258  require(... */\n      tag_225\n      jumpi\n      mload(0x40)\n      shl(0xe5, 0x461bcd)\n      dup2\n      mstore\n        /* \"#utility.yul\":6730:6732   */\n      0x20\n        /* \"hardhat/contracts/ClosedSurveyV2.sol\":3119:3258  require(... */\n      0x04\n      dup3\n      add\n        /* \"#utility.yul\":6712:6733   */\n      mstore\n        /* \"#utility.yul\":6769:6771   */\n      0x23\n        /* \"#utility.yul\":6749:6767   */\n      0x24\n      dup3\n      add\n        /* \"#utility.yul\":6742:6772   */\n      mstore\n        /* \"#utility.yul\":6808:6842   */\n      0x416c6c207061727469636970616e74732068617665206265656e207265776172\n        /* \"#utility.yul\":6788:6806   */\n      0x44\n      dup3\n      add\n        /* \"#utility.yul\":6781:6843   */\n      mstore\n      shl(0xea, 0x191959)\n        /* \"#utility.yul\":6859:6877   */\n      0x64\n      dup3\n      add\n        /* \"#utility.yul\":6852:6885   */\n      mstore\n        /* \"#utility.yul\":6902:6921   */\n      0x84\n      add\n        /* \"hardhat/contracts/ClosedSurveyV2.sol\":3119:3258  require(... */\n      tag_130\n        /* \"#utility.yul\":6528:6927   */\n      jump\n        /* \"hardhat/contracts/ClosedSurveyV2.sol\":3119:3258  require(... */\n    tag_225:\n        /* \"hardhat/contracts/ClosedSurveyV2.sol\":7229:7242  walletAddress */\n      dup1\n        /* \"hardhat/contracts/ClosedSurveyV2.sol\":2584:2594  msg.sender */\n      caller\n      sub(shl(0xa0, 0x01), 0x01)\n        /* \"hardhat/contracts/ClosedSurveyV2.sol\":2584:2611  msg.sender == messageSender */\n      dup3\n      and\n      eq\n        /* \"hardhat/contracts/ClosedSurveyV2.sol\":2576:2633  require(msg.sender == messageSender, \"Only valid sender\") */\n      tag_229\n      jumpi\n      mload(0x40)\n      shl(0xe5, 0x461bcd)\n      dup2\n      mstore\n        /* \"#utility.yul\":7134:7136   */\n      0x20\n        /* \"hardhat/contracts/ClosedSurveyV2.sol\":2576:2633  require(msg.sender == messageSender, \"Only valid sender\") */\n      0x04\n      dup3\n      add\n        /* \"#utility.yul\":7116:7137   */\n      mstore\n        /* \"#utility.yul\":7173:7175   */\n      0x11\n        /* \"#utility.yul\":7153:7171   */\n      0x24\n      dup3\n      add\n        /* \"#utility.yul\":7146:7176   */\n      mstore\n      shl(0x79, 0x27b7363c903b30b634b21039b2b73232b9)\n        /* \"#utility.yul\":7192:7210   */\n      0x44\n      dup3\n      add\n        /* \"#utility.yul\":7185:7232   */\n      mstore\n        /* \"#utility.yul\":7249:7267   */\n      0x64\n      add\n        /* \"hardhat/contracts/ClosedSurveyV2.sol\":2576:2633  require(msg.sender == messageSender, \"Only valid sender\") */\n      tag_130\n        /* \"#utility.yul\":6932:7273   */\n      jump\n        /* \"hardhat/contracts/ClosedSurveyV2.sol\":2576:2633  require(msg.sender == messageSender, \"Only valid sender\") */\n    tag_229:\n      sub(shl(0xa0, 0x01), 0x01)\n        /* \"hardhat/contracts/ClosedSurveyV2.sol\":1787:1827  usersWhitelistedForSurvey[walletAddress] */\n      dup3\n      and\n      0x00\n      swap1\n      dup2\n      mstore\n        /* \"hardhat/contracts/ClosedSurveyV2.sol\":1787:1812  usersWhitelistedForSurvey */\n      0x03\n        /* \"hardhat/contracts/ClosedSurveyV2.sol\":1787:1827  usersWhitelistedForSurvey[walletAddress] */\n      0x20\n      mstore\n      0x40\n      swap1\n      keccak256\n      sload\n        /* \"hardhat/contracts/ClosedSurveyV2.sol\":7275:7288  walletAddress */\n      dup3\n      swap1\n        /* \"hardhat/contracts/ClosedSurveyV2.sol\":1787:1827  usersWhitelistedForSurvey[walletAddress] */\n      0xff\n      and\n        /* \"hardhat/contracts/ClosedSurveyV2.sol\":1766:1877  require(... */\n      tag_233\n      jumpi\n      mload(0x40)\n      shl(0xe5, 0x461bcd)\n      dup2\n      mstore\n        /* \"#utility.yul\":7480:7482   */\n      0x20\n        /* \"hardhat/contracts/ClosedSurveyV2.sol\":1766:1877  require(... */\n      0x04\n      dup3\n      add\n        /* \"#utility.yul\":7462:7483   */\n      mstore\n        /* \"#utility.yul\":7519:7521   */\n      0x18\n        /* \"#utility.yul\":7499:7517   */\n      0x24\n      dup3\n      add\n        /* \"#utility.yul\":7492:7522   */\n      mstore\n        /* \"#utility.yul\":7558:7584   */\n      0x4f6e6c792077686974656c697374656420616464726573730000000000000000\n        /* \"#utility.yul\":7538:7556   */\n      0x44\n      dup3\n      add\n        /* \"#utility.yul\":7531:7585   */\n      mstore\n        /* \"#utility.yul\":7602:7620   */\n      0x64\n      add\n        /* \"hardhat/contracts/ClosedSurveyV2.sol\":1766:1877  require(... */\n      tag_130\n        /* \"#utility.yul\":7278:7626   */\n      jump\n        /* \"hardhat/contracts/ClosedSurveyV2.sol\":1766:1877  require(... */\n    tag_233:\n      sub(shl(0xa0, 0x01), 0x01)\n        /* \"hardhat/contracts/ClosedSurveyV2.sol\":2381:2440  participantsWhoHaveClaimedRewards[participantWalletAddress] */\n      dup4\n      and\n      0x00\n      swap1\n      dup2\n      mstore\n        /* \"hardhat/contracts/ClosedSurveyV2.sol\":2381:2414  participantsWhoHaveClaimedRewards */\n      0x04\n        /* \"hardhat/contracts/ClosedSurveyV2.sol\":2381:2440  participantsWhoHaveClaimedRewards[participantWalletAddress] */\n      0x20\n      mstore\n      0x40\n      swap1\n      keccak256\n      sload\n        /* \"hardhat/contracts/ClosedSurveyV2.sol\":7324:7337  walletAddress */\n      dup4\n      swap1\n        /* \"hardhat/contracts/ClosedSurveyV2.sol\":2381:2440  participantsWhoHaveClaimedRewards[participantWalletAddress] */\n      0xff\n      and\n        /* \"hardhat/contracts/ClosedSurveyV2.sol\":2380:2440  !participantsWhoHaveClaimedRewards[participantWalletAddress] */\n      iszero\n        /* \"hardhat/contracts/ClosedSurveyV2.sol\":2359:2494  require(... */\n      tag_237\n      jumpi\n      mload(0x40)\n      shl(0xe5, 0x461bcd)\n      dup2\n      mstore\n        /* \"#utility.yul\":7833:7835   */\n      0x20\n        /* \"hardhat/contracts/ClosedSurveyV2.sol\":2359:2494  require(... */\n      0x04\n      dup3\n      add\n        /* \"#utility.yul\":7815:7836   */\n      mstore\n        /* \"#utility.yul\":7872:7874   */\n      0x1c\n        /* \"#utility.yul\":7852:7870   */\n      0x24\n      dup3\n      add\n        /* \"#utility.yul\":7845:7875   */\n      mstore\n        /* \"#utility.yul\":7911:7941   */\n      0x5061727469636970616e7420616c726561647920726577617264656400000000\n        /* \"#utility.yul\":7891:7909   */\n      0x44\n      dup3\n      add\n        /* \"#utility.yul\":7884:7942   */\n      mstore\n        /* \"#utility.yul\":7959:7977   */\n      0x64\n      add\n        /* \"hardhat/contracts/ClosedSurveyV2.sol\":2359:2494  require(... */\n      tag_130\n        /* \"#utility.yul\":7631:7983   */\n      jump\n        /* \"hardhat/contracts/ClosedSurveyV2.sol\":2359:2494  require(... */\n    tag_237:\n        /* \"hardhat/contracts/ClosedSurveyV2.sol\":7353:7383  bool rewardTransferIsSuccesful */\n      0x00\n        /* \"hardhat/contracts/ClosedSurveyV2.sol\":7386:7418  rewardParticipant(walletAddress) */\n      tag_241\n        /* \"hardhat/contracts/ClosedSurveyV2.sol\":7404:7417  walletAddress */\n      dup6\n        /* \"hardhat/contracts/ClosedSurveyV2.sol\":7386:7403  rewardParticipant */\n      tag_242\n        /* \"hardhat/contracts/ClosedSurveyV2.sol\":7386:7418  rewardParticipant(walletAddress) */\n      jump\t// in\n    tag_241:\n        /* \"hardhat/contracts/ClosedSurveyV2.sol\":7353:7418  bool rewardTransferIsSuccesful = rewardParticipant(walletAddress) */\n      swap1\n      pop\n        /* \"hardhat/contracts/ClosedSurveyV2.sol\":7433:7458  rewardTransferIsSuccesful */\n      dup1\n        /* \"hardhat/contracts/ClosedSurveyV2.sol\":7429:7536  if (rewardTransferIsSuccesful) {... */\n      iszero\n      tag_244\n      jumpi\n        /* \"hardhat/contracts/ClosedSurveyV2.sol\":7474:7525  markParticipantAsHavingClaimedReward(walletAddress) */\n      tag_244\n        /* \"hardhat/contracts/ClosedSurveyV2.sol\":7511:7524  walletAddress */\n      dup6\n        /* \"hardhat/contracts/ClosedSurveyV2.sol\":7474:7510  markParticipantAsHavingClaimedReward */\n      tag_245\n        /* \"hardhat/contracts/ClosedSurveyV2.sol\":7474:7525  markParticipantAsHavingClaimedReward(walletAddress) */\n      jump\t// in\n    tag_244:\n        /* \"hardhat/contracts/ClosedSurveyV2.sol\":7343:7542  {... */\n      pop\n        /* \"hardhat/contracts/ClosedSurveyV2.sol\":1887:1888  _ */\n      pop\n        /* \"hardhat/contracts/ClosedSurveyV2.sol\":2643:2644  _ */\n      pop\n        /* \"hardhat/contracts/ClosedSurveyV2.sol\":3268:3269  _ */\n      pop\n        /* \"@openzeppelin/contracts/utils/ReentrancyGuard.sol\":2542:2562  _nonReentrantAfter() */\n      tag_246\n        /* \"@openzeppelin/contracts/utils/ReentrancyGuard.sol\":1857:1858  1 */\n      0x01\n        /* \"@openzeppelin/contracts/utils/ReentrancyGuard.sol\":3068:3089  _status = NOT_ENTERED */\n      dup1\n      sstore\n        /* \"@openzeppelin/contracts/utils/ReentrancyGuard.sol\":2888:3096  function _nonReentrantAfter() private {... */\n      jump\n        /* \"@openzeppelin/contracts/utils/ReentrancyGuard.sol\":2542:2562  _nonReentrantAfter() */\n    tag_246:\n        /* \"hardhat/contracts/ClosedSurveyV2.sol\":6995:7542  function processRewardClaimByParticipant(address walletAddress)... */\n      pop\n      jump\t// out\n        /* \"hardhat/contracts/ClosedSurveyV2.sol\":10134:11083  function getWhitelistedAddressesFromRegisteredAddresses(... */\n    tag_91:\n        /* \"hardhat/contracts/ClosedSurveyV2.sol\":10267:10283  address[] memory */\n      0x60\n        /* \"hardhat/contracts/ClosedSurveyV2.sol\":10312:10331  registeredAddresses */\n      dup2\n        /* \"hardhat/contracts/ClosedSurveyV2.sol\":10295:10309  uint256 length */\n      0x00\n        /* \"hardhat/contracts/ClosedSurveyV2.sol\":10357:10368  length != 0 */\n      dup2\n      swap1\n      sub\n        /* \"hardhat/contracts/ClosedSurveyV2.sol\":10349:10392  require(length != 0, \"No addresses passed\") */\n      tag_249\n      jumpi\n      mload(0x40)\n      shl(0xe5, 0x461bcd)\n      dup2\n      mstore\n      0x04\n      add\n      tag_130\n      swap1\n      tag_158\n      jump\t// in\n    tag_249:\n        /* \"hardhat/contracts/ClosedSurveyV2.sol\":10402:10426  uint256 whitelistedCount */\n      0x00\n        /* \"hardhat/contracts/ClosedSurveyV2.sol\":10445:10454  uint256 i */\n      dup1\n        /* \"hardhat/contracts/ClosedSurveyV2.sol\":10440:10663  for (uint256 i = 0; i < length; ) {... */\n    tag_251:\n        /* \"hardhat/contracts/ClosedSurveyV2.sol\":10464:10470  length */\n      dup3\n        /* \"hardhat/contracts/ClosedSurveyV2.sol\":10460:10461  i */\n      dup2\n        /* \"hardhat/contracts/ClosedSurveyV2.sol\":10460:10470  i < length */\n      lt\n        /* \"hardhat/contracts/ClosedSurveyV2.sol\":10440:10663  for (uint256 i = 0; i < length; ) {... */\n      iszero\n      tag_252\n      jumpi\n        /* \"hardhat/contracts/ClosedSurveyV2.sol\":10492:10517  usersWhitelistedForSurvey */\n      0x03\n        /* \"hardhat/contracts/ClosedSurveyV2.sol\":10492:10541  usersWhitelistedForSurvey[registeredAddresses[i]] */\n      0x00\n        /* \"hardhat/contracts/ClosedSurveyV2.sol\":10518:10537  registeredAddresses */\n      dup8\n      dup8\n        /* \"hardhat/contracts/ClosedSurveyV2.sol\":10538:10539  i */\n      dup5\n        /* \"hardhat/contracts/ClosedSurveyV2.sol\":10518:10540  registeredAddresses[i] */\n      dup2\n      dup2\n      lt\n      tag_255\n      jumpi\n      tag_255\n      tag_164\n      jump\t// in\n    tag_255:\n      swap1\n      pop\n      0x20\n      mul\n      add\n      0x20\n      dup2\n      add\n      swap1\n      tag_256\n      swap2\n      swap1\n      tag_57\n      jump\t// in\n    tag_256:\n      sub(shl(0xa0, 0x01), 0x01)\n        /* \"hardhat/contracts/ClosedSurveyV2.sol\":10492:10541  usersWhitelistedForSurvey[registeredAddresses[i]] */\n      and\n      dup2\n      mstore\n      0x20\n      dup2\n      add\n      swap2\n      swap1\n      swap2\n      mstore\n      0x40\n      add\n      0x00\n      keccak256\n      sload\n      0xff\n      and\n        /* \"hardhat/contracts/ClosedSurveyV2.sol\":10488:10594  if (usersWhitelistedForSurvey[registeredAddresses[i]]) {... */\n      iszero\n      tag_257\n      jumpi\n        /* \"hardhat/contracts/ClosedSurveyV2.sol\":10561:10579  whitelistedCount++ */\n      dup2\n      tag_258\n      dup2\n      tag_259\n      jump\t// in\n    tag_258:\n      swap3\n      pop\n      pop\n        /* \"hardhat/contracts/ClosedSurveyV2.sol\":10488:10594  if (usersWhitelistedForSurvey[registeredAddresses[i]]) {... */\n    tag_257:\n        /* \"hardhat/contracts/ClosedSurveyV2.sol\":10635:10638  ++i */\n      0x01\n      add\n        /* \"hardhat/contracts/ClosedSurveyV2.sol\":10440:10663  for (uint256 i = 0; i < length; ) {... */\n      jump(tag_251)\n    tag_252:\n      pop\n        /* \"hardhat/contracts/ClosedSurveyV2.sol\":10673:10710  address[] memory whitelistedAddresses */\n      0x00\n        /* \"hardhat/contracts/ClosedSurveyV2.sol\":10727:10743  whitelistedCount */\n      dup2\n        /* \"hardhat/contracts/ClosedSurveyV2.sol\":10713:10744  new address[](whitelistedCount) */\n      0xffffffffffffffff\n      dup2\n      gt\n      iszero\n      tag_261\n      jumpi\n      tag_261\n      tag_262\n      jump\t// in\n    tag_261:\n      mload(0x40)\n      swap1\n      dup1\n      dup3\n      mstore\n      dup1\n      0x20\n      mul\n      0x20\n      add\n      dup3\n      add\n      0x40\n      mstore\n      dup1\n      iszero\n      tag_263\n      jumpi\n      dup2\n      0x20\n      add\n      0x20\n      dup3\n      mul\n      dup1\n      calldatasize\n      dup4\n      calldatacopy\n      add\n      swap1\n      pop\n    tag_263:\n      pop\n        /* \"hardhat/contracts/ClosedSurveyV2.sol\":10673:10744  address[] memory whitelistedAddresses = new address[](whitelistedCount) */\n      swap1\n      pop\n        /* \"hardhat/contracts/ClosedSurveyV2.sol\":10754:10767  uint256 index */\n      0x00\n        /* \"hardhat/contracts/ClosedSurveyV2.sol\":10786:10795  uint256 i */\n      dup1\n        /* \"hardhat/contracts/ClosedSurveyV2.sol\":10781:11040  for (uint256 i = 0; i < length; ) {... */\n    tag_264:\n        /* \"hardhat/contracts/ClosedSurveyV2.sol\":10805:10811  length */\n      dup5\n        /* \"hardhat/contracts/ClosedSurveyV2.sol\":10801:10802  i */\n      dup2\n        /* \"hardhat/contracts/ClosedSurveyV2.sol\":10801:10811  i < length */\n      lt\n        /* \"hardhat/contracts/ClosedSurveyV2.sol\":10781:11040  for (uint256 i = 0; i < length; ) {... */\n      iszero\n      tag_265\n      jumpi\n        /* \"hardhat/contracts/ClosedSurveyV2.sol\":10833:10858  usersWhitelistedForSurvey */\n      0x03\n        /* \"hardhat/contracts/ClosedSurveyV2.sol\":10833:10882  usersWhitelistedForSurvey[registeredAddresses[i]] */\n      0x00\n        /* \"hardhat/contracts/ClosedSurveyV2.sol\":10859:10878  registeredAddresses */\n      dup10\n      dup10\n        /* \"hardhat/contracts/ClosedSurveyV2.sol\":10879:10880  i */\n      dup5\n        /* \"hardhat/contracts/ClosedSurveyV2.sol\":10859:10881  registeredAddresses[i] */\n      dup2\n      dup2\n      lt\n      tag_268\n      jumpi\n      tag_268\n      tag_164\n      jump\t// in\n    tag_268:\n      swap1\n      pop\n      0x20\n      mul\n      add\n      0x20\n      dup2\n      add\n      swap1\n      tag_269\n      swap2\n      swap1\n      tag_57\n      jump\t// in\n    tag_269:\n      sub(shl(0xa0, 0x01), 0x01)\n        /* \"hardhat/contracts/ClosedSurveyV2.sol\":10833:10882  usersWhitelistedForSurvey[registeredAddresses[i]] */\n      and\n      dup2\n      mstore\n      0x20\n      dup2\n      add\n      swap2\n      swap1\n      swap2\n      mstore\n      0x40\n      add\n      0x00\n      keccak256\n      sload\n      0xff\n      and\n        /* \"hardhat/contracts/ClosedSurveyV2.sol\":10829:10971  if (usersWhitelistedForSurvey[registeredAddresses[i]]) {... */\n      iszero\n      tag_270\n      jumpi\n        /* \"hardhat/contracts/ClosedSurveyV2.sol\":10934:10953  registeredAddresses */\n      dup8\n      dup8\n        /* \"hardhat/contracts/ClosedSurveyV2.sol\":10954:10955  i */\n      dup3\n        /* \"hardhat/contracts/ClosedSurveyV2.sol\":10934:10956  registeredAddresses[i] */\n      dup2\n      dup2\n      lt\n      tag_272\n      jumpi\n      tag_272\n      tag_164\n      jump\t// in\n    tag_272:\n      swap1\n      pop\n      0x20\n      mul\n      add\n      0x20\n      dup2\n      add\n      swap1\n      tag_273\n      swap2\n      swap1\n      tag_57\n      jump\t// in\n    tag_273:\n        /* \"hardhat/contracts/ClosedSurveyV2.sol\":10902:10922  whitelistedAddresses */\n      dup4\n        /* \"hardhat/contracts/ClosedSurveyV2.sol\":10923:10930  index++ */\n      dup4\n      tag_274\n      dup2\n      tag_259\n      jump\t// in\n    tag_274:\n      swap5\n      pop\n        /* \"hardhat/contracts/ClosedSurveyV2.sol\":10902:10931  whitelistedAddresses[index++] */\n      dup2\n      mload\n      dup2\n      lt\n      tag_276\n      jumpi\n      tag_276\n      tag_164\n      jump\t// in\n    tag_276:\n      0x20\n      mul\n      0x20\n      add\n      add\n        /* \"hardhat/contracts/ClosedSurveyV2.sol\":10902:10956  whitelistedAddresses[index++] = registeredAddresses[i] */\n      swap1\n      sub(shl(0xa0, 0x01), 0x01)\n      and\n      swap1\n      dup2\n      sub(shl(0xa0, 0x01), 0x01)\n      and\n      dup2\n      mstore\n      pop\n      pop\n        /* \"hardhat/contracts/ClosedSurveyV2.sol\":10829:10971  if (usersWhitelistedForSurvey[registeredAddresses[i]]) {... */\n    tag_270:\n        /* \"hardhat/contracts/ClosedSurveyV2.sol\":11012:11015  ++i */\n      0x01\n      add\n        /* \"hardhat/contracts/ClosedSurveyV2.sol\":10781:11040  for (uint256 i = 0; i < length; ) {... */\n      jump(tag_264)\n    tag_265:\n      pop\n        /* \"hardhat/contracts/ClosedSurveyV2.sol\":11056:11076  whitelistedAddresses */\n      swap1\n      swap7\n        /* \"hardhat/contracts/ClosedSurveyV2.sol\":10134:11083  function getWhitelistedAddressesFromRegisteredAddresses(... */\n      swap6\n      pop\n      pop\n      pop\n      pop\n      pop\n      pop\n      jump\t// out\n        /* \"hardhat/contracts/ClosedSurveyV2.sol\":4183:4586  function whitelistOneUserAddress(address walletAddress)... */\n    tag_99:\n        /* \"@openzeppelin/contracts/access/Ownable.sol\":1531:1544  _checkOwner() */\n      tag_278\n        /* \"@openzeppelin/contracts/access/Ownable.sol\":1531:1542  _checkOwner */\n      tag_122\n        /* \"@openzeppelin/contracts/access/Ownable.sol\":1531:1544  _checkOwner() */\n      jump\t// in\n    tag_278:\n      sub(shl(0xa0, 0x01), 0x01)\n        /* \"hardhat/contracts/ClosedSurveyV2.sol\":2172:2212  usersWhitelistedForSurvey[walletAddress] */\n      dup2\n      and\n      0x00\n      swap1\n      dup2\n      mstore\n        /* \"hardhat/contracts/ClosedSurveyV2.sol\":2172:2197  usersWhitelistedForSurvey */\n      0x03\n        /* \"hardhat/contracts/ClosedSurveyV2.sol\":2172:2212  usersWhitelistedForSurvey[walletAddress] */\n      0x20\n      mstore\n      0x40\n      swap1\n      keccak256\n      sload\n        /* \"hardhat/contracts/ClosedSurveyV2.sol\":4300:4313  walletAddress */\n      dup2\n      swap1\n        /* \"hardhat/contracts/ClosedSurveyV2.sol\":2172:2212  usersWhitelistedForSurvey[walletAddress] */\n      0xff\n      and\n        /* \"hardhat/contracts/ClosedSurveyV2.sol\":2171:2212  !usersWhitelistedForSurvey[walletAddress] */\n      iszero\n        /* \"hardhat/contracts/ClosedSurveyV2.sol\":2150:2257  require(... */\n      tag_280\n      jumpi\n      mload(0x40)\n      shl(0xe5, 0x461bcd)\n      dup2\n      mstore\n        /* \"#utility.yul\":8559:8561   */\n      0x20\n        /* \"hardhat/contracts/ClosedSurveyV2.sol\":2150:2257  require(... */\n      0x04\n      dup3\n      add\n        /* \"#utility.yul\":8541:8562   */\n      mstore\n        /* \"#utility.yul\":8598:8600   */\n      0x13\n        /* \"#utility.yul\":8578:8596   */\n      0x24\n      dup3\n      add\n        /* \"#utility.yul\":8571:8601   */\n      mstore\n      shl(0x6a, 0x135d5cdd08189948189b1858dadb1a5cdd1959)\n        /* \"#utility.yul\":8617:8635   */\n      0x44\n      dup3\n      add\n        /* \"#utility.yul\":8610:8659   */\n      mstore\n        /* \"#utility.yul\":8676:8694   */\n      0x64\n      add\n        /* \"hardhat/contracts/ClosedSurveyV2.sol\":2150:2257  require(... */\n      tag_130\n        /* \"#utility.yul\":8357:8700   */\n      jump\n        /* \"hardhat/contracts/ClosedSurveyV2.sol\":2150:2257  require(... */\n    tag_280:\n      sub(shl(0xa0, 0x01), 0x01)\n        /* \"hardhat/contracts/ClosedSurveyV2.sol\":4337:4364  walletAddress != address(0) */\n      dup3\n      and\n        /* \"hardhat/contracts/ClosedSurveyV2.sol\":4329:4388  require(walletAddress != address(0), \"Zero address passed\") */\n      tag_284\n      jumpi\n      mload(0x40)\n      shl(0xe5, 0x461bcd)\n      dup2\n      mstore\n        /* \"#utility.yul\":8907:8909   */\n      0x20\n        /* \"hardhat/contracts/ClosedSurveyV2.sol\":4329:4388  require(walletAddress != address(0), \"Zero address passed\") */\n      0x04\n      dup3\n      add\n        /* \"#utility.yul\":8889:8910   */\n      mstore\n        /* \"#utility.yul\":8946:8948   */\n      0x13\n        /* \"#utility.yul\":8926:8944   */\n      0x24\n      dup3\n      add\n        /* \"#utility.yul\":8919:8949   */\n      mstore\n      shl(0x6a, 0x16995c9bc81859191c995cdcc81c185cdcd959)\n        /* \"#utility.yul\":8965:8983   */\n      0x44\n      dup3\n      add\n        /* \"#utility.yul\":8958:9007   */\n      mstore\n        /* \"#utility.yul\":9024:9042   */\n      0x64\n      add\n        /* \"hardhat/contracts/ClosedSurveyV2.sol\":4329:4388  require(walletAddress != address(0), \"Zero address passed\") */\n      tag_130\n        /* \"#utility.yul\":8705:9048   */\n      jump\n        /* \"hardhat/contracts/ClosedSurveyV2.sol\":4329:4388  require(walletAddress != address(0), \"Zero address passed\") */\n    tag_284:\n      sub(shl(0xa0, 0x01), 0x01)\n        /* \"hardhat/contracts/ClosedSurveyV2.sol\":4399:4439  usersWhitelistedForSurvey[walletAddress] */\n      dup3\n      and\n      0x00\n      dup2\n      dup2\n      mstore\n        /* \"hardhat/contracts/ClosedSurveyV2.sol\":4399:4424  usersWhitelistedForSurvey */\n      0x03\n        /* \"hardhat/contracts/ClosedSurveyV2.sol\":4399:4439  usersWhitelistedForSurvey[walletAddress] */\n      0x20\n      swap1\n      dup2\n      mstore\n      0x40\n      swap2\n      dup3\n      swap1\n      keccak256\n        /* \"hardhat/contracts/ClosedSurveyV2.sol\":4399:4446  usersWhitelistedForSurvey[walletAddress] = true */\n      dup1\n      sload\n      not(0xff)\n      and\n        /* \"hardhat/contracts/ClosedSurveyV2.sol\":4442:4446  true */\n      0x01\n        /* \"hardhat/contracts/ClosedSurveyV2.sol\":4399:4446  usersWhitelistedForSurvey[walletAddress] = true */\n      swap1\n      dup2\n      or\n      swap1\n      swap2\n      sstore\n        /* \"hardhat/contracts/ClosedSurveyV2.sol\":4482:4514  numberOfWhitelistedUserAddresses */\n      0x08\n        /* \"hardhat/contracts/ClosedSurveyV2.sol\":4480:4514  ++numberOfWhitelistedUserAddresses */\n      dup1\n      sload\n      swap1\n      swap2\n      add\n      swap1\n      sstore\n        /* \"hardhat/contracts/ClosedSurveyV2.sol\":4539:4579  OneUserAddressWhitelisted(walletAddress) */\n      swap1\n      mload\n        /* \"#utility.yul\":182:233   */\n      swap2\n      dup3\n      mstore\n        /* \"hardhat/contracts/ClosedSurveyV2.sol\":4539:4579  OneUserAddressWhitelisted(walletAddress) */\n      0x1afde38c60d2be0d28d001619816d86c39ce78b350c9d94f23c095099b9c1d27\n      swap2\n        /* \"#utility.yul\":155:173   */\n      add\n        /* \"hardhat/contracts/ClosedSurveyV2.sol\":4539:4579  OneUserAddressWhitelisted(walletAddress) */\n    tag_287:\n      mload(0x40)\n      dup1\n      swap2\n      sub\n      swap1\n      log1\n        /* \"@openzeppelin/contracts/access/Ownable.sol\":1554:1555  _ */\n      pop\n        /* \"hardhat/contracts/ClosedSurveyV2.sol\":4183:4586  function whitelistOneUserAddress(address walletAddress)... */\n      pop\n      jump\t// out\n        /* \"hardhat/contracts/ClosedSurveyV2.sol\":4592:5018  function blacklistOneWhitelistedUserAddress(address walletAddress)... */\n    tag_105:\n        /* \"@openzeppelin/contracts/access/Ownable.sol\":1531:1544  _checkOwner() */\n      tag_289\n        /* \"@openzeppelin/contracts/access/Ownable.sol\":1531:1542  _checkOwner */\n      tag_122\n        /* \"@openzeppelin/contracts/access/Ownable.sol\":1531:1544  _checkOwner() */\n      jump\t// in\n    tag_289:\n      sub(shl(0xa0, 0x01), 0x01)\n        /* \"hardhat/contracts/ClosedSurveyV2.sol\":1981:2021  usersWhitelistedForSurvey[walletAddress] */\n      dup2\n      and\n      0x00\n      swap1\n      dup2\n      mstore\n        /* \"hardhat/contracts/ClosedSurveyV2.sol\":1981:2006  usersWhitelistedForSurvey */\n      0x03\n        /* \"hardhat/contracts/ClosedSurveyV2.sol\":1981:2021  usersWhitelistedForSurvey[walletAddress] */\n      0x20\n      mstore\n      0x40\n      swap1\n      keccak256\n      sload\n        /* \"hardhat/contracts/ClosedSurveyV2.sol\":4720:4733  walletAddress */\n      dup2\n      swap1\n        /* \"hardhat/contracts/ClosedSurveyV2.sol\":1981:2021  usersWhitelistedForSurvey[walletAddress] */\n      0xff\n      and\n        /* \"hardhat/contracts/ClosedSurveyV2.sol\":1960:2066  require(... */\n      tag_291\n      jumpi\n      mload(0x40)\n      shl(0xe5, 0x461bcd)\n      dup2\n      mstore\n        /* \"#utility.yul\":9255:9257   */\n      0x20\n        /* \"hardhat/contracts/ClosedSurveyV2.sol\":1960:2066  require(... */\n      0x04\n      dup3\n      add\n        /* \"#utility.yul\":9237:9258   */\n      mstore\n        /* \"#utility.yul\":9294:9296   */\n      0x13\n        /* \"#utility.yul\":9274:9292   */\n      0x24\n      dup3\n      add\n        /* \"#utility.yul\":9267:9297   */\n      mstore\n      shl(0x6a, 0x135d5cdd081899481dda1a5d195b1a5cdd1959)\n        /* \"#utility.yul\":9313:9331   */\n      0x44\n      dup3\n      add\n        /* \"#utility.yul\":9306:9355   */\n      mstore\n        /* \"#utility.yul\":9372:9390   */\n      0x64\n      add\n        /* \"hardhat/contracts/ClosedSurveyV2.sol\":1960:2066  require(... */\n      tag_130\n        /* \"#utility.yul\":9053:9396   */\n      jump\n        /* \"hardhat/contracts/ClosedSurveyV2.sol\":1960:2066  require(... */\n    tag_291:\n      sub(shl(0xa0, 0x01), 0x01)\n        /* \"hardhat/contracts/ClosedSurveyV2.sol\":4757:4784  walletAddress != address(0) */\n      dup3\n      and\n        /* \"hardhat/contracts/ClosedSurveyV2.sol\":4749:4808  require(walletAddress != address(0), \"Zero address passed\") */\n      tag_295\n      jumpi\n      mload(0x40)\n      shl(0xe5, 0x461bcd)\n      dup2\n      mstore\n        /* \"#utility.yul\":8907:8909   */\n      0x20\n        /* \"hardhat/contracts/ClosedSurveyV2.sol\":4749:4808  require(walletAddress != address(0), \"Zero address passed\") */\n      0x04\n      dup3\n      add\n        /* \"#utility.yul\":8889:8910   */\n      mstore\n        /* \"#utility.yul\":8946:8948   */\n      0x13\n        /* \"#utility.yul\":8926:8944   */\n      0x24\n      dup3\n      add\n        /* \"#utility.yul\":8919:8949   */\n      mstore\n      shl(0x6a, 0x16995c9bc81859191c995cdcc81c185cdcd959)\n        /* \"#utility.yul\":8965:8983   */\n      0x44\n      dup3\n      add\n        /* \"#utility.yul\":8958:9007   */\n      mstore\n        /* \"#utility.yul\":9024:9042   */\n      0x64\n      add\n        /* \"hardhat/contracts/ClosedSurveyV2.sol\":4749:4808  require(walletAddress != address(0), \"Zero address passed\") */\n      tag_130\n        /* \"#utility.yul\":8705:9048   */\n      jump\n        /* \"hardhat/contracts/ClosedSurveyV2.sol\":4749:4808  require(walletAddress != address(0), \"Zero address passed\") */\n    tag_295:\n      sub(shl(0xa0, 0x01), 0x01)\n        /* \"hardhat/contracts/ClosedSurveyV2.sol\":4819:4859  usersWhitelistedForSurvey[walletAddress] */\n      dup3\n      and\n        /* \"hardhat/contracts/ClosedSurveyV2.sol\":4862:4867  false */\n      0x00\n        /* \"hardhat/contracts/ClosedSurveyV2.sol\":4819:4859  usersWhitelistedForSurvey[walletAddress] */\n      dup2\n      dup2\n      mstore\n        /* \"hardhat/contracts/ClosedSurveyV2.sol\":4819:4844  usersWhitelistedForSurvey */\n      0x03\n        /* \"hardhat/contracts/ClosedSurveyV2.sol\":4819:4859  usersWhitelistedForSurvey[walletAddress] */\n      0x20\n      swap1\n      dup2\n      mstore\n      0x40\n      swap2\n      dup3\n      swap1\n      keccak256\n        /* \"hardhat/contracts/ClosedSurveyV2.sol\":4819:4867  usersWhitelistedForSurvey[walletAddress] = false */\n      dup1\n      sload\n      not(0xff)\n      and\n      swap1\n      sstore\n        /* \"hardhat/contracts/ClosedSurveyV2.sol\":4903:4935  numberOfWhitelistedUserAddresses */\n      0x08\n        /* \"hardhat/contracts/ClosedSurveyV2.sol\":4901:4935  --numberOfWhitelistedUserAddresses */\n      dup1\n      sload\n      not(0x00)\n      add\n      swap1\n      sstore\n        /* \"hardhat/contracts/ClosedSurveyV2.sol\":4960:5011  OneWhitelistedUserAddressBlacklisted(walletAddress) */\n      swap1\n      mload\n        /* \"#utility.yul\":182:233   */\n      swap2\n      dup3\n      mstore\n        /* \"hardhat/contracts/ClosedSurveyV2.sol\":4960:5011  OneWhitelistedUserAddressBlacklisted(walletAddress) */\n      0xa354190dd7342316e40e5358c9f72037f2c677cdc057d3debbc4f1b62495e2e2\n      swap2\n        /* \"#utility.yul\":155:173   */\n      add\n        /* \"hardhat/contracts/ClosedSurveyV2.sol\":4960:5011  OneWhitelistedUserAddressBlacklisted(walletAddress) */\n      tag_287\n        /* \"#utility.yul\":14:239   */\n      jump\n        /* \"hardhat/contracts/ClosedSurveyV2.sol\":9984:10051  function pauseSurvey() external onlyOwner {... */\n    tag_110:\n        /* \"@openzeppelin/contracts/access/Ownable.sol\":1531:1544  _checkOwner() */\n      tag_300\n        /* \"@openzeppelin/contracts/access/Ownable.sol\":1531:1542  _checkOwner */\n      tag_122\n        /* \"@openzeppelin/contracts/access/Ownable.sol\":1531:1544  _checkOwner() */\n      jump\t// in\n    tag_300:\n        /* \"hardhat/contracts/ClosedSurveyV2.sol\":10036:10044  _pause() */\n      tag_124\n        /* \"hardhat/contracts/ClosedSurveyV2.sol\":10036:10042  _pause */\n      tag_303\n        /* \"hardhat/contracts/ClosedSurveyV2.sol\":10036:10044  _pause() */\n      jump\t// in\n        /* \"hardhat/contracts/ClosedSurveyV2.sol\":8397:8695  function withdrawAllRewardFundsToResearcher()... */\n    tag_112:\n        /* \"@openzeppelin/contracts/access/Ownable.sol\":1531:1544  _checkOwner() */\n      tag_305\n        /* \"@openzeppelin/contracts/access/Ownable.sol\":1531:1542  _checkOwner */\n      tag_122\n        /* \"@openzeppelin/contracts/access/Ownable.sol\":1531:1544  _checkOwner() */\n      jump\t// in\n    tag_305:\n        /* \"@openzeppelin/contracts/utils/Pausable.sol\":1474:1493  _requireNotPaused() */\n      tag_307\n        /* \"@openzeppelin/contracts/utils/Pausable.sol\":1474:1491  _requireNotPaused */\n      tag_211\n        /* \"@openzeppelin/contracts/utils/Pausable.sol\":1474:1493  _requireNotPaused() */\n      jump\t// in\n    tag_307:\n        /* \"hardhat/contracts/ClosedSurveyV2.sol\":2942:2971  cUSD.balanceOf(address(this)) */\n      mload(0x40)\n      shl(0xe0, 0x70a08231)\n      dup2\n      mstore\n        /* \"hardhat/contracts/ClosedSurveyV2.sol\":2965:2969  this */\n      address\n        /* \"hardhat/contracts/ClosedSurveyV2.sol\":2942:2971  cUSD.balanceOf(address(this)) */\n      0x04\n      dup3\n      add\n        /* \"#utility.yul\":182:233   */\n      mstore\n        /* \"hardhat/contracts/ClosedSurveyV2.sol\":2974:2975  0 */\n      0x00\n      swap1\n        /* \"hardhat/contracts/ClosedSurveyV2.sol\":2942:2946  cUSD */\n      immutable(\"0x4ce4dab4689da140a0c12de1a6af6b8f679594aeb723205f513e052d27f5b26f\")\n      sub(shl(0xa0, 0x01), 0x01)\n        /* \"hardhat/contracts/ClosedSurveyV2.sol\":2942:2956  cUSD.balanceOf */\n      and\n      swap1\n      0x70a08231\n      swap1\n        /* \"#utility.yul\":155:173   */\n      0x24\n      add\n        /* \"hardhat/contracts/ClosedSurveyV2.sol\":2942:2971  cUSD.balanceOf(address(this)) */\n      0x20\n      mload(0x40)\n      dup1\n      dup4\n      sub\n      dup2\n      dup7\n      gas\n      staticcall\n      iszero\n      dup1\n      iszero\n      tag_311\n      jumpi\n      returndatasize\n      0x00\n      dup1\n      returndatacopy\n      revert(0x00, returndatasize)\n    tag_311:\n      pop\n      pop\n      pop\n      pop\n      mload(0x40)\n      returndatasize\n      not(0x1f)\n      0x1f\n      dup3\n      add\n      and\n      dup3\n      add\n      dup1\n      0x40\n      mstore\n      pop\n      dup2\n      add\n      swap1\n      tag_312\n      swap2\n      swap1\n      tag_220\n      jump\t// in\n    tag_312:\n        /* \"hardhat/contracts/ClosedSurveyV2.sol\":2942:2975  cUSD.balanceOf(address(this)) > 0 */\n      gt\n        /* \"hardhat/contracts/ClosedSurveyV2.sol\":2921:3032  require(... */\n      tag_313\n      jumpi\n      mload(0x40)\n      shl(0xe5, 0x461bcd)\n      dup2\n      mstore\n        /* \"#utility.yul\":9603:9605   */\n      0x20\n        /* \"hardhat/contracts/ClosedSurveyV2.sol\":2921:3032  require(... */\n      0x04\n      dup3\n      add\n        /* \"#utility.yul\":9585:9606   */\n      mstore\n        /* \"#utility.yul\":9642:9644   */\n      0x1f\n        /* \"#utility.yul\":9622:9640   */\n      0x24\n      dup3\n      add\n        /* \"#utility.yul\":9615:9645   */\n      mstore\n        /* \"#utility.yul\":9681:9714   */\n      0x436f6e747261637420646f6573206e6f74206861766520616e79206355534400\n        /* \"#utility.yul\":9661:9679   */\n      0x44\n      dup3\n      add\n        /* \"#utility.yul\":9654:9715   */\n      mstore\n        /* \"#utility.yul\":9732:9750   */\n      0x64\n      add\n        /* \"hardhat/contracts/ClosedSurveyV2.sol\":2921:3032  require(... */\n      tag_130\n        /* \"#utility.yul\":9401:9756   */\n      jump\n        /* \"hardhat/contracts/ClosedSurveyV2.sol\":2921:3032  require(... */\n    tag_313:\n        /* \"hardhat/contracts/ClosedSurveyV2.sol\":8565:8594  cUSD.balanceOf(address(this)) */\n      mload(0x40)\n      shl(0xe0, 0x70a08231)\n      dup2\n      mstore\n        /* \"hardhat/contracts/ClosedSurveyV2.sol\":8588:8592  this */\n      address\n        /* \"hardhat/contracts/ClosedSurveyV2.sol\":8565:8594  cUSD.balanceOf(address(this)) */\n      0x04\n      dup3\n      add\n        /* \"#utility.yul\":182:233   */\n      mstore\n        /* \"hardhat/contracts/ClosedSurveyV2.sol\":8547:8562  uint256 balance */\n      0x00\n      swap1\n        /* \"hardhat/contracts/ClosedSurveyV2.sol\":8565:8569  cUSD */\n      immutable(\"0x4ce4dab4689da140a0c12de1a6af6b8f679594aeb723205f513e052d27f5b26f\")\n      sub(shl(0xa0, 0x01), 0x01)\n        /* \"hardhat/contracts/ClosedSurveyV2.sol\":8565:8579  cUSD.balanceOf */\n      and\n      swap1\n      0x70a08231\n      swap1\n        /* \"#utility.yul\":155:173   */\n      0x24\n      add\n        /* \"hardhat/contracts/ClosedSurveyV2.sol\":8565:8594  cUSD.balanceOf(address(this)) */\n      0x20\n      mload(0x40)\n      dup1\n      dup4\n      sub\n      dup2\n      dup7\n      gas\n      staticcall\n      iszero\n      dup1\n      iszero\n      tag_319\n      jumpi\n      returndatasize\n      0x00\n      dup1\n      returndatacopy\n      revert(0x00, returndatasize)\n    tag_319:\n      pop\n      pop\n      pop\n      pop\n      mload(0x40)\n      returndatasize\n      not(0x1f)\n      0x1f\n      dup3\n      add\n      and\n      dup3\n      add\n      dup1\n      0x40\n      mstore\n      pop\n      dup2\n      add\n      swap1\n      tag_320\n      swap2\n      swap1\n      tag_220\n      jump\t// in\n    tag_320:\n        /* \"hardhat/contracts/ClosedSurveyV2.sol\":8547:8594  uint256 balance = cUSD.balanceOf(address(this)) */\n      swap1\n      pop\n        /* \"hardhat/contracts/ClosedSurveyV2.sol\":8604:8608  cUSD */\n      immutable(\"0x4ce4dab4689da140a0c12de1a6af6b8f679594aeb723205f513e052d27f5b26f\")\n      sub(shl(0xa0, 0x01), 0x01)\n        /* \"hardhat/contracts/ClosedSurveyV2.sol\":8604:8617  cUSD.transfer */\n      and\n      0xa9059cbb\n        /* \"hardhat/contracts/ClosedSurveyV2.sol\":8618:8625  owner() */\n      tag_321\n        /* \"@openzeppelin/contracts/access/Ownable.sol\":1684:1691  address */\n      0x00\n        /* \"@openzeppelin/contracts/access/Ownable.sol\":1710:1716  _owner */\n      sload\n      sub(shl(0xa0, 0x01), 0x01)\n      and\n      swap1\n        /* \"@openzeppelin/contracts/access/Ownable.sol\":1638:1723  function owner() public view virtual returns (address) {... */\n      jump\n        /* \"hardhat/contracts/ClosedSurveyV2.sol\":8618:8625  owner() */\n    tag_321:\n        /* \"hardhat/contracts/ClosedSurveyV2.sol\":8604:8635  cUSD.transfer(owner(), balance) */\n      mload(0x40)\n      not(sub(shl(0xe0, 0x01), 0x01))\n      0xe0\n      dup5\n      swap1\n      shl\n      and\n      dup2\n      mstore\n      sub(shl(0xa0, 0x01), 0x01)\n        /* \"#utility.yul\":9953:9985   */\n      swap1\n      swap2\n      and\n        /* \"hardhat/contracts/ClosedSurveyV2.sol\":8604:8635  cUSD.transfer(owner(), balance) */\n      0x04\n      dup3\n      add\n        /* \"#utility.yul\":9935:9986   */\n      mstore\n        /* \"#utility.yul\":10002:10020   */\n      0x24\n      dup2\n      add\n        /* \"#utility.yul\":9995:10029   */\n      dup5\n      swap1\n      mstore\n        /* \"#utility.yul\":9908:9926   */\n      0x44\n      add\n        /* \"hardhat/contracts/ClosedSurveyV2.sol\":8604:8635  cUSD.transfer(owner(), balance) */\n      0x20\n      mload(0x40)\n      dup1\n      dup4\n      sub\n      dup2\n      0x00\n      dup8\n      gas\n      call\n      iszero\n      dup1\n      iszero\n      tag_325\n      jumpi\n      returndatasize\n      0x00\n      dup1\n      returndatacopy\n      revert(0x00, returndatasize)\n    tag_325:\n      pop\n      pop\n      pop\n      pop\n      mload(0x40)\n      returndatasize\n      not(0x1f)\n      0x1f\n      dup3\n      add\n      and\n      dup3\n      add\n      dup1\n      0x40\n      mstore\n      pop\n      dup2\n      add\n      swap1\n      tag_326\n      swap2\n      swap1\n      tag_327\n      jump\t// in\n    tag_326:\n      pop\n        /* \"hardhat/contracts/ClosedSurveyV2.sol\":8650:8688  RewardFundsWithdrawn(owner(), balance) */\n      0x2036b9b38b69a2fa490ee702733a29cd2550accc20bc96e786cb9beedc779097\n        /* \"hardhat/contracts/ClosedSurveyV2.sol\":8671:8678  owner() */\n      tag_328\n        /* \"@openzeppelin/contracts/access/Ownable.sol\":1684:1691  address */\n      0x00\n        /* \"@openzeppelin/contracts/access/Ownable.sol\":1710:1716  _owner */\n      sload\n      sub(shl(0xa0, 0x01), 0x01)\n      and\n      swap1\n        /* \"@openzeppelin/contracts/access/Ownable.sol\":1638:1723  function owner() public view virtual returns (address) {... */\n      jump\n        /* \"hardhat/contracts/ClosedSurveyV2.sol\":8671:8678  owner() */\n    tag_328:\n        /* \"hardhat/contracts/ClosedSurveyV2.sol\":8650:8688  RewardFundsWithdrawn(owner(), balance) */\n      0x40\n      dup1\n      mload\n      sub(shl(0xa0, 0x01), 0x01)\n        /* \"#utility.yul\":9953:9985   */\n      swap1\n      swap3\n      and\n        /* \"#utility.yul\":9935:9986   */\n      dup3\n      mstore\n        /* \"#utility.yul\":10017:10019   */\n      0x20\n        /* \"#utility.yul\":10002:10020   */\n      dup3\n      add\n        /* \"#utility.yul\":9995:10029   */\n      dup5\n      swap1\n      mstore\n        /* \"#utility.yul\":9908:9926   */\n      add\n        /* \"hardhat/contracts/ClosedSurveyV2.sol\":8650:8688  RewardFundsWithdrawn(owner(), balance) */\n    tag_329:\n      mload(0x40)\n      dup1\n      swap2\n      sub\n      swap1\n      log1\n        /* \"hardhat/contracts/ClosedSurveyV2.sol\":8537:8695  {... */\n      pop\n        /* \"hardhat/contracts/ClosedSurveyV2.sol\":8397:8695  function withdrawAllRewardFundsToResearcher()... */\n      jump\t// out\n        /* \"@openzeppelin/contracts/access/Ownable.sol\":2543:2758  function transferOwnership(address newOwner) public virtual onlyOwner {... */\n    tag_115:\n        /* \"@openzeppelin/contracts/access/Ownable.sol\":1531:1544  _checkOwner() */\n      tag_331\n        /* \"@openzeppelin/contracts/access/Ownable.sol\":1531:1542  _checkOwner */\n      tag_122\n        /* \"@openzeppelin/contracts/access/Ownable.sol\":1531:1544  _checkOwner() */\n      jump\t// in\n    tag_331:\n      sub(shl(0xa0, 0x01), 0x01)\n        /* \"@openzeppelin/contracts/access/Ownable.sol\":2627:2649  newOwner == address(0) */\n      dup2\n      and\n        /* \"@openzeppelin/contracts/access/Ownable.sol\":2623:2714  if (newOwner == address(0)) {... */\n      tag_333\n      jumpi\n        /* \"@openzeppelin/contracts/access/Ownable.sol\":2672:2703  OwnableInvalidOwner(address(0)) */\n      mload(0x40)\n      shl(0xe0, 0x1e4fbdf7)\n      dup2\n      mstore\n        /* \"@openzeppelin/contracts/access/Ownable.sol\":2700:2701  0 */\n      0x00\n        /* \"@openzeppelin/contracts/access/Ownable.sol\":2672:2703  OwnableInvalidOwner(address(0)) */\n      0x04\n      dup3\n      add\n        /* \"#utility.yul\":182:233   */\n      mstore\n        /* \"#utility.yul\":155:173   */\n      0x24\n      add\n        /* \"@openzeppelin/contracts/access/Ownable.sol\":2672:2703  OwnableInvalidOwner(address(0)) */\n      tag_130\n        /* \"#utility.yul\":14:239   */\n      jump\n        /* \"@openzeppelin/contracts/access/Ownable.sol\":2623:2714  if (newOwner == address(0)) {... */\n    tag_333:\n        /* \"@openzeppelin/contracts/access/Ownable.sol\":2723:2751  _transferOwnership(newOwner) */\n      tag_246\n        /* \"@openzeppelin/contracts/access/Ownable.sol\":2742:2750  newOwner */\n      dup2\n        /* \"@openzeppelin/contracts/access/Ownable.sol\":2723:2741  _transferOwnership */\n      tag_149\n        /* \"@openzeppelin/contracts/access/Ownable.sol\":2723:2751  _transferOwnership(newOwner) */\n      jump\t// in\n        /* \"@openzeppelin/contracts/access/Ownable.sol\":1796:1958  function _checkOwner() internal view virtual {... */\n    tag_122:\n        /* \"@openzeppelin/contracts/access/Ownable.sol\":1684:1691  address */\n      0x00\n        /* \"@openzeppelin/contracts/access/Ownable.sol\":1710:1716  _owner */\n      sload\n      sub(shl(0xa0, 0x01), 0x01)\n      and\n        /* \"@openzeppelin/contracts/utils/Context.sol\":735:745  msg.sender */\n      caller\n        /* \"@openzeppelin/contracts/access/Ownable.sol\":1855:1878  owner() != _msgSender() */\n      eq\n        /* \"@openzeppelin/contracts/access/Ownable.sol\":1851:1952  if (owner() != _msgSender()) {... */\n      tag_124\n      jumpi\n        /* \"@openzeppelin/contracts/access/Ownable.sol\":1901:1941  OwnableUnauthorizedAccount(_msgSender()) */\n      mload(0x40)\n      shl(0xe0, 0x118cdaa7)\n      dup2\n      mstore\n        /* \"@openzeppelin/contracts/utils/Context.sol\":735:745  msg.sender */\n      caller\n        /* \"@openzeppelin/contracts/access/Ownable.sol\":1901:1941  OwnableUnauthorizedAccount(_msgSender()) */\n      0x04\n      dup3\n      add\n        /* \"#utility.yul\":182:233   */\n      mstore\n        /* \"#utility.yul\":155:173   */\n      0x24\n      add\n        /* \"@openzeppelin/contracts/access/Ownable.sol\":1901:1941  OwnableUnauthorizedAccount(_msgSender()) */\n      tag_130\n        /* \"#utility.yul\":14:239   */\n      jump\n        /* \"@openzeppelin/contracts/utils/Pausable.sol\":2710:2827  function _unpause() internal virtual whenPaused {... */\n    tag_125:\n        /* \"@openzeppelin/contracts/utils/Pausable.sol\":1721:1737  _requirePaused() */\n      tag_345\n        /* \"@openzeppelin/contracts/utils/Pausable.sol\":1721:1735  _requirePaused */\n      tag_346\n        /* \"@openzeppelin/contracts/utils/Pausable.sol\":1721:1737  _requirePaused() */\n      jump\t// in\n    tag_345:\n        /* \"@openzeppelin/contracts/utils/Pausable.sol\":2768:2775  _paused */\n      0x02\n        /* \"@openzeppelin/contracts/utils/Pausable.sol\":2768:2783  _paused = false */\n      dup1\n      sload\n      not(0xff)\n      and\n      swap1\n      sstore\n        /* \"@openzeppelin/contracts/utils/Pausable.sol\":2798:2820  Unpaused(_msgSender()) */\n      0x5db9ee0a495bf2e6ff9c91a7834c1ba4fdd244a5e8aa4e537bd38aeae4b073aa\n        /* \"@openzeppelin/contracts/utils/Context.sol\":735:745  msg.sender */\n      caller\n        /* \"@openzeppelin/contracts/utils/Pausable.sol\":2807:2819  _msgSender() */\n    tag_348:\n        /* \"@openzeppelin/contracts/utils/Pausable.sol\":2798:2820  Unpaused(_msgSender()) */\n      mload(0x40)\n      sub(shl(0xa0, 0x01), 0x01)\n        /* \"#utility.yul\":200:232   */\n      swap1\n      swap2\n      and\n        /* \"#utility.yul\":182:233   */\n      dup2\n      mstore\n        /* \"#utility.yul\":170:172   */\n      0x20\n        /* \"#utility.yul\":155:173   */\n      add\n        /* \"@openzeppelin/contracts/utils/Pausable.sol\":2798:2820  Unpaused(_msgSender()) */\n      mload(0x40)\n      dup1\n      swap2\n      sub\n      swap1\n      log1\n        /* \"@openzeppelin/contracts/utils/Pausable.sol\":2710:2827  function _unpause() internal virtual whenPaused {... */\n      jump\t// out\n        /* \"@openzeppelin/contracts/access/Ownable.sol\":2912:3099  function _transferOwnership(address newOwner) internal virtual {... */\n    tag_149:\n        /* \"@openzeppelin/contracts/access/Ownable.sol\":2985:3001  address oldOwner */\n      0x00\n        /* \"@openzeppelin/contracts/access/Ownable.sol\":3004:3010  _owner */\n      dup1\n      sload\n      sub(shl(0xa0, 0x01), 0x01)\n        /* \"@openzeppelin/contracts/access/Ownable.sol\":3020:3037  _owner = newOwner */\n      dup4\n      dup2\n      and\n      not(sub(shl(0xa0, 0x01), 0x01))\n      dup4\n      and\n      dup2\n      or\n      dup5\n      sstore\n        /* \"@openzeppelin/contracts/access/Ownable.sol\":3052:3092  OwnershipTransferred(oldOwner, newOwner) */\n      mload(0x40)\n        /* \"@openzeppelin/contracts/access/Ownable.sol\":3004:3010  _owner */\n      swap2\n      swap1\n      swap3\n      and\n      swap3\n      dup4\n      swap2\n        /* \"@openzeppelin/contracts/access/Ownable.sol\":3052:3092  OwnershipTransferred(oldOwner, newOwner) */\n      0x8be0079c531659141344cd1fd0a4f28419497f9722a3daafe3b4186f6b6457e0\n      swap2\n        /* \"@openzeppelin/contracts/access/Ownable.sol\":2985:3001  address oldOwner */\n      swap1\n        /* \"@openzeppelin/contracts/access/Ownable.sol\":3052:3092  OwnershipTransferred(oldOwner, newOwner) */\n      log3\n        /* \"@openzeppelin/contracts/access/Ownable.sol\":2975:3099  {... */\n      pop\n        /* \"@openzeppelin/contracts/access/Ownable.sol\":2912:3099  function _transferOwnership(address newOwner) internal virtual {... */\n      pop\n      jump\t// out\n        /* \"@openzeppelin/contracts/utils/Pausable.sol\":2002:2130  function _requireNotPaused() internal view virtual {... */\n    tag_211:\n        /* \"@openzeppelin/contracts/utils/Pausable.sol\":1920:1927  _paused */\n      and(0xff, sload(0x02))\n        /* \"@openzeppelin/contracts/utils/Pausable.sol\":2063:2124  if (paused()) {... */\n      iszero\n      tag_124\n      jumpi\n        /* \"@openzeppelin/contracts/utils/Pausable.sol\":2098:2113  EnforcedPause() */\n      mload(0x40)\n      shl(0xe0, 0xd93c0665)\n      dup2\n      mstore\n      0x04\n      add\n      mload(0x40)\n      dup1\n      swap2\n      sub\n      swap1\n      revert\n        /* \"@openzeppelin/contracts/utils/ReentrancyGuard.sol\":2575:2882  function _nonReentrantBefore() private {... */\n    tag_214:\n        /* \"@openzeppelin/contracts/utils/ReentrancyGuard.sol\":1899:1900  2 */\n      0x02\n        /* \"@openzeppelin/contracts/utils/ReentrancyGuard.sol\":2702:2709  _status */\n      sload(0x01)\n        /* \"@openzeppelin/contracts/utils/ReentrancyGuard.sol\":2702:2720  _status == ENTERED */\n      sub\n        /* \"@openzeppelin/contracts/utils/ReentrancyGuard.sol\":2698:2784  if (_status == ENTERED) {... */\n      tag_355\n      jumpi\n        /* \"@openzeppelin/contracts/utils/ReentrancyGuard.sol\":2743:2773  ReentrancyGuardReentrantCall() */\n      mload(0x40)\n      shl(0xe0, 0x3ee5aeb5)\n      dup2\n      mstore\n      0x04\n      add\n      mload(0x40)\n      dup1\n      swap2\n      sub\n      swap1\n      revert\n        /* \"@openzeppelin/contracts/utils/ReentrancyGuard.sol\":2698:2784  if (_status == ENTERED) {... */\n    tag_355:\n        /* \"@openzeppelin/contracts/utils/ReentrancyGuard.sol\":1899:1900  2 */\n      0x02\n        /* \"@openzeppelin/contracts/utils/ReentrancyGuard.sol\":2858:2865  _status */\n      0x01\n        /* \"@openzeppelin/contracts/utils/ReentrancyGuard.sol\":2858:2875  _status = ENTERED */\n      sstore\n        /* \"@openzeppelin/contracts/utils/ReentrancyGuard.sol\":2575:2882  function _nonReentrantBefore() private {... */\n      jump\t// out\n        /* \"hardhat/contracts/ClosedSurveyV2.sol\":7807:8391  function rewardParticipant(address participantWalletAddress)... */\n    tag_242:\n        /* \"hardhat/contracts/ClosedSurveyV2.sol\":8019:8050  rewardAmountPerParticipantInWei */\n      sload(0x05)\n        /* \"hardhat/contracts/ClosedSurveyV2.sol\":7954:8060  cUSD.transfer(... */\n      mload(0x40)\n      shl(0xe0, 0xa9059cbb)\n      dup2\n      mstore\n      sub(shl(0xa0, 0x01), 0x01)\n        /* \"#utility.yul\":9953:9985   */\n      dup4\n      dup2\n      and\n        /* \"hardhat/contracts/ClosedSurveyV2.sol\":7954:8060  cUSD.transfer(... */\n      0x04\n      dup4\n      add\n        /* \"#utility.yul\":9935:9986   */\n      mstore\n        /* \"#utility.yul\":10002:10020   */\n      0x24\n      dup3\n      add\n        /* \"#utility.yul\":9995:10029   */\n      swap3\n      swap1\n      swap3\n      mstore\n        /* \"hardhat/contracts/ClosedSurveyV2.sol\":7901:7905  bool */\n      0x00\n      swap2\n      dup3\n      swap2\n        /* \"hardhat/contracts/ClosedSurveyV2.sol\":7954:7958  cUSD */\n      immutable(\"0x4ce4dab4689da140a0c12de1a6af6b8f679594aeb723205f513e052d27f5b26f\")\n        /* \"hardhat/contracts/ClosedSurveyV2.sol\":7954:7967  cUSD.transfer */\n      swap1\n      swap2\n      and\n      swap1\n      0xa9059cbb\n      swap1\n        /* \"#utility.yul\":9908:9926   */\n      0x44\n      add\n        /* \"hardhat/contracts/ClosedSurveyV2.sol\":7954:8060  cUSD.transfer(... */\n      0x20\n      mload(0x40)\n      dup1\n      dup4\n      sub\n      dup2\n      0x00\n      dup8\n      gas\n      call\n      iszero\n      dup1\n      iszero\n      tag_359\n      jumpi\n      returndatasize\n      0x00\n      dup1\n      returndatacopy\n      revert(0x00, returndatasize)\n    tag_359:\n      pop\n      pop\n      pop\n      pop\n      mload(0x40)\n      returndatasize\n      not(0x1f)\n      0x1f\n      dup3\n      add\n      and\n      dup3\n      add\n      dup1\n      0x40\n      mstore\n      pop\n      dup2\n      add\n      swap1\n      tag_360\n      swap2\n      swap1\n      tag_327\n      jump\t// in\n    tag_360:\n        /* \"hardhat/contracts/ClosedSurveyV2.sol\":7921:8060  bool rewardTransferIsSuccesful = cUSD.transfer(... */\n      swap1\n      pop\n        /* \"hardhat/contracts/ClosedSurveyV2.sol\":8075:8100  rewardTransferIsSuccesful */\n      dup1\n        /* \"hardhat/contracts/ClosedSurveyV2.sol\":8071:8342  if (rewardTransferIsSuccesful) {... */\n      iszero\n      tag_361\n      jumpi\n        /* \"hardhat/contracts/ClosedSurveyV2.sol\":8146:8174  numberOfRewardedParticipants */\n      0x07\n        /* \"hardhat/contracts/ClosedSurveyV2.sol\":8144:8174  ++numberOfRewardedParticipants */\n      dup1\n      sload\n      0x01\n      add\n      swap1\n      sstore\n        /* \"hardhat/contracts/ClosedSurveyV2.sol\":8286:8317  rewardAmountPerParticipantInWei */\n      sload(0x05)\n        /* \"hardhat/contracts/ClosedSurveyV2.sol\":8207:8331  ParticipantRewarded(... */\n      0x40\n      dup1\n      mload\n      sub(shl(0xa0, 0x01), 0x01)\n        /* \"#utility.yul\":9953:9985   */\n      dup7\n      and\n        /* \"#utility.yul\":9935:9986   */\n      dup2\n      mstore\n        /* \"#utility.yul\":10017:10019   */\n      0x20\n        /* \"#utility.yul\":10002:10020   */\n      dup2\n      add\n        /* \"#utility.yul\":9995:10029   */\n      swap3\n      swap1\n      swap3\n      mstore\n        /* \"hardhat/contracts/ClosedSurveyV2.sol\":8207:8331  ParticipantRewarded(... */\n      0x8934d7a9692e763e356fd30d84ca5f61a737b35c5ccd5d31d4f140310267b73e\n      swap2\n        /* \"#utility.yul\":9908:9926   */\n      add\n        /* \"hardhat/contracts/ClosedSurveyV2.sol\":8207:8331  ParticipantRewarded(... */\n      mload(0x40)\n      dup1\n      swap2\n      sub\n      swap1\n      log1\n        /* \"hardhat/contracts/ClosedSurveyV2.sol\":8071:8342  if (rewardTransferIsSuccesful) {... */\n    tag_361:\n        /* \"hardhat/contracts/ClosedSurveyV2.sol\":8359:8384  rewardTransferIsSuccesful */\n      swap3\n        /* \"hardhat/contracts/ClosedSurveyV2.sol\":7807:8391  function rewardParticipant(address participantWalletAddress)... */\n      swap2\n      pop\n      pop\n      jump\t// out\n        /* \"hardhat/contracts/ClosedSurveyV2.sol\":7548:7801  function markParticipantAsHavingClaimedReward(... */\n    tag_245:\n      sub(shl(0xa0, 0x01), 0x01)\n        /* \"hardhat/contracts/ClosedSurveyV2.sol\":7660:7719  participantsWhoHaveClaimedRewards[participantWalletAddress] */\n      dup2\n      and\n      0x00\n      dup2\n      dup2\n      mstore\n        /* \"hardhat/contracts/ClosedSurveyV2.sol\":7660:7693  participantsWhoHaveClaimedRewards */\n      0x04\n        /* \"hardhat/contracts/ClosedSurveyV2.sol\":7660:7719  participantsWhoHaveClaimedRewards[participantWalletAddress] */\n      0x20\n      swap1\n      dup2\n      mstore\n      0x40\n      swap2\n      dup3\n      swap1\n      keccak256\n        /* \"hardhat/contracts/ClosedSurveyV2.sol\":7660:7726  participantsWhoHaveClaimedRewards[participantWalletAddress] = true */\n      dup1\n      sload\n      not(0xff)\n      and\n        /* \"hardhat/contracts/ClosedSurveyV2.sol\":7722:7726  true */\n      0x01\n        /* \"hardhat/contracts/ClosedSurveyV2.sol\":7660:7726  participantsWhoHaveClaimedRewards[participantWalletAddress] = true */\n      or\n      swap1\n      sstore\n        /* \"hardhat/contracts/ClosedSurveyV2.sol\":7741:7794  ParticipantMarkedAsRewarded(participantWalletAddress) */\n      swap1\n      mload\n        /* \"#utility.yul\":182:233   */\n      swap2\n      dup3\n      mstore\n        /* \"hardhat/contracts/ClosedSurveyV2.sol\":7741:7794  ParticipantMarkedAsRewarded(participantWalletAddress) */\n      0x654c9a027765e6feb862f42d438e9f6948f9ee31113e379f0372b30efc722943\n      swap2\n        /* \"#utility.yul\":155:173   */\n      add\n        /* \"hardhat/contracts/ClosedSurveyV2.sol\":7741:7794  ParticipantMarkedAsRewarded(participantWalletAddress) */\n      tag_329\n        /* \"#utility.yul\":14:239   */\n      jump\n        /* \"@openzeppelin/contracts/utils/Pausable.sol\":2463:2578  function _pause() internal virtual whenNotPaused {... */\n    tag_303:\n        /* \"@openzeppelin/contracts/utils/Pausable.sol\":1474:1493  _requireNotPaused() */\n      tag_367\n        /* \"@openzeppelin/contracts/utils/Pausable.sol\":1474:1491  _requireNotPaused */\n      tag_211\n        /* \"@openzeppelin/contracts/utils/Pausable.sol\":1474:1493  _requireNotPaused() */\n      jump\t// in\n    tag_367:\n        /* \"@openzeppelin/contracts/utils/Pausable.sol\":2522:2529  _paused */\n      0x02\n        /* \"@openzeppelin/contracts/utils/Pausable.sol\":2522:2536  _paused = true */\n      dup1\n      sload\n      not(0xff)\n      and\n        /* \"@openzeppelin/contracts/utils/Pausable.sol\":2532:2536  true */\n      0x01\n        /* \"@openzeppelin/contracts/utils/Pausable.sol\":2522:2536  _paused = true */\n      or\n      swap1\n      sstore\n        /* \"@openzeppelin/contracts/utils/Pausable.sol\":2551:2571  Paused(_msgSender()) */\n      0x62e78cea01bee320cd4e420270b5ea74000d11b0c9f74754ebdbfc544b05a258\n        /* \"@openzeppelin/contracts/utils/Pausable.sol\":2558:2570  _msgSender() */\n      tag_348\n        /* \"@openzeppelin/contracts/utils/Context.sol\":735:745  msg.sender */\n      caller\n      swap1\n        /* \"@openzeppelin/contracts/utils/Context.sol\":656:752  function _msgSender() internal view virtual returns (address) {... */\n      jump\n        /* \"@openzeppelin/contracts/utils/Pausable.sol\":2202:2328  function _requirePaused() internal view virtual {... */\n    tag_346:\n        /* \"@openzeppelin/contracts/utils/Pausable.sol\":1920:1927  _paused */\n      and(0xff, sload(0x02))\n        /* \"@openzeppelin/contracts/utils/Pausable.sol\":2260:2322  if (!paused()) {... */\n      tag_124\n      jumpi\n        /* \"@openzeppelin/contracts/utils/Pausable.sol\":2296:2311  ExpectedPause() */\n      mload(0x40)\n      shl(0xe0, 0x8dfc202b)\n      dup2\n      mstore\n      0x04\n      add\n      mload(0x40)\n      dup1\n      swap2\n      sub\n      swap1\n      revert\n        /* \"#utility.yul\":244:424   */\n    tag_42:\n        /* \"#utility.yul\":303:309   */\n      0x00\n        /* \"#utility.yul\":356:358   */\n      0x20\n        /* \"#utility.yul\":344:353   */\n      dup3\n        /* \"#utility.yul\":335:342   */\n      dup5\n        /* \"#utility.yul\":331:354   */\n      sub\n        /* \"#utility.yul\":327:359   */\n      slt\n        /* \"#utility.yul\":324:376   */\n      iszero\n      tag_379\n      jumpi\n        /* \"#utility.yul\":372:373   */\n      0x00\n        /* \"#utility.yul\":369:370   */\n      dup1\n        /* \"#utility.yul\":362:374   */\n      revert\n        /* \"#utility.yul\":324:376   */\n    tag_379:\n      pop\n        /* \"#utility.yul\":395:418   */\n      calldataload\n      swap2\n        /* \"#utility.yul\":244:424   */\n      swap1\n      pop\n      jump\t// out\n        /* \"#utility.yul\":803:976   */\n    tag_375:\n        /* \"#utility.yul\":871:891   */\n      dup1\n      calldataload\n      sub(shl(0xa0, 0x01), 0x01)\n        /* \"#utility.yul\":920:951   */\n      dup2\n      and\n        /* \"#utility.yul\":910:952   */\n      dup2\n      eq\n        /* \"#utility.yul\":900:970   */\n      tag_383\n      jumpi\n        /* \"#utility.yul\":966:967   */\n      0x00\n        /* \"#utility.yul\":963:964   */\n      dup1\n        /* \"#utility.yul\":956:968   */\n      revert\n        /* \"#utility.yul\":900:970   */\n    tag_383:\n        /* \"#utility.yul\":803:976   */\n      swap2\n      swap1\n      pop\n      jump\t// out\n        /* \"#utility.yul\":981:1167   */\n    tag_57:\n        /* \"#utility.yul\":1040:1046   */\n      0x00\n        /* \"#utility.yul\":1093:1095   */\n      0x20\n        /* \"#utility.yul\":1081:1090   */\n      dup3\n        /* \"#utility.yul\":1072:1079   */\n      dup5\n        /* \"#utility.yul\":1068:1091   */\n      sub\n        /* \"#utility.yul\":1064:1096   */\n      slt\n        /* \"#utility.yul\":1061:1113   */\n      iszero\n      tag_385\n      jumpi\n        /* \"#utility.yul\":1109:1110   */\n      0x00\n        /* \"#utility.yul\":1106:1107   */\n      dup1\n        /* \"#utility.yul\":1099:1111   */\n      revert\n        /* \"#utility.yul\":1061:1113   */\n    tag_385:\n        /* \"#utility.yul\":1132:1161   */\n      tag_386\n        /* \"#utility.yul\":1151:1160   */\n      dup3\n        /* \"#utility.yul\":1132:1161   */\n      tag_375\n      jump\t// in\n    tag_386:\n        /* \"#utility.yul\":1122:1161   */\n      swap4\n        /* \"#utility.yul\":981:1167   */\n      swap3\n      pop\n      pop\n      pop\n      jump\t// out\n        /* \"#utility.yul\":1380:1990   */\n    tag_81:\n        /* \"#utility.yul\":1466:1472   */\n      0x00\n        /* \"#utility.yul\":1474:1480   */\n      dup1\n        /* \"#utility.yul\":1527:1529   */\n      0x20\n        /* \"#utility.yul\":1515:1524   */\n      dup4\n        /* \"#utility.yul\":1506:1513   */\n      dup6\n        /* \"#utility.yul\":1502:1525   */\n      sub\n        /* \"#utility.yul\":1498:1530   */\n      slt\n        /* \"#utility.yul\":1495:1547   */\n      iszero\n      tag_389\n      jumpi\n        /* \"#utility.yul\":1543:1544   */\n      0x00\n        /* \"#utility.yul\":1540:1541   */\n      dup1\n        /* \"#utility.yul\":1533:1545   */\n      revert\n        /* \"#utility.yul\":1495:1547   */\n    tag_389:\n        /* \"#utility.yul\":1583:1592   */\n      dup3\n        /* \"#utility.yul\":1570:1593   */\n      calldataload\n        /* \"#utility.yul\":1616:1634   */\n      0xffffffffffffffff\n        /* \"#utility.yul\":1608:1614   */\n      dup2\n        /* \"#utility.yul\":1605:1635   */\n      gt\n        /* \"#utility.yul\":1602:1652   */\n      iszero\n      tag_390\n      jumpi\n        /* \"#utility.yul\":1648:1649   */\n      0x00\n        /* \"#utility.yul\":1645:1646   */\n      dup1\n        /* \"#utility.yul\":1638:1650   */\n      revert\n        /* \"#utility.yul\":1602:1652   */\n    tag_390:\n        /* \"#utility.yul\":1671:1693   */\n      dup4\n      add\n        /* \"#utility.yul\":1724:1728   */\n      0x1f\n        /* \"#utility.yul\":1716:1729   */\n      dup2\n      add\n        /* \"#utility.yul\":1712:1739   */\n      dup6\n      sgt\n        /* \"#utility.yul\":1702:1757   */\n      tag_391\n      jumpi\n        /* \"#utility.yul\":1753:1754   */\n      0x00\n        /* \"#utility.yul\":1750:1751   */\n      dup1\n        /* \"#utility.yul\":1743:1755   */\n      revert\n        /* \"#utility.yul\":1702:1757   */\n    tag_391:\n        /* \"#utility.yul\":1793:1795   */\n      dup1\n        /* \"#utility.yul\":1780:1796   */\n      calldataload\n        /* \"#utility.yul\":1819:1837   */\n      0xffffffffffffffff\n        /* \"#utility.yul\":1811:1817   */\n      dup2\n        /* \"#utility.yul\":1808:1838   */\n      gt\n        /* \"#utility.yul\":1805:1855   */\n      iszero\n      tag_392\n      jumpi\n        /* \"#utility.yul\":1851:1852   */\n      0x00\n        /* \"#utility.yul\":1848:1849   */\n      dup1\n        /* \"#utility.yul\":1841:1853   */\n      revert\n        /* \"#utility.yul\":1805:1855   */\n    tag_392:\n        /* \"#utility.yul\":1904:1911   */\n      dup6\n        /* \"#utility.yul\":1899:1901   */\n      0x20\n        /* \"#utility.yul\":1889:1895   */\n      dup3\n        /* \"#utility.yul\":1886:1887   */\n      0x05\n        /* \"#utility.yul\":1882:1896   */\n      shl\n        /* \"#utility.yul\":1878:1880   */\n      dup5\n        /* \"#utility.yul\":1874:1897   */\n      add\n        /* \"#utility.yul\":1870:1902   */\n      add\n        /* \"#utility.yul\":1867:1912   */\n      gt\n        /* \"#utility.yul\":1864:1929   */\n      iszero\n      tag_393\n      jumpi\n        /* \"#utility.yul\":1925:1926   */\n      0x00\n        /* \"#utility.yul\":1922:1923   */\n      dup1\n        /* \"#utility.yul\":1915:1927   */\n      revert\n        /* \"#utility.yul\":1864:1929   */\n    tag_393:\n        /* \"#utility.yul\":1956:1958   */\n      0x20\n        /* \"#utility.yul\":1948:1959   */\n      swap2\n      swap1\n      swap2\n      add\n      swap6\n        /* \"#utility.yul\":1978:1984   */\n      swap1\n      swap5\n      pop\n        /* \"#utility.yul\":1380:1990   */\n      swap3\n      pop\n      pop\n      pop\n      jump\t// out\n        /* \"#utility.yul\":1995:2632   */\n    tag_93:\n        /* \"#utility.yul\":2185:2187   */\n      0x20\n        /* \"#utility.yul\":2197:2218   */\n      dup1\n      dup3\n      mstore\n        /* \"#utility.yul\":2267:2280   */\n      dup3\n      mload\n        /* \"#utility.yul\":2170:2188   */\n      dup3\n      dup3\n      add\n        /* \"#utility.yul\":2289:2311   */\n      dup2\n      swap1\n      mstore\n        /* \"#utility.yul\":2137:2141   */\n      0x00\n      swap2\n        /* \"#utility.yul\":2368:2383   */\n      dup5\n      add\n      swap1\n        /* \"#utility.yul\":2342:2344   */\n      0x40\n        /* \"#utility.yul\":2327:2345   */\n      dup5\n      add\n      swap1\n        /* \"#utility.yul\":2137:2141   */\n      dup4\n        /* \"#utility.yul\":2411:2606   */\n    tag_395:\n        /* \"#utility.yul\":2425:2431   */\n      dup2\n        /* \"#utility.yul\":2422:2423   */\n      dup2\n        /* \"#utility.yul\":2419:2432   */\n      lt\n        /* \"#utility.yul\":2411:2606   */\n      iszero\n      tag_397\n      jumpi\n        /* \"#utility.yul\":2490:2503   */\n      dup4\n      mload\n      sub(shl(0xa0, 0x01), 0x01)\n        /* \"#utility.yul\":2486:2525   */\n      and\n        /* \"#utility.yul\":2474:2526   */\n      dup4\n      mstore\n        /* \"#utility.yul\":2555:2557   */\n      0x20\n        /* \"#utility.yul\":2581:2596   */\n      swap4\n      dup5\n      add\n      swap4\n        /* \"#utility.yul\":2546:2558   */\n      swap1\n      swap3\n      add\n      swap2\n        /* \"#utility.yul\":2522:2523   */\n      0x01\n        /* \"#utility.yul\":2440:2449   */\n      add\n        /* \"#utility.yul\":2411:2606   */\n      jump(tag_395)\n    tag_397:\n      pop\n        /* \"#utility.yul\":2623:2626   */\n      swap1\n      swap6\n        /* \"#utility.yul\":1995:2632   */\n      swap5\n      pop\n      pop\n      pop\n      pop\n      pop\n      jump\t// out\n        /* \"#utility.yul\":3652:3995   */\n    tag_158:\n        /* \"#utility.yul\":3854:3856   */\n      0x20\n        /* \"#utility.yul\":3836:3857   */\n      dup1\n      dup3\n      mstore\n        /* \"#utility.yul\":3893:3895   */\n      0x13\n        /* \"#utility.yul\":3873:3891   */\n      swap1\n      dup3\n      add\n        /* \"#utility.yul\":3866:3896   */\n      mstore\n      shl(0x6a, 0x139bc81859191c995cdcd95cc81c185cdcd959)\n        /* \"#utility.yul\":3927:3929   */\n      0x40\n        /* \"#utility.yul\":3912:3930   */\n      dup3\n      add\n        /* \"#utility.yul\":3905:3954   */\n      mstore\n        /* \"#utility.yul\":3986:3988   */\n      0x60\n        /* \"#utility.yul\":3971:3989   */\n      add\n      swap1\n        /* \"#utility.yul\":3652:3995   */\n      jump\t// out\n        /* \"#utility.yul\":4000:4127   */\n    tag_164:\n        /* \"#utility.yul\":4061:4071   */\n      0x4e487b71\n        /* \"#utility.yul\":4056:4059   */\n      0xe0\n        /* \"#utility.yul\":4052:4072   */\n      shl\n        /* \"#utility.yul\":4049:4050   */\n      0x00\n        /* \"#utility.yul\":4042:4073   */\n      mstore\n        /* \"#utility.yul\":4092:4096   */\n      0x32\n        /* \"#utility.yul\":4089:4090   */\n      0x04\n        /* \"#utility.yul\":4082:4097   */\n      mstore\n        /* \"#utility.yul\":4116:4120   */\n      0x24\n        /* \"#utility.yul\":4113:4114   */\n      0x00\n        /* \"#utility.yul\":4106:4121   */\n      revert\n        /* \"#utility.yul\":4903:5518   */\n    tag_182:\n        /* \"#utility.yul\":5103:5105   */\n      0x20\n        /* \"#utility.yul\":5115:5136   */\n      dup1\n      dup3\n      mstore\n        /* \"#utility.yul\":5088:5106   */\n      dup2\n      add\n        /* \"#utility.yul\":5171:5193   */\n      dup3\n      swap1\n      mstore\n        /* \"#utility.yul\":5055:5059   */\n      0x00\n        /* \"#utility.yul\":5250:5256   */\n      dup4\n        /* \"#utility.yul\":5224:5226   */\n      0x40\n        /* \"#utility.yul\":5209:5227   */\n      dup4\n      add\n        /* \"#utility.yul\":5055:5059   */\n      dup3\n        /* \"#utility.yul\":5284:5492   */\n    tag_406:\n        /* \"#utility.yul\":5298:5304   */\n      dup6\n        /* \"#utility.yul\":5295:5296   */\n      dup2\n        /* \"#utility.yul\":5292:5305   */\n      lt\n        /* \"#utility.yul\":5284:5492   */\n      iszero\n      tag_408\n      jumpi\n      sub(shl(0xa0, 0x01), 0x01)\n        /* \"#utility.yul\":5363:5389   */\n      tag_409\n        /* \"#utility.yul\":5382:5388   */\n      dup5\n        /* \"#utility.yul\":5363:5389   */\n      tag_375\n      jump\t// in\n    tag_409:\n        /* \"#utility.yul\":5359:5411   */\n      and\n        /* \"#utility.yul\":5347:5412   */\n      dup3\n      mstore\n        /* \"#utility.yul\":5441:5443   */\n      0x20\n        /* \"#utility.yul\":5467:5482   */\n      swap3\n      dup4\n      add\n      swap3\n        /* \"#utility.yul\":5432:5444   */\n      swap1\n      swap2\n      add\n      swap1\n        /* \"#utility.yul\":5320:5321   */\n      0x01\n        /* \"#utility.yul\":5313:5322   */\n      add\n        /* \"#utility.yul\":5284:5492   */\n      jump(tag_406)\n    tag_408:\n      pop\n        /* \"#utility.yul\":5509:5512   */\n      swap6\n        /* \"#utility.yul\":4903:5518   */\n      swap5\n      pop\n      pop\n      pop\n      pop\n      pop\n      jump\t// out\n        /* \"#utility.yul\":5936:6120   */\n    tag_220:\n        /* \"#utility.yul\":6006:6012   */\n      0x00\n        /* \"#utility.yul\":6059:6061   */\n      0x20\n        /* \"#utility.yul\":6047:6056   */\n      dup3\n        /* \"#utility.yul\":6038:6045   */\n      dup5\n        /* \"#utility.yul\":6034:6057   */\n      sub\n        /* \"#utility.yul\":6030:6062   */\n      slt\n        /* \"#utility.yul\":6027:6079   */\n      iszero\n      tag_412\n      jumpi\n        /* \"#utility.yul\":6075:6076   */\n      0x00\n        /* \"#utility.yul\":6072:6073   */\n      dup1\n        /* \"#utility.yul\":6065:6077   */\n      revert\n        /* \"#utility.yul\":6027:6079   */\n    tag_412:\n      pop\n        /* \"#utility.yul\":6098:6114   */\n      mload\n      swap2\n        /* \"#utility.yul\":5936:6120   */\n      swap1\n      pop\n      jump\t// out\n        /* \"#utility.yul\":7988:8220   */\n    tag_259:\n        /* \"#utility.yul\":8027:8030   */\n      0x00\n        /* \"#utility.yul\":8048:8065   */\n      0x01\n      dup3\n      add\n        /* \"#utility.yul\":8045:8185   */\n      tag_419\n      jumpi\n        /* \"#utility.yul\":8107:8117   */\n      0x4e487b71\n        /* \"#utility.yul\":8102:8105   */\n      0xe0\n        /* \"#utility.yul\":8098:8118   */\n      shl\n        /* \"#utility.yul\":8095:8096   */\n      0x00\n        /* \"#utility.yul\":8088:8119   */\n      mstore\n        /* \"#utility.yul\":8142:8146   */\n      0x11\n        /* \"#utility.yul\":8139:8140   */\n      0x04\n        /* \"#utility.yul\":8132:8147   */\n      mstore\n        /* \"#utility.yul\":8170:8174   */\n      0x24\n        /* \"#utility.yul\":8167:8168   */\n      0x00\n        /* \"#utility.yul\":8160:8175   */\n      revert\n        /* \"#utility.yul\":8045:8185   */\n    tag_419:\n      pop\n        /* \"#utility.yul\":8212:8213   */\n      0x01\n        /* \"#utility.yul\":8201:8214   */\n      add\n      swap1\n        /* \"#utility.yul\":7988:8220   */\n      jump\t// out\n        /* \"#utility.yul\":8225:8352   */\n    tag_262:\n        /* \"#utility.yul\":8286:8296   */\n      0x4e487b71\n        /* \"#utility.yul\":8281:8284   */\n      0xe0\n        /* \"#utility.yul\":8277:8297   */\n      shl\n        /* \"#utility.yul\":8274:8275   */\n      0x00\n        /* \"#utility.yul\":8267:8298   */\n      mstore\n        /* \"#utility.yul\":8317:8321   */\n      0x41\n        /* \"#utility.yul\":8314:8315   */\n      0x04\n        /* \"#utility.yul\":8307:8322   */\n      mstore\n        /* \"#utility.yul\":8341:8345   */\n      0x24\n        /* \"#utility.yul\":8338:8339   */\n      0x00\n        /* \"#utility.yul\":8331:8346   */\n      revert\n        /* \"#utility.yul\":10040:10317   */\n    tag_327:\n        /* \"#utility.yul\":10107:10113   */\n      0x00\n        /* \"#utility.yul\":10160:10162   */\n      0x20\n        /* \"#utility.yul\":10148:10157   */\n      dup3\n        /* \"#utility.yul\":10139:10146   */\n      dup5\n        /* \"#utility.yul\":10135:10158   */\n      sub\n        /* \"#utility.yul\":10131:10163   */\n      slt\n        /* \"#utility.yul\":10128:10180   */\n      iszero\n      tag_427\n      jumpi\n        /* \"#utility.yul\":10176:10177   */\n      0x00\n        /* \"#utility.yul\":10173:10174   */\n      dup1\n        /* \"#utility.yul\":10166:10178   */\n      revert\n        /* \"#utility.yul\":10128:10180   */\n    tag_427:\n        /* \"#utility.yul\":10208:10217   */\n      dup2\n        /* \"#utility.yul\":10202:10218   */\n      mload\n        /* \"#utility.yul\":10261:10266   */\n      dup1\n        /* \"#utility.yul\":10254:10267   */\n      iszero\n        /* \"#utility.yul\":10247:10268   */\n      iszero\n        /* \"#utility.yul\":10240:10245   */\n      dup2\n        /* \"#utility.yul\":10237:10269   */\n      eq\n        /* \"#utility.yul\":10227:10287   */\n      tag_386\n      jumpi\n        /* \"#utility.yul\":10283:10284   */\n      0x00\n        /* \"#utility.yul\":10280:10281   */\n      dup1\n        /* \"#utility.yul\":10273:10285   */\n      revert\n\n    auxdata: 0xa2646970667358221220097b67d29e725267d3e70953c392031f7f6a225919b15d7d3fa9c38784e6a47064736f6c634300081c0033\n}\n",
				"bytecode": {
					"linkReferences": {},
					"object": "60a060405234801561001057600080fd5b50604051611a8f380380611a8f83398101604081905261002f9161027f565b836001600160a01b03811661005f57604051631e4fbdf760e01b8152600060048201526024015b60405180910390fd5b61006881610213565b50600180556002805460ff191690556001600160a01b0381166100dd5760405162461bcd60e51b815260206004820152602760248201527f5a65726f206164647265737320676976656e20666f722063555344546f6b656e6044820152664164647265737360c81b6064820152608401610056565b6001600160a01b03841661014a5760405162461bcd60e51b815260206004820152602e60248201527f5a65726f206164647265737320676976656e20666f722072657365617263686560448201526d7257616c6c65744164647265737360901b6064820152608401610056565b6000831161019a5760405162461bcd60e51b815260206004820152601560248201527f496e76616c69642072657761726420616d6f756e7400000000000000000000006044820152606401610056565b600082116101f85760405162461bcd60e51b815260206004820152602560248201527f496e76616c6964206e756d626572206f6620746172676574207061727469636960448201526470616e747360d81b6064820152608401610056565b6001600160a01b0316608052600591909155600655506102c6565b600080546001600160a01b038381166001600160a01b0319831681178455604051919092169283917f8be0079c531659141344cd1fd0a4f28419497f9722a3daafe3b4186f6b6457e09190a35050565b80516001600160a01b038116811461027a57600080fd5b919050565b6000806000806080858703121561029557600080fd5b61029e85610263565b60208601516040870151919550935091506102bb60608601610263565b905092959194509250565b60805161178b610304600039600081816101980152818161094b01528181610fd5015281816110ad0152818161112401526113b4015261178b6000f3fe608060405234801561001057600080fd5b506004361061018e5760003560e01c806398b48493116100de578063c25a02ec11610097578063e082fe2a11610071578063e082fe2a14610354578063f22069df1461035c578063f2fde38b14610364578063fc05542a1461037757600080fd5b8063c25a02ec14610330578063d335993a14610339578063d90843261461034c57600080fd5b806398b48493146102bb5780639a0474e8146102ce578063a0858343146102e1578063a34db0a0146102f4578063a6a0981114610314578063b07029131461031d57600080fd5b80636ff65c201161014b578063741ae61411610125578063741ae6141461026c5780637a0abf0814610274578063857370201461027d5780638da5cb5b146102aa57600080fd5b80636ff65c20146102305780637069243c1461025c578063715018a61461026457600080fd5b80631fccf672146101935780633960fc66146101d7578063528780cc146101e15780635c975abb146101f457806364bb632f1461020b5780636fa1c59d1461021e575b600080fd5b6101ba7f000000000000000000000000000000000000000000000000000000000000000081565b6040516001600160a01b0390911681526020015b60405180910390f35b6101df6103a3565b005b6101df6101ef366004611535565b6103b5565b60025460ff165b60405190151581526020016101ce565b6101df610219366004611535565b61046c565b6006545b6040519081526020016101ce565b6101fb61023e36600461156a565b6001600160a01b031660009081526004602052604090205460ff1690565b600554610222565b6101df610504565b600754610222565b61022260055481565b6101fb61028b36600461156a565b6001600160a01b031660009081526003602052604090205460ff161590565b6000546001600160a01b03166101ba565b6101df6102c936600461158c565b610516565b6101df6102dc36600461158c565b61071d565b6101df6102ef36600461156a565b610923565b61030761030236600461158c565b610bc4565b6040516101ce9190611603565b61022260065481565b6101df61032b36600461156a565b610d71565b61022260085481565b6101df61034736600461156a565b610e8e565b600854610222565b6101df610f9d565b6101df610fad565b6101df61037236600461156a565b61122d565b6101fb61038536600461156a565b6001600160a01b031660009081526003602052604090205460ff1690565b6103ab611268565b6103b3611295565b565b6103bd611268565b806000036104235760405162461bcd60e51b815260206004820152602860248201527f5a65726f206e756d626572206f6620746172676574207061727469636970616e6044820152673a399033b4bb32b760c11b60648201526084015b60405180910390fd5b6006805490829055604080518281526020810184905283917f2e31e8893a04ce5258044d342d7658948a6ac9710d97e32462ab75f131ae11ef91015b60405180910390a1505050565b610474611268565b806000036104c45760405162461bcd60e51b815260206004820152601860248201527f5a65726f2072657761726420616d6f756e7420676976656e0000000000000000604482015260640161041a565b6005805490829055604080518281526020810184905283917ff0d37c3ae852021ac329281f604b658691cbfa6b9e9c22909f06b64a8ce87c94910161045f565b61050c611268565b6103b360006112e7565b61051e611268565b808061053c5760405162461bcd60e51b815260040161041a9061164f565b60005b8181101561067857600084848381811061055b5761055b61167c565b9050602002016020810190610570919061156a565b6001600160a01b0316036105c65760405162461bcd60e51b815260206004820152601d60248201527f4f6e652f6d6f7265207a65726f2061646472657373657320676976656e000000604482015260640161041a565b600360008585848181106105dc576105dc61167c565b90506020020160208101906105f1919061156a565b6001600160a01b0316815260208101919091526040016000205460ff16156106705760405162461bcd60e51b815260206004820152602c60248201527f4f6e652f6d6f726520676976656e2061646472657373657320616c726561647960448201526b081dda1a5d195b1a5cdd195960a21b606482015260840161041a565b60010161053f565b5060005b818110156106eb5760016003600086868581811061069c5761069c61167c565b90506020020160208101906106b1919061156a565b6001600160a01b031681526020810191909152604001600020805460ff19169115159190911790556008805460019081019091550161067c565b507f9a9f2a64a3b0b4774da60129aa707715e049cb95062f7acaaffc07ddc244c1cc838360405161045f929190611692565b610725611268565b80806107435760405162461bcd60e51b815260040161041a9061164f565b60005b8181101561087e5760008484838181106107625761076261167c565b9050602002016020810190610777919061156a565b6001600160a01b0316036107cd5760405162461bcd60e51b815260206004820152601d60248201527f4f6e652f6d6f7265207a65726f2061646472657373657320676976656e000000604482015260640161041a565b600360008585848181106107e3576107e361167c565b90506020020160208101906107f8919061156a565b6001600160a01b0316815260208101919091526040016000205460ff166108765760405162461bcd60e51b815260206004820152602c60248201527f4f6e652f6d6f726520676976656e2061646472657373657320616c726561647960448201526b08189b1858dadb1a5cdd195960a21b606482015260840161041a565b600101610746565b5060005b818110156108f1576000600360008686858181106108a2576108a261167c565b90506020020160208101906108b7919061156a565b6001600160a01b031681526020810191909152604001600020805460ff191691151591909117905560088054600019019055600101610882565b507fd68b41369d54faca53e699320360840db6e0e2e175d3974eb304fd18713d916b838360405161045f929190611692565b61092b611337565b61093361135b565b6005546040516370a0823160e01b81523060048201527f00000000000000000000000000000000000000000000000000000000000000006001600160a01b0316906370a0823190602401602060405180830381865afa15801561099a573d6000803e3d6000fd5b505050506040513d601f19601f820116820180604052508101906109be91906116dd565b1015610a175760405162461bcd60e51b815260206004820152602260248201527f436f6e747261637420646f6573206e6f74206861766520656e6f75676820635560448201526114d160f21b606482015260840161041a565b60065460075410610a765760405162461bcd60e51b815260206004820152602360248201527f416c6c207061727469636970616e74732068617665206265656e20726577617260448201526219195960ea1b606482015260840161041a565b80336001600160a01b03821614610ac35760405162461bcd60e51b815260206004820152601160248201527027b7363c903b30b634b21039b2b73232b960791b604482015260640161041a565b6001600160a01b038216600090815260036020526040902054829060ff16610b2d5760405162461bcd60e51b815260206004820152601860248201527f4f6e6c792077686974656c697374656420616464726573730000000000000000604482015260640161041a565b6001600160a01b038316600090815260046020526040902054839060ff1615610b985760405162461bcd60e51b815260206004820152601c60248201527f5061727469636970616e7420616c726561647920726577617264656400000000604482015260640161041a565b6000610ba385611385565b90508015610bb457610bb485611481565b50505050610bc160018055565b50565b6060816000819003610be85760405162461bcd60e51b815260040161041a9061164f565b6000805b82811015610c575760036000878784818110610c0a57610c0a61167c565b9050602002016020810190610c1f919061156a565b6001600160a01b0316815260208101919091526040016000205460ff1615610c4f5781610c4b816116f6565b9250505b600101610bec565b5060008167ffffffffffffffff811115610c7357610c7361171d565b604051908082528060200260200182016040528015610c9c578160200160208202803683370190505b5090506000805b84811015610d655760036000898984818110610cc157610cc161167c565b9050602002016020810190610cd6919061156a565b6001600160a01b0316815260208101919091526040016000205460ff1615610d5d57878782818110610d0a57610d0a61167c565b9050602002016020810190610d1f919061156a565b8383610d2a816116f6565b945081518110610d3c57610d3c61167c565b60200260200101906001600160a01b031690816001600160a01b0316815250505b600101610ca3565b50909695505050505050565b610d79611268565b6001600160a01b038116600090815260036020526040902054819060ff1615610dda5760405162461bcd60e51b8152602060048201526013602482015272135d5cdd08189948189b1858dadb1a5cdd1959606a1b604482015260640161041a565b6001600160a01b038216610e265760405162461bcd60e51b815260206004820152601360248201527216995c9bc81859191c995cdcc81c185cdcd959606a1b604482015260640161041a565b6001600160a01b038216600081815260036020908152604091829020805460ff1916600190811790915560088054909101905590519182527f1afde38c60d2be0d28d001619816d86c39ce78b350c9d94f23c095099b9c1d2791015b60405180910390a15050565b610e96611268565b6001600160a01b038116600090815260036020526040902054819060ff16610ef65760405162461bcd60e51b8152602060048201526013602482015272135d5cdd081899481dda1a5d195b1a5cdd1959606a1b604482015260640161041a565b6001600160a01b038216610f425760405162461bcd60e51b815260206004820152601360248201527216995c9bc81859191c995cdcc81c185cdcd959606a1b604482015260640161041a565b6001600160a01b038216600081815260036020908152604091829020805460ff191690556008805460001901905590519182527fa354190dd7342316e40e5358c9f72037f2c677cdc057d3debbc4f1b62495e2e29101610e82565b610fa5611268565b6103b36114d5565b610fb5611268565b610fbd611337565b6040516370a0823160e01b81523060048201526000907f00000000000000000000000000000000000000000000000000000000000000006001600160a01b0316906370a0823190602401602060405180830381865afa158015611024573d6000803e3d6000fd5b505050506040513d601f19601f8201168201806040525081019061104891906116dd565b116110955760405162461bcd60e51b815260206004820152601f60248201527f436f6e747261637420646f6573206e6f74206861766520616e79206355534400604482015260640161041a565b6040516370a0823160e01b81523060048201526000907f00000000000000000000000000000000000000000000000000000000000000006001600160a01b0316906370a0823190602401602060405180830381865afa1580156110fc573d6000803e3d6000fd5b505050506040513d601f19601f8201168201806040525081019061112091906116dd565b90507f00000000000000000000000000000000000000000000000000000000000000006001600160a01b031663a9059cbb6111636000546001600160a01b031690565b6040516001600160e01b031960e084901b1681526001600160a01b039091166004820152602481018490526044016020604051808303816000875af11580156111b0573d6000803e3d6000fd5b505050506040513d601f19601f820116820180604052508101906111d49190611733565b507f2036b9b38b69a2fa490ee702733a29cd2550accc20bc96e786cb9beedc7790976112086000546001600160a01b031690565b604080516001600160a01b03909216825260208201849052015b60405180910390a150565b611235611268565b6001600160a01b03811661125f57604051631e4fbdf760e01b81526000600482015260240161041a565b610bc1816112e7565b6000546001600160a01b031633146103b35760405163118cdaa760e01b815233600482015260240161041a565b61129d611512565b6002805460ff191690557f5db9ee0a495bf2e6ff9c91a7834c1ba4fdd244a5e8aa4e537bd38aeae4b073aa335b6040516001600160a01b03909116815260200160405180910390a1565b600080546001600160a01b038381166001600160a01b0319831681178455604051919092169283917f8be0079c531659141344cd1fd0a4f28419497f9722a3daafe3b4186f6b6457e09190a35050565b60025460ff16156103b35760405163d93c066560e01b815260040160405180910390fd5b60026001540361137e57604051633ee5aeb560e01b815260040160405180910390fd5b6002600155565b60055460405163a9059cbb60e01b81526001600160a01b038381166004830152602482019290925260009182917f00000000000000000000000000000000000000000000000000000000000000009091169063a9059cbb906044016020604051808303816000875af11580156113ff573d6000803e3d6000fd5b505050506040513d601f19601f820116820180604052508101906114239190611733565b9050801561147b57600780546001019055600554604080516001600160a01b038616815260208101929092527f8934d7a9692e763e356fd30d84ca5f61a737b35c5ccd5d31d4f140310267b73e910160405180910390a15b92915050565b6001600160a01b038116600081815260046020908152604091829020805460ff1916600117905590519182527f654c9a027765e6feb862f42d438e9f6948f9ee31113e379f0372b30efc7229439101611222565b6114dd611337565b6002805460ff191660011790557f62e78cea01bee320cd4e420270b5ea74000d11b0c9f74754ebdbfc544b05a2586112ca3390565b60025460ff166103b357604051638dfc202b60e01b815260040160405180910390fd5b60006020828403121561154757600080fd5b5035919050565b80356001600160a01b038116811461156557600080fd5b919050565b60006020828403121561157c57600080fd5b6115858261154e565b9392505050565b6000806020838503121561159f57600080fd5b823567ffffffffffffffff8111156115b657600080fd5b8301601f810185136115c757600080fd5b803567ffffffffffffffff8111156115de57600080fd5b8560208260051b84010111156115f357600080fd5b6020919091019590945092505050565b602080825282518282018190526000918401906040840190835b818110156116445783516001600160a01b031683526020938401939092019160010161161d565b509095945050505050565b602080825260139082015272139bc81859191c995cdcd95cc81c185cdcd959606a1b604082015260600190565b634e487b7160e01b600052603260045260246000fd5b6020808252810182905260008360408301825b858110156116d3576001600160a01b036116be8461154e565b168252602092830192909101906001016116a5565b5095945050505050565b6000602082840312156116ef57600080fd5b5051919050565b60006001820161171657634e487b7160e01b600052601160045260246000fd5b5060010190565b634e487b7160e01b600052604160045260246000fd5b60006020828403121561174557600080fd5b8151801515811461158557600080fdfea2646970667358221220097b67d29e725267d3e70953c392031f7f6a225919b15d7d3fa9c38784e6a47064736f6c634300081c0033",
					"opcodes": "PUSH1 0xA0 PUSH1 0x40 MSTORE CALLVALUE DUP1 ISZERO PUSH2 0x10 JUMPI PUSH1 0x0 DUP1 REVERT JUMPDEST POP PUSH1 0x40 MLOAD PUSH2 0x1A8F CODESIZE SUB DUP1 PUSH2 0x1A8F DUP4 CODECOPY DUP2 ADD PUSH1 0x40 DUP2 SWAP1 MSTORE PUSH2 0x2F SWAP2 PUSH2 0x27F JUMP JUMPDEST DUP4 PUSH1 0x1 PUSH1 0x1 PUSH1 0xA0 SHL SUB DUP2 AND PUSH2 0x5F JUMPI PUSH1 0x40 MLOAD PUSH4 0x1E4FBDF7 PUSH1 0xE0 SHL DUP2 MSTORE PUSH1 0x0 PUSH1 0x4 DUP3 ADD MSTORE PUSH1 0x24 ADD JUMPDEST PUSH1 0x40 MLOAD DUP1 SWAP2 SUB SWAP1 REVERT JUMPDEST PUSH2 0x68 DUP2 PUSH2 0x213 JUMP JUMPDEST POP PUSH1 0x1 DUP1 SSTORE PUSH1 0x2 DUP1 SLOAD PUSH1 0xFF NOT AND SWAP1 SSTORE PUSH1 0x1 PUSH1 0x1 PUSH1 0xA0 SHL SUB DUP2 AND PUSH2 0xDD JUMPI PUSH1 0x40 MLOAD PUSH3 0x461BCD PUSH1 0xE5 SHL DUP2 MSTORE PUSH1 0x20 PUSH1 0x4 DUP3 ADD MSTORE PUSH1 0x27 PUSH1 0x24 DUP3 ADD MSTORE PUSH32 0x5A65726F206164647265737320676976656E20666F722063555344546F6B656E PUSH1 0x44 DUP3 ADD MSTORE PUSH7 0x41646472657373 PUSH1 0xC8 SHL PUSH1 0x64 DUP3 ADD MSTORE PUSH1 0x84 ADD PUSH2 0x56 JUMP JUMPDEST PUSH1 0x1 PUSH1 0x1 PUSH1 0xA0 SHL SUB DUP5 AND PUSH2 0x14A JUMPI PUSH1 0x40 MLOAD PUSH3 0x461BCD PUSH1 0xE5 SHL DUP2 MSTORE PUSH1 0x20 PUSH1 0x4 DUP3 ADD MSTORE PUSH1 0x2E PUSH1 0x24 DUP3 ADD MSTORE PUSH32 0x5A65726F206164647265737320676976656E20666F7220726573656172636865 PUSH1 0x44 DUP3 ADD MSTORE PUSH14 0x7257616C6C657441646472657373 PUSH1 0x90 SHL PUSH1 0x64 DUP3 ADD MSTORE PUSH1 0x84 ADD PUSH2 0x56 JUMP JUMPDEST PUSH1 0x0 DUP4 GT PUSH2 0x19A JUMPI PUSH1 0x40 MLOAD PUSH3 0x461BCD PUSH1 0xE5 SHL DUP2 MSTORE PUSH1 0x20 PUSH1 0x4 DUP3 ADD MSTORE PUSH1 0x15 PUSH1 0x24 DUP3 ADD MSTORE PUSH32 0x496E76616C69642072657761726420616D6F756E740000000000000000000000 PUSH1 0x44 DUP3 ADD MSTORE PUSH1 0x64 ADD PUSH2 0x56 JUMP JUMPDEST PUSH1 0x0 DUP3 GT PUSH2 0x1F8 JUMPI PUSH1 0x40 MLOAD PUSH3 0x461BCD PUSH1 0xE5 SHL DUP2 MSTORE PUSH1 0x20 PUSH1 0x4 DUP3 ADD MSTORE PUSH1 0x25 PUSH1 0x24 DUP3 ADD MSTORE PUSH32 0x496E76616C6964206E756D626572206F66207461726765742070617274696369 PUSH1 0x44 DUP3 ADD MSTORE PUSH5 0x70616E7473 PUSH1 0xD8 SHL PUSH1 0x64 DUP3 ADD MSTORE PUSH1 0x84 ADD PUSH2 0x56 JUMP JUMPDEST PUSH1 0x1 PUSH1 0x1 PUSH1 0xA0 SHL SUB AND PUSH1 0x80 MSTORE PUSH1 0x5 SWAP2 SWAP1 SWAP2 SSTORE PUSH1 0x6 SSTORE POP PUSH2 0x2C6 JUMP JUMPDEST PUSH1 0x0 DUP1 SLOAD PUSH1 0x1 PUSH1 0x1 PUSH1 0xA0 SHL SUB DUP4 DUP2 AND PUSH1 0x1 PUSH1 0x1 PUSH1 0xA0 SHL SUB NOT DUP4 AND DUP2 OR DUP5 SSTORE PUSH1 0x40 MLOAD SWAP2 SWAP1 SWAP3 AND SWAP3 DUP4 SWAP2 PUSH32 0x8BE0079C531659141344CD1FD0A4F28419497F9722A3DAAFE3B4186F6B6457E0 SWAP2 SWAP1 LOG3 POP POP JUMP JUMPDEST DUP1 MLOAD PUSH1 0x1 PUSH1 0x1 PUSH1 0xA0 SHL SUB DUP2 AND DUP2 EQ PUSH2 0x27A JUMPI PUSH1 0x0 DUP1 REVERT JUMPDEST SWAP2 SWAP1 POP JUMP JUMPDEST PUSH1 0x0 DUP1 PUSH1 0x0 DUP1 PUSH1 0x80 DUP6 DUP8 SUB SLT ISZERO PUSH2 0x295 JUMPI PUSH1 0x0 DUP1 REVERT JUMPDEST PUSH2 0x29E DUP6 PUSH2 0x263 JUMP JUMPDEST PUSH1 0x20 DUP7 ADD MLOAD PUSH1 0x40 DUP8 ADD MLOAD SWAP2 SWAP6 POP SWAP4 POP SWAP2 POP PUSH2 0x2BB PUSH1 0x60 DUP7 ADD PUSH2 0x263 JUMP JUMPDEST SWAP1 POP SWAP3 SWAP6 SWAP2 SWAP5 POP SWAP3 POP JUMP JUMPDEST PUSH1 0x80 MLOAD PUSH2 0x178B PUSH2 0x304 PUSH1 0x0 CODECOPY PUSH1 0x0 DUP2 DUP2 PUSH2 0x198 ADD MSTORE DUP2 DUP2 PUSH2 0x94B ADD MSTORE DUP2 DUP2 PUSH2 0xFD5 ADD MSTORE DUP2 DUP2 PUSH2 0x10AD ADD MSTORE DUP2 DUP2 PUSH2 0x1124 ADD MSTORE PUSH2 0x13B4 ADD MSTORE PUSH2 0x178B PUSH1 0x0 RETURN INVALID PUSH1 0x80 PUSH1 0x40 MSTORE CALLVALUE DUP1 ISZERO PUSH2 0x10 JUMPI PUSH1 0x0 DUP1 REVERT JUMPDEST POP PUSH1 0x4 CALLDATASIZE LT PUSH2 0x18E JUMPI PUSH1 0x0 CALLDATALOAD PUSH1 0xE0 SHR DUP1 PUSH4 0x98B48493 GT PUSH2 0xDE JUMPI DUP1 PUSH4 0xC25A02EC GT PUSH2 0x97 JUMPI DUP1 PUSH4 0xE082FE2A GT PUSH2 0x71 JUMPI DUP1 PUSH4 0xE082FE2A EQ PUSH2 0x354 JUMPI DUP1 PUSH4 0xF22069DF EQ PUSH2 0x35C JUMPI DUP1 PUSH4 0xF2FDE38B EQ PUSH2 0x364 JUMPI DUP1 PUSH4 0xFC05542A EQ PUSH2 0x377 JUMPI PUSH1 0x0 DUP1 REVERT JUMPDEST DUP1 PUSH4 0xC25A02EC EQ PUSH2 0x330 JUMPI DUP1 PUSH4 0xD335993A EQ PUSH2 0x339 JUMPI DUP1 PUSH4 0xD9084326 EQ PUSH2 0x34C JUMPI PUSH1 0x0 DUP1 REVERT JUMPDEST DUP1 PUSH4 0x98B48493 EQ PUSH2 0x2BB JUMPI DUP1 PUSH4 0x9A0474E8 EQ PUSH2 0x2CE JUMPI DUP1 PUSH4 0xA0858343 EQ PUSH2 0x2E1 JUMPI DUP1 PUSH4 0xA34DB0A0 EQ PUSH2 0x2F4 JUMPI DUP1 PUSH4 0xA6A09811 EQ PUSH2 0x314 JUMPI DUP1 PUSH4 0xB0702913 EQ PUSH2 0x31D JUMPI PUSH1 0x0 DUP1 REVERT JUMPDEST DUP1 PUSH4 0x6FF65C20 GT PUSH2 0x14B JUMPI DUP1 PUSH4 0x741AE614 GT PUSH2 0x125 JUMPI DUP1 PUSH4 0x741AE614 EQ PUSH2 0x26C JUMPI DUP1 PUSH4 0x7A0ABF08 EQ PUSH2 0x274 JUMPI DUP1 PUSH4 0x85737020 EQ PUSH2 0x27D JUMPI DUP1 PUSH4 0x8DA5CB5B EQ PUSH2 0x2AA JUMPI PUSH1 0x0 DUP1 REVERT JUMPDEST DUP1 PUSH4 0x6FF65C20 EQ PUSH2 0x230 JUMPI DUP1 PUSH4 0x7069243C EQ PUSH2 0x25C JUMPI DUP1 PUSH4 0x715018A6 EQ PUSH2 0x264 JUMPI PUSH1 0x0 DUP1 REVERT JUMPDEST DUP1 PUSH4 0x1FCCF672 EQ PUSH2 0x193 JUMPI DUP1 PUSH4 0x3960FC66 EQ PUSH2 0x1D7 JUMPI DUP1 PUSH4 0x528780CC EQ PUSH2 0x1E1 JUMPI DUP1 PUSH4 0x5C975ABB EQ PUSH2 0x1F4 JUMPI DUP1 PUSH4 0x64BB632F EQ PUSH2 0x20B JUMPI DUP1 PUSH4 0x6FA1C59D EQ PUSH2 0x21E JUMPI JUMPDEST PUSH1 0x0 DUP1 REVERT JUMPDEST PUSH2 0x1BA PUSH32 0x0 DUP2 JUMP JUMPDEST PUSH1 0x40 MLOAD PUSH1 0x1 PUSH1 0x1 PUSH1 0xA0 SHL SUB SWAP1 SWAP2 AND DUP2 MSTORE PUSH1 0x20 ADD JUMPDEST PUSH1 0x40 MLOAD DUP1 SWAP2 SUB SWAP1 RETURN JUMPDEST PUSH2 0x1DF PUSH2 0x3A3 JUMP JUMPDEST STOP JUMPDEST PUSH2 0x1DF PUSH2 0x1EF CALLDATASIZE PUSH1 0x4 PUSH2 0x1535 JUMP JUMPDEST PUSH2 0x3B5 JUMP JUMPDEST PUSH1 0x2 SLOAD PUSH1 0xFF AND JUMPDEST PUSH1 0x40 MLOAD SWAP1 ISZERO ISZERO DUP2 MSTORE PUSH1 0x20 ADD PUSH2 0x1CE JUMP JUMPDEST PUSH2 0x1DF PUSH2 0x219 CALLDATASIZE PUSH1 0x4 PUSH2 0x1535 JUMP JUMPDEST PUSH2 0x46C JUMP JUMPDEST PUSH1 0x6 SLOAD JUMPDEST PUSH1 0x40 MLOAD SWAP1 DUP2 MSTORE PUSH1 0x20 ADD PUSH2 0x1CE JUMP JUMPDEST PUSH2 0x1FB PUSH2 0x23E CALLDATASIZE PUSH1 0x4 PUSH2 0x156A JUMP JUMPDEST PUSH1 0x1 PUSH1 0x1 PUSH1 0xA0 SHL SUB AND PUSH1 0x0 SWAP1 DUP2 MSTORE PUSH1 0x4 PUSH1 0x20 MSTORE PUSH1 0x40 SWAP1 KECCAK256 SLOAD PUSH1 0xFF AND SWAP1 JUMP JUMPDEST PUSH1 0x5 SLOAD PUSH2 0x222 JUMP JUMPDEST PUSH2 0x1DF PUSH2 0x504 JUMP JUMPDEST PUSH1 0x7 SLOAD PUSH2 0x222 JUMP JUMPDEST PUSH2 0x222 PUSH1 0x5 SLOAD DUP2 JUMP JUMPDEST PUSH2 0x1FB PUSH2 0x28B CALLDATASIZE PUSH1 0x4 PUSH2 0x156A JUMP JUMPDEST PUSH1 0x1 PUSH1 0x1 PUSH1 0xA0 SHL SUB AND PUSH1 0x0 SWAP1 DUP2 MSTORE PUSH1 0x3 PUSH1 0x20 MSTORE PUSH1 0x40 SWAP1 KECCAK256 SLOAD PUSH1 0xFF AND ISZERO SWAP1 JUMP JUMPDEST PUSH1 0x0 SLOAD PUSH1 0x1 PUSH1 0x1 PUSH1 0xA0 SHL SUB AND PUSH2 0x1BA JUMP JUMPDEST PUSH2 0x1DF PUSH2 0x2C9 CALLDATASIZE PUSH1 0x4 PUSH2 0x158C JUMP JUMPDEST PUSH2 0x516 JUMP JUMPDEST PUSH2 0x1DF PUSH2 0x2DC CALLDATASIZE PUSH1 0x4 PUSH2 0x158C JUMP JUMPDEST PUSH2 0x71D JUMP JUMPDEST PUSH2 0x1DF PUSH2 0x2EF CALLDATASIZE PUSH1 0x4 PUSH2 0x156A JUMP JUMPDEST PUSH2 0x923 JUMP JUMPDEST PUSH2 0x307 PUSH2 0x302 CALLDATASIZE PUSH1 0x4 PUSH2 0x158C JUMP JUMPDEST PUSH2 0xBC4 JUMP JUMPDEST PUSH1 0x40 MLOAD PUSH2 0x1CE SWAP2 SWAP1 PUSH2 0x1603 JUMP JUMPDEST PUSH2 0x222 PUSH1 0x6 SLOAD DUP2 JUMP JUMPDEST PUSH2 0x1DF PUSH2 0x32B CALLDATASIZE PUSH1 0x4 PUSH2 0x156A JUMP JUMPDEST PUSH2 0xD71 JUMP JUMPDEST PUSH2 0x222 PUSH1 0x8 SLOAD DUP2 JUMP JUMPDEST PUSH2 0x1DF PUSH2 0x347 CALLDATASIZE PUSH1 0x4 PUSH2 0x156A JUMP JUMPDEST PUSH2 0xE8E JUMP JUMPDEST PUSH1 0x8 SLOAD PUSH2 0x222 JUMP JUMPDEST PUSH2 0x1DF PUSH2 0xF9D JUMP JUMPDEST PUSH2 0x1DF PUSH2 0xFAD JUMP JUMPDEST PUSH2 0x1DF PUSH2 0x372 CALLDATASIZE PUSH1 0x4 PUSH2 0x156A JUMP JUMPDEST PUSH2 0x122D JUMP JUMPDEST PUSH2 0x1FB PUSH2 0x385 CALLDATASIZE PUSH1 0x4 PUSH2 0x156A JUMP JUMPDEST PUSH1 0x1 PUSH1 0x1 PUSH1 0xA0 SHL SUB AND PUSH1 0x0 SWAP1 DUP2 MSTORE PUSH1 0x3 PUSH1 0x20 MSTORE PUSH1 0x40 SWAP1 KECCAK256 SLOAD PUSH1 0xFF AND SWAP1 JUMP JUMPDEST PUSH2 0x3AB PUSH2 0x1268 JUMP JUMPDEST PUSH2 0x3B3 PUSH2 0x1295 JUMP JUMPDEST JUMP JUMPDEST PUSH2 0x3BD PUSH2 0x1268 JUMP JUMPDEST DUP1 PUSH1 0x0 SUB PUSH2 0x423 JUMPI PUSH1 0x40 MLOAD PUSH3 0x461BCD PUSH1 0xE5 SHL DUP2 MSTORE PUSH1 0x20 PUSH1 0x4 DUP3 ADD MSTORE PUSH1 0x28 PUSH1 0x24 DUP3 ADD MSTORE PUSH32 0x5A65726F206E756D626572206F6620746172676574207061727469636970616E PUSH1 0x44 DUP3 ADD MSTORE PUSH8 0x3A399033B4BB32B7 PUSH1 0xC1 SHL PUSH1 0x64 DUP3 ADD MSTORE PUSH1 0x84 ADD JUMPDEST PUSH1 0x40 MLOAD DUP1 SWAP2 SUB SWAP1 REVERT JUMPDEST PUSH1 0x6 DUP1 SLOAD SWAP1 DUP3 SWAP1 SSTORE PUSH1 0x40 DUP1 MLOAD DUP3 DUP2 MSTORE PUSH1 0x20 DUP2 ADD DUP5 SWAP1 MSTORE DUP4 SWAP2 PUSH32 0x2E31E8893A04CE5258044D342D7658948A6AC9710D97E32462AB75F131AE11EF SWAP2 ADD JUMPDEST PUSH1 0x40 MLOAD DUP1 SWAP2 SUB SWAP1 LOG1 POP POP POP JUMP JUMPDEST PUSH2 0x474 PUSH2 0x1268 JUMP JUMPDEST DUP1 PUSH1 0x0 SUB PUSH2 0x4C4 JUMPI PUSH1 0x40 MLOAD PUSH3 0x461BCD PUSH1 0xE5 SHL DUP2 MSTORE PUSH1 0x20 PUSH1 0x4 DUP3 ADD MSTORE PUSH1 0x18 PUSH1 0x24 DUP3 ADD MSTORE PUSH32 0x5A65726F2072657761726420616D6F756E7420676976656E0000000000000000 PUSH1 0x44 DUP3 ADD MSTORE PUSH1 0x64 ADD PUSH2 0x41A JUMP JUMPDEST PUSH1 0x5 DUP1 SLOAD SWAP1 DUP3 SWAP1 SSTORE PUSH1 0x40 DUP1 MLOAD DUP3 DUP2 MSTORE PUSH1 0x20 DUP2 ADD DUP5 SWAP1 MSTORE DUP4 SWAP2 PUSH32 0xF0D37C3AE852021AC329281F604B658691CBFA6B9E9C22909F06B64A8CE87C94 SWAP2 ADD PUSH2 0x45F JUMP JUMPDEST PUSH2 0x50C PUSH2 0x1268 JUMP JUMPDEST PUSH2 0x3B3 PUSH1 0x0 PUSH2 0x12E7 JUMP JUMPDEST PUSH2 0x51E PUSH2 0x1268 JUMP JUMPDEST DUP1 DUP1 PUSH2 0x53C JUMPI PUSH1 0x40 MLOAD PUSH3 0x461BCD PUSH1 0xE5 SHL DUP2 MSTORE PUSH1 0x4 ADD PUSH2 0x41A SWAP1 PUSH2 0x164F JUMP JUMPDEST PUSH1 0x0 JUMPDEST DUP2 DUP2 LT ISZERO PUSH2 0x678 JUMPI PUSH1 0x0 DUP5 DUP5 DUP4 DUP2 DUP2 LT PUSH2 0x55B JUMPI PUSH2 0x55B PUSH2 0x167C JUMP JUMPDEST SWAP1 POP PUSH1 0x20 MUL ADD PUSH1 0x20 DUP2 ADD SWAP1 PUSH2 0x570 SWAP2 SWAP1 PUSH2 0x156A JUMP JUMPDEST PUSH1 0x1 PUSH1 0x1 PUSH1 0xA0 SHL SUB AND SUB PUSH2 0x5C6 JUMPI PUSH1 0x40 MLOAD PUSH3 0x461BCD PUSH1 0xE5 SHL DUP2 MSTORE PUSH1 0x20 PUSH1 0x4 DUP3 ADD MSTORE PUSH1 0x1D PUSH1 0x24 DUP3 ADD MSTORE PUSH32 0x4F6E652F6D6F7265207A65726F2061646472657373657320676976656E000000 PUSH1 0x44 DUP3 ADD MSTORE PUSH1 0x64 ADD PUSH2 0x41A JUMP JUMPDEST PUSH1 0x3 PUSH1 0x0 DUP6 DUP6 DUP5 DUP2 DUP2 LT PUSH2 0x5DC JUMPI PUSH2 0x5DC PUSH2 0x167C JUMP JUMPDEST SWAP1 POP PUSH1 0x20 MUL ADD PUSH1 0x20 DUP2 ADD SWAP1 PUSH2 0x5F1 SWAP2 SWAP1 PUSH2 0x156A JUMP JUMPDEST PUSH1 0x1 PUSH1 0x1 PUSH1 0xA0 SHL SUB AND DUP2 MSTORE PUSH1 0x20 DUP2 ADD SWAP2 SWAP1 SWAP2 MSTORE PUSH1 0x40 ADD PUSH1 0x0 KECCAK256 SLOAD PUSH1 0xFF AND ISZERO PUSH2 0x670 JUMPI PUSH1 0x40 MLOAD PUSH3 0x461BCD PUSH1 0xE5 SHL DUP2 MSTORE PUSH1 0x20 PUSH1 0x4 DUP3 ADD MSTORE PUSH1 0x2C PUSH1 0x24 DUP3 ADD MSTORE PUSH32 0x4F6E652F6D6F726520676976656E2061646472657373657320616C7265616479 PUSH1 0x44 DUP3 ADD MSTORE PUSH12 0x81DDA1A5D195B1A5CDD1959 PUSH1 0xA2 SHL PUSH1 0x64 DUP3 ADD MSTORE PUSH1 0x84 ADD PUSH2 0x41A JUMP JUMPDEST PUSH1 0x1 ADD PUSH2 0x53F JUMP JUMPDEST POP PUSH1 0x0 JUMPDEST DUP2 DUP2 LT ISZERO PUSH2 0x6EB JUMPI PUSH1 0x1 PUSH1 0x3 PUSH1 0x0 DUP7 DUP7 DUP6 DUP2 DUP2 LT PUSH2 0x69C JUMPI PUSH2 0x69C PUSH2 0x167C JUMP JUMPDEST SWAP1 POP PUSH1 0x20 MUL ADD PUSH1 0x20 DUP2 ADD SWAP1 PUSH2 0x6B1 SWAP2 SWAP1 PUSH2 0x156A JUMP JUMPDEST PUSH1 0x1 PUSH1 0x1 PUSH1 0xA0 SHL SUB AND DUP2 MSTORE PUSH1 0x20 DUP2 ADD SWAP2 SWAP1 SWAP2 MSTORE PUSH1 0x40 ADD PUSH1 0x0 KECCAK256 DUP1 SLOAD PUSH1 0xFF NOT AND SWAP2 ISZERO ISZERO SWAP2 SWAP1 SWAP2 OR SWAP1 SSTORE PUSH1 0x8 DUP1 SLOAD PUSH1 0x1 SWAP1 DUP2 ADD SWAP1 SWAP2 SSTORE ADD PUSH2 0x67C JUMP JUMPDEST POP PUSH32 0x9A9F2A64A3B0B4774DA60129AA707715E049CB95062F7ACAAFFC07DDC244C1CC DUP4 DUP4 PUSH1 0x40 MLOAD PUSH2 0x45F SWAP3 SWAP2 SWAP1 PUSH2 0x1692 JUMP JUMPDEST PUSH2 0x725 PUSH2 0x1268 JUMP JUMPDEST DUP1 DUP1 PUSH2 0x743 JUMPI PUSH1 0x40 MLOAD PUSH3 0x461BCD PUSH1 0xE5 SHL DUP2 MSTORE PUSH1 0x4 ADD PUSH2 0x41A SWAP1 PUSH2 0x164F JUMP JUMPDEST PUSH1 0x0 JUMPDEST DUP2 DUP2 LT ISZERO PUSH2 0x87E JUMPI PUSH1 0x0 DUP5 DUP5 DUP4 DUP2 DUP2 LT PUSH2 0x762 JUMPI PUSH2 0x762 PUSH2 0x167C JUMP JUMPDEST SWAP1 POP PUSH1 0x20 MUL ADD PUSH1 0x20 DUP2 ADD SWAP1 PUSH2 0x777 SWAP2 SWAP1 PUSH2 0x156A JUMP JUMPDEST PUSH1 0x1 PUSH1 0x1 PUSH1 0xA0 SHL SUB AND SUB PUSH2 0x7CD JUMPI PUSH1 0x40 MLOAD PUSH3 0x461BCD PUSH1 0xE5 SHL DUP2 MSTORE PUSH1 0x20 PUSH1 0x4 DUP3 ADD MSTORE PUSH1 0x1D PUSH1 0x24 DUP3 ADD MSTORE PUSH32 0x4F6E652F6D6F7265207A65726F2061646472657373657320676976656E000000 PUSH1 0x44 DUP3 ADD MSTORE PUSH1 0x64 ADD PUSH2 0x41A JUMP JUMPDEST PUSH1 0x3 PUSH1 0x0 DUP6 DUP6 DUP5 DUP2 DUP2 LT PUSH2 0x7E3 JUMPI PUSH2 0x7E3 PUSH2 0x167C JUMP JUMPDEST SWAP1 POP PUSH1 0x20 MUL ADD PUSH1 0x20 DUP2 ADD SWAP1 PUSH2 0x7F8 SWAP2 SWAP1 PUSH2 0x156A JUMP JUMPDEST PUSH1 0x1 PUSH1 0x1 PUSH1 0xA0 SHL SUB AND DUP2 MSTORE PUSH1 0x20 DUP2 ADD SWAP2 SWAP1 SWAP2 MSTORE PUSH1 0x40 ADD PUSH1 0x0 KECCAK256 SLOAD PUSH1 0xFF AND PUSH2 0x876 JUMPI PUSH1 0x40 MLOAD PUSH3 0x461BCD PUSH1 0xE5 SHL DUP2 MSTORE PUSH1 0x20 PUSH1 0x4 DUP3 ADD MSTORE PUSH1 0x2C PUSH1 0x24 DUP3 ADD MSTORE PUSH32 0x4F6E652F6D6F726520676976656E2061646472657373657320616C7265616479 PUSH1 0x44 DUP3 ADD MSTORE PUSH12 0x8189B1858DADB1A5CDD1959 PUSH1 0xA2 SHL PUSH1 0x64 DUP3 ADD MSTORE PUSH1 0x84 ADD PUSH2 0x41A JUMP JUMPDEST PUSH1 0x1 ADD PUSH2 0x746 JUMP JUMPDEST POP PUSH1 0x0 JUMPDEST DUP2 DUP2 LT ISZERO PUSH2 0x8F1 JUMPI PUSH1 0x0 PUSH1 0x3 PUSH1 0x0 DUP7 DUP7 DUP6 DUP2 DUP2 LT PUSH2 0x8A2 JUMPI PUSH2 0x8A2 PUSH2 0x167C JUMP JUMPDEST SWAP1 POP PUSH1 0x20 MUL ADD PUSH1 0x20 DUP2 ADD SWAP1 PUSH2 0x8B7 SWAP2 SWAP1 PUSH2 0x156A JUMP JUMPDEST PUSH1 0x1 PUSH1 0x1 PUSH1 0xA0 SHL SUB AND DUP2 MSTORE PUSH1 0x20 DUP2 ADD SWAP2 SWAP1 SWAP2 MSTORE PUSH1 0x40 ADD PUSH1 0x0 KECCAK256 DUP1 SLOAD PUSH1 0xFF NOT AND SWAP2 ISZERO ISZERO SWAP2 SWAP1 SWAP2 OR SWAP1 SSTORE PUSH1 0x8 DUP1 SLOAD PUSH1 0x0 NOT ADD SWAP1 SSTORE PUSH1 0x1 ADD PUSH2 0x882 JUMP JUMPDEST POP PUSH32 0xD68B41369D54FACA53E699320360840DB6E0E2E175D3974EB304FD18713D916B DUP4 DUP4 PUSH1 0x40 MLOAD PUSH2 0x45F SWAP3 SWAP2 SWAP1 PUSH2 0x1692 JUMP JUMPDEST PUSH2 0x92B PUSH2 0x1337 JUMP JUMPDEST PUSH2 0x933 PUSH2 0x135B JUMP JUMPDEST PUSH1 0x5 SLOAD PUSH1 0x40 MLOAD PUSH4 0x70A08231 PUSH1 0xE0 SHL DUP2 MSTORE ADDRESS PUSH1 0x4 DUP3 ADD MSTORE PUSH32 0x0 PUSH1 0x1 PUSH1 0x1 PUSH1 0xA0 SHL SUB AND SWAP1 PUSH4 0x70A08231 SWAP1 PUSH1 0x24 ADD PUSH1 0x20 PUSH1 0x40 MLOAD DUP1 DUP4 SUB DUP2 DUP7 GAS STATICCALL ISZERO DUP1 ISZERO PUSH2 0x99A JUMPI RETURNDATASIZE PUSH1 0x0 DUP1 RETURNDATACOPY RETURNDATASIZE PUSH1 0x0 REVERT JUMPDEST POP POP POP POP PUSH1 0x40 MLOAD RETURNDATASIZE PUSH1 0x1F NOT PUSH1 0x1F DUP3 ADD AND DUP3 ADD DUP1 PUSH1 0x40 MSTORE POP DUP2 ADD SWAP1 PUSH2 0x9BE SWAP2 SWAP1 PUSH2 0x16DD JUMP JUMPDEST LT ISZERO PUSH2 0xA17 JUMPI PUSH1 0x40 MLOAD PUSH3 0x461BCD PUSH1 0xE5 SHL DUP2 MSTORE PUSH1 0x20 PUSH1 0x4 DUP3 ADD MSTORE PUSH1 0x22 PUSH1 0x24 DUP3 ADD MSTORE PUSH32 0x436F6E747261637420646F6573206E6F74206861766520656E6F756768206355 PUSH1 0x44 DUP3 ADD MSTORE PUSH2 0x14D1 PUSH1 0xF2 SHL PUSH1 0x64 DUP3 ADD MSTORE PUSH1 0x84 ADD PUSH2 0x41A JUMP JUMPDEST PUSH1 0x6 SLOAD PUSH1 0x7 SLOAD LT PUSH2 0xA76 JUMPI PUSH1 0x40 MLOAD PUSH3 0x461BCD PUSH1 0xE5 SHL DUP2 MSTORE PUSH1 0x20 PUSH1 0x4 DUP3 ADD MSTORE PUSH1 0x23 PUSH1 0x24 DUP3 ADD MSTORE PUSH32 0x416C6C207061727469636970616E74732068617665206265656E207265776172 PUSH1 0x44 DUP3 ADD MSTORE PUSH3 0x191959 PUSH1 0xEA SHL PUSH1 0x64 DUP3 ADD MSTORE PUSH1 0x84 ADD PUSH2 0x41A JUMP JUMPDEST DUP1 CALLER PUSH1 0x1 PUSH1 0x1 PUSH1 0xA0 SHL SUB DUP3 AND EQ PUSH2 0xAC3 JUMPI PUSH1 0x40 MLOAD PUSH3 0x461BCD PUSH1 0xE5 SHL DUP2 MSTORE PUSH1 0x20 PUSH1 0x4 DUP3 ADD MSTORE PUSH1 0x11 PUSH1 0x24 DUP3 ADD MSTORE PUSH17 0x27B7363C903B30B634B21039B2B73232B9 PUSH1 0x79 SHL PUSH1 0x44 DUP3 ADD MSTORE PUSH1 0x64 ADD PUSH2 0x41A JUMP JUMPDEST PUSH1 0x1 PUSH1 0x1 PUSH1 0xA0 SHL SUB DUP3 AND PUSH1 0x0 SWAP1 DUP2 MSTORE PUSH1 0x3 PUSH1 0x20 MSTORE PUSH1 0x40 SWAP1 KECCAK256 SLOAD DUP3 SWAP1 PUSH1 0xFF AND PUSH2 0xB2D JUMPI PUSH1 0x40 MLOAD PUSH3 0x461BCD PUSH1 0xE5 SHL DUP2 MSTORE PUSH1 0x20 PUSH1 0x4 DUP3 ADD MSTORE PUSH1 0x18 PUSH1 0x24 DUP3 ADD MSTORE PUSH32 0x4F6E6C792077686974656C697374656420616464726573730000000000000000 PUSH1 0x44 DUP3 ADD MSTORE PUSH1 0x64 ADD PUSH2 0x41A JUMP JUMPDEST PUSH1 0x1 PUSH1 0x1 PUSH1 0xA0 SHL SUB DUP4 AND PUSH1 0x0 SWAP1 DUP2 MSTORE PUSH1 0x4 PUSH1 0x20 MSTORE PUSH1 0x40 SWAP1 KECCAK256 SLOAD DUP4 SWAP1 PUSH1 0xFF AND ISZERO PUSH2 0xB98 JUMPI PUSH1 0x40 MLOAD PUSH3 0x461BCD PUSH1 0xE5 SHL DUP2 MSTORE PUSH1 0x20 PUSH1 0x4 DUP3 ADD MSTORE PUSH1 0x1C PUSH1 0x24 DUP3 ADD MSTORE PUSH32 0x5061727469636970616E7420616C726561647920726577617264656400000000 PUSH1 0x44 DUP3 ADD MSTORE PUSH1 0x64 ADD PUSH2 0x41A JUMP JUMPDEST PUSH1 0x0 PUSH2 0xBA3 DUP6 PUSH2 0x1385 JUMP JUMPDEST SWAP1 POP DUP1 ISZERO PUSH2 0xBB4 JUMPI PUSH2 0xBB4 DUP6 PUSH2 0x1481 JUMP JUMPDEST POP POP POP POP PUSH2 0xBC1 PUSH1 0x1 DUP1 SSTORE JUMP JUMPDEST POP JUMP JUMPDEST PUSH1 0x60 DUP2 PUSH1 0x0 DUP2 SWAP1 SUB PUSH2 0xBE8 JUMPI PUSH1 0x40 MLOAD PUSH3 0x461BCD PUSH1 0xE5 SHL DUP2 MSTORE PUSH1 0x4 ADD PUSH2 0x41A SWAP1 PUSH2 0x164F JUMP JUMPDEST PUSH1 0x0 DUP1 JUMPDEST DUP3 DUP2 LT ISZERO PUSH2 0xC57 JUMPI PUSH1 0x3 PUSH1 0x0 DUP8 DUP8 DUP5 DUP2 DUP2 LT PUSH2 0xC0A JUMPI PUSH2 0xC0A PUSH2 0x167C JUMP JUMPDEST SWAP1 POP PUSH1 0x20 MUL ADD PUSH1 0x20 DUP2 ADD SWAP1 PUSH2 0xC1F SWAP2 SWAP1 PUSH2 0x156A JUMP JUMPDEST PUSH1 0x1 PUSH1 0x1 PUSH1 0xA0 SHL SUB AND DUP2 MSTORE PUSH1 0x20 DUP2 ADD SWAP2 SWAP1 SWAP2 MSTORE PUSH1 0x40 ADD PUSH1 0x0 KECCAK256 SLOAD PUSH1 0xFF AND ISZERO PUSH2 0xC4F JUMPI DUP2 PUSH2 0xC4B DUP2 PUSH2 0x16F6 JUMP JUMPDEST SWAP3 POP POP JUMPDEST PUSH1 0x1 ADD PUSH2 0xBEC JUMP JUMPDEST POP PUSH1 0x0 DUP2 PUSH8 0xFFFFFFFFFFFFFFFF DUP2 GT ISZERO PUSH2 0xC73 JUMPI PUSH2 0xC73 PUSH2 0x171D JUMP JUMPDEST PUSH1 0x40 MLOAD SWAP1 DUP1 DUP3 MSTORE DUP1 PUSH1 0x20 MUL PUSH1 0x20 ADD DUP3 ADD PUSH1 0x40 MSTORE DUP1 ISZERO PUSH2 0xC9C JUMPI DUP2 PUSH1 0x20 ADD PUSH1 0x20 DUP3 MUL DUP1 CALLDATASIZE DUP4 CALLDATACOPY ADD SWAP1 POP JUMPDEST POP SWAP1 POP PUSH1 0x0 DUP1 JUMPDEST DUP5 DUP2 LT ISZERO PUSH2 0xD65 JUMPI PUSH1 0x3 PUSH1 0x0 DUP10 DUP10 DUP5 DUP2 DUP2 LT PUSH2 0xCC1 JUMPI PUSH2 0xCC1 PUSH2 0x167C JUMP JUMPDEST SWAP1 POP PUSH1 0x20 MUL ADD PUSH1 0x20 DUP2 ADD SWAP1 PUSH2 0xCD6 SWAP2 SWAP1 PUSH2 0x156A JUMP JUMPDEST PUSH1 0x1 PUSH1 0x1 PUSH1 0xA0 SHL SUB AND DUP2 MSTORE PUSH1 0x20 DUP2 ADD SWAP2 SWAP1 SWAP2 MSTORE PUSH1 0x40 ADD PUSH1 0x0 KECCAK256 SLOAD PUSH1 0xFF AND ISZERO PUSH2 0xD5D JUMPI DUP8 DUP8 DUP3 DUP2 DUP2 LT PUSH2 0xD0A JUMPI PUSH2 0xD0A PUSH2 0x167C JUMP JUMPDEST SWAP1 POP PUSH1 0x20 MUL ADD PUSH1 0x20 DUP2 ADD SWAP1 PUSH2 0xD1F SWAP2 SWAP1 PUSH2 0x156A JUMP JUMPDEST DUP4 DUP4 PUSH2 0xD2A DUP2 PUSH2 0x16F6 JUMP JUMPDEST SWAP5 POP DUP2 MLOAD DUP2 LT PUSH2 0xD3C JUMPI PUSH2 0xD3C PUSH2 0x167C JUMP JUMPDEST PUSH1 0x20 MUL PUSH1 0x20 ADD ADD SWAP1 PUSH1 0x1 PUSH1 0x1 PUSH1 0xA0 SHL SUB AND SWAP1 DUP2 PUSH1 0x1 PUSH1 0x1 PUSH1 0xA0 SHL SUB AND DUP2 MSTORE POP POP JUMPDEST PUSH1 0x1 ADD PUSH2 0xCA3 JUMP JUMPDEST POP SWAP1 SWAP7 SWAP6 POP POP POP POP POP POP JUMP JUMPDEST PUSH2 0xD79 PUSH2 0x1268 JUMP JUMPDEST PUSH1 0x1 PUSH1 0x1 PUSH1 0xA0 SHL SUB DUP2 AND PUSH1 0x0 SWAP1 DUP2 MSTORE PUSH1 0x3 PUSH1 0x20 MSTORE PUSH1 0x40 SWAP1 KECCAK256 SLOAD DUP2 SWAP1 PUSH1 0xFF AND ISZERO PUSH2 0xDDA JUMPI PUSH1 0x40 MLOAD PUSH3 0x461BCD PUSH1 0xE5 SHL DUP2 MSTORE PUSH1 0x20 PUSH1 0x4 DUP3 ADD MSTORE PUSH1 0x13 PUSH1 0x24 DUP3 ADD MSTORE PUSH19 0x135D5CDD08189948189B1858DADB1A5CDD1959 PUSH1 0x6A SHL PUSH1 0x44 DUP3 ADD MSTORE PUSH1 0x64 ADD PUSH2 0x41A JUMP JUMPDEST PUSH1 0x1 PUSH1 0x1 PUSH1 0xA0 SHL SUB DUP3 AND PUSH2 0xE26 JUMPI PUSH1 0x40 MLOAD PUSH3 0x461BCD PUSH1 0xE5 SHL DUP2 MSTORE PUSH1 0x20 PUSH1 0x4 DUP3 ADD MSTORE PUSH1 0x13 PUSH1 0x24 DUP3 ADD MSTORE PUSH19 0x16995C9BC81859191C995CDCC81C185CDCD959 PUSH1 0x6A SHL PUSH1 0x44 DUP3 ADD MSTORE PUSH1 0x64 ADD PUSH2 0x41A JUMP JUMPDEST PUSH1 0x1 PUSH1 0x1 PUSH1 0xA0 SHL SUB DUP3 AND PUSH1 0x0 DUP2 DUP2 MSTORE PUSH1 0x3 PUSH1 0x20 SWAP1 DUP2 MSTORE PUSH1 0x40 SWAP2 DUP3 SWAP1 KECCAK256 DUP1 SLOAD PUSH1 0xFF NOT AND PUSH1 0x1 SWAP1 DUP2 OR SWAP1 SWAP2 SSTORE PUSH1 0x8 DUP1 SLOAD SWAP1 SWAP2 ADD SWAP1 SSTORE SWAP1 MLOAD SWAP2 DUP3 MSTORE PUSH32 0x1AFDE38C60D2BE0D28D001619816D86C39CE78B350C9D94F23C095099B9C1D27 SWAP2 ADD JUMPDEST PUSH1 0x40 MLOAD DUP1 SWAP2 SUB SWAP1 LOG1 POP POP JUMP JUMPDEST PUSH2 0xE96 PUSH2 0x1268 JUMP JUMPDEST PUSH1 0x1 PUSH1 0x1 PUSH1 0xA0 SHL SUB DUP2 AND PUSH1 0x0 SWAP1 DUP2 MSTORE PUSH1 0x3 PUSH1 0x20 MSTORE PUSH1 0x40 SWAP1 KECCAK256 SLOAD DUP2 SWAP1 PUSH1 0xFF AND PUSH2 0xEF6 JUMPI PUSH1 0x40 MLOAD PUSH3 0x461BCD PUSH1 0xE5 SHL DUP2 MSTORE PUSH1 0x20 PUSH1 0x4 DUP3 ADD MSTORE PUSH1 0x13 PUSH1 0x24 DUP3 ADD MSTORE PUSH19 0x135D5CDD081899481DDA1A5D195B1A5CDD1959 PUSH1 0x6A SHL PUSH1 0x44 DUP3 ADD MSTORE PUSH1 0x64 ADD PUSH2 0x41A JUMP JUMPDEST PUSH1 0x1 PUSH1 0x1 PUSH1 0xA0 SHL SUB DUP3 AND PUSH2 0xF42 JUMPI PUSH1 0x40 MLOAD PUSH3 0x461BCD PUSH1 0xE5 SHL DUP2 MSTORE PUSH1 0x20 PUSH1 0x4 DUP3 ADD MSTORE PUSH1 0x13 PUSH1 0x24 DUP3 ADD MSTORE PUSH19 0x16995C9BC81859191C995CDCC81C185CDCD959 PUSH1 0x6A SHL PUSH1 0x44 DUP3 ADD MSTORE PUSH1 0x64 ADD PUSH2 0x41A JUMP JUMPDEST PUSH1 0x1 PUSH1 0x1 PUSH1 0xA0 SHL SUB DUP3 AND PUSH1 0x0 DUP2 DUP2 MSTORE PUSH1 0x3 PUSH1 0x20 SWAP1 DUP2 MSTORE PUSH1 0x40 SWAP2 DUP3 SWAP1 KECCAK256 DUP1 SLOAD PUSH1 0xFF NOT AND SWAP1 SSTORE PUSH1 0x8 DUP1 SLOAD PUSH1 0x0 NOT ADD SWAP1 SSTORE SWAP1 MLOAD SWAP2 DUP3 MSTORE PUSH32 0xA354190DD7342316E40E5358C9F72037F2C677CDC057D3DEBBC4F1B62495E2E2 SWAP2 ADD PUSH2 0xE82 JUMP JUMPDEST PUSH2 0xFA5 PUSH2 0x1268 JUMP JUMPDEST PUSH2 0x3B3 PUSH2 0x14D5 JUMP JUMPDEST PUSH2 0xFB5 PUSH2 0x1268 JUMP JUMPDEST PUSH2 0xFBD PUSH2 0x1337 JUMP JUMPDEST PUSH1 0x40 MLOAD PUSH4 0x70A08231 PUSH1 0xE0 SHL DUP2 MSTORE ADDRESS PUSH1 0x4 DUP3 ADD MSTORE PUSH1 0x0 SWAP1 PUSH32 0x0 PUSH1 0x1 PUSH1 0x1 PUSH1 0xA0 SHL SUB AND SWAP1 PUSH4 0x70A08231 SWAP1 PUSH1 0x24 ADD PUSH1 0x20 PUSH1 0x40 MLOAD DUP1 DUP4 SUB DUP2 DUP7 GAS STATICCALL ISZERO DUP1 ISZERO PUSH2 0x1024 JUMPI RETURNDATASIZE PUSH1 0x0 DUP1 RETURNDATACOPY RETURNDATASIZE PUSH1 0x0 REVERT JUMPDEST POP POP POP POP PUSH1 0x40 MLOAD RETURNDATASIZE PUSH1 0x1F NOT PUSH1 0x1F DUP3 ADD AND DUP3 ADD DUP1 PUSH1 0x40 MSTORE POP DUP2 ADD SWAP1 PUSH2 0x1048 SWAP2 SWAP1 PUSH2 0x16DD JUMP JUMPDEST GT PUSH2 0x1095 JUMPI PUSH1 0x40 MLOAD PUSH3 0x461BCD PUSH1 0xE5 SHL DUP2 MSTORE PUSH1 0x20 PUSH1 0x4 DUP3 ADD MSTORE PUSH1 0x1F PUSH1 0x24 DUP3 ADD MSTORE PUSH32 0x436F6E747261637420646F6573206E6F74206861766520616E79206355534400 PUSH1 0x44 DUP3 ADD MSTORE PUSH1 0x64 ADD PUSH2 0x41A JUMP JUMPDEST PUSH1 0x40 MLOAD PUSH4 0x70A08231 PUSH1 0xE0 SHL DUP2 MSTORE ADDRESS PUSH1 0x4 DUP3 ADD MSTORE PUSH1 0x0 SWAP1 PUSH32 0x0 PUSH1 0x1 PUSH1 0x1 PUSH1 0xA0 SHL SUB AND SWAP1 PUSH4 0x70A08231 SWAP1 PUSH1 0x24 ADD PUSH1 0x20 PUSH1 0x40 MLOAD DUP1 DUP4 SUB DUP2 DUP7 GAS STATICCALL ISZERO DUP1 ISZERO PUSH2 0x10FC JUMPI RETURNDATASIZE PUSH1 0x0 DUP1 RETURNDATACOPY RETURNDATASIZE PUSH1 0x0 REVERT JUMPDEST POP POP POP POP PUSH1 0x40 MLOAD RETURNDATASIZE PUSH1 0x1F NOT PUSH1 0x1F DUP3 ADD AND DUP3 ADD DUP1 PUSH1 0x40 MSTORE POP DUP2 ADD SWAP1 PUSH2 0x1120 SWAP2 SWAP1 PUSH2 0x16DD JUMP JUMPDEST SWAP1 POP PUSH32 0x0 PUSH1 0x1 PUSH1 0x1 PUSH1 0xA0 SHL SUB AND PUSH4 0xA9059CBB PUSH2 0x1163 PUSH1 0x0 SLOAD PUSH1 0x1 PUSH1 0x1 PUSH1 0xA0 SHL SUB AND SWAP1 JUMP JUMPDEST PUSH1 0x40 MLOAD PUSH1 0x1 PUSH1 0x1 PUSH1 0xE0 SHL SUB NOT PUSH1 0xE0 DUP5 SWAP1 SHL AND DUP2 MSTORE PUSH1 0x1 PUSH1 0x1 PUSH1 0xA0 SHL SUB SWAP1 SWAP2 AND PUSH1 0x4 DUP3 ADD MSTORE PUSH1 0x24 DUP2 ADD DUP5 SWAP1 MSTORE PUSH1 0x44 ADD PUSH1 0x20 PUSH1 0x40 MLOAD DUP1 DUP4 SUB DUP2 PUSH1 0x0 DUP8 GAS CALL ISZERO DUP1 ISZERO PUSH2 0x11B0 JUMPI RETURNDATASIZE PUSH1 0x0 DUP1 RETURNDATACOPY RETURNDATASIZE PUSH1 0x0 REVERT JUMPDEST POP POP POP POP PUSH1 0x40 MLOAD RETURNDATASIZE PUSH1 0x1F NOT PUSH1 0x1F DUP3 ADD AND DUP3 ADD DUP1 PUSH1 0x40 MSTORE POP DUP2 ADD SWAP1 PUSH2 0x11D4 SWAP2 SWAP1 PUSH2 0x1733 JUMP JUMPDEST POP PUSH32 0x2036B9B38B69A2FA490EE702733A29CD2550ACCC20BC96E786CB9BEEDC779097 PUSH2 0x1208 PUSH1 0x0 SLOAD PUSH1 0x1 PUSH1 0x1 PUSH1 0xA0 SHL SUB AND SWAP1 JUMP JUMPDEST PUSH1 0x40 DUP1 MLOAD PUSH1 0x1 PUSH1 0x1 PUSH1 0xA0 SHL SUB SWAP1 SWAP3 AND DUP3 MSTORE PUSH1 0x20 DUP3 ADD DUP5 SWAP1 MSTORE ADD JUMPDEST PUSH1 0x40 MLOAD DUP1 SWAP2 SUB SWAP1 LOG1 POP JUMP JUMPDEST PUSH2 0x1235 PUSH2 0x1268 JUMP JUMPDEST PUSH1 0x1 PUSH1 0x1 PUSH1 0xA0 SHL SUB DUP2 AND PUSH2 0x125F JUMPI PUSH1 0x40 MLOAD PUSH4 0x1E4FBDF7 PUSH1 0xE0 SHL DUP2 MSTORE PUSH1 0x0 PUSH1 0x4 DUP3 ADD MSTORE PUSH1 0x24 ADD PUSH2 0x41A JUMP JUMPDEST PUSH2 0xBC1 DUP2 PUSH2 0x12E7 JUMP JUMPDEST PUSH1 0x0 SLOAD PUSH1 0x1 PUSH1 0x1 PUSH1 0xA0 SHL SUB AND CALLER EQ PUSH2 0x3B3 JUMPI PUSH1 0x40 MLOAD PUSH4 0x118CDAA7 PUSH1 0xE0 SHL DUP2 MSTORE CALLER PUSH1 0x4 DUP3 ADD MSTORE PUSH1 0x24 ADD PUSH2 0x41A JUMP JUMPDEST PUSH2 0x129D PUSH2 0x1512 JUMP JUMPDEST PUSH1 0x2 DUP1 SLOAD PUSH1 0xFF NOT AND SWAP1 SSTORE PUSH32 0x5DB9EE0A495BF2E6FF9C91A7834C1BA4FDD244A5E8AA4E537BD38AEAE4B073AA CALLER JUMPDEST PUSH1 0x40 MLOAD PUSH1 0x1 PUSH1 0x1 PUSH1 0xA0 SHL SUB SWAP1 SWAP2 AND DUP2 MSTORE PUSH1 0x20 ADD PUSH1 0x40 MLOAD DUP1 SWAP2 SUB SWAP1 LOG1 JUMP JUMPDEST PUSH1 0x0 DUP1 SLOAD PUSH1 0x1 PUSH1 0x1 PUSH1 0xA0 SHL SUB DUP4 DUP2 AND PUSH1 0x1 PUSH1 0x1 PUSH1 0xA0 SHL SUB NOT DUP4 AND DUP2 OR DUP5 SSTORE PUSH1 0x40 MLOAD SWAP2 SWAP1 SWAP3 AND SWAP3 DUP4 SWAP2 PUSH32 0x8BE0079C531659141344CD1FD0A4F28419497F9722A3DAAFE3B4186F6B6457E0 SWAP2 SWAP1 LOG3 POP POP JUMP JUMPDEST PUSH1 0x2 SLOAD PUSH1 0xFF AND ISZERO PUSH2 0x3B3 JUMPI PUSH1 0x40 MLOAD PUSH4 0xD93C0665 PUSH1 0xE0 SHL DUP2 MSTORE PUSH1 0x4 ADD PUSH1 0x40 MLOAD DUP1 SWAP2 SUB SWAP1 REVERT JUMPDEST PUSH1 0x2 PUSH1 0x1 SLOAD SUB PUSH2 0x137E JUMPI PUSH1 0x40 MLOAD PUSH4 0x3EE5AEB5 PUSH1 0xE0 SHL DUP2 MSTORE PUSH1 0x4 ADD PUSH1 0x40 MLOAD DUP1 SWAP2 SUB SWAP1 REVERT JUMPDEST PUSH1 0x2 PUSH1 0x1 SSTORE JUMP JUMPDEST PUSH1 0x5 SLOAD PUSH1 0x40 MLOAD PUSH4 0xA9059CBB PUSH1 0xE0 SHL DUP2 MSTORE PUSH1 0x1 PUSH1 0x1 PUSH1 0xA0 SHL SUB DUP4 DUP2 AND PUSH1 0x4 DUP4 ADD MSTORE PUSH1 0x24 DUP3 ADD SWAP3 SWAP1 SWAP3 MSTORE PUSH1 0x0 SWAP2 DUP3 SWAP2 PUSH32 0x0 SWAP1 SWAP2 AND SWAP1 PUSH4 0xA9059CBB SWAP1 PUSH1 0x44 ADD PUSH1 0x20 PUSH1 0x40 MLOAD DUP1 DUP4 SUB DUP2 PUSH1 0x0 DUP8 GAS CALL ISZERO DUP1 ISZERO PUSH2 0x13FF JUMPI RETURNDATASIZE PUSH1 0x0 DUP1 RETURNDATACOPY RETURNDATASIZE PUSH1 0x0 REVERT JUMPDEST POP POP POP POP PUSH1 0x40 MLOAD RETURNDATASIZE PUSH1 0x1F NOT PUSH1 0x1F DUP3 ADD AND DUP3 ADD DUP1 PUSH1 0x40 MSTORE POP DUP2 ADD SWAP1 PUSH2 0x1423 SWAP2 SWAP1 PUSH2 0x1733 JUMP JUMPDEST SWAP1 POP DUP1 ISZERO PUSH2 0x147B JUMPI PUSH1 0x7 DUP1 SLOAD PUSH1 0x1 ADD SWAP1 SSTORE PUSH1 0x5 SLOAD PUSH1 0x40 DUP1 MLOAD PUSH1 0x1 PUSH1 0x1 PUSH1 0xA0 SHL SUB DUP7 AND DUP2 MSTORE PUSH1 0x20 DUP2 ADD SWAP3 SWAP1 SWAP3 MSTORE PUSH32 0x8934D7A9692E763E356FD30D84CA5F61A737B35C5CCD5D31D4F140310267B73E SWAP2 ADD PUSH1 0x40 MLOAD DUP1 SWAP2 SUB SWAP1 LOG1 JUMPDEST SWAP3 SWAP2 POP POP JUMP JUMPDEST PUSH1 0x1 PUSH1 0x1 PUSH1 0xA0 SHL SUB DUP2 AND PUSH1 0x0 DUP2 DUP2 MSTORE PUSH1 0x4 PUSH1 0x20 SWAP1 DUP2 MSTORE PUSH1 0x40 SWAP2 DUP3 SWAP1 KECCAK256 DUP1 SLOAD PUSH1 0xFF NOT AND PUSH1 0x1 OR SWAP1 SSTORE SWAP1 MLOAD SWAP2 DUP3 MSTORE PUSH32 0x654C9A027765E6FEB862F42D438E9F6948F9EE31113E379F0372B30EFC722943 SWAP2 ADD PUSH2 0x1222 JUMP JUMPDEST PUSH2 0x14DD PUSH2 0x1337 JUMP JUMPDEST PUSH1 0x2 DUP1 SLOAD PUSH1 0xFF NOT AND PUSH1 0x1 OR SWAP1 SSTORE PUSH32 0x62E78CEA01BEE320CD4E420270B5EA74000D11B0C9F74754EBDBFC544B05A258 PUSH2 0x12CA CALLER SWAP1 JUMP JUMPDEST PUSH1 0x2 SLOAD PUSH1 0xFF AND PUSH2 0x3B3 JUMPI PUSH1 0x40 MLOAD PUSH4 0x8DFC202B PUSH1 0xE0 SHL DUP2 MSTORE PUSH1 0x4 ADD PUSH1 0x40 MLOAD DUP1 SWAP2 SUB SWAP1 REVERT JUMPDEST PUSH1 0x0 PUSH1 0x20 DUP3 DUP5 SUB SLT ISZERO PUSH2 0x1547 JUMPI PUSH1 0x0 DUP1 REVERT JUMPDEST POP CALLDATALOAD SWAP2 SWAP1 POP JUMP JUMPDEST DUP1 CALLDATALOAD PUSH1 0x1 PUSH1 0x1 PUSH1 0xA0 SHL SUB DUP2 AND DUP2 EQ PUSH2 0x1565 JUMPI PUSH1 0x0 DUP1 REVERT JUMPDEST SWAP2 SWAP1 POP JUMP JUMPDEST PUSH1 0x0 PUSH1 0x20 DUP3 DUP5 SUB SLT ISZERO PUSH2 0x157C JUMPI PUSH1 0x0 DUP1 REVERT JUMPDEST PUSH2 0x1585 DUP3 PUSH2 0x154E JUMP JUMPDEST SWAP4 SWAP3 POP POP POP JUMP JUMPDEST PUSH1 0x0 DUP1 PUSH1 0x20 DUP4 DUP6 SUB SLT ISZERO PUSH2 0x159F JUMPI PUSH1 0x0 DUP1 REVERT JUMPDEST DUP3 CALLDATALOAD PUSH8 0xFFFFFFFFFFFFFFFF DUP2 GT ISZERO PUSH2 0x15B6 JUMPI PUSH1 0x0 DUP1 REVERT JUMPDEST DUP4 ADD PUSH1 0x1F DUP2 ADD DUP6 SGT PUSH2 0x15C7 JUMPI PUSH1 0x0 DUP1 REVERT JUMPDEST DUP1 CALLDATALOAD PUSH8 0xFFFFFFFFFFFFFFFF DUP2 GT ISZERO PUSH2 0x15DE JUMPI PUSH1 0x0 DUP1 REVERT JUMPDEST DUP6 PUSH1 0x20 DUP3 PUSH1 0x5 SHL DUP5 ADD ADD GT ISZERO PUSH2 0x15F3 JUMPI PUSH1 0x0 DUP1 REVERT JUMPDEST PUSH1 0x20 SWAP2 SWAP1 SWAP2 ADD SWAP6 SWAP1 SWAP5 POP SWAP3 POP POP POP JUMP JUMPDEST PUSH1 0x20 DUP1 DUP3 MSTORE DUP3 MLOAD DUP3 DUP3 ADD DUP2 SWAP1 MSTORE PUSH1 0x0 SWAP2 DUP5 ADD SWAP1 PUSH1 0x40 DUP5 ADD SWAP1 DUP4 JUMPDEST DUP2 DUP2 LT ISZERO PUSH2 0x1644 JUMPI DUP4 MLOAD PUSH1 0x1 PUSH1 0x1 PUSH1 0xA0 SHL SUB AND DUP4 MSTORE PUSH1 0x20 SWAP4 DUP5 ADD SWAP4 SWAP1 SWAP3 ADD SWAP2 PUSH1 0x1 ADD PUSH2 0x161D JUMP JUMPDEST POP SWAP1 SWAP6 SWAP5 POP POP POP POP POP JUMP JUMPDEST PUSH1 0x20 DUP1 DUP3 MSTORE PUSH1 0x13 SWAP1 DUP3 ADD MSTORE PUSH19 0x139BC81859191C995CDCD95CC81C185CDCD959 PUSH1 0x6A SHL PUSH1 0x40 DUP3 ADD MSTORE PUSH1 0x60 ADD SWAP1 JUMP JUMPDEST PUSH4 0x4E487B71 PUSH1 0xE0 SHL PUSH1 0x0 MSTORE PUSH1 0x32 PUSH1 0x4 MSTORE PUSH1 0x24 PUSH1 0x0 REVERT JUMPDEST PUSH1 0x20 DUP1 DUP3 MSTORE DUP2 ADD DUP3 SWAP1 MSTORE PUSH1 0x0 DUP4 PUSH1 0x40 DUP4 ADD DUP3 JUMPDEST DUP6 DUP2 LT ISZERO PUSH2 0x16D3 JUMPI PUSH1 0x1 PUSH1 0x1 PUSH1 0xA0 SHL SUB PUSH2 0x16BE DUP5 PUSH2 0x154E JUMP JUMPDEST AND DUP3 MSTORE PUSH1 0x20 SWAP3 DUP4 ADD SWAP3 SWAP1 SWAP2 ADD SWAP1 PUSH1 0x1 ADD PUSH2 0x16A5 JUMP JUMPDEST POP SWAP6 SWAP5 POP POP POP POP POP JUMP JUMPDEST PUSH1 0x0 PUSH1 0x20 DUP3 DUP5 SUB SLT ISZERO PUSH2 0x16EF JUMPI PUSH1 0x0 DUP1 REVERT JUMPDEST POP MLOAD SWAP2 SWAP1 POP JUMP JUMPDEST PUSH1 0x0 PUSH1 0x1 DUP3 ADD PUSH2 0x1716 JUMPI PUSH4 0x4E487B71 PUSH1 0xE0 SHL PUSH1 0x0 MSTORE PUSH1 0x11 PUSH1 0x4 MSTORE PUSH1 0x24 PUSH1 0x0 REVERT JUMPDEST POP PUSH1 0x1 ADD SWAP1 JUMP JUMPDEST PUSH4 0x4E487B71 PUSH1 0xE0 SHL PUSH1 0x0 MSTORE PUSH1 0x41 PUSH1 0x4 MSTORE PUSH1 0x24 PUSH1 0x0 REVERT JUMPDEST PUSH1 0x0 PUSH1 0x20 DUP3 DUP5 SUB SLT ISZERO PUSH2 0x1745 JUMPI PUSH1 0x0 DUP1 REVERT JUMPDEST DUP2 MLOAD DUP1 ISZERO ISZERO DUP2 EQ PUSH2 0x1585 JUMPI PUSH1 0x0 DUP1 REVERT INVALID LOG2 PUSH5 0x6970667358 0x22 SLT KECCAK256 MULMOD PUSH28 0x67D29E725267D3E70953C392031F7F6A225919B15D7D3FA9C38784E6 LOG4 PUSH17 0x64736F6C634300081C0033000000000000 "
				},
				"gasEstimates": {
					"creation": {
						"codeDepositCost": "1205400",
						"executionCost": "infinite",
						"totalCost": "infinite"
					},
					"external": {
						"blacklistMultipleWhitelistedUserAddresses(address[])": "infinite",
						"blacklistOneWhitelistedUserAddress(address)": "54389",
						"cUSD()": "infinite",
						"checkIfParticipantHasAlreadyClaimedReward(address)": "2595",
						"checkIfUserAddressIsBlacklisted(address)": "2641",
						"checkIfUserAddressIsWhitelisted(address)": "2659",
						"getNumberOfRewardedParticipants()": "2337",
						"getNumberOfWhitelistedUserAddresses()": "2381",
						"getRewardAmountPerParticipantInWei()": "2360",
						"getTargetNumberOfParticipants()": "2415",
						"getWhitelistedAddressesFromRegisteredAddresses(address[])": "infinite",
						"numberOfWhitelistedUserAddresses()": "2340",
						"owner()": "2431",
						"pauseSurvey()": "infinite",
						"paused()": "2383",
						"processRewardClaimByParticipant(address)": "infinite",
						"renounceOwnership()": "infinite",
						"rewardAmountPerParticipantInWei()": "2362",
						"targetNumberOfParticipants()": "2406",
						"transferOwnership(address)": "28421",
						"unpauseSurvey()": "infinite",
						"updateRewardAmountPerParticipant(uint256)": "28093",
						"updateTargetNumberOfParticipants(uint256)": "28038",
						"whitelistMultipleUserAddresses(address[])": "infinite",
						"whitelistOneUserAddress(address)": "54462",
						"withdrawAllRewardFundsToResearcher()": "infinite"
					},
					"internal": {
						"markParticipantAsHavingClaimedReward(address)": "infinite",
						"rewardParticipant(address)": "infinite"
					}
				},
				"methodIdentifiers": {
					"blacklistMultipleWhitelistedUserAddresses(address[])": "9a0474e8",
					"blacklistOneWhitelistedUserAddress(address)": "d335993a",
					"cUSD()": "1fccf672",
					"checkIfParticipantHasAlreadyClaimedReward(address)": "6ff65c20",
					"checkIfUserAddressIsBlacklisted(address)": "85737020",
					"checkIfUserAddressIsWhitelisted(address)": "fc05542a",
					"getNumberOfRewardedParticipants()": "741ae614",
					"getNumberOfWhitelistedUserAddresses()": "d9084326",
					"getRewardAmountPerParticipantInWei()": "7069243c",
					"getTargetNumberOfParticipants()": "6fa1c59d",
					"getWhitelistedAddressesFromRegisteredAddresses(address[])": "a34db0a0",
					"numberOfWhitelistedUserAddresses()": "c25a02ec",
					"owner()": "8da5cb5b",
					"pauseSurvey()": "e082fe2a",
					"paused()": "5c975abb",
					"processRewardClaimByParticipant(address)": "a0858343",
					"renounceOwnership()": "715018a6",
					"rewardAmountPerParticipantInWei()": "7a0abf08",
					"targetNumberOfParticipants()": "a6a09811",
					"transferOwnership(address)": "f2fde38b",
					"unpauseSurvey()": "3960fc66",
					"updateRewardAmountPerParticipant(uint256)": "64bb632f",
					"updateTargetNumberOfParticipants(uint256)": "528780cc",
					"whitelistMultipleUserAddresses(address[])": "98b48493",
					"whitelistOneUserAddress(address)": "b0702913",
					"withdrawAllRewardFundsToResearcher()": "f22069df"
				}
			},
			"storageLayout": {
				"storage": [
					{
						"astId": 8,
						"contract": "hardhat/contracts/ClosedSurveyV2.sol:ClosedSurveyV2",
						"label": "_owner",
						"offset": 0,
						"slot": "0",
						"type": "t_address"
					},
					{
						"astId": 409,
						"contract": "hardhat/contracts/ClosedSurveyV2.sol:ClosedSurveyV2",
						"label": "_status",
						"offset": 0,
						"slot": "1",
						"type": "t_uint256"
					},
					{
						"astId": 290,
						"contract": "hardhat/contracts/ClosedSurveyV2.sol:ClosedSurveyV2",
						"label": "_paused",
						"offset": 0,
						"slot": "2",
						"type": "t_bool"
					},
					{
						"astId": 486,
						"contract": "hardhat/contracts/ClosedSurveyV2.sol:ClosedSurveyV2",
						"label": "usersWhitelistedForSurvey",
						"offset": 0,
						"slot": "3",
						"type": "t_mapping(t_address,t_bool)"
					},
					{
						"astId": 490,
						"contract": "hardhat/contracts/ClosedSurveyV2.sol:ClosedSurveyV2",
						"label": "participantsWhoHaveClaimedRewards",
						"offset": 0,
						"slot": "4",
						"type": "t_mapping(t_address,t_bool)"
					},
					{
						"astId": 492,
						"contract": "hardhat/contracts/ClosedSurveyV2.sol:ClosedSurveyV2",
						"label": "rewardAmountPerParticipantInWei",
						"offset": 0,
						"slot": "5",
						"type": "t_uint256"
					},
					{
						"astId": 494,
						"contract": "hardhat/contracts/ClosedSurveyV2.sol:ClosedSurveyV2",
						"label": "targetNumberOfParticipants",
						"offset": 0,
						"slot": "6",
						"type": "t_uint256"
					},
					{
						"astId": 496,
						"contract": "hardhat/contracts/ClosedSurveyV2.sol:ClosedSurveyV2",
						"label": "numberOfRewardedParticipants",
						"offset": 0,
						"slot": "7",
						"type": "t_uint256"
					},
					{
						"astId": 498,
						"contract": "hardhat/contracts/ClosedSurveyV2.sol:ClosedSurveyV2",
						"label": "numberOfWhitelistedUserAddresses",
						"offset": 0,
						"slot": "8",
						"type": "t_uint256"
					}
				],
				"types": {
					"t_address": {
						"encoding": "inplace",
						"label": "address",
						"numberOfBytes": "20"
					},
					"t_bool": {
						"encoding": "inplace",
						"label": "bool",
						"numberOfBytes": "1"
					},
					"t_mapping(t_address,t_bool)": {
						"encoding": "mapping",
						"key": "t_address",
						"label": "mapping(address => bool)",
						"numberOfBytes": "32",
						"value": "t_bool"
					},
					"t_uint256": {
						"encoding": "inplace",
						"label": "uint256",
						"numberOfBytes": "32"
					}
				}
			},
			"userdoc": {
				"kind": "user",
				"methods": {},
				"version": 1
			}
		}
	}
}