{
	"smart-contract/hardhat/contracts/ClosedSurveyV3.sol": {
		"ClosedSurveyV3": {
			"abi": [
				{
					"inputs": [
						{
							"internalType": "address",
							"name": "researcherWalletAddress",
							"type": "address"
						},
						{
							"internalType": "uint256",
							"name": "_rewardAmountPerParticipantInWei",
							"type": "uint256"
						},
						{
							"internalType": "uint256",
							"name": "_targetNumberOfParticipants",
							"type": "uint256"
						},
						{
							"internalType": "address",
							"name": "cUSDTokenAddress",
							"type": "address"
						}
					],
					"stateMutability": "nonpayable",
					"type": "constructor"
				},
				{
					"inputs": [],
					"name": "EnforcedPause",
					"type": "error"
				},
				{
					"inputs": [],
					"name": "ExpectedPause",
					"type": "error"
				},
				{
					"inputs": [
						{
							"internalType": "address",
							"name": "owner",
							"type": "address"
						}
					],
					"name": "OwnableInvalidOwner",
					"type": "error"
				},
				{
					"inputs": [
						{
							"internalType": "address",
							"name": "account",
							"type": "address"
						}
					],
					"name": "OwnableUnauthorizedAccount",
					"type": "error"
				},
				{
					"inputs": [],
					"name": "ReentrancyGuardReentrantCall",
					"type": "error"
				},
				{
					"anonymous": false,
					"inputs": [
						{
							"indexed": false,
							"internalType": "address[]",
							"name": "participantWalletAddresses",
							"type": "address[]"
						}
					],
					"name": "MultipleParticipantsWhitelisted",
					"type": "event"
				},
				{
					"anonymous": false,
					"inputs": [
						{
							"indexed": false,
							"internalType": "address[]",
							"name": "walletAddresses",
							"type": "address[]"
						}
					],
					"name": "MultipleWhitelistedParticipantsBlacklisted",
					"type": "event"
				},
				{
					"anonymous": false,
					"inputs": [
						{
							"indexed": false,
							"internalType": "address",
							"name": "participantWalletAddress",
							"type": "address"
						}
					],
					"name": "OneParticipantWhitelisted",
					"type": "event"
				},
				{
					"anonymous": false,
					"inputs": [
						{
							"indexed": false,
							"internalType": "address",
							"name": "participantWalletAddress",
							"type": "address"
						}
					],
					"name": "OneWhitelistedParticipantBlacklisted",
					"type": "event"
				},
				{
					"anonymous": false,
					"inputs": [
						{
							"indexed": true,
							"internalType": "address",
							"name": "previousOwner",
							"type": "address"
						},
						{
							"indexed": true,
							"internalType": "address",
							"name": "newOwner",
							"type": "address"
						}
					],
					"name": "OwnershipTransferred",
					"type": "event"
				},
				{
					"anonymous": false,
					"inputs": [
						{
							"indexed": false,
							"internalType": "address",
							"name": "participantWalletAddress",
							"type": "address"
						}
					],
					"name": "ParticipantMarkedAsRewarded",
					"type": "event"
				},
				{
					"anonymous": false,
					"inputs": [
						{
							"indexed": false,
							"internalType": "address",
							"name": "participantWalletAddress",
							"type": "address"
						},
						{
							"indexed": false,
							"internalType": "uint256",
							"name": "rewardAmount",
							"type": "uint256"
						}
					],
					"name": "ParticipantRewarded",
					"type": "event"
				},
				{
					"anonymous": false,
					"inputs": [
						{
							"indexed": false,
							"internalType": "address",
							"name": "participantWalletAddress",
							"type": "address"
						}
					],
					"name": "ParticipantScreened",
					"type": "event"
				},
				{
					"anonymous": false,
					"inputs": [
						{
							"indexed": false,
							"internalType": "address",
							"name": "account",
							"type": "address"
						}
					],
					"name": "Paused",
					"type": "event"
				},
				{
					"anonymous": false,
					"inputs": [
						{
							"indexed": false,
							"internalType": "uint256",
							"name": "oldcUSDRewardAmountPerParticipantInWei",
							"type": "uint256"
						},
						{
							"indexed": false,
							"internalType": "uint256",
							"name": "newcUSDRewardAmountPerParticipantInWei",
							"type": "uint256"
						}
					],
					"name": "RewardAmountUpdated",
					"type": "event"
				},
				{
					"anonymous": false,
					"inputs": [
						{
							"indexed": false,
							"internalType": "address",
							"name": "researcherWalletAddress",
							"type": "address"
						},
						{
							"indexed": false,
							"internalType": "uint256",
							"name": "rewardAmount",
							"type": "uint256"
						}
					],
					"name": "RewardFundsWithdrawn",
					"type": "event"
				},
				{
					"anonymous": false,
					"inputs": [
						{
							"indexed": false,
							"internalType": "uint256",
							"name": "oldTargetNumberOfParticipants",
							"type": "uint256"
						},
						{
							"indexed": false,
							"internalType": "uint256",
							"name": "newTargetNumberOfParticipants",
							"type": "uint256"
						}
					],
					"name": "TargetNumberOfParticipantsUpdated",
					"type": "event"
				},
				{
					"anonymous": false,
					"inputs": [
						{
							"indexed": false,
							"internalType": "address",
							"name": "account",
							"type": "address"
						}
					],
					"name": "Unpaused",
					"type": "event"
				},
				{
					"inputs": [
						{
							"internalType": "address[]",
							"name": "participantWalletAddresses",
							"type": "address[]"
						}
					],
					"name": "blacklistMultipleParticipants",
					"outputs": [],
					"stateMutability": "nonpayable",
					"type": "function"
				},
				{
					"inputs": [
						{
							"internalType": "address",
							"name": "participantWalletAddress",
							"type": "address"
						}
					],
					"name": "blacklistOneParticipant",
					"outputs": [],
					"stateMutability": "nonpayable",
					"type": "function"
				},
				{
					"inputs": [],
					"name": "cUSD",
					"outputs": [
						{
							"internalType": "contract IERC20Metadata",
							"name": "",
							"type": "address"
						}
					],
					"stateMutability": "view",
					"type": "function"
				},
				{
					"inputs": [
						{
							"internalType": "address",
							"name": "participantWalletAddress",
							"type": "address"
						}
					],
					"name": "checkIfParticipantHasAlreadyClaimedReward",
					"outputs": [
						{
							"internalType": "bool",
							"name": "",
							"type": "bool"
						}
					],
					"stateMutability": "view",
					"type": "function"
				},
				{
					"inputs": [
						{
							"internalType": "address",
							"name": "participantWalletAddress",
							"type": "address"
						}
					],
					"name": "checkIfParticipantIsBlacklisted",
					"outputs": [
						{
							"internalType": "bool",
							"name": "",
							"type": "bool"
						}
					],
					"stateMutability": "view",
					"type": "function"
				},
				{
					"inputs": [
						{
							"internalType": "address",
							"name": "participantWalletAddress",
							"type": "address"
						}
					],
					"name": "checkIfParticipantIsWhitelisted",
					"outputs": [
						{
							"internalType": "bool",
							"name": "",
							"type": "bool"
						}
					],
					"stateMutability": "view",
					"type": "function"
				},
				{
					"inputs": [],
					"name": "getNumberOfRewardedParticipants",
					"outputs": [
						{
							"internalType": "uint256",
							"name": "",
							"type": "uint256"
						}
					],
					"stateMutability": "view",
					"type": "function"
				},
				{
					"inputs": [],
					"name": "getNumberOfWhitelistedParticipants",
					"outputs": [
						{
							"internalType": "uint256",
							"name": "",
							"type": "uint256"
						}
					],
					"stateMutability": "view",
					"type": "function"
				},
				{
					"inputs": [],
					"name": "getRewardAmountPerParticipantInWei",
					"outputs": [
						{
							"internalType": "uint256",
							"name": "",
							"type": "uint256"
						}
					],
					"stateMutability": "view",
					"type": "function"
				},
				{
					"inputs": [],
					"name": "getTargetNumberOfParticipants",
					"outputs": [
						{
							"internalType": "uint256",
							"name": "",
							"type": "uint256"
						}
					],
					"stateMutability": "view",
					"type": "function"
				},
				{
					"inputs": [
						{
							"internalType": "address[]",
							"name": "registeredAddresses",
							"type": "address[]"
						}
					],
					"name": "getWhitelistedParticipantsFromRegisteredParticipants",
					"outputs": [
						{
							"internalType": "address[]",
							"name": "",
							"type": "address[]"
						}
					],
					"stateMutability": "view",
					"type": "function"
				},
				{
					"inputs": [],
					"name": "numberOfScreenedParticipants",
					"outputs": [
						{
							"internalType": "uint256",
							"name": "",
							"type": "uint256"
						}
					],
					"stateMutability": "view",
					"type": "function"
				},
				{
					"inputs": [],
					"name": "numberOfWhitelistedParticipants",
					"outputs": [
						{
							"internalType": "uint256",
							"name": "",
							"type": "uint256"
						}
					],
					"stateMutability": "view",
					"type": "function"
				},
				{
					"inputs": [],
					"name": "owner",
					"outputs": [
						{
							"internalType": "address",
							"name": "",
							"type": "address"
						}
					],
					"stateMutability": "view",
					"type": "function"
				},
				{
					"inputs": [],
					"name": "pauseSurvey",
					"outputs": [],
					"stateMutability": "nonpayable",
					"type": "function"
				},
				{
					"inputs": [],
					"name": "paused",
					"outputs": [
						{
							"internalType": "bool",
							"name": "",
							"type": "bool"
						}
					],
					"stateMutability": "view",
					"type": "function"
				},
				{
					"inputs": [
						{
							"internalType": "address",
							"name": "walletAddress",
							"type": "address"
						}
					],
					"name": "processRewardClaimByParticipant",
					"outputs": [],
					"stateMutability": "nonpayable",
					"type": "function"
				},
				{
					"inputs": [],
					"name": "renounceOwnership",
					"outputs": [],
					"stateMutability": "nonpayable",
					"type": "function"
				},
				{
					"inputs": [],
					"name": "rewardAmountPerParticipantInWei",
					"outputs": [
						{
							"internalType": "uint256",
							"name": "",
							"type": "uint256"
						}
					],
					"stateMutability": "view",
					"type": "function"
				},
				{
					"inputs": [
						{
							"internalType": "address",
							"name": "participantWalletAddress",
							"type": "address"
						}
					],
					"name": "screenParticipant",
					"outputs": [],
					"stateMutability": "nonpayable",
					"type": "function"
				},
				{
					"inputs": [],
					"name": "targetNumberOfParticipants",
					"outputs": [
						{
							"internalType": "uint256",
							"name": "",
							"type": "uint256"
						}
					],
					"stateMutability": "view",
					"type": "function"
				},
				{
					"inputs": [
						{
							"internalType": "address",
							"name": "newOwner",
							"type": "address"
						}
					],
					"name": "transferOwnership",
					"outputs": [],
					"stateMutability": "nonpayable",
					"type": "function"
				},
				{
					"inputs": [],
					"name": "unpauseSurvey",
					"outputs": [],
					"stateMutability": "nonpayable",
					"type": "function"
				},
				{
					"inputs": [
						{
							"internalType": "uint256",
							"name": "_newRewardAmountPerParticipantInWei",
							"type": "uint256"
						}
					],
					"name": "updateRewardAmountPerParticipant",
					"outputs": [],
					"stateMutability": "nonpayable",
					"type": "function"
				},
				{
					"inputs": [
						{
							"internalType": "uint256",
							"name": "_newTargetNumberOfParticipants",
							"type": "uint256"
						}
					],
					"name": "updateTargetNumberOfParticipants",
					"outputs": [],
					"stateMutability": "nonpayable",
					"type": "function"
				},
				{
					"inputs": [
						{
							"internalType": "address[]",
							"name": "participantWalletAddresses",
							"type": "address[]"
						}
					],
					"name": "whitelistMultipleParticipants",
					"outputs": [],
					"stateMutability": "nonpayable",
					"type": "function"
				},
				{
					"inputs": [
						{
							"internalType": "address",
							"name": "participantWalletAddress",
							"type": "address"
						}
					],
					"name": "whitelistOneParticipant",
					"outputs": [],
					"stateMutability": "nonpayable",
					"type": "function"
				},
				{
					"inputs": [],
					"name": "withdrawAllRewardFundsToResearcher",
					"outputs": [],
					"stateMutability": "nonpayable",
					"type": "function"
				}
			],
			"devdoc": {
				"errors": {
					"EnforcedPause()": [
						{
							"details": "The operation failed because the contract is paused."
						}
					],
					"ExpectedPause()": [
						{
							"details": "The operation failed because the contract is not paused."
						}
					],
					"OwnableInvalidOwner(address)": [
						{
							"details": "The owner is not a valid owner account. (eg. `address(0)`)"
						}
					],
					"OwnableUnauthorizedAccount(address)": [
						{
							"details": "The caller account is not authorized to perform an operation."
						}
					],
					"ReentrancyGuardReentrantCall()": [
						{
							"details": "Unauthorized reentrant call."
						}
					]
				},
				"events": {
					"Paused(address)": {
						"details": "Emitted when the pause is triggered by `account`."
					},
					"Unpaused(address)": {
						"details": "Emitted when the pause is lifted by `account`."
					}
				},
				"kind": "dev",
				"methods": {
					"owner()": {
						"details": "Returns the address of the current owner."
					},
					"paused()": {
						"details": "Returns true if the contract is paused, and false otherwise."
					},
					"renounceOwnership()": {
						"details": "Leaves the contract without owner. It will not be possible to call `onlyOwner` functions. Can only be called by the current owner. NOTE: Renouncing ownership will leave the contract without an owner, thereby disabling any functionality that is only available to the owner."
					},
					"transferOwnership(address)": {
						"details": "Transfers ownership of the contract to a new account (`newOwner`). Can only be called by the current owner."
					}
				},
				"version": 1
			},
			"evm": {
				"assembly": "    /* \"smart-contract/hardhat/contracts/ClosedSurveyV3.sol\":330:14049  contract ClosedSurveyV3 is Ownable, ReentrancyGuard, Pausable {... */\n  mstore(0x40, 0xa0)\n    /* \"smart-contract/hardhat/contracts/ClosedSurveyV3.sol\":3790:4685  constructor(... */\n  callvalue\n  dup1\n  iszero\n  tag_1\n  jumpi\n  0x00\n  dup1\n  revert\ntag_1:\n  pop\n  mload(0x40)\n  sub(codesize, bytecodeSize)\n  dup1\n  bytecodeSize\n  dup4\n  codecopy\n  dup2\n  add\n  0x40\n  dup2\n  swap1\n  mstore\n  tag_2\n  swap2\n  tag_3\n  jump\t// in\ntag_2:\n    /* \"smart-contract/hardhat/contracts/ClosedSurveyV3.sol\":3986:4009  researcherWalletAddress */\n  dup4\n  sub(shl(0xa0, 0x01), 0x01)\n    /* \"@openzeppelin/contracts/access/Ownable.sol\":1273:1299  initialOwner == address(0) */\n  dup2\n  and\n    /* \"@openzeppelin/contracts/access/Ownable.sol\":1269:1364  if (initialOwner == address(0)) {... */\n  tag_9\n  jumpi\n    /* \"@openzeppelin/contracts/access/Ownable.sol\":1322:1353  OwnableInvalidOwner(address(0)) */\n  mload(0x40)\n  shl(0xe0, 0x1e4fbdf7)\n  dup2\n  mstore\n    /* \"@openzeppelin/contracts/access/Ownable.sol\":1350:1351  0 */\n  0x00\n    /* \"@openzeppelin/contracts/access/Ownable.sol\":1322:1353  OwnableInvalidOwner(address(0)) */\n  0x04\n  dup3\n  add\n    /* \"#utility.yul\":861:912   */\n  mstore\n    /* \"#utility.yul\":834:852   */\n  0x24\n  add\n    /* \"@openzeppelin/contracts/access/Ownable.sol\":1322:1353  OwnableInvalidOwner(address(0)) */\ntag_10:\n  mload(0x40)\n  dup1\n  swap2\n  sub\n  swap1\n  revert\n    /* \"@openzeppelin/contracts/access/Ownable.sol\":1269:1364  if (initialOwner == address(0)) {... */\ntag_9:\n    /* \"@openzeppelin/contracts/access/Ownable.sol\":1373:1405  _transferOwnership(initialOwner) */\n  tag_12\n    /* \"@openzeppelin/contracts/access/Ownable.sol\":1392:1404  initialOwner */\n  dup2\n    /* \"@openzeppelin/contracts/access/Ownable.sol\":1373:1391  _transferOwnership */\n  tag_13\n    /* \"@openzeppelin/contracts/access/Ownable.sol\":1373:1405  _transferOwnership(initialOwner) */\n  jump\t// in\ntag_12:\n  pop\n    /* \"@openzeppelin/contracts/utils/ReentrancyGuard.sol\":1857:1858  1 */\n  0x01\n    /* \"@openzeppelin/contracts/utils/ReentrancyGuard.sol\":2061:2082  _status = NOT_ENTERED */\n  dup1\n  sstore\n    /* \"@openzeppelin/contracts/utils/Pausable.sol\":1231:1238  _paused */\n  0x02\n    /* \"@openzeppelin/contracts/utils/Pausable.sol\":1231:1246  _paused = false */\n  dup1\n  sload\n  not(0xff)\n  and\n  swap1\n  sstore\n  sub(shl(0xa0, 0x01), 0x01)\n    /* \"smart-contract/hardhat/contracts/ClosedSurveyV3.sol\":4042:4072  cUSDTokenAddress != address(0) */\n  dup2\n  and\n    /* \"smart-contract/hardhat/contracts/ClosedSurveyV3.sol\":4021:4137  require(... */\n  tag_17\n  jumpi\n  mload(0x40)\n  shl(0xe5, 0x461bcd)\n  dup2\n  mstore\n    /* \"#utility.yul\":1125:1127   */\n  0x20\n    /* \"smart-contract/hardhat/contracts/ClosedSurveyV3.sol\":4021:4137  require(... */\n  0x04\n  dup3\n  add\n    /* \"#utility.yul\":1107:1128   */\n  mstore\n    /* \"#utility.yul\":1164:1166   */\n  0x27\n    /* \"#utility.yul\":1144:1162   */\n  0x24\n  dup3\n  add\n    /* \"#utility.yul\":1137:1167   */\n  mstore\n    /* \"#utility.yul\":1203:1237   */\n  0x5a65726f206164647265737320676976656e20666f722063555344546f6b656e\n    /* \"#utility.yul\":1183:1201   */\n  0x44\n  dup3\n  add\n    /* \"#utility.yul\":1176:1238   */\n  mstore\n  shl(0xc8, 0x41646472657373)\n    /* \"#utility.yul\":1254:1272   */\n  0x64\n  dup3\n  add\n    /* \"#utility.yul\":1247:1284   */\n  mstore\n    /* \"#utility.yul\":1301:1320   */\n  0x84\n  add\n    /* \"smart-contract/hardhat/contracts/ClosedSurveyV3.sol\":4021:4137  require(... */\n  tag_10\n    /* \"#utility.yul\":923:1326   */\n  jump\n    /* \"smart-contract/hardhat/contracts/ClosedSurveyV3.sol\":4021:4137  require(... */\ntag_17:\n  sub(shl(0xa0, 0x01), 0x01)\n    /* \"smart-contract/hardhat/contracts/ClosedSurveyV3.sol\":4169:4206  researcherWalletAddress != address(0) */\n  dup5\n  and\n    /* \"smart-contract/hardhat/contracts/ClosedSurveyV3.sol\":4148:4278  require(... */\n  tag_20\n  jumpi\n  mload(0x40)\n  shl(0xe5, 0x461bcd)\n  dup2\n  mstore\n    /* \"#utility.yul\":1533:1535   */\n  0x20\n    /* \"smart-contract/hardhat/contracts/ClosedSurveyV3.sol\":4148:4278  require(... */\n  0x04\n  dup3\n  add\n    /* \"#utility.yul\":1515:1536   */\n  mstore\n    /* \"#utility.yul\":1572:1574   */\n  0x2e\n    /* \"#utility.yul\":1552:1570   */\n  0x24\n  dup3\n  add\n    /* \"#utility.yul\":1545:1575   */\n  mstore\n    /* \"#utility.yul\":1611:1645   */\n  0x5a65726f206164647265737320676976656e20666f7220726573656172636865\n    /* \"#utility.yul\":1591:1609   */\n  0x44\n  dup3\n  add\n    /* \"#utility.yul\":1584:1646   */\n  mstore\n  shl(0x90, 0x7257616c6c657441646472657373)\n    /* \"#utility.yul\":1662:1680   */\n  0x64\n  dup3\n  add\n    /* \"#utility.yul\":1655:1699   */\n  mstore\n    /* \"#utility.yul\":1716:1735   */\n  0x84\n  add\n    /* \"smart-contract/hardhat/contracts/ClosedSurveyV3.sol\":4148:4278  require(... */\n  tag_10\n    /* \"#utility.yul\":1331:1741   */\n  jump\n    /* \"smart-contract/hardhat/contracts/ClosedSurveyV3.sol\":4148:4278  require(... */\ntag_20:\n    /* \"smart-contract/hardhat/contracts/ClosedSurveyV3.sol\":4332:4333  0 */\n  0x00\n    /* \"smart-contract/hardhat/contracts/ClosedSurveyV3.sol\":4297:4329  _rewardAmountPerParticipantInWei */\n  dup4\n    /* \"smart-contract/hardhat/contracts/ClosedSurveyV3.sol\":4297:4333  _rewardAmountPerParticipantInWei > 0 */\n  gt\n    /* \"smart-contract/hardhat/contracts/ClosedSurveyV3.sol\":4289:4359  require(_rewardAmountPerParticipantInWei > 0, \"Invalid reward amount\") */\n  tag_23\n  jumpi\n  mload(0x40)\n  shl(0xe5, 0x461bcd)\n  dup2\n  mstore\n    /* \"#utility.yul\":1948:1950   */\n  0x20\n    /* \"smart-contract/hardhat/contracts/ClosedSurveyV3.sol\":4289:4359  require(_rewardAmountPerParticipantInWei > 0, \"Invalid reward amount\") */\n  0x04\n  dup3\n  add\n    /* \"#utility.yul\":1930:1951   */\n  mstore\n    /* \"#utility.yul\":1987:1989   */\n  0x15\n    /* \"#utility.yul\":1967:1985   */\n  0x24\n  dup3\n  add\n    /* \"#utility.yul\":1960:1990   */\n  mstore\n    /* \"#utility.yul\":2026:2049   */\n  0x496e76616c69642072657761726420616d6f756e740000000000000000000000\n    /* \"#utility.yul\":2006:2024   */\n  0x44\n  dup3\n  add\n    /* \"#utility.yul\":1999:2050   */\n  mstore\n    /* \"#utility.yul\":2067:2085   */\n  0x64\n  add\n    /* \"smart-contract/hardhat/contracts/ClosedSurveyV3.sol\":4289:4359  require(_rewardAmountPerParticipantInWei > 0, \"Invalid reward amount\") */\n  tag_10\n    /* \"#utility.yul\":1746:2091   */\n  jump\n    /* \"smart-contract/hardhat/contracts/ClosedSurveyV3.sol\":4289:4359  require(_rewardAmountPerParticipantInWei > 0, \"Invalid reward amount\") */\ntag_23:\n    /* \"smart-contract/hardhat/contracts/ClosedSurveyV3.sol\":4421:4422  0 */\n  0x00\n    /* \"smart-contract/hardhat/contracts/ClosedSurveyV3.sol\":4391:4418  _targetNumberOfParticipants */\n  dup3\n    /* \"smart-contract/hardhat/contracts/ClosedSurveyV3.sol\":4391:4422  _targetNumberOfParticipants > 0 */\n  gt\n    /* \"smart-contract/hardhat/contracts/ClosedSurveyV3.sol\":4370:4485  require(... */\n  tag_26\n  jumpi\n  mload(0x40)\n  shl(0xe5, 0x461bcd)\n  dup2\n  mstore\n    /* \"#utility.yul\":2298:2300   */\n  0x20\n    /* \"smart-contract/hardhat/contracts/ClosedSurveyV3.sol\":4370:4485  require(... */\n  0x04\n  dup3\n  add\n    /* \"#utility.yul\":2280:2301   */\n  mstore\n    /* \"#utility.yul\":2337:2339   */\n  0x25\n    /* \"#utility.yul\":2317:2335   */\n  0x24\n  dup3\n  add\n    /* \"#utility.yul\":2310:2340   */\n  mstore\n    /* \"#utility.yul\":2376:2410   */\n  0x496e76616c6964206e756d626572206f66207461726765742070617274696369\n    /* \"#utility.yul\":2356:2374   */\n  0x44\n  dup3\n  add\n    /* \"#utility.yul\":2349:2411   */\n  mstore\n  shl(0xd8, 0x70616e7473)\n    /* \"#utility.yul\":2427:2445   */\n  0x64\n  dup3\n  add\n    /* \"#utility.yul\":2420:2455   */\n  mstore\n    /* \"#utility.yul\":2472:2491   */\n  0x84\n  add\n    /* \"smart-contract/hardhat/contracts/ClosedSurveyV3.sol\":4370:4485  require(... */\n  tag_10\n    /* \"#utility.yul\":2096:2497   */\n  jump\n    /* \"smart-contract/hardhat/contracts/ClosedSurveyV3.sol\":4370:4485  require(... */\ntag_26:\n  sub(shl(0xa0, 0x01), 0x01)\n    /* \"smart-contract/hardhat/contracts/ClosedSurveyV3.sol\":4496:4535  cUSD = IERC20Metadata(cUSDTokenAddress) */\n  and\n  0x80\n  mstore\n    /* \"smart-contract/hardhat/contracts/ClosedSurveyV3.sol\":4546:4577  rewardAmountPerParticipantInWei */\n  0x06\n    /* \"smart-contract/hardhat/contracts/ClosedSurveyV3.sol\":4546:4612  rewardAmountPerParticipantInWei = _rewardAmountPerParticipantInWei */\n  swap2\n  swap1\n  swap2\n  sstore\n    /* \"smart-contract/hardhat/contracts/ClosedSurveyV3.sol\":4622:4648  targetNumberOfParticipants */\n  0x07\n    /* \"smart-contract/hardhat/contracts/ClosedSurveyV3.sol\":4622:4678  targetNumberOfParticipants = _targetNumberOfParticipants */\n  sstore\n  pop\n    /* \"smart-contract/hardhat/contracts/ClosedSurveyV3.sol\":330:14049  contract ClosedSurveyV3 is Ownable, ReentrancyGuard, Pausable {... */\n  jump(tag_32)\n    /* \"@openzeppelin/contracts/access/Ownable.sol\":2912:3099  function _transferOwnership(address newOwner) internal virtual {... */\ntag_13:\n    /* \"@openzeppelin/contracts/access/Ownable.sol\":2985:3001  address oldOwner */\n  0x00\n    /* \"@openzeppelin/contracts/access/Ownable.sol\":3004:3010  _owner */\n  dup1\n  sload\n  sub(shl(0xa0, 0x01), 0x01)\n    /* \"@openzeppelin/contracts/access/Ownable.sol\":3020:3037  _owner = newOwner */\n  dup4\n  dup2\n  and\n  not(sub(shl(0xa0, 0x01), 0x01))\n  dup4\n  and\n  dup2\n  or\n  dup5\n  sstore\n    /* \"@openzeppelin/contracts/access/Ownable.sol\":3052:3092  OwnershipTransferred(oldOwner, newOwner) */\n  mload(0x40)\n    /* \"@openzeppelin/contracts/access/Ownable.sol\":3004:3010  _owner */\n  swap2\n  swap1\n  swap3\n  and\n  swap3\n  dup4\n  swap2\n    /* \"@openzeppelin/contracts/access/Ownable.sol\":3052:3092  OwnershipTransferred(oldOwner, newOwner) */\n  0x8be0079c531659141344cd1fd0a4f28419497f9722a3daafe3b4186f6b6457e0\n  swap2\n    /* \"@openzeppelin/contracts/access/Ownable.sol\":2985:3001  address oldOwner */\n  swap1\n    /* \"@openzeppelin/contracts/access/Ownable.sol\":3052:3092  OwnershipTransferred(oldOwner, newOwner) */\n  log3\n    /* \"@openzeppelin/contracts/access/Ownable.sol\":2975:3099  {... */\n  pop\n    /* \"@openzeppelin/contracts/access/Ownable.sol\":2912:3099  function _transferOwnership(address newOwner) internal virtual {... */\n  pop\n  jump\t// out\n    /* \"#utility.yul\":14:191   */\ntag_31:\n    /* \"#utility.yul\":93:106   */\n  dup1\n  mload\n  sub(shl(0xa0, 0x01), 0x01)\n    /* \"#utility.yul\":135:166   */\n  dup2\n  and\n    /* \"#utility.yul\":125:167   */\n  dup2\n  eq\n    /* \"#utility.yul\":115:185   */\n  tag_34\n  jumpi\n    /* \"#utility.yul\":181:182   */\n  0x00\n    /* \"#utility.yul\":178:179   */\n  dup1\n    /* \"#utility.yul\":171:183   */\n  revert\n    /* \"#utility.yul\":115:185   */\ntag_34:\n    /* \"#utility.yul\":14:191   */\n  swap2\n  swap1\n  pop\n  jump\t// out\n    /* \"#utility.yul\":196:710   */\ntag_3:\n    /* \"#utility.yul\":293:299   */\n  0x00\n    /* \"#utility.yul\":301:307   */\n  dup1\n    /* \"#utility.yul\":309:315   */\n  0x00\n    /* \"#utility.yul\":317:323   */\n  dup1\n    /* \"#utility.yul\":370:373   */\n  0x80\n    /* \"#utility.yul\":358:367   */\n  dup6\n    /* \"#utility.yul\":349:356   */\n  dup8\n    /* \"#utility.yul\":345:368   */\n  sub\n    /* \"#utility.yul\":341:374   */\n  slt\n    /* \"#utility.yul\":338:391   */\n  iszero\n  tag_36\n  jumpi\n    /* \"#utility.yul\":387:388   */\n  0x00\n    /* \"#utility.yul\":384:385   */\n  dup1\n    /* \"#utility.yul\":377:389   */\n  revert\n    /* \"#utility.yul\":338:391   */\ntag_36:\n    /* \"#utility.yul\":410:450   */\n  tag_37\n    /* \"#utility.yul\":440:449   */\n  dup6\n    /* \"#utility.yul\":410:450   */\n  tag_31\n  jump\t// in\ntag_37:\n    /* \"#utility.yul\":512:514   */\n  0x20\n    /* \"#utility.yul\":497:515   */\n  dup7\n  add\n    /* \"#utility.yul\":491:516   */\n  mload\n    /* \"#utility.yul\":606:608   */\n  0x40\n    /* \"#utility.yul\":591:609   */\n  dup8\n  add\n    /* \"#utility.yul\":585:610   */\n  mload\n    /* \"#utility.yul\":400:450   */\n  swap2\n  swap6\n  pop\n    /* \"#utility.yul\":491:516   */\n  swap4\n  pop\n    /* \"#utility.yul\":585:610   */\n  swap2\n  pop\n    /* \"#utility.yul\":655:704   */\n  tag_38\n    /* \"#utility.yul\":700:702   */\n  0x60\n    /* \"#utility.yul\":685:703   */\n  dup7\n  add\n    /* \"#utility.yul\":655:704   */\n  tag_31\n  jump\t// in\ntag_38:\n    /* \"#utility.yul\":645:704   */\n  swap1\n  pop\n    /* \"#utility.yul\":196:710   */\n  swap3\n  swap6\n  swap2\n  swap5\n  pop\n  swap3\n  pop\n  jump\t// out\n    /* \"#utility.yul\":2096:2497   */\ntag_32:\n    /* \"smart-contract/hardhat/contracts/ClosedSurveyV3.sol\":330:14049  contract ClosedSurveyV3 is Ownable, ReentrancyGuard, Pausable {... */\n  mload(0x80)\n  codecopy(0x00, dataOffset(sub_0), dataSize(sub_0))\n  0x00\n  assignImmutable(\"0x4ce4dab4689da140a0c12de1a6af6b8f679594aeb723205f513e052d27f5b26f\")\n  return(0x00, dataSize(sub_0))\nstop\n\nsub_0: assembly {\n        /* \"smart-contract/hardhat/contracts/ClosedSurveyV3.sol\":330:14049  contract ClosedSurveyV3 is Ownable, ReentrancyGuard, Pausable {... */\n      mstore(0x40, 0x80)\n      callvalue\n      dup1\n      iszero\n      tag_1\n      jumpi\n      0x00\n      dup1\n      revert\n    tag_1:\n      pop\n      jumpi(tag_2, lt(calldatasize, 0x04))\n      shr(0xe0, calldataload(0x00))\n      dup1\n      0x741ae614\n      gt\n      tag_31\n      jumpi\n      dup1\n      0xa6a09811\n      gt\n      tag_32\n      jumpi\n      dup1\n      0xe082fe2a\n      gt\n      tag_33\n      jumpi\n      dup1\n      0xe082fe2a\n      eq\n      tag_27\n      jumpi\n      dup1\n      0xea1dd101\n      eq\n      tag_28\n      jumpi\n      dup1\n      0xf22069df\n      eq\n      tag_29\n      jumpi\n      dup1\n      0xf2fde38b\n      eq\n      tag_30\n      jumpi\n      0x00\n      dup1\n      revert\n    tag_33:\n      dup1\n      0xa6a09811\n      eq\n      tag_24\n      jumpi\n      dup1\n      0xd4bfbd41\n      eq\n      tag_25\n      jumpi\n      dup1\n      0xd5e1b394\n      eq\n      tag_26\n      jumpi\n      0x00\n      dup1\n      revert\n    tag_32:\n      dup1\n      0x8c0a0966\n      gt\n      tag_34\n      jumpi\n      dup1\n      0x8c0a0966\n      eq\n      tag_20\n      jumpi\n      dup1\n      0x8da5cb5b\n      eq\n      tag_21\n      jumpi\n      dup1\n      0xa0858343\n      eq\n      tag_22\n      jumpi\n      dup1\n      0xa0ca86a3\n      eq\n      tag_23\n      jumpi\n      0x00\n      dup1\n      revert\n    tag_34:\n      dup1\n      0x741ae614\n      eq\n      tag_17\n      jumpi\n      dup1\n      0x7a0abf08\n      eq\n      tag_18\n      jumpi\n      dup1\n      0x7dce13fe\n      eq\n      tag_19\n      jumpi\n      0x00\n      dup1\n      revert\n    tag_31:\n      dup1\n      0x5c975abb\n      gt\n      tag_35\n      jumpi\n      dup1\n      0x6ff65c20\n      gt\n      tag_36\n      jumpi\n      dup1\n      0x6ff65c20\n      eq\n      tag_13\n      jumpi\n      dup1\n      0x7069243c\n      eq\n      tag_14\n      jumpi\n      dup1\n      0x715018a6\n      eq\n      tag_15\n      jumpi\n      dup1\n      0x729f6bbd\n      eq\n      tag_16\n      jumpi\n      0x00\n      dup1\n      revert\n    tag_36:\n      dup1\n      0x5c975abb\n      eq\n      tag_10\n      jumpi\n      dup1\n      0x64bb632f\n      eq\n      tag_11\n      jumpi\n      dup1\n      0x6fa1c59d\n      eq\n      tag_12\n      jumpi\n      0x00\n      dup1\n      revert\n    tag_35:\n      dup1\n      0x28a2355b\n      gt\n      tag_37\n      jumpi\n      dup1\n      0x28a2355b\n      eq\n      tag_6\n      jumpi\n      dup1\n      0x3960fc66\n      eq\n      tag_7\n      jumpi\n      dup1\n      0x4074be40\n      eq\n      tag_8\n      jumpi\n      dup1\n      0x528780cc\n      eq\n      tag_9\n      jumpi\n      0x00\n      dup1\n      revert\n    tag_37:\n      dup1\n      0x047bc438\n      eq\n      tag_3\n      jumpi\n      dup1\n      0x1fccf672\n      eq\n      tag_4\n      jumpi\n      dup1\n      0x2201b856\n      eq\n      tag_5\n      jumpi\n    tag_2:\n      0x00\n      dup1\n      revert\n        /* \"smart-contract/hardhat/contracts/ClosedSurveyV3.sol\":789:835  uint256 public numberOfWhitelistedParticipants */\n    tag_3:\n      tag_38\n      sload(0x09)\n      dup2\n      jump\n    tag_38:\n      mload(0x40)\n        /* \"#utility.yul\":160:185   */\n      swap1\n      dup2\n      mstore\n        /* \"#utility.yul\":148:150   */\n      0x20\n        /* \"#utility.yul\":133:151   */\n      add\n        /* \"smart-contract/hardhat/contracts/ClosedSurveyV3.sol\":789:835  uint256 public numberOfWhitelistedParticipants */\n    tag_40:\n      mload(0x40)\n      dup1\n      swap2\n      sub\n      swap1\n      return\n        /* \"smart-contract/hardhat/contracts/ClosedSurveyV3.sol\":398:434  IERC20Metadata public immutable cUSD */\n    tag_4:\n      tag_42\n      immutable(\"0x4ce4dab4689da140a0c12de1a6af6b8f679594aeb723205f513e052d27f5b26f\")\n      dup2\n      jump\n    tag_42:\n      mload(0x40)\n      sub(shl(0xa0, 0x01), 0x01)\n        /* \"#utility.yul\":382:414   */\n      swap1\n      swap2\n      and\n        /* \"#utility.yul\":364:415   */\n      dup2\n      mstore\n        /* \"#utility.yul\":352:354   */\n      0x20\n        /* \"#utility.yul\":337:355   */\n      add\n        /* \"smart-contract/hardhat/contracts/ClosedSurveyV3.sol\":398:434  IERC20Metadata public immutable cUSD */\n      tag_40\n        /* \"#utility.yul\":196:421   */\n      jump\n        /* \"smart-contract/hardhat/contracts/ClosedSurveyV3.sol\":6155:7330  function whitelistMultipleParticipants(... */\n    tag_5:\n      tag_46\n      tag_47\n      calldatasize\n      0x04\n      tag_48\n      jump\t// in\n    tag_47:\n      tag_49\n      jump\t// in\n    tag_46:\n      stop\n        /* \"smart-contract/hardhat/contracts/ClosedSurveyV3.sol\":13886:14047  function getNumberOfWhitelistedParticipants()... */\n    tag_6:\n        /* \"smart-contract/hardhat/contracts/ClosedSurveyV3.sol\":14009:14040  numberOfWhitelistedParticipants */\n      sload(0x09)\n        /* \"smart-contract/hardhat/contracts/ClosedSurveyV3.sol\":13886:14047  function getNumberOfWhitelistedParticipants()... */\n      jump(tag_38)\n        /* \"smart-contract/hardhat/contracts/ClosedSurveyV3.sol\":11696:11767  function unpauseSurvey() external onlyOwner {... */\n    tag_7:\n      tag_46\n      tag_54\n      jump\t// in\n        /* \"smart-contract/hardhat/contracts/ClosedSurveyV3.sol\":841:884  uint256 public numberOfScreenedParticipants */\n    tag_8:\n      tag_38\n      sload(0x0a)\n      dup2\n      jump\n        /* \"smart-contract/hardhat/contracts/ClosedSurveyV3.sol\":10991:11617  function updateTargetNumberOfParticipants(... */\n    tag_9:\n      tag_46\n      tag_59\n      calldatasize\n      0x04\n      tag_60\n      jump\t// in\n    tag_59:\n      tag_61\n      jump\t// in\n        /* \"@openzeppelin/contracts/utils/Pausable.sol\":1850:1934  function paused() public view virtual returns (bool) {... */\n    tag_10:\n        /* \"@openzeppelin/contracts/utils/Pausable.sol\":1920:1927  _paused */\n      and(0xff, sload(0x02))\n        /* \"@openzeppelin/contracts/utils/Pausable.sol\":1850:1934  function paused() public view virtual returns (bool) {... */\n    tag_62:\n      mload(0x40)\n        /* \"#utility.yul\":1391:1405   */\n      swap1\n      iszero\n        /* \"#utility.yul\":1384:1406   */\n      iszero\n        /* \"#utility.yul\":1366:1407   */\n      dup2\n      mstore\n        /* \"#utility.yul\":1354:1356   */\n      0x20\n        /* \"#utility.yul\":1339:1357   */\n      add\n        /* \"@openzeppelin/contracts/utils/Pausable.sol\":1850:1934  function paused() public view virtual returns (bool) {... */\n      tag_40\n        /* \"#utility.yul\":1226:1413   */\n      jump\n        /* \"smart-contract/hardhat/contracts/ClosedSurveyV3.sol\":10340:10985  function updateRewardAmountPerParticipant(... */\n    tag_11:\n      tag_46\n      tag_67\n      calldatasize\n      0x04\n      tag_60\n      jump\t// in\n    tag_67:\n      tag_68\n      jump\t// in\n        /* \"smart-contract/hardhat/contracts/ClosedSurveyV3.sol\":13757:13880  function getTargetNumberOfParticipants() external view returns (uint256) {... */\n    tag_12:\n        /* \"smart-contract/hardhat/contracts/ClosedSurveyV3.sol\":13847:13873  targetNumberOfParticipants */\n      sload(0x07)\n        /* \"smart-contract/hardhat/contracts/ClosedSurveyV3.sol\":13757:13880  function getTargetNumberOfParticipants() external view returns (uint256) {... */\n      jump(tag_38)\n        /* \"smart-contract/hardhat/contracts/ClosedSurveyV3.sol\":12812:13010  function checkIfParticipantHasAlreadyClaimedReward(... */\n    tag_13:\n      tag_62\n      tag_73\n      calldatasize\n      0x04\n      tag_74\n      jump\t// in\n    tag_73:\n      sub(shl(0xa0, 0x01), 0x01)\n        /* \"smart-contract/hardhat/contracts/ClosedSurveyV3.sol\":12957:13003  rewardedParticipants[participantWalletAddress] */\n      and\n        /* \"smart-contract/hardhat/contracts/ClosedSurveyV3.sol\":12934:12938  bool */\n      0x00\n        /* \"smart-contract/hardhat/contracts/ClosedSurveyV3.sol\":12957:13003  rewardedParticipants[participantWalletAddress] */\n      swap1\n      dup2\n      mstore\n        /* \"smart-contract/hardhat/contracts/ClosedSurveyV3.sol\":12957:12977  rewardedParticipants */\n      0x04\n        /* \"smart-contract/hardhat/contracts/ClosedSurveyV3.sol\":12957:13003  rewardedParticipants[participantWalletAddress] */\n      0x20\n      mstore\n      0x40\n      swap1\n      keccak256\n      sload\n      0xff\n      and\n      swap1\n        /* \"smart-contract/hardhat/contracts/ClosedSurveyV3.sol\":12812:13010  function checkIfParticipantHasAlreadyClaimedReward(... */\n      jump\n        /* \"smart-contract/hardhat/contracts/ClosedSurveyV3.sol\":13457:13618  function getRewardAmountPerParticipantInWei()... */\n    tag_14:\n        /* \"smart-contract/hardhat/contracts/ClosedSurveyV3.sol\":13580:13611  rewardAmountPerParticipantInWei */\n      sload(0x06)\n        /* \"smart-contract/hardhat/contracts/ClosedSurveyV3.sol\":13457:13618  function getRewardAmountPerParticipantInWei()... */\n      jump(tag_38)\n        /* \"@openzeppelin/contracts/access/Ownable.sol\":2293:2394  function renounceOwnership() public virtual onlyOwner {... */\n    tag_15:\n      tag_46\n      tag_81\n      jump\t// in\n        /* \"smart-contract/hardhat/contracts/ClosedSurveyV3.sol\":7336:8505  function blacklistMultipleParticipants(... */\n    tag_16:\n      tag_46\n      tag_83\n      calldatasize\n      0x04\n      tag_48\n      jump\t// in\n    tag_83:\n      tag_84\n      jump\t// in\n        /* \"smart-contract/hardhat/contracts/ClosedSurveyV3.sol\":13624:13751  function getNumberOfRewardedParticipants() external view returns (uint256) {... */\n    tag_17:\n        /* \"smart-contract/hardhat/contracts/ClosedSurveyV3.sol\":13716:13744  numberOfRewardedParticipants */\n      sload(0x08)\n        /* \"smart-contract/hardhat/contracts/ClosedSurveyV3.sol\":13624:13751  function getNumberOfRewardedParticipants() external view returns (uint256) {... */\n      jump(tag_38)\n        /* \"smart-contract/hardhat/contracts/ClosedSurveyV3.sol\":640:686  uint256 public rewardAmountPerParticipantInWei */\n    tag_18:\n      tag_38\n      sload(0x06)\n      dup2\n      jump\n        /* \"smart-contract/hardhat/contracts/ClosedSurveyV3.sol\":5194:5658  function whitelistOneParticipant(address participantWalletAddress)... */\n    tag_19:\n      tag_46\n      tag_92\n      calldatasize\n      0x04\n      tag_74\n      jump\t// in\n    tag_92:\n      tag_93\n      jump\t// in\n        /* \"smart-contract/hardhat/contracts/ClosedSurveyV3.sol\":13236:13451  function checkIfParticipantIsBlacklisted(address participantWalletAddress)... */\n    tag_20:\n      tag_62\n      tag_95\n      calldatasize\n      0x04\n      tag_74\n      jump\t// in\n    tag_95:\n      sub(shl(0xa0, 0x01), 0x01)\n        /* \"smart-contract/hardhat/contracts/ClosedSurveyV3.sol\":13386:13444  participantsWhitelistedForSurvey[participantWalletAddress] */\n      and\n        /* \"smart-contract/hardhat/contracts/ClosedSurveyV3.sol\":13358:13362  bool */\n      0x00\n        /* \"smart-contract/hardhat/contracts/ClosedSurveyV3.sol\":13386:13444  participantsWhitelistedForSurvey[participantWalletAddress] */\n      swap1\n      dup2\n      mstore\n        /* \"smart-contract/hardhat/contracts/ClosedSurveyV3.sol\":13386:13418  participantsWhitelistedForSurvey */\n      0x03\n        /* \"smart-contract/hardhat/contracts/ClosedSurveyV3.sol\":13386:13444  participantsWhitelistedForSurvey[participantWalletAddress] */\n      0x20\n      mstore\n      0x40\n      swap1\n      keccak256\n      sload\n      0xff\n      and\n        /* \"smart-contract/hardhat/contracts/ClosedSurveyV3.sol\":13385:13444  !participantsWhitelistedForSurvey[participantWalletAddress] */\n      iszero\n      swap1\n        /* \"smart-contract/hardhat/contracts/ClosedSurveyV3.sol\":13236:13451  function checkIfParticipantIsBlacklisted(address participantWalletAddress)... */\n      jump\n        /* \"@openzeppelin/contracts/access/Ownable.sol\":1638:1723  function owner() public view virtual returns (address) {... */\n    tag_21:\n        /* \"@openzeppelin/contracts/access/Ownable.sol\":1684:1691  address */\n      0x00\n        /* \"@openzeppelin/contracts/access/Ownable.sol\":1710:1716  _owner */\n      sload\n      sub(shl(0xa0, 0x01), 0x01)\n      and\n        /* \"@openzeppelin/contracts/access/Ownable.sol\":1638:1723  function owner() public view virtual returns (address) {... */\n      jump(tag_42)\n        /* \"smart-contract/hardhat/contracts/ClosedSurveyV3.sol\":8511:9115  function processRewardClaimByParticipant(address walletAddress)... */\n    tag_22:\n      tag_46\n      tag_103\n      calldatasize\n      0x04\n      tag_74\n      jump\t// in\n    tag_103:\n      tag_104\n      jump\t// in\n        /* \"smart-contract/hardhat/contracts/ClosedSurveyV3.sol\":11773:12806  function getWhitelistedParticipantsFromRegisteredParticipants(... */\n    tag_23:\n      tag_105\n      tag_106\n      calldatasize\n      0x04\n      tag_48\n      jump\t// in\n    tag_106:\n      tag_107\n      jump\t// in\n    tag_105:\n      mload(0x40)\n      tag_40\n      swap2\n      swap1\n      tag_109\n      jump\t// in\n        /* \"smart-contract/hardhat/contracts/ClosedSurveyV3.sol\":692:733  uint256 public targetNumberOfParticipants */\n    tag_24:\n      tag_38\n      sload(0x07)\n      dup2\n      jump\n        /* \"smart-contract/hardhat/contracts/ClosedSurveyV3.sol\":13016:13230  function checkIfParticipantIsWhitelisted(address participantWalletAddress)... */\n    tag_25:\n      tag_62\n      tag_114\n      calldatasize\n      0x04\n      tag_74\n      jump\t// in\n    tag_114:\n      sub(shl(0xa0, 0x01), 0x01)\n        /* \"smart-contract/hardhat/contracts/ClosedSurveyV3.sol\":13165:13223  participantsWhitelistedForSurvey[participantWalletAddress] */\n      and\n        /* \"smart-contract/hardhat/contracts/ClosedSurveyV3.sol\":13138:13142  bool */\n      0x00\n        /* \"smart-contract/hardhat/contracts/ClosedSurveyV3.sol\":13165:13223  participantsWhitelistedForSurvey[participantWalletAddress] */\n      swap1\n      dup2\n      mstore\n        /* \"smart-contract/hardhat/contracts/ClosedSurveyV3.sol\":13165:13197  participantsWhitelistedForSurvey */\n      0x03\n        /* \"smart-contract/hardhat/contracts/ClosedSurveyV3.sol\":13165:13223  participantsWhitelistedForSurvey[participantWalletAddress] */\n      0x20\n      mstore\n      0x40\n      swap1\n      keccak256\n      sload\n      0xff\n      and\n      swap1\n        /* \"smart-contract/hardhat/contracts/ClosedSurveyV3.sol\":13016:13230  function checkIfParticipantIsWhitelisted(address participantWalletAddress)... */\n      jump\n        /* \"smart-contract/hardhat/contracts/ClosedSurveyV3.sol\":5664:6149  function blacklistOneParticipant(address participantWalletAddress)... */\n    tag_26:\n      tag_46\n      tag_118\n      calldatasize\n      0x04\n      tag_74\n      jump\t// in\n    tag_118:\n      tag_119\n      jump\t// in\n        /* \"smart-contract/hardhat/contracts/ClosedSurveyV3.sol\":11623:11690  function pauseSurvey() external onlyOwner {... */\n    tag_27:\n      tag_46\n      tag_121\n      jump\t// in\n        /* \"smart-contract/hardhat/contracts/ClosedSurveyV3.sol\":4691:5188  function screenParticipant(address participantWalletAddress)... */\n    tag_28:\n      tag_46\n      tag_123\n      calldatasize\n      0x04\n      tag_74\n      jump\t// in\n    tag_123:\n      tag_124\n      jump\t// in\n        /* \"smart-contract/hardhat/contracts/ClosedSurveyV3.sol\":9957:10334  function withdrawAllRewardFundsToResearcher()... */\n    tag_29:\n      tag_46\n      tag_126\n      jump\t// in\n        /* \"@openzeppelin/contracts/access/Ownable.sol\":2543:2758  function transferOwnership(address newOwner) public virtual onlyOwner {... */\n    tag_30:\n      tag_46\n      tag_128\n      calldatasize\n      0x04\n      tag_74\n      jump\t// in\n    tag_128:\n      tag_129\n      jump\t// in\n        /* \"smart-contract/hardhat/contracts/ClosedSurveyV3.sol\":6155:7330  function whitelistMultipleParticipants(... */\n    tag_49:\n        /* \"@openzeppelin/contracts/access/Ownable.sol\":1531:1544  _checkOwner() */\n      tag_131\n        /* \"@openzeppelin/contracts/access/Ownable.sol\":1531:1542  _checkOwner */\n      tag_132\n        /* \"@openzeppelin/contracts/access/Ownable.sol\":1531:1544  _checkOwner() */\n      jump\t// in\n    tag_131:\n        /* \"smart-contract/hardhat/contracts/ClosedSurveyV3.sol\":6317:6343  participantWalletAddresses */\n      dup1\n        /* \"smart-contract/hardhat/contracts/ClosedSurveyV3.sol\":6369:6395  numberOfAddressesGiven > 0 */\n      dup1\n        /* \"smart-contract/hardhat/contracts/ClosedSurveyV3.sol\":6361:6419  require(numberOfAddressesGiven > 0, \"No addresses passed\") */\n      tag_134\n      jumpi\n      mload(0x40)\n      shl(0xe5, 0x461bcd)\n      dup2\n      mstore\n      0x04\n      add\n      tag_135\n      swap1\n      tag_136\n      jump\t// in\n    tag_135:\n      mload(0x40)\n      dup1\n      swap2\n      sub\n      swap1\n      revert\n    tag_134:\n        /* \"smart-contract/hardhat/contracts/ClosedSurveyV3.sol\":6435:6444  uint256 i */\n      0x00\n        /* \"smart-contract/hardhat/contracts/ClosedSurveyV3.sol\":6430:6916  for (uint256 i = 0; i < numberOfAddressesGiven; ) {... */\n    tag_137:\n        /* \"smart-contract/hardhat/contracts/ClosedSurveyV3.sol\":6454:6476  numberOfAddressesGiven */\n      dup2\n        /* \"smart-contract/hardhat/contracts/ClosedSurveyV3.sol\":6450:6451  i */\n      dup2\n        /* \"smart-contract/hardhat/contracts/ClosedSurveyV3.sol\":6450:6476  i < numberOfAddressesGiven */\n      lt\n        /* \"smart-contract/hardhat/contracts/ClosedSurveyV3.sol\":6430:6916  for (uint256 i = 0; i < numberOfAddressesGiven; ) {... */\n      iszero\n      tag_138\n      jumpi\n        /* \"smart-contract/hardhat/contracts/ClosedSurveyV3.sol\":6560:6561  0 */\n      0x00\n        /* \"smart-contract/hardhat/contracts/ClosedSurveyV3.sol\":6519:6545  participantWalletAddresses */\n      dup5\n      dup5\n        /* \"smart-contract/hardhat/contracts/ClosedSurveyV3.sol\":6546:6547  i */\n      dup4\n        /* \"smart-contract/hardhat/contracts/ClosedSurveyV3.sol\":6519:6548  participantWalletAddresses[i] */\n      dup2\n      dup2\n      lt\n      tag_141\n      jumpi\n      tag_141\n      tag_142\n      jump\t// in\n    tag_141:\n      swap1\n      pop\n      0x20\n      mul\n      add\n      0x20\n      dup2\n      add\n      swap1\n      tag_143\n      swap2\n      swap1\n      tag_74\n      jump\t// in\n    tag_143:\n      sub(shl(0xa0, 0x01), 0x01)\n        /* \"smart-contract/hardhat/contracts/ClosedSurveyV3.sol\":6519:6562  participantWalletAddresses[i] != address(0) */\n      and\n      sub\n        /* \"smart-contract/hardhat/contracts/ClosedSurveyV3.sol\":6494:6625  require(... */\n      tag_144\n      jumpi\n      mload(0x40)\n      shl(0xe5, 0x461bcd)\n      dup2\n      mstore\n        /* \"#utility.yul\":3319:3321   */\n      0x20\n        /* \"smart-contract/hardhat/contracts/ClosedSurveyV3.sol\":6494:6625  require(... */\n      0x04\n      dup3\n      add\n        /* \"#utility.yul\":3301:3322   */\n      mstore\n        /* \"#utility.yul\":3358:3360   */\n      0x1d\n        /* \"#utility.yul\":3338:3356   */\n      0x24\n      dup3\n      add\n        /* \"#utility.yul\":3331:3361   */\n      mstore\n        /* \"#utility.yul\":3397:3428   */\n      0x4f6e652f6d6f7265207a65726f2061646472657373657320676976656e000000\n        /* \"#utility.yul\":3377:3395   */\n      0x44\n      dup3\n      add\n        /* \"#utility.yul\":3370:3429   */\n      mstore\n        /* \"#utility.yul\":3446:3464   */\n      0x64\n      add\n        /* \"smart-contract/hardhat/contracts/ClosedSurveyV3.sol\":6494:6625  require(... */\n      tag_135\n        /* \"#utility.yul\":3117:3470   */\n      jump\n        /* \"smart-contract/hardhat/contracts/ClosedSurveyV3.sol\":6494:6625  require(... */\n    tag_144:\n        /* \"smart-contract/hardhat/contracts/ClosedSurveyV3.sol\":6666:6698  participantsWhitelistedForSurvey */\n      0x03\n        /* \"smart-contract/hardhat/contracts/ClosedSurveyV3.sol\":6666:6767  participantsWhitelistedForSurvey[... */\n      0x00\n        /* \"smart-contract/hardhat/contracts/ClosedSurveyV3.sol\":6720:6746  participantWalletAddresses */\n      dup6\n      dup6\n        /* \"smart-contract/hardhat/contracts/ClosedSurveyV3.sol\":6747:6748  i */\n      dup5\n        /* \"smart-contract/hardhat/contracts/ClosedSurveyV3.sol\":6720:6749  participantWalletAddresses[i] */\n      dup2\n      dup2\n      lt\n      tag_148\n      jumpi\n      tag_148\n      tag_142\n      jump\t// in\n    tag_148:\n      swap1\n      pop\n      0x20\n      mul\n      add\n      0x20\n      dup2\n      add\n      swap1\n      tag_149\n      swap2\n      swap1\n      tag_74\n      jump\t// in\n    tag_149:\n      sub(shl(0xa0, 0x01), 0x01)\n        /* \"smart-contract/hardhat/contracts/ClosedSurveyV3.sol\":6666:6767  participantsWhitelistedForSurvey[... */\n      and\n      dup2\n      mstore\n      0x20\n      dup2\n      add\n      swap2\n      swap1\n      swap2\n      mstore\n      0x40\n      add\n      0x00\n      keccak256\n      sload\n      0xff\n      and\n        /* \"smart-contract/hardhat/contracts/ClosedSurveyV3.sol\":6665:6767  !participantsWhitelistedForSurvey[... */\n      iszero\n        /* \"smart-contract/hardhat/contracts/ClosedSurveyV3.sol\":6640:6845  require(... */\n      tag_150\n      jumpi\n      mload(0x40)\n      shl(0xe5, 0x461bcd)\n      dup2\n      mstore\n        /* \"#utility.yul\":3677:3679   */\n      0x20\n        /* \"smart-contract/hardhat/contracts/ClosedSurveyV3.sol\":6640:6845  require(... */\n      0x04\n      dup3\n      add\n        /* \"#utility.yul\":3659:3680   */\n      mstore\n        /* \"#utility.yul\":3716:3718   */\n      0x2c\n        /* \"#utility.yul\":3696:3714   */\n      0x24\n      dup3\n      add\n        /* \"#utility.yul\":3689:3719   */\n      mstore\n        /* \"#utility.yul\":3755:3789   */\n      0x4f6e652f6d6f726520676976656e2061646472657373657320616c7265616479\n        /* \"#utility.yul\":3735:3753   */\n      0x44\n      dup3\n      add\n        /* \"#utility.yul\":3728:3790   */\n      mstore\n      shl(0xa2, 0x081dda1a5d195b1a5cdd1959)\n        /* \"#utility.yul\":3806:3824   */\n      0x64\n      dup3\n      add\n        /* \"#utility.yul\":3799:3841   */\n      mstore\n        /* \"#utility.yul\":3858:3877   */\n      0x84\n      add\n        /* \"smart-contract/hardhat/contracts/ClosedSurveyV3.sol\":6640:6845  require(... */\n      tag_135\n        /* \"#utility.yul\":3475:3883   */\n      jump\n        /* \"smart-contract/hardhat/contracts/ClosedSurveyV3.sol\":6640:6845  require(... */\n    tag_150:\n        /* \"smart-contract/hardhat/contracts/ClosedSurveyV3.sol\":6888:6891  ++i */\n      0x01\n      add\n        /* \"smart-contract/hardhat/contracts/ClosedSurveyV3.sol\":6430:6916  for (uint256 i = 0; i < numberOfAddressesGiven; ) {... */\n      jump(tag_137)\n    tag_138:\n      pop\n        /* \"smart-contract/hardhat/contracts/ClosedSurveyV3.sol\":6931:6940  uint256 i */\n      0x00\n        /* \"smart-contract/hardhat/contracts/ClosedSurveyV3.sol\":6926:7249  for (uint256 i = 0; i < numberOfAddressesGiven; ) {... */\n    tag_153:\n        /* \"smart-contract/hardhat/contracts/ClosedSurveyV3.sol\":6950:6972  numberOfAddressesGiven */\n      dup2\n        /* \"smart-contract/hardhat/contracts/ClosedSurveyV3.sol\":6946:6947  i */\n      dup2\n        /* \"smart-contract/hardhat/contracts/ClosedSurveyV3.sol\":6946:6972  i < numberOfAddressesGiven */\n      lt\n        /* \"smart-contract/hardhat/contracts/ClosedSurveyV3.sol\":6926:7249  for (uint256 i = 0; i < numberOfAddressesGiven; ) {... */\n      iszero\n      tag_154\n      jumpi\n        /* \"smart-contract/hardhat/contracts/ClosedSurveyV3.sol\":7086:7090  true */\n      0x01\n        /* \"smart-contract/hardhat/contracts/ClosedSurveyV3.sol\":6990:7022  participantsWhitelistedForSurvey */\n      0x03\n        /* \"smart-contract/hardhat/contracts/ClosedSurveyV3.sol\":6990:7083  participantsWhitelistedForSurvey[... */\n      0x00\n        /* \"smart-contract/hardhat/contracts/ClosedSurveyV3.sol\":7040:7066  participantWalletAddresses */\n      dup7\n      dup7\n        /* \"smart-contract/hardhat/contracts/ClosedSurveyV3.sol\":7067:7068  i */\n      dup6\n        /* \"smart-contract/hardhat/contracts/ClosedSurveyV3.sol\":7040:7069  participantWalletAddresses[i] */\n      dup2\n      dup2\n      lt\n      tag_157\n      jumpi\n      tag_157\n      tag_142\n      jump\t// in\n    tag_157:\n      swap1\n      pop\n      0x20\n      mul\n      add\n      0x20\n      dup2\n      add\n      swap1\n      tag_158\n      swap2\n      swap1\n      tag_74\n      jump\t// in\n    tag_158:\n      sub(shl(0xa0, 0x01), 0x01)\n        /* \"smart-contract/hardhat/contracts/ClosedSurveyV3.sol\":6990:7083  participantsWhitelistedForSurvey[... */\n      and\n      dup2\n      mstore\n      0x20\n      dup2\n      add\n      swap2\n      swap1\n      swap2\n      mstore\n      0x40\n      add\n      0x00\n      keccak256\n        /* \"smart-contract/hardhat/contracts/ClosedSurveyV3.sol\":6990:7090  participantsWhitelistedForSurvey[... */\n      dup1\n      sload\n      not(0xff)\n      and\n      swap2\n      iszero\n      iszero\n      swap2\n      swap1\n      swap2\n      or\n      swap1\n      sstore\n        /* \"smart-contract/hardhat/contracts/ClosedSurveyV3.sol\":7134:7165  numberOfWhitelistedParticipants */\n      0x09\n        /* \"smart-contract/hardhat/contracts/ClosedSurveyV3.sol\":7132:7165  ++numberOfWhitelistedParticipants */\n      dup1\n      sload\n      0x01\n      swap1\n      dup2\n      add\n      swap1\n      swap2\n      sstore\n        /* \"smart-contract/hardhat/contracts/ClosedSurveyV3.sol\":7221:7224  ++i */\n      add\n        /* \"smart-contract/hardhat/contracts/ClosedSurveyV3.sol\":6926:7249  for (uint256 i = 0; i < numberOfAddressesGiven; ) {... */\n      jump(tag_153)\n    tag_154:\n      pop\n        /* \"smart-contract/hardhat/contracts/ClosedSurveyV3.sol\":7264:7323  MultipleParticipantsWhitelisted(participantWalletAddresses) */\n      0xcd54969ccf4839851c974f9e65e16eb0b2b47ddb55bc4f3b0951aafa2535f552\n        /* \"smart-contract/hardhat/contracts/ClosedSurveyV3.sol\":7296:7322  participantWalletAddresses */\n      dup4\n      dup4\n        /* \"smart-contract/hardhat/contracts/ClosedSurveyV3.sol\":7264:7323  MultipleParticipantsWhitelisted(participantWalletAddresses) */\n      mload(0x40)\n      tag_159\n      swap3\n      swap2\n      swap1\n      tag_160\n      jump\t// in\n    tag_159:\n      mload(0x40)\n      dup1\n      swap2\n      sub\n      swap1\n      log1\n        /* \"smart-contract/hardhat/contracts/ClosedSurveyV3.sol\":6274:7330  {... */\n      pop\n        /* \"smart-contract/hardhat/contracts/ClosedSurveyV3.sol\":6155:7330  function whitelistMultipleParticipants(... */\n      pop\n      pop\n      jump\t// out\n        /* \"smart-contract/hardhat/contracts/ClosedSurveyV3.sol\":11696:11767  function unpauseSurvey() external onlyOwner {... */\n    tag_54:\n        /* \"@openzeppelin/contracts/access/Ownable.sol\":1531:1544  _checkOwner() */\n      tag_163\n        /* \"@openzeppelin/contracts/access/Ownable.sol\":1531:1542  _checkOwner */\n      tag_132\n        /* \"@openzeppelin/contracts/access/Ownable.sol\":1531:1544  _checkOwner() */\n      jump\t// in\n    tag_163:\n        /* \"smart-contract/hardhat/contracts/ClosedSurveyV3.sol\":11750:11760  _unpause() */\n      tag_165\n        /* \"smart-contract/hardhat/contracts/ClosedSurveyV3.sol\":11750:11758  _unpause */\n      tag_166\n        /* \"smart-contract/hardhat/contracts/ClosedSurveyV3.sol\":11750:11760  _unpause() */\n      jump\t// in\n    tag_165:\n        /* \"smart-contract/hardhat/contracts/ClosedSurveyV3.sol\":11696:11767  function unpauseSurvey() external onlyOwner {... */\n      jump\t// out\n        /* \"smart-contract/hardhat/contracts/ClosedSurveyV3.sol\":10991:11617  function updateTargetNumberOfParticipants(... */\n    tag_61:\n        /* \"@openzeppelin/contracts/access/Ownable.sol\":1531:1544  _checkOwner() */\n      tag_168\n        /* \"@openzeppelin/contracts/access/Ownable.sol\":1531:1542  _checkOwner */\n      tag_132\n        /* \"@openzeppelin/contracts/access/Ownable.sol\":1531:1544  _checkOwner() */\n      jump\t// in\n    tag_168:\n        /* \"smart-contract/hardhat/contracts/ClosedSurveyV3.sol\":11137:11167  _newTargetNumberOfParticipants */\n      dup1\n        /* \"smart-contract/hardhat/contracts/ClosedSurveyV3.sol\":11171:11172  0 */\n      0x00\n        /* \"smart-contract/hardhat/contracts/ClosedSurveyV3.sol\":11137:11172  _newTargetNumberOfParticipants != 0 */\n      sub\n        /* \"smart-contract/hardhat/contracts/ClosedSurveyV3.sol\":11116:11238  require(... */\n      tag_170\n      jumpi\n      mload(0x40)\n      shl(0xe5, 0x461bcd)\n      dup2\n      mstore\n        /* \"#utility.yul\":4710:4712   */\n      0x20\n        /* \"smart-contract/hardhat/contracts/ClosedSurveyV3.sol\":11116:11238  require(... */\n      0x04\n      dup3\n      add\n        /* \"#utility.yul\":4692:4713   */\n      mstore\n        /* \"#utility.yul\":4749:4751   */\n      0x28\n        /* \"#utility.yul\":4729:4747   */\n      0x24\n      dup3\n      add\n        /* \"#utility.yul\":4722:4752   */\n      mstore\n        /* \"#utility.yul\":4788:4822   */\n      0x5a65726f206e756d626572206f6620746172676574207061727469636970616e\n        /* \"#utility.yul\":4768:4786   */\n      0x44\n      dup3\n      add\n        /* \"#utility.yul\":4761:4823   */\n      mstore\n      shl(0xc1, 0x3a399033b4bb32b7)\n        /* \"#utility.yul\":4839:4857   */\n      0x64\n      dup3\n      add\n        /* \"#utility.yul\":4832:4870   */\n      mstore\n        /* \"#utility.yul\":4887:4906   */\n      0x84\n      add\n        /* \"smart-contract/hardhat/contracts/ClosedSurveyV3.sol\":11116:11238  require(... */\n      tag_135\n        /* \"#utility.yul\":4508:4912   */\n      jump\n        /* \"smart-contract/hardhat/contracts/ClosedSurveyV3.sol\":11116:11238  require(... */\n    tag_170:\n        /* \"smart-contract/hardhat/contracts/ClosedSurveyV3.sol\":11289:11315  targetNumberOfParticipants */\n      0x07\n      dup1\n      sload\n        /* \"smart-contract/hardhat/contracts/ClosedSurveyV3.sol\":11407:11465  targetNumberOfParticipants = newTargetNumberOfParticipants */\n      swap1\n      dup3\n      swap1\n      sstore\n        /* \"smart-contract/hardhat/contracts/ClosedSurveyV3.sol\":11481:11610  TargetNumberOfParticipantsUpdated(... */\n      0x40\n      dup1\n      mload\n        /* \"#utility.yul\":5091:5116   */\n      dup3\n      dup2\n      mstore\n        /* \"#utility.yul\":5147:5149   */\n      0x20\n        /* \"#utility.yul\":5132:5150   */\n      dup2\n      add\n        /* \"#utility.yul\":5125:5159   */\n      dup5\n      swap1\n      mstore\n        /* \"smart-contract/hardhat/contracts/ClosedSurveyV3.sol\":11407:11465  targetNumberOfParticipants = newTargetNumberOfParticipants */\n      dup4\n      swap2\n        /* \"smart-contract/hardhat/contracts/ClosedSurveyV3.sol\":11481:11610  TargetNumberOfParticipantsUpdated(... */\n      0xb90f11d36a1f2ec1f3b89ac87ccd1ffab1a49f3e3ca83cfdac21fd99a537cbc1\n      swap2\n        /* \"#utility.yul\":5064:5082   */\n      add\n        /* \"smart-contract/hardhat/contracts/ClosedSurveyV3.sol\":11481:11610  TargetNumberOfParticipantsUpdated(... */\n      tag_159\n        /* \"#utility.yul\":4917:5165   */\n      jump\n        /* \"smart-contract/hardhat/contracts/ClosedSurveyV3.sol\":10340:10985  function updateRewardAmountPerParticipant(... */\n    tag_68:\n        /* \"@openzeppelin/contracts/access/Ownable.sol\":1531:1544  _checkOwner() */\n      tag_177\n        /* \"@openzeppelin/contracts/access/Ownable.sol\":1531:1542  _checkOwner */\n      tag_132\n        /* \"@openzeppelin/contracts/access/Ownable.sol\":1531:1544  _checkOwner() */\n      jump\t// in\n    tag_177:\n        /* \"smart-contract/hardhat/contracts/ClosedSurveyV3.sol\":10491:10526  _newRewardAmountPerParticipantInWei */\n      dup1\n        /* \"smart-contract/hardhat/contracts/ClosedSurveyV3.sol\":10530:10531  0 */\n      0x00\n        /* \"smart-contract/hardhat/contracts/ClosedSurveyV3.sol\":10491:10531  _newRewardAmountPerParticipantInWei != 0 */\n      sub\n        /* \"smart-contract/hardhat/contracts/ClosedSurveyV3.sol\":10470:10581  require(... */\n      tag_179\n      jumpi\n      mload(0x40)\n      shl(0xe5, 0x461bcd)\n      dup2\n      mstore\n        /* \"#utility.yul\":5372:5374   */\n      0x20\n        /* \"smart-contract/hardhat/contracts/ClosedSurveyV3.sol\":10470:10581  require(... */\n      0x04\n      dup3\n      add\n        /* \"#utility.yul\":5354:5375   */\n      mstore\n        /* \"#utility.yul\":5411:5413   */\n      0x18\n        /* \"#utility.yul\":5391:5409   */\n      0x24\n      dup3\n      add\n        /* \"#utility.yul\":5384:5414   */\n      mstore\n        /* \"#utility.yul\":5450:5476   */\n      0x5a65726f2072657761726420616d6f756e7420676976656e0000000000000000\n        /* \"#utility.yul\":5430:5448   */\n      0x44\n      dup3\n      add\n        /* \"#utility.yul\":5423:5477   */\n      mstore\n        /* \"#utility.yul\":5494:5512   */\n      0x64\n      add\n        /* \"smart-contract/hardhat/contracts/ClosedSurveyV3.sol\":10470:10581  require(... */\n      tag_135\n        /* \"#utility.yul\":5170:5518   */\n      jump\n        /* \"smart-contract/hardhat/contracts/ClosedSurveyV3.sol\":10470:10581  require(... */\n    tag_179:\n        /* \"smart-contract/hardhat/contracts/ClosedSurveyV3.sol\":10637:10668  rewardAmountPerParticipantInWei */\n      0x06\n      dup1\n      sload\n        /* \"smart-contract/hardhat/contracts/ClosedSurveyV3.sol\":10769:10837  rewardAmountPerParticipantInWei = newRewardAmountPerParticipantInWei */\n      swap1\n      dup3\n      swap1\n      sstore\n        /* \"smart-contract/hardhat/contracts/ClosedSurveyV3.sol\":10853:10978  RewardAmountUpdated(... */\n      0x40\n      dup1\n      mload\n        /* \"#utility.yul\":5091:5116   */\n      dup3\n      dup2\n      mstore\n        /* \"#utility.yul\":5147:5149   */\n      0x20\n        /* \"#utility.yul\":5132:5150   */\n      dup2\n      add\n        /* \"#utility.yul\":5125:5159   */\n      dup5\n      swap1\n      mstore\n        /* \"smart-contract/hardhat/contracts/ClosedSurveyV3.sol\":10769:10837  rewardAmountPerParticipantInWei = newRewardAmountPerParticipantInWei */\n      dup4\n      swap2\n        /* \"smart-contract/hardhat/contracts/ClosedSurveyV3.sol\":10853:10978  RewardAmountUpdated(... */\n      0xf0d37c3ae852021ac329281f604b658691cbfa6b9e9c22909f06b64a8ce87c94\n      swap2\n        /* \"#utility.yul\":5064:5082   */\n      add\n        /* \"smart-contract/hardhat/contracts/ClosedSurveyV3.sol\":10853:10978  RewardAmountUpdated(... */\n      tag_159\n        /* \"#utility.yul\":4917:5165   */\n      jump\n        /* \"@openzeppelin/contracts/access/Ownable.sol\":2293:2394  function renounceOwnership() public virtual onlyOwner {... */\n    tag_81:\n        /* \"@openzeppelin/contracts/access/Ownable.sol\":1531:1544  _checkOwner() */\n      tag_187\n        /* \"@openzeppelin/contracts/access/Ownable.sol\":1531:1542  _checkOwner */\n      tag_132\n        /* \"@openzeppelin/contracts/access/Ownable.sol\":1531:1544  _checkOwner() */\n      jump\t// in\n    tag_187:\n        /* \"@openzeppelin/contracts/access/Ownable.sol\":2357:2387  _transferOwnership(address(0)) */\n      tag_165\n        /* \"@openzeppelin/contracts/access/Ownable.sol\":2384:2385  0 */\n      0x00\n        /* \"@openzeppelin/contracts/access/Ownable.sol\":2357:2375  _transferOwnership */\n      tag_190\n        /* \"@openzeppelin/contracts/access/Ownable.sol\":2357:2387  _transferOwnership(address(0)) */\n      jump\t// in\n        /* \"smart-contract/hardhat/contracts/ClosedSurveyV3.sol\":7336:8505  function blacklistMultipleParticipants(... */\n    tag_84:\n        /* \"@openzeppelin/contracts/access/Ownable.sol\":1531:1544  _checkOwner() */\n      tag_192\n        /* \"@openzeppelin/contracts/access/Ownable.sol\":1531:1542  _checkOwner */\n      tag_132\n        /* \"@openzeppelin/contracts/access/Ownable.sol\":1531:1544  _checkOwner() */\n      jump\t// in\n    tag_192:\n        /* \"smart-contract/hardhat/contracts/ClosedSurveyV3.sol\":7498:7524  participantWalletAddresses */\n      dup1\n        /* \"smart-contract/hardhat/contracts/ClosedSurveyV3.sol\":7550:7576  numberOfAddressesGiven > 0 */\n      dup1\n        /* \"smart-contract/hardhat/contracts/ClosedSurveyV3.sol\":7542:7600  require(numberOfAddressesGiven > 0, \"No addresses passed\") */\n      tag_194\n      jumpi\n      mload(0x40)\n      shl(0xe5, 0x461bcd)\n      dup2\n      mstore\n      0x04\n      add\n      tag_135\n      swap1\n      tag_136\n      jump\t// in\n    tag_194:\n        /* \"smart-contract/hardhat/contracts/ClosedSurveyV3.sol\":7616:7625  uint256 i */\n      0x00\n        /* \"smart-contract/hardhat/contracts/ClosedSurveyV3.sol\":7611:8058  for (uint256 i = 0; i < numberOfAddressesGiven; ) {... */\n    tag_196:\n        /* \"smart-contract/hardhat/contracts/ClosedSurveyV3.sol\":7635:7657  numberOfAddressesGiven */\n      dup2\n        /* \"smart-contract/hardhat/contracts/ClosedSurveyV3.sol\":7631:7632  i */\n      dup2\n        /* \"smart-contract/hardhat/contracts/ClosedSurveyV3.sol\":7631:7657  i < numberOfAddressesGiven */\n      lt\n        /* \"smart-contract/hardhat/contracts/ClosedSurveyV3.sol\":7611:8058  for (uint256 i = 0; i < numberOfAddressesGiven; ) {... */\n      iszero\n      tag_197\n      jumpi\n        /* \"smart-contract/hardhat/contracts/ClosedSurveyV3.sol\":7741:7742  0 */\n      0x00\n        /* \"smart-contract/hardhat/contracts/ClosedSurveyV3.sol\":7700:7726  participantWalletAddresses */\n      dup5\n      dup5\n        /* \"smart-contract/hardhat/contracts/ClosedSurveyV3.sol\":7727:7728  i */\n      dup4\n        /* \"smart-contract/hardhat/contracts/ClosedSurveyV3.sol\":7700:7729  participantWalletAddresses[i] */\n      dup2\n      dup2\n      lt\n      tag_200\n      jumpi\n      tag_200\n      tag_142\n      jump\t// in\n    tag_200:\n      swap1\n      pop\n      0x20\n      mul\n      add\n      0x20\n      dup2\n      add\n      swap1\n      tag_201\n      swap2\n      swap1\n      tag_74\n      jump\t// in\n    tag_201:\n      sub(shl(0xa0, 0x01), 0x01)\n        /* \"smart-contract/hardhat/contracts/ClosedSurveyV3.sol\":7700:7743  participantWalletAddresses[i] != address(0) */\n      and\n      sub\n        /* \"smart-contract/hardhat/contracts/ClosedSurveyV3.sol\":7675:7806  require(... */\n      tag_202\n      jumpi\n      mload(0x40)\n      shl(0xe5, 0x461bcd)\n      dup2\n      mstore\n        /* \"#utility.yul\":3319:3321   */\n      0x20\n        /* \"smart-contract/hardhat/contracts/ClosedSurveyV3.sol\":7675:7806  require(... */\n      0x04\n      dup3\n      add\n        /* \"#utility.yul\":3301:3322   */\n      mstore\n        /* \"#utility.yul\":3358:3360   */\n      0x1d\n        /* \"#utility.yul\":3338:3356   */\n      0x24\n      dup3\n      add\n        /* \"#utility.yul\":3331:3361   */\n      mstore\n        /* \"#utility.yul\":3397:3428   */\n      0x4f6e652f6d6f7265207a65726f2061646472657373657320676976656e000000\n        /* \"#utility.yul\":3377:3395   */\n      0x44\n      dup3\n      add\n        /* \"#utility.yul\":3370:3429   */\n      mstore\n        /* \"#utility.yul\":3446:3464   */\n      0x64\n      add\n        /* \"smart-contract/hardhat/contracts/ClosedSurveyV3.sol\":7675:7806  require(... */\n      tag_135\n        /* \"#utility.yul\":3117:3470   */\n      jump\n        /* \"smart-contract/hardhat/contracts/ClosedSurveyV3.sol\":7675:7806  require(... */\n    tag_202:\n        /* \"smart-contract/hardhat/contracts/ClosedSurveyV3.sol\":7846:7878  participantsWhitelistedForSurvey */\n      0x03\n        /* \"smart-contract/hardhat/contracts/ClosedSurveyV3.sol\":7846:7909  participantsWhitelistedForSurvey[participantWalletAddresses[i]] */\n      0x00\n        /* \"smart-contract/hardhat/contracts/ClosedSurveyV3.sol\":7879:7905  participantWalletAddresses */\n      dup6\n      dup6\n        /* \"smart-contract/hardhat/contracts/ClosedSurveyV3.sol\":7906:7907  i */\n      dup5\n        /* \"smart-contract/hardhat/contracts/ClosedSurveyV3.sol\":7879:7908  participantWalletAddresses[i] */\n      dup2\n      dup2\n      lt\n      tag_205\n      jumpi\n      tag_205\n      tag_142\n      jump\t// in\n    tag_205:\n      swap1\n      pop\n      0x20\n      mul\n      add\n      0x20\n      dup2\n      add\n      swap1\n      tag_206\n      swap2\n      swap1\n      tag_74\n      jump\t// in\n    tag_206:\n      sub(shl(0xa0, 0x01), 0x01)\n        /* \"smart-contract/hardhat/contracts/ClosedSurveyV3.sol\":7846:7909  participantsWhitelistedForSurvey[participantWalletAddresses[i]] */\n      and\n      dup2\n      mstore\n      0x20\n      dup2\n      add\n      swap2\n      swap1\n      swap2\n      mstore\n      0x40\n      add\n      0x00\n      keccak256\n      sload\n      0xff\n      and\n        /* \"smart-contract/hardhat/contracts/ClosedSurveyV3.sol\":7821:7987  require(... */\n      tag_207\n      jumpi\n      mload(0x40)\n      shl(0xe5, 0x461bcd)\n      dup2\n      mstore\n        /* \"#utility.yul\":5725:5727   */\n      0x20\n        /* \"smart-contract/hardhat/contracts/ClosedSurveyV3.sol\":7821:7987  require(... */\n      0x04\n      dup3\n      add\n        /* \"#utility.yul\":5707:5728   */\n      mstore\n        /* \"#utility.yul\":5764:5766   */\n      0x2c\n        /* \"#utility.yul\":5744:5762   */\n      0x24\n      dup3\n      add\n        /* \"#utility.yul\":5737:5767   */\n      mstore\n        /* \"#utility.yul\":5803:5837   */\n      0x4f6e652f6d6f726520676976656e2061646472657373657320616c7265616479\n        /* \"#utility.yul\":5783:5801   */\n      0x44\n      dup3\n      add\n        /* \"#utility.yul\":5776:5838   */\n      mstore\n      shl(0xa2, 0x08189b1858dadb1a5cdd1959)\n        /* \"#utility.yul\":5854:5872   */\n      0x64\n      dup3\n      add\n        /* \"#utility.yul\":5847:5889   */\n      mstore\n        /* \"#utility.yul\":5906:5925   */\n      0x84\n      add\n        /* \"smart-contract/hardhat/contracts/ClosedSurveyV3.sol\":7821:7987  require(... */\n      tag_135\n        /* \"#utility.yul\":5523:5931   */\n      jump\n        /* \"smart-contract/hardhat/contracts/ClosedSurveyV3.sol\":7821:7987  require(... */\n    tag_207:\n        /* \"smart-contract/hardhat/contracts/ClosedSurveyV3.sol\":8030:8033  ++i */\n      0x01\n      add\n        /* \"smart-contract/hardhat/contracts/ClosedSurveyV3.sol\":7611:8058  for (uint256 i = 0; i < numberOfAddressesGiven; ) {... */\n      jump(tag_196)\n    tag_197:\n      pop\n        /* \"smart-contract/hardhat/contracts/ClosedSurveyV3.sol\":8073:8082  uint256 i */\n      0x00\n        /* \"smart-contract/hardhat/contracts/ClosedSurveyV3.sol\":8068:8392  for (uint256 i = 0; i < numberOfAddressesGiven; ) {... */\n    tag_210:\n        /* \"smart-contract/hardhat/contracts/ClosedSurveyV3.sol\":8092:8114  numberOfAddressesGiven */\n      dup2\n        /* \"smart-contract/hardhat/contracts/ClosedSurveyV3.sol\":8088:8089  i */\n      dup2\n        /* \"smart-contract/hardhat/contracts/ClosedSurveyV3.sol\":8088:8114  i < numberOfAddressesGiven */\n      lt\n        /* \"smart-contract/hardhat/contracts/ClosedSurveyV3.sol\":8068:8392  for (uint256 i = 0; i < numberOfAddressesGiven; ) {... */\n      iszero\n      tag_211\n      jumpi\n        /* \"smart-contract/hardhat/contracts/ClosedSurveyV3.sol\":8228:8233  false */\n      0x00\n        /* \"smart-contract/hardhat/contracts/ClosedSurveyV3.sol\":8132:8164  participantsWhitelistedForSurvey */\n      0x03\n        /* \"smart-contract/hardhat/contracts/ClosedSurveyV3.sol\":8132:8225  participantsWhitelistedForSurvey[... */\n      0x00\n        /* \"smart-contract/hardhat/contracts/ClosedSurveyV3.sol\":8182:8208  participantWalletAddresses */\n      dup7\n      dup7\n        /* \"smart-contract/hardhat/contracts/ClosedSurveyV3.sol\":8209:8210  i */\n      dup6\n        /* \"smart-contract/hardhat/contracts/ClosedSurveyV3.sol\":8182:8211  participantWalletAddresses[i] */\n      dup2\n      dup2\n      lt\n      tag_214\n      jumpi\n      tag_214\n      tag_142\n      jump\t// in\n    tag_214:\n      swap1\n      pop\n      0x20\n      mul\n      add\n      0x20\n      dup2\n      add\n      swap1\n      tag_215\n      swap2\n      swap1\n      tag_74\n      jump\t// in\n    tag_215:\n      sub(shl(0xa0, 0x01), 0x01)\n        /* \"smart-contract/hardhat/contracts/ClosedSurveyV3.sol\":8132:8225  participantsWhitelistedForSurvey[... */\n      and\n      dup2\n      mstore\n      0x20\n      dup2\n      add\n      swap2\n      swap1\n      swap2\n      mstore\n      0x40\n      add\n      0x00\n      keccak256\n        /* \"smart-contract/hardhat/contracts/ClosedSurveyV3.sol\":8132:8233  participantsWhitelistedForSurvey[... */\n      dup1\n      sload\n      not(0xff)\n      and\n      swap2\n      iszero\n      iszero\n      swap2\n      swap1\n      swap2\n      or\n      swap1\n      sstore\n        /* \"smart-contract/hardhat/contracts/ClosedSurveyV3.sol\":8277:8308  numberOfWhitelistedParticipants */\n      0x09\n        /* \"smart-contract/hardhat/contracts/ClosedSurveyV3.sol\":8275:8308  --numberOfWhitelistedParticipants */\n      dup1\n      sload\n      not(0x00)\n      add\n      swap1\n      sstore\n      0x01\n        /* \"smart-contract/hardhat/contracts/ClosedSurveyV3.sol\":8364:8367  ++i */\n      add\n        /* \"smart-contract/hardhat/contracts/ClosedSurveyV3.sol\":8068:8392  for (uint256 i = 0; i < numberOfAddressesGiven; ) {... */\n      jump(tag_210)\n    tag_211:\n      pop\n        /* \"smart-contract/hardhat/contracts/ClosedSurveyV3.sol\":8406:8498  MultipleWhitelistedParticipantsBlacklisted(... */\n      0xe29acb3292bed043faf01e16b1fcf8c38cf977e334155fa988ded4d254fc3424\n        /* \"smart-contract/hardhat/contracts/ClosedSurveyV3.sol\":8462:8488  participantWalletAddresses */\n      dup4\n      dup4\n        /* \"smart-contract/hardhat/contracts/ClosedSurveyV3.sol\":8406:8498  MultipleWhitelistedParticipantsBlacklisted(... */\n      mload(0x40)\n      tag_159\n      swap3\n      swap2\n      swap1\n      tag_160\n      jump\t// in\n        /* \"smart-contract/hardhat/contracts/ClosedSurveyV3.sol\":5194:5658  function whitelistOneParticipant(address participantWalletAddress)... */\n    tag_93:\n        /* \"@openzeppelin/contracts/access/Ownable.sol\":1531:1544  _checkOwner() */\n      tag_219\n        /* \"@openzeppelin/contracts/access/Ownable.sol\":1531:1542  _checkOwner */\n      tag_132\n        /* \"@openzeppelin/contracts/access/Ownable.sol\":1531:1544  _checkOwner() */\n      jump\t// in\n    tag_219:\n      sub(shl(0xa0, 0x01), 0x01)\n        /* \"smart-contract/hardhat/contracts/ClosedSurveyV3.sol\":2203:2261  participantsWhitelistedForSurvey[participantWalletAddress] */\n      dup2\n      and\n      0x00\n      swap1\n      dup2\n      mstore\n        /* \"smart-contract/hardhat/contracts/ClosedSurveyV3.sol\":2203:2235  participantsWhitelistedForSurvey */\n      0x03\n        /* \"smart-contract/hardhat/contracts/ClosedSurveyV3.sol\":2203:2261  participantsWhitelistedForSurvey[participantWalletAddress] */\n      0x20\n      mstore\n      0x40\n      swap1\n      keccak256\n      sload\n        /* \"smart-contract/hardhat/contracts/ClosedSurveyV3.sol\":5322:5346  participantWalletAddress */\n      dup2\n      swap1\n        /* \"smart-contract/hardhat/contracts/ClosedSurveyV3.sol\":2203:2261  participantsWhitelistedForSurvey[participantWalletAddress] */\n      0xff\n      and\n        /* \"smart-contract/hardhat/contracts/ClosedSurveyV3.sol\":2202:2261  !participantsWhitelistedForSurvey[participantWalletAddress] */\n      iszero\n        /* \"smart-contract/hardhat/contracts/ClosedSurveyV3.sol\":2181:2306  require(... */\n      tag_221\n      jumpi\n      mload(0x40)\n      shl(0xe5, 0x461bcd)\n      dup2\n      mstore\n        /* \"#utility.yul\":6138:6140   */\n      0x20\n        /* \"smart-contract/hardhat/contracts/ClosedSurveyV3.sol\":2181:2306  require(... */\n      0x04\n      dup3\n      add\n        /* \"#utility.yul\":6120:6141   */\n      mstore\n        /* \"#utility.yul\":6177:6179   */\n      0x13\n        /* \"#utility.yul\":6157:6175   */\n      0x24\n      dup3\n      add\n        /* \"#utility.yul\":6150:6180   */\n      mstore\n      shl(0x6a, 0x135d5cdd08189948189b1858dadb1a5cdd1959)\n        /* \"#utility.yul\":6196:6214   */\n      0x44\n      dup3\n      add\n        /* \"#utility.yul\":6189:6238   */\n      mstore\n        /* \"#utility.yul\":6255:6273   */\n      0x64\n      add\n        /* \"smart-contract/hardhat/contracts/ClosedSurveyV3.sol\":2181:2306  require(... */\n      tag_135\n        /* \"#utility.yul\":5936:6279   */\n      jump\n        /* \"smart-contract/hardhat/contracts/ClosedSurveyV3.sol\":2181:2306  require(... */\n    tag_221:\n      sub(shl(0xa0, 0x01), 0x01)\n        /* \"smart-contract/hardhat/contracts/ClosedSurveyV3.sol\":5370:5408  participantWalletAddress != address(0) */\n      dup3\n      and\n        /* \"smart-contract/hardhat/contracts/ClosedSurveyV3.sol\":5362:5432  require(participantWalletAddress != address(0), \"Zero address passed\") */\n      tag_225\n      jumpi\n      mload(0x40)\n      shl(0xe5, 0x461bcd)\n      dup2\n      mstore\n      0x04\n      add\n      tag_135\n      swap1\n      tag_227\n      jump\t// in\n    tag_225:\n      sub(shl(0xa0, 0x01), 0x01)\n        /* \"smart-contract/hardhat/contracts/ClosedSurveyV3.sol\":5443:5501  participantsWhitelistedForSurvey[participantWalletAddress] */\n      dup3\n      and\n      0x00\n      dup2\n      dup2\n      mstore\n        /* \"smart-contract/hardhat/contracts/ClosedSurveyV3.sol\":5443:5475  participantsWhitelistedForSurvey */\n      0x03\n        /* \"smart-contract/hardhat/contracts/ClosedSurveyV3.sol\":5443:5501  participantsWhitelistedForSurvey[participantWalletAddress] */\n      0x20\n      swap1\n      dup2\n      mstore\n      0x40\n      swap2\n      dup3\n      swap1\n      keccak256\n        /* \"smart-contract/hardhat/contracts/ClosedSurveyV3.sol\":5443:5508  participantsWhitelistedForSurvey[participantWalletAddress] = true */\n      dup1\n      sload\n      not(0xff)\n      and\n        /* \"smart-contract/hardhat/contracts/ClosedSurveyV3.sol\":5504:5508  true */\n      0x01\n        /* \"smart-contract/hardhat/contracts/ClosedSurveyV3.sol\":5443:5508  participantsWhitelistedForSurvey[participantWalletAddress] = true */\n      swap1\n      dup2\n      or\n      swap1\n      swap2\n      sstore\n        /* \"smart-contract/hardhat/contracts/ClosedSurveyV3.sol\":5544:5575  numberOfWhitelistedParticipants */\n      0x09\n        /* \"smart-contract/hardhat/contracts/ClosedSurveyV3.sol\":5542:5575  ++numberOfWhitelistedParticipants */\n      dup1\n      sload\n      swap1\n      swap2\n      add\n      swap1\n      sstore\n        /* \"smart-contract/hardhat/contracts/ClosedSurveyV3.sol\":5600:5651  OneParticipantWhitelisted(participantWalletAddress) */\n      swap1\n      mload\n        /* \"#utility.yul\":364:415   */\n      swap2\n      dup3\n      mstore\n        /* \"smart-contract/hardhat/contracts/ClosedSurveyV3.sol\":5600:5651  OneParticipantWhitelisted(participantWalletAddress) */\n      0xc1bf09e09093691bde88793790b0af49ae99cc6c301523675a439aa76a084f18\n      swap2\n        /* \"#utility.yul\":337:355   */\n      add\n        /* \"smart-contract/hardhat/contracts/ClosedSurveyV3.sol\":5600:5651  OneParticipantWhitelisted(participantWalletAddress) */\n    tag_228:\n      mload(0x40)\n      dup1\n      swap2\n      sub\n      swap1\n      log1\n        /* \"@openzeppelin/contracts/access/Ownable.sol\":1554:1555  _ */\n      pop\n        /* \"smart-contract/hardhat/contracts/ClosedSurveyV3.sol\":5194:5658  function whitelistOneParticipant(address participantWalletAddress)... */\n      pop\n      jump\t// out\n        /* \"smart-contract/hardhat/contracts/ClosedSurveyV3.sol\":8511:9115  function processRewardClaimByParticipant(address walletAddress)... */\n    tag_104:\n        /* \"@openzeppelin/contracts/utils/Pausable.sol\":1474:1493  _requireNotPaused() */\n      tag_232\n        /* \"@openzeppelin/contracts/utils/Pausable.sol\":1474:1491  _requireNotPaused */\n      tag_233\n        /* \"@openzeppelin/contracts/utils/Pausable.sol\":1474:1493  _requireNotPaused() */\n      jump\t// in\n    tag_232:\n        /* \"@openzeppelin/contracts/utils/ReentrancyGuard.sol\":2500:2521  _nonReentrantBefore() */\n      tag_235\n        /* \"@openzeppelin/contracts/utils/ReentrancyGuard.sol\":2500:2519  _nonReentrantBefore */\n      tag_236\n        /* \"@openzeppelin/contracts/utils/ReentrancyGuard.sol\":2500:2521  _nonReentrantBefore() */\n      jump\t// in\n    tag_235:\n        /* \"smart-contract/hardhat/contracts/ClosedSurveyV3.sol\":3268:3299  rewardAmountPerParticipantInWei */\n      sload(0x06)\n        /* \"smart-contract/hardhat/contracts/ClosedSurveyV3.sol\":3235:3264  cUSD.balanceOf(address(this)) */\n      mload(0x40)\n      shl(0xe0, 0x70a08231)\n      dup2\n      mstore\n        /* \"smart-contract/hardhat/contracts/ClosedSurveyV3.sol\":3258:3262  this */\n      address\n        /* \"smart-contract/hardhat/contracts/ClosedSurveyV3.sol\":3235:3264  cUSD.balanceOf(address(this)) */\n      0x04\n      dup3\n      add\n        /* \"#utility.yul\":364:415   */\n      mstore\n        /* \"smart-contract/hardhat/contracts/ClosedSurveyV3.sol\":3235:3239  cUSD */\n      immutable(\"0x4ce4dab4689da140a0c12de1a6af6b8f679594aeb723205f513e052d27f5b26f\")\n      sub(shl(0xa0, 0x01), 0x01)\n        /* \"smart-contract/hardhat/contracts/ClosedSurveyV3.sol\":3235:3249  cUSD.balanceOf */\n      and\n      swap1\n      0x70a08231\n      swap1\n        /* \"#utility.yul\":337:355   */\n      0x24\n      add\n        /* \"smart-contract/hardhat/contracts/ClosedSurveyV3.sol\":3235:3264  cUSD.balanceOf(address(this)) */\n      0x20\n      mload(0x40)\n      dup1\n      dup4\n      sub\n      dup2\n      dup7\n      gas\n      staticcall\n      iszero\n      dup1\n      iszero\n      tag_240\n      jumpi\n      returndatasize\n      0x00\n      dup1\n      returndatacopy\n      revert(0x00, returndatasize)\n    tag_240:\n      pop\n      pop\n      pop\n      pop\n      mload(0x40)\n      returndatasize\n      not(0x1f)\n      0x1f\n      dup3\n      add\n      and\n      dup3\n      add\n      dup1\n      0x40\n      mstore\n      pop\n      dup2\n      add\n      swap1\n      tag_241\n      swap2\n      swap1\n      tag_242\n      jump\t// in\n    tag_241:\n        /* \"smart-contract/hardhat/contracts/ClosedSurveyV3.sol\":3235:3299  cUSD.balanceOf(address(this)) >= rewardAmountPerParticipantInWei */\n      lt\n      iszero\n        /* \"smart-contract/hardhat/contracts/ClosedSurveyV3.sol\":3214:3359  require(... */\n      tag_243\n      jumpi\n      mload(0x40)\n      shl(0xe5, 0x461bcd)\n      dup2\n      mstore\n        /* \"#utility.yul\":7023:7025   */\n      0x20\n        /* \"smart-contract/hardhat/contracts/ClosedSurveyV3.sol\":3214:3359  require(... */\n      0x04\n      dup3\n      add\n        /* \"#utility.yul\":7005:7026   */\n      mstore\n        /* \"#utility.yul\":7062:7064   */\n      0x22\n        /* \"#utility.yul\":7042:7060   */\n      0x24\n      dup3\n      add\n        /* \"#utility.yul\":7035:7065   */\n      mstore\n        /* \"#utility.yul\":7101:7135   */\n      0x436f6e747261637420646f6573206e6f74206861766520656e6f756768206355\n        /* \"#utility.yul\":7081:7099   */\n      0x44\n      dup3\n      add\n        /* \"#utility.yul\":7074:7136   */\n      mstore\n      shl(0xf2, 0x14d1)\n        /* \"#utility.yul\":7152:7170   */\n      0x64\n      dup3\n      add\n        /* \"#utility.yul\":7145:7177   */\n      mstore\n        /* \"#utility.yul\":7194:7213   */\n      0x84\n      add\n        /* \"smart-contract/hardhat/contracts/ClosedSurveyV3.sol\":3214:3359  require(... */\n      tag_135\n        /* \"#utility.yul\":6821:7219   */\n      jump\n        /* \"smart-contract/hardhat/contracts/ClosedSurveyV3.sol\":3214:3359  require(... */\n    tag_243:\n        /* \"smart-contract/hardhat/contracts/ClosedSurveyV3.sol\":3679:3705  targetNumberOfParticipants */\n      sload(0x07)\n        /* \"smart-contract/hardhat/contracts/ClosedSurveyV3.sol\":3648:3676  numberOfRewardedParticipants */\n      sload(0x08)\n        /* \"smart-contract/hardhat/contracts/ClosedSurveyV3.sol\":3648:3705  numberOfRewardedParticipants < targetNumberOfParticipants */\n      lt\n        /* \"smart-contract/hardhat/contracts/ClosedSurveyV3.sol\":3627:3766  require(... */\n      tag_247\n      jumpi\n      mload(0x40)\n      shl(0xe5, 0x461bcd)\n      dup2\n      mstore\n        /* \"#utility.yul\":7426:7428   */\n      0x20\n        /* \"smart-contract/hardhat/contracts/ClosedSurveyV3.sol\":3627:3766  require(... */\n      0x04\n      dup3\n      add\n        /* \"#utility.yul\":7408:7429   */\n      mstore\n        /* \"#utility.yul\":7465:7467   */\n      0x23\n        /* \"#utility.yul\":7445:7463   */\n      0x24\n      dup3\n      add\n        /* \"#utility.yul\":7438:7468   */\n      mstore\n        /* \"#utility.yul\":7504:7538   */\n      0x416c6c207061727469636970616e74732068617665206265656e207265776172\n        /* \"#utility.yul\":7484:7502   */\n      0x44\n      dup3\n      add\n        /* \"#utility.yul\":7477:7539   */\n      mstore\n      shl(0xea, 0x191959)\n        /* \"#utility.yul\":7555:7573   */\n      0x64\n      dup3\n      add\n        /* \"#utility.yul\":7548:7581   */\n      mstore\n        /* \"#utility.yul\":7598:7617   */\n      0x84\n      add\n        /* \"smart-contract/hardhat/contracts/ClosedSurveyV3.sol\":3627:3766  require(... */\n      tag_135\n        /* \"#utility.yul\":7224:7623   */\n      jump\n        /* \"smart-contract/hardhat/contracts/ClosedSurveyV3.sol\":3627:3766  require(... */\n    tag_247:\n        /* \"smart-contract/hardhat/contracts/ClosedSurveyV3.sol\":8760:8773  walletAddress */\n      dup1\n        /* \"smart-contract/hardhat/contracts/ClosedSurveyV3.sol\":3081:3091  msg.sender */\n      caller\n      sub(shl(0xa0, 0x01), 0x01)\n        /* \"smart-contract/hardhat/contracts/ClosedSurveyV3.sol\":3081:3119  msg.sender == participantWalletAddress */\n      dup3\n      and\n      eq\n        /* \"smart-contract/hardhat/contracts/ClosedSurveyV3.sol\":3073:3141  require(msg.sender == participantWalletAddress, \"Only valid sender\") */\n      tag_251\n      jumpi\n      mload(0x40)\n      shl(0xe5, 0x461bcd)\n      dup2\n      mstore\n        /* \"#utility.yul\":7830:7832   */\n      0x20\n        /* \"smart-contract/hardhat/contracts/ClosedSurveyV3.sol\":3073:3141  require(msg.sender == participantWalletAddress, \"Only valid sender\") */\n      0x04\n      dup3\n      add\n        /* \"#utility.yul\":7812:7833   */\n      mstore\n        /* \"#utility.yul\":7869:7871   */\n      0x11\n        /* \"#utility.yul\":7849:7867   */\n      0x24\n      dup3\n      add\n        /* \"#utility.yul\":7842:7872   */\n      mstore\n      shl(0x79, 0x27b7363c903b30b634b21039b2b73232b9)\n        /* \"#utility.yul\":7888:7906   */\n      0x44\n      dup3\n      add\n        /* \"#utility.yul\":7881:7928   */\n      mstore\n        /* \"#utility.yul\":7945:7963   */\n      0x64\n      add\n        /* \"smart-contract/hardhat/contracts/ClosedSurveyV3.sol\":3073:3141  require(msg.sender == participantWalletAddress, \"Only valid sender\") */\n      tag_135\n        /* \"#utility.yul\":7628:7969   */\n      jump\n        /* \"smart-contract/hardhat/contracts/ClosedSurveyV3.sol\":3073:3141  require(msg.sender == participantWalletAddress, \"Only valid sender\") */\n    tag_251:\n      sub(shl(0xa0, 0x01), 0x01)\n        /* \"smart-contract/hardhat/contracts/ClosedSurveyV3.sol\":1978:2036  participantsWhitelistedForSurvey[participantWalletAddress] */\n      dup3\n      and\n      0x00\n      swap1\n      dup2\n      mstore\n        /* \"smart-contract/hardhat/contracts/ClosedSurveyV3.sol\":1978:2010  participantsWhitelistedForSurvey */\n      0x03\n        /* \"smart-contract/hardhat/contracts/ClosedSurveyV3.sol\":1978:2036  participantsWhitelistedForSurvey[participantWalletAddress] */\n      0x20\n      mstore\n      0x40\n      swap1\n      keccak256\n      sload\n        /* \"smart-contract/hardhat/contracts/ClosedSurveyV3.sol\":8810:8823  walletAddress */\n      dup3\n      swap1\n        /* \"smart-contract/hardhat/contracts/ClosedSurveyV3.sol\":1978:2036  participantsWhitelistedForSurvey[participantWalletAddress] */\n      0xff\n      and\n        /* \"smart-contract/hardhat/contracts/ClosedSurveyV3.sol\":1957:2086  require(... */\n      tag_255\n      jumpi\n      mload(0x40)\n      shl(0xe5, 0x461bcd)\n      dup2\n      mstore\n        /* \"#utility.yul\":8176:8178   */\n      0x20\n        /* \"smart-contract/hardhat/contracts/ClosedSurveyV3.sol\":1957:2086  require(... */\n      0x04\n      dup3\n      add\n        /* \"#utility.yul\":8158:8179   */\n      mstore\n        /* \"#utility.yul\":8215:8217   */\n      0x18\n        /* \"#utility.yul\":8195:8213   */\n      0x24\n      dup3\n      add\n        /* \"#utility.yul\":8188:8218   */\n      mstore\n      shl(0x40, 0x4f6e6c792077686974656c69737465642061646472657373)\n        /* \"#utility.yul\":8234:8252   */\n      0x44\n      dup3\n      add\n        /* \"#utility.yul\":8227:8281   */\n      mstore\n        /* \"#utility.yul\":8298:8316   */\n      0x64\n      add\n        /* \"smart-contract/hardhat/contracts/ClosedSurveyV3.sol\":1957:2086  require(... */\n      tag_135\n        /* \"#utility.yul\":7974:8322   */\n      jump\n        /* \"smart-contract/hardhat/contracts/ClosedSurveyV3.sol\":1957:2086  require(... */\n    tag_255:\n      sub(shl(0xa0, 0x01), 0x01)\n        /* \"smart-contract/hardhat/contracts/ClosedSurveyV3.sol\":2865:2911  rewardedParticipants[participantWalletAddress] */\n      dup4\n      and\n      0x00\n      swap1\n      dup2\n      mstore\n        /* \"smart-contract/hardhat/contracts/ClosedSurveyV3.sol\":2865:2885  rewardedParticipants */\n      0x04\n        /* \"smart-contract/hardhat/contracts/ClosedSurveyV3.sol\":2865:2911  rewardedParticipants[participantWalletAddress] */\n      0x20\n      mstore\n      0x40\n      swap1\n      keccak256\n      sload\n        /* \"smart-contract/hardhat/contracts/ClosedSurveyV3.sol\":8859:8872  walletAddress */\n      dup4\n      swap1\n        /* \"smart-contract/hardhat/contracts/ClosedSurveyV3.sol\":2865:2911  rewardedParticipants[participantWalletAddress] */\n      0xff\n      and\n        /* \"smart-contract/hardhat/contracts/ClosedSurveyV3.sol\":2864:2911  !rewardedParticipants[participantWalletAddress] */\n      iszero\n        /* \"smart-contract/hardhat/contracts/ClosedSurveyV3.sol\":2843:2965  require(... */\n      tag_259\n      jumpi\n      mload(0x40)\n      shl(0xe5, 0x461bcd)\n      dup2\n      mstore\n        /* \"#utility.yul\":8529:8531   */\n      0x20\n        /* \"smart-contract/hardhat/contracts/ClosedSurveyV3.sol\":2843:2965  require(... */\n      0x04\n      dup3\n      add\n        /* \"#utility.yul\":8511:8532   */\n      mstore\n        /* \"#utility.yul\":8568:8570   */\n      0x1c\n        /* \"#utility.yul\":8548:8566   */\n      0x24\n      dup3\n      add\n        /* \"#utility.yul\":8541:8571   */\n      mstore\n        /* \"#utility.yul\":8607:8637   */\n      0x5061727469636970616e7420616c726561647920726577617264656400000000\n        /* \"#utility.yul\":8587:8605   */\n      0x44\n      dup3\n      add\n        /* \"#utility.yul\":8580:8638   */\n      mstore\n        /* \"#utility.yul\":8655:8673   */\n      0x64\n      add\n        /* \"smart-contract/hardhat/contracts/ClosedSurveyV3.sol\":2843:2965  require(... */\n      tag_135\n        /* \"#utility.yul\":8327:8679   */\n      jump\n        /* \"smart-contract/hardhat/contracts/ClosedSurveyV3.sol\":2843:2965  require(... */\n    tag_259:\n      sub(shl(0xa0, 0x01), 0x01)\n        /* \"smart-contract/hardhat/contracts/ClosedSurveyV3.sol\":2643:2698  participantsScreenedForSurvey[participantWalletAddress] */\n      dup5\n      and\n      0x00\n      swap1\n      dup2\n      mstore\n        /* \"smart-contract/hardhat/contracts/ClosedSurveyV3.sol\":2643:2672  participantsScreenedForSurvey */\n      0x05\n        /* \"smart-contract/hardhat/contracts/ClosedSurveyV3.sol\":2643:2698  participantsScreenedForSurvey[participantWalletAddress] */\n      0x20\n      mstore\n      0x40\n      swap1\n      keccak256\n      sload\n        /* \"smart-contract/hardhat/contracts/ClosedSurveyV3.sol\":8897:8910  walletAddress */\n      dup5\n      swap1\n        /* \"smart-contract/hardhat/contracts/ClosedSurveyV3.sol\":2643:2698  participantsScreenedForSurvey[participantWalletAddress] */\n      0xff\n      and\n        /* \"smart-contract/hardhat/contracts/ClosedSurveyV3.sol\":2622:2740  require(... */\n      tag_263\n      jumpi\n      mload(0x40)\n      shl(0xe5, 0x461bcd)\n      dup2\n      mstore\n        /* \"#utility.yul\":8886:8888   */\n      0x20\n        /* \"smart-contract/hardhat/contracts/ClosedSurveyV3.sol\":2622:2740  require(... */\n      0x04\n      dup3\n      add\n        /* \"#utility.yul\":8868:8889   */\n      mstore\n        /* \"#utility.yul\":8925:8927   */\n      0x10\n        /* \"#utility.yul\":8905:8923   */\n      0x24\n      dup3\n      add\n        /* \"#utility.yul\":8898:8928   */\n      mstore\n      shl(0x82, 0x135d5cdd081899481cd8dc99595b9959)\n        /* \"#utility.yul\":8944:8962   */\n      0x44\n      dup3\n      add\n        /* \"#utility.yul\":8937:8983   */\n      mstore\n        /* \"#utility.yul\":9000:9018   */\n      0x64\n      add\n        /* \"smart-contract/hardhat/contracts/ClosedSurveyV3.sol\":2622:2740  require(... */\n      tag_135\n        /* \"#utility.yul\":8684:9024   */\n      jump\n        /* \"smart-contract/hardhat/contracts/ClosedSurveyV3.sol\":2622:2740  require(... */\n    tag_263:\n        /* \"smart-contract/hardhat/contracts/ClosedSurveyV3.sol\":8926:8956  bool rewardTransferIsSuccesful */\n      0x00\n        /* \"smart-contract/hardhat/contracts/ClosedSurveyV3.sol\":8959:8991  rewardParticipant(walletAddress) */\n      tag_267\n        /* \"smart-contract/hardhat/contracts/ClosedSurveyV3.sol\":8977:8990  walletAddress */\n      dup7\n        /* \"smart-contract/hardhat/contracts/ClosedSurveyV3.sol\":8959:8976  rewardParticipant */\n      tag_268\n        /* \"smart-contract/hardhat/contracts/ClosedSurveyV3.sol\":8959:8991  rewardParticipant(walletAddress) */\n      jump\t// in\n    tag_267:\n        /* \"smart-contract/hardhat/contracts/ClosedSurveyV3.sol\":8926:8991  bool rewardTransferIsSuccesful = rewardParticipant(walletAddress) */\n      swap1\n      pop\n        /* \"smart-contract/hardhat/contracts/ClosedSurveyV3.sol\":9006:9031  rewardTransferIsSuccesful */\n      dup1\n        /* \"smart-contract/hardhat/contracts/ClosedSurveyV3.sol\":9002:9109  if (rewardTransferIsSuccesful) {... */\n      iszero\n      tag_270\n      jumpi\n        /* \"smart-contract/hardhat/contracts/ClosedSurveyV3.sol\":9047:9098  markParticipantAsHavingClaimedReward(walletAddress) */\n      tag_270\n        /* \"smart-contract/hardhat/contracts/ClosedSurveyV3.sol\":9084:9097  walletAddress */\n      dup7\n        /* \"smart-contract/hardhat/contracts/ClosedSurveyV3.sol\":9047:9083  markParticipantAsHavingClaimedReward */\n      tag_271\n        /* \"smart-contract/hardhat/contracts/ClosedSurveyV3.sol\":9047:9098  markParticipantAsHavingClaimedReward(walletAddress) */\n      jump\t// in\n    tag_270:\n        /* \"smart-contract/hardhat/contracts/ClosedSurveyV3.sol\":8916:9115  {... */\n      pop\n        /* \"smart-contract/hardhat/contracts/ClosedSurveyV3.sol\":2975:2976  _ */\n      pop\n        /* \"smart-contract/hardhat/contracts/ClosedSurveyV3.sol\":2096:2097  _ */\n      pop\n        /* \"smart-contract/hardhat/contracts/ClosedSurveyV3.sol\":3151:3152  _ */\n      pop\n        /* \"smart-contract/hardhat/contracts/ClosedSurveyV3.sol\":3776:3777  _ */\n      pop\n        /* \"@openzeppelin/contracts/utils/ReentrancyGuard.sol\":2542:2562  _nonReentrantAfter() */\n      tag_272\n        /* \"@openzeppelin/contracts/utils/ReentrancyGuard.sol\":1857:1858  1 */\n      0x01\n        /* \"@openzeppelin/contracts/utils/ReentrancyGuard.sol\":3068:3089  _status = NOT_ENTERED */\n      dup1\n      sstore\n        /* \"@openzeppelin/contracts/utils/ReentrancyGuard.sol\":2888:3096  function _nonReentrantAfter() private {... */\n      jump\n        /* \"@openzeppelin/contracts/utils/ReentrancyGuard.sol\":2542:2562  _nonReentrantAfter() */\n    tag_272:\n        /* \"smart-contract/hardhat/contracts/ClosedSurveyV3.sol\":8511:9115  function processRewardClaimByParticipant(address walletAddress)... */\n      pop\n      jump\t// out\n        /* \"smart-contract/hardhat/contracts/ClosedSurveyV3.sol\":11773:12806  function getWhitelistedParticipantsFromRegisteredParticipants(... */\n    tag_107:\n        /* \"smart-contract/hardhat/contracts/ClosedSurveyV3.sol\":11912:11928  address[] memory */\n      0x60\n        /* \"smart-contract/hardhat/contracts/ClosedSurveyV3.sol\":11973:11992  registeredAddresses */\n      dup2\n        /* \"smart-contract/hardhat/contracts/ClosedSurveyV3.sol\":11940:11970  uint256 numberOfAddressesGiven */\n      0x00\n        /* \"smart-contract/hardhat/contracts/ClosedSurveyV3.sol\":12018:12045  numberOfAddressesGiven != 0 */\n      dup2\n      swap1\n      sub\n        /* \"smart-contract/hardhat/contracts/ClosedSurveyV3.sol\":12010:12069  require(numberOfAddressesGiven != 0, \"No addresses passed\") */\n      tag_275\n      jumpi\n      mload(0x40)\n      shl(0xe5, 0x461bcd)\n      dup2\n      mstore\n      0x04\n      add\n      tag_135\n      swap1\n      tag_136\n      jump\t// in\n    tag_275:\n        /* \"smart-contract/hardhat/contracts/ClosedSurveyV3.sol\":12079:12103  uint256 whitelistedCount */\n      0x00\n        /* \"smart-contract/hardhat/contracts/ClosedSurveyV3.sol\":12122:12131  uint256 i */\n      dup1\n        /* \"smart-contract/hardhat/contracts/ClosedSurveyV3.sol\":12117:12363  for (uint256 i = 0; i < numberOfAddressesGiven; ) {... */\n    tag_277:\n        /* \"smart-contract/hardhat/contracts/ClosedSurveyV3.sol\":12141:12163  numberOfAddressesGiven */\n      dup3\n        /* \"smart-contract/hardhat/contracts/ClosedSurveyV3.sol\":12137:12138  i */\n      dup2\n        /* \"smart-contract/hardhat/contracts/ClosedSurveyV3.sol\":12137:12163  i < numberOfAddressesGiven */\n      lt\n        /* \"smart-contract/hardhat/contracts/ClosedSurveyV3.sol\":12117:12363  for (uint256 i = 0; i < numberOfAddressesGiven; ) {... */\n      iszero\n      tag_278\n      jumpi\n        /* \"smart-contract/hardhat/contracts/ClosedSurveyV3.sol\":12185:12217  participantsWhitelistedForSurvey */\n      0x03\n        /* \"smart-contract/hardhat/contracts/ClosedSurveyV3.sol\":12185:12241  participantsWhitelistedForSurvey[registeredAddresses[i]] */\n      0x00\n        /* \"smart-contract/hardhat/contracts/ClosedSurveyV3.sol\":12218:12237  registeredAddresses */\n      dup8\n      dup8\n        /* \"smart-contract/hardhat/contracts/ClosedSurveyV3.sol\":12238:12239  i */\n      dup5\n        /* \"smart-contract/hardhat/contracts/ClosedSurveyV3.sol\":12218:12240  registeredAddresses[i] */\n      dup2\n      dup2\n      lt\n      tag_281\n      jumpi\n      tag_281\n      tag_142\n      jump\t// in\n    tag_281:\n      swap1\n      pop\n      0x20\n      mul\n      add\n      0x20\n      dup2\n      add\n      swap1\n      tag_282\n      swap2\n      swap1\n      tag_74\n      jump\t// in\n    tag_282:\n      sub(shl(0xa0, 0x01), 0x01)\n        /* \"smart-contract/hardhat/contracts/ClosedSurveyV3.sol\":12185:12241  participantsWhitelistedForSurvey[registeredAddresses[i]] */\n      and\n      dup2\n      mstore\n      0x20\n      dup2\n      add\n      swap2\n      swap1\n      swap2\n      mstore\n      0x40\n      add\n      0x00\n      keccak256\n      sload\n      0xff\n      and\n        /* \"smart-contract/hardhat/contracts/ClosedSurveyV3.sol\":12181:12294  if (participantsWhitelistedForSurvey[registeredAddresses[i]]) {... */\n      iszero\n      tag_283\n      jumpi\n        /* \"smart-contract/hardhat/contracts/ClosedSurveyV3.sol\":12261:12279  whitelistedCount++ */\n      dup2\n      tag_284\n      dup2\n      tag_285\n      jump\t// in\n    tag_284:\n      swap3\n      pop\n      pop\n        /* \"smart-contract/hardhat/contracts/ClosedSurveyV3.sol\":12181:12294  if (participantsWhitelistedForSurvey[registeredAddresses[i]]) {... */\n    tag_283:\n        /* \"smart-contract/hardhat/contracts/ClosedSurveyV3.sol\":12335:12338  ++i */\n      0x01\n      add\n        /* \"smart-contract/hardhat/contracts/ClosedSurveyV3.sol\":12117:12363  for (uint256 i = 0; i < numberOfAddressesGiven; ) {... */\n      jump(tag_277)\n    tag_278:\n      pop\n        /* \"smart-contract/hardhat/contracts/ClosedSurveyV3.sol\":12373:12410  address[] memory whitelistedAddresses */\n      0x00\n        /* \"smart-contract/hardhat/contracts/ClosedSurveyV3.sol\":12427:12443  whitelistedCount */\n      dup2\n        /* \"smart-contract/hardhat/contracts/ClosedSurveyV3.sol\":12413:12444  new address[](whitelistedCount) */\n      0xffffffffffffffff\n      dup2\n      gt\n      iszero\n      tag_287\n      jumpi\n      tag_287\n      tag_288\n      jump\t// in\n    tag_287:\n      mload(0x40)\n      swap1\n      dup1\n      dup3\n      mstore\n      dup1\n      0x20\n      mul\n      0x20\n      add\n      dup3\n      add\n      0x40\n      mstore\n      dup1\n      iszero\n      tag_289\n      jumpi\n      dup2\n      0x20\n      add\n      0x20\n      dup3\n      mul\n      dup1\n      calldatasize\n      dup4\n      calldatacopy\n      add\n      swap1\n      pop\n    tag_289:\n      pop\n        /* \"smart-contract/hardhat/contracts/ClosedSurveyV3.sol\":12373:12444  address[] memory whitelistedAddresses = new address[](whitelistedCount) */\n      swap1\n      pop\n        /* \"smart-contract/hardhat/contracts/ClosedSurveyV3.sol\":12454:12467  uint256 index */\n      0x00\n        /* \"smart-contract/hardhat/contracts/ClosedSurveyV3.sol\":12486:12495  uint256 i */\n      dup1\n        /* \"smart-contract/hardhat/contracts/ClosedSurveyV3.sol\":12481:12763  for (uint256 i = 0; i < numberOfAddressesGiven; ) {... */\n    tag_290:\n        /* \"smart-contract/hardhat/contracts/ClosedSurveyV3.sol\":12505:12527  numberOfAddressesGiven */\n      dup5\n        /* \"smart-contract/hardhat/contracts/ClosedSurveyV3.sol\":12501:12502  i */\n      dup2\n        /* \"smart-contract/hardhat/contracts/ClosedSurveyV3.sol\":12501:12527  i < numberOfAddressesGiven */\n      lt\n        /* \"smart-contract/hardhat/contracts/ClosedSurveyV3.sol\":12481:12763  for (uint256 i = 0; i < numberOfAddressesGiven; ) {... */\n      iszero\n      tag_291\n      jumpi\n        /* \"smart-contract/hardhat/contracts/ClosedSurveyV3.sol\":12549:12581  participantsWhitelistedForSurvey */\n      0x03\n        /* \"smart-contract/hardhat/contracts/ClosedSurveyV3.sol\":12549:12605  participantsWhitelistedForSurvey[registeredAddresses[i]] */\n      0x00\n        /* \"smart-contract/hardhat/contracts/ClosedSurveyV3.sol\":12582:12601  registeredAddresses */\n      dup10\n      dup10\n        /* \"smart-contract/hardhat/contracts/ClosedSurveyV3.sol\":12602:12603  i */\n      dup5\n        /* \"smart-contract/hardhat/contracts/ClosedSurveyV3.sol\":12582:12604  registeredAddresses[i] */\n      dup2\n      dup2\n      lt\n      tag_294\n      jumpi\n      tag_294\n      tag_142\n      jump\t// in\n    tag_294:\n      swap1\n      pop\n      0x20\n      mul\n      add\n      0x20\n      dup2\n      add\n      swap1\n      tag_295\n      swap2\n      swap1\n      tag_74\n      jump\t// in\n    tag_295:\n      sub(shl(0xa0, 0x01), 0x01)\n        /* \"smart-contract/hardhat/contracts/ClosedSurveyV3.sol\":12549:12605  participantsWhitelistedForSurvey[registeredAddresses[i]] */\n      and\n      dup2\n      mstore\n      0x20\n      dup2\n      add\n      swap2\n      swap1\n      swap2\n      mstore\n      0x40\n      add\n      0x00\n      keccak256\n      sload\n      0xff\n      and\n        /* \"smart-contract/hardhat/contracts/ClosedSurveyV3.sol\":12545:12694  if (participantsWhitelistedForSurvey[registeredAddresses[i]]) {... */\n      iszero\n      tag_296\n      jumpi\n        /* \"smart-contract/hardhat/contracts/ClosedSurveyV3.sol\":12657:12676  registeredAddresses */\n      dup8\n      dup8\n        /* \"smart-contract/hardhat/contracts/ClosedSurveyV3.sol\":12677:12678  i */\n      dup3\n        /* \"smart-contract/hardhat/contracts/ClosedSurveyV3.sol\":12657:12679  registeredAddresses[i] */\n      dup2\n      dup2\n      lt\n      tag_298\n      jumpi\n      tag_298\n      tag_142\n      jump\t// in\n    tag_298:\n      swap1\n      pop\n      0x20\n      mul\n      add\n      0x20\n      dup2\n      add\n      swap1\n      tag_299\n      swap2\n      swap1\n      tag_74\n      jump\t// in\n    tag_299:\n        /* \"smart-contract/hardhat/contracts/ClosedSurveyV3.sol\":12625:12645  whitelistedAddresses */\n      dup4\n        /* \"smart-contract/hardhat/contracts/ClosedSurveyV3.sol\":12646:12653  index++ */\n      dup4\n      tag_300\n      dup2\n      tag_285\n      jump\t// in\n    tag_300:\n      swap5\n      pop\n        /* \"smart-contract/hardhat/contracts/ClosedSurveyV3.sol\":12625:12654  whitelistedAddresses[index++] */\n      dup2\n      mload\n      dup2\n      lt\n      tag_302\n      jumpi\n      tag_302\n      tag_142\n      jump\t// in\n    tag_302:\n      0x20\n      mul\n      0x20\n      add\n      add\n        /* \"smart-contract/hardhat/contracts/ClosedSurveyV3.sol\":12625:12679  whitelistedAddresses[index++] = registeredAddresses[i] */\n      swap1\n      sub(shl(0xa0, 0x01), 0x01)\n      and\n      swap1\n      dup2\n      sub(shl(0xa0, 0x01), 0x01)\n      and\n      dup2\n      mstore\n      pop\n      pop\n        /* \"smart-contract/hardhat/contracts/ClosedSurveyV3.sol\":12545:12694  if (participantsWhitelistedForSurvey[registeredAddresses[i]]) {... */\n    tag_296:\n        /* \"smart-contract/hardhat/contracts/ClosedSurveyV3.sol\":12735:12738  ++i */\n      0x01\n      add\n        /* \"smart-contract/hardhat/contracts/ClosedSurveyV3.sol\":12481:12763  for (uint256 i = 0; i < numberOfAddressesGiven; ) {... */\n      jump(tag_290)\n    tag_291:\n      pop\n        /* \"smart-contract/hardhat/contracts/ClosedSurveyV3.sol\":12779:12799  whitelistedAddresses */\n      swap1\n      swap7\n        /* \"smart-contract/hardhat/contracts/ClosedSurveyV3.sol\":11773:12806  function getWhitelistedParticipantsFromRegisteredParticipants(... */\n      swap6\n      pop\n      pop\n      pop\n      pop\n      pop\n      pop\n      jump\t// out\n        /* \"smart-contract/hardhat/contracts/ClosedSurveyV3.sol\":5664:6149  function blacklistOneParticipant(address participantWalletAddress)... */\n    tag_119:\n        /* \"@openzeppelin/contracts/access/Ownable.sol\":1531:1544  _checkOwner() */\n      tag_305\n        /* \"@openzeppelin/contracts/access/Ownable.sol\":1531:1542  _checkOwner */\n      tag_132\n        /* \"@openzeppelin/contracts/access/Ownable.sol\":1531:1544  _checkOwner() */\n      jump\t// in\n    tag_305:\n      sub(shl(0xa0, 0x01), 0x01)\n        /* \"smart-contract/hardhat/contracts/ClosedSurveyV3.sol\":1978:2036  participantsWhitelistedForSurvey[participantWalletAddress] */\n      dup2\n      and\n      0x00\n      swap1\n      dup2\n      mstore\n        /* \"smart-contract/hardhat/contracts/ClosedSurveyV3.sol\":1978:2010  participantsWhitelistedForSurvey */\n      0x03\n        /* \"smart-contract/hardhat/contracts/ClosedSurveyV3.sol\":1978:2036  participantsWhitelistedForSurvey[participantWalletAddress] */\n      0x20\n      mstore\n      0x40\n      swap1\n      keccak256\n      sload\n        /* \"smart-contract/hardhat/contracts/ClosedSurveyV3.sol\":5801:5825  participantWalletAddress */\n      dup2\n      swap1\n        /* \"smart-contract/hardhat/contracts/ClosedSurveyV3.sol\":1978:2036  participantsWhitelistedForSurvey[participantWalletAddress] */\n      0xff\n      and\n        /* \"smart-contract/hardhat/contracts/ClosedSurveyV3.sol\":1957:2086  require(... */\n      tag_307\n      jumpi\n      mload(0x40)\n      shl(0xe5, 0x461bcd)\n      dup2\n      mstore\n        /* \"#utility.yul\":8176:8178   */\n      0x20\n        /* \"smart-contract/hardhat/contracts/ClosedSurveyV3.sol\":1957:2086  require(... */\n      0x04\n      dup3\n      add\n        /* \"#utility.yul\":8158:8179   */\n      mstore\n        /* \"#utility.yul\":8215:8217   */\n      0x18\n        /* \"#utility.yul\":8195:8213   */\n      0x24\n      dup3\n      add\n        /* \"#utility.yul\":8188:8218   */\n      mstore\n      shl(0x40, 0x4f6e6c792077686974656c69737465642061646472657373)\n        /* \"#utility.yul\":8234:8252   */\n      0x44\n      dup3\n      add\n        /* \"#utility.yul\":8227:8281   */\n      mstore\n        /* \"#utility.yul\":8298:8316   */\n      0x64\n      add\n        /* \"smart-contract/hardhat/contracts/ClosedSurveyV3.sol\":1957:2086  require(... */\n      tag_135\n        /* \"#utility.yul\":7974:8322   */\n      jump\n        /* \"smart-contract/hardhat/contracts/ClosedSurveyV3.sol\":1957:2086  require(... */\n    tag_307:\n      sub(shl(0xa0, 0x01), 0x01)\n        /* \"smart-contract/hardhat/contracts/ClosedSurveyV3.sol\":5849:5887  participantWalletAddress != address(0) */\n      dup3\n      and\n        /* \"smart-contract/hardhat/contracts/ClosedSurveyV3.sol\":5841:5911  require(participantWalletAddress != address(0), \"Zero address passed\") */\n      tag_310\n      jumpi\n      mload(0x40)\n      shl(0xe5, 0x461bcd)\n      dup2\n      mstore\n      0x04\n      add\n      tag_135\n      swap1\n      tag_227\n      jump\t// in\n    tag_310:\n      sub(shl(0xa0, 0x01), 0x01)\n        /* \"smart-contract/hardhat/contracts/ClosedSurveyV3.sol\":5922:5980  participantsWhitelistedForSurvey[participantWalletAddress] */\n      dup3\n      and\n        /* \"smart-contract/hardhat/contracts/ClosedSurveyV3.sol\":5983:5988  false */\n      0x00\n        /* \"smart-contract/hardhat/contracts/ClosedSurveyV3.sol\":5922:5980  participantsWhitelistedForSurvey[participantWalletAddress] */\n      dup2\n      dup2\n      mstore\n        /* \"smart-contract/hardhat/contracts/ClosedSurveyV3.sol\":5922:5954  participantsWhitelistedForSurvey */\n      0x03\n        /* \"smart-contract/hardhat/contracts/ClosedSurveyV3.sol\":5922:5980  participantsWhitelistedForSurvey[participantWalletAddress] */\n      0x20\n      swap1\n      dup2\n      mstore\n      0x40\n      swap2\n      dup3\n      swap1\n      keccak256\n        /* \"smart-contract/hardhat/contracts/ClosedSurveyV3.sol\":5922:5988  participantsWhitelistedForSurvey[participantWalletAddress] = false */\n      dup1\n      sload\n      not(0xff)\n      and\n      swap1\n      sstore\n        /* \"smart-contract/hardhat/contracts/ClosedSurveyV3.sol\":6024:6055  numberOfWhitelistedParticipants */\n      0x09\n        /* \"smart-contract/hardhat/contracts/ClosedSurveyV3.sol\":6022:6055  --numberOfWhitelistedParticipants */\n      dup1\n      sload\n      not(0x00)\n      add\n      swap1\n      sstore\n        /* \"smart-contract/hardhat/contracts/ClosedSurveyV3.sol\":6080:6142  OneWhitelistedParticipantBlacklisted(participantWalletAddress) */\n      swap1\n      mload\n        /* \"#utility.yul\":364:415   */\n      swap2\n      dup3\n      mstore\n        /* \"smart-contract/hardhat/contracts/ClosedSurveyV3.sol\":6080:6142  OneWhitelistedParticipantBlacklisted(participantWalletAddress) */\n      0x4c4c57d58b398c7beead9e49305d0926ea8fd1e7e895959b09968b3384c385de\n      swap2\n        /* \"#utility.yul\":337:355   */\n      add\n        /* \"smart-contract/hardhat/contracts/ClosedSurveyV3.sol\":6080:6142  OneWhitelistedParticipantBlacklisted(participantWalletAddress) */\n      tag_228\n        /* \"#utility.yul\":196:421   */\n      jump\n        /* \"smart-contract/hardhat/contracts/ClosedSurveyV3.sol\":11623:11690  function pauseSurvey() external onlyOwner {... */\n    tag_121:\n        /* \"@openzeppelin/contracts/access/Ownable.sol\":1531:1544  _checkOwner() */\n      tag_314\n        /* \"@openzeppelin/contracts/access/Ownable.sol\":1531:1542  _checkOwner */\n      tag_132\n        /* \"@openzeppelin/contracts/access/Ownable.sol\":1531:1544  _checkOwner() */\n      jump\t// in\n    tag_314:\n        /* \"smart-contract/hardhat/contracts/ClosedSurveyV3.sol\":11675:11683  _pause() */\n      tag_165\n        /* \"smart-contract/hardhat/contracts/ClosedSurveyV3.sol\":11675:11681  _pause */\n      tag_317\n        /* \"smart-contract/hardhat/contracts/ClosedSurveyV3.sol\":11675:11683  _pause() */\n      jump\t// in\n        /* \"smart-contract/hardhat/contracts/ClosedSurveyV3.sol\":4691:5188  function screenParticipant(address participantWalletAddress)... */\n    tag_124:\n        /* \"smart-contract/hardhat/contracts/ClosedSurveyV3.sol\":4808:4832  participantWalletAddress */\n      dup1\n        /* \"smart-contract/hardhat/contracts/ClosedSurveyV3.sol\":3081:3091  msg.sender */\n      caller\n      sub(shl(0xa0, 0x01), 0x01)\n        /* \"smart-contract/hardhat/contracts/ClosedSurveyV3.sol\":3081:3119  msg.sender == participantWalletAddress */\n      dup3\n      and\n      eq\n        /* \"smart-contract/hardhat/contracts/ClosedSurveyV3.sol\":3073:3141  require(msg.sender == participantWalletAddress, \"Only valid sender\") */\n      tag_319\n      jumpi\n      mload(0x40)\n      shl(0xe5, 0x461bcd)\n      dup2\n      mstore\n        /* \"#utility.yul\":7830:7832   */\n      0x20\n        /* \"smart-contract/hardhat/contracts/ClosedSurveyV3.sol\":3073:3141  require(msg.sender == participantWalletAddress, \"Only valid sender\") */\n      0x04\n      dup3\n      add\n        /* \"#utility.yul\":7812:7833   */\n      mstore\n        /* \"#utility.yul\":7869:7871   */\n      0x11\n        /* \"#utility.yul\":7849:7867   */\n      0x24\n      dup3\n      add\n        /* \"#utility.yul\":7842:7872   */\n      mstore\n      shl(0x79, 0x27b7363c903b30b634b21039b2b73232b9)\n        /* \"#utility.yul\":7888:7906   */\n      0x44\n      dup3\n      add\n        /* \"#utility.yul\":7881:7928   */\n      mstore\n        /* \"#utility.yul\":7945:7963   */\n      0x64\n      add\n        /* \"smart-contract/hardhat/contracts/ClosedSurveyV3.sol\":3073:3141  require(msg.sender == participantWalletAddress, \"Only valid sender\") */\n      tag_135\n        /* \"#utility.yul\":7628:7969   */\n      jump\n        /* \"smart-contract/hardhat/contracts/ClosedSurveyV3.sol\":3073:3141  require(msg.sender == participantWalletAddress, \"Only valid sender\") */\n    tag_319:\n      sub(shl(0xa0, 0x01), 0x01)\n        /* \"smart-contract/hardhat/contracts/ClosedSurveyV3.sol\":2427:2482  participantsScreenedForSurvey[participantWalletAddress] */\n      dup3\n      and\n      0x00\n      swap1\n      dup2\n      mstore\n        /* \"smart-contract/hardhat/contracts/ClosedSurveyV3.sol\":2427:2456  participantsScreenedForSurvey */\n      0x05\n        /* \"smart-contract/hardhat/contracts/ClosedSurveyV3.sol\":2427:2482  participantsScreenedForSurvey[participantWalletAddress] */\n      0x20\n      mstore\n      0x40\n      swap1\n      keccak256\n      sload\n        /* \"smart-contract/hardhat/contracts/ClosedSurveyV3.sol\":4864:4888  participantWalletAddress */\n      dup3\n      swap1\n        /* \"smart-contract/hardhat/contracts/ClosedSurveyV3.sol\":2427:2482  participantsScreenedForSurvey[participantWalletAddress] */\n      0xff\n      and\n        /* \"smart-contract/hardhat/contracts/ClosedSurveyV3.sol\":2426:2482  !participantsScreenedForSurvey[participantWalletAddress] */\n      iszero\n        /* \"smart-contract/hardhat/contracts/ClosedSurveyV3.sol\":2405:2531  require(... */\n      tag_322\n      jumpi\n      mload(0x40)\n      shl(0xe5, 0x461bcd)\n      dup2\n      mstore\n        /* \"#utility.yul\":9600:9602   */\n      0x20\n        /* \"smart-contract/hardhat/contracts/ClosedSurveyV3.sol\":2405:2531  require(... */\n      0x04\n      dup3\n      add\n        /* \"#utility.yul\":9582:9603   */\n      mstore\n        /* \"#utility.yul\":9639:9641   */\n      0x17\n        /* \"#utility.yul\":9619:9637   */\n      0x24\n      dup3\n      add\n        /* \"#utility.yul\":9612:9642   */\n      mstore\n        /* \"#utility.yul\":9678:9703   */\n      0x4f6e6c7920756e73637265656e65642061646472657373000000000000000000\n        /* \"#utility.yul\":9658:9676   */\n      0x44\n      dup3\n      add\n        /* \"#utility.yul\":9651:9704   */\n      mstore\n        /* \"#utility.yul\":9721:9739   */\n      0x64\n      add\n        /* \"smart-contract/hardhat/contracts/ClosedSurveyV3.sol\":2405:2531  require(... */\n      tag_135\n        /* \"#utility.yul\":9398:9745   */\n      jump\n        /* \"smart-contract/hardhat/contracts/ClosedSurveyV3.sol\":2405:2531  require(... */\n    tag_322:\n      sub(shl(0xa0, 0x01), 0x01)\n        /* \"smart-contract/hardhat/contracts/ClosedSurveyV3.sol\":4912:4950  participantWalletAddress != address(0) */\n      dup4\n      and\n        /* \"smart-contract/hardhat/contracts/ClosedSurveyV3.sol\":4904:4974  require(participantWalletAddress != address(0), \"Zero address passed\") */\n      tag_326\n      jumpi\n      mload(0x40)\n      shl(0xe5, 0x461bcd)\n      dup2\n      mstore\n      0x04\n      add\n      tag_135\n      swap1\n      tag_227\n      jump\t// in\n    tag_326:\n      sub(shl(0xa0, 0x01), 0x01)\n        /* \"smart-contract/hardhat/contracts/ClosedSurveyV3.sol\":4985:5040  participantsScreenedForSurvey[participantWalletAddress] */\n      dup4\n      and\n      0x00\n      dup2\n      dup2\n      mstore\n        /* \"smart-contract/hardhat/contracts/ClosedSurveyV3.sol\":4985:5014  participantsScreenedForSurvey */\n      0x05\n        /* \"smart-contract/hardhat/contracts/ClosedSurveyV3.sol\":4985:5040  participantsScreenedForSurvey[participantWalletAddress] */\n      0x20\n      swap1\n      dup2\n      mstore\n      0x40\n      swap2\n      dup3\n      swap1\n      keccak256\n        /* \"smart-contract/hardhat/contracts/ClosedSurveyV3.sol\":4985:5047  participantsScreenedForSurvey[participantWalletAddress] = true */\n      dup1\n      sload\n      not(0xff)\n      and\n        /* \"smart-contract/hardhat/contracts/ClosedSurveyV3.sol\":5043:5047  true */\n      0x01\n        /* \"smart-contract/hardhat/contracts/ClosedSurveyV3.sol\":4985:5047  participantsScreenedForSurvey[participantWalletAddress] = true */\n      swap1\n      dup2\n      or\n      swap1\n      swap2\n      sstore\n        /* \"smart-contract/hardhat/contracts/ClosedSurveyV3.sol\":5083:5111  numberOfScreenedParticipants */\n      0x0a\n        /* \"smart-contract/hardhat/contracts/ClosedSurveyV3.sol\":5081:5111  ++numberOfScreenedParticipants */\n      dup1\n      sload\n      swap1\n      swap2\n      add\n      swap1\n      sstore\n        /* \"smart-contract/hardhat/contracts/ClosedSurveyV3.sol\":5136:5181  ParticipantScreened(participantWalletAddress) */\n      swap1\n      mload\n        /* \"#utility.yul\":364:415   */\n      swap2\n      dup3\n      mstore\n        /* \"smart-contract/hardhat/contracts/ClosedSurveyV3.sol\":5136:5181  ParticipantScreened(participantWalletAddress) */\n      0xc4ec7a2dc5e72d17666a15570e438638bfc023a7a091df162b669c37198bacb2\n      swap2\n        /* \"#utility.yul\":337:355   */\n      add\n        /* \"smart-contract/hardhat/contracts/ClosedSurveyV3.sol\":5136:5181  ParticipantScreened(participantWalletAddress) */\n      tag_159\n        /* \"#utility.yul\":196:421   */\n      jump\n        /* \"smart-contract/hardhat/contracts/ClosedSurveyV3.sol\":9957:10334  function withdrawAllRewardFundsToResearcher()... */\n    tag_126:\n        /* \"@openzeppelin/contracts/access/Ownable.sol\":1531:1544  _checkOwner() */\n      tag_330\n        /* \"@openzeppelin/contracts/access/Ownable.sol\":1531:1542  _checkOwner */\n      tag_132\n        /* \"@openzeppelin/contracts/access/Ownable.sol\":1531:1544  _checkOwner() */\n      jump\t// in\n    tag_330:\n        /* \"@openzeppelin/contracts/utils/Pausable.sol\":1474:1493  _requireNotPaused() */\n      tag_332\n        /* \"@openzeppelin/contracts/utils/Pausable.sol\":1474:1491  _requireNotPaused */\n      tag_233\n        /* \"@openzeppelin/contracts/utils/Pausable.sol\":1474:1493  _requireNotPaused() */\n      jump\t// in\n    tag_332:\n        /* \"smart-contract/hardhat/contracts/ClosedSurveyV3.sol\":3450:3479  cUSD.balanceOf(address(this)) */\n      mload(0x40)\n      shl(0xe0, 0x70a08231)\n      dup2\n      mstore\n        /* \"smart-contract/hardhat/contracts/ClosedSurveyV3.sol\":3473:3477  this */\n      address\n        /* \"smart-contract/hardhat/contracts/ClosedSurveyV3.sol\":3450:3479  cUSD.balanceOf(address(this)) */\n      0x04\n      dup3\n      add\n        /* \"#utility.yul\":364:415   */\n      mstore\n        /* \"smart-contract/hardhat/contracts/ClosedSurveyV3.sol\":3482:3483  0 */\n      0x00\n      swap1\n        /* \"smart-contract/hardhat/contracts/ClosedSurveyV3.sol\":3450:3454  cUSD */\n      immutable(\"0x4ce4dab4689da140a0c12de1a6af6b8f679594aeb723205f513e052d27f5b26f\")\n      sub(shl(0xa0, 0x01), 0x01)\n        /* \"smart-contract/hardhat/contracts/ClosedSurveyV3.sol\":3450:3464  cUSD.balanceOf */\n      and\n      swap1\n      0x70a08231\n      swap1\n        /* \"#utility.yul\":337:355   */\n      0x24\n      add\n        /* \"smart-contract/hardhat/contracts/ClosedSurveyV3.sol\":3450:3479  cUSD.balanceOf(address(this)) */\n      0x20\n      mload(0x40)\n      dup1\n      dup4\n      sub\n      dup2\n      dup7\n      gas\n      staticcall\n      iszero\n      dup1\n      iszero\n      tag_336\n      jumpi\n      returndatasize\n      0x00\n      dup1\n      returndatacopy\n      revert(0x00, returndatasize)\n    tag_336:\n      pop\n      pop\n      pop\n      pop\n      mload(0x40)\n      returndatasize\n      not(0x1f)\n      0x1f\n      dup3\n      add\n      and\n      dup3\n      add\n      dup1\n      0x40\n      mstore\n      pop\n      dup2\n      add\n      swap1\n      tag_337\n      swap2\n      swap1\n      tag_242\n      jump\t// in\n    tag_337:\n        /* \"smart-contract/hardhat/contracts/ClosedSurveyV3.sol\":3450:3483  cUSD.balanceOf(address(this)) > 0 */\n      gt\n        /* \"smart-contract/hardhat/contracts/ClosedSurveyV3.sol\":3429:3540  require(... */\n      tag_338\n      jumpi\n      mload(0x40)\n      shl(0xe5, 0x461bcd)\n      dup2\n      mstore\n        /* \"#utility.yul\":9952:9954   */\n      0x20\n        /* \"smart-contract/hardhat/contracts/ClosedSurveyV3.sol\":3429:3540  require(... */\n      0x04\n      dup3\n      add\n        /* \"#utility.yul\":9934:9955   */\n      mstore\n        /* \"#utility.yul\":9991:9993   */\n      0x1f\n        /* \"#utility.yul\":9971:9989   */\n      0x24\n      dup3\n      add\n        /* \"#utility.yul\":9964:9994   */\n      mstore\n        /* \"#utility.yul\":10030:10063   */\n      0x436f6e747261637420646f6573206e6f74206861766520616e79206355534400\n        /* \"#utility.yul\":10010:10028   */\n      0x44\n      dup3\n      add\n        /* \"#utility.yul\":10003:10064   */\n      mstore\n        /* \"#utility.yul\":10081:10099   */\n      0x64\n      add\n        /* \"smart-contract/hardhat/contracts/ClosedSurveyV3.sol\":3429:3540  require(... */\n      tag_135\n        /* \"#utility.yul\":9750:10105   */\n      jump\n        /* \"smart-contract/hardhat/contracts/ClosedSurveyV3.sol\":3429:3540  require(... */\n    tag_338:\n        /* \"smart-contract/hardhat/contracts/ClosedSurveyV3.sol\":10125:10154  cUSD.balanceOf(address(this)) */\n      mload(0x40)\n      shl(0xe0, 0x70a08231)\n      dup2\n      mstore\n        /* \"smart-contract/hardhat/contracts/ClosedSurveyV3.sol\":10148:10152  this */\n      address\n        /* \"smart-contract/hardhat/contracts/ClosedSurveyV3.sol\":10125:10154  cUSD.balanceOf(address(this)) */\n      0x04\n      dup3\n      add\n        /* \"#utility.yul\":364:415   */\n      mstore\n        /* \"smart-contract/hardhat/contracts/ClosedSurveyV3.sol\":10107:10122  uint256 balance */\n      0x00\n      swap1\n        /* \"smart-contract/hardhat/contracts/ClosedSurveyV3.sol\":10125:10129  cUSD */\n      immutable(\"0x4ce4dab4689da140a0c12de1a6af6b8f679594aeb723205f513e052d27f5b26f\")\n      sub(shl(0xa0, 0x01), 0x01)\n        /* \"smart-contract/hardhat/contracts/ClosedSurveyV3.sol\":10125:10139  cUSD.balanceOf */\n      and\n      swap1\n      0x70a08231\n      swap1\n        /* \"#utility.yul\":337:355   */\n      0x24\n      add\n        /* \"smart-contract/hardhat/contracts/ClosedSurveyV3.sol\":10125:10154  cUSD.balanceOf(address(this)) */\n      0x20\n      mload(0x40)\n      dup1\n      dup4\n      sub\n      dup2\n      dup7\n      gas\n      staticcall\n      iszero\n      dup1\n      iszero\n      tag_344\n      jumpi\n      returndatasize\n      0x00\n      dup1\n      returndatacopy\n      revert(0x00, returndatasize)\n    tag_344:\n      pop\n      pop\n      pop\n      pop\n      mload(0x40)\n      returndatasize\n      not(0x1f)\n      0x1f\n      dup3\n      add\n      and\n      dup3\n      add\n      dup1\n      0x40\n      mstore\n      pop\n      dup2\n      add\n      swap1\n      tag_345\n      swap2\n      swap1\n      tag_242\n      jump\t// in\n    tag_345:\n        /* \"smart-contract/hardhat/contracts/ClosedSurveyV3.sol\":10107:10154  uint256 balance = cUSD.balanceOf(address(this)) */\n      swap1\n      pop\n        /* \"smart-contract/hardhat/contracts/ClosedSurveyV3.sol\":10164:10189  bool transferIsSuccessful */\n      0x00\n        /* \"smart-contract/hardhat/contracts/ClosedSurveyV3.sol\":10192:10196  cUSD */\n      immutable(\"0x4ce4dab4689da140a0c12de1a6af6b8f679594aeb723205f513e052d27f5b26f\")\n      sub(shl(0xa0, 0x01), 0x01)\n        /* \"smart-contract/hardhat/contracts/ClosedSurveyV3.sol\":10192:10205  cUSD.transfer */\n      and\n      0xa9059cbb\n        /* \"smart-contract/hardhat/contracts/ClosedSurveyV3.sol\":10206:10213  owner() */\n      tag_346\n        /* \"@openzeppelin/contracts/access/Ownable.sol\":1684:1691  address */\n      0x00\n        /* \"@openzeppelin/contracts/access/Ownable.sol\":1710:1716  _owner */\n      sload\n      sub(shl(0xa0, 0x01), 0x01)\n      and\n      swap1\n        /* \"@openzeppelin/contracts/access/Ownable.sol\":1638:1723  function owner() public view virtual returns (address) {... */\n      jump\n        /* \"smart-contract/hardhat/contracts/ClosedSurveyV3.sol\":10206:10213  owner() */\n    tag_346:\n        /* \"smart-contract/hardhat/contracts/ClosedSurveyV3.sol\":10192:10223  cUSD.transfer(owner(), balance) */\n      mload(0x40)\n      not(sub(shl(0xe0, 0x01), 0x01))\n      0xe0\n      dup5\n      swap1\n      shl\n      and\n      dup2\n      mstore\n      sub(shl(0xa0, 0x01), 0x01)\n        /* \"#utility.yul\":10302:10334   */\n      swap1\n      swap2\n      and\n        /* \"smart-contract/hardhat/contracts/ClosedSurveyV3.sol\":10192:10223  cUSD.transfer(owner(), balance) */\n      0x04\n      dup3\n      add\n        /* \"#utility.yul\":10284:10335   */\n      mstore\n        /* \"#utility.yul\":10351:10369   */\n      0x24\n      dup2\n      add\n        /* \"#utility.yul\":10344:10378   */\n      dup6\n      swap1\n      mstore\n        /* \"#utility.yul\":10257:10275   */\n      0x44\n      add\n        /* \"smart-contract/hardhat/contracts/ClosedSurveyV3.sol\":10192:10223  cUSD.transfer(owner(), balance) */\n      0x20\n      mload(0x40)\n      dup1\n      dup4\n      sub\n      dup2\n      0x00\n      dup8\n      gas\n      call\n      iszero\n      dup1\n      iszero\n      tag_350\n      jumpi\n      returndatasize\n      0x00\n      dup1\n      returndatacopy\n      revert(0x00, returndatasize)\n    tag_350:\n      pop\n      pop\n      pop\n      pop\n      mload(0x40)\n      returndatasize\n      not(0x1f)\n      0x1f\n      dup3\n      add\n      and\n      dup3\n      add\n      dup1\n      0x40\n      mstore\n      pop\n      dup2\n      add\n      swap1\n      tag_351\n      swap2\n      swap1\n      tag_352\n      jump\t// in\n    tag_351:\n        /* \"smart-contract/hardhat/contracts/ClosedSurveyV3.sol\":10164:10223  bool transferIsSuccessful = cUSD.transfer(owner(), balance) */\n      swap1\n      pop\n        /* \"smart-contract/hardhat/contracts/ClosedSurveyV3.sol\":10238:10258  transferIsSuccessful */\n      dup1\n        /* \"smart-contract/hardhat/contracts/ClosedSurveyV3.sol\":10234:10328  if (transferIsSuccessful) {... */\n      iszero\n      tag_353\n      jumpi\n        /* \"smart-contract/hardhat/contracts/ClosedSurveyV3.sol\":10279:10317  RewardFundsWithdrawn(owner(), balance) */\n      0x2036b9b38b69a2fa490ee702733a29cd2550accc20bc96e786cb9beedc779097\n        /* \"smart-contract/hardhat/contracts/ClosedSurveyV3.sol\":10300:10307  owner() */\n      tag_354\n        /* \"@openzeppelin/contracts/access/Ownable.sol\":1684:1691  address */\n      0x00\n        /* \"@openzeppelin/contracts/access/Ownable.sol\":1710:1716  _owner */\n      sload\n      sub(shl(0xa0, 0x01), 0x01)\n      and\n      swap1\n        /* \"@openzeppelin/contracts/access/Ownable.sol\":1638:1723  function owner() public view virtual returns (address) {... */\n      jump\n        /* \"smart-contract/hardhat/contracts/ClosedSurveyV3.sol\":10300:10307  owner() */\n    tag_354:\n        /* \"smart-contract/hardhat/contracts/ClosedSurveyV3.sol\":10279:10317  RewardFundsWithdrawn(owner(), balance) */\n      0x40\n      dup1\n      mload\n      sub(shl(0xa0, 0x01), 0x01)\n        /* \"#utility.yul\":10302:10334   */\n      swap1\n      swap3\n      and\n        /* \"#utility.yul\":10284:10335   */\n      dup3\n      mstore\n        /* \"#utility.yul\":10366:10368   */\n      0x20\n        /* \"#utility.yul\":10351:10369   */\n      dup3\n      add\n        /* \"#utility.yul\":10344:10378   */\n      dup6\n      swap1\n      mstore\n        /* \"#utility.yul\":10257:10275   */\n      add\n        /* \"smart-contract/hardhat/contracts/ClosedSurveyV3.sol\":10279:10317  RewardFundsWithdrawn(owner(), balance) */\n      tag_228\n        /* \"#utility.yul\":10110:10384   */\n      jump\n        /* \"smart-contract/hardhat/contracts/ClosedSurveyV3.sol\":10234:10328  if (transferIsSuccessful) {... */\n    tag_353:\n        /* \"smart-contract/hardhat/contracts/ClosedSurveyV3.sol\":10097:10334  {... */\n      pop\n      pop\n        /* \"smart-contract/hardhat/contracts/ClosedSurveyV3.sol\":9957:10334  function withdrawAllRewardFundsToResearcher()... */\n      jump\t// out\n        /* \"@openzeppelin/contracts/access/Ownable.sol\":2543:2758  function transferOwnership(address newOwner) public virtual onlyOwner {... */\n    tag_129:\n        /* \"@openzeppelin/contracts/access/Ownable.sol\":1531:1544  _checkOwner() */\n      tag_357\n        /* \"@openzeppelin/contracts/access/Ownable.sol\":1531:1542  _checkOwner */\n      tag_132\n        /* \"@openzeppelin/contracts/access/Ownable.sol\":1531:1544  _checkOwner() */\n      jump\t// in\n    tag_357:\n      sub(shl(0xa0, 0x01), 0x01)\n        /* \"@openzeppelin/contracts/access/Ownable.sol\":2627:2649  newOwner == address(0) */\n      dup2\n      and\n        /* \"@openzeppelin/contracts/access/Ownable.sol\":2623:2714  if (newOwner == address(0)) {... */\n      tag_359\n      jumpi\n        /* \"@openzeppelin/contracts/access/Ownable.sol\":2672:2703  OwnableInvalidOwner(address(0)) */\n      mload(0x40)\n      shl(0xe0, 0x1e4fbdf7)\n      dup2\n      mstore\n        /* \"@openzeppelin/contracts/access/Ownable.sol\":2700:2701  0 */\n      0x00\n        /* \"@openzeppelin/contracts/access/Ownable.sol\":2672:2703  OwnableInvalidOwner(address(0)) */\n      0x04\n      dup3\n      add\n        /* \"#utility.yul\":364:415   */\n      mstore\n        /* \"#utility.yul\":337:355   */\n      0x24\n      add\n        /* \"@openzeppelin/contracts/access/Ownable.sol\":2672:2703  OwnableInvalidOwner(address(0)) */\n      tag_135\n        /* \"#utility.yul\":196:421   */\n      jump\n        /* \"@openzeppelin/contracts/access/Ownable.sol\":2623:2714  if (newOwner == address(0)) {... */\n    tag_359:\n        /* \"@openzeppelin/contracts/access/Ownable.sol\":2723:2751  _transferOwnership(newOwner) */\n      tag_272\n        /* \"@openzeppelin/contracts/access/Ownable.sol\":2742:2750  newOwner */\n      dup2\n        /* \"@openzeppelin/contracts/access/Ownable.sol\":2723:2741  _transferOwnership */\n      tag_190\n        /* \"@openzeppelin/contracts/access/Ownable.sol\":2723:2751  _transferOwnership(newOwner) */\n      jump\t// in\n        /* \"@openzeppelin/contracts/access/Ownable.sol\":1796:1958  function _checkOwner() internal view virtual {... */\n    tag_132:\n        /* \"@openzeppelin/contracts/access/Ownable.sol\":1684:1691  address */\n      0x00\n        /* \"@openzeppelin/contracts/access/Ownable.sol\":1710:1716  _owner */\n      sload\n      sub(shl(0xa0, 0x01), 0x01)\n      and\n        /* \"@openzeppelin/contracts/utils/Context.sol\":735:745  msg.sender */\n      caller\n        /* \"@openzeppelin/contracts/access/Ownable.sol\":1855:1878  owner() != _msgSender() */\n      eq\n        /* \"@openzeppelin/contracts/access/Ownable.sol\":1851:1952  if (owner() != _msgSender()) {... */\n      tag_165\n      jumpi\n        /* \"@openzeppelin/contracts/access/Ownable.sol\":1901:1941  OwnableUnauthorizedAccount(_msgSender()) */\n      mload(0x40)\n      shl(0xe0, 0x118cdaa7)\n      dup2\n      mstore\n        /* \"@openzeppelin/contracts/utils/Context.sol\":735:745  msg.sender */\n      caller\n        /* \"@openzeppelin/contracts/access/Ownable.sol\":1901:1941  OwnableUnauthorizedAccount(_msgSender()) */\n      0x04\n      dup3\n      add\n        /* \"#utility.yul\":364:415   */\n      mstore\n        /* \"#utility.yul\":337:355   */\n      0x24\n      add\n        /* \"@openzeppelin/contracts/access/Ownable.sol\":1901:1941  OwnableUnauthorizedAccount(_msgSender()) */\n      tag_135\n        /* \"#utility.yul\":196:421   */\n      jump\n        /* \"@openzeppelin/contracts/utils/Pausable.sol\":2710:2827  function _unpause() internal virtual whenPaused {... */\n    tag_166:\n        /* \"@openzeppelin/contracts/utils/Pausable.sol\":1721:1737  _requirePaused() */\n      tag_370\n        /* \"@openzeppelin/contracts/utils/Pausable.sol\":1721:1735  _requirePaused */\n      tag_371\n        /* \"@openzeppelin/contracts/utils/Pausable.sol\":1721:1737  _requirePaused() */\n      jump\t// in\n    tag_370:\n        /* \"@openzeppelin/contracts/utils/Pausable.sol\":2768:2775  _paused */\n      0x02\n        /* \"@openzeppelin/contracts/utils/Pausable.sol\":2768:2783  _paused = false */\n      dup1\n      sload\n      not(0xff)\n      and\n      swap1\n      sstore\n        /* \"@openzeppelin/contracts/utils/Pausable.sol\":2798:2820  Unpaused(_msgSender()) */\n      0x5db9ee0a495bf2e6ff9c91a7834c1ba4fdd244a5e8aa4e537bd38aeae4b073aa\n        /* \"@openzeppelin/contracts/utils/Context.sol\":735:745  msg.sender */\n      caller\n        /* \"@openzeppelin/contracts/utils/Pausable.sol\":2807:2819  _msgSender() */\n    tag_373:\n        /* \"@openzeppelin/contracts/utils/Pausable.sol\":2798:2820  Unpaused(_msgSender()) */\n      mload(0x40)\n      sub(shl(0xa0, 0x01), 0x01)\n        /* \"#utility.yul\":382:414   */\n      swap1\n      swap2\n      and\n        /* \"#utility.yul\":364:415   */\n      dup2\n      mstore\n        /* \"#utility.yul\":352:354   */\n      0x20\n        /* \"#utility.yul\":337:355   */\n      add\n        /* \"@openzeppelin/contracts/utils/Pausable.sol\":2798:2820  Unpaused(_msgSender()) */\n      mload(0x40)\n      dup1\n      swap2\n      sub\n      swap1\n      log1\n        /* \"@openzeppelin/contracts/utils/Pausable.sol\":2710:2827  function _unpause() internal virtual whenPaused {... */\n      jump\t// out\n        /* \"@openzeppelin/contracts/access/Ownable.sol\":2912:3099  function _transferOwnership(address newOwner) internal virtual {... */\n    tag_190:\n        /* \"@openzeppelin/contracts/access/Ownable.sol\":2985:3001  address oldOwner */\n      0x00\n        /* \"@openzeppelin/contracts/access/Ownable.sol\":3004:3010  _owner */\n      dup1\n      sload\n      sub(shl(0xa0, 0x01), 0x01)\n        /* \"@openzeppelin/contracts/access/Ownable.sol\":3020:3037  _owner = newOwner */\n      dup4\n      dup2\n      and\n      not(sub(shl(0xa0, 0x01), 0x01))\n      dup4\n      and\n      dup2\n      or\n      dup5\n      sstore\n        /* \"@openzeppelin/contracts/access/Ownable.sol\":3052:3092  OwnershipTransferred(oldOwner, newOwner) */\n      mload(0x40)\n        /* \"@openzeppelin/contracts/access/Ownable.sol\":3004:3010  _owner */\n      swap2\n      swap1\n      swap3\n      and\n      swap3\n      dup4\n      swap2\n        /* \"@openzeppelin/contracts/access/Ownable.sol\":3052:3092  OwnershipTransferred(oldOwner, newOwner) */\n      0x8be0079c531659141344cd1fd0a4f28419497f9722a3daafe3b4186f6b6457e0\n      swap2\n        /* \"@openzeppelin/contracts/access/Ownable.sol\":2985:3001  address oldOwner */\n      swap1\n        /* \"@openzeppelin/contracts/access/Ownable.sol\":3052:3092  OwnershipTransferred(oldOwner, newOwner) */\n      log3\n        /* \"@openzeppelin/contracts/access/Ownable.sol\":2975:3099  {... */\n      pop\n        /* \"@openzeppelin/contracts/access/Ownable.sol\":2912:3099  function _transferOwnership(address newOwner) internal virtual {... */\n      pop\n      jump\t// out\n        /* \"@openzeppelin/contracts/utils/Pausable.sol\":2002:2130  function _requireNotPaused() internal view virtual {... */\n    tag_233:\n        /* \"@openzeppelin/contracts/utils/Pausable.sol\":1920:1927  _paused */\n      and(0xff, sload(0x02))\n        /* \"@openzeppelin/contracts/utils/Pausable.sol\":2063:2124  if (paused()) {... */\n      iszero\n      tag_165\n      jumpi\n        /* \"@openzeppelin/contracts/utils/Pausable.sol\":2098:2113  EnforcedPause() */\n      mload(0x40)\n      shl(0xe0, 0xd93c0665)\n      dup2\n      mstore\n      0x04\n      add\n      mload(0x40)\n      dup1\n      swap2\n      sub\n      swap1\n      revert\n        /* \"@openzeppelin/contracts/utils/ReentrancyGuard.sol\":2575:2882  function _nonReentrantBefore() private {... */\n    tag_236:\n        /* \"@openzeppelin/contracts/utils/ReentrancyGuard.sol\":1899:1900  2 */\n      0x02\n        /* \"@openzeppelin/contracts/utils/ReentrancyGuard.sol\":2702:2709  _status */\n      sload(0x01)\n        /* \"@openzeppelin/contracts/utils/ReentrancyGuard.sol\":2702:2720  _status == ENTERED */\n      sub\n        /* \"@openzeppelin/contracts/utils/ReentrancyGuard.sol\":2698:2784  if (_status == ENTERED) {... */\n      tag_380\n      jumpi\n        /* \"@openzeppelin/contracts/utils/ReentrancyGuard.sol\":2743:2773  ReentrancyGuardReentrantCall() */\n      mload(0x40)\n      shl(0xe0, 0x3ee5aeb5)\n      dup2\n      mstore\n      0x04\n      add\n      mload(0x40)\n      dup1\n      swap2\n      sub\n      swap1\n      revert\n        /* \"@openzeppelin/contracts/utils/ReentrancyGuard.sol\":2698:2784  if (_status == ENTERED) {... */\n    tag_380:\n        /* \"@openzeppelin/contracts/utils/ReentrancyGuard.sol\":1899:1900  2 */\n      0x02\n        /* \"@openzeppelin/contracts/utils/ReentrancyGuard.sol\":2858:2865  _status */\n      0x01\n        /* \"@openzeppelin/contracts/utils/ReentrancyGuard.sol\":2858:2875  _status = ENTERED */\n      sstore\n        /* \"@openzeppelin/contracts/utils/ReentrancyGuard.sol\":2575:2882  function _nonReentrantBefore() private {... */\n      jump\t// out\n        /* \"smart-contract/hardhat/contracts/ClosedSurveyV3.sol\":9367:9951  function rewardParticipant(address participantWalletAddress)... */\n    tag_268:\n        /* \"smart-contract/hardhat/contracts/ClosedSurveyV3.sol\":9579:9610  rewardAmountPerParticipantInWei */\n      sload(0x06)\n        /* \"smart-contract/hardhat/contracts/ClosedSurveyV3.sol\":9514:9620  cUSD.transfer(... */\n      mload(0x40)\n      shl(0xe0, 0xa9059cbb)\n      dup2\n      mstore\n      sub(shl(0xa0, 0x01), 0x01)\n        /* \"#utility.yul\":10302:10334   */\n      dup4\n      dup2\n      and\n        /* \"smart-contract/hardhat/contracts/ClosedSurveyV3.sol\":9514:9620  cUSD.transfer(... */\n      0x04\n      dup4\n      add\n        /* \"#utility.yul\":10284:10335   */\n      mstore\n        /* \"#utility.yul\":10351:10369   */\n      0x24\n      dup3\n      add\n        /* \"#utility.yul\":10344:10378   */\n      swap3\n      swap1\n      swap3\n      mstore\n        /* \"smart-contract/hardhat/contracts/ClosedSurveyV3.sol\":9461:9465  bool */\n      0x00\n      swap2\n      dup3\n      swap2\n        /* \"smart-contract/hardhat/contracts/ClosedSurveyV3.sol\":9514:9518  cUSD */\n      immutable(\"0x4ce4dab4689da140a0c12de1a6af6b8f679594aeb723205f513e052d27f5b26f\")\n        /* \"smart-contract/hardhat/contracts/ClosedSurveyV3.sol\":9514:9527  cUSD.transfer */\n      swap1\n      swap2\n      and\n      swap1\n      0xa9059cbb\n      swap1\n        /* \"#utility.yul\":10257:10275   */\n      0x44\n      add\n        /* \"smart-contract/hardhat/contracts/ClosedSurveyV3.sol\":9514:9620  cUSD.transfer(... */\n      0x20\n      mload(0x40)\n      dup1\n      dup4\n      sub\n      dup2\n      0x00\n      dup8\n      gas\n      call\n      iszero\n      dup1\n      iszero\n      tag_384\n      jumpi\n      returndatasize\n      0x00\n      dup1\n      returndatacopy\n      revert(0x00, returndatasize)\n    tag_384:\n      pop\n      pop\n      pop\n      pop\n      mload(0x40)\n      returndatasize\n      not(0x1f)\n      0x1f\n      dup3\n      add\n      and\n      dup3\n      add\n      dup1\n      0x40\n      mstore\n      pop\n      dup2\n      add\n      swap1\n      tag_385\n      swap2\n      swap1\n      tag_352\n      jump\t// in\n    tag_385:\n        /* \"smart-contract/hardhat/contracts/ClosedSurveyV3.sol\":9481:9620  bool rewardTransferIsSuccesful = cUSD.transfer(... */\n      swap1\n      pop\n        /* \"smart-contract/hardhat/contracts/ClosedSurveyV3.sol\":9635:9660  rewardTransferIsSuccesful */\n      dup1\n        /* \"smart-contract/hardhat/contracts/ClosedSurveyV3.sol\":9631:9902  if (rewardTransferIsSuccesful) {... */\n      iszero\n      tag_386\n      jumpi\n        /* \"smart-contract/hardhat/contracts/ClosedSurveyV3.sol\":9706:9734  numberOfRewardedParticipants */\n      0x08\n        /* \"smart-contract/hardhat/contracts/ClosedSurveyV3.sol\":9704:9734  ++numberOfRewardedParticipants */\n      dup1\n      sload\n      0x01\n      add\n      swap1\n      sstore\n        /* \"smart-contract/hardhat/contracts/ClosedSurveyV3.sol\":9846:9877  rewardAmountPerParticipantInWei */\n      sload(0x06)\n        /* \"smart-contract/hardhat/contracts/ClosedSurveyV3.sol\":9767:9891  ParticipantRewarded(... */\n      0x40\n      dup1\n      mload\n      sub(shl(0xa0, 0x01), 0x01)\n        /* \"#utility.yul\":10302:10334   */\n      dup7\n      and\n        /* \"#utility.yul\":10284:10335   */\n      dup2\n      mstore\n        /* \"#utility.yul\":10366:10368   */\n      0x20\n        /* \"#utility.yul\":10351:10369   */\n      dup2\n      add\n        /* \"#utility.yul\":10344:10378   */\n      swap3\n      swap1\n      swap3\n      mstore\n        /* \"smart-contract/hardhat/contracts/ClosedSurveyV3.sol\":9767:9891  ParticipantRewarded(... */\n      0x8934d7a9692e763e356fd30d84ca5f61a737b35c5ccd5d31d4f140310267b73e\n      swap2\n        /* \"#utility.yul\":10257:10275   */\n      add\n        /* \"smart-contract/hardhat/contracts/ClosedSurveyV3.sol\":9767:9891  ParticipantRewarded(... */\n      mload(0x40)\n      dup1\n      swap2\n      sub\n      swap1\n      log1\n        /* \"smart-contract/hardhat/contracts/ClosedSurveyV3.sol\":9631:9902  if (rewardTransferIsSuccesful) {... */\n    tag_386:\n        /* \"smart-contract/hardhat/contracts/ClosedSurveyV3.sol\":9919:9944  rewardTransferIsSuccesful */\n      swap3\n        /* \"smart-contract/hardhat/contracts/ClosedSurveyV3.sol\":9367:9951  function rewardParticipant(address participantWalletAddress)... */\n      swap2\n      pop\n      pop\n      jump\t// out\n        /* \"smart-contract/hardhat/contracts/ClosedSurveyV3.sol\":9121:9361  function markParticipantAsHavingClaimedReward(... */\n    tag_271:\n      sub(shl(0xa0, 0x01), 0x01)\n        /* \"smart-contract/hardhat/contracts/ClosedSurveyV3.sol\":9233:9279  rewardedParticipants[participantWalletAddress] */\n      dup2\n      and\n      0x00\n      dup2\n      dup2\n      mstore\n        /* \"smart-contract/hardhat/contracts/ClosedSurveyV3.sol\":9233:9253  rewardedParticipants */\n      0x04\n        /* \"smart-contract/hardhat/contracts/ClosedSurveyV3.sol\":9233:9279  rewardedParticipants[participantWalletAddress] */\n      0x20\n      swap1\n      dup2\n      mstore\n      0x40\n      swap2\n      dup3\n      swap1\n      keccak256\n        /* \"smart-contract/hardhat/contracts/ClosedSurveyV3.sol\":9233:9286  rewardedParticipants[participantWalletAddress] = true */\n      dup1\n      sload\n      not(0xff)\n      and\n        /* \"smart-contract/hardhat/contracts/ClosedSurveyV3.sol\":9282:9286  true */\n      0x01\n        /* \"smart-contract/hardhat/contracts/ClosedSurveyV3.sol\":9233:9286  rewardedParticipants[participantWalletAddress] = true */\n      or\n      swap1\n      sstore\n        /* \"smart-contract/hardhat/contracts/ClosedSurveyV3.sol\":9301:9354  ParticipantMarkedAsRewarded(participantWalletAddress) */\n      swap1\n      mload\n        /* \"#utility.yul\":364:415   */\n      swap2\n      dup3\n      mstore\n        /* \"smart-contract/hardhat/contracts/ClosedSurveyV3.sol\":9301:9354  ParticipantMarkedAsRewarded(participantWalletAddress) */\n      0x654c9a027765e6feb862f42d438e9f6948f9ee31113e379f0372b30efc722943\n      swap2\n        /* \"#utility.yul\":337:355   */\n      add\n        /* \"smart-contract/hardhat/contracts/ClosedSurveyV3.sol\":9301:9354  ParticipantMarkedAsRewarded(participantWalletAddress) */\n      mload(0x40)\n      dup1\n      swap2\n      sub\n      swap1\n      log1\n        /* \"smart-contract/hardhat/contracts/ClosedSurveyV3.sol\":9121:9361  function markParticipantAsHavingClaimedReward(... */\n      pop\n      jump\t// out\n        /* \"@openzeppelin/contracts/utils/Pausable.sol\":2463:2578  function _pause() internal virtual whenNotPaused {... */\n    tag_317:\n        /* \"@openzeppelin/contracts/utils/Pausable.sol\":1474:1493  _requireNotPaused() */\n      tag_392\n        /* \"@openzeppelin/contracts/utils/Pausable.sol\":1474:1491  _requireNotPaused */\n      tag_233\n        /* \"@openzeppelin/contracts/utils/Pausable.sol\":1474:1493  _requireNotPaused() */\n      jump\t// in\n    tag_392:\n        /* \"@openzeppelin/contracts/utils/Pausable.sol\":2522:2529  _paused */\n      0x02\n        /* \"@openzeppelin/contracts/utils/Pausable.sol\":2522:2536  _paused = true */\n      dup1\n      sload\n      not(0xff)\n      and\n        /* \"@openzeppelin/contracts/utils/Pausable.sol\":2532:2536  true */\n      0x01\n        /* \"@openzeppelin/contracts/utils/Pausable.sol\":2522:2536  _paused = true */\n      or\n      swap1\n      sstore\n        /* \"@openzeppelin/contracts/utils/Pausable.sol\":2551:2571  Paused(_msgSender()) */\n      0x62e78cea01bee320cd4e420270b5ea74000d11b0c9f74754ebdbfc544b05a258\n        /* \"@openzeppelin/contracts/utils/Pausable.sol\":2558:2570  _msgSender() */\n      tag_373\n        /* \"@openzeppelin/contracts/utils/Context.sol\":735:745  msg.sender */\n      caller\n      swap1\n        /* \"@openzeppelin/contracts/utils/Context.sol\":656:752  function _msgSender() internal view virtual returns (address) {... */\n      jump\n        /* \"@openzeppelin/contracts/utils/Pausable.sol\":2202:2328  function _requirePaused() internal view virtual {... */\n    tag_371:\n        /* \"@openzeppelin/contracts/utils/Pausable.sol\":1920:1927  _paused */\n      and(0xff, sload(0x02))\n        /* \"@openzeppelin/contracts/utils/Pausable.sol\":2260:2322  if (!paused()) {... */\n      tag_165\n      jumpi\n        /* \"@openzeppelin/contracts/utils/Pausable.sol\":2296:2311  ExpectedPause() */\n      mload(0x40)\n      shl(0xe0, 0x8dfc202b)\n      dup2\n      mstore\n      0x04\n      add\n      mload(0x40)\n      dup1\n      swap2\n      sub\n      swap1\n      revert\n        /* \"#utility.yul\":426:1036   */\n    tag_48:\n        /* \"#utility.yul\":512:518   */\n      0x00\n        /* \"#utility.yul\":520:526   */\n      dup1\n        /* \"#utility.yul\":573:575   */\n      0x20\n        /* \"#utility.yul\":561:570   */\n      dup4\n        /* \"#utility.yul\":552:559   */\n      dup6\n        /* \"#utility.yul\":548:571   */\n      sub\n        /* \"#utility.yul\":544:576   */\n      slt\n        /* \"#utility.yul\":541:593   */\n      iszero\n      tag_405\n      jumpi\n        /* \"#utility.yul\":589:590   */\n      0x00\n        /* \"#utility.yul\":586:587   */\n      dup1\n        /* \"#utility.yul\":579:591   */\n      revert\n        /* \"#utility.yul\":541:593   */\n    tag_405:\n        /* \"#utility.yul\":629:638   */\n      dup3\n        /* \"#utility.yul\":616:639   */\n      calldataload\n        /* \"#utility.yul\":662:680   */\n      0xffffffffffffffff\n        /* \"#utility.yul\":654:660   */\n      dup2\n        /* \"#utility.yul\":651:681   */\n      gt\n        /* \"#utility.yul\":648:698   */\n      iszero\n      tag_406\n      jumpi\n        /* \"#utility.yul\":694:695   */\n      0x00\n        /* \"#utility.yul\":691:692   */\n      dup1\n        /* \"#utility.yul\":684:696   */\n      revert\n        /* \"#utility.yul\":648:698   */\n    tag_406:\n        /* \"#utility.yul\":717:739   */\n      dup4\n      add\n        /* \"#utility.yul\":770:774   */\n      0x1f\n        /* \"#utility.yul\":762:775   */\n      dup2\n      add\n        /* \"#utility.yul\":758:785   */\n      dup6\n      sgt\n        /* \"#utility.yul\":748:803   */\n      tag_407\n      jumpi\n        /* \"#utility.yul\":799:800   */\n      0x00\n        /* \"#utility.yul\":796:797   */\n      dup1\n        /* \"#utility.yul\":789:801   */\n      revert\n        /* \"#utility.yul\":748:803   */\n    tag_407:\n        /* \"#utility.yul\":839:841   */\n      dup1\n        /* \"#utility.yul\":826:842   */\n      calldataload\n        /* \"#utility.yul\":865:883   */\n      0xffffffffffffffff\n        /* \"#utility.yul\":857:863   */\n      dup2\n        /* \"#utility.yul\":854:884   */\n      gt\n        /* \"#utility.yul\":851:901   */\n      iszero\n      tag_408\n      jumpi\n        /* \"#utility.yul\":897:898   */\n      0x00\n        /* \"#utility.yul\":894:895   */\n      dup1\n        /* \"#utility.yul\":887:899   */\n      revert\n        /* \"#utility.yul\":851:901   */\n    tag_408:\n        /* \"#utility.yul\":950:957   */\n      dup6\n        /* \"#utility.yul\":945:947   */\n      0x20\n        /* \"#utility.yul\":935:941   */\n      dup3\n        /* \"#utility.yul\":932:933   */\n      0x05\n        /* \"#utility.yul\":928:942   */\n      shl\n        /* \"#utility.yul\":924:926   */\n      dup5\n        /* \"#utility.yul\":920:943   */\n      add\n        /* \"#utility.yul\":916:948   */\n      add\n        /* \"#utility.yul\":913:958   */\n      gt\n        /* \"#utility.yul\":910:975   */\n      iszero\n      tag_409\n      jumpi\n        /* \"#utility.yul\":971:972   */\n      0x00\n        /* \"#utility.yul\":968:969   */\n      dup1\n        /* \"#utility.yul\":961:973   */\n      revert\n        /* \"#utility.yul\":910:975   */\n    tag_409:\n        /* \"#utility.yul\":1002:1004   */\n      0x20\n        /* \"#utility.yul\":994:1005   */\n      swap2\n      swap1\n      swap2\n      add\n      swap6\n        /* \"#utility.yul\":1024:1030   */\n      swap1\n      swap5\n      pop\n        /* \"#utility.yul\":426:1036   */\n      swap3\n      pop\n      pop\n      pop\n      jump\t// out\n        /* \"#utility.yul\":1041:1221   */\n    tag_60:\n        /* \"#utility.yul\":1100:1106   */\n      0x00\n        /* \"#utility.yul\":1153:1155   */\n      0x20\n        /* \"#utility.yul\":1141:1150   */\n      dup3\n        /* \"#utility.yul\":1132:1139   */\n      dup5\n        /* \"#utility.yul\":1128:1151   */\n      sub\n        /* \"#utility.yul\":1124:1156   */\n      slt\n        /* \"#utility.yul\":1121:1173   */\n      iszero\n      tag_411\n      jumpi\n        /* \"#utility.yul\":1169:1170   */\n      0x00\n        /* \"#utility.yul\":1166:1167   */\n      dup1\n        /* \"#utility.yul\":1159:1171   */\n      revert\n        /* \"#utility.yul\":1121:1173   */\n    tag_411:\n      pop\n        /* \"#utility.yul\":1192:1215   */\n      calldataload\n      swap2\n        /* \"#utility.yul\":1041:1221   */\n      swap1\n      pop\n      jump\t// out\n        /* \"#utility.yul\":1418:1591   */\n    tag_400:\n        /* \"#utility.yul\":1486:1506   */\n      dup1\n      calldataload\n      sub(shl(0xa0, 0x01), 0x01)\n        /* \"#utility.yul\":1535:1566   */\n      dup2\n      and\n        /* \"#utility.yul\":1525:1567   */\n      dup2\n      eq\n        /* \"#utility.yul\":1515:1585   */\n      tag_414\n      jumpi\n        /* \"#utility.yul\":1581:1582   */\n      0x00\n        /* \"#utility.yul\":1578:1579   */\n      dup1\n        /* \"#utility.yul\":1571:1583   */\n      revert\n        /* \"#utility.yul\":1515:1585   */\n    tag_414:\n        /* \"#utility.yul\":1418:1591   */\n      swap2\n      swap1\n      pop\n      jump\t// out\n        /* \"#utility.yul\":1596:1782   */\n    tag_74:\n        /* \"#utility.yul\":1655:1661   */\n      0x00\n        /* \"#utility.yul\":1708:1710   */\n      0x20\n        /* \"#utility.yul\":1696:1705   */\n      dup3\n        /* \"#utility.yul\":1687:1694   */\n      dup5\n        /* \"#utility.yul\":1683:1706   */\n      sub\n        /* \"#utility.yul\":1679:1711   */\n      slt\n        /* \"#utility.yul\":1676:1728   */\n      iszero\n      tag_416\n      jumpi\n        /* \"#utility.yul\":1724:1725   */\n      0x00\n        /* \"#utility.yul\":1721:1722   */\n      dup1\n        /* \"#utility.yul\":1714:1726   */\n      revert\n        /* \"#utility.yul\":1676:1728   */\n    tag_416:\n        /* \"#utility.yul\":1747:1776   */\n      tag_417\n        /* \"#utility.yul\":1766:1775   */\n      dup3\n        /* \"#utility.yul\":1747:1776   */\n      tag_400\n      jump\t// in\n    tag_417:\n        /* \"#utility.yul\":1737:1776   */\n      swap4\n        /* \"#utility.yul\":1596:1782   */\n      swap3\n      pop\n      pop\n      pop\n      jump\t// out\n        /* \"#utility.yul\":1995:2632   */\n    tag_109:\n        /* \"#utility.yul\":2185:2187   */\n      0x20\n        /* \"#utility.yul\":2197:2218   */\n      dup1\n      dup3\n      mstore\n        /* \"#utility.yul\":2267:2280   */\n      dup3\n      mload\n        /* \"#utility.yul\":2170:2188   */\n      dup3\n      dup3\n      add\n        /* \"#utility.yul\":2289:2311   */\n      dup2\n      swap1\n      mstore\n        /* \"#utility.yul\":2137:2141   */\n      0x00\n      swap2\n        /* \"#utility.yul\":2368:2383   */\n      dup5\n      add\n      swap1\n        /* \"#utility.yul\":2342:2344   */\n      0x40\n        /* \"#utility.yul\":2327:2345   */\n      dup5\n      add\n      swap1\n        /* \"#utility.yul\":2137:2141   */\n      dup4\n        /* \"#utility.yul\":2411:2606   */\n    tag_420:\n        /* \"#utility.yul\":2425:2431   */\n      dup2\n        /* \"#utility.yul\":2422:2423   */\n      dup2\n        /* \"#utility.yul\":2419:2432   */\n      lt\n        /* \"#utility.yul\":2411:2606   */\n      iszero\n      tag_422\n      jumpi\n        /* \"#utility.yul\":2490:2503   */\n      dup4\n      mload\n      sub(shl(0xa0, 0x01), 0x01)\n        /* \"#utility.yul\":2486:2525   */\n      and\n        /* \"#utility.yul\":2474:2526   */\n      dup4\n      mstore\n        /* \"#utility.yul\":2555:2557   */\n      0x20\n        /* \"#utility.yul\":2581:2596   */\n      swap4\n      dup5\n      add\n      swap4\n        /* \"#utility.yul\":2546:2558   */\n      swap1\n      swap3\n      add\n      swap2\n        /* \"#utility.yul\":2522:2523   */\n      0x01\n        /* \"#utility.yul\":2440:2449   */\n      add\n        /* \"#utility.yul\":2411:2606   */\n      jump(tag_420)\n    tag_422:\n      pop\n        /* \"#utility.yul\":2623:2626   */\n      swap1\n      swap6\n        /* \"#utility.yul\":1995:2632   */\n      swap5\n      pop\n      pop\n      pop\n      pop\n      pop\n      jump\t// out\n        /* \"#utility.yul\":2637:2980   */\n    tag_136:\n        /* \"#utility.yul\":2839:2841   */\n      0x20\n        /* \"#utility.yul\":2821:2842   */\n      dup1\n      dup3\n      mstore\n        /* \"#utility.yul\":2878:2880   */\n      0x13\n        /* \"#utility.yul\":2858:2876   */\n      swap1\n      dup3\n      add\n        /* \"#utility.yul\":2851:2881   */\n      mstore\n      shl(0x6a, 0x139bc81859191c995cdcd95cc81c185cdcd959)\n        /* \"#utility.yul\":2912:2914   */\n      0x40\n        /* \"#utility.yul\":2897:2915   */\n      dup3\n      add\n        /* \"#utility.yul\":2890:2939   */\n      mstore\n        /* \"#utility.yul\":2971:2973   */\n      0x60\n        /* \"#utility.yul\":2956:2974   */\n      add\n      swap1\n        /* \"#utility.yul\":2637:2980   */\n      jump\t// out\n        /* \"#utility.yul\":2985:3112   */\n    tag_142:\n        /* \"#utility.yul\":3046:3056   */\n      0x4e487b71\n        /* \"#utility.yul\":3041:3044   */\n      0xe0\n        /* \"#utility.yul\":3037:3057   */\n      shl\n        /* \"#utility.yul\":3034:3035   */\n      0x00\n        /* \"#utility.yul\":3027:3058   */\n      mstore\n        /* \"#utility.yul\":3077:3081   */\n      0x32\n        /* \"#utility.yul\":3074:3075   */\n      0x04\n        /* \"#utility.yul\":3067:3082   */\n      mstore\n        /* \"#utility.yul\":3101:3105   */\n      0x24\n        /* \"#utility.yul\":3098:3099   */\n      0x00\n        /* \"#utility.yul\":3091:3106   */\n      revert\n        /* \"#utility.yul\":3888:4503   */\n    tag_160:\n        /* \"#utility.yul\":4088:4090   */\n      0x20\n        /* \"#utility.yul\":4100:4121   */\n      dup1\n      dup3\n      mstore\n        /* \"#utility.yul\":4073:4091   */\n      dup2\n      add\n        /* \"#utility.yul\":4156:4178   */\n      dup3\n      swap1\n      mstore\n        /* \"#utility.yul\":4040:4044   */\n      0x00\n        /* \"#utility.yul\":4235:4241   */\n      dup4\n        /* \"#utility.yul\":4209:4211   */\n      0x40\n        /* \"#utility.yul\":4194:4212   */\n      dup4\n      add\n        /* \"#utility.yul\":4040:4044   */\n      dup3\n        /* \"#utility.yul\":4269:4477   */\n    tag_428:\n        /* \"#utility.yul\":4283:4289   */\n      dup6\n        /* \"#utility.yul\":4280:4281   */\n      dup2\n        /* \"#utility.yul\":4277:4290   */\n      lt\n        /* \"#utility.yul\":4269:4477   */\n      iszero\n      tag_430\n      jumpi\n      sub(shl(0xa0, 0x01), 0x01)\n        /* \"#utility.yul\":4348:4374   */\n      tag_431\n        /* \"#utility.yul\":4367:4373   */\n      dup5\n        /* \"#utility.yul\":4348:4374   */\n      tag_400\n      jump\t// in\n    tag_431:\n        /* \"#utility.yul\":4344:4396   */\n      and\n        /* \"#utility.yul\":4332:4397   */\n      dup3\n      mstore\n        /* \"#utility.yul\":4426:4428   */\n      0x20\n        /* \"#utility.yul\":4452:4467   */\n      swap3\n      dup4\n      add\n      swap3\n        /* \"#utility.yul\":4417:4429   */\n      swap1\n      swap2\n      add\n      swap1\n        /* \"#utility.yul\":4305:4306   */\n      0x01\n        /* \"#utility.yul\":4298:4307   */\n      add\n        /* \"#utility.yul\":4269:4477   */\n      jump(tag_428)\n    tag_430:\n      pop\n        /* \"#utility.yul\":4494:4497   */\n      swap6\n        /* \"#utility.yul\":3888:4503   */\n      swap5\n      pop\n      pop\n      pop\n      pop\n      pop\n      jump\t// out\n        /* \"#utility.yul\":6284:6627   */\n    tag_227:\n        /* \"#utility.yul\":6486:6488   */\n      0x20\n        /* \"#utility.yul\":6468:6489   */\n      dup1\n      dup3\n      mstore\n        /* \"#utility.yul\":6525:6527   */\n      0x13\n        /* \"#utility.yul\":6505:6523   */\n      swap1\n      dup3\n      add\n        /* \"#utility.yul\":6498:6528   */\n      mstore\n      shl(0x6a, 0x16995c9bc81859191c995cdcc81c185cdcd959)\n        /* \"#utility.yul\":6559:6561   */\n      0x40\n        /* \"#utility.yul\":6544:6562   */\n      dup3\n      add\n        /* \"#utility.yul\":6537:6586   */\n      mstore\n        /* \"#utility.yul\":6618:6620   */\n      0x60\n        /* \"#utility.yul\":6603:6621   */\n      add\n      swap1\n        /* \"#utility.yul\":6284:6627   */\n      jump\t// out\n        /* \"#utility.yul\":6632:6816   */\n    tag_242:\n        /* \"#utility.yul\":6702:6708   */\n      0x00\n        /* \"#utility.yul\":6755:6757   */\n      0x20\n        /* \"#utility.yul\":6743:6752   */\n      dup3\n        /* \"#utility.yul\":6734:6741   */\n      dup5\n        /* \"#utility.yul\":6730:6753   */\n      sub\n        /* \"#utility.yul\":6726:6758   */\n      slt\n        /* \"#utility.yul\":6723:6775   */\n      iszero\n      tag_439\n      jumpi\n        /* \"#utility.yul\":6771:6772   */\n      0x00\n        /* \"#utility.yul\":6768:6769   */\n      dup1\n        /* \"#utility.yul\":6761:6773   */\n      revert\n        /* \"#utility.yul\":6723:6775   */\n    tag_439:\n      pop\n        /* \"#utility.yul\":6794:6810   */\n      mload\n      swap2\n        /* \"#utility.yul\":6632:6816   */\n      swap1\n      pop\n      jump\t// out\n        /* \"#utility.yul\":9029:9261   */\n    tag_285:\n        /* \"#utility.yul\":9068:9071   */\n      0x00\n        /* \"#utility.yul\":9089:9106   */\n      0x01\n      dup3\n      add\n        /* \"#utility.yul\":9086:9226   */\n      tag_447\n      jumpi\n        /* \"#utility.yul\":9148:9158   */\n      0x4e487b71\n        /* \"#utility.yul\":9143:9146   */\n      0xe0\n        /* \"#utility.yul\":9139:9159   */\n      shl\n        /* \"#utility.yul\":9136:9137   */\n      0x00\n        /* \"#utility.yul\":9129:9160   */\n      mstore\n        /* \"#utility.yul\":9183:9187   */\n      0x11\n        /* \"#utility.yul\":9180:9181   */\n      0x04\n        /* \"#utility.yul\":9173:9188   */\n      mstore\n        /* \"#utility.yul\":9211:9215   */\n      0x24\n        /* \"#utility.yul\":9208:9209   */\n      0x00\n        /* \"#utility.yul\":9201:9216   */\n      revert\n        /* \"#utility.yul\":9086:9226   */\n    tag_447:\n      pop\n        /* \"#utility.yul\":9253:9254   */\n      0x01\n        /* \"#utility.yul\":9242:9255   */\n      add\n      swap1\n        /* \"#utility.yul\":9029:9261   */\n      jump\t// out\n        /* \"#utility.yul\":9266:9393   */\n    tag_288:\n        /* \"#utility.yul\":9327:9337   */\n      0x4e487b71\n        /* \"#utility.yul\":9322:9325   */\n      0xe0\n        /* \"#utility.yul\":9318:9338   */\n      shl\n        /* \"#utility.yul\":9315:9316   */\n      0x00\n        /* \"#utility.yul\":9308:9339   */\n      mstore\n        /* \"#utility.yul\":9358:9362   */\n      0x41\n        /* \"#utility.yul\":9355:9356   */\n      0x04\n        /* \"#utility.yul\":9348:9363   */\n      mstore\n        /* \"#utility.yul\":9382:9386   */\n      0x24\n        /* \"#utility.yul\":9379:9380   */\n      0x00\n        /* \"#utility.yul\":9372:9387   */\n      revert\n        /* \"#utility.yul\":10389:10666   */\n    tag_352:\n        /* \"#utility.yul\":10456:10462   */\n      0x00\n        /* \"#utility.yul\":10509:10511   */\n      0x20\n        /* \"#utility.yul\":10497:10506   */\n      dup3\n        /* \"#utility.yul\":10488:10495   */\n      dup5\n        /* \"#utility.yul\":10484:10507   */\n      sub\n        /* \"#utility.yul\":10480:10512   */\n      slt\n        /* \"#utility.yul\":10477:10529   */\n      iszero\n      tag_453\n      jumpi\n        /* \"#utility.yul\":10525:10526   */\n      0x00\n        /* \"#utility.yul\":10522:10523   */\n      dup1\n        /* \"#utility.yul\":10515:10527   */\n      revert\n        /* \"#utility.yul\":10477:10529   */\n    tag_453:\n        /* \"#utility.yul\":10557:10566   */\n      dup2\n        /* \"#utility.yul\":10551:10567   */\n      mload\n        /* \"#utility.yul\":10610:10615   */\n      dup1\n        /* \"#utility.yul\":10603:10616   */\n      iszero\n        /* \"#utility.yul\":10596:10617   */\n      iszero\n        /* \"#utility.yul\":10589:10594   */\n      dup2\n        /* \"#utility.yul\":10586:10618   */\n      eq\n        /* \"#utility.yul\":10576:10636   */\n      tag_417\n      jumpi\n        /* \"#utility.yul\":10632:10633   */\n      0x00\n        /* \"#utility.yul\":10629:10630   */\n      dup1\n        /* \"#utility.yul\":10622:10634   */\n      revert\n\n    auxdata: 0xa26469706673582212202565f35519928a9b63deca4e6573aff54fee8f94a10042244133169c8a6e031e64736f6c634300081c0033\n}\n",
				"bytecode": {
					"linkReferences": {},
					"object": "60a060405234801561001057600080fd5b50604051611c76380380611c7683398101604081905261002f9161027f565b836001600160a01b03811661005f57604051631e4fbdf760e01b8152600060048201526024015b60405180910390fd5b61006881610213565b50600180556002805460ff191690556001600160a01b0381166100dd5760405162461bcd60e51b815260206004820152602760248201527f5a65726f206164647265737320676976656e20666f722063555344546f6b656e6044820152664164647265737360c81b6064820152608401610056565b6001600160a01b03841661014a5760405162461bcd60e51b815260206004820152602e60248201527f5a65726f206164647265737320676976656e20666f722072657365617263686560448201526d7257616c6c65744164647265737360901b6064820152608401610056565b6000831161019a5760405162461bcd60e51b815260206004820152601560248201527f496e76616c69642072657761726420616d6f756e7400000000000000000000006044820152606401610056565b600082116101f85760405162461bcd60e51b815260206004820152602560248201527f496e76616c6964206e756d626572206f6620746172676574207061727469636960448201526470616e747360d81b6064820152608401610056565b6001600160a01b0316608052600691909155600755506102c6565b600080546001600160a01b038381166001600160a01b0319831681178455604051919092169283917f8be0079c531659141344cd1fd0a4f28419497f9722a3daafe3b4186f6b6457e09190a35050565b80516001600160a01b038116811461027a57600080fd5b919050565b6000806000806080858703121561029557600080fd5b61029e85610263565b60208601516040870151919550935091506102bb60608601610263565b905092959194509250565b608051611972610304600039600081816101ea01528181610aa0015281816111830152818161125b015281816112d4015261156801526119726000f3fe608060405234801561001057600080fd5b50600436106101c45760003560e01c8063741ae614116100f9578063a6a0981111610097578063e082fe2a11610071578063e082fe2a146103c3578063ea1dd101146103cb578063f22069df146103de578063f2fde38b146103e657600080fd5b8063a6a098111461037b578063d4bfbd4114610384578063d5e1b394146103b057600080fd5b80638c0a0966116100d35780638c0a09661461030a5780638da5cb5b14610337578063a085834314610348578063a0ca86a31461035b57600080fd5b8063741ae614146102e65780637a0abf08146102ee5780637dce13fe146102f757600080fd5b80635c975abb116101665780636ff65c20116101405780636ff65c20146102975780637069243c146102c3578063715018a6146102cb578063729f6bbd146102d357600080fd5b80635c975abb1461026557806364bb632f1461027c5780636fa1c59d1461028f57600080fd5b806328a2355b116101a257806328a2355b146102395780633960fc66146102415780634074be4014610249578063528780cc1461025257600080fd5b8063047bc438146101c95780631fccf672146101e55780632201b85614610224575b600080fd5b6101d260095481565b6040519081526020015b60405180910390f35b61020c7f000000000000000000000000000000000000000000000000000000000000000081565b6040516001600160a01b0390911681526020016101dc565b6102376102323660046116ef565b6103f9565b005b6009546101d2565b610237610616565b6101d2600a5481565b610237610260366004611766565b610628565b60025460ff165b60405190151581526020016101dc565b61023761028a366004611766565b6106d1565b6007546101d2565b61026c6102a536600461179b565b6001600160a01b031660009081526004602052604090205460ff1690565b6006546101d2565b610237610769565b6102376102e13660046116ef565b61077b565b6008546101d2565b6101d260065481565b61023761030536600461179b565b610981565b61026c61031836600461179b565b6001600160a01b031660009081526003602052604090205460ff161590565b6000546001600160a01b031661020c565b61023761035636600461179b565b610a78565b61036e6103693660046116ef565b610d72565b6040516101dc91906117bd565b6101d260075481565b61026c61039236600461179b565b6001600160a01b031660009081526003602052604090205460ff1690565b6102376103be36600461179b565b610f1f565b61023761100d565b6102376103d936600461179b565b61101d565b61023761115b565b6102376103f436600461179b565b6113e1565b61040161141c565b80806104285760405162461bcd60e51b815260040161041f90611809565b60405180910390fd5b60005b8181101561056457600084848381811061044757610447611836565b905060200201602081019061045c919061179b565b6001600160a01b0316036104b25760405162461bcd60e51b815260206004820152601d60248201527f4f6e652f6d6f7265207a65726f2061646472657373657320676976656e000000604482015260640161041f565b600360008585848181106104c8576104c8611836565b90506020020160208101906104dd919061179b565b6001600160a01b0316815260208101919091526040016000205460ff161561055c5760405162461bcd60e51b815260206004820152602c60248201527f4f6e652f6d6f726520676976656e2061646472657373657320616c726561647960448201526b081dda1a5d195b1a5cdd195960a21b606482015260840161041f565b60010161042b565b5060005b818110156105d75760016003600086868581811061058857610588611836565b905060200201602081019061059d919061179b565b6001600160a01b031681526020810191909152604001600020805460ff191691151591909117905560098054600190810190915501610568565b507fcd54969ccf4839851c974f9e65e16eb0b2b47ddb55bc4f3b0951aafa2535f552838360405161060992919061184c565b60405180910390a1505050565b61061e61141c565b610626611449565b565b61063061141c565b806000036106915760405162461bcd60e51b815260206004820152602860248201527f5a65726f206e756d626572206f6620746172676574207061727469636970616e6044820152673a399033b4bb32b760c11b606482015260840161041f565b6007805490829055604080518281526020810184905283917fb90f11d36a1f2ec1f3b89ac87ccd1ffab1a49f3e3ca83cfdac21fd99a537cbc19101610609565b6106d961141c565b806000036107295760405162461bcd60e51b815260206004820152601860248201527f5a65726f2072657761726420616d6f756e7420676976656e0000000000000000604482015260640161041f565b6006805490829055604080518281526020810184905283917ff0d37c3ae852021ac329281f604b658691cbfa6b9e9c22909f06b64a8ce87c949101610609565b61077161141c565b610626600061149b565b61078361141c565b80806107a15760405162461bcd60e51b815260040161041f90611809565b60005b818110156108dc5760008484838181106107c0576107c0611836565b90506020020160208101906107d5919061179b565b6001600160a01b03160361082b5760405162461bcd60e51b815260206004820152601d60248201527f4f6e652f6d6f7265207a65726f2061646472657373657320676976656e000000604482015260640161041f565b6003600085858481811061084157610841611836565b9050602002016020810190610856919061179b565b6001600160a01b0316815260208101919091526040016000205460ff166108d45760405162461bcd60e51b815260206004820152602c60248201527f4f6e652f6d6f726520676976656e2061646472657373657320616c726561647960448201526b08189b1858dadb1a5cdd195960a21b606482015260840161041f565b6001016107a4565b5060005b8181101561094f5760006003600086868581811061090057610900611836565b9050602002016020810190610915919061179b565b6001600160a01b031681526020810191909152604001600020805460ff1916911515919091179055600980546000190190556001016108e0565b507fe29acb3292bed043faf01e16b1fcf8c38cf977e334155fa988ded4d254fc3424838360405161060992919061184c565b61098961141c565b6001600160a01b038116600090815260036020526040902054819060ff16156109ea5760405162461bcd60e51b8152602060048201526013602482015272135d5cdd08189948189b1858dadb1a5cdd1959606a1b604482015260640161041f565b6001600160a01b038216610a105760405162461bcd60e51b815260040161041f90611897565b6001600160a01b038216600081815260036020908152604091829020805460ff1916600190811790915560098054909101905590519182527fc1bf09e09093691bde88793790b0af49ae99cc6c301523675a439aa76a084f1891015b60405180910390a15050565b610a806114eb565b610a8861150f565b6006546040516370a0823160e01b81523060048201527f00000000000000000000000000000000000000000000000000000000000000006001600160a01b0316906370a0823190602401602060405180830381865afa158015610aef573d6000803e3d6000fd5b505050506040513d601f19601f82011682018060405250810190610b1391906118c4565b1015610b6c5760405162461bcd60e51b815260206004820152602260248201527f436f6e747261637420646f6573206e6f74206861766520656e6f75676820635560448201526114d160f21b606482015260840161041f565b60075460085410610bcb5760405162461bcd60e51b815260206004820152602360248201527f416c6c207061727469636970616e74732068617665206265656e20726577617260448201526219195960ea1b606482015260840161041f565b80336001600160a01b03821614610c185760405162461bcd60e51b815260206004820152601160248201527027b7363c903b30b634b21039b2b73232b960791b604482015260640161041f565b6001600160a01b038216600090815260036020526040902054829060ff16610c7d5760405162461bcd60e51b81526020600482015260186024820152774f6e6c792077686974656c6973746564206164647265737360401b604482015260640161041f565b6001600160a01b038316600090815260046020526040902054839060ff1615610ce85760405162461bcd60e51b815260206004820152601c60248201527f5061727469636970616e7420616c726561647920726577617264656400000000604482015260640161041f565b6001600160a01b038416600090815260056020526040902054849060ff16610d455760405162461bcd60e51b815260206004820152601060248201526f135d5cdd081899481cd8dc99595b995960821b604482015260640161041f565b6000610d5086611539565b90508015610d6157610d6186611635565b5050505050610d6f60018055565b50565b6060816000819003610d965760405162461bcd60e51b815260040161041f90611809565b6000805b82811015610e055760036000878784818110610db857610db8611836565b9050602002016020810190610dcd919061179b565b6001600160a01b0316815260208101919091526040016000205460ff1615610dfd5781610df9816118dd565b9250505b600101610d9a565b5060008167ffffffffffffffff811115610e2157610e21611904565b604051908082528060200260200182016040528015610e4a578160200160208202803683370190505b5090506000805b84811015610f135760036000898984818110610e6f57610e6f611836565b9050602002016020810190610e84919061179b565b6001600160a01b0316815260208101919091526040016000205460ff1615610f0b57878782818110610eb857610eb8611836565b9050602002016020810190610ecd919061179b565b8383610ed8816118dd565b945081518110610eea57610eea611836565b60200260200101906001600160a01b031690816001600160a01b0316815250505b600101610e51565b50909695505050505050565b610f2761141c565b6001600160a01b038116600090815260036020526040902054819060ff16610f8c5760405162461bcd60e51b81526020600482015260186024820152774f6e6c792077686974656c6973746564206164647265737360401b604482015260640161041f565b6001600160a01b038216610fb25760405162461bcd60e51b815260040161041f90611897565b6001600160a01b038216600081815260036020908152604091829020805460ff191690556009805460001901905590519182527f4c4c57d58b398c7beead9e49305d0926ea8fd1e7e895959b09968b3384c385de9101610a6c565b61101561141c565b61062661168f565b80336001600160a01b0382161461106a5760405162461bcd60e51b815260206004820152601160248201527027b7363c903b30b634b21039b2b73232b960791b604482015260640161041f565b6001600160a01b038216600090815260056020526040902054829060ff16156110d55760405162461bcd60e51b815260206004820152601760248201527f4f6e6c7920756e73637265656e65642061646472657373000000000000000000604482015260640161041f565b6001600160a01b0383166110fb5760405162461bcd60e51b815260040161041f90611897565b6001600160a01b038316600081815260056020908152604091829020805460ff19166001908117909155600a8054909101905590519182527fc4ec7a2dc5e72d17666a15570e438638bfc023a7a091df162b669c37198bacb29101610609565b61116361141c565b61116b6114eb565b6040516370a0823160e01b81523060048201526000907f00000000000000000000000000000000000000000000000000000000000000006001600160a01b0316906370a0823190602401602060405180830381865afa1580156111d2573d6000803e3d6000fd5b505050506040513d601f19601f820116820180604052508101906111f691906118c4565b116112435760405162461bcd60e51b815260206004820152601f60248201527f436f6e747261637420646f6573206e6f74206861766520616e79206355534400604482015260640161041f565b6040516370a0823160e01b81523060048201526000907f00000000000000000000000000000000000000000000000000000000000000006001600160a01b0316906370a0823190602401602060405180830381865afa1580156112aa573d6000803e3d6000fd5b505050506040513d601f19601f820116820180604052508101906112ce91906118c4565b905060007f00000000000000000000000000000000000000000000000000000000000000006001600160a01b031663a9059cbb6113136000546001600160a01b031690565b6040516001600160e01b031960e084901b1681526001600160a01b039091166004820152602481018590526044016020604051808303816000875af1158015611360573d6000803e3d6000fd5b505050506040513d601f19601f82011682018060405250810190611384919061191a565b905080156113dd577f2036b9b38b69a2fa490ee702733a29cd2550accc20bc96e786cb9beedc7790976113bf6000546001600160a01b031690565b604080516001600160a01b0390921682526020820185905201610a6c565b5050565b6113e961141c565b6001600160a01b03811661141357604051631e4fbdf760e01b81526000600482015260240161041f565b610d6f8161149b565b6000546001600160a01b031633146106265760405163118cdaa760e01b815233600482015260240161041f565b6114516116cc565b6002805460ff191690557f5db9ee0a495bf2e6ff9c91a7834c1ba4fdd244a5e8aa4e537bd38aeae4b073aa335b6040516001600160a01b03909116815260200160405180910390a1565b600080546001600160a01b038381166001600160a01b0319831681178455604051919092169283917f8be0079c531659141344cd1fd0a4f28419497f9722a3daafe3b4186f6b6457e09190a35050565b60025460ff16156106265760405163d93c066560e01b815260040160405180910390fd5b60026001540361153257604051633ee5aeb560e01b815260040160405180910390fd5b6002600155565b60065460405163a9059cbb60e01b81526001600160a01b038381166004830152602482019290925260009182917f00000000000000000000000000000000000000000000000000000000000000009091169063a9059cbb906044016020604051808303816000875af11580156115b3573d6000803e3d6000fd5b505050506040513d601f19601f820116820180604052508101906115d7919061191a565b9050801561162f57600880546001019055600654604080516001600160a01b038616815260208101929092527f8934d7a9692e763e356fd30d84ca5f61a737b35c5ccd5d31d4f140310267b73e910160405180910390a15b92915050565b6001600160a01b038116600081815260046020908152604091829020805460ff1916600117905590519182527f654c9a027765e6feb862f42d438e9f6948f9ee31113e379f0372b30efc722943910160405180910390a150565b6116976114eb565b6002805460ff191660011790557f62e78cea01bee320cd4e420270b5ea74000d11b0c9f74754ebdbfc544b05a25861147e3390565b60025460ff1661062657604051638dfc202b60e01b815260040160405180910390fd5b6000806020838503121561170257600080fd5b823567ffffffffffffffff81111561171957600080fd5b8301601f8101851361172a57600080fd5b803567ffffffffffffffff81111561174157600080fd5b8560208260051b840101111561175657600080fd5b6020919091019590945092505050565b60006020828403121561177857600080fd5b5035919050565b80356001600160a01b038116811461179657600080fd5b919050565b6000602082840312156117ad57600080fd5b6117b68261177f565b9392505050565b602080825282518282018190526000918401906040840190835b818110156117fe5783516001600160a01b03168352602093840193909201916001016117d7565b509095945050505050565b602080825260139082015272139bc81859191c995cdcd95cc81c185cdcd959606a1b604082015260600190565b634e487b7160e01b600052603260045260246000fd5b6020808252810182905260008360408301825b8581101561188d576001600160a01b036118788461177f565b1682526020928301929091019060010161185f565b5095945050505050565b60208082526013908201527216995c9bc81859191c995cdcc81c185cdcd959606a1b604082015260600190565b6000602082840312156118d657600080fd5b5051919050565b6000600182016118fd57634e487b7160e01b600052601160045260246000fd5b5060010190565b634e487b7160e01b600052604160045260246000fd5b60006020828403121561192c57600080fd5b815180151581146117b657600080fdfea26469706673582212202565f35519928a9b63deca4e6573aff54fee8f94a10042244133169c8a6e031e64736f6c634300081c0033",
					"opcodes": "PUSH1 0xA0 PUSH1 0x40 MSTORE CALLVALUE DUP1 ISZERO PUSH2 0x10 JUMPI PUSH1 0x0 DUP1 REVERT JUMPDEST POP PUSH1 0x40 MLOAD PUSH2 0x1C76 CODESIZE SUB DUP1 PUSH2 0x1C76 DUP4 CODECOPY DUP2 ADD PUSH1 0x40 DUP2 SWAP1 MSTORE PUSH2 0x2F SWAP2 PUSH2 0x27F JUMP JUMPDEST DUP4 PUSH1 0x1 PUSH1 0x1 PUSH1 0xA0 SHL SUB DUP2 AND PUSH2 0x5F JUMPI PUSH1 0x40 MLOAD PUSH4 0x1E4FBDF7 PUSH1 0xE0 SHL DUP2 MSTORE PUSH1 0x0 PUSH1 0x4 DUP3 ADD MSTORE PUSH1 0x24 ADD JUMPDEST PUSH1 0x40 MLOAD DUP1 SWAP2 SUB SWAP1 REVERT JUMPDEST PUSH2 0x68 DUP2 PUSH2 0x213 JUMP JUMPDEST POP PUSH1 0x1 DUP1 SSTORE PUSH1 0x2 DUP1 SLOAD PUSH1 0xFF NOT AND SWAP1 SSTORE PUSH1 0x1 PUSH1 0x1 PUSH1 0xA0 SHL SUB DUP2 AND PUSH2 0xDD JUMPI PUSH1 0x40 MLOAD PUSH3 0x461BCD PUSH1 0xE5 SHL DUP2 MSTORE PUSH1 0x20 PUSH1 0x4 DUP3 ADD MSTORE PUSH1 0x27 PUSH1 0x24 DUP3 ADD MSTORE PUSH32 0x5A65726F206164647265737320676976656E20666F722063555344546F6B656E PUSH1 0x44 DUP3 ADD MSTORE PUSH7 0x41646472657373 PUSH1 0xC8 SHL PUSH1 0x64 DUP3 ADD MSTORE PUSH1 0x84 ADD PUSH2 0x56 JUMP JUMPDEST PUSH1 0x1 PUSH1 0x1 PUSH1 0xA0 SHL SUB DUP5 AND PUSH2 0x14A JUMPI PUSH1 0x40 MLOAD PUSH3 0x461BCD PUSH1 0xE5 SHL DUP2 MSTORE PUSH1 0x20 PUSH1 0x4 DUP3 ADD MSTORE PUSH1 0x2E PUSH1 0x24 DUP3 ADD MSTORE PUSH32 0x5A65726F206164647265737320676976656E20666F7220726573656172636865 PUSH1 0x44 DUP3 ADD MSTORE PUSH14 0x7257616C6C657441646472657373 PUSH1 0x90 SHL PUSH1 0x64 DUP3 ADD MSTORE PUSH1 0x84 ADD PUSH2 0x56 JUMP JUMPDEST PUSH1 0x0 DUP4 GT PUSH2 0x19A JUMPI PUSH1 0x40 MLOAD PUSH3 0x461BCD PUSH1 0xE5 SHL DUP2 MSTORE PUSH1 0x20 PUSH1 0x4 DUP3 ADD MSTORE PUSH1 0x15 PUSH1 0x24 DUP3 ADD MSTORE PUSH32 0x496E76616C69642072657761726420616D6F756E740000000000000000000000 PUSH1 0x44 DUP3 ADD MSTORE PUSH1 0x64 ADD PUSH2 0x56 JUMP JUMPDEST PUSH1 0x0 DUP3 GT PUSH2 0x1F8 JUMPI PUSH1 0x40 MLOAD PUSH3 0x461BCD PUSH1 0xE5 SHL DUP2 MSTORE PUSH1 0x20 PUSH1 0x4 DUP3 ADD MSTORE PUSH1 0x25 PUSH1 0x24 DUP3 ADD MSTORE PUSH32 0x496E76616C6964206E756D626572206F66207461726765742070617274696369 PUSH1 0x44 DUP3 ADD MSTORE PUSH5 0x70616E7473 PUSH1 0xD8 SHL PUSH1 0x64 DUP3 ADD MSTORE PUSH1 0x84 ADD PUSH2 0x56 JUMP JUMPDEST PUSH1 0x1 PUSH1 0x1 PUSH1 0xA0 SHL SUB AND PUSH1 0x80 MSTORE PUSH1 0x6 SWAP2 SWAP1 SWAP2 SSTORE PUSH1 0x7 SSTORE POP PUSH2 0x2C6 JUMP JUMPDEST PUSH1 0x0 DUP1 SLOAD PUSH1 0x1 PUSH1 0x1 PUSH1 0xA0 SHL SUB DUP4 DUP2 AND PUSH1 0x1 PUSH1 0x1 PUSH1 0xA0 SHL SUB NOT DUP4 AND DUP2 OR DUP5 SSTORE PUSH1 0x40 MLOAD SWAP2 SWAP1 SWAP3 AND SWAP3 DUP4 SWAP2 PUSH32 0x8BE0079C531659141344CD1FD0A4F28419497F9722A3DAAFE3B4186F6B6457E0 SWAP2 SWAP1 LOG3 POP POP JUMP JUMPDEST DUP1 MLOAD PUSH1 0x1 PUSH1 0x1 PUSH1 0xA0 SHL SUB DUP2 AND DUP2 EQ PUSH2 0x27A JUMPI PUSH1 0x0 DUP1 REVERT JUMPDEST SWAP2 SWAP1 POP JUMP JUMPDEST PUSH1 0x0 DUP1 PUSH1 0x0 DUP1 PUSH1 0x80 DUP6 DUP8 SUB SLT ISZERO PUSH2 0x295 JUMPI PUSH1 0x0 DUP1 REVERT JUMPDEST PUSH2 0x29E DUP6 PUSH2 0x263 JUMP JUMPDEST PUSH1 0x20 DUP7 ADD MLOAD PUSH1 0x40 DUP8 ADD MLOAD SWAP2 SWAP6 POP SWAP4 POP SWAP2 POP PUSH2 0x2BB PUSH1 0x60 DUP7 ADD PUSH2 0x263 JUMP JUMPDEST SWAP1 POP SWAP3 SWAP6 SWAP2 SWAP5 POP SWAP3 POP JUMP JUMPDEST PUSH1 0x80 MLOAD PUSH2 0x1972 PUSH2 0x304 PUSH1 0x0 CODECOPY PUSH1 0x0 DUP2 DUP2 PUSH2 0x1EA ADD MSTORE DUP2 DUP2 PUSH2 0xAA0 ADD MSTORE DUP2 DUP2 PUSH2 0x1183 ADD MSTORE DUP2 DUP2 PUSH2 0x125B ADD MSTORE DUP2 DUP2 PUSH2 0x12D4 ADD MSTORE PUSH2 0x1568 ADD MSTORE PUSH2 0x1972 PUSH1 0x0 RETURN INVALID PUSH1 0x80 PUSH1 0x40 MSTORE CALLVALUE DUP1 ISZERO PUSH2 0x10 JUMPI PUSH1 0x0 DUP1 REVERT JUMPDEST POP PUSH1 0x4 CALLDATASIZE LT PUSH2 0x1C4 JUMPI PUSH1 0x0 CALLDATALOAD PUSH1 0xE0 SHR DUP1 PUSH4 0x741AE614 GT PUSH2 0xF9 JUMPI DUP1 PUSH4 0xA6A09811 GT PUSH2 0x97 JUMPI DUP1 PUSH4 0xE082FE2A GT PUSH2 0x71 JUMPI DUP1 PUSH4 0xE082FE2A EQ PUSH2 0x3C3 JUMPI DUP1 PUSH4 0xEA1DD101 EQ PUSH2 0x3CB JUMPI DUP1 PUSH4 0xF22069DF EQ PUSH2 0x3DE JUMPI DUP1 PUSH4 0xF2FDE38B EQ PUSH2 0x3E6 JUMPI PUSH1 0x0 DUP1 REVERT JUMPDEST DUP1 PUSH4 0xA6A09811 EQ PUSH2 0x37B JUMPI DUP1 PUSH4 0xD4BFBD41 EQ PUSH2 0x384 JUMPI DUP1 PUSH4 0xD5E1B394 EQ PUSH2 0x3B0 JUMPI PUSH1 0x0 DUP1 REVERT JUMPDEST DUP1 PUSH4 0x8C0A0966 GT PUSH2 0xD3 JUMPI DUP1 PUSH4 0x8C0A0966 EQ PUSH2 0x30A JUMPI DUP1 PUSH4 0x8DA5CB5B EQ PUSH2 0x337 JUMPI DUP1 PUSH4 0xA0858343 EQ PUSH2 0x348 JUMPI DUP1 PUSH4 0xA0CA86A3 EQ PUSH2 0x35B JUMPI PUSH1 0x0 DUP1 REVERT JUMPDEST DUP1 PUSH4 0x741AE614 EQ PUSH2 0x2E6 JUMPI DUP1 PUSH4 0x7A0ABF08 EQ PUSH2 0x2EE JUMPI DUP1 PUSH4 0x7DCE13FE EQ PUSH2 0x2F7 JUMPI PUSH1 0x0 DUP1 REVERT JUMPDEST DUP1 PUSH4 0x5C975ABB GT PUSH2 0x166 JUMPI DUP1 PUSH4 0x6FF65C20 GT PUSH2 0x140 JUMPI DUP1 PUSH4 0x6FF65C20 EQ PUSH2 0x297 JUMPI DUP1 PUSH4 0x7069243C EQ PUSH2 0x2C3 JUMPI DUP1 PUSH4 0x715018A6 EQ PUSH2 0x2CB JUMPI DUP1 PUSH4 0x729F6BBD EQ PUSH2 0x2D3 JUMPI PUSH1 0x0 DUP1 REVERT JUMPDEST DUP1 PUSH4 0x5C975ABB EQ PUSH2 0x265 JUMPI DUP1 PUSH4 0x64BB632F EQ PUSH2 0x27C JUMPI DUP1 PUSH4 0x6FA1C59D EQ PUSH2 0x28F JUMPI PUSH1 0x0 DUP1 REVERT JUMPDEST DUP1 PUSH4 0x28A2355B GT PUSH2 0x1A2 JUMPI DUP1 PUSH4 0x28A2355B EQ PUSH2 0x239 JUMPI DUP1 PUSH4 0x3960FC66 EQ PUSH2 0x241 JUMPI DUP1 PUSH4 0x4074BE40 EQ PUSH2 0x249 JUMPI DUP1 PUSH4 0x528780CC EQ PUSH2 0x252 JUMPI PUSH1 0x0 DUP1 REVERT JUMPDEST DUP1 PUSH4 0x47BC438 EQ PUSH2 0x1C9 JUMPI DUP1 PUSH4 0x1FCCF672 EQ PUSH2 0x1E5 JUMPI DUP1 PUSH4 0x2201B856 EQ PUSH2 0x224 JUMPI JUMPDEST PUSH1 0x0 DUP1 REVERT JUMPDEST PUSH2 0x1D2 PUSH1 0x9 SLOAD DUP2 JUMP JUMPDEST PUSH1 0x40 MLOAD SWAP1 DUP2 MSTORE PUSH1 0x20 ADD JUMPDEST PUSH1 0x40 MLOAD DUP1 SWAP2 SUB SWAP1 RETURN JUMPDEST PUSH2 0x20C PUSH32 0x0 DUP2 JUMP JUMPDEST PUSH1 0x40 MLOAD PUSH1 0x1 PUSH1 0x1 PUSH1 0xA0 SHL SUB SWAP1 SWAP2 AND DUP2 MSTORE PUSH1 0x20 ADD PUSH2 0x1DC JUMP JUMPDEST PUSH2 0x237 PUSH2 0x232 CALLDATASIZE PUSH1 0x4 PUSH2 0x16EF JUMP JUMPDEST PUSH2 0x3F9 JUMP JUMPDEST STOP JUMPDEST PUSH1 0x9 SLOAD PUSH2 0x1D2 JUMP JUMPDEST PUSH2 0x237 PUSH2 0x616 JUMP JUMPDEST PUSH2 0x1D2 PUSH1 0xA SLOAD DUP2 JUMP JUMPDEST PUSH2 0x237 PUSH2 0x260 CALLDATASIZE PUSH1 0x4 PUSH2 0x1766 JUMP JUMPDEST PUSH2 0x628 JUMP JUMPDEST PUSH1 0x2 SLOAD PUSH1 0xFF AND JUMPDEST PUSH1 0x40 MLOAD SWAP1 ISZERO ISZERO DUP2 MSTORE PUSH1 0x20 ADD PUSH2 0x1DC JUMP JUMPDEST PUSH2 0x237 PUSH2 0x28A CALLDATASIZE PUSH1 0x4 PUSH2 0x1766 JUMP JUMPDEST PUSH2 0x6D1 JUMP JUMPDEST PUSH1 0x7 SLOAD PUSH2 0x1D2 JUMP JUMPDEST PUSH2 0x26C PUSH2 0x2A5 CALLDATASIZE PUSH1 0x4 PUSH2 0x179B JUMP JUMPDEST PUSH1 0x1 PUSH1 0x1 PUSH1 0xA0 SHL SUB AND PUSH1 0x0 SWAP1 DUP2 MSTORE PUSH1 0x4 PUSH1 0x20 MSTORE PUSH1 0x40 SWAP1 KECCAK256 SLOAD PUSH1 0xFF AND SWAP1 JUMP JUMPDEST PUSH1 0x6 SLOAD PUSH2 0x1D2 JUMP JUMPDEST PUSH2 0x237 PUSH2 0x769 JUMP JUMPDEST PUSH2 0x237 PUSH2 0x2E1 CALLDATASIZE PUSH1 0x4 PUSH2 0x16EF JUMP JUMPDEST PUSH2 0x77B JUMP JUMPDEST PUSH1 0x8 SLOAD PUSH2 0x1D2 JUMP JUMPDEST PUSH2 0x1D2 PUSH1 0x6 SLOAD DUP2 JUMP JUMPDEST PUSH2 0x237 PUSH2 0x305 CALLDATASIZE PUSH1 0x4 PUSH2 0x179B JUMP JUMPDEST PUSH2 0x981 JUMP JUMPDEST PUSH2 0x26C PUSH2 0x318 CALLDATASIZE PUSH1 0x4 PUSH2 0x179B JUMP JUMPDEST PUSH1 0x1 PUSH1 0x1 PUSH1 0xA0 SHL SUB AND PUSH1 0x0 SWAP1 DUP2 MSTORE PUSH1 0x3 PUSH1 0x20 MSTORE PUSH1 0x40 SWAP1 KECCAK256 SLOAD PUSH1 0xFF AND ISZERO SWAP1 JUMP JUMPDEST PUSH1 0x0 SLOAD PUSH1 0x1 PUSH1 0x1 PUSH1 0xA0 SHL SUB AND PUSH2 0x20C JUMP JUMPDEST PUSH2 0x237 PUSH2 0x356 CALLDATASIZE PUSH1 0x4 PUSH2 0x179B JUMP JUMPDEST PUSH2 0xA78 JUMP JUMPDEST PUSH2 0x36E PUSH2 0x369 CALLDATASIZE PUSH1 0x4 PUSH2 0x16EF JUMP JUMPDEST PUSH2 0xD72 JUMP JUMPDEST PUSH1 0x40 MLOAD PUSH2 0x1DC SWAP2 SWAP1 PUSH2 0x17BD JUMP JUMPDEST PUSH2 0x1D2 PUSH1 0x7 SLOAD DUP2 JUMP JUMPDEST PUSH2 0x26C PUSH2 0x392 CALLDATASIZE PUSH1 0x4 PUSH2 0x179B JUMP JUMPDEST PUSH1 0x1 PUSH1 0x1 PUSH1 0xA0 SHL SUB AND PUSH1 0x0 SWAP1 DUP2 MSTORE PUSH1 0x3 PUSH1 0x20 MSTORE PUSH1 0x40 SWAP1 KECCAK256 SLOAD PUSH1 0xFF AND SWAP1 JUMP JUMPDEST PUSH2 0x237 PUSH2 0x3BE CALLDATASIZE PUSH1 0x4 PUSH2 0x179B JUMP JUMPDEST PUSH2 0xF1F JUMP JUMPDEST PUSH2 0x237 PUSH2 0x100D JUMP JUMPDEST PUSH2 0x237 PUSH2 0x3D9 CALLDATASIZE PUSH1 0x4 PUSH2 0x179B JUMP JUMPDEST PUSH2 0x101D JUMP JUMPDEST PUSH2 0x237 PUSH2 0x115B JUMP JUMPDEST PUSH2 0x237 PUSH2 0x3F4 CALLDATASIZE PUSH1 0x4 PUSH2 0x179B JUMP JUMPDEST PUSH2 0x13E1 JUMP JUMPDEST PUSH2 0x401 PUSH2 0x141C JUMP JUMPDEST DUP1 DUP1 PUSH2 0x428 JUMPI PUSH1 0x40 MLOAD PUSH3 0x461BCD PUSH1 0xE5 SHL DUP2 MSTORE PUSH1 0x4 ADD PUSH2 0x41F SWAP1 PUSH2 0x1809 JUMP JUMPDEST PUSH1 0x40 MLOAD DUP1 SWAP2 SUB SWAP1 REVERT JUMPDEST PUSH1 0x0 JUMPDEST DUP2 DUP2 LT ISZERO PUSH2 0x564 JUMPI PUSH1 0x0 DUP5 DUP5 DUP4 DUP2 DUP2 LT PUSH2 0x447 JUMPI PUSH2 0x447 PUSH2 0x1836 JUMP JUMPDEST SWAP1 POP PUSH1 0x20 MUL ADD PUSH1 0x20 DUP2 ADD SWAP1 PUSH2 0x45C SWAP2 SWAP1 PUSH2 0x179B JUMP JUMPDEST PUSH1 0x1 PUSH1 0x1 PUSH1 0xA0 SHL SUB AND SUB PUSH2 0x4B2 JUMPI PUSH1 0x40 MLOAD PUSH3 0x461BCD PUSH1 0xE5 SHL DUP2 MSTORE PUSH1 0x20 PUSH1 0x4 DUP3 ADD MSTORE PUSH1 0x1D PUSH1 0x24 DUP3 ADD MSTORE PUSH32 0x4F6E652F6D6F7265207A65726F2061646472657373657320676976656E000000 PUSH1 0x44 DUP3 ADD MSTORE PUSH1 0x64 ADD PUSH2 0x41F JUMP JUMPDEST PUSH1 0x3 PUSH1 0x0 DUP6 DUP6 DUP5 DUP2 DUP2 LT PUSH2 0x4C8 JUMPI PUSH2 0x4C8 PUSH2 0x1836 JUMP JUMPDEST SWAP1 POP PUSH1 0x20 MUL ADD PUSH1 0x20 DUP2 ADD SWAP1 PUSH2 0x4DD SWAP2 SWAP1 PUSH2 0x179B JUMP JUMPDEST PUSH1 0x1 PUSH1 0x1 PUSH1 0xA0 SHL SUB AND DUP2 MSTORE PUSH1 0x20 DUP2 ADD SWAP2 SWAP1 SWAP2 MSTORE PUSH1 0x40 ADD PUSH1 0x0 KECCAK256 SLOAD PUSH1 0xFF AND ISZERO PUSH2 0x55C JUMPI PUSH1 0x40 MLOAD PUSH3 0x461BCD PUSH1 0xE5 SHL DUP2 MSTORE PUSH1 0x20 PUSH1 0x4 DUP3 ADD MSTORE PUSH1 0x2C PUSH1 0x24 DUP3 ADD MSTORE PUSH32 0x4F6E652F6D6F726520676976656E2061646472657373657320616C7265616479 PUSH1 0x44 DUP3 ADD MSTORE PUSH12 0x81DDA1A5D195B1A5CDD1959 PUSH1 0xA2 SHL PUSH1 0x64 DUP3 ADD MSTORE PUSH1 0x84 ADD PUSH2 0x41F JUMP JUMPDEST PUSH1 0x1 ADD PUSH2 0x42B JUMP JUMPDEST POP PUSH1 0x0 JUMPDEST DUP2 DUP2 LT ISZERO PUSH2 0x5D7 JUMPI PUSH1 0x1 PUSH1 0x3 PUSH1 0x0 DUP7 DUP7 DUP6 DUP2 DUP2 LT PUSH2 0x588 JUMPI PUSH2 0x588 PUSH2 0x1836 JUMP JUMPDEST SWAP1 POP PUSH1 0x20 MUL ADD PUSH1 0x20 DUP2 ADD SWAP1 PUSH2 0x59D SWAP2 SWAP1 PUSH2 0x179B JUMP JUMPDEST PUSH1 0x1 PUSH1 0x1 PUSH1 0xA0 SHL SUB AND DUP2 MSTORE PUSH1 0x20 DUP2 ADD SWAP2 SWAP1 SWAP2 MSTORE PUSH1 0x40 ADD PUSH1 0x0 KECCAK256 DUP1 SLOAD PUSH1 0xFF NOT AND SWAP2 ISZERO ISZERO SWAP2 SWAP1 SWAP2 OR SWAP1 SSTORE PUSH1 0x9 DUP1 SLOAD PUSH1 0x1 SWAP1 DUP2 ADD SWAP1 SWAP2 SSTORE ADD PUSH2 0x568 JUMP JUMPDEST POP PUSH32 0xCD54969CCF4839851C974F9E65E16EB0B2B47DDB55BC4F3B0951AAFA2535F552 DUP4 DUP4 PUSH1 0x40 MLOAD PUSH2 0x609 SWAP3 SWAP2 SWAP1 PUSH2 0x184C JUMP JUMPDEST PUSH1 0x40 MLOAD DUP1 SWAP2 SUB SWAP1 LOG1 POP POP POP JUMP JUMPDEST PUSH2 0x61E PUSH2 0x141C JUMP JUMPDEST PUSH2 0x626 PUSH2 0x1449 JUMP JUMPDEST JUMP JUMPDEST PUSH2 0x630 PUSH2 0x141C JUMP JUMPDEST DUP1 PUSH1 0x0 SUB PUSH2 0x691 JUMPI PUSH1 0x40 MLOAD PUSH3 0x461BCD PUSH1 0xE5 SHL DUP2 MSTORE PUSH1 0x20 PUSH1 0x4 DUP3 ADD MSTORE PUSH1 0x28 PUSH1 0x24 DUP3 ADD MSTORE PUSH32 0x5A65726F206E756D626572206F6620746172676574207061727469636970616E PUSH1 0x44 DUP3 ADD MSTORE PUSH8 0x3A399033B4BB32B7 PUSH1 0xC1 SHL PUSH1 0x64 DUP3 ADD MSTORE PUSH1 0x84 ADD PUSH2 0x41F JUMP JUMPDEST PUSH1 0x7 DUP1 SLOAD SWAP1 DUP3 SWAP1 SSTORE PUSH1 0x40 DUP1 MLOAD DUP3 DUP2 MSTORE PUSH1 0x20 DUP2 ADD DUP5 SWAP1 MSTORE DUP4 SWAP2 PUSH32 0xB90F11D36A1F2EC1F3B89AC87CCD1FFAB1A49F3E3CA83CFDAC21FD99A537CBC1 SWAP2 ADD PUSH2 0x609 JUMP JUMPDEST PUSH2 0x6D9 PUSH2 0x141C JUMP JUMPDEST DUP1 PUSH1 0x0 SUB PUSH2 0x729 JUMPI PUSH1 0x40 MLOAD PUSH3 0x461BCD PUSH1 0xE5 SHL DUP2 MSTORE PUSH1 0x20 PUSH1 0x4 DUP3 ADD MSTORE PUSH1 0x18 PUSH1 0x24 DUP3 ADD MSTORE PUSH32 0x5A65726F2072657761726420616D6F756E7420676976656E0000000000000000 PUSH1 0x44 DUP3 ADD MSTORE PUSH1 0x64 ADD PUSH2 0x41F JUMP JUMPDEST PUSH1 0x6 DUP1 SLOAD SWAP1 DUP3 SWAP1 SSTORE PUSH1 0x40 DUP1 MLOAD DUP3 DUP2 MSTORE PUSH1 0x20 DUP2 ADD DUP5 SWAP1 MSTORE DUP4 SWAP2 PUSH32 0xF0D37C3AE852021AC329281F604B658691CBFA6B9E9C22909F06B64A8CE87C94 SWAP2 ADD PUSH2 0x609 JUMP JUMPDEST PUSH2 0x771 PUSH2 0x141C JUMP JUMPDEST PUSH2 0x626 PUSH1 0x0 PUSH2 0x149B JUMP JUMPDEST PUSH2 0x783 PUSH2 0x141C JUMP JUMPDEST DUP1 DUP1 PUSH2 0x7A1 JUMPI PUSH1 0x40 MLOAD PUSH3 0x461BCD PUSH1 0xE5 SHL DUP2 MSTORE PUSH1 0x4 ADD PUSH2 0x41F SWAP1 PUSH2 0x1809 JUMP JUMPDEST PUSH1 0x0 JUMPDEST DUP2 DUP2 LT ISZERO PUSH2 0x8DC JUMPI PUSH1 0x0 DUP5 DUP5 DUP4 DUP2 DUP2 LT PUSH2 0x7C0 JUMPI PUSH2 0x7C0 PUSH2 0x1836 JUMP JUMPDEST SWAP1 POP PUSH1 0x20 MUL ADD PUSH1 0x20 DUP2 ADD SWAP1 PUSH2 0x7D5 SWAP2 SWAP1 PUSH2 0x179B JUMP JUMPDEST PUSH1 0x1 PUSH1 0x1 PUSH1 0xA0 SHL SUB AND SUB PUSH2 0x82B JUMPI PUSH1 0x40 MLOAD PUSH3 0x461BCD PUSH1 0xE5 SHL DUP2 MSTORE PUSH1 0x20 PUSH1 0x4 DUP3 ADD MSTORE PUSH1 0x1D PUSH1 0x24 DUP3 ADD MSTORE PUSH32 0x4F6E652F6D6F7265207A65726F2061646472657373657320676976656E000000 PUSH1 0x44 DUP3 ADD MSTORE PUSH1 0x64 ADD PUSH2 0x41F JUMP JUMPDEST PUSH1 0x3 PUSH1 0x0 DUP6 DUP6 DUP5 DUP2 DUP2 LT PUSH2 0x841 JUMPI PUSH2 0x841 PUSH2 0x1836 JUMP JUMPDEST SWAP1 POP PUSH1 0x20 MUL ADD PUSH1 0x20 DUP2 ADD SWAP1 PUSH2 0x856 SWAP2 SWAP1 PUSH2 0x179B JUMP JUMPDEST PUSH1 0x1 PUSH1 0x1 PUSH1 0xA0 SHL SUB AND DUP2 MSTORE PUSH1 0x20 DUP2 ADD SWAP2 SWAP1 SWAP2 MSTORE PUSH1 0x40 ADD PUSH1 0x0 KECCAK256 SLOAD PUSH1 0xFF AND PUSH2 0x8D4 JUMPI PUSH1 0x40 MLOAD PUSH3 0x461BCD PUSH1 0xE5 SHL DUP2 MSTORE PUSH1 0x20 PUSH1 0x4 DUP3 ADD MSTORE PUSH1 0x2C PUSH1 0x24 DUP3 ADD MSTORE PUSH32 0x4F6E652F6D6F726520676976656E2061646472657373657320616C7265616479 PUSH1 0x44 DUP3 ADD MSTORE PUSH12 0x8189B1858DADB1A5CDD1959 PUSH1 0xA2 SHL PUSH1 0x64 DUP3 ADD MSTORE PUSH1 0x84 ADD PUSH2 0x41F JUMP JUMPDEST PUSH1 0x1 ADD PUSH2 0x7A4 JUMP JUMPDEST POP PUSH1 0x0 JUMPDEST DUP2 DUP2 LT ISZERO PUSH2 0x94F JUMPI PUSH1 0x0 PUSH1 0x3 PUSH1 0x0 DUP7 DUP7 DUP6 DUP2 DUP2 LT PUSH2 0x900 JUMPI PUSH2 0x900 PUSH2 0x1836 JUMP JUMPDEST SWAP1 POP PUSH1 0x20 MUL ADD PUSH1 0x20 DUP2 ADD SWAP1 PUSH2 0x915 SWAP2 SWAP1 PUSH2 0x179B JUMP JUMPDEST PUSH1 0x1 PUSH1 0x1 PUSH1 0xA0 SHL SUB AND DUP2 MSTORE PUSH1 0x20 DUP2 ADD SWAP2 SWAP1 SWAP2 MSTORE PUSH1 0x40 ADD PUSH1 0x0 KECCAK256 DUP1 SLOAD PUSH1 0xFF NOT AND SWAP2 ISZERO ISZERO SWAP2 SWAP1 SWAP2 OR SWAP1 SSTORE PUSH1 0x9 DUP1 SLOAD PUSH1 0x0 NOT ADD SWAP1 SSTORE PUSH1 0x1 ADD PUSH2 0x8E0 JUMP JUMPDEST POP PUSH32 0xE29ACB3292BED043FAF01E16B1FCF8C38CF977E334155FA988DED4D254FC3424 DUP4 DUP4 PUSH1 0x40 MLOAD PUSH2 0x609 SWAP3 SWAP2 SWAP1 PUSH2 0x184C JUMP JUMPDEST PUSH2 0x989 PUSH2 0x141C JUMP JUMPDEST PUSH1 0x1 PUSH1 0x1 PUSH1 0xA0 SHL SUB DUP2 AND PUSH1 0x0 SWAP1 DUP2 MSTORE PUSH1 0x3 PUSH1 0x20 MSTORE PUSH1 0x40 SWAP1 KECCAK256 SLOAD DUP2 SWAP1 PUSH1 0xFF AND ISZERO PUSH2 0x9EA JUMPI PUSH1 0x40 MLOAD PUSH3 0x461BCD PUSH1 0xE5 SHL DUP2 MSTORE PUSH1 0x20 PUSH1 0x4 DUP3 ADD MSTORE PUSH1 0x13 PUSH1 0x24 DUP3 ADD MSTORE PUSH19 0x135D5CDD08189948189B1858DADB1A5CDD1959 PUSH1 0x6A SHL PUSH1 0x44 DUP3 ADD MSTORE PUSH1 0x64 ADD PUSH2 0x41F JUMP JUMPDEST PUSH1 0x1 PUSH1 0x1 PUSH1 0xA0 SHL SUB DUP3 AND PUSH2 0xA10 JUMPI PUSH1 0x40 MLOAD PUSH3 0x461BCD PUSH1 0xE5 SHL DUP2 MSTORE PUSH1 0x4 ADD PUSH2 0x41F SWAP1 PUSH2 0x1897 JUMP JUMPDEST PUSH1 0x1 PUSH1 0x1 PUSH1 0xA0 SHL SUB DUP3 AND PUSH1 0x0 DUP2 DUP2 MSTORE PUSH1 0x3 PUSH1 0x20 SWAP1 DUP2 MSTORE PUSH1 0x40 SWAP2 DUP3 SWAP1 KECCAK256 DUP1 SLOAD PUSH1 0xFF NOT AND PUSH1 0x1 SWAP1 DUP2 OR SWAP1 SWAP2 SSTORE PUSH1 0x9 DUP1 SLOAD SWAP1 SWAP2 ADD SWAP1 SSTORE SWAP1 MLOAD SWAP2 DUP3 MSTORE PUSH32 0xC1BF09E09093691BDE88793790B0AF49AE99CC6C301523675A439AA76A084F18 SWAP2 ADD JUMPDEST PUSH1 0x40 MLOAD DUP1 SWAP2 SUB SWAP1 LOG1 POP POP JUMP JUMPDEST PUSH2 0xA80 PUSH2 0x14EB JUMP JUMPDEST PUSH2 0xA88 PUSH2 0x150F JUMP JUMPDEST PUSH1 0x6 SLOAD PUSH1 0x40 MLOAD PUSH4 0x70A08231 PUSH1 0xE0 SHL DUP2 MSTORE ADDRESS PUSH1 0x4 DUP3 ADD MSTORE PUSH32 0x0 PUSH1 0x1 PUSH1 0x1 PUSH1 0xA0 SHL SUB AND SWAP1 PUSH4 0x70A08231 SWAP1 PUSH1 0x24 ADD PUSH1 0x20 PUSH1 0x40 MLOAD DUP1 DUP4 SUB DUP2 DUP7 GAS STATICCALL ISZERO DUP1 ISZERO PUSH2 0xAEF JUMPI RETURNDATASIZE PUSH1 0x0 DUP1 RETURNDATACOPY RETURNDATASIZE PUSH1 0x0 REVERT JUMPDEST POP POP POP POP PUSH1 0x40 MLOAD RETURNDATASIZE PUSH1 0x1F NOT PUSH1 0x1F DUP3 ADD AND DUP3 ADD DUP1 PUSH1 0x40 MSTORE POP DUP2 ADD SWAP1 PUSH2 0xB13 SWAP2 SWAP1 PUSH2 0x18C4 JUMP JUMPDEST LT ISZERO PUSH2 0xB6C JUMPI PUSH1 0x40 MLOAD PUSH3 0x461BCD PUSH1 0xE5 SHL DUP2 MSTORE PUSH1 0x20 PUSH1 0x4 DUP3 ADD MSTORE PUSH1 0x22 PUSH1 0x24 DUP3 ADD MSTORE PUSH32 0x436F6E747261637420646F6573206E6F74206861766520656E6F756768206355 PUSH1 0x44 DUP3 ADD MSTORE PUSH2 0x14D1 PUSH1 0xF2 SHL PUSH1 0x64 DUP3 ADD MSTORE PUSH1 0x84 ADD PUSH2 0x41F JUMP JUMPDEST PUSH1 0x7 SLOAD PUSH1 0x8 SLOAD LT PUSH2 0xBCB JUMPI PUSH1 0x40 MLOAD PUSH3 0x461BCD PUSH1 0xE5 SHL DUP2 MSTORE PUSH1 0x20 PUSH1 0x4 DUP3 ADD MSTORE PUSH1 0x23 PUSH1 0x24 DUP3 ADD MSTORE PUSH32 0x416C6C207061727469636970616E74732068617665206265656E207265776172 PUSH1 0x44 DUP3 ADD MSTORE PUSH3 0x191959 PUSH1 0xEA SHL PUSH1 0x64 DUP3 ADD MSTORE PUSH1 0x84 ADD PUSH2 0x41F JUMP JUMPDEST DUP1 CALLER PUSH1 0x1 PUSH1 0x1 PUSH1 0xA0 SHL SUB DUP3 AND EQ PUSH2 0xC18 JUMPI PUSH1 0x40 MLOAD PUSH3 0x461BCD PUSH1 0xE5 SHL DUP2 MSTORE PUSH1 0x20 PUSH1 0x4 DUP3 ADD MSTORE PUSH1 0x11 PUSH1 0x24 DUP3 ADD MSTORE PUSH17 0x27B7363C903B30B634B21039B2B73232B9 PUSH1 0x79 SHL PUSH1 0x44 DUP3 ADD MSTORE PUSH1 0x64 ADD PUSH2 0x41F JUMP JUMPDEST PUSH1 0x1 PUSH1 0x1 PUSH1 0xA0 SHL SUB DUP3 AND PUSH1 0x0 SWAP1 DUP2 MSTORE PUSH1 0x3 PUSH1 0x20 MSTORE PUSH1 0x40 SWAP1 KECCAK256 SLOAD DUP3 SWAP1 PUSH1 0xFF AND PUSH2 0xC7D JUMPI PUSH1 0x40 MLOAD PUSH3 0x461BCD PUSH1 0xE5 SHL DUP2 MSTORE PUSH1 0x20 PUSH1 0x4 DUP3 ADD MSTORE PUSH1 0x18 PUSH1 0x24 DUP3 ADD MSTORE PUSH24 0x4F6E6C792077686974656C69737465642061646472657373 PUSH1 0x40 SHL PUSH1 0x44 DUP3 ADD MSTORE PUSH1 0x64 ADD PUSH2 0x41F JUMP JUMPDEST PUSH1 0x1 PUSH1 0x1 PUSH1 0xA0 SHL SUB DUP4 AND PUSH1 0x0 SWAP1 DUP2 MSTORE PUSH1 0x4 PUSH1 0x20 MSTORE PUSH1 0x40 SWAP1 KECCAK256 SLOAD DUP4 SWAP1 PUSH1 0xFF AND ISZERO PUSH2 0xCE8 JUMPI PUSH1 0x40 MLOAD PUSH3 0x461BCD PUSH1 0xE5 SHL DUP2 MSTORE PUSH1 0x20 PUSH1 0x4 DUP3 ADD MSTORE PUSH1 0x1C PUSH1 0x24 DUP3 ADD MSTORE PUSH32 0x5061727469636970616E7420616C726561647920726577617264656400000000 PUSH1 0x44 DUP3 ADD MSTORE PUSH1 0x64 ADD PUSH2 0x41F JUMP JUMPDEST PUSH1 0x1 PUSH1 0x1 PUSH1 0xA0 SHL SUB DUP5 AND PUSH1 0x0 SWAP1 DUP2 MSTORE PUSH1 0x5 PUSH1 0x20 MSTORE PUSH1 0x40 SWAP1 KECCAK256 SLOAD DUP5 SWAP1 PUSH1 0xFF AND PUSH2 0xD45 JUMPI PUSH1 0x40 MLOAD PUSH3 0x461BCD PUSH1 0xE5 SHL DUP2 MSTORE PUSH1 0x20 PUSH1 0x4 DUP3 ADD MSTORE PUSH1 0x10 PUSH1 0x24 DUP3 ADD MSTORE PUSH16 0x135D5CDD081899481CD8DC99595B9959 PUSH1 0x82 SHL PUSH1 0x44 DUP3 ADD MSTORE PUSH1 0x64 ADD PUSH2 0x41F JUMP JUMPDEST PUSH1 0x0 PUSH2 0xD50 DUP7 PUSH2 0x1539 JUMP JUMPDEST SWAP1 POP DUP1 ISZERO PUSH2 0xD61 JUMPI PUSH2 0xD61 DUP7 PUSH2 0x1635 JUMP JUMPDEST POP POP POP POP POP PUSH2 0xD6F PUSH1 0x1 DUP1 SSTORE JUMP JUMPDEST POP JUMP JUMPDEST PUSH1 0x60 DUP2 PUSH1 0x0 DUP2 SWAP1 SUB PUSH2 0xD96 JUMPI PUSH1 0x40 MLOAD PUSH3 0x461BCD PUSH1 0xE5 SHL DUP2 MSTORE PUSH1 0x4 ADD PUSH2 0x41F SWAP1 PUSH2 0x1809 JUMP JUMPDEST PUSH1 0x0 DUP1 JUMPDEST DUP3 DUP2 LT ISZERO PUSH2 0xE05 JUMPI PUSH1 0x3 PUSH1 0x0 DUP8 DUP8 DUP5 DUP2 DUP2 LT PUSH2 0xDB8 JUMPI PUSH2 0xDB8 PUSH2 0x1836 JUMP JUMPDEST SWAP1 POP PUSH1 0x20 MUL ADD PUSH1 0x20 DUP2 ADD SWAP1 PUSH2 0xDCD SWAP2 SWAP1 PUSH2 0x179B JUMP JUMPDEST PUSH1 0x1 PUSH1 0x1 PUSH1 0xA0 SHL SUB AND DUP2 MSTORE PUSH1 0x20 DUP2 ADD SWAP2 SWAP1 SWAP2 MSTORE PUSH1 0x40 ADD PUSH1 0x0 KECCAK256 SLOAD PUSH1 0xFF AND ISZERO PUSH2 0xDFD JUMPI DUP2 PUSH2 0xDF9 DUP2 PUSH2 0x18DD JUMP JUMPDEST SWAP3 POP POP JUMPDEST PUSH1 0x1 ADD PUSH2 0xD9A JUMP JUMPDEST POP PUSH1 0x0 DUP2 PUSH8 0xFFFFFFFFFFFFFFFF DUP2 GT ISZERO PUSH2 0xE21 JUMPI PUSH2 0xE21 PUSH2 0x1904 JUMP JUMPDEST PUSH1 0x40 MLOAD SWAP1 DUP1 DUP3 MSTORE DUP1 PUSH1 0x20 MUL PUSH1 0x20 ADD DUP3 ADD PUSH1 0x40 MSTORE DUP1 ISZERO PUSH2 0xE4A JUMPI DUP2 PUSH1 0x20 ADD PUSH1 0x20 DUP3 MUL DUP1 CALLDATASIZE DUP4 CALLDATACOPY ADD SWAP1 POP JUMPDEST POP SWAP1 POP PUSH1 0x0 DUP1 JUMPDEST DUP5 DUP2 LT ISZERO PUSH2 0xF13 JUMPI PUSH1 0x3 PUSH1 0x0 DUP10 DUP10 DUP5 DUP2 DUP2 LT PUSH2 0xE6F JUMPI PUSH2 0xE6F PUSH2 0x1836 JUMP JUMPDEST SWAP1 POP PUSH1 0x20 MUL ADD PUSH1 0x20 DUP2 ADD SWAP1 PUSH2 0xE84 SWAP2 SWAP1 PUSH2 0x179B JUMP JUMPDEST PUSH1 0x1 PUSH1 0x1 PUSH1 0xA0 SHL SUB AND DUP2 MSTORE PUSH1 0x20 DUP2 ADD SWAP2 SWAP1 SWAP2 MSTORE PUSH1 0x40 ADD PUSH1 0x0 KECCAK256 SLOAD PUSH1 0xFF AND ISZERO PUSH2 0xF0B JUMPI DUP8 DUP8 DUP3 DUP2 DUP2 LT PUSH2 0xEB8 JUMPI PUSH2 0xEB8 PUSH2 0x1836 JUMP JUMPDEST SWAP1 POP PUSH1 0x20 MUL ADD PUSH1 0x20 DUP2 ADD SWAP1 PUSH2 0xECD SWAP2 SWAP1 PUSH2 0x179B JUMP JUMPDEST DUP4 DUP4 PUSH2 0xED8 DUP2 PUSH2 0x18DD JUMP JUMPDEST SWAP5 POP DUP2 MLOAD DUP2 LT PUSH2 0xEEA JUMPI PUSH2 0xEEA PUSH2 0x1836 JUMP JUMPDEST PUSH1 0x20 MUL PUSH1 0x20 ADD ADD SWAP1 PUSH1 0x1 PUSH1 0x1 PUSH1 0xA0 SHL SUB AND SWAP1 DUP2 PUSH1 0x1 PUSH1 0x1 PUSH1 0xA0 SHL SUB AND DUP2 MSTORE POP POP JUMPDEST PUSH1 0x1 ADD PUSH2 0xE51 JUMP JUMPDEST POP SWAP1 SWAP7 SWAP6 POP POP POP POP POP POP JUMP JUMPDEST PUSH2 0xF27 PUSH2 0x141C JUMP JUMPDEST PUSH1 0x1 PUSH1 0x1 PUSH1 0xA0 SHL SUB DUP2 AND PUSH1 0x0 SWAP1 DUP2 MSTORE PUSH1 0x3 PUSH1 0x20 MSTORE PUSH1 0x40 SWAP1 KECCAK256 SLOAD DUP2 SWAP1 PUSH1 0xFF AND PUSH2 0xF8C JUMPI PUSH1 0x40 MLOAD PUSH3 0x461BCD PUSH1 0xE5 SHL DUP2 MSTORE PUSH1 0x20 PUSH1 0x4 DUP3 ADD MSTORE PUSH1 0x18 PUSH1 0x24 DUP3 ADD MSTORE PUSH24 0x4F6E6C792077686974656C69737465642061646472657373 PUSH1 0x40 SHL PUSH1 0x44 DUP3 ADD MSTORE PUSH1 0x64 ADD PUSH2 0x41F JUMP JUMPDEST PUSH1 0x1 PUSH1 0x1 PUSH1 0xA0 SHL SUB DUP3 AND PUSH2 0xFB2 JUMPI PUSH1 0x40 MLOAD PUSH3 0x461BCD PUSH1 0xE5 SHL DUP2 MSTORE PUSH1 0x4 ADD PUSH2 0x41F SWAP1 PUSH2 0x1897 JUMP JUMPDEST PUSH1 0x1 PUSH1 0x1 PUSH1 0xA0 SHL SUB DUP3 AND PUSH1 0x0 DUP2 DUP2 MSTORE PUSH1 0x3 PUSH1 0x20 SWAP1 DUP2 MSTORE PUSH1 0x40 SWAP2 DUP3 SWAP1 KECCAK256 DUP1 SLOAD PUSH1 0xFF NOT AND SWAP1 SSTORE PUSH1 0x9 DUP1 SLOAD PUSH1 0x0 NOT ADD SWAP1 SSTORE SWAP1 MLOAD SWAP2 DUP3 MSTORE PUSH32 0x4C4C57D58B398C7BEEAD9E49305D0926EA8FD1E7E895959B09968B3384C385DE SWAP2 ADD PUSH2 0xA6C JUMP JUMPDEST PUSH2 0x1015 PUSH2 0x141C JUMP JUMPDEST PUSH2 0x626 PUSH2 0x168F JUMP JUMPDEST DUP1 CALLER PUSH1 0x1 PUSH1 0x1 PUSH1 0xA0 SHL SUB DUP3 AND EQ PUSH2 0x106A JUMPI PUSH1 0x40 MLOAD PUSH3 0x461BCD PUSH1 0xE5 SHL DUP2 MSTORE PUSH1 0x20 PUSH1 0x4 DUP3 ADD MSTORE PUSH1 0x11 PUSH1 0x24 DUP3 ADD MSTORE PUSH17 0x27B7363C903B30B634B21039B2B73232B9 PUSH1 0x79 SHL PUSH1 0x44 DUP3 ADD MSTORE PUSH1 0x64 ADD PUSH2 0x41F JUMP JUMPDEST PUSH1 0x1 PUSH1 0x1 PUSH1 0xA0 SHL SUB DUP3 AND PUSH1 0x0 SWAP1 DUP2 MSTORE PUSH1 0x5 PUSH1 0x20 MSTORE PUSH1 0x40 SWAP1 KECCAK256 SLOAD DUP3 SWAP1 PUSH1 0xFF AND ISZERO PUSH2 0x10D5 JUMPI PUSH1 0x40 MLOAD PUSH3 0x461BCD PUSH1 0xE5 SHL DUP2 MSTORE PUSH1 0x20 PUSH1 0x4 DUP3 ADD MSTORE PUSH1 0x17 PUSH1 0x24 DUP3 ADD MSTORE PUSH32 0x4F6E6C7920756E73637265656E65642061646472657373000000000000000000 PUSH1 0x44 DUP3 ADD MSTORE PUSH1 0x64 ADD PUSH2 0x41F JUMP JUMPDEST PUSH1 0x1 PUSH1 0x1 PUSH1 0xA0 SHL SUB DUP4 AND PUSH2 0x10FB JUMPI PUSH1 0x40 MLOAD PUSH3 0x461BCD PUSH1 0xE5 SHL DUP2 MSTORE PUSH1 0x4 ADD PUSH2 0x41F SWAP1 PUSH2 0x1897 JUMP JUMPDEST PUSH1 0x1 PUSH1 0x1 PUSH1 0xA0 SHL SUB DUP4 AND PUSH1 0x0 DUP2 DUP2 MSTORE PUSH1 0x5 PUSH1 0x20 SWAP1 DUP2 MSTORE PUSH1 0x40 SWAP2 DUP3 SWAP1 KECCAK256 DUP1 SLOAD PUSH1 0xFF NOT AND PUSH1 0x1 SWAP1 DUP2 OR SWAP1 SWAP2 SSTORE PUSH1 0xA DUP1 SLOAD SWAP1 SWAP2 ADD SWAP1 SSTORE SWAP1 MLOAD SWAP2 DUP3 MSTORE PUSH32 0xC4EC7A2DC5E72D17666A15570E438638BFC023A7A091DF162B669C37198BACB2 SWAP2 ADD PUSH2 0x609 JUMP JUMPDEST PUSH2 0x1163 PUSH2 0x141C JUMP JUMPDEST PUSH2 0x116B PUSH2 0x14EB JUMP JUMPDEST PUSH1 0x40 MLOAD PUSH4 0x70A08231 PUSH1 0xE0 SHL DUP2 MSTORE ADDRESS PUSH1 0x4 DUP3 ADD MSTORE PUSH1 0x0 SWAP1 PUSH32 0x0 PUSH1 0x1 PUSH1 0x1 PUSH1 0xA0 SHL SUB AND SWAP1 PUSH4 0x70A08231 SWAP1 PUSH1 0x24 ADD PUSH1 0x20 PUSH1 0x40 MLOAD DUP1 DUP4 SUB DUP2 DUP7 GAS STATICCALL ISZERO DUP1 ISZERO PUSH2 0x11D2 JUMPI RETURNDATASIZE PUSH1 0x0 DUP1 RETURNDATACOPY RETURNDATASIZE PUSH1 0x0 REVERT JUMPDEST POP POP POP POP PUSH1 0x40 MLOAD RETURNDATASIZE PUSH1 0x1F NOT PUSH1 0x1F DUP3 ADD AND DUP3 ADD DUP1 PUSH1 0x40 MSTORE POP DUP2 ADD SWAP1 PUSH2 0x11F6 SWAP2 SWAP1 PUSH2 0x18C4 JUMP JUMPDEST GT PUSH2 0x1243 JUMPI PUSH1 0x40 MLOAD PUSH3 0x461BCD PUSH1 0xE5 SHL DUP2 MSTORE PUSH1 0x20 PUSH1 0x4 DUP3 ADD MSTORE PUSH1 0x1F PUSH1 0x24 DUP3 ADD MSTORE PUSH32 0x436F6E747261637420646F6573206E6F74206861766520616E79206355534400 PUSH1 0x44 DUP3 ADD MSTORE PUSH1 0x64 ADD PUSH2 0x41F JUMP JUMPDEST PUSH1 0x40 MLOAD PUSH4 0x70A08231 PUSH1 0xE0 SHL DUP2 MSTORE ADDRESS PUSH1 0x4 DUP3 ADD MSTORE PUSH1 0x0 SWAP1 PUSH32 0x0 PUSH1 0x1 PUSH1 0x1 PUSH1 0xA0 SHL SUB AND SWAP1 PUSH4 0x70A08231 SWAP1 PUSH1 0x24 ADD PUSH1 0x20 PUSH1 0x40 MLOAD DUP1 DUP4 SUB DUP2 DUP7 GAS STATICCALL ISZERO DUP1 ISZERO PUSH2 0x12AA JUMPI RETURNDATASIZE PUSH1 0x0 DUP1 RETURNDATACOPY RETURNDATASIZE PUSH1 0x0 REVERT JUMPDEST POP POP POP POP PUSH1 0x40 MLOAD RETURNDATASIZE PUSH1 0x1F NOT PUSH1 0x1F DUP3 ADD AND DUP3 ADD DUP1 PUSH1 0x40 MSTORE POP DUP2 ADD SWAP1 PUSH2 0x12CE SWAP2 SWAP1 PUSH2 0x18C4 JUMP JUMPDEST SWAP1 POP PUSH1 0x0 PUSH32 0x0 PUSH1 0x1 PUSH1 0x1 PUSH1 0xA0 SHL SUB AND PUSH4 0xA9059CBB PUSH2 0x1313 PUSH1 0x0 SLOAD PUSH1 0x1 PUSH1 0x1 PUSH1 0xA0 SHL SUB AND SWAP1 JUMP JUMPDEST PUSH1 0x40 MLOAD PUSH1 0x1 PUSH1 0x1 PUSH1 0xE0 SHL SUB NOT PUSH1 0xE0 DUP5 SWAP1 SHL AND DUP2 MSTORE PUSH1 0x1 PUSH1 0x1 PUSH1 0xA0 SHL SUB SWAP1 SWAP2 AND PUSH1 0x4 DUP3 ADD MSTORE PUSH1 0x24 DUP2 ADD DUP6 SWAP1 MSTORE PUSH1 0x44 ADD PUSH1 0x20 PUSH1 0x40 MLOAD DUP1 DUP4 SUB DUP2 PUSH1 0x0 DUP8 GAS CALL ISZERO DUP1 ISZERO PUSH2 0x1360 JUMPI RETURNDATASIZE PUSH1 0x0 DUP1 RETURNDATACOPY RETURNDATASIZE PUSH1 0x0 REVERT JUMPDEST POP POP POP POP PUSH1 0x40 MLOAD RETURNDATASIZE PUSH1 0x1F NOT PUSH1 0x1F DUP3 ADD AND DUP3 ADD DUP1 PUSH1 0x40 MSTORE POP DUP2 ADD SWAP1 PUSH2 0x1384 SWAP2 SWAP1 PUSH2 0x191A JUMP JUMPDEST SWAP1 POP DUP1 ISZERO PUSH2 0x13DD JUMPI PUSH32 0x2036B9B38B69A2FA490EE702733A29CD2550ACCC20BC96E786CB9BEEDC779097 PUSH2 0x13BF PUSH1 0x0 SLOAD PUSH1 0x1 PUSH1 0x1 PUSH1 0xA0 SHL SUB AND SWAP1 JUMP JUMPDEST PUSH1 0x40 DUP1 MLOAD PUSH1 0x1 PUSH1 0x1 PUSH1 0xA0 SHL SUB SWAP1 SWAP3 AND DUP3 MSTORE PUSH1 0x20 DUP3 ADD DUP6 SWAP1 MSTORE ADD PUSH2 0xA6C JUMP JUMPDEST POP POP JUMP JUMPDEST PUSH2 0x13E9 PUSH2 0x141C JUMP JUMPDEST PUSH1 0x1 PUSH1 0x1 PUSH1 0xA0 SHL SUB DUP2 AND PUSH2 0x1413 JUMPI PUSH1 0x40 MLOAD PUSH4 0x1E4FBDF7 PUSH1 0xE0 SHL DUP2 MSTORE PUSH1 0x0 PUSH1 0x4 DUP3 ADD MSTORE PUSH1 0x24 ADD PUSH2 0x41F JUMP JUMPDEST PUSH2 0xD6F DUP2 PUSH2 0x149B JUMP JUMPDEST PUSH1 0x0 SLOAD PUSH1 0x1 PUSH1 0x1 PUSH1 0xA0 SHL SUB AND CALLER EQ PUSH2 0x626 JUMPI PUSH1 0x40 MLOAD PUSH4 0x118CDAA7 PUSH1 0xE0 SHL DUP2 MSTORE CALLER PUSH1 0x4 DUP3 ADD MSTORE PUSH1 0x24 ADD PUSH2 0x41F JUMP JUMPDEST PUSH2 0x1451 PUSH2 0x16CC JUMP JUMPDEST PUSH1 0x2 DUP1 SLOAD PUSH1 0xFF NOT AND SWAP1 SSTORE PUSH32 0x5DB9EE0A495BF2E6FF9C91A7834C1BA4FDD244A5E8AA4E537BD38AEAE4B073AA CALLER JUMPDEST PUSH1 0x40 MLOAD PUSH1 0x1 PUSH1 0x1 PUSH1 0xA0 SHL SUB SWAP1 SWAP2 AND DUP2 MSTORE PUSH1 0x20 ADD PUSH1 0x40 MLOAD DUP1 SWAP2 SUB SWAP1 LOG1 JUMP JUMPDEST PUSH1 0x0 DUP1 SLOAD PUSH1 0x1 PUSH1 0x1 PUSH1 0xA0 SHL SUB DUP4 DUP2 AND PUSH1 0x1 PUSH1 0x1 PUSH1 0xA0 SHL SUB NOT DUP4 AND DUP2 OR DUP5 SSTORE PUSH1 0x40 MLOAD SWAP2 SWAP1 SWAP3 AND SWAP3 DUP4 SWAP2 PUSH32 0x8BE0079C531659141344CD1FD0A4F28419497F9722A3DAAFE3B4186F6B6457E0 SWAP2 SWAP1 LOG3 POP POP JUMP JUMPDEST PUSH1 0x2 SLOAD PUSH1 0xFF AND ISZERO PUSH2 0x626 JUMPI PUSH1 0x40 MLOAD PUSH4 0xD93C0665 PUSH1 0xE0 SHL DUP2 MSTORE PUSH1 0x4 ADD PUSH1 0x40 MLOAD DUP1 SWAP2 SUB SWAP1 REVERT JUMPDEST PUSH1 0x2 PUSH1 0x1 SLOAD SUB PUSH2 0x1532 JUMPI PUSH1 0x40 MLOAD PUSH4 0x3EE5AEB5 PUSH1 0xE0 SHL DUP2 MSTORE PUSH1 0x4 ADD PUSH1 0x40 MLOAD DUP1 SWAP2 SUB SWAP1 REVERT JUMPDEST PUSH1 0x2 PUSH1 0x1 SSTORE JUMP JUMPDEST PUSH1 0x6 SLOAD PUSH1 0x40 MLOAD PUSH4 0xA9059CBB PUSH1 0xE0 SHL DUP2 MSTORE PUSH1 0x1 PUSH1 0x1 PUSH1 0xA0 SHL SUB DUP4 DUP2 AND PUSH1 0x4 DUP4 ADD MSTORE PUSH1 0x24 DUP3 ADD SWAP3 SWAP1 SWAP3 MSTORE PUSH1 0x0 SWAP2 DUP3 SWAP2 PUSH32 0x0 SWAP1 SWAP2 AND SWAP1 PUSH4 0xA9059CBB SWAP1 PUSH1 0x44 ADD PUSH1 0x20 PUSH1 0x40 MLOAD DUP1 DUP4 SUB DUP2 PUSH1 0x0 DUP8 GAS CALL ISZERO DUP1 ISZERO PUSH2 0x15B3 JUMPI RETURNDATASIZE PUSH1 0x0 DUP1 RETURNDATACOPY RETURNDATASIZE PUSH1 0x0 REVERT JUMPDEST POP POP POP POP PUSH1 0x40 MLOAD RETURNDATASIZE PUSH1 0x1F NOT PUSH1 0x1F DUP3 ADD AND DUP3 ADD DUP1 PUSH1 0x40 MSTORE POP DUP2 ADD SWAP1 PUSH2 0x15D7 SWAP2 SWAP1 PUSH2 0x191A JUMP JUMPDEST SWAP1 POP DUP1 ISZERO PUSH2 0x162F JUMPI PUSH1 0x8 DUP1 SLOAD PUSH1 0x1 ADD SWAP1 SSTORE PUSH1 0x6 SLOAD PUSH1 0x40 DUP1 MLOAD PUSH1 0x1 PUSH1 0x1 PUSH1 0xA0 SHL SUB DUP7 AND DUP2 MSTORE PUSH1 0x20 DUP2 ADD SWAP3 SWAP1 SWAP3 MSTORE PUSH32 0x8934D7A9692E763E356FD30D84CA5F61A737B35C5CCD5D31D4F140310267B73E SWAP2 ADD PUSH1 0x40 MLOAD DUP1 SWAP2 SUB SWAP1 LOG1 JUMPDEST SWAP3 SWAP2 POP POP JUMP JUMPDEST PUSH1 0x1 PUSH1 0x1 PUSH1 0xA0 SHL SUB DUP2 AND PUSH1 0x0 DUP2 DUP2 MSTORE PUSH1 0x4 PUSH1 0x20 SWAP1 DUP2 MSTORE PUSH1 0x40 SWAP2 DUP3 SWAP1 KECCAK256 DUP1 SLOAD PUSH1 0xFF NOT AND PUSH1 0x1 OR SWAP1 SSTORE SWAP1 MLOAD SWAP2 DUP3 MSTORE PUSH32 0x654C9A027765E6FEB862F42D438E9F6948F9EE31113E379F0372B30EFC722943 SWAP2 ADD PUSH1 0x40 MLOAD DUP1 SWAP2 SUB SWAP1 LOG1 POP JUMP JUMPDEST PUSH2 0x1697 PUSH2 0x14EB JUMP JUMPDEST PUSH1 0x2 DUP1 SLOAD PUSH1 0xFF NOT AND PUSH1 0x1 OR SWAP1 SSTORE PUSH32 0x62E78CEA01BEE320CD4E420270B5EA74000D11B0C9F74754EBDBFC544B05A258 PUSH2 0x147E CALLER SWAP1 JUMP JUMPDEST PUSH1 0x2 SLOAD PUSH1 0xFF AND PUSH2 0x626 JUMPI PUSH1 0x40 MLOAD PUSH4 0x8DFC202B PUSH1 0xE0 SHL DUP2 MSTORE PUSH1 0x4 ADD PUSH1 0x40 MLOAD DUP1 SWAP2 SUB SWAP1 REVERT JUMPDEST PUSH1 0x0 DUP1 PUSH1 0x20 DUP4 DUP6 SUB SLT ISZERO PUSH2 0x1702 JUMPI PUSH1 0x0 DUP1 REVERT JUMPDEST DUP3 CALLDATALOAD PUSH8 0xFFFFFFFFFFFFFFFF DUP2 GT ISZERO PUSH2 0x1719 JUMPI PUSH1 0x0 DUP1 REVERT JUMPDEST DUP4 ADD PUSH1 0x1F DUP2 ADD DUP6 SGT PUSH2 0x172A JUMPI PUSH1 0x0 DUP1 REVERT JUMPDEST DUP1 CALLDATALOAD PUSH8 0xFFFFFFFFFFFFFFFF DUP2 GT ISZERO PUSH2 0x1741 JUMPI PUSH1 0x0 DUP1 REVERT JUMPDEST DUP6 PUSH1 0x20 DUP3 PUSH1 0x5 SHL DUP5 ADD ADD GT ISZERO PUSH2 0x1756 JUMPI PUSH1 0x0 DUP1 REVERT JUMPDEST PUSH1 0x20 SWAP2 SWAP1 SWAP2 ADD SWAP6 SWAP1 SWAP5 POP SWAP3 POP POP POP JUMP JUMPDEST PUSH1 0x0 PUSH1 0x20 DUP3 DUP5 SUB SLT ISZERO PUSH2 0x1778 JUMPI PUSH1 0x0 DUP1 REVERT JUMPDEST POP CALLDATALOAD SWAP2 SWAP1 POP JUMP JUMPDEST DUP1 CALLDATALOAD PUSH1 0x1 PUSH1 0x1 PUSH1 0xA0 SHL SUB DUP2 AND DUP2 EQ PUSH2 0x1796 JUMPI PUSH1 0x0 DUP1 REVERT JUMPDEST SWAP2 SWAP1 POP JUMP JUMPDEST PUSH1 0x0 PUSH1 0x20 DUP3 DUP5 SUB SLT ISZERO PUSH2 0x17AD JUMPI PUSH1 0x0 DUP1 REVERT JUMPDEST PUSH2 0x17B6 DUP3 PUSH2 0x177F JUMP JUMPDEST SWAP4 SWAP3 POP POP POP JUMP JUMPDEST PUSH1 0x20 DUP1 DUP3 MSTORE DUP3 MLOAD DUP3 DUP3 ADD DUP2 SWAP1 MSTORE PUSH1 0x0 SWAP2 DUP5 ADD SWAP1 PUSH1 0x40 DUP5 ADD SWAP1 DUP4 JUMPDEST DUP2 DUP2 LT ISZERO PUSH2 0x17FE JUMPI DUP4 MLOAD PUSH1 0x1 PUSH1 0x1 PUSH1 0xA0 SHL SUB AND DUP4 MSTORE PUSH1 0x20 SWAP4 DUP5 ADD SWAP4 SWAP1 SWAP3 ADD SWAP2 PUSH1 0x1 ADD PUSH2 0x17D7 JUMP JUMPDEST POP SWAP1 SWAP6 SWAP5 POP POP POP POP POP JUMP JUMPDEST PUSH1 0x20 DUP1 DUP3 MSTORE PUSH1 0x13 SWAP1 DUP3 ADD MSTORE PUSH19 0x139BC81859191C995CDCD95CC81C185CDCD959 PUSH1 0x6A SHL PUSH1 0x40 DUP3 ADD MSTORE PUSH1 0x60 ADD SWAP1 JUMP JUMPDEST PUSH4 0x4E487B71 PUSH1 0xE0 SHL PUSH1 0x0 MSTORE PUSH1 0x32 PUSH1 0x4 MSTORE PUSH1 0x24 PUSH1 0x0 REVERT JUMPDEST PUSH1 0x20 DUP1 DUP3 MSTORE DUP2 ADD DUP3 SWAP1 MSTORE PUSH1 0x0 DUP4 PUSH1 0x40 DUP4 ADD DUP3 JUMPDEST DUP6 DUP2 LT ISZERO PUSH2 0x188D JUMPI PUSH1 0x1 PUSH1 0x1 PUSH1 0xA0 SHL SUB PUSH2 0x1878 DUP5 PUSH2 0x177F JUMP JUMPDEST AND DUP3 MSTORE PUSH1 0x20 SWAP3 DUP4 ADD SWAP3 SWAP1 SWAP2 ADD SWAP1 PUSH1 0x1 ADD PUSH2 0x185F JUMP JUMPDEST POP SWAP6 SWAP5 POP POP POP POP POP JUMP JUMPDEST PUSH1 0x20 DUP1 DUP3 MSTORE PUSH1 0x13 SWAP1 DUP3 ADD MSTORE PUSH19 0x16995C9BC81859191C995CDCC81C185CDCD959 PUSH1 0x6A SHL PUSH1 0x40 DUP3 ADD MSTORE PUSH1 0x60 ADD SWAP1 JUMP JUMPDEST PUSH1 0x0 PUSH1 0x20 DUP3 DUP5 SUB SLT ISZERO PUSH2 0x18D6 JUMPI PUSH1 0x0 DUP1 REVERT JUMPDEST POP MLOAD SWAP2 SWAP1 POP JUMP JUMPDEST PUSH1 0x0 PUSH1 0x1 DUP3 ADD PUSH2 0x18FD JUMPI PUSH4 0x4E487B71 PUSH1 0xE0 SHL PUSH1 0x0 MSTORE PUSH1 0x11 PUSH1 0x4 MSTORE PUSH1 0x24 PUSH1 0x0 REVERT JUMPDEST POP PUSH1 0x1 ADD SWAP1 JUMP JUMPDEST PUSH4 0x4E487B71 PUSH1 0xE0 SHL PUSH1 0x0 MSTORE PUSH1 0x41 PUSH1 0x4 MSTORE PUSH1 0x24 PUSH1 0x0 REVERT JUMPDEST PUSH1 0x0 PUSH1 0x20 DUP3 DUP5 SUB SLT ISZERO PUSH2 0x192C JUMPI PUSH1 0x0 DUP1 REVERT JUMPDEST DUP2 MLOAD DUP1 ISZERO ISZERO DUP2 EQ PUSH2 0x17B6 JUMPI PUSH1 0x0 DUP1 REVERT INVALID LOG2 PUSH5 0x6970667358 0x22 SLT KECCAK256 0x25 PUSH6 0xF35519928A9B PUSH4 0xDECA4E65 PUSH20 0xAFF54FEE8F94A10042244133169C8A6E031E6473 PUSH16 0x6C634300081C00330000000000000000 "
				},
				"gasEstimates": {
					"creation": {
						"codeDepositCost": "1302800",
						"executionCost": "infinite",
						"totalCost": "infinite"
					},
					"external": {
						"blacklistMultipleParticipants(address[])": "infinite",
						"blacklistOneParticipant(address)": "54411",
						"cUSD()": "infinite",
						"checkIfParticipantHasAlreadyClaimedReward(address)": "2594",
						"checkIfParticipantIsBlacklisted(address)": "2597",
						"checkIfParticipantIsWhitelisted(address)": "2616",
						"getNumberOfRewardedParticipants()": "2327",
						"getNumberOfWhitelistedParticipants()": "2327",
						"getRewardAmountPerParticipantInWei()": "2348",
						"getTargetNumberOfParticipants()": "2371",
						"getWhitelistedParticipantsFromRegisteredParticipants(address[])": "infinite",
						"numberOfScreenedParticipants()": "2374",
						"numberOfWhitelistedParticipants()": "2331",
						"owner()": "2398",
						"pauseSurvey()": "infinite",
						"paused()": "2339",
						"processRewardClaimByParticipant(address)": "infinite",
						"renounceOwnership()": "infinite",
						"rewardAmountPerParticipantInWei()": "2352",
						"screenParticipant(address)": "52287",
						"targetNumberOfParticipants()": "2329",
						"transferOwnership(address)": "28443",
						"unpauseSurvey()": "infinite",
						"updateRewardAmountPerParticipant(uint256)": "28049",
						"updateTargetNumberOfParticipants(uint256)": "28093",
						"whitelistMultipleParticipants(address[])": "infinite",
						"whitelistOneParticipant(address)": "54419",
						"withdrawAllRewardFundsToResearcher()": "infinite"
					},
					"internal": {
						"markParticipantAsHavingClaimedReward(address)": "infinite",
						"rewardParticipant(address)": "infinite"
					}
				},
				"methodIdentifiers": {
					"blacklistMultipleParticipants(address[])": "729f6bbd",
					"blacklistOneParticipant(address)": "d5e1b394",
					"cUSD()": "1fccf672",
					"checkIfParticipantHasAlreadyClaimedReward(address)": "6ff65c20",
					"checkIfParticipantIsBlacklisted(address)": "8c0a0966",
					"checkIfParticipantIsWhitelisted(address)": "d4bfbd41",
					"getNumberOfRewardedParticipants()": "741ae614",
					"getNumberOfWhitelistedParticipants()": "28a2355b",
					"getRewardAmountPerParticipantInWei()": "7069243c",
					"getTargetNumberOfParticipants()": "6fa1c59d",
					"getWhitelistedParticipantsFromRegisteredParticipants(address[])": "a0ca86a3",
					"numberOfScreenedParticipants()": "4074be40",
					"numberOfWhitelistedParticipants()": "047bc438",
					"owner()": "8da5cb5b",
					"pauseSurvey()": "e082fe2a",
					"paused()": "5c975abb",
					"processRewardClaimByParticipant(address)": "a0858343",
					"renounceOwnership()": "715018a6",
					"rewardAmountPerParticipantInWei()": "7a0abf08",
					"screenParticipant(address)": "ea1dd101",
					"targetNumberOfParticipants()": "a6a09811",
					"transferOwnership(address)": "f2fde38b",
					"unpauseSurvey()": "3960fc66",
					"updateRewardAmountPerParticipant(uint256)": "64bb632f",
					"updateTargetNumberOfParticipants(uint256)": "528780cc",
					"whitelistMultipleParticipants(address[])": "2201b856",
					"whitelistOneParticipant(address)": "7dce13fe",
					"withdrawAllRewardFundsToResearcher()": "f22069df"
				}
			},
			"storageLayout": {
				"storage": [
					{
						"astId": 8,
						"contract": "smart-contract/hardhat/contracts/ClosedSurveyV3.sol:ClosedSurveyV3",
						"label": "_owner",
						"offset": 0,
						"slot": "0",
						"type": "t_address"
					},
					{
						"astId": 409,
						"contract": "smart-contract/hardhat/contracts/ClosedSurveyV3.sol:ClosedSurveyV3",
						"label": "_status",
						"offset": 0,
						"slot": "1",
						"type": "t_uint256"
					},
					{
						"astId": 290,
						"contract": "smart-contract/hardhat/contracts/ClosedSurveyV3.sol:ClosedSurveyV3",
						"label": "_paused",
						"offset": 0,
						"slot": "2",
						"type": "t_bool"
					},
					{
						"astId": 486,
						"contract": "smart-contract/hardhat/contracts/ClosedSurveyV3.sol:ClosedSurveyV3",
						"label": "participantsWhitelistedForSurvey",
						"offset": 0,
						"slot": "3",
						"type": "t_mapping(t_address,t_bool)"
					},
					{
						"astId": 490,
						"contract": "smart-contract/hardhat/contracts/ClosedSurveyV3.sol:ClosedSurveyV3",
						"label": "rewardedParticipants",
						"offset": 0,
						"slot": "4",
						"type": "t_mapping(t_address,t_bool)"
					},
					{
						"astId": 494,
						"contract": "smart-contract/hardhat/contracts/ClosedSurveyV3.sol:ClosedSurveyV3",
						"label": "participantsScreenedForSurvey",
						"offset": 0,
						"slot": "5",
						"type": "t_mapping(t_address,t_bool)"
					},
					{
						"astId": 496,
						"contract": "smart-contract/hardhat/contracts/ClosedSurveyV3.sol:ClosedSurveyV3",
						"label": "rewardAmountPerParticipantInWei",
						"offset": 0,
						"slot": "6",
						"type": "t_uint256"
					},
					{
						"astId": 498,
						"contract": "smart-contract/hardhat/contracts/ClosedSurveyV3.sol:ClosedSurveyV3",
						"label": "targetNumberOfParticipants",
						"offset": 0,
						"slot": "7",
						"type": "t_uint256"
					},
					{
						"astId": 500,
						"contract": "smart-contract/hardhat/contracts/ClosedSurveyV3.sol:ClosedSurveyV3",
						"label": "numberOfRewardedParticipants",
						"offset": 0,
						"slot": "8",
						"type": "t_uint256"
					},
					{
						"astId": 502,
						"contract": "smart-contract/hardhat/contracts/ClosedSurveyV3.sol:ClosedSurveyV3",
						"label": "numberOfWhitelistedParticipants",
						"offset": 0,
						"slot": "9",
						"type": "t_uint256"
					},
					{
						"astId": 504,
						"contract": "smart-contract/hardhat/contracts/ClosedSurveyV3.sol:ClosedSurveyV3",
						"label": "numberOfScreenedParticipants",
						"offset": 0,
						"slot": "10",
						"type": "t_uint256"
					}
				],
				"types": {
					"t_address": {
						"encoding": "inplace",
						"label": "address",
						"numberOfBytes": "20"
					},
					"t_bool": {
						"encoding": "inplace",
						"label": "bool",
						"numberOfBytes": "1"
					},
					"t_mapping(t_address,t_bool)": {
						"encoding": "mapping",
						"key": "t_address",
						"label": "mapping(address => bool)",
						"numberOfBytes": "32",
						"value": "t_bool"
					},
					"t_uint256": {
						"encoding": "inplace",
						"label": "uint256",
						"numberOfBytes": "32"
					}
				}
			},
			"userdoc": {
				"kind": "user",
				"methods": {},
				"version": 1
			}
		}
	}
}