{
	"smart-contract/hardhat/contracts/ClosedSurveyV3.sol": {
		"ClosedSurveyV3": {
			"abi": [
				{
					"inputs": [
						{
							"internalType": "address",
							"name": "researcherWalletAddress",
							"type": "address"
						},
						{
							"internalType": "uint256",
							"name": "_rewardAmountPerParticipantInWei",
							"type": "uint256"
						},
						{
							"internalType": "uint256",
							"name": "_targetNumberOfParticipants",
							"type": "uint256"
						},
						{
							"internalType": "address",
							"name": "cUSDTokenAddress",
							"type": "address"
						}
					],
					"stateMutability": "nonpayable",
					"type": "constructor"
				},
				{
					"inputs": [],
					"name": "EnforcedPause",
					"type": "error"
				},
				{
					"inputs": [],
					"name": "ExpectedPause",
					"type": "error"
				},
				{
					"inputs": [
						{
							"internalType": "address",
							"name": "owner",
							"type": "address"
						}
					],
					"name": "OwnableInvalidOwner",
					"type": "error"
				},
				{
					"inputs": [
						{
							"internalType": "address",
							"name": "account",
							"type": "address"
						}
					],
					"name": "OwnableUnauthorizedAccount",
					"type": "error"
				},
				{
					"inputs": [],
					"name": "ReentrancyGuardReentrantCall",
					"type": "error"
				},
				{
					"anonymous": false,
					"inputs": [
						{
							"indexed": true,
							"internalType": "address",
							"name": "previousOwner",
							"type": "address"
						},
						{
							"indexed": true,
							"internalType": "address",
							"name": "newOwner",
							"type": "address"
						}
					],
					"name": "OwnershipTransferred",
					"type": "event"
				},
				{
					"anonymous": false,
					"inputs": [
						{
							"indexed": false,
							"internalType": "address",
							"name": "participantWalletAddress",
							"type": "address"
						}
					],
					"name": "ParticipantMarkedAsRewarded",
					"type": "event"
				},
				{
					"anonymous": false,
					"inputs": [
						{
							"indexed": false,
							"internalType": "address",
							"name": "participantWalletAddress",
							"type": "address"
						},
						{
							"indexed": false,
							"internalType": "uint256",
							"name": "rewardAmount",
							"type": "uint256"
						}
					],
					"name": "ParticipantRewarded",
					"type": "event"
				},
				{
					"anonymous": false,
					"inputs": [
						{
							"indexed": false,
							"internalType": "address",
							"name": "participantWalletAddress",
							"type": "address"
						}
					],
					"name": "ParticipantScreened",
					"type": "event"
				},
				{
					"anonymous": false,
					"inputs": [
						{
							"indexed": false,
							"internalType": "address",
							"name": "participantWalletAddress",
							"type": "address"
						}
					],
					"name": "ParticipantWhitelisted",
					"type": "event"
				},
				{
					"anonymous": false,
					"inputs": [
						{
							"indexed": false,
							"internalType": "address",
							"name": "account",
							"type": "address"
						}
					],
					"name": "Paused",
					"type": "event"
				},
				{
					"anonymous": false,
					"inputs": [
						{
							"indexed": false,
							"internalType": "uint256",
							"name": "oldcUSDRewardAmountPerParticipantInWei",
							"type": "uint256"
						},
						{
							"indexed": false,
							"internalType": "uint256",
							"name": "newcUSDRewardAmountPerParticipantInWei",
							"type": "uint256"
						}
					],
					"name": "RewardAmountUpdated",
					"type": "event"
				},
				{
					"anonymous": false,
					"inputs": [
						{
							"indexed": false,
							"internalType": "address",
							"name": "researcherWalletAddress",
							"type": "address"
						},
						{
							"indexed": false,
							"internalType": "uint256",
							"name": "rewardAmount",
							"type": "uint256"
						}
					],
					"name": "RewardFundsWithdrawn",
					"type": "event"
				},
				{
					"anonymous": false,
					"inputs": [
						{
							"indexed": false,
							"internalType": "uint256",
							"name": "oldTargetNumberOfParticipants",
							"type": "uint256"
						},
						{
							"indexed": false,
							"internalType": "uint256",
							"name": "newTargetNumberOfParticipants",
							"type": "uint256"
						}
					],
					"name": "TargetNumberOfParticipantsUpdated",
					"type": "event"
				},
				{
					"anonymous": false,
					"inputs": [
						{
							"indexed": false,
							"internalType": "address",
							"name": "account",
							"type": "address"
						}
					],
					"name": "Unpaused",
					"type": "event"
				},
				{
					"anonymous": false,
					"inputs": [
						{
							"indexed": false,
							"internalType": "address",
							"name": "participantWalletAddress",
							"type": "address"
						}
					],
					"name": "WhitelistedParticipantBlacklisted",
					"type": "event"
				},
				{
					"inputs": [
						{
							"internalType": "address",
							"name": "participantWalletAddress",
							"type": "address"
						}
					],
					"name": "blacklistWhitelistedParticipant",
					"outputs": [],
					"stateMutability": "nonpayable",
					"type": "function"
				},
				{
					"inputs": [],
					"name": "cUSD",
					"outputs": [
						{
							"internalType": "contract IERC20Metadata",
							"name": "",
							"type": "address"
						}
					],
					"stateMutability": "view",
					"type": "function"
				},
				{
					"inputs": [
						{
							"internalType": "address",
							"name": "participantWalletAddress",
							"type": "address"
						}
					],
					"name": "checkIfParticipantHasAlreadyClaimedReward",
					"outputs": [
						{
							"internalType": "bool",
							"name": "",
							"type": "bool"
						}
					],
					"stateMutability": "view",
					"type": "function"
				},
				{
					"inputs": [
						{
							"internalType": "address",
							"name": "participantWalletAddress",
							"type": "address"
						}
					],
					"name": "checkIfParticipantIsBlacklisted",
					"outputs": [
						{
							"internalType": "bool",
							"name": "",
							"type": "bool"
						}
					],
					"stateMutability": "view",
					"type": "function"
				},
				{
					"inputs": [
						{
							"internalType": "address",
							"name": "participantWalletAddress",
							"type": "address"
						}
					],
					"name": "checkIfParticipantIsWhitelisted",
					"outputs": [
						{
							"internalType": "bool",
							"name": "",
							"type": "bool"
						}
					],
					"stateMutability": "view",
					"type": "function"
				},
				{
					"inputs": [],
					"name": "getNumberOfRewardedParticipants",
					"outputs": [
						{
							"internalType": "uint256",
							"name": "",
							"type": "uint256"
						}
					],
					"stateMutability": "view",
					"type": "function"
				},
				{
					"inputs": [],
					"name": "getNumberOfWhitelistedParticipants",
					"outputs": [
						{
							"internalType": "uint256",
							"name": "",
							"type": "uint256"
						}
					],
					"stateMutability": "view",
					"type": "function"
				},
				{
					"inputs": [],
					"name": "getRewardAmountPerParticipantInWei",
					"outputs": [
						{
							"internalType": "uint256",
							"name": "",
							"type": "uint256"
						}
					],
					"stateMutability": "view",
					"type": "function"
				},
				{
					"inputs": [],
					"name": "getTargetNumberOfParticipants",
					"outputs": [
						{
							"internalType": "uint256",
							"name": "",
							"type": "uint256"
						}
					],
					"stateMutability": "view",
					"type": "function"
				},
				{
					"inputs": [],
					"name": "numberOfScreenedParticipants",
					"outputs": [
						{
							"internalType": "uint256",
							"name": "",
							"type": "uint256"
						}
					],
					"stateMutability": "view",
					"type": "function"
				},
				{
					"inputs": [],
					"name": "numberOfWhitelistedParticipants",
					"outputs": [
						{
							"internalType": "uint256",
							"name": "",
							"type": "uint256"
						}
					],
					"stateMutability": "view",
					"type": "function"
				},
				{
					"inputs": [],
					"name": "owner",
					"outputs": [
						{
							"internalType": "address",
							"name": "",
							"type": "address"
						}
					],
					"stateMutability": "view",
					"type": "function"
				},
				{
					"inputs": [],
					"name": "pauseSurvey",
					"outputs": [],
					"stateMutability": "nonpayable",
					"type": "function"
				},
				{
					"inputs": [],
					"name": "paused",
					"outputs": [
						{
							"internalType": "bool",
							"name": "",
							"type": "bool"
						}
					],
					"stateMutability": "view",
					"type": "function"
				},
				{
					"inputs": [
						{
							"internalType": "address",
							"name": "walletAddress",
							"type": "address"
						}
					],
					"name": "processRewardClaimByParticipant",
					"outputs": [],
					"stateMutability": "nonpayable",
					"type": "function"
				},
				{
					"inputs": [],
					"name": "renounceOwnership",
					"outputs": [],
					"stateMutability": "nonpayable",
					"type": "function"
				},
				{
					"inputs": [],
					"name": "rewardAmountPerParticipantInWei",
					"outputs": [
						{
							"internalType": "uint256",
							"name": "",
							"type": "uint256"
						}
					],
					"stateMutability": "view",
					"type": "function"
				},
				{
					"inputs": [
						{
							"internalType": "address",
							"name": "participantWalletAddress",
							"type": "address"
						}
					],
					"name": "screenParticipant",
					"outputs": [],
					"stateMutability": "nonpayable",
					"type": "function"
				},
				{
					"inputs": [],
					"name": "targetNumberOfParticipants",
					"outputs": [
						{
							"internalType": "uint256",
							"name": "",
							"type": "uint256"
						}
					],
					"stateMutability": "view",
					"type": "function"
				},
				{
					"inputs": [
						{
							"internalType": "address",
							"name": "newOwner",
							"type": "address"
						}
					],
					"name": "transferOwnership",
					"outputs": [],
					"stateMutability": "nonpayable",
					"type": "function"
				},
				{
					"inputs": [],
					"name": "unpauseSurvey",
					"outputs": [],
					"stateMutability": "nonpayable",
					"type": "function"
				},
				{
					"inputs": [
						{
							"internalType": "uint256",
							"name": "_newRewardAmountPerParticipantInWei",
							"type": "uint256"
						}
					],
					"name": "updateRewardAmountPerParticipant",
					"outputs": [],
					"stateMutability": "nonpayable",
					"type": "function"
				},
				{
					"inputs": [
						{
							"internalType": "uint256",
							"name": "_newTargetNumberOfParticipants",
							"type": "uint256"
						}
					],
					"name": "updateTargetNumberOfParticipants",
					"outputs": [],
					"stateMutability": "nonpayable",
					"type": "function"
				},
				{
					"inputs": [
						{
							"internalType": "address",
							"name": "participantWalletAddress",
							"type": "address"
						}
					],
					"name": "whitelistParticipant",
					"outputs": [],
					"stateMutability": "nonpayable",
					"type": "function"
				},
				{
					"inputs": [],
					"name": "withdrawAllRewardFundsToResearcher",
					"outputs": [],
					"stateMutability": "nonpayable",
					"type": "function"
				}
			],
			"devdoc": {
				"errors": {
					"EnforcedPause()": [
						{
							"details": "The operation failed because the contract is paused."
						}
					],
					"ExpectedPause()": [
						{
							"details": "The operation failed because the contract is not paused."
						}
					],
					"OwnableInvalidOwner(address)": [
						{
							"details": "The owner is not a valid owner account. (eg. `address(0)`)"
						}
					],
					"OwnableUnauthorizedAccount(address)": [
						{
							"details": "The caller account is not authorized to perform an operation."
						}
					],
					"ReentrancyGuardReentrantCall()": [
						{
							"details": "Unauthorized reentrant call."
						}
					]
				},
				"events": {
					"Paused(address)": {
						"details": "Emitted when the pause is triggered by `account`."
					},
					"Unpaused(address)": {
						"details": "Emitted when the pause is lifted by `account`."
					}
				},
				"kind": "dev",
				"methods": {
					"owner()": {
						"details": "Returns the address of the current owner."
					},
					"paused()": {
						"details": "Returns true if the contract is paused, and false otherwise."
					},
					"renounceOwnership()": {
						"details": "Leaves the contract without owner. It will not be possible to call `onlyOwner` functions. Can only be called by the current owner. NOTE: Renouncing ownership will leave the contract without an owner, thereby disabling any functionality that is only available to the owner."
					},
					"transferOwnership(address)": {
						"details": "Transfers ownership of the contract to a new account (`newOwner`). Can only be called by the current owner."
					}
				},
				"version": 1
			},
			"evm": {
				"assembly": "    /* \"smart-contract/hardhat/contracts/ClosedSurveyV3.sol\":330:10485  contract ClosedSurveyV3 is Ownable, ReentrancyGuard, Pausable {... */\n  mstore(0x40, 0xa0)\n    /* \"smart-contract/hardhat/contracts/ClosedSurveyV3.sol\":3622:4517  constructor(... */\n  callvalue\n  dup1\n  iszero\n  tag_1\n  jumpi\n  0x00\n  dup1\n  revert\ntag_1:\n  pop\n  mload(0x40)\n  sub(codesize, bytecodeSize)\n  dup1\n  bytecodeSize\n  dup4\n  codecopy\n  dup2\n  add\n  0x40\n  dup2\n  swap1\n  mstore\n  tag_2\n  swap2\n  tag_3\n  jump\t// in\ntag_2:\n    /* \"smart-contract/hardhat/contracts/ClosedSurveyV3.sol\":3818:3841  researcherWalletAddress */\n  dup4\n  sub(shl(0xa0, 0x01), 0x01)\n    /* \"@openzeppelin/contracts/access/Ownable.sol\":1273:1299  initialOwner == address(0) */\n  dup2\n  and\n    /* \"@openzeppelin/contracts/access/Ownable.sol\":1269:1364  if (initialOwner == address(0)) {... */\n  tag_9\n  jumpi\n    /* \"@openzeppelin/contracts/access/Ownable.sol\":1322:1353  OwnableInvalidOwner(address(0)) */\n  mload(0x40)\n  shl(0xe0, 0x1e4fbdf7)\n  dup2\n  mstore\n    /* \"@openzeppelin/contracts/access/Ownable.sol\":1350:1351  0 */\n  0x00\n    /* \"@openzeppelin/contracts/access/Ownable.sol\":1322:1353  OwnableInvalidOwner(address(0)) */\n  0x04\n  dup3\n  add\n    /* \"#utility.yul\":861:912   */\n  mstore\n    /* \"#utility.yul\":834:852   */\n  0x24\n  add\n    /* \"@openzeppelin/contracts/access/Ownable.sol\":1322:1353  OwnableInvalidOwner(address(0)) */\ntag_10:\n  mload(0x40)\n  dup1\n  swap2\n  sub\n  swap1\n  revert\n    /* \"@openzeppelin/contracts/access/Ownable.sol\":1269:1364  if (initialOwner == address(0)) {... */\ntag_9:\n    /* \"@openzeppelin/contracts/access/Ownable.sol\":1373:1405  _transferOwnership(initialOwner) */\n  tag_12\n    /* \"@openzeppelin/contracts/access/Ownable.sol\":1392:1404  initialOwner */\n  dup2\n    /* \"@openzeppelin/contracts/access/Ownable.sol\":1373:1391  _transferOwnership */\n  tag_13\n    /* \"@openzeppelin/contracts/access/Ownable.sol\":1373:1405  _transferOwnership(initialOwner) */\n  jump\t// in\ntag_12:\n  pop\n    /* \"@openzeppelin/contracts/utils/ReentrancyGuard.sol\":1857:1858  1 */\n  0x01\n    /* \"@openzeppelin/contracts/utils/ReentrancyGuard.sol\":2061:2082  _status = NOT_ENTERED */\n  dup1\n  sstore\n    /* \"@openzeppelin/contracts/utils/Pausable.sol\":1231:1238  _paused */\n  0x02\n    /* \"@openzeppelin/contracts/utils/Pausable.sol\":1231:1246  _paused = false */\n  dup1\n  sload\n  not(0xff)\n  and\n  swap1\n  sstore\n  sub(shl(0xa0, 0x01), 0x01)\n    /* \"smart-contract/hardhat/contracts/ClosedSurveyV3.sol\":3874:3904  cUSDTokenAddress != address(0) */\n  dup2\n  and\n    /* \"smart-contract/hardhat/contracts/ClosedSurveyV3.sol\":3853:3969  require(... */\n  tag_17\n  jumpi\n  mload(0x40)\n  shl(0xe5, 0x461bcd)\n  dup2\n  mstore\n    /* \"#utility.yul\":1125:1127   */\n  0x20\n    /* \"smart-contract/hardhat/contracts/ClosedSurveyV3.sol\":3853:3969  require(... */\n  0x04\n  dup3\n  add\n    /* \"#utility.yul\":1107:1128   */\n  mstore\n    /* \"#utility.yul\":1164:1166   */\n  0x27\n    /* \"#utility.yul\":1144:1162   */\n  0x24\n  dup3\n  add\n    /* \"#utility.yul\":1137:1167   */\n  mstore\n    /* \"#utility.yul\":1203:1237   */\n  0x5a65726f206164647265737320676976656e20666f722063555344546f6b656e\n    /* \"#utility.yul\":1183:1201   */\n  0x44\n  dup3\n  add\n    /* \"#utility.yul\":1176:1238   */\n  mstore\n  shl(0xc8, 0x41646472657373)\n    /* \"#utility.yul\":1254:1272   */\n  0x64\n  dup3\n  add\n    /* \"#utility.yul\":1247:1284   */\n  mstore\n    /* \"#utility.yul\":1301:1320   */\n  0x84\n  add\n    /* \"smart-contract/hardhat/contracts/ClosedSurveyV3.sol\":3853:3969  require(... */\n  tag_10\n    /* \"#utility.yul\":923:1326   */\n  jump\n    /* \"smart-contract/hardhat/contracts/ClosedSurveyV3.sol\":3853:3969  require(... */\ntag_17:\n  sub(shl(0xa0, 0x01), 0x01)\n    /* \"smart-contract/hardhat/contracts/ClosedSurveyV3.sol\":4001:4038  researcherWalletAddress != address(0) */\n  dup5\n  and\n    /* \"smart-contract/hardhat/contracts/ClosedSurveyV3.sol\":3980:4110  require(... */\n  tag_20\n  jumpi\n  mload(0x40)\n  shl(0xe5, 0x461bcd)\n  dup2\n  mstore\n    /* \"#utility.yul\":1533:1535   */\n  0x20\n    /* \"smart-contract/hardhat/contracts/ClosedSurveyV3.sol\":3980:4110  require(... */\n  0x04\n  dup3\n  add\n    /* \"#utility.yul\":1515:1536   */\n  mstore\n    /* \"#utility.yul\":1572:1574   */\n  0x2e\n    /* \"#utility.yul\":1552:1570   */\n  0x24\n  dup3\n  add\n    /* \"#utility.yul\":1545:1575   */\n  mstore\n    /* \"#utility.yul\":1611:1645   */\n  0x5a65726f206164647265737320676976656e20666f7220726573656172636865\n    /* \"#utility.yul\":1591:1609   */\n  0x44\n  dup3\n  add\n    /* \"#utility.yul\":1584:1646   */\n  mstore\n  shl(0x90, 0x7257616c6c657441646472657373)\n    /* \"#utility.yul\":1662:1680   */\n  0x64\n  dup3\n  add\n    /* \"#utility.yul\":1655:1699   */\n  mstore\n    /* \"#utility.yul\":1716:1735   */\n  0x84\n  add\n    /* \"smart-contract/hardhat/contracts/ClosedSurveyV3.sol\":3980:4110  require(... */\n  tag_10\n    /* \"#utility.yul\":1331:1741   */\n  jump\n    /* \"smart-contract/hardhat/contracts/ClosedSurveyV3.sol\":3980:4110  require(... */\ntag_20:\n    /* \"smart-contract/hardhat/contracts/ClosedSurveyV3.sol\":4164:4165  0 */\n  0x00\n    /* \"smart-contract/hardhat/contracts/ClosedSurveyV3.sol\":4129:4161  _rewardAmountPerParticipantInWei */\n  dup4\n    /* \"smart-contract/hardhat/contracts/ClosedSurveyV3.sol\":4129:4165  _rewardAmountPerParticipantInWei > 0 */\n  gt\n    /* \"smart-contract/hardhat/contracts/ClosedSurveyV3.sol\":4121:4191  require(_rewardAmountPerParticipantInWei > 0, \"Invalid reward amount\") */\n  tag_23\n  jumpi\n  mload(0x40)\n  shl(0xe5, 0x461bcd)\n  dup2\n  mstore\n    /* \"#utility.yul\":1948:1950   */\n  0x20\n    /* \"smart-contract/hardhat/contracts/ClosedSurveyV3.sol\":4121:4191  require(_rewardAmountPerParticipantInWei > 0, \"Invalid reward amount\") */\n  0x04\n  dup3\n  add\n    /* \"#utility.yul\":1930:1951   */\n  mstore\n    /* \"#utility.yul\":1987:1989   */\n  0x15\n    /* \"#utility.yul\":1967:1985   */\n  0x24\n  dup3\n  add\n    /* \"#utility.yul\":1960:1990   */\n  mstore\n    /* \"#utility.yul\":2026:2049   */\n  0x496e76616c69642072657761726420616d6f756e740000000000000000000000\n    /* \"#utility.yul\":2006:2024   */\n  0x44\n  dup3\n  add\n    /* \"#utility.yul\":1999:2050   */\n  mstore\n    /* \"#utility.yul\":2067:2085   */\n  0x64\n  add\n    /* \"smart-contract/hardhat/contracts/ClosedSurveyV3.sol\":4121:4191  require(_rewardAmountPerParticipantInWei > 0, \"Invalid reward amount\") */\n  tag_10\n    /* \"#utility.yul\":1746:2091   */\n  jump\n    /* \"smart-contract/hardhat/contracts/ClosedSurveyV3.sol\":4121:4191  require(_rewardAmountPerParticipantInWei > 0, \"Invalid reward amount\") */\ntag_23:\n    /* \"smart-contract/hardhat/contracts/ClosedSurveyV3.sol\":4253:4254  0 */\n  0x00\n    /* \"smart-contract/hardhat/contracts/ClosedSurveyV3.sol\":4223:4250  _targetNumberOfParticipants */\n  dup3\n    /* \"smart-contract/hardhat/contracts/ClosedSurveyV3.sol\":4223:4254  _targetNumberOfParticipants > 0 */\n  gt\n    /* \"smart-contract/hardhat/contracts/ClosedSurveyV3.sol\":4202:4317  require(... */\n  tag_26\n  jumpi\n  mload(0x40)\n  shl(0xe5, 0x461bcd)\n  dup2\n  mstore\n    /* \"#utility.yul\":2298:2300   */\n  0x20\n    /* \"smart-contract/hardhat/contracts/ClosedSurveyV3.sol\":4202:4317  require(... */\n  0x04\n  dup3\n  add\n    /* \"#utility.yul\":2280:2301   */\n  mstore\n    /* \"#utility.yul\":2337:2339   */\n  0x25\n    /* \"#utility.yul\":2317:2335   */\n  0x24\n  dup3\n  add\n    /* \"#utility.yul\":2310:2340   */\n  mstore\n    /* \"#utility.yul\":2376:2410   */\n  0x496e76616c6964206e756d626572206f66207461726765742070617274696369\n    /* \"#utility.yul\":2356:2374   */\n  0x44\n  dup3\n  add\n    /* \"#utility.yul\":2349:2411   */\n  mstore\n  shl(0xd8, 0x70616e7473)\n    /* \"#utility.yul\":2427:2445   */\n  0x64\n  dup3\n  add\n    /* \"#utility.yul\":2420:2455   */\n  mstore\n    /* \"#utility.yul\":2472:2491   */\n  0x84\n  add\n    /* \"smart-contract/hardhat/contracts/ClosedSurveyV3.sol\":4202:4317  require(... */\n  tag_10\n    /* \"#utility.yul\":2096:2497   */\n  jump\n    /* \"smart-contract/hardhat/contracts/ClosedSurveyV3.sol\":4202:4317  require(... */\ntag_26:\n  sub(shl(0xa0, 0x01), 0x01)\n    /* \"smart-contract/hardhat/contracts/ClosedSurveyV3.sol\":4328:4367  cUSD = IERC20Metadata(cUSDTokenAddress) */\n  and\n  0x80\n  mstore\n    /* \"smart-contract/hardhat/contracts/ClosedSurveyV3.sol\":4378:4409  rewardAmountPerParticipantInWei */\n  0x06\n    /* \"smart-contract/hardhat/contracts/ClosedSurveyV3.sol\":4378:4444  rewardAmountPerParticipantInWei = _rewardAmountPerParticipantInWei */\n  swap2\n  swap1\n  swap2\n  sstore\n    /* \"smart-contract/hardhat/contracts/ClosedSurveyV3.sol\":4454:4480  targetNumberOfParticipants */\n  0x07\n    /* \"smart-contract/hardhat/contracts/ClosedSurveyV3.sol\":4454:4510  targetNumberOfParticipants = _targetNumberOfParticipants */\n  sstore\n  pop\n    /* \"smart-contract/hardhat/contracts/ClosedSurveyV3.sol\":330:10485  contract ClosedSurveyV3 is Ownable, ReentrancyGuard, Pausable {... */\n  jump(tag_32)\n    /* \"@openzeppelin/contracts/access/Ownable.sol\":2912:3099  function _transferOwnership(address newOwner) internal virtual {... */\ntag_13:\n    /* \"@openzeppelin/contracts/access/Ownable.sol\":2985:3001  address oldOwner */\n  0x00\n    /* \"@openzeppelin/contracts/access/Ownable.sol\":3004:3010  _owner */\n  dup1\n  sload\n  sub(shl(0xa0, 0x01), 0x01)\n    /* \"@openzeppelin/contracts/access/Ownable.sol\":3020:3037  _owner = newOwner */\n  dup4\n  dup2\n  and\n  not(sub(shl(0xa0, 0x01), 0x01))\n  dup4\n  and\n  dup2\n  or\n  dup5\n  sstore\n    /* \"@openzeppelin/contracts/access/Ownable.sol\":3052:3092  OwnershipTransferred(oldOwner, newOwner) */\n  mload(0x40)\n    /* \"@openzeppelin/contracts/access/Ownable.sol\":3004:3010  _owner */\n  swap2\n  swap1\n  swap3\n  and\n  swap3\n  dup4\n  swap2\n    /* \"@openzeppelin/contracts/access/Ownable.sol\":3052:3092  OwnershipTransferred(oldOwner, newOwner) */\n  0x8be0079c531659141344cd1fd0a4f28419497f9722a3daafe3b4186f6b6457e0\n  swap2\n    /* \"@openzeppelin/contracts/access/Ownable.sol\":2985:3001  address oldOwner */\n  swap1\n    /* \"@openzeppelin/contracts/access/Ownable.sol\":3052:3092  OwnershipTransferred(oldOwner, newOwner) */\n  log3\n    /* \"@openzeppelin/contracts/access/Ownable.sol\":2975:3099  {... */\n  pop\n    /* \"@openzeppelin/contracts/access/Ownable.sol\":2912:3099  function _transferOwnership(address newOwner) internal virtual {... */\n  pop\n  jump\t// out\n    /* \"#utility.yul\":14:191   */\ntag_31:\n    /* \"#utility.yul\":93:106   */\n  dup1\n  mload\n  sub(shl(0xa0, 0x01), 0x01)\n    /* \"#utility.yul\":135:166   */\n  dup2\n  and\n    /* \"#utility.yul\":125:167   */\n  dup2\n  eq\n    /* \"#utility.yul\":115:185   */\n  tag_34\n  jumpi\n    /* \"#utility.yul\":181:182   */\n  0x00\n    /* \"#utility.yul\":178:179   */\n  dup1\n    /* \"#utility.yul\":171:183   */\n  revert\n    /* \"#utility.yul\":115:185   */\ntag_34:\n    /* \"#utility.yul\":14:191   */\n  swap2\n  swap1\n  pop\n  jump\t// out\n    /* \"#utility.yul\":196:710   */\ntag_3:\n    /* \"#utility.yul\":293:299   */\n  0x00\n    /* \"#utility.yul\":301:307   */\n  dup1\n    /* \"#utility.yul\":309:315   */\n  0x00\n    /* \"#utility.yul\":317:323   */\n  dup1\n    /* \"#utility.yul\":370:373   */\n  0x80\n    /* \"#utility.yul\":358:367   */\n  dup6\n    /* \"#utility.yul\":349:356   */\n  dup8\n    /* \"#utility.yul\":345:368   */\n  sub\n    /* \"#utility.yul\":341:374   */\n  slt\n    /* \"#utility.yul\":338:391   */\n  iszero\n  tag_36\n  jumpi\n    /* \"#utility.yul\":387:388   */\n  0x00\n    /* \"#utility.yul\":384:385   */\n  dup1\n    /* \"#utility.yul\":377:389   */\n  revert\n    /* \"#utility.yul\":338:391   */\ntag_36:\n    /* \"#utility.yul\":410:450   */\n  tag_37\n    /* \"#utility.yul\":440:449   */\n  dup6\n    /* \"#utility.yul\":410:450   */\n  tag_31\n  jump\t// in\ntag_37:\n    /* \"#utility.yul\":512:514   */\n  0x20\n    /* \"#utility.yul\":497:515   */\n  dup7\n  add\n    /* \"#utility.yul\":491:516   */\n  mload\n    /* \"#utility.yul\":606:608   */\n  0x40\n    /* \"#utility.yul\":591:609   */\n  dup8\n  add\n    /* \"#utility.yul\":585:610   */\n  mload\n    /* \"#utility.yul\":400:450   */\n  swap2\n  swap6\n  pop\n    /* \"#utility.yul\":491:516   */\n  swap4\n  pop\n    /* \"#utility.yul\":585:610   */\n  swap2\n  pop\n    /* \"#utility.yul\":655:704   */\n  tag_38\n    /* \"#utility.yul\":700:702   */\n  0x60\n    /* \"#utility.yul\":685:703   */\n  dup7\n  add\n    /* \"#utility.yul\":655:704   */\n  tag_31\n  jump\t// in\ntag_38:\n    /* \"#utility.yul\":645:704   */\n  swap1\n  pop\n    /* \"#utility.yul\":196:710   */\n  swap3\n  swap6\n  swap2\n  swap5\n  pop\n  swap3\n  pop\n  jump\t// out\n    /* \"#utility.yul\":2096:2497   */\ntag_32:\n    /* \"smart-contract/hardhat/contracts/ClosedSurveyV3.sol\":330:10485  contract ClosedSurveyV3 is Ownable, ReentrancyGuard, Pausable {... */\n  mload(0x80)\n  codecopy(0x00, dataOffset(sub_0), dataSize(sub_0))\n  0x00\n  assignImmutable(\"0x4ce4dab4689da140a0c12de1a6af6b8f679594aeb723205f513e052d27f5b26f\")\n  return(0x00, dataSize(sub_0))\nstop\n\nsub_0: assembly {\n        /* \"smart-contract/hardhat/contracts/ClosedSurveyV3.sol\":330:10485  contract ClosedSurveyV3 is Ownable, ReentrancyGuard, Pausable {... */\n      mstore(0x40, 0x80)\n      callvalue\n      dup1\n      iszero\n      tag_1\n      jumpi\n      0x00\n      dup1\n      revert\n    tag_1:\n      pop\n      jumpi(tag_2, lt(calldatasize, 0x04))\n      shr(0xe0, calldataload(0x00))\n      dup1\n      0x715018a6\n      gt\n      tag_28\n      jumpi\n      dup1\n      0xa6a09811\n      gt\n      tag_29\n      jumpi\n      dup1\n      0xea1dd101\n      gt\n      tag_30\n      jumpi\n      dup1\n      0xea1dd101\n      eq\n      tag_24\n      jumpi\n      dup1\n      0xf22069df\n      eq\n      tag_25\n      jumpi\n      dup1\n      0xf2fde38b\n      eq\n      tag_26\n      jumpi\n      dup1\n      0xf67ae941\n      eq\n      tag_27\n      jumpi\n      0x00\n      dup1\n      revert\n    tag_30:\n      dup1\n      0xa6a09811\n      eq\n      tag_21\n      jumpi\n      dup1\n      0xd4bfbd41\n      eq\n      tag_22\n      jumpi\n      dup1\n      0xe082fe2a\n      eq\n      tag_23\n      jumpi\n      0x00\n      dup1\n      revert\n    tag_29:\n      dup1\n      0x715018a6\n      eq\n      tag_15\n      jumpi\n      dup1\n      0x741ae614\n      eq\n      tag_16\n      jumpi\n      dup1\n      0x7a0abf08\n      eq\n      tag_17\n      jumpi\n      dup1\n      0x8c0a0966\n      eq\n      tag_18\n      jumpi\n      dup1\n      0x8da5cb5b\n      eq\n      tag_19\n      jumpi\n      dup1\n      0xa0858343\n      eq\n      tag_20\n      jumpi\n      0x00\n      dup1\n      revert\n    tag_28:\n      dup1\n      0x5c975abb\n      gt\n      tag_31\n      jumpi\n      dup1\n      0x5c975abb\n      eq\n      tag_9\n      jumpi\n      dup1\n      0x64751f22\n      eq\n      tag_10\n      jumpi\n      dup1\n      0x64bb632f\n      eq\n      tag_11\n      jumpi\n      dup1\n      0x6fa1c59d\n      eq\n      tag_12\n      jumpi\n      dup1\n      0x6ff65c20\n      eq\n      tag_13\n      jumpi\n      dup1\n      0x7069243c\n      eq\n      tag_14\n      jumpi\n      0x00\n      dup1\n      revert\n    tag_31:\n      dup1\n      0x047bc438\n      eq\n      tag_3\n      jumpi\n      dup1\n      0x1fccf672\n      eq\n      tag_4\n      jumpi\n      dup1\n      0x28a2355b\n      eq\n      tag_5\n      jumpi\n      dup1\n      0x3960fc66\n      eq\n      tag_6\n      jumpi\n      dup1\n      0x4074be40\n      eq\n      tag_7\n      jumpi\n      dup1\n      0x528780cc\n      eq\n      tag_8\n      jumpi\n    tag_2:\n      0x00\n      dup1\n      revert\n        /* \"smart-contract/hardhat/contracts/ClosedSurveyV3.sol\":789:835  uint256 public numberOfWhitelistedParticipants */\n    tag_3:\n      tag_32\n      sload(0x09)\n      dup2\n      jump\n    tag_32:\n      mload(0x40)\n        /* \"#utility.yul\":160:185   */\n      swap1\n      dup2\n      mstore\n        /* \"#utility.yul\":148:150   */\n      0x20\n        /* \"#utility.yul\":133:151   */\n      add\n        /* \"smart-contract/hardhat/contracts/ClosedSurveyV3.sol\":789:835  uint256 public numberOfWhitelistedParticipants */\n    tag_34:\n      mload(0x40)\n      dup1\n      swap2\n      sub\n      swap1\n      return\n        /* \"smart-contract/hardhat/contracts/ClosedSurveyV3.sol\":398:434  IERC20Metadata public immutable cUSD */\n    tag_4:\n      tag_36\n      immutable(\"0x4ce4dab4689da140a0c12de1a6af6b8f679594aeb723205f513e052d27f5b26f\")\n      dup2\n      jump\n    tag_36:\n      mload(0x40)\n      sub(shl(0xa0, 0x01), 0x01)\n        /* \"#utility.yul\":382:414   */\n      swap1\n      swap2\n      and\n        /* \"#utility.yul\":364:415   */\n      dup2\n      mstore\n        /* \"#utility.yul\":352:354   */\n      0x20\n        /* \"#utility.yul\":337:355   */\n      add\n        /* \"smart-contract/hardhat/contracts/ClosedSurveyV3.sol\":398:434  IERC20Metadata public immutable cUSD */\n      tag_34\n        /* \"#utility.yul\":196:421   */\n      jump\n        /* \"smart-contract/hardhat/contracts/ClosedSurveyV3.sol\":10322:10483  function getNumberOfWhitelistedParticipants()... */\n    tag_5:\n        /* \"smart-contract/hardhat/contracts/ClosedSurveyV3.sol\":10445:10476  numberOfWhitelistedParticipants */\n      sload(0x09)\n        /* \"smart-contract/hardhat/contracts/ClosedSurveyV3.sol\":10322:10483  function getNumberOfWhitelistedParticipants()... */\n      jump(tag_32)\n        /* \"smart-contract/hardhat/contracts/ClosedSurveyV3.sol\":9171:9242  function unpauseSurvey() external onlyOwner {... */\n    tag_6:\n      tag_43\n      tag_44\n      jump\t// in\n    tag_43:\n      stop\n        /* \"smart-contract/hardhat/contracts/ClosedSurveyV3.sol\":841:884  uint256 public numberOfScreenedParticipants */\n    tag_7:\n      tag_32\n      sload(0x0a)\n      dup2\n      jump\n        /* \"smart-contract/hardhat/contracts/ClosedSurveyV3.sol\":8466:9092  function updateTargetNumberOfParticipants(... */\n    tag_8:\n      tag_43\n      tag_49\n      calldatasize\n      0x04\n      tag_50\n      jump\t// in\n    tag_49:\n      tag_51\n      jump\t// in\n        /* \"@openzeppelin/contracts/utils/Pausable.sol\":1850:1934  function paused() public view virtual returns (bool) {... */\n    tag_9:\n        /* \"@openzeppelin/contracts/utils/Pausable.sol\":1920:1927  _paused */\n      and(0xff, sload(0x02))\n        /* \"@openzeppelin/contracts/utils/Pausable.sol\":1850:1934  function paused() public view virtual returns (bool) {... */\n    tag_52:\n      mload(0x40)\n        /* \"#utility.yul\":776:790   */\n      swap1\n      iszero\n        /* \"#utility.yul\":769:791   */\n      iszero\n        /* \"#utility.yul\":751:792   */\n      dup2\n      mstore\n        /* \"#utility.yul\":739:741   */\n      0x20\n        /* \"#utility.yul\":724:742   */\n      add\n        /* \"@openzeppelin/contracts/utils/Pausable.sol\":1850:1934  function paused() public view virtual returns (bool) {... */\n      tag_34\n        /* \"#utility.yul\":611:798   */\n      jump\n        /* \"smart-contract/hardhat/contracts/ClosedSurveyV3.sol\":5026:5484  function whitelistParticipant(address participantWalletAddress)... */\n    tag_10:\n      tag_43\n      tag_57\n      calldatasize\n      0x04\n      tag_58\n      jump\t// in\n    tag_57:\n      tag_59\n      jump\t// in\n        /* \"smart-contract/hardhat/contracts/ClosedSurveyV3.sol\":7815:8460  function updateRewardAmountPerParticipant(... */\n    tag_11:\n      tag_43\n      tag_61\n      calldatasize\n      0x04\n      tag_50\n      jump\t// in\n    tag_61:\n      tag_62\n      jump\t// in\n        /* \"smart-contract/hardhat/contracts/ClosedSurveyV3.sol\":10193:10316  function getTargetNumberOfParticipants() external view returns (uint256) {... */\n    tag_12:\n        /* \"smart-contract/hardhat/contracts/ClosedSurveyV3.sol\":10283:10309  targetNumberOfParticipants */\n      sload(0x07)\n        /* \"smart-contract/hardhat/contracts/ClosedSurveyV3.sol\":10193:10316  function getTargetNumberOfParticipants() external view returns (uint256) {... */\n      jump(tag_32)\n        /* \"smart-contract/hardhat/contracts/ClosedSurveyV3.sol\":9248:9446  function checkIfParticipantHasAlreadyClaimedReward(... */\n    tag_13:\n      tag_52\n      tag_67\n      calldatasize\n      0x04\n      tag_58\n      jump\t// in\n    tag_67:\n      sub(shl(0xa0, 0x01), 0x01)\n        /* \"smart-contract/hardhat/contracts/ClosedSurveyV3.sol\":9393:9439  rewardedParticipants[participantWalletAddress] */\n      and\n        /* \"smart-contract/hardhat/contracts/ClosedSurveyV3.sol\":9370:9374  bool */\n      0x00\n        /* \"smart-contract/hardhat/contracts/ClosedSurveyV3.sol\":9393:9439  rewardedParticipants[participantWalletAddress] */\n      swap1\n      dup2\n      mstore\n        /* \"smart-contract/hardhat/contracts/ClosedSurveyV3.sol\":9393:9413  rewardedParticipants */\n      0x04\n        /* \"smart-contract/hardhat/contracts/ClosedSurveyV3.sol\":9393:9439  rewardedParticipants[participantWalletAddress] */\n      0x20\n      mstore\n      0x40\n      swap1\n      keccak256\n      sload\n      0xff\n      and\n      swap1\n        /* \"smart-contract/hardhat/contracts/ClosedSurveyV3.sol\":9248:9446  function checkIfParticipantHasAlreadyClaimedReward(... */\n      jump\n        /* \"smart-contract/hardhat/contracts/ClosedSurveyV3.sol\":9893:10054  function getRewardAmountPerParticipantInWei()... */\n    tag_14:\n        /* \"smart-contract/hardhat/contracts/ClosedSurveyV3.sol\":10016:10047  rewardAmountPerParticipantInWei */\n      sload(0x06)\n        /* \"smart-contract/hardhat/contracts/ClosedSurveyV3.sol\":9893:10054  function getRewardAmountPerParticipantInWei()... */\n      jump(tag_32)\n        /* \"@openzeppelin/contracts/access/Ownable.sol\":2293:2394  function renounceOwnership() public virtual onlyOwner {... */\n    tag_15:\n      tag_43\n      tag_74\n      jump\t// in\n        /* \"smart-contract/hardhat/contracts/ClosedSurveyV3.sol\":10060:10187  function getNumberOfRewardedParticipants() external view returns (uint256) {... */\n    tag_16:\n        /* \"smart-contract/hardhat/contracts/ClosedSurveyV3.sol\":10152:10180  numberOfRewardedParticipants */\n      sload(0x08)\n        /* \"smart-contract/hardhat/contracts/ClosedSurveyV3.sol\":10060:10187  function getNumberOfRewardedParticipants() external view returns (uint256) {... */\n      jump(tag_32)\n        /* \"smart-contract/hardhat/contracts/ClosedSurveyV3.sol\":640:686  uint256 public rewardAmountPerParticipantInWei */\n    tag_17:\n      tag_32\n      sload(0x06)\n      dup2\n      jump\n        /* \"smart-contract/hardhat/contracts/ClosedSurveyV3.sol\":9672:9887  function checkIfParticipantIsBlacklisted(address participantWalletAddress)... */\n    tag_18:\n      tag_52\n      tag_82\n      calldatasize\n      0x04\n      tag_58\n      jump\t// in\n    tag_82:\n      sub(shl(0xa0, 0x01), 0x01)\n        /* \"smart-contract/hardhat/contracts/ClosedSurveyV3.sol\":9822:9880  participantsWhitelistedForSurvey[participantWalletAddress] */\n      and\n        /* \"smart-contract/hardhat/contracts/ClosedSurveyV3.sol\":9794:9798  bool */\n      0x00\n        /* \"smart-contract/hardhat/contracts/ClosedSurveyV3.sol\":9822:9880  participantsWhitelistedForSurvey[participantWalletAddress] */\n      swap1\n      dup2\n      mstore\n        /* \"smart-contract/hardhat/contracts/ClosedSurveyV3.sol\":9822:9854  participantsWhitelistedForSurvey */\n      0x03\n        /* \"smart-contract/hardhat/contracts/ClosedSurveyV3.sol\":9822:9880  participantsWhitelistedForSurvey[participantWalletAddress] */\n      0x20\n      mstore\n      0x40\n      swap1\n      keccak256\n      sload\n      0xff\n      and\n        /* \"smart-contract/hardhat/contracts/ClosedSurveyV3.sol\":9821:9880  !participantsWhitelistedForSurvey[participantWalletAddress] */\n      iszero\n      swap1\n        /* \"smart-contract/hardhat/contracts/ClosedSurveyV3.sol\":9672:9887  function checkIfParticipantIsBlacklisted(address participantWalletAddress)... */\n      jump\n        /* \"@openzeppelin/contracts/access/Ownable.sol\":1638:1723  function owner() public view virtual returns (address) {... */\n    tag_19:\n        /* \"@openzeppelin/contracts/access/Ownable.sol\":1684:1691  address */\n      0x00\n        /* \"@openzeppelin/contracts/access/Ownable.sol\":1710:1716  _owner */\n      sload\n      sub(shl(0xa0, 0x01), 0x01)\n      and\n        /* \"@openzeppelin/contracts/access/Ownable.sol\":1638:1723  function owner() public view virtual returns (address) {... */\n      jump(tag_36)\n        /* \"smart-contract/hardhat/contracts/ClosedSurveyV3.sol\":5986:6590  function processRewardClaimByParticipant(address walletAddress)... */\n    tag_20:\n      tag_43\n      tag_90\n      calldatasize\n      0x04\n      tag_58\n      jump\t// in\n    tag_90:\n      tag_91\n      jump\t// in\n        /* \"smart-contract/hardhat/contracts/ClosedSurveyV3.sol\":692:733  uint256 public targetNumberOfParticipants */\n    tag_21:\n      tag_32\n      sload(0x07)\n      dup2\n      jump\n        /* \"smart-contract/hardhat/contracts/ClosedSurveyV3.sol\":9452:9666  function checkIfParticipantIsWhitelisted(address participantWalletAddress)... */\n    tag_22:\n      tag_52\n      tag_96\n      calldatasize\n      0x04\n      tag_58\n      jump\t// in\n    tag_96:\n      sub(shl(0xa0, 0x01), 0x01)\n        /* \"smart-contract/hardhat/contracts/ClosedSurveyV3.sol\":9601:9659  participantsWhitelistedForSurvey[participantWalletAddress] */\n      and\n        /* \"smart-contract/hardhat/contracts/ClosedSurveyV3.sol\":9574:9578  bool */\n      0x00\n        /* \"smart-contract/hardhat/contracts/ClosedSurveyV3.sol\":9601:9659  participantsWhitelistedForSurvey[participantWalletAddress] */\n      swap1\n      dup2\n      mstore\n        /* \"smart-contract/hardhat/contracts/ClosedSurveyV3.sol\":9601:9633  participantsWhitelistedForSurvey */\n      0x03\n        /* \"smart-contract/hardhat/contracts/ClosedSurveyV3.sol\":9601:9659  participantsWhitelistedForSurvey[participantWalletAddress] */\n      0x20\n      mstore\n      0x40\n      swap1\n      keccak256\n      sload\n      0xff\n      and\n      swap1\n        /* \"smart-contract/hardhat/contracts/ClosedSurveyV3.sol\":9452:9666  function checkIfParticipantIsWhitelisted(address participantWalletAddress)... */\n      jump\n        /* \"smart-contract/hardhat/contracts/ClosedSurveyV3.sol\":9098:9165  function pauseSurvey() external onlyOwner {... */\n    tag_23:\n      tag_43\n      tag_100\n      jump\t// in\n        /* \"smart-contract/hardhat/contracts/ClosedSurveyV3.sol\":4523:5020  function screenParticipant(address participantWalletAddress)... */\n    tag_24:\n      tag_43\n      tag_102\n      calldatasize\n      0x04\n      tag_58\n      jump\t// in\n    tag_102:\n      tag_103\n      jump\t// in\n        /* \"smart-contract/hardhat/contracts/ClosedSurveyV3.sol\":7432:7809  function withdrawAllRewardFundsToResearcher()... */\n    tag_25:\n      tag_43\n      tag_105\n      jump\t// in\n        /* \"@openzeppelin/contracts/access/Ownable.sol\":2543:2758  function transferOwnership(address newOwner) public virtual onlyOwner {... */\n    tag_26:\n      tag_43\n      tag_107\n      calldatasize\n      0x04\n      tag_58\n      jump\t// in\n    tag_107:\n      tag_108\n      jump\t// in\n        /* \"smart-contract/hardhat/contracts/ClosedSurveyV3.sol\":5490:5980  function blacklistWhitelistedParticipant(address participantWalletAddress)... */\n    tag_27:\n      tag_43\n      tag_110\n      calldatasize\n      0x04\n      tag_58\n      jump\t// in\n    tag_110:\n      tag_111\n      jump\t// in\n        /* \"smart-contract/hardhat/contracts/ClosedSurveyV3.sol\":9171:9242  function unpauseSurvey() external onlyOwner {... */\n    tag_44:\n        /* \"@openzeppelin/contracts/access/Ownable.sol\":1531:1544  _checkOwner() */\n      tag_114\n        /* \"@openzeppelin/contracts/access/Ownable.sol\":1531:1542  _checkOwner */\n      tag_115\n        /* \"@openzeppelin/contracts/access/Ownable.sol\":1531:1544  _checkOwner() */\n      jump\t// in\n    tag_114:\n        /* \"smart-contract/hardhat/contracts/ClosedSurveyV3.sol\":9225:9235  _unpause() */\n      tag_117\n        /* \"smart-contract/hardhat/contracts/ClosedSurveyV3.sol\":9225:9233  _unpause */\n      tag_118\n        /* \"smart-contract/hardhat/contracts/ClosedSurveyV3.sol\":9225:9235  _unpause() */\n      jump\t// in\n    tag_117:\n        /* \"smart-contract/hardhat/contracts/ClosedSurveyV3.sol\":9171:9242  function unpauseSurvey() external onlyOwner {... */\n      jump\t// out\n        /* \"smart-contract/hardhat/contracts/ClosedSurveyV3.sol\":8466:9092  function updateTargetNumberOfParticipants(... */\n    tag_51:\n        /* \"@openzeppelin/contracts/access/Ownable.sol\":1531:1544  _checkOwner() */\n      tag_120\n        /* \"@openzeppelin/contracts/access/Ownable.sol\":1531:1542  _checkOwner */\n      tag_115\n        /* \"@openzeppelin/contracts/access/Ownable.sol\":1531:1544  _checkOwner() */\n      jump\t// in\n    tag_120:\n        /* \"smart-contract/hardhat/contracts/ClosedSurveyV3.sol\":8612:8642  _newTargetNumberOfParticipants */\n      dup1\n        /* \"smart-contract/hardhat/contracts/ClosedSurveyV3.sol\":8646:8647  0 */\n      0x00\n        /* \"smart-contract/hardhat/contracts/ClosedSurveyV3.sol\":8612:8647  _newTargetNumberOfParticipants != 0 */\n      sub\n        /* \"smart-contract/hardhat/contracts/ClosedSurveyV3.sol\":8591:8713  require(... */\n      tag_122\n      jumpi\n      mload(0x40)\n      shl(0xe5, 0x461bcd)\n      dup2\n      mstore\n        /* \"#utility.yul\":1504:1506   */\n      0x20\n        /* \"smart-contract/hardhat/contracts/ClosedSurveyV3.sol\":8591:8713  require(... */\n      0x04\n      dup3\n      add\n        /* \"#utility.yul\":1486:1507   */\n      mstore\n        /* \"#utility.yul\":1543:1545   */\n      0x28\n        /* \"#utility.yul\":1523:1541   */\n      0x24\n      dup3\n      add\n        /* \"#utility.yul\":1516:1546   */\n      mstore\n        /* \"#utility.yul\":1582:1616   */\n      0x5a65726f206e756d626572206f6620746172676574207061727469636970616e\n        /* \"#utility.yul\":1562:1580   */\n      0x44\n      dup3\n      add\n        /* \"#utility.yul\":1555:1617   */\n      mstore\n      shl(0xc1, 0x3a399033b4bb32b7)\n        /* \"#utility.yul\":1633:1651   */\n      0x64\n      dup3\n      add\n        /* \"#utility.yul\":1626:1664   */\n      mstore\n        /* \"#utility.yul\":1681:1700   */\n      0x84\n      add\n        /* \"smart-contract/hardhat/contracts/ClosedSurveyV3.sol\":8591:8713  require(... */\n    tag_123:\n      mload(0x40)\n      dup1\n      swap2\n      sub\n      swap1\n      revert\n    tag_122:\n        /* \"smart-contract/hardhat/contracts/ClosedSurveyV3.sol\":8764:8790  targetNumberOfParticipants */\n      0x07\n      dup1\n      sload\n        /* \"smart-contract/hardhat/contracts/ClosedSurveyV3.sol\":8882:8940  targetNumberOfParticipants = newTargetNumberOfParticipants */\n      swap1\n      dup3\n      swap1\n      sstore\n        /* \"smart-contract/hardhat/contracts/ClosedSurveyV3.sol\":8956:9085  TargetNumberOfParticipantsUpdated(... */\n      0x40\n      dup1\n      mload\n        /* \"#utility.yul\":1885:1910   */\n      dup3\n      dup2\n      mstore\n        /* \"#utility.yul\":1941:1943   */\n      0x20\n        /* \"#utility.yul\":1926:1944   */\n      dup2\n      add\n        /* \"#utility.yul\":1919:1953   */\n      dup5\n      swap1\n      mstore\n        /* \"smart-contract/hardhat/contracts/ClosedSurveyV3.sol\":8882:8940  targetNumberOfParticipants = newTargetNumberOfParticipants */\n      dup4\n      swap2\n        /* \"smart-contract/hardhat/contracts/ClosedSurveyV3.sol\":8956:9085  TargetNumberOfParticipantsUpdated(... */\n      0xb90f11d36a1f2ec1f3b89ac87ccd1ffab1a49f3e3ca83cfdac21fd99a537cbc1\n      swap2\n        /* \"#utility.yul\":1858:1876   */\n      add\n        /* \"smart-contract/hardhat/contracts/ClosedSurveyV3.sol\":8956:9085  TargetNumberOfParticipantsUpdated(... */\n    tag_125:\n      mload(0x40)\n      dup1\n      swap2\n      sub\n      swap1\n      log1\n        /* \"smart-contract/hardhat/contracts/ClosedSurveyV3.sol\":8581:9092  {... */\n      pop\n      pop\n        /* \"smart-contract/hardhat/contracts/ClosedSurveyV3.sol\":8466:9092  function updateTargetNumberOfParticipants(... */\n      pop\n      jump\t// out\n        /* \"smart-contract/hardhat/contracts/ClosedSurveyV3.sol\":5026:5484  function whitelistParticipant(address participantWalletAddress)... */\n    tag_59:\n        /* \"@openzeppelin/contracts/access/Ownable.sol\":1531:1544  _checkOwner() */\n      tag_129\n        /* \"@openzeppelin/contracts/access/Ownable.sol\":1531:1542  _checkOwner */\n      tag_115\n        /* \"@openzeppelin/contracts/access/Ownable.sol\":1531:1544  _checkOwner() */\n      jump\t// in\n    tag_129:\n      sub(shl(0xa0, 0x01), 0x01)\n        /* \"smart-contract/hardhat/contracts/ClosedSurveyV3.sol\":2035:2093  participantsWhitelistedForSurvey[participantWalletAddress] */\n      dup2\n      and\n      0x00\n      swap1\n      dup2\n      mstore\n        /* \"smart-contract/hardhat/contracts/ClosedSurveyV3.sol\":2035:2067  participantsWhitelistedForSurvey */\n      0x03\n        /* \"smart-contract/hardhat/contracts/ClosedSurveyV3.sol\":2035:2093  participantsWhitelistedForSurvey[participantWalletAddress] */\n      0x20\n      mstore\n      0x40\n      swap1\n      keccak256\n      sload\n        /* \"smart-contract/hardhat/contracts/ClosedSurveyV3.sol\":5151:5175  participantWalletAddress */\n      dup2\n      swap1\n        /* \"smart-contract/hardhat/contracts/ClosedSurveyV3.sol\":2035:2093  participantsWhitelistedForSurvey[participantWalletAddress] */\n      0xff\n      and\n        /* \"smart-contract/hardhat/contracts/ClosedSurveyV3.sol\":2034:2093  !participantsWhitelistedForSurvey[participantWalletAddress] */\n      iszero\n        /* \"smart-contract/hardhat/contracts/ClosedSurveyV3.sol\":2013:2138  require(... */\n      tag_131\n      jumpi\n      mload(0x40)\n      shl(0xe5, 0x461bcd)\n      dup2\n      mstore\n        /* \"#utility.yul\":2166:2168   */\n      0x20\n        /* \"smart-contract/hardhat/contracts/ClosedSurveyV3.sol\":2013:2138  require(... */\n      0x04\n      dup3\n      add\n        /* \"#utility.yul\":2148:2169   */\n      mstore\n        /* \"#utility.yul\":2205:2207   */\n      0x13\n        /* \"#utility.yul\":2185:2203   */\n      0x24\n      dup3\n      add\n        /* \"#utility.yul\":2178:2208   */\n      mstore\n      shl(0x6a, 0x135d5cdd08189948189b1858dadb1a5cdd1959)\n        /* \"#utility.yul\":2224:2242   */\n      0x44\n      dup3\n      add\n        /* \"#utility.yul\":2217:2266   */\n      mstore\n        /* \"#utility.yul\":2283:2301   */\n      0x64\n      add\n        /* \"smart-contract/hardhat/contracts/ClosedSurveyV3.sol\":2013:2138  require(... */\n      tag_123\n        /* \"#utility.yul\":1964:2307   */\n      jump\n        /* \"smart-contract/hardhat/contracts/ClosedSurveyV3.sol\":2013:2138  require(... */\n    tag_131:\n      sub(shl(0xa0, 0x01), 0x01)\n        /* \"smart-contract/hardhat/contracts/ClosedSurveyV3.sol\":5199:5237  participantWalletAddress != address(0) */\n      dup3\n      and\n        /* \"smart-contract/hardhat/contracts/ClosedSurveyV3.sol\":5191:5261  require(participantWalletAddress != address(0), \"Zero address passed\") */\n      tag_135\n      jumpi\n      mload(0x40)\n      shl(0xe5, 0x461bcd)\n      dup2\n      mstore\n      0x04\n      add\n      tag_123\n      swap1\n      tag_137\n      jump\t// in\n    tag_135:\n      sub(shl(0xa0, 0x01), 0x01)\n        /* \"smart-contract/hardhat/contracts/ClosedSurveyV3.sol\":5272:5330  participantsWhitelistedForSurvey[participantWalletAddress] */\n      dup3\n      and\n      0x00\n      dup2\n      dup2\n      mstore\n        /* \"smart-contract/hardhat/contracts/ClosedSurveyV3.sol\":5272:5304  participantsWhitelistedForSurvey */\n      0x03\n        /* \"smart-contract/hardhat/contracts/ClosedSurveyV3.sol\":5272:5330  participantsWhitelistedForSurvey[participantWalletAddress] */\n      0x20\n      swap1\n      dup2\n      mstore\n      0x40\n      swap2\n      dup3\n      swap1\n      keccak256\n        /* \"smart-contract/hardhat/contracts/ClosedSurveyV3.sol\":5272:5337  participantsWhitelistedForSurvey[participantWalletAddress] = true */\n      dup1\n      sload\n      not(0xff)\n      and\n        /* \"smart-contract/hardhat/contracts/ClosedSurveyV3.sol\":5333:5337  true */\n      0x01\n        /* \"smart-contract/hardhat/contracts/ClosedSurveyV3.sol\":5272:5337  participantsWhitelistedForSurvey[participantWalletAddress] = true */\n      swap1\n      dup2\n      or\n      swap1\n      swap2\n      sstore\n        /* \"smart-contract/hardhat/contracts/ClosedSurveyV3.sol\":5373:5404  numberOfWhitelistedParticipants */\n      0x09\n        /* \"smart-contract/hardhat/contracts/ClosedSurveyV3.sol\":5371:5404  ++numberOfWhitelistedParticipants */\n      dup1\n      sload\n      swap1\n      swap2\n      add\n      swap1\n      sstore\n        /* \"smart-contract/hardhat/contracts/ClosedSurveyV3.sol\":5429:5477  ParticipantWhitelisted(participantWalletAddress) */\n      swap1\n      mload\n        /* \"#utility.yul\":364:415   */\n      swap2\n      dup3\n      mstore\n        /* \"smart-contract/hardhat/contracts/ClosedSurveyV3.sol\":5429:5477  ParticipantWhitelisted(participantWalletAddress) */\n      0x84608224e0456ec7c9063f8dfd347a891979e08cb0c7d7dae9bad7bd5edb7f36\n      swap2\n        /* \"#utility.yul\":337:355   */\n      add\n        /* \"smart-contract/hardhat/contracts/ClosedSurveyV3.sol\":5429:5477  ParticipantWhitelisted(participantWalletAddress) */\n    tag_138:\n      mload(0x40)\n      dup1\n      swap2\n      sub\n      swap1\n      log1\n        /* \"@openzeppelin/contracts/access/Ownable.sol\":1554:1555  _ */\n      pop\n        /* \"smart-contract/hardhat/contracts/ClosedSurveyV3.sol\":5026:5484  function whitelistParticipant(address participantWalletAddress)... */\n      pop\n      jump\t// out\n        /* \"smart-contract/hardhat/contracts/ClosedSurveyV3.sol\":7815:8460  function updateRewardAmountPerParticipant(... */\n    tag_62:\n        /* \"@openzeppelin/contracts/access/Ownable.sol\":1531:1544  _checkOwner() */\n      tag_140\n        /* \"@openzeppelin/contracts/access/Ownable.sol\":1531:1542  _checkOwner */\n      tag_115\n        /* \"@openzeppelin/contracts/access/Ownable.sol\":1531:1544  _checkOwner() */\n      jump\t// in\n    tag_140:\n        /* \"smart-contract/hardhat/contracts/ClosedSurveyV3.sol\":7966:8001  _newRewardAmountPerParticipantInWei */\n      dup1\n        /* \"smart-contract/hardhat/contracts/ClosedSurveyV3.sol\":8005:8006  0 */\n      0x00\n        /* \"smart-contract/hardhat/contracts/ClosedSurveyV3.sol\":7966:8006  _newRewardAmountPerParticipantInWei != 0 */\n      sub\n        /* \"smart-contract/hardhat/contracts/ClosedSurveyV3.sol\":7945:8056  require(... */\n      tag_142\n      jumpi\n      mload(0x40)\n      shl(0xe5, 0x461bcd)\n      dup2\n      mstore\n        /* \"#utility.yul\":2862:2864   */\n      0x20\n        /* \"smart-contract/hardhat/contracts/ClosedSurveyV3.sol\":7945:8056  require(... */\n      0x04\n      dup3\n      add\n        /* \"#utility.yul\":2844:2865   */\n      mstore\n        /* \"#utility.yul\":2901:2903   */\n      0x18\n        /* \"#utility.yul\":2881:2899   */\n      0x24\n      dup3\n      add\n        /* \"#utility.yul\":2874:2904   */\n      mstore\n        /* \"#utility.yul\":2940:2966   */\n      0x5a65726f2072657761726420616d6f756e7420676976656e0000000000000000\n        /* \"#utility.yul\":2920:2938   */\n      0x44\n      dup3\n      add\n        /* \"#utility.yul\":2913:2967   */\n      mstore\n        /* \"#utility.yul\":2984:3002   */\n      0x64\n      add\n        /* \"smart-contract/hardhat/contracts/ClosedSurveyV3.sol\":7945:8056  require(... */\n      tag_123\n        /* \"#utility.yul\":2660:3008   */\n      jump\n        /* \"smart-contract/hardhat/contracts/ClosedSurveyV3.sol\":7945:8056  require(... */\n    tag_142:\n        /* \"smart-contract/hardhat/contracts/ClosedSurveyV3.sol\":8112:8143  rewardAmountPerParticipantInWei */\n      0x06\n      dup1\n      sload\n        /* \"smart-contract/hardhat/contracts/ClosedSurveyV3.sol\":8244:8312  rewardAmountPerParticipantInWei = newRewardAmountPerParticipantInWei */\n      swap1\n      dup3\n      swap1\n      sstore\n        /* \"smart-contract/hardhat/contracts/ClosedSurveyV3.sol\":8328:8453  RewardAmountUpdated(... */\n      0x40\n      dup1\n      mload\n        /* \"#utility.yul\":1885:1910   */\n      dup3\n      dup2\n      mstore\n        /* \"#utility.yul\":1941:1943   */\n      0x20\n        /* \"#utility.yul\":1926:1944   */\n      dup2\n      add\n        /* \"#utility.yul\":1919:1953   */\n      dup5\n      swap1\n      mstore\n        /* \"smart-contract/hardhat/contracts/ClosedSurveyV3.sol\":8244:8312  rewardAmountPerParticipantInWei = newRewardAmountPerParticipantInWei */\n      dup4\n      swap2\n        /* \"smart-contract/hardhat/contracts/ClosedSurveyV3.sol\":8328:8453  RewardAmountUpdated(... */\n      0xf0d37c3ae852021ac329281f604b658691cbfa6b9e9c22909f06b64a8ce87c94\n      swap2\n        /* \"#utility.yul\":1858:1876   */\n      add\n        /* \"smart-contract/hardhat/contracts/ClosedSurveyV3.sol\":8328:8453  RewardAmountUpdated(... */\n      tag_125\n        /* \"#utility.yul\":1711:1959   */\n      jump\n        /* \"@openzeppelin/contracts/access/Ownable.sol\":2293:2394  function renounceOwnership() public virtual onlyOwner {... */\n    tag_74:\n        /* \"@openzeppelin/contracts/access/Ownable.sol\":1531:1544  _checkOwner() */\n      tag_150\n        /* \"@openzeppelin/contracts/access/Ownable.sol\":1531:1542  _checkOwner */\n      tag_115\n        /* \"@openzeppelin/contracts/access/Ownable.sol\":1531:1544  _checkOwner() */\n      jump\t// in\n    tag_150:\n        /* \"@openzeppelin/contracts/access/Ownable.sol\":2357:2387  _transferOwnership(address(0)) */\n      tag_117\n        /* \"@openzeppelin/contracts/access/Ownable.sol\":2384:2385  0 */\n      0x00\n        /* \"@openzeppelin/contracts/access/Ownable.sol\":2357:2375  _transferOwnership */\n      tag_153\n        /* \"@openzeppelin/contracts/access/Ownable.sol\":2357:2387  _transferOwnership(address(0)) */\n      jump\t// in\n        /* \"smart-contract/hardhat/contracts/ClosedSurveyV3.sol\":5986:6590  function processRewardClaimByParticipant(address walletAddress)... */\n    tag_91:\n        /* \"@openzeppelin/contracts/utils/Pausable.sol\":1474:1493  _requireNotPaused() */\n      tag_158\n        /* \"@openzeppelin/contracts/utils/Pausable.sol\":1474:1491  _requireNotPaused */\n      tag_159\n        /* \"@openzeppelin/contracts/utils/Pausable.sol\":1474:1493  _requireNotPaused() */\n      jump\t// in\n    tag_158:\n        /* \"@openzeppelin/contracts/utils/ReentrancyGuard.sol\":2500:2521  _nonReentrantBefore() */\n      tag_161\n        /* \"@openzeppelin/contracts/utils/ReentrancyGuard.sol\":2500:2519  _nonReentrantBefore */\n      tag_162\n        /* \"@openzeppelin/contracts/utils/ReentrancyGuard.sol\":2500:2521  _nonReentrantBefore() */\n      jump\t// in\n    tag_161:\n        /* \"smart-contract/hardhat/contracts/ClosedSurveyV3.sol\":3100:3131  rewardAmountPerParticipantInWei */\n      sload(0x06)\n        /* \"smart-contract/hardhat/contracts/ClosedSurveyV3.sol\":3067:3096  cUSD.balanceOf(address(this)) */\n      mload(0x40)\n      shl(0xe0, 0x70a08231)\n      dup2\n      mstore\n        /* \"smart-contract/hardhat/contracts/ClosedSurveyV3.sol\":3090:3094  this */\n      address\n        /* \"smart-contract/hardhat/contracts/ClosedSurveyV3.sol\":3067:3096  cUSD.balanceOf(address(this)) */\n      0x04\n      dup3\n      add\n        /* \"#utility.yul\":364:415   */\n      mstore\n        /* \"smart-contract/hardhat/contracts/ClosedSurveyV3.sol\":3067:3071  cUSD */\n      immutable(\"0x4ce4dab4689da140a0c12de1a6af6b8f679594aeb723205f513e052d27f5b26f\")\n      sub(shl(0xa0, 0x01), 0x01)\n        /* \"smart-contract/hardhat/contracts/ClosedSurveyV3.sol\":3067:3081  cUSD.balanceOf */\n      and\n      swap1\n      0x70a08231\n      swap1\n        /* \"#utility.yul\":337:355   */\n      0x24\n      add\n        /* \"smart-contract/hardhat/contracts/ClosedSurveyV3.sol\":3067:3096  cUSD.balanceOf(address(this)) */\n      0x20\n      mload(0x40)\n      dup1\n      dup4\n      sub\n      dup2\n      dup7\n      gas\n      staticcall\n      iszero\n      dup1\n      iszero\n      tag_166\n      jumpi\n      returndatasize\n      0x00\n      dup1\n      returndatacopy\n      revert(0x00, returndatasize)\n    tag_166:\n      pop\n      pop\n      pop\n      pop\n      mload(0x40)\n      returndatasize\n      not(0x1f)\n      0x1f\n      dup3\n      add\n      and\n      dup3\n      add\n      dup1\n      0x40\n      mstore\n      pop\n      dup2\n      add\n      swap1\n      tag_167\n      swap2\n      swap1\n      tag_168\n      jump\t// in\n    tag_167:\n        /* \"smart-contract/hardhat/contracts/ClosedSurveyV3.sol\":3067:3131  cUSD.balanceOf(address(this)) >= rewardAmountPerParticipantInWei */\n      lt\n      iszero\n        /* \"smart-contract/hardhat/contracts/ClosedSurveyV3.sol\":3046:3191  require(... */\n      tag_169\n      jumpi\n      mload(0x40)\n      shl(0xe5, 0x461bcd)\n      dup2\n      mstore\n        /* \"#utility.yul\":3404:3406   */\n      0x20\n        /* \"smart-contract/hardhat/contracts/ClosedSurveyV3.sol\":3046:3191  require(... */\n      0x04\n      dup3\n      add\n        /* \"#utility.yul\":3386:3407   */\n      mstore\n        /* \"#utility.yul\":3443:3445   */\n      0x22\n        /* \"#utility.yul\":3423:3441   */\n      0x24\n      dup3\n      add\n        /* \"#utility.yul\":3416:3446   */\n      mstore\n        /* \"#utility.yul\":3482:3516   */\n      0x436f6e747261637420646f6573206e6f74206861766520656e6f756768206355\n        /* \"#utility.yul\":3462:3480   */\n      0x44\n      dup3\n      add\n        /* \"#utility.yul\":3455:3517   */\n      mstore\n      shl(0xf2, 0x14d1)\n        /* \"#utility.yul\":3533:3551   */\n      0x64\n      dup3\n      add\n        /* \"#utility.yul\":3526:3558   */\n      mstore\n        /* \"#utility.yul\":3575:3594   */\n      0x84\n      add\n        /* \"smart-contract/hardhat/contracts/ClosedSurveyV3.sol\":3046:3191  require(... */\n      tag_123\n        /* \"#utility.yul\":3202:3600   */\n      jump\n        /* \"smart-contract/hardhat/contracts/ClosedSurveyV3.sol\":3046:3191  require(... */\n    tag_169:\n        /* \"smart-contract/hardhat/contracts/ClosedSurveyV3.sol\":3511:3537  targetNumberOfParticipants */\n      sload(0x07)\n        /* \"smart-contract/hardhat/contracts/ClosedSurveyV3.sol\":3480:3508  numberOfRewardedParticipants */\n      sload(0x08)\n        /* \"smart-contract/hardhat/contracts/ClosedSurveyV3.sol\":3480:3537  numberOfRewardedParticipants < targetNumberOfParticipants */\n      lt\n        /* \"smart-contract/hardhat/contracts/ClosedSurveyV3.sol\":3459:3598  require(... */\n      tag_173\n      jumpi\n      mload(0x40)\n      shl(0xe5, 0x461bcd)\n      dup2\n      mstore\n        /* \"#utility.yul\":3807:3809   */\n      0x20\n        /* \"smart-contract/hardhat/contracts/ClosedSurveyV3.sol\":3459:3598  require(... */\n      0x04\n      dup3\n      add\n        /* \"#utility.yul\":3789:3810   */\n      mstore\n        /* \"#utility.yul\":3846:3848   */\n      0x23\n        /* \"#utility.yul\":3826:3844   */\n      0x24\n      dup3\n      add\n        /* \"#utility.yul\":3819:3849   */\n      mstore\n        /* \"#utility.yul\":3885:3919   */\n      0x416c6c207061727469636970616e74732068617665206265656e207265776172\n        /* \"#utility.yul\":3865:3883   */\n      0x44\n      dup3\n      add\n        /* \"#utility.yul\":3858:3920   */\n      mstore\n      shl(0xea, 0x191959)\n        /* \"#utility.yul\":3936:3954   */\n      0x64\n      dup3\n      add\n        /* \"#utility.yul\":3929:3962   */\n      mstore\n        /* \"#utility.yul\":3979:3998   */\n      0x84\n      add\n        /* \"smart-contract/hardhat/contracts/ClosedSurveyV3.sol\":3459:3598  require(... */\n      tag_123\n        /* \"#utility.yul\":3605:4004   */\n      jump\n        /* \"smart-contract/hardhat/contracts/ClosedSurveyV3.sol\":3459:3598  require(... */\n    tag_173:\n        /* \"smart-contract/hardhat/contracts/ClosedSurveyV3.sol\":6235:6248  walletAddress */\n      dup1\n        /* \"smart-contract/hardhat/contracts/ClosedSurveyV3.sol\":2913:2923  msg.sender */\n      caller\n      sub(shl(0xa0, 0x01), 0x01)\n        /* \"smart-contract/hardhat/contracts/ClosedSurveyV3.sol\":2913:2951  msg.sender == participantWalletAddress */\n      dup3\n      and\n      eq\n        /* \"smart-contract/hardhat/contracts/ClosedSurveyV3.sol\":2905:2973  require(msg.sender == participantWalletAddress, \"Only valid sender\") */\n      tag_177\n      jumpi\n      mload(0x40)\n      shl(0xe5, 0x461bcd)\n      dup2\n      mstore\n        /* \"#utility.yul\":4211:4213   */\n      0x20\n        /* \"smart-contract/hardhat/contracts/ClosedSurveyV3.sol\":2905:2973  require(msg.sender == participantWalletAddress, \"Only valid sender\") */\n      0x04\n      dup3\n      add\n        /* \"#utility.yul\":4193:4214   */\n      mstore\n        /* \"#utility.yul\":4250:4252   */\n      0x11\n        /* \"#utility.yul\":4230:4248   */\n      0x24\n      dup3\n      add\n        /* \"#utility.yul\":4223:4253   */\n      mstore\n      shl(0x79, 0x27b7363c903b30b634b21039b2b73232b9)\n        /* \"#utility.yul\":4269:4287   */\n      0x44\n      dup3\n      add\n        /* \"#utility.yul\":4262:4309   */\n      mstore\n        /* \"#utility.yul\":4326:4344   */\n      0x64\n      add\n        /* \"smart-contract/hardhat/contracts/ClosedSurveyV3.sol\":2905:2973  require(msg.sender == participantWalletAddress, \"Only valid sender\") */\n      tag_123\n        /* \"#utility.yul\":4009:4350   */\n      jump\n        /* \"smart-contract/hardhat/contracts/ClosedSurveyV3.sol\":2905:2973  require(msg.sender == participantWalletAddress, \"Only valid sender\") */\n    tag_177:\n      sub(shl(0xa0, 0x01), 0x01)\n        /* \"smart-contract/hardhat/contracts/ClosedSurveyV3.sol\":1810:1868  participantsWhitelistedForSurvey[participantWalletAddress] */\n      dup3\n      and\n      0x00\n      swap1\n      dup2\n      mstore\n        /* \"smart-contract/hardhat/contracts/ClosedSurveyV3.sol\":1810:1842  participantsWhitelistedForSurvey */\n      0x03\n        /* \"smart-contract/hardhat/contracts/ClosedSurveyV3.sol\":1810:1868  participantsWhitelistedForSurvey[participantWalletAddress] */\n      0x20\n      mstore\n      0x40\n      swap1\n      keccak256\n      sload\n        /* \"smart-contract/hardhat/contracts/ClosedSurveyV3.sol\":6285:6298  walletAddress */\n      dup3\n      swap1\n        /* \"smart-contract/hardhat/contracts/ClosedSurveyV3.sol\":1810:1868  participantsWhitelistedForSurvey[participantWalletAddress] */\n      0xff\n      and\n        /* \"smart-contract/hardhat/contracts/ClosedSurveyV3.sol\":1789:1918  require(... */\n      tag_181\n      jumpi\n      mload(0x40)\n      shl(0xe5, 0x461bcd)\n      dup2\n      mstore\n        /* \"#utility.yul\":4557:4559   */\n      0x20\n        /* \"smart-contract/hardhat/contracts/ClosedSurveyV3.sol\":1789:1918  require(... */\n      0x04\n      dup3\n      add\n        /* \"#utility.yul\":4539:4560   */\n      mstore\n        /* \"#utility.yul\":4596:4598   */\n      0x18\n        /* \"#utility.yul\":4576:4594   */\n      0x24\n      dup3\n      add\n        /* \"#utility.yul\":4569:4599   */\n      mstore\n      shl(0x40, 0x4f6e6c792077686974656c69737465642061646472657373)\n        /* \"#utility.yul\":4615:4633   */\n      0x44\n      dup3\n      add\n        /* \"#utility.yul\":4608:4662   */\n      mstore\n        /* \"#utility.yul\":4679:4697   */\n      0x64\n      add\n        /* \"smart-contract/hardhat/contracts/ClosedSurveyV3.sol\":1789:1918  require(... */\n      tag_123\n        /* \"#utility.yul\":4355:4703   */\n      jump\n        /* \"smart-contract/hardhat/contracts/ClosedSurveyV3.sol\":1789:1918  require(... */\n    tag_181:\n      sub(shl(0xa0, 0x01), 0x01)\n        /* \"smart-contract/hardhat/contracts/ClosedSurveyV3.sol\":2697:2743  rewardedParticipants[participantWalletAddress] */\n      dup4\n      and\n      0x00\n      swap1\n      dup2\n      mstore\n        /* \"smart-contract/hardhat/contracts/ClosedSurveyV3.sol\":2697:2717  rewardedParticipants */\n      0x04\n        /* \"smart-contract/hardhat/contracts/ClosedSurveyV3.sol\":2697:2743  rewardedParticipants[participantWalletAddress] */\n      0x20\n      mstore\n      0x40\n      swap1\n      keccak256\n      sload\n        /* \"smart-contract/hardhat/contracts/ClosedSurveyV3.sol\":6334:6347  walletAddress */\n      dup4\n      swap1\n        /* \"smart-contract/hardhat/contracts/ClosedSurveyV3.sol\":2697:2743  rewardedParticipants[participantWalletAddress] */\n      0xff\n      and\n        /* \"smart-contract/hardhat/contracts/ClosedSurveyV3.sol\":2696:2743  !rewardedParticipants[participantWalletAddress] */\n      iszero\n        /* \"smart-contract/hardhat/contracts/ClosedSurveyV3.sol\":2675:2797  require(... */\n      tag_185\n      jumpi\n      mload(0x40)\n      shl(0xe5, 0x461bcd)\n      dup2\n      mstore\n        /* \"#utility.yul\":4910:4912   */\n      0x20\n        /* \"smart-contract/hardhat/contracts/ClosedSurveyV3.sol\":2675:2797  require(... */\n      0x04\n      dup3\n      add\n        /* \"#utility.yul\":4892:4913   */\n      mstore\n        /* \"#utility.yul\":4949:4951   */\n      0x1c\n        /* \"#utility.yul\":4929:4947   */\n      0x24\n      dup3\n      add\n        /* \"#utility.yul\":4922:4952   */\n      mstore\n        /* \"#utility.yul\":4988:5018   */\n      0x5061727469636970616e7420616c726561647920726577617264656400000000\n        /* \"#utility.yul\":4968:4986   */\n      0x44\n      dup3\n      add\n        /* \"#utility.yul\":4961:5019   */\n      mstore\n        /* \"#utility.yul\":5036:5054   */\n      0x64\n      add\n        /* \"smart-contract/hardhat/contracts/ClosedSurveyV3.sol\":2675:2797  require(... */\n      tag_123\n        /* \"#utility.yul\":4708:5060   */\n      jump\n        /* \"smart-contract/hardhat/contracts/ClosedSurveyV3.sol\":2675:2797  require(... */\n    tag_185:\n      sub(shl(0xa0, 0x01), 0x01)\n        /* \"smart-contract/hardhat/contracts/ClosedSurveyV3.sol\":2475:2530  participantsScreenedForSurvey[participantWalletAddress] */\n      dup5\n      and\n      0x00\n      swap1\n      dup2\n      mstore\n        /* \"smart-contract/hardhat/contracts/ClosedSurveyV3.sol\":2475:2504  participantsScreenedForSurvey */\n      0x05\n        /* \"smart-contract/hardhat/contracts/ClosedSurveyV3.sol\":2475:2530  participantsScreenedForSurvey[participantWalletAddress] */\n      0x20\n      mstore\n      0x40\n      swap1\n      keccak256\n      sload\n        /* \"smart-contract/hardhat/contracts/ClosedSurveyV3.sol\":6372:6385  walletAddress */\n      dup5\n      swap1\n        /* \"smart-contract/hardhat/contracts/ClosedSurveyV3.sol\":2475:2530  participantsScreenedForSurvey[participantWalletAddress] */\n      0xff\n      and\n        /* \"smart-contract/hardhat/contracts/ClosedSurveyV3.sol\":2454:2572  require(... */\n      tag_189\n      jumpi\n      mload(0x40)\n      shl(0xe5, 0x461bcd)\n      dup2\n      mstore\n        /* \"#utility.yul\":5267:5269   */\n      0x20\n        /* \"smart-contract/hardhat/contracts/ClosedSurveyV3.sol\":2454:2572  require(... */\n      0x04\n      dup3\n      add\n        /* \"#utility.yul\":5249:5270   */\n      mstore\n        /* \"#utility.yul\":5306:5308   */\n      0x10\n        /* \"#utility.yul\":5286:5304   */\n      0x24\n      dup3\n      add\n        /* \"#utility.yul\":5279:5309   */\n      mstore\n      shl(0x82, 0x135d5cdd081899481cd8dc99595b9959)\n        /* \"#utility.yul\":5325:5343   */\n      0x44\n      dup3\n      add\n        /* \"#utility.yul\":5318:5364   */\n      mstore\n        /* \"#utility.yul\":5381:5399   */\n      0x64\n      add\n        /* \"smart-contract/hardhat/contracts/ClosedSurveyV3.sol\":2454:2572  require(... */\n      tag_123\n        /* \"#utility.yul\":5065:5405   */\n      jump\n        /* \"smart-contract/hardhat/contracts/ClosedSurveyV3.sol\":2454:2572  require(... */\n    tag_189:\n        /* \"smart-contract/hardhat/contracts/ClosedSurveyV3.sol\":6401:6431  bool rewardTransferIsSuccesful */\n      0x00\n        /* \"smart-contract/hardhat/contracts/ClosedSurveyV3.sol\":6434:6466  rewardParticipant(walletAddress) */\n      tag_193\n        /* \"smart-contract/hardhat/contracts/ClosedSurveyV3.sol\":6452:6465  walletAddress */\n      dup7\n        /* \"smart-contract/hardhat/contracts/ClosedSurveyV3.sol\":6434:6451  rewardParticipant */\n      tag_194\n        /* \"smart-contract/hardhat/contracts/ClosedSurveyV3.sol\":6434:6466  rewardParticipant(walletAddress) */\n      jump\t// in\n    tag_193:\n        /* \"smart-contract/hardhat/contracts/ClosedSurveyV3.sol\":6401:6466  bool rewardTransferIsSuccesful = rewardParticipant(walletAddress) */\n      swap1\n      pop\n        /* \"smart-contract/hardhat/contracts/ClosedSurveyV3.sol\":6481:6506  rewardTransferIsSuccesful */\n      dup1\n        /* \"smart-contract/hardhat/contracts/ClosedSurveyV3.sol\":6477:6584  if (rewardTransferIsSuccesful) {... */\n      iszero\n      tag_196\n      jumpi\n        /* \"smart-contract/hardhat/contracts/ClosedSurveyV3.sol\":6522:6573  markParticipantAsHavingClaimedReward(walletAddress) */\n      tag_196\n        /* \"smart-contract/hardhat/contracts/ClosedSurveyV3.sol\":6559:6572  walletAddress */\n      dup7\n        /* \"smart-contract/hardhat/contracts/ClosedSurveyV3.sol\":6522:6558  markParticipantAsHavingClaimedReward */\n      tag_197\n        /* \"smart-contract/hardhat/contracts/ClosedSurveyV3.sol\":6522:6573  markParticipantAsHavingClaimedReward(walletAddress) */\n      jump\t// in\n    tag_196:\n        /* \"smart-contract/hardhat/contracts/ClosedSurveyV3.sol\":6391:6590  {... */\n      pop\n        /* \"smart-contract/hardhat/contracts/ClosedSurveyV3.sol\":2807:2808  _ */\n      pop\n        /* \"smart-contract/hardhat/contracts/ClosedSurveyV3.sol\":1928:1929  _ */\n      pop\n        /* \"smart-contract/hardhat/contracts/ClosedSurveyV3.sol\":2983:2984  _ */\n      pop\n        /* \"smart-contract/hardhat/contracts/ClosedSurveyV3.sol\":3608:3609  _ */\n      pop\n        /* \"@openzeppelin/contracts/utils/ReentrancyGuard.sol\":2542:2562  _nonReentrantAfter() */\n      tag_198\n        /* \"@openzeppelin/contracts/utils/ReentrancyGuard.sol\":1857:1858  1 */\n      0x01\n        /* \"@openzeppelin/contracts/utils/ReentrancyGuard.sol\":3068:3089  _status = NOT_ENTERED */\n      dup1\n      sstore\n        /* \"@openzeppelin/contracts/utils/ReentrancyGuard.sol\":2888:3096  function _nonReentrantAfter() private {... */\n      jump\n        /* \"@openzeppelin/contracts/utils/ReentrancyGuard.sol\":2542:2562  _nonReentrantAfter() */\n    tag_198:\n        /* \"smart-contract/hardhat/contracts/ClosedSurveyV3.sol\":5986:6590  function processRewardClaimByParticipant(address walletAddress)... */\n      pop\n      jump\t// out\n        /* \"smart-contract/hardhat/contracts/ClosedSurveyV3.sol\":9098:9165  function pauseSurvey() external onlyOwner {... */\n    tag_100:\n        /* \"@openzeppelin/contracts/access/Ownable.sol\":1531:1544  _checkOwner() */\n      tag_202\n        /* \"@openzeppelin/contracts/access/Ownable.sol\":1531:1542  _checkOwner */\n      tag_115\n        /* \"@openzeppelin/contracts/access/Ownable.sol\":1531:1544  _checkOwner() */\n      jump\t// in\n    tag_202:\n        /* \"smart-contract/hardhat/contracts/ClosedSurveyV3.sol\":9150:9158  _pause() */\n      tag_117\n        /* \"smart-contract/hardhat/contracts/ClosedSurveyV3.sol\":9150:9156  _pause */\n      tag_205\n        /* \"smart-contract/hardhat/contracts/ClosedSurveyV3.sol\":9150:9158  _pause() */\n      jump\t// in\n        /* \"smart-contract/hardhat/contracts/ClosedSurveyV3.sol\":4523:5020  function screenParticipant(address participantWalletAddress)... */\n    tag_103:\n        /* \"smart-contract/hardhat/contracts/ClosedSurveyV3.sol\":4640:4664  participantWalletAddress */\n      dup1\n        /* \"smart-contract/hardhat/contracts/ClosedSurveyV3.sol\":2913:2923  msg.sender */\n      caller\n      sub(shl(0xa0, 0x01), 0x01)\n        /* \"smart-contract/hardhat/contracts/ClosedSurveyV3.sol\":2913:2951  msg.sender == participantWalletAddress */\n      dup3\n      and\n      eq\n        /* \"smart-contract/hardhat/contracts/ClosedSurveyV3.sol\":2905:2973  require(msg.sender == participantWalletAddress, \"Only valid sender\") */\n      tag_207\n      jumpi\n      mload(0x40)\n      shl(0xe5, 0x461bcd)\n      dup2\n      mstore\n        /* \"#utility.yul\":4211:4213   */\n      0x20\n        /* \"smart-contract/hardhat/contracts/ClosedSurveyV3.sol\":2905:2973  require(msg.sender == participantWalletAddress, \"Only valid sender\") */\n      0x04\n      dup3\n      add\n        /* \"#utility.yul\":4193:4214   */\n      mstore\n        /* \"#utility.yul\":4250:4252   */\n      0x11\n        /* \"#utility.yul\":4230:4248   */\n      0x24\n      dup3\n      add\n        /* \"#utility.yul\":4223:4253   */\n      mstore\n      shl(0x79, 0x27b7363c903b30b634b21039b2b73232b9)\n        /* \"#utility.yul\":4269:4287   */\n      0x44\n      dup3\n      add\n        /* \"#utility.yul\":4262:4309   */\n      mstore\n        /* \"#utility.yul\":4326:4344   */\n      0x64\n      add\n        /* \"smart-contract/hardhat/contracts/ClosedSurveyV3.sol\":2905:2973  require(msg.sender == participantWalletAddress, \"Only valid sender\") */\n      tag_123\n        /* \"#utility.yul\":4009:4350   */\n      jump\n        /* \"smart-contract/hardhat/contracts/ClosedSurveyV3.sol\":2905:2973  require(msg.sender == participantWalletAddress, \"Only valid sender\") */\n    tag_207:\n      sub(shl(0xa0, 0x01), 0x01)\n        /* \"smart-contract/hardhat/contracts/ClosedSurveyV3.sol\":2259:2314  participantsScreenedForSurvey[participantWalletAddress] */\n      dup3\n      and\n      0x00\n      swap1\n      dup2\n      mstore\n        /* \"smart-contract/hardhat/contracts/ClosedSurveyV3.sol\":2259:2288  participantsScreenedForSurvey */\n      0x05\n        /* \"smart-contract/hardhat/contracts/ClosedSurveyV3.sol\":2259:2314  participantsScreenedForSurvey[participantWalletAddress] */\n      0x20\n      mstore\n      0x40\n      swap1\n      keccak256\n      sload\n        /* \"smart-contract/hardhat/contracts/ClosedSurveyV3.sol\":4696:4720  participantWalletAddress */\n      dup3\n      swap1\n        /* \"smart-contract/hardhat/contracts/ClosedSurveyV3.sol\":2259:2314  participantsScreenedForSurvey[participantWalletAddress] */\n      0xff\n      and\n        /* \"smart-contract/hardhat/contracts/ClosedSurveyV3.sol\":2258:2314  !participantsScreenedForSurvey[participantWalletAddress] */\n      iszero\n        /* \"smart-contract/hardhat/contracts/ClosedSurveyV3.sol\":2237:2363  require(... */\n      tag_210\n      jumpi\n      mload(0x40)\n      shl(0xe5, 0x461bcd)\n      dup2\n      mstore\n        /* \"#utility.yul\":5612:5614   */\n      0x20\n        /* \"smart-contract/hardhat/contracts/ClosedSurveyV3.sol\":2237:2363  require(... */\n      0x04\n      dup3\n      add\n        /* \"#utility.yul\":5594:5615   */\n      mstore\n        /* \"#utility.yul\":5651:5653   */\n      0x17\n        /* \"#utility.yul\":5631:5649   */\n      0x24\n      dup3\n      add\n        /* \"#utility.yul\":5624:5654   */\n      mstore\n        /* \"#utility.yul\":5690:5715   */\n      0x4f6e6c7920756e73637265656e65642061646472657373000000000000000000\n        /* \"#utility.yul\":5670:5688   */\n      0x44\n      dup3\n      add\n        /* \"#utility.yul\":5663:5716   */\n      mstore\n        /* \"#utility.yul\":5733:5751   */\n      0x64\n      add\n        /* \"smart-contract/hardhat/contracts/ClosedSurveyV3.sol\":2237:2363  require(... */\n      tag_123\n        /* \"#utility.yul\":5410:5757   */\n      jump\n        /* \"smart-contract/hardhat/contracts/ClosedSurveyV3.sol\":2237:2363  require(... */\n    tag_210:\n      sub(shl(0xa0, 0x01), 0x01)\n        /* \"smart-contract/hardhat/contracts/ClosedSurveyV3.sol\":4744:4782  participantWalletAddress != address(0) */\n      dup4\n      and\n        /* \"smart-contract/hardhat/contracts/ClosedSurveyV3.sol\":4736:4806  require(participantWalletAddress != address(0), \"Zero address passed\") */\n      tag_214\n      jumpi\n      mload(0x40)\n      shl(0xe5, 0x461bcd)\n      dup2\n      mstore\n      0x04\n      add\n      tag_123\n      swap1\n      tag_137\n      jump\t// in\n    tag_214:\n      sub(shl(0xa0, 0x01), 0x01)\n        /* \"smart-contract/hardhat/contracts/ClosedSurveyV3.sol\":4817:4872  participantsScreenedForSurvey[participantWalletAddress] */\n      dup4\n      and\n      0x00\n      dup2\n      dup2\n      mstore\n        /* \"smart-contract/hardhat/contracts/ClosedSurveyV3.sol\":4817:4846  participantsScreenedForSurvey */\n      0x05\n        /* \"smart-contract/hardhat/contracts/ClosedSurveyV3.sol\":4817:4872  participantsScreenedForSurvey[participantWalletAddress] */\n      0x20\n      swap1\n      dup2\n      mstore\n      0x40\n      swap2\n      dup3\n      swap1\n      keccak256\n        /* \"smart-contract/hardhat/contracts/ClosedSurveyV3.sol\":4817:4879  participantsScreenedForSurvey[participantWalletAddress] = true */\n      dup1\n      sload\n      not(0xff)\n      and\n        /* \"smart-contract/hardhat/contracts/ClosedSurveyV3.sol\":4875:4879  true */\n      0x01\n        /* \"smart-contract/hardhat/contracts/ClosedSurveyV3.sol\":4817:4879  participantsScreenedForSurvey[participantWalletAddress] = true */\n      swap1\n      dup2\n      or\n      swap1\n      swap2\n      sstore\n        /* \"smart-contract/hardhat/contracts/ClosedSurveyV3.sol\":4915:4943  numberOfScreenedParticipants */\n      0x0a\n        /* \"smart-contract/hardhat/contracts/ClosedSurveyV3.sol\":4913:4943  ++numberOfScreenedParticipants */\n      dup1\n      sload\n      swap1\n      swap2\n      add\n      swap1\n      sstore\n        /* \"smart-contract/hardhat/contracts/ClosedSurveyV3.sol\":4968:5013  ParticipantScreened(participantWalletAddress) */\n      swap1\n      mload\n        /* \"#utility.yul\":364:415   */\n      swap2\n      dup3\n      mstore\n        /* \"smart-contract/hardhat/contracts/ClosedSurveyV3.sol\":4968:5013  ParticipantScreened(participantWalletAddress) */\n      0xc4ec7a2dc5e72d17666a15570e438638bfc023a7a091df162b669c37198bacb2\n      swap2\n        /* \"#utility.yul\":337:355   */\n      add\n        /* \"smart-contract/hardhat/contracts/ClosedSurveyV3.sol\":4968:5013  ParticipantScreened(participantWalletAddress) */\n      tag_125\n        /* \"#utility.yul\":196:421   */\n      jump\n        /* \"smart-contract/hardhat/contracts/ClosedSurveyV3.sol\":7432:7809  function withdrawAllRewardFundsToResearcher()... */\n    tag_105:\n        /* \"@openzeppelin/contracts/access/Ownable.sol\":1531:1544  _checkOwner() */\n      tag_218\n        /* \"@openzeppelin/contracts/access/Ownable.sol\":1531:1542  _checkOwner */\n      tag_115\n        /* \"@openzeppelin/contracts/access/Ownable.sol\":1531:1544  _checkOwner() */\n      jump\t// in\n    tag_218:\n        /* \"@openzeppelin/contracts/utils/Pausable.sol\":1474:1493  _requireNotPaused() */\n      tag_220\n        /* \"@openzeppelin/contracts/utils/Pausable.sol\":1474:1491  _requireNotPaused */\n      tag_159\n        /* \"@openzeppelin/contracts/utils/Pausable.sol\":1474:1493  _requireNotPaused() */\n      jump\t// in\n    tag_220:\n        /* \"smart-contract/hardhat/contracts/ClosedSurveyV3.sol\":3282:3311  cUSD.balanceOf(address(this)) */\n      mload(0x40)\n      shl(0xe0, 0x70a08231)\n      dup2\n      mstore\n        /* \"smart-contract/hardhat/contracts/ClosedSurveyV3.sol\":3305:3309  this */\n      address\n        /* \"smart-contract/hardhat/contracts/ClosedSurveyV3.sol\":3282:3311  cUSD.balanceOf(address(this)) */\n      0x04\n      dup3\n      add\n        /* \"#utility.yul\":364:415   */\n      mstore\n        /* \"smart-contract/hardhat/contracts/ClosedSurveyV3.sol\":3314:3315  0 */\n      0x00\n      swap1\n        /* \"smart-contract/hardhat/contracts/ClosedSurveyV3.sol\":3282:3286  cUSD */\n      immutable(\"0x4ce4dab4689da140a0c12de1a6af6b8f679594aeb723205f513e052d27f5b26f\")\n      sub(shl(0xa0, 0x01), 0x01)\n        /* \"smart-contract/hardhat/contracts/ClosedSurveyV3.sol\":3282:3296  cUSD.balanceOf */\n      and\n      swap1\n      0x70a08231\n      swap1\n        /* \"#utility.yul\":337:355   */\n      0x24\n      add\n        /* \"smart-contract/hardhat/contracts/ClosedSurveyV3.sol\":3282:3311  cUSD.balanceOf(address(this)) */\n      0x20\n      mload(0x40)\n      dup1\n      dup4\n      sub\n      dup2\n      dup7\n      gas\n      staticcall\n      iszero\n      dup1\n      iszero\n      tag_224\n      jumpi\n      returndatasize\n      0x00\n      dup1\n      returndatacopy\n      revert(0x00, returndatasize)\n    tag_224:\n      pop\n      pop\n      pop\n      pop\n      mload(0x40)\n      returndatasize\n      not(0x1f)\n      0x1f\n      dup3\n      add\n      and\n      dup3\n      add\n      dup1\n      0x40\n      mstore\n      pop\n      dup2\n      add\n      swap1\n      tag_225\n      swap2\n      swap1\n      tag_168\n      jump\t// in\n    tag_225:\n        /* \"smart-contract/hardhat/contracts/ClosedSurveyV3.sol\":3282:3315  cUSD.balanceOf(address(this)) > 0 */\n      gt\n        /* \"smart-contract/hardhat/contracts/ClosedSurveyV3.sol\":3261:3372  require(... */\n      tag_226\n      jumpi\n      mload(0x40)\n      shl(0xe5, 0x461bcd)\n      dup2\n      mstore\n        /* \"#utility.yul\":5964:5966   */\n      0x20\n        /* \"smart-contract/hardhat/contracts/ClosedSurveyV3.sol\":3261:3372  require(... */\n      0x04\n      dup3\n      add\n        /* \"#utility.yul\":5946:5967   */\n      mstore\n        /* \"#utility.yul\":6003:6005   */\n      0x1f\n        /* \"#utility.yul\":5983:6001   */\n      0x24\n      dup3\n      add\n        /* \"#utility.yul\":5976:6006   */\n      mstore\n        /* \"#utility.yul\":6042:6075   */\n      0x436f6e747261637420646f6573206e6f74206861766520616e79206355534400\n        /* \"#utility.yul\":6022:6040   */\n      0x44\n      dup3\n      add\n        /* \"#utility.yul\":6015:6076   */\n      mstore\n        /* \"#utility.yul\":6093:6111   */\n      0x64\n      add\n        /* \"smart-contract/hardhat/contracts/ClosedSurveyV3.sol\":3261:3372  require(... */\n      tag_123\n        /* \"#utility.yul\":5762:6117   */\n      jump\n        /* \"smart-contract/hardhat/contracts/ClosedSurveyV3.sol\":3261:3372  require(... */\n    tag_226:\n        /* \"smart-contract/hardhat/contracts/ClosedSurveyV3.sol\":7600:7629  cUSD.balanceOf(address(this)) */\n      mload(0x40)\n      shl(0xe0, 0x70a08231)\n      dup2\n      mstore\n        /* \"smart-contract/hardhat/contracts/ClosedSurveyV3.sol\":7623:7627  this */\n      address\n        /* \"smart-contract/hardhat/contracts/ClosedSurveyV3.sol\":7600:7629  cUSD.balanceOf(address(this)) */\n      0x04\n      dup3\n      add\n        /* \"#utility.yul\":364:415   */\n      mstore\n        /* \"smart-contract/hardhat/contracts/ClosedSurveyV3.sol\":7582:7597  uint256 balance */\n      0x00\n      swap1\n        /* \"smart-contract/hardhat/contracts/ClosedSurveyV3.sol\":7600:7604  cUSD */\n      immutable(\"0x4ce4dab4689da140a0c12de1a6af6b8f679594aeb723205f513e052d27f5b26f\")\n      sub(shl(0xa0, 0x01), 0x01)\n        /* \"smart-contract/hardhat/contracts/ClosedSurveyV3.sol\":7600:7614  cUSD.balanceOf */\n      and\n      swap1\n      0x70a08231\n      swap1\n        /* \"#utility.yul\":337:355   */\n      0x24\n      add\n        /* \"smart-contract/hardhat/contracts/ClosedSurveyV3.sol\":7600:7629  cUSD.balanceOf(address(this)) */\n      0x20\n      mload(0x40)\n      dup1\n      dup4\n      sub\n      dup2\n      dup7\n      gas\n      staticcall\n      iszero\n      dup1\n      iszero\n      tag_232\n      jumpi\n      returndatasize\n      0x00\n      dup1\n      returndatacopy\n      revert(0x00, returndatasize)\n    tag_232:\n      pop\n      pop\n      pop\n      pop\n      mload(0x40)\n      returndatasize\n      not(0x1f)\n      0x1f\n      dup3\n      add\n      and\n      dup3\n      add\n      dup1\n      0x40\n      mstore\n      pop\n      dup2\n      add\n      swap1\n      tag_233\n      swap2\n      swap1\n      tag_168\n      jump\t// in\n    tag_233:\n        /* \"smart-contract/hardhat/contracts/ClosedSurveyV3.sol\":7582:7629  uint256 balance = cUSD.balanceOf(address(this)) */\n      swap1\n      pop\n        /* \"smart-contract/hardhat/contracts/ClosedSurveyV3.sol\":7639:7664  bool transferIsSuccessful */\n      0x00\n        /* \"smart-contract/hardhat/contracts/ClosedSurveyV3.sol\":7667:7671  cUSD */\n      immutable(\"0x4ce4dab4689da140a0c12de1a6af6b8f679594aeb723205f513e052d27f5b26f\")\n      sub(shl(0xa0, 0x01), 0x01)\n        /* \"smart-contract/hardhat/contracts/ClosedSurveyV3.sol\":7667:7680  cUSD.transfer */\n      and\n      0xa9059cbb\n        /* \"smart-contract/hardhat/contracts/ClosedSurveyV3.sol\":7681:7688  owner() */\n      tag_234\n        /* \"@openzeppelin/contracts/access/Ownable.sol\":1684:1691  address */\n      0x00\n        /* \"@openzeppelin/contracts/access/Ownable.sol\":1710:1716  _owner */\n      sload\n      sub(shl(0xa0, 0x01), 0x01)\n      and\n      swap1\n        /* \"@openzeppelin/contracts/access/Ownable.sol\":1638:1723  function owner() public view virtual returns (address) {... */\n      jump\n        /* \"smart-contract/hardhat/contracts/ClosedSurveyV3.sol\":7681:7688  owner() */\n    tag_234:\n        /* \"smart-contract/hardhat/contracts/ClosedSurveyV3.sol\":7667:7698  cUSD.transfer(owner(), balance) */\n      mload(0x40)\n      not(sub(shl(0xe0, 0x01), 0x01))\n      0xe0\n      dup5\n      swap1\n      shl\n      and\n      dup2\n      mstore\n      sub(shl(0xa0, 0x01), 0x01)\n        /* \"#utility.yul\":6314:6346   */\n      swap1\n      swap2\n      and\n        /* \"smart-contract/hardhat/contracts/ClosedSurveyV3.sol\":7667:7698  cUSD.transfer(owner(), balance) */\n      0x04\n      dup3\n      add\n        /* \"#utility.yul\":6296:6347   */\n      mstore\n        /* \"#utility.yul\":6363:6381   */\n      0x24\n      dup2\n      add\n        /* \"#utility.yul\":6356:6390   */\n      dup6\n      swap1\n      mstore\n        /* \"#utility.yul\":6269:6287   */\n      0x44\n      add\n        /* \"smart-contract/hardhat/contracts/ClosedSurveyV3.sol\":7667:7698  cUSD.transfer(owner(), balance) */\n      0x20\n      mload(0x40)\n      dup1\n      dup4\n      sub\n      dup2\n      0x00\n      dup8\n      gas\n      call\n      iszero\n      dup1\n      iszero\n      tag_238\n      jumpi\n      returndatasize\n      0x00\n      dup1\n      returndatacopy\n      revert(0x00, returndatasize)\n    tag_238:\n      pop\n      pop\n      pop\n      pop\n      mload(0x40)\n      returndatasize\n      not(0x1f)\n      0x1f\n      dup3\n      add\n      and\n      dup3\n      add\n      dup1\n      0x40\n      mstore\n      pop\n      dup2\n      add\n      swap1\n      tag_239\n      swap2\n      swap1\n      tag_240\n      jump\t// in\n    tag_239:\n        /* \"smart-contract/hardhat/contracts/ClosedSurveyV3.sol\":7639:7698  bool transferIsSuccessful = cUSD.transfer(owner(), balance) */\n      swap1\n      pop\n        /* \"smart-contract/hardhat/contracts/ClosedSurveyV3.sol\":7713:7733  transferIsSuccessful */\n      dup1\n        /* \"smart-contract/hardhat/contracts/ClosedSurveyV3.sol\":7709:7803  if (transferIsSuccessful) {... */\n      iszero\n      tag_241\n      jumpi\n        /* \"smart-contract/hardhat/contracts/ClosedSurveyV3.sol\":7754:7792  RewardFundsWithdrawn(owner(), balance) */\n      0x2036b9b38b69a2fa490ee702733a29cd2550accc20bc96e786cb9beedc779097\n        /* \"smart-contract/hardhat/contracts/ClosedSurveyV3.sol\":7775:7782  owner() */\n      tag_242\n        /* \"@openzeppelin/contracts/access/Ownable.sol\":1684:1691  address */\n      0x00\n        /* \"@openzeppelin/contracts/access/Ownable.sol\":1710:1716  _owner */\n      sload\n      sub(shl(0xa0, 0x01), 0x01)\n      and\n      swap1\n        /* \"@openzeppelin/contracts/access/Ownable.sol\":1638:1723  function owner() public view virtual returns (address) {... */\n      jump\n        /* \"smart-contract/hardhat/contracts/ClosedSurveyV3.sol\":7775:7782  owner() */\n    tag_242:\n        /* \"smart-contract/hardhat/contracts/ClosedSurveyV3.sol\":7754:7792  RewardFundsWithdrawn(owner(), balance) */\n      0x40\n      dup1\n      mload\n      sub(shl(0xa0, 0x01), 0x01)\n        /* \"#utility.yul\":6314:6346   */\n      swap1\n      swap3\n      and\n        /* \"#utility.yul\":6296:6347   */\n      dup3\n      mstore\n        /* \"#utility.yul\":6378:6380   */\n      0x20\n        /* \"#utility.yul\":6363:6381   */\n      dup3\n      add\n        /* \"#utility.yul\":6356:6390   */\n      dup6\n      swap1\n      mstore\n        /* \"#utility.yul\":6269:6287   */\n      add\n        /* \"smart-contract/hardhat/contracts/ClosedSurveyV3.sol\":7754:7792  RewardFundsWithdrawn(owner(), balance) */\n      tag_138\n        /* \"#utility.yul\":6122:6396   */\n      jump\n        /* \"smart-contract/hardhat/contracts/ClosedSurveyV3.sol\":7709:7803  if (transferIsSuccessful) {... */\n    tag_241:\n        /* \"smart-contract/hardhat/contracts/ClosedSurveyV3.sol\":7572:7809  {... */\n      pop\n      pop\n        /* \"smart-contract/hardhat/contracts/ClosedSurveyV3.sol\":7432:7809  function withdrawAllRewardFundsToResearcher()... */\n      jump\t// out\n        /* \"@openzeppelin/contracts/access/Ownable.sol\":2543:2758  function transferOwnership(address newOwner) public virtual onlyOwner {... */\n    tag_108:\n        /* \"@openzeppelin/contracts/access/Ownable.sol\":1531:1544  _checkOwner() */\n      tag_245\n        /* \"@openzeppelin/contracts/access/Ownable.sol\":1531:1542  _checkOwner */\n      tag_115\n        /* \"@openzeppelin/contracts/access/Ownable.sol\":1531:1544  _checkOwner() */\n      jump\t// in\n    tag_245:\n      sub(shl(0xa0, 0x01), 0x01)\n        /* \"@openzeppelin/contracts/access/Ownable.sol\":2627:2649  newOwner == address(0) */\n      dup2\n      and\n        /* \"@openzeppelin/contracts/access/Ownable.sol\":2623:2714  if (newOwner == address(0)) {... */\n      tag_247\n      jumpi\n        /* \"@openzeppelin/contracts/access/Ownable.sol\":2672:2703  OwnableInvalidOwner(address(0)) */\n      mload(0x40)\n      shl(0xe0, 0x1e4fbdf7)\n      dup2\n      mstore\n        /* \"@openzeppelin/contracts/access/Ownable.sol\":2700:2701  0 */\n      0x00\n        /* \"@openzeppelin/contracts/access/Ownable.sol\":2672:2703  OwnableInvalidOwner(address(0)) */\n      0x04\n      dup3\n      add\n        /* \"#utility.yul\":364:415   */\n      mstore\n        /* \"#utility.yul\":337:355   */\n      0x24\n      add\n        /* \"@openzeppelin/contracts/access/Ownable.sol\":2672:2703  OwnableInvalidOwner(address(0)) */\n      tag_123\n        /* \"#utility.yul\":196:421   */\n      jump\n        /* \"@openzeppelin/contracts/access/Ownable.sol\":2623:2714  if (newOwner == address(0)) {... */\n    tag_247:\n        /* \"@openzeppelin/contracts/access/Ownable.sol\":2723:2751  _transferOwnership(newOwner) */\n      tag_198\n        /* \"@openzeppelin/contracts/access/Ownable.sol\":2742:2750  newOwner */\n      dup2\n        /* \"@openzeppelin/contracts/access/Ownable.sol\":2723:2741  _transferOwnership */\n      tag_153\n        /* \"@openzeppelin/contracts/access/Ownable.sol\":2723:2751  _transferOwnership(newOwner) */\n      jump\t// in\n        /* \"smart-contract/hardhat/contracts/ClosedSurveyV3.sol\":5490:5980  function blacklistWhitelistedParticipant(address participantWalletAddress)... */\n    tag_111:\n        /* \"@openzeppelin/contracts/access/Ownable.sol\":1531:1544  _checkOwner() */\n      tag_251\n        /* \"@openzeppelin/contracts/access/Ownable.sol\":1531:1542  _checkOwner */\n      tag_115\n        /* \"@openzeppelin/contracts/access/Ownable.sol\":1531:1544  _checkOwner() */\n      jump\t// in\n    tag_251:\n      sub(shl(0xa0, 0x01), 0x01)\n        /* \"smart-contract/hardhat/contracts/ClosedSurveyV3.sol\":1810:1868  participantsWhitelistedForSurvey[participantWalletAddress] */\n      dup2\n      and\n      0x00\n      swap1\n      dup2\n      mstore\n        /* \"smart-contract/hardhat/contracts/ClosedSurveyV3.sol\":1810:1842  participantsWhitelistedForSurvey */\n      0x03\n        /* \"smart-contract/hardhat/contracts/ClosedSurveyV3.sol\":1810:1868  participantsWhitelistedForSurvey[participantWalletAddress] */\n      0x20\n      mstore\n      0x40\n      swap1\n      keccak256\n      sload\n        /* \"smart-contract/hardhat/contracts/ClosedSurveyV3.sol\":5635:5659  participantWalletAddress */\n      dup2\n      swap1\n        /* \"smart-contract/hardhat/contracts/ClosedSurveyV3.sol\":1810:1868  participantsWhitelistedForSurvey[participantWalletAddress] */\n      0xff\n      and\n        /* \"smart-contract/hardhat/contracts/ClosedSurveyV3.sol\":1789:1918  require(... */\n      tag_253\n      jumpi\n      mload(0x40)\n      shl(0xe5, 0x461bcd)\n      dup2\n      mstore\n        /* \"#utility.yul\":4557:4559   */\n      0x20\n        /* \"smart-contract/hardhat/contracts/ClosedSurveyV3.sol\":1789:1918  require(... */\n      0x04\n      dup3\n      add\n        /* \"#utility.yul\":4539:4560   */\n      mstore\n        /* \"#utility.yul\":4596:4598   */\n      0x18\n        /* \"#utility.yul\":4576:4594   */\n      0x24\n      dup3\n      add\n        /* \"#utility.yul\":4569:4599   */\n      mstore\n      shl(0x40, 0x4f6e6c792077686974656c69737465642061646472657373)\n        /* \"#utility.yul\":4615:4633   */\n      0x44\n      dup3\n      add\n        /* \"#utility.yul\":4608:4662   */\n      mstore\n        /* \"#utility.yul\":4679:4697   */\n      0x64\n      add\n        /* \"smart-contract/hardhat/contracts/ClosedSurveyV3.sol\":1789:1918  require(... */\n      tag_123\n        /* \"#utility.yul\":4355:4703   */\n      jump\n        /* \"smart-contract/hardhat/contracts/ClosedSurveyV3.sol\":1789:1918  require(... */\n    tag_253:\n      sub(shl(0xa0, 0x01), 0x01)\n        /* \"smart-contract/hardhat/contracts/ClosedSurveyV3.sol\":5683:5721  participantWalletAddress != address(0) */\n      dup3\n      and\n        /* \"smart-contract/hardhat/contracts/ClosedSurveyV3.sol\":5675:5745  require(participantWalletAddress != address(0), \"Zero address passed\") */\n      tag_256\n      jumpi\n      mload(0x40)\n      shl(0xe5, 0x461bcd)\n      dup2\n      mstore\n      0x04\n      add\n      tag_123\n      swap1\n      tag_137\n      jump\t// in\n    tag_256:\n      sub(shl(0xa0, 0x01), 0x01)\n        /* \"smart-contract/hardhat/contracts/ClosedSurveyV3.sol\":5756:5814  participantsWhitelistedForSurvey[participantWalletAddress] */\n      dup3\n      and\n        /* \"smart-contract/hardhat/contracts/ClosedSurveyV3.sol\":5817:5822  false */\n      0x00\n        /* \"smart-contract/hardhat/contracts/ClosedSurveyV3.sol\":5756:5814  participantsWhitelistedForSurvey[participantWalletAddress] */\n      dup2\n      dup2\n      mstore\n        /* \"smart-contract/hardhat/contracts/ClosedSurveyV3.sol\":5756:5788  participantsWhitelistedForSurvey */\n      0x03\n        /* \"smart-contract/hardhat/contracts/ClosedSurveyV3.sol\":5756:5814  participantsWhitelistedForSurvey[participantWalletAddress] */\n      0x20\n      swap1\n      dup2\n      mstore\n      0x40\n      swap2\n      dup3\n      swap1\n      keccak256\n        /* \"smart-contract/hardhat/contracts/ClosedSurveyV3.sol\":5756:5822  participantsWhitelistedForSurvey[participantWalletAddress] = false */\n      dup1\n      sload\n      not(0xff)\n      and\n      swap1\n      sstore\n        /* \"smart-contract/hardhat/contracts/ClosedSurveyV3.sol\":5858:5889  numberOfWhitelistedParticipants */\n      0x09\n        /* \"smart-contract/hardhat/contracts/ClosedSurveyV3.sol\":5856:5889  --numberOfWhitelistedParticipants */\n      dup1\n      sload\n      not(0x00)\n      add\n      swap1\n      sstore\n        /* \"smart-contract/hardhat/contracts/ClosedSurveyV3.sol\":5914:5973  WhitelistedParticipantBlacklisted(participantWalletAddress) */\n      swap1\n      mload\n        /* \"#utility.yul\":364:415   */\n      swap2\n      dup3\n      mstore\n        /* \"smart-contract/hardhat/contracts/ClosedSurveyV3.sol\":5914:5973  WhitelistedParticipantBlacklisted(participantWalletAddress) */\n      0x9a3420c1085262889090de7fb2f9c9d1d7c8d69f895b7cd37074650958bc99e6\n      swap2\n        /* \"#utility.yul\":337:355   */\n      add\n        /* \"smart-contract/hardhat/contracts/ClosedSurveyV3.sol\":5914:5973  WhitelistedParticipantBlacklisted(participantWalletAddress) */\n      tag_138\n        /* \"#utility.yul\":196:421   */\n      jump\n        /* \"@openzeppelin/contracts/access/Ownable.sol\":1796:1958  function _checkOwner() internal view virtual {... */\n    tag_115:\n        /* \"@openzeppelin/contracts/access/Ownable.sol\":1684:1691  address */\n      0x00\n        /* \"@openzeppelin/contracts/access/Ownable.sol\":1710:1716  _owner */\n      sload\n      sub(shl(0xa0, 0x01), 0x01)\n      and\n        /* \"@openzeppelin/contracts/utils/Context.sol\":735:745  msg.sender */\n      caller\n        /* \"@openzeppelin/contracts/access/Ownable.sol\":1855:1878  owner() != _msgSender() */\n      eq\n        /* \"@openzeppelin/contracts/access/Ownable.sol\":1851:1952  if (owner() != _msgSender()) {... */\n      tag_117\n      jumpi\n        /* \"@openzeppelin/contracts/access/Ownable.sol\":1901:1941  OwnableUnauthorizedAccount(_msgSender()) */\n      mload(0x40)\n      shl(0xe0, 0x118cdaa7)\n      dup2\n      mstore\n        /* \"@openzeppelin/contracts/utils/Context.sol\":735:745  msg.sender */\n      caller\n        /* \"@openzeppelin/contracts/access/Ownable.sol\":1901:1941  OwnableUnauthorizedAccount(_msgSender()) */\n      0x04\n      dup3\n      add\n        /* \"#utility.yul\":364:415   */\n      mstore\n        /* \"#utility.yul\":337:355   */\n      0x24\n      add\n        /* \"@openzeppelin/contracts/access/Ownable.sol\":1901:1941  OwnableUnauthorizedAccount(_msgSender()) */\n      tag_123\n        /* \"#utility.yul\":196:421   */\n      jump\n        /* \"@openzeppelin/contracts/utils/Pausable.sol\":2710:2827  function _unpause() internal virtual whenPaused {... */\n    tag_118:\n        /* \"@openzeppelin/contracts/utils/Pausable.sol\":1721:1737  _requirePaused() */\n      tag_267\n        /* \"@openzeppelin/contracts/utils/Pausable.sol\":1721:1735  _requirePaused */\n      tag_268\n        /* \"@openzeppelin/contracts/utils/Pausable.sol\":1721:1737  _requirePaused() */\n      jump\t// in\n    tag_267:\n        /* \"@openzeppelin/contracts/utils/Pausable.sol\":2768:2775  _paused */\n      0x02\n        /* \"@openzeppelin/contracts/utils/Pausable.sol\":2768:2783  _paused = false */\n      dup1\n      sload\n      not(0xff)\n      and\n      swap1\n      sstore\n        /* \"@openzeppelin/contracts/utils/Pausable.sol\":2798:2820  Unpaused(_msgSender()) */\n      0x5db9ee0a495bf2e6ff9c91a7834c1ba4fdd244a5e8aa4e537bd38aeae4b073aa\n        /* \"@openzeppelin/contracts/utils/Context.sol\":735:745  msg.sender */\n      caller\n        /* \"@openzeppelin/contracts/utils/Pausable.sol\":2807:2819  _msgSender() */\n    tag_270:\n        /* \"@openzeppelin/contracts/utils/Pausable.sol\":2798:2820  Unpaused(_msgSender()) */\n      mload(0x40)\n      sub(shl(0xa0, 0x01), 0x01)\n        /* \"#utility.yul\":382:414   */\n      swap1\n      swap2\n      and\n        /* \"#utility.yul\":364:415   */\n      dup2\n      mstore\n        /* \"#utility.yul\":352:354   */\n      0x20\n        /* \"#utility.yul\":337:355   */\n      add\n        /* \"@openzeppelin/contracts/utils/Pausable.sol\":2798:2820  Unpaused(_msgSender()) */\n      mload(0x40)\n      dup1\n      swap2\n      sub\n      swap1\n      log1\n        /* \"@openzeppelin/contracts/utils/Pausable.sol\":2710:2827  function _unpause() internal virtual whenPaused {... */\n      jump\t// out\n        /* \"@openzeppelin/contracts/access/Ownable.sol\":2912:3099  function _transferOwnership(address newOwner) internal virtual {... */\n    tag_153:\n        /* \"@openzeppelin/contracts/access/Ownable.sol\":2985:3001  address oldOwner */\n      0x00\n        /* \"@openzeppelin/contracts/access/Ownable.sol\":3004:3010  _owner */\n      dup1\n      sload\n      sub(shl(0xa0, 0x01), 0x01)\n        /* \"@openzeppelin/contracts/access/Ownable.sol\":3020:3037  _owner = newOwner */\n      dup4\n      dup2\n      and\n      not(sub(shl(0xa0, 0x01), 0x01))\n      dup4\n      and\n      dup2\n      or\n      dup5\n      sstore\n        /* \"@openzeppelin/contracts/access/Ownable.sol\":3052:3092  OwnershipTransferred(oldOwner, newOwner) */\n      mload(0x40)\n        /* \"@openzeppelin/contracts/access/Ownable.sol\":3004:3010  _owner */\n      swap2\n      swap1\n      swap3\n      and\n      swap3\n      dup4\n      swap2\n        /* \"@openzeppelin/contracts/access/Ownable.sol\":3052:3092  OwnershipTransferred(oldOwner, newOwner) */\n      0x8be0079c531659141344cd1fd0a4f28419497f9722a3daafe3b4186f6b6457e0\n      swap2\n        /* \"@openzeppelin/contracts/access/Ownable.sol\":2985:3001  address oldOwner */\n      swap1\n        /* \"@openzeppelin/contracts/access/Ownable.sol\":3052:3092  OwnershipTransferred(oldOwner, newOwner) */\n      log3\n        /* \"@openzeppelin/contracts/access/Ownable.sol\":2975:3099  {... */\n      pop\n        /* \"@openzeppelin/contracts/access/Ownable.sol\":2912:3099  function _transferOwnership(address newOwner) internal virtual {... */\n      pop\n      jump\t// out\n        /* \"@openzeppelin/contracts/utils/Pausable.sol\":2002:2130  function _requireNotPaused() internal view virtual {... */\n    tag_159:\n        /* \"@openzeppelin/contracts/utils/Pausable.sol\":1920:1927  _paused */\n      and(0xff, sload(0x02))\n        /* \"@openzeppelin/contracts/utils/Pausable.sol\":2063:2124  if (paused()) {... */\n      iszero\n      tag_117\n      jumpi\n        /* \"@openzeppelin/contracts/utils/Pausable.sol\":2098:2113  EnforcedPause() */\n      mload(0x40)\n      shl(0xe0, 0xd93c0665)\n      dup2\n      mstore\n      0x04\n      add\n      mload(0x40)\n      dup1\n      swap2\n      sub\n      swap1\n      revert\n        /* \"@openzeppelin/contracts/utils/ReentrancyGuard.sol\":2575:2882  function _nonReentrantBefore() private {... */\n    tag_162:\n        /* \"@openzeppelin/contracts/utils/ReentrancyGuard.sol\":1899:1900  2 */\n      0x02\n        /* \"@openzeppelin/contracts/utils/ReentrancyGuard.sol\":2702:2709  _status */\n      sload(0x01)\n        /* \"@openzeppelin/contracts/utils/ReentrancyGuard.sol\":2702:2720  _status == ENTERED */\n      sub\n        /* \"@openzeppelin/contracts/utils/ReentrancyGuard.sol\":2698:2784  if (_status == ENTERED) {... */\n      tag_277\n      jumpi\n        /* \"@openzeppelin/contracts/utils/ReentrancyGuard.sol\":2743:2773  ReentrancyGuardReentrantCall() */\n      mload(0x40)\n      shl(0xe0, 0x3ee5aeb5)\n      dup2\n      mstore\n      0x04\n      add\n      mload(0x40)\n      dup1\n      swap2\n      sub\n      swap1\n      revert\n        /* \"@openzeppelin/contracts/utils/ReentrancyGuard.sol\":2698:2784  if (_status == ENTERED) {... */\n    tag_277:\n        /* \"@openzeppelin/contracts/utils/ReentrancyGuard.sol\":1899:1900  2 */\n      0x02\n        /* \"@openzeppelin/contracts/utils/ReentrancyGuard.sol\":2858:2865  _status */\n      0x01\n        /* \"@openzeppelin/contracts/utils/ReentrancyGuard.sol\":2858:2875  _status = ENTERED */\n      sstore\n        /* \"@openzeppelin/contracts/utils/ReentrancyGuard.sol\":2575:2882  function _nonReentrantBefore() private {... */\n      jump\t// out\n        /* \"smart-contract/hardhat/contracts/ClosedSurveyV3.sol\":6842:7426  function rewardParticipant(address participantWalletAddress)... */\n    tag_194:\n        /* \"smart-contract/hardhat/contracts/ClosedSurveyV3.sol\":7054:7085  rewardAmountPerParticipantInWei */\n      sload(0x06)\n        /* \"smart-contract/hardhat/contracts/ClosedSurveyV3.sol\":6989:7095  cUSD.transfer(... */\n      mload(0x40)\n      shl(0xe0, 0xa9059cbb)\n      dup2\n      mstore\n      sub(shl(0xa0, 0x01), 0x01)\n        /* \"#utility.yul\":6314:6346   */\n      dup4\n      dup2\n      and\n        /* \"smart-contract/hardhat/contracts/ClosedSurveyV3.sol\":6989:7095  cUSD.transfer(... */\n      0x04\n      dup4\n      add\n        /* \"#utility.yul\":6296:6347   */\n      mstore\n        /* \"#utility.yul\":6363:6381   */\n      0x24\n      dup3\n      add\n        /* \"#utility.yul\":6356:6390   */\n      swap3\n      swap1\n      swap3\n      mstore\n        /* \"smart-contract/hardhat/contracts/ClosedSurveyV3.sol\":6936:6940  bool */\n      0x00\n      swap2\n      dup3\n      swap2\n        /* \"smart-contract/hardhat/contracts/ClosedSurveyV3.sol\":6989:6993  cUSD */\n      immutable(\"0x4ce4dab4689da140a0c12de1a6af6b8f679594aeb723205f513e052d27f5b26f\")\n        /* \"smart-contract/hardhat/contracts/ClosedSurveyV3.sol\":6989:7002  cUSD.transfer */\n      swap1\n      swap2\n      and\n      swap1\n      0xa9059cbb\n      swap1\n        /* \"#utility.yul\":6269:6287   */\n      0x44\n      add\n        /* \"smart-contract/hardhat/contracts/ClosedSurveyV3.sol\":6989:7095  cUSD.transfer(... */\n      0x20\n      mload(0x40)\n      dup1\n      dup4\n      sub\n      dup2\n      0x00\n      dup8\n      gas\n      call\n      iszero\n      dup1\n      iszero\n      tag_281\n      jumpi\n      returndatasize\n      0x00\n      dup1\n      returndatacopy\n      revert(0x00, returndatasize)\n    tag_281:\n      pop\n      pop\n      pop\n      pop\n      mload(0x40)\n      returndatasize\n      not(0x1f)\n      0x1f\n      dup3\n      add\n      and\n      dup3\n      add\n      dup1\n      0x40\n      mstore\n      pop\n      dup2\n      add\n      swap1\n      tag_282\n      swap2\n      swap1\n      tag_240\n      jump\t// in\n    tag_282:\n        /* \"smart-contract/hardhat/contracts/ClosedSurveyV3.sol\":6956:7095  bool rewardTransferIsSuccesful = cUSD.transfer(... */\n      swap1\n      pop\n        /* \"smart-contract/hardhat/contracts/ClosedSurveyV3.sol\":7110:7135  rewardTransferIsSuccesful */\n      dup1\n        /* \"smart-contract/hardhat/contracts/ClosedSurveyV3.sol\":7106:7377  if (rewardTransferIsSuccesful) {... */\n      iszero\n      tag_283\n      jumpi\n        /* \"smart-contract/hardhat/contracts/ClosedSurveyV3.sol\":7181:7209  numberOfRewardedParticipants */\n      0x08\n        /* \"smart-contract/hardhat/contracts/ClosedSurveyV3.sol\":7179:7209  ++numberOfRewardedParticipants */\n      dup1\n      sload\n      0x01\n      add\n      swap1\n      sstore\n        /* \"smart-contract/hardhat/contracts/ClosedSurveyV3.sol\":7321:7352  rewardAmountPerParticipantInWei */\n      sload(0x06)\n        /* \"smart-contract/hardhat/contracts/ClosedSurveyV3.sol\":7242:7366  ParticipantRewarded(... */\n      0x40\n      dup1\n      mload\n      sub(shl(0xa0, 0x01), 0x01)\n        /* \"#utility.yul\":6314:6346   */\n      dup7\n      and\n        /* \"#utility.yul\":6296:6347   */\n      dup2\n      mstore\n        /* \"#utility.yul\":6378:6380   */\n      0x20\n        /* \"#utility.yul\":6363:6381   */\n      dup2\n      add\n        /* \"#utility.yul\":6356:6390   */\n      swap3\n      swap1\n      swap3\n      mstore\n        /* \"smart-contract/hardhat/contracts/ClosedSurveyV3.sol\":7242:7366  ParticipantRewarded(... */\n      0x8934d7a9692e763e356fd30d84ca5f61a737b35c5ccd5d31d4f140310267b73e\n      swap2\n        /* \"#utility.yul\":6269:6287   */\n      add\n        /* \"smart-contract/hardhat/contracts/ClosedSurveyV3.sol\":7242:7366  ParticipantRewarded(... */\n      mload(0x40)\n      dup1\n      swap2\n      sub\n      swap1\n      log1\n        /* \"smart-contract/hardhat/contracts/ClosedSurveyV3.sol\":7106:7377  if (rewardTransferIsSuccesful) {... */\n    tag_283:\n        /* \"smart-contract/hardhat/contracts/ClosedSurveyV3.sol\":7394:7419  rewardTransferIsSuccesful */\n      swap3\n        /* \"smart-contract/hardhat/contracts/ClosedSurveyV3.sol\":6842:7426  function rewardParticipant(address participantWalletAddress)... */\n      swap2\n      pop\n      pop\n      jump\t// out\n        /* \"smart-contract/hardhat/contracts/ClosedSurveyV3.sol\":6596:6836  function markParticipantAsHavingClaimedReward(... */\n    tag_197:\n      sub(shl(0xa0, 0x01), 0x01)\n        /* \"smart-contract/hardhat/contracts/ClosedSurveyV3.sol\":6708:6754  rewardedParticipants[participantWalletAddress] */\n      dup2\n      and\n      0x00\n      dup2\n      dup2\n      mstore\n        /* \"smart-contract/hardhat/contracts/ClosedSurveyV3.sol\":6708:6728  rewardedParticipants */\n      0x04\n        /* \"smart-contract/hardhat/contracts/ClosedSurveyV3.sol\":6708:6754  rewardedParticipants[participantWalletAddress] */\n      0x20\n      swap1\n      dup2\n      mstore\n      0x40\n      swap2\n      dup3\n      swap1\n      keccak256\n        /* \"smart-contract/hardhat/contracts/ClosedSurveyV3.sol\":6708:6761  rewardedParticipants[participantWalletAddress] = true */\n      dup1\n      sload\n      not(0xff)\n      and\n        /* \"smart-contract/hardhat/contracts/ClosedSurveyV3.sol\":6757:6761  true */\n      0x01\n        /* \"smart-contract/hardhat/contracts/ClosedSurveyV3.sol\":6708:6761  rewardedParticipants[participantWalletAddress] = true */\n      or\n      swap1\n      sstore\n        /* \"smart-contract/hardhat/contracts/ClosedSurveyV3.sol\":6776:6829  ParticipantMarkedAsRewarded(participantWalletAddress) */\n      swap1\n      mload\n        /* \"#utility.yul\":364:415   */\n      swap2\n      dup3\n      mstore\n        /* \"smart-contract/hardhat/contracts/ClosedSurveyV3.sol\":6776:6829  ParticipantMarkedAsRewarded(participantWalletAddress) */\n      0x654c9a027765e6feb862f42d438e9f6948f9ee31113e379f0372b30efc722943\n      swap2\n        /* \"#utility.yul\":337:355   */\n      add\n        /* \"smart-contract/hardhat/contracts/ClosedSurveyV3.sol\":6776:6829  ParticipantMarkedAsRewarded(participantWalletAddress) */\n      mload(0x40)\n      dup1\n      swap2\n      sub\n      swap1\n      log1\n        /* \"smart-contract/hardhat/contracts/ClosedSurveyV3.sol\":6596:6836  function markParticipantAsHavingClaimedReward(... */\n      pop\n      jump\t// out\n        /* \"@openzeppelin/contracts/utils/Pausable.sol\":2463:2578  function _pause() internal virtual whenNotPaused {... */\n    tag_205:\n        /* \"@openzeppelin/contracts/utils/Pausable.sol\":1474:1493  _requireNotPaused() */\n      tag_289\n        /* \"@openzeppelin/contracts/utils/Pausable.sol\":1474:1491  _requireNotPaused */\n      tag_159\n        /* \"@openzeppelin/contracts/utils/Pausable.sol\":1474:1493  _requireNotPaused() */\n      jump\t// in\n    tag_289:\n        /* \"@openzeppelin/contracts/utils/Pausable.sol\":2522:2529  _paused */\n      0x02\n        /* \"@openzeppelin/contracts/utils/Pausable.sol\":2522:2536  _paused = true */\n      dup1\n      sload\n      not(0xff)\n      and\n        /* \"@openzeppelin/contracts/utils/Pausable.sol\":2532:2536  true */\n      0x01\n        /* \"@openzeppelin/contracts/utils/Pausable.sol\":2522:2536  _paused = true */\n      or\n      swap1\n      sstore\n        /* \"@openzeppelin/contracts/utils/Pausable.sol\":2551:2571  Paused(_msgSender()) */\n      0x62e78cea01bee320cd4e420270b5ea74000d11b0c9f74754ebdbfc544b05a258\n        /* \"@openzeppelin/contracts/utils/Pausable.sol\":2558:2570  _msgSender() */\n      tag_270\n        /* \"@openzeppelin/contracts/utils/Context.sol\":735:745  msg.sender */\n      caller\n      swap1\n        /* \"@openzeppelin/contracts/utils/Context.sol\":656:752  function _msgSender() internal view virtual returns (address) {... */\n      jump\n        /* \"@openzeppelin/contracts/utils/Pausable.sol\":2202:2328  function _requirePaused() internal view virtual {... */\n    tag_268:\n        /* \"@openzeppelin/contracts/utils/Pausable.sol\":1920:1927  _paused */\n      and(0xff, sload(0x02))\n        /* \"@openzeppelin/contracts/utils/Pausable.sol\":2260:2322  if (!paused()) {... */\n      tag_117\n      jumpi\n        /* \"@openzeppelin/contracts/utils/Pausable.sol\":2296:2311  ExpectedPause() */\n      mload(0x40)\n      shl(0xe0, 0x8dfc202b)\n      dup2\n      mstore\n      0x04\n      add\n      mload(0x40)\n      dup1\n      swap2\n      sub\n      swap1\n      revert\n        /* \"#utility.yul\":426:606   */\n    tag_50:\n        /* \"#utility.yul\":485:491   */\n      0x00\n        /* \"#utility.yul\":538:540   */\n      0x20\n        /* \"#utility.yul\":526:535   */\n      dup3\n        /* \"#utility.yul\":517:524   */\n      dup5\n        /* \"#utility.yul\":513:536   */\n      sub\n        /* \"#utility.yul\":509:541   */\n      slt\n        /* \"#utility.yul\":506:558   */\n      iszero\n      tag_301\n      jumpi\n        /* \"#utility.yul\":554:555   */\n      0x00\n        /* \"#utility.yul\":551:552   */\n      dup1\n        /* \"#utility.yul\":544:556   */\n      revert\n        /* \"#utility.yul\":506:558   */\n    tag_301:\n      pop\n        /* \"#utility.yul\":577:600   */\n      calldataload\n      swap2\n        /* \"#utility.yul\":426:606   */\n      swap1\n      pop\n      jump\t// out\n        /* \"#utility.yul\":803:1089   */\n    tag_58:\n        /* \"#utility.yul\":862:868   */\n      0x00\n        /* \"#utility.yul\":915:917   */\n      0x20\n        /* \"#utility.yul\":903:912   */\n      dup3\n        /* \"#utility.yul\":894:901   */\n      dup5\n        /* \"#utility.yul\":890:913   */\n      sub\n        /* \"#utility.yul\":886:918   */\n      slt\n        /* \"#utility.yul\":883:935   */\n      iszero\n      tag_304\n      jumpi\n        /* \"#utility.yul\":931:932   */\n      0x00\n        /* \"#utility.yul\":928:929   */\n      dup1\n        /* \"#utility.yul\":921:933   */\n      revert\n        /* \"#utility.yul\":883:935   */\n    tag_304:\n        /* \"#utility.yul\":957:980   */\n      dup2\n      calldataload\n      sub(shl(0xa0, 0x01), 0x01)\n        /* \"#utility.yul\":1009:1040   */\n      dup2\n      and\n        /* \"#utility.yul\":999:1041   */\n      dup2\n      eq\n        /* \"#utility.yul\":989:1059   */\n      tag_305\n      jumpi\n        /* \"#utility.yul\":1055:1056   */\n      0x00\n        /* \"#utility.yul\":1052:1053   */\n      dup1\n        /* \"#utility.yul\":1045:1057   */\n      revert\n        /* \"#utility.yul\":989:1059   */\n    tag_305:\n        /* \"#utility.yul\":1078:1083   */\n      swap4\n        /* \"#utility.yul\":803:1089   */\n      swap3\n      pop\n      pop\n      pop\n      jump\t// out\n        /* \"#utility.yul\":2312:2655   */\n    tag_137:\n        /* \"#utility.yul\":2514:2516   */\n      0x20\n        /* \"#utility.yul\":2496:2517   */\n      dup1\n      dup3\n      mstore\n        /* \"#utility.yul\":2553:2555   */\n      0x13\n        /* \"#utility.yul\":2533:2551   */\n      swap1\n      dup3\n      add\n        /* \"#utility.yul\":2526:2556   */\n      mstore\n      shl(0x6a, 0x16995c9bc81859191c995cdcc81c185cdcd959)\n        /* \"#utility.yul\":2587:2589   */\n      0x40\n        /* \"#utility.yul\":2572:2590   */\n      dup3\n      add\n        /* \"#utility.yul\":2565:2614   */\n      mstore\n        /* \"#utility.yul\":2646:2648   */\n      0x60\n        /* \"#utility.yul\":2631:2649   */\n      add\n      swap1\n        /* \"#utility.yul\":2312:2655   */\n      jump\t// out\n        /* \"#utility.yul\":3013:3197   */\n    tag_168:\n        /* \"#utility.yul\":3083:3089   */\n      0x00\n        /* \"#utility.yul\":3136:3138   */\n      0x20\n        /* \"#utility.yul\":3124:3133   */\n      dup3\n        /* \"#utility.yul\":3115:3122   */\n      dup5\n        /* \"#utility.yul\":3111:3134   */\n      sub\n        /* \"#utility.yul\":3107:3139   */\n      slt\n        /* \"#utility.yul\":3104:3156   */\n      iszero\n      tag_313\n      jumpi\n        /* \"#utility.yul\":3152:3153   */\n      0x00\n        /* \"#utility.yul\":3149:3150   */\n      dup1\n        /* \"#utility.yul\":3142:3154   */\n      revert\n        /* \"#utility.yul\":3104:3156   */\n    tag_313:\n      pop\n        /* \"#utility.yul\":3175:3191   */\n      mload\n      swap2\n        /* \"#utility.yul\":3013:3197   */\n      swap1\n      pop\n      jump\t// out\n        /* \"#utility.yul\":6401:6678   */\n    tag_240:\n        /* \"#utility.yul\":6468:6474   */\n      0x00\n        /* \"#utility.yul\":6521:6523   */\n      0x20\n        /* \"#utility.yul\":6509:6518   */\n      dup3\n        /* \"#utility.yul\":6500:6507   */\n      dup5\n        /* \"#utility.yul\":6496:6519   */\n      sub\n        /* \"#utility.yul\":6492:6524   */\n      slt\n        /* \"#utility.yul\":6489:6541   */\n      iszero\n      tag_324\n      jumpi\n        /* \"#utility.yul\":6537:6538   */\n      0x00\n        /* \"#utility.yul\":6534:6535   */\n      dup1\n        /* \"#utility.yul\":6527:6539   */\n      revert\n        /* \"#utility.yul\":6489:6541   */\n    tag_324:\n        /* \"#utility.yul\":6569:6578   */\n      dup2\n        /* \"#utility.yul\":6563:6579   */\n      mload\n        /* \"#utility.yul\":6622:6627   */\n      dup1\n        /* \"#utility.yul\":6615:6628   */\n      iszero\n        /* \"#utility.yul\":6608:6629   */\n      iszero\n        /* \"#utility.yul\":6601:6606   */\n      dup2\n        /* \"#utility.yul\":6598:6630   */\n      eq\n        /* \"#utility.yul\":6588:6648   */\n      tag_305\n      jumpi\n        /* \"#utility.yul\":6644:6645   */\n      0x00\n        /* \"#utility.yul\":6641:6642   */\n      dup1\n        /* \"#utility.yul\":6634:6646   */\n      revert\n\n    auxdata: 0xa264697066735822122073629d1af6351b27eea089048f186074d7954a386bcf6b87ded47bf9efc5b7f964736f6c634300081c0033\n}\n",
				"bytecode": {
					"linkReferences": {},
					"object": "60a060405234801561001057600080fd5b5060405161148138038061148183398101604081905261002f9161027f565b836001600160a01b03811661005f57604051631e4fbdf760e01b8152600060048201526024015b60405180910390fd5b61006881610213565b50600180556002805460ff191690556001600160a01b0381166100dd5760405162461bcd60e51b815260206004820152602760248201527f5a65726f206164647265737320676976656e20666f722063555344546f6b656e6044820152664164647265737360c81b6064820152608401610056565b6001600160a01b03841661014a5760405162461bcd60e51b815260206004820152602e60248201527f5a65726f206164647265737320676976656e20666f722072657365617263686560448201526d7257616c6c65744164647265737360901b6064820152608401610056565b6000831161019a5760405162461bcd60e51b815260206004820152601560248201527f496e76616c69642072657761726420616d6f756e7400000000000000000000006044820152606401610056565b600082116101f85760405162461bcd60e51b815260206004820152602560248201527f496e76616c6964206e756d626572206f6620746172676574207061727469636960448201526470616e747360d81b6064820152608401610056565b6001600160a01b0316608052600691909155600755506102c6565b600080546001600160a01b038381166001600160a01b0319831681178455604051919092169283917f8be0079c531659141344cd1fd0a4f28419497f9722a3daafe3b4186f6b6457e09190a35050565b80516001600160a01b038116811461027a57600080fd5b919050565b6000806000806080858703121561029557600080fd5b61029e85610263565b60208601516040870151919550935091506102bb60608601610263565b905092959194509250565b60805161117d61030460003960008181610199015281816105f401528181610a3c01528181610b1401528181610b8d0152610f0f015261117d6000f3fe608060405234801561001057600080fd5b50600436106101735760003560e01c8063715018a6116100de578063a6a0981111610097578063ea1dd10111610071578063ea1dd10114610321578063f22069df14610334578063f2fde38b1461033c578063f67ae9411461034f57600080fd5b8063a6a09811146102e4578063d4bfbd41146102ed578063e082fe2a1461031957600080fd5b8063715018a61461027a578063741ae614146102825780637a0abf081461028a5780638c0a0966146102935780638da5cb5b146102c0578063a0858343146102d157600080fd5b80635c975abb116101305780635c975abb1461020157806364751f221461021857806364bb632f1461022b5780636fa1c59d1461023e5780636ff65c20146102465780637069243c1461027257600080fd5b8063047bc438146101785780631fccf6721461019457806328a2355b146101d35780633960fc66146101db5780634074be40146101e5578063528780cc146101ee575b600080fd5b61018160095481565b6040519081526020015b60405180910390f35b6101bb7f000000000000000000000000000000000000000000000000000000000000000081565b6040516001600160a01b03909116815260200161018b565b600954610181565b6101e3610362565b005b610181600a5481565b6101e36101fc366004611096565b610374565b60025460ff165b604051901515815260200161018b565b6101e36102263660046110af565b61042b565b6101e3610239366004611096565b610522565b600754610181565b6102086102543660046110af565b6001600160a01b031660009081526004602052604090205460ff1690565b600654610181565b6101e36105ba565b600854610181565b61018160065481565b6102086102a13660046110af565b6001600160a01b031660009081526003602052604090205460ff161590565b6000546001600160a01b03166101bb565b6101e36102df3660046110af565b6105cc565b61018160075481565b6102086102fb3660046110af565b6001600160a01b031660009081526003602052604090205460ff1690565b6101e36108c6565b6101e361032f3660046110af565b6108d6565b6101e3610a14565b6101e361034a3660046110af565b610c9a565b6101e361035d3660046110af565b610cd5565b61036a610dc3565b610372610df0565b565b61037c610dc3565b806000036103e25760405162461bcd60e51b815260206004820152602860248201527f5a65726f206e756d626572206f6620746172676574207061727469636970616e6044820152673a399033b4bb32b760c11b60648201526084015b60405180910390fd5b6007805490829055604080518281526020810184905283917fb90f11d36a1f2ec1f3b89ac87ccd1ffab1a49f3e3ca83cfdac21fd99a537cbc191015b60405180910390a1505050565b610433610dc3565b6001600160a01b038116600090815260036020526040902054819060ff16156104945760405162461bcd60e51b8152602060048201526013602482015272135d5cdd08189948189b1858dadb1a5cdd1959606a1b60448201526064016103d9565b6001600160a01b0382166104ba5760405162461bcd60e51b81526004016103d9906110df565b6001600160a01b038216600081815260036020908152604091829020805460ff1916600190811790915560098054909101905590519182527f84608224e0456ec7c9063f8dfd347a891979e08cb0c7d7dae9bad7bd5edb7f3691015b60405180910390a15050565b61052a610dc3565b8060000361057a5760405162461bcd60e51b815260206004820152601860248201527f5a65726f2072657761726420616d6f756e7420676976656e000000000000000060448201526064016103d9565b6006805490829055604080518281526020810184905283917ff0d37c3ae852021ac329281f604b658691cbfa6b9e9c22909f06b64a8ce87c94910161041e565b6105c2610dc3565b6103726000610e42565b6105d4610e92565b6105dc610eb6565b6006546040516370a0823160e01b81523060048201527f00000000000000000000000000000000000000000000000000000000000000006001600160a01b0316906370a0823190602401602060405180830381865afa158015610643573d6000803e3d6000fd5b505050506040513d601f19601f82011682018060405250810190610667919061110c565b10156106c05760405162461bcd60e51b815260206004820152602260248201527f436f6e747261637420646f6573206e6f74206861766520656e6f75676820635560448201526114d160f21b60648201526084016103d9565b6007546008541061071f5760405162461bcd60e51b815260206004820152602360248201527f416c6c207061727469636970616e74732068617665206265656e20726577617260448201526219195960ea1b60648201526084016103d9565b80336001600160a01b0382161461076c5760405162461bcd60e51b815260206004820152601160248201527027b7363c903b30b634b21039b2b73232b960791b60448201526064016103d9565b6001600160a01b038216600090815260036020526040902054829060ff166107d15760405162461bcd60e51b81526020600482015260186024820152774f6e6c792077686974656c6973746564206164647265737360401b60448201526064016103d9565b6001600160a01b038316600090815260046020526040902054839060ff161561083c5760405162461bcd60e51b815260206004820152601c60248201527f5061727469636970616e7420616c72656164792072657761726465640000000060448201526064016103d9565b6001600160a01b038416600090815260056020526040902054849060ff166108995760405162461bcd60e51b815260206004820152601060248201526f135d5cdd081899481cd8dc99595b995960821b60448201526064016103d9565b60006108a486610ee0565b905080156108b5576108b586610fdc565b50505050506108c360018055565b50565b6108ce610dc3565b610372611036565b80336001600160a01b038216146109235760405162461bcd60e51b815260206004820152601160248201527027b7363c903b30b634b21039b2b73232b960791b60448201526064016103d9565b6001600160a01b038216600090815260056020526040902054829060ff161561098e5760405162461bcd60e51b815260206004820152601760248201527f4f6e6c7920756e73637265656e6564206164647265737300000000000000000060448201526064016103d9565b6001600160a01b0383166109b45760405162461bcd60e51b81526004016103d9906110df565b6001600160a01b038316600081815260056020908152604091829020805460ff19166001908117909155600a8054909101905590519182527fc4ec7a2dc5e72d17666a15570e438638bfc023a7a091df162b669c37198bacb2910161041e565b610a1c610dc3565b610a24610e92565b6040516370a0823160e01b81523060048201526000907f00000000000000000000000000000000000000000000000000000000000000006001600160a01b0316906370a0823190602401602060405180830381865afa158015610a8b573d6000803e3d6000fd5b505050506040513d601f19601f82011682018060405250810190610aaf919061110c565b11610afc5760405162461bcd60e51b815260206004820152601f60248201527f436f6e747261637420646f6573206e6f74206861766520616e7920635553440060448201526064016103d9565b6040516370a0823160e01b81523060048201526000907f00000000000000000000000000000000000000000000000000000000000000006001600160a01b0316906370a0823190602401602060405180830381865afa158015610b63573d6000803e3d6000fd5b505050506040513d601f19601f82011682018060405250810190610b87919061110c565b905060007f00000000000000000000000000000000000000000000000000000000000000006001600160a01b031663a9059cbb610bcc6000546001600160a01b031690565b6040516001600160e01b031960e084901b1681526001600160a01b039091166004820152602481018590526044016020604051808303816000875af1158015610c19573d6000803e3d6000fd5b505050506040513d601f19601f82011682018060405250810190610c3d9190611125565b90508015610c96577f2036b9b38b69a2fa490ee702733a29cd2550accc20bc96e786cb9beedc779097610c786000546001600160a01b031690565b604080516001600160a01b0390921682526020820185905201610516565b5050565b610ca2610dc3565b6001600160a01b038116610ccc57604051631e4fbdf760e01b8152600060048201526024016103d9565b6108c381610e42565b610cdd610dc3565b6001600160a01b038116600090815260036020526040902054819060ff16610d425760405162461bcd60e51b81526020600482015260186024820152774f6e6c792077686974656c6973746564206164647265737360401b60448201526064016103d9565b6001600160a01b038216610d685760405162461bcd60e51b81526004016103d9906110df565b6001600160a01b038216600081815260036020908152604091829020805460ff191690556009805460001901905590519182527f9a3420c1085262889090de7fb2f9c9d1d7c8d69f895b7cd37074650958bc99e69101610516565b6000546001600160a01b031633146103725760405163118cdaa760e01b81523360048201526024016103d9565b610df8611073565b6002805460ff191690557f5db9ee0a495bf2e6ff9c91a7834c1ba4fdd244a5e8aa4e537bd38aeae4b073aa335b6040516001600160a01b03909116815260200160405180910390a1565b600080546001600160a01b038381166001600160a01b0319831681178455604051919092169283917f8be0079c531659141344cd1fd0a4f28419497f9722a3daafe3b4186f6b6457e09190a35050565b60025460ff16156103725760405163d93c066560e01b815260040160405180910390fd5b600260015403610ed957604051633ee5aeb560e01b815260040160405180910390fd5b6002600155565b60065460405163a9059cbb60e01b81526001600160a01b038381166004830152602482019290925260009182917f00000000000000000000000000000000000000000000000000000000000000009091169063a9059cbb906044016020604051808303816000875af1158015610f5a573d6000803e3d6000fd5b505050506040513d601f19601f82011682018060405250810190610f7e9190611125565b90508015610fd657600880546001019055600654604080516001600160a01b038616815260208101929092527f8934d7a9692e763e356fd30d84ca5f61a737b35c5ccd5d31d4f140310267b73e910160405180910390a15b92915050565b6001600160a01b038116600081815260046020908152604091829020805460ff1916600117905590519182527f654c9a027765e6feb862f42d438e9f6948f9ee31113e379f0372b30efc722943910160405180910390a150565b61103e610e92565b6002805460ff191660011790557f62e78cea01bee320cd4e420270b5ea74000d11b0c9f74754ebdbfc544b05a258610e253390565b60025460ff1661037257604051638dfc202b60e01b815260040160405180910390fd5b6000602082840312156110a857600080fd5b5035919050565b6000602082840312156110c157600080fd5b81356001600160a01b03811681146110d857600080fd5b9392505050565b60208082526013908201527216995c9bc81859191c995cdcc81c185cdcd959606a1b604082015260600190565b60006020828403121561111e57600080fd5b5051919050565b60006020828403121561113757600080fd5b815180151581146110d857600080fdfea264697066735822122073629d1af6351b27eea089048f186074d7954a386bcf6b87ded47bf9efc5b7f964736f6c634300081c0033",
					"opcodes": "PUSH1 0xA0 PUSH1 0x40 MSTORE CALLVALUE DUP1 ISZERO PUSH2 0x10 JUMPI PUSH1 0x0 DUP1 REVERT JUMPDEST POP PUSH1 0x40 MLOAD PUSH2 0x1481 CODESIZE SUB DUP1 PUSH2 0x1481 DUP4 CODECOPY DUP2 ADD PUSH1 0x40 DUP2 SWAP1 MSTORE PUSH2 0x2F SWAP2 PUSH2 0x27F JUMP JUMPDEST DUP4 PUSH1 0x1 PUSH1 0x1 PUSH1 0xA0 SHL SUB DUP2 AND PUSH2 0x5F JUMPI PUSH1 0x40 MLOAD PUSH4 0x1E4FBDF7 PUSH1 0xE0 SHL DUP2 MSTORE PUSH1 0x0 PUSH1 0x4 DUP3 ADD MSTORE PUSH1 0x24 ADD JUMPDEST PUSH1 0x40 MLOAD DUP1 SWAP2 SUB SWAP1 REVERT JUMPDEST PUSH2 0x68 DUP2 PUSH2 0x213 JUMP JUMPDEST POP PUSH1 0x1 DUP1 SSTORE PUSH1 0x2 DUP1 SLOAD PUSH1 0xFF NOT AND SWAP1 SSTORE PUSH1 0x1 PUSH1 0x1 PUSH1 0xA0 SHL SUB DUP2 AND PUSH2 0xDD JUMPI PUSH1 0x40 MLOAD PUSH3 0x461BCD PUSH1 0xE5 SHL DUP2 MSTORE PUSH1 0x20 PUSH1 0x4 DUP3 ADD MSTORE PUSH1 0x27 PUSH1 0x24 DUP3 ADD MSTORE PUSH32 0x5A65726F206164647265737320676976656E20666F722063555344546F6B656E PUSH1 0x44 DUP3 ADD MSTORE PUSH7 0x41646472657373 PUSH1 0xC8 SHL PUSH1 0x64 DUP3 ADD MSTORE PUSH1 0x84 ADD PUSH2 0x56 JUMP JUMPDEST PUSH1 0x1 PUSH1 0x1 PUSH1 0xA0 SHL SUB DUP5 AND PUSH2 0x14A JUMPI PUSH1 0x40 MLOAD PUSH3 0x461BCD PUSH1 0xE5 SHL DUP2 MSTORE PUSH1 0x20 PUSH1 0x4 DUP3 ADD MSTORE PUSH1 0x2E PUSH1 0x24 DUP3 ADD MSTORE PUSH32 0x5A65726F206164647265737320676976656E20666F7220726573656172636865 PUSH1 0x44 DUP3 ADD MSTORE PUSH14 0x7257616C6C657441646472657373 PUSH1 0x90 SHL PUSH1 0x64 DUP3 ADD MSTORE PUSH1 0x84 ADD PUSH2 0x56 JUMP JUMPDEST PUSH1 0x0 DUP4 GT PUSH2 0x19A JUMPI PUSH1 0x40 MLOAD PUSH3 0x461BCD PUSH1 0xE5 SHL DUP2 MSTORE PUSH1 0x20 PUSH1 0x4 DUP3 ADD MSTORE PUSH1 0x15 PUSH1 0x24 DUP3 ADD MSTORE PUSH32 0x496E76616C69642072657761726420616D6F756E740000000000000000000000 PUSH1 0x44 DUP3 ADD MSTORE PUSH1 0x64 ADD PUSH2 0x56 JUMP JUMPDEST PUSH1 0x0 DUP3 GT PUSH2 0x1F8 JUMPI PUSH1 0x40 MLOAD PUSH3 0x461BCD PUSH1 0xE5 SHL DUP2 MSTORE PUSH1 0x20 PUSH1 0x4 DUP3 ADD MSTORE PUSH1 0x25 PUSH1 0x24 DUP3 ADD MSTORE PUSH32 0x496E76616C6964206E756D626572206F66207461726765742070617274696369 PUSH1 0x44 DUP3 ADD MSTORE PUSH5 0x70616E7473 PUSH1 0xD8 SHL PUSH1 0x64 DUP3 ADD MSTORE PUSH1 0x84 ADD PUSH2 0x56 JUMP JUMPDEST PUSH1 0x1 PUSH1 0x1 PUSH1 0xA0 SHL SUB AND PUSH1 0x80 MSTORE PUSH1 0x6 SWAP2 SWAP1 SWAP2 SSTORE PUSH1 0x7 SSTORE POP PUSH2 0x2C6 JUMP JUMPDEST PUSH1 0x0 DUP1 SLOAD PUSH1 0x1 PUSH1 0x1 PUSH1 0xA0 SHL SUB DUP4 DUP2 AND PUSH1 0x1 PUSH1 0x1 PUSH1 0xA0 SHL SUB NOT DUP4 AND DUP2 OR DUP5 SSTORE PUSH1 0x40 MLOAD SWAP2 SWAP1 SWAP3 AND SWAP3 DUP4 SWAP2 PUSH32 0x8BE0079C531659141344CD1FD0A4F28419497F9722A3DAAFE3B4186F6B6457E0 SWAP2 SWAP1 LOG3 POP POP JUMP JUMPDEST DUP1 MLOAD PUSH1 0x1 PUSH1 0x1 PUSH1 0xA0 SHL SUB DUP2 AND DUP2 EQ PUSH2 0x27A JUMPI PUSH1 0x0 DUP1 REVERT JUMPDEST SWAP2 SWAP1 POP JUMP JUMPDEST PUSH1 0x0 DUP1 PUSH1 0x0 DUP1 PUSH1 0x80 DUP6 DUP8 SUB SLT ISZERO PUSH2 0x295 JUMPI PUSH1 0x0 DUP1 REVERT JUMPDEST PUSH2 0x29E DUP6 PUSH2 0x263 JUMP JUMPDEST PUSH1 0x20 DUP7 ADD MLOAD PUSH1 0x40 DUP8 ADD MLOAD SWAP2 SWAP6 POP SWAP4 POP SWAP2 POP PUSH2 0x2BB PUSH1 0x60 DUP7 ADD PUSH2 0x263 JUMP JUMPDEST SWAP1 POP SWAP3 SWAP6 SWAP2 SWAP5 POP SWAP3 POP JUMP JUMPDEST PUSH1 0x80 MLOAD PUSH2 0x117D PUSH2 0x304 PUSH1 0x0 CODECOPY PUSH1 0x0 DUP2 DUP2 PUSH2 0x199 ADD MSTORE DUP2 DUP2 PUSH2 0x5F4 ADD MSTORE DUP2 DUP2 PUSH2 0xA3C ADD MSTORE DUP2 DUP2 PUSH2 0xB14 ADD MSTORE DUP2 DUP2 PUSH2 0xB8D ADD MSTORE PUSH2 0xF0F ADD MSTORE PUSH2 0x117D PUSH1 0x0 RETURN INVALID PUSH1 0x80 PUSH1 0x40 MSTORE CALLVALUE DUP1 ISZERO PUSH2 0x10 JUMPI PUSH1 0x0 DUP1 REVERT JUMPDEST POP PUSH1 0x4 CALLDATASIZE LT PUSH2 0x173 JUMPI PUSH1 0x0 CALLDATALOAD PUSH1 0xE0 SHR DUP1 PUSH4 0x715018A6 GT PUSH2 0xDE JUMPI DUP1 PUSH4 0xA6A09811 GT PUSH2 0x97 JUMPI DUP1 PUSH4 0xEA1DD101 GT PUSH2 0x71 JUMPI DUP1 PUSH4 0xEA1DD101 EQ PUSH2 0x321 JUMPI DUP1 PUSH4 0xF22069DF EQ PUSH2 0x334 JUMPI DUP1 PUSH4 0xF2FDE38B EQ PUSH2 0x33C JUMPI DUP1 PUSH4 0xF67AE941 EQ PUSH2 0x34F JUMPI PUSH1 0x0 DUP1 REVERT JUMPDEST DUP1 PUSH4 0xA6A09811 EQ PUSH2 0x2E4 JUMPI DUP1 PUSH4 0xD4BFBD41 EQ PUSH2 0x2ED JUMPI DUP1 PUSH4 0xE082FE2A EQ PUSH2 0x319 JUMPI PUSH1 0x0 DUP1 REVERT JUMPDEST DUP1 PUSH4 0x715018A6 EQ PUSH2 0x27A JUMPI DUP1 PUSH4 0x741AE614 EQ PUSH2 0x282 JUMPI DUP1 PUSH4 0x7A0ABF08 EQ PUSH2 0x28A JUMPI DUP1 PUSH4 0x8C0A0966 EQ PUSH2 0x293 JUMPI DUP1 PUSH4 0x8DA5CB5B EQ PUSH2 0x2C0 JUMPI DUP1 PUSH4 0xA0858343 EQ PUSH2 0x2D1 JUMPI PUSH1 0x0 DUP1 REVERT JUMPDEST DUP1 PUSH4 0x5C975ABB GT PUSH2 0x130 JUMPI DUP1 PUSH4 0x5C975ABB EQ PUSH2 0x201 JUMPI DUP1 PUSH4 0x64751F22 EQ PUSH2 0x218 JUMPI DUP1 PUSH4 0x64BB632F EQ PUSH2 0x22B JUMPI DUP1 PUSH4 0x6FA1C59D EQ PUSH2 0x23E JUMPI DUP1 PUSH4 0x6FF65C20 EQ PUSH2 0x246 JUMPI DUP1 PUSH4 0x7069243C EQ PUSH2 0x272 JUMPI PUSH1 0x0 DUP1 REVERT JUMPDEST DUP1 PUSH4 0x47BC438 EQ PUSH2 0x178 JUMPI DUP1 PUSH4 0x1FCCF672 EQ PUSH2 0x194 JUMPI DUP1 PUSH4 0x28A2355B EQ PUSH2 0x1D3 JUMPI DUP1 PUSH4 0x3960FC66 EQ PUSH2 0x1DB JUMPI DUP1 PUSH4 0x4074BE40 EQ PUSH2 0x1E5 JUMPI DUP1 PUSH4 0x528780CC EQ PUSH2 0x1EE JUMPI JUMPDEST PUSH1 0x0 DUP1 REVERT JUMPDEST PUSH2 0x181 PUSH1 0x9 SLOAD DUP2 JUMP JUMPDEST PUSH1 0x40 MLOAD SWAP1 DUP2 MSTORE PUSH1 0x20 ADD JUMPDEST PUSH1 0x40 MLOAD DUP1 SWAP2 SUB SWAP1 RETURN JUMPDEST PUSH2 0x1BB PUSH32 0x0 DUP2 JUMP JUMPDEST PUSH1 0x40 MLOAD PUSH1 0x1 PUSH1 0x1 PUSH1 0xA0 SHL SUB SWAP1 SWAP2 AND DUP2 MSTORE PUSH1 0x20 ADD PUSH2 0x18B JUMP JUMPDEST PUSH1 0x9 SLOAD PUSH2 0x181 JUMP JUMPDEST PUSH2 0x1E3 PUSH2 0x362 JUMP JUMPDEST STOP JUMPDEST PUSH2 0x181 PUSH1 0xA SLOAD DUP2 JUMP JUMPDEST PUSH2 0x1E3 PUSH2 0x1FC CALLDATASIZE PUSH1 0x4 PUSH2 0x1096 JUMP JUMPDEST PUSH2 0x374 JUMP JUMPDEST PUSH1 0x2 SLOAD PUSH1 0xFF AND JUMPDEST PUSH1 0x40 MLOAD SWAP1 ISZERO ISZERO DUP2 MSTORE PUSH1 0x20 ADD PUSH2 0x18B JUMP JUMPDEST PUSH2 0x1E3 PUSH2 0x226 CALLDATASIZE PUSH1 0x4 PUSH2 0x10AF JUMP JUMPDEST PUSH2 0x42B JUMP JUMPDEST PUSH2 0x1E3 PUSH2 0x239 CALLDATASIZE PUSH1 0x4 PUSH2 0x1096 JUMP JUMPDEST PUSH2 0x522 JUMP JUMPDEST PUSH1 0x7 SLOAD PUSH2 0x181 JUMP JUMPDEST PUSH2 0x208 PUSH2 0x254 CALLDATASIZE PUSH1 0x4 PUSH2 0x10AF JUMP JUMPDEST PUSH1 0x1 PUSH1 0x1 PUSH1 0xA0 SHL SUB AND PUSH1 0x0 SWAP1 DUP2 MSTORE PUSH1 0x4 PUSH1 0x20 MSTORE PUSH1 0x40 SWAP1 KECCAK256 SLOAD PUSH1 0xFF AND SWAP1 JUMP JUMPDEST PUSH1 0x6 SLOAD PUSH2 0x181 JUMP JUMPDEST PUSH2 0x1E3 PUSH2 0x5BA JUMP JUMPDEST PUSH1 0x8 SLOAD PUSH2 0x181 JUMP JUMPDEST PUSH2 0x181 PUSH1 0x6 SLOAD DUP2 JUMP JUMPDEST PUSH2 0x208 PUSH2 0x2A1 CALLDATASIZE PUSH1 0x4 PUSH2 0x10AF JUMP JUMPDEST PUSH1 0x1 PUSH1 0x1 PUSH1 0xA0 SHL SUB AND PUSH1 0x0 SWAP1 DUP2 MSTORE PUSH1 0x3 PUSH1 0x20 MSTORE PUSH1 0x40 SWAP1 KECCAK256 SLOAD PUSH1 0xFF AND ISZERO SWAP1 JUMP JUMPDEST PUSH1 0x0 SLOAD PUSH1 0x1 PUSH1 0x1 PUSH1 0xA0 SHL SUB AND PUSH2 0x1BB JUMP JUMPDEST PUSH2 0x1E3 PUSH2 0x2DF CALLDATASIZE PUSH1 0x4 PUSH2 0x10AF JUMP JUMPDEST PUSH2 0x5CC JUMP JUMPDEST PUSH2 0x181 PUSH1 0x7 SLOAD DUP2 JUMP JUMPDEST PUSH2 0x208 PUSH2 0x2FB CALLDATASIZE PUSH1 0x4 PUSH2 0x10AF JUMP JUMPDEST PUSH1 0x1 PUSH1 0x1 PUSH1 0xA0 SHL SUB AND PUSH1 0x0 SWAP1 DUP2 MSTORE PUSH1 0x3 PUSH1 0x20 MSTORE PUSH1 0x40 SWAP1 KECCAK256 SLOAD PUSH1 0xFF AND SWAP1 JUMP JUMPDEST PUSH2 0x1E3 PUSH2 0x8C6 JUMP JUMPDEST PUSH2 0x1E3 PUSH2 0x32F CALLDATASIZE PUSH1 0x4 PUSH2 0x10AF JUMP JUMPDEST PUSH2 0x8D6 JUMP JUMPDEST PUSH2 0x1E3 PUSH2 0xA14 JUMP JUMPDEST PUSH2 0x1E3 PUSH2 0x34A CALLDATASIZE PUSH1 0x4 PUSH2 0x10AF JUMP JUMPDEST PUSH2 0xC9A JUMP JUMPDEST PUSH2 0x1E3 PUSH2 0x35D CALLDATASIZE PUSH1 0x4 PUSH2 0x10AF JUMP JUMPDEST PUSH2 0xCD5 JUMP JUMPDEST PUSH2 0x36A PUSH2 0xDC3 JUMP JUMPDEST PUSH2 0x372 PUSH2 0xDF0 JUMP JUMPDEST JUMP JUMPDEST PUSH2 0x37C PUSH2 0xDC3 JUMP JUMPDEST DUP1 PUSH1 0x0 SUB PUSH2 0x3E2 JUMPI PUSH1 0x40 MLOAD PUSH3 0x461BCD PUSH1 0xE5 SHL DUP2 MSTORE PUSH1 0x20 PUSH1 0x4 DUP3 ADD MSTORE PUSH1 0x28 PUSH1 0x24 DUP3 ADD MSTORE PUSH32 0x5A65726F206E756D626572206F6620746172676574207061727469636970616E PUSH1 0x44 DUP3 ADD MSTORE PUSH8 0x3A399033B4BB32B7 PUSH1 0xC1 SHL PUSH1 0x64 DUP3 ADD MSTORE PUSH1 0x84 ADD JUMPDEST PUSH1 0x40 MLOAD DUP1 SWAP2 SUB SWAP1 REVERT JUMPDEST PUSH1 0x7 DUP1 SLOAD SWAP1 DUP3 SWAP1 SSTORE PUSH1 0x40 DUP1 MLOAD DUP3 DUP2 MSTORE PUSH1 0x20 DUP2 ADD DUP5 SWAP1 MSTORE DUP4 SWAP2 PUSH32 0xB90F11D36A1F2EC1F3B89AC87CCD1FFAB1A49F3E3CA83CFDAC21FD99A537CBC1 SWAP2 ADD JUMPDEST PUSH1 0x40 MLOAD DUP1 SWAP2 SUB SWAP1 LOG1 POP POP POP JUMP JUMPDEST PUSH2 0x433 PUSH2 0xDC3 JUMP JUMPDEST PUSH1 0x1 PUSH1 0x1 PUSH1 0xA0 SHL SUB DUP2 AND PUSH1 0x0 SWAP1 DUP2 MSTORE PUSH1 0x3 PUSH1 0x20 MSTORE PUSH1 0x40 SWAP1 KECCAK256 SLOAD DUP2 SWAP1 PUSH1 0xFF AND ISZERO PUSH2 0x494 JUMPI PUSH1 0x40 MLOAD PUSH3 0x461BCD PUSH1 0xE5 SHL DUP2 MSTORE PUSH1 0x20 PUSH1 0x4 DUP3 ADD MSTORE PUSH1 0x13 PUSH1 0x24 DUP3 ADD MSTORE PUSH19 0x135D5CDD08189948189B1858DADB1A5CDD1959 PUSH1 0x6A SHL PUSH1 0x44 DUP3 ADD MSTORE PUSH1 0x64 ADD PUSH2 0x3D9 JUMP JUMPDEST PUSH1 0x1 PUSH1 0x1 PUSH1 0xA0 SHL SUB DUP3 AND PUSH2 0x4BA JUMPI PUSH1 0x40 MLOAD PUSH3 0x461BCD PUSH1 0xE5 SHL DUP2 MSTORE PUSH1 0x4 ADD PUSH2 0x3D9 SWAP1 PUSH2 0x10DF JUMP JUMPDEST PUSH1 0x1 PUSH1 0x1 PUSH1 0xA0 SHL SUB DUP3 AND PUSH1 0x0 DUP2 DUP2 MSTORE PUSH1 0x3 PUSH1 0x20 SWAP1 DUP2 MSTORE PUSH1 0x40 SWAP2 DUP3 SWAP1 KECCAK256 DUP1 SLOAD PUSH1 0xFF NOT AND PUSH1 0x1 SWAP1 DUP2 OR SWAP1 SWAP2 SSTORE PUSH1 0x9 DUP1 SLOAD SWAP1 SWAP2 ADD SWAP1 SSTORE SWAP1 MLOAD SWAP2 DUP3 MSTORE PUSH32 0x84608224E0456EC7C9063F8DFD347A891979E08CB0C7D7DAE9BAD7BD5EDB7F36 SWAP2 ADD JUMPDEST PUSH1 0x40 MLOAD DUP1 SWAP2 SUB SWAP1 LOG1 POP POP JUMP JUMPDEST PUSH2 0x52A PUSH2 0xDC3 JUMP JUMPDEST DUP1 PUSH1 0x0 SUB PUSH2 0x57A JUMPI PUSH1 0x40 MLOAD PUSH3 0x461BCD PUSH1 0xE5 SHL DUP2 MSTORE PUSH1 0x20 PUSH1 0x4 DUP3 ADD MSTORE PUSH1 0x18 PUSH1 0x24 DUP3 ADD MSTORE PUSH32 0x5A65726F2072657761726420616D6F756E7420676976656E0000000000000000 PUSH1 0x44 DUP3 ADD MSTORE PUSH1 0x64 ADD PUSH2 0x3D9 JUMP JUMPDEST PUSH1 0x6 DUP1 SLOAD SWAP1 DUP3 SWAP1 SSTORE PUSH1 0x40 DUP1 MLOAD DUP3 DUP2 MSTORE PUSH1 0x20 DUP2 ADD DUP5 SWAP1 MSTORE DUP4 SWAP2 PUSH32 0xF0D37C3AE852021AC329281F604B658691CBFA6B9E9C22909F06B64A8CE87C94 SWAP2 ADD PUSH2 0x41E JUMP JUMPDEST PUSH2 0x5C2 PUSH2 0xDC3 JUMP JUMPDEST PUSH2 0x372 PUSH1 0x0 PUSH2 0xE42 JUMP JUMPDEST PUSH2 0x5D4 PUSH2 0xE92 JUMP JUMPDEST PUSH2 0x5DC PUSH2 0xEB6 JUMP JUMPDEST PUSH1 0x6 SLOAD PUSH1 0x40 MLOAD PUSH4 0x70A08231 PUSH1 0xE0 SHL DUP2 MSTORE ADDRESS PUSH1 0x4 DUP3 ADD MSTORE PUSH32 0x0 PUSH1 0x1 PUSH1 0x1 PUSH1 0xA0 SHL SUB AND SWAP1 PUSH4 0x70A08231 SWAP1 PUSH1 0x24 ADD PUSH1 0x20 PUSH1 0x40 MLOAD DUP1 DUP4 SUB DUP2 DUP7 GAS STATICCALL ISZERO DUP1 ISZERO PUSH2 0x643 JUMPI RETURNDATASIZE PUSH1 0x0 DUP1 RETURNDATACOPY RETURNDATASIZE PUSH1 0x0 REVERT JUMPDEST POP POP POP POP PUSH1 0x40 MLOAD RETURNDATASIZE PUSH1 0x1F NOT PUSH1 0x1F DUP3 ADD AND DUP3 ADD DUP1 PUSH1 0x40 MSTORE POP DUP2 ADD SWAP1 PUSH2 0x667 SWAP2 SWAP1 PUSH2 0x110C JUMP JUMPDEST LT ISZERO PUSH2 0x6C0 JUMPI PUSH1 0x40 MLOAD PUSH3 0x461BCD PUSH1 0xE5 SHL DUP2 MSTORE PUSH1 0x20 PUSH1 0x4 DUP3 ADD MSTORE PUSH1 0x22 PUSH1 0x24 DUP3 ADD MSTORE PUSH32 0x436F6E747261637420646F6573206E6F74206861766520656E6F756768206355 PUSH1 0x44 DUP3 ADD MSTORE PUSH2 0x14D1 PUSH1 0xF2 SHL PUSH1 0x64 DUP3 ADD MSTORE PUSH1 0x84 ADD PUSH2 0x3D9 JUMP JUMPDEST PUSH1 0x7 SLOAD PUSH1 0x8 SLOAD LT PUSH2 0x71F JUMPI PUSH1 0x40 MLOAD PUSH3 0x461BCD PUSH1 0xE5 SHL DUP2 MSTORE PUSH1 0x20 PUSH1 0x4 DUP3 ADD MSTORE PUSH1 0x23 PUSH1 0x24 DUP3 ADD MSTORE PUSH32 0x416C6C207061727469636970616E74732068617665206265656E207265776172 PUSH1 0x44 DUP3 ADD MSTORE PUSH3 0x191959 PUSH1 0xEA SHL PUSH1 0x64 DUP3 ADD MSTORE PUSH1 0x84 ADD PUSH2 0x3D9 JUMP JUMPDEST DUP1 CALLER PUSH1 0x1 PUSH1 0x1 PUSH1 0xA0 SHL SUB DUP3 AND EQ PUSH2 0x76C JUMPI PUSH1 0x40 MLOAD PUSH3 0x461BCD PUSH1 0xE5 SHL DUP2 MSTORE PUSH1 0x20 PUSH1 0x4 DUP3 ADD MSTORE PUSH1 0x11 PUSH1 0x24 DUP3 ADD MSTORE PUSH17 0x27B7363C903B30B634B21039B2B73232B9 PUSH1 0x79 SHL PUSH1 0x44 DUP3 ADD MSTORE PUSH1 0x64 ADD PUSH2 0x3D9 JUMP JUMPDEST PUSH1 0x1 PUSH1 0x1 PUSH1 0xA0 SHL SUB DUP3 AND PUSH1 0x0 SWAP1 DUP2 MSTORE PUSH1 0x3 PUSH1 0x20 MSTORE PUSH1 0x40 SWAP1 KECCAK256 SLOAD DUP3 SWAP1 PUSH1 0xFF AND PUSH2 0x7D1 JUMPI PUSH1 0x40 MLOAD PUSH3 0x461BCD PUSH1 0xE5 SHL DUP2 MSTORE PUSH1 0x20 PUSH1 0x4 DUP3 ADD MSTORE PUSH1 0x18 PUSH1 0x24 DUP3 ADD MSTORE PUSH24 0x4F6E6C792077686974656C69737465642061646472657373 PUSH1 0x40 SHL PUSH1 0x44 DUP3 ADD MSTORE PUSH1 0x64 ADD PUSH2 0x3D9 JUMP JUMPDEST PUSH1 0x1 PUSH1 0x1 PUSH1 0xA0 SHL SUB DUP4 AND PUSH1 0x0 SWAP1 DUP2 MSTORE PUSH1 0x4 PUSH1 0x20 MSTORE PUSH1 0x40 SWAP1 KECCAK256 SLOAD DUP4 SWAP1 PUSH1 0xFF AND ISZERO PUSH2 0x83C JUMPI PUSH1 0x40 MLOAD PUSH3 0x461BCD PUSH1 0xE5 SHL DUP2 MSTORE PUSH1 0x20 PUSH1 0x4 DUP3 ADD MSTORE PUSH1 0x1C PUSH1 0x24 DUP3 ADD MSTORE PUSH32 0x5061727469636970616E7420616C726561647920726577617264656400000000 PUSH1 0x44 DUP3 ADD MSTORE PUSH1 0x64 ADD PUSH2 0x3D9 JUMP JUMPDEST PUSH1 0x1 PUSH1 0x1 PUSH1 0xA0 SHL SUB DUP5 AND PUSH1 0x0 SWAP1 DUP2 MSTORE PUSH1 0x5 PUSH1 0x20 MSTORE PUSH1 0x40 SWAP1 KECCAK256 SLOAD DUP5 SWAP1 PUSH1 0xFF AND PUSH2 0x899 JUMPI PUSH1 0x40 MLOAD PUSH3 0x461BCD PUSH1 0xE5 SHL DUP2 MSTORE PUSH1 0x20 PUSH1 0x4 DUP3 ADD MSTORE PUSH1 0x10 PUSH1 0x24 DUP3 ADD MSTORE PUSH16 0x135D5CDD081899481CD8DC99595B9959 PUSH1 0x82 SHL PUSH1 0x44 DUP3 ADD MSTORE PUSH1 0x64 ADD PUSH2 0x3D9 JUMP JUMPDEST PUSH1 0x0 PUSH2 0x8A4 DUP7 PUSH2 0xEE0 JUMP JUMPDEST SWAP1 POP DUP1 ISZERO PUSH2 0x8B5 JUMPI PUSH2 0x8B5 DUP7 PUSH2 0xFDC JUMP JUMPDEST POP POP POP POP POP PUSH2 0x8C3 PUSH1 0x1 DUP1 SSTORE JUMP JUMPDEST POP JUMP JUMPDEST PUSH2 0x8CE PUSH2 0xDC3 JUMP JUMPDEST PUSH2 0x372 PUSH2 0x1036 JUMP JUMPDEST DUP1 CALLER PUSH1 0x1 PUSH1 0x1 PUSH1 0xA0 SHL SUB DUP3 AND EQ PUSH2 0x923 JUMPI PUSH1 0x40 MLOAD PUSH3 0x461BCD PUSH1 0xE5 SHL DUP2 MSTORE PUSH1 0x20 PUSH1 0x4 DUP3 ADD MSTORE PUSH1 0x11 PUSH1 0x24 DUP3 ADD MSTORE PUSH17 0x27B7363C903B30B634B21039B2B73232B9 PUSH1 0x79 SHL PUSH1 0x44 DUP3 ADD MSTORE PUSH1 0x64 ADD PUSH2 0x3D9 JUMP JUMPDEST PUSH1 0x1 PUSH1 0x1 PUSH1 0xA0 SHL SUB DUP3 AND PUSH1 0x0 SWAP1 DUP2 MSTORE PUSH1 0x5 PUSH1 0x20 MSTORE PUSH1 0x40 SWAP1 KECCAK256 SLOAD DUP3 SWAP1 PUSH1 0xFF AND ISZERO PUSH2 0x98E JUMPI PUSH1 0x40 MLOAD PUSH3 0x461BCD PUSH1 0xE5 SHL DUP2 MSTORE PUSH1 0x20 PUSH1 0x4 DUP3 ADD MSTORE PUSH1 0x17 PUSH1 0x24 DUP3 ADD MSTORE PUSH32 0x4F6E6C7920756E73637265656E65642061646472657373000000000000000000 PUSH1 0x44 DUP3 ADD MSTORE PUSH1 0x64 ADD PUSH2 0x3D9 JUMP JUMPDEST PUSH1 0x1 PUSH1 0x1 PUSH1 0xA0 SHL SUB DUP4 AND PUSH2 0x9B4 JUMPI PUSH1 0x40 MLOAD PUSH3 0x461BCD PUSH1 0xE5 SHL DUP2 MSTORE PUSH1 0x4 ADD PUSH2 0x3D9 SWAP1 PUSH2 0x10DF JUMP JUMPDEST PUSH1 0x1 PUSH1 0x1 PUSH1 0xA0 SHL SUB DUP4 AND PUSH1 0x0 DUP2 DUP2 MSTORE PUSH1 0x5 PUSH1 0x20 SWAP1 DUP2 MSTORE PUSH1 0x40 SWAP2 DUP3 SWAP1 KECCAK256 DUP1 SLOAD PUSH1 0xFF NOT AND PUSH1 0x1 SWAP1 DUP2 OR SWAP1 SWAP2 SSTORE PUSH1 0xA DUP1 SLOAD SWAP1 SWAP2 ADD SWAP1 SSTORE SWAP1 MLOAD SWAP2 DUP3 MSTORE PUSH32 0xC4EC7A2DC5E72D17666A15570E438638BFC023A7A091DF162B669C37198BACB2 SWAP2 ADD PUSH2 0x41E JUMP JUMPDEST PUSH2 0xA1C PUSH2 0xDC3 JUMP JUMPDEST PUSH2 0xA24 PUSH2 0xE92 JUMP JUMPDEST PUSH1 0x40 MLOAD PUSH4 0x70A08231 PUSH1 0xE0 SHL DUP2 MSTORE ADDRESS PUSH1 0x4 DUP3 ADD MSTORE PUSH1 0x0 SWAP1 PUSH32 0x0 PUSH1 0x1 PUSH1 0x1 PUSH1 0xA0 SHL SUB AND SWAP1 PUSH4 0x70A08231 SWAP1 PUSH1 0x24 ADD PUSH1 0x20 PUSH1 0x40 MLOAD DUP1 DUP4 SUB DUP2 DUP7 GAS STATICCALL ISZERO DUP1 ISZERO PUSH2 0xA8B JUMPI RETURNDATASIZE PUSH1 0x0 DUP1 RETURNDATACOPY RETURNDATASIZE PUSH1 0x0 REVERT JUMPDEST POP POP POP POP PUSH1 0x40 MLOAD RETURNDATASIZE PUSH1 0x1F NOT PUSH1 0x1F DUP3 ADD AND DUP3 ADD DUP1 PUSH1 0x40 MSTORE POP DUP2 ADD SWAP1 PUSH2 0xAAF SWAP2 SWAP1 PUSH2 0x110C JUMP JUMPDEST GT PUSH2 0xAFC JUMPI PUSH1 0x40 MLOAD PUSH3 0x461BCD PUSH1 0xE5 SHL DUP2 MSTORE PUSH1 0x20 PUSH1 0x4 DUP3 ADD MSTORE PUSH1 0x1F PUSH1 0x24 DUP3 ADD MSTORE PUSH32 0x436F6E747261637420646F6573206E6F74206861766520616E79206355534400 PUSH1 0x44 DUP3 ADD MSTORE PUSH1 0x64 ADD PUSH2 0x3D9 JUMP JUMPDEST PUSH1 0x40 MLOAD PUSH4 0x70A08231 PUSH1 0xE0 SHL DUP2 MSTORE ADDRESS PUSH1 0x4 DUP3 ADD MSTORE PUSH1 0x0 SWAP1 PUSH32 0x0 PUSH1 0x1 PUSH1 0x1 PUSH1 0xA0 SHL SUB AND SWAP1 PUSH4 0x70A08231 SWAP1 PUSH1 0x24 ADD PUSH1 0x20 PUSH1 0x40 MLOAD DUP1 DUP4 SUB DUP2 DUP7 GAS STATICCALL ISZERO DUP1 ISZERO PUSH2 0xB63 JUMPI RETURNDATASIZE PUSH1 0x0 DUP1 RETURNDATACOPY RETURNDATASIZE PUSH1 0x0 REVERT JUMPDEST POP POP POP POP PUSH1 0x40 MLOAD RETURNDATASIZE PUSH1 0x1F NOT PUSH1 0x1F DUP3 ADD AND DUP3 ADD DUP1 PUSH1 0x40 MSTORE POP DUP2 ADD SWAP1 PUSH2 0xB87 SWAP2 SWAP1 PUSH2 0x110C JUMP JUMPDEST SWAP1 POP PUSH1 0x0 PUSH32 0x0 PUSH1 0x1 PUSH1 0x1 PUSH1 0xA0 SHL SUB AND PUSH4 0xA9059CBB PUSH2 0xBCC PUSH1 0x0 SLOAD PUSH1 0x1 PUSH1 0x1 PUSH1 0xA0 SHL SUB AND SWAP1 JUMP JUMPDEST PUSH1 0x40 MLOAD PUSH1 0x1 PUSH1 0x1 PUSH1 0xE0 SHL SUB NOT PUSH1 0xE0 DUP5 SWAP1 SHL AND DUP2 MSTORE PUSH1 0x1 PUSH1 0x1 PUSH1 0xA0 SHL SUB SWAP1 SWAP2 AND PUSH1 0x4 DUP3 ADD MSTORE PUSH1 0x24 DUP2 ADD DUP6 SWAP1 MSTORE PUSH1 0x44 ADD PUSH1 0x20 PUSH1 0x40 MLOAD DUP1 DUP4 SUB DUP2 PUSH1 0x0 DUP8 GAS CALL ISZERO DUP1 ISZERO PUSH2 0xC19 JUMPI RETURNDATASIZE PUSH1 0x0 DUP1 RETURNDATACOPY RETURNDATASIZE PUSH1 0x0 REVERT JUMPDEST POP POP POP POP PUSH1 0x40 MLOAD RETURNDATASIZE PUSH1 0x1F NOT PUSH1 0x1F DUP3 ADD AND DUP3 ADD DUP1 PUSH1 0x40 MSTORE POP DUP2 ADD SWAP1 PUSH2 0xC3D SWAP2 SWAP1 PUSH2 0x1125 JUMP JUMPDEST SWAP1 POP DUP1 ISZERO PUSH2 0xC96 JUMPI PUSH32 0x2036B9B38B69A2FA490EE702733A29CD2550ACCC20BC96E786CB9BEEDC779097 PUSH2 0xC78 PUSH1 0x0 SLOAD PUSH1 0x1 PUSH1 0x1 PUSH1 0xA0 SHL SUB AND SWAP1 JUMP JUMPDEST PUSH1 0x40 DUP1 MLOAD PUSH1 0x1 PUSH1 0x1 PUSH1 0xA0 SHL SUB SWAP1 SWAP3 AND DUP3 MSTORE PUSH1 0x20 DUP3 ADD DUP6 SWAP1 MSTORE ADD PUSH2 0x516 JUMP JUMPDEST POP POP JUMP JUMPDEST PUSH2 0xCA2 PUSH2 0xDC3 JUMP JUMPDEST PUSH1 0x1 PUSH1 0x1 PUSH1 0xA0 SHL SUB DUP2 AND PUSH2 0xCCC JUMPI PUSH1 0x40 MLOAD PUSH4 0x1E4FBDF7 PUSH1 0xE0 SHL DUP2 MSTORE PUSH1 0x0 PUSH1 0x4 DUP3 ADD MSTORE PUSH1 0x24 ADD PUSH2 0x3D9 JUMP JUMPDEST PUSH2 0x8C3 DUP2 PUSH2 0xE42 JUMP JUMPDEST PUSH2 0xCDD PUSH2 0xDC3 JUMP JUMPDEST PUSH1 0x1 PUSH1 0x1 PUSH1 0xA0 SHL SUB DUP2 AND PUSH1 0x0 SWAP1 DUP2 MSTORE PUSH1 0x3 PUSH1 0x20 MSTORE PUSH1 0x40 SWAP1 KECCAK256 SLOAD DUP2 SWAP1 PUSH1 0xFF AND PUSH2 0xD42 JUMPI PUSH1 0x40 MLOAD PUSH3 0x461BCD PUSH1 0xE5 SHL DUP2 MSTORE PUSH1 0x20 PUSH1 0x4 DUP3 ADD MSTORE PUSH1 0x18 PUSH1 0x24 DUP3 ADD MSTORE PUSH24 0x4F6E6C792077686974656C69737465642061646472657373 PUSH1 0x40 SHL PUSH1 0x44 DUP3 ADD MSTORE PUSH1 0x64 ADD PUSH2 0x3D9 JUMP JUMPDEST PUSH1 0x1 PUSH1 0x1 PUSH1 0xA0 SHL SUB DUP3 AND PUSH2 0xD68 JUMPI PUSH1 0x40 MLOAD PUSH3 0x461BCD PUSH1 0xE5 SHL DUP2 MSTORE PUSH1 0x4 ADD PUSH2 0x3D9 SWAP1 PUSH2 0x10DF JUMP JUMPDEST PUSH1 0x1 PUSH1 0x1 PUSH1 0xA0 SHL SUB DUP3 AND PUSH1 0x0 DUP2 DUP2 MSTORE PUSH1 0x3 PUSH1 0x20 SWAP1 DUP2 MSTORE PUSH1 0x40 SWAP2 DUP3 SWAP1 KECCAK256 DUP1 SLOAD PUSH1 0xFF NOT AND SWAP1 SSTORE PUSH1 0x9 DUP1 SLOAD PUSH1 0x0 NOT ADD SWAP1 SSTORE SWAP1 MLOAD SWAP2 DUP3 MSTORE PUSH32 0x9A3420C1085262889090DE7FB2F9C9D1D7C8D69F895B7CD37074650958BC99E6 SWAP2 ADD PUSH2 0x516 JUMP JUMPDEST PUSH1 0x0 SLOAD PUSH1 0x1 PUSH1 0x1 PUSH1 0xA0 SHL SUB AND CALLER EQ PUSH2 0x372 JUMPI PUSH1 0x40 MLOAD PUSH4 0x118CDAA7 PUSH1 0xE0 SHL DUP2 MSTORE CALLER PUSH1 0x4 DUP3 ADD MSTORE PUSH1 0x24 ADD PUSH2 0x3D9 JUMP JUMPDEST PUSH2 0xDF8 PUSH2 0x1073 JUMP JUMPDEST PUSH1 0x2 DUP1 SLOAD PUSH1 0xFF NOT AND SWAP1 SSTORE PUSH32 0x5DB9EE0A495BF2E6FF9C91A7834C1BA4FDD244A5E8AA4E537BD38AEAE4B073AA CALLER JUMPDEST PUSH1 0x40 MLOAD PUSH1 0x1 PUSH1 0x1 PUSH1 0xA0 SHL SUB SWAP1 SWAP2 AND DUP2 MSTORE PUSH1 0x20 ADD PUSH1 0x40 MLOAD DUP1 SWAP2 SUB SWAP1 LOG1 JUMP JUMPDEST PUSH1 0x0 DUP1 SLOAD PUSH1 0x1 PUSH1 0x1 PUSH1 0xA0 SHL SUB DUP4 DUP2 AND PUSH1 0x1 PUSH1 0x1 PUSH1 0xA0 SHL SUB NOT DUP4 AND DUP2 OR DUP5 SSTORE PUSH1 0x40 MLOAD SWAP2 SWAP1 SWAP3 AND SWAP3 DUP4 SWAP2 PUSH32 0x8BE0079C531659141344CD1FD0A4F28419497F9722A3DAAFE3B4186F6B6457E0 SWAP2 SWAP1 LOG3 POP POP JUMP JUMPDEST PUSH1 0x2 SLOAD PUSH1 0xFF AND ISZERO PUSH2 0x372 JUMPI PUSH1 0x40 MLOAD PUSH4 0xD93C0665 PUSH1 0xE0 SHL DUP2 MSTORE PUSH1 0x4 ADD PUSH1 0x40 MLOAD DUP1 SWAP2 SUB SWAP1 REVERT JUMPDEST PUSH1 0x2 PUSH1 0x1 SLOAD SUB PUSH2 0xED9 JUMPI PUSH1 0x40 MLOAD PUSH4 0x3EE5AEB5 PUSH1 0xE0 SHL DUP2 MSTORE PUSH1 0x4 ADD PUSH1 0x40 MLOAD DUP1 SWAP2 SUB SWAP1 REVERT JUMPDEST PUSH1 0x2 PUSH1 0x1 SSTORE JUMP JUMPDEST PUSH1 0x6 SLOAD PUSH1 0x40 MLOAD PUSH4 0xA9059CBB PUSH1 0xE0 SHL DUP2 MSTORE PUSH1 0x1 PUSH1 0x1 PUSH1 0xA0 SHL SUB DUP4 DUP2 AND PUSH1 0x4 DUP4 ADD MSTORE PUSH1 0x24 DUP3 ADD SWAP3 SWAP1 SWAP3 MSTORE PUSH1 0x0 SWAP2 DUP3 SWAP2 PUSH32 0x0 SWAP1 SWAP2 AND SWAP1 PUSH4 0xA9059CBB SWAP1 PUSH1 0x44 ADD PUSH1 0x20 PUSH1 0x40 MLOAD DUP1 DUP4 SUB DUP2 PUSH1 0x0 DUP8 GAS CALL ISZERO DUP1 ISZERO PUSH2 0xF5A JUMPI RETURNDATASIZE PUSH1 0x0 DUP1 RETURNDATACOPY RETURNDATASIZE PUSH1 0x0 REVERT JUMPDEST POP POP POP POP PUSH1 0x40 MLOAD RETURNDATASIZE PUSH1 0x1F NOT PUSH1 0x1F DUP3 ADD AND DUP3 ADD DUP1 PUSH1 0x40 MSTORE POP DUP2 ADD SWAP1 PUSH2 0xF7E SWAP2 SWAP1 PUSH2 0x1125 JUMP JUMPDEST SWAP1 POP DUP1 ISZERO PUSH2 0xFD6 JUMPI PUSH1 0x8 DUP1 SLOAD PUSH1 0x1 ADD SWAP1 SSTORE PUSH1 0x6 SLOAD PUSH1 0x40 DUP1 MLOAD PUSH1 0x1 PUSH1 0x1 PUSH1 0xA0 SHL SUB DUP7 AND DUP2 MSTORE PUSH1 0x20 DUP2 ADD SWAP3 SWAP1 SWAP3 MSTORE PUSH32 0x8934D7A9692E763E356FD30D84CA5F61A737B35C5CCD5D31D4F140310267B73E SWAP2 ADD PUSH1 0x40 MLOAD DUP1 SWAP2 SUB SWAP1 LOG1 JUMPDEST SWAP3 SWAP2 POP POP JUMP JUMPDEST PUSH1 0x1 PUSH1 0x1 PUSH1 0xA0 SHL SUB DUP2 AND PUSH1 0x0 DUP2 DUP2 MSTORE PUSH1 0x4 PUSH1 0x20 SWAP1 DUP2 MSTORE PUSH1 0x40 SWAP2 DUP3 SWAP1 KECCAK256 DUP1 SLOAD PUSH1 0xFF NOT AND PUSH1 0x1 OR SWAP1 SSTORE SWAP1 MLOAD SWAP2 DUP3 MSTORE PUSH32 0x654C9A027765E6FEB862F42D438E9F6948F9EE31113E379F0372B30EFC722943 SWAP2 ADD PUSH1 0x40 MLOAD DUP1 SWAP2 SUB SWAP1 LOG1 POP JUMP JUMPDEST PUSH2 0x103E PUSH2 0xE92 JUMP JUMPDEST PUSH1 0x2 DUP1 SLOAD PUSH1 0xFF NOT AND PUSH1 0x1 OR SWAP1 SSTORE PUSH32 0x62E78CEA01BEE320CD4E420270B5EA74000D11B0C9F74754EBDBFC544B05A258 PUSH2 0xE25 CALLER SWAP1 JUMP JUMPDEST PUSH1 0x2 SLOAD PUSH1 0xFF AND PUSH2 0x372 JUMPI PUSH1 0x40 MLOAD PUSH4 0x8DFC202B PUSH1 0xE0 SHL DUP2 MSTORE PUSH1 0x4 ADD PUSH1 0x40 MLOAD DUP1 SWAP2 SUB SWAP1 REVERT JUMPDEST PUSH1 0x0 PUSH1 0x20 DUP3 DUP5 SUB SLT ISZERO PUSH2 0x10A8 JUMPI PUSH1 0x0 DUP1 REVERT JUMPDEST POP CALLDATALOAD SWAP2 SWAP1 POP JUMP JUMPDEST PUSH1 0x0 PUSH1 0x20 DUP3 DUP5 SUB SLT ISZERO PUSH2 0x10C1 JUMPI PUSH1 0x0 DUP1 REVERT JUMPDEST DUP2 CALLDATALOAD PUSH1 0x1 PUSH1 0x1 PUSH1 0xA0 SHL SUB DUP2 AND DUP2 EQ PUSH2 0x10D8 JUMPI PUSH1 0x0 DUP1 REVERT JUMPDEST SWAP4 SWAP3 POP POP POP JUMP JUMPDEST PUSH1 0x20 DUP1 DUP3 MSTORE PUSH1 0x13 SWAP1 DUP3 ADD MSTORE PUSH19 0x16995C9BC81859191C995CDCC81C185CDCD959 PUSH1 0x6A SHL PUSH1 0x40 DUP3 ADD MSTORE PUSH1 0x60 ADD SWAP1 JUMP JUMPDEST PUSH1 0x0 PUSH1 0x20 DUP3 DUP5 SUB SLT ISZERO PUSH2 0x111E JUMPI PUSH1 0x0 DUP1 REVERT JUMPDEST POP MLOAD SWAP2 SWAP1 POP JUMP JUMPDEST PUSH1 0x0 PUSH1 0x20 DUP3 DUP5 SUB SLT ISZERO PUSH2 0x1137 JUMPI PUSH1 0x0 DUP1 REVERT JUMPDEST DUP2 MLOAD DUP1 ISZERO ISZERO DUP2 EQ PUSH2 0x10D8 JUMPI PUSH1 0x0 DUP1 REVERT INVALID LOG2 PUSH5 0x6970667358 0x22 SLT KECCAK256 PUSH20 0x629D1AF6351B27EEA089048F186074D7954A386B 0xCF PUSH12 0x87DED47BF9EFC5B7F964736F PUSH13 0x634300081C0033000000000000 "
				},
				"gasEstimates": {
					"creation": {
						"codeDepositCost": "895400",
						"executionCost": "infinite",
						"totalCost": "infinite"
					},
					"external": {
						"blacklistWhitelistedParticipant(address)": "54397",
						"cUSD()": "infinite",
						"checkIfParticipantHasAlreadyClaimedReward(address)": "2625",
						"checkIfParticipantIsBlacklisted(address)": "2606",
						"checkIfParticipantIsWhitelisted(address)": "2581",
						"getNumberOfRewardedParticipants()": "2326",
						"getNumberOfWhitelistedParticipants()": "2349",
						"getRewardAmountPerParticipantInWei()": "2414",
						"getTargetNumberOfParticipants()": "2370",
						"numberOfScreenedParticipants()": "2396",
						"numberOfWhitelistedParticipants()": "2308",
						"owner()": "2442",
						"pauseSurvey()": "infinite",
						"paused()": "2316",
						"processRewardClaimByParticipant(address)": "infinite",
						"renounceOwnership()": "infinite",
						"rewardAmountPerParticipantInWei()": "2351",
						"screenParticipant(address)": "52230",
						"targetNumberOfParticipants()": "2329",
						"transferOwnership(address)": "28386",
						"unpauseSurvey()": "infinite",
						"updateRewardAmountPerParticipant(uint256)": "28048",
						"updateTargetNumberOfParticipants(uint256)": "28104",
						"whitelistParticipant(address)": "54339",
						"withdrawAllRewardFundsToResearcher()": "infinite"
					},
					"internal": {
						"markParticipantAsHavingClaimedReward(address)": "infinite",
						"rewardParticipant(address)": "infinite"
					}
				},
				"methodIdentifiers": {
					"blacklistWhitelistedParticipant(address)": "f67ae941",
					"cUSD()": "1fccf672",
					"checkIfParticipantHasAlreadyClaimedReward(address)": "6ff65c20",
					"checkIfParticipantIsBlacklisted(address)": "8c0a0966",
					"checkIfParticipantIsWhitelisted(address)": "d4bfbd41",
					"getNumberOfRewardedParticipants()": "741ae614",
					"getNumberOfWhitelistedParticipants()": "28a2355b",
					"getRewardAmountPerParticipantInWei()": "7069243c",
					"getTargetNumberOfParticipants()": "6fa1c59d",
					"numberOfScreenedParticipants()": "4074be40",
					"numberOfWhitelistedParticipants()": "047bc438",
					"owner()": "8da5cb5b",
					"pauseSurvey()": "e082fe2a",
					"paused()": "5c975abb",
					"processRewardClaimByParticipant(address)": "a0858343",
					"renounceOwnership()": "715018a6",
					"rewardAmountPerParticipantInWei()": "7a0abf08",
					"screenParticipant(address)": "ea1dd101",
					"targetNumberOfParticipants()": "a6a09811",
					"transferOwnership(address)": "f2fde38b",
					"unpauseSurvey()": "3960fc66",
					"updateRewardAmountPerParticipant(uint256)": "64bb632f",
					"updateTargetNumberOfParticipants(uint256)": "528780cc",
					"whitelistParticipant(address)": "64751f22",
					"withdrawAllRewardFundsToResearcher()": "f22069df"
				}
			},
			"storageLayout": {
				"storage": [
					{
						"astId": 8,
						"contract": "smart-contract/hardhat/contracts/ClosedSurveyV3.sol:ClosedSurveyV3",
						"label": "_owner",
						"offset": 0,
						"slot": "0",
						"type": "t_address"
					},
					{
						"astId": 409,
						"contract": "smart-contract/hardhat/contracts/ClosedSurveyV3.sol:ClosedSurveyV3",
						"label": "_status",
						"offset": 0,
						"slot": "1",
						"type": "t_uint256"
					},
					{
						"astId": 290,
						"contract": "smart-contract/hardhat/contracts/ClosedSurveyV3.sol:ClosedSurveyV3",
						"label": "_paused",
						"offset": 0,
						"slot": "2",
						"type": "t_bool"
					},
					{
						"astId": 486,
						"contract": "smart-contract/hardhat/contracts/ClosedSurveyV3.sol:ClosedSurveyV3",
						"label": "participantsWhitelistedForSurvey",
						"offset": 0,
						"slot": "3",
						"type": "t_mapping(t_address,t_bool)"
					},
					{
						"astId": 490,
						"contract": "smart-contract/hardhat/contracts/ClosedSurveyV3.sol:ClosedSurveyV3",
						"label": "rewardedParticipants",
						"offset": 0,
						"slot": "4",
						"type": "t_mapping(t_address,t_bool)"
					},
					{
						"astId": 494,
						"contract": "smart-contract/hardhat/contracts/ClosedSurveyV3.sol:ClosedSurveyV3",
						"label": "participantsScreenedForSurvey",
						"offset": 0,
						"slot": "5",
						"type": "t_mapping(t_address,t_bool)"
					},
					{
						"astId": 496,
						"contract": "smart-contract/hardhat/contracts/ClosedSurveyV3.sol:ClosedSurveyV3",
						"label": "rewardAmountPerParticipantInWei",
						"offset": 0,
						"slot": "6",
						"type": "t_uint256"
					},
					{
						"astId": 498,
						"contract": "smart-contract/hardhat/contracts/ClosedSurveyV3.sol:ClosedSurveyV3",
						"label": "targetNumberOfParticipants",
						"offset": 0,
						"slot": "7",
						"type": "t_uint256"
					},
					{
						"astId": 500,
						"contract": "smart-contract/hardhat/contracts/ClosedSurveyV3.sol:ClosedSurveyV3",
						"label": "numberOfRewardedParticipants",
						"offset": 0,
						"slot": "8",
						"type": "t_uint256"
					},
					{
						"astId": 502,
						"contract": "smart-contract/hardhat/contracts/ClosedSurveyV3.sol:ClosedSurveyV3",
						"label": "numberOfWhitelistedParticipants",
						"offset": 0,
						"slot": "9",
						"type": "t_uint256"
					},
					{
						"astId": 504,
						"contract": "smart-contract/hardhat/contracts/ClosedSurveyV3.sol:ClosedSurveyV3",
						"label": "numberOfScreenedParticipants",
						"offset": 0,
						"slot": "10",
						"type": "t_uint256"
					}
				],
				"types": {
					"t_address": {
						"encoding": "inplace",
						"label": "address",
						"numberOfBytes": "20"
					},
					"t_bool": {
						"encoding": "inplace",
						"label": "bool",
						"numberOfBytes": "1"
					},
					"t_mapping(t_address,t_bool)": {
						"encoding": "mapping",
						"key": "t_address",
						"label": "mapping(address => bool)",
						"numberOfBytes": "32",
						"value": "t_bool"
					},
					"t_uint256": {
						"encoding": "inplace",
						"label": "uint256",
						"numberOfBytes": "32"
					}
				}
			},
			"userdoc": {
				"kind": "user",
				"methods": {},
				"version": 1
			}
		}
	}
}