{
	"smart-contract/hardhat/contracts/ClosedSurvey.sol": {
		"ClosedSurvey": {
			"abi": [
				{
					"inputs": [
						{
							"internalType": "address",
							"name": "researcherWalletAddress",
							"type": "address"
						},
						{
							"internalType": "uint256",
							"name": "_rewardAmountPerParticipantInWei",
							"type": "uint256"
						},
						{
							"internalType": "uint256",
							"name": "_targetNumberOfParticipants",
							"type": "uint256"
						},
						{
							"internalType": "address",
							"name": "cUSDTokenAddress",
							"type": "address"
						}
					],
					"stateMutability": "nonpayable",
					"type": "constructor"
				},
				{
					"inputs": [],
					"name": "AllParticipantsRewarded",
					"type": "error"
				},
				{
					"inputs": [],
					"name": "EnforcedPause",
					"type": "error"
				},
				{
					"inputs": [],
					"name": "ExpectedPause",
					"type": "error"
				},
				{
					"inputs": [],
					"name": "InsufficientContractBalance",
					"type": "error"
				},
				{
					"inputs": [],
					"name": "InvalidArrayLength",
					"type": "error"
				},
				{
					"inputs": [],
					"name": "InvalidNumberOfTargetParticipants",
					"type": "error"
				},
				{
					"inputs": [],
					"name": "InvalidRewardAmountGiven",
					"type": "error"
				},
				{
					"inputs": [],
					"name": "NoRewardFunds",
					"type": "error"
				},
				{
					"inputs": [
						{
							"internalType": "address",
							"name": "owner",
							"type": "address"
						}
					],
					"name": "OwnableInvalidOwner",
					"type": "error"
				},
				{
					"inputs": [
						{
							"internalType": "address",
							"name": "account",
							"type": "address"
						}
					],
					"name": "OwnableUnauthorizedAccount",
					"type": "error"
				},
				{
					"inputs": [
						{
							"internalType": "address",
							"name": "walletAddress",
							"type": "address"
						}
					],
					"name": "ParticipantAlreadyRewarded",
					"type": "error"
				},
				{
					"inputs": [],
					"name": "ReentrancyGuardReentrantCall",
					"type": "error"
				},
				{
					"inputs": [],
					"name": "RewardTransferFailed",
					"type": "error"
				},
				{
					"inputs": [
						{
							"internalType": "address",
							"name": "unauthorizedMessageSender",
							"type": "address"
						}
					],
					"name": "UnauthorizedMessageSender",
					"type": "error"
				},
				{
					"inputs": [
						{
							"internalType": "address",
							"name": "walletAddress",
							"type": "address"
						}
					],
					"name": "UserAddressAlreadyWhitelisted",
					"type": "error"
				},
				{
					"inputs": [
						{
							"internalType": "address",
							"name": "walletAddress",
							"type": "address"
						}
					],
					"name": "UserAddressNotWhitelisted",
					"type": "error"
				},
				{
					"inputs": [],
					"name": "WithdrawalFailed",
					"type": "error"
				},
				{
					"inputs": [],
					"name": "ZeroAddress",
					"type": "error"
				},
				{
					"anonymous": false,
					"inputs": [
						{
							"indexed": false,
							"internalType": "address[]",
							"name": "walletAddresses",
							"type": "address[]"
						}
					],
					"name": "MultipleUserAddressesWhitelisted",
					"type": "event"
				},
				{
					"anonymous": false,
					"inputs": [
						{
							"indexed": false,
							"internalType": "address[]",
							"name": "walletAddresses",
							"type": "address[]"
						}
					],
					"name": "MultipleWhitelistedUserAddressesBlacklisted",
					"type": "event"
				},
				{
					"anonymous": false,
					"inputs": [
						{
							"indexed": false,
							"internalType": "address",
							"name": "participantWalletAddress",
							"type": "address"
						}
					],
					"name": "OneUserAddressWhitelisted",
					"type": "event"
				},
				{
					"anonymous": false,
					"inputs": [
						{
							"indexed": false,
							"internalType": "address",
							"name": "participantWalletAddress",
							"type": "address"
						}
					],
					"name": "OneWhitelistedUserAddressBlacklisted",
					"type": "event"
				},
				{
					"anonymous": false,
					"inputs": [
						{
							"indexed": true,
							"internalType": "address",
							"name": "previousOwner",
							"type": "address"
						},
						{
							"indexed": true,
							"internalType": "address",
							"name": "newOwner",
							"type": "address"
						}
					],
					"name": "OwnershipTransferred",
					"type": "event"
				},
				{
					"anonymous": false,
					"inputs": [
						{
							"indexed": false,
							"internalType": "address",
							"name": "participantWalletAddress",
							"type": "address"
						}
					],
					"name": "ParticipantMarkedAsRewarded",
					"type": "event"
				},
				{
					"anonymous": false,
					"inputs": [
						{
							"indexed": false,
							"internalType": "address",
							"name": "participantWalletAddress",
							"type": "address"
						},
						{
							"indexed": false,
							"internalType": "uint256",
							"name": "rewardAmount",
							"type": "uint256"
						}
					],
					"name": "ParticipantRewarded",
					"type": "event"
				},
				{
					"anonymous": false,
					"inputs": [
						{
							"indexed": false,
							"internalType": "address",
							"name": "account",
							"type": "address"
						}
					],
					"name": "Paused",
					"type": "event"
				},
				{
					"anonymous": false,
					"inputs": [
						{
							"indexed": false,
							"internalType": "uint256",
							"name": "oldcUSDRewardAmountPerParticipantInWei",
							"type": "uint256"
						},
						{
							"indexed": false,
							"internalType": "uint256",
							"name": "newcUSDRewardAmountPerParticipantInWei",
							"type": "uint256"
						}
					],
					"name": "RewardAmountUpdated",
					"type": "event"
				},
				{
					"anonymous": false,
					"inputs": [
						{
							"indexed": false,
							"internalType": "address",
							"name": "researcherWalletAddress",
							"type": "address"
						},
						{
							"indexed": false,
							"internalType": "uint256",
							"name": "rewardAmount",
							"type": "uint256"
						}
					],
					"name": "RewardFundsWithdrawn",
					"type": "event"
				},
				{
					"anonymous": false,
					"inputs": [
						{
							"indexed": false,
							"internalType": "uint256",
							"name": "oldTargetNumberOfParticipants",
							"type": "uint256"
						},
						{
							"indexed": false,
							"internalType": "uint256",
							"name": "newTargetNumberOfParticipants",
							"type": "uint256"
						}
					],
					"name": "TargetNumberOfParticipantsUpdates",
					"type": "event"
				},
				{
					"anonymous": false,
					"inputs": [
						{
							"indexed": false,
							"internalType": "address",
							"name": "account",
							"type": "address"
						}
					],
					"name": "Unpaused",
					"type": "event"
				},
				{
					"inputs": [
						{
							"internalType": "address[]",
							"name": "walletAddresses",
							"type": "address[]"
						}
					],
					"name": "blacklistMultipleWhitelistedUserAddresses",
					"outputs": [],
					"stateMutability": "nonpayable",
					"type": "function"
				},
				{
					"inputs": [
						{
							"internalType": "address",
							"name": "walletAddress",
							"type": "address"
						}
					],
					"name": "blacklistOneWhitelistedUserAddress",
					"outputs": [],
					"stateMutability": "nonpayable",
					"type": "function"
				},
				{
					"inputs": [],
					"name": "cUSD",
					"outputs": [
						{
							"internalType": "contract IERC20Metadata",
							"name": "",
							"type": "address"
						}
					],
					"stateMutability": "view",
					"type": "function"
				},
				{
					"inputs": [
						{
							"internalType": "address",
							"name": "walletAddress",
							"type": "address"
						}
					],
					"name": "checkIfParticipantHasAlreadyClaimedReward",
					"outputs": [
						{
							"internalType": "bool",
							"name": "",
							"type": "bool"
						}
					],
					"stateMutability": "view",
					"type": "function"
				},
				{
					"inputs": [
						{
							"internalType": "address",
							"name": "walletAddress",
							"type": "address"
						}
					],
					"name": "checkIfUserAddressIsBlacklisted",
					"outputs": [
						{
							"internalType": "bool",
							"name": "",
							"type": "bool"
						}
					],
					"stateMutability": "view",
					"type": "function"
				},
				{
					"inputs": [
						{
							"internalType": "address",
							"name": "walletAddress",
							"type": "address"
						}
					],
					"name": "checkIfUserAddressIsWhitelisted",
					"outputs": [
						{
							"internalType": "bool",
							"name": "",
							"type": "bool"
						}
					],
					"stateMutability": "view",
					"type": "function"
				},
				{
					"inputs": [],
					"name": "getNumberOfRewardedParticipants",
					"outputs": [
						{
							"internalType": "uint256",
							"name": "",
							"type": "uint256"
						}
					],
					"stateMutability": "view",
					"type": "function"
				},
				{
					"inputs": [],
					"name": "getNumberOfWhitelistedUserAddresses",
					"outputs": [
						{
							"internalType": "uint256",
							"name": "",
							"type": "uint256"
						}
					],
					"stateMutability": "view",
					"type": "function"
				},
				{
					"inputs": [],
					"name": "getRewardAmountPerParticipantInWei",
					"outputs": [
						{
							"internalType": "uint256",
							"name": "",
							"type": "uint256"
						}
					],
					"stateMutability": "view",
					"type": "function"
				},
				{
					"inputs": [],
					"name": "getTargetNumberOfParticipants",
					"outputs": [
						{
							"internalType": "uint256",
							"name": "",
							"type": "uint256"
						}
					],
					"stateMutability": "view",
					"type": "function"
				},
				{
					"inputs": [
						{
							"internalType": "address[]",
							"name": "registeredAddresses",
							"type": "address[]"
						}
					],
					"name": "getWhitelistedAddressesFromRegisteredAddresses",
					"outputs": [
						{
							"internalType": "address[]",
							"name": "",
							"type": "address[]"
						}
					],
					"stateMutability": "view",
					"type": "function"
				},
				{
					"inputs": [],
					"name": "numberOfRewardedParticipants",
					"outputs": [
						{
							"internalType": "uint256",
							"name": "",
							"type": "uint256"
						}
					],
					"stateMutability": "view",
					"type": "function"
				},
				{
					"inputs": [],
					"name": "numberOfWhitelistedUserAddresses",
					"outputs": [
						{
							"internalType": "uint256",
							"name": "",
							"type": "uint256"
						}
					],
					"stateMutability": "view",
					"type": "function"
				},
				{
					"inputs": [],
					"name": "owner",
					"outputs": [
						{
							"internalType": "address",
							"name": "",
							"type": "address"
						}
					],
					"stateMutability": "view",
					"type": "function"
				},
				{
					"inputs": [],
					"name": "pauseSurvey",
					"outputs": [],
					"stateMutability": "nonpayable",
					"type": "function"
				},
				{
					"inputs": [],
					"name": "paused",
					"outputs": [
						{
							"internalType": "bool",
							"name": "",
							"type": "bool"
						}
					],
					"stateMutability": "view",
					"type": "function"
				},
				{
					"inputs": [
						{
							"internalType": "address",
							"name": "walletAddress",
							"type": "address"
						}
					],
					"name": "processRewardClaimByParticipant",
					"outputs": [],
					"stateMutability": "nonpayable",
					"type": "function"
				},
				{
					"inputs": [],
					"name": "renounceOwnership",
					"outputs": [],
					"stateMutability": "nonpayable",
					"type": "function"
				},
				{
					"inputs": [],
					"name": "rewardAmountPerParticipantInWei",
					"outputs": [
						{
							"internalType": "uint256",
							"name": "",
							"type": "uint256"
						}
					],
					"stateMutability": "view",
					"type": "function"
				},
				{
					"inputs": [],
					"name": "targetNumberOfParticipants",
					"outputs": [
						{
							"internalType": "uint256",
							"name": "",
							"type": "uint256"
						}
					],
					"stateMutability": "view",
					"type": "function"
				},
				{
					"inputs": [
						{
							"internalType": "address",
							"name": "newOwner",
							"type": "address"
						}
					],
					"name": "transferOwnership",
					"outputs": [],
					"stateMutability": "nonpayable",
					"type": "function"
				},
				{
					"inputs": [],
					"name": "unpauseSurvey",
					"outputs": [],
					"stateMutability": "nonpayable",
					"type": "function"
				},
				{
					"inputs": [
						{
							"internalType": "uint256",
							"name": "_newRewardAmountPerParticipantInWei",
							"type": "uint256"
						}
					],
					"name": "updateRewardAmountPerParticipant",
					"outputs": [],
					"stateMutability": "nonpayable",
					"type": "function"
				},
				{
					"inputs": [
						{
							"internalType": "uint256",
							"name": "_newTargetNumberOfParticipants",
							"type": "uint256"
						}
					],
					"name": "updateTargetNumberOfParticipants",
					"outputs": [],
					"stateMutability": "nonpayable",
					"type": "function"
				},
				{
					"inputs": [
						{
							"internalType": "address[]",
							"name": "walletAddresses",
							"type": "address[]"
						}
					],
					"name": "whitelistMultipleUserAddresses",
					"outputs": [],
					"stateMutability": "nonpayable",
					"type": "function"
				},
				{
					"inputs": [
						{
							"internalType": "address",
							"name": "walletAddress",
							"type": "address"
						}
					],
					"name": "whitelistOneUserAddress",
					"outputs": [],
					"stateMutability": "nonpayable",
					"type": "function"
				},
				{
					"inputs": [],
					"name": "withdrawAllRewardFundsToResearcher",
					"outputs": [],
					"stateMutability": "nonpayable",
					"type": "function"
				}
			],
			"devdoc": {
				"errors": {
					"EnforcedPause()": [
						{
							"details": "The operation failed because the contract is paused."
						}
					],
					"ExpectedPause()": [
						{
							"details": "The operation failed because the contract is not paused."
						}
					],
					"OwnableInvalidOwner(address)": [
						{
							"details": "The owner is not a valid owner account. (eg. `address(0)`)"
						}
					],
					"OwnableUnauthorizedAccount(address)": [
						{
							"details": "The caller account is not authorized to perform an operation."
						}
					],
					"ReentrancyGuardReentrantCall()": [
						{
							"details": "Unauthorized reentrant call."
						}
					]
				},
				"events": {
					"Paused(address)": {
						"details": "Emitted when the pause is triggered by `account`."
					},
					"Unpaused(address)": {
						"details": "Emitted when the pause is lifted by `account`."
					}
				},
				"kind": "dev",
				"methods": {
					"owner()": {
						"details": "Returns the address of the current owner."
					},
					"paused()": {
						"details": "Returns true if the contract is paused, and false otherwise."
					},
					"renounceOwnership()": {
						"details": "Leaves the contract without owner. It will not be possible to call `onlyOwner` functions. Can only be called by the current owner. NOTE: Renouncing ownership will leave the contract without an owner, thereby disabling any functionality that is only available to the owner."
					},
					"transferOwnership(address)": {
						"details": "Transfers ownership of the contract to a new account (`newOwner`). Can only be called by the current owner."
					}
				},
				"version": 1
			},
			"evm": {
				"assembly": "    /* \"smart-contract/hardhat/contracts/ClosedSurvey.sol\":330:12301  contract ClosedSurvey is Ownable, ReentrancyGuard, Pausable {... */\n  mstore(0x40, 0xa0)\n    /* \"smart-contract/hardhat/contracts/ClosedSurvey.sol\":3310:4121  constructor(... */\n  callvalue\n  dup1\n  iszero\n  tag_1\n  jumpi\n  0x00\n  dup1\n  revert\ntag_1:\n  pop\n  mload(0x40)\n  sub(codesize, bytecodeSize)\n  dup1\n  bytecodeSize\n  dup4\n  codecopy\n  dup2\n  add\n  0x40\n  dup2\n  swap1\n  mstore\n  tag_2\n  swap2\n  tag_3\n  jump\t// in\ntag_2:\n    /* \"smart-contract/hardhat/contracts/ClosedSurvey.sol\":3506:3529  researcherWalletAddress */\n  dup4\n  sub(shl(0xa0, 0x01), 0x01)\n    /* \"@openzeppelin/contracts/access/Ownable.sol\":1273:1299  initialOwner == address(0) */\n  dup2\n  and\n    /* \"@openzeppelin/contracts/access/Ownable.sol\":1269:1364  if (initialOwner == address(0)) {... */\n  tag_9\n  jumpi\n    /* \"@openzeppelin/contracts/access/Ownable.sol\":1322:1353  OwnableInvalidOwner(address(0)) */\n  mload(0x40)\n  shl(0xe0, 0x1e4fbdf7)\n  dup2\n  mstore\n    /* \"@openzeppelin/contracts/access/Ownable.sol\":1350:1351  0 */\n  0x00\n    /* \"@openzeppelin/contracts/access/Ownable.sol\":1322:1353  OwnableInvalidOwner(address(0)) */\n  0x04\n  dup3\n  add\n    /* \"#utility.yul\":861:912   */\n  mstore\n    /* \"#utility.yul\":834:852   */\n  0x24\n  add\n    /* \"@openzeppelin/contracts/access/Ownable.sol\":1322:1353  OwnableInvalidOwner(address(0)) */\n  mload(0x40)\n  dup1\n  swap2\n  sub\n  swap1\n  revert\n    /* \"@openzeppelin/contracts/access/Ownable.sol\":1269:1364  if (initialOwner == address(0)) {... */\ntag_9:\n    /* \"@openzeppelin/contracts/access/Ownable.sol\":1373:1405  _transferOwnership(initialOwner) */\n  tag_12\n    /* \"@openzeppelin/contracts/access/Ownable.sol\":1392:1404  initialOwner */\n  dup2\n    /* \"@openzeppelin/contracts/access/Ownable.sol\":1373:1391  _transferOwnership */\n  tag_13\n    /* \"@openzeppelin/contracts/access/Ownable.sol\":1373:1405  _transferOwnership(initialOwner) */\n  jump\t// in\ntag_12:\n  pop\n    /* \"@openzeppelin/contracts/utils/ReentrancyGuard.sol\":1857:1858  1 */\n  0x01\n    /* \"@openzeppelin/contracts/utils/ReentrancyGuard.sol\":2061:2082  _status = NOT_ENTERED */\n  dup1\n  sstore\n    /* \"@openzeppelin/contracts/utils/Pausable.sol\":1231:1238  _paused */\n  0x02\n    /* \"@openzeppelin/contracts/utils/Pausable.sol\":1231:1246  _paused = false */\n  dup1\n  sload\n  not(0xff)\n  and\n  swap1\n  sstore\n  sub(shl(0xa0, 0x01), 0x01)\n    /* \"smart-contract/hardhat/contracts/ClosedSurvey.sol\":3558:3595  researcherWalletAddress == address(0) */\n  dup5\n  and\n  iszero\n  dup1\n    /* \"smart-contract/hardhat/contracts/ClosedSurvey.sol\":3558:3641  researcherWalletAddress == address(0) ||... */\n  tag_17\n  jumpi\n  pop\n  sub(shl(0xa0, 0x01), 0x01)\n    /* \"smart-contract/hardhat/contracts/ClosedSurvey.sol\":3611:3641  cUSDTokenAddress == address(0) */\n  dup2\n  and\n  iszero\n    /* \"smart-contract/hardhat/contracts/ClosedSurvey.sol\":3558:3641  researcherWalletAddress == address(0) ||... */\ntag_17:\n    /* \"smart-contract/hardhat/contracts/ClosedSurvey.sol\":3541:3697  if (... */\n  iszero\n  tag_18\n  jumpi\n    /* \"smart-contract/hardhat/contracts/ClosedSurvey.sol\":3673:3686  ZeroAddress() */\n  mload(0x40)\n  shl(0xe0, 0xd92e233d)\n  dup2\n  mstore\n  0x04\n  add\n  mload(0x40)\n  dup1\n  swap2\n  sub\n  swap1\n  revert\n    /* \"smart-contract/hardhat/contracts/ClosedSurvey.sol\":3541:3697  if (... */\ntag_18:\n    /* \"smart-contract/hardhat/contracts/ClosedSurvey.sol\":3710:3742  _rewardAmountPerParticipantInWei */\n  dup3\n    /* \"smart-contract/hardhat/contracts/ClosedSurvey.sol\":3746:3747  0 */\n  0x00\n    /* \"smart-contract/hardhat/contracts/ClosedSurvey.sol\":3710:3747  _rewardAmountPerParticipantInWei == 0 */\n  sub\n    /* \"smart-contract/hardhat/contracts/ClosedSurvey.sol\":3706:3807  if (_rewardAmountPerParticipantInWei == 0) {... */\n  tag_19\n  jumpi\n    /* \"smart-contract/hardhat/contracts/ClosedSurvey.sol\":3770:3796  InvalidRewardAmountGiven() */\n  mload(0x40)\n  shl(0xe4, 0x0d428a01)\n  dup2\n  mstore\n  0x04\n  add\n  mload(0x40)\n  dup1\n  swap2\n  sub\n  swap1\n  revert\n    /* \"smart-contract/hardhat/contracts/ClosedSurvey.sol\":3706:3807  if (_rewardAmountPerParticipantInWei == 0) {... */\ntag_19:\n    /* \"smart-contract/hardhat/contracts/ClosedSurvey.sol\":3821:3848  _targetNumberOfParticipants */\n  dup2\n    /* \"smart-contract/hardhat/contracts/ClosedSurvey.sol\":3852:3853  0 */\n  0x00\n    /* \"smart-contract/hardhat/contracts/ClosedSurvey.sol\":3821:3853  _targetNumberOfParticipants == 0 */\n  sub\n    /* \"smart-contract/hardhat/contracts/ClosedSurvey.sol\":3817:3922  if (_targetNumberOfParticipants == 0) {... */\n  tag_20\n  jumpi\n    /* \"smart-contract/hardhat/contracts/ClosedSurvey.sol\":3876:3911  InvalidNumberOfTargetParticipants() */\n  mload(0x40)\n  shl(0xe2, 0x36c5eec7)\n  dup2\n  mstore\n  0x04\n  add\n  mload(0x40)\n  dup1\n  swap2\n  sub\n  swap1\n  revert\n    /* \"smart-contract/hardhat/contracts/ClosedSurvey.sol\":3817:3922  if (_targetNumberOfParticipants == 0) {... */\ntag_20:\n  sub(shl(0xa0, 0x01), 0x01)\n    /* \"smart-contract/hardhat/contracts/ClosedSurvey.sol\":3932:3971  cUSD = IERC20Metadata(cUSDTokenAddress) */\n  and\n  0x80\n  mstore\n    /* \"smart-contract/hardhat/contracts/ClosedSurvey.sol\":3982:4013  rewardAmountPerParticipantInWei */\n  0x05\n    /* \"smart-contract/hardhat/contracts/ClosedSurvey.sol\":3982:4048  rewardAmountPerParticipantInWei = _rewardAmountPerParticipantInWei */\n  swap2\n  swap1\n  swap2\n  sstore\n    /* \"smart-contract/hardhat/contracts/ClosedSurvey.sol\":4058:4084  targetNumberOfParticipants */\n  0x06\n    /* \"smart-contract/hardhat/contracts/ClosedSurvey.sol\":4058:4114  targetNumberOfParticipants = _targetNumberOfParticipants */\n  sstore\n  pop\n    /* \"smart-contract/hardhat/contracts/ClosedSurvey.sol\":330:12301  contract ClosedSurvey is Ownable, ReentrancyGuard, Pausable {... */\n  jump(tag_24)\n    /* \"@openzeppelin/contracts/access/Ownable.sol\":2912:3099  function _transferOwnership(address newOwner) internal virtual {... */\ntag_13:\n    /* \"@openzeppelin/contracts/access/Ownable.sol\":2985:3001  address oldOwner */\n  0x00\n    /* \"@openzeppelin/contracts/access/Ownable.sol\":3004:3010  _owner */\n  dup1\n  sload\n  sub(shl(0xa0, 0x01), 0x01)\n    /* \"@openzeppelin/contracts/access/Ownable.sol\":3020:3037  _owner = newOwner */\n  dup4\n  dup2\n  and\n  not(sub(shl(0xa0, 0x01), 0x01))\n  dup4\n  and\n  dup2\n  or\n  dup5\n  sstore\n    /* \"@openzeppelin/contracts/access/Ownable.sol\":3052:3092  OwnershipTransferred(oldOwner, newOwner) */\n  mload(0x40)\n    /* \"@openzeppelin/contracts/access/Ownable.sol\":3004:3010  _owner */\n  swap2\n  swap1\n  swap3\n  and\n  swap3\n  dup4\n  swap2\n    /* \"@openzeppelin/contracts/access/Ownable.sol\":3052:3092  OwnershipTransferred(oldOwner, newOwner) */\n  0x8be0079c531659141344cd1fd0a4f28419497f9722a3daafe3b4186f6b6457e0\n  swap2\n    /* \"@openzeppelin/contracts/access/Ownable.sol\":2985:3001  address oldOwner */\n  swap1\n    /* \"@openzeppelin/contracts/access/Ownable.sol\":3052:3092  OwnershipTransferred(oldOwner, newOwner) */\n  log3\n    /* \"@openzeppelin/contracts/access/Ownable.sol\":2975:3099  {... */\n  pop\n    /* \"@openzeppelin/contracts/access/Ownable.sol\":2912:3099  function _transferOwnership(address newOwner) internal virtual {... */\n  pop\n  jump\t// out\n    /* \"#utility.yul\":14:191   */\ntag_23:\n    /* \"#utility.yul\":93:106   */\n  dup1\n  mload\n  sub(shl(0xa0, 0x01), 0x01)\n    /* \"#utility.yul\":135:166   */\n  dup2\n  and\n    /* \"#utility.yul\":125:167   */\n  dup2\n  eq\n    /* \"#utility.yul\":115:185   */\n  tag_26\n  jumpi\n    /* \"#utility.yul\":181:182   */\n  0x00\n    /* \"#utility.yul\":178:179   */\n  dup1\n    /* \"#utility.yul\":171:183   */\n  revert\n    /* \"#utility.yul\":115:185   */\ntag_26:\n    /* \"#utility.yul\":14:191   */\n  swap2\n  swap1\n  pop\n  jump\t// out\n    /* \"#utility.yul\":196:710   */\ntag_3:\n    /* \"#utility.yul\":293:299   */\n  0x00\n    /* \"#utility.yul\":301:307   */\n  dup1\n    /* \"#utility.yul\":309:315   */\n  0x00\n    /* \"#utility.yul\":317:323   */\n  dup1\n    /* \"#utility.yul\":370:373   */\n  0x80\n    /* \"#utility.yul\":358:367   */\n  dup6\n    /* \"#utility.yul\":349:356   */\n  dup8\n    /* \"#utility.yul\":345:368   */\n  sub\n    /* \"#utility.yul\":341:374   */\n  slt\n    /* \"#utility.yul\":338:391   */\n  iszero\n  tag_28\n  jumpi\n    /* \"#utility.yul\":387:388   */\n  0x00\n    /* \"#utility.yul\":384:385   */\n  dup1\n    /* \"#utility.yul\":377:389   */\n  revert\n    /* \"#utility.yul\":338:391   */\ntag_28:\n    /* \"#utility.yul\":410:450   */\n  tag_29\n    /* \"#utility.yul\":440:449   */\n  dup6\n    /* \"#utility.yul\":410:450   */\n  tag_23\n  jump\t// in\ntag_29:\n    /* \"#utility.yul\":512:514   */\n  0x20\n    /* \"#utility.yul\":497:515   */\n  dup7\n  add\n    /* \"#utility.yul\":491:516   */\n  mload\n    /* \"#utility.yul\":606:608   */\n  0x40\n    /* \"#utility.yul\":591:609   */\n  dup8\n  add\n    /* \"#utility.yul\":585:610   */\n  mload\n    /* \"#utility.yul\":400:450   */\n  swap2\n  swap6\n  pop\n    /* \"#utility.yul\":491:516   */\n  swap4\n  pop\n    /* \"#utility.yul\":585:610   */\n  swap2\n  pop\n    /* \"#utility.yul\":655:704   */\n  tag_30\n    /* \"#utility.yul\":700:702   */\n  0x60\n    /* \"#utility.yul\":685:703   */\n  dup7\n  add\n    /* \"#utility.yul\":655:704   */\n  tag_23\n  jump\t// in\ntag_30:\n    /* \"#utility.yul\":645:704   */\n  swap1\n  pop\n    /* \"#utility.yul\":196:710   */\n  swap3\n  swap6\n  swap2\n  swap5\n  pop\n  swap3\n  pop\n  jump\t// out\n    /* \"#utility.yul\":715:918   */\ntag_24:\n    /* \"smart-contract/hardhat/contracts/ClosedSurvey.sol\":330:12301  contract ClosedSurvey is Ownable, ReentrancyGuard, Pausable {... */\n  mload(0x80)\n  codecopy(0x00, dataOffset(sub_0), dataSize(sub_0))\n  0x00\n  assignImmutable(\"0x4ce4dab4689da140a0c12de1a6af6b8f679594aeb723205f513e052d27f5b26f\")\n  return(0x00, dataSize(sub_0))\nstop\n\nsub_0: assembly {\n        /* \"smart-contract/hardhat/contracts/ClosedSurvey.sol\":330:12301  contract ClosedSurvey is Ownable, ReentrancyGuard, Pausable {... */\n      mstore(0x40, 0x80)\n      callvalue\n      dup1\n      iszero\n      tag_1\n      jumpi\n      0x00\n      dup1\n      revert\n    tag_1:\n      pop\n      jumpi(tag_2, lt(calldatasize, 0x04))\n      shr(0xe0, calldataload(0x00))\n      dup1\n      0x8da5cb5b\n      gt\n      tag_30\n      jumpi\n      dup1\n      0xc25a02ec\n      gt\n      tag_31\n      jumpi\n      dup1\n      0xe082fe2a\n      gt\n      tag_32\n      jumpi\n      dup1\n      0xe082fe2a\n      eq\n      tag_26\n      jumpi\n      dup1\n      0xf22069df\n      eq\n      tag_27\n      jumpi\n      dup1\n      0xf2fde38b\n      eq\n      tag_28\n      jumpi\n      dup1\n      0xfc05542a\n      eq\n      tag_29\n      jumpi\n      0x00\n      dup1\n      revert\n    tag_32:\n      dup1\n      0xc25a02ec\n      eq\n      tag_23\n      jumpi\n      dup1\n      0xd335993a\n      eq\n      tag_24\n      jumpi\n      dup1\n      0xd9084326\n      eq\n      tag_25\n      jumpi\n      0x00\n      dup1\n      revert\n    tag_31:\n      dup1\n      0xa0858343\n      gt\n      tag_33\n      jumpi\n      dup1\n      0xa0858343\n      eq\n      tag_19\n      jumpi\n      dup1\n      0xa34db0a0\n      eq\n      tag_20\n      jumpi\n      dup1\n      0xa6a09811\n      eq\n      tag_21\n      jumpi\n      dup1\n      0xb0702913\n      eq\n      tag_22\n      jumpi\n      0x00\n      dup1\n      revert\n    tag_33:\n      dup1\n      0x8da5cb5b\n      eq\n      tag_16\n      jumpi\n      dup1\n      0x98b48493\n      eq\n      tag_17\n      jumpi\n      dup1\n      0x9a0474e8\n      eq\n      tag_18\n      jumpi\n      0x00\n      dup1\n      revert\n    tag_30:\n      dup1\n      0x6fa1c59d\n      gt\n      tag_34\n      jumpi\n      dup1\n      0x715018a6\n      gt\n      tag_35\n      jumpi\n      dup1\n      0x715018a6\n      eq\n      tag_12\n      jumpi\n      dup1\n      0x741ae614\n      eq\n      tag_13\n      jumpi\n      dup1\n      0x7a0abf08\n      eq\n      tag_14\n      jumpi\n      dup1\n      0x85737020\n      eq\n      tag_15\n      jumpi\n      0x00\n      dup1\n      revert\n    tag_35:\n      dup1\n      0x6fa1c59d\n      eq\n      tag_9\n      jumpi\n      dup1\n      0x6ff65c20\n      eq\n      tag_10\n      jumpi\n      dup1\n      0x7069243c\n      eq\n      tag_11\n      jumpi\n      0x00\n      dup1\n      revert\n    tag_34:\n      dup1\n      0x1318fbf1\n      eq\n      tag_3\n      jumpi\n      dup1\n      0x1fccf672\n      eq\n      tag_4\n      jumpi\n      dup1\n      0x3960fc66\n      eq\n      tag_5\n      jumpi\n      dup1\n      0x528780cc\n      eq\n      tag_6\n      jumpi\n      dup1\n      0x5c975abb\n      eq\n      tag_7\n      jumpi\n      dup1\n      0x64bb632f\n      eq\n      tag_8\n      jumpi\n    tag_2:\n      0x00\n      dup1\n      revert\n        /* \"smart-contract/hardhat/contracts/ClosedSurvey.sol\":675:718  uint256 public numberOfRewardedParticipants */\n    tag_3:\n      tag_36\n      sload(0x07)\n      dup2\n      jump\n    tag_36:\n      mload(0x40)\n        /* \"#utility.yul\":160:185   */\n      swap1\n      dup2\n      mstore\n        /* \"#utility.yul\":148:150   */\n      0x20\n        /* \"#utility.yul\":133:151   */\n      add\n        /* \"smart-contract/hardhat/contracts/ClosedSurvey.sol\":675:718  uint256 public numberOfRewardedParticipants */\n    tag_38:\n      mload(0x40)\n      dup1\n      swap2\n      sub\n      swap1\n      return\n        /* \"smart-contract/hardhat/contracts/ClosedSurvey.sol\":396:432  IERC20Metadata public immutable cUSD */\n    tag_4:\n      tag_40\n      immutable(\"0x4ce4dab4689da140a0c12de1a6af6b8f679594aeb723205f513e052d27f5b26f\")\n      dup2\n      jump\n    tag_40:\n      mload(0x40)\n      sub(shl(0xa0, 0x01), 0x01)\n        /* \"#utility.yul\":382:414   */\n      swap1\n      swap2\n      and\n        /* \"#utility.yul\":364:415   */\n      dup2\n      mstore\n        /* \"#utility.yul\":352:354   */\n      0x20\n        /* \"#utility.yul\":337:355   */\n      add\n        /* \"smart-contract/hardhat/contracts/ClosedSurvey.sol\":396:432  IERC20Metadata public immutable cUSD */\n      tag_38\n        /* \"#utility.yul\":196:421   */\n      jump\n        /* \"smart-contract/hardhat/contracts/ClosedSurvey.sol\":10100:10171  function unpauseSurvey() external onlyOwner {... */\n    tag_5:\n      tag_44\n      tag_45\n      jump\t// in\n    tag_44:\n      stop\n        /* \"smart-contract/hardhat/contracts/ClosedSurvey.sol\":9410:10021  function updateTargetNumberOfParticipants(... */\n    tag_6:\n      tag_44\n      tag_47\n      calldatasize\n      0x04\n      tag_48\n      jump\t// in\n    tag_47:\n      tag_49\n      jump\t// in\n        /* \"@openzeppelin/contracts/utils/Pausable.sol\":1850:1934  function paused() public view virtual returns (bool) {... */\n    tag_7:\n        /* \"@openzeppelin/contracts/utils/Pausable.sol\":1920:1927  _paused */\n      and(0xff, sload(0x02))\n        /* \"@openzeppelin/contracts/utils/Pausable.sol\":1850:1934  function paused() public view virtual returns (bool) {... */\n    tag_50:\n      mload(0x40)\n        /* \"#utility.yul\":776:790   */\n      swap1\n      iszero\n        /* \"#utility.yul\":769:791   */\n      iszero\n        /* \"#utility.yul\":751:792   */\n      dup2\n      mstore\n        /* \"#utility.yul\":739:741   */\n      0x20\n        /* \"#utility.yul\":724:742   */\n      add\n        /* \"@openzeppelin/contracts/utils/Pausable.sol\":1850:1934  function paused() public view virtual returns (bool) {... */\n      tag_38\n        /* \"#utility.yul\":611:798   */\n      jump\n        /* \"smart-contract/hardhat/contracts/ClosedSurvey.sol\":8768:9404  function updateRewardAmountPerParticipant(... */\n    tag_8:\n      tag_44\n      tag_55\n      calldatasize\n      0x04\n      tag_48\n      jump\t// in\n    tag_55:\n      tag_56\n      jump\t// in\n        /* \"smart-contract/hardhat/contracts/ClosedSurvey.sol\":12007:12130  function getTargetNumberOfParticipants() external view returns (uint256) {... */\n    tag_9:\n        /* \"smart-contract/hardhat/contracts/ClosedSurvey.sol\":12097:12123  targetNumberOfParticipants */\n      sload(0x06)\n        /* \"smart-contract/hardhat/contracts/ClosedSurvey.sol\":12007:12130  function getTargetNumberOfParticipants() external view returns (uint256) {... */\n      jump(tag_36)\n        /* \"smart-contract/hardhat/contracts/ClosedSurvey.sol\":11157:11346  function checkIfParticipantHasAlreadyClaimedReward(... */\n    tag_10:\n      tag_50\n      tag_61\n      calldatasize\n      0x04\n      tag_62\n      jump\t// in\n    tag_61:\n      sub(shl(0xa0, 0x01), 0x01)\n        /* \"smart-contract/hardhat/contracts/ClosedSurvey.sol\":11291:11339  participantsWhoHaveClaimedRewards[walletAddress] */\n      and\n        /* \"smart-contract/hardhat/contracts/ClosedSurvey.sol\":11268:11272  bool */\n      0x00\n        /* \"smart-contract/hardhat/contracts/ClosedSurvey.sol\":11291:11339  participantsWhoHaveClaimedRewards[walletAddress] */\n      swap1\n      dup2\n      mstore\n        /* \"smart-contract/hardhat/contracts/ClosedSurvey.sol\":11291:11324  participantsWhoHaveClaimedRewards */\n      0x04\n        /* \"smart-contract/hardhat/contracts/ClosedSurvey.sol\":11291:11339  participantsWhoHaveClaimedRewards[walletAddress] */\n      0x20\n      mstore\n      0x40\n      swap1\n      keccak256\n      sload\n      0xff\n      and\n      swap1\n        /* \"smart-contract/hardhat/contracts/ClosedSurvey.sol\":11157:11346  function checkIfParticipantHasAlreadyClaimedReward(... */\n      jump\n        /* \"smart-contract/hardhat/contracts/ClosedSurvey.sol\":11707:11868  function getRewardAmountPerParticipantInWei()... */\n    tag_11:\n        /* \"smart-contract/hardhat/contracts/ClosedSurvey.sol\":11830:11861  rewardAmountPerParticipantInWei */\n      sload(0x05)\n        /* \"smart-contract/hardhat/contracts/ClosedSurvey.sol\":11707:11868  function getRewardAmountPerParticipantInWei()... */\n      jump(tag_36)\n        /* \"@openzeppelin/contracts/access/Ownable.sol\":2293:2394  function renounceOwnership() public virtual onlyOwner {... */\n    tag_12:\n      tag_44\n      tag_69\n      jump\t// in\n        /* \"smart-contract/hardhat/contracts/ClosedSurvey.sol\":11874:12001  function getNumberOfRewardedParticipants() external view returns (uint256) {... */\n    tag_13:\n        /* \"smart-contract/hardhat/contracts/ClosedSurvey.sol\":11966:11994  numberOfRewardedParticipants */\n      sload(0x07)\n        /* \"smart-contract/hardhat/contracts/ClosedSurvey.sol\":11874:12001  function getNumberOfRewardedParticipants() external view returns (uint256) {... */\n      jump(tag_36)\n        /* \"smart-contract/hardhat/contracts/ClosedSurvey.sol\":576:622  uint256 public rewardAmountPerParticipantInWei */\n    tag_14:\n      tag_36\n      sload(0x05)\n      dup2\n      jump\n        /* \"smart-contract/hardhat/contracts/ClosedSurvey.sol\":11529:11701  function checkIfUserAddressIsBlacklisted(... */\n    tag_15:\n      tag_50\n      tag_77\n      calldatasize\n      0x04\n      tag_62\n      jump\t// in\n    tag_77:\n      sub(shl(0xa0, 0x01), 0x01)\n        /* \"smart-contract/hardhat/contracts/ClosedSurvey.sol\":11654:11694  usersWhitelistedForSurvey[walletAddress] */\n      and\n        /* \"smart-contract/hardhat/contracts/ClosedSurvey.sol\":11630:11634  bool */\n      0x00\n        /* \"smart-contract/hardhat/contracts/ClosedSurvey.sol\":11654:11694  usersWhitelistedForSurvey[walletAddress] */\n      swap1\n      dup2\n      mstore\n        /* \"smart-contract/hardhat/contracts/ClosedSurvey.sol\":11654:11679  usersWhitelistedForSurvey */\n      0x03\n        /* \"smart-contract/hardhat/contracts/ClosedSurvey.sol\":11654:11694  usersWhitelistedForSurvey[walletAddress] */\n      0x20\n      mstore\n      0x40\n      swap1\n      keccak256\n      sload\n      0xff\n      and\n        /* \"smart-contract/hardhat/contracts/ClosedSurvey.sol\":11653:11694  !usersWhitelistedForSurvey[walletAddress] */\n      iszero\n      swap1\n        /* \"smart-contract/hardhat/contracts/ClosedSurvey.sol\":11529:11701  function checkIfUserAddressIsBlacklisted(... */\n      jump\n        /* \"@openzeppelin/contracts/access/Ownable.sol\":1638:1723  function owner() public view virtual returns (address) {... */\n    tag_16:\n        /* \"@openzeppelin/contracts/access/Ownable.sol\":1684:1691  address */\n      0x00\n        /* \"@openzeppelin/contracts/access/Ownable.sol\":1710:1716  _owner */\n      sload\n      sub(shl(0xa0, 0x01), 0x01)\n      and\n        /* \"@openzeppelin/contracts/access/Ownable.sol\":1638:1723  function owner() public view virtual returns (address) {... */\n      jump(tag_40)\n        /* \"smart-contract/hardhat/contracts/ClosedSurvey.sol\":4974:5923  function whitelistMultipleUserAddresses(... */\n    tag_17:\n      tag_44\n      tag_85\n      calldatasize\n      0x04\n      tag_86\n      jump\t// in\n    tag_85:\n      tag_87\n      jump\t// in\n        /* \"smart-contract/hardhat/contracts/ClosedSurvey.sol\":5929:6897  function blacklistMultipleWhitelistedUserAddresses(... */\n    tag_18:\n      tag_44\n      tag_89\n      calldatasize\n      0x04\n      tag_86\n      jump\t// in\n    tag_89:\n      tag_90\n      jump\t// in\n        /* \"smart-contract/hardhat/contracts/ClosedSurvey.sol\":6903:7558  function processRewardClaimByParticipant(... */\n    tag_19:\n      tag_44\n      tag_92\n      calldatasize\n      0x04\n      tag_62\n      jump\t// in\n    tag_92:\n      tag_93\n      jump\t// in\n        /* \"smart-contract/hardhat/contracts/ClosedSurvey.sol\":10177:11151  function getWhitelistedAddressesFromRegisteredAddresses(... */\n    tag_20:\n      tag_94\n      tag_95\n      calldatasize\n      0x04\n      tag_86\n      jump\t// in\n    tag_95:\n      tag_96\n      jump\t// in\n    tag_94:\n      mload(0x40)\n      tag_38\n      swap2\n      swap1\n      tag_98\n      jump\t// in\n        /* \"smart-contract/hardhat/contracts/ClosedSurvey.sol\":628:669  uint256 public targetNumberOfParticipants */\n    tag_21:\n      tag_36\n      sload(0x06)\n      dup2\n      jump\n        /* \"smart-contract/hardhat/contracts/ClosedSurvey.sol\":4127:4533  function whitelistOneUserAddress(... */\n    tag_22:\n      tag_44\n      tag_103\n      calldatasize\n      0x04\n      tag_62\n      jump\t// in\n    tag_103:\n      tag_104\n      jump\t// in\n        /* \"smart-contract/hardhat/contracts/ClosedSurvey.sol\":724:771  uint256 public numberOfWhitelistedUserAddresses */\n    tag_23:\n      tag_36\n      sload(0x08)\n      dup2\n      jump\n        /* \"smart-contract/hardhat/contracts/ClosedSurvey.sol\":4539:4968  function blacklistOneWhitelistedUserAddress(... */\n    tag_24:\n      tag_44\n      tag_109\n      calldatasize\n      0x04\n      tag_62\n      jump\t// in\n    tag_109:\n      tag_110\n      jump\t// in\n        /* \"smart-contract/hardhat/contracts/ClosedSurvey.sol\":12136:12299  function getNumberOfWhitelistedUserAddresses()... */\n    tag_25:\n        /* \"smart-contract/hardhat/contracts/ClosedSurvey.sol\":12260:12292  numberOfWhitelistedUserAddresses */\n      sload(0x08)\n        /* \"smart-contract/hardhat/contracts/ClosedSurvey.sol\":12136:12299  function getNumberOfWhitelistedUserAddresses()... */\n      jump(tag_36)\n        /* \"smart-contract/hardhat/contracts/ClosedSurvey.sol\":10027:10094  function pauseSurvey() external onlyOwner {... */\n    tag_26:\n      tag_44\n      tag_115\n      jump\t// in\n        /* \"smart-contract/hardhat/contracts/ClosedSurvey.sol\":8314:8762  function withdrawAllRewardFundsToResearcher()... */\n    tag_27:\n      tag_44\n      tag_117\n      jump\t// in\n        /* \"@openzeppelin/contracts/access/Ownable.sol\":2543:2758  function transferOwnership(address newOwner) public virtual onlyOwner {... */\n    tag_28:\n      tag_44\n      tag_119\n      calldatasize\n      0x04\n      tag_62\n      jump\t// in\n    tag_119:\n      tag_120\n      jump\t// in\n        /* \"smart-contract/hardhat/contracts/ClosedSurvey.sol\":11352:11523  function checkIfUserAddressIsWhitelisted(... */\n    tag_29:\n      tag_50\n      tag_122\n      calldatasize\n      0x04\n      tag_62\n      jump\t// in\n    tag_122:\n      sub(shl(0xa0, 0x01), 0x01)\n        /* \"smart-contract/hardhat/contracts/ClosedSurvey.sol\":11476:11516  usersWhitelistedForSurvey[walletAddress] */\n      and\n        /* \"smart-contract/hardhat/contracts/ClosedSurvey.sol\":11453:11457  bool */\n      0x00\n        /* \"smart-contract/hardhat/contracts/ClosedSurvey.sol\":11476:11516  usersWhitelistedForSurvey[walletAddress] */\n      swap1\n      dup2\n      mstore\n        /* \"smart-contract/hardhat/contracts/ClosedSurvey.sol\":11476:11501  usersWhitelistedForSurvey */\n      0x03\n        /* \"smart-contract/hardhat/contracts/ClosedSurvey.sol\":11476:11516  usersWhitelistedForSurvey[walletAddress] */\n      0x20\n      mstore\n      0x40\n      swap1\n      keccak256\n      sload\n      0xff\n      and\n      swap1\n        /* \"smart-contract/hardhat/contracts/ClosedSurvey.sol\":11352:11523  function checkIfUserAddressIsWhitelisted(... */\n      jump\n        /* \"smart-contract/hardhat/contracts/ClosedSurvey.sol\":10100:10171  function unpauseSurvey() external onlyOwner {... */\n    tag_45:\n        /* \"@openzeppelin/contracts/access/Ownable.sol\":1531:1544  _checkOwner() */\n      tag_126\n        /* \"@openzeppelin/contracts/access/Ownable.sol\":1531:1542  _checkOwner */\n      tag_127\n        /* \"@openzeppelin/contracts/access/Ownable.sol\":1531:1544  _checkOwner() */\n      jump\t// in\n    tag_126:\n        /* \"smart-contract/hardhat/contracts/ClosedSurvey.sol\":10154:10164  _unpause() */\n      tag_129\n        /* \"smart-contract/hardhat/contracts/ClosedSurvey.sol\":10154:10162  _unpause */\n      tag_130\n        /* \"smart-contract/hardhat/contracts/ClosedSurvey.sol\":10154:10164  _unpause() */\n      jump\t// in\n    tag_129:\n        /* \"smart-contract/hardhat/contracts/ClosedSurvey.sol\":10100:10171  function unpauseSurvey() external onlyOwner {... */\n      jump\t// out\n        /* \"smart-contract/hardhat/contracts/ClosedSurvey.sol\":9410:10021  function updateTargetNumberOfParticipants(... */\n    tag_49:\n        /* \"@openzeppelin/contracts/access/Ownable.sol\":1531:1544  _checkOwner() */\n      tag_132\n        /* \"@openzeppelin/contracts/access/Ownable.sol\":1531:1542  _checkOwner */\n      tag_127\n        /* \"@openzeppelin/contracts/access/Ownable.sol\":1531:1544  _checkOwner() */\n      jump\t// in\n    tag_132:\n        /* \"smart-contract/hardhat/contracts/ClosedSurvey.sol\":9539:9569  _newTargetNumberOfParticipants */\n      dup1\n        /* \"smart-contract/hardhat/contracts/ClosedSurvey.sol\":9573:9574  0 */\n      0x00\n        /* \"smart-contract/hardhat/contracts/ClosedSurvey.sol\":9539:9574  _newTargetNumberOfParticipants == 0 */\n      sub\n        /* \"smart-contract/hardhat/contracts/ClosedSurvey.sol\":9535:9643  if (_newTargetNumberOfParticipants == 0) {... */\n      tag_134\n      jumpi\n        /* \"smart-contract/hardhat/contracts/ClosedSurvey.sol\":9597:9632  InvalidNumberOfTargetParticipants() */\n      mload(0x40)\n      shl(0xe2, 0x36c5eec7)\n      dup2\n      mstore\n      0x04\n      add\n      mload(0x40)\n      dup1\n      swap2\n      sub\n      swap1\n      revert\n        /* \"smart-contract/hardhat/contracts/ClosedSurvey.sol\":9535:9643  if (_newTargetNumberOfParticipants == 0) {... */\n    tag_134:\n        /* \"smart-contract/hardhat/contracts/ClosedSurvey.sol\":9693:9719  targetNumberOfParticipants */\n      0x06\n      dup1\n      sload\n        /* \"smart-contract/hardhat/contracts/ClosedSurvey.sol\":9811:9869  targetNumberOfParticipants = newTargetNumberOfParticipants */\n      swap1\n      dup3\n      swap1\n      sstore\n        /* \"smart-contract/hardhat/contracts/ClosedSurvey.sol\":9885:10014  TargetNumberOfParticipantsUpdates(... */\n      0x40\n      dup1\n      mload\n        /* \"#utility.yul\":2811:2836   */\n      dup3\n      dup2\n      mstore\n        /* \"#utility.yul\":2867:2869   */\n      0x20\n        /* \"#utility.yul\":2852:2870   */\n      dup2\n      add\n        /* \"#utility.yul\":2845:2879   */\n      dup5\n      swap1\n      mstore\n        /* \"smart-contract/hardhat/contracts/ClosedSurvey.sol\":9811:9869  targetNumberOfParticipants = newTargetNumberOfParticipants */\n      dup4\n      swap2\n        /* \"smart-contract/hardhat/contracts/ClosedSurvey.sol\":9885:10014  TargetNumberOfParticipantsUpdates(... */\n      0x2e31e8893a04ce5258044d342d7658948a6ac9710d97e32462ab75f131ae11ef\n      swap2\n        /* \"#utility.yul\":2784:2802   */\n      add\n        /* \"smart-contract/hardhat/contracts/ClosedSurvey.sol\":9885:10014  TargetNumberOfParticipantsUpdates(... */\n    tag_135:\n      mload(0x40)\n      dup1\n      swap2\n      sub\n      swap1\n      log1\n        /* \"smart-contract/hardhat/contracts/ClosedSurvey.sol\":9525:10021  {... */\n      pop\n      pop\n        /* \"smart-contract/hardhat/contracts/ClosedSurvey.sol\":9410:10021  function updateTargetNumberOfParticipants(... */\n      pop\n      jump\t// out\n        /* \"smart-contract/hardhat/contracts/ClosedSurvey.sol\":8768:9404  function updateRewardAmountPerParticipant(... */\n    tag_56:\n        /* \"@openzeppelin/contracts/access/Ownable.sol\":1531:1544  _checkOwner() */\n      tag_139\n        /* \"@openzeppelin/contracts/access/Ownable.sol\":1531:1542  _checkOwner */\n      tag_127\n        /* \"@openzeppelin/contracts/access/Ownable.sol\":1531:1544  _checkOwner() */\n      jump\t// in\n    tag_139:\n        /* \"smart-contract/hardhat/contracts/ClosedSurvey.sol\":8902:8937  _newRewardAmountPerParticipantInWei */\n      dup1\n        /* \"smart-contract/hardhat/contracts/ClosedSurvey.sol\":8941:8942  0 */\n      0x00\n        /* \"smart-contract/hardhat/contracts/ClosedSurvey.sol\":8902:8942  _newRewardAmountPerParticipantInWei == 0 */\n      sub\n        /* \"smart-contract/hardhat/contracts/ClosedSurvey.sol\":8898:9002  if (_newRewardAmountPerParticipantInWei == 0) {... */\n      tag_141\n      jumpi\n        /* \"smart-contract/hardhat/contracts/ClosedSurvey.sol\":8965:8991  InvalidRewardAmountGiven() */\n      mload(0x40)\n      shl(0xe4, 0x0d428a01)\n      dup2\n      mstore\n      0x04\n      add\n      mload(0x40)\n      dup1\n      swap2\n      sub\n      swap1\n      revert\n        /* \"smart-contract/hardhat/contracts/ClosedSurvey.sol\":8898:9002  if (_newRewardAmountPerParticipantInWei == 0) {... */\n    tag_141:\n        /* \"smart-contract/hardhat/contracts/ClosedSurvey.sol\":9056:9087  rewardAmountPerParticipantInWei */\n      0x05\n      dup1\n      sload\n        /* \"smart-contract/hardhat/contracts/ClosedSurvey.sol\":9188:9256  rewardAmountPerParticipantInWei = newRewardAmountPerParticipantInWei */\n      swap1\n      dup3\n      swap1\n      sstore\n        /* \"smart-contract/hardhat/contracts/ClosedSurvey.sol\":9272:9397  RewardAmountUpdated(... */\n      0x40\n      dup1\n      mload\n        /* \"#utility.yul\":2811:2836   */\n      dup3\n      dup2\n      mstore\n        /* \"#utility.yul\":2867:2869   */\n      0x20\n        /* \"#utility.yul\":2852:2870   */\n      dup2\n      add\n        /* \"#utility.yul\":2845:2879   */\n      dup5\n      swap1\n      mstore\n        /* \"smart-contract/hardhat/contracts/ClosedSurvey.sol\":9188:9256  rewardAmountPerParticipantInWei = newRewardAmountPerParticipantInWei */\n      dup4\n      swap2\n        /* \"smart-contract/hardhat/contracts/ClosedSurvey.sol\":9272:9397  RewardAmountUpdated(... */\n      0xf0d37c3ae852021ac329281f604b658691cbfa6b9e9c22909f06b64a8ce87c94\n      swap2\n        /* \"#utility.yul\":2784:2802   */\n      add\n        /* \"smart-contract/hardhat/contracts/ClosedSurvey.sol\":9272:9397  RewardAmountUpdated(... */\n      tag_135\n        /* \"#utility.yul\":2637:2885   */\n      jump\n        /* \"@openzeppelin/contracts/access/Ownable.sol\":2293:2394  function renounceOwnership() public virtual onlyOwner {... */\n    tag_69:\n        /* \"@openzeppelin/contracts/access/Ownable.sol\":1531:1544  _checkOwner() */\n      tag_147\n        /* \"@openzeppelin/contracts/access/Ownable.sol\":1531:1542  _checkOwner */\n      tag_127\n        /* \"@openzeppelin/contracts/access/Ownable.sol\":1531:1544  _checkOwner() */\n      jump\t// in\n    tag_147:\n        /* \"@openzeppelin/contracts/access/Ownable.sol\":2357:2387  _transferOwnership(address(0)) */\n      tag_129\n        /* \"@openzeppelin/contracts/access/Ownable.sol\":2384:2385  0 */\n      0x00\n        /* \"@openzeppelin/contracts/access/Ownable.sol\":2357:2375  _transferOwnership */\n      tag_150\n        /* \"@openzeppelin/contracts/access/Ownable.sol\":2357:2387  _transferOwnership(address(0)) */\n      jump\t// in\n        /* \"smart-contract/hardhat/contracts/ClosedSurvey.sol\":4974:5923  function whitelistMultipleUserAddresses(... */\n    tag_87:\n        /* \"@openzeppelin/contracts/access/Ownable.sol\":1531:1544  _checkOwner() */\n      tag_155\n        /* \"@openzeppelin/contracts/access/Ownable.sol\":1531:1542  _checkOwner */\n      tag_127\n        /* \"@openzeppelin/contracts/access/Ownable.sol\":1531:1544  _checkOwner() */\n      jump\t// in\n    tag_155:\n        /* \"smart-contract/hardhat/contracts/ClosedSurvey.sol\":5110:5125  walletAddresses */\n      dup1\n        /* \"smart-contract/hardhat/contracts/ClosedSurvey.sol\":5093:5107  uint256 length */\n      0x00\n        /* \"smart-contract/hardhat/contracts/ClosedSurvey.sol\":5146:5157  length == 0 */\n      dup2\n      swap1\n      sub\n        /* \"smart-contract/hardhat/contracts/ClosedSurvey.sol\":5142:5211  if (length == 0) {... */\n      tag_157\n      jumpi\n        /* \"smart-contract/hardhat/contracts/ClosedSurvey.sol\":5180:5200  InvalidArrayLength() */\n      mload(0x40)\n      shl(0xe1, 0x4ec48105)\n      dup2\n      mstore\n      0x04\n      add\n      mload(0x40)\n      dup1\n      swap2\n      sub\n      swap1\n      revert\n        /* \"smart-contract/hardhat/contracts/ClosedSurvey.sol\":5142:5211  if (length == 0) {... */\n    tag_157:\n        /* \"smart-contract/hardhat/contracts/ClosedSurvey.sol\":5226:5235  uint256 i */\n      0x00\n        /* \"smart-contract/hardhat/contracts/ClosedSurvey.sol\":5221:5582  for (uint256 i = 0; i < length; ) {... */\n    tag_158:\n        /* \"smart-contract/hardhat/contracts/ClosedSurvey.sol\":5245:5251  length */\n      dup2\n        /* \"smart-contract/hardhat/contracts/ClosedSurvey.sol\":5241:5242  i */\n      dup2\n        /* \"smart-contract/hardhat/contracts/ClosedSurvey.sol\":5241:5251  i < length */\n      lt\n        /* \"smart-contract/hardhat/contracts/ClosedSurvey.sol\":5221:5582  for (uint256 i = 0; i < length; ) {... */\n      iszero\n      tag_159\n      jumpi\n        /* \"smart-contract/hardhat/contracts/ClosedSurvey.sol\":5303:5304  0 */\n      0x00\n        /* \"smart-contract/hardhat/contracts/ClosedSurvey.sol\":5273:5288  walletAddresses */\n      dup5\n      dup5\n        /* \"smart-contract/hardhat/contracts/ClosedSurvey.sol\":5289:5290  i */\n      dup4\n        /* \"smart-contract/hardhat/contracts/ClosedSurvey.sol\":5273:5291  walletAddresses[i] */\n      dup2\n      dup2\n      lt\n      tag_162\n      jumpi\n      tag_162\n      tag_163\n      jump\t// in\n    tag_162:\n      swap1\n      pop\n      0x20\n      mul\n      add\n      0x20\n      dup2\n      add\n      swap1\n      tag_164\n      swap2\n      swap1\n      tag_62\n      jump\t// in\n    tag_164:\n      sub(shl(0xa0, 0x01), 0x01)\n        /* \"smart-contract/hardhat/contracts/ClosedSurvey.sol\":5273:5305  walletAddresses[i] == address(0) */\n      and\n      sub\n        /* \"smart-contract/hardhat/contracts/ClosedSurvey.sol\":5269:5360  if (walletAddresses[i] == address(0)) {... */\n      tag_165\n      jumpi\n        /* \"smart-contract/hardhat/contracts/ClosedSurvey.sol\":5332:5345  ZeroAddress() */\n      mload(0x40)\n      shl(0xe0, 0xd92e233d)\n      dup2\n      mstore\n      0x04\n      add\n      mload(0x40)\n      dup1\n      swap2\n      sub\n      swap1\n      revert\n        /* \"smart-contract/hardhat/contracts/ClosedSurvey.sol\":5269:5360  if (walletAddresses[i] == address(0)) {... */\n    tag_165:\n        /* \"smart-contract/hardhat/contracts/ClosedSurvey.sol\":5377:5402  usersWhitelistedForSurvey */\n      0x03\n        /* \"smart-contract/hardhat/contracts/ClosedSurvey.sol\":5377:5422  usersWhitelistedForSurvey[walletAddresses[i]] */\n      0x00\n        /* \"smart-contract/hardhat/contracts/ClosedSurvey.sol\":5403:5418  walletAddresses */\n      dup6\n      dup6\n        /* \"smart-contract/hardhat/contracts/ClosedSurvey.sol\":5419:5420  i */\n      dup5\n        /* \"smart-contract/hardhat/contracts/ClosedSurvey.sol\":5403:5421  walletAddresses[i] */\n      dup2\n      dup2\n      lt\n      tag_167\n      jumpi\n      tag_167\n      tag_163\n      jump\t// in\n    tag_167:\n      swap1\n      pop\n      0x20\n      mul\n      add\n      0x20\n      dup2\n      add\n      swap1\n      tag_168\n      swap2\n      swap1\n      tag_62\n      jump\t// in\n    tag_168:\n      sub(shl(0xa0, 0x01), 0x01)\n        /* \"smart-contract/hardhat/contracts/ClosedSurvey.sol\":5377:5422  usersWhitelistedForSurvey[walletAddresses[i]] */\n      and\n      dup2\n      mstore\n      0x20\n      dup2\n      add\n      swap2\n      swap1\n      swap2\n      mstore\n      0x40\n      add\n      0x00\n      keccak256\n      sload\n      0xff\n      and\n        /* \"smart-contract/hardhat/contracts/ClosedSurvey.sol\":5373:5513  if (usersWhitelistedForSurvey[walletAddresses[i]]) {... */\n      iszero\n      tag_169\n      jumpi\n        /* \"smart-contract/hardhat/contracts/ClosedSurvey.sol\":5479:5494  walletAddresses */\n      dup4\n      dup4\n        /* \"smart-contract/hardhat/contracts/ClosedSurvey.sol\":5495:5496  i */\n      dup3\n        /* \"smart-contract/hardhat/contracts/ClosedSurvey.sol\":5479:5497  walletAddresses[i] */\n      dup2\n      dup2\n      lt\n      tag_171\n      jumpi\n      tag_171\n      tag_163\n      jump\t// in\n    tag_171:\n      swap1\n      pop\n      0x20\n      mul\n      add\n      0x20\n      dup2\n      add\n      swap1\n      tag_172\n      swap2\n      swap1\n      tag_62\n      jump\t// in\n    tag_172:\n        /* \"smart-contract/hardhat/contracts/ClosedSurvey.sol\":5449:5498  UserAddressAlreadyWhitelisted(walletAddresses[i]) */\n      mload(0x40)\n      shl(0xe1, 0x3746725b)\n      dup2\n      mstore\n      sub(shl(0xa0, 0x01), 0x01)\n        /* \"#utility.yul\":382:414   */\n      swap1\n      swap2\n      and\n        /* \"smart-contract/hardhat/contracts/ClosedSurvey.sol\":5449:5498  UserAddressAlreadyWhitelisted(walletAddresses[i]) */\n      0x04\n      dup3\n      add\n        /* \"#utility.yul\":364:415   */\n      mstore\n        /* \"#utility.yul\":337:355   */\n      0x24\n      add\n        /* \"smart-contract/hardhat/contracts/ClosedSurvey.sol\":5449:5498  UserAddressAlreadyWhitelisted(walletAddresses[i]) */\n    tag_173:\n      mload(0x40)\n      dup1\n      swap2\n      sub\n      swap1\n      revert\n        /* \"smart-contract/hardhat/contracts/ClosedSurvey.sol\":5373:5513  if (usersWhitelistedForSurvey[walletAddresses[i]]) {... */\n    tag_169:\n        /* \"smart-contract/hardhat/contracts/ClosedSurvey.sol\":5554:5557  ++i */\n      0x01\n      add\n        /* \"smart-contract/hardhat/contracts/ClosedSurvey.sol\":5221:5582  for (uint256 i = 0; i < length; ) {... */\n      jump(tag_158)\n    tag_159:\n      pop\n        /* \"smart-contract/hardhat/contracts/ClosedSurvey.sol\":5597:5606  uint256 i */\n      0x00\n        /* \"smart-contract/hardhat/contracts/ClosedSurvey.sol\":5592:5852  for (uint256 i = 0; i < length; ) {... */\n    tag_174:\n        /* \"smart-contract/hardhat/contracts/ClosedSurvey.sol\":5616:5622  length */\n      dup2\n        /* \"smart-contract/hardhat/contracts/ClosedSurvey.sol\":5612:5613  i */\n      dup2\n        /* \"smart-contract/hardhat/contracts/ClosedSurvey.sol\":5612:5622  i < length */\n      lt\n        /* \"smart-contract/hardhat/contracts/ClosedSurvey.sol\":5592:5852  for (uint256 i = 0; i < length; ) {... */\n      iszero\n      tag_175\n      jumpi\n        /* \"smart-contract/hardhat/contracts/ClosedSurvey.sol\":5688:5692  true */\n      0x01\n        /* \"smart-contract/hardhat/contracts/ClosedSurvey.sol\":5640:5665  usersWhitelistedForSurvey */\n      0x03\n        /* \"smart-contract/hardhat/contracts/ClosedSurvey.sol\":5640:5685  usersWhitelistedForSurvey[walletAddresses[i]] */\n      0x00\n        /* \"smart-contract/hardhat/contracts/ClosedSurvey.sol\":5666:5681  walletAddresses */\n      dup7\n      dup7\n        /* \"smart-contract/hardhat/contracts/ClosedSurvey.sol\":5682:5683  i */\n      dup6\n        /* \"smart-contract/hardhat/contracts/ClosedSurvey.sol\":5666:5684  walletAddresses[i] */\n      dup2\n      dup2\n      lt\n      tag_178\n      jumpi\n      tag_178\n      tag_163\n      jump\t// in\n    tag_178:\n      swap1\n      pop\n      0x20\n      mul\n      add\n      0x20\n      dup2\n      add\n      swap1\n      tag_179\n      swap2\n      swap1\n      tag_62\n      jump\t// in\n    tag_179:\n      sub(shl(0xa0, 0x01), 0x01)\n        /* \"smart-contract/hardhat/contracts/ClosedSurvey.sol\":5640:5685  usersWhitelistedForSurvey[walletAddresses[i]] */\n      and\n      dup2\n      mstore\n      0x20\n      dup2\n      add\n      swap2\n      swap1\n      swap2\n      mstore\n      0x40\n      add\n      0x00\n      keccak256\n        /* \"smart-contract/hardhat/contracts/ClosedSurvey.sol\":5640:5692  usersWhitelistedForSurvey[walletAddresses[i]] = true */\n      dup1\n      sload\n      not(0xff)\n      and\n      swap2\n      iszero\n      iszero\n      swap2\n      swap1\n      swap2\n      or\n      swap1\n      sstore\n        /* \"smart-contract/hardhat/contracts/ClosedSurvey.sol\":5736:5768  numberOfWhitelistedUserAddresses */\n      0x08\n        /* \"smart-contract/hardhat/contracts/ClosedSurvey.sol\":5734:5768  ++numberOfWhitelistedUserAddresses */\n      dup1\n      sload\n      0x01\n      swap1\n      dup2\n      add\n      swap1\n      swap2\n      sstore\n        /* \"smart-contract/hardhat/contracts/ClosedSurvey.sol\":5824:5827  ++i */\n      add\n        /* \"smart-contract/hardhat/contracts/ClosedSurvey.sol\":5592:5852  for (uint256 i = 0; i < length; ) {... */\n      jump(tag_174)\n    tag_175:\n      pop\n        /* \"smart-contract/hardhat/contracts/ClosedSurvey.sol\":5867:5916  MultipleUserAddressesWhitelisted(walletAddresses) */\n      0x9a9f2a64a3b0b4774da60129aa707715e049cb95062f7acaaffc07ddc244c1cc\n        /* \"smart-contract/hardhat/contracts/ClosedSurvey.sol\":5900:5915  walletAddresses */\n      dup4\n      dup4\n        /* \"smart-contract/hardhat/contracts/ClosedSurvey.sol\":5867:5916  MultipleUserAddressesWhitelisted(walletAddresses) */\n      mload(0x40)\n      tag_135\n      swap3\n      swap2\n      swap1\n      tag_181\n      jump\t// in\n        /* \"smart-contract/hardhat/contracts/ClosedSurvey.sol\":5929:6897  function blacklistMultipleWhitelistedUserAddresses(... */\n    tag_90:\n        /* \"@openzeppelin/contracts/access/Ownable.sol\":1531:1544  _checkOwner() */\n      tag_183\n        /* \"@openzeppelin/contracts/access/Ownable.sol\":1531:1542  _checkOwner */\n      tag_127\n        /* \"@openzeppelin/contracts/access/Ownable.sol\":1531:1544  _checkOwner() */\n      jump\t// in\n    tag_183:\n        /* \"smart-contract/hardhat/contracts/ClosedSurvey.sol\":6076:6091  walletAddresses */\n      dup1\n        /* \"smart-contract/hardhat/contracts/ClosedSurvey.sol\":6059:6073  uint256 length */\n      0x00\n        /* \"smart-contract/hardhat/contracts/ClosedSurvey.sol\":6112:6123  length == 0 */\n      dup2\n      swap1\n      sub\n        /* \"smart-contract/hardhat/contracts/ClosedSurvey.sol\":6108:6177  if (length == 0) {... */\n      tag_185\n      jumpi\n        /* \"smart-contract/hardhat/contracts/ClosedSurvey.sol\":6146:6166  InvalidArrayLength() */\n      mload(0x40)\n      shl(0xe1, 0x4ec48105)\n      dup2\n      mstore\n      0x04\n      add\n      mload(0x40)\n      dup1\n      swap2\n      sub\n      swap1\n      revert\n        /* \"smart-contract/hardhat/contracts/ClosedSurvey.sol\":6108:6177  if (length == 0) {... */\n    tag_185:\n        /* \"smart-contract/hardhat/contracts/ClosedSurvey.sol\":6192:6201  uint256 i */\n      0x00\n        /* \"smart-contract/hardhat/contracts/ClosedSurvey.sol\":6187:6545  for (uint256 i = 0; i < length; ) {... */\n    tag_186:\n        /* \"smart-contract/hardhat/contracts/ClosedSurvey.sol\":6211:6217  length */\n      dup2\n        /* \"smart-contract/hardhat/contracts/ClosedSurvey.sol\":6207:6208  i */\n      dup2\n        /* \"smart-contract/hardhat/contracts/ClosedSurvey.sol\":6207:6217  i < length */\n      lt\n        /* \"smart-contract/hardhat/contracts/ClosedSurvey.sol\":6187:6545  for (uint256 i = 0; i < length; ) {... */\n      iszero\n      tag_187\n      jumpi\n        /* \"smart-contract/hardhat/contracts/ClosedSurvey.sol\":6269:6270  0 */\n      0x00\n        /* \"smart-contract/hardhat/contracts/ClosedSurvey.sol\":6239:6254  walletAddresses */\n      dup5\n      dup5\n        /* \"smart-contract/hardhat/contracts/ClosedSurvey.sol\":6255:6256  i */\n      dup4\n        /* \"smart-contract/hardhat/contracts/ClosedSurvey.sol\":6239:6257  walletAddresses[i] */\n      dup2\n      dup2\n      lt\n      tag_190\n      jumpi\n      tag_190\n      tag_163\n      jump\t// in\n    tag_190:\n      swap1\n      pop\n      0x20\n      mul\n      add\n      0x20\n      dup2\n      add\n      swap1\n      tag_191\n      swap2\n      swap1\n      tag_62\n      jump\t// in\n    tag_191:\n      sub(shl(0xa0, 0x01), 0x01)\n        /* \"smart-contract/hardhat/contracts/ClosedSurvey.sol\":6239:6271  walletAddresses[i] == address(0) */\n      and\n      sub\n        /* \"smart-contract/hardhat/contracts/ClosedSurvey.sol\":6235:6326  if (walletAddresses[i] == address(0)) {... */\n      tag_192\n      jumpi\n        /* \"smart-contract/hardhat/contracts/ClosedSurvey.sol\":6298:6311  ZeroAddress() */\n      mload(0x40)\n      shl(0xe0, 0xd92e233d)\n      dup2\n      mstore\n      0x04\n      add\n      mload(0x40)\n      dup1\n      swap2\n      sub\n      swap1\n      revert\n        /* \"smart-contract/hardhat/contracts/ClosedSurvey.sol\":6235:6326  if (walletAddresses[i] == address(0)) {... */\n    tag_192:\n        /* \"smart-contract/hardhat/contracts/ClosedSurvey.sol\":6344:6369  usersWhitelistedForSurvey */\n      0x03\n        /* \"smart-contract/hardhat/contracts/ClosedSurvey.sol\":6344:6389  usersWhitelistedForSurvey[walletAddresses[i]] */\n      0x00\n        /* \"smart-contract/hardhat/contracts/ClosedSurvey.sol\":6370:6385  walletAddresses */\n      dup6\n      dup6\n        /* \"smart-contract/hardhat/contracts/ClosedSurvey.sol\":6386:6387  i */\n      dup5\n        /* \"smart-contract/hardhat/contracts/ClosedSurvey.sol\":6370:6388  walletAddresses[i] */\n      dup2\n      dup2\n      lt\n      tag_194\n      jumpi\n      tag_194\n      tag_163\n      jump\t// in\n    tag_194:\n      swap1\n      pop\n      0x20\n      mul\n      add\n      0x20\n      dup2\n      add\n      swap1\n      tag_195\n      swap2\n      swap1\n      tag_62\n      jump\t// in\n    tag_195:\n      sub(shl(0xa0, 0x01), 0x01)\n        /* \"smart-contract/hardhat/contracts/ClosedSurvey.sol\":6344:6389  usersWhitelistedForSurvey[walletAddresses[i]] */\n      and\n      dup2\n      mstore\n      0x20\n      dup2\n      add\n      swap2\n      swap1\n      swap2\n      mstore\n      0x40\n      add\n      0x00\n      keccak256\n      sload\n      0xff\n      and\n        /* \"smart-contract/hardhat/contracts/ClosedSurvey.sol\":6339:6476  if (!usersWhitelistedForSurvey[walletAddresses[i]]) {... */\n      tag_196\n      jumpi\n        /* \"smart-contract/hardhat/contracts/ClosedSurvey.sol\":6442:6457  walletAddresses */\n      dup4\n      dup4\n        /* \"smart-contract/hardhat/contracts/ClosedSurvey.sol\":6458:6459  i */\n      dup3\n        /* \"smart-contract/hardhat/contracts/ClosedSurvey.sol\":6442:6460  walletAddresses[i] */\n      dup2\n      dup2\n      lt\n      tag_198\n      jumpi\n      tag_198\n      tag_163\n      jump\t// in\n    tag_198:\n      swap1\n      pop\n      0x20\n      mul\n      add\n      0x20\n      dup2\n      add\n      swap1\n      tag_199\n      swap2\n      swap1\n      tag_62\n      jump\t// in\n    tag_199:\n        /* \"smart-contract/hardhat/contracts/ClosedSurvey.sol\":6416:6461  UserAddressNotWhitelisted(walletAddresses[i]) */\n      mload(0x40)\n      shl(0xe0, 0xde55cc33)\n      dup2\n      mstore\n      sub(shl(0xa0, 0x01), 0x01)\n        /* \"#utility.yul\":382:414   */\n      swap1\n      swap2\n      and\n        /* \"smart-contract/hardhat/contracts/ClosedSurvey.sol\":6416:6461  UserAddressNotWhitelisted(walletAddresses[i]) */\n      0x04\n      dup3\n      add\n        /* \"#utility.yul\":364:415   */\n      mstore\n        /* \"#utility.yul\":337:355   */\n      0x24\n      add\n        /* \"smart-contract/hardhat/contracts/ClosedSurvey.sol\":6416:6461  UserAddressNotWhitelisted(walletAddresses[i]) */\n      tag_173\n        /* \"#utility.yul\":196:421   */\n      jump\n        /* \"smart-contract/hardhat/contracts/ClosedSurvey.sol\":6339:6476  if (!usersWhitelistedForSurvey[walletAddresses[i]]) {... */\n    tag_196:\n        /* \"smart-contract/hardhat/contracts/ClosedSurvey.sol\":6517:6520  ++i */\n      0x01\n      add\n        /* \"smart-contract/hardhat/contracts/ClosedSurvey.sol\":6187:6545  for (uint256 i = 0; i < length; ) {... */\n      jump(tag_186)\n    tag_187:\n      pop\n        /* \"smart-contract/hardhat/contracts/ClosedSurvey.sol\":6560:6569  uint256 i */\n      0x00\n        /* \"smart-contract/hardhat/contracts/ClosedSurvey.sol\":6555:6816  for (uint256 i = 0; i < length; ) {... */\n    tag_201:\n        /* \"smart-contract/hardhat/contracts/ClosedSurvey.sol\":6579:6585  length */\n      dup2\n        /* \"smart-contract/hardhat/contracts/ClosedSurvey.sol\":6575:6576  i */\n      dup2\n        /* \"smart-contract/hardhat/contracts/ClosedSurvey.sol\":6575:6585  i < length */\n      lt\n        /* \"smart-contract/hardhat/contracts/ClosedSurvey.sol\":6555:6816  for (uint256 i = 0; i < length; ) {... */\n      iszero\n      tag_202\n      jumpi\n        /* \"smart-contract/hardhat/contracts/ClosedSurvey.sol\":6651:6656  false */\n      0x00\n        /* \"smart-contract/hardhat/contracts/ClosedSurvey.sol\":6603:6628  usersWhitelistedForSurvey */\n      0x03\n        /* \"smart-contract/hardhat/contracts/ClosedSurvey.sol\":6603:6648  usersWhitelistedForSurvey[walletAddresses[i]] */\n      0x00\n        /* \"smart-contract/hardhat/contracts/ClosedSurvey.sol\":6629:6644  walletAddresses */\n      dup7\n      dup7\n        /* \"smart-contract/hardhat/contracts/ClosedSurvey.sol\":6645:6646  i */\n      dup6\n        /* \"smart-contract/hardhat/contracts/ClosedSurvey.sol\":6629:6647  walletAddresses[i] */\n      dup2\n      dup2\n      lt\n      tag_205\n      jumpi\n      tag_205\n      tag_163\n      jump\t// in\n    tag_205:\n      swap1\n      pop\n      0x20\n      mul\n      add\n      0x20\n      dup2\n      add\n      swap1\n      tag_206\n      swap2\n      swap1\n      tag_62\n      jump\t// in\n    tag_206:\n      sub(shl(0xa0, 0x01), 0x01)\n        /* \"smart-contract/hardhat/contracts/ClosedSurvey.sol\":6603:6648  usersWhitelistedForSurvey[walletAddresses[i]] */\n      and\n      dup2\n      mstore\n      0x20\n      dup2\n      add\n      swap2\n      swap1\n      swap2\n      mstore\n      0x40\n      add\n      0x00\n      keccak256\n        /* \"smart-contract/hardhat/contracts/ClosedSurvey.sol\":6603:6656  usersWhitelistedForSurvey[walletAddresses[i]] = false */\n      dup1\n      sload\n      not(0xff)\n      and\n      swap2\n      iszero\n      iszero\n      swap2\n      swap1\n      swap2\n      or\n      swap1\n      sstore\n        /* \"smart-contract/hardhat/contracts/ClosedSurvey.sol\":6700:6732  numberOfWhitelistedUserAddresses */\n      0x08\n        /* \"smart-contract/hardhat/contracts/ClosedSurvey.sol\":6698:6732  --numberOfWhitelistedUserAddresses */\n      dup1\n      sload\n      not(0x00)\n      add\n      swap1\n      sstore\n      0x01\n        /* \"smart-contract/hardhat/contracts/ClosedSurvey.sol\":6788:6791  ++i */\n      add\n        /* \"smart-contract/hardhat/contracts/ClosedSurvey.sol\":6555:6816  for (uint256 i = 0; i < length; ) {... */\n      jump(tag_201)\n    tag_202:\n      pop\n        /* \"smart-contract/hardhat/contracts/ClosedSurvey.sol\":6830:6890  MultipleWhitelistedUserAddressesBlacklisted(walletAddresses) */\n      0xd68b41369d54faca53e699320360840db6e0e2e175d3974eb304fd18713d916b\n        /* \"smart-contract/hardhat/contracts/ClosedSurvey.sol\":6874:6889  walletAddresses */\n      dup4\n      dup4\n        /* \"smart-contract/hardhat/contracts/ClosedSurvey.sol\":6830:6890  MultipleWhitelistedUserAddressesBlacklisted(walletAddresses) */\n      mload(0x40)\n      tag_135\n      swap3\n      swap2\n      swap1\n      tag_181\n      jump\t// in\n        /* \"smart-contract/hardhat/contracts/ClosedSurvey.sol\":6903:7558  function processRewardClaimByParticipant(... */\n    tag_93:\n        /* \"@openzeppelin/contracts/utils/Pausable.sol\":1474:1493  _requireNotPaused() */\n      tag_209\n        /* \"@openzeppelin/contracts/utils/Pausable.sol\":1474:1491  _requireNotPaused */\n      tag_210\n        /* \"@openzeppelin/contracts/utils/Pausable.sol\":1474:1493  _requireNotPaused() */\n      jump\t// in\n    tag_209:\n        /* \"@openzeppelin/contracts/utils/ReentrancyGuard.sol\":2500:2521  _nonReentrantBefore() */\n      tag_212\n        /* \"@openzeppelin/contracts/utils/ReentrancyGuard.sol\":2500:2519  _nonReentrantBefore */\n      tag_213\n        /* \"@openzeppelin/contracts/utils/ReentrancyGuard.sol\":2500:2521  _nonReentrantBefore() */\n      jump\t// in\n    tag_212:\n        /* \"smart-contract/hardhat/contracts/ClosedSurvey.sol\":7065:7078  walletAddress */\n      dup1\n        /* \"smart-contract/hardhat/contracts/ClosedSurvey.sol\":3182:3192  msg.sender */\n      caller\n      sub(shl(0xa0, 0x01), 0x01)\n        /* \"smart-contract/hardhat/contracts/ClosedSurvey.sol\":3182:3209  msg.sender != messageSender */\n      dup3\n      and\n      eq\n        /* \"smart-contract/hardhat/contracts/ClosedSurvey.sol\":3178:3283  if (msg.sender != messageSender) {... */\n      tag_215\n      jumpi\n        /* \"smart-contract/hardhat/contracts/ClosedSurvey.sol\":3232:3272  UnauthorizedMessageSender(messageSender) */\n      mload(0x40)\n      shl(0xe0, 0x44b50405)\n      dup2\n      mstore\n      sub(shl(0xa0, 0x01), 0x01)\n        /* \"#utility.yul\":382:414   */\n      dup3\n      and\n        /* \"smart-contract/hardhat/contracts/ClosedSurvey.sol\":3232:3272  UnauthorizedMessageSender(messageSender) */\n      0x04\n      dup3\n      add\n        /* \"#utility.yul\":364:415   */\n      mstore\n        /* \"#utility.yul\":337:355   */\n      0x24\n      add\n        /* \"smart-contract/hardhat/contracts/ClosedSurvey.sol\":3232:3272  UnauthorizedMessageSender(messageSender) */\n      tag_173\n        /* \"#utility.yul\":196:421   */\n      jump\n        /* \"smart-contract/hardhat/contracts/ClosedSurvey.sol\":3178:3283  if (msg.sender != messageSender) {... */\n    tag_215:\n      sub(shl(0xa0, 0x01), 0x01)\n        /* \"smart-contract/hardhat/contracts/ClosedSurvey.sol\":2338:2378  usersWhitelistedForSurvey[walletAddress] */\n      dup3\n      and\n      0x00\n      swap1\n      dup2\n      mstore\n        /* \"smart-contract/hardhat/contracts/ClosedSurvey.sol\":2338:2363  usersWhitelistedForSurvey */\n      0x03\n        /* \"smart-contract/hardhat/contracts/ClosedSurvey.sol\":2338:2378  usersWhitelistedForSurvey[walletAddress] */\n      0x20\n      mstore\n      0x40\n      swap1\n      keccak256\n      sload\n        /* \"smart-contract/hardhat/contracts/ClosedSurvey.sol\":7111:7124  walletAddress */\n      dup3\n      swap1\n        /* \"smart-contract/hardhat/contracts/ClosedSurvey.sol\":2338:2378  usersWhitelistedForSurvey[walletAddress] */\n      0xff\n      and\n        /* \"smart-contract/hardhat/contracts/ClosedSurvey.sol\":2333:2452  if (!usersWhitelistedForSurvey[walletAddress]) {... */\n      tag_218\n      jumpi\n        /* \"smart-contract/hardhat/contracts/ClosedSurvey.sol\":2401:2441  UserAddressNotWhitelisted(walletAddress) */\n      mload(0x40)\n      shl(0xe0, 0xde55cc33)\n      dup2\n      mstore\n      sub(shl(0xa0, 0x01), 0x01)\n        /* \"#utility.yul\":382:414   */\n      dup3\n      and\n        /* \"smart-contract/hardhat/contracts/ClosedSurvey.sol\":2401:2441  UserAddressNotWhitelisted(walletAddress) */\n      0x04\n      dup3\n      add\n        /* \"#utility.yul\":364:415   */\n      mstore\n        /* \"#utility.yul\":337:355   */\n      0x24\n      add\n        /* \"smart-contract/hardhat/contracts/ClosedSurvey.sol\":2401:2441  UserAddressNotWhitelisted(walletAddress) */\n      tag_173\n        /* \"#utility.yul\":196:421   */\n      jump\n        /* \"smart-contract/hardhat/contracts/ClosedSurvey.sol\":2333:2452  if (!usersWhitelistedForSurvey[walletAddress]) {... */\n    tag_218:\n      sub(shl(0xa0, 0x01), 0x01)\n        /* \"smart-contract/hardhat/contracts/ClosedSurvey.sol\":2952:3011  participantsWhoHaveClaimedRewards[participantWalletAddress] */\n      dup4\n      and\n      0x00\n      swap1\n      dup2\n      mstore\n        /* \"smart-contract/hardhat/contracts/ClosedSurvey.sol\":2952:2985  participantsWhoHaveClaimedRewards */\n      0x04\n        /* \"smart-contract/hardhat/contracts/ClosedSurvey.sol\":2952:3011  participantsWhoHaveClaimedRewards[participantWalletAddress] */\n      0x20\n      mstore\n      0x40\n      swap1\n      keccak256\n      sload\n        /* \"smart-contract/hardhat/contracts/ClosedSurvey.sol\":7160:7173  walletAddress */\n      dup4\n      swap1\n        /* \"smart-contract/hardhat/contracts/ClosedSurvey.sol\":2952:3011  participantsWhoHaveClaimedRewards[participantWalletAddress] */\n      0xff\n      and\n        /* \"smart-contract/hardhat/contracts/ClosedSurvey.sol\":2948:3097  if (participantsWhoHaveClaimedRewards[participantWalletAddress]) {... */\n      iszero\n      tag_221\n      jumpi\n        /* \"smart-contract/hardhat/contracts/ClosedSurvey.sol\":3034:3086  ParticipantAlreadyRewarded(participantWalletAddress) */\n      mload(0x40)\n      shl(0xe3, 0x01ee5f6f)\n      dup2\n      mstore\n      sub(shl(0xa0, 0x01), 0x01)\n        /* \"#utility.yul\":382:414   */\n      dup3\n      and\n        /* \"smart-contract/hardhat/contracts/ClosedSurvey.sol\":3034:3086  ParticipantAlreadyRewarded(participantWalletAddress) */\n      0x04\n      dup3\n      add\n        /* \"#utility.yul\":364:415   */\n      mstore\n        /* \"#utility.yul\":337:355   */\n      0x24\n      add\n        /* \"smart-contract/hardhat/contracts/ClosedSurvey.sol\":3034:3086  ParticipantAlreadyRewarded(participantWalletAddress) */\n      tag_173\n        /* \"#utility.yul\":196:421   */\n      jump\n        /* \"smart-contract/hardhat/contracts/ClosedSurvey.sol\":2948:3097  if (participantsWhoHaveClaimedRewards[participantWalletAddress]) {... */\n    tag_221:\n        /* \"smart-contract/hardhat/contracts/ClosedSurvey.sol\":7225:7256  rewardAmountPerParticipantInWei */\n      sload(0x05)\n        /* \"smart-contract/hardhat/contracts/ClosedSurvey.sol\":7193:7222  cUSD.balanceOf(address(this)) */\n      mload(0x40)\n      shl(0xe0, 0x70a08231)\n      dup2\n      mstore\n        /* \"smart-contract/hardhat/contracts/ClosedSurvey.sol\":7216:7220  this */\n      address\n        /* \"smart-contract/hardhat/contracts/ClosedSurvey.sol\":7193:7222  cUSD.balanceOf(address(this)) */\n      0x04\n      dup3\n      add\n        /* \"#utility.yul\":364:415   */\n      mstore\n        /* \"smart-contract/hardhat/contracts/ClosedSurvey.sol\":7193:7197  cUSD */\n      immutable(\"0x4ce4dab4689da140a0c12de1a6af6b8f679594aeb723205f513e052d27f5b26f\")\n      sub(shl(0xa0, 0x01), 0x01)\n        /* \"smart-contract/hardhat/contracts/ClosedSurvey.sol\":7193:7207  cUSD.balanceOf */\n      and\n      swap1\n      0x70a08231\n      swap1\n        /* \"#utility.yul\":337:355   */\n      0x24\n      add\n        /* \"smart-contract/hardhat/contracts/ClosedSurvey.sol\":7193:7222  cUSD.balanceOf(address(this)) */\n      0x20\n      mload(0x40)\n      dup1\n      dup4\n      sub\n      dup2\n      dup7\n      gas\n      staticcall\n      iszero\n      dup1\n      iszero\n      tag_226\n      jumpi\n      returndatasize\n      0x00\n      dup1\n      returndatacopy\n      revert(0x00, returndatasize)\n    tag_226:\n      pop\n      pop\n      pop\n      pop\n      mload(0x40)\n      returndatasize\n      not(0x1f)\n      0x1f\n      dup3\n      add\n      and\n      dup3\n      add\n      dup1\n      0x40\n      mstore\n      pop\n      dup2\n      add\n      swap1\n      tag_227\n      swap2\n      swap1\n      tag_228\n      jump\t// in\n    tag_227:\n        /* \"smart-contract/hardhat/contracts/ClosedSurvey.sol\":7193:7256  cUSD.balanceOf(address(this)) < rewardAmountPerParticipantInWei */\n      lt\n        /* \"smart-contract/hardhat/contracts/ClosedSurvey.sol\":7189:7319  if (cUSD.balanceOf(address(this)) < rewardAmountPerParticipantInWei) {... */\n      iszero\n      tag_229\n      jumpi\n        /* \"smart-contract/hardhat/contracts/ClosedSurvey.sol\":7279:7308  InsufficientContractBalance() */\n      mload(0x40)\n      shl(0xe0, 0x786e0a99)\n      dup2\n      mstore\n      0x04\n      add\n      mload(0x40)\n      dup1\n      swap2\n      sub\n      swap1\n      revert\n        /* \"smart-contract/hardhat/contracts/ClosedSurvey.sol\":7189:7319  if (cUSD.balanceOf(address(this)) < rewardAmountPerParticipantInWei) {... */\n    tag_229:\n        /* \"smart-contract/hardhat/contracts/ClosedSurvey.sol\":7364:7390  targetNumberOfParticipants */\n      sload(0x06)\n        /* \"smart-contract/hardhat/contracts/ClosedSurvey.sol\":7332:7360  numberOfRewardedParticipants */\n      sload(0x07)\n        /* \"smart-contract/hardhat/contracts/ClosedSurvey.sol\":7332:7390  numberOfRewardedParticipants == targetNumberOfParticipants */\n      sub\n        /* \"smart-contract/hardhat/contracts/ClosedSurvey.sol\":7328:7449  if (numberOfRewardedParticipants == targetNumberOfParticipants) {... */\n      tag_230\n      jumpi\n        /* \"smart-contract/hardhat/contracts/ClosedSurvey.sol\":7413:7438  AllParticipantsRewarded() */\n      mload(0x40)\n      shl(0xea, 0x27007f)\n      dup2\n      mstore\n      0x04\n      add\n      mload(0x40)\n      dup1\n      swap2\n      sub\n      swap1\n      revert\n        /* \"smart-contract/hardhat/contracts/ClosedSurvey.sol\":7328:7449  if (numberOfRewardedParticipants == targetNumberOfParticipants) {... */\n    tag_230:\n        /* \"smart-contract/hardhat/contracts/ClosedSurvey.sol\":7458:7509  markParticipantAsHavingClaimedReward(walletAddress) */\n      tag_231\n        /* \"smart-contract/hardhat/contracts/ClosedSurvey.sol\":7495:7508  walletAddress */\n      dup5\n        /* \"smart-contract/hardhat/contracts/ClosedSurvey.sol\":7458:7494  markParticipantAsHavingClaimedReward */\n      tag_232\n        /* \"smart-contract/hardhat/contracts/ClosedSurvey.sol\":7458:7509  markParticipantAsHavingClaimedReward(walletAddress) */\n      jump\t// in\n    tag_231:\n        /* \"smart-contract/hardhat/contracts/ClosedSurvey.sol\":7519:7551  rewardParticipant(walletAddress) */\n      tag_233\n        /* \"smart-contract/hardhat/contracts/ClosedSurvey.sol\":7537:7550  walletAddress */\n      dup5\n        /* \"smart-contract/hardhat/contracts/ClosedSurvey.sol\":7519:7536  rewardParticipant */\n      tag_234\n        /* \"smart-contract/hardhat/contracts/ClosedSurvey.sol\":7519:7551  rewardParticipant(walletAddress) */\n      jump\t// in\n    tag_233:\n        /* \"smart-contract/hardhat/contracts/ClosedSurvey.sol\":2461:2462  _ */\n      pop\n        /* \"smart-contract/hardhat/contracts/ClosedSurvey.sol\":3292:3293  _ */\n      pop\n        /* \"@openzeppelin/contracts/utils/ReentrancyGuard.sol\":2531:2532  _ */\n      pop\n        /* \"@openzeppelin/contracts/utils/ReentrancyGuard.sol\":2542:2562  _nonReentrantAfter() */\n      tag_235\n        /* \"@openzeppelin/contracts/utils/ReentrancyGuard.sol\":1857:1858  1 */\n      0x01\n        /* \"@openzeppelin/contracts/utils/ReentrancyGuard.sol\":3068:3089  _status = NOT_ENTERED */\n      dup1\n      sstore\n        /* \"@openzeppelin/contracts/utils/ReentrancyGuard.sol\":2888:3096  function _nonReentrantAfter() private {... */\n      jump\n        /* \"@openzeppelin/contracts/utils/ReentrancyGuard.sol\":2542:2562  _nonReentrantAfter() */\n    tag_235:\n        /* \"smart-contract/hardhat/contracts/ClosedSurvey.sol\":6903:7558  function processRewardClaimByParticipant(... */\n      pop\n      jump\t// out\n        /* \"smart-contract/hardhat/contracts/ClosedSurvey.sol\":10177:11151  function getWhitelistedAddressesFromRegisteredAddresses(... */\n    tag_96:\n        /* \"smart-contract/hardhat/contracts/ClosedSurvey.sol\":10310:10326  address[] memory */\n      0x60\n        /* \"smart-contract/hardhat/contracts/ClosedSurvey.sol\":10355:10374  registeredAddresses */\n      dup2\n        /* \"smart-contract/hardhat/contracts/ClosedSurvey.sol\":10338:10352  uint256 length */\n      0x00\n        /* \"smart-contract/hardhat/contracts/ClosedSurvey.sol\":10395:10406  length == 0 */\n      dup2\n      swap1\n      sub\n        /* \"smart-contract/hardhat/contracts/ClosedSurvey.sol\":10391:10460  if (length == 0) {... */\n      tag_238\n      jumpi\n        /* \"smart-contract/hardhat/contracts/ClosedSurvey.sol\":10429:10449  InvalidArrayLength() */\n      mload(0x40)\n      shl(0xe1, 0x4ec48105)\n      dup2\n      mstore\n      0x04\n      add\n      mload(0x40)\n      dup1\n      swap2\n      sub\n      swap1\n      revert\n        /* \"smart-contract/hardhat/contracts/ClosedSurvey.sol\":10391:10460  if (length == 0) {... */\n    tag_238:\n        /* \"smart-contract/hardhat/contracts/ClosedSurvey.sol\":10470:10494  uint256 whitelistedCount */\n      0x00\n        /* \"smart-contract/hardhat/contracts/ClosedSurvey.sol\":10513:10522  uint256 i */\n      dup1\n        /* \"smart-contract/hardhat/contracts/ClosedSurvey.sol\":10508:10731  for (uint256 i = 0; i < length; ) {... */\n    tag_239:\n        /* \"smart-contract/hardhat/contracts/ClosedSurvey.sol\":10532:10538  length */\n      dup3\n        /* \"smart-contract/hardhat/contracts/ClosedSurvey.sol\":10528:10529  i */\n      dup2\n        /* \"smart-contract/hardhat/contracts/ClosedSurvey.sol\":10528:10538  i < length */\n      lt\n        /* \"smart-contract/hardhat/contracts/ClosedSurvey.sol\":10508:10731  for (uint256 i = 0; i < length; ) {... */\n      iszero\n      tag_240\n      jumpi\n        /* \"smart-contract/hardhat/contracts/ClosedSurvey.sol\":10560:10585  usersWhitelistedForSurvey */\n      0x03\n        /* \"smart-contract/hardhat/contracts/ClosedSurvey.sol\":10560:10609  usersWhitelistedForSurvey[registeredAddresses[i]] */\n      0x00\n        /* \"smart-contract/hardhat/contracts/ClosedSurvey.sol\":10586:10605  registeredAddresses */\n      dup8\n      dup8\n        /* \"smart-contract/hardhat/contracts/ClosedSurvey.sol\":10606:10607  i */\n      dup5\n        /* \"smart-contract/hardhat/contracts/ClosedSurvey.sol\":10586:10608  registeredAddresses[i] */\n      dup2\n      dup2\n      lt\n      tag_243\n      jumpi\n      tag_243\n      tag_163\n      jump\t// in\n    tag_243:\n      swap1\n      pop\n      0x20\n      mul\n      add\n      0x20\n      dup2\n      add\n      swap1\n      tag_244\n      swap2\n      swap1\n      tag_62\n      jump\t// in\n    tag_244:\n      sub(shl(0xa0, 0x01), 0x01)\n        /* \"smart-contract/hardhat/contracts/ClosedSurvey.sol\":10560:10609  usersWhitelistedForSurvey[registeredAddresses[i]] */\n      and\n      dup2\n      mstore\n      0x20\n      dup2\n      add\n      swap2\n      swap1\n      swap2\n      mstore\n      0x40\n      add\n      0x00\n      keccak256\n      sload\n      0xff\n      and\n        /* \"smart-contract/hardhat/contracts/ClosedSurvey.sol\":10556:10662  if (usersWhitelistedForSurvey[registeredAddresses[i]]) {... */\n      iszero\n      tag_245\n      jumpi\n        /* \"smart-contract/hardhat/contracts/ClosedSurvey.sol\":10629:10647  whitelistedCount++ */\n      dup2\n      tag_246\n      dup2\n      tag_247\n      jump\t// in\n    tag_246:\n      swap3\n      pop\n      pop\n        /* \"smart-contract/hardhat/contracts/ClosedSurvey.sol\":10556:10662  if (usersWhitelistedForSurvey[registeredAddresses[i]]) {... */\n    tag_245:\n        /* \"smart-contract/hardhat/contracts/ClosedSurvey.sol\":10703:10706  ++i */\n      0x01\n      add\n        /* \"smart-contract/hardhat/contracts/ClosedSurvey.sol\":10508:10731  for (uint256 i = 0; i < length; ) {... */\n      jump(tag_239)\n    tag_240:\n      pop\n        /* \"smart-contract/hardhat/contracts/ClosedSurvey.sol\":10741:10778  address[] memory whitelistedAddresses */\n      0x00\n        /* \"smart-contract/hardhat/contracts/ClosedSurvey.sol\":10795:10811  whitelistedCount */\n      dup2\n        /* \"smart-contract/hardhat/contracts/ClosedSurvey.sol\":10781:10812  new address[](whitelistedCount) */\n      0xffffffffffffffff\n      dup2\n      gt\n      iszero\n      tag_249\n      jumpi\n      tag_249\n      tag_250\n      jump\t// in\n    tag_249:\n      mload(0x40)\n      swap1\n      dup1\n      dup3\n      mstore\n      dup1\n      0x20\n      mul\n      0x20\n      add\n      dup3\n      add\n      0x40\n      mstore\n      dup1\n      iszero\n      tag_251\n      jumpi\n      dup2\n      0x20\n      add\n      0x20\n      dup3\n      mul\n      dup1\n      calldatasize\n      dup4\n      calldatacopy\n      add\n      swap1\n      pop\n    tag_251:\n      pop\n        /* \"smart-contract/hardhat/contracts/ClosedSurvey.sol\":10741:10812  address[] memory whitelistedAddresses = new address[](whitelistedCount) */\n      swap1\n      pop\n        /* \"smart-contract/hardhat/contracts/ClosedSurvey.sol\":10822:10835  uint256 index */\n      0x00\n        /* \"smart-contract/hardhat/contracts/ClosedSurvey.sol\":10854:10863  uint256 i */\n      dup1\n        /* \"smart-contract/hardhat/contracts/ClosedSurvey.sol\":10849:11108  for (uint256 i = 0; i < length; ) {... */\n    tag_252:\n        /* \"smart-contract/hardhat/contracts/ClosedSurvey.sol\":10873:10879  length */\n      dup5\n        /* \"smart-contract/hardhat/contracts/ClosedSurvey.sol\":10869:10870  i */\n      dup2\n        /* \"smart-contract/hardhat/contracts/ClosedSurvey.sol\":10869:10879  i < length */\n      lt\n        /* \"smart-contract/hardhat/contracts/ClosedSurvey.sol\":10849:11108  for (uint256 i = 0; i < length; ) {... */\n      iszero\n      tag_253\n      jumpi\n        /* \"smart-contract/hardhat/contracts/ClosedSurvey.sol\":10901:10926  usersWhitelistedForSurvey */\n      0x03\n        /* \"smart-contract/hardhat/contracts/ClosedSurvey.sol\":10901:10950  usersWhitelistedForSurvey[registeredAddresses[i]] */\n      0x00\n        /* \"smart-contract/hardhat/contracts/ClosedSurvey.sol\":10927:10946  registeredAddresses */\n      dup10\n      dup10\n        /* \"smart-contract/hardhat/contracts/ClosedSurvey.sol\":10947:10948  i */\n      dup5\n        /* \"smart-contract/hardhat/contracts/ClosedSurvey.sol\":10927:10949  registeredAddresses[i] */\n      dup2\n      dup2\n      lt\n      tag_256\n      jumpi\n      tag_256\n      tag_163\n      jump\t// in\n    tag_256:\n      swap1\n      pop\n      0x20\n      mul\n      add\n      0x20\n      dup2\n      add\n      swap1\n      tag_257\n      swap2\n      swap1\n      tag_62\n      jump\t// in\n    tag_257:\n      sub(shl(0xa0, 0x01), 0x01)\n        /* \"smart-contract/hardhat/contracts/ClosedSurvey.sol\":10901:10950  usersWhitelistedForSurvey[registeredAddresses[i]] */\n      and\n      dup2\n      mstore\n      0x20\n      dup2\n      add\n      swap2\n      swap1\n      swap2\n      mstore\n      0x40\n      add\n      0x00\n      keccak256\n      sload\n      0xff\n      and\n        /* \"smart-contract/hardhat/contracts/ClosedSurvey.sol\":10897:11039  if (usersWhitelistedForSurvey[registeredAddresses[i]]) {... */\n      iszero\n      tag_258\n      jumpi\n        /* \"smart-contract/hardhat/contracts/ClosedSurvey.sol\":11002:11021  registeredAddresses */\n      dup8\n      dup8\n        /* \"smart-contract/hardhat/contracts/ClosedSurvey.sol\":11022:11023  i */\n      dup3\n        /* \"smart-contract/hardhat/contracts/ClosedSurvey.sol\":11002:11024  registeredAddresses[i] */\n      dup2\n      dup2\n      lt\n      tag_260\n      jumpi\n      tag_260\n      tag_163\n      jump\t// in\n    tag_260:\n      swap1\n      pop\n      0x20\n      mul\n      add\n      0x20\n      dup2\n      add\n      swap1\n      tag_261\n      swap2\n      swap1\n      tag_62\n      jump\t// in\n    tag_261:\n        /* \"smart-contract/hardhat/contracts/ClosedSurvey.sol\":10970:10990  whitelistedAddresses */\n      dup4\n        /* \"smart-contract/hardhat/contracts/ClosedSurvey.sol\":10991:10998  index++ */\n      dup4\n      tag_262\n      dup2\n      tag_247\n      jump\t// in\n    tag_262:\n      swap5\n      pop\n        /* \"smart-contract/hardhat/contracts/ClosedSurvey.sol\":10970:10999  whitelistedAddresses[index++] */\n      dup2\n      mload\n      dup2\n      lt\n      tag_264\n      jumpi\n      tag_264\n      tag_163\n      jump\t// in\n    tag_264:\n      0x20\n      mul\n      0x20\n      add\n      add\n        /* \"smart-contract/hardhat/contracts/ClosedSurvey.sol\":10970:11024  whitelistedAddresses[index++] = registeredAddresses[i] */\n      swap1\n      sub(shl(0xa0, 0x01), 0x01)\n      and\n      swap1\n      dup2\n      sub(shl(0xa0, 0x01), 0x01)\n      and\n      dup2\n      mstore\n      pop\n      pop\n        /* \"smart-contract/hardhat/contracts/ClosedSurvey.sol\":10897:11039  if (usersWhitelistedForSurvey[registeredAddresses[i]]) {... */\n    tag_258:\n        /* \"smart-contract/hardhat/contracts/ClosedSurvey.sol\":11080:11083  ++i */\n      0x01\n      add\n        /* \"smart-contract/hardhat/contracts/ClosedSurvey.sol\":10849:11108  for (uint256 i = 0; i < length; ) {... */\n      jump(tag_252)\n    tag_253:\n      pop\n        /* \"smart-contract/hardhat/contracts/ClosedSurvey.sol\":11124:11144  whitelistedAddresses */\n      swap1\n      swap7\n        /* \"smart-contract/hardhat/contracts/ClosedSurvey.sol\":10177:11151  function getWhitelistedAddressesFromRegisteredAddresses(... */\n      swap6\n      pop\n      pop\n      pop\n      pop\n      pop\n      pop\n      jump\t// out\n        /* \"smart-contract/hardhat/contracts/ClosedSurvey.sol\":4127:4533  function whitelistOneUserAddress(... */\n    tag_104:\n        /* \"@openzeppelin/contracts/access/Ownable.sol\":1531:1544  _checkOwner() */\n      tag_266\n        /* \"@openzeppelin/contracts/access/Ownable.sol\":1531:1542  _checkOwner */\n      tag_127\n        /* \"@openzeppelin/contracts/access/Ownable.sol\":1531:1544  _checkOwner() */\n      jump\t// in\n    tag_266:\n      sub(shl(0xa0, 0x01), 0x01)\n        /* \"smart-contract/hardhat/contracts/ClosedSurvey.sol\":2729:2769  usersWhitelistedForSurvey[walletAddress] */\n      dup2\n      and\n      0x00\n      swap1\n      dup2\n      mstore\n        /* \"smart-contract/hardhat/contracts/ClosedSurvey.sol\":2729:2754  usersWhitelistedForSurvey */\n      0x03\n        /* \"smart-contract/hardhat/contracts/ClosedSurvey.sol\":2729:2769  usersWhitelistedForSurvey[walletAddress] */\n      0x20\n      mstore\n      0x40\n      swap1\n      keccak256\n      sload\n        /* \"smart-contract/hardhat/contracts/ClosedSurvey.sol\":4234:4247  walletAddress */\n      dup2\n      swap1\n        /* \"smart-contract/hardhat/contracts/ClosedSurvey.sol\":2729:2769  usersWhitelistedForSurvey[walletAddress] */\n      0xff\n      and\n        /* \"smart-contract/hardhat/contracts/ClosedSurvey.sol\":2725:2847  if (usersWhitelistedForSurvey[walletAddress]) {... */\n      iszero\n      tag_268\n      jumpi\n        /* \"smart-contract/hardhat/contracts/ClosedSurvey.sol\":2792:2836  UserAddressAlreadyWhitelisted(walletAddress) */\n      mload(0x40)\n      shl(0xe1, 0x3746725b)\n      dup2\n      mstore\n      sub(shl(0xa0, 0x01), 0x01)\n        /* \"#utility.yul\":382:414   */\n      dup3\n      and\n        /* \"smart-contract/hardhat/contracts/ClosedSurvey.sol\":2792:2836  UserAddressAlreadyWhitelisted(walletAddress) */\n      0x04\n      dup3\n      add\n        /* \"#utility.yul\":364:415   */\n      mstore\n        /* \"#utility.yul\":337:355   */\n      0x24\n      add\n        /* \"smart-contract/hardhat/contracts/ClosedSurvey.sol\":2792:2836  UserAddressAlreadyWhitelisted(walletAddress) */\n      tag_173\n        /* \"#utility.yul\":196:421   */\n      jump\n        /* \"smart-contract/hardhat/contracts/ClosedSurvey.sol\":2725:2847  if (usersWhitelistedForSurvey[walletAddress]) {... */\n    tag_268:\n      sub(shl(0xa0, 0x01), 0x01)\n        /* \"smart-contract/hardhat/contracts/ClosedSurvey.sol\":4263:4290  walletAddress == address(0) */\n      dup3\n      and\n        /* \"smart-contract/hardhat/contracts/ClosedSurvey.sol\":4259:4337  if (walletAddress == address(0)) {... */\n      tag_271\n      jumpi\n        /* \"smart-contract/hardhat/contracts/ClosedSurvey.sol\":4313:4326  ZeroAddress() */\n      mload(0x40)\n      shl(0xe0, 0xd92e233d)\n      dup2\n      mstore\n      0x04\n      add\n      mload(0x40)\n      dup1\n      swap2\n      sub\n      swap1\n      revert\n        /* \"smart-contract/hardhat/contracts/ClosedSurvey.sol\":4259:4337  if (walletAddress == address(0)) {... */\n    tag_271:\n      sub(shl(0xa0, 0x01), 0x01)\n        /* \"smart-contract/hardhat/contracts/ClosedSurvey.sol\":4346:4386  usersWhitelistedForSurvey[walletAddress] */\n      dup3\n      and\n      0x00\n      dup2\n      dup2\n      mstore\n        /* \"smart-contract/hardhat/contracts/ClosedSurvey.sol\":4346:4371  usersWhitelistedForSurvey */\n      0x03\n        /* \"smart-contract/hardhat/contracts/ClosedSurvey.sol\":4346:4386  usersWhitelistedForSurvey[walletAddress] */\n      0x20\n      swap1\n      dup2\n      mstore\n      0x40\n      swap2\n      dup3\n      swap1\n      keccak256\n        /* \"smart-contract/hardhat/contracts/ClosedSurvey.sol\":4346:4393  usersWhitelistedForSurvey[walletAddress] = true */\n      dup1\n      sload\n      not(0xff)\n      and\n        /* \"smart-contract/hardhat/contracts/ClosedSurvey.sol\":4389:4393  true */\n      0x01\n        /* \"smart-contract/hardhat/contracts/ClosedSurvey.sol\":4346:4393  usersWhitelistedForSurvey[walletAddress] = true */\n      swap1\n      dup2\n      or\n      swap1\n      swap2\n      sstore\n        /* \"smart-contract/hardhat/contracts/ClosedSurvey.sol\":4429:4461  numberOfWhitelistedUserAddresses */\n      0x08\n        /* \"smart-contract/hardhat/contracts/ClosedSurvey.sol\":4427:4461  ++numberOfWhitelistedUserAddresses */\n      dup1\n      sload\n      swap1\n      swap2\n      add\n      swap1\n      sstore\n        /* \"smart-contract/hardhat/contracts/ClosedSurvey.sol\":4486:4526  OneUserAddressWhitelisted(walletAddress) */\n      swap1\n      mload\n        /* \"#utility.yul\":364:415   */\n      swap2\n      dup3\n      mstore\n        /* \"smart-contract/hardhat/contracts/ClosedSurvey.sol\":4486:4526  OneUserAddressWhitelisted(walletAddress) */\n      0x1afde38c60d2be0d28d001619816d86c39ce78b350c9d94f23c095099b9c1d27\n      swap2\n        /* \"#utility.yul\":337:355   */\n      add\n        /* \"smart-contract/hardhat/contracts/ClosedSurvey.sol\":4486:4526  OneUserAddressWhitelisted(walletAddress) */\n    tag_272:\n      mload(0x40)\n      dup1\n      swap2\n      sub\n      swap1\n      log1\n        /* \"@openzeppelin/contracts/access/Ownable.sol\":1554:1555  _ */\n      pop\n        /* \"smart-contract/hardhat/contracts/ClosedSurvey.sol\":4127:4533  function whitelistOneUserAddress(... */\n      pop\n      jump\t// out\n        /* \"smart-contract/hardhat/contracts/ClosedSurvey.sol\":4539:4968  function blacklistOneWhitelistedUserAddress(... */\n    tag_110:\n        /* \"@openzeppelin/contracts/access/Ownable.sol\":1531:1544  _checkOwner() */\n      tag_274\n        /* \"@openzeppelin/contracts/access/Ownable.sol\":1531:1542  _checkOwner */\n      tag_127\n        /* \"@openzeppelin/contracts/access/Ownable.sol\":1531:1544  _checkOwner() */\n      jump\t// in\n    tag_274:\n      sub(shl(0xa0, 0x01), 0x01)\n        /* \"smart-contract/hardhat/contracts/ClosedSurvey.sol\":2556:2596  usersWhitelistedForSurvey[walletAddress] */\n      dup2\n      and\n      0x00\n      swap1\n      dup2\n      mstore\n        /* \"smart-contract/hardhat/contracts/ClosedSurvey.sol\":2556:2581  usersWhitelistedForSurvey */\n      0x03\n        /* \"smart-contract/hardhat/contracts/ClosedSurvey.sol\":2556:2596  usersWhitelistedForSurvey[walletAddress] */\n      0x20\n      mstore\n      0x40\n      swap1\n      keccak256\n      sload\n        /* \"smart-contract/hardhat/contracts/ClosedSurvey.sol\":4657:4670  walletAddress */\n      dup2\n      swap1\n        /* \"smart-contract/hardhat/contracts/ClosedSurvey.sol\":2556:2596  usersWhitelistedForSurvey[walletAddress] */\n      0xff\n      and\n        /* \"smart-contract/hardhat/contracts/ClosedSurvey.sol\":2555:2596  !usersWhitelistedForSurvey[walletAddress] */\n      iszero\n        /* \"smart-contract/hardhat/contracts/ClosedSurvey.sol\":2534:2641  require(... */\n      tag_276\n      jumpi\n      mload(0x40)\n      shl(0xe5, 0x461bcd)\n      dup2\n      mstore\n        /* \"#utility.yul\":4402:4404   */\n      0x20\n        /* \"smart-contract/hardhat/contracts/ClosedSurvey.sol\":2534:2641  require(... */\n      0x04\n      dup3\n      add\n        /* \"#utility.yul\":4384:4405   */\n      mstore\n        /* \"#utility.yul\":4441:4443   */\n      0x13\n        /* \"#utility.yul\":4421:4439   */\n      0x24\n      dup3\n      add\n        /* \"#utility.yul\":4414:4444   */\n      mstore\n      shl(0x6a, 0x135d5cdd081899481dda1a5d195b1a5cdd1959)\n        /* \"#utility.yul\":4460:4478   */\n      0x44\n      dup3\n      add\n        /* \"#utility.yul\":4453:4502   */\n      mstore\n        /* \"#utility.yul\":4519:4537   */\n      0x64\n      add\n        /* \"smart-contract/hardhat/contracts/ClosedSurvey.sol\":2534:2641  require(... */\n      tag_173\n        /* \"#utility.yul\":4200:4543   */\n      jump\n        /* \"smart-contract/hardhat/contracts/ClosedSurvey.sol\":2534:2641  require(... */\n    tag_276:\n      sub(shl(0xa0, 0x01), 0x01)\n        /* \"smart-contract/hardhat/contracts/ClosedSurvey.sol\":4686:4713  walletAddress == address(0) */\n      dup3\n      and\n        /* \"smart-contract/hardhat/contracts/ClosedSurvey.sol\":4682:4760  if (walletAddress == address(0)) {... */\n      tag_280\n      jumpi\n        /* \"smart-contract/hardhat/contracts/ClosedSurvey.sol\":4736:4749  ZeroAddress() */\n      mload(0x40)\n      shl(0xe0, 0xd92e233d)\n      dup2\n      mstore\n      0x04\n      add\n      mload(0x40)\n      dup1\n      swap2\n      sub\n      swap1\n      revert\n        /* \"smart-contract/hardhat/contracts/ClosedSurvey.sol\":4682:4760  if (walletAddress == address(0)) {... */\n    tag_280:\n      sub(shl(0xa0, 0x01), 0x01)\n        /* \"smart-contract/hardhat/contracts/ClosedSurvey.sol\":4769:4809  usersWhitelistedForSurvey[walletAddress] */\n      dup3\n      and\n        /* \"smart-contract/hardhat/contracts/ClosedSurvey.sol\":4812:4817  false */\n      0x00\n        /* \"smart-contract/hardhat/contracts/ClosedSurvey.sol\":4769:4809  usersWhitelistedForSurvey[walletAddress] */\n      dup2\n      dup2\n      mstore\n        /* \"smart-contract/hardhat/contracts/ClosedSurvey.sol\":4769:4794  usersWhitelistedForSurvey */\n      0x03\n        /* \"smart-contract/hardhat/contracts/ClosedSurvey.sol\":4769:4809  usersWhitelistedForSurvey[walletAddress] */\n      0x20\n      swap1\n      dup2\n      mstore\n      0x40\n      swap2\n      dup3\n      swap1\n      keccak256\n        /* \"smart-contract/hardhat/contracts/ClosedSurvey.sol\":4769:4817  usersWhitelistedForSurvey[walletAddress] = false */\n      dup1\n      sload\n      not(0xff)\n      and\n      swap1\n      sstore\n        /* \"smart-contract/hardhat/contracts/ClosedSurvey.sol\":4853:4885  numberOfWhitelistedUserAddresses */\n      0x08\n        /* \"smart-contract/hardhat/contracts/ClosedSurvey.sol\":4851:4885  --numberOfWhitelistedUserAddresses */\n      dup1\n      sload\n      not(0x00)\n      add\n      swap1\n      sstore\n        /* \"smart-contract/hardhat/contracts/ClosedSurvey.sol\":4910:4961  OneWhitelistedUserAddressBlacklisted(walletAddress) */\n      swap1\n      mload\n        /* \"#utility.yul\":364:415   */\n      swap2\n      dup3\n      mstore\n        /* \"smart-contract/hardhat/contracts/ClosedSurvey.sol\":4910:4961  OneWhitelistedUserAddressBlacklisted(walletAddress) */\n      0xa354190dd7342316e40e5358c9f72037f2c677cdc057d3debbc4f1b62495e2e2\n      swap2\n        /* \"#utility.yul\":337:355   */\n      add\n        /* \"smart-contract/hardhat/contracts/ClosedSurvey.sol\":4910:4961  OneWhitelistedUserAddressBlacklisted(walletAddress) */\n      tag_272\n        /* \"#utility.yul\":196:421   */\n      jump\n        /* \"smart-contract/hardhat/contracts/ClosedSurvey.sol\":10027:10094  function pauseSurvey() external onlyOwner {... */\n    tag_115:\n        /* \"@openzeppelin/contracts/access/Ownable.sol\":1531:1544  _checkOwner() */\n      tag_284\n        /* \"@openzeppelin/contracts/access/Ownable.sol\":1531:1542  _checkOwner */\n      tag_127\n        /* \"@openzeppelin/contracts/access/Ownable.sol\":1531:1544  _checkOwner() */\n      jump\t// in\n    tag_284:\n        /* \"smart-contract/hardhat/contracts/ClosedSurvey.sol\":10079:10087  _pause() */\n      tag_129\n        /* \"smart-contract/hardhat/contracts/ClosedSurvey.sol\":10079:10085  _pause */\n      tag_287\n        /* \"smart-contract/hardhat/contracts/ClosedSurvey.sol\":10079:10087  _pause() */\n      jump\t// in\n        /* \"smart-contract/hardhat/contracts/ClosedSurvey.sol\":8314:8762  function withdrawAllRewardFundsToResearcher()... */\n    tag_117:\n        /* \"@openzeppelin/contracts/access/Ownable.sol\":1531:1544  _checkOwner() */\n      tag_289\n        /* \"@openzeppelin/contracts/access/Ownable.sol\":1531:1542  _checkOwner */\n      tag_127\n        /* \"@openzeppelin/contracts/access/Ownable.sol\":1531:1544  _checkOwner() */\n      jump\t// in\n    tag_289:\n        /* \"@openzeppelin/contracts/utils/Pausable.sol\":1474:1493  _requireNotPaused() */\n      tag_291\n        /* \"@openzeppelin/contracts/utils/Pausable.sol\":1474:1491  _requireNotPaused */\n      tag_210\n        /* \"@openzeppelin/contracts/utils/Pausable.sol\":1474:1493  _requireNotPaused() */\n      jump\t// in\n    tag_291:\n        /* \"@openzeppelin/contracts/utils/ReentrancyGuard.sol\":2500:2521  _nonReentrantBefore() */\n      tag_293\n        /* \"@openzeppelin/contracts/utils/ReentrancyGuard.sol\":2500:2519  _nonReentrantBefore */\n      tag_213\n        /* \"@openzeppelin/contracts/utils/ReentrancyGuard.sol\":2500:2521  _nonReentrantBefore() */\n      jump\t// in\n    tag_293:\n        /* \"smart-contract/hardhat/contracts/ClosedSurvey.sol\":8470:8499  cUSD.balanceOf(address(this)) */\n      mload(0x40)\n      shl(0xe0, 0x70a08231)\n      dup2\n      mstore\n        /* \"smart-contract/hardhat/contracts/ClosedSurvey.sol\":8493:8497  this */\n      address\n        /* \"smart-contract/hardhat/contracts/ClosedSurvey.sol\":8470:8499  cUSD.balanceOf(address(this)) */\n      0x04\n      dup3\n      add\n        /* \"#utility.yul\":364:415   */\n      mstore\n        /* \"smart-contract/hardhat/contracts/ClosedSurvey.sol\":8452:8467  uint256 balance */\n      0x00\n      swap1\n        /* \"smart-contract/hardhat/contracts/ClosedSurvey.sol\":8470:8474  cUSD */\n      immutable(\"0x4ce4dab4689da140a0c12de1a6af6b8f679594aeb723205f513e052d27f5b26f\")\n      sub(shl(0xa0, 0x01), 0x01)\n        /* \"smart-contract/hardhat/contracts/ClosedSurvey.sol\":8470:8484  cUSD.balanceOf */\n      and\n      swap1\n      0x70a08231\n      swap1\n        /* \"#utility.yul\":337:355   */\n      0x24\n      add\n        /* \"smart-contract/hardhat/contracts/ClosedSurvey.sol\":8470:8499  cUSD.balanceOf(address(this)) */\n      0x20\n      mload(0x40)\n      dup1\n      dup4\n      sub\n      dup2\n      dup7\n      gas\n      staticcall\n      iszero\n      dup1\n      iszero\n      tag_297\n      jumpi\n      returndatasize\n      0x00\n      dup1\n      returndatacopy\n      revert(0x00, returndatasize)\n    tag_297:\n      pop\n      pop\n      pop\n      pop\n      mload(0x40)\n      returndatasize\n      not(0x1f)\n      0x1f\n      dup3\n      add\n      and\n      dup3\n      add\n      dup1\n      0x40\n      mstore\n      pop\n      dup2\n      add\n      swap1\n      tag_298\n      swap2\n      swap1\n      tag_228\n      jump\t// in\n    tag_298:\n        /* \"smart-contract/hardhat/contracts/ClosedSurvey.sol\":8452:8499  uint256 balance = cUSD.balanceOf(address(this)) */\n      swap1\n      pop\n        /* \"smart-contract/hardhat/contracts/ClosedSurvey.sol\":8513:8520  balance */\n      dup1\n        /* \"smart-contract/hardhat/contracts/ClosedSurvey.sol\":8524:8525  0 */\n      0x00\n        /* \"smart-contract/hardhat/contracts/ClosedSurvey.sol\":8513:8525  balance == 0 */\n      sub\n        /* \"smart-contract/hardhat/contracts/ClosedSurvey.sol\":8509:8574  if (balance == 0) {... */\n      tag_299\n      jumpi\n        /* \"smart-contract/hardhat/contracts/ClosedSurvey.sol\":8548:8563  NoRewardFunds() */\n      mload(0x40)\n      shl(0xe2, 0x16e3ff05)\n      dup2\n      mstore\n      0x04\n      add\n      mload(0x40)\n      dup1\n      swap2\n      sub\n      swap1\n      revert\n        /* \"smart-contract/hardhat/contracts/ClosedSurvey.sol\":8509:8574  if (balance == 0) {... */\n    tag_299:\n        /* \"smart-contract/hardhat/contracts/ClosedSurvey.sol\":8583:8595  bool success */\n      0x00\n        /* \"smart-contract/hardhat/contracts/ClosedSurvey.sol\":8598:8602  cUSD */\n      immutable(\"0x4ce4dab4689da140a0c12de1a6af6b8f679594aeb723205f513e052d27f5b26f\")\n      sub(shl(0xa0, 0x01), 0x01)\n        /* \"smart-contract/hardhat/contracts/ClosedSurvey.sol\":8598:8611  cUSD.transfer */\n      and\n      0xa9059cbb\n        /* \"smart-contract/hardhat/contracts/ClosedSurvey.sol\":8612:8619  owner() */\n      tag_300\n        /* \"@openzeppelin/contracts/access/Ownable.sol\":1684:1691  address */\n      0x00\n        /* \"@openzeppelin/contracts/access/Ownable.sol\":1710:1716  _owner */\n      sload\n      sub(shl(0xa0, 0x01), 0x01)\n      and\n      swap1\n        /* \"@openzeppelin/contracts/access/Ownable.sol\":1638:1723  function owner() public view virtual returns (address) {... */\n      jump\n        /* \"smart-contract/hardhat/contracts/ClosedSurvey.sol\":8612:8619  owner() */\n    tag_300:\n        /* \"smart-contract/hardhat/contracts/ClosedSurvey.sol\":8598:8629  cUSD.transfer(owner(), balance) */\n      mload(0x40)\n      not(sub(shl(0xe0, 0x01), 0x01))\n      0xe0\n      dup5\n      swap1\n      shl\n      and\n      dup2\n      mstore\n      sub(shl(0xa0, 0x01), 0x01)\n        /* \"#utility.yul\":4740:4772   */\n      swap1\n      swap2\n      and\n        /* \"smart-contract/hardhat/contracts/ClosedSurvey.sol\":8598:8629  cUSD.transfer(owner(), balance) */\n      0x04\n      dup3\n      add\n        /* \"#utility.yul\":4722:4773   */\n      mstore\n        /* \"#utility.yul\":4789:4807   */\n      0x24\n      dup2\n      add\n        /* \"#utility.yul\":4782:4816   */\n      dup6\n      swap1\n      mstore\n        /* \"#utility.yul\":4695:4713   */\n      0x44\n      add\n        /* \"smart-contract/hardhat/contracts/ClosedSurvey.sol\":8598:8629  cUSD.transfer(owner(), balance) */\n      0x20\n      mload(0x40)\n      dup1\n      dup4\n      sub\n      dup2\n      0x00\n      dup8\n      gas\n      call\n      iszero\n      dup1\n      iszero\n      tag_304\n      jumpi\n      returndatasize\n      0x00\n      dup1\n      returndatacopy\n      revert(0x00, returndatasize)\n    tag_304:\n      pop\n      pop\n      pop\n      pop\n      mload(0x40)\n      returndatasize\n      not(0x1f)\n      0x1f\n      dup3\n      add\n      and\n      dup3\n      add\n      dup1\n      0x40\n      mstore\n      pop\n      dup2\n      add\n      swap1\n      tag_305\n      swap2\n      swap1\n      tag_306\n      jump\t// in\n    tag_305:\n        /* \"smart-contract/hardhat/contracts/ClosedSurvey.sol\":8583:8629  bool success = cUSD.transfer(owner(), balance) */\n      swap1\n      pop\n        /* \"smart-contract/hardhat/contracts/ClosedSurvey.sol\":8644:8651  success */\n      dup1\n        /* \"smart-contract/hardhat/contracts/ClosedSurvey.sol\":8639:8703  if (!success) {... */\n      tag_307\n      jumpi\n        /* \"smart-contract/hardhat/contracts/ClosedSurvey.sol\":8674:8692  WithdrawalFailed() */\n      mload(0x40)\n      shl(0xe0, 0x27fcd9d1)\n      dup2\n      mstore\n      0x04\n      add\n      mload(0x40)\n      dup1\n      swap2\n      sub\n      swap1\n      revert\n        /* \"smart-contract/hardhat/contracts/ClosedSurvey.sol\":8639:8703  if (!success) {... */\n    tag_307:\n        /* \"smart-contract/hardhat/contracts/ClosedSurvey.sol\":8717:8755  RewardFundsWithdrawn(owner(), balance) */\n      0x2036b9b38b69a2fa490ee702733a29cd2550accc20bc96e786cb9beedc779097\n        /* \"smart-contract/hardhat/contracts/ClosedSurvey.sol\":8738:8745  owner() */\n      tag_308\n        /* \"@openzeppelin/contracts/access/Ownable.sol\":1684:1691  address */\n      0x00\n        /* \"@openzeppelin/contracts/access/Ownable.sol\":1710:1716  _owner */\n      sload\n      sub(shl(0xa0, 0x01), 0x01)\n      and\n      swap1\n        /* \"@openzeppelin/contracts/access/Ownable.sol\":1638:1723  function owner() public view virtual returns (address) {... */\n      jump\n        /* \"smart-contract/hardhat/contracts/ClosedSurvey.sol\":8738:8745  owner() */\n    tag_308:\n        /* \"smart-contract/hardhat/contracts/ClosedSurvey.sol\":8717:8755  RewardFundsWithdrawn(owner(), balance) */\n      0x40\n      dup1\n      mload\n      sub(shl(0xa0, 0x01), 0x01)\n        /* \"#utility.yul\":4740:4772   */\n      swap1\n      swap3\n      and\n        /* \"#utility.yul\":4722:4773   */\n      dup3\n      mstore\n        /* \"#utility.yul\":4804:4806   */\n      0x20\n        /* \"#utility.yul\":4789:4807   */\n      dup3\n      add\n        /* \"#utility.yul\":4782:4816   */\n      dup6\n      swap1\n      mstore\n        /* \"#utility.yul\":4695:4713   */\n      add\n        /* \"smart-contract/hardhat/contracts/ClosedSurvey.sol\":8717:8755  RewardFundsWithdrawn(owner(), balance) */\n      mload(0x40)\n      dup1\n      swap2\n      sub\n      swap1\n      log1\n        /* \"smart-contract/hardhat/contracts/ClosedSurvey.sol\":8442:8762  {... */\n      pop\n      pop\n        /* \"@openzeppelin/contracts/utils/ReentrancyGuard.sol\":2542:2562  _nonReentrantAfter() */\n      tag_129\n        /* \"@openzeppelin/contracts/utils/ReentrancyGuard.sol\":1857:1858  1 */\n      0x01\n        /* \"@openzeppelin/contracts/utils/ReentrancyGuard.sol\":3068:3089  _status = NOT_ENTERED */\n      dup1\n      sstore\n        /* \"@openzeppelin/contracts/utils/ReentrancyGuard.sol\":2888:3096  function _nonReentrantAfter() private {... */\n      jump\n        /* \"@openzeppelin/contracts/access/Ownable.sol\":2543:2758  function transferOwnership(address newOwner) public virtual onlyOwner {... */\n    tag_120:\n        /* \"@openzeppelin/contracts/access/Ownable.sol\":1531:1544  _checkOwner() */\n      tag_312\n        /* \"@openzeppelin/contracts/access/Ownable.sol\":1531:1542  _checkOwner */\n      tag_127\n        /* \"@openzeppelin/contracts/access/Ownable.sol\":1531:1544  _checkOwner() */\n      jump\t// in\n    tag_312:\n      sub(shl(0xa0, 0x01), 0x01)\n        /* \"@openzeppelin/contracts/access/Ownable.sol\":2627:2649  newOwner == address(0) */\n      dup2\n      and\n        /* \"@openzeppelin/contracts/access/Ownable.sol\":2623:2714  if (newOwner == address(0)) {... */\n      tag_314\n      jumpi\n        /* \"@openzeppelin/contracts/access/Ownable.sol\":2672:2703  OwnableInvalidOwner(address(0)) */\n      mload(0x40)\n      shl(0xe0, 0x1e4fbdf7)\n      dup2\n      mstore\n        /* \"@openzeppelin/contracts/access/Ownable.sol\":2700:2701  0 */\n      0x00\n        /* \"@openzeppelin/contracts/access/Ownable.sol\":2672:2703  OwnableInvalidOwner(address(0)) */\n      0x04\n      dup3\n      add\n        /* \"#utility.yul\":364:415   */\n      mstore\n        /* \"#utility.yul\":337:355   */\n      0x24\n      add\n        /* \"@openzeppelin/contracts/access/Ownable.sol\":2672:2703  OwnableInvalidOwner(address(0)) */\n      tag_173\n        /* \"#utility.yul\":196:421   */\n      jump\n        /* \"@openzeppelin/contracts/access/Ownable.sol\":2623:2714  if (newOwner == address(0)) {... */\n    tag_314:\n        /* \"@openzeppelin/contracts/access/Ownable.sol\":2723:2751  _transferOwnership(newOwner) */\n      tag_235\n        /* \"@openzeppelin/contracts/access/Ownable.sol\":2742:2750  newOwner */\n      dup2\n        /* \"@openzeppelin/contracts/access/Ownable.sol\":2723:2741  _transferOwnership */\n      tag_150\n        /* \"@openzeppelin/contracts/access/Ownable.sol\":2723:2751  _transferOwnership(newOwner) */\n      jump\t// in\n        /* \"@openzeppelin/contracts/access/Ownable.sol\":1796:1958  function _checkOwner() internal view virtual {... */\n    tag_127:\n        /* \"@openzeppelin/contracts/access/Ownable.sol\":1684:1691  address */\n      0x00\n        /* \"@openzeppelin/contracts/access/Ownable.sol\":1710:1716  _owner */\n      sload\n      sub(shl(0xa0, 0x01), 0x01)\n      and\n        /* \"@openzeppelin/contracts/utils/Context.sol\":735:745  msg.sender */\n      caller\n        /* \"@openzeppelin/contracts/access/Ownable.sol\":1855:1878  owner() != _msgSender() */\n      eq\n        /* \"@openzeppelin/contracts/access/Ownable.sol\":1851:1952  if (owner() != _msgSender()) {... */\n      tag_129\n      jumpi\n        /* \"@openzeppelin/contracts/access/Ownable.sol\":1901:1941  OwnableUnauthorizedAccount(_msgSender()) */\n      mload(0x40)\n      shl(0xe0, 0x118cdaa7)\n      dup2\n      mstore\n        /* \"@openzeppelin/contracts/utils/Context.sol\":735:745  msg.sender */\n      caller\n        /* \"@openzeppelin/contracts/access/Ownable.sol\":1901:1941  OwnableUnauthorizedAccount(_msgSender()) */\n      0x04\n      dup3\n      add\n        /* \"#utility.yul\":364:415   */\n      mstore\n        /* \"#utility.yul\":337:355   */\n      0x24\n      add\n        /* \"@openzeppelin/contracts/access/Ownable.sol\":1901:1941  OwnableUnauthorizedAccount(_msgSender()) */\n      tag_173\n        /* \"#utility.yul\":196:421   */\n      jump\n        /* \"@openzeppelin/contracts/utils/Pausable.sol\":2710:2827  function _unpause() internal virtual whenPaused {... */\n    tag_130:\n        /* \"@openzeppelin/contracts/utils/Pausable.sol\":1721:1737  _requirePaused() */\n      tag_326\n        /* \"@openzeppelin/contracts/utils/Pausable.sol\":1721:1735  _requirePaused */\n      tag_327\n        /* \"@openzeppelin/contracts/utils/Pausable.sol\":1721:1737  _requirePaused() */\n      jump\t// in\n    tag_326:\n        /* \"@openzeppelin/contracts/utils/Pausable.sol\":2768:2775  _paused */\n      0x02\n        /* \"@openzeppelin/contracts/utils/Pausable.sol\":2768:2783  _paused = false */\n      dup1\n      sload\n      not(0xff)\n      and\n      swap1\n      sstore\n        /* \"@openzeppelin/contracts/utils/Pausable.sol\":2798:2820  Unpaused(_msgSender()) */\n      0x5db9ee0a495bf2e6ff9c91a7834c1ba4fdd244a5e8aa4e537bd38aeae4b073aa\n        /* \"@openzeppelin/contracts/utils/Context.sol\":735:745  msg.sender */\n      caller\n        /* \"@openzeppelin/contracts/utils/Pausable.sol\":2807:2819  _msgSender() */\n    tag_329:\n        /* \"@openzeppelin/contracts/utils/Pausable.sol\":2798:2820  Unpaused(_msgSender()) */\n      mload(0x40)\n      sub(shl(0xa0, 0x01), 0x01)\n        /* \"#utility.yul\":382:414   */\n      swap1\n      swap2\n      and\n        /* \"#utility.yul\":364:415   */\n      dup2\n      mstore\n        /* \"#utility.yul\":352:354   */\n      0x20\n        /* \"#utility.yul\":337:355   */\n      add\n        /* \"@openzeppelin/contracts/utils/Pausable.sol\":2798:2820  Unpaused(_msgSender()) */\n      mload(0x40)\n      dup1\n      swap2\n      sub\n      swap1\n      log1\n        /* \"@openzeppelin/contracts/utils/Pausable.sol\":2710:2827  function _unpause() internal virtual whenPaused {... */\n      jump\t// out\n        /* \"@openzeppelin/contracts/access/Ownable.sol\":2912:3099  function _transferOwnership(address newOwner) internal virtual {... */\n    tag_150:\n        /* \"@openzeppelin/contracts/access/Ownable.sol\":2985:3001  address oldOwner */\n      0x00\n        /* \"@openzeppelin/contracts/access/Ownable.sol\":3004:3010  _owner */\n      dup1\n      sload\n      sub(shl(0xa0, 0x01), 0x01)\n        /* \"@openzeppelin/contracts/access/Ownable.sol\":3020:3037  _owner = newOwner */\n      dup4\n      dup2\n      and\n      not(sub(shl(0xa0, 0x01), 0x01))\n      dup4\n      and\n      dup2\n      or\n      dup5\n      sstore\n        /* \"@openzeppelin/contracts/access/Ownable.sol\":3052:3092  OwnershipTransferred(oldOwner, newOwner) */\n      mload(0x40)\n        /* \"@openzeppelin/contracts/access/Ownable.sol\":3004:3010  _owner */\n      swap2\n      swap1\n      swap3\n      and\n      swap3\n      dup4\n      swap2\n        /* \"@openzeppelin/contracts/access/Ownable.sol\":3052:3092  OwnershipTransferred(oldOwner, newOwner) */\n      0x8be0079c531659141344cd1fd0a4f28419497f9722a3daafe3b4186f6b6457e0\n      swap2\n        /* \"@openzeppelin/contracts/access/Ownable.sol\":2985:3001  address oldOwner */\n      swap1\n        /* \"@openzeppelin/contracts/access/Ownable.sol\":3052:3092  OwnershipTransferred(oldOwner, newOwner) */\n      log3\n        /* \"@openzeppelin/contracts/access/Ownable.sol\":2975:3099  {... */\n      pop\n        /* \"@openzeppelin/contracts/access/Ownable.sol\":2912:3099  function _transferOwnership(address newOwner) internal virtual {... */\n      pop\n      jump\t// out\n        /* \"@openzeppelin/contracts/utils/Pausable.sol\":2002:2130  function _requireNotPaused() internal view virtual {... */\n    tag_210:\n        /* \"@openzeppelin/contracts/utils/Pausable.sol\":1920:1927  _paused */\n      and(0xff, sload(0x02))\n        /* \"@openzeppelin/contracts/utils/Pausable.sol\":2063:2124  if (paused()) {... */\n      iszero\n      tag_129\n      jumpi\n        /* \"@openzeppelin/contracts/utils/Pausable.sol\":2098:2113  EnforcedPause() */\n      mload(0x40)\n      shl(0xe0, 0xd93c0665)\n      dup2\n      mstore\n      0x04\n      add\n      mload(0x40)\n      dup1\n      swap2\n      sub\n      swap1\n      revert\n        /* \"@openzeppelin/contracts/utils/ReentrancyGuard.sol\":2575:2882  function _nonReentrantBefore() private {... */\n    tag_213:\n        /* \"@openzeppelin/contracts/utils/ReentrancyGuard.sol\":1899:1900  2 */\n      0x02\n        /* \"@openzeppelin/contracts/utils/ReentrancyGuard.sol\":2702:2709  _status */\n      sload(0x01)\n        /* \"@openzeppelin/contracts/utils/ReentrancyGuard.sol\":2702:2720  _status == ENTERED */\n      sub\n        /* \"@openzeppelin/contracts/utils/ReentrancyGuard.sol\":2698:2784  if (_status == ENTERED) {... */\n      tag_336\n      jumpi\n        /* \"@openzeppelin/contracts/utils/ReentrancyGuard.sol\":2743:2773  ReentrancyGuardReentrantCall() */\n      mload(0x40)\n      shl(0xe0, 0x3ee5aeb5)\n      dup2\n      mstore\n      0x04\n      add\n      mload(0x40)\n      dup1\n      swap2\n      sub\n      swap1\n      revert\n        /* \"@openzeppelin/contracts/utils/ReentrancyGuard.sol\":2698:2784  if (_status == ENTERED) {... */\n    tag_336:\n        /* \"@openzeppelin/contracts/utils/ReentrancyGuard.sol\":1899:1900  2 */\n      0x02\n        /* \"@openzeppelin/contracts/utils/ReentrancyGuard.sol\":2858:2865  _status */\n      0x01\n        /* \"@openzeppelin/contracts/utils/ReentrancyGuard.sol\":2858:2875  _status = ENTERED */\n      sstore\n        /* \"@openzeppelin/contracts/utils/ReentrancyGuard.sol\":2575:2882  function _nonReentrantBefore() private {... */\n      jump\t// out\n        /* \"smart-contract/hardhat/contracts/ClosedSurvey.sol\":7564:7817  function markParticipantAsHavingClaimedReward(... */\n    tag_232:\n      sub(shl(0xa0, 0x01), 0x01)\n        /* \"smart-contract/hardhat/contracts/ClosedSurvey.sol\":7676:7735  participantsWhoHaveClaimedRewards[participantWalletAddress] */\n      dup2\n      and\n      0x00\n      dup2\n      dup2\n      mstore\n        /* \"smart-contract/hardhat/contracts/ClosedSurvey.sol\":7676:7709  participantsWhoHaveClaimedRewards */\n      0x04\n        /* \"smart-contract/hardhat/contracts/ClosedSurvey.sol\":7676:7735  participantsWhoHaveClaimedRewards[participantWalletAddress] */\n      0x20\n      swap1\n      dup2\n      mstore\n      0x40\n      swap2\n      dup3\n      swap1\n      keccak256\n        /* \"smart-contract/hardhat/contracts/ClosedSurvey.sol\":7676:7742  participantsWhoHaveClaimedRewards[participantWalletAddress] = true */\n      dup1\n      sload\n      not(0xff)\n      and\n        /* \"smart-contract/hardhat/contracts/ClosedSurvey.sol\":7738:7742  true */\n      0x01\n        /* \"smart-contract/hardhat/contracts/ClosedSurvey.sol\":7676:7742  participantsWhoHaveClaimedRewards[participantWalletAddress] = true */\n      or\n      swap1\n      sstore\n        /* \"smart-contract/hardhat/contracts/ClosedSurvey.sol\":7757:7810  ParticipantMarkedAsRewarded(participantWalletAddress) */\n      swap1\n      mload\n        /* \"#utility.yul\":364:415   */\n      swap2\n      dup3\n      mstore\n        /* \"smart-contract/hardhat/contracts/ClosedSurvey.sol\":7757:7810  ParticipantMarkedAsRewarded(participantWalletAddress) */\n      0x654c9a027765e6feb862f42d438e9f6948f9ee31113e379f0372b30efc722943\n      swap2\n        /* \"#utility.yul\":337:355   */\n      add\n        /* \"smart-contract/hardhat/contracts/ClosedSurvey.sol\":7757:7810  ParticipantMarkedAsRewarded(participantWalletAddress) */\n      mload(0x40)\n      dup1\n      swap2\n      sub\n      swap1\n      log1\n        /* \"smart-contract/hardhat/contracts/ClosedSurvey.sol\":7564:7817  function markParticipantAsHavingClaimedReward(... */\n      pop\n      jump\t// out\n        /* \"smart-contract/hardhat/contracts/ClosedSurvey.sol\":7823:8308  function rewardParticipant(address participantWalletAddress) private {... */\n    tag_234:\n        /* \"smart-contract/hardhat/contracts/ClosedSurvey.sol\":7982:8013  rewardAmountPerParticipantInWei */\n      sload(0x05)\n        /* \"smart-contract/hardhat/contracts/ClosedSurvey.sol\":7917:8023  cUSD.transfer(... */\n      mload(0x40)\n      shl(0xe0, 0xa9059cbb)\n      dup2\n      mstore\n      sub(shl(0xa0, 0x01), 0x01)\n        /* \"#utility.yul\":4740:4772   */\n      dup4\n      dup2\n      and\n        /* \"smart-contract/hardhat/contracts/ClosedSurvey.sol\":7917:8023  cUSD.transfer(... */\n      0x04\n      dup4\n      add\n        /* \"#utility.yul\":4722:4773   */\n      mstore\n        /* \"#utility.yul\":4789:4807   */\n      0x24\n      dup3\n      add\n        /* \"#utility.yul\":4782:4816   */\n      swap3\n      swap1\n      swap3\n      mstore\n        /* \"smart-contract/hardhat/contracts/ClosedSurvey.sol\":7902:7914  bool success */\n      0x00\n      swap2\n        /* \"smart-contract/hardhat/contracts/ClosedSurvey.sol\":7917:7921  cUSD */\n      immutable(\"0x4ce4dab4689da140a0c12de1a6af6b8f679594aeb723205f513e052d27f5b26f\")\n        /* \"smart-contract/hardhat/contracts/ClosedSurvey.sol\":7917:7930  cUSD.transfer */\n      and\n      swap1\n      0xa9059cbb\n      swap1\n        /* \"#utility.yul\":4695:4713   */\n      0x44\n      add\n        /* \"smart-contract/hardhat/contracts/ClosedSurvey.sol\":7917:8023  cUSD.transfer(... */\n      0x20\n      mload(0x40)\n      dup1\n      dup4\n      sub\n      dup2\n      0x00\n      dup8\n      gas\n      call\n      iszero\n      dup1\n      iszero\n      tag_342\n      jumpi\n      returndatasize\n      0x00\n      dup1\n      returndatacopy\n      revert(0x00, returndatasize)\n    tag_342:\n      pop\n      pop\n      pop\n      pop\n      mload(0x40)\n      returndatasize\n      not(0x1f)\n      0x1f\n      dup3\n      add\n      and\n      dup3\n      add\n      dup1\n      0x40\n      mstore\n      pop\n      dup2\n      add\n      swap1\n      tag_343\n      swap2\n      swap1\n      tag_306\n      jump\t// in\n    tag_343:\n        /* \"smart-contract/hardhat/contracts/ClosedSurvey.sol\":7902:8023  bool success = cUSD.transfer(... */\n      swap1\n      pop\n        /* \"smart-contract/hardhat/contracts/ClosedSurvey.sol\":8038:8045  success */\n      dup1\n        /* \"smart-contract/hardhat/contracts/ClosedSurvey.sol\":8033:8101  if (!success) {... */\n      tag_344\n      jumpi\n        /* \"smart-contract/hardhat/contracts/ClosedSurvey.sol\":8068:8090  RewardTransferFailed() */\n      mload(0x40)\n      shl(0xe4, 0x078ecf41)\n      dup2\n      mstore\n      0x04\n      add\n      mload(0x40)\n      dup1\n      swap2\n      sub\n      swap1\n      revert\n        /* \"smart-contract/hardhat/contracts/ClosedSurvey.sol\":8033:8101  if (!success) {... */\n    tag_344:\n        /* \"smart-contract/hardhat/contracts/ClosedSurvey.sol\":8136:8164  numberOfRewardedParticipants */\n      0x07\n        /* \"smart-contract/hardhat/contracts/ClosedSurvey.sol\":8134:8164  ++numberOfRewardedParticipants */\n      dup1\n      sload\n      0x01\n      add\n      swap1\n      sstore\n        /* \"smart-contract/hardhat/contracts/ClosedSurvey.sol\":8260:8291  rewardAmountPerParticipantInWei */\n      sload(0x05)\n        /* \"smart-contract/hardhat/contracts/ClosedSurvey.sol\":8189:8301  ParticipantRewarded(... */\n      0x40\n      dup1\n      mload\n      sub(shl(0xa0, 0x01), 0x01)\n        /* \"#utility.yul\":4740:4772   */\n      dup6\n      and\n        /* \"#utility.yul\":4722:4773   */\n      dup2\n      mstore\n        /* \"#utility.yul\":4804:4806   */\n      0x20\n        /* \"#utility.yul\":4789:4807   */\n      dup2\n      add\n        /* \"#utility.yul\":4782:4816   */\n      swap3\n      swap1\n      swap3\n      mstore\n        /* \"smart-contract/hardhat/contracts/ClosedSurvey.sol\":8189:8301  ParticipantRewarded(... */\n      0x8934d7a9692e763e356fd30d84ca5f61a737b35c5ccd5d31d4f140310267b73e\n      swap2\n        /* \"#utility.yul\":4695:4713   */\n      add\n        /* \"smart-contract/hardhat/contracts/ClosedSurvey.sol\":8189:8301  ParticipantRewarded(... */\n      tag_272\n        /* \"#utility.yul\":4548:4822   */\n      jump\n        /* \"@openzeppelin/contracts/utils/Pausable.sol\":2463:2578  function _pause() internal virtual whenNotPaused {... */\n    tag_287:\n        /* \"@openzeppelin/contracts/utils/Pausable.sol\":1474:1493  _requireNotPaused() */\n      tag_348\n        /* \"@openzeppelin/contracts/utils/Pausable.sol\":1474:1491  _requireNotPaused */\n      tag_210\n        /* \"@openzeppelin/contracts/utils/Pausable.sol\":1474:1493  _requireNotPaused() */\n      jump\t// in\n    tag_348:\n        /* \"@openzeppelin/contracts/utils/Pausable.sol\":2522:2529  _paused */\n      0x02\n        /* \"@openzeppelin/contracts/utils/Pausable.sol\":2522:2536  _paused = true */\n      dup1\n      sload\n      not(0xff)\n      and\n        /* \"@openzeppelin/contracts/utils/Pausable.sol\":2532:2536  true */\n      0x01\n        /* \"@openzeppelin/contracts/utils/Pausable.sol\":2522:2536  _paused = true */\n      or\n      swap1\n      sstore\n        /* \"@openzeppelin/contracts/utils/Pausable.sol\":2551:2571  Paused(_msgSender()) */\n      0x62e78cea01bee320cd4e420270b5ea74000d11b0c9f74754ebdbfc544b05a258\n        /* \"@openzeppelin/contracts/utils/Pausable.sol\":2558:2570  _msgSender() */\n      tag_329\n        /* \"@openzeppelin/contracts/utils/Context.sol\":735:745  msg.sender */\n      caller\n      swap1\n        /* \"@openzeppelin/contracts/utils/Context.sol\":656:752  function _msgSender() internal view virtual returns (address) {... */\n      jump\n        /* \"@openzeppelin/contracts/utils/Pausable.sol\":2202:2328  function _requirePaused() internal view virtual {... */\n    tag_327:\n        /* \"@openzeppelin/contracts/utils/Pausable.sol\":1920:1927  _paused */\n      and(0xff, sload(0x02))\n        /* \"@openzeppelin/contracts/utils/Pausable.sol\":2260:2322  if (!paused()) {... */\n      tag_129\n      jumpi\n        /* \"@openzeppelin/contracts/utils/Pausable.sol\":2296:2311  ExpectedPause() */\n      mload(0x40)\n      shl(0xe0, 0x8dfc202b)\n      dup2\n      mstore\n      0x04\n      add\n      mload(0x40)\n      dup1\n      swap2\n      sub\n      swap1\n      revert\n        /* \"#utility.yul\":426:606   */\n    tag_48:\n        /* \"#utility.yul\":485:491   */\n      0x00\n        /* \"#utility.yul\":538:540   */\n      0x20\n        /* \"#utility.yul\":526:535   */\n      dup3\n        /* \"#utility.yul\":517:524   */\n      dup5\n        /* \"#utility.yul\":513:536   */\n      sub\n        /* \"#utility.yul\":509:541   */\n      slt\n        /* \"#utility.yul\":506:558   */\n      iszero\n      tag_361\n      jumpi\n        /* \"#utility.yul\":554:555   */\n      0x00\n        /* \"#utility.yul\":551:552   */\n      dup1\n        /* \"#utility.yul\":544:556   */\n      revert\n        /* \"#utility.yul\":506:558   */\n    tag_361:\n      pop\n        /* \"#utility.yul\":577:600   */\n      calldataload\n      swap2\n        /* \"#utility.yul\":426:606   */\n      swap1\n      pop\n      jump\t// out\n        /* \"#utility.yul\":803:976   */\n    tag_356:\n        /* \"#utility.yul\":871:891   */\n      dup1\n      calldataload\n      sub(shl(0xa0, 0x01), 0x01)\n        /* \"#utility.yul\":920:951   */\n      dup2\n      and\n        /* \"#utility.yul\":910:952   */\n      dup2\n      eq\n        /* \"#utility.yul\":900:970   */\n      tag_364\n      jumpi\n        /* \"#utility.yul\":966:967   */\n      0x00\n        /* \"#utility.yul\":963:964   */\n      dup1\n        /* \"#utility.yul\":956:968   */\n      revert\n        /* \"#utility.yul\":900:970   */\n    tag_364:\n        /* \"#utility.yul\":803:976   */\n      swap2\n      swap1\n      pop\n      jump\t// out\n        /* \"#utility.yul\":981:1167   */\n    tag_62:\n        /* \"#utility.yul\":1040:1046   */\n      0x00\n        /* \"#utility.yul\":1093:1095   */\n      0x20\n        /* \"#utility.yul\":1081:1090   */\n      dup3\n        /* \"#utility.yul\":1072:1079   */\n      dup5\n        /* \"#utility.yul\":1068:1091   */\n      sub\n        /* \"#utility.yul\":1064:1096   */\n      slt\n        /* \"#utility.yul\":1061:1113   */\n      iszero\n      tag_366\n      jumpi\n        /* \"#utility.yul\":1109:1110   */\n      0x00\n        /* \"#utility.yul\":1106:1107   */\n      dup1\n        /* \"#utility.yul\":1099:1111   */\n      revert\n        /* \"#utility.yul\":1061:1113   */\n    tag_366:\n        /* \"#utility.yul\":1132:1161   */\n      tag_367\n        /* \"#utility.yul\":1151:1160   */\n      dup3\n        /* \"#utility.yul\":1132:1161   */\n      tag_356\n      jump\t// in\n    tag_367:\n        /* \"#utility.yul\":1122:1161   */\n      swap4\n        /* \"#utility.yul\":981:1167   */\n      swap3\n      pop\n      pop\n      pop\n      jump\t// out\n        /* \"#utility.yul\":1380:1990   */\n    tag_86:\n        /* \"#utility.yul\":1466:1472   */\n      0x00\n        /* \"#utility.yul\":1474:1480   */\n      dup1\n        /* \"#utility.yul\":1527:1529   */\n      0x20\n        /* \"#utility.yul\":1515:1524   */\n      dup4\n        /* \"#utility.yul\":1506:1513   */\n      dup6\n        /* \"#utility.yul\":1502:1525   */\n      sub\n        /* \"#utility.yul\":1498:1530   */\n      slt\n        /* \"#utility.yul\":1495:1547   */\n      iszero\n      tag_370\n      jumpi\n        /* \"#utility.yul\":1543:1544   */\n      0x00\n        /* \"#utility.yul\":1540:1541   */\n      dup1\n        /* \"#utility.yul\":1533:1545   */\n      revert\n        /* \"#utility.yul\":1495:1547   */\n    tag_370:\n        /* \"#utility.yul\":1583:1592   */\n      dup3\n        /* \"#utility.yul\":1570:1593   */\n      calldataload\n        /* \"#utility.yul\":1616:1634   */\n      0xffffffffffffffff\n        /* \"#utility.yul\":1608:1614   */\n      dup2\n        /* \"#utility.yul\":1605:1635   */\n      gt\n        /* \"#utility.yul\":1602:1652   */\n      iszero\n      tag_371\n      jumpi\n        /* \"#utility.yul\":1648:1649   */\n      0x00\n        /* \"#utility.yul\":1645:1646   */\n      dup1\n        /* \"#utility.yul\":1638:1650   */\n      revert\n        /* \"#utility.yul\":1602:1652   */\n    tag_371:\n        /* \"#utility.yul\":1671:1693   */\n      dup4\n      add\n        /* \"#utility.yul\":1724:1728   */\n      0x1f\n        /* \"#utility.yul\":1716:1729   */\n      dup2\n      add\n        /* \"#utility.yul\":1712:1739   */\n      dup6\n      sgt\n        /* \"#utility.yul\":1702:1757   */\n      tag_372\n      jumpi\n        /* \"#utility.yul\":1753:1754   */\n      0x00\n        /* \"#utility.yul\":1750:1751   */\n      dup1\n        /* \"#utility.yul\":1743:1755   */\n      revert\n        /* \"#utility.yul\":1702:1757   */\n    tag_372:\n        /* \"#utility.yul\":1793:1795   */\n      dup1\n        /* \"#utility.yul\":1780:1796   */\n      calldataload\n        /* \"#utility.yul\":1819:1837   */\n      0xffffffffffffffff\n        /* \"#utility.yul\":1811:1817   */\n      dup2\n        /* \"#utility.yul\":1808:1838   */\n      gt\n        /* \"#utility.yul\":1805:1855   */\n      iszero\n      tag_373\n      jumpi\n        /* \"#utility.yul\":1851:1852   */\n      0x00\n        /* \"#utility.yul\":1848:1849   */\n      dup1\n        /* \"#utility.yul\":1841:1853   */\n      revert\n        /* \"#utility.yul\":1805:1855   */\n    tag_373:\n        /* \"#utility.yul\":1904:1911   */\n      dup6\n        /* \"#utility.yul\":1899:1901   */\n      0x20\n        /* \"#utility.yul\":1889:1895   */\n      dup3\n        /* \"#utility.yul\":1886:1887   */\n      0x05\n        /* \"#utility.yul\":1882:1896   */\n      shl\n        /* \"#utility.yul\":1878:1880   */\n      dup5\n        /* \"#utility.yul\":1874:1897   */\n      add\n        /* \"#utility.yul\":1870:1902   */\n      add\n        /* \"#utility.yul\":1867:1912   */\n      gt\n        /* \"#utility.yul\":1864:1929   */\n      iszero\n      tag_374\n      jumpi\n        /* \"#utility.yul\":1925:1926   */\n      0x00\n        /* \"#utility.yul\":1922:1923   */\n      dup1\n        /* \"#utility.yul\":1915:1927   */\n      revert\n        /* \"#utility.yul\":1864:1929   */\n    tag_374:\n        /* \"#utility.yul\":1956:1958   */\n      0x20\n        /* \"#utility.yul\":1948:1959   */\n      swap2\n      swap1\n      swap2\n      add\n      swap6\n        /* \"#utility.yul\":1978:1984   */\n      swap1\n      swap5\n      pop\n        /* \"#utility.yul\":1380:1990   */\n      swap3\n      pop\n      pop\n      pop\n      jump\t// out\n        /* \"#utility.yul\":1995:2632   */\n    tag_98:\n        /* \"#utility.yul\":2185:2187   */\n      0x20\n        /* \"#utility.yul\":2197:2218   */\n      dup1\n      dup3\n      mstore\n        /* \"#utility.yul\":2267:2280   */\n      dup3\n      mload\n        /* \"#utility.yul\":2170:2188   */\n      dup3\n      dup3\n      add\n        /* \"#utility.yul\":2289:2311   */\n      dup2\n      swap1\n      mstore\n        /* \"#utility.yul\":2137:2141   */\n      0x00\n      swap2\n        /* \"#utility.yul\":2368:2383   */\n      dup5\n      add\n      swap1\n        /* \"#utility.yul\":2342:2344   */\n      0x40\n        /* \"#utility.yul\":2327:2345   */\n      dup5\n      add\n      swap1\n        /* \"#utility.yul\":2137:2141   */\n      dup4\n        /* \"#utility.yul\":2411:2606   */\n    tag_376:\n        /* \"#utility.yul\":2425:2431   */\n      dup2\n        /* \"#utility.yul\":2422:2423   */\n      dup2\n        /* \"#utility.yul\":2419:2432   */\n      lt\n        /* \"#utility.yul\":2411:2606   */\n      iszero\n      tag_378\n      jumpi\n        /* \"#utility.yul\":2490:2503   */\n      dup4\n      mload\n      sub(shl(0xa0, 0x01), 0x01)\n        /* \"#utility.yul\":2486:2525   */\n      and\n        /* \"#utility.yul\":2474:2526   */\n      dup4\n      mstore\n        /* \"#utility.yul\":2555:2557   */\n      0x20\n        /* \"#utility.yul\":2581:2596   */\n      swap4\n      dup5\n      add\n      swap4\n        /* \"#utility.yul\":2546:2558   */\n      swap1\n      swap3\n      add\n      swap2\n        /* \"#utility.yul\":2522:2523   */\n      0x01\n        /* \"#utility.yul\":2440:2449   */\n      add\n        /* \"#utility.yul\":2411:2606   */\n      jump(tag_376)\n    tag_378:\n      pop\n        /* \"#utility.yul\":2623:2626   */\n      swap1\n      swap6\n        /* \"#utility.yul\":1995:2632   */\n      swap5\n      pop\n      pop\n      pop\n      pop\n      pop\n      jump\t// out\n        /* \"#utility.yul\":2890:3017   */\n    tag_163:\n        /* \"#utility.yul\":2951:2961   */\n      0x4e487b71\n        /* \"#utility.yul\":2946:2949   */\n      0xe0\n        /* \"#utility.yul\":2942:2962   */\n      shl\n        /* \"#utility.yul\":2939:2940   */\n      0x00\n        /* \"#utility.yul\":2932:2963   */\n      mstore\n        /* \"#utility.yul\":2982:2986   */\n      0x32\n        /* \"#utility.yul\":2979:2980   */\n      0x04\n        /* \"#utility.yul\":2972:2987   */\n      mstore\n        /* \"#utility.yul\":3006:3010   */\n      0x24\n        /* \"#utility.yul\":3003:3004   */\n      0x00\n        /* \"#utility.yul\":2996:3011   */\n      revert\n        /* \"#utility.yul\":3022:3637   */\n    tag_181:\n        /* \"#utility.yul\":3222:3224   */\n      0x20\n        /* \"#utility.yul\":3234:3255   */\n      dup1\n      dup3\n      mstore\n        /* \"#utility.yul\":3207:3225   */\n      dup2\n      add\n        /* \"#utility.yul\":3290:3312   */\n      dup3\n      swap1\n      mstore\n        /* \"#utility.yul\":3174:3178   */\n      0x00\n        /* \"#utility.yul\":3369:3375   */\n      dup4\n        /* \"#utility.yul\":3343:3345   */\n      0x40\n        /* \"#utility.yul\":3328:3346   */\n      dup4\n      add\n        /* \"#utility.yul\":3174:3178   */\n      dup3\n        /* \"#utility.yul\":3403:3611   */\n    tag_382:\n        /* \"#utility.yul\":3417:3423   */\n      dup6\n        /* \"#utility.yul\":3414:3415   */\n      dup2\n        /* \"#utility.yul\":3411:3424   */\n      lt\n        /* \"#utility.yul\":3403:3611   */\n      iszero\n      tag_384\n      jumpi\n      sub(shl(0xa0, 0x01), 0x01)\n        /* \"#utility.yul\":3482:3508   */\n      tag_385\n        /* \"#utility.yul\":3501:3507   */\n      dup5\n        /* \"#utility.yul\":3482:3508   */\n      tag_356\n      jump\t// in\n    tag_385:\n        /* \"#utility.yul\":3478:3530   */\n      and\n        /* \"#utility.yul\":3466:3531   */\n      dup3\n      mstore\n        /* \"#utility.yul\":3560:3562   */\n      0x20\n        /* \"#utility.yul\":3586:3601   */\n      swap3\n      dup4\n      add\n      swap3\n        /* \"#utility.yul\":3551:3563   */\n      swap1\n      swap2\n      add\n      swap1\n        /* \"#utility.yul\":3439:3440   */\n      0x01\n        /* \"#utility.yul\":3432:3441   */\n      add\n        /* \"#utility.yul\":3403:3611   */\n      jump(tag_382)\n    tag_384:\n      pop\n        /* \"#utility.yul\":3628:3631   */\n      swap6\n        /* \"#utility.yul\":3022:3637   */\n      swap5\n      pop\n      pop\n      pop\n      pop\n      pop\n      jump\t// out\n        /* \"#utility.yul\":3642:3826   */\n    tag_228:\n        /* \"#utility.yul\":3712:3718   */\n      0x00\n        /* \"#utility.yul\":3765:3767   */\n      0x20\n        /* \"#utility.yul\":3753:3762   */\n      dup3\n        /* \"#utility.yul\":3744:3751   */\n      dup5\n        /* \"#utility.yul\":3740:3763   */\n      sub\n        /* \"#utility.yul\":3736:3768   */\n      slt\n        /* \"#utility.yul\":3733:3785   */\n      iszero\n      tag_387\n      jumpi\n        /* \"#utility.yul\":3781:3782   */\n      0x00\n        /* \"#utility.yul\":3778:3779   */\n      dup1\n        /* \"#utility.yul\":3771:3783   */\n      revert\n        /* \"#utility.yul\":3733:3785   */\n    tag_387:\n      pop\n        /* \"#utility.yul\":3804:3820   */\n      mload\n      swap2\n        /* \"#utility.yul\":3642:3826   */\n      swap1\n      pop\n      jump\t// out\n        /* \"#utility.yul\":3831:4063   */\n    tag_247:\n        /* \"#utility.yul\":3870:3873   */\n      0x00\n        /* \"#utility.yul\":3891:3908   */\n      0x01\n      dup3\n      add\n        /* \"#utility.yul\":3888:4028   */\n      tag_389\n      jumpi\n        /* \"#utility.yul\":3950:3960   */\n      0x4e487b71\n        /* \"#utility.yul\":3945:3948   */\n      0xe0\n        /* \"#utility.yul\":3941:3961   */\n      shl\n        /* \"#utility.yul\":3938:3939   */\n      0x00\n        /* \"#utility.yul\":3931:3962   */\n      mstore\n        /* \"#utility.yul\":3985:3989   */\n      0x11\n        /* \"#utility.yul\":3982:3983   */\n      0x04\n        /* \"#utility.yul\":3975:3990   */\n      mstore\n        /* \"#utility.yul\":4013:4017   */\n      0x24\n        /* \"#utility.yul\":4010:4011   */\n      0x00\n        /* \"#utility.yul\":4003:4018   */\n      revert\n        /* \"#utility.yul\":3888:4028   */\n    tag_389:\n      pop\n        /* \"#utility.yul\":4055:4056   */\n      0x01\n        /* \"#utility.yul\":4044:4057   */\n      add\n      swap1\n        /* \"#utility.yul\":3831:4063   */\n      jump\t// out\n        /* \"#utility.yul\":4068:4195   */\n    tag_250:\n        /* \"#utility.yul\":4129:4139   */\n      0x4e487b71\n        /* \"#utility.yul\":4124:4127   */\n      0xe0\n        /* \"#utility.yul\":4120:4140   */\n      shl\n        /* \"#utility.yul\":4117:4118   */\n      0x00\n        /* \"#utility.yul\":4110:4141   */\n      mstore\n        /* \"#utility.yul\":4160:4164   */\n      0x41\n        /* \"#utility.yul\":4157:4158   */\n      0x04\n        /* \"#utility.yul\":4150:4165   */\n      mstore\n        /* \"#utility.yul\":4184:4188   */\n      0x24\n        /* \"#utility.yul\":4181:4182   */\n      0x00\n        /* \"#utility.yul\":4174:4189   */\n      revert\n        /* \"#utility.yul\":4827:5104   */\n    tag_306:\n        /* \"#utility.yul\":4894:4900   */\n      0x00\n        /* \"#utility.yul\":4947:4949   */\n      0x20\n        /* \"#utility.yul\":4935:4944   */\n      dup3\n        /* \"#utility.yul\":4926:4933   */\n      dup5\n        /* \"#utility.yul\":4922:4945   */\n      sub\n        /* \"#utility.yul\":4918:4950   */\n      slt\n        /* \"#utility.yul\":4915:4967   */\n      iszero\n      tag_394\n      jumpi\n        /* \"#utility.yul\":4963:4964   */\n      0x00\n        /* \"#utility.yul\":4960:4961   */\n      dup1\n        /* \"#utility.yul\":4953:4965   */\n      revert\n        /* \"#utility.yul\":4915:4967   */\n    tag_394:\n        /* \"#utility.yul\":4995:5004   */\n      dup2\n        /* \"#utility.yul\":4989:5005   */\n      mload\n        /* \"#utility.yul\":5048:5053   */\n      dup1\n        /* \"#utility.yul\":5041:5054   */\n      iszero\n        /* \"#utility.yul\":5034:5055   */\n      iszero\n        /* \"#utility.yul\":5027:5032   */\n      dup2\n        /* \"#utility.yul\":5024:5056   */\n      eq\n        /* \"#utility.yul\":5014:5074   */\n      tag_367\n      jumpi\n        /* \"#utility.yul\":5070:5071   */\n      0x00\n        /* \"#utility.yul\":5067:5068   */\n      dup1\n        /* \"#utility.yul\":5060:5072   */\n      revert\n\n    auxdata: 0xa2646970667358221220e45670bf1cca92862260400db2d0617348a53e04305c7e63d76fe588e676b7fb64736f6c634300081c0033\n}\n",
				"bytecode": {
					"linkReferences": {},
					"object": "60a060405234801561001057600080fd5b506040516116df3803806116df83398101604081905261002f9161017a565b836001600160a01b03811661005e57604051631e4fbdf760e01b81526000600482015260240160405180910390fd5b6100678161010e565b50600180556002805460ff191690556001600160a01b038416158061009357506001600160a01b038116155b156100b15760405163d92e233d60e01b815260040160405180910390fd5b826000036100d257604051630d428a0160e41b815260040160405180910390fd5b816000036100f3576040516336c5eec760e21b815260040160405180910390fd5b6001600160a01b0316608052600591909155600655506101c1565b600080546001600160a01b038381166001600160a01b0319831681178455604051919092169283917f8be0079c531659141344cd1fd0a4f28419497f9722a3daafe3b4186f6b6457e09190a35050565b80516001600160a01b038116811461017557600080fd5b919050565b6000806000806080858703121561019057600080fd5b6101998561015e565b60208601516040870151919550935091506101b66060860161015e565b905092959194509250565b6080516114e76101f8600039600081816101cf0152818161095001528181610ddd01528181610e77015261118501526114e76000f3fe608060405234801561001057600080fd5b50600436106101a95760003560e01c80638da5cb5b116100f9578063c25a02ec11610097578063e082fe2a11610071578063e082fe2a1461037c578063f22069df14610384578063f2fde38b1461038c578063fc05542a1461039f57600080fd5b8063c25a02ec14610358578063d335993a14610361578063d90843261461037457600080fd5b8063a0858343116100d3578063a085834314610309578063a34db0a01461031c578063a6a098111461033c578063b07029131461034557600080fd5b80638da5cb5b146102d257806398b48493146102e35780639a0474e8146102f657600080fd5b80636fa1c59d11610166578063715018a611610140578063715018a61461028c578063741ae614146102945780637a0abf081461029c57806385737020146102a557600080fd5b80636fa1c59d146102505780636ff65c20146102585780637069243c1461028457600080fd5b80631318fbf1146101ae5780631fccf672146101ca5780633960fc6614610209578063528780cc146102135780635c975abb1461022657806364bb632f1461023d575b600080fd5b6101b760075481565b6040519081526020015b60405180910390f35b6101f17f000000000000000000000000000000000000000000000000000000000000000081565b6040516001600160a01b0390911681526020016101c1565b6102116103cb565b005b6102116102213660046112be565b6103dd565b60025460ff165b60405190151581526020016101c1565b61021161024b3660046112be565b61044f565b6006546101b7565b61022d6102663660046112f3565b6001600160a01b031660009081526004602052604090205460ff1690565b6005546101b7565b6102116104b8565b6007546101b7565b6101b760055481565b61022d6102b33660046112f3565b6001600160a01b031660009081526003602052604090205460ff161590565b6000546001600160a01b03166101f1565b6102116102f1366004611315565b6104ca565b610211610304366004611315565b61069b565b6102116103173660046112f3565b610866565b61032f61032a366004611315565b610a26565b6040516101c1919061138c565b6101b760065481565b6102116103533660046112f3565b610bd4565b6101b760085481565b61021161036f3660046112f3565b610cb2565b6008546101b7565b610211610d9d565b610211610dad565b61021161039a3660046112f3565b610fa6565b61022d6103ad3660046112f3565b6001600160a01b031660009081526003602052604090205460ff1690565b6103d3610fe1565b6103db61100e565b565b6103e5610fe1565b80600003610406576040516336c5eec760e21b815260040160405180910390fd5b6006805490829055604080518281526020810184905283917f2e31e8893a04ce5258044d342d7658948a6ac9710d97e32462ab75f131ae11ef91015b60405180910390a1505050565b610457610fe1565b8060000361047857604051630d428a0160e41b815260040160405180910390fd5b6005805490829055604080518281526020810184905283917ff0d37c3ae852021ac329281f604b658691cbfa6b9e9c22909f06b64a8ce87c949101610442565b6104c0610fe1565b6103db6000611060565b6104d2610fe1565b8060008190036104f557604051634ec4810560e11b815260040160405180910390fd5b60005b818110156105f6576000848483818110610514576105146113d8565b905060200201602081019061052991906112f3565b6001600160a01b0316036105505760405163d92e233d60e01b815260040160405180910390fd5b60036000858584818110610566576105666113d8565b905060200201602081019061057b91906112f3565b6001600160a01b0316815260208101919091526040016000205460ff16156105ee578383828181106105af576105af6113d8565b90506020020160208101906105c491906112f3565b604051633746725b60e11b81526001600160a01b0390911660048201526024015b60405180910390fd5b6001016104f8565b5060005b818110156106695760016003600086868581811061061a5761061a6113d8565b905060200201602081019061062f91906112f3565b6001600160a01b031681526020810191909152604001600020805460ff1916911515919091179055600880546001908101909155016105fa565b507f9a9f2a64a3b0b4774da60129aa707715e049cb95062f7acaaffc07ddc244c1cc83836040516104429291906113ee565b6106a3610fe1565b8060008190036106c657604051634ec4810560e11b815260040160405180910390fd5b60005b818110156107c15760008484838181106106e5576106e56113d8565b90506020020160208101906106fa91906112f3565b6001600160a01b0316036107215760405163d92e233d60e01b815260040160405180910390fd5b60036000858584818110610737576107376113d8565b905060200201602081019061074c91906112f3565b6001600160a01b0316815260208101919091526040016000205460ff166107b95783838281811061077f5761077f6113d8565b905060200201602081019061079491906112f3565b60405163de55cc3360e01b81526001600160a01b0390911660048201526024016105e5565b6001016106c9565b5060005b81811015610834576000600360008686858181106107e5576107e56113d8565b90506020020160208101906107fa91906112f3565b6001600160a01b031681526020810191909152604001600020805460ff1916911515919091179055600880546000190190556001016107c5565b507fd68b41369d54faca53e699320360840db6e0e2e175d3974eb304fd18713d916b83836040516104429291906113ee565b61086e6110b0565b6108766110d4565b80336001600160a01b038216146108ab576040516344b5040560e01b81526001600160a01b03821660048201526024016105e5565b6001600160a01b038216600090815260036020526040902054829060ff166108f15760405163de55cc3360e01b81526001600160a01b03821660048201526024016105e5565b6001600160a01b038316600090815260046020526040902054839060ff1615610938576040516301ee5f6f60e31b81526001600160a01b03821660048201526024016105e5565b6005546040516370a0823160e01b81523060048201527f00000000000000000000000000000000000000000000000000000000000000006001600160a01b0316906370a0823190602401602060405180830381865afa15801561099f573d6000803e3d6000fd5b505050506040513d601f19601f820116820180604052508101906109c39190611439565b10156109e25760405163786e0a9960e01b815260040160405180910390fd5b60065460075403610a05576040516227007f60ea1b815260040160405180910390fd5b610a0e846110fe565b610a1784611158565b505050610a2360018055565b50565b6060816000819003610a4b57604051634ec4810560e11b815260040160405180910390fd5b6000805b82811015610aba5760036000878784818110610a6d57610a6d6113d8565b9050602002016020810190610a8291906112f3565b6001600160a01b0316815260208101919091526040016000205460ff1615610ab25781610aae81611452565b9250505b600101610a4f565b5060008167ffffffffffffffff811115610ad657610ad6611479565b604051908082528060200260200182016040528015610aff578160200160208202803683370190505b5090506000805b84811015610bc85760036000898984818110610b2457610b246113d8565b9050602002016020810190610b3991906112f3565b6001600160a01b0316815260208101919091526040016000205460ff1615610bc057878782818110610b6d57610b6d6113d8565b9050602002016020810190610b8291906112f3565b8383610b8d81611452565b945081518110610b9f57610b9f6113d8565b60200260200101906001600160a01b031690816001600160a01b0316815250505b600101610b06565b50909695505050505050565b610bdc610fe1565b6001600160a01b038116600090815260036020526040902054819060ff1615610c2357604051633746725b60e11b81526001600160a01b03821660048201526024016105e5565b6001600160a01b038216610c4a5760405163d92e233d60e01b815260040160405180910390fd5b6001600160a01b038216600081815260036020908152604091829020805460ff1916600190811790915560088054909101905590519182527f1afde38c60d2be0d28d001619816d86c39ce78b350c9d94f23c095099b9c1d2791015b60405180910390a15050565b610cba610fe1565b6001600160a01b038116600090815260036020526040902054819060ff1615610d1b5760405162461bcd60e51b8152602060048201526013602482015272135d5cdd081899481dda1a5d195b1a5cdd1959606a1b60448201526064016105e5565b6001600160a01b038216610d425760405163d92e233d60e01b815260040160405180910390fd5b6001600160a01b038216600081815260036020908152604091829020805460ff191690556008805460001901905590519182527fa354190dd7342316e40e5358c9f72037f2c677cdc057d3debbc4f1b62495e2e29101610ca6565b610da5610fe1565b6103db61125e565b610db5610fe1565b610dbd6110b0565b610dc56110d4565b6040516370a0823160e01b81523060048201526000907f00000000000000000000000000000000000000000000000000000000000000006001600160a01b0316906370a0823190602401602060405180830381865afa158015610e2c573d6000803e3d6000fd5b505050506040513d601f19601f82011682018060405250810190610e509190611439565b905080600003610e73576040516316e3ff0560e21b815260040160405180910390fd5b60007f00000000000000000000000000000000000000000000000000000000000000006001600160a01b031663a9059cbb610eb66000546001600160a01b031690565b6040516001600160e01b031960e084901b1681526001600160a01b039091166004820152602481018590526044016020604051808303816000875af1158015610f03573d6000803e3d6000fd5b505050506040513d601f19601f82011682018060405250810190610f27919061148f565b905080610f47576040516327fcd9d160e01b815260040160405180910390fd5b7f2036b9b38b69a2fa490ee702733a29cd2550accc20bc96e786cb9beedc779097610f7a6000546001600160a01b031690565b604080516001600160a01b039092168252602082018590520160405180910390a150506103db60018055565b610fae610fe1565b6001600160a01b038116610fd857604051631e4fbdf760e01b8152600060048201526024016105e5565b610a2381611060565b6000546001600160a01b031633146103db5760405163118cdaa760e01b81523360048201526024016105e5565b61101661129b565b6002805460ff191690557f5db9ee0a495bf2e6ff9c91a7834c1ba4fdd244a5e8aa4e537bd38aeae4b073aa335b6040516001600160a01b03909116815260200160405180910390a1565b600080546001600160a01b038381166001600160a01b0319831681178455604051919092169283917f8be0079c531659141344cd1fd0a4f28419497f9722a3daafe3b4186f6b6457e09190a35050565b60025460ff16156103db5760405163d93c066560e01b815260040160405180910390fd5b6002600154036110f757604051633ee5aeb560e01b815260040160405180910390fd5b6002600155565b6001600160a01b038116600081815260046020908152604091829020805460ff1916600117905590519182527f654c9a027765e6feb862f42d438e9f6948f9ee31113e379f0372b30efc722943910160405180910390a150565b60055460405163a9059cbb60e01b81526001600160a01b03838116600483015260248201929092526000917f0000000000000000000000000000000000000000000000000000000000000000169063a9059cbb906044016020604051808303816000875af11580156111ce573d6000803e3d6000fd5b505050506040513d601f19601f820116820180604052508101906111f2919061148f565b9050806112125760405163078ecf4160e41b815260040160405180910390fd5b600780546001019055600554604080516001600160a01b038516815260208101929092527f8934d7a9692e763e356fd30d84ca5f61a737b35c5ccd5d31d4f140310267b73e9101610ca6565b6112666110b0565b6002805460ff191660011790557f62e78cea01bee320cd4e420270b5ea74000d11b0c9f74754ebdbfc544b05a2586110433390565b60025460ff166103db57604051638dfc202b60e01b815260040160405180910390fd5b6000602082840312156112d057600080fd5b5035919050565b80356001600160a01b03811681146112ee57600080fd5b919050565b60006020828403121561130557600080fd5b61130e826112d7565b9392505050565b6000806020838503121561132857600080fd5b823567ffffffffffffffff81111561133f57600080fd5b8301601f8101851361135057600080fd5b803567ffffffffffffffff81111561136757600080fd5b8560208260051b840101111561137c57600080fd5b6020919091019590945092505050565b602080825282518282018190526000918401906040840190835b818110156113cd5783516001600160a01b03168352602093840193909201916001016113a6565b509095945050505050565b634e487b7160e01b600052603260045260246000fd5b6020808252810182905260008360408301825b8581101561142f576001600160a01b0361141a846112d7565b16825260209283019290910190600101611401565b5095945050505050565b60006020828403121561144b57600080fd5b5051919050565b60006001820161147257634e487b7160e01b600052601160045260246000fd5b5060010190565b634e487b7160e01b600052604160045260246000fd5b6000602082840312156114a157600080fd5b8151801515811461130e57600080fdfea2646970667358221220e45670bf1cca92862260400db2d0617348a53e04305c7e63d76fe588e676b7fb64736f6c634300081c0033",
					"opcodes": "PUSH1 0xA0 PUSH1 0x40 MSTORE CALLVALUE DUP1 ISZERO PUSH2 0x10 JUMPI PUSH1 0x0 DUP1 REVERT JUMPDEST POP PUSH1 0x40 MLOAD PUSH2 0x16DF CODESIZE SUB DUP1 PUSH2 0x16DF DUP4 CODECOPY DUP2 ADD PUSH1 0x40 DUP2 SWAP1 MSTORE PUSH2 0x2F SWAP2 PUSH2 0x17A JUMP JUMPDEST DUP4 PUSH1 0x1 PUSH1 0x1 PUSH1 0xA0 SHL SUB DUP2 AND PUSH2 0x5E JUMPI PUSH1 0x40 MLOAD PUSH4 0x1E4FBDF7 PUSH1 0xE0 SHL DUP2 MSTORE PUSH1 0x0 PUSH1 0x4 DUP3 ADD MSTORE PUSH1 0x24 ADD PUSH1 0x40 MLOAD DUP1 SWAP2 SUB SWAP1 REVERT JUMPDEST PUSH2 0x67 DUP2 PUSH2 0x10E JUMP JUMPDEST POP PUSH1 0x1 DUP1 SSTORE PUSH1 0x2 DUP1 SLOAD PUSH1 0xFF NOT AND SWAP1 SSTORE PUSH1 0x1 PUSH1 0x1 PUSH1 0xA0 SHL SUB DUP5 AND ISZERO DUP1 PUSH2 0x93 JUMPI POP PUSH1 0x1 PUSH1 0x1 PUSH1 0xA0 SHL SUB DUP2 AND ISZERO JUMPDEST ISZERO PUSH2 0xB1 JUMPI PUSH1 0x40 MLOAD PUSH4 0xD92E233D PUSH1 0xE0 SHL DUP2 MSTORE PUSH1 0x4 ADD PUSH1 0x40 MLOAD DUP1 SWAP2 SUB SWAP1 REVERT JUMPDEST DUP3 PUSH1 0x0 SUB PUSH2 0xD2 JUMPI PUSH1 0x40 MLOAD PUSH4 0xD428A01 PUSH1 0xE4 SHL DUP2 MSTORE PUSH1 0x4 ADD PUSH1 0x40 MLOAD DUP1 SWAP2 SUB SWAP1 REVERT JUMPDEST DUP2 PUSH1 0x0 SUB PUSH2 0xF3 JUMPI PUSH1 0x40 MLOAD PUSH4 0x36C5EEC7 PUSH1 0xE2 SHL DUP2 MSTORE PUSH1 0x4 ADD PUSH1 0x40 MLOAD DUP1 SWAP2 SUB SWAP1 REVERT JUMPDEST PUSH1 0x1 PUSH1 0x1 PUSH1 0xA0 SHL SUB AND PUSH1 0x80 MSTORE PUSH1 0x5 SWAP2 SWAP1 SWAP2 SSTORE PUSH1 0x6 SSTORE POP PUSH2 0x1C1 JUMP JUMPDEST PUSH1 0x0 DUP1 SLOAD PUSH1 0x1 PUSH1 0x1 PUSH1 0xA0 SHL SUB DUP4 DUP2 AND PUSH1 0x1 PUSH1 0x1 PUSH1 0xA0 SHL SUB NOT DUP4 AND DUP2 OR DUP5 SSTORE PUSH1 0x40 MLOAD SWAP2 SWAP1 SWAP3 AND SWAP3 DUP4 SWAP2 PUSH32 0x8BE0079C531659141344CD1FD0A4F28419497F9722A3DAAFE3B4186F6B6457E0 SWAP2 SWAP1 LOG3 POP POP JUMP JUMPDEST DUP1 MLOAD PUSH1 0x1 PUSH1 0x1 PUSH1 0xA0 SHL SUB DUP2 AND DUP2 EQ PUSH2 0x175 JUMPI PUSH1 0x0 DUP1 REVERT JUMPDEST SWAP2 SWAP1 POP JUMP JUMPDEST PUSH1 0x0 DUP1 PUSH1 0x0 DUP1 PUSH1 0x80 DUP6 DUP8 SUB SLT ISZERO PUSH2 0x190 JUMPI PUSH1 0x0 DUP1 REVERT JUMPDEST PUSH2 0x199 DUP6 PUSH2 0x15E JUMP JUMPDEST PUSH1 0x20 DUP7 ADD MLOAD PUSH1 0x40 DUP8 ADD MLOAD SWAP2 SWAP6 POP SWAP4 POP SWAP2 POP PUSH2 0x1B6 PUSH1 0x60 DUP7 ADD PUSH2 0x15E JUMP JUMPDEST SWAP1 POP SWAP3 SWAP6 SWAP2 SWAP5 POP SWAP3 POP JUMP JUMPDEST PUSH1 0x80 MLOAD PUSH2 0x14E7 PUSH2 0x1F8 PUSH1 0x0 CODECOPY PUSH1 0x0 DUP2 DUP2 PUSH2 0x1CF ADD MSTORE DUP2 DUP2 PUSH2 0x950 ADD MSTORE DUP2 DUP2 PUSH2 0xDDD ADD MSTORE DUP2 DUP2 PUSH2 0xE77 ADD MSTORE PUSH2 0x1185 ADD MSTORE PUSH2 0x14E7 PUSH1 0x0 RETURN INVALID PUSH1 0x80 PUSH1 0x40 MSTORE CALLVALUE DUP1 ISZERO PUSH2 0x10 JUMPI PUSH1 0x0 DUP1 REVERT JUMPDEST POP PUSH1 0x4 CALLDATASIZE LT PUSH2 0x1A9 JUMPI PUSH1 0x0 CALLDATALOAD PUSH1 0xE0 SHR DUP1 PUSH4 0x8DA5CB5B GT PUSH2 0xF9 JUMPI DUP1 PUSH4 0xC25A02EC GT PUSH2 0x97 JUMPI DUP1 PUSH4 0xE082FE2A GT PUSH2 0x71 JUMPI DUP1 PUSH4 0xE082FE2A EQ PUSH2 0x37C JUMPI DUP1 PUSH4 0xF22069DF EQ PUSH2 0x384 JUMPI DUP1 PUSH4 0xF2FDE38B EQ PUSH2 0x38C JUMPI DUP1 PUSH4 0xFC05542A EQ PUSH2 0x39F JUMPI PUSH1 0x0 DUP1 REVERT JUMPDEST DUP1 PUSH4 0xC25A02EC EQ PUSH2 0x358 JUMPI DUP1 PUSH4 0xD335993A EQ PUSH2 0x361 JUMPI DUP1 PUSH4 0xD9084326 EQ PUSH2 0x374 JUMPI PUSH1 0x0 DUP1 REVERT JUMPDEST DUP1 PUSH4 0xA0858343 GT PUSH2 0xD3 JUMPI DUP1 PUSH4 0xA0858343 EQ PUSH2 0x309 JUMPI DUP1 PUSH4 0xA34DB0A0 EQ PUSH2 0x31C JUMPI DUP1 PUSH4 0xA6A09811 EQ PUSH2 0x33C JUMPI DUP1 PUSH4 0xB0702913 EQ PUSH2 0x345 JUMPI PUSH1 0x0 DUP1 REVERT JUMPDEST DUP1 PUSH4 0x8DA5CB5B EQ PUSH2 0x2D2 JUMPI DUP1 PUSH4 0x98B48493 EQ PUSH2 0x2E3 JUMPI DUP1 PUSH4 0x9A0474E8 EQ PUSH2 0x2F6 JUMPI PUSH1 0x0 DUP1 REVERT JUMPDEST DUP1 PUSH4 0x6FA1C59D GT PUSH2 0x166 JUMPI DUP1 PUSH4 0x715018A6 GT PUSH2 0x140 JUMPI DUP1 PUSH4 0x715018A6 EQ PUSH2 0x28C JUMPI DUP1 PUSH4 0x741AE614 EQ PUSH2 0x294 JUMPI DUP1 PUSH4 0x7A0ABF08 EQ PUSH2 0x29C JUMPI DUP1 PUSH4 0x85737020 EQ PUSH2 0x2A5 JUMPI PUSH1 0x0 DUP1 REVERT JUMPDEST DUP1 PUSH4 0x6FA1C59D EQ PUSH2 0x250 JUMPI DUP1 PUSH4 0x6FF65C20 EQ PUSH2 0x258 JUMPI DUP1 PUSH4 0x7069243C EQ PUSH2 0x284 JUMPI PUSH1 0x0 DUP1 REVERT JUMPDEST DUP1 PUSH4 0x1318FBF1 EQ PUSH2 0x1AE JUMPI DUP1 PUSH4 0x1FCCF672 EQ PUSH2 0x1CA JUMPI DUP1 PUSH4 0x3960FC66 EQ PUSH2 0x209 JUMPI DUP1 PUSH4 0x528780CC EQ PUSH2 0x213 JUMPI DUP1 PUSH4 0x5C975ABB EQ PUSH2 0x226 JUMPI DUP1 PUSH4 0x64BB632F EQ PUSH2 0x23D JUMPI JUMPDEST PUSH1 0x0 DUP1 REVERT JUMPDEST PUSH2 0x1B7 PUSH1 0x7 SLOAD DUP2 JUMP JUMPDEST PUSH1 0x40 MLOAD SWAP1 DUP2 MSTORE PUSH1 0x20 ADD JUMPDEST PUSH1 0x40 MLOAD DUP1 SWAP2 SUB SWAP1 RETURN JUMPDEST PUSH2 0x1F1 PUSH32 0x0 DUP2 JUMP JUMPDEST PUSH1 0x40 MLOAD PUSH1 0x1 PUSH1 0x1 PUSH1 0xA0 SHL SUB SWAP1 SWAP2 AND DUP2 MSTORE PUSH1 0x20 ADD PUSH2 0x1C1 JUMP JUMPDEST PUSH2 0x211 PUSH2 0x3CB JUMP JUMPDEST STOP JUMPDEST PUSH2 0x211 PUSH2 0x221 CALLDATASIZE PUSH1 0x4 PUSH2 0x12BE JUMP JUMPDEST PUSH2 0x3DD JUMP JUMPDEST PUSH1 0x2 SLOAD PUSH1 0xFF AND JUMPDEST PUSH1 0x40 MLOAD SWAP1 ISZERO ISZERO DUP2 MSTORE PUSH1 0x20 ADD PUSH2 0x1C1 JUMP JUMPDEST PUSH2 0x211 PUSH2 0x24B CALLDATASIZE PUSH1 0x4 PUSH2 0x12BE JUMP JUMPDEST PUSH2 0x44F JUMP JUMPDEST PUSH1 0x6 SLOAD PUSH2 0x1B7 JUMP JUMPDEST PUSH2 0x22D PUSH2 0x266 CALLDATASIZE PUSH1 0x4 PUSH2 0x12F3 JUMP JUMPDEST PUSH1 0x1 PUSH1 0x1 PUSH1 0xA0 SHL SUB AND PUSH1 0x0 SWAP1 DUP2 MSTORE PUSH1 0x4 PUSH1 0x20 MSTORE PUSH1 0x40 SWAP1 KECCAK256 SLOAD PUSH1 0xFF AND SWAP1 JUMP JUMPDEST PUSH1 0x5 SLOAD PUSH2 0x1B7 JUMP JUMPDEST PUSH2 0x211 PUSH2 0x4B8 JUMP JUMPDEST PUSH1 0x7 SLOAD PUSH2 0x1B7 JUMP JUMPDEST PUSH2 0x1B7 PUSH1 0x5 SLOAD DUP2 JUMP JUMPDEST PUSH2 0x22D PUSH2 0x2B3 CALLDATASIZE PUSH1 0x4 PUSH2 0x12F3 JUMP JUMPDEST PUSH1 0x1 PUSH1 0x1 PUSH1 0xA0 SHL SUB AND PUSH1 0x0 SWAP1 DUP2 MSTORE PUSH1 0x3 PUSH1 0x20 MSTORE PUSH1 0x40 SWAP1 KECCAK256 SLOAD PUSH1 0xFF AND ISZERO SWAP1 JUMP JUMPDEST PUSH1 0x0 SLOAD PUSH1 0x1 PUSH1 0x1 PUSH1 0xA0 SHL SUB AND PUSH2 0x1F1 JUMP JUMPDEST PUSH2 0x211 PUSH2 0x2F1 CALLDATASIZE PUSH1 0x4 PUSH2 0x1315 JUMP JUMPDEST PUSH2 0x4CA JUMP JUMPDEST PUSH2 0x211 PUSH2 0x304 CALLDATASIZE PUSH1 0x4 PUSH2 0x1315 JUMP JUMPDEST PUSH2 0x69B JUMP JUMPDEST PUSH2 0x211 PUSH2 0x317 CALLDATASIZE PUSH1 0x4 PUSH2 0x12F3 JUMP JUMPDEST PUSH2 0x866 JUMP JUMPDEST PUSH2 0x32F PUSH2 0x32A CALLDATASIZE PUSH1 0x4 PUSH2 0x1315 JUMP JUMPDEST PUSH2 0xA26 JUMP JUMPDEST PUSH1 0x40 MLOAD PUSH2 0x1C1 SWAP2 SWAP1 PUSH2 0x138C JUMP JUMPDEST PUSH2 0x1B7 PUSH1 0x6 SLOAD DUP2 JUMP JUMPDEST PUSH2 0x211 PUSH2 0x353 CALLDATASIZE PUSH1 0x4 PUSH2 0x12F3 JUMP JUMPDEST PUSH2 0xBD4 JUMP JUMPDEST PUSH2 0x1B7 PUSH1 0x8 SLOAD DUP2 JUMP JUMPDEST PUSH2 0x211 PUSH2 0x36F CALLDATASIZE PUSH1 0x4 PUSH2 0x12F3 JUMP JUMPDEST PUSH2 0xCB2 JUMP JUMPDEST PUSH1 0x8 SLOAD PUSH2 0x1B7 JUMP JUMPDEST PUSH2 0x211 PUSH2 0xD9D JUMP JUMPDEST PUSH2 0x211 PUSH2 0xDAD JUMP JUMPDEST PUSH2 0x211 PUSH2 0x39A CALLDATASIZE PUSH1 0x4 PUSH2 0x12F3 JUMP JUMPDEST PUSH2 0xFA6 JUMP JUMPDEST PUSH2 0x22D PUSH2 0x3AD CALLDATASIZE PUSH1 0x4 PUSH2 0x12F3 JUMP JUMPDEST PUSH1 0x1 PUSH1 0x1 PUSH1 0xA0 SHL SUB AND PUSH1 0x0 SWAP1 DUP2 MSTORE PUSH1 0x3 PUSH1 0x20 MSTORE PUSH1 0x40 SWAP1 KECCAK256 SLOAD PUSH1 0xFF AND SWAP1 JUMP JUMPDEST PUSH2 0x3D3 PUSH2 0xFE1 JUMP JUMPDEST PUSH2 0x3DB PUSH2 0x100E JUMP JUMPDEST JUMP JUMPDEST PUSH2 0x3E5 PUSH2 0xFE1 JUMP JUMPDEST DUP1 PUSH1 0x0 SUB PUSH2 0x406 JUMPI PUSH1 0x40 MLOAD PUSH4 0x36C5EEC7 PUSH1 0xE2 SHL DUP2 MSTORE PUSH1 0x4 ADD PUSH1 0x40 MLOAD DUP1 SWAP2 SUB SWAP1 REVERT JUMPDEST PUSH1 0x6 DUP1 SLOAD SWAP1 DUP3 SWAP1 SSTORE PUSH1 0x40 DUP1 MLOAD DUP3 DUP2 MSTORE PUSH1 0x20 DUP2 ADD DUP5 SWAP1 MSTORE DUP4 SWAP2 PUSH32 0x2E31E8893A04CE5258044D342D7658948A6AC9710D97E32462AB75F131AE11EF SWAP2 ADD JUMPDEST PUSH1 0x40 MLOAD DUP1 SWAP2 SUB SWAP1 LOG1 POP POP POP JUMP JUMPDEST PUSH2 0x457 PUSH2 0xFE1 JUMP JUMPDEST DUP1 PUSH1 0x0 SUB PUSH2 0x478 JUMPI PUSH1 0x40 MLOAD PUSH4 0xD428A01 PUSH1 0xE4 SHL DUP2 MSTORE PUSH1 0x4 ADD PUSH1 0x40 MLOAD DUP1 SWAP2 SUB SWAP1 REVERT JUMPDEST PUSH1 0x5 DUP1 SLOAD SWAP1 DUP3 SWAP1 SSTORE PUSH1 0x40 DUP1 MLOAD DUP3 DUP2 MSTORE PUSH1 0x20 DUP2 ADD DUP5 SWAP1 MSTORE DUP4 SWAP2 PUSH32 0xF0D37C3AE852021AC329281F604B658691CBFA6B9E9C22909F06B64A8CE87C94 SWAP2 ADD PUSH2 0x442 JUMP JUMPDEST PUSH2 0x4C0 PUSH2 0xFE1 JUMP JUMPDEST PUSH2 0x3DB PUSH1 0x0 PUSH2 0x1060 JUMP JUMPDEST PUSH2 0x4D2 PUSH2 0xFE1 JUMP JUMPDEST DUP1 PUSH1 0x0 DUP2 SWAP1 SUB PUSH2 0x4F5 JUMPI PUSH1 0x40 MLOAD PUSH4 0x4EC48105 PUSH1 0xE1 SHL DUP2 MSTORE PUSH1 0x4 ADD PUSH1 0x40 MLOAD DUP1 SWAP2 SUB SWAP1 REVERT JUMPDEST PUSH1 0x0 JUMPDEST DUP2 DUP2 LT ISZERO PUSH2 0x5F6 JUMPI PUSH1 0x0 DUP5 DUP5 DUP4 DUP2 DUP2 LT PUSH2 0x514 JUMPI PUSH2 0x514 PUSH2 0x13D8 JUMP JUMPDEST SWAP1 POP PUSH1 0x20 MUL ADD PUSH1 0x20 DUP2 ADD SWAP1 PUSH2 0x529 SWAP2 SWAP1 PUSH2 0x12F3 JUMP JUMPDEST PUSH1 0x1 PUSH1 0x1 PUSH1 0xA0 SHL SUB AND SUB PUSH2 0x550 JUMPI PUSH1 0x40 MLOAD PUSH4 0xD92E233D PUSH1 0xE0 SHL DUP2 MSTORE PUSH1 0x4 ADD PUSH1 0x40 MLOAD DUP1 SWAP2 SUB SWAP1 REVERT JUMPDEST PUSH1 0x3 PUSH1 0x0 DUP6 DUP6 DUP5 DUP2 DUP2 LT PUSH2 0x566 JUMPI PUSH2 0x566 PUSH2 0x13D8 JUMP JUMPDEST SWAP1 POP PUSH1 0x20 MUL ADD PUSH1 0x20 DUP2 ADD SWAP1 PUSH2 0x57B SWAP2 SWAP1 PUSH2 0x12F3 JUMP JUMPDEST PUSH1 0x1 PUSH1 0x1 PUSH1 0xA0 SHL SUB AND DUP2 MSTORE PUSH1 0x20 DUP2 ADD SWAP2 SWAP1 SWAP2 MSTORE PUSH1 0x40 ADD PUSH1 0x0 KECCAK256 SLOAD PUSH1 0xFF AND ISZERO PUSH2 0x5EE JUMPI DUP4 DUP4 DUP3 DUP2 DUP2 LT PUSH2 0x5AF JUMPI PUSH2 0x5AF PUSH2 0x13D8 JUMP JUMPDEST SWAP1 POP PUSH1 0x20 MUL ADD PUSH1 0x20 DUP2 ADD SWAP1 PUSH2 0x5C4 SWAP2 SWAP1 PUSH2 0x12F3 JUMP JUMPDEST PUSH1 0x40 MLOAD PUSH4 0x3746725B PUSH1 0xE1 SHL DUP2 MSTORE PUSH1 0x1 PUSH1 0x1 PUSH1 0xA0 SHL SUB SWAP1 SWAP2 AND PUSH1 0x4 DUP3 ADD MSTORE PUSH1 0x24 ADD JUMPDEST PUSH1 0x40 MLOAD DUP1 SWAP2 SUB SWAP1 REVERT JUMPDEST PUSH1 0x1 ADD PUSH2 0x4F8 JUMP JUMPDEST POP PUSH1 0x0 JUMPDEST DUP2 DUP2 LT ISZERO PUSH2 0x669 JUMPI PUSH1 0x1 PUSH1 0x3 PUSH1 0x0 DUP7 DUP7 DUP6 DUP2 DUP2 LT PUSH2 0x61A JUMPI PUSH2 0x61A PUSH2 0x13D8 JUMP JUMPDEST SWAP1 POP PUSH1 0x20 MUL ADD PUSH1 0x20 DUP2 ADD SWAP1 PUSH2 0x62F SWAP2 SWAP1 PUSH2 0x12F3 JUMP JUMPDEST PUSH1 0x1 PUSH1 0x1 PUSH1 0xA0 SHL SUB AND DUP2 MSTORE PUSH1 0x20 DUP2 ADD SWAP2 SWAP1 SWAP2 MSTORE PUSH1 0x40 ADD PUSH1 0x0 KECCAK256 DUP1 SLOAD PUSH1 0xFF NOT AND SWAP2 ISZERO ISZERO SWAP2 SWAP1 SWAP2 OR SWAP1 SSTORE PUSH1 0x8 DUP1 SLOAD PUSH1 0x1 SWAP1 DUP2 ADD SWAP1 SWAP2 SSTORE ADD PUSH2 0x5FA JUMP JUMPDEST POP PUSH32 0x9A9F2A64A3B0B4774DA60129AA707715E049CB95062F7ACAAFFC07DDC244C1CC DUP4 DUP4 PUSH1 0x40 MLOAD PUSH2 0x442 SWAP3 SWAP2 SWAP1 PUSH2 0x13EE JUMP JUMPDEST PUSH2 0x6A3 PUSH2 0xFE1 JUMP JUMPDEST DUP1 PUSH1 0x0 DUP2 SWAP1 SUB PUSH2 0x6C6 JUMPI PUSH1 0x40 MLOAD PUSH4 0x4EC48105 PUSH1 0xE1 SHL DUP2 MSTORE PUSH1 0x4 ADD PUSH1 0x40 MLOAD DUP1 SWAP2 SUB SWAP1 REVERT JUMPDEST PUSH1 0x0 JUMPDEST DUP2 DUP2 LT ISZERO PUSH2 0x7C1 JUMPI PUSH1 0x0 DUP5 DUP5 DUP4 DUP2 DUP2 LT PUSH2 0x6E5 JUMPI PUSH2 0x6E5 PUSH2 0x13D8 JUMP JUMPDEST SWAP1 POP PUSH1 0x20 MUL ADD PUSH1 0x20 DUP2 ADD SWAP1 PUSH2 0x6FA SWAP2 SWAP1 PUSH2 0x12F3 JUMP JUMPDEST PUSH1 0x1 PUSH1 0x1 PUSH1 0xA0 SHL SUB AND SUB PUSH2 0x721 JUMPI PUSH1 0x40 MLOAD PUSH4 0xD92E233D PUSH1 0xE0 SHL DUP2 MSTORE PUSH1 0x4 ADD PUSH1 0x40 MLOAD DUP1 SWAP2 SUB SWAP1 REVERT JUMPDEST PUSH1 0x3 PUSH1 0x0 DUP6 DUP6 DUP5 DUP2 DUP2 LT PUSH2 0x737 JUMPI PUSH2 0x737 PUSH2 0x13D8 JUMP JUMPDEST SWAP1 POP PUSH1 0x20 MUL ADD PUSH1 0x20 DUP2 ADD SWAP1 PUSH2 0x74C SWAP2 SWAP1 PUSH2 0x12F3 JUMP JUMPDEST PUSH1 0x1 PUSH1 0x1 PUSH1 0xA0 SHL SUB AND DUP2 MSTORE PUSH1 0x20 DUP2 ADD SWAP2 SWAP1 SWAP2 MSTORE PUSH1 0x40 ADD PUSH1 0x0 KECCAK256 SLOAD PUSH1 0xFF AND PUSH2 0x7B9 JUMPI DUP4 DUP4 DUP3 DUP2 DUP2 LT PUSH2 0x77F JUMPI PUSH2 0x77F PUSH2 0x13D8 JUMP JUMPDEST SWAP1 POP PUSH1 0x20 MUL ADD PUSH1 0x20 DUP2 ADD SWAP1 PUSH2 0x794 SWAP2 SWAP1 PUSH2 0x12F3 JUMP JUMPDEST PUSH1 0x40 MLOAD PUSH4 0xDE55CC33 PUSH1 0xE0 SHL DUP2 MSTORE PUSH1 0x1 PUSH1 0x1 PUSH1 0xA0 SHL SUB SWAP1 SWAP2 AND PUSH1 0x4 DUP3 ADD MSTORE PUSH1 0x24 ADD PUSH2 0x5E5 JUMP JUMPDEST PUSH1 0x1 ADD PUSH2 0x6C9 JUMP JUMPDEST POP PUSH1 0x0 JUMPDEST DUP2 DUP2 LT ISZERO PUSH2 0x834 JUMPI PUSH1 0x0 PUSH1 0x3 PUSH1 0x0 DUP7 DUP7 DUP6 DUP2 DUP2 LT PUSH2 0x7E5 JUMPI PUSH2 0x7E5 PUSH2 0x13D8 JUMP JUMPDEST SWAP1 POP PUSH1 0x20 MUL ADD PUSH1 0x20 DUP2 ADD SWAP1 PUSH2 0x7FA SWAP2 SWAP1 PUSH2 0x12F3 JUMP JUMPDEST PUSH1 0x1 PUSH1 0x1 PUSH1 0xA0 SHL SUB AND DUP2 MSTORE PUSH1 0x20 DUP2 ADD SWAP2 SWAP1 SWAP2 MSTORE PUSH1 0x40 ADD PUSH1 0x0 KECCAK256 DUP1 SLOAD PUSH1 0xFF NOT AND SWAP2 ISZERO ISZERO SWAP2 SWAP1 SWAP2 OR SWAP1 SSTORE PUSH1 0x8 DUP1 SLOAD PUSH1 0x0 NOT ADD SWAP1 SSTORE PUSH1 0x1 ADD PUSH2 0x7C5 JUMP JUMPDEST POP PUSH32 0xD68B41369D54FACA53E699320360840DB6E0E2E175D3974EB304FD18713D916B DUP4 DUP4 PUSH1 0x40 MLOAD PUSH2 0x442 SWAP3 SWAP2 SWAP1 PUSH2 0x13EE JUMP JUMPDEST PUSH2 0x86E PUSH2 0x10B0 JUMP JUMPDEST PUSH2 0x876 PUSH2 0x10D4 JUMP JUMPDEST DUP1 CALLER PUSH1 0x1 PUSH1 0x1 PUSH1 0xA0 SHL SUB DUP3 AND EQ PUSH2 0x8AB JUMPI PUSH1 0x40 MLOAD PUSH4 0x44B50405 PUSH1 0xE0 SHL DUP2 MSTORE PUSH1 0x1 PUSH1 0x1 PUSH1 0xA0 SHL SUB DUP3 AND PUSH1 0x4 DUP3 ADD MSTORE PUSH1 0x24 ADD PUSH2 0x5E5 JUMP JUMPDEST PUSH1 0x1 PUSH1 0x1 PUSH1 0xA0 SHL SUB DUP3 AND PUSH1 0x0 SWAP1 DUP2 MSTORE PUSH1 0x3 PUSH1 0x20 MSTORE PUSH1 0x40 SWAP1 KECCAK256 SLOAD DUP3 SWAP1 PUSH1 0xFF AND PUSH2 0x8F1 JUMPI PUSH1 0x40 MLOAD PUSH4 0xDE55CC33 PUSH1 0xE0 SHL DUP2 MSTORE PUSH1 0x1 PUSH1 0x1 PUSH1 0xA0 SHL SUB DUP3 AND PUSH1 0x4 DUP3 ADD MSTORE PUSH1 0x24 ADD PUSH2 0x5E5 JUMP JUMPDEST PUSH1 0x1 PUSH1 0x1 PUSH1 0xA0 SHL SUB DUP4 AND PUSH1 0x0 SWAP1 DUP2 MSTORE PUSH1 0x4 PUSH1 0x20 MSTORE PUSH1 0x40 SWAP1 KECCAK256 SLOAD DUP4 SWAP1 PUSH1 0xFF AND ISZERO PUSH2 0x938 JUMPI PUSH1 0x40 MLOAD PUSH4 0x1EE5F6F PUSH1 0xE3 SHL DUP2 MSTORE PUSH1 0x1 PUSH1 0x1 PUSH1 0xA0 SHL SUB DUP3 AND PUSH1 0x4 DUP3 ADD MSTORE PUSH1 0x24 ADD PUSH2 0x5E5 JUMP JUMPDEST PUSH1 0x5 SLOAD PUSH1 0x40 MLOAD PUSH4 0x70A08231 PUSH1 0xE0 SHL DUP2 MSTORE ADDRESS PUSH1 0x4 DUP3 ADD MSTORE PUSH32 0x0 PUSH1 0x1 PUSH1 0x1 PUSH1 0xA0 SHL SUB AND SWAP1 PUSH4 0x70A08231 SWAP1 PUSH1 0x24 ADD PUSH1 0x20 PUSH1 0x40 MLOAD DUP1 DUP4 SUB DUP2 DUP7 GAS STATICCALL ISZERO DUP1 ISZERO PUSH2 0x99F JUMPI RETURNDATASIZE PUSH1 0x0 DUP1 RETURNDATACOPY RETURNDATASIZE PUSH1 0x0 REVERT JUMPDEST POP POP POP POP PUSH1 0x40 MLOAD RETURNDATASIZE PUSH1 0x1F NOT PUSH1 0x1F DUP3 ADD AND DUP3 ADD DUP1 PUSH1 0x40 MSTORE POP DUP2 ADD SWAP1 PUSH2 0x9C3 SWAP2 SWAP1 PUSH2 0x1439 JUMP JUMPDEST LT ISZERO PUSH2 0x9E2 JUMPI PUSH1 0x40 MLOAD PUSH4 0x786E0A99 PUSH1 0xE0 SHL DUP2 MSTORE PUSH1 0x4 ADD PUSH1 0x40 MLOAD DUP1 SWAP2 SUB SWAP1 REVERT JUMPDEST PUSH1 0x6 SLOAD PUSH1 0x7 SLOAD SUB PUSH2 0xA05 JUMPI PUSH1 0x40 MLOAD PUSH3 0x27007F PUSH1 0xEA SHL DUP2 MSTORE PUSH1 0x4 ADD PUSH1 0x40 MLOAD DUP1 SWAP2 SUB SWAP1 REVERT JUMPDEST PUSH2 0xA0E DUP5 PUSH2 0x10FE JUMP JUMPDEST PUSH2 0xA17 DUP5 PUSH2 0x1158 JUMP JUMPDEST POP POP POP PUSH2 0xA23 PUSH1 0x1 DUP1 SSTORE JUMP JUMPDEST POP JUMP JUMPDEST PUSH1 0x60 DUP2 PUSH1 0x0 DUP2 SWAP1 SUB PUSH2 0xA4B JUMPI PUSH1 0x40 MLOAD PUSH4 0x4EC48105 PUSH1 0xE1 SHL DUP2 MSTORE PUSH1 0x4 ADD PUSH1 0x40 MLOAD DUP1 SWAP2 SUB SWAP1 REVERT JUMPDEST PUSH1 0x0 DUP1 JUMPDEST DUP3 DUP2 LT ISZERO PUSH2 0xABA JUMPI PUSH1 0x3 PUSH1 0x0 DUP8 DUP8 DUP5 DUP2 DUP2 LT PUSH2 0xA6D JUMPI PUSH2 0xA6D PUSH2 0x13D8 JUMP JUMPDEST SWAP1 POP PUSH1 0x20 MUL ADD PUSH1 0x20 DUP2 ADD SWAP1 PUSH2 0xA82 SWAP2 SWAP1 PUSH2 0x12F3 JUMP JUMPDEST PUSH1 0x1 PUSH1 0x1 PUSH1 0xA0 SHL SUB AND DUP2 MSTORE PUSH1 0x20 DUP2 ADD SWAP2 SWAP1 SWAP2 MSTORE PUSH1 0x40 ADD PUSH1 0x0 KECCAK256 SLOAD PUSH1 0xFF AND ISZERO PUSH2 0xAB2 JUMPI DUP2 PUSH2 0xAAE DUP2 PUSH2 0x1452 JUMP JUMPDEST SWAP3 POP POP JUMPDEST PUSH1 0x1 ADD PUSH2 0xA4F JUMP JUMPDEST POP PUSH1 0x0 DUP2 PUSH8 0xFFFFFFFFFFFFFFFF DUP2 GT ISZERO PUSH2 0xAD6 JUMPI PUSH2 0xAD6 PUSH2 0x1479 JUMP JUMPDEST PUSH1 0x40 MLOAD SWAP1 DUP1 DUP3 MSTORE DUP1 PUSH1 0x20 MUL PUSH1 0x20 ADD DUP3 ADD PUSH1 0x40 MSTORE DUP1 ISZERO PUSH2 0xAFF JUMPI DUP2 PUSH1 0x20 ADD PUSH1 0x20 DUP3 MUL DUP1 CALLDATASIZE DUP4 CALLDATACOPY ADD SWAP1 POP JUMPDEST POP SWAP1 POP PUSH1 0x0 DUP1 JUMPDEST DUP5 DUP2 LT ISZERO PUSH2 0xBC8 JUMPI PUSH1 0x3 PUSH1 0x0 DUP10 DUP10 DUP5 DUP2 DUP2 LT PUSH2 0xB24 JUMPI PUSH2 0xB24 PUSH2 0x13D8 JUMP JUMPDEST SWAP1 POP PUSH1 0x20 MUL ADD PUSH1 0x20 DUP2 ADD SWAP1 PUSH2 0xB39 SWAP2 SWAP1 PUSH2 0x12F3 JUMP JUMPDEST PUSH1 0x1 PUSH1 0x1 PUSH1 0xA0 SHL SUB AND DUP2 MSTORE PUSH1 0x20 DUP2 ADD SWAP2 SWAP1 SWAP2 MSTORE PUSH1 0x40 ADD PUSH1 0x0 KECCAK256 SLOAD PUSH1 0xFF AND ISZERO PUSH2 0xBC0 JUMPI DUP8 DUP8 DUP3 DUP2 DUP2 LT PUSH2 0xB6D JUMPI PUSH2 0xB6D PUSH2 0x13D8 JUMP JUMPDEST SWAP1 POP PUSH1 0x20 MUL ADD PUSH1 0x20 DUP2 ADD SWAP1 PUSH2 0xB82 SWAP2 SWAP1 PUSH2 0x12F3 JUMP JUMPDEST DUP4 DUP4 PUSH2 0xB8D DUP2 PUSH2 0x1452 JUMP JUMPDEST SWAP5 POP DUP2 MLOAD DUP2 LT PUSH2 0xB9F JUMPI PUSH2 0xB9F PUSH2 0x13D8 JUMP JUMPDEST PUSH1 0x20 MUL PUSH1 0x20 ADD ADD SWAP1 PUSH1 0x1 PUSH1 0x1 PUSH1 0xA0 SHL SUB AND SWAP1 DUP2 PUSH1 0x1 PUSH1 0x1 PUSH1 0xA0 SHL SUB AND DUP2 MSTORE POP POP JUMPDEST PUSH1 0x1 ADD PUSH2 0xB06 JUMP JUMPDEST POP SWAP1 SWAP7 SWAP6 POP POP POP POP POP POP JUMP JUMPDEST PUSH2 0xBDC PUSH2 0xFE1 JUMP JUMPDEST PUSH1 0x1 PUSH1 0x1 PUSH1 0xA0 SHL SUB DUP2 AND PUSH1 0x0 SWAP1 DUP2 MSTORE PUSH1 0x3 PUSH1 0x20 MSTORE PUSH1 0x40 SWAP1 KECCAK256 SLOAD DUP2 SWAP1 PUSH1 0xFF AND ISZERO PUSH2 0xC23 JUMPI PUSH1 0x40 MLOAD PUSH4 0x3746725B PUSH1 0xE1 SHL DUP2 MSTORE PUSH1 0x1 PUSH1 0x1 PUSH1 0xA0 SHL SUB DUP3 AND PUSH1 0x4 DUP3 ADD MSTORE PUSH1 0x24 ADD PUSH2 0x5E5 JUMP JUMPDEST PUSH1 0x1 PUSH1 0x1 PUSH1 0xA0 SHL SUB DUP3 AND PUSH2 0xC4A JUMPI PUSH1 0x40 MLOAD PUSH4 0xD92E233D PUSH1 0xE0 SHL DUP2 MSTORE PUSH1 0x4 ADD PUSH1 0x40 MLOAD DUP1 SWAP2 SUB SWAP1 REVERT JUMPDEST PUSH1 0x1 PUSH1 0x1 PUSH1 0xA0 SHL SUB DUP3 AND PUSH1 0x0 DUP2 DUP2 MSTORE PUSH1 0x3 PUSH1 0x20 SWAP1 DUP2 MSTORE PUSH1 0x40 SWAP2 DUP3 SWAP1 KECCAK256 DUP1 SLOAD PUSH1 0xFF NOT AND PUSH1 0x1 SWAP1 DUP2 OR SWAP1 SWAP2 SSTORE PUSH1 0x8 DUP1 SLOAD SWAP1 SWAP2 ADD SWAP1 SSTORE SWAP1 MLOAD SWAP2 DUP3 MSTORE PUSH32 0x1AFDE38C60D2BE0D28D001619816D86C39CE78B350C9D94F23C095099B9C1D27 SWAP2 ADD JUMPDEST PUSH1 0x40 MLOAD DUP1 SWAP2 SUB SWAP1 LOG1 POP POP JUMP JUMPDEST PUSH2 0xCBA PUSH2 0xFE1 JUMP JUMPDEST PUSH1 0x1 PUSH1 0x1 PUSH1 0xA0 SHL SUB DUP2 AND PUSH1 0x0 SWAP1 DUP2 MSTORE PUSH1 0x3 PUSH1 0x20 MSTORE PUSH1 0x40 SWAP1 KECCAK256 SLOAD DUP2 SWAP1 PUSH1 0xFF AND ISZERO PUSH2 0xD1B JUMPI PUSH1 0x40 MLOAD PUSH3 0x461BCD PUSH1 0xE5 SHL DUP2 MSTORE PUSH1 0x20 PUSH1 0x4 DUP3 ADD MSTORE PUSH1 0x13 PUSH1 0x24 DUP3 ADD MSTORE PUSH19 0x135D5CDD081899481DDA1A5D195B1A5CDD1959 PUSH1 0x6A SHL PUSH1 0x44 DUP3 ADD MSTORE PUSH1 0x64 ADD PUSH2 0x5E5 JUMP JUMPDEST PUSH1 0x1 PUSH1 0x1 PUSH1 0xA0 SHL SUB DUP3 AND PUSH2 0xD42 JUMPI PUSH1 0x40 MLOAD PUSH4 0xD92E233D PUSH1 0xE0 SHL DUP2 MSTORE PUSH1 0x4 ADD PUSH1 0x40 MLOAD DUP1 SWAP2 SUB SWAP1 REVERT JUMPDEST PUSH1 0x1 PUSH1 0x1 PUSH1 0xA0 SHL SUB DUP3 AND PUSH1 0x0 DUP2 DUP2 MSTORE PUSH1 0x3 PUSH1 0x20 SWAP1 DUP2 MSTORE PUSH1 0x40 SWAP2 DUP3 SWAP1 KECCAK256 DUP1 SLOAD PUSH1 0xFF NOT AND SWAP1 SSTORE PUSH1 0x8 DUP1 SLOAD PUSH1 0x0 NOT ADD SWAP1 SSTORE SWAP1 MLOAD SWAP2 DUP3 MSTORE PUSH32 0xA354190DD7342316E40E5358C9F72037F2C677CDC057D3DEBBC4F1B62495E2E2 SWAP2 ADD PUSH2 0xCA6 JUMP JUMPDEST PUSH2 0xDA5 PUSH2 0xFE1 JUMP JUMPDEST PUSH2 0x3DB PUSH2 0x125E JUMP JUMPDEST PUSH2 0xDB5 PUSH2 0xFE1 JUMP JUMPDEST PUSH2 0xDBD PUSH2 0x10B0 JUMP JUMPDEST PUSH2 0xDC5 PUSH2 0x10D4 JUMP JUMPDEST PUSH1 0x40 MLOAD PUSH4 0x70A08231 PUSH1 0xE0 SHL DUP2 MSTORE ADDRESS PUSH1 0x4 DUP3 ADD MSTORE PUSH1 0x0 SWAP1 PUSH32 0x0 PUSH1 0x1 PUSH1 0x1 PUSH1 0xA0 SHL SUB AND SWAP1 PUSH4 0x70A08231 SWAP1 PUSH1 0x24 ADD PUSH1 0x20 PUSH1 0x40 MLOAD DUP1 DUP4 SUB DUP2 DUP7 GAS STATICCALL ISZERO DUP1 ISZERO PUSH2 0xE2C JUMPI RETURNDATASIZE PUSH1 0x0 DUP1 RETURNDATACOPY RETURNDATASIZE PUSH1 0x0 REVERT JUMPDEST POP POP POP POP PUSH1 0x40 MLOAD RETURNDATASIZE PUSH1 0x1F NOT PUSH1 0x1F DUP3 ADD AND DUP3 ADD DUP1 PUSH1 0x40 MSTORE POP DUP2 ADD SWAP1 PUSH2 0xE50 SWAP2 SWAP1 PUSH2 0x1439 JUMP JUMPDEST SWAP1 POP DUP1 PUSH1 0x0 SUB PUSH2 0xE73 JUMPI PUSH1 0x40 MLOAD PUSH4 0x16E3FF05 PUSH1 0xE2 SHL DUP2 MSTORE PUSH1 0x4 ADD PUSH1 0x40 MLOAD DUP1 SWAP2 SUB SWAP1 REVERT JUMPDEST PUSH1 0x0 PUSH32 0x0 PUSH1 0x1 PUSH1 0x1 PUSH1 0xA0 SHL SUB AND PUSH4 0xA9059CBB PUSH2 0xEB6 PUSH1 0x0 SLOAD PUSH1 0x1 PUSH1 0x1 PUSH1 0xA0 SHL SUB AND SWAP1 JUMP JUMPDEST PUSH1 0x40 MLOAD PUSH1 0x1 PUSH1 0x1 PUSH1 0xE0 SHL SUB NOT PUSH1 0xE0 DUP5 SWAP1 SHL AND DUP2 MSTORE PUSH1 0x1 PUSH1 0x1 PUSH1 0xA0 SHL SUB SWAP1 SWAP2 AND PUSH1 0x4 DUP3 ADD MSTORE PUSH1 0x24 DUP2 ADD DUP6 SWAP1 MSTORE PUSH1 0x44 ADD PUSH1 0x20 PUSH1 0x40 MLOAD DUP1 DUP4 SUB DUP2 PUSH1 0x0 DUP8 GAS CALL ISZERO DUP1 ISZERO PUSH2 0xF03 JUMPI RETURNDATASIZE PUSH1 0x0 DUP1 RETURNDATACOPY RETURNDATASIZE PUSH1 0x0 REVERT JUMPDEST POP POP POP POP PUSH1 0x40 MLOAD RETURNDATASIZE PUSH1 0x1F NOT PUSH1 0x1F DUP3 ADD AND DUP3 ADD DUP1 PUSH1 0x40 MSTORE POP DUP2 ADD SWAP1 PUSH2 0xF27 SWAP2 SWAP1 PUSH2 0x148F JUMP JUMPDEST SWAP1 POP DUP1 PUSH2 0xF47 JUMPI PUSH1 0x40 MLOAD PUSH4 0x27FCD9D1 PUSH1 0xE0 SHL DUP2 MSTORE PUSH1 0x4 ADD PUSH1 0x40 MLOAD DUP1 SWAP2 SUB SWAP1 REVERT JUMPDEST PUSH32 0x2036B9B38B69A2FA490EE702733A29CD2550ACCC20BC96E786CB9BEEDC779097 PUSH2 0xF7A PUSH1 0x0 SLOAD PUSH1 0x1 PUSH1 0x1 PUSH1 0xA0 SHL SUB AND SWAP1 JUMP JUMPDEST PUSH1 0x40 DUP1 MLOAD PUSH1 0x1 PUSH1 0x1 PUSH1 0xA0 SHL SUB SWAP1 SWAP3 AND DUP3 MSTORE PUSH1 0x20 DUP3 ADD DUP6 SWAP1 MSTORE ADD PUSH1 0x40 MLOAD DUP1 SWAP2 SUB SWAP1 LOG1 POP POP PUSH2 0x3DB PUSH1 0x1 DUP1 SSTORE JUMP JUMPDEST PUSH2 0xFAE PUSH2 0xFE1 JUMP JUMPDEST PUSH1 0x1 PUSH1 0x1 PUSH1 0xA0 SHL SUB DUP2 AND PUSH2 0xFD8 JUMPI PUSH1 0x40 MLOAD PUSH4 0x1E4FBDF7 PUSH1 0xE0 SHL DUP2 MSTORE PUSH1 0x0 PUSH1 0x4 DUP3 ADD MSTORE PUSH1 0x24 ADD PUSH2 0x5E5 JUMP JUMPDEST PUSH2 0xA23 DUP2 PUSH2 0x1060 JUMP JUMPDEST PUSH1 0x0 SLOAD PUSH1 0x1 PUSH1 0x1 PUSH1 0xA0 SHL SUB AND CALLER EQ PUSH2 0x3DB JUMPI PUSH1 0x40 MLOAD PUSH4 0x118CDAA7 PUSH1 0xE0 SHL DUP2 MSTORE CALLER PUSH1 0x4 DUP3 ADD MSTORE PUSH1 0x24 ADD PUSH2 0x5E5 JUMP JUMPDEST PUSH2 0x1016 PUSH2 0x129B JUMP JUMPDEST PUSH1 0x2 DUP1 SLOAD PUSH1 0xFF NOT AND SWAP1 SSTORE PUSH32 0x5DB9EE0A495BF2E6FF9C91A7834C1BA4FDD244A5E8AA4E537BD38AEAE4B073AA CALLER JUMPDEST PUSH1 0x40 MLOAD PUSH1 0x1 PUSH1 0x1 PUSH1 0xA0 SHL SUB SWAP1 SWAP2 AND DUP2 MSTORE PUSH1 0x20 ADD PUSH1 0x40 MLOAD DUP1 SWAP2 SUB SWAP1 LOG1 JUMP JUMPDEST PUSH1 0x0 DUP1 SLOAD PUSH1 0x1 PUSH1 0x1 PUSH1 0xA0 SHL SUB DUP4 DUP2 AND PUSH1 0x1 PUSH1 0x1 PUSH1 0xA0 SHL SUB NOT DUP4 AND DUP2 OR DUP5 SSTORE PUSH1 0x40 MLOAD SWAP2 SWAP1 SWAP3 AND SWAP3 DUP4 SWAP2 PUSH32 0x8BE0079C531659141344CD1FD0A4F28419497F9722A3DAAFE3B4186F6B6457E0 SWAP2 SWAP1 LOG3 POP POP JUMP JUMPDEST PUSH1 0x2 SLOAD PUSH1 0xFF AND ISZERO PUSH2 0x3DB JUMPI PUSH1 0x40 MLOAD PUSH4 0xD93C0665 PUSH1 0xE0 SHL DUP2 MSTORE PUSH1 0x4 ADD PUSH1 0x40 MLOAD DUP1 SWAP2 SUB SWAP1 REVERT JUMPDEST PUSH1 0x2 PUSH1 0x1 SLOAD SUB PUSH2 0x10F7 JUMPI PUSH1 0x40 MLOAD PUSH4 0x3EE5AEB5 PUSH1 0xE0 SHL DUP2 MSTORE PUSH1 0x4 ADD PUSH1 0x40 MLOAD DUP1 SWAP2 SUB SWAP1 REVERT JUMPDEST PUSH1 0x2 PUSH1 0x1 SSTORE JUMP JUMPDEST PUSH1 0x1 PUSH1 0x1 PUSH1 0xA0 SHL SUB DUP2 AND PUSH1 0x0 DUP2 DUP2 MSTORE PUSH1 0x4 PUSH1 0x20 SWAP1 DUP2 MSTORE PUSH1 0x40 SWAP2 DUP3 SWAP1 KECCAK256 DUP1 SLOAD PUSH1 0xFF NOT AND PUSH1 0x1 OR SWAP1 SSTORE SWAP1 MLOAD SWAP2 DUP3 MSTORE PUSH32 0x654C9A027765E6FEB862F42D438E9F6948F9EE31113E379F0372B30EFC722943 SWAP2 ADD PUSH1 0x40 MLOAD DUP1 SWAP2 SUB SWAP1 LOG1 POP JUMP JUMPDEST PUSH1 0x5 SLOAD PUSH1 0x40 MLOAD PUSH4 0xA9059CBB PUSH1 0xE0 SHL DUP2 MSTORE PUSH1 0x1 PUSH1 0x1 PUSH1 0xA0 SHL SUB DUP4 DUP2 AND PUSH1 0x4 DUP4 ADD MSTORE PUSH1 0x24 DUP3 ADD SWAP3 SWAP1 SWAP3 MSTORE PUSH1 0x0 SWAP2 PUSH32 0x0 AND SWAP1 PUSH4 0xA9059CBB SWAP1 PUSH1 0x44 ADD PUSH1 0x20 PUSH1 0x40 MLOAD DUP1 DUP4 SUB DUP2 PUSH1 0x0 DUP8 GAS CALL ISZERO DUP1 ISZERO PUSH2 0x11CE JUMPI RETURNDATASIZE PUSH1 0x0 DUP1 RETURNDATACOPY RETURNDATASIZE PUSH1 0x0 REVERT JUMPDEST POP POP POP POP PUSH1 0x40 MLOAD RETURNDATASIZE PUSH1 0x1F NOT PUSH1 0x1F DUP3 ADD AND DUP3 ADD DUP1 PUSH1 0x40 MSTORE POP DUP2 ADD SWAP1 PUSH2 0x11F2 SWAP2 SWAP1 PUSH2 0x148F JUMP JUMPDEST SWAP1 POP DUP1 PUSH2 0x1212 JUMPI PUSH1 0x40 MLOAD PUSH4 0x78ECF41 PUSH1 0xE4 SHL DUP2 MSTORE PUSH1 0x4 ADD PUSH1 0x40 MLOAD DUP1 SWAP2 SUB SWAP1 REVERT JUMPDEST PUSH1 0x7 DUP1 SLOAD PUSH1 0x1 ADD SWAP1 SSTORE PUSH1 0x5 SLOAD PUSH1 0x40 DUP1 MLOAD PUSH1 0x1 PUSH1 0x1 PUSH1 0xA0 SHL SUB DUP6 AND DUP2 MSTORE PUSH1 0x20 DUP2 ADD SWAP3 SWAP1 SWAP3 MSTORE PUSH32 0x8934D7A9692E763E356FD30D84CA5F61A737B35C5CCD5D31D4F140310267B73E SWAP2 ADD PUSH2 0xCA6 JUMP JUMPDEST PUSH2 0x1266 PUSH2 0x10B0 JUMP JUMPDEST PUSH1 0x2 DUP1 SLOAD PUSH1 0xFF NOT AND PUSH1 0x1 OR SWAP1 SSTORE PUSH32 0x62E78CEA01BEE320CD4E420270B5EA74000D11B0C9F74754EBDBFC544B05A258 PUSH2 0x1043 CALLER SWAP1 JUMP JUMPDEST PUSH1 0x2 SLOAD PUSH1 0xFF AND PUSH2 0x3DB JUMPI PUSH1 0x40 MLOAD PUSH4 0x8DFC202B PUSH1 0xE0 SHL DUP2 MSTORE PUSH1 0x4 ADD PUSH1 0x40 MLOAD DUP1 SWAP2 SUB SWAP1 REVERT JUMPDEST PUSH1 0x0 PUSH1 0x20 DUP3 DUP5 SUB SLT ISZERO PUSH2 0x12D0 JUMPI PUSH1 0x0 DUP1 REVERT JUMPDEST POP CALLDATALOAD SWAP2 SWAP1 POP JUMP JUMPDEST DUP1 CALLDATALOAD PUSH1 0x1 PUSH1 0x1 PUSH1 0xA0 SHL SUB DUP2 AND DUP2 EQ PUSH2 0x12EE JUMPI PUSH1 0x0 DUP1 REVERT JUMPDEST SWAP2 SWAP1 POP JUMP JUMPDEST PUSH1 0x0 PUSH1 0x20 DUP3 DUP5 SUB SLT ISZERO PUSH2 0x1305 JUMPI PUSH1 0x0 DUP1 REVERT JUMPDEST PUSH2 0x130E DUP3 PUSH2 0x12D7 JUMP JUMPDEST SWAP4 SWAP3 POP POP POP JUMP JUMPDEST PUSH1 0x0 DUP1 PUSH1 0x20 DUP4 DUP6 SUB SLT ISZERO PUSH2 0x1328 JUMPI PUSH1 0x0 DUP1 REVERT JUMPDEST DUP3 CALLDATALOAD PUSH8 0xFFFFFFFFFFFFFFFF DUP2 GT ISZERO PUSH2 0x133F JUMPI PUSH1 0x0 DUP1 REVERT JUMPDEST DUP4 ADD PUSH1 0x1F DUP2 ADD DUP6 SGT PUSH2 0x1350 JUMPI PUSH1 0x0 DUP1 REVERT JUMPDEST DUP1 CALLDATALOAD PUSH8 0xFFFFFFFFFFFFFFFF DUP2 GT ISZERO PUSH2 0x1367 JUMPI PUSH1 0x0 DUP1 REVERT JUMPDEST DUP6 PUSH1 0x20 DUP3 PUSH1 0x5 SHL DUP5 ADD ADD GT ISZERO PUSH2 0x137C JUMPI PUSH1 0x0 DUP1 REVERT JUMPDEST PUSH1 0x20 SWAP2 SWAP1 SWAP2 ADD SWAP6 SWAP1 SWAP5 POP SWAP3 POP POP POP JUMP JUMPDEST PUSH1 0x20 DUP1 DUP3 MSTORE DUP3 MLOAD DUP3 DUP3 ADD DUP2 SWAP1 MSTORE PUSH1 0x0 SWAP2 DUP5 ADD SWAP1 PUSH1 0x40 DUP5 ADD SWAP1 DUP4 JUMPDEST DUP2 DUP2 LT ISZERO PUSH2 0x13CD JUMPI DUP4 MLOAD PUSH1 0x1 PUSH1 0x1 PUSH1 0xA0 SHL SUB AND DUP4 MSTORE PUSH1 0x20 SWAP4 DUP5 ADD SWAP4 SWAP1 SWAP3 ADD SWAP2 PUSH1 0x1 ADD PUSH2 0x13A6 JUMP JUMPDEST POP SWAP1 SWAP6 SWAP5 POP POP POP POP POP JUMP JUMPDEST PUSH4 0x4E487B71 PUSH1 0xE0 SHL PUSH1 0x0 MSTORE PUSH1 0x32 PUSH1 0x4 MSTORE PUSH1 0x24 PUSH1 0x0 REVERT JUMPDEST PUSH1 0x20 DUP1 DUP3 MSTORE DUP2 ADD DUP3 SWAP1 MSTORE PUSH1 0x0 DUP4 PUSH1 0x40 DUP4 ADD DUP3 JUMPDEST DUP6 DUP2 LT ISZERO PUSH2 0x142F JUMPI PUSH1 0x1 PUSH1 0x1 PUSH1 0xA0 SHL SUB PUSH2 0x141A DUP5 PUSH2 0x12D7 JUMP JUMPDEST AND DUP3 MSTORE PUSH1 0x20 SWAP3 DUP4 ADD SWAP3 SWAP1 SWAP2 ADD SWAP1 PUSH1 0x1 ADD PUSH2 0x1401 JUMP JUMPDEST POP SWAP6 SWAP5 POP POP POP POP POP JUMP JUMPDEST PUSH1 0x0 PUSH1 0x20 DUP3 DUP5 SUB SLT ISZERO PUSH2 0x144B JUMPI PUSH1 0x0 DUP1 REVERT JUMPDEST POP MLOAD SWAP2 SWAP1 POP JUMP JUMPDEST PUSH1 0x0 PUSH1 0x1 DUP3 ADD PUSH2 0x1472 JUMPI PUSH4 0x4E487B71 PUSH1 0xE0 SHL PUSH1 0x0 MSTORE PUSH1 0x11 PUSH1 0x4 MSTORE PUSH1 0x24 PUSH1 0x0 REVERT JUMPDEST POP PUSH1 0x1 ADD SWAP1 JUMP JUMPDEST PUSH4 0x4E487B71 PUSH1 0xE0 SHL PUSH1 0x0 MSTORE PUSH1 0x41 PUSH1 0x4 MSTORE PUSH1 0x24 PUSH1 0x0 REVERT JUMPDEST PUSH1 0x0 PUSH1 0x20 DUP3 DUP5 SUB SLT ISZERO PUSH2 0x14A1 JUMPI PUSH1 0x0 DUP1 REVERT JUMPDEST DUP2 MLOAD DUP1 ISZERO ISZERO DUP2 EQ PUSH2 0x130E JUMPI PUSH1 0x0 DUP1 REVERT INVALID LOG2 PUSH5 0x6970667358 0x22 SLT KECCAK256 0xE4 JUMP PUSH17 0xBF1CCA92862260400DB2D0617348A53E04 ADDRESS TLOAD PUSH31 0x63D76FE588E676B7FB64736F6C634300081C00330000000000000000000000 "
				},
				"gasEstimates": {
					"creation": {
						"codeDepositCost": "1070200",
						"executionCost": "infinite",
						"totalCost": "infinite"
					},
					"external": {
						"blacklistMultipleWhitelistedUserAddresses(address[])": "infinite",
						"blacklistOneWhitelistedUserAddress(address)": "54392",
						"cUSD()": "infinite",
						"checkIfParticipantHasAlreadyClaimedReward(address)": "2617",
						"checkIfUserAddressIsBlacklisted(address)": "2663",
						"checkIfUserAddressIsWhitelisted(address)": "2659",
						"getNumberOfRewardedParticipants()": "2348",
						"getNumberOfWhitelistedUserAddresses()": "2370",
						"getRewardAmountPerParticipantInWei()": "2371",
						"getTargetNumberOfParticipants()": "2327",
						"getWhitelistedAddressesFromRegisteredAddresses(address[])": "infinite",
						"numberOfRewardedParticipants()": "2308",
						"numberOfWhitelistedUserAddresses()": "2329",
						"owner()": "2377",
						"pauseSurvey()": "infinite",
						"paused()": "2405",
						"processRewardClaimByParticipant(address)": "infinite",
						"renounceOwnership()": "infinite",
						"rewardAmountPerParticipantInWei()": "2373",
						"targetNumberOfParticipants()": "2373",
						"transferOwnership(address)": "28421",
						"unpauseSurvey()": "infinite",
						"updateRewardAmountPerParticipant(uint256)": "28115",
						"updateTargetNumberOfParticipants(uint256)": "28060",
						"whitelistMultipleUserAddresses(address[])": "infinite",
						"whitelistOneUserAddress(address)": "54440",
						"withdrawAllRewardFundsToResearcher()": "infinite"
					},
					"internal": {
						"markParticipantAsHavingClaimedReward(address)": "infinite",
						"rewardParticipant(address)": "infinite"
					}
				},
				"methodIdentifiers": {
					"blacklistMultipleWhitelistedUserAddresses(address[])": "9a0474e8",
					"blacklistOneWhitelistedUserAddress(address)": "d335993a",
					"cUSD()": "1fccf672",
					"checkIfParticipantHasAlreadyClaimedReward(address)": "6ff65c20",
					"checkIfUserAddressIsBlacklisted(address)": "85737020",
					"checkIfUserAddressIsWhitelisted(address)": "fc05542a",
					"getNumberOfRewardedParticipants()": "741ae614",
					"getNumberOfWhitelistedUserAddresses()": "d9084326",
					"getRewardAmountPerParticipantInWei()": "7069243c",
					"getTargetNumberOfParticipants()": "6fa1c59d",
					"getWhitelistedAddressesFromRegisteredAddresses(address[])": "a34db0a0",
					"numberOfRewardedParticipants()": "1318fbf1",
					"numberOfWhitelistedUserAddresses()": "c25a02ec",
					"owner()": "8da5cb5b",
					"pauseSurvey()": "e082fe2a",
					"paused()": "5c975abb",
					"processRewardClaimByParticipant(address)": "a0858343",
					"renounceOwnership()": "715018a6",
					"rewardAmountPerParticipantInWei()": "7a0abf08",
					"targetNumberOfParticipants()": "a6a09811",
					"transferOwnership(address)": "f2fde38b",
					"unpauseSurvey()": "3960fc66",
					"updateRewardAmountPerParticipant(uint256)": "64bb632f",
					"updateTargetNumberOfParticipants(uint256)": "528780cc",
					"whitelistMultipleUserAddresses(address[])": "98b48493",
					"whitelistOneUserAddress(address)": "b0702913",
					"withdrawAllRewardFundsToResearcher()": "f22069df"
				}
			},
			"storageLayout": {
				"storage": [
					{
						"astId": 8,
						"contract": "smart-contract/hardhat/contracts/ClosedSurvey.sol:ClosedSurvey",
						"label": "_owner",
						"offset": 0,
						"slot": "0",
						"type": "t_address"
					},
					{
						"astId": 409,
						"contract": "smart-contract/hardhat/contracts/ClosedSurvey.sol:ClosedSurvey",
						"label": "_status",
						"offset": 0,
						"slot": "1",
						"type": "t_uint256"
					},
					{
						"astId": 290,
						"contract": "smart-contract/hardhat/contracts/ClosedSurvey.sol:ClosedSurvey",
						"label": "_paused",
						"offset": 0,
						"slot": "2",
						"type": "t_bool"
					},
					{
						"astId": 486,
						"contract": "smart-contract/hardhat/contracts/ClosedSurvey.sol:ClosedSurvey",
						"label": "usersWhitelistedForSurvey",
						"offset": 0,
						"slot": "3",
						"type": "t_mapping(t_address,t_bool)"
					},
					{
						"astId": 490,
						"contract": "smart-contract/hardhat/contracts/ClosedSurvey.sol:ClosedSurvey",
						"label": "participantsWhoHaveClaimedRewards",
						"offset": 0,
						"slot": "4",
						"type": "t_mapping(t_address,t_bool)"
					},
					{
						"astId": 492,
						"contract": "smart-contract/hardhat/contracts/ClosedSurvey.sol:ClosedSurvey",
						"label": "rewardAmountPerParticipantInWei",
						"offset": 0,
						"slot": "5",
						"type": "t_uint256"
					},
					{
						"astId": 494,
						"contract": "smart-contract/hardhat/contracts/ClosedSurvey.sol:ClosedSurvey",
						"label": "targetNumberOfParticipants",
						"offset": 0,
						"slot": "6",
						"type": "t_uint256"
					},
					{
						"astId": 496,
						"contract": "smart-contract/hardhat/contracts/ClosedSurvey.sol:ClosedSurvey",
						"label": "numberOfRewardedParticipants",
						"offset": 0,
						"slot": "7",
						"type": "t_uint256"
					},
					{
						"astId": 498,
						"contract": "smart-contract/hardhat/contracts/ClosedSurvey.sol:ClosedSurvey",
						"label": "numberOfWhitelistedUserAddresses",
						"offset": 0,
						"slot": "8",
						"type": "t_uint256"
					}
				],
				"types": {
					"t_address": {
						"encoding": "inplace",
						"label": "address",
						"numberOfBytes": "20"
					},
					"t_bool": {
						"encoding": "inplace",
						"label": "bool",
						"numberOfBytes": "1"
					},
					"t_mapping(t_address,t_bool)": {
						"encoding": "mapping",
						"key": "t_address",
						"label": "mapping(address => bool)",
						"numberOfBytes": "32",
						"value": "t_bool"
					},
					"t_uint256": {
						"encoding": "inplace",
						"label": "uint256",
						"numberOfBytes": "32"
					}
				}
			},
			"userdoc": {
				"kind": "user",
				"methods": {},
				"version": 1
			}
		}
	}
}