{
	"smart-contract/hardhat/contracts/ClosedSurveyV3.sol": {
		"ClosedSurveyV3": {
			"abi": [
				{
					"inputs": [
						{
							"internalType": "address",
							"name": "researcherWalletAddress",
							"type": "address"
						},
						{
							"internalType": "uint256",
							"name": "_rewardAmountPerParticipantInWei",
							"type": "uint256"
						},
						{
							"internalType": "uint256",
							"name": "_targetNumberOfParticipants",
							"type": "uint256"
						},
						{
							"internalType": "address",
							"name": "cUSDTokenAddress",
							"type": "address"
						}
					],
					"stateMutability": "nonpayable",
					"type": "constructor"
				},
				{
					"inputs": [],
					"name": "EnforcedPause",
					"type": "error"
				},
				{
					"inputs": [],
					"name": "ExpectedPause",
					"type": "error"
				},
				{
					"inputs": [
						{
							"internalType": "address",
							"name": "owner",
							"type": "address"
						}
					],
					"name": "OwnableInvalidOwner",
					"type": "error"
				},
				{
					"inputs": [
						{
							"internalType": "address",
							"name": "account",
							"type": "address"
						}
					],
					"name": "OwnableUnauthorizedAccount",
					"type": "error"
				},
				{
					"inputs": [],
					"name": "ReentrancyGuardReentrantCall",
					"type": "error"
				},
				{
					"anonymous": false,
					"inputs": [
						{
							"indexed": false,
							"internalType": "address[]",
							"name": "participantWalletAddresses",
							"type": "address[]"
						}
					],
					"name": "MultipleParticipantsWhitelisted",
					"type": "event"
				},
				{
					"anonymous": false,
					"inputs": [
						{
							"indexed": false,
							"internalType": "address[]",
							"name": "walletAddresses",
							"type": "address[]"
						}
					],
					"name": "MultipleWhitelistedParticipantsBlacklisted",
					"type": "event"
				},
				{
					"anonymous": false,
					"inputs": [
						{
							"indexed": false,
							"internalType": "address",
							"name": "participantWalletAddress",
							"type": "address"
						}
					],
					"name": "OneParticipantWhitelisted",
					"type": "event"
				},
				{
					"anonymous": false,
					"inputs": [
						{
							"indexed": false,
							"internalType": "address",
							"name": "participantWalletAddress",
							"type": "address"
						}
					],
					"name": "OneWhitelistedParticipantBlacklisted",
					"type": "event"
				},
				{
					"anonymous": false,
					"inputs": [
						{
							"indexed": true,
							"internalType": "address",
							"name": "previousOwner",
							"type": "address"
						},
						{
							"indexed": true,
							"internalType": "address",
							"name": "newOwner",
							"type": "address"
						}
					],
					"name": "OwnershipTransferred",
					"type": "event"
				},
				{
					"anonymous": false,
					"inputs": [
						{
							"indexed": false,
							"internalType": "address",
							"name": "participantWalletAddress",
							"type": "address"
						}
					],
					"name": "ParticipantMarkedAsRewarded",
					"type": "event"
				},
				{
					"anonymous": false,
					"inputs": [
						{
							"indexed": false,
							"internalType": "address",
							"name": "participantWalletAddress",
							"type": "address"
						},
						{
							"indexed": false,
							"internalType": "uint256",
							"name": "rewardAmount",
							"type": "uint256"
						}
					],
					"name": "ParticipantRewarded",
					"type": "event"
				},
				{
					"anonymous": false,
					"inputs": [
						{
							"indexed": false,
							"internalType": "address",
							"name": "participantWalletAddress",
							"type": "address"
						}
					],
					"name": "ParticipantScreened",
					"type": "event"
				},
				{
					"anonymous": false,
					"inputs": [
						{
							"indexed": false,
							"internalType": "address",
							"name": "account",
							"type": "address"
						}
					],
					"name": "Paused",
					"type": "event"
				},
				{
					"anonymous": false,
					"inputs": [
						{
							"indexed": false,
							"internalType": "uint256",
							"name": "oldcUSDRewardAmountPerParticipantInWei",
							"type": "uint256"
						},
						{
							"indexed": false,
							"internalType": "uint256",
							"name": "newcUSDRewardAmountPerParticipantInWei",
							"type": "uint256"
						}
					],
					"name": "RewardAmountUpdated",
					"type": "event"
				},
				{
					"anonymous": false,
					"inputs": [
						{
							"indexed": false,
							"internalType": "address",
							"name": "researcherWalletAddress",
							"type": "address"
						},
						{
							"indexed": false,
							"internalType": "uint256",
							"name": "rewardAmount",
							"type": "uint256"
						}
					],
					"name": "RewardFundsWithdrawn",
					"type": "event"
				},
				{
					"anonymous": false,
					"inputs": [
						{
							"indexed": false,
							"internalType": "uint256",
							"name": "oldTargetNumberOfParticipants",
							"type": "uint256"
						},
						{
							"indexed": false,
							"internalType": "uint256",
							"name": "newTargetNumberOfParticipants",
							"type": "uint256"
						}
					],
					"name": "TargetNumberOfParticipantsUpdates",
					"type": "event"
				},
				{
					"anonymous": false,
					"inputs": [
						{
							"indexed": false,
							"internalType": "address",
							"name": "account",
							"type": "address"
						}
					],
					"name": "Unpaused",
					"type": "event"
				},
				{
					"inputs": [
						{
							"internalType": "address[]",
							"name": "walletAddresses",
							"type": "address[]"
						}
					],
					"name": "blacklistMultipleWhitelistedUserAddresses",
					"outputs": [],
					"stateMutability": "nonpayable",
					"type": "function"
				},
				{
					"inputs": [
						{
							"internalType": "address",
							"name": "walletAddress",
							"type": "address"
						}
					],
					"name": "blacklistOneWhitelistedUserAddress",
					"outputs": [],
					"stateMutability": "nonpayable",
					"type": "function"
				},
				{
					"inputs": [],
					"name": "cUSD",
					"outputs": [
						{
							"internalType": "contract IERC20Metadata",
							"name": "",
							"type": "address"
						}
					],
					"stateMutability": "view",
					"type": "function"
				},
				{
					"inputs": [
						{
							"internalType": "address",
							"name": "participantWalletAddress",
							"type": "address"
						}
					],
					"name": "checkIfParticipantHasAlreadyClaimedReward",
					"outputs": [
						{
							"internalType": "bool",
							"name": "",
							"type": "bool"
						}
					],
					"stateMutability": "view",
					"type": "function"
				},
				{
					"inputs": [
						{
							"internalType": "address",
							"name": "participantWalletAddress",
							"type": "address"
						}
					],
					"name": "checkIfParticipantIsBlacklisted",
					"outputs": [
						{
							"internalType": "bool",
							"name": "",
							"type": "bool"
						}
					],
					"stateMutability": "view",
					"type": "function"
				},
				{
					"inputs": [
						{
							"internalType": "address",
							"name": "participantWalletAddress",
							"type": "address"
						}
					],
					"name": "checkIfParticipantIsWhitelisted",
					"outputs": [
						{
							"internalType": "bool",
							"name": "",
							"type": "bool"
						}
					],
					"stateMutability": "view",
					"type": "function"
				},
				{
					"inputs": [],
					"name": "getNumberOfRewardedParticipants",
					"outputs": [
						{
							"internalType": "uint256",
							"name": "",
							"type": "uint256"
						}
					],
					"stateMutability": "view",
					"type": "function"
				},
				{
					"inputs": [],
					"name": "getNumberOfWhitelistedParticipants",
					"outputs": [
						{
							"internalType": "uint256",
							"name": "",
							"type": "uint256"
						}
					],
					"stateMutability": "view",
					"type": "function"
				},
				{
					"inputs": [],
					"name": "getRewardAmountPerParticipantInWei",
					"outputs": [
						{
							"internalType": "uint256",
							"name": "",
							"type": "uint256"
						}
					],
					"stateMutability": "view",
					"type": "function"
				},
				{
					"inputs": [],
					"name": "getTargetNumberOfParticipants",
					"outputs": [
						{
							"internalType": "uint256",
							"name": "",
							"type": "uint256"
						}
					],
					"stateMutability": "view",
					"type": "function"
				},
				{
					"inputs": [
						{
							"internalType": "address[]",
							"name": "registeredAddresses",
							"type": "address[]"
						}
					],
					"name": "getWhitelistedParticipantsFromRegisteredParticipants",
					"outputs": [
						{
							"internalType": "address[]",
							"name": "",
							"type": "address[]"
						}
					],
					"stateMutability": "view",
					"type": "function"
				},
				{
					"inputs": [],
					"name": "numberOfScreenedParticipants",
					"outputs": [
						{
							"internalType": "uint256",
							"name": "",
							"type": "uint256"
						}
					],
					"stateMutability": "view",
					"type": "function"
				},
				{
					"inputs": [],
					"name": "numberOfWhitelistedParticipants",
					"outputs": [
						{
							"internalType": "uint256",
							"name": "",
							"type": "uint256"
						}
					],
					"stateMutability": "view",
					"type": "function"
				},
				{
					"inputs": [],
					"name": "owner",
					"outputs": [
						{
							"internalType": "address",
							"name": "",
							"type": "address"
						}
					],
					"stateMutability": "view",
					"type": "function"
				},
				{
					"inputs": [],
					"name": "pauseSurvey",
					"outputs": [],
					"stateMutability": "nonpayable",
					"type": "function"
				},
				{
					"inputs": [],
					"name": "paused",
					"outputs": [
						{
							"internalType": "bool",
							"name": "",
							"type": "bool"
						}
					],
					"stateMutability": "view",
					"type": "function"
				},
				{
					"inputs": [
						{
							"internalType": "address",
							"name": "walletAddress",
							"type": "address"
						}
					],
					"name": "processRewardClaimByParticipant",
					"outputs": [],
					"stateMutability": "nonpayable",
					"type": "function"
				},
				{
					"inputs": [],
					"name": "renounceOwnership",
					"outputs": [],
					"stateMutability": "nonpayable",
					"type": "function"
				},
				{
					"inputs": [],
					"name": "rewardAmountPerParticipantInWei",
					"outputs": [
						{
							"internalType": "uint256",
							"name": "",
							"type": "uint256"
						}
					],
					"stateMutability": "view",
					"type": "function"
				},
				{
					"inputs": [
						{
							"internalType": "address",
							"name": "participantWalletAddress",
							"type": "address"
						}
					],
					"name": "screenParticipant",
					"outputs": [],
					"stateMutability": "nonpayable",
					"type": "function"
				},
				{
					"inputs": [],
					"name": "targetNumberOfParticipants",
					"outputs": [
						{
							"internalType": "uint256",
							"name": "",
							"type": "uint256"
						}
					],
					"stateMutability": "view",
					"type": "function"
				},
				{
					"inputs": [
						{
							"internalType": "address",
							"name": "newOwner",
							"type": "address"
						}
					],
					"name": "transferOwnership",
					"outputs": [],
					"stateMutability": "nonpayable",
					"type": "function"
				},
				{
					"inputs": [],
					"name": "unpauseSurvey",
					"outputs": [],
					"stateMutability": "nonpayable",
					"type": "function"
				},
				{
					"inputs": [
						{
							"internalType": "uint256",
							"name": "_newRewardAmountPerParticipantInWei",
							"type": "uint256"
						}
					],
					"name": "updateRewardAmountPerParticipant",
					"outputs": [],
					"stateMutability": "nonpayable",
					"type": "function"
				},
				{
					"inputs": [
						{
							"internalType": "uint256",
							"name": "_newTargetNumberOfParticipants",
							"type": "uint256"
						}
					],
					"name": "updateTargetNumberOfParticipants",
					"outputs": [],
					"stateMutability": "nonpayable",
					"type": "function"
				},
				{
					"inputs": [
						{
							"internalType": "address[]",
							"name": "walletAddresses",
							"type": "address[]"
						}
					],
					"name": "whitelistMultipleUserAddresses",
					"outputs": [],
					"stateMutability": "nonpayable",
					"type": "function"
				},
				{
					"inputs": [
						{
							"internalType": "address",
							"name": "walletAddress",
							"type": "address"
						}
					],
					"name": "whitelistOneUserAddress",
					"outputs": [],
					"stateMutability": "nonpayable",
					"type": "function"
				},
				{
					"inputs": [],
					"name": "withdrawAllRewardFundsToResearcher",
					"outputs": [],
					"stateMutability": "nonpayable",
					"type": "function"
				}
			],
			"devdoc": {
				"errors": {
					"EnforcedPause()": [
						{
							"details": "The operation failed because the contract is paused."
						}
					],
					"ExpectedPause()": [
						{
							"details": "The operation failed because the contract is not paused."
						}
					],
					"OwnableInvalidOwner(address)": [
						{
							"details": "The owner is not a valid owner account. (eg. `address(0)`)"
						}
					],
					"OwnableUnauthorizedAccount(address)": [
						{
							"details": "The caller account is not authorized to perform an operation."
						}
					],
					"ReentrancyGuardReentrantCall()": [
						{
							"details": "Unauthorized reentrant call."
						}
					]
				},
				"events": {
					"Paused(address)": {
						"details": "Emitted when the pause is triggered by `account`."
					},
					"Unpaused(address)": {
						"details": "Emitted when the pause is lifted by `account`."
					}
				},
				"kind": "dev",
				"methods": {
					"owner()": {
						"details": "Returns the address of the current owner."
					},
					"paused()": {
						"details": "Returns true if the contract is paused, and false otherwise."
					},
					"renounceOwnership()": {
						"details": "Leaves the contract without owner. It will not be possible to call `onlyOwner` functions. Can only be called by the current owner. NOTE: Renouncing ownership will leave the contract without an owner, thereby disabling any functionality that is only available to the owner."
					},
					"transferOwnership(address)": {
						"details": "Transfers ownership of the contract to a new account (`newOwner`). Can only be called by the current owner."
					}
				},
				"version": 1
			},
			"evm": {
				"assembly": "    /* \"smart-contract/hardhat/contracts/ClosedSurveyV3.sol\":330:13785  contract ClosedSurveyV3 is Ownable, ReentrancyGuard, Pausable {... */\n  mstore(0x40, 0xa0)\n    /* \"smart-contract/hardhat/contracts/ClosedSurveyV3.sol\":4209:5104  constructor(... */\n  callvalue\n  dup1\n  iszero\n  tag_1\n  jumpi\n  0x00\n  dup1\n  revert\ntag_1:\n  pop\n  mload(0x40)\n  sub(codesize, bytecodeSize)\n  dup1\n  bytecodeSize\n  dup4\n  codecopy\n  dup2\n  add\n  0x40\n  dup2\n  swap1\n  mstore\n  tag_2\n  swap2\n  tag_3\n  jump\t// in\ntag_2:\n    /* \"smart-contract/hardhat/contracts/ClosedSurveyV3.sol\":4405:4428  researcherWalletAddress */\n  dup4\n  sub(shl(0xa0, 0x01), 0x01)\n    /* \"@openzeppelin/contracts/access/Ownable.sol\":1273:1299  initialOwner == address(0) */\n  dup2\n  and\n    /* \"@openzeppelin/contracts/access/Ownable.sol\":1269:1364  if (initialOwner == address(0)) {... */\n  tag_9\n  jumpi\n    /* \"@openzeppelin/contracts/access/Ownable.sol\":1322:1353  OwnableInvalidOwner(address(0)) */\n  mload(0x40)\n  shl(0xe0, 0x1e4fbdf7)\n  dup2\n  mstore\n    /* \"@openzeppelin/contracts/access/Ownable.sol\":1350:1351  0 */\n  0x00\n    /* \"@openzeppelin/contracts/access/Ownable.sol\":1322:1353  OwnableInvalidOwner(address(0)) */\n  0x04\n  dup3\n  add\n    /* \"#utility.yul\":861:912   */\n  mstore\n    /* \"#utility.yul\":834:852   */\n  0x24\n  add\n    /* \"@openzeppelin/contracts/access/Ownable.sol\":1322:1353  OwnableInvalidOwner(address(0)) */\ntag_10:\n  mload(0x40)\n  dup1\n  swap2\n  sub\n  swap1\n  revert\n    /* \"@openzeppelin/contracts/access/Ownable.sol\":1269:1364  if (initialOwner == address(0)) {... */\ntag_9:\n    /* \"@openzeppelin/contracts/access/Ownable.sol\":1373:1405  _transferOwnership(initialOwner) */\n  tag_12\n    /* \"@openzeppelin/contracts/access/Ownable.sol\":1392:1404  initialOwner */\n  dup2\n    /* \"@openzeppelin/contracts/access/Ownable.sol\":1373:1391  _transferOwnership */\n  tag_13\n    /* \"@openzeppelin/contracts/access/Ownable.sol\":1373:1405  _transferOwnership(initialOwner) */\n  jump\t// in\ntag_12:\n  pop\n    /* \"@openzeppelin/contracts/utils/ReentrancyGuard.sol\":1857:1858  1 */\n  0x01\n    /* \"@openzeppelin/contracts/utils/ReentrancyGuard.sol\":2061:2082  _status = NOT_ENTERED */\n  dup1\n  sstore\n    /* \"@openzeppelin/contracts/utils/Pausable.sol\":1231:1238  _paused */\n  0x02\n    /* \"@openzeppelin/contracts/utils/Pausable.sol\":1231:1246  _paused = false */\n  dup1\n  sload\n  not(0xff)\n  and\n  swap1\n  sstore\n  sub(shl(0xa0, 0x01), 0x01)\n    /* \"smart-contract/hardhat/contracts/ClosedSurveyV3.sol\":4461:4491  cUSDTokenAddress != address(0) */\n  dup2\n  and\n    /* \"smart-contract/hardhat/contracts/ClosedSurveyV3.sol\":4440:4556  require(... */\n  tag_17\n  jumpi\n  mload(0x40)\n  shl(0xe5, 0x461bcd)\n  dup2\n  mstore\n    /* \"#utility.yul\":1125:1127   */\n  0x20\n    /* \"smart-contract/hardhat/contracts/ClosedSurveyV3.sol\":4440:4556  require(... */\n  0x04\n  dup3\n  add\n    /* \"#utility.yul\":1107:1128   */\n  mstore\n    /* \"#utility.yul\":1164:1166   */\n  0x27\n    /* \"#utility.yul\":1144:1162   */\n  0x24\n  dup3\n  add\n    /* \"#utility.yul\":1137:1167   */\n  mstore\n    /* \"#utility.yul\":1203:1237   */\n  0x5a65726f206164647265737320676976656e20666f722063555344546f6b656e\n    /* \"#utility.yul\":1183:1201   */\n  0x44\n  dup3\n  add\n    /* \"#utility.yul\":1176:1238   */\n  mstore\n  shl(0xc8, 0x41646472657373)\n    /* \"#utility.yul\":1254:1272   */\n  0x64\n  dup3\n  add\n    /* \"#utility.yul\":1247:1284   */\n  mstore\n    /* \"#utility.yul\":1301:1320   */\n  0x84\n  add\n    /* \"smart-contract/hardhat/contracts/ClosedSurveyV3.sol\":4440:4556  require(... */\n  tag_10\n    /* \"#utility.yul\":923:1326   */\n  jump\n    /* \"smart-contract/hardhat/contracts/ClosedSurveyV3.sol\":4440:4556  require(... */\ntag_17:\n  sub(shl(0xa0, 0x01), 0x01)\n    /* \"smart-contract/hardhat/contracts/ClosedSurveyV3.sol\":4588:4625  researcherWalletAddress != address(0) */\n  dup5\n  and\n    /* \"smart-contract/hardhat/contracts/ClosedSurveyV3.sol\":4567:4697  require(... */\n  tag_20\n  jumpi\n  mload(0x40)\n  shl(0xe5, 0x461bcd)\n  dup2\n  mstore\n    /* \"#utility.yul\":1533:1535   */\n  0x20\n    /* \"smart-contract/hardhat/contracts/ClosedSurveyV3.sol\":4567:4697  require(... */\n  0x04\n  dup3\n  add\n    /* \"#utility.yul\":1515:1536   */\n  mstore\n    /* \"#utility.yul\":1572:1574   */\n  0x2e\n    /* \"#utility.yul\":1552:1570   */\n  0x24\n  dup3\n  add\n    /* \"#utility.yul\":1545:1575   */\n  mstore\n    /* \"#utility.yul\":1611:1645   */\n  0x5a65726f206164647265737320676976656e20666f7220726573656172636865\n    /* \"#utility.yul\":1591:1609   */\n  0x44\n  dup3\n  add\n    /* \"#utility.yul\":1584:1646   */\n  mstore\n  shl(0x90, 0x7257616c6c657441646472657373)\n    /* \"#utility.yul\":1662:1680   */\n  0x64\n  dup3\n  add\n    /* \"#utility.yul\":1655:1699   */\n  mstore\n    /* \"#utility.yul\":1716:1735   */\n  0x84\n  add\n    /* \"smart-contract/hardhat/contracts/ClosedSurveyV3.sol\":4567:4697  require(... */\n  tag_10\n    /* \"#utility.yul\":1331:1741   */\n  jump\n    /* \"smart-contract/hardhat/contracts/ClosedSurveyV3.sol\":4567:4697  require(... */\ntag_20:\n    /* \"smart-contract/hardhat/contracts/ClosedSurveyV3.sol\":4751:4752  0 */\n  0x00\n    /* \"smart-contract/hardhat/contracts/ClosedSurveyV3.sol\":4716:4748  _rewardAmountPerParticipantInWei */\n  dup4\n    /* \"smart-contract/hardhat/contracts/ClosedSurveyV3.sol\":4716:4752  _rewardAmountPerParticipantInWei > 0 */\n  gt\n    /* \"smart-contract/hardhat/contracts/ClosedSurveyV3.sol\":4708:4778  require(_rewardAmountPerParticipantInWei > 0, \"Invalid reward amount\") */\n  tag_23\n  jumpi\n  mload(0x40)\n  shl(0xe5, 0x461bcd)\n  dup2\n  mstore\n    /* \"#utility.yul\":1948:1950   */\n  0x20\n    /* \"smart-contract/hardhat/contracts/ClosedSurveyV3.sol\":4708:4778  require(_rewardAmountPerParticipantInWei > 0, \"Invalid reward amount\") */\n  0x04\n  dup3\n  add\n    /* \"#utility.yul\":1930:1951   */\n  mstore\n    /* \"#utility.yul\":1987:1989   */\n  0x15\n    /* \"#utility.yul\":1967:1985   */\n  0x24\n  dup3\n  add\n    /* \"#utility.yul\":1960:1990   */\n  mstore\n    /* \"#utility.yul\":2026:2049   */\n  0x496e76616c69642072657761726420616d6f756e740000000000000000000000\n    /* \"#utility.yul\":2006:2024   */\n  0x44\n  dup3\n  add\n    /* \"#utility.yul\":1999:2050   */\n  mstore\n    /* \"#utility.yul\":2067:2085   */\n  0x64\n  add\n    /* \"smart-contract/hardhat/contracts/ClosedSurveyV3.sol\":4708:4778  require(_rewardAmountPerParticipantInWei > 0, \"Invalid reward amount\") */\n  tag_10\n    /* \"#utility.yul\":1746:2091   */\n  jump\n    /* \"smart-contract/hardhat/contracts/ClosedSurveyV3.sol\":4708:4778  require(_rewardAmountPerParticipantInWei > 0, \"Invalid reward amount\") */\ntag_23:\n    /* \"smart-contract/hardhat/contracts/ClosedSurveyV3.sol\":4840:4841  0 */\n  0x00\n    /* \"smart-contract/hardhat/contracts/ClosedSurveyV3.sol\":4810:4837  _targetNumberOfParticipants */\n  dup3\n    /* \"smart-contract/hardhat/contracts/ClosedSurveyV3.sol\":4810:4841  _targetNumberOfParticipants > 0 */\n  gt\n    /* \"smart-contract/hardhat/contracts/ClosedSurveyV3.sol\":4789:4904  require(... */\n  tag_26\n  jumpi\n  mload(0x40)\n  shl(0xe5, 0x461bcd)\n  dup2\n  mstore\n    /* \"#utility.yul\":2298:2300   */\n  0x20\n    /* \"smart-contract/hardhat/contracts/ClosedSurveyV3.sol\":4789:4904  require(... */\n  0x04\n  dup3\n  add\n    /* \"#utility.yul\":2280:2301   */\n  mstore\n    /* \"#utility.yul\":2337:2339   */\n  0x25\n    /* \"#utility.yul\":2317:2335   */\n  0x24\n  dup3\n  add\n    /* \"#utility.yul\":2310:2340   */\n  mstore\n    /* \"#utility.yul\":2376:2410   */\n  0x496e76616c6964206e756d626572206f66207461726765742070617274696369\n    /* \"#utility.yul\":2356:2374   */\n  0x44\n  dup3\n  add\n    /* \"#utility.yul\":2349:2411   */\n  mstore\n  shl(0xd8, 0x70616e7473)\n    /* \"#utility.yul\":2427:2445   */\n  0x64\n  dup3\n  add\n    /* \"#utility.yul\":2420:2455   */\n  mstore\n    /* \"#utility.yul\":2472:2491   */\n  0x84\n  add\n    /* \"smart-contract/hardhat/contracts/ClosedSurveyV3.sol\":4789:4904  require(... */\n  tag_10\n    /* \"#utility.yul\":2096:2497   */\n  jump\n    /* \"smart-contract/hardhat/contracts/ClosedSurveyV3.sol\":4789:4904  require(... */\ntag_26:\n  sub(shl(0xa0, 0x01), 0x01)\n    /* \"smart-contract/hardhat/contracts/ClosedSurveyV3.sol\":4915:4954  cUSD = IERC20Metadata(cUSDTokenAddress) */\n  and\n  0x80\n  mstore\n    /* \"smart-contract/hardhat/contracts/ClosedSurveyV3.sol\":4965:4996  rewardAmountPerParticipantInWei */\n  0x06\n    /* \"smart-contract/hardhat/contracts/ClosedSurveyV3.sol\":4965:5031  rewardAmountPerParticipantInWei = _rewardAmountPerParticipantInWei */\n  swap2\n  swap1\n  swap2\n  sstore\n    /* \"smart-contract/hardhat/contracts/ClosedSurveyV3.sol\":5041:5067  targetNumberOfParticipants */\n  0x07\n    /* \"smart-contract/hardhat/contracts/ClosedSurveyV3.sol\":5041:5097  targetNumberOfParticipants = _targetNumberOfParticipants */\n  sstore\n  pop\n    /* \"smart-contract/hardhat/contracts/ClosedSurveyV3.sol\":330:13785  contract ClosedSurveyV3 is Ownable, ReentrancyGuard, Pausable {... */\n  jump(tag_32)\n    /* \"@openzeppelin/contracts/access/Ownable.sol\":2912:3099  function _transferOwnership(address newOwner) internal virtual {... */\ntag_13:\n    /* \"@openzeppelin/contracts/access/Ownable.sol\":2985:3001  address oldOwner */\n  0x00\n    /* \"@openzeppelin/contracts/access/Ownable.sol\":3004:3010  _owner */\n  dup1\n  sload\n  sub(shl(0xa0, 0x01), 0x01)\n    /* \"@openzeppelin/contracts/access/Ownable.sol\":3020:3037  _owner = newOwner */\n  dup4\n  dup2\n  and\n  not(sub(shl(0xa0, 0x01), 0x01))\n  dup4\n  and\n  dup2\n  or\n  dup5\n  sstore\n    /* \"@openzeppelin/contracts/access/Ownable.sol\":3052:3092  OwnershipTransferred(oldOwner, newOwner) */\n  mload(0x40)\n    /* \"@openzeppelin/contracts/access/Ownable.sol\":3004:3010  _owner */\n  swap2\n  swap1\n  swap3\n  and\n  swap3\n  dup4\n  swap2\n    /* \"@openzeppelin/contracts/access/Ownable.sol\":3052:3092  OwnershipTransferred(oldOwner, newOwner) */\n  0x8be0079c531659141344cd1fd0a4f28419497f9722a3daafe3b4186f6b6457e0\n  swap2\n    /* \"@openzeppelin/contracts/access/Ownable.sol\":2985:3001  address oldOwner */\n  swap1\n    /* \"@openzeppelin/contracts/access/Ownable.sol\":3052:3092  OwnershipTransferred(oldOwner, newOwner) */\n  log3\n    /* \"@openzeppelin/contracts/access/Ownable.sol\":2975:3099  {... */\n  pop\n    /* \"@openzeppelin/contracts/access/Ownable.sol\":2912:3099  function _transferOwnership(address newOwner) internal virtual {... */\n  pop\n  jump\t// out\n    /* \"#utility.yul\":14:191   */\ntag_31:\n    /* \"#utility.yul\":93:106   */\n  dup1\n  mload\n  sub(shl(0xa0, 0x01), 0x01)\n    /* \"#utility.yul\":135:166   */\n  dup2\n  and\n    /* \"#utility.yul\":125:167   */\n  dup2\n  eq\n    /* \"#utility.yul\":115:185   */\n  tag_34\n  jumpi\n    /* \"#utility.yul\":181:182   */\n  0x00\n    /* \"#utility.yul\":178:179   */\n  dup1\n    /* \"#utility.yul\":171:183   */\n  revert\n    /* \"#utility.yul\":115:185   */\ntag_34:\n    /* \"#utility.yul\":14:191   */\n  swap2\n  swap1\n  pop\n  jump\t// out\n    /* \"#utility.yul\":196:710   */\ntag_3:\n    /* \"#utility.yul\":293:299   */\n  0x00\n    /* \"#utility.yul\":301:307   */\n  dup1\n    /* \"#utility.yul\":309:315   */\n  0x00\n    /* \"#utility.yul\":317:323   */\n  dup1\n    /* \"#utility.yul\":370:373   */\n  0x80\n    /* \"#utility.yul\":358:367   */\n  dup6\n    /* \"#utility.yul\":349:356   */\n  dup8\n    /* \"#utility.yul\":345:368   */\n  sub\n    /* \"#utility.yul\":341:374   */\n  slt\n    /* \"#utility.yul\":338:391   */\n  iszero\n  tag_36\n  jumpi\n    /* \"#utility.yul\":387:388   */\n  0x00\n    /* \"#utility.yul\":384:385   */\n  dup1\n    /* \"#utility.yul\":377:389   */\n  revert\n    /* \"#utility.yul\":338:391   */\ntag_36:\n    /* \"#utility.yul\":410:450   */\n  tag_37\n    /* \"#utility.yul\":440:449   */\n  dup6\n    /* \"#utility.yul\":410:450   */\n  tag_31\n  jump\t// in\ntag_37:\n    /* \"#utility.yul\":512:514   */\n  0x20\n    /* \"#utility.yul\":497:515   */\n  dup7\n  add\n    /* \"#utility.yul\":491:516   */\n  mload\n    /* \"#utility.yul\":606:608   */\n  0x40\n    /* \"#utility.yul\":591:609   */\n  dup8\n  add\n    /* \"#utility.yul\":585:610   */\n  mload\n    /* \"#utility.yul\":400:450   */\n  swap2\n  swap6\n  pop\n    /* \"#utility.yul\":491:516   */\n  swap4\n  pop\n    /* \"#utility.yul\":585:610   */\n  swap2\n  pop\n    /* \"#utility.yul\":655:704   */\n  tag_38\n    /* \"#utility.yul\":700:702   */\n  0x60\n    /* \"#utility.yul\":685:703   */\n  dup7\n  add\n    /* \"#utility.yul\":655:704   */\n  tag_31\n  jump\t// in\ntag_38:\n    /* \"#utility.yul\":645:704   */\n  swap1\n  pop\n    /* \"#utility.yul\":196:710   */\n  swap3\n  swap6\n  swap2\n  swap5\n  pop\n  swap3\n  pop\n  jump\t// out\n    /* \"#utility.yul\":2096:2497   */\ntag_32:\n    /* \"smart-contract/hardhat/contracts/ClosedSurveyV3.sol\":330:13785  contract ClosedSurveyV3 is Ownable, ReentrancyGuard, Pausable {... */\n  mload(0x80)\n  codecopy(0x00, dataOffset(sub_0), dataSize(sub_0))\n  0x00\n  assignImmutable(\"0x4ce4dab4689da140a0c12de1a6af6b8f679594aeb723205f513e052d27f5b26f\")\n  return(0x00, dataSize(sub_0))\nstop\n\nsub_0: assembly {\n        /* \"smart-contract/hardhat/contracts/ClosedSurveyV3.sol\":330:13785  contract ClosedSurveyV3 is Ownable, ReentrancyGuard, Pausable {... */\n      mstore(0x40, 0x80)\n      callvalue\n      dup1\n      iszero\n      tag_1\n      jumpi\n      0x00\n      dup1\n      revert\n    tag_1:\n      pop\n      jumpi(tag_2, lt(calldatasize, 0x04))\n      shr(0xe0, calldataload(0x00))\n      dup1\n      0x8c0a0966\n      gt\n      tag_31\n      jumpi\n      dup1\n      0xb0702913\n      gt\n      tag_32\n      jumpi\n      dup1\n      0xe082fe2a\n      gt\n      tag_33\n      jumpi\n      dup1\n      0xe082fe2a\n      eq\n      tag_27\n      jumpi\n      dup1\n      0xea1dd101\n      eq\n      tag_28\n      jumpi\n      dup1\n      0xf22069df\n      eq\n      tag_29\n      jumpi\n      dup1\n      0xf2fde38b\n      eq\n      tag_30\n      jumpi\n      0x00\n      dup1\n      revert\n    tag_33:\n      dup1\n      0xb0702913\n      eq\n      tag_24\n      jumpi\n      dup1\n      0xd335993a\n      eq\n      tag_25\n      jumpi\n      dup1\n      0xd4bfbd41\n      eq\n      tag_26\n      jumpi\n      0x00\n      dup1\n      revert\n    tag_32:\n      dup1\n      0x9a0474e8\n      gt\n      tag_34\n      jumpi\n      dup1\n      0x9a0474e8\n      eq\n      tag_20\n      jumpi\n      dup1\n      0xa0858343\n      eq\n      tag_21\n      jumpi\n      dup1\n      0xa0ca86a3\n      eq\n      tag_22\n      jumpi\n      dup1\n      0xa6a09811\n      eq\n      tag_23\n      jumpi\n      0x00\n      dup1\n      revert\n    tag_34:\n      dup1\n      0x8c0a0966\n      eq\n      tag_17\n      jumpi\n      dup1\n      0x8da5cb5b\n      eq\n      tag_18\n      jumpi\n      dup1\n      0x98b48493\n      eq\n      tag_19\n      jumpi\n      0x00\n      dup1\n      revert\n    tag_31:\n      dup1\n      0x64bb632f\n      gt\n      tag_35\n      jumpi\n      dup1\n      0x7069243c\n      gt\n      tag_36\n      jumpi\n      dup1\n      0x7069243c\n      eq\n      tag_13\n      jumpi\n      dup1\n      0x715018a6\n      eq\n      tag_14\n      jumpi\n      dup1\n      0x741ae614\n      eq\n      tag_15\n      jumpi\n      dup1\n      0x7a0abf08\n      eq\n      tag_16\n      jumpi\n      0x00\n      dup1\n      revert\n    tag_36:\n      dup1\n      0x64bb632f\n      eq\n      tag_10\n      jumpi\n      dup1\n      0x6fa1c59d\n      eq\n      tag_11\n      jumpi\n      dup1\n      0x6ff65c20\n      eq\n      tag_12\n      jumpi\n      0x00\n      dup1\n      revert\n    tag_35:\n      dup1\n      0x3960fc66\n      gt\n      tag_37\n      jumpi\n      dup1\n      0x3960fc66\n      eq\n      tag_6\n      jumpi\n      dup1\n      0x4074be40\n      eq\n      tag_7\n      jumpi\n      dup1\n      0x528780cc\n      eq\n      tag_8\n      jumpi\n      dup1\n      0x5c975abb\n      eq\n      tag_9\n      jumpi\n      0x00\n      dup1\n      revert\n    tag_37:\n      dup1\n      0x047bc438\n      eq\n      tag_3\n      jumpi\n      dup1\n      0x1fccf672\n      eq\n      tag_4\n      jumpi\n      dup1\n      0x28a2355b\n      eq\n      tag_5\n      jumpi\n    tag_2:\n      0x00\n      dup1\n      revert\n        /* \"smart-contract/hardhat/contracts/ClosedSurveyV3.sol\":795:841  uint256 public numberOfWhitelistedParticipants */\n    tag_3:\n      tag_38\n      sload(0x09)\n      dup2\n      jump\n    tag_38:\n      mload(0x40)\n        /* \"#utility.yul\":160:185   */\n      swap1\n      dup2\n      mstore\n        /* \"#utility.yul\":148:150   */\n      0x20\n        /* \"#utility.yul\":133:151   */\n      add\n        /* \"smart-contract/hardhat/contracts/ClosedSurveyV3.sol\":795:841  uint256 public numberOfWhitelistedParticipants */\n    tag_40:\n      mload(0x40)\n      dup1\n      swap2\n      sub\n      swap1\n      return\n        /* \"smart-contract/hardhat/contracts/ClosedSurveyV3.sol\":398:434  IERC20Metadata public immutable cUSD */\n    tag_4:\n      tag_42\n      immutable(\"0x4ce4dab4689da140a0c12de1a6af6b8f679594aeb723205f513e052d27f5b26f\")\n      dup2\n      jump\n    tag_42:\n      mload(0x40)\n      sub(shl(0xa0, 0x01), 0x01)\n        /* \"#utility.yul\":382:414   */\n      swap1\n      swap2\n      and\n        /* \"#utility.yul\":364:415   */\n      dup2\n      mstore\n        /* \"#utility.yul\":352:354   */\n      0x20\n        /* \"#utility.yul\":337:355   */\n      add\n        /* \"smart-contract/hardhat/contracts/ClosedSurveyV3.sol\":398:434  IERC20Metadata public immutable cUSD */\n      tag_40\n        /* \"#utility.yul\":196:421   */\n      jump\n        /* \"smart-contract/hardhat/contracts/ClosedSurveyV3.sol\":13622:13783  function getNumberOfWhitelistedParticipants()... */\n    tag_5:\n        /* \"smart-contract/hardhat/contracts/ClosedSurveyV3.sol\":13745:13776  numberOfWhitelistedParticipants */\n      sload(0x09)\n        /* \"smart-contract/hardhat/contracts/ClosedSurveyV3.sol\":13622:13783  function getNumberOfWhitelistedParticipants()... */\n      jump(tag_38)\n        /* \"smart-contract/hardhat/contracts/ClosedSurveyV3.sol\":11469:11540  function unpauseSurvey() external onlyOwner {... */\n    tag_6:\n      tag_49\n      tag_50\n      jump\t// in\n    tag_49:\n      stop\n        /* \"smart-contract/hardhat/contracts/ClosedSurveyV3.sol\":847:890  uint256 public numberOfScreenedParticipants */\n    tag_7:\n      tag_38\n      sload(0x0a)\n      dup2\n      jump\n        /* \"smart-contract/hardhat/contracts/ClosedSurveyV3.sol\":10764:11390  function updateTargetNumberOfParticipants(... */\n    tag_8:\n      tag_49\n      tag_55\n      calldatasize\n      0x04\n      tag_56\n      jump\t// in\n    tag_55:\n      tag_57\n      jump\t// in\n        /* \"@openzeppelin/contracts/utils/Pausable.sol\":1850:1934  function paused() public view virtual returns (bool) {... */\n    tag_9:\n        /* \"@openzeppelin/contracts/utils/Pausable.sol\":1920:1927  _paused */\n      and(0xff, sload(0x02))\n        /* \"@openzeppelin/contracts/utils/Pausable.sol\":1850:1934  function paused() public view virtual returns (bool) {... */\n    tag_58:\n      mload(0x40)\n        /* \"#utility.yul\":776:790   */\n      swap1\n      iszero\n        /* \"#utility.yul\":769:791   */\n      iszero\n        /* \"#utility.yul\":751:792   */\n      dup2\n      mstore\n        /* \"#utility.yul\":739:741   */\n      0x20\n        /* \"#utility.yul\":724:742   */\n      add\n        /* \"@openzeppelin/contracts/utils/Pausable.sol\":1850:1934  function paused() public view virtual returns (bool) {... */\n      tag_40\n        /* \"#utility.yul\":611:798   */\n      jump\n        /* \"smart-contract/hardhat/contracts/ClosedSurveyV3.sol\":10113:10758  function updateRewardAmountPerParticipant(... */\n    tag_10:\n      tag_49\n      tag_63\n      calldatasize\n      0x04\n      tag_56\n      jump\t// in\n    tag_63:\n      tag_64\n      jump\t// in\n        /* \"smart-contract/hardhat/contracts/ClosedSurveyV3.sol\":13493:13616  function getTargetNumberOfParticipants() external view returns (uint256) {... */\n    tag_11:\n        /* \"smart-contract/hardhat/contracts/ClosedSurveyV3.sol\":13583:13609  targetNumberOfParticipants */\n      sload(0x07)\n        /* \"smart-contract/hardhat/contracts/ClosedSurveyV3.sol\":13493:13616  function getTargetNumberOfParticipants() external view returns (uint256) {... */\n      jump(tag_38)\n        /* \"smart-contract/hardhat/contracts/ClosedSurveyV3.sol\":12521:12746  function checkIfParticipantHasAlreadyClaimedReward(address participantWalletAddress)... */\n    tag_12:\n      tag_58\n      tag_69\n      calldatasize\n      0x04\n      tag_70\n      jump\t// in\n    tag_69:\n      sub(shl(0xa0, 0x01), 0x01)\n        /* \"smart-contract/hardhat/contracts/ClosedSurveyV3.sol\":12680:12739  participantsWhoHaveClaimedRewards[participantWalletAddress] */\n      and\n        /* \"smart-contract/hardhat/contracts/ClosedSurveyV3.sol\":12653:12657  bool */\n      0x00\n        /* \"smart-contract/hardhat/contracts/ClosedSurveyV3.sol\":12680:12739  participantsWhoHaveClaimedRewards[participantWalletAddress] */\n      swap1\n      dup2\n      mstore\n        /* \"smart-contract/hardhat/contracts/ClosedSurveyV3.sol\":12680:12713  participantsWhoHaveClaimedRewards */\n      0x04\n        /* \"smart-contract/hardhat/contracts/ClosedSurveyV3.sol\":12680:12739  participantsWhoHaveClaimedRewards[participantWalletAddress] */\n      0x20\n      mstore\n      0x40\n      swap1\n      keccak256\n      sload\n      0xff\n      and\n      swap1\n        /* \"smart-contract/hardhat/contracts/ClosedSurveyV3.sol\":12521:12746  function checkIfParticipantHasAlreadyClaimedReward(address participantWalletAddress)... */\n      jump\n        /* \"smart-contract/hardhat/contracts/ClosedSurveyV3.sol\":13193:13354  function getRewardAmountPerParticipantInWei()... */\n    tag_13:\n        /* \"smart-contract/hardhat/contracts/ClosedSurveyV3.sol\":13316:13347  rewardAmountPerParticipantInWei */\n      sload(0x06)\n        /* \"smart-contract/hardhat/contracts/ClosedSurveyV3.sol\":13193:13354  function getRewardAmountPerParticipantInWei()... */\n      jump(tag_38)\n        /* \"@openzeppelin/contracts/access/Ownable.sol\":2293:2394  function renounceOwnership() public virtual onlyOwner {... */\n    tag_14:\n      tag_49\n      tag_77\n      jump\t// in\n        /* \"smart-contract/hardhat/contracts/ClosedSurveyV3.sol\":13360:13487  function getNumberOfRewardedParticipants() external view returns (uint256) {... */\n    tag_15:\n        /* \"smart-contract/hardhat/contracts/ClosedSurveyV3.sol\":13452:13480  numberOfRewardedParticipants */\n      sload(0x08)\n        /* \"smart-contract/hardhat/contracts/ClosedSurveyV3.sol\":13360:13487  function getNumberOfRewardedParticipants() external view returns (uint256) {... */\n      jump(tag_38)\n        /* \"smart-contract/hardhat/contracts/ClosedSurveyV3.sol\":646:692  uint256 public rewardAmountPerParticipantInWei */\n    tag_16:\n      tag_38\n      sload(0x06)\n      dup2\n      jump\n        /* \"smart-contract/hardhat/contracts/ClosedSurveyV3.sol\":12972:13187  function checkIfParticipantIsBlacklisted(address participantWalletAddress)... */\n    tag_17:\n      tag_58\n      tag_85\n      calldatasize\n      0x04\n      tag_70\n      jump\t// in\n    tag_85:\n      sub(shl(0xa0, 0x01), 0x01)\n        /* \"smart-contract/hardhat/contracts/ClosedSurveyV3.sol\":13122:13180  participantsWhitelistedForSurvey[participantWalletAddress] */\n      and\n        /* \"smart-contract/hardhat/contracts/ClosedSurveyV3.sol\":13094:13098  bool */\n      0x00\n        /* \"smart-contract/hardhat/contracts/ClosedSurveyV3.sol\":13122:13180  participantsWhitelistedForSurvey[participantWalletAddress] */\n      swap1\n      dup2\n      mstore\n        /* \"smart-contract/hardhat/contracts/ClosedSurveyV3.sol\":13122:13154  participantsWhitelistedForSurvey */\n      0x03\n        /* \"smart-contract/hardhat/contracts/ClosedSurveyV3.sol\":13122:13180  participantsWhitelistedForSurvey[participantWalletAddress] */\n      0x20\n      mstore\n      0x40\n      swap1\n      keccak256\n      sload\n      0xff\n      and\n        /* \"smart-contract/hardhat/contracts/ClosedSurveyV3.sol\":13121:13180  !participantsWhitelistedForSurvey[participantWalletAddress] */\n      iszero\n      swap1\n        /* \"smart-contract/hardhat/contracts/ClosedSurveyV3.sol\":12972:13187  function checkIfParticipantIsBlacklisted(address participantWalletAddress)... */\n      jump\n        /* \"@openzeppelin/contracts/access/Ownable.sol\":1638:1723  function owner() public view virtual returns (address) {... */\n    tag_18:\n        /* \"@openzeppelin/contracts/access/Ownable.sol\":1684:1691  address */\n      0x00\n        /* \"@openzeppelin/contracts/access/Ownable.sol\":1710:1716  _owner */\n      sload\n      sub(shl(0xa0, 0x01), 0x01)\n      and\n        /* \"@openzeppelin/contracts/access/Ownable.sol\":1638:1723  function owner() public view virtual returns (address) {... */\n      jump(tag_42)\n        /* \"smart-contract/hardhat/contracts/ClosedSurveyV3.sol\":6408:7392  function whitelistMultipleUserAddresses(address[] calldata walletAddresses)... */\n    tag_19:\n      tag_49\n      tag_93\n      calldatasize\n      0x04\n      tag_94\n      jump\t// in\n    tag_93:\n      tag_95\n      jump\t// in\n        /* \"smart-contract/hardhat/contracts/ClosedSurveyV3.sol\":7398:8397  function blacklistMultipleWhitelistedUserAddresses(... */\n    tag_20:\n      tag_49\n      tag_97\n      calldatasize\n      0x04\n      tag_94\n      jump\t// in\n    tag_97:\n      tag_98\n      jump\t// in\n        /* \"smart-contract/hardhat/contracts/ClosedSurveyV3.sol\":8403:8954  function processRewardClaimByParticipant(address walletAddress)... */\n    tag_21:\n      tag_49\n      tag_100\n      calldatasize\n      0x04\n      tag_70\n      jump\t// in\n    tag_100:\n      tag_101\n      jump\t// in\n        /* \"smart-contract/hardhat/contracts/ClosedSurveyV3.sol\":11546:12515  function getWhitelistedParticipantsFromRegisteredParticipants(... */\n    tag_22:\n      tag_102\n      tag_103\n      calldatasize\n      0x04\n      tag_94\n      jump\t// in\n    tag_103:\n      tag_104\n      jump\t// in\n    tag_102:\n      mload(0x40)\n      tag_40\n      swap2\n      swap1\n      tag_106\n      jump\t// in\n        /* \"smart-contract/hardhat/contracts/ClosedSurveyV3.sol\":698:739  uint256 public targetNumberOfParticipants */\n    tag_23:\n      tag_38\n      sload(0x07)\n      dup2\n      jump\n        /* \"smart-contract/hardhat/contracts/ClosedSurveyV3.sol\":5555:5964  function whitelistOneUserAddress(address walletAddress)... */\n    tag_24:\n      tag_49\n      tag_111\n      calldatasize\n      0x04\n      tag_70\n      jump\t// in\n    tag_111:\n      tag_112\n      jump\t// in\n        /* \"smart-contract/hardhat/contracts/ClosedSurveyV3.sol\":5970:6402  function blacklistOneWhitelistedUserAddress(address walletAddress)... */\n    tag_25:\n      tag_49\n      tag_114\n      calldatasize\n      0x04\n      tag_70\n      jump\t// in\n    tag_114:\n      tag_115\n      jump\t// in\n        /* \"smart-contract/hardhat/contracts/ClosedSurveyV3.sol\":12752:12966  function checkIfParticipantIsWhitelisted(address participantWalletAddress)... */\n    tag_26:\n      tag_58\n      tag_117\n      calldatasize\n      0x04\n      tag_70\n      jump\t// in\n    tag_117:\n      sub(shl(0xa0, 0x01), 0x01)\n        /* \"smart-contract/hardhat/contracts/ClosedSurveyV3.sol\":12901:12959  participantsWhitelistedForSurvey[participantWalletAddress] */\n      and\n        /* \"smart-contract/hardhat/contracts/ClosedSurveyV3.sol\":12874:12878  bool */\n      0x00\n        /* \"smart-contract/hardhat/contracts/ClosedSurveyV3.sol\":12901:12959  participantsWhitelistedForSurvey[participantWalletAddress] */\n      swap1\n      dup2\n      mstore\n        /* \"smart-contract/hardhat/contracts/ClosedSurveyV3.sol\":12901:12933  participantsWhitelistedForSurvey */\n      0x03\n        /* \"smart-contract/hardhat/contracts/ClosedSurveyV3.sol\":12901:12959  participantsWhitelistedForSurvey[participantWalletAddress] */\n      0x20\n      mstore\n      0x40\n      swap1\n      keccak256\n      sload\n      0xff\n      and\n      swap1\n        /* \"smart-contract/hardhat/contracts/ClosedSurveyV3.sol\":12752:12966  function checkIfParticipantIsWhitelisted(address participantWalletAddress)... */\n      jump\n        /* \"smart-contract/hardhat/contracts/ClosedSurveyV3.sol\":11396:11463  function pauseSurvey() external onlyOwner {... */\n    tag_27:\n      tag_49\n      tag_121\n      jump\t// in\n        /* \"smart-contract/hardhat/contracts/ClosedSurveyV3.sol\":5110:5549  function screenParticipant(address participantWalletAddress)... */\n    tag_28:\n      tag_49\n      tag_123\n      calldatasize\n      0x04\n      tag_70\n      jump\t// in\n    tag_123:\n      tag_124\n      jump\t// in\n        /* \"smart-contract/hardhat/contracts/ClosedSurveyV3.sol\":9809:10107  function withdrawAllRewardFundsToResearcher()... */\n    tag_29:\n      tag_49\n      tag_126\n      jump\t// in\n        /* \"@openzeppelin/contracts/access/Ownable.sol\":2543:2758  function transferOwnership(address newOwner) public virtual onlyOwner {... */\n    tag_30:\n      tag_49\n      tag_128\n      calldatasize\n      0x04\n      tag_70\n      jump\t// in\n    tag_128:\n      tag_129\n      jump\t// in\n        /* \"smart-contract/hardhat/contracts/ClosedSurveyV3.sol\":11469:11540  function unpauseSurvey() external onlyOwner {... */\n    tag_50:\n        /* \"@openzeppelin/contracts/access/Ownable.sol\":1531:1544  _checkOwner() */\n      tag_132\n        /* \"@openzeppelin/contracts/access/Ownable.sol\":1531:1542  _checkOwner */\n      tag_133\n        /* \"@openzeppelin/contracts/access/Ownable.sol\":1531:1544  _checkOwner() */\n      jump\t// in\n    tag_132:\n        /* \"smart-contract/hardhat/contracts/ClosedSurveyV3.sol\":11523:11533  _unpause() */\n      tag_135\n        /* \"smart-contract/hardhat/contracts/ClosedSurveyV3.sol\":11523:11531  _unpause */\n      tag_136\n        /* \"smart-contract/hardhat/contracts/ClosedSurveyV3.sol\":11523:11533  _unpause() */\n      jump\t// in\n    tag_135:\n        /* \"smart-contract/hardhat/contracts/ClosedSurveyV3.sol\":11469:11540  function unpauseSurvey() external onlyOwner {... */\n      jump\t// out\n        /* \"smart-contract/hardhat/contracts/ClosedSurveyV3.sol\":10764:11390  function updateTargetNumberOfParticipants(... */\n    tag_57:\n        /* \"@openzeppelin/contracts/access/Ownable.sol\":1531:1544  _checkOwner() */\n      tag_138\n        /* \"@openzeppelin/contracts/access/Ownable.sol\":1531:1542  _checkOwner */\n      tag_133\n        /* \"@openzeppelin/contracts/access/Ownable.sol\":1531:1544  _checkOwner() */\n      jump\t// in\n    tag_138:\n        /* \"smart-contract/hardhat/contracts/ClosedSurveyV3.sol\":10910:10940  _newTargetNumberOfParticipants */\n      dup1\n        /* \"smart-contract/hardhat/contracts/ClosedSurveyV3.sol\":10944:10945  0 */\n      0x00\n        /* \"smart-contract/hardhat/contracts/ClosedSurveyV3.sol\":10910:10945  _newTargetNumberOfParticipants != 0 */\n      sub\n        /* \"smart-contract/hardhat/contracts/ClosedSurveyV3.sol\":10889:11011  require(... */\n      tag_140\n      jumpi\n      mload(0x40)\n      shl(0xe5, 0x461bcd)\n      dup2\n      mstore\n        /* \"#utility.yul\":2839:2841   */\n      0x20\n        /* \"smart-contract/hardhat/contracts/ClosedSurveyV3.sol\":10889:11011  require(... */\n      0x04\n      dup3\n      add\n        /* \"#utility.yul\":2821:2842   */\n      mstore\n        /* \"#utility.yul\":2878:2880   */\n      0x28\n        /* \"#utility.yul\":2858:2876   */\n      0x24\n      dup3\n      add\n        /* \"#utility.yul\":2851:2881   */\n      mstore\n        /* \"#utility.yul\":2917:2951   */\n      0x5a65726f206e756d626572206f6620746172676574207061727469636970616e\n        /* \"#utility.yul\":2897:2915   */\n      0x44\n      dup3\n      add\n        /* \"#utility.yul\":2890:2952   */\n      mstore\n      shl(0xc1, 0x3a399033b4bb32b7)\n        /* \"#utility.yul\":2968:2986   */\n      0x64\n      dup3\n      add\n        /* \"#utility.yul\":2961:2999   */\n      mstore\n        /* \"#utility.yul\":3016:3035   */\n      0x84\n      add\n        /* \"smart-contract/hardhat/contracts/ClosedSurveyV3.sol\":10889:11011  require(... */\n    tag_141:\n      mload(0x40)\n      dup1\n      swap2\n      sub\n      swap1\n      revert\n    tag_140:\n        /* \"smart-contract/hardhat/contracts/ClosedSurveyV3.sol\":11062:11088  targetNumberOfParticipants */\n      0x07\n      dup1\n      sload\n        /* \"smart-contract/hardhat/contracts/ClosedSurveyV3.sol\":11180:11238  targetNumberOfParticipants = newTargetNumberOfParticipants */\n      swap1\n      dup3\n      swap1\n      sstore\n        /* \"smart-contract/hardhat/contracts/ClosedSurveyV3.sol\":11254:11383  TargetNumberOfParticipantsUpdates(... */\n      0x40\n      dup1\n      mload\n        /* \"#utility.yul\":3220:3245   */\n      dup3\n      dup2\n      mstore\n        /* \"#utility.yul\":3276:3278   */\n      0x20\n        /* \"#utility.yul\":3261:3279   */\n      dup2\n      add\n        /* \"#utility.yul\":3254:3288   */\n      dup5\n      swap1\n      mstore\n        /* \"smart-contract/hardhat/contracts/ClosedSurveyV3.sol\":11180:11238  targetNumberOfParticipants = newTargetNumberOfParticipants */\n      dup4\n      swap2\n        /* \"smart-contract/hardhat/contracts/ClosedSurveyV3.sol\":11254:11383  TargetNumberOfParticipantsUpdates(... */\n      0x2e31e8893a04ce5258044d342d7658948a6ac9710d97e32462ab75f131ae11ef\n      swap2\n        /* \"#utility.yul\":3193:3211   */\n      add\n        /* \"smart-contract/hardhat/contracts/ClosedSurveyV3.sol\":11254:11383  TargetNumberOfParticipantsUpdates(... */\n    tag_143:\n      mload(0x40)\n      dup1\n      swap2\n      sub\n      swap1\n      log1\n        /* \"smart-contract/hardhat/contracts/ClosedSurveyV3.sol\":10879:11390  {... */\n      pop\n      pop\n        /* \"smart-contract/hardhat/contracts/ClosedSurveyV3.sol\":10764:11390  function updateTargetNumberOfParticipants(... */\n      pop\n      jump\t// out\n        /* \"smart-contract/hardhat/contracts/ClosedSurveyV3.sol\":10113:10758  function updateRewardAmountPerParticipant(... */\n    tag_64:\n        /* \"@openzeppelin/contracts/access/Ownable.sol\":1531:1544  _checkOwner() */\n      tag_147\n        /* \"@openzeppelin/contracts/access/Ownable.sol\":1531:1542  _checkOwner */\n      tag_133\n        /* \"@openzeppelin/contracts/access/Ownable.sol\":1531:1544  _checkOwner() */\n      jump\t// in\n    tag_147:\n        /* \"smart-contract/hardhat/contracts/ClosedSurveyV3.sol\":10264:10299  _newRewardAmountPerParticipantInWei */\n      dup1\n        /* \"smart-contract/hardhat/contracts/ClosedSurveyV3.sol\":10303:10304  0 */\n      0x00\n        /* \"smart-contract/hardhat/contracts/ClosedSurveyV3.sol\":10264:10304  _newRewardAmountPerParticipantInWei != 0 */\n      sub\n        /* \"smart-contract/hardhat/contracts/ClosedSurveyV3.sol\":10243:10354  require(... */\n      tag_149\n      jumpi\n      mload(0x40)\n      shl(0xe5, 0x461bcd)\n      dup2\n      mstore\n        /* \"#utility.yul\":3501:3503   */\n      0x20\n        /* \"smart-contract/hardhat/contracts/ClosedSurveyV3.sol\":10243:10354  require(... */\n      0x04\n      dup3\n      add\n        /* \"#utility.yul\":3483:3504   */\n      mstore\n        /* \"#utility.yul\":3540:3542   */\n      0x18\n        /* \"#utility.yul\":3520:3538   */\n      0x24\n      dup3\n      add\n        /* \"#utility.yul\":3513:3543   */\n      mstore\n        /* \"#utility.yul\":3579:3605   */\n      0x5a65726f2072657761726420616d6f756e7420676976656e0000000000000000\n        /* \"#utility.yul\":3559:3577   */\n      0x44\n      dup3\n      add\n        /* \"#utility.yul\":3552:3606   */\n      mstore\n        /* \"#utility.yul\":3623:3641   */\n      0x64\n      add\n        /* \"smart-contract/hardhat/contracts/ClosedSurveyV3.sol\":10243:10354  require(... */\n      tag_141\n        /* \"#utility.yul\":3299:3647   */\n      jump\n        /* \"smart-contract/hardhat/contracts/ClosedSurveyV3.sol\":10243:10354  require(... */\n    tag_149:\n        /* \"smart-contract/hardhat/contracts/ClosedSurveyV3.sol\":10410:10441  rewardAmountPerParticipantInWei */\n      0x06\n      dup1\n      sload\n        /* \"smart-contract/hardhat/contracts/ClosedSurveyV3.sol\":10542:10610  rewardAmountPerParticipantInWei = newRewardAmountPerParticipantInWei */\n      swap1\n      dup3\n      swap1\n      sstore\n        /* \"smart-contract/hardhat/contracts/ClosedSurveyV3.sol\":10626:10751  RewardAmountUpdated(... */\n      0x40\n      dup1\n      mload\n        /* \"#utility.yul\":3220:3245   */\n      dup3\n      dup2\n      mstore\n        /* \"#utility.yul\":3276:3278   */\n      0x20\n        /* \"#utility.yul\":3261:3279   */\n      dup2\n      add\n        /* \"#utility.yul\":3254:3288   */\n      dup5\n      swap1\n      mstore\n        /* \"smart-contract/hardhat/contracts/ClosedSurveyV3.sol\":10542:10610  rewardAmountPerParticipantInWei = newRewardAmountPerParticipantInWei */\n      dup4\n      swap2\n        /* \"smart-contract/hardhat/contracts/ClosedSurveyV3.sol\":10626:10751  RewardAmountUpdated(... */\n      0xf0d37c3ae852021ac329281f604b658691cbfa6b9e9c22909f06b64a8ce87c94\n      swap2\n        /* \"#utility.yul\":3193:3211   */\n      add\n        /* \"smart-contract/hardhat/contracts/ClosedSurveyV3.sol\":10626:10751  RewardAmountUpdated(... */\n      tag_143\n        /* \"#utility.yul\":3046:3294   */\n      jump\n        /* \"@openzeppelin/contracts/access/Ownable.sol\":2293:2394  function renounceOwnership() public virtual onlyOwner {... */\n    tag_77:\n        /* \"@openzeppelin/contracts/access/Ownable.sol\":1531:1544  _checkOwner() */\n      tag_157\n        /* \"@openzeppelin/contracts/access/Ownable.sol\":1531:1542  _checkOwner */\n      tag_133\n        /* \"@openzeppelin/contracts/access/Ownable.sol\":1531:1544  _checkOwner() */\n      jump\t// in\n    tag_157:\n        /* \"@openzeppelin/contracts/access/Ownable.sol\":2357:2387  _transferOwnership(address(0)) */\n      tag_135\n        /* \"@openzeppelin/contracts/access/Ownable.sol\":2384:2385  0 */\n      0x00\n        /* \"@openzeppelin/contracts/access/Ownable.sol\":2357:2375  _transferOwnership */\n      tag_160\n        /* \"@openzeppelin/contracts/access/Ownable.sol\":2357:2387  _transferOwnership(address(0)) */\n      jump\t// in\n        /* \"smart-contract/hardhat/contracts/ClosedSurveyV3.sol\":6408:7392  function whitelistMultipleUserAddresses(address[] calldata walletAddresses)... */\n    tag_95:\n        /* \"@openzeppelin/contracts/access/Ownable.sol\":1531:1544  _checkOwner() */\n      tag_165\n        /* \"@openzeppelin/contracts/access/Ownable.sol\":1531:1542  _checkOwner */\n      tag_133\n        /* \"@openzeppelin/contracts/access/Ownable.sol\":1531:1544  _checkOwner() */\n      jump\t// in\n    tag_165:\n        /* \"smart-contract/hardhat/contracts/ClosedSurveyV3.sol\":6550:6565  walletAddresses */\n      dup1\n        /* \"smart-contract/hardhat/contracts/ClosedSurveyV3.sol\":6591:6601  length > 0 */\n      dup1\n        /* \"smart-contract/hardhat/contracts/ClosedSurveyV3.sol\":6583:6625  require(length > 0, \"No addresses passed\") */\n      tag_167\n      jumpi\n      mload(0x40)\n      shl(0xe5, 0x461bcd)\n      dup2\n      mstore\n      0x04\n      add\n      tag_141\n      swap1\n      tag_169\n      jump\t// in\n    tag_167:\n        /* \"smart-contract/hardhat/contracts/ClosedSurveyV3.sol\":6641:6650  uint256 i */\n      0x00\n        /* \"smart-contract/hardhat/contracts/ClosedSurveyV3.sol\":6636:7046  for (uint256 i = 0; i < length; ) {... */\n    tag_170:\n        /* \"smart-contract/hardhat/contracts/ClosedSurveyV3.sol\":6660:6666  length */\n      dup2\n        /* \"smart-contract/hardhat/contracts/ClosedSurveyV3.sol\":6656:6657  i */\n      dup2\n        /* \"smart-contract/hardhat/contracts/ClosedSurveyV3.sol\":6656:6666  i < length */\n      lt\n        /* \"smart-contract/hardhat/contracts/ClosedSurveyV3.sol\":6636:7046  for (uint256 i = 0; i < length; ) {... */\n      iszero\n      tag_171\n      jumpi\n        /* \"smart-contract/hardhat/contracts/ClosedSurveyV3.sol\":6739:6740  0 */\n      0x00\n        /* \"smart-contract/hardhat/contracts/ClosedSurveyV3.sol\":6709:6724  walletAddresses */\n      dup5\n      dup5\n        /* \"smart-contract/hardhat/contracts/ClosedSurveyV3.sol\":6725:6726  i */\n      dup4\n        /* \"smart-contract/hardhat/contracts/ClosedSurveyV3.sol\":6709:6727  walletAddresses[i] */\n      dup2\n      dup2\n      lt\n      tag_174\n      jumpi\n      tag_174\n      tag_175\n      jump\t// in\n    tag_174:\n      swap1\n      pop\n      0x20\n      mul\n      add\n      0x20\n      dup2\n      add\n      swap1\n      tag_176\n      swap2\n      swap1\n      tag_70\n      jump\t// in\n    tag_176:\n      sub(shl(0xa0, 0x01), 0x01)\n        /* \"smart-contract/hardhat/contracts/ClosedSurveyV3.sol\":6709:6741  walletAddresses[i] != address(0) */\n      and\n      sub\n        /* \"smart-contract/hardhat/contracts/ClosedSurveyV3.sol\":6684:6804  require(... */\n      tag_177\n      jumpi\n      mload(0x40)\n      shl(0xe5, 0x461bcd)\n      dup2\n      mstore\n        /* \"#utility.yul\":4334:4336   */\n      0x20\n        /* \"smart-contract/hardhat/contracts/ClosedSurveyV3.sol\":6684:6804  require(... */\n      0x04\n      dup3\n      add\n        /* \"#utility.yul\":4316:4337   */\n      mstore\n        /* \"#utility.yul\":4373:4375   */\n      0x1d\n        /* \"#utility.yul\":4353:4371   */\n      0x24\n      dup3\n      add\n        /* \"#utility.yul\":4346:4376   */\n      mstore\n        /* \"#utility.yul\":4412:4443   */\n      0x4f6e652f6d6f7265207a65726f2061646472657373657320676976656e000000\n        /* \"#utility.yul\":4392:4410   */\n      0x44\n      dup3\n      add\n        /* \"#utility.yul\":4385:4444   */\n      mstore\n        /* \"#utility.yul\":4461:4479   */\n      0x64\n      add\n        /* \"smart-contract/hardhat/contracts/ClosedSurveyV3.sol\":6684:6804  require(... */\n      tag_141\n        /* \"#utility.yul\":4132:4485   */\n      jump\n        /* \"smart-contract/hardhat/contracts/ClosedSurveyV3.sol\":6684:6804  require(... */\n    tag_177:\n        /* \"smart-contract/hardhat/contracts/ClosedSurveyV3.sol\":6845:6877  participantsWhitelistedForSurvey */\n      0x03\n        /* \"smart-contract/hardhat/contracts/ClosedSurveyV3.sol\":6845:6897  participantsWhitelistedForSurvey[walletAddresses[i]] */\n      0x00\n        /* \"smart-contract/hardhat/contracts/ClosedSurveyV3.sol\":6878:6893  walletAddresses */\n      dup6\n      dup6\n        /* \"smart-contract/hardhat/contracts/ClosedSurveyV3.sol\":6894:6895  i */\n      dup5\n        /* \"smart-contract/hardhat/contracts/ClosedSurveyV3.sol\":6878:6896  walletAddresses[i] */\n      dup2\n      dup2\n      lt\n      tag_181\n      jumpi\n      tag_181\n      tag_175\n      jump\t// in\n    tag_181:\n      swap1\n      pop\n      0x20\n      mul\n      add\n      0x20\n      dup2\n      add\n      swap1\n      tag_182\n      swap2\n      swap1\n      tag_70\n      jump\t// in\n    tag_182:\n      sub(shl(0xa0, 0x01), 0x01)\n        /* \"smart-contract/hardhat/contracts/ClosedSurveyV3.sol\":6845:6897  participantsWhitelistedForSurvey[walletAddresses[i]] */\n      and\n      dup2\n      mstore\n      0x20\n      dup2\n      add\n      swap2\n      swap1\n      swap2\n      mstore\n      0x40\n      add\n      0x00\n      keccak256\n      sload\n      0xff\n      and\n        /* \"smart-contract/hardhat/contracts/ClosedSurveyV3.sol\":6844:6897  !participantsWhitelistedForSurvey[walletAddresses[i]] */\n      iszero\n        /* \"smart-contract/hardhat/contracts/ClosedSurveyV3.sol\":6819:6975  require(... */\n      tag_183\n      jumpi\n      mload(0x40)\n      shl(0xe5, 0x461bcd)\n      dup2\n      mstore\n        /* \"#utility.yul\":4692:4694   */\n      0x20\n        /* \"smart-contract/hardhat/contracts/ClosedSurveyV3.sol\":6819:6975  require(... */\n      0x04\n      dup3\n      add\n        /* \"#utility.yul\":4674:4695   */\n      mstore\n        /* \"#utility.yul\":4731:4733   */\n      0x2c\n        /* \"#utility.yul\":4711:4729   */\n      0x24\n      dup3\n      add\n        /* \"#utility.yul\":4704:4734   */\n      mstore\n        /* \"#utility.yul\":4770:4804   */\n      0x4f6e652f6d6f726520676976656e2061646472657373657320616c7265616479\n        /* \"#utility.yul\":4750:4768   */\n      0x44\n      dup3\n      add\n        /* \"#utility.yul\":4743:4805   */\n      mstore\n      shl(0xa2, 0x081dda1a5d195b1a5cdd1959)\n        /* \"#utility.yul\":4821:4839   */\n      0x64\n      dup3\n      add\n        /* \"#utility.yul\":4814:4856   */\n      mstore\n        /* \"#utility.yul\":4873:4892   */\n      0x84\n      add\n        /* \"smart-contract/hardhat/contracts/ClosedSurveyV3.sol\":6819:6975  require(... */\n      tag_141\n        /* \"#utility.yul\":4490:4898   */\n      jump\n        /* \"smart-contract/hardhat/contracts/ClosedSurveyV3.sol\":6819:6975  require(... */\n    tag_183:\n        /* \"smart-contract/hardhat/contracts/ClosedSurveyV3.sol\":7018:7021  ++i */\n      0x01\n      add\n        /* \"smart-contract/hardhat/contracts/ClosedSurveyV3.sol\":6636:7046  for (uint256 i = 0; i < length; ) {... */\n      jump(tag_170)\n    tag_171:\n      pop\n        /* \"smart-contract/hardhat/contracts/ClosedSurveyV3.sol\":7061:7070  uint256 i */\n      0x00\n        /* \"smart-contract/hardhat/contracts/ClosedSurveyV3.sol\":7056:7322  for (uint256 i = 0; i < length; ) {... */\n    tag_186:\n        /* \"smart-contract/hardhat/contracts/ClosedSurveyV3.sol\":7080:7086  length */\n      dup2\n        /* \"smart-contract/hardhat/contracts/ClosedSurveyV3.sol\":7076:7077  i */\n      dup2\n        /* \"smart-contract/hardhat/contracts/ClosedSurveyV3.sol\":7076:7086  i < length */\n      lt\n        /* \"smart-contract/hardhat/contracts/ClosedSurveyV3.sol\":7056:7322  for (uint256 i = 0; i < length; ) {... */\n      iszero\n      tag_187\n      jumpi\n        /* \"smart-contract/hardhat/contracts/ClosedSurveyV3.sol\":7159:7163  true */\n      0x01\n        /* \"smart-contract/hardhat/contracts/ClosedSurveyV3.sol\":7104:7136  participantsWhitelistedForSurvey */\n      0x03\n        /* \"smart-contract/hardhat/contracts/ClosedSurveyV3.sol\":7104:7156  participantsWhitelistedForSurvey[walletAddresses[i]] */\n      0x00\n        /* \"smart-contract/hardhat/contracts/ClosedSurveyV3.sol\":7137:7152  walletAddresses */\n      dup7\n      dup7\n        /* \"smart-contract/hardhat/contracts/ClosedSurveyV3.sol\":7153:7154  i */\n      dup6\n        /* \"smart-contract/hardhat/contracts/ClosedSurveyV3.sol\":7137:7155  walletAddresses[i] */\n      dup2\n      dup2\n      lt\n      tag_190\n      jumpi\n      tag_190\n      tag_175\n      jump\t// in\n    tag_190:\n      swap1\n      pop\n      0x20\n      mul\n      add\n      0x20\n      dup2\n      add\n      swap1\n      tag_191\n      swap2\n      swap1\n      tag_70\n      jump\t// in\n    tag_191:\n      sub(shl(0xa0, 0x01), 0x01)\n        /* \"smart-contract/hardhat/contracts/ClosedSurveyV3.sol\":7104:7156  participantsWhitelistedForSurvey[walletAddresses[i]] */\n      and\n      dup2\n      mstore\n      0x20\n      dup2\n      add\n      swap2\n      swap1\n      swap2\n      mstore\n      0x40\n      add\n      0x00\n      keccak256\n        /* \"smart-contract/hardhat/contracts/ClosedSurveyV3.sol\":7104:7163  participantsWhitelistedForSurvey[walletAddresses[i]] = true */\n      dup1\n      sload\n      not(0xff)\n      and\n      swap2\n      iszero\n      iszero\n      swap2\n      swap1\n      swap2\n      or\n      swap1\n      sstore\n        /* \"smart-contract/hardhat/contracts/ClosedSurveyV3.sol\":7207:7238  numberOfWhitelistedParticipants */\n      0x09\n        /* \"smart-contract/hardhat/contracts/ClosedSurveyV3.sol\":7205:7238  ++numberOfWhitelistedParticipants */\n      dup1\n      sload\n      0x01\n      swap1\n      dup2\n      add\n      swap1\n      swap2\n      sstore\n        /* \"smart-contract/hardhat/contracts/ClosedSurveyV3.sol\":7294:7297  ++i */\n      add\n        /* \"smart-contract/hardhat/contracts/ClosedSurveyV3.sol\":7056:7322  for (uint256 i = 0; i < length; ) {... */\n      jump(tag_186)\n    tag_187:\n      pop\n        /* \"smart-contract/hardhat/contracts/ClosedSurveyV3.sol\":7337:7385  MultipleParticipantsWhitelisted(walletAddresses) */\n      0xcd54969ccf4839851c974f9e65e16eb0b2b47ddb55bc4f3b0951aafa2535f552\n        /* \"smart-contract/hardhat/contracts/ClosedSurveyV3.sol\":7369:7384  walletAddresses */\n      dup4\n      dup4\n        /* \"smart-contract/hardhat/contracts/ClosedSurveyV3.sol\":7337:7385  MultipleParticipantsWhitelisted(walletAddresses) */\n      mload(0x40)\n      tag_143\n      swap3\n      swap2\n      swap1\n      tag_193\n      jump\t// in\n        /* \"smart-contract/hardhat/contracts/ClosedSurveyV3.sol\":7398:8397  function blacklistMultipleWhitelistedUserAddresses(... */\n    tag_98:\n        /* \"@openzeppelin/contracts/access/Ownable.sol\":1531:1544  _checkOwner() */\n      tag_195\n        /* \"@openzeppelin/contracts/access/Ownable.sol\":1531:1542  _checkOwner */\n      tag_133\n        /* \"@openzeppelin/contracts/access/Ownable.sol\":1531:1544  _checkOwner() */\n      jump\t// in\n    tag_195:\n        /* \"smart-contract/hardhat/contracts/ClosedSurveyV3.sol\":7545:7560  walletAddresses */\n      dup1\n        /* \"smart-contract/hardhat/contracts/ClosedSurveyV3.sol\":7586:7596  length > 0 */\n      dup1\n        /* \"smart-contract/hardhat/contracts/ClosedSurveyV3.sol\":7578:7620  require(length > 0, \"No addresses passed\") */\n      tag_197\n      jumpi\n      mload(0x40)\n      shl(0xe5, 0x461bcd)\n      dup2\n      mstore\n      0x04\n      add\n      tag_141\n      swap1\n      tag_169\n      jump\t// in\n    tag_197:\n        /* \"smart-contract/hardhat/contracts/ClosedSurveyV3.sol\":7636:7645  uint256 i */\n      0x00\n        /* \"smart-contract/hardhat/contracts/ClosedSurveyV3.sol\":7631:8040  for (uint256 i = 0; i < length; ) {... */\n    tag_199:\n        /* \"smart-contract/hardhat/contracts/ClosedSurveyV3.sol\":7655:7661  length */\n      dup2\n        /* \"smart-contract/hardhat/contracts/ClosedSurveyV3.sol\":7651:7652  i */\n      dup2\n        /* \"smart-contract/hardhat/contracts/ClosedSurveyV3.sol\":7651:7661  i < length */\n      lt\n        /* \"smart-contract/hardhat/contracts/ClosedSurveyV3.sol\":7631:8040  for (uint256 i = 0; i < length; ) {... */\n      iszero\n      tag_200\n      jumpi\n        /* \"smart-contract/hardhat/contracts/ClosedSurveyV3.sol\":7734:7735  0 */\n      0x00\n        /* \"smart-contract/hardhat/contracts/ClosedSurveyV3.sol\":7704:7719  walletAddresses */\n      dup5\n      dup5\n        /* \"smart-contract/hardhat/contracts/ClosedSurveyV3.sol\":7720:7721  i */\n      dup4\n        /* \"smart-contract/hardhat/contracts/ClosedSurveyV3.sol\":7704:7722  walletAddresses[i] */\n      dup2\n      dup2\n      lt\n      tag_203\n      jumpi\n      tag_203\n      tag_175\n      jump\t// in\n    tag_203:\n      swap1\n      pop\n      0x20\n      mul\n      add\n      0x20\n      dup2\n      add\n      swap1\n      tag_204\n      swap2\n      swap1\n      tag_70\n      jump\t// in\n    tag_204:\n      sub(shl(0xa0, 0x01), 0x01)\n        /* \"smart-contract/hardhat/contracts/ClosedSurveyV3.sol\":7704:7736  walletAddresses[i] != address(0) */\n      and\n      sub\n        /* \"smart-contract/hardhat/contracts/ClosedSurveyV3.sol\":7679:7799  require(... */\n      tag_205\n      jumpi\n      mload(0x40)\n      shl(0xe5, 0x461bcd)\n      dup2\n      mstore\n        /* \"#utility.yul\":4334:4336   */\n      0x20\n        /* \"smart-contract/hardhat/contracts/ClosedSurveyV3.sol\":7679:7799  require(... */\n      0x04\n      dup3\n      add\n        /* \"#utility.yul\":4316:4337   */\n      mstore\n        /* \"#utility.yul\":4373:4375   */\n      0x1d\n        /* \"#utility.yul\":4353:4371   */\n      0x24\n      dup3\n      add\n        /* \"#utility.yul\":4346:4376   */\n      mstore\n        /* \"#utility.yul\":4412:4443   */\n      0x4f6e652f6d6f7265207a65726f2061646472657373657320676976656e000000\n        /* \"#utility.yul\":4392:4410   */\n      0x44\n      dup3\n      add\n        /* \"#utility.yul\":4385:4444   */\n      mstore\n        /* \"#utility.yul\":4461:4479   */\n      0x64\n      add\n        /* \"smart-contract/hardhat/contracts/ClosedSurveyV3.sol\":7679:7799  require(... */\n      tag_141\n        /* \"#utility.yul\":4132:4485   */\n      jump\n        /* \"smart-contract/hardhat/contracts/ClosedSurveyV3.sol\":7679:7799  require(... */\n    tag_205:\n        /* \"smart-contract/hardhat/contracts/ClosedSurveyV3.sol\":7839:7871  participantsWhitelistedForSurvey */\n      0x03\n        /* \"smart-contract/hardhat/contracts/ClosedSurveyV3.sol\":7839:7891  participantsWhitelistedForSurvey[walletAddresses[i]] */\n      0x00\n        /* \"smart-contract/hardhat/contracts/ClosedSurveyV3.sol\":7872:7887  walletAddresses */\n      dup6\n      dup6\n        /* \"smart-contract/hardhat/contracts/ClosedSurveyV3.sol\":7888:7889  i */\n      dup5\n        /* \"smart-contract/hardhat/contracts/ClosedSurveyV3.sol\":7872:7890  walletAddresses[i] */\n      dup2\n      dup2\n      lt\n      tag_208\n      jumpi\n      tag_208\n      tag_175\n      jump\t// in\n    tag_208:\n      swap1\n      pop\n      0x20\n      mul\n      add\n      0x20\n      dup2\n      add\n      swap1\n      tag_209\n      swap2\n      swap1\n      tag_70\n      jump\t// in\n    tag_209:\n      sub(shl(0xa0, 0x01), 0x01)\n        /* \"smart-contract/hardhat/contracts/ClosedSurveyV3.sol\":7839:7891  participantsWhitelistedForSurvey[walletAddresses[i]] */\n      and\n      dup2\n      mstore\n      0x20\n      dup2\n      add\n      swap2\n      swap1\n      swap2\n      mstore\n      0x40\n      add\n      0x00\n      keccak256\n      sload\n      0xff\n      and\n        /* \"smart-contract/hardhat/contracts/ClosedSurveyV3.sol\":7814:7969  require(... */\n      tag_210\n      jumpi\n      mload(0x40)\n      shl(0xe5, 0x461bcd)\n      dup2\n      mstore\n        /* \"#utility.yul\":5725:5727   */\n      0x20\n        /* \"smart-contract/hardhat/contracts/ClosedSurveyV3.sol\":7814:7969  require(... */\n      0x04\n      dup3\n      add\n        /* \"#utility.yul\":5707:5728   */\n      mstore\n        /* \"#utility.yul\":5764:5766   */\n      0x2c\n        /* \"#utility.yul\":5744:5762   */\n      0x24\n      dup3\n      add\n        /* \"#utility.yul\":5737:5767   */\n      mstore\n        /* \"#utility.yul\":5803:5837   */\n      0x4f6e652f6d6f726520676976656e2061646472657373657320616c7265616479\n        /* \"#utility.yul\":5783:5801   */\n      0x44\n      dup3\n      add\n        /* \"#utility.yul\":5776:5838   */\n      mstore\n      shl(0xa2, 0x08189b1858dadb1a5cdd1959)\n        /* \"#utility.yul\":5854:5872   */\n      0x64\n      dup3\n      add\n        /* \"#utility.yul\":5847:5889   */\n      mstore\n        /* \"#utility.yul\":5906:5925   */\n      0x84\n      add\n        /* \"smart-contract/hardhat/contracts/ClosedSurveyV3.sol\":7814:7969  require(... */\n      tag_141\n        /* \"#utility.yul\":5523:5931   */\n      jump\n        /* \"smart-contract/hardhat/contracts/ClosedSurveyV3.sol\":7814:7969  require(... */\n    tag_210:\n        /* \"smart-contract/hardhat/contracts/ClosedSurveyV3.sol\":8012:8015  ++i */\n      0x01\n      add\n        /* \"smart-contract/hardhat/contracts/ClosedSurveyV3.sol\":7631:8040  for (uint256 i = 0; i < length; ) {... */\n      jump(tag_199)\n    tag_200:\n      pop\n        /* \"smart-contract/hardhat/contracts/ClosedSurveyV3.sol\":8055:8064  uint256 i */\n      0x00\n        /* \"smart-contract/hardhat/contracts/ClosedSurveyV3.sol\":8050:8317  for (uint256 i = 0; i < length; ) {... */\n    tag_213:\n        /* \"smart-contract/hardhat/contracts/ClosedSurveyV3.sol\":8074:8080  length */\n      dup2\n        /* \"smart-contract/hardhat/contracts/ClosedSurveyV3.sol\":8070:8071  i */\n      dup2\n        /* \"smart-contract/hardhat/contracts/ClosedSurveyV3.sol\":8070:8080  i < length */\n      lt\n        /* \"smart-contract/hardhat/contracts/ClosedSurveyV3.sol\":8050:8317  for (uint256 i = 0; i < length; ) {... */\n      iszero\n      tag_214\n      jumpi\n        /* \"smart-contract/hardhat/contracts/ClosedSurveyV3.sol\":8153:8158  false */\n      0x00\n        /* \"smart-contract/hardhat/contracts/ClosedSurveyV3.sol\":8098:8130  participantsWhitelistedForSurvey */\n      0x03\n        /* \"smart-contract/hardhat/contracts/ClosedSurveyV3.sol\":8098:8150  participantsWhitelistedForSurvey[walletAddresses[i]] */\n      0x00\n        /* \"smart-contract/hardhat/contracts/ClosedSurveyV3.sol\":8131:8146  walletAddresses */\n      dup7\n      dup7\n        /* \"smart-contract/hardhat/contracts/ClosedSurveyV3.sol\":8147:8148  i */\n      dup6\n        /* \"smart-contract/hardhat/contracts/ClosedSurveyV3.sol\":8131:8149  walletAddresses[i] */\n      dup2\n      dup2\n      lt\n      tag_217\n      jumpi\n      tag_217\n      tag_175\n      jump\t// in\n    tag_217:\n      swap1\n      pop\n      0x20\n      mul\n      add\n      0x20\n      dup2\n      add\n      swap1\n      tag_218\n      swap2\n      swap1\n      tag_70\n      jump\t// in\n    tag_218:\n      sub(shl(0xa0, 0x01), 0x01)\n        /* \"smart-contract/hardhat/contracts/ClosedSurveyV3.sol\":8098:8150  participantsWhitelistedForSurvey[walletAddresses[i]] */\n      and\n      dup2\n      mstore\n      0x20\n      dup2\n      add\n      swap2\n      swap1\n      swap2\n      mstore\n      0x40\n      add\n      0x00\n      keccak256\n        /* \"smart-contract/hardhat/contracts/ClosedSurveyV3.sol\":8098:8158  participantsWhitelistedForSurvey[walletAddresses[i]] = false */\n      dup1\n      sload\n      not(0xff)\n      and\n      swap2\n      iszero\n      iszero\n      swap2\n      swap1\n      swap2\n      or\n      swap1\n      sstore\n        /* \"smart-contract/hardhat/contracts/ClosedSurveyV3.sol\":8202:8233  numberOfWhitelistedParticipants */\n      0x09\n        /* \"smart-contract/hardhat/contracts/ClosedSurveyV3.sol\":8200:8233  --numberOfWhitelistedParticipants */\n      dup1\n      sload\n      not(0x00)\n      add\n      swap1\n      sstore\n      0x01\n        /* \"smart-contract/hardhat/contracts/ClosedSurveyV3.sol\":8289:8292  ++i */\n      add\n        /* \"smart-contract/hardhat/contracts/ClosedSurveyV3.sol\":8050:8317  for (uint256 i = 0; i < length; ) {... */\n      jump(tag_213)\n    tag_214:\n      pop\n        /* \"smart-contract/hardhat/contracts/ClosedSurveyV3.sol\":8331:8390  MultipleWhitelistedParticipantsBlacklisted(walletAddresses) */\n      0xe29acb3292bed043faf01e16b1fcf8c38cf977e334155fa988ded4d254fc3424\n        /* \"smart-contract/hardhat/contracts/ClosedSurveyV3.sol\":8374:8389  walletAddresses */\n      dup4\n      dup4\n        /* \"smart-contract/hardhat/contracts/ClosedSurveyV3.sol\":8331:8390  MultipleWhitelistedParticipantsBlacklisted(walletAddresses) */\n      mload(0x40)\n      tag_143\n      swap3\n      swap2\n      swap1\n      tag_193\n      jump\t// in\n        /* \"smart-contract/hardhat/contracts/ClosedSurveyV3.sol\":8403:8954  function processRewardClaimByParticipant(address walletAddress)... */\n    tag_101:\n        /* \"@openzeppelin/contracts/utils/Pausable.sol\":1474:1493  _requireNotPaused() */\n      tag_221\n        /* \"@openzeppelin/contracts/utils/Pausable.sol\":1474:1491  _requireNotPaused */\n      tag_222\n        /* \"@openzeppelin/contracts/utils/Pausable.sol\":1474:1493  _requireNotPaused() */\n      jump\t// in\n    tag_221:\n        /* \"@openzeppelin/contracts/utils/ReentrancyGuard.sol\":2500:2521  _nonReentrantBefore() */\n      tag_224\n        /* \"@openzeppelin/contracts/utils/ReentrancyGuard.sol\":2500:2519  _nonReentrantBefore */\n      tag_225\n        /* \"@openzeppelin/contracts/utils/ReentrancyGuard.sol\":2500:2521  _nonReentrantBefore() */\n      jump\t// in\n    tag_224:\n        /* \"smart-contract/hardhat/contracts/ClosedSurveyV3.sol\":3687:3718  rewardAmountPerParticipantInWei */\n      sload(0x06)\n        /* \"smart-contract/hardhat/contracts/ClosedSurveyV3.sol\":3654:3683  cUSD.balanceOf(address(this)) */\n      mload(0x40)\n      shl(0xe0, 0x70a08231)\n      dup2\n      mstore\n        /* \"smart-contract/hardhat/contracts/ClosedSurveyV3.sol\":3677:3681  this */\n      address\n        /* \"smart-contract/hardhat/contracts/ClosedSurveyV3.sol\":3654:3683  cUSD.balanceOf(address(this)) */\n      0x04\n      dup3\n      add\n        /* \"#utility.yul\":364:415   */\n      mstore\n        /* \"smart-contract/hardhat/contracts/ClosedSurveyV3.sol\":3654:3658  cUSD */\n      immutable(\"0x4ce4dab4689da140a0c12de1a6af6b8f679594aeb723205f513e052d27f5b26f\")\n      sub(shl(0xa0, 0x01), 0x01)\n        /* \"smart-contract/hardhat/contracts/ClosedSurveyV3.sol\":3654:3668  cUSD.balanceOf */\n      and\n      swap1\n      0x70a08231\n      swap1\n        /* \"#utility.yul\":337:355   */\n      0x24\n      add\n        /* \"smart-contract/hardhat/contracts/ClosedSurveyV3.sol\":3654:3683  cUSD.balanceOf(address(this)) */\n      0x20\n      mload(0x40)\n      dup1\n      dup4\n      sub\n      dup2\n      dup7\n      gas\n      staticcall\n      iszero\n      dup1\n      iszero\n      tag_229\n      jumpi\n      returndatasize\n      0x00\n      dup1\n      returndatacopy\n      revert(0x00, returndatasize)\n    tag_229:\n      pop\n      pop\n      pop\n      pop\n      mload(0x40)\n      returndatasize\n      not(0x1f)\n      0x1f\n      dup3\n      add\n      and\n      dup3\n      add\n      dup1\n      0x40\n      mstore\n      pop\n      dup2\n      add\n      swap1\n      tag_230\n      swap2\n      swap1\n      tag_231\n      jump\t// in\n    tag_230:\n        /* \"smart-contract/hardhat/contracts/ClosedSurveyV3.sol\":3654:3718  cUSD.balanceOf(address(this)) >= rewardAmountPerParticipantInWei */\n      lt\n      iszero\n        /* \"smart-contract/hardhat/contracts/ClosedSurveyV3.sol\":3633:3778  require(... */\n      tag_232\n      jumpi\n      mload(0x40)\n      shl(0xe5, 0x461bcd)\n      dup2\n      mstore\n        /* \"#utility.yul\":6327:6329   */\n      0x20\n        /* \"smart-contract/hardhat/contracts/ClosedSurveyV3.sol\":3633:3778  require(... */\n      0x04\n      dup3\n      add\n        /* \"#utility.yul\":6309:6330   */\n      mstore\n        /* \"#utility.yul\":6366:6368   */\n      0x22\n        /* \"#utility.yul\":6346:6364   */\n      0x24\n      dup3\n      add\n        /* \"#utility.yul\":6339:6369   */\n      mstore\n        /* \"#utility.yul\":6405:6439   */\n      0x436f6e747261637420646f6573206e6f74206861766520656e6f756768206355\n        /* \"#utility.yul\":6385:6403   */\n      0x44\n      dup3\n      add\n        /* \"#utility.yul\":6378:6440   */\n      mstore\n      shl(0xf2, 0x14d1)\n        /* \"#utility.yul\":6456:6474   */\n      0x64\n      dup3\n      add\n        /* \"#utility.yul\":6449:6481   */\n      mstore\n        /* \"#utility.yul\":6498:6517   */\n      0x84\n      add\n        /* \"smart-contract/hardhat/contracts/ClosedSurveyV3.sol\":3633:3778  require(... */\n      tag_141\n        /* \"#utility.yul\":6125:6523   */\n      jump\n        /* \"smart-contract/hardhat/contracts/ClosedSurveyV3.sol\":3633:3778  require(... */\n    tag_232:\n        /* \"smart-contract/hardhat/contracts/ClosedSurveyV3.sol\":4098:4124  targetNumberOfParticipants */\n      sload(0x07)\n        /* \"smart-contract/hardhat/contracts/ClosedSurveyV3.sol\":4067:4095  numberOfRewardedParticipants */\n      sload(0x08)\n        /* \"smart-contract/hardhat/contracts/ClosedSurveyV3.sol\":4067:4124  numberOfRewardedParticipants < targetNumberOfParticipants */\n      lt\n        /* \"smart-contract/hardhat/contracts/ClosedSurveyV3.sol\":4046:4185  require(... */\n      tag_236\n      jumpi\n      mload(0x40)\n      shl(0xe5, 0x461bcd)\n      dup2\n      mstore\n        /* \"#utility.yul\":6730:6732   */\n      0x20\n        /* \"smart-contract/hardhat/contracts/ClosedSurveyV3.sol\":4046:4185  require(... */\n      0x04\n      dup3\n      add\n        /* \"#utility.yul\":6712:6733   */\n      mstore\n        /* \"#utility.yul\":6769:6771   */\n      0x23\n        /* \"#utility.yul\":6749:6767   */\n      0x24\n      dup3\n      add\n        /* \"#utility.yul\":6742:6772   */\n      mstore\n        /* \"#utility.yul\":6808:6842   */\n      0x416c6c207061727469636970616e74732068617665206265656e207265776172\n        /* \"#utility.yul\":6788:6806   */\n      0x44\n      dup3\n      add\n        /* \"#utility.yul\":6781:6843   */\n      mstore\n      shl(0xea, 0x191959)\n        /* \"#utility.yul\":6859:6877   */\n      0x64\n      dup3\n      add\n        /* \"#utility.yul\":6852:6885   */\n      mstore\n        /* \"#utility.yul\":6902:6921   */\n      0x84\n      add\n        /* \"smart-contract/hardhat/contracts/ClosedSurveyV3.sol\":4046:4185  require(... */\n      tag_141\n        /* \"#utility.yul\":6528:6927   */\n      jump\n        /* \"smart-contract/hardhat/contracts/ClosedSurveyV3.sol\":4046:4185  require(... */\n    tag_236:\n        /* \"smart-contract/hardhat/contracts/ClosedSurveyV3.sol\":8637:8650  walletAddress */\n      dup1\n        /* \"smart-contract/hardhat/contracts/ClosedSurveyV3.sol\":3511:3521  msg.sender */\n      caller\n      sub(shl(0xa0, 0x01), 0x01)\n        /* \"smart-contract/hardhat/contracts/ClosedSurveyV3.sol\":3511:3538  msg.sender == messageSender */\n      dup3\n      and\n      eq\n        /* \"smart-contract/hardhat/contracts/ClosedSurveyV3.sol\":3503:3560  require(msg.sender == messageSender, \"Only valid sender\") */\n      tag_240\n      jumpi\n      mload(0x40)\n      shl(0xe5, 0x461bcd)\n      dup2\n      mstore\n        /* \"#utility.yul\":7134:7136   */\n      0x20\n        /* \"smart-contract/hardhat/contracts/ClosedSurveyV3.sol\":3503:3560  require(msg.sender == messageSender, \"Only valid sender\") */\n      0x04\n      dup3\n      add\n        /* \"#utility.yul\":7116:7137   */\n      mstore\n        /* \"#utility.yul\":7173:7175   */\n      0x11\n        /* \"#utility.yul\":7153:7171   */\n      0x24\n      dup3\n      add\n        /* \"#utility.yul\":7146:7176   */\n      mstore\n      shl(0x79, 0x27b7363c903b30b634b21039b2b73232b9)\n        /* \"#utility.yul\":7192:7210   */\n      0x44\n      dup3\n      add\n        /* \"#utility.yul\":7185:7232   */\n      mstore\n        /* \"#utility.yul\":7249:7267   */\n      0x64\n      add\n        /* \"smart-contract/hardhat/contracts/ClosedSurveyV3.sol\":3503:3560  require(msg.sender == messageSender, \"Only valid sender\") */\n      tag_141\n        /* \"#utility.yul\":6932:7273   */\n      jump\n        /* \"smart-contract/hardhat/contracts/ClosedSurveyV3.sol\":3503:3560  require(msg.sender == messageSender, \"Only valid sender\") */\n    tag_240:\n      sub(shl(0xa0, 0x01), 0x01)\n        /* \"smart-contract/hardhat/contracts/ClosedSurveyV3.sol\":2012:2070  participantsWhitelistedForSurvey[participantWalletAddress] */\n      dup3\n      and\n      0x00\n      swap1\n      dup2\n      mstore\n        /* \"smart-contract/hardhat/contracts/ClosedSurveyV3.sol\":2012:2044  participantsWhitelistedForSurvey */\n      0x03\n        /* \"smart-contract/hardhat/contracts/ClosedSurveyV3.sol\":2012:2070  participantsWhitelistedForSurvey[participantWalletAddress] */\n      0x20\n      mstore\n      0x40\n      swap1\n      keccak256\n      sload\n        /* \"smart-contract/hardhat/contracts/ClosedSurveyV3.sol\":8687:8700  walletAddress */\n      dup3\n      swap1\n        /* \"smart-contract/hardhat/contracts/ClosedSurveyV3.sol\":2012:2070  participantsWhitelistedForSurvey[participantWalletAddress] */\n      0xff\n      and\n        /* \"smart-contract/hardhat/contracts/ClosedSurveyV3.sol\":1991:2120  require(... */\n      tag_244\n      jumpi\n      mload(0x40)\n      shl(0xe5, 0x461bcd)\n      dup2\n      mstore\n        /* \"#utility.yul\":7480:7482   */\n      0x20\n        /* \"smart-contract/hardhat/contracts/ClosedSurveyV3.sol\":1991:2120  require(... */\n      0x04\n      dup3\n      add\n        /* \"#utility.yul\":7462:7483   */\n      mstore\n        /* \"#utility.yul\":7519:7521   */\n      0x18\n        /* \"#utility.yul\":7499:7517   */\n      0x24\n      dup3\n      add\n        /* \"#utility.yul\":7492:7522   */\n      mstore\n        /* \"#utility.yul\":7558:7584   */\n      0x4f6e6c792077686974656c697374656420616464726573730000000000000000\n        /* \"#utility.yul\":7538:7556   */\n      0x44\n      dup3\n      add\n        /* \"#utility.yul\":7531:7585   */\n      mstore\n        /* \"#utility.yul\":7602:7620   */\n      0x64\n      add\n        /* \"smart-contract/hardhat/contracts/ClosedSurveyV3.sol\":1991:2120  require(... */\n      tag_141\n        /* \"#utility.yul\":7278:7626   */\n      jump\n        /* \"smart-contract/hardhat/contracts/ClosedSurveyV3.sol\":1991:2120  require(... */\n    tag_244:\n      sub(shl(0xa0, 0x01), 0x01)\n        /* \"smart-contract/hardhat/contracts/ClosedSurveyV3.sol\":3308:3367  participantsWhoHaveClaimedRewards[participantWalletAddress] */\n      dup4\n      and\n      0x00\n      swap1\n      dup2\n      mstore\n        /* \"smart-contract/hardhat/contracts/ClosedSurveyV3.sol\":3308:3341  participantsWhoHaveClaimedRewards */\n      0x04\n        /* \"smart-contract/hardhat/contracts/ClosedSurveyV3.sol\":3308:3367  participantsWhoHaveClaimedRewards[participantWalletAddress] */\n      0x20\n      mstore\n      0x40\n      swap1\n      keccak256\n      sload\n        /* \"smart-contract/hardhat/contracts/ClosedSurveyV3.sol\":8736:8749  walletAddress */\n      dup4\n      swap1\n        /* \"smart-contract/hardhat/contracts/ClosedSurveyV3.sol\":3308:3367  participantsWhoHaveClaimedRewards[participantWalletAddress] */\n      0xff\n      and\n        /* \"smart-contract/hardhat/contracts/ClosedSurveyV3.sol\":3307:3367  !participantsWhoHaveClaimedRewards[participantWalletAddress] */\n      iszero\n        /* \"smart-contract/hardhat/contracts/ClosedSurveyV3.sol\":3286:3421  require(... */\n      tag_248\n      jumpi\n      mload(0x40)\n      shl(0xe5, 0x461bcd)\n      dup2\n      mstore\n        /* \"#utility.yul\":7833:7835   */\n      0x20\n        /* \"smart-contract/hardhat/contracts/ClosedSurveyV3.sol\":3286:3421  require(... */\n      0x04\n      dup3\n      add\n        /* \"#utility.yul\":7815:7836   */\n      mstore\n        /* \"#utility.yul\":7872:7874   */\n      0x1c\n        /* \"#utility.yul\":7852:7870   */\n      0x24\n      dup3\n      add\n        /* \"#utility.yul\":7845:7875   */\n      mstore\n        /* \"#utility.yul\":7911:7941   */\n      0x5061727469636970616e7420616c726561647920726577617264656400000000\n        /* \"#utility.yul\":7891:7909   */\n      0x44\n      dup3\n      add\n        /* \"#utility.yul\":7884:7942   */\n      mstore\n        /* \"#utility.yul\":7959:7977   */\n      0x64\n      add\n        /* \"smart-contract/hardhat/contracts/ClosedSurveyV3.sol\":3286:3421  require(... */\n      tag_141\n        /* \"#utility.yul\":7631:7983   */\n      jump\n        /* \"smart-contract/hardhat/contracts/ClosedSurveyV3.sol\":3286:3421  require(... */\n    tag_248:\n        /* \"smart-contract/hardhat/contracts/ClosedSurveyV3.sol\":8765:8795  bool rewardTransferIsSuccesful */\n      0x00\n        /* \"smart-contract/hardhat/contracts/ClosedSurveyV3.sol\":8798:8830  rewardParticipant(walletAddress) */\n      tag_252\n        /* \"smart-contract/hardhat/contracts/ClosedSurveyV3.sol\":8816:8829  walletAddress */\n      dup6\n        /* \"smart-contract/hardhat/contracts/ClosedSurveyV3.sol\":8798:8815  rewardParticipant */\n      tag_253\n        /* \"smart-contract/hardhat/contracts/ClosedSurveyV3.sol\":8798:8830  rewardParticipant(walletAddress) */\n      jump\t// in\n    tag_252:\n        /* \"smart-contract/hardhat/contracts/ClosedSurveyV3.sol\":8765:8830  bool rewardTransferIsSuccesful = rewardParticipant(walletAddress) */\n      swap1\n      pop\n        /* \"smart-contract/hardhat/contracts/ClosedSurveyV3.sol\":8845:8870  rewardTransferIsSuccesful */\n      dup1\n        /* \"smart-contract/hardhat/contracts/ClosedSurveyV3.sol\":8841:8948  if (rewardTransferIsSuccesful) {... */\n      iszero\n      tag_255\n      jumpi\n        /* \"smart-contract/hardhat/contracts/ClosedSurveyV3.sol\":8886:8937  markParticipantAsHavingClaimedReward(walletAddress) */\n      tag_255\n        /* \"smart-contract/hardhat/contracts/ClosedSurveyV3.sol\":8923:8936  walletAddress */\n      dup6\n        /* \"smart-contract/hardhat/contracts/ClosedSurveyV3.sol\":8886:8922  markParticipantAsHavingClaimedReward */\n      tag_256\n        /* \"smart-contract/hardhat/contracts/ClosedSurveyV3.sol\":8886:8937  markParticipantAsHavingClaimedReward(walletAddress) */\n      jump\t// in\n    tag_255:\n        /* \"smart-contract/hardhat/contracts/ClosedSurveyV3.sol\":8755:8954  {... */\n      pop\n        /* \"smart-contract/hardhat/contracts/ClosedSurveyV3.sol\":2130:2131  _ */\n      pop\n        /* \"smart-contract/hardhat/contracts/ClosedSurveyV3.sol\":3570:3571  _ */\n      pop\n        /* \"smart-contract/hardhat/contracts/ClosedSurveyV3.sol\":4195:4196  _ */\n      pop\n        /* \"@openzeppelin/contracts/utils/ReentrancyGuard.sol\":2542:2562  _nonReentrantAfter() */\n      tag_257\n        /* \"@openzeppelin/contracts/utils/ReentrancyGuard.sol\":1857:1858  1 */\n      0x01\n        /* \"@openzeppelin/contracts/utils/ReentrancyGuard.sol\":3068:3089  _status = NOT_ENTERED */\n      dup1\n      sstore\n        /* \"@openzeppelin/contracts/utils/ReentrancyGuard.sol\":2888:3096  function _nonReentrantAfter() private {... */\n      jump\n        /* \"@openzeppelin/contracts/utils/ReentrancyGuard.sol\":2542:2562  _nonReentrantAfter() */\n    tag_257:\n        /* \"smart-contract/hardhat/contracts/ClosedSurveyV3.sol\":8403:8954  function processRewardClaimByParticipant(address walletAddress)... */\n      pop\n      jump\t// out\n        /* \"smart-contract/hardhat/contracts/ClosedSurveyV3.sol\":11546:12515  function getWhitelistedParticipantsFromRegisteredParticipants(... */\n    tag_104:\n        /* \"smart-contract/hardhat/contracts/ClosedSurveyV3.sol\":11685:11701  address[] memory */\n      0x60\n        /* \"smart-contract/hardhat/contracts/ClosedSurveyV3.sol\":11730:11749  registeredAddresses */\n      dup2\n        /* \"smart-contract/hardhat/contracts/ClosedSurveyV3.sol\":11713:11727  uint256 length */\n      0x00\n        /* \"smart-contract/hardhat/contracts/ClosedSurveyV3.sol\":11775:11786  length != 0 */\n      dup2\n      swap1\n      sub\n        /* \"smart-contract/hardhat/contracts/ClosedSurveyV3.sol\":11767:11810  require(length != 0, \"No addresses passed\") */\n      tag_260\n      jumpi\n      mload(0x40)\n      shl(0xe5, 0x461bcd)\n      dup2\n      mstore\n      0x04\n      add\n      tag_141\n      swap1\n      tag_169\n      jump\t// in\n    tag_260:\n        /* \"smart-contract/hardhat/contracts/ClosedSurveyV3.sol\":11820:11844  uint256 whitelistedCount */\n      0x00\n        /* \"smart-contract/hardhat/contracts/ClosedSurveyV3.sol\":11863:11872  uint256 i */\n      dup1\n        /* \"smart-contract/hardhat/contracts/ClosedSurveyV3.sol\":11858:12088  for (uint256 i = 0; i < length; ) {... */\n    tag_262:\n        /* \"smart-contract/hardhat/contracts/ClosedSurveyV3.sol\":11882:11888  length */\n      dup3\n        /* \"smart-contract/hardhat/contracts/ClosedSurveyV3.sol\":11878:11879  i */\n      dup2\n        /* \"smart-contract/hardhat/contracts/ClosedSurveyV3.sol\":11878:11888  i < length */\n      lt\n        /* \"smart-contract/hardhat/contracts/ClosedSurveyV3.sol\":11858:12088  for (uint256 i = 0; i < length; ) {... */\n      iszero\n      tag_263\n      jumpi\n        /* \"smart-contract/hardhat/contracts/ClosedSurveyV3.sol\":11910:11942  participantsWhitelistedForSurvey */\n      0x03\n        /* \"smart-contract/hardhat/contracts/ClosedSurveyV3.sol\":11910:11966  participantsWhitelistedForSurvey[registeredAddresses[i]] */\n      0x00\n        /* \"smart-contract/hardhat/contracts/ClosedSurveyV3.sol\":11943:11962  registeredAddresses */\n      dup8\n      dup8\n        /* \"smart-contract/hardhat/contracts/ClosedSurveyV3.sol\":11963:11964  i */\n      dup5\n        /* \"smart-contract/hardhat/contracts/ClosedSurveyV3.sol\":11943:11965  registeredAddresses[i] */\n      dup2\n      dup2\n      lt\n      tag_266\n      jumpi\n      tag_266\n      tag_175\n      jump\t// in\n    tag_266:\n      swap1\n      pop\n      0x20\n      mul\n      add\n      0x20\n      dup2\n      add\n      swap1\n      tag_267\n      swap2\n      swap1\n      tag_70\n      jump\t// in\n    tag_267:\n      sub(shl(0xa0, 0x01), 0x01)\n        /* \"smart-contract/hardhat/contracts/ClosedSurveyV3.sol\":11910:11966  participantsWhitelistedForSurvey[registeredAddresses[i]] */\n      and\n      dup2\n      mstore\n      0x20\n      dup2\n      add\n      swap2\n      swap1\n      swap2\n      mstore\n      0x40\n      add\n      0x00\n      keccak256\n      sload\n      0xff\n      and\n        /* \"smart-contract/hardhat/contracts/ClosedSurveyV3.sol\":11906:12019  if (participantsWhitelistedForSurvey[registeredAddresses[i]]) {... */\n      iszero\n      tag_268\n      jumpi\n        /* \"smart-contract/hardhat/contracts/ClosedSurveyV3.sol\":11986:12004  whitelistedCount++ */\n      dup2\n      tag_269\n      dup2\n      tag_270\n      jump\t// in\n    tag_269:\n      swap3\n      pop\n      pop\n        /* \"smart-contract/hardhat/contracts/ClosedSurveyV3.sol\":11906:12019  if (participantsWhitelistedForSurvey[registeredAddresses[i]]) {... */\n    tag_268:\n        /* \"smart-contract/hardhat/contracts/ClosedSurveyV3.sol\":12060:12063  ++i */\n      0x01\n      add\n        /* \"smart-contract/hardhat/contracts/ClosedSurveyV3.sol\":11858:12088  for (uint256 i = 0; i < length; ) {... */\n      jump(tag_262)\n    tag_263:\n      pop\n        /* \"smart-contract/hardhat/contracts/ClosedSurveyV3.sol\":12098:12135  address[] memory whitelistedAddresses */\n      0x00\n        /* \"smart-contract/hardhat/contracts/ClosedSurveyV3.sol\":12152:12168  whitelistedCount */\n      dup2\n        /* \"smart-contract/hardhat/contracts/ClosedSurveyV3.sol\":12138:12169  new address[](whitelistedCount) */\n      0xffffffffffffffff\n      dup2\n      gt\n      iszero\n      tag_272\n      jumpi\n      tag_272\n      tag_273\n      jump\t// in\n    tag_272:\n      mload(0x40)\n      swap1\n      dup1\n      dup3\n      mstore\n      dup1\n      0x20\n      mul\n      0x20\n      add\n      dup3\n      add\n      0x40\n      mstore\n      dup1\n      iszero\n      tag_274\n      jumpi\n      dup2\n      0x20\n      add\n      0x20\n      dup3\n      mul\n      dup1\n      calldatasize\n      dup4\n      calldatacopy\n      add\n      swap1\n      pop\n    tag_274:\n      pop\n        /* \"smart-contract/hardhat/contracts/ClosedSurveyV3.sol\":12098:12169  address[] memory whitelistedAddresses = new address[](whitelistedCount) */\n      swap1\n      pop\n        /* \"smart-contract/hardhat/contracts/ClosedSurveyV3.sol\":12179:12192  uint256 index */\n      0x00\n        /* \"smart-contract/hardhat/contracts/ClosedSurveyV3.sol\":12211:12220  uint256 i */\n      dup1\n        /* \"smart-contract/hardhat/contracts/ClosedSurveyV3.sol\":12206:12472  for (uint256 i = 0; i < length; ) {... */\n    tag_275:\n        /* \"smart-contract/hardhat/contracts/ClosedSurveyV3.sol\":12230:12236  length */\n      dup5\n        /* \"smart-contract/hardhat/contracts/ClosedSurveyV3.sol\":12226:12227  i */\n      dup2\n        /* \"smart-contract/hardhat/contracts/ClosedSurveyV3.sol\":12226:12236  i < length */\n      lt\n        /* \"smart-contract/hardhat/contracts/ClosedSurveyV3.sol\":12206:12472  for (uint256 i = 0; i < length; ) {... */\n      iszero\n      tag_276\n      jumpi\n        /* \"smart-contract/hardhat/contracts/ClosedSurveyV3.sol\":12258:12290  participantsWhitelistedForSurvey */\n      0x03\n        /* \"smart-contract/hardhat/contracts/ClosedSurveyV3.sol\":12258:12314  participantsWhitelistedForSurvey[registeredAddresses[i]] */\n      0x00\n        /* \"smart-contract/hardhat/contracts/ClosedSurveyV3.sol\":12291:12310  registeredAddresses */\n      dup10\n      dup10\n        /* \"smart-contract/hardhat/contracts/ClosedSurveyV3.sol\":12311:12312  i */\n      dup5\n        /* \"smart-contract/hardhat/contracts/ClosedSurveyV3.sol\":12291:12313  registeredAddresses[i] */\n      dup2\n      dup2\n      lt\n      tag_279\n      jumpi\n      tag_279\n      tag_175\n      jump\t// in\n    tag_279:\n      swap1\n      pop\n      0x20\n      mul\n      add\n      0x20\n      dup2\n      add\n      swap1\n      tag_280\n      swap2\n      swap1\n      tag_70\n      jump\t// in\n    tag_280:\n      sub(shl(0xa0, 0x01), 0x01)\n        /* \"smart-contract/hardhat/contracts/ClosedSurveyV3.sol\":12258:12314  participantsWhitelistedForSurvey[registeredAddresses[i]] */\n      and\n      dup2\n      mstore\n      0x20\n      dup2\n      add\n      swap2\n      swap1\n      swap2\n      mstore\n      0x40\n      add\n      0x00\n      keccak256\n      sload\n      0xff\n      and\n        /* \"smart-contract/hardhat/contracts/ClosedSurveyV3.sol\":12254:12403  if (participantsWhitelistedForSurvey[registeredAddresses[i]]) {... */\n      iszero\n      tag_281\n      jumpi\n        /* \"smart-contract/hardhat/contracts/ClosedSurveyV3.sol\":12366:12385  registeredAddresses */\n      dup8\n      dup8\n        /* \"smart-contract/hardhat/contracts/ClosedSurveyV3.sol\":12386:12387  i */\n      dup3\n        /* \"smart-contract/hardhat/contracts/ClosedSurveyV3.sol\":12366:12388  registeredAddresses[i] */\n      dup2\n      dup2\n      lt\n      tag_283\n      jumpi\n      tag_283\n      tag_175\n      jump\t// in\n    tag_283:\n      swap1\n      pop\n      0x20\n      mul\n      add\n      0x20\n      dup2\n      add\n      swap1\n      tag_284\n      swap2\n      swap1\n      tag_70\n      jump\t// in\n    tag_284:\n        /* \"smart-contract/hardhat/contracts/ClosedSurveyV3.sol\":12334:12354  whitelistedAddresses */\n      dup4\n        /* \"smart-contract/hardhat/contracts/ClosedSurveyV3.sol\":12355:12362  index++ */\n      dup4\n      tag_285\n      dup2\n      tag_270\n      jump\t// in\n    tag_285:\n      swap5\n      pop\n        /* \"smart-contract/hardhat/contracts/ClosedSurveyV3.sol\":12334:12363  whitelistedAddresses[index++] */\n      dup2\n      mload\n      dup2\n      lt\n      tag_287\n      jumpi\n      tag_287\n      tag_175\n      jump\t// in\n    tag_287:\n      0x20\n      mul\n      0x20\n      add\n      add\n        /* \"smart-contract/hardhat/contracts/ClosedSurveyV3.sol\":12334:12388  whitelistedAddresses[index++] = registeredAddresses[i] */\n      swap1\n      sub(shl(0xa0, 0x01), 0x01)\n      and\n      swap1\n      dup2\n      sub(shl(0xa0, 0x01), 0x01)\n      and\n      dup2\n      mstore\n      pop\n      pop\n        /* \"smart-contract/hardhat/contracts/ClosedSurveyV3.sol\":12254:12403  if (participantsWhitelistedForSurvey[registeredAddresses[i]]) {... */\n    tag_281:\n        /* \"smart-contract/hardhat/contracts/ClosedSurveyV3.sol\":12444:12447  ++i */\n      0x01\n      add\n        /* \"smart-contract/hardhat/contracts/ClosedSurveyV3.sol\":12206:12472  for (uint256 i = 0; i < length; ) {... */\n      jump(tag_275)\n    tag_276:\n      pop\n        /* \"smart-contract/hardhat/contracts/ClosedSurveyV3.sol\":12488:12508  whitelistedAddresses */\n      swap1\n      swap7\n        /* \"smart-contract/hardhat/contracts/ClosedSurveyV3.sol\":11546:12515  function getWhitelistedParticipantsFromRegisteredParticipants(... */\n      swap6\n      pop\n      pop\n      pop\n      pop\n      pop\n      pop\n      jump\t// out\n        /* \"smart-contract/hardhat/contracts/ClosedSurveyV3.sol\":5555:5964  function whitelistOneUserAddress(address walletAddress)... */\n    tag_112:\n        /* \"@openzeppelin/contracts/access/Ownable.sol\":1531:1544  _checkOwner() */\n      tag_289\n        /* \"@openzeppelin/contracts/access/Ownable.sol\":1531:1542  _checkOwner */\n      tag_133\n        /* \"@openzeppelin/contracts/access/Ownable.sol\":1531:1544  _checkOwner() */\n      jump\t// in\n    tag_289:\n      sub(shl(0xa0, 0x01), 0x01)\n        /* \"smart-contract/hardhat/contracts/ClosedSurveyV3.sol\":2454:2512  participantsWhitelistedForSurvey[participantWalletAddress] */\n      dup2\n      and\n      0x00\n      swap1\n      dup2\n      mstore\n        /* \"smart-contract/hardhat/contracts/ClosedSurveyV3.sol\":2454:2486  participantsWhitelistedForSurvey */\n      0x03\n        /* \"smart-contract/hardhat/contracts/ClosedSurveyV3.sol\":2454:2512  participantsWhitelistedForSurvey[participantWalletAddress] */\n      0x20\n      mstore\n      0x40\n      swap1\n      keccak256\n      sload\n        /* \"smart-contract/hardhat/contracts/ClosedSurveyV3.sol\":5672:5685  walletAddress */\n      dup2\n      swap1\n        /* \"smart-contract/hardhat/contracts/ClosedSurveyV3.sol\":2454:2512  participantsWhitelistedForSurvey[participantWalletAddress] */\n      0xff\n      and\n        /* \"smart-contract/hardhat/contracts/ClosedSurveyV3.sol\":2453:2512  !participantsWhitelistedForSurvey[participantWalletAddress] */\n      iszero\n        /* \"smart-contract/hardhat/contracts/ClosedSurveyV3.sol\":2432:2557  require(... */\n      tag_291\n      jumpi\n      mload(0x40)\n      shl(0xe5, 0x461bcd)\n      dup2\n      mstore\n        /* \"#utility.yul\":8559:8561   */\n      0x20\n        /* \"smart-contract/hardhat/contracts/ClosedSurveyV3.sol\":2432:2557  require(... */\n      0x04\n      dup3\n      add\n        /* \"#utility.yul\":8541:8562   */\n      mstore\n        /* \"#utility.yul\":8598:8600   */\n      0x13\n        /* \"#utility.yul\":8578:8596   */\n      0x24\n      dup3\n      add\n        /* \"#utility.yul\":8571:8601   */\n      mstore\n      shl(0x6a, 0x135d5cdd08189948189b1858dadb1a5cdd1959)\n        /* \"#utility.yul\":8617:8635   */\n      0x44\n      dup3\n      add\n        /* \"#utility.yul\":8610:8659   */\n      mstore\n        /* \"#utility.yul\":8676:8694   */\n      0x64\n      add\n        /* \"smart-contract/hardhat/contracts/ClosedSurveyV3.sol\":2432:2557  require(... */\n      tag_141\n        /* \"#utility.yul\":8357:8700   */\n      jump\n        /* \"smart-contract/hardhat/contracts/ClosedSurveyV3.sol\":2432:2557  require(... */\n    tag_291:\n      sub(shl(0xa0, 0x01), 0x01)\n        /* \"smart-contract/hardhat/contracts/ClosedSurveyV3.sol\":5709:5736  walletAddress != address(0) */\n      dup3\n      and\n        /* \"smart-contract/hardhat/contracts/ClosedSurveyV3.sol\":5701:5760  require(walletAddress != address(0), \"Zero address passed\") */\n      tag_295\n      jumpi\n      mload(0x40)\n      shl(0xe5, 0x461bcd)\n      dup2\n      mstore\n      0x04\n      add\n      tag_141\n      swap1\n      tag_297\n      jump\t// in\n    tag_295:\n      sub(shl(0xa0, 0x01), 0x01)\n        /* \"smart-contract/hardhat/contracts/ClosedSurveyV3.sol\":5771:5818  participantsWhitelistedForSurvey[walletAddress] */\n      dup3\n      and\n      0x00\n      dup2\n      dup2\n      mstore\n        /* \"smart-contract/hardhat/contracts/ClosedSurveyV3.sol\":5771:5803  participantsWhitelistedForSurvey */\n      0x03\n        /* \"smart-contract/hardhat/contracts/ClosedSurveyV3.sol\":5771:5818  participantsWhitelistedForSurvey[walletAddress] */\n      0x20\n      swap1\n      dup2\n      mstore\n      0x40\n      swap2\n      dup3\n      swap1\n      keccak256\n        /* \"smart-contract/hardhat/contracts/ClosedSurveyV3.sol\":5771:5825  participantsWhitelistedForSurvey[walletAddress] = true */\n      dup1\n      sload\n      not(0xff)\n      and\n        /* \"smart-contract/hardhat/contracts/ClosedSurveyV3.sol\":5821:5825  true */\n      0x01\n        /* \"smart-contract/hardhat/contracts/ClosedSurveyV3.sol\":5771:5825  participantsWhitelistedForSurvey[walletAddress] = true */\n      swap1\n      dup2\n      or\n      swap1\n      swap2\n      sstore\n        /* \"smart-contract/hardhat/contracts/ClosedSurveyV3.sol\":5861:5892  numberOfWhitelistedParticipants */\n      0x09\n        /* \"smart-contract/hardhat/contracts/ClosedSurveyV3.sol\":5859:5892  ++numberOfWhitelistedParticipants */\n      dup1\n      sload\n      swap1\n      swap2\n      add\n      swap1\n      sstore\n        /* \"smart-contract/hardhat/contracts/ClosedSurveyV3.sol\":5917:5957  OneParticipantWhitelisted(walletAddress) */\n      swap1\n      mload\n        /* \"#utility.yul\":364:415   */\n      swap2\n      dup3\n      mstore\n        /* \"smart-contract/hardhat/contracts/ClosedSurveyV3.sol\":5917:5957  OneParticipantWhitelisted(walletAddress) */\n      0xc1bf09e09093691bde88793790b0af49ae99cc6c301523675a439aa76a084f18\n      swap2\n        /* \"#utility.yul\":337:355   */\n      add\n        /* \"smart-contract/hardhat/contracts/ClosedSurveyV3.sol\":5917:5957  OneParticipantWhitelisted(walletAddress) */\n    tag_298:\n      mload(0x40)\n      dup1\n      swap2\n      sub\n      swap1\n      log1\n        /* \"@openzeppelin/contracts/access/Ownable.sol\":1554:1555  _ */\n      pop\n        /* \"smart-contract/hardhat/contracts/ClosedSurveyV3.sol\":5555:5964  function whitelistOneUserAddress(address walletAddress)... */\n      pop\n      jump\t// out\n        /* \"smart-contract/hardhat/contracts/ClosedSurveyV3.sol\":5970:6402  function blacklistOneWhitelistedUserAddress(address walletAddress)... */\n    tag_115:\n        /* \"@openzeppelin/contracts/access/Ownable.sol\":1531:1544  _checkOwner() */\n      tag_300\n        /* \"@openzeppelin/contracts/access/Ownable.sol\":1531:1542  _checkOwner */\n      tag_133\n        /* \"@openzeppelin/contracts/access/Ownable.sol\":1531:1544  _checkOwner() */\n      jump\t// in\n    tag_300:\n      sub(shl(0xa0, 0x01), 0x01)\n        /* \"smart-contract/hardhat/contracts/ClosedSurveyV3.sol\":2235:2293  participantsWhitelistedForSurvey[participantWalletAddress] */\n      dup2\n      and\n      0x00\n      swap1\n      dup2\n      mstore\n        /* \"smart-contract/hardhat/contracts/ClosedSurveyV3.sol\":2235:2267  participantsWhitelistedForSurvey */\n      0x03\n        /* \"smart-contract/hardhat/contracts/ClosedSurveyV3.sol\":2235:2293  participantsWhitelistedForSurvey[participantWalletAddress] */\n      0x20\n      mstore\n      0x40\n      swap1\n      keccak256\n      sload\n        /* \"smart-contract/hardhat/contracts/ClosedSurveyV3.sol\":6098:6111  walletAddress */\n      dup2\n      swap1\n        /* \"smart-contract/hardhat/contracts/ClosedSurveyV3.sol\":2235:2293  participantsWhitelistedForSurvey[participantWalletAddress] */\n      0xff\n      and\n        /* \"smart-contract/hardhat/contracts/ClosedSurveyV3.sol\":2214:2338  require(... */\n      tag_302\n      jumpi\n      mload(0x40)\n      shl(0xe5, 0x461bcd)\n      dup2\n      mstore\n        /* \"#utility.yul\":9255:9257   */\n      0x20\n        /* \"smart-contract/hardhat/contracts/ClosedSurveyV3.sol\":2214:2338  require(... */\n      0x04\n      dup3\n      add\n        /* \"#utility.yul\":9237:9258   */\n      mstore\n        /* \"#utility.yul\":9294:9296   */\n      0x13\n        /* \"#utility.yul\":9274:9292   */\n      0x24\n      dup3\n      add\n        /* \"#utility.yul\":9267:9297   */\n      mstore\n      shl(0x6a, 0x135d5cdd081899481dda1a5d195b1a5cdd1959)\n        /* \"#utility.yul\":9313:9331   */\n      0x44\n      dup3\n      add\n        /* \"#utility.yul\":9306:9355   */\n      mstore\n        /* \"#utility.yul\":9372:9390   */\n      0x64\n      add\n        /* \"smart-contract/hardhat/contracts/ClosedSurveyV3.sol\":2214:2338  require(... */\n      tag_141\n        /* \"#utility.yul\":9053:9396   */\n      jump\n        /* \"smart-contract/hardhat/contracts/ClosedSurveyV3.sol\":2214:2338  require(... */\n    tag_302:\n      sub(shl(0xa0, 0x01), 0x01)\n        /* \"smart-contract/hardhat/contracts/ClosedSurveyV3.sol\":6135:6162  walletAddress != address(0) */\n      dup3\n      and\n        /* \"smart-contract/hardhat/contracts/ClosedSurveyV3.sol\":6127:6186  require(walletAddress != address(0), \"Zero address passed\") */\n      tag_306\n      jumpi\n      mload(0x40)\n      shl(0xe5, 0x461bcd)\n      dup2\n      mstore\n      0x04\n      add\n      tag_141\n      swap1\n      tag_297\n      jump\t// in\n    tag_306:\n      sub(shl(0xa0, 0x01), 0x01)\n        /* \"smart-contract/hardhat/contracts/ClosedSurveyV3.sol\":6197:6244  participantsWhitelistedForSurvey[walletAddress] */\n      dup3\n      and\n        /* \"smart-contract/hardhat/contracts/ClosedSurveyV3.sol\":6247:6252  false */\n      0x00\n        /* \"smart-contract/hardhat/contracts/ClosedSurveyV3.sol\":6197:6244  participantsWhitelistedForSurvey[walletAddress] */\n      dup2\n      dup2\n      mstore\n        /* \"smart-contract/hardhat/contracts/ClosedSurveyV3.sol\":6197:6229  participantsWhitelistedForSurvey */\n      0x03\n        /* \"smart-contract/hardhat/contracts/ClosedSurveyV3.sol\":6197:6244  participantsWhitelistedForSurvey[walletAddress] */\n      0x20\n      swap1\n      dup2\n      mstore\n      0x40\n      swap2\n      dup3\n      swap1\n      keccak256\n        /* \"smart-contract/hardhat/contracts/ClosedSurveyV3.sol\":6197:6252  participantsWhitelistedForSurvey[walletAddress] = false */\n      dup1\n      sload\n      not(0xff)\n      and\n      swap1\n      sstore\n        /* \"smart-contract/hardhat/contracts/ClosedSurveyV3.sol\":6288:6319  numberOfWhitelistedParticipants */\n      0x09\n        /* \"smart-contract/hardhat/contracts/ClosedSurveyV3.sol\":6286:6319  --numberOfWhitelistedParticipants */\n      dup1\n      sload\n      not(0x00)\n      add\n      swap1\n      sstore\n        /* \"smart-contract/hardhat/contracts/ClosedSurveyV3.sol\":6344:6395  OneWhitelistedParticipantBlacklisted(walletAddress) */\n      swap1\n      mload\n        /* \"#utility.yul\":364:415   */\n      swap2\n      dup3\n      mstore\n        /* \"smart-contract/hardhat/contracts/ClosedSurveyV3.sol\":6344:6395  OneWhitelistedParticipantBlacklisted(walletAddress) */\n      0x4c4c57d58b398c7beead9e49305d0926ea8fd1e7e895959b09968b3384c385de\n      swap2\n        /* \"#utility.yul\":337:355   */\n      add\n        /* \"smart-contract/hardhat/contracts/ClosedSurveyV3.sol\":6344:6395  OneWhitelistedParticipantBlacklisted(walletAddress) */\n      tag_298\n        /* \"#utility.yul\":196:421   */\n      jump\n        /* \"smart-contract/hardhat/contracts/ClosedSurveyV3.sol\":11396:11463  function pauseSurvey() external onlyOwner {... */\n    tag_121:\n        /* \"@openzeppelin/contracts/access/Ownable.sol\":1531:1544  _checkOwner() */\n      tag_311\n        /* \"@openzeppelin/contracts/access/Ownable.sol\":1531:1542  _checkOwner */\n      tag_133\n        /* \"@openzeppelin/contracts/access/Ownable.sol\":1531:1544  _checkOwner() */\n      jump\t// in\n    tag_311:\n        /* \"smart-contract/hardhat/contracts/ClosedSurveyV3.sol\":11448:11456  _pause() */\n      tag_135\n        /* \"smart-contract/hardhat/contracts/ClosedSurveyV3.sol\":11448:11454  _pause */\n      tag_314\n        /* \"smart-contract/hardhat/contracts/ClosedSurveyV3.sol\":11448:11456  _pause() */\n      jump\t// in\n        /* \"smart-contract/hardhat/contracts/ClosedSurveyV3.sol\":5110:5549  function screenParticipant(address participantWalletAddress)... */\n    tag_124:\n        /* \"@openzeppelin/contracts/access/Ownable.sol\":1531:1544  _checkOwner() */\n      tag_316\n        /* \"@openzeppelin/contracts/access/Ownable.sol\":1531:1542  _checkOwner */\n      tag_133\n        /* \"@openzeppelin/contracts/access/Ownable.sol\":1531:1544  _checkOwner() */\n      jump\t// in\n    tag_316:\n      sub(shl(0xa0, 0x01), 0x01)\n        /* \"smart-contract/hardhat/contracts/ClosedSurveyV3.sol\":2454:2512  participantsWhitelistedForSurvey[participantWalletAddress] */\n      dup2\n      and\n      0x00\n      swap1\n      dup2\n      mstore\n        /* \"smart-contract/hardhat/contracts/ClosedSurveyV3.sol\":2454:2486  participantsWhitelistedForSurvey */\n      0x03\n        /* \"smart-contract/hardhat/contracts/ClosedSurveyV3.sol\":2454:2512  participantsWhitelistedForSurvey[participantWalletAddress] */\n      0x20\n      mstore\n      0x40\n      swap1\n      keccak256\n      sload\n        /* \"smart-contract/hardhat/contracts/ClosedSurveyV3.sol\":5232:5256  participantWalletAddress */\n      dup2\n      swap1\n        /* \"smart-contract/hardhat/contracts/ClosedSurveyV3.sol\":2454:2512  participantsWhitelistedForSurvey[participantWalletAddress] */\n      0xff\n      and\n        /* \"smart-contract/hardhat/contracts/ClosedSurveyV3.sol\":2453:2512  !participantsWhitelistedForSurvey[participantWalletAddress] */\n      iszero\n        /* \"smart-contract/hardhat/contracts/ClosedSurveyV3.sol\":2432:2557  require(... */\n      tag_318\n      jumpi\n      mload(0x40)\n      shl(0xe5, 0x461bcd)\n      dup2\n      mstore\n        /* \"#utility.yul\":8559:8561   */\n      0x20\n        /* \"smart-contract/hardhat/contracts/ClosedSurveyV3.sol\":2432:2557  require(... */\n      0x04\n      dup3\n      add\n        /* \"#utility.yul\":8541:8562   */\n      mstore\n        /* \"#utility.yul\":8598:8600   */\n      0x13\n        /* \"#utility.yul\":8578:8596   */\n      0x24\n      dup3\n      add\n        /* \"#utility.yul\":8571:8601   */\n      mstore\n      shl(0x6a, 0x135d5cdd08189948189b1858dadb1a5cdd1959)\n        /* \"#utility.yul\":8617:8635   */\n      0x44\n      dup3\n      add\n        /* \"#utility.yul\":8610:8659   */\n      mstore\n        /* \"#utility.yul\":8676:8694   */\n      0x64\n      add\n        /* \"smart-contract/hardhat/contracts/ClosedSurveyV3.sol\":2432:2557  require(... */\n      tag_141\n        /* \"#utility.yul\":8357:8700   */\n      jump\n        /* \"smart-contract/hardhat/contracts/ClosedSurveyV3.sol\":2432:2557  require(... */\n    tag_318:\n      sub(shl(0xa0, 0x01), 0x01)\n        /* \"smart-contract/hardhat/contracts/ClosedSurveyV3.sol\":5280:5318  participantWalletAddress != address(0) */\n      dup3\n      and\n        /* \"smart-contract/hardhat/contracts/ClosedSurveyV3.sol\":5272:5342  require(participantWalletAddress != address(0), \"Zero address passed\") */\n      tag_321\n      jumpi\n      mload(0x40)\n      shl(0xe5, 0x461bcd)\n      dup2\n      mstore\n      0x04\n      add\n      tag_141\n      swap1\n      tag_297\n      jump\t// in\n    tag_321:\n      sub(shl(0xa0, 0x01), 0x01)\n        /* \"smart-contract/hardhat/contracts/ClosedSurveyV3.sol\":5353:5401  usersScreenedForSurvey[participantWalletAddress] */\n      dup3\n      and\n      0x00\n      dup2\n      dup2\n      mstore\n        /* \"smart-contract/hardhat/contracts/ClosedSurveyV3.sol\":5353:5375  usersScreenedForSurvey */\n      0x05\n        /* \"smart-contract/hardhat/contracts/ClosedSurveyV3.sol\":5353:5401  usersScreenedForSurvey[participantWalletAddress] */\n      0x20\n      swap1\n      dup2\n      mstore\n      0x40\n      swap2\n      dup3\n      swap1\n      keccak256\n        /* \"smart-contract/hardhat/contracts/ClosedSurveyV3.sol\":5353:5408  usersScreenedForSurvey[participantWalletAddress] = true */\n      dup1\n      sload\n      not(0xff)\n      and\n        /* \"smart-contract/hardhat/contracts/ClosedSurveyV3.sol\":5404:5408  true */\n      0x01\n        /* \"smart-contract/hardhat/contracts/ClosedSurveyV3.sol\":5353:5408  usersScreenedForSurvey[participantWalletAddress] = true */\n      swap1\n      dup2\n      or\n      swap1\n      swap2\n      sstore\n        /* \"smart-contract/hardhat/contracts/ClosedSurveyV3.sol\":5444:5472  numberOfScreenedParticipants */\n      0x0a\n        /* \"smart-contract/hardhat/contracts/ClosedSurveyV3.sol\":5442:5472  ++numberOfScreenedParticipants */\n      dup1\n      sload\n      swap1\n      swap2\n      add\n      swap1\n      sstore\n        /* \"smart-contract/hardhat/contracts/ClosedSurveyV3.sol\":5497:5542  ParticipantScreened(participantWalletAddress) */\n      swap1\n      mload\n        /* \"#utility.yul\":364:415   */\n      swap2\n      dup3\n      mstore\n        /* \"smart-contract/hardhat/contracts/ClosedSurveyV3.sol\":5497:5542  ParticipantScreened(participantWalletAddress) */\n      0xc4ec7a2dc5e72d17666a15570e438638bfc023a7a091df162b669c37198bacb2\n      swap2\n        /* \"#utility.yul\":337:355   */\n      add\n        /* \"smart-contract/hardhat/contracts/ClosedSurveyV3.sol\":5497:5542  ParticipantScreened(participantWalletAddress) */\n      tag_298\n        /* \"#utility.yul\":196:421   */\n      jump\n        /* \"smart-contract/hardhat/contracts/ClosedSurveyV3.sol\":9809:10107  function withdrawAllRewardFundsToResearcher()... */\n    tag_126:\n        /* \"@openzeppelin/contracts/access/Ownable.sol\":1531:1544  _checkOwner() */\n      tag_325\n        /* \"@openzeppelin/contracts/access/Ownable.sol\":1531:1542  _checkOwner */\n      tag_133\n        /* \"@openzeppelin/contracts/access/Ownable.sol\":1531:1544  _checkOwner() */\n      jump\t// in\n    tag_325:\n        /* \"@openzeppelin/contracts/utils/Pausable.sol\":1474:1493  _requireNotPaused() */\n      tag_327\n        /* \"@openzeppelin/contracts/utils/Pausable.sol\":1474:1491  _requireNotPaused */\n      tag_222\n        /* \"@openzeppelin/contracts/utils/Pausable.sol\":1474:1493  _requireNotPaused() */\n      jump\t// in\n    tag_327:\n        /* \"smart-contract/hardhat/contracts/ClosedSurveyV3.sol\":3869:3898  cUSD.balanceOf(address(this)) */\n      mload(0x40)\n      shl(0xe0, 0x70a08231)\n      dup2\n      mstore\n        /* \"smart-contract/hardhat/contracts/ClosedSurveyV3.sol\":3892:3896  this */\n      address\n        /* \"smart-contract/hardhat/contracts/ClosedSurveyV3.sol\":3869:3898  cUSD.balanceOf(address(this)) */\n      0x04\n      dup3\n      add\n        /* \"#utility.yul\":364:415   */\n      mstore\n        /* \"smart-contract/hardhat/contracts/ClosedSurveyV3.sol\":3901:3902  0 */\n      0x00\n      swap1\n        /* \"smart-contract/hardhat/contracts/ClosedSurveyV3.sol\":3869:3873  cUSD */\n      immutable(\"0x4ce4dab4689da140a0c12de1a6af6b8f679594aeb723205f513e052d27f5b26f\")\n      sub(shl(0xa0, 0x01), 0x01)\n        /* \"smart-contract/hardhat/contracts/ClosedSurveyV3.sol\":3869:3883  cUSD.balanceOf */\n      and\n      swap1\n      0x70a08231\n      swap1\n        /* \"#utility.yul\":337:355   */\n      0x24\n      add\n        /* \"smart-contract/hardhat/contracts/ClosedSurveyV3.sol\":3869:3898  cUSD.balanceOf(address(this)) */\n      0x20\n      mload(0x40)\n      dup1\n      dup4\n      sub\n      dup2\n      dup7\n      gas\n      staticcall\n      iszero\n      dup1\n      iszero\n      tag_331\n      jumpi\n      returndatasize\n      0x00\n      dup1\n      returndatacopy\n      revert(0x00, returndatasize)\n    tag_331:\n      pop\n      pop\n      pop\n      pop\n      mload(0x40)\n      returndatasize\n      not(0x1f)\n      0x1f\n      dup3\n      add\n      and\n      dup3\n      add\n      dup1\n      0x40\n      mstore\n      pop\n      dup2\n      add\n      swap1\n      tag_332\n      swap2\n      swap1\n      tag_231\n      jump\t// in\n    tag_332:\n        /* \"smart-contract/hardhat/contracts/ClosedSurveyV3.sol\":3869:3902  cUSD.balanceOf(address(this)) > 0 */\n      gt\n        /* \"smart-contract/hardhat/contracts/ClosedSurveyV3.sol\":3848:3959  require(... */\n      tag_333\n      jumpi\n      mload(0x40)\n      shl(0xe5, 0x461bcd)\n      dup2\n      mstore\n        /* \"#utility.yul\":9603:9605   */\n      0x20\n        /* \"smart-contract/hardhat/contracts/ClosedSurveyV3.sol\":3848:3959  require(... */\n      0x04\n      dup3\n      add\n        /* \"#utility.yul\":9585:9606   */\n      mstore\n        /* \"#utility.yul\":9642:9644   */\n      0x1f\n        /* \"#utility.yul\":9622:9640   */\n      0x24\n      dup3\n      add\n        /* \"#utility.yul\":9615:9645   */\n      mstore\n        /* \"#utility.yul\":9681:9714   */\n      0x436f6e747261637420646f6573206e6f74206861766520616e79206355534400\n        /* \"#utility.yul\":9661:9679   */\n      0x44\n      dup3\n      add\n        /* \"#utility.yul\":9654:9715   */\n      mstore\n        /* \"#utility.yul\":9732:9750   */\n      0x64\n      add\n        /* \"smart-contract/hardhat/contracts/ClosedSurveyV3.sol\":3848:3959  require(... */\n      tag_141\n        /* \"#utility.yul\":9401:9756   */\n      jump\n        /* \"smart-contract/hardhat/contracts/ClosedSurveyV3.sol\":3848:3959  require(... */\n    tag_333:\n        /* \"smart-contract/hardhat/contracts/ClosedSurveyV3.sol\":9977:10006  cUSD.balanceOf(address(this)) */\n      mload(0x40)\n      shl(0xe0, 0x70a08231)\n      dup2\n      mstore\n        /* \"smart-contract/hardhat/contracts/ClosedSurveyV3.sol\":10000:10004  this */\n      address\n        /* \"smart-contract/hardhat/contracts/ClosedSurveyV3.sol\":9977:10006  cUSD.balanceOf(address(this)) */\n      0x04\n      dup3\n      add\n        /* \"#utility.yul\":364:415   */\n      mstore\n        /* \"smart-contract/hardhat/contracts/ClosedSurveyV3.sol\":9959:9974  uint256 balance */\n      0x00\n      swap1\n        /* \"smart-contract/hardhat/contracts/ClosedSurveyV3.sol\":9977:9981  cUSD */\n      immutable(\"0x4ce4dab4689da140a0c12de1a6af6b8f679594aeb723205f513e052d27f5b26f\")\n      sub(shl(0xa0, 0x01), 0x01)\n        /* \"smart-contract/hardhat/contracts/ClosedSurveyV3.sol\":9977:9991  cUSD.balanceOf */\n      and\n      swap1\n      0x70a08231\n      swap1\n        /* \"#utility.yul\":337:355   */\n      0x24\n      add\n        /* \"smart-contract/hardhat/contracts/ClosedSurveyV3.sol\":9977:10006  cUSD.balanceOf(address(this)) */\n      0x20\n      mload(0x40)\n      dup1\n      dup4\n      sub\n      dup2\n      dup7\n      gas\n      staticcall\n      iszero\n      dup1\n      iszero\n      tag_339\n      jumpi\n      returndatasize\n      0x00\n      dup1\n      returndatacopy\n      revert(0x00, returndatasize)\n    tag_339:\n      pop\n      pop\n      pop\n      pop\n      mload(0x40)\n      returndatasize\n      not(0x1f)\n      0x1f\n      dup3\n      add\n      and\n      dup3\n      add\n      dup1\n      0x40\n      mstore\n      pop\n      dup2\n      add\n      swap1\n      tag_340\n      swap2\n      swap1\n      tag_231\n      jump\t// in\n    tag_340:\n        /* \"smart-contract/hardhat/contracts/ClosedSurveyV3.sol\":9959:10006  uint256 balance = cUSD.balanceOf(address(this)) */\n      swap1\n      pop\n        /* \"smart-contract/hardhat/contracts/ClosedSurveyV3.sol\":10016:10020  cUSD */\n      immutable(\"0x4ce4dab4689da140a0c12de1a6af6b8f679594aeb723205f513e052d27f5b26f\")\n      sub(shl(0xa0, 0x01), 0x01)\n        /* \"smart-contract/hardhat/contracts/ClosedSurveyV3.sol\":10016:10029  cUSD.transfer */\n      and\n      0xa9059cbb\n        /* \"smart-contract/hardhat/contracts/ClosedSurveyV3.sol\":10030:10037  owner() */\n      tag_341\n        /* \"@openzeppelin/contracts/access/Ownable.sol\":1684:1691  address */\n      0x00\n        /* \"@openzeppelin/contracts/access/Ownable.sol\":1710:1716  _owner */\n      sload\n      sub(shl(0xa0, 0x01), 0x01)\n      and\n      swap1\n        /* \"@openzeppelin/contracts/access/Ownable.sol\":1638:1723  function owner() public view virtual returns (address) {... */\n      jump\n        /* \"smart-contract/hardhat/contracts/ClosedSurveyV3.sol\":10030:10037  owner() */\n    tag_341:\n        /* \"smart-contract/hardhat/contracts/ClosedSurveyV3.sol\":10016:10047  cUSD.transfer(owner(), balance) */\n      mload(0x40)\n      not(sub(shl(0xe0, 0x01), 0x01))\n      0xe0\n      dup5\n      swap1\n      shl\n      and\n      dup2\n      mstore\n      sub(shl(0xa0, 0x01), 0x01)\n        /* \"#utility.yul\":9953:9985   */\n      swap1\n      swap2\n      and\n        /* \"smart-contract/hardhat/contracts/ClosedSurveyV3.sol\":10016:10047  cUSD.transfer(owner(), balance) */\n      0x04\n      dup3\n      add\n        /* \"#utility.yul\":9935:9986   */\n      mstore\n        /* \"#utility.yul\":10002:10020   */\n      0x24\n      dup2\n      add\n        /* \"#utility.yul\":9995:10029   */\n      dup5\n      swap1\n      mstore\n        /* \"#utility.yul\":9908:9926   */\n      0x44\n      add\n        /* \"smart-contract/hardhat/contracts/ClosedSurveyV3.sol\":10016:10047  cUSD.transfer(owner(), balance) */\n      0x20\n      mload(0x40)\n      dup1\n      dup4\n      sub\n      dup2\n      0x00\n      dup8\n      gas\n      call\n      iszero\n      dup1\n      iszero\n      tag_345\n      jumpi\n      returndatasize\n      0x00\n      dup1\n      returndatacopy\n      revert(0x00, returndatasize)\n    tag_345:\n      pop\n      pop\n      pop\n      pop\n      mload(0x40)\n      returndatasize\n      not(0x1f)\n      0x1f\n      dup3\n      add\n      and\n      dup3\n      add\n      dup1\n      0x40\n      mstore\n      pop\n      dup2\n      add\n      swap1\n      tag_346\n      swap2\n      swap1\n      tag_347\n      jump\t// in\n    tag_346:\n      pop\n        /* \"smart-contract/hardhat/contracts/ClosedSurveyV3.sol\":10062:10100  RewardFundsWithdrawn(owner(), balance) */\n      0x2036b9b38b69a2fa490ee702733a29cd2550accc20bc96e786cb9beedc779097\n        /* \"smart-contract/hardhat/contracts/ClosedSurveyV3.sol\":10083:10090  owner() */\n      tag_348\n        /* \"@openzeppelin/contracts/access/Ownable.sol\":1684:1691  address */\n      0x00\n        /* \"@openzeppelin/contracts/access/Ownable.sol\":1710:1716  _owner */\n      sload\n      sub(shl(0xa0, 0x01), 0x01)\n      and\n      swap1\n        /* \"@openzeppelin/contracts/access/Ownable.sol\":1638:1723  function owner() public view virtual returns (address) {... */\n      jump\n        /* \"smart-contract/hardhat/contracts/ClosedSurveyV3.sol\":10083:10090  owner() */\n    tag_348:\n        /* \"smart-contract/hardhat/contracts/ClosedSurveyV3.sol\":10062:10100  RewardFundsWithdrawn(owner(), balance) */\n      0x40\n      dup1\n      mload\n      sub(shl(0xa0, 0x01), 0x01)\n        /* \"#utility.yul\":9953:9985   */\n      swap1\n      swap3\n      and\n        /* \"#utility.yul\":9935:9986   */\n      dup3\n      mstore\n        /* \"#utility.yul\":10017:10019   */\n      0x20\n        /* \"#utility.yul\":10002:10020   */\n      dup3\n      add\n        /* \"#utility.yul\":9995:10029   */\n      dup5\n      swap1\n      mstore\n        /* \"#utility.yul\":9908:9926   */\n      add\n        /* \"smart-contract/hardhat/contracts/ClosedSurveyV3.sol\":10062:10100  RewardFundsWithdrawn(owner(), balance) */\n    tag_349:\n      mload(0x40)\n      dup1\n      swap2\n      sub\n      swap1\n      log1\n        /* \"smart-contract/hardhat/contracts/ClosedSurveyV3.sol\":9949:10107  {... */\n      pop\n        /* \"smart-contract/hardhat/contracts/ClosedSurveyV3.sol\":9809:10107  function withdrawAllRewardFundsToResearcher()... */\n      jump\t// out\n        /* \"@openzeppelin/contracts/access/Ownable.sol\":2543:2758  function transferOwnership(address newOwner) public virtual onlyOwner {... */\n    tag_129:\n        /* \"@openzeppelin/contracts/access/Ownable.sol\":1531:1544  _checkOwner() */\n      tag_351\n        /* \"@openzeppelin/contracts/access/Ownable.sol\":1531:1542  _checkOwner */\n      tag_133\n        /* \"@openzeppelin/contracts/access/Ownable.sol\":1531:1544  _checkOwner() */\n      jump\t// in\n    tag_351:\n      sub(shl(0xa0, 0x01), 0x01)\n        /* \"@openzeppelin/contracts/access/Ownable.sol\":2627:2649  newOwner == address(0) */\n      dup2\n      and\n        /* \"@openzeppelin/contracts/access/Ownable.sol\":2623:2714  if (newOwner == address(0)) {... */\n      tag_353\n      jumpi\n        /* \"@openzeppelin/contracts/access/Ownable.sol\":2672:2703  OwnableInvalidOwner(address(0)) */\n      mload(0x40)\n      shl(0xe0, 0x1e4fbdf7)\n      dup2\n      mstore\n        /* \"@openzeppelin/contracts/access/Ownable.sol\":2700:2701  0 */\n      0x00\n        /* \"@openzeppelin/contracts/access/Ownable.sol\":2672:2703  OwnableInvalidOwner(address(0)) */\n      0x04\n      dup3\n      add\n        /* \"#utility.yul\":364:415   */\n      mstore\n        /* \"#utility.yul\":337:355   */\n      0x24\n      add\n        /* \"@openzeppelin/contracts/access/Ownable.sol\":2672:2703  OwnableInvalidOwner(address(0)) */\n      tag_141\n        /* \"#utility.yul\":196:421   */\n      jump\n        /* \"@openzeppelin/contracts/access/Ownable.sol\":2623:2714  if (newOwner == address(0)) {... */\n    tag_353:\n        /* \"@openzeppelin/contracts/access/Ownable.sol\":2723:2751  _transferOwnership(newOwner) */\n      tag_257\n        /* \"@openzeppelin/contracts/access/Ownable.sol\":2742:2750  newOwner */\n      dup2\n        /* \"@openzeppelin/contracts/access/Ownable.sol\":2723:2741  _transferOwnership */\n      tag_160\n        /* \"@openzeppelin/contracts/access/Ownable.sol\":2723:2751  _transferOwnership(newOwner) */\n      jump\t// in\n        /* \"@openzeppelin/contracts/access/Ownable.sol\":1796:1958  function _checkOwner() internal view virtual {... */\n    tag_133:\n        /* \"@openzeppelin/contracts/access/Ownable.sol\":1684:1691  address */\n      0x00\n        /* \"@openzeppelin/contracts/access/Ownable.sol\":1710:1716  _owner */\n      sload\n      sub(shl(0xa0, 0x01), 0x01)\n      and\n        /* \"@openzeppelin/contracts/utils/Context.sol\":735:745  msg.sender */\n      caller\n        /* \"@openzeppelin/contracts/access/Ownable.sol\":1855:1878  owner() != _msgSender() */\n      eq\n        /* \"@openzeppelin/contracts/access/Ownable.sol\":1851:1952  if (owner() != _msgSender()) {... */\n      tag_135\n      jumpi\n        /* \"@openzeppelin/contracts/access/Ownable.sol\":1901:1941  OwnableUnauthorizedAccount(_msgSender()) */\n      mload(0x40)\n      shl(0xe0, 0x118cdaa7)\n      dup2\n      mstore\n        /* \"@openzeppelin/contracts/utils/Context.sol\":735:745  msg.sender */\n      caller\n        /* \"@openzeppelin/contracts/access/Ownable.sol\":1901:1941  OwnableUnauthorizedAccount(_msgSender()) */\n      0x04\n      dup3\n      add\n        /* \"#utility.yul\":364:415   */\n      mstore\n        /* \"#utility.yul\":337:355   */\n      0x24\n      add\n        /* \"@openzeppelin/contracts/access/Ownable.sol\":1901:1941  OwnableUnauthorizedAccount(_msgSender()) */\n      tag_141\n        /* \"#utility.yul\":196:421   */\n      jump\n        /* \"@openzeppelin/contracts/utils/Pausable.sol\":2710:2827  function _unpause() internal virtual whenPaused {... */\n    tag_136:\n        /* \"@openzeppelin/contracts/utils/Pausable.sol\":1721:1737  _requirePaused() */\n      tag_364\n        /* \"@openzeppelin/contracts/utils/Pausable.sol\":1721:1735  _requirePaused */\n      tag_365\n        /* \"@openzeppelin/contracts/utils/Pausable.sol\":1721:1737  _requirePaused() */\n      jump\t// in\n    tag_364:\n        /* \"@openzeppelin/contracts/utils/Pausable.sol\":2768:2775  _paused */\n      0x02\n        /* \"@openzeppelin/contracts/utils/Pausable.sol\":2768:2783  _paused = false */\n      dup1\n      sload\n      not(0xff)\n      and\n      swap1\n      sstore\n        /* \"@openzeppelin/contracts/utils/Pausable.sol\":2798:2820  Unpaused(_msgSender()) */\n      0x5db9ee0a495bf2e6ff9c91a7834c1ba4fdd244a5e8aa4e537bd38aeae4b073aa\n        /* \"@openzeppelin/contracts/utils/Context.sol\":735:745  msg.sender */\n      caller\n        /* \"@openzeppelin/contracts/utils/Pausable.sol\":2807:2819  _msgSender() */\n    tag_367:\n        /* \"@openzeppelin/contracts/utils/Pausable.sol\":2798:2820  Unpaused(_msgSender()) */\n      mload(0x40)\n      sub(shl(0xa0, 0x01), 0x01)\n        /* \"#utility.yul\":382:414   */\n      swap1\n      swap2\n      and\n        /* \"#utility.yul\":364:415   */\n      dup2\n      mstore\n        /* \"#utility.yul\":352:354   */\n      0x20\n        /* \"#utility.yul\":337:355   */\n      add\n        /* \"@openzeppelin/contracts/utils/Pausable.sol\":2798:2820  Unpaused(_msgSender()) */\n      mload(0x40)\n      dup1\n      swap2\n      sub\n      swap1\n      log1\n        /* \"@openzeppelin/contracts/utils/Pausable.sol\":2710:2827  function _unpause() internal virtual whenPaused {... */\n      jump\t// out\n        /* \"@openzeppelin/contracts/access/Ownable.sol\":2912:3099  function _transferOwnership(address newOwner) internal virtual {... */\n    tag_160:\n        /* \"@openzeppelin/contracts/access/Ownable.sol\":2985:3001  address oldOwner */\n      0x00\n        /* \"@openzeppelin/contracts/access/Ownable.sol\":3004:3010  _owner */\n      dup1\n      sload\n      sub(shl(0xa0, 0x01), 0x01)\n        /* \"@openzeppelin/contracts/access/Ownable.sol\":3020:3037  _owner = newOwner */\n      dup4\n      dup2\n      and\n      not(sub(shl(0xa0, 0x01), 0x01))\n      dup4\n      and\n      dup2\n      or\n      dup5\n      sstore\n        /* \"@openzeppelin/contracts/access/Ownable.sol\":3052:3092  OwnershipTransferred(oldOwner, newOwner) */\n      mload(0x40)\n        /* \"@openzeppelin/contracts/access/Ownable.sol\":3004:3010  _owner */\n      swap2\n      swap1\n      swap3\n      and\n      swap3\n      dup4\n      swap2\n        /* \"@openzeppelin/contracts/access/Ownable.sol\":3052:3092  OwnershipTransferred(oldOwner, newOwner) */\n      0x8be0079c531659141344cd1fd0a4f28419497f9722a3daafe3b4186f6b6457e0\n      swap2\n        /* \"@openzeppelin/contracts/access/Ownable.sol\":2985:3001  address oldOwner */\n      swap1\n        /* \"@openzeppelin/contracts/access/Ownable.sol\":3052:3092  OwnershipTransferred(oldOwner, newOwner) */\n      log3\n        /* \"@openzeppelin/contracts/access/Ownable.sol\":2975:3099  {... */\n      pop\n        /* \"@openzeppelin/contracts/access/Ownable.sol\":2912:3099  function _transferOwnership(address newOwner) internal virtual {... */\n      pop\n      jump\t// out\n        /* \"@openzeppelin/contracts/utils/Pausable.sol\":2002:2130  function _requireNotPaused() internal view virtual {... */\n    tag_222:\n        /* \"@openzeppelin/contracts/utils/Pausable.sol\":1920:1927  _paused */\n      and(0xff, sload(0x02))\n        /* \"@openzeppelin/contracts/utils/Pausable.sol\":2063:2124  if (paused()) {... */\n      iszero\n      tag_135\n      jumpi\n        /* \"@openzeppelin/contracts/utils/Pausable.sol\":2098:2113  EnforcedPause() */\n      mload(0x40)\n      shl(0xe0, 0xd93c0665)\n      dup2\n      mstore\n      0x04\n      add\n      mload(0x40)\n      dup1\n      swap2\n      sub\n      swap1\n      revert\n        /* \"@openzeppelin/contracts/utils/ReentrancyGuard.sol\":2575:2882  function _nonReentrantBefore() private {... */\n    tag_225:\n        /* \"@openzeppelin/contracts/utils/ReentrancyGuard.sol\":1899:1900  2 */\n      0x02\n        /* \"@openzeppelin/contracts/utils/ReentrancyGuard.sol\":2702:2709  _status */\n      sload(0x01)\n        /* \"@openzeppelin/contracts/utils/ReentrancyGuard.sol\":2702:2720  _status == ENTERED */\n      sub\n        /* \"@openzeppelin/contracts/utils/ReentrancyGuard.sol\":2698:2784  if (_status == ENTERED) {... */\n      tag_374\n      jumpi\n        /* \"@openzeppelin/contracts/utils/ReentrancyGuard.sol\":2743:2773  ReentrancyGuardReentrantCall() */\n      mload(0x40)\n      shl(0xe0, 0x3ee5aeb5)\n      dup2\n      mstore\n      0x04\n      add\n      mload(0x40)\n      dup1\n      swap2\n      sub\n      swap1\n      revert\n        /* \"@openzeppelin/contracts/utils/ReentrancyGuard.sol\":2698:2784  if (_status == ENTERED) {... */\n    tag_374:\n        /* \"@openzeppelin/contracts/utils/ReentrancyGuard.sol\":1899:1900  2 */\n      0x02\n        /* \"@openzeppelin/contracts/utils/ReentrancyGuard.sol\":2858:2865  _status */\n      0x01\n        /* \"@openzeppelin/contracts/utils/ReentrancyGuard.sol\":2858:2875  _status = ENTERED */\n      sstore\n        /* \"@openzeppelin/contracts/utils/ReentrancyGuard.sol\":2575:2882  function _nonReentrantBefore() private {... */\n      jump\t// out\n        /* \"smart-contract/hardhat/contracts/ClosedSurveyV3.sol\":9219:9803  function rewardParticipant(address participantWalletAddress)... */\n    tag_253:\n        /* \"smart-contract/hardhat/contracts/ClosedSurveyV3.sol\":9431:9462  rewardAmountPerParticipantInWei */\n      sload(0x06)\n        /* \"smart-contract/hardhat/contracts/ClosedSurveyV3.sol\":9366:9472  cUSD.transfer(... */\n      mload(0x40)\n      shl(0xe0, 0xa9059cbb)\n      dup2\n      mstore\n      sub(shl(0xa0, 0x01), 0x01)\n        /* \"#utility.yul\":9953:9985   */\n      dup4\n      dup2\n      and\n        /* \"smart-contract/hardhat/contracts/ClosedSurveyV3.sol\":9366:9472  cUSD.transfer(... */\n      0x04\n      dup4\n      add\n        /* \"#utility.yul\":9935:9986   */\n      mstore\n        /* \"#utility.yul\":10002:10020   */\n      0x24\n      dup3\n      add\n        /* \"#utility.yul\":9995:10029   */\n      swap3\n      swap1\n      swap3\n      mstore\n        /* \"smart-contract/hardhat/contracts/ClosedSurveyV3.sol\":9313:9317  bool */\n      0x00\n      swap2\n      dup3\n      swap2\n        /* \"smart-contract/hardhat/contracts/ClosedSurveyV3.sol\":9366:9370  cUSD */\n      immutable(\"0x4ce4dab4689da140a0c12de1a6af6b8f679594aeb723205f513e052d27f5b26f\")\n        /* \"smart-contract/hardhat/contracts/ClosedSurveyV3.sol\":9366:9379  cUSD.transfer */\n      swap1\n      swap2\n      and\n      swap1\n      0xa9059cbb\n      swap1\n        /* \"#utility.yul\":9908:9926   */\n      0x44\n      add\n        /* \"smart-contract/hardhat/contracts/ClosedSurveyV3.sol\":9366:9472  cUSD.transfer(... */\n      0x20\n      mload(0x40)\n      dup1\n      dup4\n      sub\n      dup2\n      0x00\n      dup8\n      gas\n      call\n      iszero\n      dup1\n      iszero\n      tag_378\n      jumpi\n      returndatasize\n      0x00\n      dup1\n      returndatacopy\n      revert(0x00, returndatasize)\n    tag_378:\n      pop\n      pop\n      pop\n      pop\n      mload(0x40)\n      returndatasize\n      not(0x1f)\n      0x1f\n      dup3\n      add\n      and\n      dup3\n      add\n      dup1\n      0x40\n      mstore\n      pop\n      dup2\n      add\n      swap1\n      tag_379\n      swap2\n      swap1\n      tag_347\n      jump\t// in\n    tag_379:\n        /* \"smart-contract/hardhat/contracts/ClosedSurveyV3.sol\":9333:9472  bool rewardTransferIsSuccesful = cUSD.transfer(... */\n      swap1\n      pop\n        /* \"smart-contract/hardhat/contracts/ClosedSurveyV3.sol\":9487:9512  rewardTransferIsSuccesful */\n      dup1\n        /* \"smart-contract/hardhat/contracts/ClosedSurveyV3.sol\":9483:9754  if (rewardTransferIsSuccesful) {... */\n      iszero\n      tag_380\n      jumpi\n        /* \"smart-contract/hardhat/contracts/ClosedSurveyV3.sol\":9558:9586  numberOfRewardedParticipants */\n      0x08\n        /* \"smart-contract/hardhat/contracts/ClosedSurveyV3.sol\":9556:9586  ++numberOfRewardedParticipants */\n      dup1\n      sload\n      0x01\n      add\n      swap1\n      sstore\n        /* \"smart-contract/hardhat/contracts/ClosedSurveyV3.sol\":9698:9729  rewardAmountPerParticipantInWei */\n      sload(0x06)\n        /* \"smart-contract/hardhat/contracts/ClosedSurveyV3.sol\":9619:9743  ParticipantRewarded(... */\n      0x40\n      dup1\n      mload\n      sub(shl(0xa0, 0x01), 0x01)\n        /* \"#utility.yul\":9953:9985   */\n      dup7\n      and\n        /* \"#utility.yul\":9935:9986   */\n      dup2\n      mstore\n        /* \"#utility.yul\":10017:10019   */\n      0x20\n        /* \"#utility.yul\":10002:10020   */\n      dup2\n      add\n        /* \"#utility.yul\":9995:10029   */\n      swap3\n      swap1\n      swap3\n      mstore\n        /* \"smart-contract/hardhat/contracts/ClosedSurveyV3.sol\":9619:9743  ParticipantRewarded(... */\n      0x8934d7a9692e763e356fd30d84ca5f61a737b35c5ccd5d31d4f140310267b73e\n      swap2\n        /* \"#utility.yul\":9908:9926   */\n      add\n        /* \"smart-contract/hardhat/contracts/ClosedSurveyV3.sol\":9619:9743  ParticipantRewarded(... */\n      mload(0x40)\n      dup1\n      swap2\n      sub\n      swap1\n      log1\n        /* \"smart-contract/hardhat/contracts/ClosedSurveyV3.sol\":9483:9754  if (rewardTransferIsSuccesful) {... */\n    tag_380:\n        /* \"smart-contract/hardhat/contracts/ClosedSurveyV3.sol\":9771:9796  rewardTransferIsSuccesful */\n      swap3\n        /* \"smart-contract/hardhat/contracts/ClosedSurveyV3.sol\":9219:9803  function rewardParticipant(address participantWalletAddress)... */\n      swap2\n      pop\n      pop\n      jump\t// out\n        /* \"smart-contract/hardhat/contracts/ClosedSurveyV3.sol\":8960:9213  function markParticipantAsHavingClaimedReward(... */\n    tag_256:\n      sub(shl(0xa0, 0x01), 0x01)\n        /* \"smart-contract/hardhat/contracts/ClosedSurveyV3.sol\":9072:9131  participantsWhoHaveClaimedRewards[participantWalletAddress] */\n      dup2\n      and\n      0x00\n      dup2\n      dup2\n      mstore\n        /* \"smart-contract/hardhat/contracts/ClosedSurveyV3.sol\":9072:9105  participantsWhoHaveClaimedRewards */\n      0x04\n        /* \"smart-contract/hardhat/contracts/ClosedSurveyV3.sol\":9072:9131  participantsWhoHaveClaimedRewards[participantWalletAddress] */\n      0x20\n      swap1\n      dup2\n      mstore\n      0x40\n      swap2\n      dup3\n      swap1\n      keccak256\n        /* \"smart-contract/hardhat/contracts/ClosedSurveyV3.sol\":9072:9138  participantsWhoHaveClaimedRewards[participantWalletAddress] = true */\n      dup1\n      sload\n      not(0xff)\n      and\n        /* \"smart-contract/hardhat/contracts/ClosedSurveyV3.sol\":9134:9138  true */\n      0x01\n        /* \"smart-contract/hardhat/contracts/ClosedSurveyV3.sol\":9072:9138  participantsWhoHaveClaimedRewards[participantWalletAddress] = true */\n      or\n      swap1\n      sstore\n        /* \"smart-contract/hardhat/contracts/ClosedSurveyV3.sol\":9153:9206  ParticipantMarkedAsRewarded(participantWalletAddress) */\n      swap1\n      mload\n        /* \"#utility.yul\":364:415   */\n      swap2\n      dup3\n      mstore\n        /* \"smart-contract/hardhat/contracts/ClosedSurveyV3.sol\":9153:9206  ParticipantMarkedAsRewarded(participantWalletAddress) */\n      0x654c9a027765e6feb862f42d438e9f6948f9ee31113e379f0372b30efc722943\n      swap2\n        /* \"#utility.yul\":337:355   */\n      add\n        /* \"smart-contract/hardhat/contracts/ClosedSurveyV3.sol\":9153:9206  ParticipantMarkedAsRewarded(participantWalletAddress) */\n      tag_349\n        /* \"#utility.yul\":196:421   */\n      jump\n        /* \"@openzeppelin/contracts/utils/Pausable.sol\":2463:2578  function _pause() internal virtual whenNotPaused {... */\n    tag_314:\n        /* \"@openzeppelin/contracts/utils/Pausable.sol\":1474:1493  _requireNotPaused() */\n      tag_386\n        /* \"@openzeppelin/contracts/utils/Pausable.sol\":1474:1491  _requireNotPaused */\n      tag_222\n        /* \"@openzeppelin/contracts/utils/Pausable.sol\":1474:1493  _requireNotPaused() */\n      jump\t// in\n    tag_386:\n        /* \"@openzeppelin/contracts/utils/Pausable.sol\":2522:2529  _paused */\n      0x02\n        /* \"@openzeppelin/contracts/utils/Pausable.sol\":2522:2536  _paused = true */\n      dup1\n      sload\n      not(0xff)\n      and\n        /* \"@openzeppelin/contracts/utils/Pausable.sol\":2532:2536  true */\n      0x01\n        /* \"@openzeppelin/contracts/utils/Pausable.sol\":2522:2536  _paused = true */\n      or\n      swap1\n      sstore\n        /* \"@openzeppelin/contracts/utils/Pausable.sol\":2551:2571  Paused(_msgSender()) */\n      0x62e78cea01bee320cd4e420270b5ea74000d11b0c9f74754ebdbfc544b05a258\n        /* \"@openzeppelin/contracts/utils/Pausable.sol\":2558:2570  _msgSender() */\n      tag_367\n        /* \"@openzeppelin/contracts/utils/Context.sol\":735:745  msg.sender */\n      caller\n      swap1\n        /* \"@openzeppelin/contracts/utils/Context.sol\":656:752  function _msgSender() internal view virtual returns (address) {... */\n      jump\n        /* \"@openzeppelin/contracts/utils/Pausable.sol\":2202:2328  function _requirePaused() internal view virtual {... */\n    tag_365:\n        /* \"@openzeppelin/contracts/utils/Pausable.sol\":1920:1927  _paused */\n      and(0xff, sload(0x02))\n        /* \"@openzeppelin/contracts/utils/Pausable.sol\":2260:2322  if (!paused()) {... */\n      tag_135\n      jumpi\n        /* \"@openzeppelin/contracts/utils/Pausable.sol\":2296:2311  ExpectedPause() */\n      mload(0x40)\n      shl(0xe0, 0x8dfc202b)\n      dup2\n      mstore\n      0x04\n      add\n      mload(0x40)\n      dup1\n      swap2\n      sub\n      swap1\n      revert\n        /* \"#utility.yul\":426:606   */\n    tag_56:\n        /* \"#utility.yul\":485:491   */\n      0x00\n        /* \"#utility.yul\":538:540   */\n      0x20\n        /* \"#utility.yul\":526:535   */\n      dup3\n        /* \"#utility.yul\":517:524   */\n      dup5\n        /* \"#utility.yul\":513:536   */\n      sub\n        /* \"#utility.yul\":509:541   */\n      slt\n        /* \"#utility.yul\":506:558   */\n      iszero\n      tag_399\n      jumpi\n        /* \"#utility.yul\":554:555   */\n      0x00\n        /* \"#utility.yul\":551:552   */\n      dup1\n        /* \"#utility.yul\":544:556   */\n      revert\n        /* \"#utility.yul\":506:558   */\n    tag_399:\n      pop\n        /* \"#utility.yul\":577:600   */\n      calldataload\n      swap2\n        /* \"#utility.yul\":426:606   */\n      swap1\n      pop\n      jump\t// out\n        /* \"#utility.yul\":803:976   */\n    tag_394:\n        /* \"#utility.yul\":871:891   */\n      dup1\n      calldataload\n      sub(shl(0xa0, 0x01), 0x01)\n        /* \"#utility.yul\":920:951   */\n      dup2\n      and\n        /* \"#utility.yul\":910:952   */\n      dup2\n      eq\n        /* \"#utility.yul\":900:970   */\n      tag_402\n      jumpi\n        /* \"#utility.yul\":966:967   */\n      0x00\n        /* \"#utility.yul\":963:964   */\n      dup1\n        /* \"#utility.yul\":956:968   */\n      revert\n        /* \"#utility.yul\":900:970   */\n    tag_402:\n        /* \"#utility.yul\":803:976   */\n      swap2\n      swap1\n      pop\n      jump\t// out\n        /* \"#utility.yul\":981:1167   */\n    tag_70:\n        /* \"#utility.yul\":1040:1046   */\n      0x00\n        /* \"#utility.yul\":1093:1095   */\n      0x20\n        /* \"#utility.yul\":1081:1090   */\n      dup3\n        /* \"#utility.yul\":1072:1079   */\n      dup5\n        /* \"#utility.yul\":1068:1091   */\n      sub\n        /* \"#utility.yul\":1064:1096   */\n      slt\n        /* \"#utility.yul\":1061:1113   */\n      iszero\n      tag_404\n      jumpi\n        /* \"#utility.yul\":1109:1110   */\n      0x00\n        /* \"#utility.yul\":1106:1107   */\n      dup1\n        /* \"#utility.yul\":1099:1111   */\n      revert\n        /* \"#utility.yul\":1061:1113   */\n    tag_404:\n        /* \"#utility.yul\":1132:1161   */\n      tag_405\n        /* \"#utility.yul\":1151:1160   */\n      dup3\n        /* \"#utility.yul\":1132:1161   */\n      tag_394\n      jump\t// in\n    tag_405:\n        /* \"#utility.yul\":1122:1161   */\n      swap4\n        /* \"#utility.yul\":981:1167   */\n      swap3\n      pop\n      pop\n      pop\n      jump\t// out\n        /* \"#utility.yul\":1380:1990   */\n    tag_94:\n        /* \"#utility.yul\":1466:1472   */\n      0x00\n        /* \"#utility.yul\":1474:1480   */\n      dup1\n        /* \"#utility.yul\":1527:1529   */\n      0x20\n        /* \"#utility.yul\":1515:1524   */\n      dup4\n        /* \"#utility.yul\":1506:1513   */\n      dup6\n        /* \"#utility.yul\":1502:1525   */\n      sub\n        /* \"#utility.yul\":1498:1530   */\n      slt\n        /* \"#utility.yul\":1495:1547   */\n      iszero\n      tag_408\n      jumpi\n        /* \"#utility.yul\":1543:1544   */\n      0x00\n        /* \"#utility.yul\":1540:1541   */\n      dup1\n        /* \"#utility.yul\":1533:1545   */\n      revert\n        /* \"#utility.yul\":1495:1547   */\n    tag_408:\n        /* \"#utility.yul\":1583:1592   */\n      dup3\n        /* \"#utility.yul\":1570:1593   */\n      calldataload\n        /* \"#utility.yul\":1616:1634   */\n      0xffffffffffffffff\n        /* \"#utility.yul\":1608:1614   */\n      dup2\n        /* \"#utility.yul\":1605:1635   */\n      gt\n        /* \"#utility.yul\":1602:1652   */\n      iszero\n      tag_409\n      jumpi\n        /* \"#utility.yul\":1648:1649   */\n      0x00\n        /* \"#utility.yul\":1645:1646   */\n      dup1\n        /* \"#utility.yul\":1638:1650   */\n      revert\n        /* \"#utility.yul\":1602:1652   */\n    tag_409:\n        /* \"#utility.yul\":1671:1693   */\n      dup4\n      add\n        /* \"#utility.yul\":1724:1728   */\n      0x1f\n        /* \"#utility.yul\":1716:1729   */\n      dup2\n      add\n        /* \"#utility.yul\":1712:1739   */\n      dup6\n      sgt\n        /* \"#utility.yul\":1702:1757   */\n      tag_410\n      jumpi\n        /* \"#utility.yul\":1753:1754   */\n      0x00\n        /* \"#utility.yul\":1750:1751   */\n      dup1\n        /* \"#utility.yul\":1743:1755   */\n      revert\n        /* \"#utility.yul\":1702:1757   */\n    tag_410:\n        /* \"#utility.yul\":1793:1795   */\n      dup1\n        /* \"#utility.yul\":1780:1796   */\n      calldataload\n        /* \"#utility.yul\":1819:1837   */\n      0xffffffffffffffff\n        /* \"#utility.yul\":1811:1817   */\n      dup2\n        /* \"#utility.yul\":1808:1838   */\n      gt\n        /* \"#utility.yul\":1805:1855   */\n      iszero\n      tag_411\n      jumpi\n        /* \"#utility.yul\":1851:1852   */\n      0x00\n        /* \"#utility.yul\":1848:1849   */\n      dup1\n        /* \"#utility.yul\":1841:1853   */\n      revert\n        /* \"#utility.yul\":1805:1855   */\n    tag_411:\n        /* \"#utility.yul\":1904:1911   */\n      dup6\n        /* \"#utility.yul\":1899:1901   */\n      0x20\n        /* \"#utility.yul\":1889:1895   */\n      dup3\n        /* \"#utility.yul\":1886:1887   */\n      0x05\n        /* \"#utility.yul\":1882:1896   */\n      shl\n        /* \"#utility.yul\":1878:1880   */\n      dup5\n        /* \"#utility.yul\":1874:1897   */\n      add\n        /* \"#utility.yul\":1870:1902   */\n      add\n        /* \"#utility.yul\":1867:1912   */\n      gt\n        /* \"#utility.yul\":1864:1929   */\n      iszero\n      tag_412\n      jumpi\n        /* \"#utility.yul\":1925:1926   */\n      0x00\n        /* \"#utility.yul\":1922:1923   */\n      dup1\n        /* \"#utility.yul\":1915:1927   */\n      revert\n        /* \"#utility.yul\":1864:1929   */\n    tag_412:\n        /* \"#utility.yul\":1956:1958   */\n      0x20\n        /* \"#utility.yul\":1948:1959   */\n      swap2\n      swap1\n      swap2\n      add\n      swap6\n        /* \"#utility.yul\":1978:1984   */\n      swap1\n      swap5\n      pop\n        /* \"#utility.yul\":1380:1990   */\n      swap3\n      pop\n      pop\n      pop\n      jump\t// out\n        /* \"#utility.yul\":1995:2632   */\n    tag_106:\n        /* \"#utility.yul\":2185:2187   */\n      0x20\n        /* \"#utility.yul\":2197:2218   */\n      dup1\n      dup3\n      mstore\n        /* \"#utility.yul\":2267:2280   */\n      dup3\n      mload\n        /* \"#utility.yul\":2170:2188   */\n      dup3\n      dup3\n      add\n        /* \"#utility.yul\":2289:2311   */\n      dup2\n      swap1\n      mstore\n        /* \"#utility.yul\":2137:2141   */\n      0x00\n      swap2\n        /* \"#utility.yul\":2368:2383   */\n      dup5\n      add\n      swap1\n        /* \"#utility.yul\":2342:2344   */\n      0x40\n        /* \"#utility.yul\":2327:2345   */\n      dup5\n      add\n      swap1\n        /* \"#utility.yul\":2137:2141   */\n      dup4\n        /* \"#utility.yul\":2411:2606   */\n    tag_414:\n        /* \"#utility.yul\":2425:2431   */\n      dup2\n        /* \"#utility.yul\":2422:2423   */\n      dup2\n        /* \"#utility.yul\":2419:2432   */\n      lt\n        /* \"#utility.yul\":2411:2606   */\n      iszero\n      tag_416\n      jumpi\n        /* \"#utility.yul\":2490:2503   */\n      dup4\n      mload\n      sub(shl(0xa0, 0x01), 0x01)\n        /* \"#utility.yul\":2486:2525   */\n      and\n        /* \"#utility.yul\":2474:2526   */\n      dup4\n      mstore\n        /* \"#utility.yul\":2555:2557   */\n      0x20\n        /* \"#utility.yul\":2581:2596   */\n      swap4\n      dup5\n      add\n      swap4\n        /* \"#utility.yul\":2546:2558   */\n      swap1\n      swap3\n      add\n      swap2\n        /* \"#utility.yul\":2522:2523   */\n      0x01\n        /* \"#utility.yul\":2440:2449   */\n      add\n        /* \"#utility.yul\":2411:2606   */\n      jump(tag_414)\n    tag_416:\n      pop\n        /* \"#utility.yul\":2623:2626   */\n      swap1\n      swap6\n        /* \"#utility.yul\":1995:2632   */\n      swap5\n      pop\n      pop\n      pop\n      pop\n      pop\n      jump\t// out\n        /* \"#utility.yul\":3652:3995   */\n    tag_169:\n        /* \"#utility.yul\":3854:3856   */\n      0x20\n        /* \"#utility.yul\":3836:3857   */\n      dup1\n      dup3\n      mstore\n        /* \"#utility.yul\":3893:3895   */\n      0x13\n        /* \"#utility.yul\":3873:3891   */\n      swap1\n      dup3\n      add\n        /* \"#utility.yul\":3866:3896   */\n      mstore\n      shl(0x6a, 0x139bc81859191c995cdcd95cc81c185cdcd959)\n        /* \"#utility.yul\":3927:3929   */\n      0x40\n        /* \"#utility.yul\":3912:3930   */\n      dup3\n      add\n        /* \"#utility.yul\":3905:3954   */\n      mstore\n        /* \"#utility.yul\":3986:3988   */\n      0x60\n        /* \"#utility.yul\":3971:3989   */\n      add\n      swap1\n        /* \"#utility.yul\":3652:3995   */\n      jump\t// out\n        /* \"#utility.yul\":4000:4127   */\n    tag_175:\n        /* \"#utility.yul\":4061:4071   */\n      0x4e487b71\n        /* \"#utility.yul\":4056:4059   */\n      0xe0\n        /* \"#utility.yul\":4052:4072   */\n      shl\n        /* \"#utility.yul\":4049:4050   */\n      0x00\n        /* \"#utility.yul\":4042:4073   */\n      mstore\n        /* \"#utility.yul\":4092:4096   */\n      0x32\n        /* \"#utility.yul\":4089:4090   */\n      0x04\n        /* \"#utility.yul\":4082:4097   */\n      mstore\n        /* \"#utility.yul\":4116:4120   */\n      0x24\n        /* \"#utility.yul\":4113:4114   */\n      0x00\n        /* \"#utility.yul\":4106:4121   */\n      revert\n        /* \"#utility.yul\":4903:5518   */\n    tag_193:\n        /* \"#utility.yul\":5103:5105   */\n      0x20\n        /* \"#utility.yul\":5115:5136   */\n      dup1\n      dup3\n      mstore\n        /* \"#utility.yul\":5088:5106   */\n      dup2\n      add\n        /* \"#utility.yul\":5171:5193   */\n      dup3\n      swap1\n      mstore\n        /* \"#utility.yul\":5055:5059   */\n      0x00\n        /* \"#utility.yul\":5250:5256   */\n      dup4\n        /* \"#utility.yul\":5224:5226   */\n      0x40\n        /* \"#utility.yul\":5209:5227   */\n      dup4\n      add\n        /* \"#utility.yul\":5055:5059   */\n      dup3\n        /* \"#utility.yul\":5284:5492   */\n    tag_425:\n        /* \"#utility.yul\":5298:5304   */\n      dup6\n        /* \"#utility.yul\":5295:5296   */\n      dup2\n        /* \"#utility.yul\":5292:5305   */\n      lt\n        /* \"#utility.yul\":5284:5492   */\n      iszero\n      tag_427\n      jumpi\n      sub(shl(0xa0, 0x01), 0x01)\n        /* \"#utility.yul\":5363:5389   */\n      tag_428\n        /* \"#utility.yul\":5382:5388   */\n      dup5\n        /* \"#utility.yul\":5363:5389   */\n      tag_394\n      jump\t// in\n    tag_428:\n        /* \"#utility.yul\":5359:5411   */\n      and\n        /* \"#utility.yul\":5347:5412   */\n      dup3\n      mstore\n        /* \"#utility.yul\":5441:5443   */\n      0x20\n        /* \"#utility.yul\":5467:5482   */\n      swap3\n      dup4\n      add\n      swap3\n        /* \"#utility.yul\":5432:5444   */\n      swap1\n      swap2\n      add\n      swap1\n        /* \"#utility.yul\":5320:5321   */\n      0x01\n        /* \"#utility.yul\":5313:5322   */\n      add\n        /* \"#utility.yul\":5284:5492   */\n      jump(tag_425)\n    tag_427:\n      pop\n        /* \"#utility.yul\":5509:5512   */\n      swap6\n        /* \"#utility.yul\":4903:5518   */\n      swap5\n      pop\n      pop\n      pop\n      pop\n      pop\n      jump\t// out\n        /* \"#utility.yul\":5936:6120   */\n    tag_231:\n        /* \"#utility.yul\":6006:6012   */\n      0x00\n        /* \"#utility.yul\":6059:6061   */\n      0x20\n        /* \"#utility.yul\":6047:6056   */\n      dup3\n        /* \"#utility.yul\":6038:6045   */\n      dup5\n        /* \"#utility.yul\":6034:6057   */\n      sub\n        /* \"#utility.yul\":6030:6062   */\n      slt\n        /* \"#utility.yul\":6027:6079   */\n      iszero\n      tag_431\n      jumpi\n        /* \"#utility.yul\":6075:6076   */\n      0x00\n        /* \"#utility.yul\":6072:6073   */\n      dup1\n        /* \"#utility.yul\":6065:6077   */\n      revert\n        /* \"#utility.yul\":6027:6079   */\n    tag_431:\n      pop\n        /* \"#utility.yul\":6098:6114   */\n      mload\n      swap2\n        /* \"#utility.yul\":5936:6120   */\n      swap1\n      pop\n      jump\t// out\n        /* \"#utility.yul\":7988:8220   */\n    tag_270:\n        /* \"#utility.yul\":8027:8030   */\n      0x00\n        /* \"#utility.yul\":8048:8065   */\n      0x01\n      dup3\n      add\n        /* \"#utility.yul\":8045:8185   */\n      tag_438\n      jumpi\n        /* \"#utility.yul\":8107:8117   */\n      0x4e487b71\n        /* \"#utility.yul\":8102:8105   */\n      0xe0\n        /* \"#utility.yul\":8098:8118   */\n      shl\n        /* \"#utility.yul\":8095:8096   */\n      0x00\n        /* \"#utility.yul\":8088:8119   */\n      mstore\n        /* \"#utility.yul\":8142:8146   */\n      0x11\n        /* \"#utility.yul\":8139:8140   */\n      0x04\n        /* \"#utility.yul\":8132:8147   */\n      mstore\n        /* \"#utility.yul\":8170:8174   */\n      0x24\n        /* \"#utility.yul\":8167:8168   */\n      0x00\n        /* \"#utility.yul\":8160:8175   */\n      revert\n        /* \"#utility.yul\":8045:8185   */\n    tag_438:\n      pop\n        /* \"#utility.yul\":8212:8213   */\n      0x01\n        /* \"#utility.yul\":8201:8214   */\n      add\n      swap1\n        /* \"#utility.yul\":7988:8220   */\n      jump\t// out\n        /* \"#utility.yul\":8225:8352   */\n    tag_273:\n        /* \"#utility.yul\":8286:8296   */\n      0x4e487b71\n        /* \"#utility.yul\":8281:8284   */\n      0xe0\n        /* \"#utility.yul\":8277:8297   */\n      shl\n        /* \"#utility.yul\":8274:8275   */\n      0x00\n        /* \"#utility.yul\":8267:8298   */\n      mstore\n        /* \"#utility.yul\":8317:8321   */\n      0x41\n        /* \"#utility.yul\":8314:8315   */\n      0x04\n        /* \"#utility.yul\":8307:8322   */\n      mstore\n        /* \"#utility.yul\":8341:8345   */\n      0x24\n        /* \"#utility.yul\":8338:8339   */\n      0x00\n        /* \"#utility.yul\":8331:8346   */\n      revert\n        /* \"#utility.yul\":8705:9048   */\n    tag_297:\n        /* \"#utility.yul\":8907:8909   */\n      0x20\n        /* \"#utility.yul\":8889:8910   */\n      dup1\n      dup3\n      mstore\n        /* \"#utility.yul\":8946:8948   */\n      0x13\n        /* \"#utility.yul\":8926:8944   */\n      swap1\n      dup3\n      add\n        /* \"#utility.yul\":8919:8949   */\n      mstore\n      shl(0x6a, 0x16995c9bc81859191c995cdcc81c185cdcd959)\n        /* \"#utility.yul\":8980:8982   */\n      0x40\n        /* \"#utility.yul\":8965:8983   */\n      dup3\n      add\n        /* \"#utility.yul\":8958:9007   */\n      mstore\n        /* \"#utility.yul\":9039:9041   */\n      0x60\n        /* \"#utility.yul\":9024:9042   */\n      add\n      swap1\n        /* \"#utility.yul\":8705:9048   */\n      jump\t// out\n        /* \"#utility.yul\":10040:10317   */\n    tag_347:\n        /* \"#utility.yul\":10107:10113   */\n      0x00\n        /* \"#utility.yul\":10160:10162   */\n      0x20\n        /* \"#utility.yul\":10148:10157   */\n      dup3\n        /* \"#utility.yul\":10139:10146   */\n      dup5\n        /* \"#utility.yul\":10135:10158   */\n      sub\n        /* \"#utility.yul\":10131:10163   */\n      slt\n        /* \"#utility.yul\":10128:10180   */\n      iszero\n      tag_446\n      jumpi\n        /* \"#utility.yul\":10176:10177   */\n      0x00\n        /* \"#utility.yul\":10173:10174   */\n      dup1\n        /* \"#utility.yul\":10166:10178   */\n      revert\n        /* \"#utility.yul\":10128:10180   */\n    tag_446:\n        /* \"#utility.yul\":10208:10217   */\n      dup2\n        /* \"#utility.yul\":10202:10218   */\n      mload\n        /* \"#utility.yul\":10261:10266   */\n      dup1\n        /* \"#utility.yul\":10254:10267   */\n      iszero\n        /* \"#utility.yul\":10247:10268   */\n      iszero\n        /* \"#utility.yul\":10240:10245   */\n      dup2\n        /* \"#utility.yul\":10237:10269   */\n      eq\n        /* \"#utility.yul\":10227:10287   */\n      tag_405\n      jumpi\n        /* \"#utility.yul\":10283:10284   */\n      0x00\n        /* \"#utility.yul\":10280:10281   */\n      dup1\n        /* \"#utility.yul\":10273:10285   */\n      revert\n\n    auxdata: 0xa264697066735822122045ff0239a64a80bcc862824d609f9631aaa4baff7169f2b3ef73f60e0800c9ad64736f6c634300081c0033\n}\n",
				"bytecode": {
					"linkReferences": {},
					"object": "60a060405234801561001057600080fd5b50604051611bb5380380611bb583398101604081905261002f9161027f565b836001600160a01b03811661005f57604051631e4fbdf760e01b8152600060048201526024015b60405180910390fd5b61006881610213565b50600180556002805460ff191690556001600160a01b0381166100dd5760405162461bcd60e51b815260206004820152602760248201527f5a65726f206164647265737320676976656e20666f722063555344546f6b656e6044820152664164647265737360c81b6064820152608401610056565b6001600160a01b03841661014a5760405162461bcd60e51b815260206004820152602e60248201527f5a65726f206164647265737320676976656e20666f722072657365617263686560448201526d7257616c6c65744164647265737360901b6064820152608401610056565b6000831161019a5760405162461bcd60e51b815260206004820152601560248201527f496e76616c69642072657761726420616d6f756e7400000000000000000000006044820152606401610056565b600082116101f85760405162461bcd60e51b815260206004820152602560248201527f496e76616c6964206e756d626572206f6620746172676574207061727469636960448201526470616e747360d81b6064820152608401610056565b6001600160a01b0316608052600691909155600755506102c6565b600080546001600160a01b038381166001600160a01b0319831681178455604051919092169283917f8be0079c531659141344cd1fd0a4f28419497f9722a3daafe3b4186f6b6457e09190a35050565b80516001600160a01b038116811461027a57600080fd5b919050565b6000806000806080858703121561029557600080fd5b61029e85610263565b60208601516040870151919550935091506102bb60608601610263565b905092959194509250565b6080516118b1610304600039600081816101ea015281816109a1015281816110ce015281816111a60152818161121d01526114ad01526118b16000f3fe608060405234801561001057600080fd5b50600436106101c45760003560e01c80638c0a0966116100f9578063b070291311610097578063e082fe2a11610071578063e082fe2a146103c3578063ea1dd101146103cb578063f22069df146103de578063f2fde38b146103e657600080fd5b8063b070291314610371578063d335993a14610384578063d4bfbd411461039757600080fd5b80639a0474e8116100d35780639a0474e814610322578063a085834314610335578063a0ca86a314610348578063a6a098111461036857600080fd5b80638c0a0966146102d15780638da5cb5b146102fe57806398b484931461030f57600080fd5b806364bb632f116101665780637069243c116101405780637069243c146102b0578063715018a6146102b8578063741ae614146102c05780637a0abf08146102c857600080fd5b806364bb632f146102695780636fa1c59d1461027c5780636ff65c201461028457600080fd5b80633960fc66116101a25780633960fc661461022c5780634074be4014610236578063528780cc1461023f5780635c975abb1461025257600080fd5b8063047bc438146101c95780631fccf672146101e557806328a2355b14610224575b600080fd5b6101d260095481565b6040519081526020015b60405180910390f35b61020c7f000000000000000000000000000000000000000000000000000000000000000081565b6040516001600160a01b0390911681526020016101dc565b6009546101d2565b6102346103f9565b005b6101d2600a5481565b61023461024d36600461162e565b61040b565b60025460ff165b60405190151581526020016101dc565b61023461027736600461162e565b6104c2565b6007546101d2565b610259610292366004611663565b6001600160a01b031660009081526004602052604090205460ff1690565b6006546101d2565b61023461055a565b6008546101d2565b6101d260065481565b6102596102df366004611663565b6001600160a01b031660009081526003602052604090205460ff161590565b6000546001600160a01b031661020c565b61023461031d366004611685565b61056c565b610234610330366004611685565b610773565b610234610343366004611663565b610979565b61035b610356366004611685565b610c1a565b6040516101dc91906116fc565b6101d260075481565b61023461037f366004611663565b610dc7565b610234610392366004611663565b610ebe565b6102596103a5366004611663565b6001600160a01b031660009081526003602052604090205460ff1690565b610234610fa7565b6102346103d9366004611663565b610fb7565b6102346110a6565b6102346103f4366004611663565b611326565b610401611361565b61040961138e565b565b610413611361565b806000036104795760405162461bcd60e51b815260206004820152602860248201527f5a65726f206e756d626572206f6620746172676574207061727469636970616e6044820152673a399033b4bb32b760c11b60648201526084015b60405180910390fd5b6007805490829055604080518281526020810184905283917f2e31e8893a04ce5258044d342d7658948a6ac9710d97e32462ab75f131ae11ef91015b60405180910390a1505050565b6104ca611361565b8060000361051a5760405162461bcd60e51b815260206004820152601860248201527f5a65726f2072657761726420616d6f756e7420676976656e00000000000000006044820152606401610470565b6006805490829055604080518281526020810184905283917ff0d37c3ae852021ac329281f604b658691cbfa6b9e9c22909f06b64a8ce87c9491016104b5565b610562611361565b61040960006113e0565b610574611361565b80806105925760405162461bcd60e51b815260040161047090611748565b60005b818110156106ce5760008484838181106105b1576105b1611775565b90506020020160208101906105c69190611663565b6001600160a01b03160361061c5760405162461bcd60e51b815260206004820152601d60248201527f4f6e652f6d6f7265207a65726f2061646472657373657320676976656e0000006044820152606401610470565b6003600085858481811061063257610632611775565b90506020020160208101906106479190611663565b6001600160a01b0316815260208101919091526040016000205460ff16156106c65760405162461bcd60e51b815260206004820152602c60248201527f4f6e652f6d6f726520676976656e2061646472657373657320616c726561647960448201526b081dda1a5d195b1a5cdd195960a21b6064820152608401610470565b600101610595565b5060005b81811015610741576001600360008686858181106106f2576106f2611775565b90506020020160208101906107079190611663565b6001600160a01b031681526020810191909152604001600020805460ff1916911515919091179055600980546001908101909155016106d2565b507fcd54969ccf4839851c974f9e65e16eb0b2b47ddb55bc4f3b0951aafa2535f55283836040516104b592919061178b565b61077b611361565b80806107995760405162461bcd60e51b815260040161047090611748565b60005b818110156108d45760008484838181106107b8576107b8611775565b90506020020160208101906107cd9190611663565b6001600160a01b0316036108235760405162461bcd60e51b815260206004820152601d60248201527f4f6e652f6d6f7265207a65726f2061646472657373657320676976656e0000006044820152606401610470565b6003600085858481811061083957610839611775565b905060200201602081019061084e9190611663565b6001600160a01b0316815260208101919091526040016000205460ff166108cc5760405162461bcd60e51b815260206004820152602c60248201527f4f6e652f6d6f726520676976656e2061646472657373657320616c726561647960448201526b08189b1858dadb1a5cdd195960a21b6064820152608401610470565b60010161079c565b5060005b81811015610947576000600360008686858181106108f8576108f8611775565b905060200201602081019061090d9190611663565b6001600160a01b031681526020810191909152604001600020805460ff1916911515919091179055600980546000190190556001016108d8565b507fe29acb3292bed043faf01e16b1fcf8c38cf977e334155fa988ded4d254fc342483836040516104b592919061178b565b610981611430565b610989611454565b6006546040516370a0823160e01b81523060048201527f00000000000000000000000000000000000000000000000000000000000000006001600160a01b0316906370a0823190602401602060405180830381865afa1580156109f0573d6000803e3d6000fd5b505050506040513d601f19601f82011682018060405250810190610a1491906117d6565b1015610a6d5760405162461bcd60e51b815260206004820152602260248201527f436f6e747261637420646f6573206e6f74206861766520656e6f75676820635560448201526114d160f21b6064820152608401610470565b60075460085410610acc5760405162461bcd60e51b815260206004820152602360248201527f416c6c207061727469636970616e74732068617665206265656e20726577617260448201526219195960ea1b6064820152608401610470565b80336001600160a01b03821614610b195760405162461bcd60e51b815260206004820152601160248201527027b7363c903b30b634b21039b2b73232b960791b6044820152606401610470565b6001600160a01b038216600090815260036020526040902054829060ff16610b835760405162461bcd60e51b815260206004820152601860248201527f4f6e6c792077686974656c6973746564206164647265737300000000000000006044820152606401610470565b6001600160a01b038316600090815260046020526040902054839060ff1615610bee5760405162461bcd60e51b815260206004820152601c60248201527f5061727469636970616e7420616c7265616479207265776172646564000000006044820152606401610470565b6000610bf98561147e565b90508015610c0a57610c0a8561157a565b50505050610c1760018055565b50565b6060816000819003610c3e5760405162461bcd60e51b815260040161047090611748565b6000805b82811015610cad5760036000878784818110610c6057610c60611775565b9050602002016020810190610c759190611663565b6001600160a01b0316815260208101919091526040016000205460ff1615610ca55781610ca1816117ef565b9250505b600101610c42565b5060008167ffffffffffffffff811115610cc957610cc9611816565b604051908082528060200260200182016040528015610cf2578160200160208202803683370190505b5090506000805b84811015610dbb5760036000898984818110610d1757610d17611775565b9050602002016020810190610d2c9190611663565b6001600160a01b0316815260208101919091526040016000205460ff1615610db357878782818110610d6057610d60611775565b9050602002016020810190610d759190611663565b8383610d80816117ef565b945081518110610d9257610d92611775565b60200260200101906001600160a01b031690816001600160a01b0316815250505b600101610cf9565b50909695505050505050565b610dcf611361565b6001600160a01b038116600090815260036020526040902054819060ff1615610e305760405162461bcd60e51b8152602060048201526013602482015272135d5cdd08189948189b1858dadb1a5cdd1959606a1b6044820152606401610470565b6001600160a01b038216610e565760405162461bcd60e51b81526004016104709061182c565b6001600160a01b038216600081815260036020908152604091829020805460ff1916600190811790915560098054909101905590519182527fc1bf09e09093691bde88793790b0af49ae99cc6c301523675a439aa76a084f1891015b60405180910390a15050565b610ec6611361565b6001600160a01b038116600090815260036020526040902054819060ff16610f265760405162461bcd60e51b8152602060048201526013602482015272135d5cdd081899481dda1a5d195b1a5cdd1959606a1b6044820152606401610470565b6001600160a01b038216610f4c5760405162461bcd60e51b81526004016104709061182c565b6001600160a01b038216600081815260036020908152604091829020805460ff191690556009805460001901905590519182527f4c4c57d58b398c7beead9e49305d0926ea8fd1e7e895959b09968b3384c385de9101610eb2565b610faf611361565b6104096115ce565b610fbf611361565b6001600160a01b038116600090815260036020526040902054819060ff16156110205760405162461bcd60e51b8152602060048201526013602482015272135d5cdd08189948189b1858dadb1a5cdd1959606a1b6044820152606401610470565b6001600160a01b0382166110465760405162461bcd60e51b81526004016104709061182c565b6001600160a01b038216600081815260056020908152604091829020805460ff19166001908117909155600a8054909101905590519182527fc4ec7a2dc5e72d17666a15570e438638bfc023a7a091df162b669c37198bacb29101610eb2565b6110ae611361565b6110b6611430565b6040516370a0823160e01b81523060048201526000907f00000000000000000000000000000000000000000000000000000000000000006001600160a01b0316906370a0823190602401602060405180830381865afa15801561111d573d6000803e3d6000fd5b505050506040513d601f19601f8201168201806040525081019061114191906117d6565b1161118e5760405162461bcd60e51b815260206004820152601f60248201527f436f6e747261637420646f6573206e6f74206861766520616e792063555344006044820152606401610470565b6040516370a0823160e01b81523060048201526000907f00000000000000000000000000000000000000000000000000000000000000006001600160a01b0316906370a0823190602401602060405180830381865afa1580156111f5573d6000803e3d6000fd5b505050506040513d601f19601f8201168201806040525081019061121991906117d6565b90507f00000000000000000000000000000000000000000000000000000000000000006001600160a01b031663a9059cbb61125c6000546001600160a01b031690565b6040516001600160e01b031960e084901b1681526001600160a01b039091166004820152602481018490526044016020604051808303816000875af11580156112a9573d6000803e3d6000fd5b505050506040513d601f19601f820116820180604052508101906112cd9190611859565b507f2036b9b38b69a2fa490ee702733a29cd2550accc20bc96e786cb9beedc7790976113016000546001600160a01b031690565b604080516001600160a01b03909216825260208201849052015b60405180910390a150565b61132e611361565b6001600160a01b03811661135857604051631e4fbdf760e01b815260006004820152602401610470565b610c17816113e0565b6000546001600160a01b031633146104095760405163118cdaa760e01b8152336004820152602401610470565b61139661160b565b6002805460ff191690557f5db9ee0a495bf2e6ff9c91a7834c1ba4fdd244a5e8aa4e537bd38aeae4b073aa335b6040516001600160a01b03909116815260200160405180910390a1565b600080546001600160a01b038381166001600160a01b0319831681178455604051919092169283917f8be0079c531659141344cd1fd0a4f28419497f9722a3daafe3b4186f6b6457e09190a35050565b60025460ff16156104095760405163d93c066560e01b815260040160405180910390fd5b60026001540361147757604051633ee5aeb560e01b815260040160405180910390fd5b6002600155565b60065460405163a9059cbb60e01b81526001600160a01b038381166004830152602482019290925260009182917f00000000000000000000000000000000000000000000000000000000000000009091169063a9059cbb906044016020604051808303816000875af11580156114f8573d6000803e3d6000fd5b505050506040513d601f19601f8201168201806040525081019061151c9190611859565b9050801561157457600880546001019055600654604080516001600160a01b038616815260208101929092527f8934d7a9692e763e356fd30d84ca5f61a737b35c5ccd5d31d4f140310267b73e910160405180910390a15b92915050565b6001600160a01b038116600081815260046020908152604091829020805460ff1916600117905590519182527f654c9a027765e6feb862f42d438e9f6948f9ee31113e379f0372b30efc722943910161131b565b6115d6611430565b6002805460ff191660011790557f62e78cea01bee320cd4e420270b5ea74000d11b0c9f74754ebdbfc544b05a2586113c33390565b60025460ff1661040957604051638dfc202b60e01b815260040160405180910390fd5b60006020828403121561164057600080fd5b5035919050565b80356001600160a01b038116811461165e57600080fd5b919050565b60006020828403121561167557600080fd5b61167e82611647565b9392505050565b6000806020838503121561169857600080fd5b823567ffffffffffffffff8111156116af57600080fd5b8301601f810185136116c057600080fd5b803567ffffffffffffffff8111156116d757600080fd5b8560208260051b84010111156116ec57600080fd5b6020919091019590945092505050565b602080825282518282018190526000918401906040840190835b8181101561173d5783516001600160a01b0316835260209384019390920191600101611716565b509095945050505050565b602080825260139082015272139bc81859191c995cdcd95cc81c185cdcd959606a1b604082015260600190565b634e487b7160e01b600052603260045260246000fd5b6020808252810182905260008360408301825b858110156117cc576001600160a01b036117b784611647565b1682526020928301929091019060010161179e565b5095945050505050565b6000602082840312156117e857600080fd5b5051919050565b60006001820161180f57634e487b7160e01b600052601160045260246000fd5b5060010190565b634e487b7160e01b600052604160045260246000fd5b60208082526013908201527216995c9bc81859191c995cdcc81c185cdcd959606a1b604082015260600190565b60006020828403121561186b57600080fd5b8151801515811461167e57600080fdfea264697066735822122045ff0239a64a80bcc862824d609f9631aaa4baff7169f2b3ef73f60e0800c9ad64736f6c634300081c0033",
					"opcodes": "PUSH1 0xA0 PUSH1 0x40 MSTORE CALLVALUE DUP1 ISZERO PUSH2 0x10 JUMPI PUSH1 0x0 DUP1 REVERT JUMPDEST POP PUSH1 0x40 MLOAD PUSH2 0x1BB5 CODESIZE SUB DUP1 PUSH2 0x1BB5 DUP4 CODECOPY DUP2 ADD PUSH1 0x40 DUP2 SWAP1 MSTORE PUSH2 0x2F SWAP2 PUSH2 0x27F JUMP JUMPDEST DUP4 PUSH1 0x1 PUSH1 0x1 PUSH1 0xA0 SHL SUB DUP2 AND PUSH2 0x5F JUMPI PUSH1 0x40 MLOAD PUSH4 0x1E4FBDF7 PUSH1 0xE0 SHL DUP2 MSTORE PUSH1 0x0 PUSH1 0x4 DUP3 ADD MSTORE PUSH1 0x24 ADD JUMPDEST PUSH1 0x40 MLOAD DUP1 SWAP2 SUB SWAP1 REVERT JUMPDEST PUSH2 0x68 DUP2 PUSH2 0x213 JUMP JUMPDEST POP PUSH1 0x1 DUP1 SSTORE PUSH1 0x2 DUP1 SLOAD PUSH1 0xFF NOT AND SWAP1 SSTORE PUSH1 0x1 PUSH1 0x1 PUSH1 0xA0 SHL SUB DUP2 AND PUSH2 0xDD JUMPI PUSH1 0x40 MLOAD PUSH3 0x461BCD PUSH1 0xE5 SHL DUP2 MSTORE PUSH1 0x20 PUSH1 0x4 DUP3 ADD MSTORE PUSH1 0x27 PUSH1 0x24 DUP3 ADD MSTORE PUSH32 0x5A65726F206164647265737320676976656E20666F722063555344546F6B656E PUSH1 0x44 DUP3 ADD MSTORE PUSH7 0x41646472657373 PUSH1 0xC8 SHL PUSH1 0x64 DUP3 ADD MSTORE PUSH1 0x84 ADD PUSH2 0x56 JUMP JUMPDEST PUSH1 0x1 PUSH1 0x1 PUSH1 0xA0 SHL SUB DUP5 AND PUSH2 0x14A JUMPI PUSH1 0x40 MLOAD PUSH3 0x461BCD PUSH1 0xE5 SHL DUP2 MSTORE PUSH1 0x20 PUSH1 0x4 DUP3 ADD MSTORE PUSH1 0x2E PUSH1 0x24 DUP3 ADD MSTORE PUSH32 0x5A65726F206164647265737320676976656E20666F7220726573656172636865 PUSH1 0x44 DUP3 ADD MSTORE PUSH14 0x7257616C6C657441646472657373 PUSH1 0x90 SHL PUSH1 0x64 DUP3 ADD MSTORE PUSH1 0x84 ADD PUSH2 0x56 JUMP JUMPDEST PUSH1 0x0 DUP4 GT PUSH2 0x19A JUMPI PUSH1 0x40 MLOAD PUSH3 0x461BCD PUSH1 0xE5 SHL DUP2 MSTORE PUSH1 0x20 PUSH1 0x4 DUP3 ADD MSTORE PUSH1 0x15 PUSH1 0x24 DUP3 ADD MSTORE PUSH32 0x496E76616C69642072657761726420616D6F756E740000000000000000000000 PUSH1 0x44 DUP3 ADD MSTORE PUSH1 0x64 ADD PUSH2 0x56 JUMP JUMPDEST PUSH1 0x0 DUP3 GT PUSH2 0x1F8 JUMPI PUSH1 0x40 MLOAD PUSH3 0x461BCD PUSH1 0xE5 SHL DUP2 MSTORE PUSH1 0x20 PUSH1 0x4 DUP3 ADD MSTORE PUSH1 0x25 PUSH1 0x24 DUP3 ADD MSTORE PUSH32 0x496E76616C6964206E756D626572206F66207461726765742070617274696369 PUSH1 0x44 DUP3 ADD MSTORE PUSH5 0x70616E7473 PUSH1 0xD8 SHL PUSH1 0x64 DUP3 ADD MSTORE PUSH1 0x84 ADD PUSH2 0x56 JUMP JUMPDEST PUSH1 0x1 PUSH1 0x1 PUSH1 0xA0 SHL SUB AND PUSH1 0x80 MSTORE PUSH1 0x6 SWAP2 SWAP1 SWAP2 SSTORE PUSH1 0x7 SSTORE POP PUSH2 0x2C6 JUMP JUMPDEST PUSH1 0x0 DUP1 SLOAD PUSH1 0x1 PUSH1 0x1 PUSH1 0xA0 SHL SUB DUP4 DUP2 AND PUSH1 0x1 PUSH1 0x1 PUSH1 0xA0 SHL SUB NOT DUP4 AND DUP2 OR DUP5 SSTORE PUSH1 0x40 MLOAD SWAP2 SWAP1 SWAP3 AND SWAP3 DUP4 SWAP2 PUSH32 0x8BE0079C531659141344CD1FD0A4F28419497F9722A3DAAFE3B4186F6B6457E0 SWAP2 SWAP1 LOG3 POP POP JUMP JUMPDEST DUP1 MLOAD PUSH1 0x1 PUSH1 0x1 PUSH1 0xA0 SHL SUB DUP2 AND DUP2 EQ PUSH2 0x27A JUMPI PUSH1 0x0 DUP1 REVERT JUMPDEST SWAP2 SWAP1 POP JUMP JUMPDEST PUSH1 0x0 DUP1 PUSH1 0x0 DUP1 PUSH1 0x80 DUP6 DUP8 SUB SLT ISZERO PUSH2 0x295 JUMPI PUSH1 0x0 DUP1 REVERT JUMPDEST PUSH2 0x29E DUP6 PUSH2 0x263 JUMP JUMPDEST PUSH1 0x20 DUP7 ADD MLOAD PUSH1 0x40 DUP8 ADD MLOAD SWAP2 SWAP6 POP SWAP4 POP SWAP2 POP PUSH2 0x2BB PUSH1 0x60 DUP7 ADD PUSH2 0x263 JUMP JUMPDEST SWAP1 POP SWAP3 SWAP6 SWAP2 SWAP5 POP SWAP3 POP JUMP JUMPDEST PUSH1 0x80 MLOAD PUSH2 0x18B1 PUSH2 0x304 PUSH1 0x0 CODECOPY PUSH1 0x0 DUP2 DUP2 PUSH2 0x1EA ADD MSTORE DUP2 DUP2 PUSH2 0x9A1 ADD MSTORE DUP2 DUP2 PUSH2 0x10CE ADD MSTORE DUP2 DUP2 PUSH2 0x11A6 ADD MSTORE DUP2 DUP2 PUSH2 0x121D ADD MSTORE PUSH2 0x14AD ADD MSTORE PUSH2 0x18B1 PUSH1 0x0 RETURN INVALID PUSH1 0x80 PUSH1 0x40 MSTORE CALLVALUE DUP1 ISZERO PUSH2 0x10 JUMPI PUSH1 0x0 DUP1 REVERT JUMPDEST POP PUSH1 0x4 CALLDATASIZE LT PUSH2 0x1C4 JUMPI PUSH1 0x0 CALLDATALOAD PUSH1 0xE0 SHR DUP1 PUSH4 0x8C0A0966 GT PUSH2 0xF9 JUMPI DUP1 PUSH4 0xB0702913 GT PUSH2 0x97 JUMPI DUP1 PUSH4 0xE082FE2A GT PUSH2 0x71 JUMPI DUP1 PUSH4 0xE082FE2A EQ PUSH2 0x3C3 JUMPI DUP1 PUSH4 0xEA1DD101 EQ PUSH2 0x3CB JUMPI DUP1 PUSH4 0xF22069DF EQ PUSH2 0x3DE JUMPI DUP1 PUSH4 0xF2FDE38B EQ PUSH2 0x3E6 JUMPI PUSH1 0x0 DUP1 REVERT JUMPDEST DUP1 PUSH4 0xB0702913 EQ PUSH2 0x371 JUMPI DUP1 PUSH4 0xD335993A EQ PUSH2 0x384 JUMPI DUP1 PUSH4 0xD4BFBD41 EQ PUSH2 0x397 JUMPI PUSH1 0x0 DUP1 REVERT JUMPDEST DUP1 PUSH4 0x9A0474E8 GT PUSH2 0xD3 JUMPI DUP1 PUSH4 0x9A0474E8 EQ PUSH2 0x322 JUMPI DUP1 PUSH4 0xA0858343 EQ PUSH2 0x335 JUMPI DUP1 PUSH4 0xA0CA86A3 EQ PUSH2 0x348 JUMPI DUP1 PUSH4 0xA6A09811 EQ PUSH2 0x368 JUMPI PUSH1 0x0 DUP1 REVERT JUMPDEST DUP1 PUSH4 0x8C0A0966 EQ PUSH2 0x2D1 JUMPI DUP1 PUSH4 0x8DA5CB5B EQ PUSH2 0x2FE JUMPI DUP1 PUSH4 0x98B48493 EQ PUSH2 0x30F JUMPI PUSH1 0x0 DUP1 REVERT JUMPDEST DUP1 PUSH4 0x64BB632F GT PUSH2 0x166 JUMPI DUP1 PUSH4 0x7069243C GT PUSH2 0x140 JUMPI DUP1 PUSH4 0x7069243C EQ PUSH2 0x2B0 JUMPI DUP1 PUSH4 0x715018A6 EQ PUSH2 0x2B8 JUMPI DUP1 PUSH4 0x741AE614 EQ PUSH2 0x2C0 JUMPI DUP1 PUSH4 0x7A0ABF08 EQ PUSH2 0x2C8 JUMPI PUSH1 0x0 DUP1 REVERT JUMPDEST DUP1 PUSH4 0x64BB632F EQ PUSH2 0x269 JUMPI DUP1 PUSH4 0x6FA1C59D EQ PUSH2 0x27C JUMPI DUP1 PUSH4 0x6FF65C20 EQ PUSH2 0x284 JUMPI PUSH1 0x0 DUP1 REVERT JUMPDEST DUP1 PUSH4 0x3960FC66 GT PUSH2 0x1A2 JUMPI DUP1 PUSH4 0x3960FC66 EQ PUSH2 0x22C JUMPI DUP1 PUSH4 0x4074BE40 EQ PUSH2 0x236 JUMPI DUP1 PUSH4 0x528780CC EQ PUSH2 0x23F JUMPI DUP1 PUSH4 0x5C975ABB EQ PUSH2 0x252 JUMPI PUSH1 0x0 DUP1 REVERT JUMPDEST DUP1 PUSH4 0x47BC438 EQ PUSH2 0x1C9 JUMPI DUP1 PUSH4 0x1FCCF672 EQ PUSH2 0x1E5 JUMPI DUP1 PUSH4 0x28A2355B EQ PUSH2 0x224 JUMPI JUMPDEST PUSH1 0x0 DUP1 REVERT JUMPDEST PUSH2 0x1D2 PUSH1 0x9 SLOAD DUP2 JUMP JUMPDEST PUSH1 0x40 MLOAD SWAP1 DUP2 MSTORE PUSH1 0x20 ADD JUMPDEST PUSH1 0x40 MLOAD DUP1 SWAP2 SUB SWAP1 RETURN JUMPDEST PUSH2 0x20C PUSH32 0x0 DUP2 JUMP JUMPDEST PUSH1 0x40 MLOAD PUSH1 0x1 PUSH1 0x1 PUSH1 0xA0 SHL SUB SWAP1 SWAP2 AND DUP2 MSTORE PUSH1 0x20 ADD PUSH2 0x1DC JUMP JUMPDEST PUSH1 0x9 SLOAD PUSH2 0x1D2 JUMP JUMPDEST PUSH2 0x234 PUSH2 0x3F9 JUMP JUMPDEST STOP JUMPDEST PUSH2 0x1D2 PUSH1 0xA SLOAD DUP2 JUMP JUMPDEST PUSH2 0x234 PUSH2 0x24D CALLDATASIZE PUSH1 0x4 PUSH2 0x162E JUMP JUMPDEST PUSH2 0x40B JUMP JUMPDEST PUSH1 0x2 SLOAD PUSH1 0xFF AND JUMPDEST PUSH1 0x40 MLOAD SWAP1 ISZERO ISZERO DUP2 MSTORE PUSH1 0x20 ADD PUSH2 0x1DC JUMP JUMPDEST PUSH2 0x234 PUSH2 0x277 CALLDATASIZE PUSH1 0x4 PUSH2 0x162E JUMP JUMPDEST PUSH2 0x4C2 JUMP JUMPDEST PUSH1 0x7 SLOAD PUSH2 0x1D2 JUMP JUMPDEST PUSH2 0x259 PUSH2 0x292 CALLDATASIZE PUSH1 0x4 PUSH2 0x1663 JUMP JUMPDEST PUSH1 0x1 PUSH1 0x1 PUSH1 0xA0 SHL SUB AND PUSH1 0x0 SWAP1 DUP2 MSTORE PUSH1 0x4 PUSH1 0x20 MSTORE PUSH1 0x40 SWAP1 KECCAK256 SLOAD PUSH1 0xFF AND SWAP1 JUMP JUMPDEST PUSH1 0x6 SLOAD PUSH2 0x1D2 JUMP JUMPDEST PUSH2 0x234 PUSH2 0x55A JUMP JUMPDEST PUSH1 0x8 SLOAD PUSH2 0x1D2 JUMP JUMPDEST PUSH2 0x1D2 PUSH1 0x6 SLOAD DUP2 JUMP JUMPDEST PUSH2 0x259 PUSH2 0x2DF CALLDATASIZE PUSH1 0x4 PUSH2 0x1663 JUMP JUMPDEST PUSH1 0x1 PUSH1 0x1 PUSH1 0xA0 SHL SUB AND PUSH1 0x0 SWAP1 DUP2 MSTORE PUSH1 0x3 PUSH1 0x20 MSTORE PUSH1 0x40 SWAP1 KECCAK256 SLOAD PUSH1 0xFF AND ISZERO SWAP1 JUMP JUMPDEST PUSH1 0x0 SLOAD PUSH1 0x1 PUSH1 0x1 PUSH1 0xA0 SHL SUB AND PUSH2 0x20C JUMP JUMPDEST PUSH2 0x234 PUSH2 0x31D CALLDATASIZE PUSH1 0x4 PUSH2 0x1685 JUMP JUMPDEST PUSH2 0x56C JUMP JUMPDEST PUSH2 0x234 PUSH2 0x330 CALLDATASIZE PUSH1 0x4 PUSH2 0x1685 JUMP JUMPDEST PUSH2 0x773 JUMP JUMPDEST PUSH2 0x234 PUSH2 0x343 CALLDATASIZE PUSH1 0x4 PUSH2 0x1663 JUMP JUMPDEST PUSH2 0x979 JUMP JUMPDEST PUSH2 0x35B PUSH2 0x356 CALLDATASIZE PUSH1 0x4 PUSH2 0x1685 JUMP JUMPDEST PUSH2 0xC1A JUMP JUMPDEST PUSH1 0x40 MLOAD PUSH2 0x1DC SWAP2 SWAP1 PUSH2 0x16FC JUMP JUMPDEST PUSH2 0x1D2 PUSH1 0x7 SLOAD DUP2 JUMP JUMPDEST PUSH2 0x234 PUSH2 0x37F CALLDATASIZE PUSH1 0x4 PUSH2 0x1663 JUMP JUMPDEST PUSH2 0xDC7 JUMP JUMPDEST PUSH2 0x234 PUSH2 0x392 CALLDATASIZE PUSH1 0x4 PUSH2 0x1663 JUMP JUMPDEST PUSH2 0xEBE JUMP JUMPDEST PUSH2 0x259 PUSH2 0x3A5 CALLDATASIZE PUSH1 0x4 PUSH2 0x1663 JUMP JUMPDEST PUSH1 0x1 PUSH1 0x1 PUSH1 0xA0 SHL SUB AND PUSH1 0x0 SWAP1 DUP2 MSTORE PUSH1 0x3 PUSH1 0x20 MSTORE PUSH1 0x40 SWAP1 KECCAK256 SLOAD PUSH1 0xFF AND SWAP1 JUMP JUMPDEST PUSH2 0x234 PUSH2 0xFA7 JUMP JUMPDEST PUSH2 0x234 PUSH2 0x3D9 CALLDATASIZE PUSH1 0x4 PUSH2 0x1663 JUMP JUMPDEST PUSH2 0xFB7 JUMP JUMPDEST PUSH2 0x234 PUSH2 0x10A6 JUMP JUMPDEST PUSH2 0x234 PUSH2 0x3F4 CALLDATASIZE PUSH1 0x4 PUSH2 0x1663 JUMP JUMPDEST PUSH2 0x1326 JUMP JUMPDEST PUSH2 0x401 PUSH2 0x1361 JUMP JUMPDEST PUSH2 0x409 PUSH2 0x138E JUMP JUMPDEST JUMP JUMPDEST PUSH2 0x413 PUSH2 0x1361 JUMP JUMPDEST DUP1 PUSH1 0x0 SUB PUSH2 0x479 JUMPI PUSH1 0x40 MLOAD PUSH3 0x461BCD PUSH1 0xE5 SHL DUP2 MSTORE PUSH1 0x20 PUSH1 0x4 DUP3 ADD MSTORE PUSH1 0x28 PUSH1 0x24 DUP3 ADD MSTORE PUSH32 0x5A65726F206E756D626572206F6620746172676574207061727469636970616E PUSH1 0x44 DUP3 ADD MSTORE PUSH8 0x3A399033B4BB32B7 PUSH1 0xC1 SHL PUSH1 0x64 DUP3 ADD MSTORE PUSH1 0x84 ADD JUMPDEST PUSH1 0x40 MLOAD DUP1 SWAP2 SUB SWAP1 REVERT JUMPDEST PUSH1 0x7 DUP1 SLOAD SWAP1 DUP3 SWAP1 SSTORE PUSH1 0x40 DUP1 MLOAD DUP3 DUP2 MSTORE PUSH1 0x20 DUP2 ADD DUP5 SWAP1 MSTORE DUP4 SWAP2 PUSH32 0x2E31E8893A04CE5258044D342D7658948A6AC9710D97E32462AB75F131AE11EF SWAP2 ADD JUMPDEST PUSH1 0x40 MLOAD DUP1 SWAP2 SUB SWAP1 LOG1 POP POP POP JUMP JUMPDEST PUSH2 0x4CA PUSH2 0x1361 JUMP JUMPDEST DUP1 PUSH1 0x0 SUB PUSH2 0x51A JUMPI PUSH1 0x40 MLOAD PUSH3 0x461BCD PUSH1 0xE5 SHL DUP2 MSTORE PUSH1 0x20 PUSH1 0x4 DUP3 ADD MSTORE PUSH1 0x18 PUSH1 0x24 DUP3 ADD MSTORE PUSH32 0x5A65726F2072657761726420616D6F756E7420676976656E0000000000000000 PUSH1 0x44 DUP3 ADD MSTORE PUSH1 0x64 ADD PUSH2 0x470 JUMP JUMPDEST PUSH1 0x6 DUP1 SLOAD SWAP1 DUP3 SWAP1 SSTORE PUSH1 0x40 DUP1 MLOAD DUP3 DUP2 MSTORE PUSH1 0x20 DUP2 ADD DUP5 SWAP1 MSTORE DUP4 SWAP2 PUSH32 0xF0D37C3AE852021AC329281F604B658691CBFA6B9E9C22909F06B64A8CE87C94 SWAP2 ADD PUSH2 0x4B5 JUMP JUMPDEST PUSH2 0x562 PUSH2 0x1361 JUMP JUMPDEST PUSH2 0x409 PUSH1 0x0 PUSH2 0x13E0 JUMP JUMPDEST PUSH2 0x574 PUSH2 0x1361 JUMP JUMPDEST DUP1 DUP1 PUSH2 0x592 JUMPI PUSH1 0x40 MLOAD PUSH3 0x461BCD PUSH1 0xE5 SHL DUP2 MSTORE PUSH1 0x4 ADD PUSH2 0x470 SWAP1 PUSH2 0x1748 JUMP JUMPDEST PUSH1 0x0 JUMPDEST DUP2 DUP2 LT ISZERO PUSH2 0x6CE JUMPI PUSH1 0x0 DUP5 DUP5 DUP4 DUP2 DUP2 LT PUSH2 0x5B1 JUMPI PUSH2 0x5B1 PUSH2 0x1775 JUMP JUMPDEST SWAP1 POP PUSH1 0x20 MUL ADD PUSH1 0x20 DUP2 ADD SWAP1 PUSH2 0x5C6 SWAP2 SWAP1 PUSH2 0x1663 JUMP JUMPDEST PUSH1 0x1 PUSH1 0x1 PUSH1 0xA0 SHL SUB AND SUB PUSH2 0x61C JUMPI PUSH1 0x40 MLOAD PUSH3 0x461BCD PUSH1 0xE5 SHL DUP2 MSTORE PUSH1 0x20 PUSH1 0x4 DUP3 ADD MSTORE PUSH1 0x1D PUSH1 0x24 DUP3 ADD MSTORE PUSH32 0x4F6E652F6D6F7265207A65726F2061646472657373657320676976656E000000 PUSH1 0x44 DUP3 ADD MSTORE PUSH1 0x64 ADD PUSH2 0x470 JUMP JUMPDEST PUSH1 0x3 PUSH1 0x0 DUP6 DUP6 DUP5 DUP2 DUP2 LT PUSH2 0x632 JUMPI PUSH2 0x632 PUSH2 0x1775 JUMP JUMPDEST SWAP1 POP PUSH1 0x20 MUL ADD PUSH1 0x20 DUP2 ADD SWAP1 PUSH2 0x647 SWAP2 SWAP1 PUSH2 0x1663 JUMP JUMPDEST PUSH1 0x1 PUSH1 0x1 PUSH1 0xA0 SHL SUB AND DUP2 MSTORE PUSH1 0x20 DUP2 ADD SWAP2 SWAP1 SWAP2 MSTORE PUSH1 0x40 ADD PUSH1 0x0 KECCAK256 SLOAD PUSH1 0xFF AND ISZERO PUSH2 0x6C6 JUMPI PUSH1 0x40 MLOAD PUSH3 0x461BCD PUSH1 0xE5 SHL DUP2 MSTORE PUSH1 0x20 PUSH1 0x4 DUP3 ADD MSTORE PUSH1 0x2C PUSH1 0x24 DUP3 ADD MSTORE PUSH32 0x4F6E652F6D6F726520676976656E2061646472657373657320616C7265616479 PUSH1 0x44 DUP3 ADD MSTORE PUSH12 0x81DDA1A5D195B1A5CDD1959 PUSH1 0xA2 SHL PUSH1 0x64 DUP3 ADD MSTORE PUSH1 0x84 ADD PUSH2 0x470 JUMP JUMPDEST PUSH1 0x1 ADD PUSH2 0x595 JUMP JUMPDEST POP PUSH1 0x0 JUMPDEST DUP2 DUP2 LT ISZERO PUSH2 0x741 JUMPI PUSH1 0x1 PUSH1 0x3 PUSH1 0x0 DUP7 DUP7 DUP6 DUP2 DUP2 LT PUSH2 0x6F2 JUMPI PUSH2 0x6F2 PUSH2 0x1775 JUMP JUMPDEST SWAP1 POP PUSH1 0x20 MUL ADD PUSH1 0x20 DUP2 ADD SWAP1 PUSH2 0x707 SWAP2 SWAP1 PUSH2 0x1663 JUMP JUMPDEST PUSH1 0x1 PUSH1 0x1 PUSH1 0xA0 SHL SUB AND DUP2 MSTORE PUSH1 0x20 DUP2 ADD SWAP2 SWAP1 SWAP2 MSTORE PUSH1 0x40 ADD PUSH1 0x0 KECCAK256 DUP1 SLOAD PUSH1 0xFF NOT AND SWAP2 ISZERO ISZERO SWAP2 SWAP1 SWAP2 OR SWAP1 SSTORE PUSH1 0x9 DUP1 SLOAD PUSH1 0x1 SWAP1 DUP2 ADD SWAP1 SWAP2 SSTORE ADD PUSH2 0x6D2 JUMP JUMPDEST POP PUSH32 0xCD54969CCF4839851C974F9E65E16EB0B2B47DDB55BC4F3B0951AAFA2535F552 DUP4 DUP4 PUSH1 0x40 MLOAD PUSH2 0x4B5 SWAP3 SWAP2 SWAP1 PUSH2 0x178B JUMP JUMPDEST PUSH2 0x77B PUSH2 0x1361 JUMP JUMPDEST DUP1 DUP1 PUSH2 0x799 JUMPI PUSH1 0x40 MLOAD PUSH3 0x461BCD PUSH1 0xE5 SHL DUP2 MSTORE PUSH1 0x4 ADD PUSH2 0x470 SWAP1 PUSH2 0x1748 JUMP JUMPDEST PUSH1 0x0 JUMPDEST DUP2 DUP2 LT ISZERO PUSH2 0x8D4 JUMPI PUSH1 0x0 DUP5 DUP5 DUP4 DUP2 DUP2 LT PUSH2 0x7B8 JUMPI PUSH2 0x7B8 PUSH2 0x1775 JUMP JUMPDEST SWAP1 POP PUSH1 0x20 MUL ADD PUSH1 0x20 DUP2 ADD SWAP1 PUSH2 0x7CD SWAP2 SWAP1 PUSH2 0x1663 JUMP JUMPDEST PUSH1 0x1 PUSH1 0x1 PUSH1 0xA0 SHL SUB AND SUB PUSH2 0x823 JUMPI PUSH1 0x40 MLOAD PUSH3 0x461BCD PUSH1 0xE5 SHL DUP2 MSTORE PUSH1 0x20 PUSH1 0x4 DUP3 ADD MSTORE PUSH1 0x1D PUSH1 0x24 DUP3 ADD MSTORE PUSH32 0x4F6E652F6D6F7265207A65726F2061646472657373657320676976656E000000 PUSH1 0x44 DUP3 ADD MSTORE PUSH1 0x64 ADD PUSH2 0x470 JUMP JUMPDEST PUSH1 0x3 PUSH1 0x0 DUP6 DUP6 DUP5 DUP2 DUP2 LT PUSH2 0x839 JUMPI PUSH2 0x839 PUSH2 0x1775 JUMP JUMPDEST SWAP1 POP PUSH1 0x20 MUL ADD PUSH1 0x20 DUP2 ADD SWAP1 PUSH2 0x84E SWAP2 SWAP1 PUSH2 0x1663 JUMP JUMPDEST PUSH1 0x1 PUSH1 0x1 PUSH1 0xA0 SHL SUB AND DUP2 MSTORE PUSH1 0x20 DUP2 ADD SWAP2 SWAP1 SWAP2 MSTORE PUSH1 0x40 ADD PUSH1 0x0 KECCAK256 SLOAD PUSH1 0xFF AND PUSH2 0x8CC JUMPI PUSH1 0x40 MLOAD PUSH3 0x461BCD PUSH1 0xE5 SHL DUP2 MSTORE PUSH1 0x20 PUSH1 0x4 DUP3 ADD MSTORE PUSH1 0x2C PUSH1 0x24 DUP3 ADD MSTORE PUSH32 0x4F6E652F6D6F726520676976656E2061646472657373657320616C7265616479 PUSH1 0x44 DUP3 ADD MSTORE PUSH12 0x8189B1858DADB1A5CDD1959 PUSH1 0xA2 SHL PUSH1 0x64 DUP3 ADD MSTORE PUSH1 0x84 ADD PUSH2 0x470 JUMP JUMPDEST PUSH1 0x1 ADD PUSH2 0x79C JUMP JUMPDEST POP PUSH1 0x0 JUMPDEST DUP2 DUP2 LT ISZERO PUSH2 0x947 JUMPI PUSH1 0x0 PUSH1 0x3 PUSH1 0x0 DUP7 DUP7 DUP6 DUP2 DUP2 LT PUSH2 0x8F8 JUMPI PUSH2 0x8F8 PUSH2 0x1775 JUMP JUMPDEST SWAP1 POP PUSH1 0x20 MUL ADD PUSH1 0x20 DUP2 ADD SWAP1 PUSH2 0x90D SWAP2 SWAP1 PUSH2 0x1663 JUMP JUMPDEST PUSH1 0x1 PUSH1 0x1 PUSH1 0xA0 SHL SUB AND DUP2 MSTORE PUSH1 0x20 DUP2 ADD SWAP2 SWAP1 SWAP2 MSTORE PUSH1 0x40 ADD PUSH1 0x0 KECCAK256 DUP1 SLOAD PUSH1 0xFF NOT AND SWAP2 ISZERO ISZERO SWAP2 SWAP1 SWAP2 OR SWAP1 SSTORE PUSH1 0x9 DUP1 SLOAD PUSH1 0x0 NOT ADD SWAP1 SSTORE PUSH1 0x1 ADD PUSH2 0x8D8 JUMP JUMPDEST POP PUSH32 0xE29ACB3292BED043FAF01E16B1FCF8C38CF977E334155FA988DED4D254FC3424 DUP4 DUP4 PUSH1 0x40 MLOAD PUSH2 0x4B5 SWAP3 SWAP2 SWAP1 PUSH2 0x178B JUMP JUMPDEST PUSH2 0x981 PUSH2 0x1430 JUMP JUMPDEST PUSH2 0x989 PUSH2 0x1454 JUMP JUMPDEST PUSH1 0x6 SLOAD PUSH1 0x40 MLOAD PUSH4 0x70A08231 PUSH1 0xE0 SHL DUP2 MSTORE ADDRESS PUSH1 0x4 DUP3 ADD MSTORE PUSH32 0x0 PUSH1 0x1 PUSH1 0x1 PUSH1 0xA0 SHL SUB AND SWAP1 PUSH4 0x70A08231 SWAP1 PUSH1 0x24 ADD PUSH1 0x20 PUSH1 0x40 MLOAD DUP1 DUP4 SUB DUP2 DUP7 GAS STATICCALL ISZERO DUP1 ISZERO PUSH2 0x9F0 JUMPI RETURNDATASIZE PUSH1 0x0 DUP1 RETURNDATACOPY RETURNDATASIZE PUSH1 0x0 REVERT JUMPDEST POP POP POP POP PUSH1 0x40 MLOAD RETURNDATASIZE PUSH1 0x1F NOT PUSH1 0x1F DUP3 ADD AND DUP3 ADD DUP1 PUSH1 0x40 MSTORE POP DUP2 ADD SWAP1 PUSH2 0xA14 SWAP2 SWAP1 PUSH2 0x17D6 JUMP JUMPDEST LT ISZERO PUSH2 0xA6D JUMPI PUSH1 0x40 MLOAD PUSH3 0x461BCD PUSH1 0xE5 SHL DUP2 MSTORE PUSH1 0x20 PUSH1 0x4 DUP3 ADD MSTORE PUSH1 0x22 PUSH1 0x24 DUP3 ADD MSTORE PUSH32 0x436F6E747261637420646F6573206E6F74206861766520656E6F756768206355 PUSH1 0x44 DUP3 ADD MSTORE PUSH2 0x14D1 PUSH1 0xF2 SHL PUSH1 0x64 DUP3 ADD MSTORE PUSH1 0x84 ADD PUSH2 0x470 JUMP JUMPDEST PUSH1 0x7 SLOAD PUSH1 0x8 SLOAD LT PUSH2 0xACC JUMPI PUSH1 0x40 MLOAD PUSH3 0x461BCD PUSH1 0xE5 SHL DUP2 MSTORE PUSH1 0x20 PUSH1 0x4 DUP3 ADD MSTORE PUSH1 0x23 PUSH1 0x24 DUP3 ADD MSTORE PUSH32 0x416C6C207061727469636970616E74732068617665206265656E207265776172 PUSH1 0x44 DUP3 ADD MSTORE PUSH3 0x191959 PUSH1 0xEA SHL PUSH1 0x64 DUP3 ADD MSTORE PUSH1 0x84 ADD PUSH2 0x470 JUMP JUMPDEST DUP1 CALLER PUSH1 0x1 PUSH1 0x1 PUSH1 0xA0 SHL SUB DUP3 AND EQ PUSH2 0xB19 JUMPI PUSH1 0x40 MLOAD PUSH3 0x461BCD PUSH1 0xE5 SHL DUP2 MSTORE PUSH1 0x20 PUSH1 0x4 DUP3 ADD MSTORE PUSH1 0x11 PUSH1 0x24 DUP3 ADD MSTORE PUSH17 0x27B7363C903B30B634B21039B2B73232B9 PUSH1 0x79 SHL PUSH1 0x44 DUP3 ADD MSTORE PUSH1 0x64 ADD PUSH2 0x470 JUMP JUMPDEST PUSH1 0x1 PUSH1 0x1 PUSH1 0xA0 SHL SUB DUP3 AND PUSH1 0x0 SWAP1 DUP2 MSTORE PUSH1 0x3 PUSH1 0x20 MSTORE PUSH1 0x40 SWAP1 KECCAK256 SLOAD DUP3 SWAP1 PUSH1 0xFF AND PUSH2 0xB83 JUMPI PUSH1 0x40 MLOAD PUSH3 0x461BCD PUSH1 0xE5 SHL DUP2 MSTORE PUSH1 0x20 PUSH1 0x4 DUP3 ADD MSTORE PUSH1 0x18 PUSH1 0x24 DUP3 ADD MSTORE PUSH32 0x4F6E6C792077686974656C697374656420616464726573730000000000000000 PUSH1 0x44 DUP3 ADD MSTORE PUSH1 0x64 ADD PUSH2 0x470 JUMP JUMPDEST PUSH1 0x1 PUSH1 0x1 PUSH1 0xA0 SHL SUB DUP4 AND PUSH1 0x0 SWAP1 DUP2 MSTORE PUSH1 0x4 PUSH1 0x20 MSTORE PUSH1 0x40 SWAP1 KECCAK256 SLOAD DUP4 SWAP1 PUSH1 0xFF AND ISZERO PUSH2 0xBEE JUMPI PUSH1 0x40 MLOAD PUSH3 0x461BCD PUSH1 0xE5 SHL DUP2 MSTORE PUSH1 0x20 PUSH1 0x4 DUP3 ADD MSTORE PUSH1 0x1C PUSH1 0x24 DUP3 ADD MSTORE PUSH32 0x5061727469636970616E7420616C726561647920726577617264656400000000 PUSH1 0x44 DUP3 ADD MSTORE PUSH1 0x64 ADD PUSH2 0x470 JUMP JUMPDEST PUSH1 0x0 PUSH2 0xBF9 DUP6 PUSH2 0x147E JUMP JUMPDEST SWAP1 POP DUP1 ISZERO PUSH2 0xC0A JUMPI PUSH2 0xC0A DUP6 PUSH2 0x157A JUMP JUMPDEST POP POP POP POP PUSH2 0xC17 PUSH1 0x1 DUP1 SSTORE JUMP JUMPDEST POP JUMP JUMPDEST PUSH1 0x60 DUP2 PUSH1 0x0 DUP2 SWAP1 SUB PUSH2 0xC3E JUMPI PUSH1 0x40 MLOAD PUSH3 0x461BCD PUSH1 0xE5 SHL DUP2 MSTORE PUSH1 0x4 ADD PUSH2 0x470 SWAP1 PUSH2 0x1748 JUMP JUMPDEST PUSH1 0x0 DUP1 JUMPDEST DUP3 DUP2 LT ISZERO PUSH2 0xCAD JUMPI PUSH1 0x3 PUSH1 0x0 DUP8 DUP8 DUP5 DUP2 DUP2 LT PUSH2 0xC60 JUMPI PUSH2 0xC60 PUSH2 0x1775 JUMP JUMPDEST SWAP1 POP PUSH1 0x20 MUL ADD PUSH1 0x20 DUP2 ADD SWAP1 PUSH2 0xC75 SWAP2 SWAP1 PUSH2 0x1663 JUMP JUMPDEST PUSH1 0x1 PUSH1 0x1 PUSH1 0xA0 SHL SUB AND DUP2 MSTORE PUSH1 0x20 DUP2 ADD SWAP2 SWAP1 SWAP2 MSTORE PUSH1 0x40 ADD PUSH1 0x0 KECCAK256 SLOAD PUSH1 0xFF AND ISZERO PUSH2 0xCA5 JUMPI DUP2 PUSH2 0xCA1 DUP2 PUSH2 0x17EF JUMP JUMPDEST SWAP3 POP POP JUMPDEST PUSH1 0x1 ADD PUSH2 0xC42 JUMP JUMPDEST POP PUSH1 0x0 DUP2 PUSH8 0xFFFFFFFFFFFFFFFF DUP2 GT ISZERO PUSH2 0xCC9 JUMPI PUSH2 0xCC9 PUSH2 0x1816 JUMP JUMPDEST PUSH1 0x40 MLOAD SWAP1 DUP1 DUP3 MSTORE DUP1 PUSH1 0x20 MUL PUSH1 0x20 ADD DUP3 ADD PUSH1 0x40 MSTORE DUP1 ISZERO PUSH2 0xCF2 JUMPI DUP2 PUSH1 0x20 ADD PUSH1 0x20 DUP3 MUL DUP1 CALLDATASIZE DUP4 CALLDATACOPY ADD SWAP1 POP JUMPDEST POP SWAP1 POP PUSH1 0x0 DUP1 JUMPDEST DUP5 DUP2 LT ISZERO PUSH2 0xDBB JUMPI PUSH1 0x3 PUSH1 0x0 DUP10 DUP10 DUP5 DUP2 DUP2 LT PUSH2 0xD17 JUMPI PUSH2 0xD17 PUSH2 0x1775 JUMP JUMPDEST SWAP1 POP PUSH1 0x20 MUL ADD PUSH1 0x20 DUP2 ADD SWAP1 PUSH2 0xD2C SWAP2 SWAP1 PUSH2 0x1663 JUMP JUMPDEST PUSH1 0x1 PUSH1 0x1 PUSH1 0xA0 SHL SUB AND DUP2 MSTORE PUSH1 0x20 DUP2 ADD SWAP2 SWAP1 SWAP2 MSTORE PUSH1 0x40 ADD PUSH1 0x0 KECCAK256 SLOAD PUSH1 0xFF AND ISZERO PUSH2 0xDB3 JUMPI DUP8 DUP8 DUP3 DUP2 DUP2 LT PUSH2 0xD60 JUMPI PUSH2 0xD60 PUSH2 0x1775 JUMP JUMPDEST SWAP1 POP PUSH1 0x20 MUL ADD PUSH1 0x20 DUP2 ADD SWAP1 PUSH2 0xD75 SWAP2 SWAP1 PUSH2 0x1663 JUMP JUMPDEST DUP4 DUP4 PUSH2 0xD80 DUP2 PUSH2 0x17EF JUMP JUMPDEST SWAP5 POP DUP2 MLOAD DUP2 LT PUSH2 0xD92 JUMPI PUSH2 0xD92 PUSH2 0x1775 JUMP JUMPDEST PUSH1 0x20 MUL PUSH1 0x20 ADD ADD SWAP1 PUSH1 0x1 PUSH1 0x1 PUSH1 0xA0 SHL SUB AND SWAP1 DUP2 PUSH1 0x1 PUSH1 0x1 PUSH1 0xA0 SHL SUB AND DUP2 MSTORE POP POP JUMPDEST PUSH1 0x1 ADD PUSH2 0xCF9 JUMP JUMPDEST POP SWAP1 SWAP7 SWAP6 POP POP POP POP POP POP JUMP JUMPDEST PUSH2 0xDCF PUSH2 0x1361 JUMP JUMPDEST PUSH1 0x1 PUSH1 0x1 PUSH1 0xA0 SHL SUB DUP2 AND PUSH1 0x0 SWAP1 DUP2 MSTORE PUSH1 0x3 PUSH1 0x20 MSTORE PUSH1 0x40 SWAP1 KECCAK256 SLOAD DUP2 SWAP1 PUSH1 0xFF AND ISZERO PUSH2 0xE30 JUMPI PUSH1 0x40 MLOAD PUSH3 0x461BCD PUSH1 0xE5 SHL DUP2 MSTORE PUSH1 0x20 PUSH1 0x4 DUP3 ADD MSTORE PUSH1 0x13 PUSH1 0x24 DUP3 ADD MSTORE PUSH19 0x135D5CDD08189948189B1858DADB1A5CDD1959 PUSH1 0x6A SHL PUSH1 0x44 DUP3 ADD MSTORE PUSH1 0x64 ADD PUSH2 0x470 JUMP JUMPDEST PUSH1 0x1 PUSH1 0x1 PUSH1 0xA0 SHL SUB DUP3 AND PUSH2 0xE56 JUMPI PUSH1 0x40 MLOAD PUSH3 0x461BCD PUSH1 0xE5 SHL DUP2 MSTORE PUSH1 0x4 ADD PUSH2 0x470 SWAP1 PUSH2 0x182C JUMP JUMPDEST PUSH1 0x1 PUSH1 0x1 PUSH1 0xA0 SHL SUB DUP3 AND PUSH1 0x0 DUP2 DUP2 MSTORE PUSH1 0x3 PUSH1 0x20 SWAP1 DUP2 MSTORE PUSH1 0x40 SWAP2 DUP3 SWAP1 KECCAK256 DUP1 SLOAD PUSH1 0xFF NOT AND PUSH1 0x1 SWAP1 DUP2 OR SWAP1 SWAP2 SSTORE PUSH1 0x9 DUP1 SLOAD SWAP1 SWAP2 ADD SWAP1 SSTORE SWAP1 MLOAD SWAP2 DUP3 MSTORE PUSH32 0xC1BF09E09093691BDE88793790B0AF49AE99CC6C301523675A439AA76A084F18 SWAP2 ADD JUMPDEST PUSH1 0x40 MLOAD DUP1 SWAP2 SUB SWAP1 LOG1 POP POP JUMP JUMPDEST PUSH2 0xEC6 PUSH2 0x1361 JUMP JUMPDEST PUSH1 0x1 PUSH1 0x1 PUSH1 0xA0 SHL SUB DUP2 AND PUSH1 0x0 SWAP1 DUP2 MSTORE PUSH1 0x3 PUSH1 0x20 MSTORE PUSH1 0x40 SWAP1 KECCAK256 SLOAD DUP2 SWAP1 PUSH1 0xFF AND PUSH2 0xF26 JUMPI PUSH1 0x40 MLOAD PUSH3 0x461BCD PUSH1 0xE5 SHL DUP2 MSTORE PUSH1 0x20 PUSH1 0x4 DUP3 ADD MSTORE PUSH1 0x13 PUSH1 0x24 DUP3 ADD MSTORE PUSH19 0x135D5CDD081899481DDA1A5D195B1A5CDD1959 PUSH1 0x6A SHL PUSH1 0x44 DUP3 ADD MSTORE PUSH1 0x64 ADD PUSH2 0x470 JUMP JUMPDEST PUSH1 0x1 PUSH1 0x1 PUSH1 0xA0 SHL SUB DUP3 AND PUSH2 0xF4C JUMPI PUSH1 0x40 MLOAD PUSH3 0x461BCD PUSH1 0xE5 SHL DUP2 MSTORE PUSH1 0x4 ADD PUSH2 0x470 SWAP1 PUSH2 0x182C JUMP JUMPDEST PUSH1 0x1 PUSH1 0x1 PUSH1 0xA0 SHL SUB DUP3 AND PUSH1 0x0 DUP2 DUP2 MSTORE PUSH1 0x3 PUSH1 0x20 SWAP1 DUP2 MSTORE PUSH1 0x40 SWAP2 DUP3 SWAP1 KECCAK256 DUP1 SLOAD PUSH1 0xFF NOT AND SWAP1 SSTORE PUSH1 0x9 DUP1 SLOAD PUSH1 0x0 NOT ADD SWAP1 SSTORE SWAP1 MLOAD SWAP2 DUP3 MSTORE PUSH32 0x4C4C57D58B398C7BEEAD9E49305D0926EA8FD1E7E895959B09968B3384C385DE SWAP2 ADD PUSH2 0xEB2 JUMP JUMPDEST PUSH2 0xFAF PUSH2 0x1361 JUMP JUMPDEST PUSH2 0x409 PUSH2 0x15CE JUMP JUMPDEST PUSH2 0xFBF PUSH2 0x1361 JUMP JUMPDEST PUSH1 0x1 PUSH1 0x1 PUSH1 0xA0 SHL SUB DUP2 AND PUSH1 0x0 SWAP1 DUP2 MSTORE PUSH1 0x3 PUSH1 0x20 MSTORE PUSH1 0x40 SWAP1 KECCAK256 SLOAD DUP2 SWAP1 PUSH1 0xFF AND ISZERO PUSH2 0x1020 JUMPI PUSH1 0x40 MLOAD PUSH3 0x461BCD PUSH1 0xE5 SHL DUP2 MSTORE PUSH1 0x20 PUSH1 0x4 DUP3 ADD MSTORE PUSH1 0x13 PUSH1 0x24 DUP3 ADD MSTORE PUSH19 0x135D5CDD08189948189B1858DADB1A5CDD1959 PUSH1 0x6A SHL PUSH1 0x44 DUP3 ADD MSTORE PUSH1 0x64 ADD PUSH2 0x470 JUMP JUMPDEST PUSH1 0x1 PUSH1 0x1 PUSH1 0xA0 SHL SUB DUP3 AND PUSH2 0x1046 JUMPI PUSH1 0x40 MLOAD PUSH3 0x461BCD PUSH1 0xE5 SHL DUP2 MSTORE PUSH1 0x4 ADD PUSH2 0x470 SWAP1 PUSH2 0x182C JUMP JUMPDEST PUSH1 0x1 PUSH1 0x1 PUSH1 0xA0 SHL SUB DUP3 AND PUSH1 0x0 DUP2 DUP2 MSTORE PUSH1 0x5 PUSH1 0x20 SWAP1 DUP2 MSTORE PUSH1 0x40 SWAP2 DUP3 SWAP1 KECCAK256 DUP1 SLOAD PUSH1 0xFF NOT AND PUSH1 0x1 SWAP1 DUP2 OR SWAP1 SWAP2 SSTORE PUSH1 0xA DUP1 SLOAD SWAP1 SWAP2 ADD SWAP1 SSTORE SWAP1 MLOAD SWAP2 DUP3 MSTORE PUSH32 0xC4EC7A2DC5E72D17666A15570E438638BFC023A7A091DF162B669C37198BACB2 SWAP2 ADD PUSH2 0xEB2 JUMP JUMPDEST PUSH2 0x10AE PUSH2 0x1361 JUMP JUMPDEST PUSH2 0x10B6 PUSH2 0x1430 JUMP JUMPDEST PUSH1 0x40 MLOAD PUSH4 0x70A08231 PUSH1 0xE0 SHL DUP2 MSTORE ADDRESS PUSH1 0x4 DUP3 ADD MSTORE PUSH1 0x0 SWAP1 PUSH32 0x0 PUSH1 0x1 PUSH1 0x1 PUSH1 0xA0 SHL SUB AND SWAP1 PUSH4 0x70A08231 SWAP1 PUSH1 0x24 ADD PUSH1 0x20 PUSH1 0x40 MLOAD DUP1 DUP4 SUB DUP2 DUP7 GAS STATICCALL ISZERO DUP1 ISZERO PUSH2 0x111D JUMPI RETURNDATASIZE PUSH1 0x0 DUP1 RETURNDATACOPY RETURNDATASIZE PUSH1 0x0 REVERT JUMPDEST POP POP POP POP PUSH1 0x40 MLOAD RETURNDATASIZE PUSH1 0x1F NOT PUSH1 0x1F DUP3 ADD AND DUP3 ADD DUP1 PUSH1 0x40 MSTORE POP DUP2 ADD SWAP1 PUSH2 0x1141 SWAP2 SWAP1 PUSH2 0x17D6 JUMP JUMPDEST GT PUSH2 0x118E JUMPI PUSH1 0x40 MLOAD PUSH3 0x461BCD PUSH1 0xE5 SHL DUP2 MSTORE PUSH1 0x20 PUSH1 0x4 DUP3 ADD MSTORE PUSH1 0x1F PUSH1 0x24 DUP3 ADD MSTORE PUSH32 0x436F6E747261637420646F6573206E6F74206861766520616E79206355534400 PUSH1 0x44 DUP3 ADD MSTORE PUSH1 0x64 ADD PUSH2 0x470 JUMP JUMPDEST PUSH1 0x40 MLOAD PUSH4 0x70A08231 PUSH1 0xE0 SHL DUP2 MSTORE ADDRESS PUSH1 0x4 DUP3 ADD MSTORE PUSH1 0x0 SWAP1 PUSH32 0x0 PUSH1 0x1 PUSH1 0x1 PUSH1 0xA0 SHL SUB AND SWAP1 PUSH4 0x70A08231 SWAP1 PUSH1 0x24 ADD PUSH1 0x20 PUSH1 0x40 MLOAD DUP1 DUP4 SUB DUP2 DUP7 GAS STATICCALL ISZERO DUP1 ISZERO PUSH2 0x11F5 JUMPI RETURNDATASIZE PUSH1 0x0 DUP1 RETURNDATACOPY RETURNDATASIZE PUSH1 0x0 REVERT JUMPDEST POP POP POP POP PUSH1 0x40 MLOAD RETURNDATASIZE PUSH1 0x1F NOT PUSH1 0x1F DUP3 ADD AND DUP3 ADD DUP1 PUSH1 0x40 MSTORE POP DUP2 ADD SWAP1 PUSH2 0x1219 SWAP2 SWAP1 PUSH2 0x17D6 JUMP JUMPDEST SWAP1 POP PUSH32 0x0 PUSH1 0x1 PUSH1 0x1 PUSH1 0xA0 SHL SUB AND PUSH4 0xA9059CBB PUSH2 0x125C PUSH1 0x0 SLOAD PUSH1 0x1 PUSH1 0x1 PUSH1 0xA0 SHL SUB AND SWAP1 JUMP JUMPDEST PUSH1 0x40 MLOAD PUSH1 0x1 PUSH1 0x1 PUSH1 0xE0 SHL SUB NOT PUSH1 0xE0 DUP5 SWAP1 SHL AND DUP2 MSTORE PUSH1 0x1 PUSH1 0x1 PUSH1 0xA0 SHL SUB SWAP1 SWAP2 AND PUSH1 0x4 DUP3 ADD MSTORE PUSH1 0x24 DUP2 ADD DUP5 SWAP1 MSTORE PUSH1 0x44 ADD PUSH1 0x20 PUSH1 0x40 MLOAD DUP1 DUP4 SUB DUP2 PUSH1 0x0 DUP8 GAS CALL ISZERO DUP1 ISZERO PUSH2 0x12A9 JUMPI RETURNDATASIZE PUSH1 0x0 DUP1 RETURNDATACOPY RETURNDATASIZE PUSH1 0x0 REVERT JUMPDEST POP POP POP POP PUSH1 0x40 MLOAD RETURNDATASIZE PUSH1 0x1F NOT PUSH1 0x1F DUP3 ADD AND DUP3 ADD DUP1 PUSH1 0x40 MSTORE POP DUP2 ADD SWAP1 PUSH2 0x12CD SWAP2 SWAP1 PUSH2 0x1859 JUMP JUMPDEST POP PUSH32 0x2036B9B38B69A2FA490EE702733A29CD2550ACCC20BC96E786CB9BEEDC779097 PUSH2 0x1301 PUSH1 0x0 SLOAD PUSH1 0x1 PUSH1 0x1 PUSH1 0xA0 SHL SUB AND SWAP1 JUMP JUMPDEST PUSH1 0x40 DUP1 MLOAD PUSH1 0x1 PUSH1 0x1 PUSH1 0xA0 SHL SUB SWAP1 SWAP3 AND DUP3 MSTORE PUSH1 0x20 DUP3 ADD DUP5 SWAP1 MSTORE ADD JUMPDEST PUSH1 0x40 MLOAD DUP1 SWAP2 SUB SWAP1 LOG1 POP JUMP JUMPDEST PUSH2 0x132E PUSH2 0x1361 JUMP JUMPDEST PUSH1 0x1 PUSH1 0x1 PUSH1 0xA0 SHL SUB DUP2 AND PUSH2 0x1358 JUMPI PUSH1 0x40 MLOAD PUSH4 0x1E4FBDF7 PUSH1 0xE0 SHL DUP2 MSTORE PUSH1 0x0 PUSH1 0x4 DUP3 ADD MSTORE PUSH1 0x24 ADD PUSH2 0x470 JUMP JUMPDEST PUSH2 0xC17 DUP2 PUSH2 0x13E0 JUMP JUMPDEST PUSH1 0x0 SLOAD PUSH1 0x1 PUSH1 0x1 PUSH1 0xA0 SHL SUB AND CALLER EQ PUSH2 0x409 JUMPI PUSH1 0x40 MLOAD PUSH4 0x118CDAA7 PUSH1 0xE0 SHL DUP2 MSTORE CALLER PUSH1 0x4 DUP3 ADD MSTORE PUSH1 0x24 ADD PUSH2 0x470 JUMP JUMPDEST PUSH2 0x1396 PUSH2 0x160B JUMP JUMPDEST PUSH1 0x2 DUP1 SLOAD PUSH1 0xFF NOT AND SWAP1 SSTORE PUSH32 0x5DB9EE0A495BF2E6FF9C91A7834C1BA4FDD244A5E8AA4E537BD38AEAE4B073AA CALLER JUMPDEST PUSH1 0x40 MLOAD PUSH1 0x1 PUSH1 0x1 PUSH1 0xA0 SHL SUB SWAP1 SWAP2 AND DUP2 MSTORE PUSH1 0x20 ADD PUSH1 0x40 MLOAD DUP1 SWAP2 SUB SWAP1 LOG1 JUMP JUMPDEST PUSH1 0x0 DUP1 SLOAD PUSH1 0x1 PUSH1 0x1 PUSH1 0xA0 SHL SUB DUP4 DUP2 AND PUSH1 0x1 PUSH1 0x1 PUSH1 0xA0 SHL SUB NOT DUP4 AND DUP2 OR DUP5 SSTORE PUSH1 0x40 MLOAD SWAP2 SWAP1 SWAP3 AND SWAP3 DUP4 SWAP2 PUSH32 0x8BE0079C531659141344CD1FD0A4F28419497F9722A3DAAFE3B4186F6B6457E0 SWAP2 SWAP1 LOG3 POP POP JUMP JUMPDEST PUSH1 0x2 SLOAD PUSH1 0xFF AND ISZERO PUSH2 0x409 JUMPI PUSH1 0x40 MLOAD PUSH4 0xD93C0665 PUSH1 0xE0 SHL DUP2 MSTORE PUSH1 0x4 ADD PUSH1 0x40 MLOAD DUP1 SWAP2 SUB SWAP1 REVERT JUMPDEST PUSH1 0x2 PUSH1 0x1 SLOAD SUB PUSH2 0x1477 JUMPI PUSH1 0x40 MLOAD PUSH4 0x3EE5AEB5 PUSH1 0xE0 SHL DUP2 MSTORE PUSH1 0x4 ADD PUSH1 0x40 MLOAD DUP1 SWAP2 SUB SWAP1 REVERT JUMPDEST PUSH1 0x2 PUSH1 0x1 SSTORE JUMP JUMPDEST PUSH1 0x6 SLOAD PUSH1 0x40 MLOAD PUSH4 0xA9059CBB PUSH1 0xE0 SHL DUP2 MSTORE PUSH1 0x1 PUSH1 0x1 PUSH1 0xA0 SHL SUB DUP4 DUP2 AND PUSH1 0x4 DUP4 ADD MSTORE PUSH1 0x24 DUP3 ADD SWAP3 SWAP1 SWAP3 MSTORE PUSH1 0x0 SWAP2 DUP3 SWAP2 PUSH32 0x0 SWAP1 SWAP2 AND SWAP1 PUSH4 0xA9059CBB SWAP1 PUSH1 0x44 ADD PUSH1 0x20 PUSH1 0x40 MLOAD DUP1 DUP4 SUB DUP2 PUSH1 0x0 DUP8 GAS CALL ISZERO DUP1 ISZERO PUSH2 0x14F8 JUMPI RETURNDATASIZE PUSH1 0x0 DUP1 RETURNDATACOPY RETURNDATASIZE PUSH1 0x0 REVERT JUMPDEST POP POP POP POP PUSH1 0x40 MLOAD RETURNDATASIZE PUSH1 0x1F NOT PUSH1 0x1F DUP3 ADD AND DUP3 ADD DUP1 PUSH1 0x40 MSTORE POP DUP2 ADD SWAP1 PUSH2 0x151C SWAP2 SWAP1 PUSH2 0x1859 JUMP JUMPDEST SWAP1 POP DUP1 ISZERO PUSH2 0x1574 JUMPI PUSH1 0x8 DUP1 SLOAD PUSH1 0x1 ADD SWAP1 SSTORE PUSH1 0x6 SLOAD PUSH1 0x40 DUP1 MLOAD PUSH1 0x1 PUSH1 0x1 PUSH1 0xA0 SHL SUB DUP7 AND DUP2 MSTORE PUSH1 0x20 DUP2 ADD SWAP3 SWAP1 SWAP3 MSTORE PUSH32 0x8934D7A9692E763E356FD30D84CA5F61A737B35C5CCD5D31D4F140310267B73E SWAP2 ADD PUSH1 0x40 MLOAD DUP1 SWAP2 SUB SWAP1 LOG1 JUMPDEST SWAP3 SWAP2 POP POP JUMP JUMPDEST PUSH1 0x1 PUSH1 0x1 PUSH1 0xA0 SHL SUB DUP2 AND PUSH1 0x0 DUP2 DUP2 MSTORE PUSH1 0x4 PUSH1 0x20 SWAP1 DUP2 MSTORE PUSH1 0x40 SWAP2 DUP3 SWAP1 KECCAK256 DUP1 SLOAD PUSH1 0xFF NOT AND PUSH1 0x1 OR SWAP1 SSTORE SWAP1 MLOAD SWAP2 DUP3 MSTORE PUSH32 0x654C9A027765E6FEB862F42D438E9F6948F9EE31113E379F0372B30EFC722943 SWAP2 ADD PUSH2 0x131B JUMP JUMPDEST PUSH2 0x15D6 PUSH2 0x1430 JUMP JUMPDEST PUSH1 0x2 DUP1 SLOAD PUSH1 0xFF NOT AND PUSH1 0x1 OR SWAP1 SSTORE PUSH32 0x62E78CEA01BEE320CD4E420270B5EA74000D11B0C9F74754EBDBFC544B05A258 PUSH2 0x13C3 CALLER SWAP1 JUMP JUMPDEST PUSH1 0x2 SLOAD PUSH1 0xFF AND PUSH2 0x409 JUMPI PUSH1 0x40 MLOAD PUSH4 0x8DFC202B PUSH1 0xE0 SHL DUP2 MSTORE PUSH1 0x4 ADD PUSH1 0x40 MLOAD DUP1 SWAP2 SUB SWAP1 REVERT JUMPDEST PUSH1 0x0 PUSH1 0x20 DUP3 DUP5 SUB SLT ISZERO PUSH2 0x1640 JUMPI PUSH1 0x0 DUP1 REVERT JUMPDEST POP CALLDATALOAD SWAP2 SWAP1 POP JUMP JUMPDEST DUP1 CALLDATALOAD PUSH1 0x1 PUSH1 0x1 PUSH1 0xA0 SHL SUB DUP2 AND DUP2 EQ PUSH2 0x165E JUMPI PUSH1 0x0 DUP1 REVERT JUMPDEST SWAP2 SWAP1 POP JUMP JUMPDEST PUSH1 0x0 PUSH1 0x20 DUP3 DUP5 SUB SLT ISZERO PUSH2 0x1675 JUMPI PUSH1 0x0 DUP1 REVERT JUMPDEST PUSH2 0x167E DUP3 PUSH2 0x1647 JUMP JUMPDEST SWAP4 SWAP3 POP POP POP JUMP JUMPDEST PUSH1 0x0 DUP1 PUSH1 0x20 DUP4 DUP6 SUB SLT ISZERO PUSH2 0x1698 JUMPI PUSH1 0x0 DUP1 REVERT JUMPDEST DUP3 CALLDATALOAD PUSH8 0xFFFFFFFFFFFFFFFF DUP2 GT ISZERO PUSH2 0x16AF JUMPI PUSH1 0x0 DUP1 REVERT JUMPDEST DUP4 ADD PUSH1 0x1F DUP2 ADD DUP6 SGT PUSH2 0x16C0 JUMPI PUSH1 0x0 DUP1 REVERT JUMPDEST DUP1 CALLDATALOAD PUSH8 0xFFFFFFFFFFFFFFFF DUP2 GT ISZERO PUSH2 0x16D7 JUMPI PUSH1 0x0 DUP1 REVERT JUMPDEST DUP6 PUSH1 0x20 DUP3 PUSH1 0x5 SHL DUP5 ADD ADD GT ISZERO PUSH2 0x16EC JUMPI PUSH1 0x0 DUP1 REVERT JUMPDEST PUSH1 0x20 SWAP2 SWAP1 SWAP2 ADD SWAP6 SWAP1 SWAP5 POP SWAP3 POP POP POP JUMP JUMPDEST PUSH1 0x20 DUP1 DUP3 MSTORE DUP3 MLOAD DUP3 DUP3 ADD DUP2 SWAP1 MSTORE PUSH1 0x0 SWAP2 DUP5 ADD SWAP1 PUSH1 0x40 DUP5 ADD SWAP1 DUP4 JUMPDEST DUP2 DUP2 LT ISZERO PUSH2 0x173D JUMPI DUP4 MLOAD PUSH1 0x1 PUSH1 0x1 PUSH1 0xA0 SHL SUB AND DUP4 MSTORE PUSH1 0x20 SWAP4 DUP5 ADD SWAP4 SWAP1 SWAP3 ADD SWAP2 PUSH1 0x1 ADD PUSH2 0x1716 JUMP JUMPDEST POP SWAP1 SWAP6 SWAP5 POP POP POP POP POP JUMP JUMPDEST PUSH1 0x20 DUP1 DUP3 MSTORE PUSH1 0x13 SWAP1 DUP3 ADD MSTORE PUSH19 0x139BC81859191C995CDCD95CC81C185CDCD959 PUSH1 0x6A SHL PUSH1 0x40 DUP3 ADD MSTORE PUSH1 0x60 ADD SWAP1 JUMP JUMPDEST PUSH4 0x4E487B71 PUSH1 0xE0 SHL PUSH1 0x0 MSTORE PUSH1 0x32 PUSH1 0x4 MSTORE PUSH1 0x24 PUSH1 0x0 REVERT JUMPDEST PUSH1 0x20 DUP1 DUP3 MSTORE DUP2 ADD DUP3 SWAP1 MSTORE PUSH1 0x0 DUP4 PUSH1 0x40 DUP4 ADD DUP3 JUMPDEST DUP6 DUP2 LT ISZERO PUSH2 0x17CC JUMPI PUSH1 0x1 PUSH1 0x1 PUSH1 0xA0 SHL SUB PUSH2 0x17B7 DUP5 PUSH2 0x1647 JUMP JUMPDEST AND DUP3 MSTORE PUSH1 0x20 SWAP3 DUP4 ADD SWAP3 SWAP1 SWAP2 ADD SWAP1 PUSH1 0x1 ADD PUSH2 0x179E JUMP JUMPDEST POP SWAP6 SWAP5 POP POP POP POP POP JUMP JUMPDEST PUSH1 0x0 PUSH1 0x20 DUP3 DUP5 SUB SLT ISZERO PUSH2 0x17E8 JUMPI PUSH1 0x0 DUP1 REVERT JUMPDEST POP MLOAD SWAP2 SWAP1 POP JUMP JUMPDEST PUSH1 0x0 PUSH1 0x1 DUP3 ADD PUSH2 0x180F JUMPI PUSH4 0x4E487B71 PUSH1 0xE0 SHL PUSH1 0x0 MSTORE PUSH1 0x11 PUSH1 0x4 MSTORE PUSH1 0x24 PUSH1 0x0 REVERT JUMPDEST POP PUSH1 0x1 ADD SWAP1 JUMP JUMPDEST PUSH4 0x4E487B71 PUSH1 0xE0 SHL PUSH1 0x0 MSTORE PUSH1 0x41 PUSH1 0x4 MSTORE PUSH1 0x24 PUSH1 0x0 REVERT JUMPDEST PUSH1 0x20 DUP1 DUP3 MSTORE PUSH1 0x13 SWAP1 DUP3 ADD MSTORE PUSH19 0x16995C9BC81859191C995CDCC81C185CDCD959 PUSH1 0x6A SHL PUSH1 0x40 DUP3 ADD MSTORE PUSH1 0x60 ADD SWAP1 JUMP JUMPDEST PUSH1 0x0 PUSH1 0x20 DUP3 DUP5 SUB SLT ISZERO PUSH2 0x186B JUMPI PUSH1 0x0 DUP1 REVERT JUMPDEST DUP2 MLOAD DUP1 ISZERO ISZERO DUP2 EQ PUSH2 0x167E JUMPI PUSH1 0x0 DUP1 REVERT INVALID LOG2 PUSH5 0x6970667358 0x22 SLT KECCAK256 GASLIMIT SELFDESTRUCT MUL CODECOPY 0xA6 BLOBBASEFEE DUP1 0xBC 0xC8 PUSH3 0x824D60 SWAP16 SWAP7 BALANCE 0xAA LOG4 0xBA SELFDESTRUCT PUSH18 0x69F2B3EF73F60E0800C9AD64736F6C634300 ADDMOD SHR STOP CALLER "
				},
				"gasEstimates": {
					"creation": {
						"codeDepositCost": "1264200",
						"executionCost": "infinite",
						"totalCost": "infinite"
					},
					"external": {
						"blacklistMultipleWhitelistedUserAddresses(address[])": "infinite",
						"blacklistOneWhitelistedUserAddress(address)": "54389",
						"cUSD()": "infinite",
						"checkIfParticipantHasAlreadyClaimedReward(address)": "2639",
						"checkIfParticipantIsBlacklisted(address)": "2598",
						"checkIfParticipantIsWhitelisted(address)": "2638",
						"getNumberOfRewardedParticipants()": "2370",
						"getNumberOfWhitelistedParticipants()": "2372",
						"getRewardAmountPerParticipantInWei()": "2326",
						"getTargetNumberOfParticipants()": "2349",
						"getWhitelistedParticipantsFromRegisteredParticipants(address[])": "infinite",
						"numberOfScreenedParticipants()": "2352",
						"numberOfWhitelistedParticipants()": "2331",
						"owner()": "2399",
						"pauseSurvey()": "infinite",
						"paused()": "2405",
						"processRewardClaimByParticipant(address)": "infinite",
						"renounceOwnership()": "infinite",
						"rewardAmountPerParticipantInWei()": "2395",
						"screenParticipant(address)": "54406",
						"targetNumberOfParticipants()": "2395",
						"transferOwnership(address)": "28443",
						"unpauseSurvey()": "infinite",
						"updateRewardAmountPerParticipant(uint256)": "28027",
						"updateTargetNumberOfParticipants(uint256)": "28060",
						"whitelistMultipleUserAddresses(address[])": "infinite",
						"whitelistOneUserAddress(address)": "54374",
						"withdrawAllRewardFundsToResearcher()": "infinite"
					},
					"internal": {
						"markParticipantAsHavingClaimedReward(address)": "infinite",
						"rewardParticipant(address)": "infinite"
					}
				},
				"methodIdentifiers": {
					"blacklistMultipleWhitelistedUserAddresses(address[])": "9a0474e8",
					"blacklistOneWhitelistedUserAddress(address)": "d335993a",
					"cUSD()": "1fccf672",
					"checkIfParticipantHasAlreadyClaimedReward(address)": "6ff65c20",
					"checkIfParticipantIsBlacklisted(address)": "8c0a0966",
					"checkIfParticipantIsWhitelisted(address)": "d4bfbd41",
					"getNumberOfRewardedParticipants()": "741ae614",
					"getNumberOfWhitelistedParticipants()": "28a2355b",
					"getRewardAmountPerParticipantInWei()": "7069243c",
					"getTargetNumberOfParticipants()": "6fa1c59d",
					"getWhitelistedParticipantsFromRegisteredParticipants(address[])": "a0ca86a3",
					"numberOfScreenedParticipants()": "4074be40",
					"numberOfWhitelistedParticipants()": "047bc438",
					"owner()": "8da5cb5b",
					"pauseSurvey()": "e082fe2a",
					"paused()": "5c975abb",
					"processRewardClaimByParticipant(address)": "a0858343",
					"renounceOwnership()": "715018a6",
					"rewardAmountPerParticipantInWei()": "7a0abf08",
					"screenParticipant(address)": "ea1dd101",
					"targetNumberOfParticipants()": "a6a09811",
					"transferOwnership(address)": "f2fde38b",
					"unpauseSurvey()": "3960fc66",
					"updateRewardAmountPerParticipant(uint256)": "64bb632f",
					"updateTargetNumberOfParticipants(uint256)": "528780cc",
					"whitelistMultipleUserAddresses(address[])": "98b48493",
					"whitelistOneUserAddress(address)": "b0702913",
					"withdrawAllRewardFundsToResearcher()": "f22069df"
				}
			},
			"storageLayout": {
				"storage": [
					{
						"astId": 8,
						"contract": "smart-contract/hardhat/contracts/ClosedSurveyV3.sol:ClosedSurveyV3",
						"label": "_owner",
						"offset": 0,
						"slot": "0",
						"type": "t_address"
					},
					{
						"astId": 409,
						"contract": "smart-contract/hardhat/contracts/ClosedSurveyV3.sol:ClosedSurveyV3",
						"label": "_status",
						"offset": 0,
						"slot": "1",
						"type": "t_uint256"
					},
					{
						"astId": 290,
						"contract": "smart-contract/hardhat/contracts/ClosedSurveyV3.sol:ClosedSurveyV3",
						"label": "_paused",
						"offset": 0,
						"slot": "2",
						"type": "t_bool"
					},
					{
						"astId": 486,
						"contract": "smart-contract/hardhat/contracts/ClosedSurveyV3.sol:ClosedSurveyV3",
						"label": "participantsWhitelistedForSurvey",
						"offset": 0,
						"slot": "3",
						"type": "t_mapping(t_address,t_bool)"
					},
					{
						"astId": 490,
						"contract": "smart-contract/hardhat/contracts/ClosedSurveyV3.sol:ClosedSurveyV3",
						"label": "participantsWhoHaveClaimedRewards",
						"offset": 0,
						"slot": "4",
						"type": "t_mapping(t_address,t_bool)"
					},
					{
						"astId": 494,
						"contract": "smart-contract/hardhat/contracts/ClosedSurveyV3.sol:ClosedSurveyV3",
						"label": "usersScreenedForSurvey",
						"offset": 0,
						"slot": "5",
						"type": "t_mapping(t_address,t_bool)"
					},
					{
						"astId": 496,
						"contract": "smart-contract/hardhat/contracts/ClosedSurveyV3.sol:ClosedSurveyV3",
						"label": "rewardAmountPerParticipantInWei",
						"offset": 0,
						"slot": "6",
						"type": "t_uint256"
					},
					{
						"astId": 498,
						"contract": "smart-contract/hardhat/contracts/ClosedSurveyV3.sol:ClosedSurveyV3",
						"label": "targetNumberOfParticipants",
						"offset": 0,
						"slot": "7",
						"type": "t_uint256"
					},
					{
						"astId": 500,
						"contract": "smart-contract/hardhat/contracts/ClosedSurveyV3.sol:ClosedSurveyV3",
						"label": "numberOfRewardedParticipants",
						"offset": 0,
						"slot": "8",
						"type": "t_uint256"
					},
					{
						"astId": 502,
						"contract": "smart-contract/hardhat/contracts/ClosedSurveyV3.sol:ClosedSurveyV3",
						"label": "numberOfWhitelistedParticipants",
						"offset": 0,
						"slot": "9",
						"type": "t_uint256"
					},
					{
						"astId": 504,
						"contract": "smart-contract/hardhat/contracts/ClosedSurveyV3.sol:ClosedSurveyV3",
						"label": "numberOfScreenedParticipants",
						"offset": 0,
						"slot": "10",
						"type": "t_uint256"
					}
				],
				"types": {
					"t_address": {
						"encoding": "inplace",
						"label": "address",
						"numberOfBytes": "20"
					},
					"t_bool": {
						"encoding": "inplace",
						"label": "bool",
						"numberOfBytes": "1"
					},
					"t_mapping(t_address,t_bool)": {
						"encoding": "mapping",
						"key": "t_address",
						"label": "mapping(address => bool)",
						"numberOfBytes": "32",
						"value": "t_bool"
					},
					"t_uint256": {
						"encoding": "inplace",
						"label": "uint256",
						"numberOfBytes": "32"
					}
				}
			},
			"userdoc": {
				"kind": "user",
				"methods": {},
				"version": 1
			}
		}
	}
}