{
	"smart-contract/hardhat/contracts/ClosedSurveyV3.sol": {
		"ClosedSurveyV3": {
			"abi": [
				{
					"inputs": [
						{
							"internalType": "address",
							"name": "researcherWalletAddress",
							"type": "address"
						},
						{
							"internalType": "uint256",
							"name": "_rewardAmountPerParticipantInWei",
							"type": "uint256"
						},
						{
							"internalType": "uint256",
							"name": "_targetNumberOfParticipants",
							"type": "uint256"
						},
						{
							"internalType": "address",
							"name": "cUSDTokenAddress",
							"type": "address"
						}
					],
					"stateMutability": "nonpayable",
					"type": "constructor"
				},
				{
					"inputs": [],
					"name": "EnforcedPause",
					"type": "error"
				},
				{
					"inputs": [],
					"name": "ExpectedPause",
					"type": "error"
				},
				{
					"inputs": [
						{
							"internalType": "address",
							"name": "owner",
							"type": "address"
						}
					],
					"name": "OwnableInvalidOwner",
					"type": "error"
				},
				{
					"inputs": [
						{
							"internalType": "address",
							"name": "account",
							"type": "address"
						}
					],
					"name": "OwnableUnauthorizedAccount",
					"type": "error"
				},
				{
					"inputs": [],
					"name": "ReentrancyGuardReentrantCall",
					"type": "error"
				},
				{
					"anonymous": false,
					"inputs": [
						{
							"indexed": true,
							"internalType": "address",
							"name": "previousOwner",
							"type": "address"
						},
						{
							"indexed": true,
							"internalType": "address",
							"name": "newOwner",
							"type": "address"
						}
					],
					"name": "OwnershipTransferred",
					"type": "event"
				},
				{
					"anonymous": false,
					"inputs": [
						{
							"indexed": false,
							"internalType": "address",
							"name": "participantWalletAddress",
							"type": "address"
						}
					],
					"name": "ParticipantMarkedAsRewarded",
					"type": "event"
				},
				{
					"anonymous": false,
					"inputs": [
						{
							"indexed": false,
							"internalType": "address",
							"name": "participantWalletAddress",
							"type": "address"
						},
						{
							"indexed": false,
							"internalType": "uint256",
							"name": "rewardAmount",
							"type": "uint256"
						}
					],
					"name": "ParticipantRewarded",
					"type": "event"
				},
				{
					"anonymous": false,
					"inputs": [
						{
							"indexed": false,
							"internalType": "address",
							"name": "participantWalletAddress",
							"type": "address"
						}
					],
					"name": "ParticipantScreened",
					"type": "event"
				},
				{
					"anonymous": false,
					"inputs": [
						{
							"indexed": false,
							"internalType": "address",
							"name": "participantWalletAddress",
							"type": "address"
						}
					],
					"name": "ParticipantWhitelisted",
					"type": "event"
				},
				{
					"anonymous": false,
					"inputs": [
						{
							"indexed": false,
							"internalType": "address",
							"name": "account",
							"type": "address"
						}
					],
					"name": "Paused",
					"type": "event"
				},
				{
					"anonymous": false,
					"inputs": [
						{
							"indexed": false,
							"internalType": "uint256",
							"name": "oldcUSDRewardAmountPerParticipantInWei",
							"type": "uint256"
						},
						{
							"indexed": false,
							"internalType": "uint256",
							"name": "newcUSDRewardAmountPerParticipantInWei",
							"type": "uint256"
						}
					],
					"name": "RewardAmountUpdated",
					"type": "event"
				},
				{
					"anonymous": false,
					"inputs": [
						{
							"indexed": false,
							"internalType": "address",
							"name": "researcherWalletAddress",
							"type": "address"
						},
						{
							"indexed": false,
							"internalType": "uint256",
							"name": "rewardAmount",
							"type": "uint256"
						}
					],
					"name": "RewardFundsWithdrawn",
					"type": "event"
				},
				{
					"anonymous": false,
					"inputs": [
						{
							"indexed": false,
							"internalType": "uint256",
							"name": "oldTargetNumberOfParticipants",
							"type": "uint256"
						},
						{
							"indexed": false,
							"internalType": "uint256",
							"name": "newTargetNumberOfParticipants",
							"type": "uint256"
						}
					],
					"name": "TargetNumberOfParticipantsUpdated",
					"type": "event"
				},
				{
					"anonymous": false,
					"inputs": [
						{
							"indexed": false,
							"internalType": "address",
							"name": "account",
							"type": "address"
						}
					],
					"name": "Unpaused",
					"type": "event"
				},
				{
					"anonymous": false,
					"inputs": [
						{
							"indexed": false,
							"internalType": "address",
							"name": "participantWalletAddress",
							"type": "address"
						}
					],
					"name": "WhitelistedParticipantBlacklisted",
					"type": "event"
				},
				{
					"inputs": [
						{
							"internalType": "address",
							"name": "participantWalletAddress",
							"type": "address"
						}
					],
					"name": "blacklistWhitelistedParticipant",
					"outputs": [],
					"stateMutability": "nonpayable",
					"type": "function"
				},
				{
					"inputs": [],
					"name": "cUSD",
					"outputs": [
						{
							"internalType": "contract IERC20Metadata",
							"name": "",
							"type": "address"
						}
					],
					"stateMutability": "view",
					"type": "function"
				},
				{
					"inputs": [
						{
							"internalType": "address",
							"name": "participantWalletAddress",
							"type": "address"
						}
					],
					"name": "checkIfParticipantHasAlreadyClaimedReward",
					"outputs": [
						{
							"internalType": "bool",
							"name": "",
							"type": "bool"
						}
					],
					"stateMutability": "view",
					"type": "function"
				},
				{
					"inputs": [
						{
							"internalType": "address",
							"name": "participantWalletAddress",
							"type": "address"
						}
					],
					"name": "checkIfParticipantIsBlacklisted",
					"outputs": [
						{
							"internalType": "bool",
							"name": "",
							"type": "bool"
						}
					],
					"stateMutability": "view",
					"type": "function"
				},
				{
					"inputs": [
						{
							"internalType": "address",
							"name": "participantWalletAddress",
							"type": "address"
						}
					],
					"name": "checkIfParticipantIsWhitelisted",
					"outputs": [
						{
							"internalType": "bool",
							"name": "",
							"type": "bool"
						}
					],
					"stateMutability": "view",
					"type": "function"
				},
				{
					"inputs": [],
					"name": "getNumberOfRewardedParticipants",
					"outputs": [
						{
							"internalType": "uint256",
							"name": "",
							"type": "uint256"
						}
					],
					"stateMutability": "view",
					"type": "function"
				},
				{
					"inputs": [],
					"name": "getNumberOfWhitelistedParticipants",
					"outputs": [
						{
							"internalType": "uint256",
							"name": "",
							"type": "uint256"
						}
					],
					"stateMutability": "view",
					"type": "function"
				},
				{
					"inputs": [],
					"name": "getRewardAmountPerParticipantInWei",
					"outputs": [
						{
							"internalType": "uint256",
							"name": "",
							"type": "uint256"
						}
					],
					"stateMutability": "view",
					"type": "function"
				},
				{
					"inputs": [],
					"name": "getTargetNumberOfParticipants",
					"outputs": [
						{
							"internalType": "uint256",
							"name": "",
							"type": "uint256"
						}
					],
					"stateMutability": "view",
					"type": "function"
				},
				{
					"inputs": [
						{
							"internalType": "address[]",
							"name": "registeredAddresses",
							"type": "address[]"
						}
					],
					"name": "getWhitelistedParticipantsFromRegisteredParticipants",
					"outputs": [
						{
							"internalType": "address[]",
							"name": "",
							"type": "address[]"
						}
					],
					"stateMutability": "view",
					"type": "function"
				},
				{
					"inputs": [],
					"name": "numberOfScreenedParticipants",
					"outputs": [
						{
							"internalType": "uint256",
							"name": "",
							"type": "uint256"
						}
					],
					"stateMutability": "view",
					"type": "function"
				},
				{
					"inputs": [],
					"name": "numberOfWhitelistedParticipants",
					"outputs": [
						{
							"internalType": "uint256",
							"name": "",
							"type": "uint256"
						}
					],
					"stateMutability": "view",
					"type": "function"
				},
				{
					"inputs": [],
					"name": "owner",
					"outputs": [
						{
							"internalType": "address",
							"name": "",
							"type": "address"
						}
					],
					"stateMutability": "view",
					"type": "function"
				},
				{
					"inputs": [],
					"name": "pauseSurvey",
					"outputs": [],
					"stateMutability": "nonpayable",
					"type": "function"
				},
				{
					"inputs": [],
					"name": "paused",
					"outputs": [
						{
							"internalType": "bool",
							"name": "",
							"type": "bool"
						}
					],
					"stateMutability": "view",
					"type": "function"
				},
				{
					"inputs": [
						{
							"internalType": "address",
							"name": "walletAddress",
							"type": "address"
						}
					],
					"name": "processRewardClaimByParticipant",
					"outputs": [],
					"stateMutability": "nonpayable",
					"type": "function"
				},
				{
					"inputs": [],
					"name": "renounceOwnership",
					"outputs": [],
					"stateMutability": "nonpayable",
					"type": "function"
				},
				{
					"inputs": [],
					"name": "rewardAmountPerParticipantInWei",
					"outputs": [
						{
							"internalType": "uint256",
							"name": "",
							"type": "uint256"
						}
					],
					"stateMutability": "view",
					"type": "function"
				},
				{
					"inputs": [
						{
							"internalType": "address",
							"name": "participantWalletAddress",
							"type": "address"
						}
					],
					"name": "screenParticipant",
					"outputs": [],
					"stateMutability": "nonpayable",
					"type": "function"
				},
				{
					"inputs": [],
					"name": "targetNumberOfParticipants",
					"outputs": [
						{
							"internalType": "uint256",
							"name": "",
							"type": "uint256"
						}
					],
					"stateMutability": "view",
					"type": "function"
				},
				{
					"inputs": [
						{
							"internalType": "address",
							"name": "newOwner",
							"type": "address"
						}
					],
					"name": "transferOwnership",
					"outputs": [],
					"stateMutability": "nonpayable",
					"type": "function"
				},
				{
					"inputs": [],
					"name": "unpauseSurvey",
					"outputs": [],
					"stateMutability": "nonpayable",
					"type": "function"
				},
				{
					"inputs": [
						{
							"internalType": "uint256",
							"name": "_newRewardAmountPerParticipantInWei",
							"type": "uint256"
						}
					],
					"name": "updateRewardAmountPerParticipant",
					"outputs": [],
					"stateMutability": "nonpayable",
					"type": "function"
				},
				{
					"inputs": [
						{
							"internalType": "uint256",
							"name": "_newTargetNumberOfParticipants",
							"type": "uint256"
						}
					],
					"name": "updateTargetNumberOfParticipants",
					"outputs": [],
					"stateMutability": "nonpayable",
					"type": "function"
				},
				{
					"inputs": [
						{
							"internalType": "address",
							"name": "participantWalletAddress",
							"type": "address"
						}
					],
					"name": "whitelistParticipant",
					"outputs": [],
					"stateMutability": "nonpayable",
					"type": "function"
				},
				{
					"inputs": [],
					"name": "withdrawAllRewardFundsToResearcher",
					"outputs": [],
					"stateMutability": "nonpayable",
					"type": "function"
				}
			],
			"devdoc": {
				"errors": {
					"EnforcedPause()": [
						{
							"details": "The operation failed because the contract is paused."
						}
					],
					"ExpectedPause()": [
						{
							"details": "The operation failed because the contract is not paused."
						}
					],
					"OwnableInvalidOwner(address)": [
						{
							"details": "The owner is not a valid owner account. (eg. `address(0)`)"
						}
					],
					"OwnableUnauthorizedAccount(address)": [
						{
							"details": "The caller account is not authorized to perform an operation."
						}
					],
					"ReentrancyGuardReentrantCall()": [
						{
							"details": "Unauthorized reentrant call."
						}
					]
				},
				"events": {
					"Paused(address)": {
						"details": "Emitted when the pause is triggered by `account`."
					},
					"Unpaused(address)": {
						"details": "Emitted when the pause is lifted by `account`."
					}
				},
				"kind": "dev",
				"methods": {
					"owner()": {
						"details": "Returns the address of the current owner."
					},
					"paused()": {
						"details": "Returns true if the contract is paused, and false otherwise."
					},
					"renounceOwnership()": {
						"details": "Leaves the contract without owner. It will not be possible to call `onlyOwner` functions. Can only be called by the current owner. NOTE: Renouncing ownership will leave the contract without an owner, thereby disabling any functionality that is only available to the owner."
					},
					"transferOwnership(address)": {
						"details": "Transfers ownership of the contract to a new account (`newOwner`). Can only be called by the current owner."
					}
				},
				"version": 1
			},
			"evm": {
				"assembly": "    /* \"smart-contract/hardhat/contracts/ClosedSurveyV3.sol\":330:11524  contract ClosedSurveyV3 is Ownable, ReentrancyGuard, Pausable {... */\n  mstore(0x40, 0xa0)\n    /* \"smart-contract/hardhat/contracts/ClosedSurveyV3.sol\":3622:4517  constructor(... */\n  callvalue\n  dup1\n  iszero\n  tag_1\n  jumpi\n  0x00\n  dup1\n  revert\ntag_1:\n  pop\n  mload(0x40)\n  sub(codesize, bytecodeSize)\n  dup1\n  bytecodeSize\n  dup4\n  codecopy\n  dup2\n  add\n  0x40\n  dup2\n  swap1\n  mstore\n  tag_2\n  swap2\n  tag_3\n  jump\t// in\ntag_2:\n    /* \"smart-contract/hardhat/contracts/ClosedSurveyV3.sol\":3818:3841  researcherWalletAddress */\n  dup4\n  sub(shl(0xa0, 0x01), 0x01)\n    /* \"@openzeppelin/contracts/access/Ownable.sol\":1273:1299  initialOwner == address(0) */\n  dup2\n  and\n    /* \"@openzeppelin/contracts/access/Ownable.sol\":1269:1364  if (initialOwner == address(0)) {... */\n  tag_9\n  jumpi\n    /* \"@openzeppelin/contracts/access/Ownable.sol\":1322:1353  OwnableInvalidOwner(address(0)) */\n  mload(0x40)\n  shl(0xe0, 0x1e4fbdf7)\n  dup2\n  mstore\n    /* \"@openzeppelin/contracts/access/Ownable.sol\":1350:1351  0 */\n  0x00\n    /* \"@openzeppelin/contracts/access/Ownable.sol\":1322:1353  OwnableInvalidOwner(address(0)) */\n  0x04\n  dup3\n  add\n    /* \"#utility.yul\":861:912   */\n  mstore\n    /* \"#utility.yul\":834:852   */\n  0x24\n  add\n    /* \"@openzeppelin/contracts/access/Ownable.sol\":1322:1353  OwnableInvalidOwner(address(0)) */\ntag_10:\n  mload(0x40)\n  dup1\n  swap2\n  sub\n  swap1\n  revert\n    /* \"@openzeppelin/contracts/access/Ownable.sol\":1269:1364  if (initialOwner == address(0)) {... */\ntag_9:\n    /* \"@openzeppelin/contracts/access/Ownable.sol\":1373:1405  _transferOwnership(initialOwner) */\n  tag_12\n    /* \"@openzeppelin/contracts/access/Ownable.sol\":1392:1404  initialOwner */\n  dup2\n    /* \"@openzeppelin/contracts/access/Ownable.sol\":1373:1391  _transferOwnership */\n  tag_13\n    /* \"@openzeppelin/contracts/access/Ownable.sol\":1373:1405  _transferOwnership(initialOwner) */\n  jump\t// in\ntag_12:\n  pop\n    /* \"@openzeppelin/contracts/utils/ReentrancyGuard.sol\":1857:1858  1 */\n  0x01\n    /* \"@openzeppelin/contracts/utils/ReentrancyGuard.sol\":2061:2082  _status = NOT_ENTERED */\n  dup1\n  sstore\n    /* \"@openzeppelin/contracts/utils/Pausable.sol\":1231:1238  _paused */\n  0x02\n    /* \"@openzeppelin/contracts/utils/Pausable.sol\":1231:1246  _paused = false */\n  dup1\n  sload\n  not(0xff)\n  and\n  swap1\n  sstore\n  sub(shl(0xa0, 0x01), 0x01)\n    /* \"smart-contract/hardhat/contracts/ClosedSurveyV3.sol\":3874:3904  cUSDTokenAddress != address(0) */\n  dup2\n  and\n    /* \"smart-contract/hardhat/contracts/ClosedSurveyV3.sol\":3853:3969  require(... */\n  tag_17\n  jumpi\n  mload(0x40)\n  shl(0xe5, 0x461bcd)\n  dup2\n  mstore\n    /* \"#utility.yul\":1125:1127   */\n  0x20\n    /* \"smart-contract/hardhat/contracts/ClosedSurveyV3.sol\":3853:3969  require(... */\n  0x04\n  dup3\n  add\n    /* \"#utility.yul\":1107:1128   */\n  mstore\n    /* \"#utility.yul\":1164:1166   */\n  0x27\n    /* \"#utility.yul\":1144:1162   */\n  0x24\n  dup3\n  add\n    /* \"#utility.yul\":1137:1167   */\n  mstore\n    /* \"#utility.yul\":1203:1237   */\n  0x5a65726f206164647265737320676976656e20666f722063555344546f6b656e\n    /* \"#utility.yul\":1183:1201   */\n  0x44\n  dup3\n  add\n    /* \"#utility.yul\":1176:1238   */\n  mstore\n  shl(0xc8, 0x41646472657373)\n    /* \"#utility.yul\":1254:1272   */\n  0x64\n  dup3\n  add\n    /* \"#utility.yul\":1247:1284   */\n  mstore\n    /* \"#utility.yul\":1301:1320   */\n  0x84\n  add\n    /* \"smart-contract/hardhat/contracts/ClosedSurveyV3.sol\":3853:3969  require(... */\n  tag_10\n    /* \"#utility.yul\":923:1326   */\n  jump\n    /* \"smart-contract/hardhat/contracts/ClosedSurveyV3.sol\":3853:3969  require(... */\ntag_17:\n  sub(shl(0xa0, 0x01), 0x01)\n    /* \"smart-contract/hardhat/contracts/ClosedSurveyV3.sol\":4001:4038  researcherWalletAddress != address(0) */\n  dup5\n  and\n    /* \"smart-contract/hardhat/contracts/ClosedSurveyV3.sol\":3980:4110  require(... */\n  tag_20\n  jumpi\n  mload(0x40)\n  shl(0xe5, 0x461bcd)\n  dup2\n  mstore\n    /* \"#utility.yul\":1533:1535   */\n  0x20\n    /* \"smart-contract/hardhat/contracts/ClosedSurveyV3.sol\":3980:4110  require(... */\n  0x04\n  dup3\n  add\n    /* \"#utility.yul\":1515:1536   */\n  mstore\n    /* \"#utility.yul\":1572:1574   */\n  0x2e\n    /* \"#utility.yul\":1552:1570   */\n  0x24\n  dup3\n  add\n    /* \"#utility.yul\":1545:1575   */\n  mstore\n    /* \"#utility.yul\":1611:1645   */\n  0x5a65726f206164647265737320676976656e20666f7220726573656172636865\n    /* \"#utility.yul\":1591:1609   */\n  0x44\n  dup3\n  add\n    /* \"#utility.yul\":1584:1646   */\n  mstore\n  shl(0x90, 0x7257616c6c657441646472657373)\n    /* \"#utility.yul\":1662:1680   */\n  0x64\n  dup3\n  add\n    /* \"#utility.yul\":1655:1699   */\n  mstore\n    /* \"#utility.yul\":1716:1735   */\n  0x84\n  add\n    /* \"smart-contract/hardhat/contracts/ClosedSurveyV3.sol\":3980:4110  require(... */\n  tag_10\n    /* \"#utility.yul\":1331:1741   */\n  jump\n    /* \"smart-contract/hardhat/contracts/ClosedSurveyV3.sol\":3980:4110  require(... */\ntag_20:\n    /* \"smart-contract/hardhat/contracts/ClosedSurveyV3.sol\":4164:4165  0 */\n  0x00\n    /* \"smart-contract/hardhat/contracts/ClosedSurveyV3.sol\":4129:4161  _rewardAmountPerParticipantInWei */\n  dup4\n    /* \"smart-contract/hardhat/contracts/ClosedSurveyV3.sol\":4129:4165  _rewardAmountPerParticipantInWei > 0 */\n  gt\n    /* \"smart-contract/hardhat/contracts/ClosedSurveyV3.sol\":4121:4191  require(_rewardAmountPerParticipantInWei > 0, \"Invalid reward amount\") */\n  tag_23\n  jumpi\n  mload(0x40)\n  shl(0xe5, 0x461bcd)\n  dup2\n  mstore\n    /* \"#utility.yul\":1948:1950   */\n  0x20\n    /* \"smart-contract/hardhat/contracts/ClosedSurveyV3.sol\":4121:4191  require(_rewardAmountPerParticipantInWei > 0, \"Invalid reward amount\") */\n  0x04\n  dup3\n  add\n    /* \"#utility.yul\":1930:1951   */\n  mstore\n    /* \"#utility.yul\":1987:1989   */\n  0x15\n    /* \"#utility.yul\":1967:1985   */\n  0x24\n  dup3\n  add\n    /* \"#utility.yul\":1960:1990   */\n  mstore\n    /* \"#utility.yul\":2026:2049   */\n  0x496e76616c69642072657761726420616d6f756e740000000000000000000000\n    /* \"#utility.yul\":2006:2024   */\n  0x44\n  dup3\n  add\n    /* \"#utility.yul\":1999:2050   */\n  mstore\n    /* \"#utility.yul\":2067:2085   */\n  0x64\n  add\n    /* \"smart-contract/hardhat/contracts/ClosedSurveyV3.sol\":4121:4191  require(_rewardAmountPerParticipantInWei > 0, \"Invalid reward amount\") */\n  tag_10\n    /* \"#utility.yul\":1746:2091   */\n  jump\n    /* \"smart-contract/hardhat/contracts/ClosedSurveyV3.sol\":4121:4191  require(_rewardAmountPerParticipantInWei > 0, \"Invalid reward amount\") */\ntag_23:\n    /* \"smart-contract/hardhat/contracts/ClosedSurveyV3.sol\":4253:4254  0 */\n  0x00\n    /* \"smart-contract/hardhat/contracts/ClosedSurveyV3.sol\":4223:4250  _targetNumberOfParticipants */\n  dup3\n    /* \"smart-contract/hardhat/contracts/ClosedSurveyV3.sol\":4223:4254  _targetNumberOfParticipants > 0 */\n  gt\n    /* \"smart-contract/hardhat/contracts/ClosedSurveyV3.sol\":4202:4317  require(... */\n  tag_26\n  jumpi\n  mload(0x40)\n  shl(0xe5, 0x461bcd)\n  dup2\n  mstore\n    /* \"#utility.yul\":2298:2300   */\n  0x20\n    /* \"smart-contract/hardhat/contracts/ClosedSurveyV3.sol\":4202:4317  require(... */\n  0x04\n  dup3\n  add\n    /* \"#utility.yul\":2280:2301   */\n  mstore\n    /* \"#utility.yul\":2337:2339   */\n  0x25\n    /* \"#utility.yul\":2317:2335   */\n  0x24\n  dup3\n  add\n    /* \"#utility.yul\":2310:2340   */\n  mstore\n    /* \"#utility.yul\":2376:2410   */\n  0x496e76616c6964206e756d626572206f66207461726765742070617274696369\n    /* \"#utility.yul\":2356:2374   */\n  0x44\n  dup3\n  add\n    /* \"#utility.yul\":2349:2411   */\n  mstore\n  shl(0xd8, 0x70616e7473)\n    /* \"#utility.yul\":2427:2445   */\n  0x64\n  dup3\n  add\n    /* \"#utility.yul\":2420:2455   */\n  mstore\n    /* \"#utility.yul\":2472:2491   */\n  0x84\n  add\n    /* \"smart-contract/hardhat/contracts/ClosedSurveyV3.sol\":4202:4317  require(... */\n  tag_10\n    /* \"#utility.yul\":2096:2497   */\n  jump\n    /* \"smart-contract/hardhat/contracts/ClosedSurveyV3.sol\":4202:4317  require(... */\ntag_26:\n  sub(shl(0xa0, 0x01), 0x01)\n    /* \"smart-contract/hardhat/contracts/ClosedSurveyV3.sol\":4328:4367  cUSD = IERC20Metadata(cUSDTokenAddress) */\n  and\n  0x80\n  mstore\n    /* \"smart-contract/hardhat/contracts/ClosedSurveyV3.sol\":4378:4409  rewardAmountPerParticipantInWei */\n  0x06\n    /* \"smart-contract/hardhat/contracts/ClosedSurveyV3.sol\":4378:4444  rewardAmountPerParticipantInWei = _rewardAmountPerParticipantInWei */\n  swap2\n  swap1\n  swap2\n  sstore\n    /* \"smart-contract/hardhat/contracts/ClosedSurveyV3.sol\":4454:4480  targetNumberOfParticipants */\n  0x07\n    /* \"smart-contract/hardhat/contracts/ClosedSurveyV3.sol\":4454:4510  targetNumberOfParticipants = _targetNumberOfParticipants */\n  sstore\n  pop\n    /* \"smart-contract/hardhat/contracts/ClosedSurveyV3.sol\":330:11524  contract ClosedSurveyV3 is Ownable, ReentrancyGuard, Pausable {... */\n  jump(tag_32)\n    /* \"@openzeppelin/contracts/access/Ownable.sol\":2912:3099  function _transferOwnership(address newOwner) internal virtual {... */\ntag_13:\n    /* \"@openzeppelin/contracts/access/Ownable.sol\":2985:3001  address oldOwner */\n  0x00\n    /* \"@openzeppelin/contracts/access/Ownable.sol\":3004:3010  _owner */\n  dup1\n  sload\n  sub(shl(0xa0, 0x01), 0x01)\n    /* \"@openzeppelin/contracts/access/Ownable.sol\":3020:3037  _owner = newOwner */\n  dup4\n  dup2\n  and\n  not(sub(shl(0xa0, 0x01), 0x01))\n  dup4\n  and\n  dup2\n  or\n  dup5\n  sstore\n    /* \"@openzeppelin/contracts/access/Ownable.sol\":3052:3092  OwnershipTransferred(oldOwner, newOwner) */\n  mload(0x40)\n    /* \"@openzeppelin/contracts/access/Ownable.sol\":3004:3010  _owner */\n  swap2\n  swap1\n  swap3\n  and\n  swap3\n  dup4\n  swap2\n    /* \"@openzeppelin/contracts/access/Ownable.sol\":3052:3092  OwnershipTransferred(oldOwner, newOwner) */\n  0x8be0079c531659141344cd1fd0a4f28419497f9722a3daafe3b4186f6b6457e0\n  swap2\n    /* \"@openzeppelin/contracts/access/Ownable.sol\":2985:3001  address oldOwner */\n  swap1\n    /* \"@openzeppelin/contracts/access/Ownable.sol\":3052:3092  OwnershipTransferred(oldOwner, newOwner) */\n  log3\n    /* \"@openzeppelin/contracts/access/Ownable.sol\":2975:3099  {... */\n  pop\n    /* \"@openzeppelin/contracts/access/Ownable.sol\":2912:3099  function _transferOwnership(address newOwner) internal virtual {... */\n  pop\n  jump\t// out\n    /* \"#utility.yul\":14:191   */\ntag_31:\n    /* \"#utility.yul\":93:106   */\n  dup1\n  mload\n  sub(shl(0xa0, 0x01), 0x01)\n    /* \"#utility.yul\":135:166   */\n  dup2\n  and\n    /* \"#utility.yul\":125:167   */\n  dup2\n  eq\n    /* \"#utility.yul\":115:185   */\n  tag_34\n  jumpi\n    /* \"#utility.yul\":181:182   */\n  0x00\n    /* \"#utility.yul\":178:179   */\n  dup1\n    /* \"#utility.yul\":171:183   */\n  revert\n    /* \"#utility.yul\":115:185   */\ntag_34:\n    /* \"#utility.yul\":14:191   */\n  swap2\n  swap1\n  pop\n  jump\t// out\n    /* \"#utility.yul\":196:710   */\ntag_3:\n    /* \"#utility.yul\":293:299   */\n  0x00\n    /* \"#utility.yul\":301:307   */\n  dup1\n    /* \"#utility.yul\":309:315   */\n  0x00\n    /* \"#utility.yul\":317:323   */\n  dup1\n    /* \"#utility.yul\":370:373   */\n  0x80\n    /* \"#utility.yul\":358:367   */\n  dup6\n    /* \"#utility.yul\":349:356   */\n  dup8\n    /* \"#utility.yul\":345:368   */\n  sub\n    /* \"#utility.yul\":341:374   */\n  slt\n    /* \"#utility.yul\":338:391   */\n  iszero\n  tag_36\n  jumpi\n    /* \"#utility.yul\":387:388   */\n  0x00\n    /* \"#utility.yul\":384:385   */\n  dup1\n    /* \"#utility.yul\":377:389   */\n  revert\n    /* \"#utility.yul\":338:391   */\ntag_36:\n    /* \"#utility.yul\":410:450   */\n  tag_37\n    /* \"#utility.yul\":440:449   */\n  dup6\n    /* \"#utility.yul\":410:450   */\n  tag_31\n  jump\t// in\ntag_37:\n    /* \"#utility.yul\":512:514   */\n  0x20\n    /* \"#utility.yul\":497:515   */\n  dup7\n  add\n    /* \"#utility.yul\":491:516   */\n  mload\n    /* \"#utility.yul\":606:608   */\n  0x40\n    /* \"#utility.yul\":591:609   */\n  dup8\n  add\n    /* \"#utility.yul\":585:610   */\n  mload\n    /* \"#utility.yul\":400:450   */\n  swap2\n  swap6\n  pop\n    /* \"#utility.yul\":491:516   */\n  swap4\n  pop\n    /* \"#utility.yul\":585:610   */\n  swap2\n  pop\n    /* \"#utility.yul\":655:704   */\n  tag_38\n    /* \"#utility.yul\":700:702   */\n  0x60\n    /* \"#utility.yul\":685:703   */\n  dup7\n  add\n    /* \"#utility.yul\":655:704   */\n  tag_31\n  jump\t// in\ntag_38:\n    /* \"#utility.yul\":645:704   */\n  swap1\n  pop\n    /* \"#utility.yul\":196:710   */\n  swap3\n  swap6\n  swap2\n  swap5\n  pop\n  swap3\n  pop\n  jump\t// out\n    /* \"#utility.yul\":2096:2497   */\ntag_32:\n    /* \"smart-contract/hardhat/contracts/ClosedSurveyV3.sol\":330:11524  contract ClosedSurveyV3 is Ownable, ReentrancyGuard, Pausable {... */\n  mload(0x80)\n  codecopy(0x00, dataOffset(sub_0), dataSize(sub_0))\n  0x00\n  assignImmutable(\"0x4ce4dab4689da140a0c12de1a6af6b8f679594aeb723205f513e052d27f5b26f\")\n  return(0x00, dataSize(sub_0))\nstop\n\nsub_0: assembly {\n        /* \"smart-contract/hardhat/contracts/ClosedSurveyV3.sol\":330:11524  contract ClosedSurveyV3 is Ownable, ReentrancyGuard, Pausable {... */\n      mstore(0x40, 0x80)\n      callvalue\n      dup1\n      iszero\n      tag_1\n      jumpi\n      0x00\n      dup1\n      revert\n    tag_1:\n      pop\n      jumpi(tag_2, lt(calldatasize, 0x04))\n      shr(0xe0, calldataload(0x00))\n      dup1\n      0x741ae614\n      gt\n      tag_29\n      jumpi\n      dup1\n      0xa6a09811\n      gt\n      tag_30\n      jumpi\n      dup1\n      0xea1dd101\n      gt\n      tag_31\n      jumpi\n      dup1\n      0xea1dd101\n      eq\n      tag_25\n      jumpi\n      dup1\n      0xf22069df\n      eq\n      tag_26\n      jumpi\n      dup1\n      0xf2fde38b\n      eq\n      tag_27\n      jumpi\n      dup1\n      0xf67ae941\n      eq\n      tag_28\n      jumpi\n      0x00\n      dup1\n      revert\n    tag_31:\n      dup1\n      0xa6a09811\n      eq\n      tag_22\n      jumpi\n      dup1\n      0xd4bfbd41\n      eq\n      tag_23\n      jumpi\n      dup1\n      0xe082fe2a\n      eq\n      tag_24\n      jumpi\n      0x00\n      dup1\n      revert\n    tag_30:\n      dup1\n      0x741ae614\n      eq\n      tag_16\n      jumpi\n      dup1\n      0x7a0abf08\n      eq\n      tag_17\n      jumpi\n      dup1\n      0x8c0a0966\n      eq\n      tag_18\n      jumpi\n      dup1\n      0x8da5cb5b\n      eq\n      tag_19\n      jumpi\n      dup1\n      0xa0858343\n      eq\n      tag_20\n      jumpi\n      dup1\n      0xa0ca86a3\n      eq\n      tag_21\n      jumpi\n      0x00\n      dup1\n      revert\n    tag_29:\n      dup1\n      0x5c975abb\n      gt\n      tag_32\n      jumpi\n      dup1\n      0x6fa1c59d\n      gt\n      tag_33\n      jumpi\n      dup1\n      0x6fa1c59d\n      eq\n      tag_12\n      jumpi\n      dup1\n      0x6ff65c20\n      eq\n      tag_13\n      jumpi\n      dup1\n      0x7069243c\n      eq\n      tag_14\n      jumpi\n      dup1\n      0x715018a6\n      eq\n      tag_15\n      jumpi\n      0x00\n      dup1\n      revert\n    tag_33:\n      dup1\n      0x5c975abb\n      eq\n      tag_9\n      jumpi\n      dup1\n      0x64751f22\n      eq\n      tag_10\n      jumpi\n      dup1\n      0x64bb632f\n      eq\n      tag_11\n      jumpi\n      0x00\n      dup1\n      revert\n    tag_32:\n      dup1\n      0x047bc438\n      eq\n      tag_3\n      jumpi\n      dup1\n      0x1fccf672\n      eq\n      tag_4\n      jumpi\n      dup1\n      0x28a2355b\n      eq\n      tag_5\n      jumpi\n      dup1\n      0x3960fc66\n      eq\n      tag_6\n      jumpi\n      dup1\n      0x4074be40\n      eq\n      tag_7\n      jumpi\n      dup1\n      0x528780cc\n      eq\n      tag_8\n      jumpi\n    tag_2:\n      0x00\n      dup1\n      revert\n        /* \"smart-contract/hardhat/contracts/ClosedSurveyV3.sol\":789:835  uint256 public numberOfWhitelistedParticipants */\n    tag_3:\n      tag_34\n      sload(0x09)\n      dup2\n      jump\n    tag_34:\n      mload(0x40)\n        /* \"#utility.yul\":160:185   */\n      swap1\n      dup2\n      mstore\n        /* \"#utility.yul\":148:150   */\n      0x20\n        /* \"#utility.yul\":133:151   */\n      add\n        /* \"smart-contract/hardhat/contracts/ClosedSurveyV3.sol\":789:835  uint256 public numberOfWhitelistedParticipants */\n    tag_36:\n      mload(0x40)\n      dup1\n      swap2\n      sub\n      swap1\n      return\n        /* \"smart-contract/hardhat/contracts/ClosedSurveyV3.sol\":398:434  IERC20Metadata public immutable cUSD */\n    tag_4:\n      tag_38\n      immutable(\"0x4ce4dab4689da140a0c12de1a6af6b8f679594aeb723205f513e052d27f5b26f\")\n      dup2\n      jump\n    tag_38:\n      mload(0x40)\n      sub(shl(0xa0, 0x01), 0x01)\n        /* \"#utility.yul\":382:414   */\n      swap1\n      swap2\n      and\n        /* \"#utility.yul\":364:415   */\n      dup2\n      mstore\n        /* \"#utility.yul\":352:354   */\n      0x20\n        /* \"#utility.yul\":337:355   */\n      add\n        /* \"smart-contract/hardhat/contracts/ClosedSurveyV3.sol\":398:434  IERC20Metadata public immutable cUSD */\n      tag_36\n        /* \"#utility.yul\":196:421   */\n      jump\n        /* \"smart-contract/hardhat/contracts/ClosedSurveyV3.sol\":11361:11522  function getNumberOfWhitelistedParticipants()... */\n    tag_5:\n        /* \"smart-contract/hardhat/contracts/ClosedSurveyV3.sol\":11484:11515  numberOfWhitelistedParticipants */\n      sload(0x09)\n        /* \"smart-contract/hardhat/contracts/ClosedSurveyV3.sol\":11361:11522  function getNumberOfWhitelistedParticipants()... */\n      jump(tag_34)\n        /* \"smart-contract/hardhat/contracts/ClosedSurveyV3.sol\":9171:9242  function unpauseSurvey() external onlyOwner {... */\n    tag_6:\n      tag_45\n      tag_46\n      jump\t// in\n    tag_45:\n      stop\n        /* \"smart-contract/hardhat/contracts/ClosedSurveyV3.sol\":841:884  uint256 public numberOfScreenedParticipants */\n    tag_7:\n      tag_34\n      sload(0x0a)\n      dup2\n      jump\n        /* \"smart-contract/hardhat/contracts/ClosedSurveyV3.sol\":8466:9092  function updateTargetNumberOfParticipants(... */\n    tag_8:\n      tag_45\n      tag_51\n      calldatasize\n      0x04\n      tag_52\n      jump\t// in\n    tag_51:\n      tag_53\n      jump\t// in\n        /* \"@openzeppelin/contracts/utils/Pausable.sol\":1850:1934  function paused() public view virtual returns (bool) {... */\n    tag_9:\n        /* \"@openzeppelin/contracts/utils/Pausable.sol\":1920:1927  _paused */\n      and(0xff, sload(0x02))\n        /* \"@openzeppelin/contracts/utils/Pausable.sol\":1850:1934  function paused() public view virtual returns (bool) {... */\n    tag_54:\n      mload(0x40)\n        /* \"#utility.yul\":776:790   */\n      swap1\n      iszero\n        /* \"#utility.yul\":769:791   */\n      iszero\n        /* \"#utility.yul\":751:792   */\n      dup2\n      mstore\n        /* \"#utility.yul\":739:741   */\n      0x20\n        /* \"#utility.yul\":724:742   */\n      add\n        /* \"@openzeppelin/contracts/utils/Pausable.sol\":1850:1934  function paused() public view virtual returns (bool) {... */\n      tag_36\n        /* \"#utility.yul\":611:798   */\n      jump\n        /* \"smart-contract/hardhat/contracts/ClosedSurveyV3.sol\":5026:5484  function whitelistParticipant(address participantWalletAddress)... */\n    tag_10:\n      tag_45\n      tag_59\n      calldatasize\n      0x04\n      tag_60\n      jump\t// in\n    tag_59:\n      tag_61\n      jump\t// in\n        /* \"smart-contract/hardhat/contracts/ClosedSurveyV3.sol\":7815:8460  function updateRewardAmountPerParticipant(... */\n    tag_11:\n      tag_45\n      tag_63\n      calldatasize\n      0x04\n      tag_52\n      jump\t// in\n    tag_63:\n      tag_64\n      jump\t// in\n        /* \"smart-contract/hardhat/contracts/ClosedSurveyV3.sol\":11232:11355  function getTargetNumberOfParticipants() external view returns (uint256) {... */\n    tag_12:\n        /* \"smart-contract/hardhat/contracts/ClosedSurveyV3.sol\":11322:11348  targetNumberOfParticipants */\n      sload(0x07)\n        /* \"smart-contract/hardhat/contracts/ClosedSurveyV3.sol\":11232:11355  function getTargetNumberOfParticipants() external view returns (uint256) {... */\n      jump(tag_34)\n        /* \"smart-contract/hardhat/contracts/ClosedSurveyV3.sol\":10287:10485  function checkIfParticipantHasAlreadyClaimedReward(... */\n    tag_13:\n      tag_54\n      tag_69\n      calldatasize\n      0x04\n      tag_60\n      jump\t// in\n    tag_69:\n      sub(shl(0xa0, 0x01), 0x01)\n        /* \"smart-contract/hardhat/contracts/ClosedSurveyV3.sol\":10432:10478  rewardedParticipants[participantWalletAddress] */\n      and\n        /* \"smart-contract/hardhat/contracts/ClosedSurveyV3.sol\":10409:10413  bool */\n      0x00\n        /* \"smart-contract/hardhat/contracts/ClosedSurveyV3.sol\":10432:10478  rewardedParticipants[participantWalletAddress] */\n      swap1\n      dup2\n      mstore\n        /* \"smart-contract/hardhat/contracts/ClosedSurveyV3.sol\":10432:10452  rewardedParticipants */\n      0x04\n        /* \"smart-contract/hardhat/contracts/ClosedSurveyV3.sol\":10432:10478  rewardedParticipants[participantWalletAddress] */\n      0x20\n      mstore\n      0x40\n      swap1\n      keccak256\n      sload\n      0xff\n      and\n      swap1\n        /* \"smart-contract/hardhat/contracts/ClosedSurveyV3.sol\":10287:10485  function checkIfParticipantHasAlreadyClaimedReward(... */\n      jump\n        /* \"smart-contract/hardhat/contracts/ClosedSurveyV3.sol\":10932:11093  function getRewardAmountPerParticipantInWei()... */\n    tag_14:\n        /* \"smart-contract/hardhat/contracts/ClosedSurveyV3.sol\":11055:11086  rewardAmountPerParticipantInWei */\n      sload(0x06)\n        /* \"smart-contract/hardhat/contracts/ClosedSurveyV3.sol\":10932:11093  function getRewardAmountPerParticipantInWei()... */\n      jump(tag_34)\n        /* \"@openzeppelin/contracts/access/Ownable.sol\":2293:2394  function renounceOwnership() public virtual onlyOwner {... */\n    tag_15:\n      tag_45\n      tag_76\n      jump\t// in\n        /* \"smart-contract/hardhat/contracts/ClosedSurveyV3.sol\":11099:11226  function getNumberOfRewardedParticipants() external view returns (uint256) {... */\n    tag_16:\n        /* \"smart-contract/hardhat/contracts/ClosedSurveyV3.sol\":11191:11219  numberOfRewardedParticipants */\n      sload(0x08)\n        /* \"smart-contract/hardhat/contracts/ClosedSurveyV3.sol\":11099:11226  function getNumberOfRewardedParticipants() external view returns (uint256) {... */\n      jump(tag_34)\n        /* \"smart-contract/hardhat/contracts/ClosedSurveyV3.sol\":640:686  uint256 public rewardAmountPerParticipantInWei */\n    tag_17:\n      tag_34\n      sload(0x06)\n      dup2\n      jump\n        /* \"smart-contract/hardhat/contracts/ClosedSurveyV3.sol\":10711:10926  function checkIfParticipantIsBlacklisted(address participantWalletAddress)... */\n    tag_18:\n      tag_54\n      tag_84\n      calldatasize\n      0x04\n      tag_60\n      jump\t// in\n    tag_84:\n      sub(shl(0xa0, 0x01), 0x01)\n        /* \"smart-contract/hardhat/contracts/ClosedSurveyV3.sol\":10861:10919  participantsWhitelistedForSurvey[participantWalletAddress] */\n      and\n        /* \"smart-contract/hardhat/contracts/ClosedSurveyV3.sol\":10833:10837  bool */\n      0x00\n        /* \"smart-contract/hardhat/contracts/ClosedSurveyV3.sol\":10861:10919  participantsWhitelistedForSurvey[participantWalletAddress] */\n      swap1\n      dup2\n      mstore\n        /* \"smart-contract/hardhat/contracts/ClosedSurveyV3.sol\":10861:10893  participantsWhitelistedForSurvey */\n      0x03\n        /* \"smart-contract/hardhat/contracts/ClosedSurveyV3.sol\":10861:10919  participantsWhitelistedForSurvey[participantWalletAddress] */\n      0x20\n      mstore\n      0x40\n      swap1\n      keccak256\n      sload\n      0xff\n      and\n        /* \"smart-contract/hardhat/contracts/ClosedSurveyV3.sol\":10860:10919  !participantsWhitelistedForSurvey[participantWalletAddress] */\n      iszero\n      swap1\n        /* \"smart-contract/hardhat/contracts/ClosedSurveyV3.sol\":10711:10926  function checkIfParticipantIsBlacklisted(address participantWalletAddress)... */\n      jump\n        /* \"@openzeppelin/contracts/access/Ownable.sol\":1638:1723  function owner() public view virtual returns (address) {... */\n    tag_19:\n        /* \"@openzeppelin/contracts/access/Ownable.sol\":1684:1691  address */\n      0x00\n        /* \"@openzeppelin/contracts/access/Ownable.sol\":1710:1716  _owner */\n      sload\n      sub(shl(0xa0, 0x01), 0x01)\n      and\n        /* \"@openzeppelin/contracts/access/Ownable.sol\":1638:1723  function owner() public view virtual returns (address) {... */\n      jump(tag_38)\n        /* \"smart-contract/hardhat/contracts/ClosedSurveyV3.sol\":5986:6590  function processRewardClaimByParticipant(address walletAddress)... */\n    tag_20:\n      tag_45\n      tag_92\n      calldatasize\n      0x04\n      tag_60\n      jump\t// in\n    tag_92:\n      tag_93\n      jump\t// in\n        /* \"smart-contract/hardhat/contracts/ClosedSurveyV3.sol\":9248:10281  function getWhitelistedParticipantsFromRegisteredParticipants(... */\n    tag_21:\n      tag_94\n      tag_95\n      calldatasize\n      0x04\n      tag_96\n      jump\t// in\n    tag_95:\n      tag_97\n      jump\t// in\n    tag_94:\n      mload(0x40)\n      tag_36\n      swap2\n      swap1\n      tag_99\n      jump\t// in\n        /* \"smart-contract/hardhat/contracts/ClosedSurveyV3.sol\":692:733  uint256 public targetNumberOfParticipants */\n    tag_22:\n      tag_34\n      sload(0x07)\n      dup2\n      jump\n        /* \"smart-contract/hardhat/contracts/ClosedSurveyV3.sol\":10491:10705  function checkIfParticipantIsWhitelisted(address participantWalletAddress)... */\n    tag_23:\n      tag_54\n      tag_104\n      calldatasize\n      0x04\n      tag_60\n      jump\t// in\n    tag_104:\n      sub(shl(0xa0, 0x01), 0x01)\n        /* \"smart-contract/hardhat/contracts/ClosedSurveyV3.sol\":10640:10698  participantsWhitelistedForSurvey[participantWalletAddress] */\n      and\n        /* \"smart-contract/hardhat/contracts/ClosedSurveyV3.sol\":10613:10617  bool */\n      0x00\n        /* \"smart-contract/hardhat/contracts/ClosedSurveyV3.sol\":10640:10698  participantsWhitelistedForSurvey[participantWalletAddress] */\n      swap1\n      dup2\n      mstore\n        /* \"smart-contract/hardhat/contracts/ClosedSurveyV3.sol\":10640:10672  participantsWhitelistedForSurvey */\n      0x03\n        /* \"smart-contract/hardhat/contracts/ClosedSurveyV3.sol\":10640:10698  participantsWhitelistedForSurvey[participantWalletAddress] */\n      0x20\n      mstore\n      0x40\n      swap1\n      keccak256\n      sload\n      0xff\n      and\n      swap1\n        /* \"smart-contract/hardhat/contracts/ClosedSurveyV3.sol\":10491:10705  function checkIfParticipantIsWhitelisted(address participantWalletAddress)... */\n      jump\n        /* \"smart-contract/hardhat/contracts/ClosedSurveyV3.sol\":9098:9165  function pauseSurvey() external onlyOwner {... */\n    tag_24:\n      tag_45\n      tag_108\n      jump\t// in\n        /* \"smart-contract/hardhat/contracts/ClosedSurveyV3.sol\":4523:5020  function screenParticipant(address participantWalletAddress)... */\n    tag_25:\n      tag_45\n      tag_110\n      calldatasize\n      0x04\n      tag_60\n      jump\t// in\n    tag_110:\n      tag_111\n      jump\t// in\n        /* \"smart-contract/hardhat/contracts/ClosedSurveyV3.sol\":7432:7809  function withdrawAllRewardFundsToResearcher()... */\n    tag_26:\n      tag_45\n      tag_113\n      jump\t// in\n        /* \"@openzeppelin/contracts/access/Ownable.sol\":2543:2758  function transferOwnership(address newOwner) public virtual onlyOwner {... */\n    tag_27:\n      tag_45\n      tag_115\n      calldatasize\n      0x04\n      tag_60\n      jump\t// in\n    tag_115:\n      tag_116\n      jump\t// in\n        /* \"smart-contract/hardhat/contracts/ClosedSurveyV3.sol\":5490:5980  function blacklistWhitelistedParticipant(address participantWalletAddress)... */\n    tag_28:\n      tag_45\n      tag_118\n      calldatasize\n      0x04\n      tag_60\n      jump\t// in\n    tag_118:\n      tag_119\n      jump\t// in\n        /* \"smart-contract/hardhat/contracts/ClosedSurveyV3.sol\":9171:9242  function unpauseSurvey() external onlyOwner {... */\n    tag_46:\n        /* \"@openzeppelin/contracts/access/Ownable.sol\":1531:1544  _checkOwner() */\n      tag_122\n        /* \"@openzeppelin/contracts/access/Ownable.sol\":1531:1542  _checkOwner */\n      tag_123\n        /* \"@openzeppelin/contracts/access/Ownable.sol\":1531:1544  _checkOwner() */\n      jump\t// in\n    tag_122:\n        /* \"smart-contract/hardhat/contracts/ClosedSurveyV3.sol\":9225:9235  _unpause() */\n      tag_125\n        /* \"smart-contract/hardhat/contracts/ClosedSurveyV3.sol\":9225:9233  _unpause */\n      tag_126\n        /* \"smart-contract/hardhat/contracts/ClosedSurveyV3.sol\":9225:9235  _unpause() */\n      jump\t// in\n    tag_125:\n        /* \"smart-contract/hardhat/contracts/ClosedSurveyV3.sol\":9171:9242  function unpauseSurvey() external onlyOwner {... */\n      jump\t// out\n        /* \"smart-contract/hardhat/contracts/ClosedSurveyV3.sol\":8466:9092  function updateTargetNumberOfParticipants(... */\n    tag_53:\n        /* \"@openzeppelin/contracts/access/Ownable.sol\":1531:1544  _checkOwner() */\n      tag_128\n        /* \"@openzeppelin/contracts/access/Ownable.sol\":1531:1542  _checkOwner */\n      tag_123\n        /* \"@openzeppelin/contracts/access/Ownable.sol\":1531:1544  _checkOwner() */\n      jump\t// in\n    tag_128:\n        /* \"smart-contract/hardhat/contracts/ClosedSurveyV3.sol\":8612:8642  _newTargetNumberOfParticipants */\n      dup1\n        /* \"smart-contract/hardhat/contracts/ClosedSurveyV3.sol\":8646:8647  0 */\n      0x00\n        /* \"smart-contract/hardhat/contracts/ClosedSurveyV3.sol\":8612:8647  _newTargetNumberOfParticipants != 0 */\n      sub\n        /* \"smart-contract/hardhat/contracts/ClosedSurveyV3.sol\":8591:8713  require(... */\n      tag_130\n      jumpi\n      mload(0x40)\n      shl(0xe5, 0x461bcd)\n      dup2\n      mstore\n        /* \"#utility.yul\":2761:2763   */\n      0x20\n        /* \"smart-contract/hardhat/contracts/ClosedSurveyV3.sol\":8591:8713  require(... */\n      0x04\n      dup3\n      add\n        /* \"#utility.yul\":2743:2764   */\n      mstore\n        /* \"#utility.yul\":2800:2802   */\n      0x28\n        /* \"#utility.yul\":2780:2798   */\n      0x24\n      dup3\n      add\n        /* \"#utility.yul\":2773:2803   */\n      mstore\n        /* \"#utility.yul\":2839:2873   */\n      0x5a65726f206e756d626572206f6620746172676574207061727469636970616e\n        /* \"#utility.yul\":2819:2837   */\n      0x44\n      dup3\n      add\n        /* \"#utility.yul\":2812:2874   */\n      mstore\n      shl(0xc1, 0x3a399033b4bb32b7)\n        /* \"#utility.yul\":2890:2908   */\n      0x64\n      dup3\n      add\n        /* \"#utility.yul\":2883:2921   */\n      mstore\n        /* \"#utility.yul\":2938:2957   */\n      0x84\n      add\n        /* \"smart-contract/hardhat/contracts/ClosedSurveyV3.sol\":8591:8713  require(... */\n    tag_131:\n      mload(0x40)\n      dup1\n      swap2\n      sub\n      swap1\n      revert\n    tag_130:\n        /* \"smart-contract/hardhat/contracts/ClosedSurveyV3.sol\":8764:8790  targetNumberOfParticipants */\n      0x07\n      dup1\n      sload\n        /* \"smart-contract/hardhat/contracts/ClosedSurveyV3.sol\":8882:8940  targetNumberOfParticipants = newTargetNumberOfParticipants */\n      swap1\n      dup3\n      swap1\n      sstore\n        /* \"smart-contract/hardhat/contracts/ClosedSurveyV3.sol\":8956:9085  TargetNumberOfParticipantsUpdated(... */\n      0x40\n      dup1\n      mload\n        /* \"#utility.yul\":3142:3167   */\n      dup3\n      dup2\n      mstore\n        /* \"#utility.yul\":3198:3200   */\n      0x20\n        /* \"#utility.yul\":3183:3201   */\n      dup2\n      add\n        /* \"#utility.yul\":3176:3210   */\n      dup5\n      swap1\n      mstore\n        /* \"smart-contract/hardhat/contracts/ClosedSurveyV3.sol\":8882:8940  targetNumberOfParticipants = newTargetNumberOfParticipants */\n      dup4\n      swap2\n        /* \"smart-contract/hardhat/contracts/ClosedSurveyV3.sol\":8956:9085  TargetNumberOfParticipantsUpdated(... */\n      0xb90f11d36a1f2ec1f3b89ac87ccd1ffab1a49f3e3ca83cfdac21fd99a537cbc1\n      swap2\n        /* \"#utility.yul\":3115:3133   */\n      add\n        /* \"smart-contract/hardhat/contracts/ClosedSurveyV3.sol\":8956:9085  TargetNumberOfParticipantsUpdated(... */\n    tag_133:\n      mload(0x40)\n      dup1\n      swap2\n      sub\n      swap1\n      log1\n        /* \"smart-contract/hardhat/contracts/ClosedSurveyV3.sol\":8581:9092  {... */\n      pop\n      pop\n        /* \"smart-contract/hardhat/contracts/ClosedSurveyV3.sol\":8466:9092  function updateTargetNumberOfParticipants(... */\n      pop\n      jump\t// out\n        /* \"smart-contract/hardhat/contracts/ClosedSurveyV3.sol\":5026:5484  function whitelistParticipant(address participantWalletAddress)... */\n    tag_61:\n        /* \"@openzeppelin/contracts/access/Ownable.sol\":1531:1544  _checkOwner() */\n      tag_137\n        /* \"@openzeppelin/contracts/access/Ownable.sol\":1531:1542  _checkOwner */\n      tag_123\n        /* \"@openzeppelin/contracts/access/Ownable.sol\":1531:1544  _checkOwner() */\n      jump\t// in\n    tag_137:\n      sub(shl(0xa0, 0x01), 0x01)\n        /* \"smart-contract/hardhat/contracts/ClosedSurveyV3.sol\":2035:2093  participantsWhitelistedForSurvey[participantWalletAddress] */\n      dup2\n      and\n      0x00\n      swap1\n      dup2\n      mstore\n        /* \"smart-contract/hardhat/contracts/ClosedSurveyV3.sol\":2035:2067  participantsWhitelistedForSurvey */\n      0x03\n        /* \"smart-contract/hardhat/contracts/ClosedSurveyV3.sol\":2035:2093  participantsWhitelistedForSurvey[participantWalletAddress] */\n      0x20\n      mstore\n      0x40\n      swap1\n      keccak256\n      sload\n        /* \"smart-contract/hardhat/contracts/ClosedSurveyV3.sol\":5151:5175  participantWalletAddress */\n      dup2\n      swap1\n        /* \"smart-contract/hardhat/contracts/ClosedSurveyV3.sol\":2035:2093  participantsWhitelistedForSurvey[participantWalletAddress] */\n      0xff\n      and\n        /* \"smart-contract/hardhat/contracts/ClosedSurveyV3.sol\":2034:2093  !participantsWhitelistedForSurvey[participantWalletAddress] */\n      iszero\n        /* \"smart-contract/hardhat/contracts/ClosedSurveyV3.sol\":2013:2138  require(... */\n      tag_139\n      jumpi\n      mload(0x40)\n      shl(0xe5, 0x461bcd)\n      dup2\n      mstore\n        /* \"#utility.yul\":3423:3425   */\n      0x20\n        /* \"smart-contract/hardhat/contracts/ClosedSurveyV3.sol\":2013:2138  require(... */\n      0x04\n      dup3\n      add\n        /* \"#utility.yul\":3405:3426   */\n      mstore\n        /* \"#utility.yul\":3462:3464   */\n      0x13\n        /* \"#utility.yul\":3442:3460   */\n      0x24\n      dup3\n      add\n        /* \"#utility.yul\":3435:3465   */\n      mstore\n      shl(0x6a, 0x135d5cdd08189948189b1858dadb1a5cdd1959)\n        /* \"#utility.yul\":3481:3499   */\n      0x44\n      dup3\n      add\n        /* \"#utility.yul\":3474:3523   */\n      mstore\n        /* \"#utility.yul\":3540:3558   */\n      0x64\n      add\n        /* \"smart-contract/hardhat/contracts/ClosedSurveyV3.sol\":2013:2138  require(... */\n      tag_131\n        /* \"#utility.yul\":3221:3564   */\n      jump\n        /* \"smart-contract/hardhat/contracts/ClosedSurveyV3.sol\":2013:2138  require(... */\n    tag_139:\n      sub(shl(0xa0, 0x01), 0x01)\n        /* \"smart-contract/hardhat/contracts/ClosedSurveyV3.sol\":5199:5237  participantWalletAddress != address(0) */\n      dup3\n      and\n        /* \"smart-contract/hardhat/contracts/ClosedSurveyV3.sol\":5191:5261  require(participantWalletAddress != address(0), \"Zero address passed\") */\n      tag_143\n      jumpi\n      mload(0x40)\n      shl(0xe5, 0x461bcd)\n      dup2\n      mstore\n      0x04\n      add\n      tag_131\n      swap1\n      tag_145\n      jump\t// in\n    tag_143:\n      sub(shl(0xa0, 0x01), 0x01)\n        /* \"smart-contract/hardhat/contracts/ClosedSurveyV3.sol\":5272:5330  participantsWhitelistedForSurvey[participantWalletAddress] */\n      dup3\n      and\n      0x00\n      dup2\n      dup2\n      mstore\n        /* \"smart-contract/hardhat/contracts/ClosedSurveyV3.sol\":5272:5304  participantsWhitelistedForSurvey */\n      0x03\n        /* \"smart-contract/hardhat/contracts/ClosedSurveyV3.sol\":5272:5330  participantsWhitelistedForSurvey[participantWalletAddress] */\n      0x20\n      swap1\n      dup2\n      mstore\n      0x40\n      swap2\n      dup3\n      swap1\n      keccak256\n        /* \"smart-contract/hardhat/contracts/ClosedSurveyV3.sol\":5272:5337  participantsWhitelistedForSurvey[participantWalletAddress] = true */\n      dup1\n      sload\n      not(0xff)\n      and\n        /* \"smart-contract/hardhat/contracts/ClosedSurveyV3.sol\":5333:5337  true */\n      0x01\n        /* \"smart-contract/hardhat/contracts/ClosedSurveyV3.sol\":5272:5337  participantsWhitelistedForSurvey[participantWalletAddress] = true */\n      swap1\n      dup2\n      or\n      swap1\n      swap2\n      sstore\n        /* \"smart-contract/hardhat/contracts/ClosedSurveyV3.sol\":5373:5404  numberOfWhitelistedParticipants */\n      0x09\n        /* \"smart-contract/hardhat/contracts/ClosedSurveyV3.sol\":5371:5404  ++numberOfWhitelistedParticipants */\n      dup1\n      sload\n      swap1\n      swap2\n      add\n      swap1\n      sstore\n        /* \"smart-contract/hardhat/contracts/ClosedSurveyV3.sol\":5429:5477  ParticipantWhitelisted(participantWalletAddress) */\n      swap1\n      mload\n        /* \"#utility.yul\":364:415   */\n      swap2\n      dup3\n      mstore\n        /* \"smart-contract/hardhat/contracts/ClosedSurveyV3.sol\":5429:5477  ParticipantWhitelisted(participantWalletAddress) */\n      0x84608224e0456ec7c9063f8dfd347a891979e08cb0c7d7dae9bad7bd5edb7f36\n      swap2\n        /* \"#utility.yul\":337:355   */\n      add\n        /* \"smart-contract/hardhat/contracts/ClosedSurveyV3.sol\":5429:5477  ParticipantWhitelisted(participantWalletAddress) */\n    tag_146:\n      mload(0x40)\n      dup1\n      swap2\n      sub\n      swap1\n      log1\n        /* \"@openzeppelin/contracts/access/Ownable.sol\":1554:1555  _ */\n      pop\n        /* \"smart-contract/hardhat/contracts/ClosedSurveyV3.sol\":5026:5484  function whitelistParticipant(address participantWalletAddress)... */\n      pop\n      jump\t// out\n        /* \"smart-contract/hardhat/contracts/ClosedSurveyV3.sol\":7815:8460  function updateRewardAmountPerParticipant(... */\n    tag_64:\n        /* \"@openzeppelin/contracts/access/Ownable.sol\":1531:1544  _checkOwner() */\n      tag_148\n        /* \"@openzeppelin/contracts/access/Ownable.sol\":1531:1542  _checkOwner */\n      tag_123\n        /* \"@openzeppelin/contracts/access/Ownable.sol\":1531:1544  _checkOwner() */\n      jump\t// in\n    tag_148:\n        /* \"smart-contract/hardhat/contracts/ClosedSurveyV3.sol\":7966:8001  _newRewardAmountPerParticipantInWei */\n      dup1\n        /* \"smart-contract/hardhat/contracts/ClosedSurveyV3.sol\":8005:8006  0 */\n      0x00\n        /* \"smart-contract/hardhat/contracts/ClosedSurveyV3.sol\":7966:8006  _newRewardAmountPerParticipantInWei != 0 */\n      sub\n        /* \"smart-contract/hardhat/contracts/ClosedSurveyV3.sol\":7945:8056  require(... */\n      tag_150\n      jumpi\n      mload(0x40)\n      shl(0xe5, 0x461bcd)\n      dup2\n      mstore\n        /* \"#utility.yul\":4119:4121   */\n      0x20\n        /* \"smart-contract/hardhat/contracts/ClosedSurveyV3.sol\":7945:8056  require(... */\n      0x04\n      dup3\n      add\n        /* \"#utility.yul\":4101:4122   */\n      mstore\n        /* \"#utility.yul\":4158:4160   */\n      0x18\n        /* \"#utility.yul\":4138:4156   */\n      0x24\n      dup3\n      add\n        /* \"#utility.yul\":4131:4161   */\n      mstore\n        /* \"#utility.yul\":4197:4223   */\n      0x5a65726f2072657761726420616d6f756e7420676976656e0000000000000000\n        /* \"#utility.yul\":4177:4195   */\n      0x44\n      dup3\n      add\n        /* \"#utility.yul\":4170:4224   */\n      mstore\n        /* \"#utility.yul\":4241:4259   */\n      0x64\n      add\n        /* \"smart-contract/hardhat/contracts/ClosedSurveyV3.sol\":7945:8056  require(... */\n      tag_131\n        /* \"#utility.yul\":3917:4265   */\n      jump\n        /* \"smart-contract/hardhat/contracts/ClosedSurveyV3.sol\":7945:8056  require(... */\n    tag_150:\n        /* \"smart-contract/hardhat/contracts/ClosedSurveyV3.sol\":8112:8143  rewardAmountPerParticipantInWei */\n      0x06\n      dup1\n      sload\n        /* \"smart-contract/hardhat/contracts/ClosedSurveyV3.sol\":8244:8312  rewardAmountPerParticipantInWei = newRewardAmountPerParticipantInWei */\n      swap1\n      dup3\n      swap1\n      sstore\n        /* \"smart-contract/hardhat/contracts/ClosedSurveyV3.sol\":8328:8453  RewardAmountUpdated(... */\n      0x40\n      dup1\n      mload\n        /* \"#utility.yul\":3142:3167   */\n      dup3\n      dup2\n      mstore\n        /* \"#utility.yul\":3198:3200   */\n      0x20\n        /* \"#utility.yul\":3183:3201   */\n      dup2\n      add\n        /* \"#utility.yul\":3176:3210   */\n      dup5\n      swap1\n      mstore\n        /* \"smart-contract/hardhat/contracts/ClosedSurveyV3.sol\":8244:8312  rewardAmountPerParticipantInWei = newRewardAmountPerParticipantInWei */\n      dup4\n      swap2\n        /* \"smart-contract/hardhat/contracts/ClosedSurveyV3.sol\":8328:8453  RewardAmountUpdated(... */\n      0xf0d37c3ae852021ac329281f604b658691cbfa6b9e9c22909f06b64a8ce87c94\n      swap2\n        /* \"#utility.yul\":3115:3133   */\n      add\n        /* \"smart-contract/hardhat/contracts/ClosedSurveyV3.sol\":8328:8453  RewardAmountUpdated(... */\n      tag_133\n        /* \"#utility.yul\":2968:3216   */\n      jump\n        /* \"@openzeppelin/contracts/access/Ownable.sol\":2293:2394  function renounceOwnership() public virtual onlyOwner {... */\n    tag_76:\n        /* \"@openzeppelin/contracts/access/Ownable.sol\":1531:1544  _checkOwner() */\n      tag_158\n        /* \"@openzeppelin/contracts/access/Ownable.sol\":1531:1542  _checkOwner */\n      tag_123\n        /* \"@openzeppelin/contracts/access/Ownable.sol\":1531:1544  _checkOwner() */\n      jump\t// in\n    tag_158:\n        /* \"@openzeppelin/contracts/access/Ownable.sol\":2357:2387  _transferOwnership(address(0)) */\n      tag_125\n        /* \"@openzeppelin/contracts/access/Ownable.sol\":2384:2385  0 */\n      0x00\n        /* \"@openzeppelin/contracts/access/Ownable.sol\":2357:2375  _transferOwnership */\n      tag_161\n        /* \"@openzeppelin/contracts/access/Ownable.sol\":2357:2387  _transferOwnership(address(0)) */\n      jump\t// in\n        /* \"smart-contract/hardhat/contracts/ClosedSurveyV3.sol\":5986:6590  function processRewardClaimByParticipant(address walletAddress)... */\n    tag_93:\n        /* \"@openzeppelin/contracts/utils/Pausable.sol\":1474:1493  _requireNotPaused() */\n      tag_166\n        /* \"@openzeppelin/contracts/utils/Pausable.sol\":1474:1491  _requireNotPaused */\n      tag_167\n        /* \"@openzeppelin/contracts/utils/Pausable.sol\":1474:1493  _requireNotPaused() */\n      jump\t// in\n    tag_166:\n        /* \"@openzeppelin/contracts/utils/ReentrancyGuard.sol\":2500:2521  _nonReentrantBefore() */\n      tag_169\n        /* \"@openzeppelin/contracts/utils/ReentrancyGuard.sol\":2500:2519  _nonReentrantBefore */\n      tag_170\n        /* \"@openzeppelin/contracts/utils/ReentrancyGuard.sol\":2500:2521  _nonReentrantBefore() */\n      jump\t// in\n    tag_169:\n        /* \"smart-contract/hardhat/contracts/ClosedSurveyV3.sol\":3100:3131  rewardAmountPerParticipantInWei */\n      sload(0x06)\n        /* \"smart-contract/hardhat/contracts/ClosedSurveyV3.sol\":3067:3096  cUSD.balanceOf(address(this)) */\n      mload(0x40)\n      shl(0xe0, 0x70a08231)\n      dup2\n      mstore\n        /* \"smart-contract/hardhat/contracts/ClosedSurveyV3.sol\":3090:3094  this */\n      address\n        /* \"smart-contract/hardhat/contracts/ClosedSurveyV3.sol\":3067:3096  cUSD.balanceOf(address(this)) */\n      0x04\n      dup3\n      add\n        /* \"#utility.yul\":364:415   */\n      mstore\n        /* \"smart-contract/hardhat/contracts/ClosedSurveyV3.sol\":3067:3071  cUSD */\n      immutable(\"0x4ce4dab4689da140a0c12de1a6af6b8f679594aeb723205f513e052d27f5b26f\")\n      sub(shl(0xa0, 0x01), 0x01)\n        /* \"smart-contract/hardhat/contracts/ClosedSurveyV3.sol\":3067:3081  cUSD.balanceOf */\n      and\n      swap1\n      0x70a08231\n      swap1\n        /* \"#utility.yul\":337:355   */\n      0x24\n      add\n        /* \"smart-contract/hardhat/contracts/ClosedSurveyV3.sol\":3067:3096  cUSD.balanceOf(address(this)) */\n      0x20\n      mload(0x40)\n      dup1\n      dup4\n      sub\n      dup2\n      dup7\n      gas\n      staticcall\n      iszero\n      dup1\n      iszero\n      tag_174\n      jumpi\n      returndatasize\n      0x00\n      dup1\n      returndatacopy\n      revert(0x00, returndatasize)\n    tag_174:\n      pop\n      pop\n      pop\n      pop\n      mload(0x40)\n      returndatasize\n      not(0x1f)\n      0x1f\n      dup3\n      add\n      and\n      dup3\n      add\n      dup1\n      0x40\n      mstore\n      pop\n      dup2\n      add\n      swap1\n      tag_175\n      swap2\n      swap1\n      tag_176\n      jump\t// in\n    tag_175:\n        /* \"smart-contract/hardhat/contracts/ClosedSurveyV3.sol\":3067:3131  cUSD.balanceOf(address(this)) >= rewardAmountPerParticipantInWei */\n      lt\n      iszero\n        /* \"smart-contract/hardhat/contracts/ClosedSurveyV3.sol\":3046:3191  require(... */\n      tag_177\n      jumpi\n      mload(0x40)\n      shl(0xe5, 0x461bcd)\n      dup2\n      mstore\n        /* \"#utility.yul\":4661:4663   */\n      0x20\n        /* \"smart-contract/hardhat/contracts/ClosedSurveyV3.sol\":3046:3191  require(... */\n      0x04\n      dup3\n      add\n        /* \"#utility.yul\":4643:4664   */\n      mstore\n        /* \"#utility.yul\":4700:4702   */\n      0x22\n        /* \"#utility.yul\":4680:4698   */\n      0x24\n      dup3\n      add\n        /* \"#utility.yul\":4673:4703   */\n      mstore\n        /* \"#utility.yul\":4739:4773   */\n      0x436f6e747261637420646f6573206e6f74206861766520656e6f756768206355\n        /* \"#utility.yul\":4719:4737   */\n      0x44\n      dup3\n      add\n        /* \"#utility.yul\":4712:4774   */\n      mstore\n      shl(0xf2, 0x14d1)\n        /* \"#utility.yul\":4790:4808   */\n      0x64\n      dup3\n      add\n        /* \"#utility.yul\":4783:4815   */\n      mstore\n        /* \"#utility.yul\":4832:4851   */\n      0x84\n      add\n        /* \"smart-contract/hardhat/contracts/ClosedSurveyV3.sol\":3046:3191  require(... */\n      tag_131\n        /* \"#utility.yul\":4459:4857   */\n      jump\n        /* \"smart-contract/hardhat/contracts/ClosedSurveyV3.sol\":3046:3191  require(... */\n    tag_177:\n        /* \"smart-contract/hardhat/contracts/ClosedSurveyV3.sol\":3511:3537  targetNumberOfParticipants */\n      sload(0x07)\n        /* \"smart-contract/hardhat/contracts/ClosedSurveyV3.sol\":3480:3508  numberOfRewardedParticipants */\n      sload(0x08)\n        /* \"smart-contract/hardhat/contracts/ClosedSurveyV3.sol\":3480:3537  numberOfRewardedParticipants < targetNumberOfParticipants */\n      lt\n        /* \"smart-contract/hardhat/contracts/ClosedSurveyV3.sol\":3459:3598  require(... */\n      tag_181\n      jumpi\n      mload(0x40)\n      shl(0xe5, 0x461bcd)\n      dup2\n      mstore\n        /* \"#utility.yul\":5064:5066   */\n      0x20\n        /* \"smart-contract/hardhat/contracts/ClosedSurveyV3.sol\":3459:3598  require(... */\n      0x04\n      dup3\n      add\n        /* \"#utility.yul\":5046:5067   */\n      mstore\n        /* \"#utility.yul\":5103:5105   */\n      0x23\n        /* \"#utility.yul\":5083:5101   */\n      0x24\n      dup3\n      add\n        /* \"#utility.yul\":5076:5106   */\n      mstore\n        /* \"#utility.yul\":5142:5176   */\n      0x416c6c207061727469636970616e74732068617665206265656e207265776172\n        /* \"#utility.yul\":5122:5140   */\n      0x44\n      dup3\n      add\n        /* \"#utility.yul\":5115:5177   */\n      mstore\n      shl(0xea, 0x191959)\n        /* \"#utility.yul\":5193:5211   */\n      0x64\n      dup3\n      add\n        /* \"#utility.yul\":5186:5219   */\n      mstore\n        /* \"#utility.yul\":5236:5255   */\n      0x84\n      add\n        /* \"smart-contract/hardhat/contracts/ClosedSurveyV3.sol\":3459:3598  require(... */\n      tag_131\n        /* \"#utility.yul\":4862:5261   */\n      jump\n        /* \"smart-contract/hardhat/contracts/ClosedSurveyV3.sol\":3459:3598  require(... */\n    tag_181:\n        /* \"smart-contract/hardhat/contracts/ClosedSurveyV3.sol\":6235:6248  walletAddress */\n      dup1\n        /* \"smart-contract/hardhat/contracts/ClosedSurveyV3.sol\":2913:2923  msg.sender */\n      caller\n      sub(shl(0xa0, 0x01), 0x01)\n        /* \"smart-contract/hardhat/contracts/ClosedSurveyV3.sol\":2913:2951  msg.sender == participantWalletAddress */\n      dup3\n      and\n      eq\n        /* \"smart-contract/hardhat/contracts/ClosedSurveyV3.sol\":2905:2973  require(msg.sender == participantWalletAddress, \"Only valid sender\") */\n      tag_185\n      jumpi\n      mload(0x40)\n      shl(0xe5, 0x461bcd)\n      dup2\n      mstore\n        /* \"#utility.yul\":5468:5470   */\n      0x20\n        /* \"smart-contract/hardhat/contracts/ClosedSurveyV3.sol\":2905:2973  require(msg.sender == participantWalletAddress, \"Only valid sender\") */\n      0x04\n      dup3\n      add\n        /* \"#utility.yul\":5450:5471   */\n      mstore\n        /* \"#utility.yul\":5507:5509   */\n      0x11\n        /* \"#utility.yul\":5487:5505   */\n      0x24\n      dup3\n      add\n        /* \"#utility.yul\":5480:5510   */\n      mstore\n      shl(0x79, 0x27b7363c903b30b634b21039b2b73232b9)\n        /* \"#utility.yul\":5526:5544   */\n      0x44\n      dup3\n      add\n        /* \"#utility.yul\":5519:5566   */\n      mstore\n        /* \"#utility.yul\":5583:5601   */\n      0x64\n      add\n        /* \"smart-contract/hardhat/contracts/ClosedSurveyV3.sol\":2905:2973  require(msg.sender == participantWalletAddress, \"Only valid sender\") */\n      tag_131\n        /* \"#utility.yul\":5266:5607   */\n      jump\n        /* \"smart-contract/hardhat/contracts/ClosedSurveyV3.sol\":2905:2973  require(msg.sender == participantWalletAddress, \"Only valid sender\") */\n    tag_185:\n      sub(shl(0xa0, 0x01), 0x01)\n        /* \"smart-contract/hardhat/contracts/ClosedSurveyV3.sol\":1810:1868  participantsWhitelistedForSurvey[participantWalletAddress] */\n      dup3\n      and\n      0x00\n      swap1\n      dup2\n      mstore\n        /* \"smart-contract/hardhat/contracts/ClosedSurveyV3.sol\":1810:1842  participantsWhitelistedForSurvey */\n      0x03\n        /* \"smart-contract/hardhat/contracts/ClosedSurveyV3.sol\":1810:1868  participantsWhitelistedForSurvey[participantWalletAddress] */\n      0x20\n      mstore\n      0x40\n      swap1\n      keccak256\n      sload\n        /* \"smart-contract/hardhat/contracts/ClosedSurveyV3.sol\":6285:6298  walletAddress */\n      dup3\n      swap1\n        /* \"smart-contract/hardhat/contracts/ClosedSurveyV3.sol\":1810:1868  participantsWhitelistedForSurvey[participantWalletAddress] */\n      0xff\n      and\n        /* \"smart-contract/hardhat/contracts/ClosedSurveyV3.sol\":1789:1918  require(... */\n      tag_189\n      jumpi\n      mload(0x40)\n      shl(0xe5, 0x461bcd)\n      dup2\n      mstore\n        /* \"#utility.yul\":5814:5816   */\n      0x20\n        /* \"smart-contract/hardhat/contracts/ClosedSurveyV3.sol\":1789:1918  require(... */\n      0x04\n      dup3\n      add\n        /* \"#utility.yul\":5796:5817   */\n      mstore\n        /* \"#utility.yul\":5853:5855   */\n      0x18\n        /* \"#utility.yul\":5833:5851   */\n      0x24\n      dup3\n      add\n        /* \"#utility.yul\":5826:5856   */\n      mstore\n      shl(0x40, 0x4f6e6c792077686974656c69737465642061646472657373)\n        /* \"#utility.yul\":5872:5890   */\n      0x44\n      dup3\n      add\n        /* \"#utility.yul\":5865:5919   */\n      mstore\n        /* \"#utility.yul\":5936:5954   */\n      0x64\n      add\n        /* \"smart-contract/hardhat/contracts/ClosedSurveyV3.sol\":1789:1918  require(... */\n      tag_131\n        /* \"#utility.yul\":5612:5960   */\n      jump\n        /* \"smart-contract/hardhat/contracts/ClosedSurveyV3.sol\":1789:1918  require(... */\n    tag_189:\n      sub(shl(0xa0, 0x01), 0x01)\n        /* \"smart-contract/hardhat/contracts/ClosedSurveyV3.sol\":2697:2743  rewardedParticipants[participantWalletAddress] */\n      dup4\n      and\n      0x00\n      swap1\n      dup2\n      mstore\n        /* \"smart-contract/hardhat/contracts/ClosedSurveyV3.sol\":2697:2717  rewardedParticipants */\n      0x04\n        /* \"smart-contract/hardhat/contracts/ClosedSurveyV3.sol\":2697:2743  rewardedParticipants[participantWalletAddress] */\n      0x20\n      mstore\n      0x40\n      swap1\n      keccak256\n      sload\n        /* \"smart-contract/hardhat/contracts/ClosedSurveyV3.sol\":6334:6347  walletAddress */\n      dup4\n      swap1\n        /* \"smart-contract/hardhat/contracts/ClosedSurveyV3.sol\":2697:2743  rewardedParticipants[participantWalletAddress] */\n      0xff\n      and\n        /* \"smart-contract/hardhat/contracts/ClosedSurveyV3.sol\":2696:2743  !rewardedParticipants[participantWalletAddress] */\n      iszero\n        /* \"smart-contract/hardhat/contracts/ClosedSurveyV3.sol\":2675:2797  require(... */\n      tag_193\n      jumpi\n      mload(0x40)\n      shl(0xe5, 0x461bcd)\n      dup2\n      mstore\n        /* \"#utility.yul\":6167:6169   */\n      0x20\n        /* \"smart-contract/hardhat/contracts/ClosedSurveyV3.sol\":2675:2797  require(... */\n      0x04\n      dup3\n      add\n        /* \"#utility.yul\":6149:6170   */\n      mstore\n        /* \"#utility.yul\":6206:6208   */\n      0x1c\n        /* \"#utility.yul\":6186:6204   */\n      0x24\n      dup3\n      add\n        /* \"#utility.yul\":6179:6209   */\n      mstore\n        /* \"#utility.yul\":6245:6275   */\n      0x5061727469636970616e7420616c726561647920726577617264656400000000\n        /* \"#utility.yul\":6225:6243   */\n      0x44\n      dup3\n      add\n        /* \"#utility.yul\":6218:6276   */\n      mstore\n        /* \"#utility.yul\":6293:6311   */\n      0x64\n      add\n        /* \"smart-contract/hardhat/contracts/ClosedSurveyV3.sol\":2675:2797  require(... */\n      tag_131\n        /* \"#utility.yul\":5965:6317   */\n      jump\n        /* \"smart-contract/hardhat/contracts/ClosedSurveyV3.sol\":2675:2797  require(... */\n    tag_193:\n      sub(shl(0xa0, 0x01), 0x01)\n        /* \"smart-contract/hardhat/contracts/ClosedSurveyV3.sol\":2475:2530  participantsScreenedForSurvey[participantWalletAddress] */\n      dup5\n      and\n      0x00\n      swap1\n      dup2\n      mstore\n        /* \"smart-contract/hardhat/contracts/ClosedSurveyV3.sol\":2475:2504  participantsScreenedForSurvey */\n      0x05\n        /* \"smart-contract/hardhat/contracts/ClosedSurveyV3.sol\":2475:2530  participantsScreenedForSurvey[participantWalletAddress] */\n      0x20\n      mstore\n      0x40\n      swap1\n      keccak256\n      sload\n        /* \"smart-contract/hardhat/contracts/ClosedSurveyV3.sol\":6372:6385  walletAddress */\n      dup5\n      swap1\n        /* \"smart-contract/hardhat/contracts/ClosedSurveyV3.sol\":2475:2530  participantsScreenedForSurvey[participantWalletAddress] */\n      0xff\n      and\n        /* \"smart-contract/hardhat/contracts/ClosedSurveyV3.sol\":2454:2572  require(... */\n      tag_197\n      jumpi\n      mload(0x40)\n      shl(0xe5, 0x461bcd)\n      dup2\n      mstore\n        /* \"#utility.yul\":6524:6526   */\n      0x20\n        /* \"smart-contract/hardhat/contracts/ClosedSurveyV3.sol\":2454:2572  require(... */\n      0x04\n      dup3\n      add\n        /* \"#utility.yul\":6506:6527   */\n      mstore\n        /* \"#utility.yul\":6563:6565   */\n      0x10\n        /* \"#utility.yul\":6543:6561   */\n      0x24\n      dup3\n      add\n        /* \"#utility.yul\":6536:6566   */\n      mstore\n      shl(0x82, 0x135d5cdd081899481cd8dc99595b9959)\n        /* \"#utility.yul\":6582:6600   */\n      0x44\n      dup3\n      add\n        /* \"#utility.yul\":6575:6621   */\n      mstore\n        /* \"#utility.yul\":6638:6656   */\n      0x64\n      add\n        /* \"smart-contract/hardhat/contracts/ClosedSurveyV3.sol\":2454:2572  require(... */\n      tag_131\n        /* \"#utility.yul\":6322:6662   */\n      jump\n        /* \"smart-contract/hardhat/contracts/ClosedSurveyV3.sol\":2454:2572  require(... */\n    tag_197:\n        /* \"smart-contract/hardhat/contracts/ClosedSurveyV3.sol\":6401:6431  bool rewardTransferIsSuccesful */\n      0x00\n        /* \"smart-contract/hardhat/contracts/ClosedSurveyV3.sol\":6434:6466  rewardParticipant(walletAddress) */\n      tag_201\n        /* \"smart-contract/hardhat/contracts/ClosedSurveyV3.sol\":6452:6465  walletAddress */\n      dup7\n        /* \"smart-contract/hardhat/contracts/ClosedSurveyV3.sol\":6434:6451  rewardParticipant */\n      tag_202\n        /* \"smart-contract/hardhat/contracts/ClosedSurveyV3.sol\":6434:6466  rewardParticipant(walletAddress) */\n      jump\t// in\n    tag_201:\n        /* \"smart-contract/hardhat/contracts/ClosedSurveyV3.sol\":6401:6466  bool rewardTransferIsSuccesful = rewardParticipant(walletAddress) */\n      swap1\n      pop\n        /* \"smart-contract/hardhat/contracts/ClosedSurveyV3.sol\":6481:6506  rewardTransferIsSuccesful */\n      dup1\n        /* \"smart-contract/hardhat/contracts/ClosedSurveyV3.sol\":6477:6584  if (rewardTransferIsSuccesful) {... */\n      iszero\n      tag_204\n      jumpi\n        /* \"smart-contract/hardhat/contracts/ClosedSurveyV3.sol\":6522:6573  markParticipantAsHavingClaimedReward(walletAddress) */\n      tag_204\n        /* \"smart-contract/hardhat/contracts/ClosedSurveyV3.sol\":6559:6572  walletAddress */\n      dup7\n        /* \"smart-contract/hardhat/contracts/ClosedSurveyV3.sol\":6522:6558  markParticipantAsHavingClaimedReward */\n      tag_205\n        /* \"smart-contract/hardhat/contracts/ClosedSurveyV3.sol\":6522:6573  markParticipantAsHavingClaimedReward(walletAddress) */\n      jump\t// in\n    tag_204:\n        /* \"smart-contract/hardhat/contracts/ClosedSurveyV3.sol\":6391:6590  {... */\n      pop\n        /* \"smart-contract/hardhat/contracts/ClosedSurveyV3.sol\":2807:2808  _ */\n      pop\n        /* \"smart-contract/hardhat/contracts/ClosedSurveyV3.sol\":1928:1929  _ */\n      pop\n        /* \"smart-contract/hardhat/contracts/ClosedSurveyV3.sol\":2983:2984  _ */\n      pop\n        /* \"smart-contract/hardhat/contracts/ClosedSurveyV3.sol\":3608:3609  _ */\n      pop\n        /* \"@openzeppelin/contracts/utils/ReentrancyGuard.sol\":2542:2562  _nonReentrantAfter() */\n      tag_206\n        /* \"@openzeppelin/contracts/utils/ReentrancyGuard.sol\":1857:1858  1 */\n      0x01\n        /* \"@openzeppelin/contracts/utils/ReentrancyGuard.sol\":3068:3089  _status = NOT_ENTERED */\n      dup1\n      sstore\n        /* \"@openzeppelin/contracts/utils/ReentrancyGuard.sol\":2888:3096  function _nonReentrantAfter() private {... */\n      jump\n        /* \"@openzeppelin/contracts/utils/ReentrancyGuard.sol\":2542:2562  _nonReentrantAfter() */\n    tag_206:\n        /* \"smart-contract/hardhat/contracts/ClosedSurveyV3.sol\":5986:6590  function processRewardClaimByParticipant(address walletAddress)... */\n      pop\n      jump\t// out\n        /* \"smart-contract/hardhat/contracts/ClosedSurveyV3.sol\":9248:10281  function getWhitelistedParticipantsFromRegisteredParticipants(... */\n    tag_97:\n        /* \"smart-contract/hardhat/contracts/ClosedSurveyV3.sol\":9387:9403  address[] memory */\n      0x60\n        /* \"smart-contract/hardhat/contracts/ClosedSurveyV3.sol\":9448:9467  registeredAddresses */\n      dup2\n        /* \"smart-contract/hardhat/contracts/ClosedSurveyV3.sol\":9415:9445  uint256 numberOfAddressesGiven */\n      0x00\n        /* \"smart-contract/hardhat/contracts/ClosedSurveyV3.sol\":9493:9520  numberOfAddressesGiven != 0 */\n      dup2\n      swap1\n      sub\n        /* \"smart-contract/hardhat/contracts/ClosedSurveyV3.sol\":9485:9544  require(numberOfAddressesGiven != 0, \"No addresses passed\") */\n      tag_209\n      jumpi\n      mload(0x40)\n      shl(0xe5, 0x461bcd)\n      dup2\n      mstore\n        /* \"#utility.yul\":6869:6871   */\n      0x20\n        /* \"smart-contract/hardhat/contracts/ClosedSurveyV3.sol\":9485:9544  require(numberOfAddressesGiven != 0, \"No addresses passed\") */\n      0x04\n      dup3\n      add\n        /* \"#utility.yul\":6851:6872   */\n      mstore\n        /* \"#utility.yul\":6908:6910   */\n      0x13\n        /* \"#utility.yul\":6888:6906   */\n      0x24\n      dup3\n      add\n        /* \"#utility.yul\":6881:6911   */\n      mstore\n      shl(0x6a, 0x139bc81859191c995cdcd95cc81c185cdcd959)\n        /* \"#utility.yul\":6927:6945   */\n      0x44\n      dup3\n      add\n        /* \"#utility.yul\":6920:6969   */\n      mstore\n        /* \"#utility.yul\":6986:7004   */\n      0x64\n      add\n        /* \"smart-contract/hardhat/contracts/ClosedSurveyV3.sol\":9485:9544  require(numberOfAddressesGiven != 0, \"No addresses passed\") */\n      tag_131\n        /* \"#utility.yul\":6667:7010   */\n      jump\n        /* \"smart-contract/hardhat/contracts/ClosedSurveyV3.sol\":9485:9544  require(numberOfAddressesGiven != 0, \"No addresses passed\") */\n    tag_209:\n        /* \"smart-contract/hardhat/contracts/ClosedSurveyV3.sol\":9554:9578  uint256 whitelistedCount */\n      0x00\n        /* \"smart-contract/hardhat/contracts/ClosedSurveyV3.sol\":9597:9606  uint256 i */\n      dup1\n        /* \"smart-contract/hardhat/contracts/ClosedSurveyV3.sol\":9592:9838  for (uint256 i = 0; i < numberOfAddressesGiven; ) {... */\n    tag_212:\n        /* \"smart-contract/hardhat/contracts/ClosedSurveyV3.sol\":9616:9638  numberOfAddressesGiven */\n      dup3\n        /* \"smart-contract/hardhat/contracts/ClosedSurveyV3.sol\":9612:9613  i */\n      dup2\n        /* \"smart-contract/hardhat/contracts/ClosedSurveyV3.sol\":9612:9638  i < numberOfAddressesGiven */\n      lt\n        /* \"smart-contract/hardhat/contracts/ClosedSurveyV3.sol\":9592:9838  for (uint256 i = 0; i < numberOfAddressesGiven; ) {... */\n      iszero\n      tag_213\n      jumpi\n        /* \"smart-contract/hardhat/contracts/ClosedSurveyV3.sol\":9660:9692  participantsWhitelistedForSurvey */\n      0x03\n        /* \"smart-contract/hardhat/contracts/ClosedSurveyV3.sol\":9660:9716  participantsWhitelistedForSurvey[registeredAddresses[i]] */\n      0x00\n        /* \"smart-contract/hardhat/contracts/ClosedSurveyV3.sol\":9693:9712  registeredAddresses */\n      dup8\n      dup8\n        /* \"smart-contract/hardhat/contracts/ClosedSurveyV3.sol\":9713:9714  i */\n      dup5\n        /* \"smart-contract/hardhat/contracts/ClosedSurveyV3.sol\":9693:9715  registeredAddresses[i] */\n      dup2\n      dup2\n      lt\n      tag_216\n      jumpi\n      tag_216\n      tag_217\n      jump\t// in\n    tag_216:\n      swap1\n      pop\n      0x20\n      mul\n      add\n      0x20\n      dup2\n      add\n      swap1\n      tag_218\n      swap2\n      swap1\n      tag_60\n      jump\t// in\n    tag_218:\n      sub(shl(0xa0, 0x01), 0x01)\n        /* \"smart-contract/hardhat/contracts/ClosedSurveyV3.sol\":9660:9716  participantsWhitelistedForSurvey[registeredAddresses[i]] */\n      and\n      dup2\n      mstore\n      0x20\n      dup2\n      add\n      swap2\n      swap1\n      swap2\n      mstore\n      0x40\n      add\n      0x00\n      keccak256\n      sload\n      0xff\n      and\n        /* \"smart-contract/hardhat/contracts/ClosedSurveyV3.sol\":9656:9769  if (participantsWhitelistedForSurvey[registeredAddresses[i]]) {... */\n      iszero\n      tag_219\n      jumpi\n        /* \"smart-contract/hardhat/contracts/ClosedSurveyV3.sol\":9736:9754  whitelistedCount++ */\n      dup2\n      tag_220\n      dup2\n      tag_221\n      jump\t// in\n    tag_220:\n      swap3\n      pop\n      pop\n        /* \"smart-contract/hardhat/contracts/ClosedSurveyV3.sol\":9656:9769  if (participantsWhitelistedForSurvey[registeredAddresses[i]]) {... */\n    tag_219:\n        /* \"smart-contract/hardhat/contracts/ClosedSurveyV3.sol\":9810:9813  ++i */\n      0x01\n      add\n        /* \"smart-contract/hardhat/contracts/ClosedSurveyV3.sol\":9592:9838  for (uint256 i = 0; i < numberOfAddressesGiven; ) {... */\n      jump(tag_212)\n    tag_213:\n      pop\n        /* \"smart-contract/hardhat/contracts/ClosedSurveyV3.sol\":9848:9885  address[] memory whitelistedAddresses */\n      0x00\n        /* \"smart-contract/hardhat/contracts/ClosedSurveyV3.sol\":9902:9918  whitelistedCount */\n      dup2\n        /* \"smart-contract/hardhat/contracts/ClosedSurveyV3.sol\":9888:9919  new address[](whitelistedCount) */\n      0xffffffffffffffff\n      dup2\n      gt\n      iszero\n      tag_223\n      jumpi\n      tag_223\n      tag_224\n      jump\t// in\n    tag_223:\n      mload(0x40)\n      swap1\n      dup1\n      dup3\n      mstore\n      dup1\n      0x20\n      mul\n      0x20\n      add\n      dup3\n      add\n      0x40\n      mstore\n      dup1\n      iszero\n      tag_225\n      jumpi\n      dup2\n      0x20\n      add\n      0x20\n      dup3\n      mul\n      dup1\n      calldatasize\n      dup4\n      calldatacopy\n      add\n      swap1\n      pop\n    tag_225:\n      pop\n        /* \"smart-contract/hardhat/contracts/ClosedSurveyV3.sol\":9848:9919  address[] memory whitelistedAddresses = new address[](whitelistedCount) */\n      swap1\n      pop\n        /* \"smart-contract/hardhat/contracts/ClosedSurveyV3.sol\":9929:9942  uint256 index */\n      0x00\n        /* \"smart-contract/hardhat/contracts/ClosedSurveyV3.sol\":9961:9970  uint256 i */\n      dup1\n        /* \"smart-contract/hardhat/contracts/ClosedSurveyV3.sol\":9956:10238  for (uint256 i = 0; i < numberOfAddressesGiven; ) {... */\n    tag_226:\n        /* \"smart-contract/hardhat/contracts/ClosedSurveyV3.sol\":9980:10002  numberOfAddressesGiven */\n      dup5\n        /* \"smart-contract/hardhat/contracts/ClosedSurveyV3.sol\":9976:9977  i */\n      dup2\n        /* \"smart-contract/hardhat/contracts/ClosedSurveyV3.sol\":9976:10002  i < numberOfAddressesGiven */\n      lt\n        /* \"smart-contract/hardhat/contracts/ClosedSurveyV3.sol\":9956:10238  for (uint256 i = 0; i < numberOfAddressesGiven; ) {... */\n      iszero\n      tag_227\n      jumpi\n        /* \"smart-contract/hardhat/contracts/ClosedSurveyV3.sol\":10024:10056  participantsWhitelistedForSurvey */\n      0x03\n        /* \"smart-contract/hardhat/contracts/ClosedSurveyV3.sol\":10024:10080  participantsWhitelistedForSurvey[registeredAddresses[i]] */\n      0x00\n        /* \"smart-contract/hardhat/contracts/ClosedSurveyV3.sol\":10057:10076  registeredAddresses */\n      dup10\n      dup10\n        /* \"smart-contract/hardhat/contracts/ClosedSurveyV3.sol\":10077:10078  i */\n      dup5\n        /* \"smart-contract/hardhat/contracts/ClosedSurveyV3.sol\":10057:10079  registeredAddresses[i] */\n      dup2\n      dup2\n      lt\n      tag_230\n      jumpi\n      tag_230\n      tag_217\n      jump\t// in\n    tag_230:\n      swap1\n      pop\n      0x20\n      mul\n      add\n      0x20\n      dup2\n      add\n      swap1\n      tag_231\n      swap2\n      swap1\n      tag_60\n      jump\t// in\n    tag_231:\n      sub(shl(0xa0, 0x01), 0x01)\n        /* \"smart-contract/hardhat/contracts/ClosedSurveyV3.sol\":10024:10080  participantsWhitelistedForSurvey[registeredAddresses[i]] */\n      and\n      dup2\n      mstore\n      0x20\n      dup2\n      add\n      swap2\n      swap1\n      swap2\n      mstore\n      0x40\n      add\n      0x00\n      keccak256\n      sload\n      0xff\n      and\n        /* \"smart-contract/hardhat/contracts/ClosedSurveyV3.sol\":10020:10169  if (participantsWhitelistedForSurvey[registeredAddresses[i]]) {... */\n      iszero\n      tag_232\n      jumpi\n        /* \"smart-contract/hardhat/contracts/ClosedSurveyV3.sol\":10132:10151  registeredAddresses */\n      dup8\n      dup8\n        /* \"smart-contract/hardhat/contracts/ClosedSurveyV3.sol\":10152:10153  i */\n      dup3\n        /* \"smart-contract/hardhat/contracts/ClosedSurveyV3.sol\":10132:10154  registeredAddresses[i] */\n      dup2\n      dup2\n      lt\n      tag_234\n      jumpi\n      tag_234\n      tag_217\n      jump\t// in\n    tag_234:\n      swap1\n      pop\n      0x20\n      mul\n      add\n      0x20\n      dup2\n      add\n      swap1\n      tag_235\n      swap2\n      swap1\n      tag_60\n      jump\t// in\n    tag_235:\n        /* \"smart-contract/hardhat/contracts/ClosedSurveyV3.sol\":10100:10120  whitelistedAddresses */\n      dup4\n        /* \"smart-contract/hardhat/contracts/ClosedSurveyV3.sol\":10121:10128  index++ */\n      dup4\n      tag_236\n      dup2\n      tag_221\n      jump\t// in\n    tag_236:\n      swap5\n      pop\n        /* \"smart-contract/hardhat/contracts/ClosedSurveyV3.sol\":10100:10129  whitelistedAddresses[index++] */\n      dup2\n      mload\n      dup2\n      lt\n      tag_238\n      jumpi\n      tag_238\n      tag_217\n      jump\t// in\n    tag_238:\n      0x20\n      mul\n      0x20\n      add\n      add\n        /* \"smart-contract/hardhat/contracts/ClosedSurveyV3.sol\":10100:10154  whitelistedAddresses[index++] = registeredAddresses[i] */\n      swap1\n      sub(shl(0xa0, 0x01), 0x01)\n      and\n      swap1\n      dup2\n      sub(shl(0xa0, 0x01), 0x01)\n      and\n      dup2\n      mstore\n      pop\n      pop\n        /* \"smart-contract/hardhat/contracts/ClosedSurveyV3.sol\":10020:10169  if (participantsWhitelistedForSurvey[registeredAddresses[i]]) {... */\n    tag_232:\n        /* \"smart-contract/hardhat/contracts/ClosedSurveyV3.sol\":10210:10213  ++i */\n      0x01\n      add\n        /* \"smart-contract/hardhat/contracts/ClosedSurveyV3.sol\":9956:10238  for (uint256 i = 0; i < numberOfAddressesGiven; ) {... */\n      jump(tag_226)\n    tag_227:\n      pop\n        /* \"smart-contract/hardhat/contracts/ClosedSurveyV3.sol\":10254:10274  whitelistedAddresses */\n      swap1\n      swap7\n        /* \"smart-contract/hardhat/contracts/ClosedSurveyV3.sol\":9248:10281  function getWhitelistedParticipantsFromRegisteredParticipants(... */\n      swap6\n      pop\n      pop\n      pop\n      pop\n      pop\n      pop\n      jump\t// out\n        /* \"smart-contract/hardhat/contracts/ClosedSurveyV3.sol\":9098:9165  function pauseSurvey() external onlyOwner {... */\n    tag_108:\n        /* \"@openzeppelin/contracts/access/Ownable.sol\":1531:1544  _checkOwner() */\n      tag_241\n        /* \"@openzeppelin/contracts/access/Ownable.sol\":1531:1542  _checkOwner */\n      tag_123\n        /* \"@openzeppelin/contracts/access/Ownable.sol\":1531:1544  _checkOwner() */\n      jump\t// in\n    tag_241:\n        /* \"smart-contract/hardhat/contracts/ClosedSurveyV3.sol\":9150:9158  _pause() */\n      tag_125\n        /* \"smart-contract/hardhat/contracts/ClosedSurveyV3.sol\":9150:9156  _pause */\n      tag_244\n        /* \"smart-contract/hardhat/contracts/ClosedSurveyV3.sol\":9150:9158  _pause() */\n      jump\t// in\n        /* \"smart-contract/hardhat/contracts/ClosedSurveyV3.sol\":4523:5020  function screenParticipant(address participantWalletAddress)... */\n    tag_111:\n        /* \"smart-contract/hardhat/contracts/ClosedSurveyV3.sol\":4640:4664  participantWalletAddress */\n      dup1\n        /* \"smart-contract/hardhat/contracts/ClosedSurveyV3.sol\":2913:2923  msg.sender */\n      caller\n      sub(shl(0xa0, 0x01), 0x01)\n        /* \"smart-contract/hardhat/contracts/ClosedSurveyV3.sol\":2913:2951  msg.sender == participantWalletAddress */\n      dup3\n      and\n      eq\n        /* \"smart-contract/hardhat/contracts/ClosedSurveyV3.sol\":2905:2973  require(msg.sender == participantWalletAddress, \"Only valid sender\") */\n      tag_246\n      jumpi\n      mload(0x40)\n      shl(0xe5, 0x461bcd)\n      dup2\n      mstore\n        /* \"#utility.yul\":5468:5470   */\n      0x20\n        /* \"smart-contract/hardhat/contracts/ClosedSurveyV3.sol\":2905:2973  require(msg.sender == participantWalletAddress, \"Only valid sender\") */\n      0x04\n      dup3\n      add\n        /* \"#utility.yul\":5450:5471   */\n      mstore\n        /* \"#utility.yul\":5507:5509   */\n      0x11\n        /* \"#utility.yul\":5487:5505   */\n      0x24\n      dup3\n      add\n        /* \"#utility.yul\":5480:5510   */\n      mstore\n      shl(0x79, 0x27b7363c903b30b634b21039b2b73232b9)\n        /* \"#utility.yul\":5526:5544   */\n      0x44\n      dup3\n      add\n        /* \"#utility.yul\":5519:5566   */\n      mstore\n        /* \"#utility.yul\":5583:5601   */\n      0x64\n      add\n        /* \"smart-contract/hardhat/contracts/ClosedSurveyV3.sol\":2905:2973  require(msg.sender == participantWalletAddress, \"Only valid sender\") */\n      tag_131\n        /* \"#utility.yul\":5266:5607   */\n      jump\n        /* \"smart-contract/hardhat/contracts/ClosedSurveyV3.sol\":2905:2973  require(msg.sender == participantWalletAddress, \"Only valid sender\") */\n    tag_246:\n      sub(shl(0xa0, 0x01), 0x01)\n        /* \"smart-contract/hardhat/contracts/ClosedSurveyV3.sol\":2259:2314  participantsScreenedForSurvey[participantWalletAddress] */\n      dup3\n      and\n      0x00\n      swap1\n      dup2\n      mstore\n        /* \"smart-contract/hardhat/contracts/ClosedSurveyV3.sol\":2259:2288  participantsScreenedForSurvey */\n      0x05\n        /* \"smart-contract/hardhat/contracts/ClosedSurveyV3.sol\":2259:2314  participantsScreenedForSurvey[participantWalletAddress] */\n      0x20\n      mstore\n      0x40\n      swap1\n      keccak256\n      sload\n        /* \"smart-contract/hardhat/contracts/ClosedSurveyV3.sol\":4696:4720  participantWalletAddress */\n      dup3\n      swap1\n        /* \"smart-contract/hardhat/contracts/ClosedSurveyV3.sol\":2259:2314  participantsScreenedForSurvey[participantWalletAddress] */\n      0xff\n      and\n        /* \"smart-contract/hardhat/contracts/ClosedSurveyV3.sol\":2258:2314  !participantsScreenedForSurvey[participantWalletAddress] */\n      iszero\n        /* \"smart-contract/hardhat/contracts/ClosedSurveyV3.sol\":2237:2363  require(... */\n      tag_249\n      jumpi\n      mload(0x40)\n      shl(0xe5, 0x461bcd)\n      dup2\n      mstore\n        /* \"#utility.yul\":7718:7720   */\n      0x20\n        /* \"smart-contract/hardhat/contracts/ClosedSurveyV3.sol\":2237:2363  require(... */\n      0x04\n      dup3\n      add\n        /* \"#utility.yul\":7700:7721   */\n      mstore\n        /* \"#utility.yul\":7757:7759   */\n      0x17\n        /* \"#utility.yul\":7737:7755   */\n      0x24\n      dup3\n      add\n        /* \"#utility.yul\":7730:7760   */\n      mstore\n        /* \"#utility.yul\":7796:7821   */\n      0x4f6e6c7920756e73637265656e65642061646472657373000000000000000000\n        /* \"#utility.yul\":7776:7794   */\n      0x44\n      dup3\n      add\n        /* \"#utility.yul\":7769:7822   */\n      mstore\n        /* \"#utility.yul\":7839:7857   */\n      0x64\n      add\n        /* \"smart-contract/hardhat/contracts/ClosedSurveyV3.sol\":2237:2363  require(... */\n      tag_131\n        /* \"#utility.yul\":7516:7863   */\n      jump\n        /* \"smart-contract/hardhat/contracts/ClosedSurveyV3.sol\":2237:2363  require(... */\n    tag_249:\n      sub(shl(0xa0, 0x01), 0x01)\n        /* \"smart-contract/hardhat/contracts/ClosedSurveyV3.sol\":4744:4782  participantWalletAddress != address(0) */\n      dup4\n      and\n        /* \"smart-contract/hardhat/contracts/ClosedSurveyV3.sol\":4736:4806  require(participantWalletAddress != address(0), \"Zero address passed\") */\n      tag_253\n      jumpi\n      mload(0x40)\n      shl(0xe5, 0x461bcd)\n      dup2\n      mstore\n      0x04\n      add\n      tag_131\n      swap1\n      tag_145\n      jump\t// in\n    tag_253:\n      sub(shl(0xa0, 0x01), 0x01)\n        /* \"smart-contract/hardhat/contracts/ClosedSurveyV3.sol\":4817:4872  participantsScreenedForSurvey[participantWalletAddress] */\n      dup4\n      and\n      0x00\n      dup2\n      dup2\n      mstore\n        /* \"smart-contract/hardhat/contracts/ClosedSurveyV3.sol\":4817:4846  participantsScreenedForSurvey */\n      0x05\n        /* \"smart-contract/hardhat/contracts/ClosedSurveyV3.sol\":4817:4872  participantsScreenedForSurvey[participantWalletAddress] */\n      0x20\n      swap1\n      dup2\n      mstore\n      0x40\n      swap2\n      dup3\n      swap1\n      keccak256\n        /* \"smart-contract/hardhat/contracts/ClosedSurveyV3.sol\":4817:4879  participantsScreenedForSurvey[participantWalletAddress] = true */\n      dup1\n      sload\n      not(0xff)\n      and\n        /* \"smart-contract/hardhat/contracts/ClosedSurveyV3.sol\":4875:4879  true */\n      0x01\n        /* \"smart-contract/hardhat/contracts/ClosedSurveyV3.sol\":4817:4879  participantsScreenedForSurvey[participantWalletAddress] = true */\n      swap1\n      dup2\n      or\n      swap1\n      swap2\n      sstore\n        /* \"smart-contract/hardhat/contracts/ClosedSurveyV3.sol\":4915:4943  numberOfScreenedParticipants */\n      0x0a\n        /* \"smart-contract/hardhat/contracts/ClosedSurveyV3.sol\":4913:4943  ++numberOfScreenedParticipants */\n      dup1\n      sload\n      swap1\n      swap2\n      add\n      swap1\n      sstore\n        /* \"smart-contract/hardhat/contracts/ClosedSurveyV3.sol\":4968:5013  ParticipantScreened(participantWalletAddress) */\n      swap1\n      mload\n        /* \"#utility.yul\":364:415   */\n      swap2\n      dup3\n      mstore\n        /* \"smart-contract/hardhat/contracts/ClosedSurveyV3.sol\":4968:5013  ParticipantScreened(participantWalletAddress) */\n      0xc4ec7a2dc5e72d17666a15570e438638bfc023a7a091df162b669c37198bacb2\n      swap2\n        /* \"#utility.yul\":337:355   */\n      add\n        /* \"smart-contract/hardhat/contracts/ClosedSurveyV3.sol\":4968:5013  ParticipantScreened(participantWalletAddress) */\n      tag_133\n        /* \"#utility.yul\":196:421   */\n      jump\n        /* \"smart-contract/hardhat/contracts/ClosedSurveyV3.sol\":7432:7809  function withdrawAllRewardFundsToResearcher()... */\n    tag_113:\n        /* \"@openzeppelin/contracts/access/Ownable.sol\":1531:1544  _checkOwner() */\n      tag_257\n        /* \"@openzeppelin/contracts/access/Ownable.sol\":1531:1542  _checkOwner */\n      tag_123\n        /* \"@openzeppelin/contracts/access/Ownable.sol\":1531:1544  _checkOwner() */\n      jump\t// in\n    tag_257:\n        /* \"@openzeppelin/contracts/utils/Pausable.sol\":1474:1493  _requireNotPaused() */\n      tag_259\n        /* \"@openzeppelin/contracts/utils/Pausable.sol\":1474:1491  _requireNotPaused */\n      tag_167\n        /* \"@openzeppelin/contracts/utils/Pausable.sol\":1474:1493  _requireNotPaused() */\n      jump\t// in\n    tag_259:\n        /* \"smart-contract/hardhat/contracts/ClosedSurveyV3.sol\":3282:3311  cUSD.balanceOf(address(this)) */\n      mload(0x40)\n      shl(0xe0, 0x70a08231)\n      dup2\n      mstore\n        /* \"smart-contract/hardhat/contracts/ClosedSurveyV3.sol\":3305:3309  this */\n      address\n        /* \"smart-contract/hardhat/contracts/ClosedSurveyV3.sol\":3282:3311  cUSD.balanceOf(address(this)) */\n      0x04\n      dup3\n      add\n        /* \"#utility.yul\":364:415   */\n      mstore\n        /* \"smart-contract/hardhat/contracts/ClosedSurveyV3.sol\":3314:3315  0 */\n      0x00\n      swap1\n        /* \"smart-contract/hardhat/contracts/ClosedSurveyV3.sol\":3282:3286  cUSD */\n      immutable(\"0x4ce4dab4689da140a0c12de1a6af6b8f679594aeb723205f513e052d27f5b26f\")\n      sub(shl(0xa0, 0x01), 0x01)\n        /* \"smart-contract/hardhat/contracts/ClosedSurveyV3.sol\":3282:3296  cUSD.balanceOf */\n      and\n      swap1\n      0x70a08231\n      swap1\n        /* \"#utility.yul\":337:355   */\n      0x24\n      add\n        /* \"smart-contract/hardhat/contracts/ClosedSurveyV3.sol\":3282:3311  cUSD.balanceOf(address(this)) */\n      0x20\n      mload(0x40)\n      dup1\n      dup4\n      sub\n      dup2\n      dup7\n      gas\n      staticcall\n      iszero\n      dup1\n      iszero\n      tag_263\n      jumpi\n      returndatasize\n      0x00\n      dup1\n      returndatacopy\n      revert(0x00, returndatasize)\n    tag_263:\n      pop\n      pop\n      pop\n      pop\n      mload(0x40)\n      returndatasize\n      not(0x1f)\n      0x1f\n      dup3\n      add\n      and\n      dup3\n      add\n      dup1\n      0x40\n      mstore\n      pop\n      dup2\n      add\n      swap1\n      tag_264\n      swap2\n      swap1\n      tag_176\n      jump\t// in\n    tag_264:\n        /* \"smart-contract/hardhat/contracts/ClosedSurveyV3.sol\":3282:3315  cUSD.balanceOf(address(this)) > 0 */\n      gt\n        /* \"smart-contract/hardhat/contracts/ClosedSurveyV3.sol\":3261:3372  require(... */\n      tag_265\n      jumpi\n      mload(0x40)\n      shl(0xe5, 0x461bcd)\n      dup2\n      mstore\n        /* \"#utility.yul\":8070:8072   */\n      0x20\n        /* \"smart-contract/hardhat/contracts/ClosedSurveyV3.sol\":3261:3372  require(... */\n      0x04\n      dup3\n      add\n        /* \"#utility.yul\":8052:8073   */\n      mstore\n        /* \"#utility.yul\":8109:8111   */\n      0x1f\n        /* \"#utility.yul\":8089:8107   */\n      0x24\n      dup3\n      add\n        /* \"#utility.yul\":8082:8112   */\n      mstore\n        /* \"#utility.yul\":8148:8181   */\n      0x436f6e747261637420646f6573206e6f74206861766520616e79206355534400\n        /* \"#utility.yul\":8128:8146   */\n      0x44\n      dup3\n      add\n        /* \"#utility.yul\":8121:8182   */\n      mstore\n        /* \"#utility.yul\":8199:8217   */\n      0x64\n      add\n        /* \"smart-contract/hardhat/contracts/ClosedSurveyV3.sol\":3261:3372  require(... */\n      tag_131\n        /* \"#utility.yul\":7868:8223   */\n      jump\n        /* \"smart-contract/hardhat/contracts/ClosedSurveyV3.sol\":3261:3372  require(... */\n    tag_265:\n        /* \"smart-contract/hardhat/contracts/ClosedSurveyV3.sol\":7600:7629  cUSD.balanceOf(address(this)) */\n      mload(0x40)\n      shl(0xe0, 0x70a08231)\n      dup2\n      mstore\n        /* \"smart-contract/hardhat/contracts/ClosedSurveyV3.sol\":7623:7627  this */\n      address\n        /* \"smart-contract/hardhat/contracts/ClosedSurveyV3.sol\":7600:7629  cUSD.balanceOf(address(this)) */\n      0x04\n      dup3\n      add\n        /* \"#utility.yul\":364:415   */\n      mstore\n        /* \"smart-contract/hardhat/contracts/ClosedSurveyV3.sol\":7582:7597  uint256 balance */\n      0x00\n      swap1\n        /* \"smart-contract/hardhat/contracts/ClosedSurveyV3.sol\":7600:7604  cUSD */\n      immutable(\"0x4ce4dab4689da140a0c12de1a6af6b8f679594aeb723205f513e052d27f5b26f\")\n      sub(shl(0xa0, 0x01), 0x01)\n        /* \"smart-contract/hardhat/contracts/ClosedSurveyV3.sol\":7600:7614  cUSD.balanceOf */\n      and\n      swap1\n      0x70a08231\n      swap1\n        /* \"#utility.yul\":337:355   */\n      0x24\n      add\n        /* \"smart-contract/hardhat/contracts/ClosedSurveyV3.sol\":7600:7629  cUSD.balanceOf(address(this)) */\n      0x20\n      mload(0x40)\n      dup1\n      dup4\n      sub\n      dup2\n      dup7\n      gas\n      staticcall\n      iszero\n      dup1\n      iszero\n      tag_271\n      jumpi\n      returndatasize\n      0x00\n      dup1\n      returndatacopy\n      revert(0x00, returndatasize)\n    tag_271:\n      pop\n      pop\n      pop\n      pop\n      mload(0x40)\n      returndatasize\n      not(0x1f)\n      0x1f\n      dup3\n      add\n      and\n      dup3\n      add\n      dup1\n      0x40\n      mstore\n      pop\n      dup2\n      add\n      swap1\n      tag_272\n      swap2\n      swap1\n      tag_176\n      jump\t// in\n    tag_272:\n        /* \"smart-contract/hardhat/contracts/ClosedSurveyV3.sol\":7582:7629  uint256 balance = cUSD.balanceOf(address(this)) */\n      swap1\n      pop\n        /* \"smart-contract/hardhat/contracts/ClosedSurveyV3.sol\":7639:7664  bool transferIsSuccessful */\n      0x00\n        /* \"smart-contract/hardhat/contracts/ClosedSurveyV3.sol\":7667:7671  cUSD */\n      immutable(\"0x4ce4dab4689da140a0c12de1a6af6b8f679594aeb723205f513e052d27f5b26f\")\n      sub(shl(0xa0, 0x01), 0x01)\n        /* \"smart-contract/hardhat/contracts/ClosedSurveyV3.sol\":7667:7680  cUSD.transfer */\n      and\n      0xa9059cbb\n        /* \"smart-contract/hardhat/contracts/ClosedSurveyV3.sol\":7681:7688  owner() */\n      tag_273\n        /* \"@openzeppelin/contracts/access/Ownable.sol\":1684:1691  address */\n      0x00\n        /* \"@openzeppelin/contracts/access/Ownable.sol\":1710:1716  _owner */\n      sload\n      sub(shl(0xa0, 0x01), 0x01)\n      and\n      swap1\n        /* \"@openzeppelin/contracts/access/Ownable.sol\":1638:1723  function owner() public view virtual returns (address) {... */\n      jump\n        /* \"smart-contract/hardhat/contracts/ClosedSurveyV3.sol\":7681:7688  owner() */\n    tag_273:\n        /* \"smart-contract/hardhat/contracts/ClosedSurveyV3.sol\":7667:7698  cUSD.transfer(owner(), balance) */\n      mload(0x40)\n      not(sub(shl(0xe0, 0x01), 0x01))\n      0xe0\n      dup5\n      swap1\n      shl\n      and\n      dup2\n      mstore\n      sub(shl(0xa0, 0x01), 0x01)\n        /* \"#utility.yul\":8420:8452   */\n      swap1\n      swap2\n      and\n        /* \"smart-contract/hardhat/contracts/ClosedSurveyV3.sol\":7667:7698  cUSD.transfer(owner(), balance) */\n      0x04\n      dup3\n      add\n        /* \"#utility.yul\":8402:8453   */\n      mstore\n        /* \"#utility.yul\":8469:8487   */\n      0x24\n      dup2\n      add\n        /* \"#utility.yul\":8462:8496   */\n      dup6\n      swap1\n      mstore\n        /* \"#utility.yul\":8375:8393   */\n      0x44\n      add\n        /* \"smart-contract/hardhat/contracts/ClosedSurveyV3.sol\":7667:7698  cUSD.transfer(owner(), balance) */\n      0x20\n      mload(0x40)\n      dup1\n      dup4\n      sub\n      dup2\n      0x00\n      dup8\n      gas\n      call\n      iszero\n      dup1\n      iszero\n      tag_277\n      jumpi\n      returndatasize\n      0x00\n      dup1\n      returndatacopy\n      revert(0x00, returndatasize)\n    tag_277:\n      pop\n      pop\n      pop\n      pop\n      mload(0x40)\n      returndatasize\n      not(0x1f)\n      0x1f\n      dup3\n      add\n      and\n      dup3\n      add\n      dup1\n      0x40\n      mstore\n      pop\n      dup2\n      add\n      swap1\n      tag_278\n      swap2\n      swap1\n      tag_279\n      jump\t// in\n    tag_278:\n        /* \"smart-contract/hardhat/contracts/ClosedSurveyV3.sol\":7639:7698  bool transferIsSuccessful = cUSD.transfer(owner(), balance) */\n      swap1\n      pop\n        /* \"smart-contract/hardhat/contracts/ClosedSurveyV3.sol\":7713:7733  transferIsSuccessful */\n      dup1\n        /* \"smart-contract/hardhat/contracts/ClosedSurveyV3.sol\":7709:7803  if (transferIsSuccessful) {... */\n      iszero\n      tag_280\n      jumpi\n        /* \"smart-contract/hardhat/contracts/ClosedSurveyV3.sol\":7754:7792  RewardFundsWithdrawn(owner(), balance) */\n      0x2036b9b38b69a2fa490ee702733a29cd2550accc20bc96e786cb9beedc779097\n        /* \"smart-contract/hardhat/contracts/ClosedSurveyV3.sol\":7775:7782  owner() */\n      tag_281\n        /* \"@openzeppelin/contracts/access/Ownable.sol\":1684:1691  address */\n      0x00\n        /* \"@openzeppelin/contracts/access/Ownable.sol\":1710:1716  _owner */\n      sload\n      sub(shl(0xa0, 0x01), 0x01)\n      and\n      swap1\n        /* \"@openzeppelin/contracts/access/Ownable.sol\":1638:1723  function owner() public view virtual returns (address) {... */\n      jump\n        /* \"smart-contract/hardhat/contracts/ClosedSurveyV3.sol\":7775:7782  owner() */\n    tag_281:\n        /* \"smart-contract/hardhat/contracts/ClosedSurveyV3.sol\":7754:7792  RewardFundsWithdrawn(owner(), balance) */\n      0x40\n      dup1\n      mload\n      sub(shl(0xa0, 0x01), 0x01)\n        /* \"#utility.yul\":8420:8452   */\n      swap1\n      swap3\n      and\n        /* \"#utility.yul\":8402:8453   */\n      dup3\n      mstore\n        /* \"#utility.yul\":8484:8486   */\n      0x20\n        /* \"#utility.yul\":8469:8487   */\n      dup3\n      add\n        /* \"#utility.yul\":8462:8496   */\n      dup6\n      swap1\n      mstore\n        /* \"#utility.yul\":8375:8393   */\n      add\n        /* \"smart-contract/hardhat/contracts/ClosedSurveyV3.sol\":7754:7792  RewardFundsWithdrawn(owner(), balance) */\n      tag_146\n        /* \"#utility.yul\":8228:8502   */\n      jump\n        /* \"smart-contract/hardhat/contracts/ClosedSurveyV3.sol\":7709:7803  if (transferIsSuccessful) {... */\n    tag_280:\n        /* \"smart-contract/hardhat/contracts/ClosedSurveyV3.sol\":7572:7809  {... */\n      pop\n      pop\n        /* \"smart-contract/hardhat/contracts/ClosedSurveyV3.sol\":7432:7809  function withdrawAllRewardFundsToResearcher()... */\n      jump\t// out\n        /* \"@openzeppelin/contracts/access/Ownable.sol\":2543:2758  function transferOwnership(address newOwner) public virtual onlyOwner {... */\n    tag_116:\n        /* \"@openzeppelin/contracts/access/Ownable.sol\":1531:1544  _checkOwner() */\n      tag_284\n        /* \"@openzeppelin/contracts/access/Ownable.sol\":1531:1542  _checkOwner */\n      tag_123\n        /* \"@openzeppelin/contracts/access/Ownable.sol\":1531:1544  _checkOwner() */\n      jump\t// in\n    tag_284:\n      sub(shl(0xa0, 0x01), 0x01)\n        /* \"@openzeppelin/contracts/access/Ownable.sol\":2627:2649  newOwner == address(0) */\n      dup2\n      and\n        /* \"@openzeppelin/contracts/access/Ownable.sol\":2623:2714  if (newOwner == address(0)) {... */\n      tag_286\n      jumpi\n        /* \"@openzeppelin/contracts/access/Ownable.sol\":2672:2703  OwnableInvalidOwner(address(0)) */\n      mload(0x40)\n      shl(0xe0, 0x1e4fbdf7)\n      dup2\n      mstore\n        /* \"@openzeppelin/contracts/access/Ownable.sol\":2700:2701  0 */\n      0x00\n        /* \"@openzeppelin/contracts/access/Ownable.sol\":2672:2703  OwnableInvalidOwner(address(0)) */\n      0x04\n      dup3\n      add\n        /* \"#utility.yul\":364:415   */\n      mstore\n        /* \"#utility.yul\":337:355   */\n      0x24\n      add\n        /* \"@openzeppelin/contracts/access/Ownable.sol\":2672:2703  OwnableInvalidOwner(address(0)) */\n      tag_131\n        /* \"#utility.yul\":196:421   */\n      jump\n        /* \"@openzeppelin/contracts/access/Ownable.sol\":2623:2714  if (newOwner == address(0)) {... */\n    tag_286:\n        /* \"@openzeppelin/contracts/access/Ownable.sol\":2723:2751  _transferOwnership(newOwner) */\n      tag_206\n        /* \"@openzeppelin/contracts/access/Ownable.sol\":2742:2750  newOwner */\n      dup2\n        /* \"@openzeppelin/contracts/access/Ownable.sol\":2723:2741  _transferOwnership */\n      tag_161\n        /* \"@openzeppelin/contracts/access/Ownable.sol\":2723:2751  _transferOwnership(newOwner) */\n      jump\t// in\n        /* \"smart-contract/hardhat/contracts/ClosedSurveyV3.sol\":5490:5980  function blacklistWhitelistedParticipant(address participantWalletAddress)... */\n    tag_119:\n        /* \"@openzeppelin/contracts/access/Ownable.sol\":1531:1544  _checkOwner() */\n      tag_290\n        /* \"@openzeppelin/contracts/access/Ownable.sol\":1531:1542  _checkOwner */\n      tag_123\n        /* \"@openzeppelin/contracts/access/Ownable.sol\":1531:1544  _checkOwner() */\n      jump\t// in\n    tag_290:\n      sub(shl(0xa0, 0x01), 0x01)\n        /* \"smart-contract/hardhat/contracts/ClosedSurveyV3.sol\":1810:1868  participantsWhitelistedForSurvey[participantWalletAddress] */\n      dup2\n      and\n      0x00\n      swap1\n      dup2\n      mstore\n        /* \"smart-contract/hardhat/contracts/ClosedSurveyV3.sol\":1810:1842  participantsWhitelistedForSurvey */\n      0x03\n        /* \"smart-contract/hardhat/contracts/ClosedSurveyV3.sol\":1810:1868  participantsWhitelistedForSurvey[participantWalletAddress] */\n      0x20\n      mstore\n      0x40\n      swap1\n      keccak256\n      sload\n        /* \"smart-contract/hardhat/contracts/ClosedSurveyV3.sol\":5635:5659  participantWalletAddress */\n      dup2\n      swap1\n        /* \"smart-contract/hardhat/contracts/ClosedSurveyV3.sol\":1810:1868  participantsWhitelistedForSurvey[participantWalletAddress] */\n      0xff\n      and\n        /* \"smart-contract/hardhat/contracts/ClosedSurveyV3.sol\":1789:1918  require(... */\n      tag_292\n      jumpi\n      mload(0x40)\n      shl(0xe5, 0x461bcd)\n      dup2\n      mstore\n        /* \"#utility.yul\":5814:5816   */\n      0x20\n        /* \"smart-contract/hardhat/contracts/ClosedSurveyV3.sol\":1789:1918  require(... */\n      0x04\n      dup3\n      add\n        /* \"#utility.yul\":5796:5817   */\n      mstore\n        /* \"#utility.yul\":5853:5855   */\n      0x18\n        /* \"#utility.yul\":5833:5851   */\n      0x24\n      dup3\n      add\n        /* \"#utility.yul\":5826:5856   */\n      mstore\n      shl(0x40, 0x4f6e6c792077686974656c69737465642061646472657373)\n        /* \"#utility.yul\":5872:5890   */\n      0x44\n      dup3\n      add\n        /* \"#utility.yul\":5865:5919   */\n      mstore\n        /* \"#utility.yul\":5936:5954   */\n      0x64\n      add\n        /* \"smart-contract/hardhat/contracts/ClosedSurveyV3.sol\":1789:1918  require(... */\n      tag_131\n        /* \"#utility.yul\":5612:5960   */\n      jump\n        /* \"smart-contract/hardhat/contracts/ClosedSurveyV3.sol\":1789:1918  require(... */\n    tag_292:\n      sub(shl(0xa0, 0x01), 0x01)\n        /* \"smart-contract/hardhat/contracts/ClosedSurveyV3.sol\":5683:5721  participantWalletAddress != address(0) */\n      dup3\n      and\n        /* \"smart-contract/hardhat/contracts/ClosedSurveyV3.sol\":5675:5745  require(participantWalletAddress != address(0), \"Zero address passed\") */\n      tag_295\n      jumpi\n      mload(0x40)\n      shl(0xe5, 0x461bcd)\n      dup2\n      mstore\n      0x04\n      add\n      tag_131\n      swap1\n      tag_145\n      jump\t// in\n    tag_295:\n      sub(shl(0xa0, 0x01), 0x01)\n        /* \"smart-contract/hardhat/contracts/ClosedSurveyV3.sol\":5756:5814  participantsWhitelistedForSurvey[participantWalletAddress] */\n      dup3\n      and\n        /* \"smart-contract/hardhat/contracts/ClosedSurveyV3.sol\":5817:5822  false */\n      0x00\n        /* \"smart-contract/hardhat/contracts/ClosedSurveyV3.sol\":5756:5814  participantsWhitelistedForSurvey[participantWalletAddress] */\n      dup2\n      dup2\n      mstore\n        /* \"smart-contract/hardhat/contracts/ClosedSurveyV3.sol\":5756:5788  participantsWhitelistedForSurvey */\n      0x03\n        /* \"smart-contract/hardhat/contracts/ClosedSurveyV3.sol\":5756:5814  participantsWhitelistedForSurvey[participantWalletAddress] */\n      0x20\n      swap1\n      dup2\n      mstore\n      0x40\n      swap2\n      dup3\n      swap1\n      keccak256\n        /* \"smart-contract/hardhat/contracts/ClosedSurveyV3.sol\":5756:5822  participantsWhitelistedForSurvey[participantWalletAddress] = false */\n      dup1\n      sload\n      not(0xff)\n      and\n      swap1\n      sstore\n        /* \"smart-contract/hardhat/contracts/ClosedSurveyV3.sol\":5858:5889  numberOfWhitelistedParticipants */\n      0x09\n        /* \"smart-contract/hardhat/contracts/ClosedSurveyV3.sol\":5856:5889  --numberOfWhitelistedParticipants */\n      dup1\n      sload\n      not(0x00)\n      add\n      swap1\n      sstore\n        /* \"smart-contract/hardhat/contracts/ClosedSurveyV3.sol\":5914:5973  WhitelistedParticipantBlacklisted(participantWalletAddress) */\n      swap1\n      mload\n        /* \"#utility.yul\":364:415   */\n      swap2\n      dup3\n      mstore\n        /* \"smart-contract/hardhat/contracts/ClosedSurveyV3.sol\":5914:5973  WhitelistedParticipantBlacklisted(participantWalletAddress) */\n      0x9a3420c1085262889090de7fb2f9c9d1d7c8d69f895b7cd37074650958bc99e6\n      swap2\n        /* \"#utility.yul\":337:355   */\n      add\n        /* \"smart-contract/hardhat/contracts/ClosedSurveyV3.sol\":5914:5973  WhitelistedParticipantBlacklisted(participantWalletAddress) */\n      tag_146\n        /* \"#utility.yul\":196:421   */\n      jump\n        /* \"@openzeppelin/contracts/access/Ownable.sol\":1796:1958  function _checkOwner() internal view virtual {... */\n    tag_123:\n        /* \"@openzeppelin/contracts/access/Ownable.sol\":1684:1691  address */\n      0x00\n        /* \"@openzeppelin/contracts/access/Ownable.sol\":1710:1716  _owner */\n      sload\n      sub(shl(0xa0, 0x01), 0x01)\n      and\n        /* \"@openzeppelin/contracts/utils/Context.sol\":735:745  msg.sender */\n      caller\n        /* \"@openzeppelin/contracts/access/Ownable.sol\":1855:1878  owner() != _msgSender() */\n      eq\n        /* \"@openzeppelin/contracts/access/Ownable.sol\":1851:1952  if (owner() != _msgSender()) {... */\n      tag_125\n      jumpi\n        /* \"@openzeppelin/contracts/access/Ownable.sol\":1901:1941  OwnableUnauthorizedAccount(_msgSender()) */\n      mload(0x40)\n      shl(0xe0, 0x118cdaa7)\n      dup2\n      mstore\n        /* \"@openzeppelin/contracts/utils/Context.sol\":735:745  msg.sender */\n      caller\n        /* \"@openzeppelin/contracts/access/Ownable.sol\":1901:1941  OwnableUnauthorizedAccount(_msgSender()) */\n      0x04\n      dup3\n      add\n        /* \"#utility.yul\":364:415   */\n      mstore\n        /* \"#utility.yul\":337:355   */\n      0x24\n      add\n        /* \"@openzeppelin/contracts/access/Ownable.sol\":1901:1941  OwnableUnauthorizedAccount(_msgSender()) */\n      tag_131\n        /* \"#utility.yul\":196:421   */\n      jump\n        /* \"@openzeppelin/contracts/utils/Pausable.sol\":2710:2827  function _unpause() internal virtual whenPaused {... */\n    tag_126:\n        /* \"@openzeppelin/contracts/utils/Pausable.sol\":1721:1737  _requirePaused() */\n      tag_306\n        /* \"@openzeppelin/contracts/utils/Pausable.sol\":1721:1735  _requirePaused */\n      tag_307\n        /* \"@openzeppelin/contracts/utils/Pausable.sol\":1721:1737  _requirePaused() */\n      jump\t// in\n    tag_306:\n        /* \"@openzeppelin/contracts/utils/Pausable.sol\":2768:2775  _paused */\n      0x02\n        /* \"@openzeppelin/contracts/utils/Pausable.sol\":2768:2783  _paused = false */\n      dup1\n      sload\n      not(0xff)\n      and\n      swap1\n      sstore\n        /* \"@openzeppelin/contracts/utils/Pausable.sol\":2798:2820  Unpaused(_msgSender()) */\n      0x5db9ee0a495bf2e6ff9c91a7834c1ba4fdd244a5e8aa4e537bd38aeae4b073aa\n        /* \"@openzeppelin/contracts/utils/Context.sol\":735:745  msg.sender */\n      caller\n        /* \"@openzeppelin/contracts/utils/Pausable.sol\":2807:2819  _msgSender() */\n    tag_309:\n        /* \"@openzeppelin/contracts/utils/Pausable.sol\":2798:2820  Unpaused(_msgSender()) */\n      mload(0x40)\n      sub(shl(0xa0, 0x01), 0x01)\n        /* \"#utility.yul\":382:414   */\n      swap1\n      swap2\n      and\n        /* \"#utility.yul\":364:415   */\n      dup2\n      mstore\n        /* \"#utility.yul\":352:354   */\n      0x20\n        /* \"#utility.yul\":337:355   */\n      add\n        /* \"@openzeppelin/contracts/utils/Pausable.sol\":2798:2820  Unpaused(_msgSender()) */\n      mload(0x40)\n      dup1\n      swap2\n      sub\n      swap1\n      log1\n        /* \"@openzeppelin/contracts/utils/Pausable.sol\":2710:2827  function _unpause() internal virtual whenPaused {... */\n      jump\t// out\n        /* \"@openzeppelin/contracts/access/Ownable.sol\":2912:3099  function _transferOwnership(address newOwner) internal virtual {... */\n    tag_161:\n        /* \"@openzeppelin/contracts/access/Ownable.sol\":2985:3001  address oldOwner */\n      0x00\n        /* \"@openzeppelin/contracts/access/Ownable.sol\":3004:3010  _owner */\n      dup1\n      sload\n      sub(shl(0xa0, 0x01), 0x01)\n        /* \"@openzeppelin/contracts/access/Ownable.sol\":3020:3037  _owner = newOwner */\n      dup4\n      dup2\n      and\n      not(sub(shl(0xa0, 0x01), 0x01))\n      dup4\n      and\n      dup2\n      or\n      dup5\n      sstore\n        /* \"@openzeppelin/contracts/access/Ownable.sol\":3052:3092  OwnershipTransferred(oldOwner, newOwner) */\n      mload(0x40)\n        /* \"@openzeppelin/contracts/access/Ownable.sol\":3004:3010  _owner */\n      swap2\n      swap1\n      swap3\n      and\n      swap3\n      dup4\n      swap2\n        /* \"@openzeppelin/contracts/access/Ownable.sol\":3052:3092  OwnershipTransferred(oldOwner, newOwner) */\n      0x8be0079c531659141344cd1fd0a4f28419497f9722a3daafe3b4186f6b6457e0\n      swap2\n        /* \"@openzeppelin/contracts/access/Ownable.sol\":2985:3001  address oldOwner */\n      swap1\n        /* \"@openzeppelin/contracts/access/Ownable.sol\":3052:3092  OwnershipTransferred(oldOwner, newOwner) */\n      log3\n        /* \"@openzeppelin/contracts/access/Ownable.sol\":2975:3099  {... */\n      pop\n        /* \"@openzeppelin/contracts/access/Ownable.sol\":2912:3099  function _transferOwnership(address newOwner) internal virtual {... */\n      pop\n      jump\t// out\n        /* \"@openzeppelin/contracts/utils/Pausable.sol\":2002:2130  function _requireNotPaused() internal view virtual {... */\n    tag_167:\n        /* \"@openzeppelin/contracts/utils/Pausable.sol\":1920:1927  _paused */\n      and(0xff, sload(0x02))\n        /* \"@openzeppelin/contracts/utils/Pausable.sol\":2063:2124  if (paused()) {... */\n      iszero\n      tag_125\n      jumpi\n        /* \"@openzeppelin/contracts/utils/Pausable.sol\":2098:2113  EnforcedPause() */\n      mload(0x40)\n      shl(0xe0, 0xd93c0665)\n      dup2\n      mstore\n      0x04\n      add\n      mload(0x40)\n      dup1\n      swap2\n      sub\n      swap1\n      revert\n        /* \"@openzeppelin/contracts/utils/ReentrancyGuard.sol\":2575:2882  function _nonReentrantBefore() private {... */\n    tag_170:\n        /* \"@openzeppelin/contracts/utils/ReentrancyGuard.sol\":1899:1900  2 */\n      0x02\n        /* \"@openzeppelin/contracts/utils/ReentrancyGuard.sol\":2702:2709  _status */\n      sload(0x01)\n        /* \"@openzeppelin/contracts/utils/ReentrancyGuard.sol\":2702:2720  _status == ENTERED */\n      sub\n        /* \"@openzeppelin/contracts/utils/ReentrancyGuard.sol\":2698:2784  if (_status == ENTERED) {... */\n      tag_316\n      jumpi\n        /* \"@openzeppelin/contracts/utils/ReentrancyGuard.sol\":2743:2773  ReentrancyGuardReentrantCall() */\n      mload(0x40)\n      shl(0xe0, 0x3ee5aeb5)\n      dup2\n      mstore\n      0x04\n      add\n      mload(0x40)\n      dup1\n      swap2\n      sub\n      swap1\n      revert\n        /* \"@openzeppelin/contracts/utils/ReentrancyGuard.sol\":2698:2784  if (_status == ENTERED) {... */\n    tag_316:\n        /* \"@openzeppelin/contracts/utils/ReentrancyGuard.sol\":1899:1900  2 */\n      0x02\n        /* \"@openzeppelin/contracts/utils/ReentrancyGuard.sol\":2858:2865  _status */\n      0x01\n        /* \"@openzeppelin/contracts/utils/ReentrancyGuard.sol\":2858:2875  _status = ENTERED */\n      sstore\n        /* \"@openzeppelin/contracts/utils/ReentrancyGuard.sol\":2575:2882  function _nonReentrantBefore() private {... */\n      jump\t// out\n        /* \"smart-contract/hardhat/contracts/ClosedSurveyV3.sol\":6842:7426  function rewardParticipant(address participantWalletAddress)... */\n    tag_202:\n        /* \"smart-contract/hardhat/contracts/ClosedSurveyV3.sol\":7054:7085  rewardAmountPerParticipantInWei */\n      sload(0x06)\n        /* \"smart-contract/hardhat/contracts/ClosedSurveyV3.sol\":6989:7095  cUSD.transfer(... */\n      mload(0x40)\n      shl(0xe0, 0xa9059cbb)\n      dup2\n      mstore\n      sub(shl(0xa0, 0x01), 0x01)\n        /* \"#utility.yul\":8420:8452   */\n      dup4\n      dup2\n      and\n        /* \"smart-contract/hardhat/contracts/ClosedSurveyV3.sol\":6989:7095  cUSD.transfer(... */\n      0x04\n      dup4\n      add\n        /* \"#utility.yul\":8402:8453   */\n      mstore\n        /* \"#utility.yul\":8469:8487   */\n      0x24\n      dup3\n      add\n        /* \"#utility.yul\":8462:8496   */\n      swap3\n      swap1\n      swap3\n      mstore\n        /* \"smart-contract/hardhat/contracts/ClosedSurveyV3.sol\":6936:6940  bool */\n      0x00\n      swap2\n      dup3\n      swap2\n        /* \"smart-contract/hardhat/contracts/ClosedSurveyV3.sol\":6989:6993  cUSD */\n      immutable(\"0x4ce4dab4689da140a0c12de1a6af6b8f679594aeb723205f513e052d27f5b26f\")\n        /* \"smart-contract/hardhat/contracts/ClosedSurveyV3.sol\":6989:7002  cUSD.transfer */\n      swap1\n      swap2\n      and\n      swap1\n      0xa9059cbb\n      swap1\n        /* \"#utility.yul\":8375:8393   */\n      0x44\n      add\n        /* \"smart-contract/hardhat/contracts/ClosedSurveyV3.sol\":6989:7095  cUSD.transfer(... */\n      0x20\n      mload(0x40)\n      dup1\n      dup4\n      sub\n      dup2\n      0x00\n      dup8\n      gas\n      call\n      iszero\n      dup1\n      iszero\n      tag_320\n      jumpi\n      returndatasize\n      0x00\n      dup1\n      returndatacopy\n      revert(0x00, returndatasize)\n    tag_320:\n      pop\n      pop\n      pop\n      pop\n      mload(0x40)\n      returndatasize\n      not(0x1f)\n      0x1f\n      dup3\n      add\n      and\n      dup3\n      add\n      dup1\n      0x40\n      mstore\n      pop\n      dup2\n      add\n      swap1\n      tag_321\n      swap2\n      swap1\n      tag_279\n      jump\t// in\n    tag_321:\n        /* \"smart-contract/hardhat/contracts/ClosedSurveyV3.sol\":6956:7095  bool rewardTransferIsSuccesful = cUSD.transfer(... */\n      swap1\n      pop\n        /* \"smart-contract/hardhat/contracts/ClosedSurveyV3.sol\":7110:7135  rewardTransferIsSuccesful */\n      dup1\n        /* \"smart-contract/hardhat/contracts/ClosedSurveyV3.sol\":7106:7377  if (rewardTransferIsSuccesful) {... */\n      iszero\n      tag_322\n      jumpi\n        /* \"smart-contract/hardhat/contracts/ClosedSurveyV3.sol\":7181:7209  numberOfRewardedParticipants */\n      0x08\n        /* \"smart-contract/hardhat/contracts/ClosedSurveyV3.sol\":7179:7209  ++numberOfRewardedParticipants */\n      dup1\n      sload\n      0x01\n      add\n      swap1\n      sstore\n        /* \"smart-contract/hardhat/contracts/ClosedSurveyV3.sol\":7321:7352  rewardAmountPerParticipantInWei */\n      sload(0x06)\n        /* \"smart-contract/hardhat/contracts/ClosedSurveyV3.sol\":7242:7366  ParticipantRewarded(... */\n      0x40\n      dup1\n      mload\n      sub(shl(0xa0, 0x01), 0x01)\n        /* \"#utility.yul\":8420:8452   */\n      dup7\n      and\n        /* \"#utility.yul\":8402:8453   */\n      dup2\n      mstore\n        /* \"#utility.yul\":8484:8486   */\n      0x20\n        /* \"#utility.yul\":8469:8487   */\n      dup2\n      add\n        /* \"#utility.yul\":8462:8496   */\n      swap3\n      swap1\n      swap3\n      mstore\n        /* \"smart-contract/hardhat/contracts/ClosedSurveyV3.sol\":7242:7366  ParticipantRewarded(... */\n      0x8934d7a9692e763e356fd30d84ca5f61a737b35c5ccd5d31d4f140310267b73e\n      swap2\n        /* \"#utility.yul\":8375:8393   */\n      add\n        /* \"smart-contract/hardhat/contracts/ClosedSurveyV3.sol\":7242:7366  ParticipantRewarded(... */\n      mload(0x40)\n      dup1\n      swap2\n      sub\n      swap1\n      log1\n        /* \"smart-contract/hardhat/contracts/ClosedSurveyV3.sol\":7106:7377  if (rewardTransferIsSuccesful) {... */\n    tag_322:\n        /* \"smart-contract/hardhat/contracts/ClosedSurveyV3.sol\":7394:7419  rewardTransferIsSuccesful */\n      swap3\n        /* \"smart-contract/hardhat/contracts/ClosedSurveyV3.sol\":6842:7426  function rewardParticipant(address participantWalletAddress)... */\n      swap2\n      pop\n      pop\n      jump\t// out\n        /* \"smart-contract/hardhat/contracts/ClosedSurveyV3.sol\":6596:6836  function markParticipantAsHavingClaimedReward(... */\n    tag_205:\n      sub(shl(0xa0, 0x01), 0x01)\n        /* \"smart-contract/hardhat/contracts/ClosedSurveyV3.sol\":6708:6754  rewardedParticipants[participantWalletAddress] */\n      dup2\n      and\n      0x00\n      dup2\n      dup2\n      mstore\n        /* \"smart-contract/hardhat/contracts/ClosedSurveyV3.sol\":6708:6728  rewardedParticipants */\n      0x04\n        /* \"smart-contract/hardhat/contracts/ClosedSurveyV3.sol\":6708:6754  rewardedParticipants[participantWalletAddress] */\n      0x20\n      swap1\n      dup2\n      mstore\n      0x40\n      swap2\n      dup3\n      swap1\n      keccak256\n        /* \"smart-contract/hardhat/contracts/ClosedSurveyV3.sol\":6708:6761  rewardedParticipants[participantWalletAddress] = true */\n      dup1\n      sload\n      not(0xff)\n      and\n        /* \"smart-contract/hardhat/contracts/ClosedSurveyV3.sol\":6757:6761  true */\n      0x01\n        /* \"smart-contract/hardhat/contracts/ClosedSurveyV3.sol\":6708:6761  rewardedParticipants[participantWalletAddress] = true */\n      or\n      swap1\n      sstore\n        /* \"smart-contract/hardhat/contracts/ClosedSurveyV3.sol\":6776:6829  ParticipantMarkedAsRewarded(participantWalletAddress) */\n      swap1\n      mload\n        /* \"#utility.yul\":364:415   */\n      swap2\n      dup3\n      mstore\n        /* \"smart-contract/hardhat/contracts/ClosedSurveyV3.sol\":6776:6829  ParticipantMarkedAsRewarded(participantWalletAddress) */\n      0x654c9a027765e6feb862f42d438e9f6948f9ee31113e379f0372b30efc722943\n      swap2\n        /* \"#utility.yul\":337:355   */\n      add\n        /* \"smart-contract/hardhat/contracts/ClosedSurveyV3.sol\":6776:6829  ParticipantMarkedAsRewarded(participantWalletAddress) */\n      mload(0x40)\n      dup1\n      swap2\n      sub\n      swap1\n      log1\n        /* \"smart-contract/hardhat/contracts/ClosedSurveyV3.sol\":6596:6836  function markParticipantAsHavingClaimedReward(... */\n      pop\n      jump\t// out\n        /* \"@openzeppelin/contracts/utils/Pausable.sol\":2463:2578  function _pause() internal virtual whenNotPaused {... */\n    tag_244:\n        /* \"@openzeppelin/contracts/utils/Pausable.sol\":1474:1493  _requireNotPaused() */\n      tag_328\n        /* \"@openzeppelin/contracts/utils/Pausable.sol\":1474:1491  _requireNotPaused */\n      tag_167\n        /* \"@openzeppelin/contracts/utils/Pausable.sol\":1474:1493  _requireNotPaused() */\n      jump\t// in\n    tag_328:\n        /* \"@openzeppelin/contracts/utils/Pausable.sol\":2522:2529  _paused */\n      0x02\n        /* \"@openzeppelin/contracts/utils/Pausable.sol\":2522:2536  _paused = true */\n      dup1\n      sload\n      not(0xff)\n      and\n        /* \"@openzeppelin/contracts/utils/Pausable.sol\":2532:2536  true */\n      0x01\n        /* \"@openzeppelin/contracts/utils/Pausable.sol\":2522:2536  _paused = true */\n      or\n      swap1\n      sstore\n        /* \"@openzeppelin/contracts/utils/Pausable.sol\":2551:2571  Paused(_msgSender()) */\n      0x62e78cea01bee320cd4e420270b5ea74000d11b0c9f74754ebdbfc544b05a258\n        /* \"@openzeppelin/contracts/utils/Pausable.sol\":2558:2570  _msgSender() */\n      tag_309\n        /* \"@openzeppelin/contracts/utils/Context.sol\":735:745  msg.sender */\n      caller\n      swap1\n        /* \"@openzeppelin/contracts/utils/Context.sol\":656:752  function _msgSender() internal view virtual returns (address) {... */\n      jump\n        /* \"@openzeppelin/contracts/utils/Pausable.sol\":2202:2328  function _requirePaused() internal view virtual {... */\n    tag_307:\n        /* \"@openzeppelin/contracts/utils/Pausable.sol\":1920:1927  _paused */\n      and(0xff, sload(0x02))\n        /* \"@openzeppelin/contracts/utils/Pausable.sol\":2260:2322  if (!paused()) {... */\n      tag_125\n      jumpi\n        /* \"@openzeppelin/contracts/utils/Pausable.sol\":2296:2311  ExpectedPause() */\n      mload(0x40)\n      shl(0xe0, 0x8dfc202b)\n      dup2\n      mstore\n      0x04\n      add\n      mload(0x40)\n      dup1\n      swap2\n      sub\n      swap1\n      revert\n        /* \"#utility.yul\":426:606   */\n    tag_52:\n        /* \"#utility.yul\":485:491   */\n      0x00\n        /* \"#utility.yul\":538:540   */\n      0x20\n        /* \"#utility.yul\":526:535   */\n      dup3\n        /* \"#utility.yul\":517:524   */\n      dup5\n        /* \"#utility.yul\":513:536   */\n      sub\n        /* \"#utility.yul\":509:541   */\n      slt\n        /* \"#utility.yul\":506:558   */\n      iszero\n      tag_340\n      jumpi\n        /* \"#utility.yul\":554:555   */\n      0x00\n        /* \"#utility.yul\":551:552   */\n      dup1\n        /* \"#utility.yul\":544:556   */\n      revert\n        /* \"#utility.yul\":506:558   */\n    tag_340:\n      pop\n        /* \"#utility.yul\":577:600   */\n      calldataload\n      swap2\n        /* \"#utility.yul\":426:606   */\n      swap1\n      pop\n      jump\t// out\n        /* \"#utility.yul\":803:1089   */\n    tag_60:\n        /* \"#utility.yul\":862:868   */\n      0x00\n        /* \"#utility.yul\":915:917   */\n      0x20\n        /* \"#utility.yul\":903:912   */\n      dup3\n        /* \"#utility.yul\":894:901   */\n      dup5\n        /* \"#utility.yul\":890:913   */\n      sub\n        /* \"#utility.yul\":886:918   */\n      slt\n        /* \"#utility.yul\":883:935   */\n      iszero\n      tag_343\n      jumpi\n        /* \"#utility.yul\":931:932   */\n      0x00\n        /* \"#utility.yul\":928:929   */\n      dup1\n        /* \"#utility.yul\":921:933   */\n      revert\n        /* \"#utility.yul\":883:935   */\n    tag_343:\n        /* \"#utility.yul\":957:980   */\n      dup2\n      calldataload\n      sub(shl(0xa0, 0x01), 0x01)\n        /* \"#utility.yul\":1009:1040   */\n      dup2\n      and\n        /* \"#utility.yul\":999:1041   */\n      dup2\n      eq\n        /* \"#utility.yul\":989:1059   */\n      tag_344\n      jumpi\n        /* \"#utility.yul\":1055:1056   */\n      0x00\n        /* \"#utility.yul\":1052:1053   */\n      dup1\n        /* \"#utility.yul\":1045:1057   */\n      revert\n        /* \"#utility.yul\":989:1059   */\n    tag_344:\n        /* \"#utility.yul\":1078:1083   */\n      swap4\n        /* \"#utility.yul\":803:1089   */\n      swap3\n      pop\n      pop\n      pop\n      jump\t// out\n        /* \"#utility.yul\":1302:1912   */\n    tag_96:\n        /* \"#utility.yul\":1388:1394   */\n      0x00\n        /* \"#utility.yul\":1396:1402   */\n      dup1\n        /* \"#utility.yul\":1449:1451   */\n      0x20\n        /* \"#utility.yul\":1437:1446   */\n      dup4\n        /* \"#utility.yul\":1428:1435   */\n      dup6\n        /* \"#utility.yul\":1424:1447   */\n      sub\n        /* \"#utility.yul\":1420:1452   */\n      slt\n        /* \"#utility.yul\":1417:1469   */\n      iszero\n      tag_347\n      jumpi\n        /* \"#utility.yul\":1465:1466   */\n      0x00\n        /* \"#utility.yul\":1462:1463   */\n      dup1\n        /* \"#utility.yul\":1455:1467   */\n      revert\n        /* \"#utility.yul\":1417:1469   */\n    tag_347:\n        /* \"#utility.yul\":1505:1514   */\n      dup3\n        /* \"#utility.yul\":1492:1515   */\n      calldataload\n        /* \"#utility.yul\":1538:1556   */\n      0xffffffffffffffff\n        /* \"#utility.yul\":1530:1536   */\n      dup2\n        /* \"#utility.yul\":1527:1557   */\n      gt\n        /* \"#utility.yul\":1524:1574   */\n      iszero\n      tag_348\n      jumpi\n        /* \"#utility.yul\":1570:1571   */\n      0x00\n        /* \"#utility.yul\":1567:1568   */\n      dup1\n        /* \"#utility.yul\":1560:1572   */\n      revert\n        /* \"#utility.yul\":1524:1574   */\n    tag_348:\n        /* \"#utility.yul\":1593:1615   */\n      dup4\n      add\n        /* \"#utility.yul\":1646:1650   */\n      0x1f\n        /* \"#utility.yul\":1638:1651   */\n      dup2\n      add\n        /* \"#utility.yul\":1634:1661   */\n      dup6\n      sgt\n        /* \"#utility.yul\":1624:1679   */\n      tag_349\n      jumpi\n        /* \"#utility.yul\":1675:1676   */\n      0x00\n        /* \"#utility.yul\":1672:1673   */\n      dup1\n        /* \"#utility.yul\":1665:1677   */\n      revert\n        /* \"#utility.yul\":1624:1679   */\n    tag_349:\n        /* \"#utility.yul\":1715:1717   */\n      dup1\n        /* \"#utility.yul\":1702:1718   */\n      calldataload\n        /* \"#utility.yul\":1741:1759   */\n      0xffffffffffffffff\n        /* \"#utility.yul\":1733:1739   */\n      dup2\n        /* \"#utility.yul\":1730:1760   */\n      gt\n        /* \"#utility.yul\":1727:1777   */\n      iszero\n      tag_350\n      jumpi\n        /* \"#utility.yul\":1773:1774   */\n      0x00\n        /* \"#utility.yul\":1770:1771   */\n      dup1\n        /* \"#utility.yul\":1763:1775   */\n      revert\n        /* \"#utility.yul\":1727:1777   */\n    tag_350:\n        /* \"#utility.yul\":1826:1833   */\n      dup6\n        /* \"#utility.yul\":1821:1823   */\n      0x20\n        /* \"#utility.yul\":1811:1817   */\n      dup3\n        /* \"#utility.yul\":1808:1809   */\n      0x05\n        /* \"#utility.yul\":1804:1818   */\n      shl\n        /* \"#utility.yul\":1800:1802   */\n      dup5\n        /* \"#utility.yul\":1796:1819   */\n      add\n        /* \"#utility.yul\":1792:1824   */\n      add\n        /* \"#utility.yul\":1789:1834   */\n      gt\n        /* \"#utility.yul\":1786:1851   */\n      iszero\n      tag_351\n      jumpi\n        /* \"#utility.yul\":1847:1848   */\n      0x00\n        /* \"#utility.yul\":1844:1845   */\n      dup1\n        /* \"#utility.yul\":1837:1849   */\n      revert\n        /* \"#utility.yul\":1786:1851   */\n    tag_351:\n        /* \"#utility.yul\":1878:1880   */\n      0x20\n        /* \"#utility.yul\":1870:1881   */\n      swap2\n      swap1\n      swap2\n      add\n      swap6\n        /* \"#utility.yul\":1900:1906   */\n      swap1\n      swap5\n      pop\n        /* \"#utility.yul\":1302:1912   */\n      swap3\n      pop\n      pop\n      pop\n      jump\t// out\n        /* \"#utility.yul\":1917:2554   */\n    tag_99:\n        /* \"#utility.yul\":2107:2109   */\n      0x20\n        /* \"#utility.yul\":2119:2140   */\n      dup1\n      dup3\n      mstore\n        /* \"#utility.yul\":2189:2202   */\n      dup3\n      mload\n        /* \"#utility.yul\":2092:2110   */\n      dup3\n      dup3\n      add\n        /* \"#utility.yul\":2211:2233   */\n      dup2\n      swap1\n      mstore\n        /* \"#utility.yul\":2059:2063   */\n      0x00\n      swap2\n        /* \"#utility.yul\":2290:2305   */\n      dup5\n      add\n      swap1\n        /* \"#utility.yul\":2264:2266   */\n      0x40\n        /* \"#utility.yul\":2249:2267   */\n      dup5\n      add\n      swap1\n        /* \"#utility.yul\":2059:2063   */\n      dup4\n        /* \"#utility.yul\":2333:2528   */\n    tag_353:\n        /* \"#utility.yul\":2347:2353   */\n      dup2\n        /* \"#utility.yul\":2344:2345   */\n      dup2\n        /* \"#utility.yul\":2341:2354   */\n      lt\n        /* \"#utility.yul\":2333:2528   */\n      iszero\n      tag_355\n      jumpi\n        /* \"#utility.yul\":2412:2425   */\n      dup4\n      mload\n      sub(shl(0xa0, 0x01), 0x01)\n        /* \"#utility.yul\":2408:2447   */\n      and\n        /* \"#utility.yul\":2396:2448   */\n      dup4\n      mstore\n        /* \"#utility.yul\":2477:2479   */\n      0x20\n        /* \"#utility.yul\":2503:2518   */\n      swap4\n      dup5\n      add\n      swap4\n        /* \"#utility.yul\":2468:2480   */\n      swap1\n      swap3\n      add\n      swap2\n        /* \"#utility.yul\":2444:2445   */\n      0x01\n        /* \"#utility.yul\":2362:2371   */\n      add\n        /* \"#utility.yul\":2333:2528   */\n      jump(tag_353)\n    tag_355:\n      pop\n        /* \"#utility.yul\":2545:2548   */\n      swap1\n      swap6\n        /* \"#utility.yul\":1917:2554   */\n      swap5\n      pop\n      pop\n      pop\n      pop\n      pop\n      jump\t// out\n        /* \"#utility.yul\":3569:3912   */\n    tag_145:\n        /* \"#utility.yul\":3771:3773   */\n      0x20\n        /* \"#utility.yul\":3753:3774   */\n      dup1\n      dup3\n      mstore\n        /* \"#utility.yul\":3810:3812   */\n      0x13\n        /* \"#utility.yul\":3790:3808   */\n      swap1\n      dup3\n      add\n        /* \"#utility.yul\":3783:3813   */\n      mstore\n      shl(0x6a, 0x16995c9bc81859191c995cdcc81c185cdcd959)\n        /* \"#utility.yul\":3844:3846   */\n      0x40\n        /* \"#utility.yul\":3829:3847   */\n      dup3\n      add\n        /* \"#utility.yul\":3822:3871   */\n      mstore\n        /* \"#utility.yul\":3903:3905   */\n      0x60\n        /* \"#utility.yul\":3888:3906   */\n      add\n      swap1\n        /* \"#utility.yul\":3569:3912   */\n      jump\t// out\n        /* \"#utility.yul\":4270:4454   */\n    tag_176:\n        /* \"#utility.yul\":4340:4346   */\n      0x00\n        /* \"#utility.yul\":4393:4395   */\n      0x20\n        /* \"#utility.yul\":4381:4390   */\n      dup3\n        /* \"#utility.yul\":4372:4379   */\n      dup5\n        /* \"#utility.yul\":4368:4391   */\n      sub\n        /* \"#utility.yul\":4364:4396   */\n      slt\n        /* \"#utility.yul\":4361:4413   */\n      iszero\n      tag_362\n      jumpi\n        /* \"#utility.yul\":4409:4410   */\n      0x00\n        /* \"#utility.yul\":4406:4407   */\n      dup1\n        /* \"#utility.yul\":4399:4411   */\n      revert\n        /* \"#utility.yul\":4361:4413   */\n    tag_362:\n      pop\n        /* \"#utility.yul\":4432:4448   */\n      mload\n      swap2\n        /* \"#utility.yul\":4270:4454   */\n      swap1\n      pop\n      jump\t// out\n        /* \"#utility.yul\":7015:7142   */\n    tag_217:\n        /* \"#utility.yul\":7076:7086   */\n      0x4e487b71\n        /* \"#utility.yul\":7071:7074   */\n      0xe0\n        /* \"#utility.yul\":7067:7087   */\n      shl\n        /* \"#utility.yul\":7064:7065   */\n      0x00\n        /* \"#utility.yul\":7057:7088   */\n      mstore\n        /* \"#utility.yul\":7107:7111   */\n      0x32\n        /* \"#utility.yul\":7104:7105   */\n      0x04\n        /* \"#utility.yul\":7097:7112   */\n      mstore\n        /* \"#utility.yul\":7131:7135   */\n      0x24\n        /* \"#utility.yul\":7128:7129   */\n      0x00\n        /* \"#utility.yul\":7121:7136   */\n      revert\n        /* \"#utility.yul\":7147:7379   */\n    tag_221:\n        /* \"#utility.yul\":7186:7189   */\n      0x00\n        /* \"#utility.yul\":7207:7224   */\n      0x01\n      dup3\n      add\n        /* \"#utility.yul\":7204:7344   */\n      tag_372\n      jumpi\n        /* \"#utility.yul\":7266:7276   */\n      0x4e487b71\n        /* \"#utility.yul\":7261:7264   */\n      0xe0\n        /* \"#utility.yul\":7257:7277   */\n      shl\n        /* \"#utility.yul\":7254:7255   */\n      0x00\n        /* \"#utility.yul\":7247:7278   */\n      mstore\n        /* \"#utility.yul\":7301:7305   */\n      0x11\n        /* \"#utility.yul\":7298:7299   */\n      0x04\n        /* \"#utility.yul\":7291:7306   */\n      mstore\n        /* \"#utility.yul\":7329:7333   */\n      0x24\n        /* \"#utility.yul\":7326:7327   */\n      0x00\n        /* \"#utility.yul\":7319:7334   */\n      revert\n        /* \"#utility.yul\":7204:7344   */\n    tag_372:\n      pop\n        /* \"#utility.yul\":7371:7372   */\n      0x01\n        /* \"#utility.yul\":7360:7373   */\n      add\n      swap1\n        /* \"#utility.yul\":7147:7379   */\n      jump\t// out\n        /* \"#utility.yul\":7384:7511   */\n    tag_224:\n        /* \"#utility.yul\":7445:7455   */\n      0x4e487b71\n        /* \"#utility.yul\":7440:7443   */\n      0xe0\n        /* \"#utility.yul\":7436:7456   */\n      shl\n        /* \"#utility.yul\":7433:7434   */\n      0x00\n        /* \"#utility.yul\":7426:7457   */\n      mstore\n        /* \"#utility.yul\":7476:7480   */\n      0x41\n        /* \"#utility.yul\":7473:7474   */\n      0x04\n        /* \"#utility.yul\":7466:7481   */\n      mstore\n        /* \"#utility.yul\":7500:7504   */\n      0x24\n        /* \"#utility.yul\":7497:7498   */\n      0x00\n        /* \"#utility.yul\":7490:7505   */\n      revert\n        /* \"#utility.yul\":8507:8784   */\n    tag_279:\n        /* \"#utility.yul\":8574:8580   */\n      0x00\n        /* \"#utility.yul\":8627:8629   */\n      0x20\n        /* \"#utility.yul\":8615:8624   */\n      dup3\n        /* \"#utility.yul\":8606:8613   */\n      dup5\n        /* \"#utility.yul\":8602:8625   */\n      sub\n        /* \"#utility.yul\":8598:8630   */\n      slt\n        /* \"#utility.yul\":8595:8647   */\n      iszero\n      tag_378\n      jumpi\n        /* \"#utility.yul\":8643:8644   */\n      0x00\n        /* \"#utility.yul\":8640:8641   */\n      dup1\n        /* \"#utility.yul\":8633:8645   */\n      revert\n        /* \"#utility.yul\":8595:8647   */\n    tag_378:\n        /* \"#utility.yul\":8675:8684   */\n      dup2\n        /* \"#utility.yul\":8669:8685   */\n      mload\n        /* \"#utility.yul\":8728:8733   */\n      dup1\n        /* \"#utility.yul\":8721:8734   */\n      iszero\n        /* \"#utility.yul\":8714:8735   */\n      iszero\n        /* \"#utility.yul\":8707:8712   */\n      dup2\n        /* \"#utility.yul\":8704:8736   */\n      eq\n        /* \"#utility.yul\":8694:8754   */\n      tag_344\n      jumpi\n        /* \"#utility.yul\":8750:8751   */\n      0x00\n        /* \"#utility.yul\":8747:8748   */\n      dup1\n        /* \"#utility.yul\":8740:8752   */\n      revert\n\n    auxdata: 0xa2646970667358221220bc3e82c2a5433e833c7e427577ce2b37512ca25b458a3258e64c9c5ed78d759464736f6c634300081c0033\n}\n",
				"bytecode": {
					"linkReferences": {},
					"object": "60a060405234801561001057600080fd5b506040516117a53803806117a583398101604081905261002f9161027f565b836001600160a01b03811661005f57604051631e4fbdf760e01b8152600060048201526024015b60405180910390fd5b61006881610213565b50600180556002805460ff191690556001600160a01b0381166100dd5760405162461bcd60e51b815260206004820152602760248201527f5a65726f206164647265737320676976656e20666f722063555344546f6b656e6044820152664164647265737360c81b6064820152608401610056565b6001600160a01b03841661014a5760405162461bcd60e51b815260206004820152602e60248201527f5a65726f206164647265737320676976656e20666f722072657365617263686560448201526d7257616c6c65744164647265737360901b6064820152608401610056565b6000831161019a5760405162461bcd60e51b815260206004820152601560248201527f496e76616c69642072657761726420616d6f756e7400000000000000000000006044820152606401610056565b600082116101f85760405162461bcd60e51b815260206004820152602560248201527f496e76616c6964206e756d626572206f6620746172676574207061727469636960448201526470616e747360d81b6064820152608401610056565b6001600160a01b0316608052600691909155600755506102c6565b600080546001600160a01b038381166001600160a01b0319831681178455604051919092169283917f8be0079c531659141344cd1fd0a4f28419497f9722a3daafe3b4186f6b6457e09190a35050565b80516001600160a01b038116811461027a57600080fd5b919050565b6000806000806080858703121561029557600080fd5b61029e85610263565b60208601516040870151919550935091506102bb60608601610263565b905092959194509250565b6080516114a1610304600039600081816101b40152818161062f01528181610c4a01528181610d2201528181610d9b015261111d01526114a16000f3fe608060405234801561001057600080fd5b506004361061018e5760003560e01c8063741ae614116100de578063a6a0981111610097578063ea1dd10111610071578063ea1dd1011461035c578063f22069df1461036f578063f2fde38b14610377578063f67ae9411461038a57600080fd5b8063a6a098111461031f578063d4bfbd4114610328578063e082fe2a1461035457600080fd5b8063741ae6141461029d5780637a0abf08146102a55780638c0a0966146102ae5780638da5cb5b146102db578063a0858343146102ec578063a0ca86a3146102ff57600080fd5b80635c975abb1161014b5780636fa1c59d116101255780636fa1c59d146102595780636ff65c20146102615780637069243c1461028d578063715018a61461029557600080fd5b80635c975abb1461021c57806364751f221461023357806364bb632f1461024657600080fd5b8063047bc438146101935780631fccf672146101af57806328a2355b146101ee5780633960fc66146101f65780634074be4014610200578063528780cc14610209575b600080fd5b61019c60095481565b6040519081526020015b60405180910390f35b6101d67f000000000000000000000000000000000000000000000000000000000000000081565b6040516001600160a01b0390911681526020016101a6565b60095461019c565b6101fe61039d565b005b61019c600a5481565b6101fe6102173660046112a4565b6103af565b60025460ff165b60405190151581526020016101a6565b6101fe6102413660046112bd565b610466565b6101fe6102543660046112a4565b61055d565b60075461019c565b61022361026f3660046112bd565b6001600160a01b031660009081526004602052604090205460ff1690565b60065461019c565b6101fe6105f5565b60085461019c565b61019c60065481565b6102236102bc3660046112bd565b6001600160a01b031660009081526003602052604090205460ff161590565b6000546001600160a01b03166101d6565b6101fe6102fa3660046112bd565b610607565b61031261030d3660046112ed565b610901565b6040516101a69190611364565b61019c60075481565b6102236103363660046112bd565b6001600160a01b031660009081526003602052604090205460ff1690565b6101fe610ad4565b6101fe61036a3660046112bd565b610ae4565b6101fe610c22565b6101fe6103853660046112bd565b610ea8565b6101fe6103983660046112bd565b610ee3565b6103a5610fd1565b6103ad610ffe565b565b6103b7610fd1565b8060000361041d5760405162461bcd60e51b815260206004820152602860248201527f5a65726f206e756d626572206f6620746172676574207061727469636970616e6044820152673a399033b4bb32b760c11b60648201526084015b60405180910390fd5b6007805490829055604080518281526020810184905283917fb90f11d36a1f2ec1f3b89ac87ccd1ffab1a49f3e3ca83cfdac21fd99a537cbc191015b60405180910390a1505050565b61046e610fd1565b6001600160a01b038116600090815260036020526040902054819060ff16156104cf5760405162461bcd60e51b8152602060048201526013602482015272135d5cdd08189948189b1858dadb1a5cdd1959606a1b6044820152606401610414565b6001600160a01b0382166104f55760405162461bcd60e51b8152600401610414906113b0565b6001600160a01b038216600081815260036020908152604091829020805460ff1916600190811790915560098054909101905590519182527f84608224e0456ec7c9063f8dfd347a891979e08cb0c7d7dae9bad7bd5edb7f3691015b60405180910390a15050565b610565610fd1565b806000036105b55760405162461bcd60e51b815260206004820152601860248201527f5a65726f2072657761726420616d6f756e7420676976656e00000000000000006044820152606401610414565b6006805490829055604080518281526020810184905283917ff0d37c3ae852021ac329281f604b658691cbfa6b9e9c22909f06b64a8ce87c949101610459565b6105fd610fd1565b6103ad6000611050565b61060f6110a0565b6106176110c4565b6006546040516370a0823160e01b81523060048201527f00000000000000000000000000000000000000000000000000000000000000006001600160a01b0316906370a0823190602401602060405180830381865afa15801561067e573d6000803e3d6000fd5b505050506040513d601f19601f820116820180604052508101906106a291906113dd565b10156106fb5760405162461bcd60e51b815260206004820152602260248201527f436f6e747261637420646f6573206e6f74206861766520656e6f75676820635560448201526114d160f21b6064820152608401610414565b6007546008541061075a5760405162461bcd60e51b815260206004820152602360248201527f416c6c207061727469636970616e74732068617665206265656e20726577617260448201526219195960ea1b6064820152608401610414565b80336001600160a01b038216146107a75760405162461bcd60e51b815260206004820152601160248201527027b7363c903b30b634b21039b2b73232b960791b6044820152606401610414565b6001600160a01b038216600090815260036020526040902054829060ff1661080c5760405162461bcd60e51b81526020600482015260186024820152774f6e6c792077686974656c6973746564206164647265737360401b6044820152606401610414565b6001600160a01b038316600090815260046020526040902054839060ff16156108775760405162461bcd60e51b815260206004820152601c60248201527f5061727469636970616e7420616c7265616479207265776172646564000000006044820152606401610414565b6001600160a01b038416600090815260056020526040902054849060ff166108d45760405162461bcd60e51b815260206004820152601060248201526f135d5cdd081899481cd8dc99595b995960821b6044820152606401610414565b60006108df866110ee565b905080156108f0576108f0866111ea565b50505050506108fe60018055565b50565b606081600081900361094b5760405162461bcd60e51b8152602060048201526013602482015272139bc81859191c995cdcd95cc81c185cdcd959606a1b6044820152606401610414565b6000805b828110156109ba576003600087878481811061096d5761096d6113f6565b905060200201602081019061098291906112bd565b6001600160a01b0316815260208101919091526040016000205460ff16156109b257816109ae8161140c565b9250505b60010161094f565b5060008167ffffffffffffffff8111156109d6576109d6611433565b6040519080825280602002602001820160405280156109ff578160200160208202803683370190505b5090506000805b84811015610ac85760036000898984818110610a2457610a246113f6565b9050602002016020810190610a3991906112bd565b6001600160a01b0316815260208101919091526040016000205460ff1615610ac057878782818110610a6d57610a6d6113f6565b9050602002016020810190610a8291906112bd565b8383610a8d8161140c565b945081518110610a9f57610a9f6113f6565b60200260200101906001600160a01b031690816001600160a01b0316815250505b600101610a06565b50909695505050505050565b610adc610fd1565b6103ad611244565b80336001600160a01b03821614610b315760405162461bcd60e51b815260206004820152601160248201527027b7363c903b30b634b21039b2b73232b960791b6044820152606401610414565b6001600160a01b038216600090815260056020526040902054829060ff1615610b9c5760405162461bcd60e51b815260206004820152601760248201527f4f6e6c7920756e73637265656e656420616464726573730000000000000000006044820152606401610414565b6001600160a01b038316610bc25760405162461bcd60e51b8152600401610414906113b0565b6001600160a01b038316600081815260056020908152604091829020805460ff19166001908117909155600a8054909101905590519182527fc4ec7a2dc5e72d17666a15570e438638bfc023a7a091df162b669c37198bacb29101610459565b610c2a610fd1565b610c326110a0565b6040516370a0823160e01b81523060048201526000907f00000000000000000000000000000000000000000000000000000000000000006001600160a01b0316906370a0823190602401602060405180830381865afa158015610c99573d6000803e3d6000fd5b505050506040513d601f19601f82011682018060405250810190610cbd91906113dd565b11610d0a5760405162461bcd60e51b815260206004820152601f60248201527f436f6e747261637420646f6573206e6f74206861766520616e792063555344006044820152606401610414565b6040516370a0823160e01b81523060048201526000907f00000000000000000000000000000000000000000000000000000000000000006001600160a01b0316906370a0823190602401602060405180830381865afa158015610d71573d6000803e3d6000fd5b505050506040513d601f19601f82011682018060405250810190610d9591906113dd565b905060007f00000000000000000000000000000000000000000000000000000000000000006001600160a01b031663a9059cbb610dda6000546001600160a01b031690565b6040516001600160e01b031960e084901b1681526001600160a01b039091166004820152602481018590526044016020604051808303816000875af1158015610e27573d6000803e3d6000fd5b505050506040513d601f19601f82011682018060405250810190610e4b9190611449565b90508015610ea4577f2036b9b38b69a2fa490ee702733a29cd2550accc20bc96e786cb9beedc779097610e866000546001600160a01b031690565b604080516001600160a01b0390921682526020820185905201610551565b5050565b610eb0610fd1565b6001600160a01b038116610eda57604051631e4fbdf760e01b815260006004820152602401610414565b6108fe81611050565b610eeb610fd1565b6001600160a01b038116600090815260036020526040902054819060ff16610f505760405162461bcd60e51b81526020600482015260186024820152774f6e6c792077686974656c6973746564206164647265737360401b6044820152606401610414565b6001600160a01b038216610f765760405162461bcd60e51b8152600401610414906113b0565b6001600160a01b038216600081815260036020908152604091829020805460ff191690556009805460001901905590519182527f9a3420c1085262889090de7fb2f9c9d1d7c8d69f895b7cd37074650958bc99e69101610551565b6000546001600160a01b031633146103ad5760405163118cdaa760e01b8152336004820152602401610414565b611006611281565b6002805460ff191690557f5db9ee0a495bf2e6ff9c91a7834c1ba4fdd244a5e8aa4e537bd38aeae4b073aa335b6040516001600160a01b03909116815260200160405180910390a1565b600080546001600160a01b038381166001600160a01b0319831681178455604051919092169283917f8be0079c531659141344cd1fd0a4f28419497f9722a3daafe3b4186f6b6457e09190a35050565b60025460ff16156103ad5760405163d93c066560e01b815260040160405180910390fd5b6002600154036110e757604051633ee5aeb560e01b815260040160405180910390fd5b6002600155565b60065460405163a9059cbb60e01b81526001600160a01b038381166004830152602482019290925260009182917f00000000000000000000000000000000000000000000000000000000000000009091169063a9059cbb906044016020604051808303816000875af1158015611168573d6000803e3d6000fd5b505050506040513d601f19601f8201168201806040525081019061118c9190611449565b905080156111e457600880546001019055600654604080516001600160a01b038616815260208101929092527f8934d7a9692e763e356fd30d84ca5f61a737b35c5ccd5d31d4f140310267b73e910160405180910390a15b92915050565b6001600160a01b038116600081815260046020908152604091829020805460ff1916600117905590519182527f654c9a027765e6feb862f42d438e9f6948f9ee31113e379f0372b30efc722943910160405180910390a150565b61124c6110a0565b6002805460ff191660011790557f62e78cea01bee320cd4e420270b5ea74000d11b0c9f74754ebdbfc544b05a2586110333390565b60025460ff166103ad57604051638dfc202b60e01b815260040160405180910390fd5b6000602082840312156112b657600080fd5b5035919050565b6000602082840312156112cf57600080fd5b81356001600160a01b03811681146112e657600080fd5b9392505050565b6000806020838503121561130057600080fd5b823567ffffffffffffffff81111561131757600080fd5b8301601f8101851361132857600080fd5b803567ffffffffffffffff81111561133f57600080fd5b8560208260051b840101111561135457600080fd5b6020919091019590945092505050565b602080825282518282018190526000918401906040840190835b818110156113a55783516001600160a01b031683526020938401939092019160010161137e565b509095945050505050565b60208082526013908201527216995c9bc81859191c995cdcc81c185cdcd959606a1b604082015260600190565b6000602082840312156113ef57600080fd5b5051919050565b634e487b7160e01b600052603260045260246000fd5b60006001820161142c57634e487b7160e01b600052601160045260246000fd5b5060010190565b634e487b7160e01b600052604160045260246000fd5b60006020828403121561145b57600080fd5b815180151581146112e657600080fdfea2646970667358221220bc3e82c2a5433e833c7e427577ce2b37512ca25b458a3258e64c9c5ed78d759464736f6c634300081c0033",
					"opcodes": "PUSH1 0xA0 PUSH1 0x40 MSTORE CALLVALUE DUP1 ISZERO PUSH2 0x10 JUMPI PUSH1 0x0 DUP1 REVERT JUMPDEST POP PUSH1 0x40 MLOAD PUSH2 0x17A5 CODESIZE SUB DUP1 PUSH2 0x17A5 DUP4 CODECOPY DUP2 ADD PUSH1 0x40 DUP2 SWAP1 MSTORE PUSH2 0x2F SWAP2 PUSH2 0x27F JUMP JUMPDEST DUP4 PUSH1 0x1 PUSH1 0x1 PUSH1 0xA0 SHL SUB DUP2 AND PUSH2 0x5F JUMPI PUSH1 0x40 MLOAD PUSH4 0x1E4FBDF7 PUSH1 0xE0 SHL DUP2 MSTORE PUSH1 0x0 PUSH1 0x4 DUP3 ADD MSTORE PUSH1 0x24 ADD JUMPDEST PUSH1 0x40 MLOAD DUP1 SWAP2 SUB SWAP1 REVERT JUMPDEST PUSH2 0x68 DUP2 PUSH2 0x213 JUMP JUMPDEST POP PUSH1 0x1 DUP1 SSTORE PUSH1 0x2 DUP1 SLOAD PUSH1 0xFF NOT AND SWAP1 SSTORE PUSH1 0x1 PUSH1 0x1 PUSH1 0xA0 SHL SUB DUP2 AND PUSH2 0xDD JUMPI PUSH1 0x40 MLOAD PUSH3 0x461BCD PUSH1 0xE5 SHL DUP2 MSTORE PUSH1 0x20 PUSH1 0x4 DUP3 ADD MSTORE PUSH1 0x27 PUSH1 0x24 DUP3 ADD MSTORE PUSH32 0x5A65726F206164647265737320676976656E20666F722063555344546F6B656E PUSH1 0x44 DUP3 ADD MSTORE PUSH7 0x41646472657373 PUSH1 0xC8 SHL PUSH1 0x64 DUP3 ADD MSTORE PUSH1 0x84 ADD PUSH2 0x56 JUMP JUMPDEST PUSH1 0x1 PUSH1 0x1 PUSH1 0xA0 SHL SUB DUP5 AND PUSH2 0x14A JUMPI PUSH1 0x40 MLOAD PUSH3 0x461BCD PUSH1 0xE5 SHL DUP2 MSTORE PUSH1 0x20 PUSH1 0x4 DUP3 ADD MSTORE PUSH1 0x2E PUSH1 0x24 DUP3 ADD MSTORE PUSH32 0x5A65726F206164647265737320676976656E20666F7220726573656172636865 PUSH1 0x44 DUP3 ADD MSTORE PUSH14 0x7257616C6C657441646472657373 PUSH1 0x90 SHL PUSH1 0x64 DUP3 ADD MSTORE PUSH1 0x84 ADD PUSH2 0x56 JUMP JUMPDEST PUSH1 0x0 DUP4 GT PUSH2 0x19A JUMPI PUSH1 0x40 MLOAD PUSH3 0x461BCD PUSH1 0xE5 SHL DUP2 MSTORE PUSH1 0x20 PUSH1 0x4 DUP3 ADD MSTORE PUSH1 0x15 PUSH1 0x24 DUP3 ADD MSTORE PUSH32 0x496E76616C69642072657761726420616D6F756E740000000000000000000000 PUSH1 0x44 DUP3 ADD MSTORE PUSH1 0x64 ADD PUSH2 0x56 JUMP JUMPDEST PUSH1 0x0 DUP3 GT PUSH2 0x1F8 JUMPI PUSH1 0x40 MLOAD PUSH3 0x461BCD PUSH1 0xE5 SHL DUP2 MSTORE PUSH1 0x20 PUSH1 0x4 DUP3 ADD MSTORE PUSH1 0x25 PUSH1 0x24 DUP3 ADD MSTORE PUSH32 0x496E76616C6964206E756D626572206F66207461726765742070617274696369 PUSH1 0x44 DUP3 ADD MSTORE PUSH5 0x70616E7473 PUSH1 0xD8 SHL PUSH1 0x64 DUP3 ADD MSTORE PUSH1 0x84 ADD PUSH2 0x56 JUMP JUMPDEST PUSH1 0x1 PUSH1 0x1 PUSH1 0xA0 SHL SUB AND PUSH1 0x80 MSTORE PUSH1 0x6 SWAP2 SWAP1 SWAP2 SSTORE PUSH1 0x7 SSTORE POP PUSH2 0x2C6 JUMP JUMPDEST PUSH1 0x0 DUP1 SLOAD PUSH1 0x1 PUSH1 0x1 PUSH1 0xA0 SHL SUB DUP4 DUP2 AND PUSH1 0x1 PUSH1 0x1 PUSH1 0xA0 SHL SUB NOT DUP4 AND DUP2 OR DUP5 SSTORE PUSH1 0x40 MLOAD SWAP2 SWAP1 SWAP3 AND SWAP3 DUP4 SWAP2 PUSH32 0x8BE0079C531659141344CD1FD0A4F28419497F9722A3DAAFE3B4186F6B6457E0 SWAP2 SWAP1 LOG3 POP POP JUMP JUMPDEST DUP1 MLOAD PUSH1 0x1 PUSH1 0x1 PUSH1 0xA0 SHL SUB DUP2 AND DUP2 EQ PUSH2 0x27A JUMPI PUSH1 0x0 DUP1 REVERT JUMPDEST SWAP2 SWAP1 POP JUMP JUMPDEST PUSH1 0x0 DUP1 PUSH1 0x0 DUP1 PUSH1 0x80 DUP6 DUP8 SUB SLT ISZERO PUSH2 0x295 JUMPI PUSH1 0x0 DUP1 REVERT JUMPDEST PUSH2 0x29E DUP6 PUSH2 0x263 JUMP JUMPDEST PUSH1 0x20 DUP7 ADD MLOAD PUSH1 0x40 DUP8 ADD MLOAD SWAP2 SWAP6 POP SWAP4 POP SWAP2 POP PUSH2 0x2BB PUSH1 0x60 DUP7 ADD PUSH2 0x263 JUMP JUMPDEST SWAP1 POP SWAP3 SWAP6 SWAP2 SWAP5 POP SWAP3 POP JUMP JUMPDEST PUSH1 0x80 MLOAD PUSH2 0x14A1 PUSH2 0x304 PUSH1 0x0 CODECOPY PUSH1 0x0 DUP2 DUP2 PUSH2 0x1B4 ADD MSTORE DUP2 DUP2 PUSH2 0x62F ADD MSTORE DUP2 DUP2 PUSH2 0xC4A ADD MSTORE DUP2 DUP2 PUSH2 0xD22 ADD MSTORE DUP2 DUP2 PUSH2 0xD9B ADD MSTORE PUSH2 0x111D ADD MSTORE PUSH2 0x14A1 PUSH1 0x0 RETURN INVALID PUSH1 0x80 PUSH1 0x40 MSTORE CALLVALUE DUP1 ISZERO PUSH2 0x10 JUMPI PUSH1 0x0 DUP1 REVERT JUMPDEST POP PUSH1 0x4 CALLDATASIZE LT PUSH2 0x18E JUMPI PUSH1 0x0 CALLDATALOAD PUSH1 0xE0 SHR DUP1 PUSH4 0x741AE614 GT PUSH2 0xDE JUMPI DUP1 PUSH4 0xA6A09811 GT PUSH2 0x97 JUMPI DUP1 PUSH4 0xEA1DD101 GT PUSH2 0x71 JUMPI DUP1 PUSH4 0xEA1DD101 EQ PUSH2 0x35C JUMPI DUP1 PUSH4 0xF22069DF EQ PUSH2 0x36F JUMPI DUP1 PUSH4 0xF2FDE38B EQ PUSH2 0x377 JUMPI DUP1 PUSH4 0xF67AE941 EQ PUSH2 0x38A JUMPI PUSH1 0x0 DUP1 REVERT JUMPDEST DUP1 PUSH4 0xA6A09811 EQ PUSH2 0x31F JUMPI DUP1 PUSH4 0xD4BFBD41 EQ PUSH2 0x328 JUMPI DUP1 PUSH4 0xE082FE2A EQ PUSH2 0x354 JUMPI PUSH1 0x0 DUP1 REVERT JUMPDEST DUP1 PUSH4 0x741AE614 EQ PUSH2 0x29D JUMPI DUP1 PUSH4 0x7A0ABF08 EQ PUSH2 0x2A5 JUMPI DUP1 PUSH4 0x8C0A0966 EQ PUSH2 0x2AE JUMPI DUP1 PUSH4 0x8DA5CB5B EQ PUSH2 0x2DB JUMPI DUP1 PUSH4 0xA0858343 EQ PUSH2 0x2EC JUMPI DUP1 PUSH4 0xA0CA86A3 EQ PUSH2 0x2FF JUMPI PUSH1 0x0 DUP1 REVERT JUMPDEST DUP1 PUSH4 0x5C975ABB GT PUSH2 0x14B JUMPI DUP1 PUSH4 0x6FA1C59D GT PUSH2 0x125 JUMPI DUP1 PUSH4 0x6FA1C59D EQ PUSH2 0x259 JUMPI DUP1 PUSH4 0x6FF65C20 EQ PUSH2 0x261 JUMPI DUP1 PUSH4 0x7069243C EQ PUSH2 0x28D JUMPI DUP1 PUSH4 0x715018A6 EQ PUSH2 0x295 JUMPI PUSH1 0x0 DUP1 REVERT JUMPDEST DUP1 PUSH4 0x5C975ABB EQ PUSH2 0x21C JUMPI DUP1 PUSH4 0x64751F22 EQ PUSH2 0x233 JUMPI DUP1 PUSH4 0x64BB632F EQ PUSH2 0x246 JUMPI PUSH1 0x0 DUP1 REVERT JUMPDEST DUP1 PUSH4 0x47BC438 EQ PUSH2 0x193 JUMPI DUP1 PUSH4 0x1FCCF672 EQ PUSH2 0x1AF JUMPI DUP1 PUSH4 0x28A2355B EQ PUSH2 0x1EE JUMPI DUP1 PUSH4 0x3960FC66 EQ PUSH2 0x1F6 JUMPI DUP1 PUSH4 0x4074BE40 EQ PUSH2 0x200 JUMPI DUP1 PUSH4 0x528780CC EQ PUSH2 0x209 JUMPI JUMPDEST PUSH1 0x0 DUP1 REVERT JUMPDEST PUSH2 0x19C PUSH1 0x9 SLOAD DUP2 JUMP JUMPDEST PUSH1 0x40 MLOAD SWAP1 DUP2 MSTORE PUSH1 0x20 ADD JUMPDEST PUSH1 0x40 MLOAD DUP1 SWAP2 SUB SWAP1 RETURN JUMPDEST PUSH2 0x1D6 PUSH32 0x0 DUP2 JUMP JUMPDEST PUSH1 0x40 MLOAD PUSH1 0x1 PUSH1 0x1 PUSH1 0xA0 SHL SUB SWAP1 SWAP2 AND DUP2 MSTORE PUSH1 0x20 ADD PUSH2 0x1A6 JUMP JUMPDEST PUSH1 0x9 SLOAD PUSH2 0x19C JUMP JUMPDEST PUSH2 0x1FE PUSH2 0x39D JUMP JUMPDEST STOP JUMPDEST PUSH2 0x19C PUSH1 0xA SLOAD DUP2 JUMP JUMPDEST PUSH2 0x1FE PUSH2 0x217 CALLDATASIZE PUSH1 0x4 PUSH2 0x12A4 JUMP JUMPDEST PUSH2 0x3AF JUMP JUMPDEST PUSH1 0x2 SLOAD PUSH1 0xFF AND JUMPDEST PUSH1 0x40 MLOAD SWAP1 ISZERO ISZERO DUP2 MSTORE PUSH1 0x20 ADD PUSH2 0x1A6 JUMP JUMPDEST PUSH2 0x1FE PUSH2 0x241 CALLDATASIZE PUSH1 0x4 PUSH2 0x12BD JUMP JUMPDEST PUSH2 0x466 JUMP JUMPDEST PUSH2 0x1FE PUSH2 0x254 CALLDATASIZE PUSH1 0x4 PUSH2 0x12A4 JUMP JUMPDEST PUSH2 0x55D JUMP JUMPDEST PUSH1 0x7 SLOAD PUSH2 0x19C JUMP JUMPDEST PUSH2 0x223 PUSH2 0x26F CALLDATASIZE PUSH1 0x4 PUSH2 0x12BD JUMP JUMPDEST PUSH1 0x1 PUSH1 0x1 PUSH1 0xA0 SHL SUB AND PUSH1 0x0 SWAP1 DUP2 MSTORE PUSH1 0x4 PUSH1 0x20 MSTORE PUSH1 0x40 SWAP1 KECCAK256 SLOAD PUSH1 0xFF AND SWAP1 JUMP JUMPDEST PUSH1 0x6 SLOAD PUSH2 0x19C JUMP JUMPDEST PUSH2 0x1FE PUSH2 0x5F5 JUMP JUMPDEST PUSH1 0x8 SLOAD PUSH2 0x19C JUMP JUMPDEST PUSH2 0x19C PUSH1 0x6 SLOAD DUP2 JUMP JUMPDEST PUSH2 0x223 PUSH2 0x2BC CALLDATASIZE PUSH1 0x4 PUSH2 0x12BD JUMP JUMPDEST PUSH1 0x1 PUSH1 0x1 PUSH1 0xA0 SHL SUB AND PUSH1 0x0 SWAP1 DUP2 MSTORE PUSH1 0x3 PUSH1 0x20 MSTORE PUSH1 0x40 SWAP1 KECCAK256 SLOAD PUSH1 0xFF AND ISZERO SWAP1 JUMP JUMPDEST PUSH1 0x0 SLOAD PUSH1 0x1 PUSH1 0x1 PUSH1 0xA0 SHL SUB AND PUSH2 0x1D6 JUMP JUMPDEST PUSH2 0x1FE PUSH2 0x2FA CALLDATASIZE PUSH1 0x4 PUSH2 0x12BD JUMP JUMPDEST PUSH2 0x607 JUMP JUMPDEST PUSH2 0x312 PUSH2 0x30D CALLDATASIZE PUSH1 0x4 PUSH2 0x12ED JUMP JUMPDEST PUSH2 0x901 JUMP JUMPDEST PUSH1 0x40 MLOAD PUSH2 0x1A6 SWAP2 SWAP1 PUSH2 0x1364 JUMP JUMPDEST PUSH2 0x19C PUSH1 0x7 SLOAD DUP2 JUMP JUMPDEST PUSH2 0x223 PUSH2 0x336 CALLDATASIZE PUSH1 0x4 PUSH2 0x12BD JUMP JUMPDEST PUSH1 0x1 PUSH1 0x1 PUSH1 0xA0 SHL SUB AND PUSH1 0x0 SWAP1 DUP2 MSTORE PUSH1 0x3 PUSH1 0x20 MSTORE PUSH1 0x40 SWAP1 KECCAK256 SLOAD PUSH1 0xFF AND SWAP1 JUMP JUMPDEST PUSH2 0x1FE PUSH2 0xAD4 JUMP JUMPDEST PUSH2 0x1FE PUSH2 0x36A CALLDATASIZE PUSH1 0x4 PUSH2 0x12BD JUMP JUMPDEST PUSH2 0xAE4 JUMP JUMPDEST PUSH2 0x1FE PUSH2 0xC22 JUMP JUMPDEST PUSH2 0x1FE PUSH2 0x385 CALLDATASIZE PUSH1 0x4 PUSH2 0x12BD JUMP JUMPDEST PUSH2 0xEA8 JUMP JUMPDEST PUSH2 0x1FE PUSH2 0x398 CALLDATASIZE PUSH1 0x4 PUSH2 0x12BD JUMP JUMPDEST PUSH2 0xEE3 JUMP JUMPDEST PUSH2 0x3A5 PUSH2 0xFD1 JUMP JUMPDEST PUSH2 0x3AD PUSH2 0xFFE JUMP JUMPDEST JUMP JUMPDEST PUSH2 0x3B7 PUSH2 0xFD1 JUMP JUMPDEST DUP1 PUSH1 0x0 SUB PUSH2 0x41D JUMPI PUSH1 0x40 MLOAD PUSH3 0x461BCD PUSH1 0xE5 SHL DUP2 MSTORE PUSH1 0x20 PUSH1 0x4 DUP3 ADD MSTORE PUSH1 0x28 PUSH1 0x24 DUP3 ADD MSTORE PUSH32 0x5A65726F206E756D626572206F6620746172676574207061727469636970616E PUSH1 0x44 DUP3 ADD MSTORE PUSH8 0x3A399033B4BB32B7 PUSH1 0xC1 SHL PUSH1 0x64 DUP3 ADD MSTORE PUSH1 0x84 ADD JUMPDEST PUSH1 0x40 MLOAD DUP1 SWAP2 SUB SWAP1 REVERT JUMPDEST PUSH1 0x7 DUP1 SLOAD SWAP1 DUP3 SWAP1 SSTORE PUSH1 0x40 DUP1 MLOAD DUP3 DUP2 MSTORE PUSH1 0x20 DUP2 ADD DUP5 SWAP1 MSTORE DUP4 SWAP2 PUSH32 0xB90F11D36A1F2EC1F3B89AC87CCD1FFAB1A49F3E3CA83CFDAC21FD99A537CBC1 SWAP2 ADD JUMPDEST PUSH1 0x40 MLOAD DUP1 SWAP2 SUB SWAP1 LOG1 POP POP POP JUMP JUMPDEST PUSH2 0x46E PUSH2 0xFD1 JUMP JUMPDEST PUSH1 0x1 PUSH1 0x1 PUSH1 0xA0 SHL SUB DUP2 AND PUSH1 0x0 SWAP1 DUP2 MSTORE PUSH1 0x3 PUSH1 0x20 MSTORE PUSH1 0x40 SWAP1 KECCAK256 SLOAD DUP2 SWAP1 PUSH1 0xFF AND ISZERO PUSH2 0x4CF JUMPI PUSH1 0x40 MLOAD PUSH3 0x461BCD PUSH1 0xE5 SHL DUP2 MSTORE PUSH1 0x20 PUSH1 0x4 DUP3 ADD MSTORE PUSH1 0x13 PUSH1 0x24 DUP3 ADD MSTORE PUSH19 0x135D5CDD08189948189B1858DADB1A5CDD1959 PUSH1 0x6A SHL PUSH1 0x44 DUP3 ADD MSTORE PUSH1 0x64 ADD PUSH2 0x414 JUMP JUMPDEST PUSH1 0x1 PUSH1 0x1 PUSH1 0xA0 SHL SUB DUP3 AND PUSH2 0x4F5 JUMPI PUSH1 0x40 MLOAD PUSH3 0x461BCD PUSH1 0xE5 SHL DUP2 MSTORE PUSH1 0x4 ADD PUSH2 0x414 SWAP1 PUSH2 0x13B0 JUMP JUMPDEST PUSH1 0x1 PUSH1 0x1 PUSH1 0xA0 SHL SUB DUP3 AND PUSH1 0x0 DUP2 DUP2 MSTORE PUSH1 0x3 PUSH1 0x20 SWAP1 DUP2 MSTORE PUSH1 0x40 SWAP2 DUP3 SWAP1 KECCAK256 DUP1 SLOAD PUSH1 0xFF NOT AND PUSH1 0x1 SWAP1 DUP2 OR SWAP1 SWAP2 SSTORE PUSH1 0x9 DUP1 SLOAD SWAP1 SWAP2 ADD SWAP1 SSTORE SWAP1 MLOAD SWAP2 DUP3 MSTORE PUSH32 0x84608224E0456EC7C9063F8DFD347A891979E08CB0C7D7DAE9BAD7BD5EDB7F36 SWAP2 ADD JUMPDEST PUSH1 0x40 MLOAD DUP1 SWAP2 SUB SWAP1 LOG1 POP POP JUMP JUMPDEST PUSH2 0x565 PUSH2 0xFD1 JUMP JUMPDEST DUP1 PUSH1 0x0 SUB PUSH2 0x5B5 JUMPI PUSH1 0x40 MLOAD PUSH3 0x461BCD PUSH1 0xE5 SHL DUP2 MSTORE PUSH1 0x20 PUSH1 0x4 DUP3 ADD MSTORE PUSH1 0x18 PUSH1 0x24 DUP3 ADD MSTORE PUSH32 0x5A65726F2072657761726420616D6F756E7420676976656E0000000000000000 PUSH1 0x44 DUP3 ADD MSTORE PUSH1 0x64 ADD PUSH2 0x414 JUMP JUMPDEST PUSH1 0x6 DUP1 SLOAD SWAP1 DUP3 SWAP1 SSTORE PUSH1 0x40 DUP1 MLOAD DUP3 DUP2 MSTORE PUSH1 0x20 DUP2 ADD DUP5 SWAP1 MSTORE DUP4 SWAP2 PUSH32 0xF0D37C3AE852021AC329281F604B658691CBFA6B9E9C22909F06B64A8CE87C94 SWAP2 ADD PUSH2 0x459 JUMP JUMPDEST PUSH2 0x5FD PUSH2 0xFD1 JUMP JUMPDEST PUSH2 0x3AD PUSH1 0x0 PUSH2 0x1050 JUMP JUMPDEST PUSH2 0x60F PUSH2 0x10A0 JUMP JUMPDEST PUSH2 0x617 PUSH2 0x10C4 JUMP JUMPDEST PUSH1 0x6 SLOAD PUSH1 0x40 MLOAD PUSH4 0x70A08231 PUSH1 0xE0 SHL DUP2 MSTORE ADDRESS PUSH1 0x4 DUP3 ADD MSTORE PUSH32 0x0 PUSH1 0x1 PUSH1 0x1 PUSH1 0xA0 SHL SUB AND SWAP1 PUSH4 0x70A08231 SWAP1 PUSH1 0x24 ADD PUSH1 0x20 PUSH1 0x40 MLOAD DUP1 DUP4 SUB DUP2 DUP7 GAS STATICCALL ISZERO DUP1 ISZERO PUSH2 0x67E JUMPI RETURNDATASIZE PUSH1 0x0 DUP1 RETURNDATACOPY RETURNDATASIZE PUSH1 0x0 REVERT JUMPDEST POP POP POP POP PUSH1 0x40 MLOAD RETURNDATASIZE PUSH1 0x1F NOT PUSH1 0x1F DUP3 ADD AND DUP3 ADD DUP1 PUSH1 0x40 MSTORE POP DUP2 ADD SWAP1 PUSH2 0x6A2 SWAP2 SWAP1 PUSH2 0x13DD JUMP JUMPDEST LT ISZERO PUSH2 0x6FB JUMPI PUSH1 0x40 MLOAD PUSH3 0x461BCD PUSH1 0xE5 SHL DUP2 MSTORE PUSH1 0x20 PUSH1 0x4 DUP3 ADD MSTORE PUSH1 0x22 PUSH1 0x24 DUP3 ADD MSTORE PUSH32 0x436F6E747261637420646F6573206E6F74206861766520656E6F756768206355 PUSH1 0x44 DUP3 ADD MSTORE PUSH2 0x14D1 PUSH1 0xF2 SHL PUSH1 0x64 DUP3 ADD MSTORE PUSH1 0x84 ADD PUSH2 0x414 JUMP JUMPDEST PUSH1 0x7 SLOAD PUSH1 0x8 SLOAD LT PUSH2 0x75A JUMPI PUSH1 0x40 MLOAD PUSH3 0x461BCD PUSH1 0xE5 SHL DUP2 MSTORE PUSH1 0x20 PUSH1 0x4 DUP3 ADD MSTORE PUSH1 0x23 PUSH1 0x24 DUP3 ADD MSTORE PUSH32 0x416C6C207061727469636970616E74732068617665206265656E207265776172 PUSH1 0x44 DUP3 ADD MSTORE PUSH3 0x191959 PUSH1 0xEA SHL PUSH1 0x64 DUP3 ADD MSTORE PUSH1 0x84 ADD PUSH2 0x414 JUMP JUMPDEST DUP1 CALLER PUSH1 0x1 PUSH1 0x1 PUSH1 0xA0 SHL SUB DUP3 AND EQ PUSH2 0x7A7 JUMPI PUSH1 0x40 MLOAD PUSH3 0x461BCD PUSH1 0xE5 SHL DUP2 MSTORE PUSH1 0x20 PUSH1 0x4 DUP3 ADD MSTORE PUSH1 0x11 PUSH1 0x24 DUP3 ADD MSTORE PUSH17 0x27B7363C903B30B634B21039B2B73232B9 PUSH1 0x79 SHL PUSH1 0x44 DUP3 ADD MSTORE PUSH1 0x64 ADD PUSH2 0x414 JUMP JUMPDEST PUSH1 0x1 PUSH1 0x1 PUSH1 0xA0 SHL SUB DUP3 AND PUSH1 0x0 SWAP1 DUP2 MSTORE PUSH1 0x3 PUSH1 0x20 MSTORE PUSH1 0x40 SWAP1 KECCAK256 SLOAD DUP3 SWAP1 PUSH1 0xFF AND PUSH2 0x80C JUMPI PUSH1 0x40 MLOAD PUSH3 0x461BCD PUSH1 0xE5 SHL DUP2 MSTORE PUSH1 0x20 PUSH1 0x4 DUP3 ADD MSTORE PUSH1 0x18 PUSH1 0x24 DUP3 ADD MSTORE PUSH24 0x4F6E6C792077686974656C69737465642061646472657373 PUSH1 0x40 SHL PUSH1 0x44 DUP3 ADD MSTORE PUSH1 0x64 ADD PUSH2 0x414 JUMP JUMPDEST PUSH1 0x1 PUSH1 0x1 PUSH1 0xA0 SHL SUB DUP4 AND PUSH1 0x0 SWAP1 DUP2 MSTORE PUSH1 0x4 PUSH1 0x20 MSTORE PUSH1 0x40 SWAP1 KECCAK256 SLOAD DUP4 SWAP1 PUSH1 0xFF AND ISZERO PUSH2 0x877 JUMPI PUSH1 0x40 MLOAD PUSH3 0x461BCD PUSH1 0xE5 SHL DUP2 MSTORE PUSH1 0x20 PUSH1 0x4 DUP3 ADD MSTORE PUSH1 0x1C PUSH1 0x24 DUP3 ADD MSTORE PUSH32 0x5061727469636970616E7420616C726561647920726577617264656400000000 PUSH1 0x44 DUP3 ADD MSTORE PUSH1 0x64 ADD PUSH2 0x414 JUMP JUMPDEST PUSH1 0x1 PUSH1 0x1 PUSH1 0xA0 SHL SUB DUP5 AND PUSH1 0x0 SWAP1 DUP2 MSTORE PUSH1 0x5 PUSH1 0x20 MSTORE PUSH1 0x40 SWAP1 KECCAK256 SLOAD DUP5 SWAP1 PUSH1 0xFF AND PUSH2 0x8D4 JUMPI PUSH1 0x40 MLOAD PUSH3 0x461BCD PUSH1 0xE5 SHL DUP2 MSTORE PUSH1 0x20 PUSH1 0x4 DUP3 ADD MSTORE PUSH1 0x10 PUSH1 0x24 DUP3 ADD MSTORE PUSH16 0x135D5CDD081899481CD8DC99595B9959 PUSH1 0x82 SHL PUSH1 0x44 DUP3 ADD MSTORE PUSH1 0x64 ADD PUSH2 0x414 JUMP JUMPDEST PUSH1 0x0 PUSH2 0x8DF DUP7 PUSH2 0x10EE JUMP JUMPDEST SWAP1 POP DUP1 ISZERO PUSH2 0x8F0 JUMPI PUSH2 0x8F0 DUP7 PUSH2 0x11EA JUMP JUMPDEST POP POP POP POP POP PUSH2 0x8FE PUSH1 0x1 DUP1 SSTORE JUMP JUMPDEST POP JUMP JUMPDEST PUSH1 0x60 DUP2 PUSH1 0x0 DUP2 SWAP1 SUB PUSH2 0x94B JUMPI PUSH1 0x40 MLOAD PUSH3 0x461BCD PUSH1 0xE5 SHL DUP2 MSTORE PUSH1 0x20 PUSH1 0x4 DUP3 ADD MSTORE PUSH1 0x13 PUSH1 0x24 DUP3 ADD MSTORE PUSH19 0x139BC81859191C995CDCD95CC81C185CDCD959 PUSH1 0x6A SHL PUSH1 0x44 DUP3 ADD MSTORE PUSH1 0x64 ADD PUSH2 0x414 JUMP JUMPDEST PUSH1 0x0 DUP1 JUMPDEST DUP3 DUP2 LT ISZERO PUSH2 0x9BA JUMPI PUSH1 0x3 PUSH1 0x0 DUP8 DUP8 DUP5 DUP2 DUP2 LT PUSH2 0x96D JUMPI PUSH2 0x96D PUSH2 0x13F6 JUMP JUMPDEST SWAP1 POP PUSH1 0x20 MUL ADD PUSH1 0x20 DUP2 ADD SWAP1 PUSH2 0x982 SWAP2 SWAP1 PUSH2 0x12BD JUMP JUMPDEST PUSH1 0x1 PUSH1 0x1 PUSH1 0xA0 SHL SUB AND DUP2 MSTORE PUSH1 0x20 DUP2 ADD SWAP2 SWAP1 SWAP2 MSTORE PUSH1 0x40 ADD PUSH1 0x0 KECCAK256 SLOAD PUSH1 0xFF AND ISZERO PUSH2 0x9B2 JUMPI DUP2 PUSH2 0x9AE DUP2 PUSH2 0x140C JUMP JUMPDEST SWAP3 POP POP JUMPDEST PUSH1 0x1 ADD PUSH2 0x94F JUMP JUMPDEST POP PUSH1 0x0 DUP2 PUSH8 0xFFFFFFFFFFFFFFFF DUP2 GT ISZERO PUSH2 0x9D6 JUMPI PUSH2 0x9D6 PUSH2 0x1433 JUMP JUMPDEST PUSH1 0x40 MLOAD SWAP1 DUP1 DUP3 MSTORE DUP1 PUSH1 0x20 MUL PUSH1 0x20 ADD DUP3 ADD PUSH1 0x40 MSTORE DUP1 ISZERO PUSH2 0x9FF JUMPI DUP2 PUSH1 0x20 ADD PUSH1 0x20 DUP3 MUL DUP1 CALLDATASIZE DUP4 CALLDATACOPY ADD SWAP1 POP JUMPDEST POP SWAP1 POP PUSH1 0x0 DUP1 JUMPDEST DUP5 DUP2 LT ISZERO PUSH2 0xAC8 JUMPI PUSH1 0x3 PUSH1 0x0 DUP10 DUP10 DUP5 DUP2 DUP2 LT PUSH2 0xA24 JUMPI PUSH2 0xA24 PUSH2 0x13F6 JUMP JUMPDEST SWAP1 POP PUSH1 0x20 MUL ADD PUSH1 0x20 DUP2 ADD SWAP1 PUSH2 0xA39 SWAP2 SWAP1 PUSH2 0x12BD JUMP JUMPDEST PUSH1 0x1 PUSH1 0x1 PUSH1 0xA0 SHL SUB AND DUP2 MSTORE PUSH1 0x20 DUP2 ADD SWAP2 SWAP1 SWAP2 MSTORE PUSH1 0x40 ADD PUSH1 0x0 KECCAK256 SLOAD PUSH1 0xFF AND ISZERO PUSH2 0xAC0 JUMPI DUP8 DUP8 DUP3 DUP2 DUP2 LT PUSH2 0xA6D JUMPI PUSH2 0xA6D PUSH2 0x13F6 JUMP JUMPDEST SWAP1 POP PUSH1 0x20 MUL ADD PUSH1 0x20 DUP2 ADD SWAP1 PUSH2 0xA82 SWAP2 SWAP1 PUSH2 0x12BD JUMP JUMPDEST DUP4 DUP4 PUSH2 0xA8D DUP2 PUSH2 0x140C JUMP JUMPDEST SWAP5 POP DUP2 MLOAD DUP2 LT PUSH2 0xA9F JUMPI PUSH2 0xA9F PUSH2 0x13F6 JUMP JUMPDEST PUSH1 0x20 MUL PUSH1 0x20 ADD ADD SWAP1 PUSH1 0x1 PUSH1 0x1 PUSH1 0xA0 SHL SUB AND SWAP1 DUP2 PUSH1 0x1 PUSH1 0x1 PUSH1 0xA0 SHL SUB AND DUP2 MSTORE POP POP JUMPDEST PUSH1 0x1 ADD PUSH2 0xA06 JUMP JUMPDEST POP SWAP1 SWAP7 SWAP6 POP POP POP POP POP POP JUMP JUMPDEST PUSH2 0xADC PUSH2 0xFD1 JUMP JUMPDEST PUSH2 0x3AD PUSH2 0x1244 JUMP JUMPDEST DUP1 CALLER PUSH1 0x1 PUSH1 0x1 PUSH1 0xA0 SHL SUB DUP3 AND EQ PUSH2 0xB31 JUMPI PUSH1 0x40 MLOAD PUSH3 0x461BCD PUSH1 0xE5 SHL DUP2 MSTORE PUSH1 0x20 PUSH1 0x4 DUP3 ADD MSTORE PUSH1 0x11 PUSH1 0x24 DUP3 ADD MSTORE PUSH17 0x27B7363C903B30B634B21039B2B73232B9 PUSH1 0x79 SHL PUSH1 0x44 DUP3 ADD MSTORE PUSH1 0x64 ADD PUSH2 0x414 JUMP JUMPDEST PUSH1 0x1 PUSH1 0x1 PUSH1 0xA0 SHL SUB DUP3 AND PUSH1 0x0 SWAP1 DUP2 MSTORE PUSH1 0x5 PUSH1 0x20 MSTORE PUSH1 0x40 SWAP1 KECCAK256 SLOAD DUP3 SWAP1 PUSH1 0xFF AND ISZERO PUSH2 0xB9C JUMPI PUSH1 0x40 MLOAD PUSH3 0x461BCD PUSH1 0xE5 SHL DUP2 MSTORE PUSH1 0x20 PUSH1 0x4 DUP3 ADD MSTORE PUSH1 0x17 PUSH1 0x24 DUP3 ADD MSTORE PUSH32 0x4F6E6C7920756E73637265656E65642061646472657373000000000000000000 PUSH1 0x44 DUP3 ADD MSTORE PUSH1 0x64 ADD PUSH2 0x414 JUMP JUMPDEST PUSH1 0x1 PUSH1 0x1 PUSH1 0xA0 SHL SUB DUP4 AND PUSH2 0xBC2 JUMPI PUSH1 0x40 MLOAD PUSH3 0x461BCD PUSH1 0xE5 SHL DUP2 MSTORE PUSH1 0x4 ADD PUSH2 0x414 SWAP1 PUSH2 0x13B0 JUMP JUMPDEST PUSH1 0x1 PUSH1 0x1 PUSH1 0xA0 SHL SUB DUP4 AND PUSH1 0x0 DUP2 DUP2 MSTORE PUSH1 0x5 PUSH1 0x20 SWAP1 DUP2 MSTORE PUSH1 0x40 SWAP2 DUP3 SWAP1 KECCAK256 DUP1 SLOAD PUSH1 0xFF NOT AND PUSH1 0x1 SWAP1 DUP2 OR SWAP1 SWAP2 SSTORE PUSH1 0xA DUP1 SLOAD SWAP1 SWAP2 ADD SWAP1 SSTORE SWAP1 MLOAD SWAP2 DUP3 MSTORE PUSH32 0xC4EC7A2DC5E72D17666A15570E438638BFC023A7A091DF162B669C37198BACB2 SWAP2 ADD PUSH2 0x459 JUMP JUMPDEST PUSH2 0xC2A PUSH2 0xFD1 JUMP JUMPDEST PUSH2 0xC32 PUSH2 0x10A0 JUMP JUMPDEST PUSH1 0x40 MLOAD PUSH4 0x70A08231 PUSH1 0xE0 SHL DUP2 MSTORE ADDRESS PUSH1 0x4 DUP3 ADD MSTORE PUSH1 0x0 SWAP1 PUSH32 0x0 PUSH1 0x1 PUSH1 0x1 PUSH1 0xA0 SHL SUB AND SWAP1 PUSH4 0x70A08231 SWAP1 PUSH1 0x24 ADD PUSH1 0x20 PUSH1 0x40 MLOAD DUP1 DUP4 SUB DUP2 DUP7 GAS STATICCALL ISZERO DUP1 ISZERO PUSH2 0xC99 JUMPI RETURNDATASIZE PUSH1 0x0 DUP1 RETURNDATACOPY RETURNDATASIZE PUSH1 0x0 REVERT JUMPDEST POP POP POP POP PUSH1 0x40 MLOAD RETURNDATASIZE PUSH1 0x1F NOT PUSH1 0x1F DUP3 ADD AND DUP3 ADD DUP1 PUSH1 0x40 MSTORE POP DUP2 ADD SWAP1 PUSH2 0xCBD SWAP2 SWAP1 PUSH2 0x13DD JUMP JUMPDEST GT PUSH2 0xD0A JUMPI PUSH1 0x40 MLOAD PUSH3 0x461BCD PUSH1 0xE5 SHL DUP2 MSTORE PUSH1 0x20 PUSH1 0x4 DUP3 ADD MSTORE PUSH1 0x1F PUSH1 0x24 DUP3 ADD MSTORE PUSH32 0x436F6E747261637420646F6573206E6F74206861766520616E79206355534400 PUSH1 0x44 DUP3 ADD MSTORE PUSH1 0x64 ADD PUSH2 0x414 JUMP JUMPDEST PUSH1 0x40 MLOAD PUSH4 0x70A08231 PUSH1 0xE0 SHL DUP2 MSTORE ADDRESS PUSH1 0x4 DUP3 ADD MSTORE PUSH1 0x0 SWAP1 PUSH32 0x0 PUSH1 0x1 PUSH1 0x1 PUSH1 0xA0 SHL SUB AND SWAP1 PUSH4 0x70A08231 SWAP1 PUSH1 0x24 ADD PUSH1 0x20 PUSH1 0x40 MLOAD DUP1 DUP4 SUB DUP2 DUP7 GAS STATICCALL ISZERO DUP1 ISZERO PUSH2 0xD71 JUMPI RETURNDATASIZE PUSH1 0x0 DUP1 RETURNDATACOPY RETURNDATASIZE PUSH1 0x0 REVERT JUMPDEST POP POP POP POP PUSH1 0x40 MLOAD RETURNDATASIZE PUSH1 0x1F NOT PUSH1 0x1F DUP3 ADD AND DUP3 ADD DUP1 PUSH1 0x40 MSTORE POP DUP2 ADD SWAP1 PUSH2 0xD95 SWAP2 SWAP1 PUSH2 0x13DD JUMP JUMPDEST SWAP1 POP PUSH1 0x0 PUSH32 0x0 PUSH1 0x1 PUSH1 0x1 PUSH1 0xA0 SHL SUB AND PUSH4 0xA9059CBB PUSH2 0xDDA PUSH1 0x0 SLOAD PUSH1 0x1 PUSH1 0x1 PUSH1 0xA0 SHL SUB AND SWAP1 JUMP JUMPDEST PUSH1 0x40 MLOAD PUSH1 0x1 PUSH1 0x1 PUSH1 0xE0 SHL SUB NOT PUSH1 0xE0 DUP5 SWAP1 SHL AND DUP2 MSTORE PUSH1 0x1 PUSH1 0x1 PUSH1 0xA0 SHL SUB SWAP1 SWAP2 AND PUSH1 0x4 DUP3 ADD MSTORE PUSH1 0x24 DUP2 ADD DUP6 SWAP1 MSTORE PUSH1 0x44 ADD PUSH1 0x20 PUSH1 0x40 MLOAD DUP1 DUP4 SUB DUP2 PUSH1 0x0 DUP8 GAS CALL ISZERO DUP1 ISZERO PUSH2 0xE27 JUMPI RETURNDATASIZE PUSH1 0x0 DUP1 RETURNDATACOPY RETURNDATASIZE PUSH1 0x0 REVERT JUMPDEST POP POP POP POP PUSH1 0x40 MLOAD RETURNDATASIZE PUSH1 0x1F NOT PUSH1 0x1F DUP3 ADD AND DUP3 ADD DUP1 PUSH1 0x40 MSTORE POP DUP2 ADD SWAP1 PUSH2 0xE4B SWAP2 SWAP1 PUSH2 0x1449 JUMP JUMPDEST SWAP1 POP DUP1 ISZERO PUSH2 0xEA4 JUMPI PUSH32 0x2036B9B38B69A2FA490EE702733A29CD2550ACCC20BC96E786CB9BEEDC779097 PUSH2 0xE86 PUSH1 0x0 SLOAD PUSH1 0x1 PUSH1 0x1 PUSH1 0xA0 SHL SUB AND SWAP1 JUMP JUMPDEST PUSH1 0x40 DUP1 MLOAD PUSH1 0x1 PUSH1 0x1 PUSH1 0xA0 SHL SUB SWAP1 SWAP3 AND DUP3 MSTORE PUSH1 0x20 DUP3 ADD DUP6 SWAP1 MSTORE ADD PUSH2 0x551 JUMP JUMPDEST POP POP JUMP JUMPDEST PUSH2 0xEB0 PUSH2 0xFD1 JUMP JUMPDEST PUSH1 0x1 PUSH1 0x1 PUSH1 0xA0 SHL SUB DUP2 AND PUSH2 0xEDA JUMPI PUSH1 0x40 MLOAD PUSH4 0x1E4FBDF7 PUSH1 0xE0 SHL DUP2 MSTORE PUSH1 0x0 PUSH1 0x4 DUP3 ADD MSTORE PUSH1 0x24 ADD PUSH2 0x414 JUMP JUMPDEST PUSH2 0x8FE DUP2 PUSH2 0x1050 JUMP JUMPDEST PUSH2 0xEEB PUSH2 0xFD1 JUMP JUMPDEST PUSH1 0x1 PUSH1 0x1 PUSH1 0xA0 SHL SUB DUP2 AND PUSH1 0x0 SWAP1 DUP2 MSTORE PUSH1 0x3 PUSH1 0x20 MSTORE PUSH1 0x40 SWAP1 KECCAK256 SLOAD DUP2 SWAP1 PUSH1 0xFF AND PUSH2 0xF50 JUMPI PUSH1 0x40 MLOAD PUSH3 0x461BCD PUSH1 0xE5 SHL DUP2 MSTORE PUSH1 0x20 PUSH1 0x4 DUP3 ADD MSTORE PUSH1 0x18 PUSH1 0x24 DUP3 ADD MSTORE PUSH24 0x4F6E6C792077686974656C69737465642061646472657373 PUSH1 0x40 SHL PUSH1 0x44 DUP3 ADD MSTORE PUSH1 0x64 ADD PUSH2 0x414 JUMP JUMPDEST PUSH1 0x1 PUSH1 0x1 PUSH1 0xA0 SHL SUB DUP3 AND PUSH2 0xF76 JUMPI PUSH1 0x40 MLOAD PUSH3 0x461BCD PUSH1 0xE5 SHL DUP2 MSTORE PUSH1 0x4 ADD PUSH2 0x414 SWAP1 PUSH2 0x13B0 JUMP JUMPDEST PUSH1 0x1 PUSH1 0x1 PUSH1 0xA0 SHL SUB DUP3 AND PUSH1 0x0 DUP2 DUP2 MSTORE PUSH1 0x3 PUSH1 0x20 SWAP1 DUP2 MSTORE PUSH1 0x40 SWAP2 DUP3 SWAP1 KECCAK256 DUP1 SLOAD PUSH1 0xFF NOT AND SWAP1 SSTORE PUSH1 0x9 DUP1 SLOAD PUSH1 0x0 NOT ADD SWAP1 SSTORE SWAP1 MLOAD SWAP2 DUP3 MSTORE PUSH32 0x9A3420C1085262889090DE7FB2F9C9D1D7C8D69F895B7CD37074650958BC99E6 SWAP2 ADD PUSH2 0x551 JUMP JUMPDEST PUSH1 0x0 SLOAD PUSH1 0x1 PUSH1 0x1 PUSH1 0xA0 SHL SUB AND CALLER EQ PUSH2 0x3AD JUMPI PUSH1 0x40 MLOAD PUSH4 0x118CDAA7 PUSH1 0xE0 SHL DUP2 MSTORE CALLER PUSH1 0x4 DUP3 ADD MSTORE PUSH1 0x24 ADD PUSH2 0x414 JUMP JUMPDEST PUSH2 0x1006 PUSH2 0x1281 JUMP JUMPDEST PUSH1 0x2 DUP1 SLOAD PUSH1 0xFF NOT AND SWAP1 SSTORE PUSH32 0x5DB9EE0A495BF2E6FF9C91A7834C1BA4FDD244A5E8AA4E537BD38AEAE4B073AA CALLER JUMPDEST PUSH1 0x40 MLOAD PUSH1 0x1 PUSH1 0x1 PUSH1 0xA0 SHL SUB SWAP1 SWAP2 AND DUP2 MSTORE PUSH1 0x20 ADD PUSH1 0x40 MLOAD DUP1 SWAP2 SUB SWAP1 LOG1 JUMP JUMPDEST PUSH1 0x0 DUP1 SLOAD PUSH1 0x1 PUSH1 0x1 PUSH1 0xA0 SHL SUB DUP4 DUP2 AND PUSH1 0x1 PUSH1 0x1 PUSH1 0xA0 SHL SUB NOT DUP4 AND DUP2 OR DUP5 SSTORE PUSH1 0x40 MLOAD SWAP2 SWAP1 SWAP3 AND SWAP3 DUP4 SWAP2 PUSH32 0x8BE0079C531659141344CD1FD0A4F28419497F9722A3DAAFE3B4186F6B6457E0 SWAP2 SWAP1 LOG3 POP POP JUMP JUMPDEST PUSH1 0x2 SLOAD PUSH1 0xFF AND ISZERO PUSH2 0x3AD JUMPI PUSH1 0x40 MLOAD PUSH4 0xD93C0665 PUSH1 0xE0 SHL DUP2 MSTORE PUSH1 0x4 ADD PUSH1 0x40 MLOAD DUP1 SWAP2 SUB SWAP1 REVERT JUMPDEST PUSH1 0x2 PUSH1 0x1 SLOAD SUB PUSH2 0x10E7 JUMPI PUSH1 0x40 MLOAD PUSH4 0x3EE5AEB5 PUSH1 0xE0 SHL DUP2 MSTORE PUSH1 0x4 ADD PUSH1 0x40 MLOAD DUP1 SWAP2 SUB SWAP1 REVERT JUMPDEST PUSH1 0x2 PUSH1 0x1 SSTORE JUMP JUMPDEST PUSH1 0x6 SLOAD PUSH1 0x40 MLOAD PUSH4 0xA9059CBB PUSH1 0xE0 SHL DUP2 MSTORE PUSH1 0x1 PUSH1 0x1 PUSH1 0xA0 SHL SUB DUP4 DUP2 AND PUSH1 0x4 DUP4 ADD MSTORE PUSH1 0x24 DUP3 ADD SWAP3 SWAP1 SWAP3 MSTORE PUSH1 0x0 SWAP2 DUP3 SWAP2 PUSH32 0x0 SWAP1 SWAP2 AND SWAP1 PUSH4 0xA9059CBB SWAP1 PUSH1 0x44 ADD PUSH1 0x20 PUSH1 0x40 MLOAD DUP1 DUP4 SUB DUP2 PUSH1 0x0 DUP8 GAS CALL ISZERO DUP1 ISZERO PUSH2 0x1168 JUMPI RETURNDATASIZE PUSH1 0x0 DUP1 RETURNDATACOPY RETURNDATASIZE PUSH1 0x0 REVERT JUMPDEST POP POP POP POP PUSH1 0x40 MLOAD RETURNDATASIZE PUSH1 0x1F NOT PUSH1 0x1F DUP3 ADD AND DUP3 ADD DUP1 PUSH1 0x40 MSTORE POP DUP2 ADD SWAP1 PUSH2 0x118C SWAP2 SWAP1 PUSH2 0x1449 JUMP JUMPDEST SWAP1 POP DUP1 ISZERO PUSH2 0x11E4 JUMPI PUSH1 0x8 DUP1 SLOAD PUSH1 0x1 ADD SWAP1 SSTORE PUSH1 0x6 SLOAD PUSH1 0x40 DUP1 MLOAD PUSH1 0x1 PUSH1 0x1 PUSH1 0xA0 SHL SUB DUP7 AND DUP2 MSTORE PUSH1 0x20 DUP2 ADD SWAP3 SWAP1 SWAP3 MSTORE PUSH32 0x8934D7A9692E763E356FD30D84CA5F61A737B35C5CCD5D31D4F140310267B73E SWAP2 ADD PUSH1 0x40 MLOAD DUP1 SWAP2 SUB SWAP1 LOG1 JUMPDEST SWAP3 SWAP2 POP POP JUMP JUMPDEST PUSH1 0x1 PUSH1 0x1 PUSH1 0xA0 SHL SUB DUP2 AND PUSH1 0x0 DUP2 DUP2 MSTORE PUSH1 0x4 PUSH1 0x20 SWAP1 DUP2 MSTORE PUSH1 0x40 SWAP2 DUP3 SWAP1 KECCAK256 DUP1 SLOAD PUSH1 0xFF NOT AND PUSH1 0x1 OR SWAP1 SSTORE SWAP1 MLOAD SWAP2 DUP3 MSTORE PUSH32 0x654C9A027765E6FEB862F42D438E9F6948F9EE31113E379F0372B30EFC722943 SWAP2 ADD PUSH1 0x40 MLOAD DUP1 SWAP2 SUB SWAP1 LOG1 POP JUMP JUMPDEST PUSH2 0x124C PUSH2 0x10A0 JUMP JUMPDEST PUSH1 0x2 DUP1 SLOAD PUSH1 0xFF NOT AND PUSH1 0x1 OR SWAP1 SSTORE PUSH32 0x62E78CEA01BEE320CD4E420270B5EA74000D11B0C9F74754EBDBFC544B05A258 PUSH2 0x1033 CALLER SWAP1 JUMP JUMPDEST PUSH1 0x2 SLOAD PUSH1 0xFF AND PUSH2 0x3AD JUMPI PUSH1 0x40 MLOAD PUSH4 0x8DFC202B PUSH1 0xE0 SHL DUP2 MSTORE PUSH1 0x4 ADD PUSH1 0x40 MLOAD DUP1 SWAP2 SUB SWAP1 REVERT JUMPDEST PUSH1 0x0 PUSH1 0x20 DUP3 DUP5 SUB SLT ISZERO PUSH2 0x12B6 JUMPI PUSH1 0x0 DUP1 REVERT JUMPDEST POP CALLDATALOAD SWAP2 SWAP1 POP JUMP JUMPDEST PUSH1 0x0 PUSH1 0x20 DUP3 DUP5 SUB SLT ISZERO PUSH2 0x12CF JUMPI PUSH1 0x0 DUP1 REVERT JUMPDEST DUP2 CALLDATALOAD PUSH1 0x1 PUSH1 0x1 PUSH1 0xA0 SHL SUB DUP2 AND DUP2 EQ PUSH2 0x12E6 JUMPI PUSH1 0x0 DUP1 REVERT JUMPDEST SWAP4 SWAP3 POP POP POP JUMP JUMPDEST PUSH1 0x0 DUP1 PUSH1 0x20 DUP4 DUP6 SUB SLT ISZERO PUSH2 0x1300 JUMPI PUSH1 0x0 DUP1 REVERT JUMPDEST DUP3 CALLDATALOAD PUSH8 0xFFFFFFFFFFFFFFFF DUP2 GT ISZERO PUSH2 0x1317 JUMPI PUSH1 0x0 DUP1 REVERT JUMPDEST DUP4 ADD PUSH1 0x1F DUP2 ADD DUP6 SGT PUSH2 0x1328 JUMPI PUSH1 0x0 DUP1 REVERT JUMPDEST DUP1 CALLDATALOAD PUSH8 0xFFFFFFFFFFFFFFFF DUP2 GT ISZERO PUSH2 0x133F JUMPI PUSH1 0x0 DUP1 REVERT JUMPDEST DUP6 PUSH1 0x20 DUP3 PUSH1 0x5 SHL DUP5 ADD ADD GT ISZERO PUSH2 0x1354 JUMPI PUSH1 0x0 DUP1 REVERT JUMPDEST PUSH1 0x20 SWAP2 SWAP1 SWAP2 ADD SWAP6 SWAP1 SWAP5 POP SWAP3 POP POP POP JUMP JUMPDEST PUSH1 0x20 DUP1 DUP3 MSTORE DUP3 MLOAD DUP3 DUP3 ADD DUP2 SWAP1 MSTORE PUSH1 0x0 SWAP2 DUP5 ADD SWAP1 PUSH1 0x40 DUP5 ADD SWAP1 DUP4 JUMPDEST DUP2 DUP2 LT ISZERO PUSH2 0x13A5 JUMPI DUP4 MLOAD PUSH1 0x1 PUSH1 0x1 PUSH1 0xA0 SHL SUB AND DUP4 MSTORE PUSH1 0x20 SWAP4 DUP5 ADD SWAP4 SWAP1 SWAP3 ADD SWAP2 PUSH1 0x1 ADD PUSH2 0x137E JUMP JUMPDEST POP SWAP1 SWAP6 SWAP5 POP POP POP POP POP JUMP JUMPDEST PUSH1 0x20 DUP1 DUP3 MSTORE PUSH1 0x13 SWAP1 DUP3 ADD MSTORE PUSH19 0x16995C9BC81859191C995CDCC81C185CDCD959 PUSH1 0x6A SHL PUSH1 0x40 DUP3 ADD MSTORE PUSH1 0x60 ADD SWAP1 JUMP JUMPDEST PUSH1 0x0 PUSH1 0x20 DUP3 DUP5 SUB SLT ISZERO PUSH2 0x13EF JUMPI PUSH1 0x0 DUP1 REVERT JUMPDEST POP MLOAD SWAP2 SWAP1 POP JUMP JUMPDEST PUSH4 0x4E487B71 PUSH1 0xE0 SHL PUSH1 0x0 MSTORE PUSH1 0x32 PUSH1 0x4 MSTORE PUSH1 0x24 PUSH1 0x0 REVERT JUMPDEST PUSH1 0x0 PUSH1 0x1 DUP3 ADD PUSH2 0x142C JUMPI PUSH4 0x4E487B71 PUSH1 0xE0 SHL PUSH1 0x0 MSTORE PUSH1 0x11 PUSH1 0x4 MSTORE PUSH1 0x24 PUSH1 0x0 REVERT JUMPDEST POP PUSH1 0x1 ADD SWAP1 JUMP JUMPDEST PUSH4 0x4E487B71 PUSH1 0xE0 SHL PUSH1 0x0 MSTORE PUSH1 0x41 PUSH1 0x4 MSTORE PUSH1 0x24 PUSH1 0x0 REVERT JUMPDEST PUSH1 0x0 PUSH1 0x20 DUP3 DUP5 SUB SLT ISZERO PUSH2 0x145B JUMPI PUSH1 0x0 DUP1 REVERT JUMPDEST DUP2 MLOAD DUP1 ISZERO ISZERO DUP2 EQ PUSH2 0x12E6 JUMPI PUSH1 0x0 DUP1 REVERT INVALID LOG2 PUSH5 0x6970667358 0x22 SLT KECCAK256 0xBC RETURNDATACOPY DUP3 0xC2 0xA5 NUMBER RETURNDATACOPY DUP4 EXTCODECOPY PUSH31 0x427577CE2B37512CA25B458A3258E64C9C5ED78D759464736F6C634300081C STOP CALLER "
				},
				"gasEstimates": {
					"creation": {
						"codeDepositCost": "1056200",
						"executionCost": "infinite",
						"totalCost": "infinite"
					},
					"external": {
						"blacklistWhitelistedParticipant(address)": "54397",
						"cUSD()": "infinite",
						"checkIfParticipantHasAlreadyClaimedReward(address)": "2581",
						"checkIfParticipantIsBlacklisted(address)": "2584",
						"checkIfParticipantIsWhitelisted(address)": "2581",
						"getNumberOfRewardedParticipants()": "2304",
						"getNumberOfWhitelistedParticipants()": "2349",
						"getRewardAmountPerParticipantInWei()": "2370",
						"getTargetNumberOfParticipants()": "2326",
						"getWhitelistedParticipantsFromRegisteredParticipants(address[])": "infinite",
						"numberOfScreenedParticipants()": "2396",
						"numberOfWhitelistedParticipants()": "2308",
						"owner()": "2420",
						"pauseSurvey()": "infinite",
						"paused()": "2339",
						"processRewardClaimByParticipant(address)": "infinite",
						"renounceOwnership()": "infinite",
						"rewardAmountPerParticipantInWei()": "2329",
						"screenParticipant(address)": "52230",
						"targetNumberOfParticipants()": "2329",
						"transferOwnership(address)": "28386",
						"unpauseSurvey()": "infinite",
						"updateRewardAmountPerParticipant(uint256)": "28071",
						"updateTargetNumberOfParticipants(uint256)": "28104",
						"whitelistParticipant(address)": "54362",
						"withdrawAllRewardFundsToResearcher()": "infinite"
					},
					"internal": {
						"markParticipantAsHavingClaimedReward(address)": "infinite",
						"rewardParticipant(address)": "infinite"
					}
				},
				"methodIdentifiers": {
					"blacklistWhitelistedParticipant(address)": "f67ae941",
					"cUSD()": "1fccf672",
					"checkIfParticipantHasAlreadyClaimedReward(address)": "6ff65c20",
					"checkIfParticipantIsBlacklisted(address)": "8c0a0966",
					"checkIfParticipantIsWhitelisted(address)": "d4bfbd41",
					"getNumberOfRewardedParticipants()": "741ae614",
					"getNumberOfWhitelistedParticipants()": "28a2355b",
					"getRewardAmountPerParticipantInWei()": "7069243c",
					"getTargetNumberOfParticipants()": "6fa1c59d",
					"getWhitelistedParticipantsFromRegisteredParticipants(address[])": "a0ca86a3",
					"numberOfScreenedParticipants()": "4074be40",
					"numberOfWhitelistedParticipants()": "047bc438",
					"owner()": "8da5cb5b",
					"pauseSurvey()": "e082fe2a",
					"paused()": "5c975abb",
					"processRewardClaimByParticipant(address)": "a0858343",
					"renounceOwnership()": "715018a6",
					"rewardAmountPerParticipantInWei()": "7a0abf08",
					"screenParticipant(address)": "ea1dd101",
					"targetNumberOfParticipants()": "a6a09811",
					"transferOwnership(address)": "f2fde38b",
					"unpauseSurvey()": "3960fc66",
					"updateRewardAmountPerParticipant(uint256)": "64bb632f",
					"updateTargetNumberOfParticipants(uint256)": "528780cc",
					"whitelistParticipant(address)": "64751f22",
					"withdrawAllRewardFundsToResearcher()": "f22069df"
				}
			},
			"storageLayout": {
				"storage": [
					{
						"astId": 8,
						"contract": "smart-contract/hardhat/contracts/ClosedSurveyV3.sol:ClosedSurveyV3",
						"label": "_owner",
						"offset": 0,
						"slot": "0",
						"type": "t_address"
					},
					{
						"astId": 409,
						"contract": "smart-contract/hardhat/contracts/ClosedSurveyV3.sol:ClosedSurveyV3",
						"label": "_status",
						"offset": 0,
						"slot": "1",
						"type": "t_uint256"
					},
					{
						"astId": 290,
						"contract": "smart-contract/hardhat/contracts/ClosedSurveyV3.sol:ClosedSurveyV3",
						"label": "_paused",
						"offset": 0,
						"slot": "2",
						"type": "t_bool"
					},
					{
						"astId": 486,
						"contract": "smart-contract/hardhat/contracts/ClosedSurveyV3.sol:ClosedSurveyV3",
						"label": "participantsWhitelistedForSurvey",
						"offset": 0,
						"slot": "3",
						"type": "t_mapping(t_address,t_bool)"
					},
					{
						"astId": 490,
						"contract": "smart-contract/hardhat/contracts/ClosedSurveyV3.sol:ClosedSurveyV3",
						"label": "rewardedParticipants",
						"offset": 0,
						"slot": "4",
						"type": "t_mapping(t_address,t_bool)"
					},
					{
						"astId": 494,
						"contract": "smart-contract/hardhat/contracts/ClosedSurveyV3.sol:ClosedSurveyV3",
						"label": "participantsScreenedForSurvey",
						"offset": 0,
						"slot": "5",
						"type": "t_mapping(t_address,t_bool)"
					},
					{
						"astId": 496,
						"contract": "smart-contract/hardhat/contracts/ClosedSurveyV3.sol:ClosedSurveyV3",
						"label": "rewardAmountPerParticipantInWei",
						"offset": 0,
						"slot": "6",
						"type": "t_uint256"
					},
					{
						"astId": 498,
						"contract": "smart-contract/hardhat/contracts/ClosedSurveyV3.sol:ClosedSurveyV3",
						"label": "targetNumberOfParticipants",
						"offset": 0,
						"slot": "7",
						"type": "t_uint256"
					},
					{
						"astId": 500,
						"contract": "smart-contract/hardhat/contracts/ClosedSurveyV3.sol:ClosedSurveyV3",
						"label": "numberOfRewardedParticipants",
						"offset": 0,
						"slot": "8",
						"type": "t_uint256"
					},
					{
						"astId": 502,
						"contract": "smart-contract/hardhat/contracts/ClosedSurveyV3.sol:ClosedSurveyV3",
						"label": "numberOfWhitelistedParticipants",
						"offset": 0,
						"slot": "9",
						"type": "t_uint256"
					},
					{
						"astId": 504,
						"contract": "smart-contract/hardhat/contracts/ClosedSurveyV3.sol:ClosedSurveyV3",
						"label": "numberOfScreenedParticipants",
						"offset": 0,
						"slot": "10",
						"type": "t_uint256"
					}
				],
				"types": {
					"t_address": {
						"encoding": "inplace",
						"label": "address",
						"numberOfBytes": "20"
					},
					"t_bool": {
						"encoding": "inplace",
						"label": "bool",
						"numberOfBytes": "1"
					},
					"t_mapping(t_address,t_bool)": {
						"encoding": "mapping",
						"key": "t_address",
						"label": "mapping(address => bool)",
						"numberOfBytes": "32",
						"value": "t_bool"
					},
					"t_uint256": {
						"encoding": "inplace",
						"label": "uint256",
						"numberOfBytes": "32"
					}
				}
			},
			"userdoc": {
				"kind": "user",
				"methods": {},
				"version": 1
			}
		}
	}
}