{
	"smart-contract/hardhat/contracts/ClosedSurveyV4.sol": {
		"ClosedSurveyV4": {
			"abi": [
				{
					"inputs": [
						{
							"internalType": "address",
							"name": "researcher",
							"type": "address"
						},
						{
							"internalType": "uint256",
							"name": "_rewardAmountPerParticipantInWei",
							"type": "uint256"
						},
						{
							"internalType": "uint256",
							"name": "_targetNumberOfParticipants",
							"type": "uint256"
						},
						{
							"internalType": "address",
							"name": "cUSDToken",
							"type": "address"
						}
					],
					"stateMutability": "nonpayable",
					"type": "constructor"
				},
				{
					"inputs": [],
					"name": "ECDSAInvalidSignature",
					"type": "error"
				},
				{
					"inputs": [
						{
							"internalType": "uint256",
							"name": "length",
							"type": "uint256"
						}
					],
					"name": "ECDSAInvalidSignatureLength",
					"type": "error"
				},
				{
					"inputs": [
						{
							"internalType": "bytes32",
							"name": "s",
							"type": "bytes32"
						}
					],
					"name": "ECDSAInvalidSignatureS",
					"type": "error"
				},
				{
					"inputs": [],
					"name": "EnforcedPause",
					"type": "error"
				},
				{
					"inputs": [],
					"name": "ExpectedPause",
					"type": "error"
				},
				{
					"inputs": [
						{
							"internalType": "address",
							"name": "owner",
							"type": "address"
						}
					],
					"name": "OwnableInvalidOwner",
					"type": "error"
				},
				{
					"inputs": [
						{
							"internalType": "address",
							"name": "account",
							"type": "address"
						}
					],
					"name": "OwnableUnauthorizedAccount",
					"type": "error"
				},
				{
					"inputs": [],
					"name": "ReentrancyGuardReentrantCall",
					"type": "error"
				},
				{
					"anonymous": false,
					"inputs": [
						{
							"indexed": true,
							"internalType": "address",
							"name": "previousOwner",
							"type": "address"
						},
						{
							"indexed": true,
							"internalType": "address",
							"name": "newOwner",
							"type": "address"
						}
					],
					"name": "OwnershipTransferred",
					"type": "event"
				},
				{
					"anonymous": false,
					"inputs": [
						{
							"indexed": false,
							"internalType": "address",
							"name": "participant",
							"type": "address"
						}
					],
					"name": "ParticipantMarkedAsRewarded",
					"type": "event"
				},
				{
					"anonymous": false,
					"inputs": [
						{
							"indexed": false,
							"internalType": "address",
							"name": "participant",
							"type": "address"
						},
						{
							"indexed": false,
							"internalType": "uint256",
							"name": "rewardAmount",
							"type": "uint256"
						}
					],
					"name": "ParticipantRewarded",
					"type": "event"
				},
				{
					"anonymous": false,
					"inputs": [
						{
							"indexed": false,
							"internalType": "address",
							"name": "participant",
							"type": "address"
						}
					],
					"name": "ParticipantScreened",
					"type": "event"
				},
				{
					"anonymous": false,
					"inputs": [
						{
							"indexed": false,
							"internalType": "address",
							"name": "account",
							"type": "address"
						}
					],
					"name": "Paused",
					"type": "event"
				},
				{
					"anonymous": false,
					"inputs": [
						{
							"indexed": false,
							"internalType": "uint256",
							"name": "oldcUSDRewardAmountPerParticipantInWei",
							"type": "uint256"
						},
						{
							"indexed": false,
							"internalType": "uint256",
							"name": "newcUSDRewardAmountPerParticipantInWei",
							"type": "uint256"
						}
					],
					"name": "RewardAmountUpdated",
					"type": "event"
				},
				{
					"anonymous": false,
					"inputs": [
						{
							"indexed": false,
							"internalType": "address",
							"name": "researcher",
							"type": "address"
						},
						{
							"indexed": false,
							"internalType": "uint256",
							"name": "rewardAmount",
							"type": "uint256"
						}
					],
					"name": "RewardFundsWithdrawn",
					"type": "event"
				},
				{
					"anonymous": false,
					"inputs": [
						{
							"indexed": false,
							"internalType": "bytes",
							"name": "signature",
							"type": "bytes"
						},
						{
							"indexed": false,
							"internalType": "address",
							"name": "participant",
							"type": "address"
						}
					],
					"name": "SignatureUsed",
					"type": "event"
				},
				{
					"anonymous": false,
					"inputs": [
						{
							"indexed": false,
							"internalType": "uint256",
							"name": "oldTargetNumberOfParticipants",
							"type": "uint256"
						},
						{
							"indexed": false,
							"internalType": "uint256",
							"name": "newTargetNumberOfParticipants",
							"type": "uint256"
						}
					],
					"name": "TargetNumberOfParticipantsUpdated",
					"type": "event"
				},
				{
					"anonymous": false,
					"inputs": [
						{
							"indexed": false,
							"internalType": "address",
							"name": "account",
							"type": "address"
						}
					],
					"name": "Unpaused",
					"type": "event"
				},
				{
					"inputs": [],
					"name": "cUSD",
					"outputs": [
						{
							"internalType": "contract IERC20Metadata",
							"name": "",
							"type": "address"
						}
					],
					"stateMutability": "view",
					"type": "function"
				},
				{
					"inputs": [
						{
							"internalType": "address",
							"name": "participant",
							"type": "address"
						}
					],
					"name": "checkIfParticipantIsScreened",
					"outputs": [
						{
							"internalType": "bool",
							"name": "",
							"type": "bool"
						}
					],
					"stateMutability": "view",
					"type": "function"
				},
				{
					"inputs": [
						{
							"internalType": "bytes",
							"name": "signature",
							"type": "bytes"
						}
					],
					"name": "checkIfSignatureIsUsed",
					"outputs": [
						{
							"internalType": "bool",
							"name": "",
							"type": "bool"
						}
					],
					"stateMutability": "view",
					"type": "function"
				},
				{
					"inputs": [],
					"name": "getNumberOfClaimedRewards",
					"outputs": [
						{
							"internalType": "uint256",
							"name": "",
							"type": "uint256"
						}
					],
					"stateMutability": "view",
					"type": "function"
				},
				{
					"inputs": [],
					"name": "getNumberOfRewardedParticipants",
					"outputs": [
						{
							"internalType": "uint256",
							"name": "",
							"type": "uint256"
						}
					],
					"stateMutability": "view",
					"type": "function"
				},
				{
					"inputs": [],
					"name": "getNumberOfScreenedParticipants",
					"outputs": [
						{
							"internalType": "uint256",
							"name": "",
							"type": "uint256"
						}
					],
					"stateMutability": "view",
					"type": "function"
				},
				{
					"inputs": [],
					"name": "getNumberOfUsedSignatures",
					"outputs": [
						{
							"internalType": "uint256",
							"name": "",
							"type": "uint256"
						}
					],
					"stateMutability": "view",
					"type": "function"
				},
				{
					"inputs": [],
					"name": "getRewardAmountPerParticipantInWei",
					"outputs": [
						{
							"internalType": "uint256",
							"name": "",
							"type": "uint256"
						}
					],
					"stateMutability": "view",
					"type": "function"
				},
				{
					"inputs": [],
					"name": "getTargetNumberOfParticipants",
					"outputs": [
						{
							"internalType": "uint256",
							"name": "",
							"type": "uint256"
						}
					],
					"stateMutability": "view",
					"type": "function"
				},
				{
					"inputs": [],
					"name": "numberOfScreenedParticipants",
					"outputs": [
						{
							"internalType": "uint256",
							"name": "",
							"type": "uint256"
						}
					],
					"stateMutability": "view",
					"type": "function"
				},
				{
					"inputs": [],
					"name": "numberOfUsedSignatures",
					"outputs": [
						{
							"internalType": "uint256",
							"name": "",
							"type": "uint256"
						}
					],
					"stateMutability": "view",
					"type": "function"
				},
				{
					"inputs": [],
					"name": "owner",
					"outputs": [
						{
							"internalType": "address",
							"name": "",
							"type": "address"
						}
					],
					"stateMutability": "view",
					"type": "function"
				},
				{
					"inputs": [],
					"name": "pauseSurvey",
					"outputs": [],
					"stateMutability": "nonpayable",
					"type": "function"
				},
				{
					"inputs": [],
					"name": "paused",
					"outputs": [
						{
							"internalType": "bool",
							"name": "",
							"type": "bool"
						}
					],
					"stateMutability": "view",
					"type": "function"
				},
				{
					"inputs": [
						{
							"internalType": "address",
							"name": "participant",
							"type": "address"
						},
						{
							"internalType": "string",
							"name": "rewardId",
							"type": "string"
						},
						{
							"internalType": "uint256",
							"name": "nonce",
							"type": "uint256"
						},
						{
							"internalType": "bytes",
							"name": "signature",
							"type": "bytes"
						}
					],
					"name": "processRewardClaimByParticipant",
					"outputs": [],
					"stateMutability": "nonpayable",
					"type": "function"
				},
				{
					"inputs": [],
					"name": "renounceOwnership",
					"outputs": [],
					"stateMutability": "nonpayable",
					"type": "function"
				},
				{
					"inputs": [],
					"name": "rewardAmountPerParticipantInWei",
					"outputs": [
						{
							"internalType": "uint256",
							"name": "",
							"type": "uint256"
						}
					],
					"stateMutability": "view",
					"type": "function"
				},
				{
					"inputs": [
						{
							"internalType": "address",
							"name": "participant",
							"type": "address"
						}
					],
					"name": "screenParticipant",
					"outputs": [],
					"stateMutability": "nonpayable",
					"type": "function"
				},
				{
					"inputs": [],
					"name": "targetNumberOfParticipants",
					"outputs": [
						{
							"internalType": "uint256",
							"name": "",
							"type": "uint256"
						}
					],
					"stateMutability": "view",
					"type": "function"
				},
				{
					"inputs": [
						{
							"internalType": "address",
							"name": "newOwner",
							"type": "address"
						}
					],
					"name": "transferOwnership",
					"outputs": [],
					"stateMutability": "nonpayable",
					"type": "function"
				},
				{
					"inputs": [],
					"name": "unpauseSurvey",
					"outputs": [],
					"stateMutability": "nonpayable",
					"type": "function"
				},
				{
					"inputs": [
						{
							"internalType": "uint256",
							"name": "_newRewardAmountPerParticipantInWei",
							"type": "uint256"
						}
					],
					"name": "updateRewardAmountPerParticipant",
					"outputs": [],
					"stateMutability": "nonpayable",
					"type": "function"
				},
				{
					"inputs": [
						{
							"internalType": "uint256",
							"name": "_newTargetNumberOfParticipants",
							"type": "uint256"
						}
					],
					"name": "updateTargetNumberOfParticipants",
					"outputs": [],
					"stateMutability": "nonpayable",
					"type": "function"
				},
				{
					"inputs": [],
					"name": "withdrawAllRewardFundsToResearcher",
					"outputs": [],
					"stateMutability": "nonpayable",
					"type": "function"
				}
			],
			"devdoc": {
				"details": "Inherits from Ownable for access control, ReentrancyGuard for security, and Pausable for emergency stops",
				"errors": {
					"ECDSAInvalidSignature()": [
						{
							"details": "The signature derives the `address(0)`."
						}
					],
					"ECDSAInvalidSignatureLength(uint256)": [
						{
							"details": "The signature has an invalid length."
						}
					],
					"ECDSAInvalidSignatureS(bytes32)": [
						{
							"details": "The signature has an S value that is in the upper half order."
						}
					],
					"EnforcedPause()": [
						{
							"details": "The operation failed because the contract is paused."
						}
					],
					"ExpectedPause()": [
						{
							"details": "The operation failed because the contract is not paused."
						}
					],
					"OwnableInvalidOwner(address)": [
						{
							"details": "The owner is not a valid owner account. (eg. `address(0)`)"
						}
					],
					"OwnableUnauthorizedAccount(address)": [
						{
							"details": "The caller account is not authorized to perform an operation."
						}
					],
					"ReentrancyGuardReentrantCall()": [
						{
							"details": "Unauthorized reentrant call."
						}
					]
				},
				"events": {
					"ParticipantMarkedAsRewarded(address)": {
						"params": {
							"participant": "The address of the participant marked as rewarded"
						}
					},
					"ParticipantRewarded(address,uint256)": {
						"params": {
							"participant": "The address of the rewarded participant",
							"rewardAmount": "The amount of cUSD rewarded in wei"
						}
					},
					"ParticipantScreened(address)": {
						"params": {
							"participant": "The address of the screened participant"
						}
					},
					"Paused(address)": {
						"details": "Emitted when the pause is triggered by `account`."
					},
					"RewardAmountUpdated(uint256,uint256)": {
						"params": {
							"newcUSDRewardAmountPerParticipantInWei": "The new reward amount",
							"oldcUSDRewardAmountPerParticipantInWei": "The previous reward amount"
						}
					},
					"RewardFundsWithdrawn(address,uint256)": {
						"params": {
							"researcher": "The address of the researcher who withdrew the funds",
							"rewardAmount": "The amount of cUSD withdrawn in wei"
						}
					},
					"SignatureUsed(bytes,address)": {
						"params": {
							"participant": "The address of the participant who used the signature",
							"signature": "The signature that was used"
						}
					},
					"TargetNumberOfParticipantsUpdated(uint256,uint256)": {
						"params": {
							"newTargetNumberOfParticipants": "The new target number",
							"oldTargetNumberOfParticipants": "The previous target number"
						}
					},
					"Unpaused(address)": {
						"details": "Emitted when the pause is lifted by `account`."
					}
				},
				"kind": "dev",
				"methods": {
					"checkIfParticipantIsScreened(address)": {
						"params": {
							"participant": "- Address of the participant to check"
						},
						"returns": {
							"_0": "bool True if the participant has been screened"
						}
					},
					"checkIfSignatureIsUsed(bytes)": {
						"params": {
							"signature": "Cryptographic signature generated by the contract owner"
						},
						"returns": {
							"_0": "bool True if the signature has been used"
						}
					},
					"constructor": {
						"details": "Sets up the contract with researcher address, reward amount, participant target, and cUSD token",
						"params": {
							"_rewardAmountPerParticipantInWei": "Amount in wei to reward each participant",
							"_targetNumberOfParticipants": "Maximum number of participants for the survey",
							"cUSDToken": "Address of the cUSD token contract",
							"researcher": "Address of the researcher who will own and manage the contract"
						}
					},
					"getNumberOfClaimedRewards()": {
						"returns": {
							"_0": "uint256 The number of claimed rewards"
						}
					},
					"getNumberOfRewardedParticipants()": {
						"returns": {
							"_0": "uint256 The number of participants who have been rewarded"
						}
					},
					"getNumberOfScreenedParticipants()": {
						"returns": {
							"_0": "uint256 The number of screened participants"
						}
					},
					"getNumberOfUsedSignatures()": {
						"returns": {
							"_0": "uint256 The number of used signatures"
						}
					},
					"getRewardAmountPerParticipantInWei()": {
						"returns": {
							"_0": "uint256 The reward amount in wei"
						}
					},
					"getTargetNumberOfParticipants()": {
						"returns": {
							"_0": "uint256 The maximum number of participants allowed"
						}
					},
					"owner()": {
						"details": "Returns the address of the current owner."
					},
					"pauseSurvey()": {
						"details": "Can only be called by the contract owner"
					},
					"paused()": {
						"details": "Returns true if the contract is paused, and false otherwise."
					},
					"processRewardClaimByParticipant(address,string,uint256,bytes)": {
						"details": "Processes the reward claim if all conditions are met and signature is valid",
						"params": {
							"nonce": "Unique number to prevent relay attacks",
							"participant": "Address of the participant claiming the reward",
							"rewardId": "Unique identifier for this reward claim",
							"signature": "Cryptographic signature from the contract owner"
						}
					},
					"renounceOwnership()": {
						"details": "Leaves the contract without owner. It will not be possible to call `onlyOwner` functions. Can only be called by the current owner. NOTE: Renouncing ownership will leave the contract without an owner, thereby disabling any functionality that is only available to the owner."
					},
					"screenParticipant(address)": {
						"details": "Marks a [participant] as [true] in [participantsScreenedForSurvey]."
					},
					"transferOwnership(address)": {
						"details": "Transfers ownership of the contract to a new account (`newOwner`). Can only be called by the current owner."
					},
					"unpauseSurvey()": {
						"details": "Can only be called by the contract owner"
					},
					"updateRewardAmountPerParticipant(uint256)": {
						"details": "Can only be called by the contract owner",
						"params": {
							"_newRewardAmountPerParticipantInWei": "- New reward amount in wei"
						}
					},
					"updateTargetNumberOfParticipants(uint256)": {
						"details": "Can only be called by the contract owner",
						"params": {
							"_newTargetNumberOfParticipants": "- New target number of participants"
						}
					},
					"withdrawAllRewardFundsToResearcher()": {
						"details": "Can only be called by the contract owner when the contract is not paused"
					}
				},
				"version": 1
			},
			"evm": {
				"assembly": "    /* \"smart-contract/hardhat/contracts/ClosedSurveyV4.sol\":669:18988  contract ClosedSurveyV4 is Ownable, ReentrancyGuard, Pausable {... */\n  mstore(0x40, 0xa0)\n    /* \"smart-contract/hardhat/contracts/ClosedSurveyV4.sol\":7880:8628  constructor(... */\n  callvalue\n  dup1\n  iszero\n  tag_1\n  jumpi\n  0x00\n  dup1\n  revert\ntag_1:\n  pop\n  mload(0x40)\n  sub(codesize, bytecodeSize)\n  dup1\n  bytecodeSize\n  dup4\n  codecopy\n  dup2\n  add\n  0x40\n  dup2\n  swap1\n  mstore\n  tag_2\n  swap2\n  tag_3\n  jump\t// in\ntag_2:\n    /* \"smart-contract/hardhat/contracts/ClosedSurveyV4.sol\":8056:8066  researcher */\n  dup4\n  sub(shl(0xa0, 0x01), 0x01)\n    /* \"@openzeppelin/contracts/access/Ownable.sol\":1273:1299  initialOwner == address(0) */\n  dup2\n  and\n    /* \"@openzeppelin/contracts/access/Ownable.sol\":1269:1364  if (initialOwner == address(0)) {... */\n  tag_9\n  jumpi\n    /* \"@openzeppelin/contracts/access/Ownable.sol\":1322:1353  OwnableInvalidOwner(address(0)) */\n  mload(0x40)\n  shl(0xe0, 0x1e4fbdf7)\n  dup2\n  mstore\n    /* \"@openzeppelin/contracts/access/Ownable.sol\":1350:1351  0 */\n  0x00\n    /* \"@openzeppelin/contracts/access/Ownable.sol\":1322:1353  OwnableInvalidOwner(address(0)) */\n  0x04\n  dup3\n  add\n    /* \"#utility.yul\":861:912   */\n  mstore\n    /* \"#utility.yul\":834:852   */\n  0x24\n  add\n    /* \"@openzeppelin/contracts/access/Ownable.sol\":1322:1353  OwnableInvalidOwner(address(0)) */\ntag_10:\n  mload(0x40)\n  dup1\n  swap2\n  sub\n  swap1\n  revert\n    /* \"@openzeppelin/contracts/access/Ownable.sol\":1269:1364  if (initialOwner == address(0)) {... */\ntag_9:\n    /* \"@openzeppelin/contracts/access/Ownable.sol\":1373:1405  _transferOwnership(initialOwner) */\n  tag_12\n    /* \"@openzeppelin/contracts/access/Ownable.sol\":1392:1404  initialOwner */\n  dup2\n    /* \"@openzeppelin/contracts/access/Ownable.sol\":1373:1391  _transferOwnership */\n  tag_13\n    /* \"@openzeppelin/contracts/access/Ownable.sol\":1373:1405  _transferOwnership(initialOwner) */\n  jump\t// in\ntag_12:\n  pop\n    /* \"@openzeppelin/contracts/utils/ReentrancyGuard.sol\":1857:1858  1 */\n  0x01\n    /* \"@openzeppelin/contracts/utils/ReentrancyGuard.sol\":2061:2082  _status = NOT_ENTERED */\n  dup1\n  sstore\n    /* \"@openzeppelin/contracts/utils/Pausable.sol\":1231:1238  _paused */\n  0x02\n    /* \"@openzeppelin/contracts/utils/Pausable.sol\":1231:1246  _paused = false */\n  dup1\n  sload\n  not(0xff)\n  and\n  swap1\n  sstore\n  sub(shl(0xa0, 0x01), 0x01)\n    /* \"smart-contract/hardhat/contracts/ClosedSurveyV4.sol\":8086:8109  cUSDToken != address(0) */\n  dup2\n  and\n    /* \"smart-contract/hardhat/contracts/ClosedSurveyV4.sol\":8078:8147  require(cUSDToken != address(0), \"Zero address given for cUSD Token\") */\n  tag_17\n  jumpi\n  mload(0x40)\n  shl(0xe5, 0x461bcd)\n  dup2\n  mstore\n    /* \"#utility.yul\":1125:1127   */\n  0x20\n    /* \"smart-contract/hardhat/contracts/ClosedSurveyV4.sol\":8078:8147  require(cUSDToken != address(0), \"Zero address given for cUSD Token\") */\n  0x04\n  dup3\n  add\n    /* \"#utility.yul\":1107:1128   */\n  mstore\n    /* \"#utility.yul\":1164:1166   */\n  0x21\n    /* \"#utility.yul\":1144:1162   */\n  0x24\n  dup3\n  add\n    /* \"#utility.yul\":1137:1167   */\n  mstore\n    /* \"#utility.yul\":1203:1237   */\n  0x5a65726f206164647265737320676976656e20666f72206355534420546f6b65\n    /* \"#utility.yul\":1183:1201   */\n  0x44\n  dup3\n  add\n    /* \"#utility.yul\":1176:1238   */\n  mstore\n  shl(0xf9, 0x37)\n    /* \"#utility.yul\":1254:1272   */\n  0x64\n  dup3\n  add\n    /* \"#utility.yul\":1247:1278   */\n  mstore\n    /* \"#utility.yul\":1295:1314   */\n  0x84\n  add\n    /* \"smart-contract/hardhat/contracts/ClosedSurveyV4.sol\":8078:8147  require(cUSDToken != address(0), \"Zero address given for cUSD Token\") */\n  tag_10\n    /* \"#utility.yul\":923:1320   */\n  jump\n    /* \"smart-contract/hardhat/contracts/ClosedSurveyV4.sol\":8078:8147  require(cUSDToken != address(0), \"Zero address given for cUSD Token\") */\ntag_17:\n  sub(shl(0xa0, 0x01), 0x01)\n    /* \"smart-contract/hardhat/contracts/ClosedSurveyV4.sol\":8166:8190  researcher != address(0) */\n  dup5\n  and\n    /* \"smart-contract/hardhat/contracts/ClosedSurveyV4.sol\":8158:8228  require(researcher != address(0), \"Zero address given for researcher\") */\n  tag_20\n  jumpi\n  mload(0x40)\n  shl(0xe5, 0x461bcd)\n  dup2\n  mstore\n    /* \"#utility.yul\":1527:1529   */\n  0x20\n    /* \"smart-contract/hardhat/contracts/ClosedSurveyV4.sol\":8158:8228  require(researcher != address(0), \"Zero address given for researcher\") */\n  0x04\n  dup3\n  add\n    /* \"#utility.yul\":1509:1530   */\n  mstore\n    /* \"#utility.yul\":1566:1568   */\n  0x21\n    /* \"#utility.yul\":1546:1564   */\n  0x24\n  dup3\n  add\n    /* \"#utility.yul\":1539:1569   */\n  mstore\n    /* \"#utility.yul\":1605:1639   */\n  0x5a65726f206164647265737320676976656e20666f7220726573656172636865\n    /* \"#utility.yul\":1585:1603   */\n  0x44\n  dup3\n  add\n    /* \"#utility.yul\":1578:1640   */\n  mstore\n  shl(0xf9, 0x39)\n    /* \"#utility.yul\":1656:1674   */\n  0x64\n  dup3\n  add\n    /* \"#utility.yul\":1649:1680   */\n  mstore\n    /* \"#utility.yul\":1697:1716   */\n  0x84\n  add\n    /* \"smart-contract/hardhat/contracts/ClosedSurveyV4.sol\":8158:8228  require(researcher != address(0), \"Zero address given for researcher\") */\n  tag_10\n    /* \"#utility.yul\":1325:1722   */\n  jump\n    /* \"smart-contract/hardhat/contracts/ClosedSurveyV4.sol\":8158:8228  require(researcher != address(0), \"Zero address given for researcher\") */\ntag_20:\n    /* \"smart-contract/hardhat/contracts/ClosedSurveyV4.sol\":8282:8283  0 */\n  0x00\n    /* \"smart-contract/hardhat/contracts/ClosedSurveyV4.sol\":8247:8279  _rewardAmountPerParticipantInWei */\n  dup4\n    /* \"smart-contract/hardhat/contracts/ClosedSurveyV4.sol\":8247:8283  _rewardAmountPerParticipantInWei > 0 */\n  gt\n    /* \"smart-contract/hardhat/contracts/ClosedSurveyV4.sol\":8239:8309  require(_rewardAmountPerParticipantInWei > 0, \"Invalid reward amount\") */\n  tag_23\n  jumpi\n  mload(0x40)\n  shl(0xe5, 0x461bcd)\n  dup2\n  mstore\n    /* \"#utility.yul\":1929:1931   */\n  0x20\n    /* \"smart-contract/hardhat/contracts/ClosedSurveyV4.sol\":8239:8309  require(_rewardAmountPerParticipantInWei > 0, \"Invalid reward amount\") */\n  0x04\n  dup3\n  add\n    /* \"#utility.yul\":1911:1932   */\n  mstore\n    /* \"#utility.yul\":1968:1970   */\n  0x15\n    /* \"#utility.yul\":1948:1966   */\n  0x24\n  dup3\n  add\n    /* \"#utility.yul\":1941:1971   */\n  mstore\n    /* \"#utility.yul\":2007:2030   */\n  0x496e76616c69642072657761726420616d6f756e740000000000000000000000\n    /* \"#utility.yul\":1987:2005   */\n  0x44\n  dup3\n  add\n    /* \"#utility.yul\":1980:2031   */\n  mstore\n    /* \"#utility.yul\":2048:2066   */\n  0x64\n  add\n    /* \"smart-contract/hardhat/contracts/ClosedSurveyV4.sol\":8239:8309  require(_rewardAmountPerParticipantInWei > 0, \"Invalid reward amount\") */\n  tag_10\n    /* \"#utility.yul\":1727:2072   */\n  jump\n    /* \"smart-contract/hardhat/contracts/ClosedSurveyV4.sol\":8239:8309  require(_rewardAmountPerParticipantInWei > 0, \"Invalid reward amount\") */\ntag_23:\n    /* \"smart-contract/hardhat/contracts/ClosedSurveyV4.sol\":8371:8372  0 */\n  0x00\n    /* \"smart-contract/hardhat/contracts/ClosedSurveyV4.sol\":8341:8368  _targetNumberOfParticipants */\n  dup3\n    /* \"smart-contract/hardhat/contracts/ClosedSurveyV4.sol\":8341:8372  _targetNumberOfParticipants > 0 */\n  gt\n    /* \"smart-contract/hardhat/contracts/ClosedSurveyV4.sol\":8320:8435  require(... */\n  tag_26\n  jumpi\n  mload(0x40)\n  shl(0xe5, 0x461bcd)\n  dup2\n  mstore\n    /* \"#utility.yul\":2279:2281   */\n  0x20\n    /* \"smart-contract/hardhat/contracts/ClosedSurveyV4.sol\":8320:8435  require(... */\n  0x04\n  dup3\n  add\n    /* \"#utility.yul\":2261:2282   */\n  mstore\n    /* \"#utility.yul\":2318:2320   */\n  0x25\n    /* \"#utility.yul\":2298:2316   */\n  0x24\n  dup3\n  add\n    /* \"#utility.yul\":2291:2321   */\n  mstore\n    /* \"#utility.yul\":2357:2391   */\n  0x496e76616c6964206e756d626572206f66207461726765742070617274696369\n    /* \"#utility.yul\":2337:2355   */\n  0x44\n  dup3\n  add\n    /* \"#utility.yul\":2330:2392   */\n  mstore\n  shl(0xd8, 0x70616e7473)\n    /* \"#utility.yul\":2408:2426   */\n  0x64\n  dup3\n  add\n    /* \"#utility.yul\":2401:2436   */\n  mstore\n    /* \"#utility.yul\":2453:2472   */\n  0x84\n  add\n    /* \"smart-contract/hardhat/contracts/ClosedSurveyV4.sol\":8320:8435  require(... */\n  tag_10\n    /* \"#utility.yul\":2077:2478   */\n  jump\n    /* \"smart-contract/hardhat/contracts/ClosedSurveyV4.sol\":8320:8435  require(... */\ntag_26:\n  sub(shl(0xa0, 0x01), 0x01)\n    /* \"smart-contract/hardhat/contracts/ClosedSurveyV4.sol\":8446:8478  cUSD = IERC20Metadata(cUSDToken) */\n  and\n  0x80\n  mstore\n    /* \"smart-contract/hardhat/contracts/ClosedSurveyV4.sol\":8489:8520  rewardAmountPerParticipantInWei */\n  0x06\n    /* \"smart-contract/hardhat/contracts/ClosedSurveyV4.sol\":8489:8555  rewardAmountPerParticipantInWei = _rewardAmountPerParticipantInWei */\n  swap2\n  swap1\n  swap2\n  sstore\n    /* \"smart-contract/hardhat/contracts/ClosedSurveyV4.sol\":8565:8591  targetNumberOfParticipants */\n  0x07\n    /* \"smart-contract/hardhat/contracts/ClosedSurveyV4.sol\":8565:8621  targetNumberOfParticipants = _targetNumberOfParticipants */\n  sstore\n  pop\n    /* \"smart-contract/hardhat/contracts/ClosedSurveyV4.sol\":669:18988  contract ClosedSurveyV4 is Ownable, ReentrancyGuard, Pausable {... */\n  jump(tag_32)\n    /* \"@openzeppelin/contracts/access/Ownable.sol\":2912:3099  function _transferOwnership(address newOwner) internal virtual {... */\ntag_13:\n    /* \"@openzeppelin/contracts/access/Ownable.sol\":2985:3001  address oldOwner */\n  0x00\n    /* \"@openzeppelin/contracts/access/Ownable.sol\":3004:3010  _owner */\n  dup1\n  sload\n  sub(shl(0xa0, 0x01), 0x01)\n    /* \"@openzeppelin/contracts/access/Ownable.sol\":3020:3037  _owner = newOwner */\n  dup4\n  dup2\n  and\n  not(sub(shl(0xa0, 0x01), 0x01))\n  dup4\n  and\n  dup2\n  or\n  dup5\n  sstore\n    /* \"@openzeppelin/contracts/access/Ownable.sol\":3052:3092  OwnershipTransferred(oldOwner, newOwner) */\n  mload(0x40)\n    /* \"@openzeppelin/contracts/access/Ownable.sol\":3004:3010  _owner */\n  swap2\n  swap1\n  swap3\n  and\n  swap3\n  dup4\n  swap2\n    /* \"@openzeppelin/contracts/access/Ownable.sol\":3052:3092  OwnershipTransferred(oldOwner, newOwner) */\n  0x8be0079c531659141344cd1fd0a4f28419497f9722a3daafe3b4186f6b6457e0\n  swap2\n    /* \"@openzeppelin/contracts/access/Ownable.sol\":2985:3001  address oldOwner */\n  swap1\n    /* \"@openzeppelin/contracts/access/Ownable.sol\":3052:3092  OwnershipTransferred(oldOwner, newOwner) */\n  log3\n    /* \"@openzeppelin/contracts/access/Ownable.sol\":2975:3099  {... */\n  pop\n    /* \"@openzeppelin/contracts/access/Ownable.sol\":2912:3099  function _transferOwnership(address newOwner) internal virtual {... */\n  pop\n  jump\t// out\n    /* \"#utility.yul\":14:191   */\ntag_31:\n    /* \"#utility.yul\":93:106   */\n  dup1\n  mload\n  sub(shl(0xa0, 0x01), 0x01)\n    /* \"#utility.yul\":135:166   */\n  dup2\n  and\n    /* \"#utility.yul\":125:167   */\n  dup2\n  eq\n    /* \"#utility.yul\":115:185   */\n  tag_34\n  jumpi\n    /* \"#utility.yul\":181:182   */\n  0x00\n    /* \"#utility.yul\":178:179   */\n  dup1\n    /* \"#utility.yul\":171:183   */\n  revert\n    /* \"#utility.yul\":115:185   */\ntag_34:\n    /* \"#utility.yul\":14:191   */\n  swap2\n  swap1\n  pop\n  jump\t// out\n    /* \"#utility.yul\":196:710   */\ntag_3:\n    /* \"#utility.yul\":293:299   */\n  0x00\n    /* \"#utility.yul\":301:307   */\n  dup1\n    /* \"#utility.yul\":309:315   */\n  0x00\n    /* \"#utility.yul\":317:323   */\n  dup1\n    /* \"#utility.yul\":370:373   */\n  0x80\n    /* \"#utility.yul\":358:367   */\n  dup6\n    /* \"#utility.yul\":349:356   */\n  dup8\n    /* \"#utility.yul\":345:368   */\n  sub\n    /* \"#utility.yul\":341:374   */\n  slt\n    /* \"#utility.yul\":338:391   */\n  iszero\n  tag_36\n  jumpi\n    /* \"#utility.yul\":387:388   */\n  0x00\n    /* \"#utility.yul\":384:385   */\n  dup1\n    /* \"#utility.yul\":377:389   */\n  revert\n    /* \"#utility.yul\":338:391   */\ntag_36:\n    /* \"#utility.yul\":410:450   */\n  tag_37\n    /* \"#utility.yul\":440:449   */\n  dup6\n    /* \"#utility.yul\":410:450   */\n  tag_31\n  jump\t// in\ntag_37:\n    /* \"#utility.yul\":512:514   */\n  0x20\n    /* \"#utility.yul\":497:515   */\n  dup7\n  add\n    /* \"#utility.yul\":491:516   */\n  mload\n    /* \"#utility.yul\":606:608   */\n  0x40\n    /* \"#utility.yul\":591:609   */\n  dup8\n  add\n    /* \"#utility.yul\":585:610   */\n  mload\n    /* \"#utility.yul\":400:450   */\n  swap2\n  swap6\n  pop\n    /* \"#utility.yul\":491:516   */\n  swap4\n  pop\n    /* \"#utility.yul\":585:610   */\n  swap2\n  pop\n    /* \"#utility.yul\":655:704   */\n  tag_38\n    /* \"#utility.yul\":700:702   */\n  0x60\n    /* \"#utility.yul\":685:703   */\n  dup7\n  add\n    /* \"#utility.yul\":655:704   */\n  tag_31\n  jump\t// in\ntag_38:\n    /* \"#utility.yul\":645:704   */\n  swap1\n  pop\n    /* \"#utility.yul\":196:710   */\n  swap3\n  swap6\n  swap2\n  swap5\n  pop\n  swap3\n  pop\n  jump\t// out\n    /* \"#utility.yul\":2077:2478   */\ntag_32:\n    /* \"smart-contract/hardhat/contracts/ClosedSurveyV4.sol\":669:18988  contract ClosedSurveyV4 is Ownable, ReentrancyGuard, Pausable {... */\n  mload(0x80)\n  codecopy(0x00, dataOffset(sub_0), dataSize(sub_0))\n  0x00\n  assignImmutable(\"0x7ded941e36a81cc4d234cbb36fa87b6231d11e62e0a302c8e291ed6faa31e3d0\")\n  return(0x00, dataSize(sub_0))\nstop\n\nsub_0: assembly {\n        /* \"smart-contract/hardhat/contracts/ClosedSurveyV4.sol\":669:18988  contract ClosedSurveyV4 is Ownable, ReentrancyGuard, Pausable {... */\n      mstore(0x40, 0x80)\n      callvalue\n      dup1\n      iszero\n      tag_1\n      jumpi\n      0x00\n      dup1\n      revert\n    tag_1:\n      pop\n      jumpi(tag_2, lt(calldatasize, 0x04))\n      shr(0xe0, calldataload(0x00))\n      dup1\n      0x741ae614\n      gt\n      tag_27\n      jumpi\n      dup1\n      0xc5dac913\n      gt\n      tag_28\n      jumpi\n      dup1\n      0xc5dac913\n      eq\n      tag_21\n      jumpi\n      dup1\n      0xe082fe2a\n      eq\n      tag_22\n      jumpi\n      dup1\n      0xea1dd101\n      eq\n      tag_23\n      jumpi\n      dup1\n      0xf22069df\n      eq\n      tag_24\n      jumpi\n      dup1\n      0xf2fde38b\n      eq\n      tag_25\n      jumpi\n      dup1\n      0xf77a953e\n      eq\n      tag_26\n      jumpi\n      0x00\n      dup1\n      revert\n    tag_28:\n      dup1\n      0x741ae614\n      eq\n      tag_15\n      jumpi\n      dup1\n      0x7a0abf08\n      eq\n      tag_16\n      jumpi\n      dup1\n      0x825f98be\n      eq\n      tag_17\n      jumpi\n      dup1\n      0x8da5cb5b\n      eq\n      tag_18\n      jumpi\n      dup1\n      0xa6a09811\n      eq\n      tag_19\n      jumpi\n      dup1\n      0xc3aa9721\n      eq\n      tag_20\n      jumpi\n      0x00\n      dup1\n      revert\n    tag_27:\n      dup1\n      0x627d3eb9\n      gt\n      tag_29\n      jumpi\n      dup1\n      0x627d3eb9\n      eq\n      tag_9\n      jumpi\n      dup1\n      0x64bb632f\n      eq\n      tag_10\n      jumpi\n      dup1\n      0x6fa1c59d\n      eq\n      tag_11\n      jumpi\n      dup1\n      0x6fa55ed9\n      eq\n      tag_12\n      jumpi\n      dup1\n      0x7069243c\n      eq\n      tag_13\n      jumpi\n      dup1\n      0x715018a6\n      eq\n      tag_14\n      jumpi\n      0x00\n      dup1\n      revert\n    tag_29:\n      dup1\n      0x1fccf672\n      eq\n      tag_3\n      jumpi\n      dup1\n      0x3960fc66\n      eq\n      tag_4\n      jumpi\n      dup1\n      0x4074be40\n      eq\n      tag_5\n      jumpi\n      dup1\n      0x4fc91ba6\n      eq\n      tag_6\n      jumpi\n      dup1\n      0x528780cc\n      eq\n      tag_7\n      jumpi\n      dup1\n      0x5c975abb\n      eq\n      tag_8\n      jumpi\n    tag_2:\n      0x00\n      dup1\n      revert\n        /* \"smart-contract/hardhat/contracts/ClosedSurveyV4.sol\":835:871  IERC20Metadata public immutable cUSD */\n    tag_3:\n      tag_30\n      immutable(\"0x7ded941e36a81cc4d234cbb36fa87b6231d11e62e0a302c8e291ed6faa31e3d0\")\n      dup2\n      jump\n    tag_30:\n      mload(0x40)\n      sub(shl(0xa0, 0x01), 0x01)\n        /* \"#utility.yul\":200:232   */\n      swap1\n      swap2\n      and\n        /* \"#utility.yul\":182:233   */\n      dup2\n      mstore\n        /* \"#utility.yul\":170:172   */\n      0x20\n        /* \"#utility.yul\":155:173   */\n      add\n        /* \"smart-contract/hardhat/contracts/ClosedSurveyV4.sol\":835:871  IERC20Metadata public immutable cUSD */\n    tag_32:\n      mload(0x40)\n      dup1\n      swap2\n      sub\n      swap1\n      return\n        /* \"smart-contract/hardhat/contracts/ClosedSurveyV4.sol\":16498:16569  function unpauseSurvey() external onlyOwner {... */\n    tag_4:\n      tag_34\n      tag_35\n      jump\t// in\n    tag_34:\n      stop\n        /* \"smart-contract/hardhat/contracts/ClosedSurveyV4.sol\":1973:2016  uint256 public numberOfScreenedParticipants */\n    tag_5:\n      tag_36\n      sload(0x0a)\n      dup2\n      jump\n    tag_36:\n      mload(0x40)\n        /* \"#utility.yul\":390:415   */\n      swap1\n      dup2\n      mstore\n        /* \"#utility.yul\":378:380   */\n      0x20\n        /* \"#utility.yul\":363:381   */\n      add\n        /* \"smart-contract/hardhat/contracts/ClosedSurveyV4.sol\":1973:2016  uint256 public numberOfScreenedParticipants */\n      tag_32\n        /* \"#utility.yul\":244:421   */\n      jump\n        /* \"smart-contract/hardhat/contracts/ClosedSurveyV4.sol\":2107:2144  uint256 public numberOfUsedSignatures */\n    tag_6:\n      tag_36\n      sload(0x0b)\n      dup2\n      jump\n        /* \"smart-contract/hardhat/contracts/ClosedSurveyV4.sol\":15546:16172  function updateTargetNumberOfParticipants(... */\n    tag_7:\n      tag_34\n      tag_44\n      calldatasize\n      0x04\n      tag_45\n      jump\t// in\n    tag_44:\n      tag_46\n      jump\t// in\n        /* \"@openzeppelin/contracts/utils/Pausable.sol\":1850:1934  function paused() public view virtual returns (bool) {... */\n    tag_8:\n        /* \"@openzeppelin/contracts/utils/Pausable.sol\":1920:1927  _paused */\n      and(0xff, sload(0x02))\n        /* \"@openzeppelin/contracts/utils/Pausable.sol\":1850:1934  function paused() public view virtual returns (bool) {... */\n    tag_47:\n      mload(0x40)\n        /* \"#utility.yul\":822:836   */\n      swap1\n      iszero\n        /* \"#utility.yul\":815:837   */\n      iszero\n        /* \"#utility.yul\":797:838   */\n      dup2\n      mstore\n        /* \"#utility.yul\":785:787   */\n      0x20\n        /* \"#utility.yul\":770:788   */\n      add\n        /* \"@openzeppelin/contracts/utils/Pausable.sol\":1850:1934  function paused() public view virtual returns (bool) {... */\n      tag_32\n        /* \"#utility.yul\":657:844   */\n      jump\n        /* \"smart-contract/hardhat/contracts/ClosedSurveyV4.sol\":18871:18986  function getNumberOfClaimedRewards() external view returns (uint256) {... */\n    tag_9:\n        /* \"smart-contract/hardhat/contracts/ClosedSurveyV4.sol\":18957:18979  numberOfClaimedRewards */\n      sload(0x09)\n        /* \"smart-contract/hardhat/contracts/ClosedSurveyV4.sol\":18871:18986  function getNumberOfClaimedRewards() external view returns (uint256) {... */\n      jump(tag_36)\n        /* \"smart-contract/hardhat/contracts/ClosedSurveyV4.sol\":14673:15318  function updateRewardAmountPerParticipant(... */\n    tag_10:\n      tag_34\n      tag_55\n      calldatasize\n      0x04\n      tag_45\n      jump\t// in\n    tag_55:\n      tag_56\n      jump\t// in\n        /* \"smart-contract/hardhat/contracts/ClosedSurveyV4.sol\":18075:18198  function getTargetNumberOfParticipants() external view returns (uint256) {... */\n    tag_11:\n        /* \"smart-contract/hardhat/contracts/ClosedSurveyV4.sol\":18165:18191  targetNumberOfParticipants */\n      sload(0x07)\n        /* \"smart-contract/hardhat/contracts/ClosedSurveyV4.sol\":18075:18198  function getTargetNumberOfParticipants() external view returns (uint256) {... */\n      jump(tag_36)\n        /* \"smart-contract/hardhat/contracts/ClosedSurveyV4.sol\":11352:12188  function processRewardClaimByParticipant(... */\n    tag_12:\n      tag_34\n      tag_61\n      calldatasize\n      0x04\n      tag_62\n      jump\t// in\n    tag_61:\n      tag_63\n      jump\t// in\n        /* \"smart-contract/hardhat/contracts/ClosedSurveyV4.sol\":17486:17647  function getRewardAmountPerParticipantInWei()... */\n    tag_13:\n        /* \"smart-contract/hardhat/contracts/ClosedSurveyV4.sol\":17609:17640  rewardAmountPerParticipantInWei */\n      sload(0x06)\n        /* \"smart-contract/hardhat/contracts/ClosedSurveyV4.sol\":17486:17647  function getRewardAmountPerParticipantInWei()... */\n      jump(tag_36)\n        /* \"@openzeppelin/contracts/access/Ownable.sol\":2293:2394  function renounceOwnership() public virtual onlyOwner {... */\n    tag_14:\n      tag_34\n      tag_68\n      jump\t// in\n        /* \"smart-contract/hardhat/contracts/ClosedSurveyV4.sol\":17806:17933  function getNumberOfRewardedParticipants() external view returns (uint256) {... */\n    tag_15:\n        /* \"smart-contract/hardhat/contracts/ClosedSurveyV4.sol\":17898:17926  numberOfRewardedParticipants */\n      sload(0x08)\n        /* \"smart-contract/hardhat/contracts/ClosedSurveyV4.sol\":17806:17933  function getNumberOfRewardedParticipants() external view returns (uint256) {... */\n      jump(tag_36)\n        /* \"smart-contract/hardhat/contracts/ClosedSurveyV4.sol\":1430:1476  uint256 public rewardAmountPerParticipantInWei */\n    tag_16:\n      tag_36\n      sload(0x06)\n      dup2\n      jump\n        /* \"smart-contract/hardhat/contracts/ClosedSurveyV4.sol\":16780:16962  function checkIfParticipantIsScreened(address participant)... */\n    tag_17:\n      tag_47\n      tag_76\n      calldatasize\n      0x04\n      tag_77\n      jump\t// in\n    tag_76:\n      sub(shl(0xa0, 0x01), 0x01)\n        /* \"smart-contract/hardhat/contracts/ClosedSurveyV4.sol\":16913:16955  participantsScreenedForSurvey[participant] */\n      and\n        /* \"smart-contract/hardhat/contracts/ClosedSurveyV4.sol\":16886:16890  bool */\n      0x00\n        /* \"smart-contract/hardhat/contracts/ClosedSurveyV4.sol\":16913:16955  participantsScreenedForSurvey[participant] */\n      swap1\n      dup2\n      mstore\n        /* \"smart-contract/hardhat/contracts/ClosedSurveyV4.sol\":16913:16942  participantsScreenedForSurvey */\n      0x04\n        /* \"smart-contract/hardhat/contracts/ClosedSurveyV4.sol\":16913:16955  participantsScreenedForSurvey[participant] */\n      0x20\n      mstore\n      0x40\n      swap1\n      keccak256\n      sload\n      0xff\n      and\n      swap1\n        /* \"smart-contract/hardhat/contracts/ClosedSurveyV4.sol\":16780:16962  function checkIfParticipantIsScreened(address participant)... */\n      jump\n        /* \"@openzeppelin/contracts/access/Ownable.sol\":1638:1723  function owner() public view virtual returns (address) {... */\n    tag_18:\n        /* \"@openzeppelin/contracts/access/Ownable.sol\":1684:1691  address */\n      0x00\n        /* \"@openzeppelin/contracts/access/Ownable.sol\":1710:1716  _owner */\n      sload\n      sub(shl(0xa0, 0x01), 0x01)\n      and\n        /* \"@openzeppelin/contracts/access/Ownable.sol\":1638:1723  function owner() public view virtual returns (address) {... */\n      jump(tag_30)\n        /* \"smart-contract/hardhat/contracts/ClosedSurveyV4.sol\":1567:1608  uint256 public targetNumberOfParticipants */\n    tag_19:\n      tag_36\n      sload(0x07)\n      dup2\n      jump\n        /* \"smart-contract/hardhat/contracts/ClosedSurveyV4.sol\":18616:18731  function getNumberOfUsedSignatures() external view returns (uint256) {... */\n    tag_20:\n        /* \"smart-contract/hardhat/contracts/ClosedSurveyV4.sol\":18702:18724  numberOfUsedSignatures */\n      sload(0x0b)\n        /* \"smart-contract/hardhat/contracts/ClosedSurveyV4.sol\":18616:18731  function getNumberOfUsedSignatures() external view returns (uint256) {... */\n      jump(tag_36)\n        /* \"smart-contract/hardhat/contracts/ClosedSurveyV4.sol\":17177:17350  function checkIfSignatureIsUsed(bytes memory signature)... */\n    tag_21:\n      tag_47\n      tag_91\n      calldatasize\n      0x04\n      tag_92\n      jump\t// in\n    tag_91:\n      tag_93\n      jump\t// in\n        /* \"smart-contract/hardhat/contracts/ClosedSurveyV4.sol\":16303:16370  function pauseSurvey() external onlyOwner {... */\n    tag_22:\n      tag_34\n      tag_96\n      jump\t// in\n        /* \"smart-contract/hardhat/contracts/ClosedSurveyV4.sol\":8730:9153  function screenParticipant(address participant)... */\n    tag_23:\n      tag_34\n      tag_98\n      calldatasize\n      0x04\n      tag_77\n      jump\t// in\n    tag_98:\n      tag_99\n      jump\t// in\n        /* \"smart-contract/hardhat/contracts/ClosedSurveyV4.sol\":14087:14464  function withdrawAllRewardFundsToResearcher()... */\n    tag_24:\n      tag_34\n      tag_101\n      jump\t// in\n        /* \"@openzeppelin/contracts/access/Ownable.sol\":2543:2758  function transferOwnership(address newOwner) public virtual onlyOwner {... */\n    tag_25:\n      tag_34\n      tag_103\n      calldatasize\n      0x04\n      tag_77\n      jump\t// in\n    tag_103:\n      tag_104\n      jump\t// in\n        /* \"smart-contract/hardhat/contracts/ClosedSurveyV4.sol\":18349:18476  function getNumberOfScreenedParticipants() external view returns (uint256) {... */\n    tag_26:\n        /* \"smart-contract/hardhat/contracts/ClosedSurveyV4.sol\":18441:18469  numberOfScreenedParticipants */\n      sload(0x0a)\n        /* \"smart-contract/hardhat/contracts/ClosedSurveyV4.sol\":18349:18476  function getNumberOfScreenedParticipants() external view returns (uint256) {... */\n      jump(tag_36)\n        /* \"smart-contract/hardhat/contracts/ClosedSurveyV4.sol\":16498:16569  function unpauseSurvey() external onlyOwner {... */\n    tag_35:\n        /* \"@openzeppelin/contracts/access/Ownable.sol\":1531:1544  _checkOwner() */\n      tag_109\n        /* \"@openzeppelin/contracts/access/Ownable.sol\":1531:1542  _checkOwner */\n      tag_110\n        /* \"@openzeppelin/contracts/access/Ownable.sol\":1531:1544  _checkOwner() */\n      jump\t// in\n    tag_109:\n        /* \"smart-contract/hardhat/contracts/ClosedSurveyV4.sol\":16552:16562  _unpause() */\n      tag_112\n        /* \"smart-contract/hardhat/contracts/ClosedSurveyV4.sol\":16552:16560  _unpause */\n      tag_113\n        /* \"smart-contract/hardhat/contracts/ClosedSurveyV4.sol\":16552:16562  _unpause() */\n      jump\t// in\n    tag_112:\n        /* \"smart-contract/hardhat/contracts/ClosedSurveyV4.sol\":16498:16569  function unpauseSurvey() external onlyOwner {... */\n      jump\t// out\n        /* \"smart-contract/hardhat/contracts/ClosedSurveyV4.sol\":15546:16172  function updateTargetNumberOfParticipants(... */\n    tag_46:\n        /* \"@openzeppelin/contracts/access/Ownable.sol\":1531:1544  _checkOwner() */\n      tag_115\n        /* \"@openzeppelin/contracts/access/Ownable.sol\":1531:1542  _checkOwner */\n      tag_110\n        /* \"@openzeppelin/contracts/access/Ownable.sol\":1531:1544  _checkOwner() */\n      jump\t// in\n    tag_115:\n        /* \"smart-contract/hardhat/contracts/ClosedSurveyV4.sol\":15692:15722  _newTargetNumberOfParticipants */\n      dup1\n        /* \"smart-contract/hardhat/contracts/ClosedSurveyV4.sol\":15726:15727  0 */\n      0x00\n        /* \"smart-contract/hardhat/contracts/ClosedSurveyV4.sol\":15692:15727  _newTargetNumberOfParticipants != 0 */\n      sub\n        /* \"smart-contract/hardhat/contracts/ClosedSurveyV4.sol\":15671:15793  require(... */\n      tag_117\n      jumpi\n      mload(0x40)\n      shl(0xe5, 0x461bcd)\n      dup2\n      mstore\n        /* \"#utility.yul\":3891:3893   */\n      0x20\n        /* \"smart-contract/hardhat/contracts/ClosedSurveyV4.sol\":15671:15793  require(... */\n      0x04\n      dup3\n      add\n        /* \"#utility.yul\":3873:3894   */\n      mstore\n        /* \"#utility.yul\":3930:3932   */\n      0x28\n        /* \"#utility.yul\":3910:3928   */\n      0x24\n      dup3\n      add\n        /* \"#utility.yul\":3903:3933   */\n      mstore\n        /* \"#utility.yul\":3969:4003   */\n      0x5a65726f206e756d626572206f6620746172676574207061727469636970616e\n        /* \"#utility.yul\":3949:3967   */\n      0x44\n      dup3\n      add\n        /* \"#utility.yul\":3942:4004   */\n      mstore\n      shl(0xc1, 0x3a399033b4bb32b7)\n        /* \"#utility.yul\":4020:4038   */\n      0x64\n      dup3\n      add\n        /* \"#utility.yul\":4013:4051   */\n      mstore\n        /* \"#utility.yul\":4068:4087   */\n      0x84\n      add\n        /* \"smart-contract/hardhat/contracts/ClosedSurveyV4.sol\":15671:15793  require(... */\n    tag_118:\n      mload(0x40)\n      dup1\n      swap2\n      sub\n      swap1\n      revert\n    tag_117:\n        /* \"smart-contract/hardhat/contracts/ClosedSurveyV4.sol\":15844:15870  targetNumberOfParticipants */\n      0x07\n      dup1\n      sload\n        /* \"smart-contract/hardhat/contracts/ClosedSurveyV4.sol\":15962:16020  targetNumberOfParticipants = newTargetNumberOfParticipants */\n      swap1\n      dup3\n      swap1\n      sstore\n        /* \"smart-contract/hardhat/contracts/ClosedSurveyV4.sol\":16036:16165  TargetNumberOfParticipantsUpdated(... */\n      0x40\n      dup1\n      mload\n        /* \"#utility.yul\":4272:4297   */\n      dup3\n      dup2\n      mstore\n        /* \"#utility.yul\":4328:4330   */\n      0x20\n        /* \"#utility.yul\":4313:4331   */\n      dup2\n      add\n        /* \"#utility.yul\":4306:4340   */\n      dup5\n      swap1\n      mstore\n        /* \"smart-contract/hardhat/contracts/ClosedSurveyV4.sol\":15962:16020  targetNumberOfParticipants = newTargetNumberOfParticipants */\n      dup4\n      swap2\n        /* \"smart-contract/hardhat/contracts/ClosedSurveyV4.sol\":16036:16165  TargetNumberOfParticipantsUpdated(... */\n      0xb90f11d36a1f2ec1f3b89ac87ccd1ffab1a49f3e3ca83cfdac21fd99a537cbc1\n      swap2\n        /* \"#utility.yul\":4245:4263   */\n      add\n        /* \"smart-contract/hardhat/contracts/ClosedSurveyV4.sol\":16036:16165  TargetNumberOfParticipantsUpdated(... */\n    tag_120:\n      mload(0x40)\n      dup1\n      swap2\n      sub\n      swap1\n      log1\n        /* \"smart-contract/hardhat/contracts/ClosedSurveyV4.sol\":15661:16172  {... */\n      pop\n      pop\n        /* \"smart-contract/hardhat/contracts/ClosedSurveyV4.sol\":15546:16172  function updateTargetNumberOfParticipants(... */\n      pop\n      jump\t// out\n        /* \"smart-contract/hardhat/contracts/ClosedSurveyV4.sol\":14673:15318  function updateRewardAmountPerParticipant(... */\n    tag_56:\n        /* \"@openzeppelin/contracts/access/Ownable.sol\":1531:1544  _checkOwner() */\n      tag_125\n        /* \"@openzeppelin/contracts/access/Ownable.sol\":1531:1542  _checkOwner */\n      tag_110\n        /* \"@openzeppelin/contracts/access/Ownable.sol\":1531:1544  _checkOwner() */\n      jump\t// in\n    tag_125:\n        /* \"smart-contract/hardhat/contracts/ClosedSurveyV4.sol\":14824:14859  _newRewardAmountPerParticipantInWei */\n      dup1\n        /* \"smart-contract/hardhat/contracts/ClosedSurveyV4.sol\":14863:14864  0 */\n      0x00\n        /* \"smart-contract/hardhat/contracts/ClosedSurveyV4.sol\":14824:14864  _newRewardAmountPerParticipantInWei != 0 */\n      sub\n        /* \"smart-contract/hardhat/contracts/ClosedSurveyV4.sol\":14803:14914  require(... */\n      tag_127\n      jumpi\n      mload(0x40)\n      shl(0xe5, 0x461bcd)\n      dup2\n      mstore\n        /* \"#utility.yul\":4553:4555   */\n      0x20\n        /* \"smart-contract/hardhat/contracts/ClosedSurveyV4.sol\":14803:14914  require(... */\n      0x04\n      dup3\n      add\n        /* \"#utility.yul\":4535:4556   */\n      mstore\n        /* \"#utility.yul\":4592:4594   */\n      0x18\n        /* \"#utility.yul\":4572:4590   */\n      0x24\n      dup3\n      add\n        /* \"#utility.yul\":4565:4595   */\n      mstore\n        /* \"#utility.yul\":4631:4657   */\n      0x5a65726f2072657761726420616d6f756e7420676976656e0000000000000000\n        /* \"#utility.yul\":4611:4629   */\n      0x44\n      dup3\n      add\n        /* \"#utility.yul\":4604:4658   */\n      mstore\n        /* \"#utility.yul\":4675:4693   */\n      0x64\n      add\n        /* \"smart-contract/hardhat/contracts/ClosedSurveyV4.sol\":14803:14914  require(... */\n      tag_118\n        /* \"#utility.yul\":4351:4699   */\n      jump\n        /* \"smart-contract/hardhat/contracts/ClosedSurveyV4.sol\":14803:14914  require(... */\n    tag_127:\n        /* \"smart-contract/hardhat/contracts/ClosedSurveyV4.sol\":14970:15001  rewardAmountPerParticipantInWei */\n      0x06\n      dup1\n      sload\n        /* \"smart-contract/hardhat/contracts/ClosedSurveyV4.sol\":15102:15170  rewardAmountPerParticipantInWei = newRewardAmountPerParticipantInWei */\n      swap1\n      dup3\n      swap1\n      sstore\n        /* \"smart-contract/hardhat/contracts/ClosedSurveyV4.sol\":15186:15311  RewardAmountUpdated(... */\n      0x40\n      dup1\n      mload\n        /* \"#utility.yul\":4272:4297   */\n      dup3\n      dup2\n      mstore\n        /* \"#utility.yul\":4328:4330   */\n      0x20\n        /* \"#utility.yul\":4313:4331   */\n      dup2\n      add\n        /* \"#utility.yul\":4306:4340   */\n      dup5\n      swap1\n      mstore\n        /* \"smart-contract/hardhat/contracts/ClosedSurveyV4.sol\":15102:15170  rewardAmountPerParticipantInWei = newRewardAmountPerParticipantInWei */\n      dup4\n      swap2\n        /* \"smart-contract/hardhat/contracts/ClosedSurveyV4.sol\":15186:15311  RewardAmountUpdated(... */\n      0xf0d37c3ae852021ac329281f604b658691cbfa6b9e9c22909f06b64a8ce87c94\n      swap2\n        /* \"#utility.yul\":4245:4263   */\n      add\n        /* \"smart-contract/hardhat/contracts/ClosedSurveyV4.sol\":15186:15311  RewardAmountUpdated(... */\n      tag_120\n        /* \"#utility.yul\":4098:4346   */\n      jump\n        /* \"smart-contract/hardhat/contracts/ClosedSurveyV4.sol\":11352:12188  function processRewardClaimByParticipant(... */\n    tag_63:\n        /* \"@openzeppelin/contracts/utils/Pausable.sol\":1474:1493  _requireNotPaused() */\n      tag_133\n        /* \"@openzeppelin/contracts/utils/Pausable.sol\":1474:1491  _requireNotPaused */\n      tag_134\n        /* \"@openzeppelin/contracts/utils/Pausable.sol\":1474:1493  _requireNotPaused() */\n      jump\t// in\n    tag_133:\n        /* \"@openzeppelin/contracts/utils/ReentrancyGuard.sol\":2500:2521  _nonReentrantBefore() */\n      tag_136\n        /* \"@openzeppelin/contracts/utils/ReentrancyGuard.sol\":2500:2519  _nonReentrantBefore */\n      tag_137\n        /* \"@openzeppelin/contracts/utils/ReentrancyGuard.sol\":2500:2521  _nonReentrantBefore() */\n      jump\t// in\n    tag_136:\n        /* \"smart-contract/hardhat/contracts/ClosedSurveyV4.sol\":11611:11622  participant */\n      dup4\n        /* \"smart-contract/hardhat/contracts/ClosedSurveyV4.sol\":11624:11632  rewardId */\n      dup4\n        /* \"smart-contract/hardhat/contracts/ClosedSurveyV4.sol\":11634:11639  nonce */\n      dup4\n        /* \"smart-contract/hardhat/contracts/ClosedSurveyV4.sol\":11641:11650  signature */\n      dup4\n        /* \"smart-contract/hardhat/contracts/ClosedSurveyV4.sol\":4849:4905  verifySignature(participant, rewardId, nonce, signature) */\n      tag_139\n        /* \"smart-contract/hardhat/contracts/ClosedSurveyV4.sol\":4865:4876  participant */\n      dup5\n        /* \"smart-contract/hardhat/contracts/ClosedSurveyV4.sol\":4878:4886  rewardId */\n      dup5\n        /* \"smart-contract/hardhat/contracts/ClosedSurveyV4.sol\":4888:4893  nonce */\n      dup5\n        /* \"smart-contract/hardhat/contracts/ClosedSurveyV4.sol\":4895:4904  signature */\n      dup5\n        /* \"smart-contract/hardhat/contracts/ClosedSurveyV4.sol\":4849:4864  verifySignature */\n      tag_140\n        /* \"smart-contract/hardhat/contracts/ClosedSurveyV4.sol\":4849:4905  verifySignature(participant, rewardId, nonce, signature) */\n      jump\t// in\n    tag_139:\n        /* \"smart-contract/hardhat/contracts/ClosedSurveyV4.sol\":4828:4948  require(... */\n      tag_141\n      jumpi\n      mload(0x40)\n      shl(0xe5, 0x461bcd)\n      dup2\n      mstore\n        /* \"#utility.yul\":4906:4908   */\n      0x20\n        /* \"smart-contract/hardhat/contracts/ClosedSurveyV4.sol\":4828:4948  require(... */\n      0x04\n      dup3\n      add\n        /* \"#utility.yul\":4888:4909   */\n      mstore\n        /* \"#utility.yul\":4945:4947   */\n      0x11\n        /* \"#utility.yul\":4925:4943   */\n      0x24\n      dup3\n      add\n        /* \"#utility.yul\":4918:4948   */\n      mstore\n      shl(0x78, 0x496e76616c6964207369676e6174757265)\n        /* \"#utility.yul\":4964:4982   */\n      0x44\n      dup3\n      add\n        /* \"#utility.yul\":4957:5004   */\n      mstore\n        /* \"#utility.yul\":5021:5039   */\n      0x64\n      add\n        /* \"smart-contract/hardhat/contracts/ClosedSurveyV4.sol\":4828:4948  require(... */\n      tag_118\n        /* \"#utility.yul\":4704:5045   */\n      jump\n        /* \"smart-contract/hardhat/contracts/ClosedSurveyV4.sol\":4828:4948  require(... */\n    tag_141:\n        /* \"smart-contract/hardhat/contracts/ClosedSurveyV4.sol\":11689:11698  signature */\n      dup5\n        /* \"smart-contract/hardhat/contracts/ClosedSurveyV4.sol\":5227:5252  signaturesUsedForClaiming */\n      0x05\n        /* \"smart-contract/hardhat/contracts/ClosedSurveyV4.sol\":5253:5262  signature */\n      dup2\n        /* \"smart-contract/hardhat/contracts/ClosedSurveyV4.sol\":5227:5263  signaturesUsedForClaiming[signature] */\n      mload(0x40)\n      tag_145\n      swap2\n      swap1\n      tag_146\n      jump\t// in\n    tag_145:\n      swap1\n      dup2\n      mstore\n      mload(0x40)\n      swap1\n      dup2\n      swap1\n      sub\n      0x20\n      add\n      swap1\n      keccak256\n      sload\n      0xff\n      and\n        /* \"smart-contract/hardhat/contracts/ClosedSurveyV4.sol\":5226:5263  !signaturesUsedForClaiming[signature] */\n      iszero\n        /* \"smart-contract/hardhat/contracts/ClosedSurveyV4.sol\":5205:5311  require(... */\n      tag_147\n      jumpi\n      mload(0x40)\n      shl(0xe5, 0x461bcd)\n      dup2\n      mstore\n        /* \"#utility.yul\":5799:5801   */\n      0x20\n        /* \"smart-contract/hardhat/contracts/ClosedSurveyV4.sol\":5205:5311  require(... */\n      0x04\n      dup3\n      add\n        /* \"#utility.yul\":5781:5802   */\n      mstore\n        /* \"#utility.yul\":5838:5840   */\n      0x16\n        /* \"#utility.yul\":5818:5836   */\n      0x24\n      dup3\n      add\n        /* \"#utility.yul\":5811:5841   */\n      mstore\n      shl(0x52, 0x14da59db985d1d5c9948185b1c9958591e481d5cd959)\n        /* \"#utility.yul\":5857:5875   */\n      0x44\n      dup3\n      add\n        /* \"#utility.yul\":5850:5902   */\n      mstore\n        /* \"#utility.yul\":5919:5937   */\n      0x64\n      add\n        /* \"smart-contract/hardhat/contracts/ClosedSurveyV4.sol\":5205:5311  require(... */\n      tag_118\n        /* \"#utility.yul\":5597:5943   */\n      jump\n        /* \"smart-contract/hardhat/contracts/ClosedSurveyV4.sol\":5205:5311  require(... */\n    tag_147:\n        /* \"smart-contract/hardhat/contracts/ClosedSurveyV4.sol\":6661:6692  rewardAmountPerParticipantInWei */\n      sload(0x06)\n        /* \"smart-contract/hardhat/contracts/ClosedSurveyV4.sol\":6628:6657  cUSD.balanceOf(address(this)) */\n      mload(0x40)\n      shl(0xe0, 0x70a08231)\n      dup2\n      mstore\n        /* \"smart-contract/hardhat/contracts/ClosedSurveyV4.sol\":6651:6655  this */\n      address\n        /* \"smart-contract/hardhat/contracts/ClosedSurveyV4.sol\":6628:6657  cUSD.balanceOf(address(this)) */\n      0x04\n      dup3\n      add\n        /* \"#utility.yul\":182:233   */\n      mstore\n        /* \"smart-contract/hardhat/contracts/ClosedSurveyV4.sol\":6628:6632  cUSD */\n      immutable(\"0x7ded941e36a81cc4d234cbb36fa87b6231d11e62e0a302c8e291ed6faa31e3d0\")\n      sub(shl(0xa0, 0x01), 0x01)\n        /* \"smart-contract/hardhat/contracts/ClosedSurveyV4.sol\":6628:6642  cUSD.balanceOf */\n      and\n      swap1\n      0x70a08231\n      swap1\n        /* \"#utility.yul\":155:173   */\n      0x24\n      add\n        /* \"smart-contract/hardhat/contracts/ClosedSurveyV4.sol\":6628:6657  cUSD.balanceOf(address(this)) */\n      0x20\n      mload(0x40)\n      dup1\n      dup4\n      sub\n      dup2\n      dup7\n      gas\n      staticcall\n      iszero\n      dup1\n      iszero\n      tag_153\n      jumpi\n      returndatasize\n      0x00\n      dup1\n      returndatacopy\n      revert(0x00, returndatasize)\n    tag_153:\n      pop\n      pop\n      pop\n      pop\n      mload(0x40)\n      returndatasize\n      not(0x1f)\n      0x1f\n      dup3\n      add\n      and\n      dup3\n      add\n      dup1\n      0x40\n      mstore\n      pop\n      dup2\n      add\n      swap1\n      tag_154\n      swap2\n      swap1\n      tag_155\n      jump\t// in\n    tag_154:\n        /* \"smart-contract/hardhat/contracts/ClosedSurveyV4.sol\":6628:6692  cUSD.balanceOf(address(this)) >= rewardAmountPerParticipantInWei */\n      lt\n      iszero\n        /* \"smart-contract/hardhat/contracts/ClosedSurveyV4.sol\":6607:6752  require(... */\n      tag_156\n      jumpi\n      mload(0x40)\n      shl(0xe5, 0x461bcd)\n      dup2\n      mstore\n        /* \"#utility.yul\":6339:6341   */\n      0x20\n        /* \"smart-contract/hardhat/contracts/ClosedSurveyV4.sol\":6607:6752  require(... */\n      0x04\n      dup3\n      add\n        /* \"#utility.yul\":6321:6342   */\n      mstore\n        /* \"#utility.yul\":6378:6380   */\n      0x22\n        /* \"#utility.yul\":6358:6376   */\n      0x24\n      dup3\n      add\n        /* \"#utility.yul\":6351:6381   */\n      mstore\n        /* \"#utility.yul\":6417:6451   */\n      0x436f6e747261637420646f6573206e6f74206861766520656e6f756768206355\n        /* \"#utility.yul\":6397:6415   */\n      0x44\n      dup3\n      add\n        /* \"#utility.yul\":6390:6452   */\n      mstore\n      shl(0xf2, 0x14d1)\n        /* \"#utility.yul\":6468:6486   */\n      0x64\n      dup3\n      add\n        /* \"#utility.yul\":6461:6493   */\n      mstore\n        /* \"#utility.yul\":6510:6529   */\n      0x84\n      add\n        /* \"smart-contract/hardhat/contracts/ClosedSurveyV4.sol\":6607:6752  require(... */\n      tag_118\n        /* \"#utility.yul\":6137:6535   */\n      jump\n        /* \"smart-contract/hardhat/contracts/ClosedSurveyV4.sol\":6607:6752  require(... */\n    tag_156:\n        /* \"smart-contract/hardhat/contracts/ClosedSurveyV4.sol\":7251:7277  targetNumberOfParticipants */\n      sload(0x07)\n        /* \"smart-contract/hardhat/contracts/ClosedSurveyV4.sol\":7220:7248  numberOfRewardedParticipants */\n      sload(0x08)\n        /* \"smart-contract/hardhat/contracts/ClosedSurveyV4.sol\":7220:7277  numberOfRewardedParticipants < targetNumberOfParticipants */\n      lt\n        /* \"smart-contract/hardhat/contracts/ClosedSurveyV4.sol\":7199:7338  require(... */\n      tag_160\n      jumpi\n      mload(0x40)\n      shl(0xe5, 0x461bcd)\n      dup2\n      mstore\n        /* \"#utility.yul\":6742:6744   */\n      0x20\n        /* \"smart-contract/hardhat/contracts/ClosedSurveyV4.sol\":7199:7338  require(... */\n      0x04\n      dup3\n      add\n        /* \"#utility.yul\":6724:6745   */\n      mstore\n        /* \"#utility.yul\":6781:6783   */\n      0x23\n        /* \"#utility.yul\":6761:6779   */\n      0x24\n      dup3\n      add\n        /* \"#utility.yul\":6754:6784   */\n      mstore\n        /* \"#utility.yul\":6820:6854   */\n      0x416c6c207061727469636970616e74732068617665206265656e207265776172\n        /* \"#utility.yul\":6800:6818   */\n      0x44\n      dup3\n      add\n        /* \"#utility.yul\":6793:6855   */\n      mstore\n      shl(0xea, 0x191959)\n        /* \"#utility.yul\":6871:6889   */\n      0x64\n      dup3\n      add\n        /* \"#utility.yul\":6864:6897   */\n      mstore\n        /* \"#utility.yul\":6914:6933   */\n      0x84\n      add\n        /* \"smart-contract/hardhat/contracts/ClosedSurveyV4.sol\":7199:7338  require(... */\n      tag_118\n        /* \"#utility.yul\":6540:6939   */\n      jump\n        /* \"smart-contract/hardhat/contracts/ClosedSurveyV4.sol\":7199:7338  require(... */\n    tag_160:\n        /* \"smart-contract/hardhat/contracts/ClosedSurveyV4.sol\":11826:11837  participant */\n      dup9\n        /* \"smart-contract/hardhat/contracts/ClosedSurveyV4.sol\":6366:6376  msg.sender */\n      caller\n      sub(shl(0xa0, 0x01), 0x01)\n        /* \"smart-contract/hardhat/contracts/ClosedSurveyV4.sol\":6366:6391  msg.sender == participant */\n      dup3\n      and\n      eq\n        /* \"smart-contract/hardhat/contracts/ClosedSurveyV4.sol\":6358:6413  require(msg.sender == participant, \"Only valid sender\") */\n      tag_164\n      jumpi\n      mload(0x40)\n      shl(0xe5, 0x461bcd)\n      dup2\n      mstore\n        /* \"#utility.yul\":7146:7148   */\n      0x20\n        /* \"smart-contract/hardhat/contracts/ClosedSurveyV4.sol\":6358:6413  require(msg.sender == participant, \"Only valid sender\") */\n      0x04\n      dup3\n      add\n        /* \"#utility.yul\":7128:7149   */\n      mstore\n        /* \"#utility.yul\":7185:7187   */\n      0x11\n        /* \"#utility.yul\":7165:7183   */\n      0x24\n      dup3\n      add\n        /* \"#utility.yul\":7158:7188   */\n      mstore\n      shl(0x79, 0x27b7363c903b30b634b21039b2b73232b9)\n        /* \"#utility.yul\":7204:7222   */\n      0x44\n      dup3\n      add\n        /* \"#utility.yul\":7197:7244   */\n      mstore\n        /* \"#utility.yul\":7261:7279   */\n      0x64\n      add\n        /* \"smart-contract/hardhat/contracts/ClosedSurveyV4.sol\":6358:6413  require(msg.sender == participant, \"Only valid sender\") */\n      tag_118\n        /* \"#utility.yul\":6944:7285   */\n      jump\n        /* \"smart-contract/hardhat/contracts/ClosedSurveyV4.sol\":6358:6413  require(msg.sender == participant, \"Only valid sender\") */\n    tag_164:\n      sub(shl(0xa0, 0x01), 0x01)\n        /* \"smart-contract/hardhat/contracts/ClosedSurveyV4.sol\":6081:6114  rewardedParticipants[participant] */\n      dup11\n      and\n      0x00\n      swap1\n      dup2\n      mstore\n        /* \"smart-contract/hardhat/contracts/ClosedSurveyV4.sol\":6081:6101  rewardedParticipants */\n      0x03\n        /* \"smart-contract/hardhat/contracts/ClosedSurveyV4.sol\":6081:6114  rewardedParticipants[participant] */\n      0x20\n      mstore\n      0x40\n      swap1\n      keccak256\n      sload\n        /* \"smart-contract/hardhat/contracts/ClosedSurveyV4.sol\":11873:11884  participant */\n      dup11\n      swap1\n        /* \"smart-contract/hardhat/contracts/ClosedSurveyV4.sol\":6081:6114  rewardedParticipants[participant] */\n      0xff\n      and\n        /* \"smart-contract/hardhat/contracts/ClosedSurveyV4.sol\":6080:6114  !rewardedParticipants[participant] */\n      iszero\n        /* \"smart-contract/hardhat/contracts/ClosedSurveyV4.sol\":6059:6168  require(... */\n      tag_168\n      jumpi\n      mload(0x40)\n      shl(0xe5, 0x461bcd)\n      dup2\n      mstore\n        /* \"#utility.yul\":7492:7494   */\n      0x20\n        /* \"smart-contract/hardhat/contracts/ClosedSurveyV4.sol\":6059:6168  require(... */\n      0x04\n      dup3\n      add\n        /* \"#utility.yul\":7474:7495   */\n      mstore\n        /* \"#utility.yul\":7531:7533   */\n      0x1c\n        /* \"#utility.yul\":7511:7529   */\n      0x24\n      dup3\n      add\n        /* \"#utility.yul\":7504:7534   */\n      mstore\n        /* \"#utility.yul\":7570:7600   */\n      0x5061727469636970616e7420616c726561647920726577617264656400000000\n        /* \"#utility.yul\":7550:7568   */\n      0x44\n      dup3\n      add\n        /* \"#utility.yul\":7543:7601   */\n      mstore\n        /* \"#utility.yul\":7618:7636   */\n      0x64\n      add\n        /* \"smart-contract/hardhat/contracts/ClosedSurveyV4.sol\":6059:6168  require(... */\n      tag_118\n        /* \"#utility.yul\":7290:7642   */\n      jump\n        /* \"smart-contract/hardhat/contracts/ClosedSurveyV4.sol\":6059:6168  require(... */\n    tag_168:\n      sub(shl(0xa0, 0x01), 0x01)\n        /* \"smart-contract/hardhat/contracts/ClosedSurveyV4.sol\":5823:5865  participantsScreenedForSurvey[participant] */\n      dup12\n      and\n      0x00\n      swap1\n      dup2\n      mstore\n        /* \"smart-contract/hardhat/contracts/ClosedSurveyV4.sol\":5823:5852  participantsScreenedForSurvey */\n      0x04\n        /* \"smart-contract/hardhat/contracts/ClosedSurveyV4.sol\":5823:5865  participantsScreenedForSurvey[participant] */\n      0x20\n      mstore\n      0x40\n      swap1\n      keccak256\n      sload\n        /* \"smart-contract/hardhat/contracts/ClosedSurveyV4.sol\":11909:11920  participant */\n      dup12\n      swap1\n        /* \"smart-contract/hardhat/contracts/ClosedSurveyV4.sol\":5823:5865  participantsScreenedForSurvey[participant] */\n      0xff\n      and\n        /* \"smart-contract/hardhat/contracts/ClosedSurveyV4.sol\":5815:5886  require(participantsScreenedForSurvey[participant], \"Must be screened\") */\n      tag_172\n      jumpi\n      mload(0x40)\n      shl(0xe5, 0x461bcd)\n      dup2\n      mstore\n        /* \"#utility.yul\":7849:7851   */\n      0x20\n        /* \"smart-contract/hardhat/contracts/ClosedSurveyV4.sol\":5815:5886  require(participantsScreenedForSurvey[participant], \"Must be screened\") */\n      0x04\n      dup3\n      add\n        /* \"#utility.yul\":7831:7852   */\n      mstore\n        /* \"#utility.yul\":7888:7890   */\n      0x10\n        /* \"#utility.yul\":7868:7886   */\n      0x24\n      dup3\n      add\n        /* \"#utility.yul\":7861:7891   */\n      mstore\n      shl(0x82, 0x135d5cdd081899481cd8dc99595b9959)\n        /* \"#utility.yul\":7907:7925   */\n      0x44\n      dup3\n      add\n        /* \"#utility.yul\":7900:7946   */\n      mstore\n        /* \"#utility.yul\":7963:7981   */\n      0x64\n      add\n        /* \"smart-contract/hardhat/contracts/ClosedSurveyV4.sol\":5815:5886  require(participantsScreenedForSurvey[participant], \"Must be screened\") */\n      tag_118\n        /* \"#utility.yul\":7647:7987   */\n      jump\n        /* \"smart-contract/hardhat/contracts/ClosedSurveyV4.sol\":5815:5886  require(participantsScreenedForSurvey[participant], \"Must be screened\") */\n    tag_172:\n        /* \"smart-contract/hardhat/contracts/ClosedSurveyV4.sol\":11936:11966  bool rewardTransferIsSuccesful */\n      0x00\n        /* \"smart-contract/hardhat/contracts/ClosedSurveyV4.sol\":11969:11999  rewardParticipant(participant) */\n      tag_176\n        /* \"smart-contract/hardhat/contracts/ClosedSurveyV4.sol\":11987:11998  participant */\n      dup14\n        /* \"smart-contract/hardhat/contracts/ClosedSurveyV4.sol\":11969:11986  rewardParticipant */\n      tag_177\n        /* \"smart-contract/hardhat/contracts/ClosedSurveyV4.sol\":11969:11999  rewardParticipant(participant) */\n      jump\t// in\n    tag_176:\n        /* \"smart-contract/hardhat/contracts/ClosedSurveyV4.sol\":11936:11999  bool rewardTransferIsSuccesful = rewardParticipant(participant) */\n      swap1\n      pop\n        /* \"smart-contract/hardhat/contracts/ClosedSurveyV4.sol\":12014:12039  rewardTransferIsSuccesful */\n      dup1\n        /* \"smart-contract/hardhat/contracts/ClosedSurveyV4.sol\":12010:12182  if (rewardTransferIsSuccesful) {... */\n      iszero\n      tag_181\n      jumpi\n        /* \"smart-contract/hardhat/contracts/ClosedSurveyV4.sol\":12055:12108  markSignatureAsHavingBeenUsed(signature, participant) */\n      tag_179\n        /* \"smart-contract/hardhat/contracts/ClosedSurveyV4.sol\":12085:12094  signature */\n      dup11\n        /* \"smart-contract/hardhat/contracts/ClosedSurveyV4.sol\":12096:12107  participant */\n      dup15\n        /* \"smart-contract/hardhat/contracts/ClosedSurveyV4.sol\":12055:12084  markSignatureAsHavingBeenUsed */\n      tag_180\n        /* \"smart-contract/hardhat/contracts/ClosedSurveyV4.sol\":12055:12108  markSignatureAsHavingBeenUsed(signature, participant) */\n      jump\t// in\n    tag_179:\n        /* \"smart-contract/hardhat/contracts/ClosedSurveyV4.sol\":12122:12171  markParticipantAsHavingClaimedReward(participant) */\n      tag_181\n        /* \"smart-contract/hardhat/contracts/ClosedSurveyV4.sol\":12159:12170  participant */\n      dup14\n        /* \"smart-contract/hardhat/contracts/ClosedSurveyV4.sol\":12122:12158  markParticipantAsHavingClaimedReward */\n      tag_182\n        /* \"smart-contract/hardhat/contracts/ClosedSurveyV4.sol\":12122:12171  markParticipantAsHavingClaimedReward(participant) */\n      jump\t// in\n    tag_181:\n        /* \"smart-contract/hardhat/contracts/ClosedSurveyV4.sol\":11926:12188  {... */\n      pop\n        /* \"smart-contract/hardhat/contracts/ClosedSurveyV4.sol\":6178:6179  _ */\n      pop\n        /* \"smart-contract/hardhat/contracts/ClosedSurveyV4.sol\":6423:6424  _ */\n      pop\n        /* \"smart-contract/hardhat/contracts/ClosedSurveyV4.sol\":7348:7349  _ */\n      pop\n        /* \"smart-contract/hardhat/contracts/ClosedSurveyV4.sol\":4958:4959  _ */\n      pop\n        /* \"@openzeppelin/contracts/utils/ReentrancyGuard.sol\":2531:2532  _ */\n      pop\n      pop\n      pop\n      pop\n        /* \"@openzeppelin/contracts/utils/ReentrancyGuard.sol\":2542:2562  _nonReentrantAfter() */\n      tag_183\n        /* \"@openzeppelin/contracts/utils/ReentrancyGuard.sol\":1857:1858  1 */\n      0x01\n        /* \"@openzeppelin/contracts/utils/ReentrancyGuard.sol\":3068:3089  _status = NOT_ENTERED */\n      dup1\n      sstore\n        /* \"@openzeppelin/contracts/utils/ReentrancyGuard.sol\":2888:3096  function _nonReentrantAfter() private {... */\n      jump\n        /* \"@openzeppelin/contracts/utils/ReentrancyGuard.sol\":2542:2562  _nonReentrantAfter() */\n    tag_183:\n        /* \"smart-contract/hardhat/contracts/ClosedSurveyV4.sol\":11352:12188  function processRewardClaimByParticipant(... */\n      pop\n      pop\n      pop\n      pop\n      jump\t// out\n        /* \"@openzeppelin/contracts/access/Ownable.sol\":2293:2394  function renounceOwnership() public virtual onlyOwner {... */\n    tag_68:\n        /* \"@openzeppelin/contracts/access/Ownable.sol\":1531:1544  _checkOwner() */\n      tag_187\n        /* \"@openzeppelin/contracts/access/Ownable.sol\":1531:1542  _checkOwner */\n      tag_110\n        /* \"@openzeppelin/contracts/access/Ownable.sol\":1531:1544  _checkOwner() */\n      jump\t// in\n    tag_187:\n        /* \"@openzeppelin/contracts/access/Ownable.sol\":2357:2387  _transferOwnership(address(0)) */\n      tag_112\n        /* \"@openzeppelin/contracts/access/Ownable.sol\":2384:2385  0 */\n      0x00\n        /* \"@openzeppelin/contracts/access/Ownable.sol\":2357:2375  _transferOwnership */\n      tag_190\n        /* \"@openzeppelin/contracts/access/Ownable.sol\":2357:2387  _transferOwnership(address(0)) */\n      jump\t// in\n        /* \"smart-contract/hardhat/contracts/ClosedSurveyV4.sol\":17177:17350  function checkIfSignatureIsUsed(bytes memory signature)... */\n    tag_93:\n        /* \"smart-contract/hardhat/contracts/ClosedSurveyV4.sol\":17280:17284  bool */\n      0x00\n        /* \"smart-contract/hardhat/contracts/ClosedSurveyV4.sol\":17307:17332  signaturesUsedForClaiming */\n      0x05\n        /* \"smart-contract/hardhat/contracts/ClosedSurveyV4.sol\":17333:17342  signature */\n      dup3\n        /* \"smart-contract/hardhat/contracts/ClosedSurveyV4.sol\":17307:17343  signaturesUsedForClaiming[signature] */\n      mload(0x40)\n      tag_196\n      swap2\n      swap1\n      tag_146\n      jump\t// in\n    tag_196:\n      swap1\n      dup2\n      mstore\n      mload(0x40)\n      swap1\n      dup2\n      swap1\n      sub\n      0x20\n      add\n      swap1\n      keccak256\n      sload\n      0xff\n      and\n      swap3\n        /* \"smart-contract/hardhat/contracts/ClosedSurveyV4.sol\":17177:17350  function checkIfSignatureIsUsed(bytes memory signature)... */\n      swap2\n      pop\n      pop\n      jump\t// out\n        /* \"smart-contract/hardhat/contracts/ClosedSurveyV4.sol\":16303:16370  function pauseSurvey() external onlyOwner {... */\n    tag_96:\n        /* \"@openzeppelin/contracts/access/Ownable.sol\":1531:1544  _checkOwner() */\n      tag_198\n        /* \"@openzeppelin/contracts/access/Ownable.sol\":1531:1542  _checkOwner */\n      tag_110\n        /* \"@openzeppelin/contracts/access/Ownable.sol\":1531:1544  _checkOwner() */\n      jump\t// in\n    tag_198:\n        /* \"smart-contract/hardhat/contracts/ClosedSurveyV4.sol\":16355:16363  _pause() */\n      tag_112\n        /* \"smart-contract/hardhat/contracts/ClosedSurveyV4.sol\":16355:16361  _pause */\n      tag_201\n        /* \"smart-contract/hardhat/contracts/ClosedSurveyV4.sol\":16355:16363  _pause() */\n      jump\t// in\n        /* \"smart-contract/hardhat/contracts/ClosedSurveyV4.sol\":8730:9153  function screenParticipant(address participant)... */\n    tag_99:\n        /* \"smart-contract/hardhat/contracts/ClosedSurveyV4.sol\":8834:8845  participant */\n      dup1\n        /* \"smart-contract/hardhat/contracts/ClosedSurveyV4.sol\":6366:6376  msg.sender */\n      caller\n      sub(shl(0xa0, 0x01), 0x01)\n        /* \"smart-contract/hardhat/contracts/ClosedSurveyV4.sol\":6366:6391  msg.sender == participant */\n      dup3\n      and\n      eq\n        /* \"smart-contract/hardhat/contracts/ClosedSurveyV4.sol\":6358:6413  require(msg.sender == participant, \"Only valid sender\") */\n      tag_203\n      jumpi\n      mload(0x40)\n      shl(0xe5, 0x461bcd)\n      dup2\n      mstore\n        /* \"#utility.yul\":7146:7148   */\n      0x20\n        /* \"smart-contract/hardhat/contracts/ClosedSurveyV4.sol\":6358:6413  require(msg.sender == participant, \"Only valid sender\") */\n      0x04\n      dup3\n      add\n        /* \"#utility.yul\":7128:7149   */\n      mstore\n        /* \"#utility.yul\":7185:7187   */\n      0x11\n        /* \"#utility.yul\":7165:7183   */\n      0x24\n      dup3\n      add\n        /* \"#utility.yul\":7158:7188   */\n      mstore\n      shl(0x79, 0x27b7363c903b30b634b21039b2b73232b9)\n        /* \"#utility.yul\":7204:7222   */\n      0x44\n      dup3\n      add\n        /* \"#utility.yul\":7197:7244   */\n      mstore\n        /* \"#utility.yul\":7261:7279   */\n      0x64\n      add\n        /* \"smart-contract/hardhat/contracts/ClosedSurveyV4.sol\":6358:6413  require(msg.sender == participant, \"Only valid sender\") */\n      tag_118\n        /* \"#utility.yul\":6944:7285   */\n      jump\n        /* \"smart-contract/hardhat/contracts/ClosedSurveyV4.sol\":6358:6413  require(msg.sender == participant, \"Only valid sender\") */\n    tag_203:\n      sub(shl(0xa0, 0x01), 0x01)\n        /* \"smart-contract/hardhat/contracts/ClosedSurveyV4.sol\":5560:5602  participantsScreenedForSurvey[participant] */\n      dup3\n      and\n      0x00\n      swap1\n      dup2\n      mstore\n        /* \"smart-contract/hardhat/contracts/ClosedSurveyV4.sol\":5560:5589  participantsScreenedForSurvey */\n      0x04\n        /* \"smart-contract/hardhat/contracts/ClosedSurveyV4.sol\":5560:5602  participantsScreenedForSurvey[participant] */\n      0x20\n      mstore\n      0x40\n      swap1\n      keccak256\n      sload\n        /* \"smart-contract/hardhat/contracts/ClosedSurveyV4.sol\":8881:8892  participant */\n      dup3\n      swap1\n        /* \"smart-contract/hardhat/contracts/ClosedSurveyV4.sol\":5560:5602  participantsScreenedForSurvey[participant] */\n      0xff\n      and\n        /* \"smart-contract/hardhat/contracts/ClosedSurveyV4.sol\":5559:5602  !participantsScreenedForSurvey[participant] */\n      iszero\n        /* \"smart-contract/hardhat/contracts/ClosedSurveyV4.sol\":5538:5651  require(... */\n      tag_206\n      jumpi\n      mload(0x40)\n      shl(0xe5, 0x461bcd)\n      dup2\n      mstore\n        /* \"#utility.yul\":8194:8196   */\n      0x20\n        /* \"smart-contract/hardhat/contracts/ClosedSurveyV4.sol\":5538:5651  require(... */\n      0x04\n      dup3\n      add\n        /* \"#utility.yul\":8176:8197   */\n      mstore\n        /* \"#utility.yul\":8233:8235   */\n      0x17\n        /* \"#utility.yul\":8213:8231   */\n      0x24\n      dup3\n      add\n        /* \"#utility.yul\":8206:8236   */\n      mstore\n        /* \"#utility.yul\":8272:8297   */\n      0x4f6e6c7920756e73637265656e65642061646472657373000000000000000000\n        /* \"#utility.yul\":8252:8270   */\n      0x44\n      dup3\n      add\n        /* \"#utility.yul\":8245:8298   */\n      mstore\n        /* \"#utility.yul\":8315:8333   */\n      0x64\n      add\n        /* \"smart-contract/hardhat/contracts/ClosedSurveyV4.sol\":5538:5651  require(... */\n      tag_118\n        /* \"#utility.yul\":7992:8339   */\n      jump\n        /* \"smart-contract/hardhat/contracts/ClosedSurveyV4.sol\":5538:5651  require(... */\n    tag_206:\n      sub(shl(0xa0, 0x01), 0x01)\n        /* \"smart-contract/hardhat/contracts/ClosedSurveyV4.sol\":8916:8941  participant != address(0) */\n      dup4\n      and\n        /* \"smart-contract/hardhat/contracts/ClosedSurveyV4.sol\":8908:8965  require(participant != address(0), \"Zero address passed\") */\n      tag_210\n      jumpi\n      mload(0x40)\n      shl(0xe5, 0x461bcd)\n      dup2\n      mstore\n        /* \"#utility.yul\":8546:8548   */\n      0x20\n        /* \"smart-contract/hardhat/contracts/ClosedSurveyV4.sol\":8908:8965  require(participant != address(0), \"Zero address passed\") */\n      0x04\n      dup3\n      add\n        /* \"#utility.yul\":8528:8549   */\n      mstore\n        /* \"#utility.yul\":8585:8587   */\n      0x13\n        /* \"#utility.yul\":8565:8583   */\n      0x24\n      dup3\n      add\n        /* \"#utility.yul\":8558:8588   */\n      mstore\n      shl(0x6a, 0x16995c9bc81859191c995cdcc81c185cdcd959)\n        /* \"#utility.yul\":8604:8622   */\n      0x44\n      dup3\n      add\n        /* \"#utility.yul\":8597:8646   */\n      mstore\n        /* \"#utility.yul\":8663:8681   */\n      0x64\n      add\n        /* \"smart-contract/hardhat/contracts/ClosedSurveyV4.sol\":8908:8965  require(participant != address(0), \"Zero address passed\") */\n      tag_118\n        /* \"#utility.yul\":8344:8687   */\n      jump\n        /* \"smart-contract/hardhat/contracts/ClosedSurveyV4.sol\":8908:8965  require(participant != address(0), \"Zero address passed\") */\n    tag_210:\n      sub(shl(0xa0, 0x01), 0x01)\n        /* \"smart-contract/hardhat/contracts/ClosedSurveyV4.sol\":8976:9018  participantsScreenedForSurvey[participant] */\n      dup4\n      and\n      0x00\n      dup2\n      dup2\n      mstore\n        /* \"smart-contract/hardhat/contracts/ClosedSurveyV4.sol\":8976:9005  participantsScreenedForSurvey */\n      0x04\n        /* \"smart-contract/hardhat/contracts/ClosedSurveyV4.sol\":8976:9018  participantsScreenedForSurvey[participant] */\n      0x20\n      swap1\n      dup2\n      mstore\n      0x40\n      swap2\n      dup3\n      swap1\n      keccak256\n        /* \"smart-contract/hardhat/contracts/ClosedSurveyV4.sol\":8976:9025  participantsScreenedForSurvey[participant] = true */\n      dup1\n      sload\n      not(0xff)\n      and\n        /* \"smart-contract/hardhat/contracts/ClosedSurveyV4.sol\":9021:9025  true */\n      0x01\n        /* \"smart-contract/hardhat/contracts/ClosedSurveyV4.sol\":8976:9025  participantsScreenedForSurvey[participant] = true */\n      swap1\n      dup2\n      or\n      swap1\n      swap2\n      sstore\n        /* \"smart-contract/hardhat/contracts/ClosedSurveyV4.sol\":9061:9089  numberOfScreenedParticipants */\n      0x0a\n        /* \"smart-contract/hardhat/contracts/ClosedSurveyV4.sol\":9059:9089  ++numberOfScreenedParticipants */\n      dup1\n      sload\n      swap1\n      swap2\n      add\n      swap1\n      sstore\n        /* \"smart-contract/hardhat/contracts/ClosedSurveyV4.sol\":9114:9146  ParticipantScreened(participant) */\n      swap1\n      mload\n        /* \"#utility.yul\":182:233   */\n      swap2\n      dup3\n      mstore\n        /* \"smart-contract/hardhat/contracts/ClosedSurveyV4.sol\":9114:9146  ParticipantScreened(participant) */\n      0xc4ec7a2dc5e72d17666a15570e438638bfc023a7a091df162b669c37198bacb2\n      swap2\n        /* \"#utility.yul\":155:173   */\n      add\n        /* \"smart-contract/hardhat/contracts/ClosedSurveyV4.sol\":9114:9146  ParticipantScreened(participant) */\n      tag_120\n        /* \"#utility.yul\":14:239   */\n      jump\n        /* \"smart-contract/hardhat/contracts/ClosedSurveyV4.sol\":14087:14464  function withdrawAllRewardFundsToResearcher()... */\n    tag_101:\n        /* \"@openzeppelin/contracts/access/Ownable.sol\":1531:1544  _checkOwner() */\n      tag_215\n        /* \"@openzeppelin/contracts/access/Ownable.sol\":1531:1542  _checkOwner */\n      tag_110\n        /* \"@openzeppelin/contracts/access/Ownable.sol\":1531:1544  _checkOwner() */\n      jump\t// in\n    tag_215:\n        /* \"@openzeppelin/contracts/utils/Pausable.sol\":1474:1493  _requireNotPaused() */\n      tag_217\n        /* \"@openzeppelin/contracts/utils/Pausable.sol\":1474:1491  _requireNotPaused */\n      tag_134\n        /* \"@openzeppelin/contracts/utils/Pausable.sol\":1474:1493  _requireNotPaused() */\n      jump\t// in\n    tag_217:\n        /* \"smart-contract/hardhat/contracts/ClosedSurveyV4.sol\":6934:6963  cUSD.balanceOf(address(this)) */\n      mload(0x40)\n      shl(0xe0, 0x70a08231)\n      dup2\n      mstore\n        /* \"smart-contract/hardhat/contracts/ClosedSurveyV4.sol\":6957:6961  this */\n      address\n        /* \"smart-contract/hardhat/contracts/ClosedSurveyV4.sol\":6934:6963  cUSD.balanceOf(address(this)) */\n      0x04\n      dup3\n      add\n        /* \"#utility.yul\":182:233   */\n      mstore\n        /* \"smart-contract/hardhat/contracts/ClosedSurveyV4.sol\":6966:6967  0 */\n      0x00\n      swap1\n        /* \"smart-contract/hardhat/contracts/ClosedSurveyV4.sol\":6934:6938  cUSD */\n      immutable(\"0x7ded941e36a81cc4d234cbb36fa87b6231d11e62e0a302c8e291ed6faa31e3d0\")\n      sub(shl(0xa0, 0x01), 0x01)\n        /* \"smart-contract/hardhat/contracts/ClosedSurveyV4.sol\":6934:6948  cUSD.balanceOf */\n      and\n      swap1\n      0x70a08231\n      swap1\n        /* \"#utility.yul\":155:173   */\n      0x24\n      add\n        /* \"smart-contract/hardhat/contracts/ClosedSurveyV4.sol\":6934:6963  cUSD.balanceOf(address(this)) */\n      0x20\n      mload(0x40)\n      dup1\n      dup4\n      sub\n      dup2\n      dup7\n      gas\n      staticcall\n      iszero\n      dup1\n      iszero\n      tag_221\n      jumpi\n      returndatasize\n      0x00\n      dup1\n      returndatacopy\n      revert(0x00, returndatasize)\n    tag_221:\n      pop\n      pop\n      pop\n      pop\n      mload(0x40)\n      returndatasize\n      not(0x1f)\n      0x1f\n      dup3\n      add\n      and\n      dup3\n      add\n      dup1\n      0x40\n      mstore\n      pop\n      dup2\n      add\n      swap1\n      tag_222\n      swap2\n      swap1\n      tag_155\n      jump\t// in\n    tag_222:\n        /* \"smart-contract/hardhat/contracts/ClosedSurveyV4.sol\":6934:6967  cUSD.balanceOf(address(this)) > 0 */\n      gt\n        /* \"smart-contract/hardhat/contracts/ClosedSurveyV4.sol\":6913:7024  require(... */\n      tag_223\n      jumpi\n      mload(0x40)\n      shl(0xe5, 0x461bcd)\n      dup2\n      mstore\n        /* \"#utility.yul\":8894:8896   */\n      0x20\n        /* \"smart-contract/hardhat/contracts/ClosedSurveyV4.sol\":6913:7024  require(... */\n      0x04\n      dup3\n      add\n        /* \"#utility.yul\":8876:8897   */\n      mstore\n        /* \"#utility.yul\":8933:8935   */\n      0x1f\n        /* \"#utility.yul\":8913:8931   */\n      0x24\n      dup3\n      add\n        /* \"#utility.yul\":8906:8936   */\n      mstore\n        /* \"#utility.yul\":8972:9005   */\n      0x436f6e747261637420646f6573206e6f74206861766520616e79206355534400\n        /* \"#utility.yul\":8952:8970   */\n      0x44\n      dup3\n      add\n        /* \"#utility.yul\":8945:9006   */\n      mstore\n        /* \"#utility.yul\":9023:9041   */\n      0x64\n      add\n        /* \"smart-contract/hardhat/contracts/ClosedSurveyV4.sol\":6913:7024  require(... */\n      tag_118\n        /* \"#utility.yul\":8692:9047   */\n      jump\n        /* \"smart-contract/hardhat/contracts/ClosedSurveyV4.sol\":6913:7024  require(... */\n    tag_223:\n        /* \"smart-contract/hardhat/contracts/ClosedSurveyV4.sol\":14255:14284  cUSD.balanceOf(address(this)) */\n      mload(0x40)\n      shl(0xe0, 0x70a08231)\n      dup2\n      mstore\n        /* \"smart-contract/hardhat/contracts/ClosedSurveyV4.sol\":14278:14282  this */\n      address\n        /* \"smart-contract/hardhat/contracts/ClosedSurveyV4.sol\":14255:14284  cUSD.balanceOf(address(this)) */\n      0x04\n      dup3\n      add\n        /* \"#utility.yul\":182:233   */\n      mstore\n        /* \"smart-contract/hardhat/contracts/ClosedSurveyV4.sol\":14237:14252  uint256 balance */\n      0x00\n      swap1\n        /* \"smart-contract/hardhat/contracts/ClosedSurveyV4.sol\":14255:14259  cUSD */\n      immutable(\"0x7ded941e36a81cc4d234cbb36fa87b6231d11e62e0a302c8e291ed6faa31e3d0\")\n      sub(shl(0xa0, 0x01), 0x01)\n        /* \"smart-contract/hardhat/contracts/ClosedSurveyV4.sol\":14255:14269  cUSD.balanceOf */\n      and\n      swap1\n      0x70a08231\n      swap1\n        /* \"#utility.yul\":155:173   */\n      0x24\n      add\n        /* \"smart-contract/hardhat/contracts/ClosedSurveyV4.sol\":14255:14284  cUSD.balanceOf(address(this)) */\n      0x20\n      mload(0x40)\n      dup1\n      dup4\n      sub\n      dup2\n      dup7\n      gas\n      staticcall\n      iszero\n      dup1\n      iszero\n      tag_229\n      jumpi\n      returndatasize\n      0x00\n      dup1\n      returndatacopy\n      revert(0x00, returndatasize)\n    tag_229:\n      pop\n      pop\n      pop\n      pop\n      mload(0x40)\n      returndatasize\n      not(0x1f)\n      0x1f\n      dup3\n      add\n      and\n      dup3\n      add\n      dup1\n      0x40\n      mstore\n      pop\n      dup2\n      add\n      swap1\n      tag_230\n      swap2\n      swap1\n      tag_155\n      jump\t// in\n    tag_230:\n        /* \"smart-contract/hardhat/contracts/ClosedSurveyV4.sol\":14237:14284  uint256 balance = cUSD.balanceOf(address(this)) */\n      swap1\n      pop\n        /* \"smart-contract/hardhat/contracts/ClosedSurveyV4.sol\":14294:14319  bool transferIsSuccessful */\n      0x00\n        /* \"smart-contract/hardhat/contracts/ClosedSurveyV4.sol\":14322:14326  cUSD */\n      immutable(\"0x7ded941e36a81cc4d234cbb36fa87b6231d11e62e0a302c8e291ed6faa31e3d0\")\n      sub(shl(0xa0, 0x01), 0x01)\n        /* \"smart-contract/hardhat/contracts/ClosedSurveyV4.sol\":14322:14335  cUSD.transfer */\n      and\n      0xa9059cbb\n        /* \"smart-contract/hardhat/contracts/ClosedSurveyV4.sol\":14336:14343  owner() */\n      tag_231\n        /* \"@openzeppelin/contracts/access/Ownable.sol\":1684:1691  address */\n      0x00\n        /* \"@openzeppelin/contracts/access/Ownable.sol\":1710:1716  _owner */\n      sload\n      sub(shl(0xa0, 0x01), 0x01)\n      and\n      swap1\n        /* \"@openzeppelin/contracts/access/Ownable.sol\":1638:1723  function owner() public view virtual returns (address) {... */\n      jump\n        /* \"smart-contract/hardhat/contracts/ClosedSurveyV4.sol\":14336:14343  owner() */\n    tag_231:\n        /* \"smart-contract/hardhat/contracts/ClosedSurveyV4.sol\":14322:14353  cUSD.transfer(owner(), balance) */\n      mload(0x40)\n      not(sub(shl(0xe0, 0x01), 0x01))\n      0xe0\n      dup5\n      swap1\n      shl\n      and\n      dup2\n      mstore\n      sub(shl(0xa0, 0x01), 0x01)\n        /* \"#utility.yul\":9244:9276   */\n      swap1\n      swap2\n      and\n        /* \"smart-contract/hardhat/contracts/ClosedSurveyV4.sol\":14322:14353  cUSD.transfer(owner(), balance) */\n      0x04\n      dup3\n      add\n        /* \"#utility.yul\":9226:9277   */\n      mstore\n        /* \"#utility.yul\":9293:9311   */\n      0x24\n      dup2\n      add\n        /* \"#utility.yul\":9286:9320   */\n      dup6\n      swap1\n      mstore\n        /* \"#utility.yul\":9199:9217   */\n      0x44\n      add\n        /* \"smart-contract/hardhat/contracts/ClosedSurveyV4.sol\":14322:14353  cUSD.transfer(owner(), balance) */\n      0x20\n      mload(0x40)\n      dup1\n      dup4\n      sub\n      dup2\n      0x00\n      dup8\n      gas\n      call\n      iszero\n      dup1\n      iszero\n      tag_235\n      jumpi\n      returndatasize\n      0x00\n      dup1\n      returndatacopy\n      revert(0x00, returndatasize)\n    tag_235:\n      pop\n      pop\n      pop\n      pop\n      mload(0x40)\n      returndatasize\n      not(0x1f)\n      0x1f\n      dup3\n      add\n      and\n      dup3\n      add\n      dup1\n      0x40\n      mstore\n      pop\n      dup2\n      add\n      swap1\n      tag_236\n      swap2\n      swap1\n      tag_237\n      jump\t// in\n    tag_236:\n        /* \"smart-contract/hardhat/contracts/ClosedSurveyV4.sol\":14294:14353  bool transferIsSuccessful = cUSD.transfer(owner(), balance) */\n      swap1\n      pop\n        /* \"smart-contract/hardhat/contracts/ClosedSurveyV4.sol\":14368:14388  transferIsSuccessful */\n      dup1\n        /* \"smart-contract/hardhat/contracts/ClosedSurveyV4.sol\":14364:14458  if (transferIsSuccessful) {... */\n      iszero\n      tag_238\n      jumpi\n        /* \"smart-contract/hardhat/contracts/ClosedSurveyV4.sol\":14409:14447  RewardFundsWithdrawn(owner(), balance) */\n      0x2036b9b38b69a2fa490ee702733a29cd2550accc20bc96e786cb9beedc779097\n        /* \"smart-contract/hardhat/contracts/ClosedSurveyV4.sol\":14430:14437  owner() */\n      tag_239\n        /* \"@openzeppelin/contracts/access/Ownable.sol\":1684:1691  address */\n      0x00\n        /* \"@openzeppelin/contracts/access/Ownable.sol\":1710:1716  _owner */\n      sload\n      sub(shl(0xa0, 0x01), 0x01)\n      and\n      swap1\n        /* \"@openzeppelin/contracts/access/Ownable.sol\":1638:1723  function owner() public view virtual returns (address) {... */\n      jump\n        /* \"smart-contract/hardhat/contracts/ClosedSurveyV4.sol\":14430:14437  owner() */\n    tag_239:\n        /* \"smart-contract/hardhat/contracts/ClosedSurveyV4.sol\":14409:14447  RewardFundsWithdrawn(owner(), balance) */\n      0x40\n      dup1\n      mload\n      sub(shl(0xa0, 0x01), 0x01)\n        /* \"#utility.yul\":9244:9276   */\n      swap1\n      swap3\n      and\n        /* \"#utility.yul\":9226:9277   */\n      dup3\n      mstore\n        /* \"#utility.yul\":9308:9310   */\n      0x20\n        /* \"#utility.yul\":9293:9311   */\n      dup3\n      add\n        /* \"#utility.yul\":9286:9320   */\n      dup6\n      swap1\n      mstore\n        /* \"#utility.yul\":9199:9217   */\n      add\n        /* \"smart-contract/hardhat/contracts/ClosedSurveyV4.sol\":14409:14447  RewardFundsWithdrawn(owner(), balance) */\n    tag_240:\n      mload(0x40)\n      dup1\n      swap2\n      sub\n      swap1\n      log1\n        /* \"smart-contract/hardhat/contracts/ClosedSurveyV4.sol\":14364:14458  if (transferIsSuccessful) {... */\n    tag_238:\n        /* \"smart-contract/hardhat/contracts/ClosedSurveyV4.sol\":14227:14464  {... */\n      pop\n      pop\n        /* \"smart-contract/hardhat/contracts/ClosedSurveyV4.sol\":14087:14464  function withdrawAllRewardFundsToResearcher()... */\n      jump\t// out\n        /* \"@openzeppelin/contracts/access/Ownable.sol\":2543:2758  function transferOwnership(address newOwner) public virtual onlyOwner {... */\n    tag_104:\n        /* \"@openzeppelin/contracts/access/Ownable.sol\":1531:1544  _checkOwner() */\n      tag_242\n        /* \"@openzeppelin/contracts/access/Ownable.sol\":1531:1542  _checkOwner */\n      tag_110\n        /* \"@openzeppelin/contracts/access/Ownable.sol\":1531:1544  _checkOwner() */\n      jump\t// in\n    tag_242:\n      sub(shl(0xa0, 0x01), 0x01)\n        /* \"@openzeppelin/contracts/access/Ownable.sol\":2627:2649  newOwner == address(0) */\n      dup2\n      and\n        /* \"@openzeppelin/contracts/access/Ownable.sol\":2623:2714  if (newOwner == address(0)) {... */\n      tag_244\n      jumpi\n        /* \"@openzeppelin/contracts/access/Ownable.sol\":2672:2703  OwnableInvalidOwner(address(0)) */\n      mload(0x40)\n      shl(0xe0, 0x1e4fbdf7)\n      dup2\n      mstore\n        /* \"@openzeppelin/contracts/access/Ownable.sol\":2700:2701  0 */\n      0x00\n        /* \"@openzeppelin/contracts/access/Ownable.sol\":2672:2703  OwnableInvalidOwner(address(0)) */\n      0x04\n      dup3\n      add\n        /* \"#utility.yul\":182:233   */\n      mstore\n        /* \"#utility.yul\":155:173   */\n      0x24\n      add\n        /* \"@openzeppelin/contracts/access/Ownable.sol\":2672:2703  OwnableInvalidOwner(address(0)) */\n      tag_118\n        /* \"#utility.yul\":14:239   */\n      jump\n        /* \"@openzeppelin/contracts/access/Ownable.sol\":2623:2714  if (newOwner == address(0)) {... */\n    tag_244:\n        /* \"@openzeppelin/contracts/access/Ownable.sol\":2723:2751  _transferOwnership(newOwner) */\n      tag_246\n        /* \"@openzeppelin/contracts/access/Ownable.sol\":2742:2750  newOwner */\n      dup2\n        /* \"@openzeppelin/contracts/access/Ownable.sol\":2723:2741  _transferOwnership */\n      tag_190\n        /* \"@openzeppelin/contracts/access/Ownable.sol\":2723:2751  _transferOwnership(newOwner) */\n      jump\t// in\n    tag_246:\n        /* \"@openzeppelin/contracts/access/Ownable.sol\":2543:2758  function transferOwnership(address newOwner) public virtual onlyOwner {... */\n      pop\n      jump\t// out\n        /* \"@openzeppelin/contracts/access/Ownable.sol\":1796:1958  function _checkOwner() internal view virtual {... */\n    tag_110:\n        /* \"@openzeppelin/contracts/access/Ownable.sol\":1684:1691  address */\n      0x00\n        /* \"@openzeppelin/contracts/access/Ownable.sol\":1710:1716  _owner */\n      sload\n      sub(shl(0xa0, 0x01), 0x01)\n      and\n        /* \"@openzeppelin/contracts/utils/Context.sol\":735:745  msg.sender */\n      caller\n        /* \"@openzeppelin/contracts/access/Ownable.sol\":1855:1878  owner() != _msgSender() */\n      eq\n        /* \"@openzeppelin/contracts/access/Ownable.sol\":1851:1952  if (owner() != _msgSender()) {... */\n      tag_112\n      jumpi\n        /* \"@openzeppelin/contracts/access/Ownable.sol\":1901:1941  OwnableUnauthorizedAccount(_msgSender()) */\n      mload(0x40)\n      shl(0xe0, 0x118cdaa7)\n      dup2\n      mstore\n        /* \"@openzeppelin/contracts/utils/Context.sol\":735:745  msg.sender */\n      caller\n        /* \"@openzeppelin/contracts/access/Ownable.sol\":1901:1941  OwnableUnauthorizedAccount(_msgSender()) */\n      0x04\n      dup3\n      add\n        /* \"#utility.yul\":182:233   */\n      mstore\n        /* \"#utility.yul\":155:173   */\n      0x24\n      add\n        /* \"@openzeppelin/contracts/access/Ownable.sol\":1901:1941  OwnableUnauthorizedAccount(_msgSender()) */\n      tag_118\n        /* \"#utility.yul\":14:239   */\n      jump\n        /* \"@openzeppelin/contracts/utils/Pausable.sol\":2710:2827  function _unpause() internal virtual whenPaused {... */\n    tag_113:\n        /* \"@openzeppelin/contracts/utils/Pausable.sol\":1721:1737  _requirePaused() */\n      tag_256\n        /* \"@openzeppelin/contracts/utils/Pausable.sol\":1721:1735  _requirePaused */\n      tag_257\n        /* \"@openzeppelin/contracts/utils/Pausable.sol\":1721:1737  _requirePaused() */\n      jump\t// in\n    tag_256:\n        /* \"@openzeppelin/contracts/utils/Pausable.sol\":2768:2775  _paused */\n      0x02\n        /* \"@openzeppelin/contracts/utils/Pausable.sol\":2768:2783  _paused = false */\n      dup1\n      sload\n      not(0xff)\n      and\n      swap1\n      sstore\n        /* \"@openzeppelin/contracts/utils/Pausable.sol\":2798:2820  Unpaused(_msgSender()) */\n      0x5db9ee0a495bf2e6ff9c91a7834c1ba4fdd244a5e8aa4e537bd38aeae4b073aa\n        /* \"@openzeppelin/contracts/utils/Context.sol\":735:745  msg.sender */\n      caller\n        /* \"@openzeppelin/contracts/utils/Pausable.sol\":2807:2819  _msgSender() */\n    tag_259:\n        /* \"@openzeppelin/contracts/utils/Pausable.sol\":2798:2820  Unpaused(_msgSender()) */\n      mload(0x40)\n      sub(shl(0xa0, 0x01), 0x01)\n        /* \"#utility.yul\":200:232   */\n      swap1\n      swap2\n      and\n        /* \"#utility.yul\":182:233   */\n      dup2\n      mstore\n        /* \"#utility.yul\":170:172   */\n      0x20\n        /* \"#utility.yul\":155:173   */\n      add\n        /* \"@openzeppelin/contracts/utils/Pausable.sol\":2798:2820  Unpaused(_msgSender()) */\n      mload(0x40)\n      dup1\n      swap2\n      sub\n      swap1\n      log1\n        /* \"@openzeppelin/contracts/utils/Pausable.sol\":2710:2827  function _unpause() internal virtual whenPaused {... */\n      jump\t// out\n        /* \"@openzeppelin/contracts/utils/Pausable.sol\":2002:2130  function _requireNotPaused() internal view virtual {... */\n    tag_134:\n        /* \"@openzeppelin/contracts/utils/Pausable.sol\":1920:1927  _paused */\n      and(0xff, sload(0x02))\n        /* \"@openzeppelin/contracts/utils/Pausable.sol\":2063:2124  if (paused()) {... */\n      iszero\n      tag_112\n      jumpi\n        /* \"@openzeppelin/contracts/utils/Pausable.sol\":2098:2113  EnforcedPause() */\n      mload(0x40)\n      shl(0xe0, 0xd93c0665)\n      dup2\n      mstore\n      0x04\n      add\n      mload(0x40)\n      dup1\n      swap2\n      sub\n      swap1\n      revert\n        /* \"@openzeppelin/contracts/utils/ReentrancyGuard.sol\":2575:2882  function _nonReentrantBefore() private {... */\n    tag_137:\n        /* \"@openzeppelin/contracts/utils/ReentrancyGuard.sol\":1899:1900  2 */\n      0x02\n        /* \"@openzeppelin/contracts/utils/ReentrancyGuard.sol\":2702:2709  _status */\n      sload(0x01)\n        /* \"@openzeppelin/contracts/utils/ReentrancyGuard.sol\":2702:2720  _status == ENTERED */\n      sub\n        /* \"@openzeppelin/contracts/utils/ReentrancyGuard.sol\":2698:2784  if (_status == ENTERED) {... */\n      tag_265\n      jumpi\n        /* \"@openzeppelin/contracts/utils/ReentrancyGuard.sol\":2743:2773  ReentrancyGuardReentrantCall() */\n      mload(0x40)\n      shl(0xe0, 0x3ee5aeb5)\n      dup2\n      mstore\n      0x04\n      add\n      mload(0x40)\n      dup1\n      swap2\n      sub\n      swap1\n      revert\n        /* \"@openzeppelin/contracts/utils/ReentrancyGuard.sol\":2698:2784  if (_status == ENTERED) {... */\n    tag_265:\n        /* \"@openzeppelin/contracts/utils/ReentrancyGuard.sol\":1899:1900  2 */\n      0x02\n        /* \"@openzeppelin/contracts/utils/ReentrancyGuard.sol\":2858:2865  _status */\n      0x01\n        /* \"@openzeppelin/contracts/utils/ReentrancyGuard.sol\":2858:2875  _status = ENTERED */\n      sstore\n        /* \"@openzeppelin/contracts/utils/ReentrancyGuard.sol\":2575:2882  function _nonReentrantBefore() private {... */\n      jump\t// out\n        /* \"smart-contract/hardhat/contracts/ClosedSurveyV4.sol\":10453:10893  function verifySignature(... */\n    tag_140:\n        /* \"smart-contract/hardhat/contracts/ClosedSurveyV4.sol\":10622:10626  bool */\n      0x00\n        /* \"smart-contract/hardhat/contracts/ClosedSurveyV4.sol\":10638:10657  bytes32 messageHash */\n      dup1\n        /* \"smart-contract/hardhat/contracts/ClosedSurveyV4.sol\":10660:10704  getMessageHash(participant, rewardId, nonce) */\n      tag_267\n        /* \"smart-contract/hardhat/contracts/ClosedSurveyV4.sol\":10675:10686  participant */\n      dup7\n        /* \"smart-contract/hardhat/contracts/ClosedSurveyV4.sol\":10688:10696  rewardId */\n      dup7\n        /* \"smart-contract/hardhat/contracts/ClosedSurveyV4.sol\":10698:10703  nonce */\n      dup7\n        /* \"smart-contract/hardhat/contracts/ClosedSurveyV4.sol\":10660:10674  getMessageHash */\n      tag_268\n        /* \"smart-contract/hardhat/contracts/ClosedSurveyV4.sol\":10660:10704  getMessageHash(participant, rewardId, nonce) */\n      jump\t// in\n    tag_267:\n        /* \"@openzeppelin/contracts/utils/cryptography/MessageHashUtils.sol\":1376:1410  \"\\x19Ethereum Signed Message:\\n32\" */\n      0x19457468657265756d205369676e6564204d6573736167653a0a333200000000\n        /* \"smart-contract/hardhat/contracts/ClosedSurveyV4.sol\":10714:10742  bytes32 ethSignedMessageHash */\n      0x00\n        /* \"@openzeppelin/contracts/utils/cryptography/MessageHashUtils.sol\":1363:1411  mstore(0x00, \"\\x19Ethereum Signed Message:\\n32\") */\n      swap1\n      dup2\n      mstore\n        /* \"@openzeppelin/contracts/utils/cryptography/MessageHashUtils.sol\":1472:1476  0x1c */\n      0x1c\n        /* \"@openzeppelin/contracts/utils/cryptography/MessageHashUtils.sol\":1465:1490  mstore(0x1c, messageHash) */\n      dup3\n      swap1\n      mstore\n        /* \"@openzeppelin/contracts/utils/cryptography/MessageHashUtils.sol\":1570:1574  0x3c */\n      0x3c\n        /* \"@openzeppelin/contracts/utils/cryptography/MessageHashUtils.sol\":1554:1575  keccak256(0x00, 0x3c) */\n      dup2\n      keccak256\n        /* \"@openzeppelin/contracts/access/Ownable.sol\":1710:1716  _owner */\n      swap1\n      sload\n        /* \"@openzeppelin/contracts/utils/cryptography/MessageHashUtils.sol\":1465:1490  mstore(0x1c, messageHash) */\n      swap2\n      swap3\n      pop\n        /* \"@openzeppelin/contracts/utils/cryptography/MessageHashUtils.sol\":1554:1575  keccak256(0x00, 0x3c) */\n      swap1\n      sub(shl(0xa0, 0x01), 0x01)\n        /* \"@openzeppelin/contracts/access/Ownable.sol\":1710:1716  _owner */\n      and\n        /* \"smart-contract/hardhat/contracts/ClosedSurveyV4.sol\":10836:10875  ethSignedMessageHash.recover(signature) */\n      tag_272\n        /* \"@openzeppelin/contracts/utils/cryptography/MessageHashUtils.sol\":1554:1575  keccak256(0x00, 0x3c) */\n      dup3\n        /* \"smart-contract/hardhat/contracts/ClosedSurveyV4.sol\":10865:10874  signature */\n      dup7\n        /* \"smart-contract/hardhat/contracts/ClosedSurveyV4.sol\":10836:10864  ethSignedMessageHash.recover */\n      tag_273\n        /* \"smart-contract/hardhat/contracts/ClosedSurveyV4.sol\":10836:10875  ethSignedMessageHash.recover(signature) */\n      jump\t// in\n    tag_272:\n      sub(shl(0xa0, 0x01), 0x01)\n        /* \"smart-contract/hardhat/contracts/ClosedSurveyV4.sol\":10836:10886  ethSignedMessageHash.recover(signature) == owner() */\n      and\n      eq\n      swap8\n        /* \"smart-contract/hardhat/contracts/ClosedSurveyV4.sol\":10453:10893  function verifySignature(... */\n      swap7\n      pop\n      pop\n      pop\n      pop\n      pop\n      pop\n      pop\n      jump\t// out\n        /* \"smart-contract/hardhat/contracts/ClosedSurveyV4.sol\":12399:12924  function rewardParticipant(address participant) private returns (bool) {... */\n    tag_177:\n        /* \"smart-contract/hardhat/contracts/ClosedSurveyV4.sol\":12565:12596  rewardAmountPerParticipantInWei */\n      sload(0x06)\n        /* \"smart-contract/hardhat/contracts/ClosedSurveyV4.sol\":12513:12606  cUSD.transfer(... */\n      mload(0x40)\n      shl(0xe0, 0xa9059cbb)\n      dup2\n      mstore\n      sub(shl(0xa0, 0x01), 0x01)\n        /* \"#utility.yul\":9244:9276   */\n      dup4\n      dup2\n      and\n        /* \"smart-contract/hardhat/contracts/ClosedSurveyV4.sol\":12513:12606  cUSD.transfer(... */\n      0x04\n      dup4\n      add\n        /* \"#utility.yul\":9226:9277   */\n      mstore\n        /* \"#utility.yul\":9293:9311   */\n      0x24\n      dup3\n      add\n        /* \"#utility.yul\":9286:9320   */\n      swap3\n      swap1\n      swap3\n      mstore\n        /* \"smart-contract/hardhat/contracts/ClosedSurveyV4.sol\":12464:12468  bool */\n      0x00\n      swap2\n      dup3\n      swap2\n        /* \"smart-contract/hardhat/contracts/ClosedSurveyV4.sol\":12513:12517  cUSD */\n      immutable(\"0x7ded941e36a81cc4d234cbb36fa87b6231d11e62e0a302c8e291ed6faa31e3d0\")\n        /* \"smart-contract/hardhat/contracts/ClosedSurveyV4.sol\":12513:12526  cUSD.transfer */\n      swap1\n      swap2\n      and\n      swap1\n      0xa9059cbb\n      swap1\n        /* \"#utility.yul\":9199:9217   */\n      0x44\n      add\n        /* \"smart-contract/hardhat/contracts/ClosedSurveyV4.sol\":12513:12606  cUSD.transfer(... */\n      0x20\n      mload(0x40)\n      dup1\n      dup4\n      sub\n      dup2\n      0x00\n      dup8\n      gas\n      call\n      iszero\n      dup1\n      iszero\n      tag_277\n      jumpi\n      returndatasize\n      0x00\n      dup1\n      returndatacopy\n      revert(0x00, returndatasize)\n    tag_277:\n      pop\n      pop\n      pop\n      pop\n      mload(0x40)\n      returndatasize\n      not(0x1f)\n      0x1f\n      dup3\n      add\n      and\n      dup3\n      add\n      dup1\n      0x40\n      mstore\n      pop\n      dup2\n      add\n      swap1\n      tag_278\n      swap2\n      swap1\n      tag_237\n      jump\t// in\n    tag_278:\n        /* \"smart-contract/hardhat/contracts/ClosedSurveyV4.sol\":12480:12606  bool rewardTransferIsSuccesful = cUSD.transfer(... */\n      swap1\n      pop\n        /* \"smart-contract/hardhat/contracts/ClosedSurveyV4.sol\":12621:12646  rewardTransferIsSuccesful */\n      dup1\n        /* \"smart-contract/hardhat/contracts/ClosedSurveyV4.sol\":12617:12875  if (rewardTransferIsSuccesful) {... */\n      iszero\n      tag_279\n      jumpi\n        /* \"smart-contract/hardhat/contracts/ClosedSurveyV4.sol\":12692:12720  numberOfRewardedParticipants */\n      0x08\n        /* \"smart-contract/hardhat/contracts/ClosedSurveyV4.sol\":12690:12720  ++numberOfRewardedParticipants */\n      dup1\n      sload\n      0x01\n      add\n      swap1\n      sstore\n        /* \"smart-contract/hardhat/contracts/ClosedSurveyV4.sol\":12819:12850  rewardAmountPerParticipantInWei */\n      sload(0x06)\n        /* \"smart-contract/hardhat/contracts/ClosedSurveyV4.sol\":12753:12864  ParticipantRewarded(... */\n      0x40\n      dup1\n      mload\n      sub(shl(0xa0, 0x01), 0x01)\n        /* \"#utility.yul\":9244:9276   */\n      dup7\n      and\n        /* \"#utility.yul\":9226:9277   */\n      dup2\n      mstore\n        /* \"#utility.yul\":9308:9310   */\n      0x20\n        /* \"#utility.yul\":9293:9311   */\n      dup2\n      add\n        /* \"#utility.yul\":9286:9320   */\n      swap3\n      swap1\n      swap3\n      mstore\n        /* \"smart-contract/hardhat/contracts/ClosedSurveyV4.sol\":12753:12864  ParticipantRewarded(... */\n      0x8934d7a9692e763e356fd30d84ca5f61a737b35c5ccd5d31d4f140310267b73e\n      swap2\n        /* \"#utility.yul\":9199:9217   */\n      add\n        /* \"smart-contract/hardhat/contracts/ClosedSurveyV4.sol\":12753:12864  ParticipantRewarded(... */\n      mload(0x40)\n      dup1\n      swap2\n      sub\n      swap1\n      log1\n        /* \"smart-contract/hardhat/contracts/ClosedSurveyV4.sol\":12617:12875  if (rewardTransferIsSuccesful) {... */\n    tag_279:\n        /* \"smart-contract/hardhat/contracts/ClosedSurveyV4.sol\":12892:12917  rewardTransferIsSuccesful */\n      swap3\n        /* \"smart-contract/hardhat/contracts/ClosedSurveyV4.sol\":12399:12924  function rewardParticipant(address participant) private returns (bool) {... */\n      swap2\n      pop\n      pop\n      jump\t// out\n        /* \"smart-contract/hardhat/contracts/ClosedSurveyV4.sol\":13599:13894  function markSignatureAsHavingBeenUsed(... */\n    tag_180:\n        /* \"smart-contract/hardhat/contracts/ClosedSurveyV4.sol\":13762:13766  true */\n      0x01\n        /* \"smart-contract/hardhat/contracts/ClosedSurveyV4.sol\":13723:13748  signaturesUsedForClaiming */\n      0x05\n        /* \"smart-contract/hardhat/contracts/ClosedSurveyV4.sol\":13749:13758  signature */\n      dup4\n        /* \"smart-contract/hardhat/contracts/ClosedSurveyV4.sol\":13723:13759  signaturesUsedForClaiming[signature] */\n      mload(0x40)\n      tag_282\n      swap2\n      swap1\n      tag_146\n      jump\t// in\n    tag_282:\n      swap1\n      dup2\n      mstore\n      mload(0x40)\n      swap1\n      dup2\n      swap1\n      sub\n      0x20\n      add\n      dup2\n      keccak256\n        /* \"smart-contract/hardhat/contracts/ClosedSurveyV4.sol\":13723:13766  signaturesUsedForClaiming[signature] = true */\n      dup1\n      sload\n      swap3\n      iszero\n      iszero\n      not(0xff)\n      swap1\n      swap4\n      and\n      swap3\n      swap1\n      swap3\n      or\n      swap1\n      swap2\n      sstore\n        /* \"smart-contract/hardhat/contracts/ClosedSurveyV4.sol\":13803:13825  numberOfUsedSignatures */\n      0x0b\n        /* \"smart-contract/hardhat/contracts/ClosedSurveyV4.sol\":13801:13825  ++numberOfUsedSignatures */\n      dup1\n      sload\n        /* \"smart-contract/hardhat/contracts/ClosedSurveyV4.sol\":13723:13766  signaturesUsedForClaiming[signature] = true */\n      0x01\n        /* \"smart-contract/hardhat/contracts/ClosedSurveyV4.sol\":13801:13825  ++numberOfUsedSignatures */\n      add\n      swap1\n      sstore\n        /* \"smart-contract/hardhat/contracts/ClosedSurveyV4.sol\":13850:13887  SignatureUsed(signature, participant) */\n      0x97fb84d3f0d20b64a0a8e52541408b0155ba98fea88e66283156f306d04b08b8\n      swap1\n      tag_240\n      swap1\n        /* \"smart-contract/hardhat/contracts/ClosedSurveyV4.sol\":13864:13873  signature */\n      dup5\n      swap1\n        /* \"smart-contract/hardhat/contracts/ClosedSurveyV4.sol\":13875:13886  participant */\n      dup5\n      swap1\n        /* \"smart-contract/hardhat/contracts/ClosedSurveyV4.sol\":13850:13887  SignatureUsed(signature, participant) */\n      tag_284\n      jump\t// in\n        /* \"smart-contract/hardhat/contracts/ClosedSurveyV4.sol\":13115:13371  function markParticipantAsHavingClaimedReward(address participant) private {... */\n    tag_182:\n      sub(shl(0xa0, 0x01), 0x01)\n        /* \"smart-contract/hardhat/contracts/ClosedSurveyV4.sol\":13200:13233  rewardedParticipants[participant] */\n      dup2\n      and\n      0x00\n      dup2\n      dup2\n      mstore\n        /* \"smart-contract/hardhat/contracts/ClosedSurveyV4.sol\":13200:13220  rewardedParticipants */\n      0x03\n        /* \"smart-contract/hardhat/contracts/ClosedSurveyV4.sol\":13200:13233  rewardedParticipants[participant] */\n      0x20\n      swap1\n      dup2\n      mstore\n      0x40\n      swap2\n      dup3\n      swap1\n      keccak256\n        /* \"smart-contract/hardhat/contracts/ClosedSurveyV4.sol\":13200:13240  rewardedParticipants[participant] = true */\n      dup1\n      sload\n      not(0xff)\n      and\n        /* \"smart-contract/hardhat/contracts/ClosedSurveyV4.sol\":13236:13240  true */\n      0x01\n        /* \"smart-contract/hardhat/contracts/ClosedSurveyV4.sol\":13200:13240  rewardedParticipants[participant] = true */\n      swap1\n      dup2\n      or\n      swap1\n      swap2\n      sstore\n        /* \"smart-contract/hardhat/contracts/ClosedSurveyV4.sol\":13277:13299  numberOfClaimedRewards */\n      0x09\n        /* \"smart-contract/hardhat/contracts/ClosedSurveyV4.sol\":13275:13299  ++numberOfClaimedRewards */\n      dup1\n      sload\n      swap1\n      swap2\n      add\n      swap1\n      sstore\n        /* \"smart-contract/hardhat/contracts/ClosedSurveyV4.sol\":13324:13364  ParticipantMarkedAsRewarded(participant) */\n      swap1\n      mload\n        /* \"#utility.yul\":182:233   */\n      swap2\n      dup3\n      mstore\n        /* \"smart-contract/hardhat/contracts/ClosedSurveyV4.sol\":13324:13364  ParticipantMarkedAsRewarded(participant) */\n      0x654c9a027765e6feb862f42d438e9f6948f9ee31113e379f0372b30efc722943\n      swap2\n        /* \"#utility.yul\":155:173   */\n      add\n        /* \"smart-contract/hardhat/contracts/ClosedSurveyV4.sol\":13324:13364  ParticipantMarkedAsRewarded(participant) */\n      mload(0x40)\n      dup1\n      swap2\n      sub\n      swap1\n      log1\n        /* \"smart-contract/hardhat/contracts/ClosedSurveyV4.sol\":13115:13371  function markParticipantAsHavingClaimedReward(address participant) private {... */\n      pop\n      jump\t// out\n        /* \"@openzeppelin/contracts/access/Ownable.sol\":2912:3099  function _transferOwnership(address newOwner) internal virtual {... */\n    tag_190:\n        /* \"@openzeppelin/contracts/access/Ownable.sol\":2985:3001  address oldOwner */\n      0x00\n        /* \"@openzeppelin/contracts/access/Ownable.sol\":3004:3010  _owner */\n      dup1\n      sload\n      sub(shl(0xa0, 0x01), 0x01)\n        /* \"@openzeppelin/contracts/access/Ownable.sol\":3020:3037  _owner = newOwner */\n      dup4\n      dup2\n      and\n      not(sub(shl(0xa0, 0x01), 0x01))\n      dup4\n      and\n      dup2\n      or\n      dup5\n      sstore\n        /* \"@openzeppelin/contracts/access/Ownable.sol\":3052:3092  OwnershipTransferred(oldOwner, newOwner) */\n      mload(0x40)\n        /* \"@openzeppelin/contracts/access/Ownable.sol\":3004:3010  _owner */\n      swap2\n      swap1\n      swap3\n      and\n      swap3\n      dup4\n      swap2\n        /* \"@openzeppelin/contracts/access/Ownable.sol\":3052:3092  OwnershipTransferred(oldOwner, newOwner) */\n      0x8be0079c531659141344cd1fd0a4f28419497f9722a3daafe3b4186f6b6457e0\n      swap2\n        /* \"@openzeppelin/contracts/access/Ownable.sol\":2985:3001  address oldOwner */\n      swap1\n        /* \"@openzeppelin/contracts/access/Ownable.sol\":3052:3092  OwnershipTransferred(oldOwner, newOwner) */\n      log3\n        /* \"@openzeppelin/contracts/access/Ownable.sol\":2975:3099  {... */\n      pop\n        /* \"@openzeppelin/contracts/access/Ownable.sol\":2912:3099  function _transferOwnership(address newOwner) internal virtual {... */\n      pop\n      jump\t// out\n        /* \"@openzeppelin/contracts/utils/Pausable.sol\":2463:2578  function _pause() internal virtual whenNotPaused {... */\n    tag_201:\n        /* \"@openzeppelin/contracts/utils/Pausable.sol\":1474:1493  _requireNotPaused() */\n      tag_290\n        /* \"@openzeppelin/contracts/utils/Pausable.sol\":1474:1491  _requireNotPaused */\n      tag_134\n        /* \"@openzeppelin/contracts/utils/Pausable.sol\":1474:1493  _requireNotPaused() */\n      jump\t// in\n    tag_290:\n        /* \"@openzeppelin/contracts/utils/Pausable.sol\":2522:2529  _paused */\n      0x02\n        /* \"@openzeppelin/contracts/utils/Pausable.sol\":2522:2536  _paused = true */\n      dup1\n      sload\n      not(0xff)\n      and\n        /* \"@openzeppelin/contracts/utils/Pausable.sol\":2532:2536  true */\n      0x01\n        /* \"@openzeppelin/contracts/utils/Pausable.sol\":2522:2536  _paused = true */\n      or\n      swap1\n      sstore\n        /* \"@openzeppelin/contracts/utils/Pausable.sol\":2551:2571  Paused(_msgSender()) */\n      0x62e78cea01bee320cd4e420270b5ea74000d11b0c9f74754ebdbfc544b05a258\n        /* \"@openzeppelin/contracts/utils/Pausable.sol\":2558:2570  _msgSender() */\n      tag_259\n        /* \"@openzeppelin/contracts/utils/Context.sol\":735:745  msg.sender */\n      caller\n      swap1\n        /* \"@openzeppelin/contracts/utils/Context.sol\":656:752  function _msgSender() internal view virtual returns (address) {... */\n      jump\n        /* \"@openzeppelin/contracts/utils/Pausable.sol\":2202:2328  function _requirePaused() internal view virtual {... */\n    tag_257:\n        /* \"@openzeppelin/contracts/utils/Pausable.sol\":1920:1927  _paused */\n      and(0xff, sload(0x02))\n        /* \"@openzeppelin/contracts/utils/Pausable.sol\":2260:2322  if (!paused()) {... */\n      tag_112\n      jumpi\n        /* \"@openzeppelin/contracts/utils/Pausable.sol\":2296:2311  ExpectedPause() */\n      mload(0x40)\n      shl(0xe0, 0x8dfc202b)\n      dup2\n      mstore\n      0x04\n      add\n      mload(0x40)\n      dup1\n      swap2\n      sub\n      swap1\n      revert\n        /* \"smart-contract/hardhat/contracts/ClosedSurveyV4.sol\":9814:10040  function getMessageHash(... */\n    tag_268:\n        /* \"smart-contract/hardhat/contracts/ClosedSurveyV4.sol\":9950:9957  bytes32 */\n      0x00\n        /* \"smart-contract/hardhat/contracts/ClosedSurveyV4.sol\":10003:10014  participant */\n      dup4\n        /* \"smart-contract/hardhat/contracts/ClosedSurveyV4.sol\":10016:10024  rewardId */\n      dup4\n        /* \"smart-contract/hardhat/contracts/ClosedSurveyV4.sol\":10026:10031  nonce */\n      dup4\n        /* \"smart-contract/hardhat/contracts/ClosedSurveyV4.sol\":9986:10032  abi.encodePacked(participant, rewardId, nonce) */\n      add(0x20, mload(0x40))\n      tag_299\n      swap4\n      swap3\n      swap2\n      swap1\n      tag_300\n      jump\t// in\n    tag_299:\n      mload(0x40)\n      0x20\n      dup2\n      dup4\n      sub\n      sub\n      dup2\n      mstore\n      swap1\n      0x40\n      mstore\n        /* \"smart-contract/hardhat/contracts/ClosedSurveyV4.sol\":9976:10033  keccak256(abi.encodePacked(participant, rewardId, nonce)) */\n      dup1\n      mload\n      swap1\n      0x20\n      add\n      keccak256\n        /* \"smart-contract/hardhat/contracts/ClosedSurveyV4.sol\":9969:10033  return keccak256(abi.encodePacked(participant, rewardId, nonce)) */\n      swap1\n      pop\n        /* \"smart-contract/hardhat/contracts/ClosedSurveyV4.sol\":9814:10040  function getMessageHash(... */\n      swap4\n      swap3\n      pop\n      pop\n      pop\n      jump\t// out\n        /* \"@openzeppelin/contracts/utils/cryptography/ECDSA.sol\":3714:3969  function recover(bytes32 hash, bytes memory signature) internal pure returns (address) {... */\n    tag_273:\n        /* \"@openzeppelin/contracts/utils/cryptography/ECDSA.sol\":3792:3799  address */\n      0x00\n        /* \"@openzeppelin/contracts/utils/cryptography/ECDSA.sol\":3812:3829  address recovered */\n      dup1\n        /* \"@openzeppelin/contracts/utils/cryptography/ECDSA.sol\":3831:3849  RecoverError error */\n      0x00\n        /* \"@openzeppelin/contracts/utils/cryptography/ECDSA.sol\":3851:3867  bytes32 errorArg */\n      dup1\n        /* \"@openzeppelin/contracts/utils/cryptography/ECDSA.sol\":3871:3898  tryRecover(hash, signature) */\n      tag_303\n        /* \"@openzeppelin/contracts/utils/cryptography/ECDSA.sol\":3882:3886  hash */\n      dup7\n        /* \"@openzeppelin/contracts/utils/cryptography/ECDSA.sol\":3888:3897  signature */\n      dup7\n        /* \"@openzeppelin/contracts/utils/cryptography/ECDSA.sol\":3871:3881  tryRecover */\n      tag_304\n        /* \"@openzeppelin/contracts/utils/cryptography/ECDSA.sol\":3871:3898  tryRecover(hash, signature) */\n      jump\t// in\n    tag_303:\n        /* \"@openzeppelin/contracts/utils/cryptography/ECDSA.sol\":3811:3898  (address recovered, RecoverError error, bytes32 errorArg) = tryRecover(hash, signature) */\n      swap3\n      pop\n      swap3\n      pop\n      swap3\n      pop\n        /* \"@openzeppelin/contracts/utils/cryptography/ECDSA.sol\":3908:3936  _throwError(error, errorArg) */\n      tag_305\n        /* \"@openzeppelin/contracts/utils/cryptography/ECDSA.sol\":3920:3925  error */\n      dup3\n        /* \"@openzeppelin/contracts/utils/cryptography/ECDSA.sol\":3927:3935  errorArg */\n      dup3\n        /* \"@openzeppelin/contracts/utils/cryptography/ECDSA.sol\":3908:3919  _throwError */\n      tag_306\n        /* \"@openzeppelin/contracts/utils/cryptography/ECDSA.sol\":3908:3936  _throwError(error, errorArg) */\n      jump\t// in\n    tag_305:\n      pop\n        /* \"@openzeppelin/contracts/utils/cryptography/ECDSA.sol\":3953:3962  recovered */\n      swap1\n      swap5\n        /* \"@openzeppelin/contracts/utils/cryptography/ECDSA.sol\":3714:3969  function recover(bytes32 hash, bytes memory signature) internal pure returns (address) {... */\n      swap4\n      pop\n      pop\n      pop\n      pop\n      jump\t// out\n        /* \"@openzeppelin/contracts/utils/cryptography/ECDSA.sol\":2129:2907  function tryRecover(... */\n    tag_304:\n        /* \"@openzeppelin/contracts/utils/cryptography/ECDSA.sol\":2232:2249  address recovered */\n      0x00\n        /* \"@openzeppelin/contracts/utils/cryptography/ECDSA.sol\":2251:2267  RecoverError err */\n      dup1\n        /* \"@openzeppelin/contracts/utils/cryptography/ECDSA.sol\":2269:2283  bytes32 errArg */\n      0x00\n        /* \"@openzeppelin/contracts/utils/cryptography/ECDSA.sol\":2299:2308  signature */\n      dup4\n        /* \"@openzeppelin/contracts/utils/cryptography/ECDSA.sol\":2299:2315  signature.length */\n      mload\n        /* \"@openzeppelin/contracts/utils/cryptography/ECDSA.sol\":2319:2321  65 */\n      0x41\n        /* \"@openzeppelin/contracts/utils/cryptography/ECDSA.sol\":2299:2321  signature.length == 65 */\n      sub\n        /* \"@openzeppelin/contracts/utils/cryptography/ECDSA.sol\":2295:2901  if (signature.length == 65) {... */\n      tag_308\n      jumpi\n        /* \"@openzeppelin/contracts/utils/cryptography/ECDSA.sol\":2604:2608  0x20 */\n      0x20\n        /* \"@openzeppelin/contracts/utils/cryptography/ECDSA.sol\":2589:2609  add(signature, 0x20) */\n      dup5\n      add\n        /* \"@openzeppelin/contracts/utils/cryptography/ECDSA.sol\":2583:2610  mload(add(signature, 0x20)) */\n      mload\n        /* \"@openzeppelin/contracts/utils/cryptography/ECDSA.sol\":2653:2657  0x40 */\n      0x40\n        /* \"@openzeppelin/contracts/utils/cryptography/ECDSA.sol\":2638:2658  add(signature, 0x40) */\n      dup6\n      add\n        /* \"@openzeppelin/contracts/utils/cryptography/ECDSA.sol\":2632:2659  mload(add(signature, 0x40)) */\n      mload\n        /* \"@openzeppelin/contracts/utils/cryptography/ECDSA.sol\":2710:2714  0x60 */\n      0x60\n        /* \"@openzeppelin/contracts/utils/cryptography/ECDSA.sol\":2695:2715  add(signature, 0x60) */\n      dup7\n      add\n        /* \"@openzeppelin/contracts/utils/cryptography/ECDSA.sol\":2689:2716  mload(add(signature, 0x60)) */\n      mload\n        /* \"@openzeppelin/contracts/utils/cryptography/ECDSA.sol\":2337:2346  bytes32 r */\n      0x00\n        /* \"@openzeppelin/contracts/utils/cryptography/ECDSA.sol\":2681:2717  byte(0, mload(add(signature, 0x60))) */\n      byte\n        /* \"@openzeppelin/contracts/utils/cryptography/ECDSA.sol\":2751:2776  tryRecover(hash, v, r, s) */\n      tag_309\n        /* \"@openzeppelin/contracts/utils/cryptography/ECDSA.sol\":2762:2766  hash */\n      dup9\n        /* \"@openzeppelin/contracts/utils/cryptography/ECDSA.sol\":2681:2717  byte(0, mload(add(signature, 0x60))) */\n      dup3\n        /* \"@openzeppelin/contracts/utils/cryptography/ECDSA.sol\":2583:2610  mload(add(signature, 0x20)) */\n      dup6\n        /* \"@openzeppelin/contracts/utils/cryptography/ECDSA.sol\":2632:2659  mload(add(signature, 0x40)) */\n      dup6\n        /* \"@openzeppelin/contracts/utils/cryptography/ECDSA.sol\":2751:2761  tryRecover */\n      tag_310\n        /* \"@openzeppelin/contracts/utils/cryptography/ECDSA.sol\":2751:2776  tryRecover(hash, v, r, s) */\n      jump\t// in\n    tag_309:\n        /* \"@openzeppelin/contracts/utils/cryptography/ECDSA.sol\":2744:2776  return tryRecover(hash, v, r, s) */\n      swap6\n      pop\n      swap6\n      pop\n      swap6\n      pop\n      pop\n      pop\n      pop\n      jump(tag_311)\n        /* \"@openzeppelin/contracts/utils/cryptography/ECDSA.sol\":2295:2901  if (signature.length == 65) {... */\n    tag_308:\n      pop\n      pop\n        /* \"@openzeppelin/contracts/utils/cryptography/ECDSA.sol\":2872:2888  signature.length */\n      dup2\n      mload\n        /* \"@openzeppelin/contracts/utils/cryptography/ECDSA.sol\":2823:2824  0 */\n      0x00\n      swap2\n      pop\n        /* \"@openzeppelin/contracts/utils/cryptography/ECDSA.sol\":2827:2862  RecoverError.InvalidSignatureLength */\n      0x02\n      swap1\n        /* \"@openzeppelin/contracts/utils/cryptography/ECDSA.sol\":2295:2901  if (signature.length == 65) {... */\n    tag_311:\n        /* \"@openzeppelin/contracts/utils/cryptography/ECDSA.sol\":2129:2907  function tryRecover(... */\n      swap3\n      pop\n      swap3\n      pop\n      swap3\n      jump\t// out\n        /* \"@openzeppelin/contracts/utils/cryptography/ECDSA.sol\":7280:7812  function _throwError(RecoverError error, bytes32 errorArg) private pure {... */\n    tag_306:\n        /* \"@openzeppelin/contracts/utils/cryptography/ECDSA.sol\":7375:7395  RecoverError.NoError */\n      0x00\n        /* \"@openzeppelin/contracts/utils/cryptography/ECDSA.sol\":7366:7371  error */\n      dup3\n        /* \"@openzeppelin/contracts/utils/cryptography/ECDSA.sol\":7366:7395  error == RecoverError.NoError */\n      0x03\n      dup2\n      gt\n      iszero\n      tag_317\n      jumpi\n      tag_317\n      tag_315\n      jump\t// in\n    tag_317:\n      sub\n        /* \"@openzeppelin/contracts/utils/cryptography/ECDSA.sol\":7362:7806  if (error == RecoverError.NoError) {... */\n      tag_318\n      jumpi\n        /* \"@openzeppelin/contracts/utils/cryptography/ECDSA.sol\":7280:7812  function _throwError(RecoverError error, bytes32 errorArg) private pure {... */\n      pop\n      pop\n      jump\t// out\n        /* \"@openzeppelin/contracts/utils/cryptography/ECDSA.sol\":7362:7806  if (error == RecoverError.NoError) {... */\n    tag_318:\n        /* \"@openzeppelin/contracts/utils/cryptography/ECDSA.sol\":7471:7500  RecoverError.InvalidSignature */\n      0x01\n        /* \"@openzeppelin/contracts/utils/cryptography/ECDSA.sol\":7462:7467  error */\n      dup3\n        /* \"@openzeppelin/contracts/utils/cryptography/ECDSA.sol\":7462:7500  error == RecoverError.InvalidSignature */\n      0x03\n      dup2\n      gt\n      iszero\n      tag_323\n      jumpi\n      tag_323\n      tag_315\n      jump\t// in\n    tag_323:\n      sub\n        /* \"@openzeppelin/contracts/utils/cryptography/ECDSA.sol\":7458:7806  if (error == RecoverError.InvalidSignature) {... */\n      tag_324\n      jumpi\n        /* \"@openzeppelin/contracts/utils/cryptography/ECDSA.sol\":7523:7546  ECDSAInvalidSignature() */\n      mload(0x40)\n      shl(0xe0, 0xf645eedf)\n      dup2\n      mstore\n      0x04\n      add\n      mload(0x40)\n      dup1\n      swap2\n      sub\n      swap1\n      revert\n        /* \"@openzeppelin/contracts/utils/cryptography/ECDSA.sol\":7458:7806  if (error == RecoverError.InvalidSignature) {... */\n    tag_324:\n        /* \"@openzeppelin/contracts/utils/cryptography/ECDSA.sol\":7576:7611  RecoverError.InvalidSignatureLength */\n      0x02\n        /* \"@openzeppelin/contracts/utils/cryptography/ECDSA.sol\":7567:7572  error */\n      dup3\n        /* \"@openzeppelin/contracts/utils/cryptography/ECDSA.sol\":7567:7611  error == RecoverError.InvalidSignatureLength */\n      0x03\n      dup2\n      gt\n      iszero\n      tag_329\n      jumpi\n      tag_329\n      tag_315\n      jump\t// in\n    tag_329:\n      sub\n        /* \"@openzeppelin/contracts/utils/cryptography/ECDSA.sol\":7563:7806  if (error == RecoverError.InvalidSignatureLength) {... */\n      tag_330\n      jumpi\n        /* \"@openzeppelin/contracts/utils/cryptography/ECDSA.sol\":7634:7680  ECDSAInvalidSignatureLength(uint256(errorArg)) */\n      mload(0x40)\n      shl(0xe0, 0xfce698f7)\n      dup2\n      mstore\n      0x04\n      dup2\n      add\n        /* \"#utility.yul\":390:415   */\n      dup3\n      swap1\n      mstore\n        /* \"#utility.yul\":363:381   */\n      0x24\n      add\n        /* \"@openzeppelin/contracts/utils/cryptography/ECDSA.sol\":7634:7680  ECDSAInvalidSignatureLength(uint256(errorArg)) */\n      tag_118\n        /* \"#utility.yul\":244:421   */\n      jump\n        /* \"@openzeppelin/contracts/utils/cryptography/ECDSA.sol\":7563:7806  if (error == RecoverError.InvalidSignatureLength) {... */\n    tag_330:\n        /* \"@openzeppelin/contracts/utils/cryptography/ECDSA.sol\":7710:7740  RecoverError.InvalidSignatureS */\n      0x03\n        /* \"@openzeppelin/contracts/utils/cryptography/ECDSA.sol\":7701:7706  error */\n      dup3\n        /* \"@openzeppelin/contracts/utils/cryptography/ECDSA.sol\":7701:7740  error == RecoverError.InvalidSignatureS */\n      0x03\n      dup2\n      gt\n      iszero\n      tag_336\n      jumpi\n      tag_336\n      tag_315\n      jump\t// in\n    tag_336:\n      sub\n        /* \"@openzeppelin/contracts/utils/cryptography/ECDSA.sol\":7697:7806  if (error == RecoverError.InvalidSignatureS) {... */\n      tag_238\n      jumpi\n        /* \"@openzeppelin/contracts/utils/cryptography/ECDSA.sol\":7763:7795  ECDSAInvalidSignatureS(errorArg) */\n      mload(0x40)\n      shl(0xe2, 0x35e2f383)\n      dup2\n      mstore\n      0x04\n      dup2\n      add\n        /* \"#utility.yul\":390:415   */\n      dup3\n      swap1\n      mstore\n        /* \"#utility.yul\":363:381   */\n      0x24\n      add\n        /* \"@openzeppelin/contracts/utils/cryptography/ECDSA.sol\":7763:7795  ECDSAInvalidSignatureS(errorArg) */\n      tag_118\n        /* \"#utility.yul\":244:421   */\n      jump\n        /* \"@openzeppelin/contracts/utils/cryptography/ECDSA.sol\":5203:6754  function tryRecover(... */\n    tag_310:\n        /* \"@openzeppelin/contracts/utils/cryptography/ECDSA.sol\":5329:5346  address recovered */\n      0x00\n      dup1\n      dup1\n        /* \"@openzeppelin/contracts/utils/cryptography/ECDSA.sol\":6283:6349  0x7FFFFFFFFFFFFFFFFFFFFFFFFFFFFFFF5D576E7357A4501DDFE92F46681B20A0 */\n      0x7fffffffffffffffffffffffffffffff5d576e7357a4501ddfe92f46681b20a0\n        /* \"@openzeppelin/contracts/utils/cryptography/ECDSA.sol\":6270:6349  uint256(s) > 0x7FFFFFFFFFFFFFFFFFFFFFFFFFFFFFFF5D576E7357A4501DDFE92F46681B20A0 */\n      dup5\n      gt\n        /* \"@openzeppelin/contracts/utils/cryptography/ECDSA.sol\":6266:6430  if (uint256(s) > 0x7FFFFFFFFFFFFFFFFFFFFFFFFFFFFFFF5D576E7357A4501DDFE92F46681B20A0) {... */\n      iszero\n      tag_341\n      jumpi\n      pop\n        /* \"@openzeppelin/contracts/utils/cryptography/ECDSA.sol\":6381:6382  0 */\n      0x00\n      swap2\n      pop\n        /* \"@openzeppelin/contracts/utils/cryptography/ECDSA.sol\":6385:6415  RecoverError.InvalidSignatureS */\n      0x03\n      swap1\n      pop\n        /* \"@openzeppelin/contracts/utils/cryptography/ECDSA.sol\":6417:6418  s */\n      dup3\n        /* \"@openzeppelin/contracts/utils/cryptography/ECDSA.sol\":6365:6419  return (address(0), RecoverError.InvalidSignatureS, s) */\n      jump(tag_340)\n        /* \"@openzeppelin/contracts/utils/cryptography/ECDSA.sol\":6266:6430  if (uint256(s) > 0x7FFFFFFFFFFFFFFFFFFFFFFFFFFFFFFF5D576E7357A4501DDFE92F46681B20A0) {... */\n    tag_341:\n        /* \"@openzeppelin/contracts/utils/cryptography/ECDSA.sol\":6541:6565  ecrecover(hash, v, r, s) */\n      0x40\n      dup1\n      mload\n        /* \"@openzeppelin/contracts/utils/cryptography/ECDSA.sol\":6524:6538  address signer */\n      0x00\n        /* \"@openzeppelin/contracts/utils/cryptography/ECDSA.sol\":6541:6565  ecrecover(hash, v, r, s) */\n      dup1\n      dup3\n      mstore\n      0x20\n      dup3\n      add\n      dup1\n      dup5\n      mstore\n        /* \"#utility.yul\":11154:11179   */\n      dup11\n      swap1\n      mstore\n        /* \"#utility.yul\":11227:11231   */\n      0xff\n        /* \"#utility.yul\":11215:11232   */\n      dup10\n      and\n        /* \"#utility.yul\":11195:11213   */\n      swap3\n      dup3\n      add\n        /* \"#utility.yul\":11188:11233   */\n      swap3\n      swap1\n      swap3\n      mstore\n        /* \"#utility.yul\":11249:11267   */\n      0x60\n      dup2\n      add\n        /* \"#utility.yul\":11242:11276   */\n      dup8\n      swap1\n      mstore\n        /* \"#utility.yul\":11292:11310   */\n      0x80\n      dup2\n      add\n        /* \"#utility.yul\":11285:11319   */\n      dup7\n      swap1\n      mstore\n        /* \"@openzeppelin/contracts/utils/cryptography/ECDSA.sol\":6541:6565  ecrecover(hash, v, r, s) */\n      0x01\n      swap1\n        /* \"#utility.yul\":11126:11145   */\n      0xa0\n      add\n        /* \"@openzeppelin/contracts/utils/cryptography/ECDSA.sol\":6541:6565  ecrecover(hash, v, r, s) */\n      0x20\n      mload(0x40)\n      0x20\n      dup2\n      sub\n      swap1\n      dup1\n      dup5\n      sub\n      swap1\n      dup6\n      gas\n      staticcall\n      iszero\n      dup1\n      iszero\n      tag_345\n      jumpi\n      returndatasize\n      0x00\n      dup1\n      returndatacopy\n      revert(0x00, returndatasize)\n    tag_345:\n      pop\n      pop\n      mload(add(not(0x1f), mload(0x40)))\n      swap2\n      pop\n      pop\n      sub(shl(0xa0, 0x01), 0x01)\n        /* \"@openzeppelin/contracts/utils/cryptography/ECDSA.sol\":6579:6599  signer == address(0) */\n      dup2\n      and\n        /* \"@openzeppelin/contracts/utils/cryptography/ECDSA.sol\":6575:6688  if (signer == address(0)) {... */\n      tag_346\n      jumpi\n      pop\n        /* \"@openzeppelin/contracts/utils/cryptography/ECDSA.sol\":6631:6632  0 */\n      0x00\n      swap3\n      pop\n        /* \"@openzeppelin/contracts/utils/cryptography/ECDSA.sol\":6635:6664  RecoverError.InvalidSignature */\n      0x01\n      swap2\n      pop\n        /* \"@openzeppelin/contracts/utils/cryptography/ECDSA.sol\":6631:6632  0 */\n      dup3\n      swap1\n      pop\n        /* \"@openzeppelin/contracts/utils/cryptography/ECDSA.sol\":6615:6677  return (address(0), RecoverError.InvalidSignature, bytes32(0)) */\n      jump(tag_340)\n        /* \"@openzeppelin/contracts/utils/cryptography/ECDSA.sol\":6575:6688  if (signer == address(0)) {... */\n    tag_346:\n        /* \"@openzeppelin/contracts/utils/cryptography/ECDSA.sol\":6706:6712  signer */\n      swap3\n      pop\n        /* \"@openzeppelin/contracts/utils/cryptography/ECDSA.sol\":6714:6734  RecoverError.NoError */\n      0x00\n      swap2\n      pop\n      dup2\n      swap1\n      pop\n        /* \"@openzeppelin/contracts/utils/cryptography/ECDSA.sol\":5203:6754  function tryRecover(... */\n    tag_340:\n      swap5\n      pop\n      swap5\n      pop\n      swap5\n      swap2\n      pop\n      pop\n      jump\t// out\n        /* \"#utility.yul\":426:652   */\n    tag_45:\n        /* \"#utility.yul\":485:491   */\n      0x00\n        /* \"#utility.yul\":538:540   */\n      0x20\n        /* \"#utility.yul\":526:535   */\n      dup3\n        /* \"#utility.yul\":517:524   */\n      dup5\n        /* \"#utility.yul\":513:536   */\n      sub\n        /* \"#utility.yul\":509:541   */\n      slt\n        /* \"#utility.yul\":506:558   */\n      iszero\n      tag_356\n      jumpi\n        /* \"#utility.yul\":554:555   */\n      0x00\n        /* \"#utility.yul\":551:552   */\n      dup1\n        /* \"#utility.yul\":544:556   */\n      revert\n        /* \"#utility.yul\":506:558   */\n    tag_356:\n      pop\n        /* \"#utility.yul\":599:622   */\n      calldataload\n      swap2\n        /* \"#utility.yul\":426:652   */\n      swap1\n      pop\n      jump\t// out\n        /* \"#utility.yul\":849:1022   */\n    tag_347:\n        /* \"#utility.yul\":917:937   */\n      dup1\n      calldataload\n      sub(shl(0xa0, 0x01), 0x01)\n        /* \"#utility.yul\":966:997   */\n      dup2\n      and\n        /* \"#utility.yul\":956:998   */\n      dup2\n      eq\n        /* \"#utility.yul\":946:1016   */\n      tag_359\n      jumpi\n        /* \"#utility.yul\":1012:1013   */\n      0x00\n        /* \"#utility.yul\":1009:1010   */\n      dup1\n        /* \"#utility.yul\":1002:1014   */\n      revert\n        /* \"#utility.yul\":946:1016   */\n    tag_359:\n        /* \"#utility.yul\":849:1022   */\n      swap2\n      swap1\n      pop\n      jump\t// out\n        /* \"#utility.yul\":1027:1154   */\n    tag_348:\n        /* \"#utility.yul\":1088:1098   */\n      0x4e487b71\n        /* \"#utility.yul\":1083:1086   */\n      0xe0\n        /* \"#utility.yul\":1079:1099   */\n      shl\n        /* \"#utility.yul\":1076:1077   */\n      0x00\n        /* \"#utility.yul\":1069:1100   */\n      mstore\n        /* \"#utility.yul\":1119:1123   */\n      0x41\n        /* \"#utility.yul\":1116:1117   */\n      0x04\n        /* \"#utility.yul\":1109:1124   */\n      mstore\n        /* \"#utility.yul\":1143:1147   */\n      0x24\n        /* \"#utility.yul\":1140:1141   */\n      0x00\n        /* \"#utility.yul\":1133:1148   */\n      revert\n        /* \"#utility.yul\":1159:1875   */\n    tag_349:\n        /* \"#utility.yul\":1224:1229   */\n      0x00\n        /* \"#utility.yul\":1256:1257   */\n      dup1\n        /* \"#utility.yul\":1280:1298   */\n      0xffffffffffffffff\n        /* \"#utility.yul\":1272:1278   */\n      dup5\n        /* \"#utility.yul\":1269:1299   */\n      gt\n        /* \"#utility.yul\":1266:1322   */\n      iszero\n      tag_363\n      jumpi\n        /* \"#utility.yul\":1302:1320   */\n      tag_363\n      tag_348\n      jump\t// in\n    tag_363:\n      pop\n        /* \"#utility.yul\":1457:1459   */\n      0x40\n        /* \"#utility.yul\":1451:1460   */\n      mload\n      not(0x1f)\n        /* \"#utility.yul\":1370:1372   */\n      0x1f\n        /* \"#utility.yul\":1349:1364   */\n      dup6\n      add\n        /* \"#utility.yul\":1345:1374   */\n      dup2\n      and\n        /* \"#utility.yul\":1515:1517   */\n      0x3f\n        /* \"#utility.yul\":1503:1518   */\n      add\n        /* \"#utility.yul\":1499:1528   */\n      and\n        /* \"#utility.yul\":1487:1529   */\n      dup2\n      add\n        /* \"#utility.yul\":1580:1602   */\n      dup2\n      dup2\n      lt\n        /* \"#utility.yul\":1559:1577   */\n      0xffffffffffffffff\n        /* \"#utility.yul\":1544:1578   */\n      dup3\n      gt\n        /* \"#utility.yul\":1541:1603   */\n      or\n        /* \"#utility.yul\":1538:1626   */\n      iszero\n      tag_365\n      jumpi\n        /* \"#utility.yul\":1606:1624   */\n      tag_365\n      tag_348\n      jump\t// in\n    tag_365:\n        /* \"#utility.yul\":1642:1644   */\n      0x40\n        /* \"#utility.yul\":1635:1657   */\n      mstore\n        /* \"#utility.yul\":1690:1712   */\n      dup4\n      dup2\n      mstore\n        /* \"#utility.yul\":1675:1681   */\n      swap1\n      pop\n      dup1\n        /* \"#utility.yul\":1727:1743   */\n      dup3\n      dup5\n      add\n        /* \"#utility.yul\":1724:1749   */\n      dup6\n      lt\n        /* \"#utility.yul\":1721:1766   */\n      iszero\n      tag_366\n      jumpi\n        /* \"#utility.yul\":1762:1763   */\n      0x00\n        /* \"#utility.yul\":1759:1760   */\n      dup1\n        /* \"#utility.yul\":1752:1764   */\n      revert\n        /* \"#utility.yul\":1721:1766   */\n    tag_366:\n        /* \"#utility.yul\":1812:1818   */\n      dup4\n        /* \"#utility.yul\":1807:1810   */\n      dup4\n        /* \"#utility.yul\":1800:1804   */\n      0x20\n        /* \"#utility.yul\":1792:1798   */\n      dup4\n        /* \"#utility.yul\":1788:1805   */\n      add\n        /* \"#utility.yul\":1775:1819   */\n      calldatacopy\n        /* \"#utility.yul\":1867:1868   */\n      0x00\n        /* \"#utility.yul\":1860:1864   */\n      0x20\n        /* \"#utility.yul\":1851:1857   */\n      dup6\n        /* \"#utility.yul\":1843:1849   */\n      dup4\n        /* \"#utility.yul\":1839:1858   */\n      add\n        /* \"#utility.yul\":1835:1865   */\n      add\n        /* \"#utility.yul\":1828:1869   */\n      mstore\n      pop\n        /* \"#utility.yul\":1159:1875   */\n      swap4\n      swap3\n      pop\n      pop\n      pop\n      jump\t// out\n        /* \"#utility.yul\":1880:2101   */\n    tag_350:\n        /* \"#utility.yul\":1922:1927   */\n      0x00\n        /* \"#utility.yul\":1975:1978   */\n      dup3\n        /* \"#utility.yul\":1968:1972   */\n      0x1f\n        /* \"#utility.yul\":1960:1966   */\n      dup4\n        /* \"#utility.yul\":1956:1973   */\n      add\n        /* \"#utility.yul\":1952:1979   */\n      slt\n        /* \"#utility.yul\":1942:1997   */\n      tag_368\n      jumpi\n        /* \"#utility.yul\":1993:1994   */\n      0x00\n        /* \"#utility.yul\":1990:1991   */\n      dup1\n        /* \"#utility.yul\":1983:1995   */\n      revert\n        /* \"#utility.yul\":1942:1997   */\n    tag_368:\n        /* \"#utility.yul\":2015:2095   */\n      tag_369\n        /* \"#utility.yul\":2091:2094   */\n      dup4\n        /* \"#utility.yul\":2082:2088   */\n      dup4\n        /* \"#utility.yul\":2069:2089   */\n      calldataload\n        /* \"#utility.yul\":2062:2066   */\n      0x20\n        /* \"#utility.yul\":2054:2060   */\n      dup6\n        /* \"#utility.yul\":2050:2067   */\n      add\n        /* \"#utility.yul\":2015:2095   */\n      tag_349\n      jump\t// in\n    tag_369:\n        /* \"#utility.yul\":2006:2095   */\n      swap4\n        /* \"#utility.yul\":1880:2101   */\n      swap3\n      pop\n      pop\n      pop\n      jump\t// out\n        /* \"#utility.yul\":2106:2960   */\n    tag_62:\n        /* \"#utility.yul\":2211:2217   */\n      0x00\n        /* \"#utility.yul\":2219:2225   */\n      dup1\n        /* \"#utility.yul\":2227:2233   */\n      0x00\n        /* \"#utility.yul\":2235:2241   */\n      dup1\n        /* \"#utility.yul\":2288:2291   */\n      0x80\n        /* \"#utility.yul\":2276:2285   */\n      dup6\n        /* \"#utility.yul\":2267:2274   */\n      dup8\n        /* \"#utility.yul\":2263:2286   */\n      sub\n        /* \"#utility.yul\":2259:2292   */\n      slt\n        /* \"#utility.yul\":2256:2309   */\n      iszero\n      tag_371\n      jumpi\n        /* \"#utility.yul\":2305:2306   */\n      0x00\n        /* \"#utility.yul\":2302:2303   */\n      dup1\n        /* \"#utility.yul\":2295:2307   */\n      revert\n        /* \"#utility.yul\":2256:2309   */\n    tag_371:\n        /* \"#utility.yul\":2328:2357   */\n      tag_372\n        /* \"#utility.yul\":2347:2356   */\n      dup6\n        /* \"#utility.yul\":2328:2357   */\n      tag_347\n      jump\t// in\n    tag_372:\n        /* \"#utility.yul\":2318:2357   */\n      swap4\n      pop\n        /* \"#utility.yul\":2408:2410   */\n      0x20\n        /* \"#utility.yul\":2397:2406   */\n      dup6\n        /* \"#utility.yul\":2393:2411   */\n      add\n        /* \"#utility.yul\":2380:2412   */\n      calldataload\n        /* \"#utility.yul\":2435:2453   */\n      0xffffffffffffffff\n        /* \"#utility.yul\":2427:2433   */\n      dup2\n        /* \"#utility.yul\":2424:2454   */\n      gt\n        /* \"#utility.yul\":2421:2471   */\n      iszero\n      tag_373\n      jumpi\n        /* \"#utility.yul\":2467:2468   */\n      0x00\n        /* \"#utility.yul\":2464:2465   */\n      dup1\n        /* \"#utility.yul\":2457:2469   */\n      revert\n        /* \"#utility.yul\":2421:2471   */\n    tag_373:\n        /* \"#utility.yul\":2490:2512   */\n      dup6\n      add\n        /* \"#utility.yul\":2543:2547   */\n      0x1f\n        /* \"#utility.yul\":2535:2548   */\n      dup2\n      add\n        /* \"#utility.yul\":2531:2558   */\n      dup8\n      sgt\n        /* \"#utility.yul\":2521:2576   */\n      tag_374\n      jumpi\n        /* \"#utility.yul\":2572:2573   */\n      0x00\n        /* \"#utility.yul\":2569:2570   */\n      dup1\n        /* \"#utility.yul\":2562:2574   */\n      revert\n        /* \"#utility.yul\":2521:2576   */\n    tag_374:\n        /* \"#utility.yul\":2595:2669   */\n      tag_375\n        /* \"#utility.yul\":2661:2668   */\n      dup8\n        /* \"#utility.yul\":2656:2658   */\n      dup3\n        /* \"#utility.yul\":2643:2659   */\n      calldataload\n        /* \"#utility.yul\":2638:2640   */\n      0x20\n        /* \"#utility.yul\":2634:2636   */\n      dup5\n        /* \"#utility.yul\":2630:2641   */\n      add\n        /* \"#utility.yul\":2595:2669   */\n      tag_349\n      jump\t// in\n    tag_375:\n        /* \"#utility.yul\":2585:2669   */\n      swap4\n      pop\n      pop\n        /* \"#utility.yul\":2738:2740   */\n      0x40\n        /* \"#utility.yul\":2723:2741   */\n      dup6\n      add\n        /* \"#utility.yul\":2710:2742   */\n      calldataload\n      swap2\n      pop\n        /* \"#utility.yul\":2819:2821   */\n      0x60\n        /* \"#utility.yul\":2804:2822   */\n      dup6\n      add\n        /* \"#utility.yul\":2791:2823   */\n      calldataload\n        /* \"#utility.yul\":2848:2866   */\n      0xffffffffffffffff\n        /* \"#utility.yul\":2835:2867   */\n      dup2\n      gt\n        /* \"#utility.yul\":2832:2884   */\n      iszero\n      tag_376\n      jumpi\n        /* \"#utility.yul\":2880:2881   */\n      0x00\n        /* \"#utility.yul\":2877:2878   */\n      dup1\n        /* \"#utility.yul\":2870:2882   */\n      revert\n        /* \"#utility.yul\":2832:2884   */\n    tag_376:\n        /* \"#utility.yul\":2903:2954   */\n      tag_377\n        /* \"#utility.yul\":2946:2953   */\n      dup8\n        /* \"#utility.yul\":2935:2943   */\n      dup3\n        /* \"#utility.yul\":2924:2933   */\n      dup9\n        /* \"#utility.yul\":2920:2944   */\n      add\n        /* \"#utility.yul\":2903:2954   */\n      tag_350\n      jump\t// in\n    tag_377:\n        /* \"#utility.yul\":2893:2954   */\n      swap2\n      pop\n      pop\n        /* \"#utility.yul\":2106:2960   */\n      swap3\n      swap6\n      swap2\n      swap5\n      pop\n      swap3\n      pop\n      jump\t// out\n        /* \"#utility.yul\":2965:3151   */\n    tag_77:\n        /* \"#utility.yul\":3024:3030   */\n      0x00\n        /* \"#utility.yul\":3077:3079   */\n      0x20\n        /* \"#utility.yul\":3065:3074   */\n      dup3\n        /* \"#utility.yul\":3056:3063   */\n      dup5\n        /* \"#utility.yul\":3052:3075   */\n      sub\n        /* \"#utility.yul\":3048:3080   */\n      slt\n        /* \"#utility.yul\":3045:3097   */\n      iszero\n      tag_379\n      jumpi\n        /* \"#utility.yul\":3093:3094   */\n      0x00\n        /* \"#utility.yul\":3090:3091   */\n      dup1\n        /* \"#utility.yul\":3083:3095   */\n      revert\n        /* \"#utility.yul\":3045:3097   */\n    tag_379:\n        /* \"#utility.yul\":3116:3145   */\n      tag_369\n        /* \"#utility.yul\":3135:3144   */\n      dup3\n        /* \"#utility.yul\":3116:3145   */\n      tag_347\n      jump\t// in\n        /* \"#utility.yul\":3364:3684   */\n    tag_92:\n        /* \"#utility.yul\":3432:3438   */\n      0x00\n        /* \"#utility.yul\":3485:3487   */\n      0x20\n        /* \"#utility.yul\":3473:3482   */\n      dup3\n        /* \"#utility.yul\":3464:3471   */\n      dup5\n        /* \"#utility.yul\":3460:3483   */\n      sub\n        /* \"#utility.yul\":3456:3488   */\n      slt\n        /* \"#utility.yul\":3453:3505   */\n      iszero\n      tag_383\n      jumpi\n        /* \"#utility.yul\":3501:3502   */\n      0x00\n        /* \"#utility.yul\":3498:3499   */\n      dup1\n        /* \"#utility.yul\":3491:3503   */\n      revert\n        /* \"#utility.yul\":3453:3505   */\n    tag_383:\n        /* \"#utility.yul\":3541:3550   */\n      dup2\n        /* \"#utility.yul\":3528:3551   */\n      calldataload\n        /* \"#utility.yul\":3574:3592   */\n      0xffffffffffffffff\n        /* \"#utility.yul\":3566:3572   */\n      dup2\n        /* \"#utility.yul\":3563:3593   */\n      gt\n        /* \"#utility.yul\":3560:3610   */\n      iszero\n      tag_384\n      jumpi\n        /* \"#utility.yul\":3606:3607   */\n      0x00\n        /* \"#utility.yul\":3603:3604   */\n      dup1\n        /* \"#utility.yul\":3596:3608   */\n      revert\n        /* \"#utility.yul\":3560:3610   */\n    tag_384:\n        /* \"#utility.yul\":3629:3678   */\n      tag_385\n        /* \"#utility.yul\":3670:3677   */\n      dup5\n        /* \"#utility.yul\":3661:3667   */\n      dup3\n        /* \"#utility.yul\":3650:3659   */\n      dup6\n        /* \"#utility.yul\":3646:3668   */\n      add\n        /* \"#utility.yul\":3629:3678   */\n      tag_350\n      jump\t// in\n    tag_385:\n        /* \"#utility.yul\":3619:3678   */\n      swap5\n        /* \"#utility.yul\":3364:3684   */\n      swap4\n      pop\n      pop\n      pop\n      pop\n      jump\t// out\n        /* \"#utility.yul\":5050:5300   */\n    tag_351:\n        /* \"#utility.yul\":5135:5136   */\n      0x00\n        /* \"#utility.yul\":5145:5258   */\n    tag_391:\n        /* \"#utility.yul\":5159:5165   */\n      dup4\n        /* \"#utility.yul\":5156:5157   */\n      dup2\n        /* \"#utility.yul\":5153:5166   */\n      lt\n        /* \"#utility.yul\":5145:5258   */\n      iszero\n      tag_393\n      jumpi\n        /* \"#utility.yul\":5235:5246   */\n      dup2\n      dup2\n      add\n        /* \"#utility.yul\":5229:5247   */\n      mload\n        /* \"#utility.yul\":5216:5227   */\n      dup4\n      dup3\n      add\n        /* \"#utility.yul\":5209:5248   */\n      mstore\n        /* \"#utility.yul\":5181:5183   */\n      0x20\n        /* \"#utility.yul\":5174:5184   */\n      add\n        /* \"#utility.yul\":5145:5258   */\n      jump(tag_391)\n    tag_393:\n      pop\n      pop\n        /* \"#utility.yul\":5292:5293   */\n      0x00\n        /* \"#utility.yul\":5274:5290   */\n      swap2\n      add\n        /* \"#utility.yul\":5267:5294   */\n      mstore\n        /* \"#utility.yul\":5050:5300   */\n      jump\t// out\n        /* \"#utility.yul\":5305:5592   */\n    tag_146:\n        /* \"#utility.yul\":5434:5437   */\n      0x00\n        /* \"#utility.yul\":5472:5478   */\n      dup3\n        /* \"#utility.yul\":5466:5479   */\n      mload\n        /* \"#utility.yul\":5488:5554   */\n      tag_395\n        /* \"#utility.yul\":5547:5553   */\n      dup2\n        /* \"#utility.yul\":5542:5545   */\n      dup5\n        /* \"#utility.yul\":5535:5539   */\n      0x20\n        /* \"#utility.yul\":5527:5533   */\n      dup8\n        /* \"#utility.yul\":5523:5540   */\n      add\n        /* \"#utility.yul\":5488:5554   */\n      tag_351\n      jump\t// in\n    tag_395:\n        /* \"#utility.yul\":5570:5586   */\n      swap2\n      swap1\n      swap2\n      add\n      swap3\n        /* \"#utility.yul\":5305:5592   */\n      swap2\n      pop\n      pop\n      jump\t// out\n        /* \"#utility.yul\":5948:6132   */\n    tag_155:\n        /* \"#utility.yul\":6018:6024   */\n      0x00\n        /* \"#utility.yul\":6071:6073   */\n      0x20\n        /* \"#utility.yul\":6059:6068   */\n      dup3\n        /* \"#utility.yul\":6050:6057   */\n      dup5\n        /* \"#utility.yul\":6046:6069   */\n      sub\n        /* \"#utility.yul\":6042:6074   */\n      slt\n        /* \"#utility.yul\":6039:6091   */\n      iszero\n      tag_398\n      jumpi\n        /* \"#utility.yul\":6087:6088   */\n      0x00\n        /* \"#utility.yul\":6084:6085   */\n      dup1\n        /* \"#utility.yul\":6077:6089   */\n      revert\n        /* \"#utility.yul\":6039:6091   */\n    tag_398:\n      pop\n        /* \"#utility.yul\":6110:6126   */\n      mload\n      swap2\n        /* \"#utility.yul\":5948:6132   */\n      swap1\n      pop\n      jump\t// out\n        /* \"#utility.yul\":9331:9608   */\n    tag_237:\n        /* \"#utility.yul\":9398:9404   */\n      0x00\n        /* \"#utility.yul\":9451:9453   */\n      0x20\n        /* \"#utility.yul\":9439:9448   */\n      dup3\n        /* \"#utility.yul\":9430:9437   */\n      dup5\n        /* \"#utility.yul\":9426:9449   */\n      sub\n        /* \"#utility.yul\":9422:9454   */\n      slt\n        /* \"#utility.yul\":9419:9471   */\n      iszero\n      tag_409\n      jumpi\n        /* \"#utility.yul\":9467:9468   */\n      0x00\n        /* \"#utility.yul\":9464:9465   */\n      dup1\n        /* \"#utility.yul\":9457:9469   */\n      revert\n        /* \"#utility.yul\":9419:9471   */\n    tag_409:\n        /* \"#utility.yul\":9499:9508   */\n      dup2\n        /* \"#utility.yul\":9493:9509   */\n      mload\n        /* \"#utility.yul\":9552:9557   */\n      dup1\n        /* \"#utility.yul\":9545:9558   */\n      iszero\n        /* \"#utility.yul\":9538:9559   */\n      iszero\n        /* \"#utility.yul\":9531:9536   */\n      dup2\n        /* \"#utility.yul\":9528:9560   */\n      eq\n        /* \"#utility.yul\":9518:9578   */\n      tag_369\n      jumpi\n        /* \"#utility.yul\":9574:9575   */\n      0x00\n        /* \"#utility.yul\":9571:9572   */\n      dup1\n        /* \"#utility.yul\":9564:9576   */\n      revert\n        /* \"#utility.yul\":9613:10108   */\n    tag_284:\n        /* \"#utility.yul\":9788:9790   */\n      0x40\n        /* \"#utility.yul\":9777:9786   */\n      dup2\n        /* \"#utility.yul\":9770:9791   */\n      mstore\n        /* \"#utility.yul\":9751:9755   */\n      0x00\n        /* \"#utility.yul\":9820:9826   */\n      dup4\n        /* \"#utility.yul\":9814:9827   */\n      mload\n        /* \"#utility.yul\":9863:9869   */\n      dup1\n        /* \"#utility.yul\":9858:9860   */\n      0x40\n        /* \"#utility.yul\":9847:9856   */\n      dup5\n        /* \"#utility.yul\":9843:9861   */\n      add\n        /* \"#utility.yul\":9836:9870   */\n      mstore\n        /* \"#utility.yul\":9879:9960   */\n      tag_412\n        /* \"#utility.yul\":9953:9959   */\n      dup2\n        /* \"#utility.yul\":9948:9950   */\n      0x60\n        /* \"#utility.yul\":9937:9946   */\n      dup6\n        /* \"#utility.yul\":9933:9951   */\n      add\n        /* \"#utility.yul\":9926:9930   */\n      0x20\n        /* \"#utility.yul\":9918:9924   */\n      dup9\n        /* \"#utility.yul\":9914:9931   */\n      add\n        /* \"#utility.yul\":9879:9960   */\n      tag_351\n      jump\t// in\n    tag_412:\n      sub(shl(0xa0, 0x01), 0x01)\n        /* \"#utility.yul\":10069:10101   */\n      swap4\n      swap1\n      swap4\n      and\n        /* \"#utility.yul\":10062:10066   */\n      0x20\n        /* \"#utility.yul\":10047:10067   */\n      dup4\n      add\n        /* \"#utility.yul\":10040:10102   */\n      mstore\n      pop\n        /* \"#utility.yul\":10021:10023   */\n      0x1f\n        /* \"#utility.yul\":10000:10015   */\n      swap2\n      swap1\n      swap2\n      add\n      not(0x1f)\n        /* \"#utility.yul\":9996:10025   */\n      and\n        /* \"#utility.yul\":9981:10026   */\n      add\n        /* \"#utility.yul\":10028:10030   */\n      0x60\n        /* \"#utility.yul\":9977:10031   */\n      add\n      swap2\n        /* \"#utility.yul\":9613:10108   */\n      swap1\n      pop\n      jump\t// out\n        /* \"#utility.yul\":10113:10608   */\n    tag_300:\n        /* \"#utility.yul\":10355:10381   */\n      0xffffffffffffffffffffffff\n        /* \"#utility.yul\":10351:10382   */\n      not\n        /* \"#utility.yul\":10342:10348   */\n      dup5\n        /* \"#utility.yul\":10338:10340   */\n      0x60\n        /* \"#utility.yul\":10334:10349   */\n      shl\n        /* \"#utility.yul\":10330:10383   */\n      and\n        /* \"#utility.yul\":10325:10328   */\n      dup2\n        /* \"#utility.yul\":10318:10384   */\n      mstore\n        /* \"#utility.yul\":10300:10303   */\n      0x00\n        /* \"#utility.yul\":10413:10419   */\n      dup4\n        /* \"#utility.yul\":10407:10420   */\n      mload\n        /* \"#utility.yul\":10429:10504   */\n      tag_414\n        /* \"#utility.yul\":10497:10503   */\n      dup2\n        /* \"#utility.yul\":10492:10494   */\n      0x14\n        /* \"#utility.yul\":10487:10490   */\n      dup6\n        /* \"#utility.yul\":10483:10495   */\n      add\n        /* \"#utility.yul\":10476:10480   */\n      0x20\n        /* \"#utility.yul\":10468:10474   */\n      dup9\n        /* \"#utility.yul\":10464:10481   */\n      add\n        /* \"#utility.yul\":10429:10504   */\n      tag_351\n      jump\t// in\n    tag_414:\n        /* \"#utility.yul\":10563:10565   */\n      0x14\n        /* \"#utility.yul\":10523:10539   */\n      swap3\n      add\n        /* \"#utility.yul\":10555:10566   */\n      swap2\n      dup3\n      add\n        /* \"#utility.yul\":10548:10575   */\n      swap3\n      swap1\n      swap3\n      mstore\n        /* \"#utility.yul\":10599:10601   */\n      0x34\n        /* \"#utility.yul\":10591:10602   */\n      add\n      swap4\n        /* \"#utility.yul\":10113:10608   */\n      swap3\n      pop\n      pop\n      pop\n      jump\t// out\n        /* \"#utility.yul\":10613:10740   */\n    tag_315:\n        /* \"#utility.yul\":10674:10684   */\n      0x4e487b71\n        /* \"#utility.yul\":10669:10672   */\n      0xe0\n        /* \"#utility.yul\":10665:10685   */\n      shl\n        /* \"#utility.yul\":10662:10663   */\n      0x00\n        /* \"#utility.yul\":10655:10686   */\n      mstore\n        /* \"#utility.yul\":10705:10709   */\n      0x21\n        /* \"#utility.yul\":10702:10703   */\n      0x04\n        /* \"#utility.yul\":10695:10710   */\n      mstore\n        /* \"#utility.yul\":10729:10733   */\n      0x24\n        /* \"#utility.yul\":10726:10727   */\n      0x00\n        /* \"#utility.yul\":10719:10734   */\n      revert\n\n    auxdata: 0xa2646970667358221220aa0177b810eba01cd0904d6151cad5a4346956b7127d19491da2bbbcd4e60d3064736f6c634300081c0033\n}\n",
				"bytecode": {
					"linkReferences": {},
					"object": "60a060405234801561001057600080fd5b5060405161182638038061182683398101604081905261002f9161026c565b836001600160a01b03811661005f57604051631e4fbdf760e01b8152600060048201526024015b60405180910390fd5b61006881610200565b50600180556002805460ff191690556001600160a01b0381166100d75760405162461bcd60e51b815260206004820152602160248201527f5a65726f206164647265737320676976656e20666f72206355534420546f6b656044820152603760f91b6064820152608401610056565b6001600160a01b0384166101375760405162461bcd60e51b815260206004820152602160248201527f5a65726f206164647265737320676976656e20666f72207265736561726368656044820152603960f91b6064820152608401610056565b600083116101875760405162461bcd60e51b815260206004820152601560248201527f496e76616c69642072657761726420616d6f756e7400000000000000000000006044820152606401610056565b600082116101e55760405162461bcd60e51b815260206004820152602560248201527f496e76616c6964206e756d626572206f6620746172676574207061727469636960448201526470616e747360d81b6064820152608401610056565b6001600160a01b0316608052600691909155600755506102b3565b600080546001600160a01b038381166001600160a01b0319831681178455604051919092169283917f8be0079c531659141344cd1fd0a4f28419497f9722a3daafe3b4186f6b6457e09190a35050565b80516001600160a01b038116811461026757600080fd5b919050565b6000806000806080858703121561028257600080fd5b61028b85610250565b60208601516040870151919550935091506102a860608601610250565b905092959194509250565b6080516115356102f1600039600081816101620152818161052e0152818161098501528181610a5d01528181610ad60152610d8d01526115356000f3fe608060405234801561001057600080fd5b50600436106101585760003560e01c8063741ae614116100c3578063c5dac9131161007c578063c5dac9131461029a578063e082fe2a146102ad578063ea1dd101146102b5578063f22069df146102c8578063f2fde38b146102d0578063f77a953e146102e357600080fd5b8063741ae6141461023b5780637a0abf0814610243578063825f98be1461024c5780638da5cb5b14610278578063a6a0981114610289578063c3aa97211461029257600080fd5b8063627d3eb911610115578063627d3eb9146101f557806364bb632f146101fd5780636fa1c59d146102105780636fa55ed9146102185780637069243c1461022b578063715018a61461023357600080fd5b80631fccf6721461015d5780633960fc66146101a15780634074be40146101ab5780634fc91ba6146101c2578063528780cc146101cb5780635c975abb146101de575b600080fd5b6101847f000000000000000000000000000000000000000000000000000000000000000081565b6040516001600160a01b0390911681526020015b60405180910390f35b6101a96102eb565b005b6101b4600a5481565b604051908152602001610198565b6101b4600b5481565b6101a96101d9366004611210565b6102fd565b60025460ff165b6040519015158152602001610198565b6009546101b4565b6101a961020b366004611210565b6103b4565b6007546101b4565b6101a96102263660046112fc565b61044c565b6006546101b4565b6101a96107ac565b6008546101b4565b6101b460065481565b6101e561025a366004611393565b6001600160a01b031660009081526004602052604090205460ff1690565b6000546001600160a01b0316610184565b6101b460075481565b600b546101b4565b6101e56102a83660046113ae565b6107be565b6101a96107e9565b6101a96102c3366004611393565b6107f9565b6101a961095d565b6101a96102de366004611393565b610be8565b600a546101b4565b6102f3610c26565b6102fb610c53565b565b610305610c26565b8060000361036b5760405162461bcd60e51b815260206004820152602860248201527f5a65726f206e756d626572206f6620746172676574207061727469636970616e6044820152673a399033b4bb32b760c11b60648201526084015b60405180910390fd5b6007805490829055604080518281526020810184905283917fb90f11d36a1f2ec1f3b89ac87ccd1ffab1a49f3e3ca83cfdac21fd99a537cbc191015b60405180910390a1505050565b6103bc610c26565b8060000361040c5760405162461bcd60e51b815260206004820152601860248201527f5a65726f2072657761726420616d6f756e7420676976656e00000000000000006044820152606401610362565b6006805490829055604080518281526020810184905283917ff0d37c3ae852021ac329281f604b658691cbfa6b9e9c22909f06b64a8ce87c9491016103a7565b610454610ca5565b61045c610cc9565b8383838361046c84848484610cf3565b6104ac5760405162461bcd60e51b8152602060048201526011602482015270496e76616c6964207369676e617475726560781b6044820152606401610362565b846005816040516104bd919061140f565b9081526040519081900360200190205460ff16156105165760405162461bcd60e51b815260206004820152601660248201527514da59db985d1d5c9948185b1c9958591e481d5cd95960521b6044820152606401610362565b6006546040516370a0823160e01b81523060048201527f00000000000000000000000000000000000000000000000000000000000000006001600160a01b0316906370a0823190602401602060405180830381865afa15801561057d573d6000803e3d6000fd5b505050506040513d601f19601f820116820180604052508101906105a1919061142b565b10156105fa5760405162461bcd60e51b815260206004820152602260248201527f436f6e747261637420646f6573206e6f74206861766520656e6f75676820635560448201526114d160f21b6064820152608401610362565b600754600854106106595760405162461bcd60e51b815260206004820152602360248201527f416c6c207061727469636970616e74732068617665206265656e20726577617260448201526219195960ea1b6064820152608401610362565b88336001600160a01b038216146106a65760405162461bcd60e51b815260206004820152601160248201527027b7363c903b30b634b21039b2b73232b960791b6044820152606401610362565b6001600160a01b038a166000908152600360205260409020548a9060ff16156107115760405162461bcd60e51b815260206004820152601c60248201527f5061727469636970616e7420616c7265616479207265776172646564000000006044820152606401610362565b6001600160a01b038b166000908152600460205260409020548b9060ff1661076e5760405162461bcd60e51b815260206004820152601060248201526f135d5cdd081899481cd8dc99595b995960821b6044820152606401610362565b60006107798d610d5e565b905080156107945761078b8a8e610e5a565b6107948d610ec5565b5050505050505050506107a660018055565b50505050565b6107b4610c26565b6102fb6000610f2b565b60006005826040516107d0919061140f565b9081526040519081900360200190205460ff1692915050565b6107f1610c26565b6102fb610f7b565b80336001600160a01b038216146108465760405162461bcd60e51b815260206004820152601160248201527027b7363c903b30b634b21039b2b73232b960791b6044820152606401610362565b6001600160a01b038216600090815260046020526040902054829060ff16156108b15760405162461bcd60e51b815260206004820152601760248201527f4f6e6c7920756e73637265656e656420616464726573730000000000000000006044820152606401610362565b6001600160a01b0383166108fd5760405162461bcd60e51b815260206004820152601360248201527216995c9bc81859191c995cdcc81c185cdcd959606a1b6044820152606401610362565b6001600160a01b038316600081815260046020908152604091829020805460ff19166001908117909155600a8054909101905590519182527fc4ec7a2dc5e72d17666a15570e438638bfc023a7a091df162b669c37198bacb291016103a7565b610965610c26565b61096d610ca5565b6040516370a0823160e01b81523060048201526000907f00000000000000000000000000000000000000000000000000000000000000006001600160a01b0316906370a0823190602401602060405180830381865afa1580156109d4573d6000803e3d6000fd5b505050506040513d601f19601f820116820180604052508101906109f8919061142b565b11610a455760405162461bcd60e51b815260206004820152601f60248201527f436f6e747261637420646f6573206e6f74206861766520616e792063555344006044820152606401610362565b6040516370a0823160e01b81523060048201526000907f00000000000000000000000000000000000000000000000000000000000000006001600160a01b0316906370a0823190602401602060405180830381865afa158015610aac573d6000803e3d6000fd5b505050506040513d601f19601f82011682018060405250810190610ad0919061142b565b905060007f00000000000000000000000000000000000000000000000000000000000000006001600160a01b031663a9059cbb610b156000546001600160a01b031690565b6040516001600160e01b031960e084901b1681526001600160a01b039091166004820152602481018590526044016020604051808303816000875af1158015610b62573d6000803e3d6000fd5b505050506040513d601f19601f82011682018060405250810190610b869190611444565b90508015610be4577f2036b9b38b69a2fa490ee702733a29cd2550accc20bc96e786cb9beedc779097610bc16000546001600160a01b031690565b604080516001600160a01b03909216825260208201859052015b60405180910390a15b5050565b610bf0610c26565b6001600160a01b038116610c1a57604051631e4fbdf760e01b815260006004820152602401610362565b610c2381610f2b565b50565b6000546001600160a01b031633146102fb5760405163118cdaa760e01b8152336004820152602401610362565b610c5b610fb8565b6002805460ff191690557f5db9ee0a495bf2e6ff9c91a7834c1ba4fdd244a5e8aa4e537bd38aeae4b073aa335b6040516001600160a01b03909116815260200160405180910390a1565b60025460ff16156102fb5760405163d93c066560e01b815260040160405180910390fd5b600260015403610cec57604051633ee5aeb560e01b815260040160405180910390fd5b6002600155565b600080610d01868686610fdb565b7f19457468657265756d205369676e6564204d6573736167653a0a3332000000006000908152601c829052603c81209054919250906001600160a01b0316610d498286611011565b6001600160a01b031614979650505050505050565b60065460405163a9059cbb60e01b81526001600160a01b038381166004830152602482019290925260009182917f00000000000000000000000000000000000000000000000000000000000000009091169063a9059cbb906044016020604051808303816000875af1158015610dd8573d6000803e3d6000fd5b505050506040513d601f19601f82011682018060405250810190610dfc9190611444565b90508015610e5457600880546001019055600654604080516001600160a01b038616815260208101929092527f8934d7a9692e763e356fd30d84ca5f61a737b35c5ccd5d31d4f140310267b73e910160405180910390a15b92915050565b6001600583604051610e6c919061140f565b908152604051908190036020018120805492151560ff1990931692909217909155600b805460010190557f97fb84d3f0d20b64a0a8e52541408b0155ba98fea88e66283156f306d04b08b890610bdb9084908490611466565b6001600160a01b038116600081815260036020908152604091829020805460ff1916600190811790915560098054909101905590519182527f654c9a027765e6feb862f42d438e9f6948f9ee31113e379f0372b30efc722943910160405180910390a150565b600080546001600160a01b038381166001600160a01b0319831681178455604051919092169283917f8be0079c531659141344cd1fd0a4f28419497f9722a3daafe3b4186f6b6457e09190a35050565b610f83610ca5565b6002805460ff191660011790557f62e78cea01bee320cd4e420270b5ea74000d11b0c9f74754ebdbfc544b05a258610c883390565b60025460ff166102fb57604051638dfc202b60e01b815260040160405180910390fd5b6000838383604051602001610ff2939291906114aa565b6040516020818303038152906040528051906020012090509392505050565b600080600080611021868661103b565b9250925092506110318282611088565b5090949350505050565b600080600083516041036110755760208401516040850151606086015160001a61106788828585611141565b955095509550505050611081565b50508151600091506002905b9250925092565b600082600381111561109c5761109c6114e9565b036110a5575050565b60018260038111156110b9576110b96114e9565b036110d75760405163f645eedf60e01b815260040160405180910390fd5b60028260038111156110eb576110eb6114e9565b0361110c5760405163fce698f760e01b815260048101829052602401610362565b6003826003811115611120576111206114e9565b03610be4576040516335e2f38360e21b815260048101829052602401610362565b600080807f7fffffffffffffffffffffffffffffff5d576e7357a4501ddfe92f46681b20a084111561117c5750600091506003905082611206565b604080516000808252602082018084528a905260ff891692820192909252606081018790526080810186905260019060a0016020604051602081039080840390855afa1580156111d0573d6000803e3d6000fd5b5050604051601f1901519150506001600160a01b0381166111fc57506000925060019150829050611206565b9250600091508190505b9450945094915050565b60006020828403121561122257600080fd5b5035919050565b80356001600160a01b038116811461124057600080fd5b919050565b634e487b7160e01b600052604160045260246000fd5b60008067ffffffffffffffff84111561127657611276611245565b50604051601f19601f85018116603f0116810181811067ffffffffffffffff821117156112a5576112a5611245565b6040528381529050808284018510156112bd57600080fd5b83836020830137600060208583010152509392505050565b600082601f8301126112e657600080fd5b6112f58383356020850161125b565b9392505050565b6000806000806080858703121561131257600080fd5b61131b85611229565b9350602085013567ffffffffffffffff81111561133757600080fd5b8501601f8101871361134857600080fd5b6113578782356020840161125b565b93505060408501359150606085013567ffffffffffffffff81111561137b57600080fd5b611387878288016112d5565b91505092959194509250565b6000602082840312156113a557600080fd5b6112f582611229565b6000602082840312156113c057600080fd5b813567ffffffffffffffff8111156113d757600080fd5b6113e3848285016112d5565b949350505050565b60005b838110156114065781810151838201526020016113ee565b50506000910152565b600082516114218184602087016113eb565b9190910192915050565b60006020828403121561143d57600080fd5b5051919050565b60006020828403121561145657600080fd5b815180151581146112f557600080fd5b60408152600083518060408401526114858160608501602088016113eb565b6001600160a01b0393909316602083015250601f91909101601f191601606001919050565b6bffffffffffffffffffffffff198460601b168152600083516114d48160148501602088016113eb565b60149201918201929092526034019392505050565b634e487b7160e01b600052602160045260246000fdfea2646970667358221220aa0177b810eba01cd0904d6151cad5a4346956b7127d19491da2bbbcd4e60d3064736f6c634300081c0033",
					"opcodes": "PUSH1 0xA0 PUSH1 0x40 MSTORE CALLVALUE DUP1 ISZERO PUSH2 0x10 JUMPI PUSH1 0x0 DUP1 REVERT JUMPDEST POP PUSH1 0x40 MLOAD PUSH2 0x1826 CODESIZE SUB DUP1 PUSH2 0x1826 DUP4 CODECOPY DUP2 ADD PUSH1 0x40 DUP2 SWAP1 MSTORE PUSH2 0x2F SWAP2 PUSH2 0x26C JUMP JUMPDEST DUP4 PUSH1 0x1 PUSH1 0x1 PUSH1 0xA0 SHL SUB DUP2 AND PUSH2 0x5F JUMPI PUSH1 0x40 MLOAD PUSH4 0x1E4FBDF7 PUSH1 0xE0 SHL DUP2 MSTORE PUSH1 0x0 PUSH1 0x4 DUP3 ADD MSTORE PUSH1 0x24 ADD JUMPDEST PUSH1 0x40 MLOAD DUP1 SWAP2 SUB SWAP1 REVERT JUMPDEST PUSH2 0x68 DUP2 PUSH2 0x200 JUMP JUMPDEST POP PUSH1 0x1 DUP1 SSTORE PUSH1 0x2 DUP1 SLOAD PUSH1 0xFF NOT AND SWAP1 SSTORE PUSH1 0x1 PUSH1 0x1 PUSH1 0xA0 SHL SUB DUP2 AND PUSH2 0xD7 JUMPI PUSH1 0x40 MLOAD PUSH3 0x461BCD PUSH1 0xE5 SHL DUP2 MSTORE PUSH1 0x20 PUSH1 0x4 DUP3 ADD MSTORE PUSH1 0x21 PUSH1 0x24 DUP3 ADD MSTORE PUSH32 0x5A65726F206164647265737320676976656E20666F72206355534420546F6B65 PUSH1 0x44 DUP3 ADD MSTORE PUSH1 0x37 PUSH1 0xF9 SHL PUSH1 0x64 DUP3 ADD MSTORE PUSH1 0x84 ADD PUSH2 0x56 JUMP JUMPDEST PUSH1 0x1 PUSH1 0x1 PUSH1 0xA0 SHL SUB DUP5 AND PUSH2 0x137 JUMPI PUSH1 0x40 MLOAD PUSH3 0x461BCD PUSH1 0xE5 SHL DUP2 MSTORE PUSH1 0x20 PUSH1 0x4 DUP3 ADD MSTORE PUSH1 0x21 PUSH1 0x24 DUP3 ADD MSTORE PUSH32 0x5A65726F206164647265737320676976656E20666F7220726573656172636865 PUSH1 0x44 DUP3 ADD MSTORE PUSH1 0x39 PUSH1 0xF9 SHL PUSH1 0x64 DUP3 ADD MSTORE PUSH1 0x84 ADD PUSH2 0x56 JUMP JUMPDEST PUSH1 0x0 DUP4 GT PUSH2 0x187 JUMPI PUSH1 0x40 MLOAD PUSH3 0x461BCD PUSH1 0xE5 SHL DUP2 MSTORE PUSH1 0x20 PUSH1 0x4 DUP3 ADD MSTORE PUSH1 0x15 PUSH1 0x24 DUP3 ADD MSTORE PUSH32 0x496E76616C69642072657761726420616D6F756E740000000000000000000000 PUSH1 0x44 DUP3 ADD MSTORE PUSH1 0x64 ADD PUSH2 0x56 JUMP JUMPDEST PUSH1 0x0 DUP3 GT PUSH2 0x1E5 JUMPI PUSH1 0x40 MLOAD PUSH3 0x461BCD PUSH1 0xE5 SHL DUP2 MSTORE PUSH1 0x20 PUSH1 0x4 DUP3 ADD MSTORE PUSH1 0x25 PUSH1 0x24 DUP3 ADD MSTORE PUSH32 0x496E76616C6964206E756D626572206F66207461726765742070617274696369 PUSH1 0x44 DUP3 ADD MSTORE PUSH5 0x70616E7473 PUSH1 0xD8 SHL PUSH1 0x64 DUP3 ADD MSTORE PUSH1 0x84 ADD PUSH2 0x56 JUMP JUMPDEST PUSH1 0x1 PUSH1 0x1 PUSH1 0xA0 SHL SUB AND PUSH1 0x80 MSTORE PUSH1 0x6 SWAP2 SWAP1 SWAP2 SSTORE PUSH1 0x7 SSTORE POP PUSH2 0x2B3 JUMP JUMPDEST PUSH1 0x0 DUP1 SLOAD PUSH1 0x1 PUSH1 0x1 PUSH1 0xA0 SHL SUB DUP4 DUP2 AND PUSH1 0x1 PUSH1 0x1 PUSH1 0xA0 SHL SUB NOT DUP4 AND DUP2 OR DUP5 SSTORE PUSH1 0x40 MLOAD SWAP2 SWAP1 SWAP3 AND SWAP3 DUP4 SWAP2 PUSH32 0x8BE0079C531659141344CD1FD0A4F28419497F9722A3DAAFE3B4186F6B6457E0 SWAP2 SWAP1 LOG3 POP POP JUMP JUMPDEST DUP1 MLOAD PUSH1 0x1 PUSH1 0x1 PUSH1 0xA0 SHL SUB DUP2 AND DUP2 EQ PUSH2 0x267 JUMPI PUSH1 0x0 DUP1 REVERT JUMPDEST SWAP2 SWAP1 POP JUMP JUMPDEST PUSH1 0x0 DUP1 PUSH1 0x0 DUP1 PUSH1 0x80 DUP6 DUP8 SUB SLT ISZERO PUSH2 0x282 JUMPI PUSH1 0x0 DUP1 REVERT JUMPDEST PUSH2 0x28B DUP6 PUSH2 0x250 JUMP JUMPDEST PUSH1 0x20 DUP7 ADD MLOAD PUSH1 0x40 DUP8 ADD MLOAD SWAP2 SWAP6 POP SWAP4 POP SWAP2 POP PUSH2 0x2A8 PUSH1 0x60 DUP7 ADD PUSH2 0x250 JUMP JUMPDEST SWAP1 POP SWAP3 SWAP6 SWAP2 SWAP5 POP SWAP3 POP JUMP JUMPDEST PUSH1 0x80 MLOAD PUSH2 0x1535 PUSH2 0x2F1 PUSH1 0x0 CODECOPY PUSH1 0x0 DUP2 DUP2 PUSH2 0x162 ADD MSTORE DUP2 DUP2 PUSH2 0x52E ADD MSTORE DUP2 DUP2 PUSH2 0x985 ADD MSTORE DUP2 DUP2 PUSH2 0xA5D ADD MSTORE DUP2 DUP2 PUSH2 0xAD6 ADD MSTORE PUSH2 0xD8D ADD MSTORE PUSH2 0x1535 PUSH1 0x0 RETURN INVALID PUSH1 0x80 PUSH1 0x40 MSTORE CALLVALUE DUP1 ISZERO PUSH2 0x10 JUMPI PUSH1 0x0 DUP1 REVERT JUMPDEST POP PUSH1 0x4 CALLDATASIZE LT PUSH2 0x158 JUMPI PUSH1 0x0 CALLDATALOAD PUSH1 0xE0 SHR DUP1 PUSH4 0x741AE614 GT PUSH2 0xC3 JUMPI DUP1 PUSH4 0xC5DAC913 GT PUSH2 0x7C JUMPI DUP1 PUSH4 0xC5DAC913 EQ PUSH2 0x29A JUMPI DUP1 PUSH4 0xE082FE2A EQ PUSH2 0x2AD JUMPI DUP1 PUSH4 0xEA1DD101 EQ PUSH2 0x2B5 JUMPI DUP1 PUSH4 0xF22069DF EQ PUSH2 0x2C8 JUMPI DUP1 PUSH4 0xF2FDE38B EQ PUSH2 0x2D0 JUMPI DUP1 PUSH4 0xF77A953E EQ PUSH2 0x2E3 JUMPI PUSH1 0x0 DUP1 REVERT JUMPDEST DUP1 PUSH4 0x741AE614 EQ PUSH2 0x23B JUMPI DUP1 PUSH4 0x7A0ABF08 EQ PUSH2 0x243 JUMPI DUP1 PUSH4 0x825F98BE EQ PUSH2 0x24C JUMPI DUP1 PUSH4 0x8DA5CB5B EQ PUSH2 0x278 JUMPI DUP1 PUSH4 0xA6A09811 EQ PUSH2 0x289 JUMPI DUP1 PUSH4 0xC3AA9721 EQ PUSH2 0x292 JUMPI PUSH1 0x0 DUP1 REVERT JUMPDEST DUP1 PUSH4 0x627D3EB9 GT PUSH2 0x115 JUMPI DUP1 PUSH4 0x627D3EB9 EQ PUSH2 0x1F5 JUMPI DUP1 PUSH4 0x64BB632F EQ PUSH2 0x1FD JUMPI DUP1 PUSH4 0x6FA1C59D EQ PUSH2 0x210 JUMPI DUP1 PUSH4 0x6FA55ED9 EQ PUSH2 0x218 JUMPI DUP1 PUSH4 0x7069243C EQ PUSH2 0x22B JUMPI DUP1 PUSH4 0x715018A6 EQ PUSH2 0x233 JUMPI PUSH1 0x0 DUP1 REVERT JUMPDEST DUP1 PUSH4 0x1FCCF672 EQ PUSH2 0x15D JUMPI DUP1 PUSH4 0x3960FC66 EQ PUSH2 0x1A1 JUMPI DUP1 PUSH4 0x4074BE40 EQ PUSH2 0x1AB JUMPI DUP1 PUSH4 0x4FC91BA6 EQ PUSH2 0x1C2 JUMPI DUP1 PUSH4 0x528780CC EQ PUSH2 0x1CB JUMPI DUP1 PUSH4 0x5C975ABB EQ PUSH2 0x1DE JUMPI JUMPDEST PUSH1 0x0 DUP1 REVERT JUMPDEST PUSH2 0x184 PUSH32 0x0 DUP2 JUMP JUMPDEST PUSH1 0x40 MLOAD PUSH1 0x1 PUSH1 0x1 PUSH1 0xA0 SHL SUB SWAP1 SWAP2 AND DUP2 MSTORE PUSH1 0x20 ADD JUMPDEST PUSH1 0x40 MLOAD DUP1 SWAP2 SUB SWAP1 RETURN JUMPDEST PUSH2 0x1A9 PUSH2 0x2EB JUMP JUMPDEST STOP JUMPDEST PUSH2 0x1B4 PUSH1 0xA SLOAD DUP2 JUMP JUMPDEST PUSH1 0x40 MLOAD SWAP1 DUP2 MSTORE PUSH1 0x20 ADD PUSH2 0x198 JUMP JUMPDEST PUSH2 0x1B4 PUSH1 0xB SLOAD DUP2 JUMP JUMPDEST PUSH2 0x1A9 PUSH2 0x1D9 CALLDATASIZE PUSH1 0x4 PUSH2 0x1210 JUMP JUMPDEST PUSH2 0x2FD JUMP JUMPDEST PUSH1 0x2 SLOAD PUSH1 0xFF AND JUMPDEST PUSH1 0x40 MLOAD SWAP1 ISZERO ISZERO DUP2 MSTORE PUSH1 0x20 ADD PUSH2 0x198 JUMP JUMPDEST PUSH1 0x9 SLOAD PUSH2 0x1B4 JUMP JUMPDEST PUSH2 0x1A9 PUSH2 0x20B CALLDATASIZE PUSH1 0x4 PUSH2 0x1210 JUMP JUMPDEST PUSH2 0x3B4 JUMP JUMPDEST PUSH1 0x7 SLOAD PUSH2 0x1B4 JUMP JUMPDEST PUSH2 0x1A9 PUSH2 0x226 CALLDATASIZE PUSH1 0x4 PUSH2 0x12FC JUMP JUMPDEST PUSH2 0x44C JUMP JUMPDEST PUSH1 0x6 SLOAD PUSH2 0x1B4 JUMP JUMPDEST PUSH2 0x1A9 PUSH2 0x7AC JUMP JUMPDEST PUSH1 0x8 SLOAD PUSH2 0x1B4 JUMP JUMPDEST PUSH2 0x1B4 PUSH1 0x6 SLOAD DUP2 JUMP JUMPDEST PUSH2 0x1E5 PUSH2 0x25A CALLDATASIZE PUSH1 0x4 PUSH2 0x1393 JUMP JUMPDEST PUSH1 0x1 PUSH1 0x1 PUSH1 0xA0 SHL SUB AND PUSH1 0x0 SWAP1 DUP2 MSTORE PUSH1 0x4 PUSH1 0x20 MSTORE PUSH1 0x40 SWAP1 KECCAK256 SLOAD PUSH1 0xFF AND SWAP1 JUMP JUMPDEST PUSH1 0x0 SLOAD PUSH1 0x1 PUSH1 0x1 PUSH1 0xA0 SHL SUB AND PUSH2 0x184 JUMP JUMPDEST PUSH2 0x1B4 PUSH1 0x7 SLOAD DUP2 JUMP JUMPDEST PUSH1 0xB SLOAD PUSH2 0x1B4 JUMP JUMPDEST PUSH2 0x1E5 PUSH2 0x2A8 CALLDATASIZE PUSH1 0x4 PUSH2 0x13AE JUMP JUMPDEST PUSH2 0x7BE JUMP JUMPDEST PUSH2 0x1A9 PUSH2 0x7E9 JUMP JUMPDEST PUSH2 0x1A9 PUSH2 0x2C3 CALLDATASIZE PUSH1 0x4 PUSH2 0x1393 JUMP JUMPDEST PUSH2 0x7F9 JUMP JUMPDEST PUSH2 0x1A9 PUSH2 0x95D JUMP JUMPDEST PUSH2 0x1A9 PUSH2 0x2DE CALLDATASIZE PUSH1 0x4 PUSH2 0x1393 JUMP JUMPDEST PUSH2 0xBE8 JUMP JUMPDEST PUSH1 0xA SLOAD PUSH2 0x1B4 JUMP JUMPDEST PUSH2 0x2F3 PUSH2 0xC26 JUMP JUMPDEST PUSH2 0x2FB PUSH2 0xC53 JUMP JUMPDEST JUMP JUMPDEST PUSH2 0x305 PUSH2 0xC26 JUMP JUMPDEST DUP1 PUSH1 0x0 SUB PUSH2 0x36B JUMPI PUSH1 0x40 MLOAD PUSH3 0x461BCD PUSH1 0xE5 SHL DUP2 MSTORE PUSH1 0x20 PUSH1 0x4 DUP3 ADD MSTORE PUSH1 0x28 PUSH1 0x24 DUP3 ADD MSTORE PUSH32 0x5A65726F206E756D626572206F6620746172676574207061727469636970616E PUSH1 0x44 DUP3 ADD MSTORE PUSH8 0x3A399033B4BB32B7 PUSH1 0xC1 SHL PUSH1 0x64 DUP3 ADD MSTORE PUSH1 0x84 ADD JUMPDEST PUSH1 0x40 MLOAD DUP1 SWAP2 SUB SWAP1 REVERT JUMPDEST PUSH1 0x7 DUP1 SLOAD SWAP1 DUP3 SWAP1 SSTORE PUSH1 0x40 DUP1 MLOAD DUP3 DUP2 MSTORE PUSH1 0x20 DUP2 ADD DUP5 SWAP1 MSTORE DUP4 SWAP2 PUSH32 0xB90F11D36A1F2EC1F3B89AC87CCD1FFAB1A49F3E3CA83CFDAC21FD99A537CBC1 SWAP2 ADD JUMPDEST PUSH1 0x40 MLOAD DUP1 SWAP2 SUB SWAP1 LOG1 POP POP POP JUMP JUMPDEST PUSH2 0x3BC PUSH2 0xC26 JUMP JUMPDEST DUP1 PUSH1 0x0 SUB PUSH2 0x40C JUMPI PUSH1 0x40 MLOAD PUSH3 0x461BCD PUSH1 0xE5 SHL DUP2 MSTORE PUSH1 0x20 PUSH1 0x4 DUP3 ADD MSTORE PUSH1 0x18 PUSH1 0x24 DUP3 ADD MSTORE PUSH32 0x5A65726F2072657761726420616D6F756E7420676976656E0000000000000000 PUSH1 0x44 DUP3 ADD MSTORE PUSH1 0x64 ADD PUSH2 0x362 JUMP JUMPDEST PUSH1 0x6 DUP1 SLOAD SWAP1 DUP3 SWAP1 SSTORE PUSH1 0x40 DUP1 MLOAD DUP3 DUP2 MSTORE PUSH1 0x20 DUP2 ADD DUP5 SWAP1 MSTORE DUP4 SWAP2 PUSH32 0xF0D37C3AE852021AC329281F604B658691CBFA6B9E9C22909F06B64A8CE87C94 SWAP2 ADD PUSH2 0x3A7 JUMP JUMPDEST PUSH2 0x454 PUSH2 0xCA5 JUMP JUMPDEST PUSH2 0x45C PUSH2 0xCC9 JUMP JUMPDEST DUP4 DUP4 DUP4 DUP4 PUSH2 0x46C DUP5 DUP5 DUP5 DUP5 PUSH2 0xCF3 JUMP JUMPDEST PUSH2 0x4AC JUMPI PUSH1 0x40 MLOAD PUSH3 0x461BCD PUSH1 0xE5 SHL DUP2 MSTORE PUSH1 0x20 PUSH1 0x4 DUP3 ADD MSTORE PUSH1 0x11 PUSH1 0x24 DUP3 ADD MSTORE PUSH17 0x496E76616C6964207369676E6174757265 PUSH1 0x78 SHL PUSH1 0x44 DUP3 ADD MSTORE PUSH1 0x64 ADD PUSH2 0x362 JUMP JUMPDEST DUP5 PUSH1 0x5 DUP2 PUSH1 0x40 MLOAD PUSH2 0x4BD SWAP2 SWAP1 PUSH2 0x140F JUMP JUMPDEST SWAP1 DUP2 MSTORE PUSH1 0x40 MLOAD SWAP1 DUP2 SWAP1 SUB PUSH1 0x20 ADD SWAP1 KECCAK256 SLOAD PUSH1 0xFF AND ISZERO PUSH2 0x516 JUMPI PUSH1 0x40 MLOAD PUSH3 0x461BCD PUSH1 0xE5 SHL DUP2 MSTORE PUSH1 0x20 PUSH1 0x4 DUP3 ADD MSTORE PUSH1 0x16 PUSH1 0x24 DUP3 ADD MSTORE PUSH22 0x14DA59DB985D1D5C9948185B1C9958591E481D5CD959 PUSH1 0x52 SHL PUSH1 0x44 DUP3 ADD MSTORE PUSH1 0x64 ADD PUSH2 0x362 JUMP JUMPDEST PUSH1 0x6 SLOAD PUSH1 0x40 MLOAD PUSH4 0x70A08231 PUSH1 0xE0 SHL DUP2 MSTORE ADDRESS PUSH1 0x4 DUP3 ADD MSTORE PUSH32 0x0 PUSH1 0x1 PUSH1 0x1 PUSH1 0xA0 SHL SUB AND SWAP1 PUSH4 0x70A08231 SWAP1 PUSH1 0x24 ADD PUSH1 0x20 PUSH1 0x40 MLOAD DUP1 DUP4 SUB DUP2 DUP7 GAS STATICCALL ISZERO DUP1 ISZERO PUSH2 0x57D JUMPI RETURNDATASIZE PUSH1 0x0 DUP1 RETURNDATACOPY RETURNDATASIZE PUSH1 0x0 REVERT JUMPDEST POP POP POP POP PUSH1 0x40 MLOAD RETURNDATASIZE PUSH1 0x1F NOT PUSH1 0x1F DUP3 ADD AND DUP3 ADD DUP1 PUSH1 0x40 MSTORE POP DUP2 ADD SWAP1 PUSH2 0x5A1 SWAP2 SWAP1 PUSH2 0x142B JUMP JUMPDEST LT ISZERO PUSH2 0x5FA JUMPI PUSH1 0x40 MLOAD PUSH3 0x461BCD PUSH1 0xE5 SHL DUP2 MSTORE PUSH1 0x20 PUSH1 0x4 DUP3 ADD MSTORE PUSH1 0x22 PUSH1 0x24 DUP3 ADD MSTORE PUSH32 0x436F6E747261637420646F6573206E6F74206861766520656E6F756768206355 PUSH1 0x44 DUP3 ADD MSTORE PUSH2 0x14D1 PUSH1 0xF2 SHL PUSH1 0x64 DUP3 ADD MSTORE PUSH1 0x84 ADD PUSH2 0x362 JUMP JUMPDEST PUSH1 0x7 SLOAD PUSH1 0x8 SLOAD LT PUSH2 0x659 JUMPI PUSH1 0x40 MLOAD PUSH3 0x461BCD PUSH1 0xE5 SHL DUP2 MSTORE PUSH1 0x20 PUSH1 0x4 DUP3 ADD MSTORE PUSH1 0x23 PUSH1 0x24 DUP3 ADD MSTORE PUSH32 0x416C6C207061727469636970616E74732068617665206265656E207265776172 PUSH1 0x44 DUP3 ADD MSTORE PUSH3 0x191959 PUSH1 0xEA SHL PUSH1 0x64 DUP3 ADD MSTORE PUSH1 0x84 ADD PUSH2 0x362 JUMP JUMPDEST DUP9 CALLER PUSH1 0x1 PUSH1 0x1 PUSH1 0xA0 SHL SUB DUP3 AND EQ PUSH2 0x6A6 JUMPI PUSH1 0x40 MLOAD PUSH3 0x461BCD PUSH1 0xE5 SHL DUP2 MSTORE PUSH1 0x20 PUSH1 0x4 DUP3 ADD MSTORE PUSH1 0x11 PUSH1 0x24 DUP3 ADD MSTORE PUSH17 0x27B7363C903B30B634B21039B2B73232B9 PUSH1 0x79 SHL PUSH1 0x44 DUP3 ADD MSTORE PUSH1 0x64 ADD PUSH2 0x362 JUMP JUMPDEST PUSH1 0x1 PUSH1 0x1 PUSH1 0xA0 SHL SUB DUP11 AND PUSH1 0x0 SWAP1 DUP2 MSTORE PUSH1 0x3 PUSH1 0x20 MSTORE PUSH1 0x40 SWAP1 KECCAK256 SLOAD DUP11 SWAP1 PUSH1 0xFF AND ISZERO PUSH2 0x711 JUMPI PUSH1 0x40 MLOAD PUSH3 0x461BCD PUSH1 0xE5 SHL DUP2 MSTORE PUSH1 0x20 PUSH1 0x4 DUP3 ADD MSTORE PUSH1 0x1C PUSH1 0x24 DUP3 ADD MSTORE PUSH32 0x5061727469636970616E7420616C726561647920726577617264656400000000 PUSH1 0x44 DUP3 ADD MSTORE PUSH1 0x64 ADD PUSH2 0x362 JUMP JUMPDEST PUSH1 0x1 PUSH1 0x1 PUSH1 0xA0 SHL SUB DUP12 AND PUSH1 0x0 SWAP1 DUP2 MSTORE PUSH1 0x4 PUSH1 0x20 MSTORE PUSH1 0x40 SWAP1 KECCAK256 SLOAD DUP12 SWAP1 PUSH1 0xFF AND PUSH2 0x76E JUMPI PUSH1 0x40 MLOAD PUSH3 0x461BCD PUSH1 0xE5 SHL DUP2 MSTORE PUSH1 0x20 PUSH1 0x4 DUP3 ADD MSTORE PUSH1 0x10 PUSH1 0x24 DUP3 ADD MSTORE PUSH16 0x135D5CDD081899481CD8DC99595B9959 PUSH1 0x82 SHL PUSH1 0x44 DUP3 ADD MSTORE PUSH1 0x64 ADD PUSH2 0x362 JUMP JUMPDEST PUSH1 0x0 PUSH2 0x779 DUP14 PUSH2 0xD5E JUMP JUMPDEST SWAP1 POP DUP1 ISZERO PUSH2 0x794 JUMPI PUSH2 0x78B DUP11 DUP15 PUSH2 0xE5A JUMP JUMPDEST PUSH2 0x794 DUP14 PUSH2 0xEC5 JUMP JUMPDEST POP POP POP POP POP POP POP POP POP PUSH2 0x7A6 PUSH1 0x1 DUP1 SSTORE JUMP JUMPDEST POP POP POP POP JUMP JUMPDEST PUSH2 0x7B4 PUSH2 0xC26 JUMP JUMPDEST PUSH2 0x2FB PUSH1 0x0 PUSH2 0xF2B JUMP JUMPDEST PUSH1 0x0 PUSH1 0x5 DUP3 PUSH1 0x40 MLOAD PUSH2 0x7D0 SWAP2 SWAP1 PUSH2 0x140F JUMP JUMPDEST SWAP1 DUP2 MSTORE PUSH1 0x40 MLOAD SWAP1 DUP2 SWAP1 SUB PUSH1 0x20 ADD SWAP1 KECCAK256 SLOAD PUSH1 0xFF AND SWAP3 SWAP2 POP POP JUMP JUMPDEST PUSH2 0x7F1 PUSH2 0xC26 JUMP JUMPDEST PUSH2 0x2FB PUSH2 0xF7B JUMP JUMPDEST DUP1 CALLER PUSH1 0x1 PUSH1 0x1 PUSH1 0xA0 SHL SUB DUP3 AND EQ PUSH2 0x846 JUMPI PUSH1 0x40 MLOAD PUSH3 0x461BCD PUSH1 0xE5 SHL DUP2 MSTORE PUSH1 0x20 PUSH1 0x4 DUP3 ADD MSTORE PUSH1 0x11 PUSH1 0x24 DUP3 ADD MSTORE PUSH17 0x27B7363C903B30B634B21039B2B73232B9 PUSH1 0x79 SHL PUSH1 0x44 DUP3 ADD MSTORE PUSH1 0x64 ADD PUSH2 0x362 JUMP JUMPDEST PUSH1 0x1 PUSH1 0x1 PUSH1 0xA0 SHL SUB DUP3 AND PUSH1 0x0 SWAP1 DUP2 MSTORE PUSH1 0x4 PUSH1 0x20 MSTORE PUSH1 0x40 SWAP1 KECCAK256 SLOAD DUP3 SWAP1 PUSH1 0xFF AND ISZERO PUSH2 0x8B1 JUMPI PUSH1 0x40 MLOAD PUSH3 0x461BCD PUSH1 0xE5 SHL DUP2 MSTORE PUSH1 0x20 PUSH1 0x4 DUP3 ADD MSTORE PUSH1 0x17 PUSH1 0x24 DUP3 ADD MSTORE PUSH32 0x4F6E6C7920756E73637265656E65642061646472657373000000000000000000 PUSH1 0x44 DUP3 ADD MSTORE PUSH1 0x64 ADD PUSH2 0x362 JUMP JUMPDEST PUSH1 0x1 PUSH1 0x1 PUSH1 0xA0 SHL SUB DUP4 AND PUSH2 0x8FD JUMPI PUSH1 0x40 MLOAD PUSH3 0x461BCD PUSH1 0xE5 SHL DUP2 MSTORE PUSH1 0x20 PUSH1 0x4 DUP3 ADD MSTORE PUSH1 0x13 PUSH1 0x24 DUP3 ADD MSTORE PUSH19 0x16995C9BC81859191C995CDCC81C185CDCD959 PUSH1 0x6A SHL PUSH1 0x44 DUP3 ADD MSTORE PUSH1 0x64 ADD PUSH2 0x362 JUMP JUMPDEST PUSH1 0x1 PUSH1 0x1 PUSH1 0xA0 SHL SUB DUP4 AND PUSH1 0x0 DUP2 DUP2 MSTORE PUSH1 0x4 PUSH1 0x20 SWAP1 DUP2 MSTORE PUSH1 0x40 SWAP2 DUP3 SWAP1 KECCAK256 DUP1 SLOAD PUSH1 0xFF NOT AND PUSH1 0x1 SWAP1 DUP2 OR SWAP1 SWAP2 SSTORE PUSH1 0xA DUP1 SLOAD SWAP1 SWAP2 ADD SWAP1 SSTORE SWAP1 MLOAD SWAP2 DUP3 MSTORE PUSH32 0xC4EC7A2DC5E72D17666A15570E438638BFC023A7A091DF162B669C37198BACB2 SWAP2 ADD PUSH2 0x3A7 JUMP JUMPDEST PUSH2 0x965 PUSH2 0xC26 JUMP JUMPDEST PUSH2 0x96D PUSH2 0xCA5 JUMP JUMPDEST PUSH1 0x40 MLOAD PUSH4 0x70A08231 PUSH1 0xE0 SHL DUP2 MSTORE ADDRESS PUSH1 0x4 DUP3 ADD MSTORE PUSH1 0x0 SWAP1 PUSH32 0x0 PUSH1 0x1 PUSH1 0x1 PUSH1 0xA0 SHL SUB AND SWAP1 PUSH4 0x70A08231 SWAP1 PUSH1 0x24 ADD PUSH1 0x20 PUSH1 0x40 MLOAD DUP1 DUP4 SUB DUP2 DUP7 GAS STATICCALL ISZERO DUP1 ISZERO PUSH2 0x9D4 JUMPI RETURNDATASIZE PUSH1 0x0 DUP1 RETURNDATACOPY RETURNDATASIZE PUSH1 0x0 REVERT JUMPDEST POP POP POP POP PUSH1 0x40 MLOAD RETURNDATASIZE PUSH1 0x1F NOT PUSH1 0x1F DUP3 ADD AND DUP3 ADD DUP1 PUSH1 0x40 MSTORE POP DUP2 ADD SWAP1 PUSH2 0x9F8 SWAP2 SWAP1 PUSH2 0x142B JUMP JUMPDEST GT PUSH2 0xA45 JUMPI PUSH1 0x40 MLOAD PUSH3 0x461BCD PUSH1 0xE5 SHL DUP2 MSTORE PUSH1 0x20 PUSH1 0x4 DUP3 ADD MSTORE PUSH1 0x1F PUSH1 0x24 DUP3 ADD MSTORE PUSH32 0x436F6E747261637420646F6573206E6F74206861766520616E79206355534400 PUSH1 0x44 DUP3 ADD MSTORE PUSH1 0x64 ADD PUSH2 0x362 JUMP JUMPDEST PUSH1 0x40 MLOAD PUSH4 0x70A08231 PUSH1 0xE0 SHL DUP2 MSTORE ADDRESS PUSH1 0x4 DUP3 ADD MSTORE PUSH1 0x0 SWAP1 PUSH32 0x0 PUSH1 0x1 PUSH1 0x1 PUSH1 0xA0 SHL SUB AND SWAP1 PUSH4 0x70A08231 SWAP1 PUSH1 0x24 ADD PUSH1 0x20 PUSH1 0x40 MLOAD DUP1 DUP4 SUB DUP2 DUP7 GAS STATICCALL ISZERO DUP1 ISZERO PUSH2 0xAAC JUMPI RETURNDATASIZE PUSH1 0x0 DUP1 RETURNDATACOPY RETURNDATASIZE PUSH1 0x0 REVERT JUMPDEST POP POP POP POP PUSH1 0x40 MLOAD RETURNDATASIZE PUSH1 0x1F NOT PUSH1 0x1F DUP3 ADD AND DUP3 ADD DUP1 PUSH1 0x40 MSTORE POP DUP2 ADD SWAP1 PUSH2 0xAD0 SWAP2 SWAP1 PUSH2 0x142B JUMP JUMPDEST SWAP1 POP PUSH1 0x0 PUSH32 0x0 PUSH1 0x1 PUSH1 0x1 PUSH1 0xA0 SHL SUB AND PUSH4 0xA9059CBB PUSH2 0xB15 PUSH1 0x0 SLOAD PUSH1 0x1 PUSH1 0x1 PUSH1 0xA0 SHL SUB AND SWAP1 JUMP JUMPDEST PUSH1 0x40 MLOAD PUSH1 0x1 PUSH1 0x1 PUSH1 0xE0 SHL SUB NOT PUSH1 0xE0 DUP5 SWAP1 SHL AND DUP2 MSTORE PUSH1 0x1 PUSH1 0x1 PUSH1 0xA0 SHL SUB SWAP1 SWAP2 AND PUSH1 0x4 DUP3 ADD MSTORE PUSH1 0x24 DUP2 ADD DUP6 SWAP1 MSTORE PUSH1 0x44 ADD PUSH1 0x20 PUSH1 0x40 MLOAD DUP1 DUP4 SUB DUP2 PUSH1 0x0 DUP8 GAS CALL ISZERO DUP1 ISZERO PUSH2 0xB62 JUMPI RETURNDATASIZE PUSH1 0x0 DUP1 RETURNDATACOPY RETURNDATASIZE PUSH1 0x0 REVERT JUMPDEST POP POP POP POP PUSH1 0x40 MLOAD RETURNDATASIZE PUSH1 0x1F NOT PUSH1 0x1F DUP3 ADD AND DUP3 ADD DUP1 PUSH1 0x40 MSTORE POP DUP2 ADD SWAP1 PUSH2 0xB86 SWAP2 SWAP1 PUSH2 0x1444 JUMP JUMPDEST SWAP1 POP DUP1 ISZERO PUSH2 0xBE4 JUMPI PUSH32 0x2036B9B38B69A2FA490EE702733A29CD2550ACCC20BC96E786CB9BEEDC779097 PUSH2 0xBC1 PUSH1 0x0 SLOAD PUSH1 0x1 PUSH1 0x1 PUSH1 0xA0 SHL SUB AND SWAP1 JUMP JUMPDEST PUSH1 0x40 DUP1 MLOAD PUSH1 0x1 PUSH1 0x1 PUSH1 0xA0 SHL SUB SWAP1 SWAP3 AND DUP3 MSTORE PUSH1 0x20 DUP3 ADD DUP6 SWAP1 MSTORE ADD JUMPDEST PUSH1 0x40 MLOAD DUP1 SWAP2 SUB SWAP1 LOG1 JUMPDEST POP POP JUMP JUMPDEST PUSH2 0xBF0 PUSH2 0xC26 JUMP JUMPDEST PUSH1 0x1 PUSH1 0x1 PUSH1 0xA0 SHL SUB DUP2 AND PUSH2 0xC1A JUMPI PUSH1 0x40 MLOAD PUSH4 0x1E4FBDF7 PUSH1 0xE0 SHL DUP2 MSTORE PUSH1 0x0 PUSH1 0x4 DUP3 ADD MSTORE PUSH1 0x24 ADD PUSH2 0x362 JUMP JUMPDEST PUSH2 0xC23 DUP2 PUSH2 0xF2B JUMP JUMPDEST POP JUMP JUMPDEST PUSH1 0x0 SLOAD PUSH1 0x1 PUSH1 0x1 PUSH1 0xA0 SHL SUB AND CALLER EQ PUSH2 0x2FB JUMPI PUSH1 0x40 MLOAD PUSH4 0x118CDAA7 PUSH1 0xE0 SHL DUP2 MSTORE CALLER PUSH1 0x4 DUP3 ADD MSTORE PUSH1 0x24 ADD PUSH2 0x362 JUMP JUMPDEST PUSH2 0xC5B PUSH2 0xFB8 JUMP JUMPDEST PUSH1 0x2 DUP1 SLOAD PUSH1 0xFF NOT AND SWAP1 SSTORE PUSH32 0x5DB9EE0A495BF2E6FF9C91A7834C1BA4FDD244A5E8AA4E537BD38AEAE4B073AA CALLER JUMPDEST PUSH1 0x40 MLOAD PUSH1 0x1 PUSH1 0x1 PUSH1 0xA0 SHL SUB SWAP1 SWAP2 AND DUP2 MSTORE PUSH1 0x20 ADD PUSH1 0x40 MLOAD DUP1 SWAP2 SUB SWAP1 LOG1 JUMP JUMPDEST PUSH1 0x2 SLOAD PUSH1 0xFF AND ISZERO PUSH2 0x2FB JUMPI PUSH1 0x40 MLOAD PUSH4 0xD93C0665 PUSH1 0xE0 SHL DUP2 MSTORE PUSH1 0x4 ADD PUSH1 0x40 MLOAD DUP1 SWAP2 SUB SWAP1 REVERT JUMPDEST PUSH1 0x2 PUSH1 0x1 SLOAD SUB PUSH2 0xCEC JUMPI PUSH1 0x40 MLOAD PUSH4 0x3EE5AEB5 PUSH1 0xE0 SHL DUP2 MSTORE PUSH1 0x4 ADD PUSH1 0x40 MLOAD DUP1 SWAP2 SUB SWAP1 REVERT JUMPDEST PUSH1 0x2 PUSH1 0x1 SSTORE JUMP JUMPDEST PUSH1 0x0 DUP1 PUSH2 0xD01 DUP7 DUP7 DUP7 PUSH2 0xFDB JUMP JUMPDEST PUSH32 0x19457468657265756D205369676E6564204D6573736167653A0A333200000000 PUSH1 0x0 SWAP1 DUP2 MSTORE PUSH1 0x1C DUP3 SWAP1 MSTORE PUSH1 0x3C DUP2 KECCAK256 SWAP1 SLOAD SWAP2 SWAP3 POP SWAP1 PUSH1 0x1 PUSH1 0x1 PUSH1 0xA0 SHL SUB AND PUSH2 0xD49 DUP3 DUP7 PUSH2 0x1011 JUMP JUMPDEST PUSH1 0x1 PUSH1 0x1 PUSH1 0xA0 SHL SUB AND EQ SWAP8 SWAP7 POP POP POP POP POP POP POP JUMP JUMPDEST PUSH1 0x6 SLOAD PUSH1 0x40 MLOAD PUSH4 0xA9059CBB PUSH1 0xE0 SHL DUP2 MSTORE PUSH1 0x1 PUSH1 0x1 PUSH1 0xA0 SHL SUB DUP4 DUP2 AND PUSH1 0x4 DUP4 ADD MSTORE PUSH1 0x24 DUP3 ADD SWAP3 SWAP1 SWAP3 MSTORE PUSH1 0x0 SWAP2 DUP3 SWAP2 PUSH32 0x0 SWAP1 SWAP2 AND SWAP1 PUSH4 0xA9059CBB SWAP1 PUSH1 0x44 ADD PUSH1 0x20 PUSH1 0x40 MLOAD DUP1 DUP4 SUB DUP2 PUSH1 0x0 DUP8 GAS CALL ISZERO DUP1 ISZERO PUSH2 0xDD8 JUMPI RETURNDATASIZE PUSH1 0x0 DUP1 RETURNDATACOPY RETURNDATASIZE PUSH1 0x0 REVERT JUMPDEST POP POP POP POP PUSH1 0x40 MLOAD RETURNDATASIZE PUSH1 0x1F NOT PUSH1 0x1F DUP3 ADD AND DUP3 ADD DUP1 PUSH1 0x40 MSTORE POP DUP2 ADD SWAP1 PUSH2 0xDFC SWAP2 SWAP1 PUSH2 0x1444 JUMP JUMPDEST SWAP1 POP DUP1 ISZERO PUSH2 0xE54 JUMPI PUSH1 0x8 DUP1 SLOAD PUSH1 0x1 ADD SWAP1 SSTORE PUSH1 0x6 SLOAD PUSH1 0x40 DUP1 MLOAD PUSH1 0x1 PUSH1 0x1 PUSH1 0xA0 SHL SUB DUP7 AND DUP2 MSTORE PUSH1 0x20 DUP2 ADD SWAP3 SWAP1 SWAP3 MSTORE PUSH32 0x8934D7A9692E763E356FD30D84CA5F61A737B35C5CCD5D31D4F140310267B73E SWAP2 ADD PUSH1 0x40 MLOAD DUP1 SWAP2 SUB SWAP1 LOG1 JUMPDEST SWAP3 SWAP2 POP POP JUMP JUMPDEST PUSH1 0x1 PUSH1 0x5 DUP4 PUSH1 0x40 MLOAD PUSH2 0xE6C SWAP2 SWAP1 PUSH2 0x140F JUMP JUMPDEST SWAP1 DUP2 MSTORE PUSH1 0x40 MLOAD SWAP1 DUP2 SWAP1 SUB PUSH1 0x20 ADD DUP2 KECCAK256 DUP1 SLOAD SWAP3 ISZERO ISZERO PUSH1 0xFF NOT SWAP1 SWAP4 AND SWAP3 SWAP1 SWAP3 OR SWAP1 SWAP2 SSTORE PUSH1 0xB DUP1 SLOAD PUSH1 0x1 ADD SWAP1 SSTORE PUSH32 0x97FB84D3F0D20B64A0A8E52541408B0155BA98FEA88E66283156F306D04B08B8 SWAP1 PUSH2 0xBDB SWAP1 DUP5 SWAP1 DUP5 SWAP1 PUSH2 0x1466 JUMP JUMPDEST PUSH1 0x1 PUSH1 0x1 PUSH1 0xA0 SHL SUB DUP2 AND PUSH1 0x0 DUP2 DUP2 MSTORE PUSH1 0x3 PUSH1 0x20 SWAP1 DUP2 MSTORE PUSH1 0x40 SWAP2 DUP3 SWAP1 KECCAK256 DUP1 SLOAD PUSH1 0xFF NOT AND PUSH1 0x1 SWAP1 DUP2 OR SWAP1 SWAP2 SSTORE PUSH1 0x9 DUP1 SLOAD SWAP1 SWAP2 ADD SWAP1 SSTORE SWAP1 MLOAD SWAP2 DUP3 MSTORE PUSH32 0x654C9A027765E6FEB862F42D438E9F6948F9EE31113E379F0372B30EFC722943 SWAP2 ADD PUSH1 0x40 MLOAD DUP1 SWAP2 SUB SWAP1 LOG1 POP JUMP JUMPDEST PUSH1 0x0 DUP1 SLOAD PUSH1 0x1 PUSH1 0x1 PUSH1 0xA0 SHL SUB DUP4 DUP2 AND PUSH1 0x1 PUSH1 0x1 PUSH1 0xA0 SHL SUB NOT DUP4 AND DUP2 OR DUP5 SSTORE PUSH1 0x40 MLOAD SWAP2 SWAP1 SWAP3 AND SWAP3 DUP4 SWAP2 PUSH32 0x8BE0079C531659141344CD1FD0A4F28419497F9722A3DAAFE3B4186F6B6457E0 SWAP2 SWAP1 LOG3 POP POP JUMP JUMPDEST PUSH2 0xF83 PUSH2 0xCA5 JUMP JUMPDEST PUSH1 0x2 DUP1 SLOAD PUSH1 0xFF NOT AND PUSH1 0x1 OR SWAP1 SSTORE PUSH32 0x62E78CEA01BEE320CD4E420270B5EA74000D11B0C9F74754EBDBFC544B05A258 PUSH2 0xC88 CALLER SWAP1 JUMP JUMPDEST PUSH1 0x2 SLOAD PUSH1 0xFF AND PUSH2 0x2FB JUMPI PUSH1 0x40 MLOAD PUSH4 0x8DFC202B PUSH1 0xE0 SHL DUP2 MSTORE PUSH1 0x4 ADD PUSH1 0x40 MLOAD DUP1 SWAP2 SUB SWAP1 REVERT JUMPDEST PUSH1 0x0 DUP4 DUP4 DUP4 PUSH1 0x40 MLOAD PUSH1 0x20 ADD PUSH2 0xFF2 SWAP4 SWAP3 SWAP2 SWAP1 PUSH2 0x14AA JUMP JUMPDEST PUSH1 0x40 MLOAD PUSH1 0x20 DUP2 DUP4 SUB SUB DUP2 MSTORE SWAP1 PUSH1 0x40 MSTORE DUP1 MLOAD SWAP1 PUSH1 0x20 ADD KECCAK256 SWAP1 POP SWAP4 SWAP3 POP POP POP JUMP JUMPDEST PUSH1 0x0 DUP1 PUSH1 0x0 DUP1 PUSH2 0x1021 DUP7 DUP7 PUSH2 0x103B JUMP JUMPDEST SWAP3 POP SWAP3 POP SWAP3 POP PUSH2 0x1031 DUP3 DUP3 PUSH2 0x1088 JUMP JUMPDEST POP SWAP1 SWAP5 SWAP4 POP POP POP POP JUMP JUMPDEST PUSH1 0x0 DUP1 PUSH1 0x0 DUP4 MLOAD PUSH1 0x41 SUB PUSH2 0x1075 JUMPI PUSH1 0x20 DUP5 ADD MLOAD PUSH1 0x40 DUP6 ADD MLOAD PUSH1 0x60 DUP7 ADD MLOAD PUSH1 0x0 BYTE PUSH2 0x1067 DUP9 DUP3 DUP6 DUP6 PUSH2 0x1141 JUMP JUMPDEST SWAP6 POP SWAP6 POP SWAP6 POP POP POP POP PUSH2 0x1081 JUMP JUMPDEST POP POP DUP2 MLOAD PUSH1 0x0 SWAP2 POP PUSH1 0x2 SWAP1 JUMPDEST SWAP3 POP SWAP3 POP SWAP3 JUMP JUMPDEST PUSH1 0x0 DUP3 PUSH1 0x3 DUP2 GT ISZERO PUSH2 0x109C JUMPI PUSH2 0x109C PUSH2 0x14E9 JUMP JUMPDEST SUB PUSH2 0x10A5 JUMPI POP POP JUMP JUMPDEST PUSH1 0x1 DUP3 PUSH1 0x3 DUP2 GT ISZERO PUSH2 0x10B9 JUMPI PUSH2 0x10B9 PUSH2 0x14E9 JUMP JUMPDEST SUB PUSH2 0x10D7 JUMPI PUSH1 0x40 MLOAD PUSH4 0xF645EEDF PUSH1 0xE0 SHL DUP2 MSTORE PUSH1 0x4 ADD PUSH1 0x40 MLOAD DUP1 SWAP2 SUB SWAP1 REVERT JUMPDEST PUSH1 0x2 DUP3 PUSH1 0x3 DUP2 GT ISZERO PUSH2 0x10EB JUMPI PUSH2 0x10EB PUSH2 0x14E9 JUMP JUMPDEST SUB PUSH2 0x110C JUMPI PUSH1 0x40 MLOAD PUSH4 0xFCE698F7 PUSH1 0xE0 SHL DUP2 MSTORE PUSH1 0x4 DUP2 ADD DUP3 SWAP1 MSTORE PUSH1 0x24 ADD PUSH2 0x362 JUMP JUMPDEST PUSH1 0x3 DUP3 PUSH1 0x3 DUP2 GT ISZERO PUSH2 0x1120 JUMPI PUSH2 0x1120 PUSH2 0x14E9 JUMP JUMPDEST SUB PUSH2 0xBE4 JUMPI PUSH1 0x40 MLOAD PUSH4 0x35E2F383 PUSH1 0xE2 SHL DUP2 MSTORE PUSH1 0x4 DUP2 ADD DUP3 SWAP1 MSTORE PUSH1 0x24 ADD PUSH2 0x362 JUMP JUMPDEST PUSH1 0x0 DUP1 DUP1 PUSH32 0x7FFFFFFFFFFFFFFFFFFFFFFFFFFFFFFF5D576E7357A4501DDFE92F46681B20A0 DUP5 GT ISZERO PUSH2 0x117C JUMPI POP PUSH1 0x0 SWAP2 POP PUSH1 0x3 SWAP1 POP DUP3 PUSH2 0x1206 JUMP JUMPDEST PUSH1 0x40 DUP1 MLOAD PUSH1 0x0 DUP1 DUP3 MSTORE PUSH1 0x20 DUP3 ADD DUP1 DUP5 MSTORE DUP11 SWAP1 MSTORE PUSH1 0xFF DUP10 AND SWAP3 DUP3 ADD SWAP3 SWAP1 SWAP3 MSTORE PUSH1 0x60 DUP2 ADD DUP8 SWAP1 MSTORE PUSH1 0x80 DUP2 ADD DUP7 SWAP1 MSTORE PUSH1 0x1 SWAP1 PUSH1 0xA0 ADD PUSH1 0x20 PUSH1 0x40 MLOAD PUSH1 0x20 DUP2 SUB SWAP1 DUP1 DUP5 SUB SWAP1 DUP6 GAS STATICCALL ISZERO DUP1 ISZERO PUSH2 0x11D0 JUMPI RETURNDATASIZE PUSH1 0x0 DUP1 RETURNDATACOPY RETURNDATASIZE PUSH1 0x0 REVERT JUMPDEST POP POP PUSH1 0x40 MLOAD PUSH1 0x1F NOT ADD MLOAD SWAP2 POP POP PUSH1 0x1 PUSH1 0x1 PUSH1 0xA0 SHL SUB DUP2 AND PUSH2 0x11FC JUMPI POP PUSH1 0x0 SWAP3 POP PUSH1 0x1 SWAP2 POP DUP3 SWAP1 POP PUSH2 0x1206 JUMP JUMPDEST SWAP3 POP PUSH1 0x0 SWAP2 POP DUP2 SWAP1 POP JUMPDEST SWAP5 POP SWAP5 POP SWAP5 SWAP2 POP POP JUMP JUMPDEST PUSH1 0x0 PUSH1 0x20 DUP3 DUP5 SUB SLT ISZERO PUSH2 0x1222 JUMPI PUSH1 0x0 DUP1 REVERT JUMPDEST POP CALLDATALOAD SWAP2 SWAP1 POP JUMP JUMPDEST DUP1 CALLDATALOAD PUSH1 0x1 PUSH1 0x1 PUSH1 0xA0 SHL SUB DUP2 AND DUP2 EQ PUSH2 0x1240 JUMPI PUSH1 0x0 DUP1 REVERT JUMPDEST SWAP2 SWAP1 POP JUMP JUMPDEST PUSH4 0x4E487B71 PUSH1 0xE0 SHL PUSH1 0x0 MSTORE PUSH1 0x41 PUSH1 0x4 MSTORE PUSH1 0x24 PUSH1 0x0 REVERT JUMPDEST PUSH1 0x0 DUP1 PUSH8 0xFFFFFFFFFFFFFFFF DUP5 GT ISZERO PUSH2 0x1276 JUMPI PUSH2 0x1276 PUSH2 0x1245 JUMP JUMPDEST POP PUSH1 0x40 MLOAD PUSH1 0x1F NOT PUSH1 0x1F DUP6 ADD DUP2 AND PUSH1 0x3F ADD AND DUP2 ADD DUP2 DUP2 LT PUSH8 0xFFFFFFFFFFFFFFFF DUP3 GT OR ISZERO PUSH2 0x12A5 JUMPI PUSH2 0x12A5 PUSH2 0x1245 JUMP JUMPDEST PUSH1 0x40 MSTORE DUP4 DUP2 MSTORE SWAP1 POP DUP1 DUP3 DUP5 ADD DUP6 LT ISZERO PUSH2 0x12BD JUMPI PUSH1 0x0 DUP1 REVERT JUMPDEST DUP4 DUP4 PUSH1 0x20 DUP4 ADD CALLDATACOPY PUSH1 0x0 PUSH1 0x20 DUP6 DUP4 ADD ADD MSTORE POP SWAP4 SWAP3 POP POP POP JUMP JUMPDEST PUSH1 0x0 DUP3 PUSH1 0x1F DUP4 ADD SLT PUSH2 0x12E6 JUMPI PUSH1 0x0 DUP1 REVERT JUMPDEST PUSH2 0x12F5 DUP4 DUP4 CALLDATALOAD PUSH1 0x20 DUP6 ADD PUSH2 0x125B JUMP JUMPDEST SWAP4 SWAP3 POP POP POP JUMP JUMPDEST PUSH1 0x0 DUP1 PUSH1 0x0 DUP1 PUSH1 0x80 DUP6 DUP8 SUB SLT ISZERO PUSH2 0x1312 JUMPI PUSH1 0x0 DUP1 REVERT JUMPDEST PUSH2 0x131B DUP6 PUSH2 0x1229 JUMP JUMPDEST SWAP4 POP PUSH1 0x20 DUP6 ADD CALLDATALOAD PUSH8 0xFFFFFFFFFFFFFFFF DUP2 GT ISZERO PUSH2 0x1337 JUMPI PUSH1 0x0 DUP1 REVERT JUMPDEST DUP6 ADD PUSH1 0x1F DUP2 ADD DUP8 SGT PUSH2 0x1348 JUMPI PUSH1 0x0 DUP1 REVERT JUMPDEST PUSH2 0x1357 DUP8 DUP3 CALLDATALOAD PUSH1 0x20 DUP5 ADD PUSH2 0x125B JUMP JUMPDEST SWAP4 POP POP PUSH1 0x40 DUP6 ADD CALLDATALOAD SWAP2 POP PUSH1 0x60 DUP6 ADD CALLDATALOAD PUSH8 0xFFFFFFFFFFFFFFFF DUP2 GT ISZERO PUSH2 0x137B JUMPI PUSH1 0x0 DUP1 REVERT JUMPDEST PUSH2 0x1387 DUP8 DUP3 DUP9 ADD PUSH2 0x12D5 JUMP JUMPDEST SWAP2 POP POP SWAP3 SWAP6 SWAP2 SWAP5 POP SWAP3 POP JUMP JUMPDEST PUSH1 0x0 PUSH1 0x20 DUP3 DUP5 SUB SLT ISZERO PUSH2 0x13A5 JUMPI PUSH1 0x0 DUP1 REVERT JUMPDEST PUSH2 0x12F5 DUP3 PUSH2 0x1229 JUMP JUMPDEST PUSH1 0x0 PUSH1 0x20 DUP3 DUP5 SUB SLT ISZERO PUSH2 0x13C0 JUMPI PUSH1 0x0 DUP1 REVERT JUMPDEST DUP2 CALLDATALOAD PUSH8 0xFFFFFFFFFFFFFFFF DUP2 GT ISZERO PUSH2 0x13D7 JUMPI PUSH1 0x0 DUP1 REVERT JUMPDEST PUSH2 0x13E3 DUP5 DUP3 DUP6 ADD PUSH2 0x12D5 JUMP JUMPDEST SWAP5 SWAP4 POP POP POP POP JUMP JUMPDEST PUSH1 0x0 JUMPDEST DUP4 DUP2 LT ISZERO PUSH2 0x1406 JUMPI DUP2 DUP2 ADD MLOAD DUP4 DUP3 ADD MSTORE PUSH1 0x20 ADD PUSH2 0x13EE JUMP JUMPDEST POP POP PUSH1 0x0 SWAP2 ADD MSTORE JUMP JUMPDEST PUSH1 0x0 DUP3 MLOAD PUSH2 0x1421 DUP2 DUP5 PUSH1 0x20 DUP8 ADD PUSH2 0x13EB JUMP JUMPDEST SWAP2 SWAP1 SWAP2 ADD SWAP3 SWAP2 POP POP JUMP JUMPDEST PUSH1 0x0 PUSH1 0x20 DUP3 DUP5 SUB SLT ISZERO PUSH2 0x143D JUMPI PUSH1 0x0 DUP1 REVERT JUMPDEST POP MLOAD SWAP2 SWAP1 POP JUMP JUMPDEST PUSH1 0x0 PUSH1 0x20 DUP3 DUP5 SUB SLT ISZERO PUSH2 0x1456 JUMPI PUSH1 0x0 DUP1 REVERT JUMPDEST DUP2 MLOAD DUP1 ISZERO ISZERO DUP2 EQ PUSH2 0x12F5 JUMPI PUSH1 0x0 DUP1 REVERT JUMPDEST PUSH1 0x40 DUP2 MSTORE PUSH1 0x0 DUP4 MLOAD DUP1 PUSH1 0x40 DUP5 ADD MSTORE PUSH2 0x1485 DUP2 PUSH1 0x60 DUP6 ADD PUSH1 0x20 DUP9 ADD PUSH2 0x13EB JUMP JUMPDEST PUSH1 0x1 PUSH1 0x1 PUSH1 0xA0 SHL SUB SWAP4 SWAP1 SWAP4 AND PUSH1 0x20 DUP4 ADD MSTORE POP PUSH1 0x1F SWAP2 SWAP1 SWAP2 ADD PUSH1 0x1F NOT AND ADD PUSH1 0x60 ADD SWAP2 SWAP1 POP JUMP JUMPDEST PUSH12 0xFFFFFFFFFFFFFFFFFFFFFFFF NOT DUP5 PUSH1 0x60 SHL AND DUP2 MSTORE PUSH1 0x0 DUP4 MLOAD PUSH2 0x14D4 DUP2 PUSH1 0x14 DUP6 ADD PUSH1 0x20 DUP9 ADD PUSH2 0x13EB JUMP JUMPDEST PUSH1 0x14 SWAP3 ADD SWAP2 DUP3 ADD SWAP3 SWAP1 SWAP3 MSTORE PUSH1 0x34 ADD SWAP4 SWAP3 POP POP POP JUMP JUMPDEST PUSH4 0x4E487B71 PUSH1 0xE0 SHL PUSH1 0x0 MSTORE PUSH1 0x21 PUSH1 0x4 MSTORE PUSH1 0x24 PUSH1 0x0 REVERT INVALID LOG2 PUSH5 0x6970667358 0x22 SLT KECCAK256 0xAA ADD PUSH24 0xB810EBA01CD0904D6151CAD5A4346956B7127D19491DA2BB 0xBC 0xD4 0xE6 0xD ADDRESS PUSH5 0x736F6C6343 STOP ADDMOD SHR STOP CALLER "
				},
				"gasEstimates": {
					"creation": {
						"codeDepositCost": "1085800",
						"executionCost": "infinite",
						"totalCost": "infinite"
					},
					"external": {
						"cUSD()": "infinite",
						"checkIfParticipantIsScreened(address)": "2616",
						"checkIfSignatureIsUsed(bytes)": "infinite",
						"getNumberOfClaimedRewards()": "2315",
						"getNumberOfRewardedParticipants()": "2315",
						"getNumberOfScreenedParticipants()": "2424",
						"getNumberOfUsedSignatures()": "2425",
						"getRewardAmountPerParticipantInWei()": "2403",
						"getTargetNumberOfParticipants()": "2359",
						"numberOfScreenedParticipants()": "2363",
						"numberOfUsedSignatures()": "2385",
						"owner()": "2409",
						"pauseSurvey()": "infinite",
						"paused()": "2427",
						"processRewardClaimByParticipant(address,string,uint256,bytes)": "infinite",
						"renounceOwnership()": "infinite",
						"rewardAmountPerParticipantInWei()": "2340",
						"screenParticipant(address)": "52287",
						"targetNumberOfParticipants()": "2406",
						"transferOwnership(address)": "28443",
						"unpauseSurvey()": "infinite",
						"updateRewardAmountPerParticipant(uint256)": "28026",
						"updateTargetNumberOfParticipants(uint256)": "28082",
						"withdrawAllRewardFundsToResearcher()": "infinite"
					},
					"internal": {
						"getMessageHash(address,string memory,uint256)": "infinite",
						"markParticipantAsHavingClaimedReward(address)": "infinite",
						"markSignatureAsHavingBeenUsed(bytes memory,address)": "infinite",
						"rewardParticipant(address)": "infinite",
						"verifySignature(address,string memory,uint256,bytes memory)": "infinite"
					}
				},
				"methodIdentifiers": {
					"cUSD()": "1fccf672",
					"checkIfParticipantIsScreened(address)": "825f98be",
					"checkIfSignatureIsUsed(bytes)": "c5dac913",
					"getNumberOfClaimedRewards()": "627d3eb9",
					"getNumberOfRewardedParticipants()": "741ae614",
					"getNumberOfScreenedParticipants()": "f77a953e",
					"getNumberOfUsedSignatures()": "c3aa9721",
					"getRewardAmountPerParticipantInWei()": "7069243c",
					"getTargetNumberOfParticipants()": "6fa1c59d",
					"numberOfScreenedParticipants()": "4074be40",
					"numberOfUsedSignatures()": "4fc91ba6",
					"owner()": "8da5cb5b",
					"pauseSurvey()": "e082fe2a",
					"paused()": "5c975abb",
					"processRewardClaimByParticipant(address,string,uint256,bytes)": "6fa55ed9",
					"renounceOwnership()": "715018a6",
					"rewardAmountPerParticipantInWei()": "7a0abf08",
					"screenParticipant(address)": "ea1dd101",
					"targetNumberOfParticipants()": "a6a09811",
					"transferOwnership(address)": "f2fde38b",
					"unpauseSurvey()": "3960fc66",
					"updateRewardAmountPerParticipant(uint256)": "64bb632f",
					"updateTargetNumberOfParticipants(uint256)": "528780cc",
					"withdrawAllRewardFundsToResearcher()": "f22069df"
				}
			},
			"storageLayout": {
				"storage": [
					{
						"astId": 8,
						"contract": "smart-contract/hardhat/contracts/ClosedSurveyV4.sol:ClosedSurveyV4",
						"label": "_owner",
						"offset": 0,
						"slot": "0",
						"type": "t_address"
					},
					{
						"astId": 461,
						"contract": "smart-contract/hardhat/contracts/ClosedSurveyV4.sol:ClosedSurveyV4",
						"label": "_status",
						"offset": 0,
						"slot": "1",
						"type": "t_uint256"
					},
					{
						"astId": 342,
						"contract": "smart-contract/hardhat/contracts/ClosedSurveyV4.sol:ClosedSurveyV4",
						"label": "_paused",
						"offset": 0,
						"slot": "2",
						"type": "t_bool"
					},
					{
						"astId": 4803,
						"contract": "smart-contract/hardhat/contracts/ClosedSurveyV4.sol:ClosedSurveyV4",
						"label": "rewardedParticipants",
						"offset": 0,
						"slot": "3",
						"type": "t_mapping(t_address,t_bool)"
					},
					{
						"astId": 4808,
						"contract": "smart-contract/hardhat/contracts/ClosedSurveyV4.sol:ClosedSurveyV4",
						"label": "participantsScreenedForSurvey",
						"offset": 0,
						"slot": "4",
						"type": "t_mapping(t_address,t_bool)"
					},
					{
						"astId": 4813,
						"contract": "smart-contract/hardhat/contracts/ClosedSurveyV4.sol:ClosedSurveyV4",
						"label": "signaturesUsedForClaiming",
						"offset": 0,
						"slot": "5",
						"type": "t_mapping(t_bytes_memory_ptr,t_bool)"
					},
					{
						"astId": 4816,
						"contract": "smart-contract/hardhat/contracts/ClosedSurveyV4.sol:ClosedSurveyV4",
						"label": "rewardAmountPerParticipantInWei",
						"offset": 0,
						"slot": "6",
						"type": "t_uint256"
					},
					{
						"astId": 4819,
						"contract": "smart-contract/hardhat/contracts/ClosedSurveyV4.sol:ClosedSurveyV4",
						"label": "targetNumberOfParticipants",
						"offset": 0,
						"slot": "7",
						"type": "t_uint256"
					},
					{
						"astId": 4822,
						"contract": "smart-contract/hardhat/contracts/ClosedSurveyV4.sol:ClosedSurveyV4",
						"label": "numberOfRewardedParticipants",
						"offset": 0,
						"slot": "8",
						"type": "t_uint256"
					},
					{
						"astId": 4825,
						"contract": "smart-contract/hardhat/contracts/ClosedSurveyV4.sol:ClosedSurveyV4",
						"label": "numberOfClaimedRewards",
						"offset": 0,
						"slot": "9",
						"type": "t_uint256"
					},
					{
						"astId": 4828,
						"contract": "smart-contract/hardhat/contracts/ClosedSurveyV4.sol:ClosedSurveyV4",
						"label": "numberOfScreenedParticipants",
						"offset": 0,
						"slot": "10",
						"type": "t_uint256"
					},
					{
						"astId": 4831,
						"contract": "smart-contract/hardhat/contracts/ClosedSurveyV4.sol:ClosedSurveyV4",
						"label": "numberOfUsedSignatures",
						"offset": 0,
						"slot": "11",
						"type": "t_uint256"
					}
				],
				"types": {
					"t_address": {
						"encoding": "inplace",
						"label": "address",
						"numberOfBytes": "20"
					},
					"t_bool": {
						"encoding": "inplace",
						"label": "bool",
						"numberOfBytes": "1"
					},
					"t_bytes_memory_ptr": {
						"encoding": "bytes",
						"label": "bytes",
						"numberOfBytes": "32"
					},
					"t_mapping(t_address,t_bool)": {
						"encoding": "mapping",
						"key": "t_address",
						"label": "mapping(address => bool)",
						"numberOfBytes": "32",
						"value": "t_bool"
					},
					"t_mapping(t_bytes_memory_ptr,t_bool)": {
						"encoding": "mapping",
						"key": "t_bytes_memory_ptr",
						"label": "mapping(bytes => bool)",
						"numberOfBytes": "32",
						"value": "t_bool"
					},
					"t_uint256": {
						"encoding": "inplace",
						"label": "uint256",
						"numberOfBytes": "32"
					}
				}
			},
			"userdoc": {
				"events": {
					"ParticipantMarkedAsRewarded(address)": {
						"notice": "Emitted when a participant is marked as having received their reward"
					},
					"ParticipantRewarded(address,uint256)": {
						"notice": "Emitted when a participant successfully claims their reward"
					},
					"ParticipantScreened(address)": {
						"notice": "Emitted when a participant completes the screening process"
					},
					"RewardAmountUpdated(uint256,uint256)": {
						"notice": "Emitted when the reward amount per participant is updated"
					},
					"RewardFundsWithdrawn(address,uint256)": {
						"notice": "Emitted when reward funds are withdrawn by the researcher"
					},
					"SignatureUsed(bytes,address)": {
						"notice": "Emitted when a signature is used to claim a reward"
					},
					"TargetNumberOfParticipantsUpdated(uint256,uint256)": {
						"notice": "Emitted when the target number of participants is updated"
					}
				},
				"kind": "user",
				"methods": {
					"cUSD()": {
						"notice": "Reference to the cUSD token contract"
					},
					"checkIfParticipantIsScreened(address)": {
						"notice": "Checks if a given participant has been screened"
					},
					"checkIfSignatureIsUsed(bytes)": {
						"notice": "Checks if a given signature has been used"
					},
					"constructor": {
						"notice": "Initializes the survey contract with initial parameters"
					},
					"getNumberOfClaimedRewards()": {
						"notice": "Gets the number of rewards that have been claimed"
					},
					"getNumberOfRewardedParticipants()": {
						"notice": "Gets the current number of rewarded participants"
					},
					"getNumberOfScreenedParticipants()": {
						"notice": "Gets the number of participants who have been screened"
					},
					"getNumberOfUsedSignatures()": {
						"notice": "Gets the number of signatures that have been used"
					},
					"getRewardAmountPerParticipantInWei()": {
						"notice": "Gets the current reward amount per participant"
					},
					"getTargetNumberOfParticipants()": {
						"notice": "Gets the target number of participants"
					},
					"numberOfScreenedParticipants()": {
						"notice": "Counter for number of participants who have been screened"
					},
					"numberOfUsedSignatures()": {
						"notice": "Counter for number of signatures that have been used"
					},
					"pauseSurvey()": {
						"notice": "Pauses all reward claims and withdrawals"
					},
					"processRewardClaimByParticipant(address,string,uint256,bytes)": {
						"notice": "Allows a participant to claim their reward using a valid signature"
					},
					"rewardAmountPerParticipantInWei()": {
						"notice": "Amount of cUSD to reward each participant"
					},
					"targetNumberOfParticipants()": {
						"notice": "Maximum number of participants allowed in the survey"
					},
					"unpauseSurvey()": {
						"notice": "Resumes reward claims and withdrawals"
					},
					"updateRewardAmountPerParticipant(uint256)": {
						"notice": "Updates the reward amount per participant"
					},
					"updateTargetNumberOfParticipants(uint256)": {
						"notice": "Updates the target number of participants for the survey"
					},
					"withdrawAllRewardFundsToResearcher()": {
						"notice": "Allows the researcher to withdraw all remaining cUSD from the contract"
					}
				},
				"notice": "Contract for managing a closed survey system with participant rewards",
				"version": 1
			}
		}
	}
}